{
	"Day-04/code1.sol": {
		"Campaign": {
			"abi": [
				{
					"inputs": [
						{
							"internalType": "string",
							"name": "campaignTitle",
							"type": "string"
						},
						{
							"internalType": "uint256",
							"name": "requiredCampaignAmount",
							"type": "uint256"
						},
						{
							"internalType": "string",
							"name": "imgURI",
							"type": "string"
						},
						{
							"internalType": "string",
							"name": "storyURI",
							"type": "string"
						},
						{
							"internalType": "address",
							"name": "campaignOwner",
							"type": "address"
						}
					],
					"stateMutability": "nonpayable",
					"type": "constructor"
				},
				{
					"anonymous": false,
					"inputs": [
						{
							"indexed": true,
							"internalType": "address",
							"name": "donar",
							"type": "address"
						},
						{
							"indexed": true,
							"internalType": "uint256",
							"name": "amount",
							"type": "uint256"
						},
						{
							"indexed": true,
							"internalType": "uint256",
							"name": "timestamp",
							"type": "uint256"
						}
					],
					"name": "donated",
					"type": "event"
				},
				{
					"inputs": [],
					"name": "donate",
					"outputs": [],
					"stateMutability": "payable",
					"type": "function"
				},
				{
					"inputs": [],
					"name": "image",
					"outputs": [
						{
							"internalType": "string",
							"name": "",
							"type": "string"
						}
					],
					"stateMutability": "view",
					"type": "function"
				},
				{
					"inputs": [],
					"name": "owner",
					"outputs": [
						{
							"internalType": "address payable",
							"name": "",
							"type": "address"
						}
					],
					"stateMutability": "view",
					"type": "function"
				},
				{
					"inputs": [],
					"name": "receivedAmount",
					"outputs": [
						{
							"internalType": "uint256",
							"name": "",
							"type": "uint256"
						}
					],
					"stateMutability": "view",
					"type": "function"
				},
				{
					"inputs": [],
					"name": "requiredAmount",
					"outputs": [
						{
							"internalType": "uint256",
							"name": "",
							"type": "uint256"
						}
					],
					"stateMutability": "view",
					"type": "function"
				},
				{
					"inputs": [],
					"name": "story",
					"outputs": [
						{
							"internalType": "string",
							"name": "",
							"type": "string"
						}
					],
					"stateMutability": "view",
					"type": "function"
				},
				{
					"inputs": [],
					"name": "title",
					"outputs": [
						{
							"internalType": "string",
							"name": "",
							"type": "string"
						}
					],
					"stateMutability": "view",
					"type": "function"
				}
			],
			"devdoc": {
				"kind": "dev",
				"methods": {},
				"version": 1
			},
			"evm": {
				"assembly": "    /* \"Day-04/code1.sol\":1075:2017  contract Campaign {... */\n  mstore(0x40, 0x80)\n    /* \"Day-04/code1.sol\":1371:1747  constructor(... */\n  callvalue\n  dup1\n  iszero\n  tag_1\n  jumpi\n  0x00\n  dup1\n  revert\ntag_1:\n  pop\n  mload(0x40)\n  sub(codesize, bytecodeSize)\n  dup1\n  bytecodeSize\n  dup4\n  codecopy\n  dup2\n  dup2\n  add\n  0x40\n  mstore\n  dup2\n  add\n  swap1\n  tag_2\n  swap2\n  swap1\n  tag_3\n  jump\t// in\ntag_2:\n    /* \"Day-04/code1.sol\":1583:1596  campaignTitle */\n  dup5\n    /* \"Day-04/code1.sol\":1575:1580  title */\n  0x00\n    /* \"Day-04/code1.sol\":1575:1596  title = campaignTitle */\n  swap1\n  dup2\n  tag_6\n  swap2\n  swap1\n  tag_7\n  jump\t// in\ntag_6:\n  pop\n    /* \"Day-04/code1.sol\":1624:1646  requiredCampaignAmount */\n  dup4\n    /* \"Day-04/code1.sol\":1607:1621  requiredAmount */\n  0x01\n    /* \"Day-04/code1.sol\":1607:1646  requiredAmount = requiredCampaignAmount */\n  dup2\n  swap1\n  sstore\n  pop\n    /* \"Day-04/code1.sol\":1665:1671  imgURI */\n  dup3\n    /* \"Day-04/code1.sol\":1657:1662  image */\n  0x02\n    /* \"Day-04/code1.sol\":1657:1671  image = imgURI */\n  swap1\n  dup2\n  tag_8\n  swap2\n  swap1\n  tag_7\n  jump\t// in\ntag_8:\n  pop\n    /* \"Day-04/code1.sol\":1690:1698  storyURI */\n  dup2\n    /* \"Day-04/code1.sol\":1682:1687  story */\n  0x03\n    /* \"Day-04/code1.sol\":1682:1698  story = storyURI */\n  swap1\n  dup2\n  tag_9\n  swap2\n  swap1\n  tag_7\n  jump\t// in\ntag_9:\n  pop\n    /* \"Day-04/code1.sol\":1725:1738  campaignOwner */\n  dup1\n    /* \"Day-04/code1.sol\":1709:1714  owner */\n  0x04\n  0x00\n    /* \"Day-04/code1.sol\":1709:1739  owner = payable(campaignOwner) */\n  0x0100\n  exp\n  dup2\n  sload\n  dup2\n  0xffffffffffffffffffffffffffffffffffffffff\n  mul\n  not\n  and\n  swap1\n  dup4\n  0xffffffffffffffffffffffffffffffffffffffff\n  and\n  mul\n  or\n  swap1\n  sstore\n  pop\n    /* \"Day-04/code1.sol\":1371:1747  constructor(... */\n  pop\n  pop\n  pop\n  pop\n  pop\n    /* \"Day-04/code1.sol\":1075:2017  contract Campaign {... */\n  jump(tag_10)\n    /* \"#utility.yul\":7:82   */\ntag_11:\n    /* \"#utility.yul\":40:46   */\n  0x00\n    /* \"#utility.yul\":73:75   */\n  0x40\n    /* \"#utility.yul\":67:76   */\n  mload\n    /* \"#utility.yul\":57:76   */\n  swap1\n  pop\n    /* \"#utility.yul\":7:82   */\n  swap1\n  jump\t// out\n    /* \"#utility.yul\":88:205   */\ntag_12:\n    /* \"#utility.yul\":197:198   */\n  0x00\n    /* \"#utility.yul\":194:195   */\n  dup1\n    /* \"#utility.yul\":187:199   */\n  revert\n    /* \"#utility.yul\":211:328   */\ntag_13:\n    /* \"#utility.yul\":320:321   */\n  0x00\n    /* \"#utility.yul\":317:318   */\n  dup1\n    /* \"#utility.yul\":310:322   */\n  revert\n    /* \"#utility.yul\":334:451   */\ntag_14:\n    /* \"#utility.yul\":443:444   */\n  0x00\n    /* \"#utility.yul\":440:441   */\n  dup1\n    /* \"#utility.yul\":433:445   */\n  revert\n    /* \"#utility.yul\":457:574   */\ntag_15:\n    /* \"#utility.yul\":566:567   */\n  0x00\n    /* \"#utility.yul\":563:564   */\n  dup1\n    /* \"#utility.yul\":556:568   */\n  revert\n    /* \"#utility.yul\":580:682   */\ntag_16:\n    /* \"#utility.yul\":621:627   */\n  0x00\n    /* \"#utility.yul\":672:674   */\n  0x1f\n    /* \"#utility.yul\":668:675   */\n  not\n    /* \"#utility.yul\":663:665   */\n  0x1f\n    /* \"#utility.yul\":656:661   */\n  dup4\n    /* \"#utility.yul\":652:666   */\n  add\n    /* \"#utility.yul\":648:676   */\n  and\n    /* \"#utility.yul\":638:676   */\n  swap1\n  pop\n    /* \"#utility.yul\":580:682   */\n  swap2\n  swap1\n  pop\n  jump\t// out\n    /* \"#utility.yul\":688:868   */\ntag_17:\n    /* \"#utility.yul\":736:813   */\n  0x4e487b7100000000000000000000000000000000000000000000000000000000\n    /* \"#utility.yul\":733:734   */\n  0x00\n    /* \"#utility.yul\":726:814   */\n  mstore\n    /* \"#utility.yul\":833:837   */\n  0x41\n    /* \"#utility.yul\":830:831   */\n  0x04\n    /* \"#utility.yul\":823:838   */\n  mstore\n    /* \"#utility.yul\":857:861   */\n  0x24\n    /* \"#utility.yul\":854:855   */\n  0x00\n    /* \"#utility.yul\":847:862   */\n  revert\n    /* \"#utility.yul\":874:1155   */\ntag_18:\n    /* \"#utility.yul\":957:984   */\n  tag_58\n    /* \"#utility.yul\":979:983   */\n  dup3\n    /* \"#utility.yul\":957:984   */\n  tag_16\n  jump\t// in\ntag_58:\n    /* \"#utility.yul\":949:955   */\n  dup2\n    /* \"#utility.yul\":945:985   */\n  add\n    /* \"#utility.yul\":1087:1093   */\n  dup2\n    /* \"#utility.yul\":1075:1085   */\n  dup2\n    /* \"#utility.yul\":1072:1094   */\n  lt\n    /* \"#utility.yul\":1051:1069   */\n  0xffffffffffffffff\n    /* \"#utility.yul\":1039:1049   */\n  dup3\n    /* \"#utility.yul\":1036:1070   */\n  gt\n    /* \"#utility.yul\":1033:1095   */\n  or\n    /* \"#utility.yul\":1030:1118   */\n  iszero\n  tag_59\n  jumpi\n    /* \"#utility.yul\":1098:1116   */\n  tag_60\n  tag_17\n  jump\t// in\ntag_60:\n    /* \"#utility.yul\":1030:1118   */\ntag_59:\n    /* \"#utility.yul\":1138:1148   */\n  dup1\n    /* \"#utility.yul\":1134:1136   */\n  0x40\n    /* \"#utility.yul\":1127:1149   */\n  mstore\n    /* \"#utility.yul\":917:1155   */\n  pop\n    /* \"#utility.yul\":874:1155   */\n  pop\n  pop\n  jump\t// out\n    /* \"#utility.yul\":1161:1290   */\ntag_19:\n    /* \"#utility.yul\":1195:1201   */\n  0x00\n    /* \"#utility.yul\":1222:1242   */\n  tag_62\n  tag_11\n  jump\t// in\ntag_62:\n    /* \"#utility.yul\":1212:1242   */\n  swap1\n  pop\n    /* \"#utility.yul\":1251:1284   */\n  tag_63\n    /* \"#utility.yul\":1279:1283   */\n  dup3\n    /* \"#utility.yul\":1271:1277   */\n  dup3\n    /* \"#utility.yul\":1251:1284   */\n  tag_18\n  jump\t// in\ntag_63:\n    /* \"#utility.yul\":1161:1290   */\n  swap2\n  swap1\n  pop\n  jump\t// out\n    /* \"#utility.yul\":1296:1604   */\ntag_20:\n    /* \"#utility.yul\":1358:1362   */\n  0x00\n    /* \"#utility.yul\":1448:1466   */\n  0xffffffffffffffff\n    /* \"#utility.yul\":1440:1446   */\n  dup3\n    /* \"#utility.yul\":1437:1467   */\n  gt\n    /* \"#utility.yul\":1434:1490   */\n  iszero\n  tag_65\n  jumpi\n    /* \"#utility.yul\":1470:1488   */\n  tag_66\n  tag_17\n  jump\t// in\ntag_66:\n    /* \"#utility.yul\":1434:1490   */\ntag_65:\n    /* \"#utility.yul\":1508:1537   */\n  tag_67\n    /* \"#utility.yul\":1530:1536   */\n  dup3\n    /* \"#utility.yul\":1508:1537   */\n  tag_16\n  jump\t// in\ntag_67:\n    /* \"#utility.yul\":1500:1537   */\n  swap1\n  pop\n    /* \"#utility.yul\":1592:1596   */\n  0x20\n    /* \"#utility.yul\":1586:1590   */\n  dup2\n    /* \"#utility.yul\":1582:1597   */\n  add\n    /* \"#utility.yul\":1574:1597   */\n  swap1\n  pop\n    /* \"#utility.yul\":1296:1604   */\n  swap2\n  swap1\n  pop\n  jump\t// out\n    /* \"#utility.yul\":1610:1749   */\ntag_21:\n    /* \"#utility.yul\":1699:1705   */\n  dup3\n    /* \"#utility.yul\":1694:1697   */\n  dup2\n    /* \"#utility.yul\":1689:1692   */\n  dup4\n    /* \"#utility.yul\":1683:1706   */\n  mcopy\n    /* \"#utility.yul\":1740:1741   */\n  0x00\n    /* \"#utility.yul\":1731:1737   */\n  dup4\n    /* \"#utility.yul\":1726:1729   */\n  dup4\n    /* \"#utility.yul\":1722:1738   */\n  add\n    /* \"#utility.yul\":1715:1742   */\n  mstore\n    /* \"#utility.yul\":1610:1749   */\n  pop\n  pop\n  pop\n  jump\t// out\n    /* \"#utility.yul\":1755:2189   */\ntag_22:\n    /* \"#utility.yul\":1844:1849   */\n  0x00\n    /* \"#utility.yul\":1869:1935   */\n  tag_70\n    /* \"#utility.yul\":1885:1934   */\n  tag_71\n    /* \"#utility.yul\":1927:1933   */\n  dup5\n    /* \"#utility.yul\":1885:1934   */\n  tag_20\n  jump\t// in\ntag_71:\n    /* \"#utility.yul\":1869:1935   */\n  tag_19\n  jump\t// in\ntag_70:\n    /* \"#utility.yul\":1860:1935   */\n  swap1\n  pop\n    /* \"#utility.yul\":1958:1964   */\n  dup3\n    /* \"#utility.yul\":1951:1956   */\n  dup2\n    /* \"#utility.yul\":1944:1965   */\n  mstore\n    /* \"#utility.yul\":1996:2000   */\n  0x20\n    /* \"#utility.yul\":1989:1994   */\n  dup2\n    /* \"#utility.yul\":1985:2001   */\n  add\n    /* \"#utility.yul\":2034:2037   */\n  dup5\n    /* \"#utility.yul\":2025:2031   */\n  dup5\n    /* \"#utility.yul\":2020:2023   */\n  dup5\n    /* \"#utility.yul\":2016:2032   */\n  add\n    /* \"#utility.yul\":2013:2038   */\n  gt\n    /* \"#utility.yul\":2010:2122   */\n  iszero\n  tag_72\n  jumpi\n    /* \"#utility.yul\":2041:2120   */\n  tag_73\n  tag_15\n  jump\t// in\ntag_73:\n    /* \"#utility.yul\":2010:2122   */\ntag_72:\n    /* \"#utility.yul\":2131:2183   */\n  tag_74\n    /* \"#utility.yul\":2176:2182   */\n  dup5\n    /* \"#utility.yul\":2171:2174   */\n  dup3\n    /* \"#utility.yul\":2166:2169   */\n  dup6\n    /* \"#utility.yul\":2131:2183   */\n  tag_21\n  jump\t// in\ntag_74:\n    /* \"#utility.yul\":1850:2189   */\n  pop\n    /* \"#utility.yul\":1755:2189   */\n  swap4\n  swap3\n  pop\n  pop\n  pop\n  jump\t// out\n    /* \"#utility.yul\":2209:2564   */\ntag_23:\n    /* \"#utility.yul\":2276:2281   */\n  0x00\n    /* \"#utility.yul\":2325:2328   */\n  dup3\n    /* \"#utility.yul\":2318:2322   */\n  0x1f\n    /* \"#utility.yul\":2310:2316   */\n  dup4\n    /* \"#utility.yul\":2306:2323   */\n  add\n    /* \"#utility.yul\":2302:2329   */\n  slt\n    /* \"#utility.yul\":2292:2414   */\n  tag_76\n  jumpi\n    /* \"#utility.yul\":2333:2412   */\n  tag_77\n  tag_14\n  jump\t// in\ntag_77:\n    /* \"#utility.yul\":2292:2414   */\ntag_76:\n    /* \"#utility.yul\":2443:2449   */\n  dup2\n    /* \"#utility.yul\":2437:2450   */\n  mload\n    /* \"#utility.yul\":2468:2558   */\n  tag_78\n    /* \"#utility.yul\":2554:2557   */\n  dup5\n    /* \"#utility.yul\":2546:2552   */\n  dup3\n    /* \"#utility.yul\":2539:2543   */\n  0x20\n    /* \"#utility.yul\":2531:2537   */\n  dup7\n    /* \"#utility.yul\":2527:2544   */\n  add\n    /* \"#utility.yul\":2468:2558   */\n  tag_22\n  jump\t// in\ntag_78:\n    /* \"#utility.yul\":2459:2558   */\n  swap2\n  pop\n    /* \"#utility.yul\":2282:2564   */\n  pop\n    /* \"#utility.yul\":2209:2564   */\n  swap3\n  swap2\n  pop\n  pop\n  jump\t// out\n    /* \"#utility.yul\":2570:2647   */\ntag_24:\n    /* \"#utility.yul\":2607:2614   */\n  0x00\n    /* \"#utility.yul\":2636:2641   */\n  dup2\n    /* \"#utility.yul\":2625:2641   */\n  swap1\n  pop\n    /* \"#utility.yul\":2570:2647   */\n  swap2\n  swap1\n  pop\n  jump\t// out\n    /* \"#utility.yul\":2653:2775   */\ntag_25:\n    /* \"#utility.yul\":2726:2750   */\n  tag_81\n    /* \"#utility.yul\":2744:2749   */\n  dup2\n    /* \"#utility.yul\":2726:2750   */\n  tag_24\n  jump\t// in\ntag_81:\n    /* \"#utility.yul\":2719:2724   */\n  dup2\n    /* \"#utility.yul\":2716:2751   */\n  eq\n    /* \"#utility.yul\":2706:2769   */\n  tag_82\n  jumpi\n    /* \"#utility.yul\":2765:2766   */\n  0x00\n    /* \"#utility.yul\":2762:2763   */\n  dup1\n    /* \"#utility.yul\":2755:2767   */\n  revert\n    /* \"#utility.yul\":2706:2769   */\ntag_82:\n    /* \"#utility.yul\":2653:2775   */\n  pop\n  jump\t// out\n    /* \"#utility.yul\":2781:2924   */\ntag_26:\n    /* \"#utility.yul\":2838:2843   */\n  0x00\n    /* \"#utility.yul\":2869:2875   */\n  dup2\n    /* \"#utility.yul\":2863:2876   */\n  mload\n    /* \"#utility.yul\":2854:2876   */\n  swap1\n  pop\n    /* \"#utility.yul\":2885:2918   */\n  tag_84\n    /* \"#utility.yul\":2912:2917   */\n  dup2\n    /* \"#utility.yul\":2885:2918   */\n  tag_25\n  jump\t// in\ntag_84:\n    /* \"#utility.yul\":2781:2924   */\n  swap3\n  swap2\n  pop\n  pop\n  jump\t// out\n    /* \"#utility.yul\":2930:3056   */\ntag_27:\n    /* \"#utility.yul\":2967:2974   */\n  0x00\n    /* \"#utility.yul\":3007:3049   */\n  0xffffffffffffffffffffffffffffffffffffffff\n    /* \"#utility.yul\":3000:3005   */\n  dup3\n    /* \"#utility.yul\":2996:3050   */\n  and\n    /* \"#utility.yul\":2985:3050   */\n  swap1\n  pop\n    /* \"#utility.yul\":2930:3056   */\n  swap2\n  swap1\n  pop\n  jump\t// out\n    /* \"#utility.yul\":3062:3158   */\ntag_28:\n    /* \"#utility.yul\":3099:3106   */\n  0x00\n    /* \"#utility.yul\":3128:3152   */\n  tag_87\n    /* \"#utility.yul\":3146:3151   */\n  dup3\n    /* \"#utility.yul\":3128:3152   */\n  tag_27\n  jump\t// in\ntag_87:\n    /* \"#utility.yul\":3117:3152   */\n  swap1\n  pop\n    /* \"#utility.yul\":3062:3158   */\n  swap2\n  swap1\n  pop\n  jump\t// out\n    /* \"#utility.yul\":3164:3286   */\ntag_29:\n    /* \"#utility.yul\":3237:3261   */\n  tag_89\n    /* \"#utility.yul\":3255:3260   */\n  dup2\n    /* \"#utility.yul\":3237:3261   */\n  tag_28\n  jump\t// in\ntag_89:\n    /* \"#utility.yul\":3230:3235   */\n  dup2\n    /* \"#utility.yul\":3227:3262   */\n  eq\n    /* \"#utility.yul\":3217:3280   */\n  tag_90\n  jumpi\n    /* \"#utility.yul\":3276:3277   */\n  0x00\n    /* \"#utility.yul\":3273:3274   */\n  dup1\n    /* \"#utility.yul\":3266:3278   */\n  revert\n    /* \"#utility.yul\":3217:3280   */\ntag_90:\n    /* \"#utility.yul\":3164:3286   */\n  pop\n  jump\t// out\n    /* \"#utility.yul\":3292:3435   */\ntag_30:\n    /* \"#utility.yul\":3349:3354   */\n  0x00\n    /* \"#utility.yul\":3380:3386   */\n  dup2\n    /* \"#utility.yul\":3374:3387   */\n  mload\n    /* \"#utility.yul\":3365:3387   */\n  swap1\n  pop\n    /* \"#utility.yul\":3396:3429   */\n  tag_92\n    /* \"#utility.yul\":3423:3428   */\n  dup2\n    /* \"#utility.yul\":3396:3429   */\n  tag_29\n  jump\t// in\ntag_92:\n    /* \"#utility.yul\":3292:3435   */\n  swap3\n  swap2\n  pop\n  pop\n  jump\t// out\n    /* \"#utility.yul\":3441:4937   */\ntag_3:\n    /* \"#utility.yul\":3577:3583   */\n  0x00\n    /* \"#utility.yul\":3585:3591   */\n  dup1\n    /* \"#utility.yul\":3593:3599   */\n  0x00\n    /* \"#utility.yul\":3601:3607   */\n  dup1\n    /* \"#utility.yul\":3609:3615   */\n  0x00\n    /* \"#utility.yul\":3658:3661   */\n  0xa0\n    /* \"#utility.yul\":3646:3655   */\n  dup7\n    /* \"#utility.yul\":3637:3644   */\n  dup9\n    /* \"#utility.yul\":3633:3656   */\n  sub\n    /* \"#utility.yul\":3629:3662   */\n  slt\n    /* \"#utility.yul\":3626:3746   */\n  iszero\n  tag_94\n  jumpi\n    /* \"#utility.yul\":3665:3744   */\n  tag_95\n  tag_12\n  jump\t// in\ntag_95:\n    /* \"#utility.yul\":3626:3746   */\ntag_94:\n    /* \"#utility.yul\":3806:3807   */\n  0x00\n    /* \"#utility.yul\":3795:3804   */\n  dup7\n    /* \"#utility.yul\":3791:3808   */\n  add\n    /* \"#utility.yul\":3785:3809   */\n  mload\n    /* \"#utility.yul\":3836:3854   */\n  0xffffffffffffffff\n    /* \"#utility.yul\":3828:3834   */\n  dup2\n    /* \"#utility.yul\":3825:3855   */\n  gt\n    /* \"#utility.yul\":3822:3939   */\n  iszero\n  tag_96\n  jumpi\n    /* \"#utility.yul\":3858:3937   */\n  tag_97\n  tag_13\n  jump\t// in\ntag_97:\n    /* \"#utility.yul\":3822:3939   */\ntag_96:\n    /* \"#utility.yul\":3963:4037   */\n  tag_98\n    /* \"#utility.yul\":4029:4036   */\n  dup9\n    /* \"#utility.yul\":4020:4026   */\n  dup3\n    /* \"#utility.yul\":4009:4018   */\n  dup10\n    /* \"#utility.yul\":4005:4027   */\n  add\n    /* \"#utility.yul\":3963:4037   */\n  tag_23\n  jump\t// in\ntag_98:\n    /* \"#utility.yul\":3953:4037   */\n  swap6\n  pop\n    /* \"#utility.yul\":3756:4047   */\n  pop\n    /* \"#utility.yul\":4086:4088   */\n  0x20\n    /* \"#utility.yul\":4112:4176   */\n  tag_99\n    /* \"#utility.yul\":4168:4175   */\n  dup9\n    /* \"#utility.yul\":4159:4165   */\n  dup3\n    /* \"#utility.yul\":4148:4157   */\n  dup10\n    /* \"#utility.yul\":4144:4166   */\n  add\n    /* \"#utility.yul\":4112:4176   */\n  tag_26\n  jump\t// in\ntag_99:\n    /* \"#utility.yul\":4102:4176   */\n  swap5\n  pop\n    /* \"#utility.yul\":4057:4186   */\n  pop\n    /* \"#utility.yul\":4246:4248   */\n  0x40\n    /* \"#utility.yul\":4235:4244   */\n  dup7\n    /* \"#utility.yul\":4231:4249   */\n  add\n    /* \"#utility.yul\":4225:4250   */\n  mload\n    /* \"#utility.yul\":4277:4295   */\n  0xffffffffffffffff\n    /* \"#utility.yul\":4269:4275   */\n  dup2\n    /* \"#utility.yul\":4266:4296   */\n  gt\n    /* \"#utility.yul\":4263:4380   */\n  iszero\n  tag_100\n  jumpi\n    /* \"#utility.yul\":4299:4378   */\n  tag_101\n  tag_13\n  jump\t// in\ntag_101:\n    /* \"#utility.yul\":4263:4380   */\ntag_100:\n    /* \"#utility.yul\":4404:4478   */\n  tag_102\n    /* \"#utility.yul\":4470:4477   */\n  dup9\n    /* \"#utility.yul\":4461:4467   */\n  dup3\n    /* \"#utility.yul\":4450:4459   */\n  dup10\n    /* \"#utility.yul\":4446:4468   */\n  add\n    /* \"#utility.yul\":4404:4478   */\n  tag_23\n  jump\t// in\ntag_102:\n    /* \"#utility.yul\":4394:4478   */\n  swap4\n  pop\n    /* \"#utility.yul\":4196:4488   */\n  pop\n    /* \"#utility.yul\":4548:4550   */\n  0x60\n    /* \"#utility.yul\":4537:4546   */\n  dup7\n    /* \"#utility.yul\":4533:4551   */\n  add\n    /* \"#utility.yul\":4527:4552   */\n  mload\n    /* \"#utility.yul\":4579:4597   */\n  0xffffffffffffffff\n    /* \"#utility.yul\":4571:4577   */\n  dup2\n    /* \"#utility.yul\":4568:4598   */\n  gt\n    /* \"#utility.yul\":4565:4682   */\n  iszero\n  tag_103\n  jumpi\n    /* \"#utility.yul\":4601:4680   */\n  tag_104\n  tag_13\n  jump\t// in\ntag_104:\n    /* \"#utility.yul\":4565:4682   */\ntag_103:\n    /* \"#utility.yul\":4706:4780   */\n  tag_105\n    /* \"#utility.yul\":4772:4779   */\n  dup9\n    /* \"#utility.yul\":4763:4769   */\n  dup3\n    /* \"#utility.yul\":4752:4761   */\n  dup10\n    /* \"#utility.yul\":4748:4770   */\n  add\n    /* \"#utility.yul\":4706:4780   */\n  tag_23\n  jump\t// in\ntag_105:\n    /* \"#utility.yul\":4696:4780   */\n  swap3\n  pop\n    /* \"#utility.yul\":4498:4790   */\n  pop\n    /* \"#utility.yul\":4829:4832   */\n  0x80\n    /* \"#utility.yul\":4856:4920   */\n  tag_106\n    /* \"#utility.yul\":4912:4919   */\n  dup9\n    /* \"#utility.yul\":4903:4909   */\n  dup3\n    /* \"#utility.yul\":4892:4901   */\n  dup10\n    /* \"#utility.yul\":4888:4910   */\n  add\n    /* \"#utility.yul\":4856:4920   */\n  tag_30\n  jump\t// in\ntag_106:\n    /* \"#utility.yul\":4846:4920   */\n  swap2\n  pop\n    /* \"#utility.yul\":4800:4930   */\n  pop\n    /* \"#utility.yul\":3441:4937   */\n  swap3\n  swap6\n  pop\n  swap3\n  swap6\n  swap1\n  swap4\n  pop\n  jump\t// out\n    /* \"#utility.yul\":4943:5042   */\ntag_31:\n    /* \"#utility.yul\":4995:5001   */\n  0x00\n    /* \"#utility.yul\":5029:5034   */\n  dup2\n    /* \"#utility.yul\":5023:5035   */\n  mload\n    /* \"#utility.yul\":5013:5035   */\n  swap1\n  pop\n    /* \"#utility.yul\":4943:5042   */\n  swap2\n  swap1\n  pop\n  jump\t// out\n    /* \"#utility.yul\":5048:5228   */\ntag_32:\n    /* \"#utility.yul\":5096:5173   */\n  0x4e487b7100000000000000000000000000000000000000000000000000000000\n    /* \"#utility.yul\":5093:5094   */\n  0x00\n    /* \"#utility.yul\":5086:5174   */\n  mstore\n    /* \"#utility.yul\":5193:5197   */\n  0x22\n    /* \"#utility.yul\":5190:5191   */\n  0x04\n    /* \"#utility.yul\":5183:5198   */\n  mstore\n    /* \"#utility.yul\":5217:5221   */\n  0x24\n    /* \"#utility.yul\":5214:5215   */\n  0x00\n    /* \"#utility.yul\":5207:5222   */\n  revert\n    /* \"#utility.yul\":5234:5554   */\ntag_33:\n    /* \"#utility.yul\":5278:5284   */\n  0x00\n    /* \"#utility.yul\":5315:5316   */\n  0x02\n    /* \"#utility.yul\":5309:5313   */\n  dup3\n    /* \"#utility.yul\":5305:5317   */\n  div\n    /* \"#utility.yul\":5295:5317   */\n  swap1\n  pop\n    /* \"#utility.yul\":5362:5363   */\n  0x01\n    /* \"#utility.yul\":5356:5360   */\n  dup3\n    /* \"#utility.yul\":5352:5364   */\n  and\n    /* \"#utility.yul\":5383:5401   */\n  dup1\n    /* \"#utility.yul\":5373:5454   */\n  tag_110\n  jumpi\n    /* \"#utility.yul\":5439:5443   */\n  0x7f\n    /* \"#utility.yul\":5431:5437   */\n  dup3\n    /* \"#utility.yul\":5427:5444   */\n  and\n    /* \"#utility.yul\":5417:5444   */\n  swap2\n  pop\n    /* \"#utility.yul\":5373:5454   */\ntag_110:\n    /* \"#utility.yul\":5501:5503   */\n  0x20\n    /* \"#utility.yul\":5493:5499   */\n  dup3\n    /* \"#utility.yul\":5490:5504   */\n  lt\n    /* \"#utility.yul\":5470:5488   */\n  dup2\n    /* \"#utility.yul\":5467:5505   */\n  sub\n    /* \"#utility.yul\":5464:5548   */\n  tag_111\n  jumpi\n    /* \"#utility.yul\":5520:5538   */\n  tag_112\n  tag_32\n  jump\t// in\ntag_112:\n    /* \"#utility.yul\":5464:5548   */\ntag_111:\n    /* \"#utility.yul\":5285:5554   */\n  pop\n    /* \"#utility.yul\":5234:5554   */\n  swap2\n  swap1\n  pop\n  jump\t// out\n    /* \"#utility.yul\":5560:5701   */\ntag_34:\n    /* \"#utility.yul\":5609:5613   */\n  0x00\n    /* \"#utility.yul\":5632:5635   */\n  dup2\n    /* \"#utility.yul\":5624:5635   */\n  swap1\n  pop\n    /* \"#utility.yul\":5655:5658   */\n  dup2\n    /* \"#utility.yul\":5652:5653   */\n  0x00\n    /* \"#utility.yul\":5645:5659   */\n  mstore\n    /* \"#utility.yul\":5689:5693   */\n  0x20\n    /* \"#utility.yul\":5686:5687   */\n  0x00\n    /* \"#utility.yul\":5676:5694   */\n  keccak256\n    /* \"#utility.yul\":5668:5694   */\n  swap1\n  pop\n    /* \"#utility.yul\":5560:5701   */\n  swap2\n  swap1\n  pop\n  jump\t// out\n    /* \"#utility.yul\":5707:5800   */\ntag_35:\n    /* \"#utility.yul\":5744:5750   */\n  0x00\n    /* \"#utility.yul\":5791:5793   */\n  0x20\n    /* \"#utility.yul\":5786:5788   */\n  0x1f\n    /* \"#utility.yul\":5779:5784   */\n  dup4\n    /* \"#utility.yul\":5775:5789   */\n  add\n    /* \"#utility.yul\":5771:5794   */\n  div\n    /* \"#utility.yul\":5761:5794   */\n  swap1\n  pop\n    /* \"#utility.yul\":5707:5800   */\n  swap2\n  swap1\n  pop\n  jump\t// out\n    /* \"#utility.yul\":5806:5913   */\ntag_36:\n    /* \"#utility.yul\":5850:5858   */\n  0x00\n    /* \"#utility.yul\":5900:5905   */\n  dup3\n    /* \"#utility.yul\":5894:5898   */\n  dup3\n    /* \"#utility.yul\":5890:5906   */\n  shl\n    /* \"#utility.yul\":5869:5906   */\n  swap1\n  pop\n    /* \"#utility.yul\":5806:5913   */\n  swap3\n  swap2\n  pop\n  pop\n  jump\t// out\n    /* \"#utility.yul\":5919:6312   */\ntag_37:\n    /* \"#utility.yul\":5988:5994   */\n  0x00\n    /* \"#utility.yul\":6038:6039   */\n  0x08\n    /* \"#utility.yul\":6026:6036   */\n  dup4\n    /* \"#utility.yul\":6022:6040   */\n  mul\n    /* \"#utility.yul\":6061:6158   */\n  tag_117\n    /* \"#utility.yul\":6091:6157   */\n  0xffffffffffffffffffffffffffffffffffffffffffffffffffffffffffffffff\n    /* \"#utility.yul\":6080:6089   */\n  dup3\n    /* \"#utility.yul\":6061:6158   */\n  tag_36\n  jump\t// in\ntag_117:\n    /* \"#utility.yul\":6179:6218   */\n  tag_118\n    /* \"#utility.yul\":6209:6217   */\n  dup7\n    /* \"#utility.yul\":6198:6207   */\n  dup4\n    /* \"#utility.yul\":6179:6218   */\n  tag_36\n  jump\t// in\ntag_118:\n    /* \"#utility.yul\":6167:6218   */\n  swap6\n  pop\n    /* \"#utility.yul\":6251:6255   */\n  dup1\n    /* \"#utility.yul\":6247:6256   */\n  not\n    /* \"#utility.yul\":6240:6245   */\n  dup5\n    /* \"#utility.yul\":6236:6257   */\n  and\n    /* \"#utility.yul\":6227:6257   */\n  swap4\n  pop\n    /* \"#utility.yul\":6300:6304   */\n  dup1\n    /* \"#utility.yul\":6290:6298   */\n  dup7\n    /* \"#utility.yul\":6286:6305   */\n  and\n    /* \"#utility.yul\":6279:6284   */\n  dup5\n    /* \"#utility.yul\":6276:6306   */\n  or\n    /* \"#utility.yul\":6266:6306   */\n  swap3\n  pop\n    /* \"#utility.yul\":5995:6312   */\n  pop\n  pop\n    /* \"#utility.yul\":5919:6312   */\n  swap4\n  swap3\n  pop\n  pop\n  pop\n  jump\t// out\n    /* \"#utility.yul\":6318:6378   */\ntag_38:\n    /* \"#utility.yul\":6346:6349   */\n  0x00\n    /* \"#utility.yul\":6367:6372   */\n  dup2\n    /* \"#utility.yul\":6360:6372   */\n  swap1\n  pop\n    /* \"#utility.yul\":6318:6378   */\n  swap2\n  swap1\n  pop\n  jump\t// out\n    /* \"#utility.yul\":6384:6526   */\ntag_39:\n    /* \"#utility.yul\":6434:6443   */\n  0x00\n    /* \"#utility.yul\":6467:6520   */\n  tag_121\n    /* \"#utility.yul\":6485:6519   */\n  tag_122\n    /* \"#utility.yul\":6494:6518   */\n  tag_123\n    /* \"#utility.yul\":6512:6517   */\n  dup5\n    /* \"#utility.yul\":6494:6518   */\n  tag_24\n  jump\t// in\ntag_123:\n    /* \"#utility.yul\":6485:6519   */\n  tag_38\n  jump\t// in\ntag_122:\n    /* \"#utility.yul\":6467:6520   */\n  tag_24\n  jump\t// in\ntag_121:\n    /* \"#utility.yul\":6454:6520   */\n  swap1\n  pop\n    /* \"#utility.yul\":6384:6526   */\n  swap2\n  swap1\n  pop\n  jump\t// out\n    /* \"#utility.yul\":6532:6607   */\ntag_40:\n    /* \"#utility.yul\":6575:6578   */\n  0x00\n    /* \"#utility.yul\":6596:6601   */\n  dup2\n    /* \"#utility.yul\":6589:6601   */\n  swap1\n  pop\n    /* \"#utility.yul\":6532:6607   */\n  swap2\n  swap1\n  pop\n  jump\t// out\n    /* \"#utility.yul\":6613:6882   */\ntag_41:\n    /* \"#utility.yul\":6723:6762   */\n  tag_126\n    /* \"#utility.yul\":6754:6761   */\n  dup4\n    /* \"#utility.yul\":6723:6762   */\n  tag_39\n  jump\t// in\ntag_126:\n    /* \"#utility.yul\":6784:6875   */\n  tag_127\n    /* \"#utility.yul\":6833:6874   */\n  tag_128\n    /* \"#utility.yul\":6857:6873   */\n  dup3\n    /* \"#utility.yul\":6833:6874   */\n  tag_40\n  jump\t// in\ntag_128:\n    /* \"#utility.yul\":6825:6831   */\n  dup5\n    /* \"#utility.yul\":6818:6822   */\n  dup5\n    /* \"#utility.yul\":6812:6823   */\n  sload\n    /* \"#utility.yul\":6784:6875   */\n  tag_37\n  jump\t// in\ntag_127:\n    /* \"#utility.yul\":6778:6782   */\n  dup3\n    /* \"#utility.yul\":6771:6876   */\n  sstore\n    /* \"#utility.yul\":6689:6882   */\n  pop\n    /* \"#utility.yul\":6613:6882   */\n  pop\n  pop\n  pop\n  jump\t// out\n    /* \"#utility.yul\":6888:6961   */\ntag_42:\n    /* \"#utility.yul\":6933:6936   */\n  0x00\n    /* \"#utility.yul\":6888:6961   */\n  swap1\n  jump\t// out\n    /* \"#utility.yul\":6967:7156   */\ntag_43:\n    /* \"#utility.yul\":7044:7076   */\n  tag_131\n  tag_42\n  jump\t// in\ntag_131:\n    /* \"#utility.yul\":7085:7150   */\n  tag_132\n    /* \"#utility.yul\":7143:7149   */\n  dup2\n    /* \"#utility.yul\":7135:7141   */\n  dup5\n    /* \"#utility.yul\":7129:7133   */\n  dup5\n    /* \"#utility.yul\":7085:7150   */\n  tag_41\n  jump\t// in\ntag_132:\n    /* \"#utility.yul\":7020:7156   */\n  pop\n    /* \"#utility.yul\":6967:7156   */\n  pop\n  pop\n  jump\t// out\n    /* \"#utility.yul\":7162:7348   */\ntag_44:\n    /* \"#utility.yul\":7222:7342   */\ntag_134:\n    /* \"#utility.yul\":7239:7242   */\n  dup2\n    /* \"#utility.yul\":7232:7237   */\n  dup2\n    /* \"#utility.yul\":7229:7243   */\n  lt\n    /* \"#utility.yul\":7222:7342   */\n  iszero\n  tag_136\n  jumpi\n    /* \"#utility.yul\":7293:7332   */\n  tag_137\n    /* \"#utility.yul\":7330:7331   */\n  0x00\n    /* \"#utility.yul\":7323:7328   */\n  dup3\n    /* \"#utility.yul\":7293:7332   */\n  tag_43\n  jump\t// in\ntag_137:\n    /* \"#utility.yul\":7266:7267   */\n  0x01\n    /* \"#utility.yul\":7259:7264   */\n  dup2\n    /* \"#utility.yul\":7255:7268   */\n  add\n    /* \"#utility.yul\":7246:7268   */\n  swap1\n  pop\n    /* \"#utility.yul\":7222:7342   */\n  jump(tag_134)\ntag_136:\n    /* \"#utility.yul\":7162:7348   */\n  pop\n  pop\n  jump\t// out\n    /* \"#utility.yul\":7354:7897   */\ntag_45:\n    /* \"#utility.yul\":7455:7457   */\n  0x1f\n    /* \"#utility.yul\":7450:7453   */\n  dup3\n    /* \"#utility.yul\":7447:7458   */\n  gt\n    /* \"#utility.yul\":7444:7890   */\n  iszero\n  tag_139\n  jumpi\n    /* \"#utility.yul\":7489:7527   */\n  tag_140\n    /* \"#utility.yul\":7521:7526   */\n  dup2\n    /* \"#utility.yul\":7489:7527   */\n  tag_34\n  jump\t// in\ntag_140:\n    /* \"#utility.yul\":7573:7602   */\n  tag_141\n    /* \"#utility.yul\":7591:7601   */\n  dup5\n    /* \"#utility.yul\":7573:7602   */\n  tag_35\n  jump\t// in\ntag_141:\n    /* \"#utility.yul\":7563:7571   */\n  dup2\n    /* \"#utility.yul\":7559:7603   */\n  add\n    /* \"#utility.yul\":7756:7758   */\n  0x20\n    /* \"#utility.yul\":7744:7754   */\n  dup6\n    /* \"#utility.yul\":7741:7759   */\n  lt\n    /* \"#utility.yul\":7738:7787   */\n  iszero\n  tag_142\n  jumpi\n    /* \"#utility.yul\":7777:7785   */\n  dup2\n    /* \"#utility.yul\":7762:7785   */\n  swap1\n  pop\n    /* \"#utility.yul\":7738:7787   */\ntag_142:\n    /* \"#utility.yul\":7800:7880   */\n  tag_143\n    /* \"#utility.yul\":7856:7878   */\n  tag_144\n    /* \"#utility.yul\":7874:7877   */\n  dup6\n    /* \"#utility.yul\":7856:7878   */\n  tag_35\n  jump\t// in\ntag_144:\n    /* \"#utility.yul\":7846:7854   */\n  dup4\n    /* \"#utility.yul\":7842:7879   */\n  add\n    /* \"#utility.yul\":7829:7840   */\n  dup3\n    /* \"#utility.yul\":7800:7880   */\n  tag_44\n  jump\t// in\ntag_143:\n    /* \"#utility.yul\":7459:7890   */\n  pop\n  pop\n    /* \"#utility.yul\":7444:7890   */\ntag_139:\n    /* \"#utility.yul\":7354:7897   */\n  pop\n  pop\n  pop\n  jump\t// out\n    /* \"#utility.yul\":7903:8020   */\ntag_46:\n    /* \"#utility.yul\":7957:7965   */\n  0x00\n    /* \"#utility.yul\":8007:8012   */\n  dup3\n    /* \"#utility.yul\":8001:8005   */\n  dup3\n    /* \"#utility.yul\":7997:8013   */\n  shr\n    /* \"#utility.yul\":7976:8013   */\n  swap1\n  pop\n    /* \"#utility.yul\":7903:8020   */\n  swap3\n  swap2\n  pop\n  pop\n  jump\t// out\n    /* \"#utility.yul\":8026:8195   */\ntag_47:\n    /* \"#utility.yul\":8070:8076   */\n  0x00\n    /* \"#utility.yul\":8103:8154   */\n  tag_147\n    /* \"#utility.yul\":8151:8152   */\n  0x00\n    /* \"#utility.yul\":8147:8153   */\n  not\n    /* \"#utility.yul\":8139:8144   */\n  dup5\n    /* \"#utility.yul\":8136:8137   */\n  0x08\n    /* \"#utility.yul\":8132:8145   */\n  mul\n    /* \"#utility.yul\":8103:8154   */\n  tag_46\n  jump\t// in\ntag_147:\n    /* \"#utility.yul\":8099:8155   */\n  not\n    /* \"#utility.yul\":8184:8188   */\n  dup1\n    /* \"#utility.yul\":8178:8182   */\n  dup4\n    /* \"#utility.yul\":8174:8189   */\n  and\n    /* \"#utility.yul\":8164:8189   */\n  swap2\n  pop\n    /* \"#utility.yul\":8077:8195   */\n  pop\n    /* \"#utility.yul\":8026:8195   */\n  swap3\n  swap2\n  pop\n  pop\n  jump\t// out\n    /* \"#utility.yul\":8200:8495   */\ntag_48:\n    /* \"#utility.yul\":8276:8280   */\n  0x00\n    /* \"#utility.yul\":8422:8451   */\n  tag_149\n    /* \"#utility.yul\":8447:8450   */\n  dup4\n    /* \"#utility.yul\":8441:8445   */\n  dup4\n    /* \"#utility.yul\":8422:8451   */\n  tag_47\n  jump\t// in\ntag_149:\n    /* \"#utility.yul\":8414:8451   */\n  swap2\n  pop\n    /* \"#utility.yul\":8484:8487   */\n  dup3\n    /* \"#utility.yul\":8481:8482   */\n  0x02\n    /* \"#utility.yul\":8477:8488   */\n  mul\n    /* \"#utility.yul\":8471:8475   */\n  dup3\n    /* \"#utility.yul\":8468:8489   */\n  or\n    /* \"#utility.yul\":8460:8489   */\n  swap1\n  pop\n    /* \"#utility.yul\":8200:8495   */\n  swap3\n  swap2\n  pop\n  pop\n  jump\t// out\n    /* \"#utility.yul\":8500:9895   */\ntag_7:\n    /* \"#utility.yul\":8617:8654   */\n  tag_151\n    /* \"#utility.yul\":8650:8653   */\n  dup3\n    /* \"#utility.yul\":8617:8654   */\n  tag_31\n  jump\t// in\ntag_151:\n    /* \"#utility.yul\":8719:8737   */\n  0xffffffffffffffff\n    /* \"#utility.yul\":8711:8717   */\n  dup2\n    /* \"#utility.yul\":8708:8738   */\n  gt\n    /* \"#utility.yul\":8705:8761   */\n  iszero\n  tag_152\n  jumpi\n    /* \"#utility.yul\":8741:8759   */\n  tag_153\n  tag_17\n  jump\t// in\ntag_153:\n    /* \"#utility.yul\":8705:8761   */\ntag_152:\n    /* \"#utility.yul\":8785:8823   */\n  tag_154\n    /* \"#utility.yul\":8817:8821   */\n  dup3\n    /* \"#utility.yul\":8811:8822   */\n  sload\n    /* \"#utility.yul\":8785:8823   */\n  tag_33\n  jump\t// in\ntag_154:\n    /* \"#utility.yul\":8870:8937   */\n  tag_155\n    /* \"#utility.yul\":8930:8936   */\n  dup3\n    /* \"#utility.yul\":8922:8928   */\n  dup3\n    /* \"#utility.yul\":8916:8920   */\n  dup6\n    /* \"#utility.yul\":8870:8937   */\n  tag_45\n  jump\t// in\ntag_155:\n    /* \"#utility.yul\":8964:8965   */\n  0x00\n    /* \"#utility.yul\":8988:8992   */\n  0x20\n    /* \"#utility.yul\":8975:8992   */\n  swap1\n  pop\n    /* \"#utility.yul\":9020:9022   */\n  0x1f\n    /* \"#utility.yul\":9012:9018   */\n  dup4\n    /* \"#utility.yul\":9009:9023   */\n  gt\n    /* \"#utility.yul\":9037:9038   */\n  0x01\n    /* \"#utility.yul\":9032:9650   */\n  dup2\n  eq\n  tag_157\n  jumpi\n    /* \"#utility.yul\":9694:9695   */\n  0x00\n    /* \"#utility.yul\":9711:9717   */\n  dup5\n    /* \"#utility.yul\":9708:9785   */\n  iszero\n  tag_158\n  jumpi\n    /* \"#utility.yul\":9760:9769   */\n  dup3\n    /* \"#utility.yul\":9755:9758   */\n  dup8\n    /* \"#utility.yul\":9751:9770   */\n  add\n    /* \"#utility.yul\":9745:9771   */\n  mload\n    /* \"#utility.yul\":9736:9771   */\n  swap1\n  pop\n    /* \"#utility.yul\":9708:9785   */\ntag_158:\n    /* \"#utility.yul\":9811:9878   */\n  tag_159\n    /* \"#utility.yul\":9871:9877   */\n  dup6\n    /* \"#utility.yul\":9864:9869   */\n  dup3\n    /* \"#utility.yul\":9811:9878   */\n  tag_48\n  jump\t// in\ntag_159:\n    /* \"#utility.yul\":9805:9809   */\n  dup7\n    /* \"#utility.yul\":9798:9879   */\n  sstore\n    /* \"#utility.yul\":9667:9889   */\n  pop\n    /* \"#utility.yul\":9002:9889   */\n  jump(tag_156)\n    /* \"#utility.yul\":9032:9650   */\ntag_157:\n    /* \"#utility.yul\":9084:9088   */\n  0x1f\n    /* \"#utility.yul\":9080:9089   */\n  not\n    /* \"#utility.yul\":9072:9078   */\n  dup5\n    /* \"#utility.yul\":9068:9090   */\n  and\n    /* \"#utility.yul\":9118:9155   */\n  tag_160\n    /* \"#utility.yul\":9150:9154   */\n  dup7\n    /* \"#utility.yul\":9118:9155   */\n  tag_34\n  jump\t// in\ntag_160:\n    /* \"#utility.yul\":9177:9178   */\n  0x00\n    /* \"#utility.yul\":9191:9399   */\ntag_161:\n    /* \"#utility.yul\":9205:9212   */\n  dup3\n    /* \"#utility.yul\":9202:9203   */\n  dup2\n    /* \"#utility.yul\":9199:9213   */\n  lt\n    /* \"#utility.yul\":9191:9399   */\n  iszero\n  tag_163\n  jumpi\n    /* \"#utility.yul\":9284:9293   */\n  dup5\n    /* \"#utility.yul\":9279:9282   */\n  dup10\n    /* \"#utility.yul\":9275:9294   */\n  add\n    /* \"#utility.yul\":9269:9295   */\n  mload\n    /* \"#utility.yul\":9261:9267   */\n  dup3\n    /* \"#utility.yul\":9254:9296   */\n  sstore\n    /* \"#utility.yul\":9335:9336   */\n  0x01\n    /* \"#utility.yul\":9327:9333   */\n  dup3\n    /* \"#utility.yul\":9323:9337   */\n  add\n    /* \"#utility.yul\":9313:9337   */\n  swap2\n  pop\n    /* \"#utility.yul\":9382:9384   */\n  0x20\n    /* \"#utility.yul\":9371:9380   */\n  dup6\n    /* \"#utility.yul\":9367:9385   */\n  add\n    /* \"#utility.yul\":9354:9385   */\n  swap5\n  pop\n    /* \"#utility.yul\":9228:9232   */\n  0x20\n    /* \"#utility.yul\":9225:9226   */\n  dup2\n    /* \"#utility.yul\":9221:9233   */\n  add\n    /* \"#utility.yul\":9216:9233   */\n  swap1\n  pop\n    /* \"#utility.yul\":9191:9399   */\n  jump(tag_161)\ntag_163:\n    /* \"#utility.yul\":9427:9433   */\n  dup7\n    /* \"#utility.yul\":9418:9425   */\n  dup4\n    /* \"#utility.yul\":9415:9434   */\n  lt\n    /* \"#utility.yul\":9412:9591   */\n  iszero\n  tag_164\n  jumpi\n    /* \"#utility.yul\":9485:9494   */\n  dup5\n    /* \"#utility.yul\":9480:9483   */\n  dup10\n    /* \"#utility.yul\":9476:9495   */\n  add\n    /* \"#utility.yul\":9470:9496   */\n  mload\n    /* \"#utility.yul\":9528:9576   */\n  tag_165\n    /* \"#utility.yul\":9570:9574   */\n  0x1f\n    /* \"#utility.yul\":9562:9568   */\n  dup10\n    /* \"#utility.yul\":9558:9575   */\n  and\n    /* \"#utility.yul\":9547:9556   */\n  dup3\n    /* \"#utility.yul\":9528:9576   */\n  tag_47\n  jump\t// in\ntag_165:\n    /* \"#utility.yul\":9520:9526   */\n  dup4\n    /* \"#utility.yul\":9513:9577   */\n  sstore\n    /* \"#utility.yul\":9435:9591   */\n  pop\n    /* \"#utility.yul\":9412:9591   */\ntag_164:\n    /* \"#utility.yul\":9637:9638   */\n  0x01\n    /* \"#utility.yul\":9633:9634   */\n  0x02\n    /* \"#utility.yul\":9625:9631   */\n  dup9\n    /* \"#utility.yul\":9621:9635   */\n  mul\n    /* \"#utility.yul\":9617:9639   */\n  add\n    /* \"#utility.yul\":9611:9615   */\n  dup9\n    /* \"#utility.yul\":9604:9640   */\n  sstore\n    /* \"#utility.yul\":9039:9650   */\n  pop\n  pop\n  pop\n    /* \"#utility.yul\":9002:9889   */\ntag_156:\n  pop\n    /* \"#utility.yul\":8592:9895   */\n  pop\n  pop\n  pop\n    /* \"#utility.yul\":8500:9895   */\n  pop\n  pop\n  jump\t// out\n    /* \"Day-04/code1.sol\":1075:2017  contract Campaign {... */\ntag_10:\n  dataSize(sub_0)\n  dup1\n  dataOffset(sub_0)\n  0x00\n  codecopy\n  0x00\n  return\nstop\n\nsub_0: assembly {\n        /* \"Day-04/code1.sol\":1075:2017  contract Campaign {... */\n      mstore(0x40, 0x80)\n      jumpi(tag_1, lt(calldatasize, 0x04))\n      shr(0xe0, calldataload(0x00))\n      dup1\n      0x8da5cb5b\n      gt\n      tag_9\n      jumpi\n      dup1\n      0x8da5cb5b\n      eq\n      tag_5\n      jumpi\n      dup1\n      0x9632e720\n      eq\n      tag_6\n      jumpi\n      dup1\n      0xed88c68e\n      eq\n      tag_7\n      jumpi\n      dup1\n      0xf3ccaac0\n      eq\n      tag_8\n      jumpi\n      jump(tag_1)\n    tag_9:\n      dup1\n      0x46c922d1\n      eq\n      tag_2\n      jumpi\n      dup1\n      0x48b9ef40\n      eq\n      tag_3\n      jumpi\n      dup1\n      0x4a79d50c\n      eq\n      tag_4\n      jumpi\n    tag_1:\n      0x00\n      dup1\n      revert\n        /* \"Day-04/code1.sol\":1185:1204  string public story */\n    tag_2:\n      callvalue\n      dup1\n      iszero\n      tag_10\n      jumpi\n      0x00\n      dup1\n      revert\n    tag_10:\n      pop\n      tag_11\n      tag_12\n      jump\t// in\n    tag_11:\n      mload(0x40)\n      tag_13\n      swap2\n      swap1\n      tag_14\n      jump\t// in\n    tag_13:\n      mload(0x40)\n      dup1\n      swap2\n      sub\n      swap1\n      return\n        /* \"Day-04/code1.sol\":1126:1152  uint public requiredAmount */\n    tag_3:\n      callvalue\n      dup1\n      iszero\n      tag_15\n      jumpi\n      0x00\n      dup1\n      revert\n    tag_15:\n      pop\n      tag_16\n      tag_17\n      jump\t// in\n    tag_16:\n      mload(0x40)\n      tag_18\n      swap2\n      swap1\n      tag_19\n      jump\t// in\n    tag_18:\n      mload(0x40)\n      dup1\n      swap2\n      sub\n      swap1\n      return\n        /* \"Day-04/code1.sol\":1100:1119  string public title */\n    tag_4:\n      callvalue\n      dup1\n      iszero\n      tag_20\n      jumpi\n      0x00\n      dup1\n      revert\n    tag_20:\n      pop\n      tag_21\n      tag_22\n      jump\t// in\n    tag_21:\n      mload(0x40)\n      tag_23\n      swap2\n      swap1\n      tag_14\n      jump\t// in\n    tag_23:\n      mload(0x40)\n      dup1\n      swap2\n      sub\n      swap1\n      return\n        /* \"Day-04/code1.sol\":1211:1239  address payable public owner */\n    tag_5:\n      callvalue\n      dup1\n      iszero\n      tag_24\n      jumpi\n      0x00\n      dup1\n      revert\n    tag_24:\n      pop\n      tag_25\n      tag_26\n      jump\t// in\n    tag_25:\n      mload(0x40)\n      tag_27\n      swap2\n      swap1\n      tag_28\n      jump\t// in\n    tag_27:\n      mload(0x40)\n      dup1\n      swap2\n      sub\n      swap1\n      return\n        /* \"Day-04/code1.sol\":1246:1272  uint public receivedAmount */\n    tag_6:\n      callvalue\n      dup1\n      iszero\n      tag_29\n      jumpi\n      0x00\n      dup1\n      revert\n    tag_29:\n      pop\n      tag_30\n      tag_31\n      jump\t// in\n    tag_30:\n      mload(0x40)\n      tag_32\n      swap2\n      swap1\n      tag_19\n      jump\t// in\n    tag_32:\n      mload(0x40)\n      dup1\n      swap2\n      sub\n      swap1\n      return\n        /* \"Day-04/code1.sol\":1755:2014  function donate() public payable {... */\n    tag_7:\n      tag_33\n      tag_34\n      jump\t// in\n    tag_33:\n      stop\n        /* \"Day-04/code1.sol\":1159:1178  string public image */\n    tag_8:\n      callvalue\n      dup1\n      iszero\n      tag_35\n      jumpi\n      0x00\n      dup1\n      revert\n    tag_35:\n      pop\n      tag_36\n      tag_37\n      jump\t// in\n    tag_36:\n      mload(0x40)\n      tag_38\n      swap2\n      swap1\n      tag_14\n      jump\t// in\n    tag_38:\n      mload(0x40)\n      dup1\n      swap2\n      sub\n      swap1\n      return\n        /* \"Day-04/code1.sol\":1185:1204  string public story */\n    tag_12:\n      0x03\n      dup1\n      sload\n      tag_39\n      swap1\n      tag_40\n      jump\t// in\n    tag_39:\n      dup1\n      0x1f\n      add\n      0x20\n      dup1\n      swap2\n      div\n      mul\n      0x20\n      add\n      mload(0x40)\n      swap1\n      dup2\n      add\n      0x40\n      mstore\n      dup1\n      swap3\n      swap2\n      swap1\n      dup2\n      dup2\n      mstore\n      0x20\n      add\n      dup3\n      dup1\n      sload\n      tag_41\n      swap1\n      tag_40\n      jump\t// in\n    tag_41:\n      dup1\n      iszero\n      tag_42\n      jumpi\n      dup1\n      0x1f\n      lt\n      tag_43\n      jumpi\n      0x0100\n      dup1\n      dup4\n      sload\n      div\n      mul\n      dup4\n      mstore\n      swap2\n      0x20\n      add\n      swap2\n      jump(tag_42)\n    tag_43:\n      dup3\n      add\n      swap2\n      swap1\n      0x00\n      mstore\n      keccak256(0x00, 0x20)\n      swap1\n    tag_44:\n      dup2\n      sload\n      dup2\n      mstore\n      swap1\n      0x01\n      add\n      swap1\n      0x20\n      add\n      dup1\n      dup4\n      gt\n      tag_44\n      jumpi\n      dup3\n      swap1\n      sub\n      0x1f\n      and\n      dup3\n      add\n      swap2\n    tag_42:\n      pop\n      pop\n      pop\n      pop\n      pop\n      dup2\n      jump\t// out\n        /* \"Day-04/code1.sol\":1126:1152  uint public requiredAmount */\n    tag_17:\n      sload(0x01)\n      dup2\n      jump\t// out\n        /* \"Day-04/code1.sol\":1100:1119  string public title */\n    tag_22:\n      0x00\n      dup1\n      sload\n      tag_45\n      swap1\n      tag_40\n      jump\t// in\n    tag_45:\n      dup1\n      0x1f\n      add\n      0x20\n      dup1\n      swap2\n      div\n      mul\n      0x20\n      add\n      mload(0x40)\n      swap1\n      dup2\n      add\n      0x40\n      mstore\n      dup1\n      swap3\n      swap2\n      swap1\n      dup2\n      dup2\n      mstore\n      0x20\n      add\n      dup3\n      dup1\n      sload\n      tag_46\n      swap1\n      tag_40\n      jump\t// in\n    tag_46:\n      dup1\n      iszero\n      tag_47\n      jumpi\n      dup1\n      0x1f\n      lt\n      tag_48\n      jumpi\n      0x0100\n      dup1\n      dup4\n      sload\n      div\n      mul\n      dup4\n      mstore\n      swap2\n      0x20\n      add\n      swap2\n      jump(tag_47)\n    tag_48:\n      dup3\n      add\n      swap2\n      swap1\n      0x00\n      mstore\n      keccak256(0x00, 0x20)\n      swap1\n    tag_49:\n      dup2\n      sload\n      dup2\n      mstore\n      swap1\n      0x01\n      add\n      swap1\n      0x20\n      add\n      dup1\n      dup4\n      gt\n      tag_49\n      jumpi\n      dup3\n      swap1\n      sub\n      0x1f\n      and\n      dup3\n      add\n      swap2\n    tag_47:\n      pop\n      pop\n      pop\n      pop\n      pop\n      dup2\n      jump\t// out\n        /* \"Day-04/code1.sol\":1211:1239  address payable public owner */\n    tag_26:\n      0x04\n      0x00\n      swap1\n      sload\n      swap1\n      0x0100\n      exp\n      swap1\n      div\n      0xffffffffffffffffffffffffffffffffffffffff\n      and\n      dup2\n      jump\t// out\n        /* \"Day-04/code1.sol\":1246:1272  uint public receivedAmount */\n    tag_31:\n      sload(0x05)\n      dup2\n      jump\t// out\n        /* \"Day-04/code1.sol\":1755:2014  function donate() public payable {... */\n    tag_34:\n        /* \"Day-04/code1.sol\":1824:1838  receivedAmount */\n      sload(0x05)\n        /* \"Day-04/code1.sol\":1807:1821  requiredAmount */\n      sload(0x01)\n        /* \"Day-04/code1.sol\":1807:1838  requiredAmount > receivedAmount */\n      gt\n        /* \"Day-04/code1.sol\":1799:1869  require(requiredAmount > receivedAmount, \"required amount fullfilled\") */\n      tag_51\n      jumpi\n      mload(0x40)\n      0x08c379a000000000000000000000000000000000000000000000000000000000\n      dup2\n      mstore\n      0x04\n      add\n      tag_52\n      swap1\n      tag_53\n      jump\t// in\n    tag_52:\n      mload(0x40)\n      dup1\n      swap2\n      sub\n      swap1\n      revert\n    tag_51:\n        /* \"Day-04/code1.sol\":1880:1885  owner */\n      0x04\n      0x00\n      swap1\n      sload\n      swap1\n      0x0100\n      exp\n      swap1\n      div\n      0xffffffffffffffffffffffffffffffffffffffff\n      and\n        /* \"Day-04/code1.sol\":1880:1894  owner.transfer */\n      0xffffffffffffffffffffffffffffffffffffffff\n      and\n        /* \"Day-04/code1.sol\":1880:1905  owner.transfer(msg.value) */\n      0x08fc\n        /* \"Day-04/code1.sol\":1895:1904  msg.value */\n      callvalue\n        /* \"Day-04/code1.sol\":1880:1905  owner.transfer(msg.value) */\n      swap1\n      dup2\n      iszero\n      mul\n      swap1\n      mload(0x40)\n      0x00\n      mload(0x40)\n      dup1\n      dup4\n      sub\n      dup2\n      dup6\n      dup9\n      dup9\n      call\n      swap4\n      pop\n      pop\n      pop\n      pop\n      iszero\n      dup1\n      iszero\n      tag_55\n      jumpi\n      returndatasize\n      0x00\n      dup1\n      returndatacopy\n      revert(0x00, returndatasize)\n    tag_55:\n      pop\n        /* \"Day-04/code1.sol\":1934:1943  msg.value */\n      callvalue\n        /* \"Day-04/code1.sol\":1916:1930  receivedAmount */\n      0x05\n      0x00\n        /* \"Day-04/code1.sol\":1916:1943  receivedAmount += msg.value */\n      dup3\n      dup3\n      sload\n      tag_56\n      swap2\n      swap1\n      tag_57\n      jump\t// in\n    tag_56:\n      swap3\n      pop\n      pop\n      dup2\n      swap1\n      sstore\n      pop\n        /* \"Day-04/code1.sol\":1990:2005  block.timestamp */\n      timestamp\n        /* \"Day-04/code1.sol\":1979:1988  msg.value */\n      callvalue\n        /* \"Day-04/code1.sol\":1967:1977  msg.sender */\n      caller\n        /* \"Day-04/code1.sol\":1959:2006  donated(msg.sender, msg.value, block.timestamp) */\n      0xffffffffffffffffffffffffffffffffffffffff\n      and\n      0xe6add99d06d9ad7fc456e746aa162eed6211c5002ef2dacdd67b8d2016822fba\n      mload(0x40)\n      mload(0x40)\n      dup1\n      swap2\n      sub\n      swap1\n      log4\n        /* \"Day-04/code1.sol\":1755:2014  function donate() public payable {... */\n      jump\t// out\n        /* \"Day-04/code1.sol\":1159:1178  string public image */\n    tag_37:\n      0x02\n      dup1\n      sload\n      tag_58\n      swap1\n      tag_40\n      jump\t// in\n    tag_58:\n      dup1\n      0x1f\n      add\n      0x20\n      dup1\n      swap2\n      div\n      mul\n      0x20\n      add\n      mload(0x40)\n      swap1\n      dup2\n      add\n      0x40\n      mstore\n      dup1\n      swap3\n      swap2\n      swap1\n      dup2\n      dup2\n      mstore\n      0x20\n      add\n      dup3\n      dup1\n      sload\n      tag_59\n      swap1\n      tag_40\n      jump\t// in\n    tag_59:\n      dup1\n      iszero\n      tag_60\n      jumpi\n      dup1\n      0x1f\n      lt\n      tag_61\n      jumpi\n      0x0100\n      dup1\n      dup4\n      sload\n      div\n      mul\n      dup4\n      mstore\n      swap2\n      0x20\n      add\n      swap2\n      jump(tag_60)\n    tag_61:\n      dup3\n      add\n      swap2\n      swap1\n      0x00\n      mstore\n      keccak256(0x00, 0x20)\n      swap1\n    tag_62:\n      dup2\n      sload\n      dup2\n      mstore\n      swap1\n      0x01\n      add\n      swap1\n      0x20\n      add\n      dup1\n      dup4\n      gt\n      tag_62\n      jumpi\n      dup3\n      swap1\n      sub\n      0x1f\n      and\n      dup3\n      add\n      swap2\n    tag_60:\n      pop\n      pop\n      pop\n      pop\n      pop\n      dup2\n      jump\t// out\n        /* \"#utility.yul\":7:106   */\n    tag_63:\n        /* \"#utility.yul\":59:65   */\n      0x00\n        /* \"#utility.yul\":93:98   */\n      dup2\n        /* \"#utility.yul\":87:99   */\n      mload\n        /* \"#utility.yul\":77:99   */\n      swap1\n      pop\n        /* \"#utility.yul\":7:106   */\n      swap2\n      swap1\n      pop\n      jump\t// out\n        /* \"#utility.yul\":112:281   */\n    tag_64:\n        /* \"#utility.yul\":196:207   */\n      0x00\n        /* \"#utility.yul\":230:236   */\n      dup3\n        /* \"#utility.yul\":225:228   */\n      dup3\n        /* \"#utility.yul\":218:237   */\n      mstore\n        /* \"#utility.yul\":270:274   */\n      0x20\n        /* \"#utility.yul\":265:268   */\n      dup3\n        /* \"#utility.yul\":261:275   */\n      add\n        /* \"#utility.yul\":246:275   */\n      swap1\n      pop\n        /* \"#utility.yul\":112:281   */\n      swap3\n      swap2\n      pop\n      pop\n      jump\t// out\n        /* \"#utility.yul\":287:426   */\n    tag_65:\n        /* \"#utility.yul\":376:382   */\n      dup3\n        /* \"#utility.yul\":371:374   */\n      dup2\n        /* \"#utility.yul\":366:369   */\n      dup4\n        /* \"#utility.yul\":360:383   */\n      mcopy\n        /* \"#utility.yul\":417:418   */\n      0x00\n        /* \"#utility.yul\":408:414   */\n      dup4\n        /* \"#utility.yul\":403:406   */\n      dup4\n        /* \"#utility.yul\":399:415   */\n      add\n        /* \"#utility.yul\":392:419   */\n      mstore\n        /* \"#utility.yul\":287:426   */\n      pop\n      pop\n      pop\n      jump\t// out\n        /* \"#utility.yul\":432:534   */\n    tag_66:\n        /* \"#utility.yul\":473:479   */\n      0x00\n        /* \"#utility.yul\":524:526   */\n      0x1f\n        /* \"#utility.yul\":520:527   */\n      not\n        /* \"#utility.yul\":515:517   */\n      0x1f\n        /* \"#utility.yul\":508:513   */\n      dup4\n        /* \"#utility.yul\":504:518   */\n      add\n        /* \"#utility.yul\":500:528   */\n      and\n        /* \"#utility.yul\":490:528   */\n      swap1\n      pop\n        /* \"#utility.yul\":432:534   */\n      swap2\n      swap1\n      pop\n      jump\t// out\n        /* \"#utility.yul\":540:917   */\n    tag_67:\n        /* \"#utility.yul\":628:631   */\n      0x00\n        /* \"#utility.yul\":656:695   */\n      tag_83\n        /* \"#utility.yul\":689:694   */\n      dup3\n        /* \"#utility.yul\":656:695   */\n      tag_63\n      jump\t// in\n    tag_83:\n        /* \"#utility.yul\":711:782   */\n      tag_84\n        /* \"#utility.yul\":775:781   */\n      dup2\n        /* \"#utility.yul\":770:773   */\n      dup6\n        /* \"#utility.yul\":711:782   */\n      tag_64\n      jump\t// in\n    tag_84:\n        /* \"#utility.yul\":704:782   */\n      swap4\n      pop\n        /* \"#utility.yul\":791:856   */\n      tag_85\n        /* \"#utility.yul\":849:855   */\n      dup2\n        /* \"#utility.yul\":844:847   */\n      dup6\n        /* \"#utility.yul\":837:841   */\n      0x20\n        /* \"#utility.yul\":830:835   */\n      dup7\n        /* \"#utility.yul\":826:842   */\n      add\n        /* \"#utility.yul\":791:856   */\n      tag_65\n      jump\t// in\n    tag_85:\n        /* \"#utility.yul\":881:910   */\n      tag_86\n        /* \"#utility.yul\":903:909   */\n      dup2\n        /* \"#utility.yul\":881:910   */\n      tag_66\n      jump\t// in\n    tag_86:\n        /* \"#utility.yul\":876:879   */\n      dup5\n        /* \"#utility.yul\":872:911   */\n      add\n        /* \"#utility.yul\":865:911   */\n      swap2\n      pop\n        /* \"#utility.yul\":632:917   */\n      pop\n        /* \"#utility.yul\":540:917   */\n      swap3\n      swap2\n      pop\n      pop\n      jump\t// out\n        /* \"#utility.yul\":923:1236   */\n    tag_14:\n        /* \"#utility.yul\":1036:1040   */\n      0x00\n        /* \"#utility.yul\":1074:1076   */\n      0x20\n        /* \"#utility.yul\":1063:1072   */\n      dup3\n        /* \"#utility.yul\":1059:1077   */\n      add\n        /* \"#utility.yul\":1051:1077   */\n      swap1\n      pop\n        /* \"#utility.yul\":1123:1132   */\n      dup2\n        /* \"#utility.yul\":1117:1121   */\n      dup2\n        /* \"#utility.yul\":1113:1133   */\n      sub\n        /* \"#utility.yul\":1109:1110   */\n      0x00\n        /* \"#utility.yul\":1098:1107   */\n      dup4\n        /* \"#utility.yul\":1094:1111   */\n      add\n        /* \"#utility.yul\":1087:1134   */\n      mstore\n        /* \"#utility.yul\":1151:1229   */\n      tag_88\n        /* \"#utility.yul\":1224:1228   */\n      dup2\n        /* \"#utility.yul\":1215:1221   */\n      dup5\n        /* \"#utility.yul\":1151:1229   */\n      tag_67\n      jump\t// in\n    tag_88:\n        /* \"#utility.yul\":1143:1229   */\n      swap1\n      pop\n        /* \"#utility.yul\":923:1236   */\n      swap3\n      swap2\n      pop\n      pop\n      jump\t// out\n        /* \"#utility.yul\":1242:1319   */\n    tag_68:\n        /* \"#utility.yul\":1279:1286   */\n      0x00\n        /* \"#utility.yul\":1308:1313   */\n      dup2\n        /* \"#utility.yul\":1297:1313   */\n      swap1\n      pop\n        /* \"#utility.yul\":1242:1319   */\n      swap2\n      swap1\n      pop\n      jump\t// out\n        /* \"#utility.yul\":1325:1443   */\n    tag_69:\n        /* \"#utility.yul\":1412:1436   */\n      tag_91\n        /* \"#utility.yul\":1430:1435   */\n      dup2\n        /* \"#utility.yul\":1412:1436   */\n      tag_68\n      jump\t// in\n    tag_91:\n        /* \"#utility.yul\":1407:1410   */\n      dup3\n        /* \"#utility.yul\":1400:1437   */\n      mstore\n        /* \"#utility.yul\":1325:1443   */\n      pop\n      pop\n      jump\t// out\n        /* \"#utility.yul\":1449:1671   */\n    tag_19:\n        /* \"#utility.yul\":1542:1546   */\n      0x00\n        /* \"#utility.yul\":1580:1582   */\n      0x20\n        /* \"#utility.yul\":1569:1578   */\n      dup3\n        /* \"#utility.yul\":1565:1583   */\n      add\n        /* \"#utility.yul\":1557:1583   */\n      swap1\n      pop\n        /* \"#utility.yul\":1593:1664   */\n      tag_93\n        /* \"#utility.yul\":1661:1662   */\n      0x00\n        /* \"#utility.yul\":1650:1659   */\n      dup4\n        /* \"#utility.yul\":1646:1663   */\n      add\n        /* \"#utility.yul\":1637:1643   */\n      dup5\n        /* \"#utility.yul\":1593:1664   */\n      tag_69\n      jump\t// in\n    tag_93:\n        /* \"#utility.yul\":1449:1671   */\n      swap3\n      swap2\n      pop\n      pop\n      jump\t// out\n        /* \"#utility.yul\":1677:1803   */\n    tag_70:\n        /* \"#utility.yul\":1714:1721   */\n      0x00\n        /* \"#utility.yul\":1754:1796   */\n      0xffffffffffffffffffffffffffffffffffffffff\n        /* \"#utility.yul\":1747:1752   */\n      dup3\n        /* \"#utility.yul\":1743:1797   */\n      and\n        /* \"#utility.yul\":1732:1797   */\n      swap1\n      pop\n        /* \"#utility.yul\":1677:1803   */\n      swap2\n      swap1\n      pop\n      jump\t// out\n        /* \"#utility.yul\":1809:1913   */\n    tag_71:\n        /* \"#utility.yul\":1854:1861   */\n      0x00\n        /* \"#utility.yul\":1883:1907   */\n      tag_96\n        /* \"#utility.yul\":1901:1906   */\n      dup3\n        /* \"#utility.yul\":1883:1907   */\n      tag_70\n      jump\t// in\n    tag_96:\n        /* \"#utility.yul\":1872:1907   */\n      swap1\n      pop\n        /* \"#utility.yul\":1809:1913   */\n      swap2\n      swap1\n      pop\n      jump\t// out\n        /* \"#utility.yul\":1919:2061   */\n    tag_72:\n        /* \"#utility.yul\":2022:2054   */\n      tag_98\n        /* \"#utility.yul\":2048:2053   */\n      dup2\n        /* \"#utility.yul\":2022:2054   */\n      tag_71\n      jump\t// in\n    tag_98:\n        /* \"#utility.yul\":2017:2020   */\n      dup3\n        /* \"#utility.yul\":2010:2055   */\n      mstore\n        /* \"#utility.yul\":1919:2061   */\n      pop\n      pop\n      jump\t// out\n        /* \"#utility.yul\":2067:2321   */\n    tag_28:\n        /* \"#utility.yul\":2176:2180   */\n      0x00\n        /* \"#utility.yul\":2214:2216   */\n      0x20\n        /* \"#utility.yul\":2203:2212   */\n      dup3\n        /* \"#utility.yul\":2199:2217   */\n      add\n        /* \"#utility.yul\":2191:2217   */\n      swap1\n      pop\n        /* \"#utility.yul\":2227:2314   */\n      tag_100\n        /* \"#utility.yul\":2311:2312   */\n      0x00\n        /* \"#utility.yul\":2300:2309   */\n      dup4\n        /* \"#utility.yul\":2296:2313   */\n      add\n        /* \"#utility.yul\":2287:2293   */\n      dup5\n        /* \"#utility.yul\":2227:2314   */\n      tag_72\n      jump\t// in\n    tag_100:\n        /* \"#utility.yul\":2067:2321   */\n      swap3\n      swap2\n      pop\n      pop\n      jump\t// out\n        /* \"#utility.yul\":2327:2507   */\n    tag_73:\n        /* \"#utility.yul\":2375:2452   */\n      0x4e487b7100000000000000000000000000000000000000000000000000000000\n        /* \"#utility.yul\":2372:2373   */\n      0x00\n        /* \"#utility.yul\":2365:2453   */\n      mstore\n        /* \"#utility.yul\":2472:2476   */\n      0x22\n        /* \"#utility.yul\":2469:2470   */\n      0x04\n        /* \"#utility.yul\":2462:2477   */\n      mstore\n        /* \"#utility.yul\":2496:2500   */\n      0x24\n        /* \"#utility.yul\":2493:2494   */\n      0x00\n        /* \"#utility.yul\":2486:2501   */\n      revert\n        /* \"#utility.yul\":2513:2833   */\n    tag_40:\n        /* \"#utility.yul\":2557:2563   */\n      0x00\n        /* \"#utility.yul\":2594:2595   */\n      0x02\n        /* \"#utility.yul\":2588:2592   */\n      dup3\n        /* \"#utility.yul\":2584:2596   */\n      div\n        /* \"#utility.yul\":2574:2596   */\n      swap1\n      pop\n        /* \"#utility.yul\":2641:2642   */\n      0x01\n        /* \"#utility.yul\":2635:2639   */\n      dup3\n        /* \"#utility.yul\":2631:2643   */\n      and\n        /* \"#utility.yul\":2662:2680   */\n      dup1\n        /* \"#utility.yul\":2652:2733   */\n      tag_103\n      jumpi\n        /* \"#utility.yul\":2718:2722   */\n      0x7f\n        /* \"#utility.yul\":2710:2716   */\n      dup3\n        /* \"#utility.yul\":2706:2723   */\n      and\n        /* \"#utility.yul\":2696:2723   */\n      swap2\n      pop\n        /* \"#utility.yul\":2652:2733   */\n    tag_103:\n        /* \"#utility.yul\":2780:2782   */\n      0x20\n        /* \"#utility.yul\":2772:2778   */\n      dup3\n        /* \"#utility.yul\":2769:2783   */\n      lt\n        /* \"#utility.yul\":2749:2767   */\n      dup2\n        /* \"#utility.yul\":2746:2784   */\n      sub\n        /* \"#utility.yul\":2743:2827   */\n      tag_104\n      jumpi\n        /* \"#utility.yul\":2799:2817   */\n      tag_105\n      tag_73\n      jump\t// in\n    tag_105:\n        /* \"#utility.yul\":2743:2827   */\n    tag_104:\n        /* \"#utility.yul\":2564:2833   */\n      pop\n        /* \"#utility.yul\":2513:2833   */\n      swap2\n      swap1\n      pop\n      jump\t// out\n        /* \"#utility.yul\":2839:3015   */\n    tag_74:\n        /* \"#utility.yul\":2979:3007   */\n      0x726571756972656420616d6f756e742066756c6c66696c6c6564000000000000\n        /* \"#utility.yul\":2975:2976   */\n      0x00\n        /* \"#utility.yul\":2967:2973   */\n      dup3\n        /* \"#utility.yul\":2963:2977   */\n      add\n        /* \"#utility.yul\":2956:3008   */\n      mstore\n        /* \"#utility.yul\":2839:3015   */\n      pop\n      jump\t// out\n        /* \"#utility.yul\":3021:3387   */\n    tag_75:\n        /* \"#utility.yul\":3163:3166   */\n      0x00\n        /* \"#utility.yul\":3184:3251   */\n      tag_108\n        /* \"#utility.yul\":3248:3250   */\n      0x1a\n        /* \"#utility.yul\":3243:3246   */\n      dup4\n        /* \"#utility.yul\":3184:3251   */\n      tag_64\n      jump\t// in\n    tag_108:\n        /* \"#utility.yul\":3177:3251   */\n      swap2\n      pop\n        /* \"#utility.yul\":3260:3353   */\n      tag_109\n        /* \"#utility.yul\":3349:3352   */\n      dup3\n        /* \"#utility.yul\":3260:3353   */\n      tag_74\n      jump\t// in\n    tag_109:\n        /* \"#utility.yul\":3378:3380   */\n      0x20\n        /* \"#utility.yul\":3373:3376   */\n      dup3\n        /* \"#utility.yul\":3369:3381   */\n      add\n        /* \"#utility.yul\":3362:3381   */\n      swap1\n      pop\n        /* \"#utility.yul\":3021:3387   */\n      swap2\n      swap1\n      pop\n      jump\t// out\n        /* \"#utility.yul\":3393:3812   */\n    tag_53:\n        /* \"#utility.yul\":3559:3563   */\n      0x00\n        /* \"#utility.yul\":3597:3599   */\n      0x20\n        /* \"#utility.yul\":3586:3595   */\n      dup3\n        /* \"#utility.yul\":3582:3600   */\n      add\n        /* \"#utility.yul\":3574:3600   */\n      swap1\n      pop\n        /* \"#utility.yul\":3646:3655   */\n      dup2\n        /* \"#utility.yul\":3640:3644   */\n      dup2\n        /* \"#utility.yul\":3636:3656   */\n      sub\n        /* \"#utility.yul\":3632:3633   */\n      0x00\n        /* \"#utility.yul\":3621:3630   */\n      dup4\n        /* \"#utility.yul\":3617:3634   */\n      add\n        /* \"#utility.yul\":3610:3657   */\n      mstore\n        /* \"#utility.yul\":3674:3805   */\n      tag_111\n        /* \"#utility.yul\":3800:3804   */\n      dup2\n        /* \"#utility.yul\":3674:3805   */\n      tag_75\n      jump\t// in\n    tag_111:\n        /* \"#utility.yul\":3666:3805   */\n      swap1\n      pop\n        /* \"#utility.yul\":3393:3812   */\n      swap2\n      swap1\n      pop\n      jump\t// out\n        /* \"#utility.yul\":3818:3998   */\n    tag_76:\n        /* \"#utility.yul\":3866:3943   */\n      0x4e487b7100000000000000000000000000000000000000000000000000000000\n        /* \"#utility.yul\":3863:3864   */\n      0x00\n        /* \"#utility.yul\":3856:3944   */\n      mstore\n        /* \"#utility.yul\":3963:3967   */\n      0x11\n        /* \"#utility.yul\":3960:3961   */\n      0x04\n        /* \"#utility.yul\":3953:3968   */\n      mstore\n        /* \"#utility.yul\":3987:3991   */\n      0x24\n        /* \"#utility.yul\":3984:3985   */\n      0x00\n        /* \"#utility.yul\":3977:3992   */\n      revert\n        /* \"#utility.yul\":4004:4195   */\n    tag_57:\n        /* \"#utility.yul\":4044:4047   */\n      0x00\n        /* \"#utility.yul\":4063:4083   */\n      tag_114\n        /* \"#utility.yul\":4081:4082   */\n      dup3\n        /* \"#utility.yul\":4063:4083   */\n      tag_68\n      jump\t// in\n    tag_114:\n        /* \"#utility.yul\":4058:4083   */\n      swap2\n      pop\n        /* \"#utility.yul\":4097:4117   */\n      tag_115\n        /* \"#utility.yul\":4115:4116   */\n      dup4\n        /* \"#utility.yul\":4097:4117   */\n      tag_68\n      jump\t// in\n    tag_115:\n        /* \"#utility.yul\":4092:4117   */\n      swap3\n      pop\n        /* \"#utility.yul\":4140:4141   */\n      dup3\n        /* \"#utility.yul\":4137:4138   */\n      dup3\n        /* \"#utility.yul\":4133:4142   */\n      add\n        /* \"#utility.yul\":4126:4142   */\n      swap1\n      pop\n        /* \"#utility.yul\":4161:4164   */\n      dup1\n        /* \"#utility.yul\":4158:4159   */\n      dup3\n        /* \"#utility.yul\":4155:4165   */\n      gt\n        /* \"#utility.yul\":4152:4188   */\n      iszero\n      tag_116\n      jumpi\n        /* \"#utility.yul\":4168:4186   */\n      tag_117\n      tag_76\n      jump\t// in\n    tag_117:\n        /* \"#utility.yul\":4152:4188   */\n    tag_116:\n        /* \"#utility.yul\":4004:4195   */\n      swap3\n      swap2\n      pop\n      pop\n      jump\t// out\n\n    auxdata: 0xa2646970667358221220eef5ddadabc55ac88adce4b5e7ef6dc25b28476484f5c75647d7def08487c6ea64736f6c634300081a0033\n}\n",
				"bytecode": {
					"linkReferences": {},
					"object": "608060405234801561000f575f80fd5b50604051610d01380380610d018339818101604052810190610031919061028b565b845f908161003f919061055a565b50836001819055508260029081610056919061055a565b508160039081610066919061055a565b508060045f6101000a81548173ffffffffffffffffffffffffffffffffffffffff021916908373ffffffffffffffffffffffffffffffffffffffff1602179055505050505050610629565b5f604051905090565b5f80fd5b5f80fd5b5f80fd5b5f80fd5b5f601f19601f8301169050919050565b7f4e487b71000000000000000000000000000000000000000000000000000000005f52604160045260245ffd5b610110826100ca565b810181811067ffffffffffffffff8211171561012f5761012e6100da565b5b80604052505050565b5f6101416100b1565b905061014d8282610107565b919050565b5f67ffffffffffffffff82111561016c5761016b6100da565b5b610175826100ca565b9050602081019050919050565b8281835e5f83830152505050565b5f6101a261019d84610152565b610138565b9050828152602081018484840111156101be576101bd6100c6565b5b6101c9848285610182565b509392505050565b5f82601f8301126101e5576101e46100c2565b5b81516101f5848260208601610190565b91505092915050565b5f819050919050565b610210816101fe565b811461021a575f80fd5b50565b5f8151905061022b81610207565b92915050565b5f73ffffffffffffffffffffffffffffffffffffffff82169050919050565b5f61025a82610231565b9050919050565b61026a81610250565b8114610274575f80fd5b50565b5f8151905061028581610261565b92915050565b5f805f805f60a086880312156102a4576102a36100ba565b5b5f86015167ffffffffffffffff8111156102c1576102c06100be565b5b6102cd888289016101d1565b95505060206102de8882890161021d565b945050604086015167ffffffffffffffff8111156102ff576102fe6100be565b5b61030b888289016101d1565b935050606086015167ffffffffffffffff81111561032c5761032b6100be565b5b610338888289016101d1565b925050608061034988828901610277565b9150509295509295909350565b5f81519050919050565b7f4e487b71000000000000000000000000000000000000000000000000000000005f52602260045260245ffd5b5f60028204905060018216806103a457607f821691505b6020821081036103b7576103b6610360565b5b50919050565b5f819050815f5260205f209050919050565b5f6020601f8301049050919050565b5f82821b905092915050565b5f600883026104197fffffffffffffffffffffffffffffffffffffffffffffffffffffffffffffffff826103de565b61042386836103de565b95508019841693508086168417925050509392505050565b5f819050919050565b5f61045e610459610454846101fe565b61043b565b6101fe565b9050919050565b5f819050919050565b61047783610444565b61048b61048382610465565b8484546103ea565b825550505050565b5f90565b61049f610493565b6104aa81848461046e565b505050565b5b818110156104cd576104c25f82610497565b6001810190506104b0565b5050565b601f821115610512576104e3816103bd565b6104ec846103cf565b810160208510156104fb578190505b61050f610507856103cf565b8301826104af565b50505b505050565b5f82821c905092915050565b5f6105325f1984600802610517565b1980831691505092915050565b5f61054a8383610523565b9150826002028217905092915050565b61056382610356565b67ffffffffffffffff81111561057c5761057b6100da565b5b610586825461038d565b6105918282856104d1565b5f60209050601f8311600181146105c2575f84156105b0578287015190505b6105ba858261053f565b865550610621565b601f1984166105d0866103bd565b5f5b828110156105f7578489015182556001820191506020850194506020810190506105d2565b868310156106145784890151610610601f891682610523565b8355505b6001600288020188555050505b505050505050565b6106cb806106365f395ff3fe60806040526004361061006f575f3560e01c80638da5cb5b1161004d5780638da5cb5b146100f15780639632e7201461011b578063ed88c68e14610145578063f3ccaac01461014f5761006f565b806346c922d11461007357806348b9ef401461009d5780634a79d50c146100c7575b5f80fd5b34801561007e575f80fd5b50610087610179565b60405161009491906104c7565b60405180910390f35b3480156100a8575f80fd5b506100b1610205565b6040516100be91906104ff565b60405180910390f35b3480156100d2575f80fd5b506100db61020b565b6040516100e891906104c7565b60405180910390f35b3480156100fc575f80fd5b50610105610296565b6040516101129190610557565b60405180910390f35b348015610126575f80fd5b5061012f6102bb565b60405161013c91906104ff565b60405180910390f35b61014d6102c1565b005b34801561015a575f80fd5b506101636103cb565b60405161017091906104c7565b60405180910390f35b600380546101869061059d565b80601f01602080910402602001604051908101604052809291908181526020018280546101b29061059d565b80156101fd5780601f106101d4576101008083540402835291602001916101fd565b820191905f5260205f20905b8154815290600101906020018083116101e057829003601f168201915b505050505081565b60015481565b5f80546102179061059d565b80601f01602080910402602001604051908101604052809291908181526020018280546102439061059d565b801561028e5780601f106102655761010080835404028352916020019161028e565b820191905f5260205f20905b81548152906001019060200180831161027157829003601f168201915b505050505081565b60045f9054906101000a900473ffffffffffffffffffffffffffffffffffffffff1681565b60055481565b60055460015411610307576040517f08c379a00000000000000000000000000000000000000000000000000000000081526004016102fe90610617565b60405180910390fd5b60045f9054906101000a900473ffffffffffffffffffffffffffffffffffffffff1673ffffffffffffffffffffffffffffffffffffffff166108fc3490811502906040515f60405180830381858888f1935050505015801561036b573d5f803e3d5ffd5b503460055f82825461037d9190610662565b9250508190555042343373ffffffffffffffffffffffffffffffffffffffff167fe6add99d06d9ad7fc456e746aa162eed6211c5002ef2dacdd67b8d2016822fba60405160405180910390a4565b600280546103d89061059d565b80601f01602080910402602001604051908101604052809291908181526020018280546104049061059d565b801561044f5780601f106104265761010080835404028352916020019161044f565b820191905f5260205f20905b81548152906001019060200180831161043257829003601f168201915b505050505081565b5f81519050919050565b5f82825260208201905092915050565b8281835e5f83830152505050565b5f601f19601f8301169050919050565b5f61049982610457565b6104a38185610461565b93506104b3818560208601610471565b6104bc8161047f565b840191505092915050565b5f6020820190508181035f8301526104df818461048f565b905092915050565b5f819050919050565b6104f9816104e7565b82525050565b5f6020820190506105125f8301846104f0565b92915050565b5f73ffffffffffffffffffffffffffffffffffffffff82169050919050565b5f61054182610518565b9050919050565b61055181610537565b82525050565b5f60208201905061056a5f830184610548565b92915050565b7f4e487b71000000000000000000000000000000000000000000000000000000005f52602260045260245ffd5b5f60028204905060018216806105b457607f821691505b6020821081036105c7576105c6610570565b5b50919050565b7f726571756972656420616d6f756e742066756c6c66696c6c65640000000000005f82015250565b5f610601601a83610461565b915061060c826105cd565b602082019050919050565b5f6020820190508181035f83015261062e816105f5565b9050919050565b7f4e487b71000000000000000000000000000000000000000000000000000000005f52601160045260245ffd5b5f61066c826104e7565b9150610677836104e7565b925082820190508082111561068f5761068e610635565b5b9291505056fea2646970667358221220eef5ddadabc55ac88adce4b5e7ef6dc25b28476484f5c75647d7def08487c6ea64736f6c634300081a0033",
					"opcodes": "PUSH1 0x80 PUSH1 0x40 MSTORE CALLVALUE DUP1 ISZERO PUSH2 0xF JUMPI PUSH0 DUP1 REVERT JUMPDEST POP PUSH1 0x40 MLOAD PUSH2 0xD01 CODESIZE SUB DUP1 PUSH2 0xD01 DUP4 CODECOPY DUP2 DUP2 ADD PUSH1 0x40 MSTORE DUP2 ADD SWAP1 PUSH2 0x31 SWAP2 SWAP1 PUSH2 0x28B JUMP JUMPDEST DUP5 PUSH0 SWAP1 DUP2 PUSH2 0x3F SWAP2 SWAP1 PUSH2 0x55A JUMP JUMPDEST POP DUP4 PUSH1 0x1 DUP2 SWAP1 SSTORE POP DUP3 PUSH1 0x2 SWAP1 DUP2 PUSH2 0x56 SWAP2 SWAP1 PUSH2 0x55A JUMP JUMPDEST POP DUP2 PUSH1 0x3 SWAP1 DUP2 PUSH2 0x66 SWAP2 SWAP1 PUSH2 0x55A JUMP JUMPDEST POP DUP1 PUSH1 0x4 PUSH0 PUSH2 0x100 EXP DUP2 SLOAD DUP2 PUSH20 0xFFFFFFFFFFFFFFFFFFFFFFFFFFFFFFFFFFFFFFFF MUL NOT AND SWAP1 DUP4 PUSH20 0xFFFFFFFFFFFFFFFFFFFFFFFFFFFFFFFFFFFFFFFF AND MUL OR SWAP1 SSTORE POP POP POP POP POP POP PUSH2 0x629 JUMP JUMPDEST PUSH0 PUSH1 0x40 MLOAD SWAP1 POP SWAP1 JUMP JUMPDEST PUSH0 DUP1 REVERT JUMPDEST PUSH0 DUP1 REVERT JUMPDEST PUSH0 DUP1 REVERT JUMPDEST PUSH0 DUP1 REVERT JUMPDEST PUSH0 PUSH1 0x1F NOT PUSH1 0x1F DUP4 ADD AND SWAP1 POP SWAP2 SWAP1 POP JUMP JUMPDEST PUSH32 0x4E487B7100000000000000000000000000000000000000000000000000000000 PUSH0 MSTORE PUSH1 0x41 PUSH1 0x4 MSTORE PUSH1 0x24 PUSH0 REVERT JUMPDEST PUSH2 0x110 DUP3 PUSH2 0xCA JUMP JUMPDEST DUP2 ADD DUP2 DUP2 LT PUSH8 0xFFFFFFFFFFFFFFFF DUP3 GT OR ISZERO PUSH2 0x12F JUMPI PUSH2 0x12E PUSH2 0xDA JUMP JUMPDEST JUMPDEST DUP1 PUSH1 0x40 MSTORE POP POP POP JUMP JUMPDEST PUSH0 PUSH2 0x141 PUSH2 0xB1 JUMP JUMPDEST SWAP1 POP PUSH2 0x14D DUP3 DUP3 PUSH2 0x107 JUMP JUMPDEST SWAP2 SWAP1 POP JUMP JUMPDEST PUSH0 PUSH8 0xFFFFFFFFFFFFFFFF DUP3 GT ISZERO PUSH2 0x16C JUMPI PUSH2 0x16B PUSH2 0xDA JUMP JUMPDEST JUMPDEST PUSH2 0x175 DUP3 PUSH2 0xCA JUMP JUMPDEST SWAP1 POP PUSH1 0x20 DUP2 ADD SWAP1 POP SWAP2 SWAP1 POP JUMP JUMPDEST DUP3 DUP2 DUP4 MCOPY PUSH0 DUP4 DUP4 ADD MSTORE POP POP POP JUMP JUMPDEST PUSH0 PUSH2 0x1A2 PUSH2 0x19D DUP5 PUSH2 0x152 JUMP JUMPDEST PUSH2 0x138 JUMP JUMPDEST SWAP1 POP DUP3 DUP2 MSTORE PUSH1 0x20 DUP2 ADD DUP5 DUP5 DUP5 ADD GT ISZERO PUSH2 0x1BE JUMPI PUSH2 0x1BD PUSH2 0xC6 JUMP JUMPDEST JUMPDEST PUSH2 0x1C9 DUP5 DUP3 DUP6 PUSH2 0x182 JUMP JUMPDEST POP SWAP4 SWAP3 POP POP POP JUMP JUMPDEST PUSH0 DUP3 PUSH1 0x1F DUP4 ADD SLT PUSH2 0x1E5 JUMPI PUSH2 0x1E4 PUSH2 0xC2 JUMP JUMPDEST JUMPDEST DUP2 MLOAD PUSH2 0x1F5 DUP5 DUP3 PUSH1 0x20 DUP7 ADD PUSH2 0x190 JUMP JUMPDEST SWAP2 POP POP SWAP3 SWAP2 POP POP JUMP JUMPDEST PUSH0 DUP2 SWAP1 POP SWAP2 SWAP1 POP JUMP JUMPDEST PUSH2 0x210 DUP2 PUSH2 0x1FE JUMP JUMPDEST DUP2 EQ PUSH2 0x21A JUMPI PUSH0 DUP1 REVERT JUMPDEST POP JUMP JUMPDEST PUSH0 DUP2 MLOAD SWAP1 POP PUSH2 0x22B DUP2 PUSH2 0x207 JUMP JUMPDEST SWAP3 SWAP2 POP POP JUMP JUMPDEST PUSH0 PUSH20 0xFFFFFFFFFFFFFFFFFFFFFFFFFFFFFFFFFFFFFFFF DUP3 AND SWAP1 POP SWAP2 SWAP1 POP JUMP JUMPDEST PUSH0 PUSH2 0x25A DUP3 PUSH2 0x231 JUMP JUMPDEST SWAP1 POP SWAP2 SWAP1 POP JUMP JUMPDEST PUSH2 0x26A DUP2 PUSH2 0x250 JUMP JUMPDEST DUP2 EQ PUSH2 0x274 JUMPI PUSH0 DUP1 REVERT JUMPDEST POP JUMP JUMPDEST PUSH0 DUP2 MLOAD SWAP1 POP PUSH2 0x285 DUP2 PUSH2 0x261 JUMP JUMPDEST SWAP3 SWAP2 POP POP JUMP JUMPDEST PUSH0 DUP1 PUSH0 DUP1 PUSH0 PUSH1 0xA0 DUP7 DUP9 SUB SLT ISZERO PUSH2 0x2A4 JUMPI PUSH2 0x2A3 PUSH2 0xBA JUMP JUMPDEST JUMPDEST PUSH0 DUP7 ADD MLOAD PUSH8 0xFFFFFFFFFFFFFFFF DUP2 GT ISZERO PUSH2 0x2C1 JUMPI PUSH2 0x2C0 PUSH2 0xBE JUMP JUMPDEST JUMPDEST PUSH2 0x2CD DUP9 DUP3 DUP10 ADD PUSH2 0x1D1 JUMP JUMPDEST SWAP6 POP POP PUSH1 0x20 PUSH2 0x2DE DUP9 DUP3 DUP10 ADD PUSH2 0x21D JUMP JUMPDEST SWAP5 POP POP PUSH1 0x40 DUP7 ADD MLOAD PUSH8 0xFFFFFFFFFFFFFFFF DUP2 GT ISZERO PUSH2 0x2FF JUMPI PUSH2 0x2FE PUSH2 0xBE JUMP JUMPDEST JUMPDEST PUSH2 0x30B DUP9 DUP3 DUP10 ADD PUSH2 0x1D1 JUMP JUMPDEST SWAP4 POP POP PUSH1 0x60 DUP7 ADD MLOAD PUSH8 0xFFFFFFFFFFFFFFFF DUP2 GT ISZERO PUSH2 0x32C JUMPI PUSH2 0x32B PUSH2 0xBE JUMP JUMPDEST JUMPDEST PUSH2 0x338 DUP9 DUP3 DUP10 ADD PUSH2 0x1D1 JUMP JUMPDEST SWAP3 POP POP PUSH1 0x80 PUSH2 0x349 DUP9 DUP3 DUP10 ADD PUSH2 0x277 JUMP JUMPDEST SWAP2 POP POP SWAP3 SWAP6 POP SWAP3 SWAP6 SWAP1 SWAP4 POP JUMP JUMPDEST PUSH0 DUP2 MLOAD SWAP1 POP SWAP2 SWAP1 POP JUMP JUMPDEST PUSH32 0x4E487B7100000000000000000000000000000000000000000000000000000000 PUSH0 MSTORE PUSH1 0x22 PUSH1 0x4 MSTORE PUSH1 0x24 PUSH0 REVERT JUMPDEST PUSH0 PUSH1 0x2 DUP3 DIV SWAP1 POP PUSH1 0x1 DUP3 AND DUP1 PUSH2 0x3A4 JUMPI PUSH1 0x7F DUP3 AND SWAP2 POP JUMPDEST PUSH1 0x20 DUP3 LT DUP2 SUB PUSH2 0x3B7 JUMPI PUSH2 0x3B6 PUSH2 0x360 JUMP JUMPDEST JUMPDEST POP SWAP2 SWAP1 POP JUMP JUMPDEST PUSH0 DUP2 SWAP1 POP DUP2 PUSH0 MSTORE PUSH1 0x20 PUSH0 KECCAK256 SWAP1 POP SWAP2 SWAP1 POP JUMP JUMPDEST PUSH0 PUSH1 0x20 PUSH1 0x1F DUP4 ADD DIV SWAP1 POP SWAP2 SWAP1 POP JUMP JUMPDEST PUSH0 DUP3 DUP3 SHL SWAP1 POP SWAP3 SWAP2 POP POP JUMP JUMPDEST PUSH0 PUSH1 0x8 DUP4 MUL PUSH2 0x419 PUSH32 0xFFFFFFFFFFFFFFFFFFFFFFFFFFFFFFFFFFFFFFFFFFFFFFFFFFFFFFFFFFFFFFFF DUP3 PUSH2 0x3DE JUMP JUMPDEST PUSH2 0x423 DUP7 DUP4 PUSH2 0x3DE JUMP JUMPDEST SWAP6 POP DUP1 NOT DUP5 AND SWAP4 POP DUP1 DUP7 AND DUP5 OR SWAP3 POP POP POP SWAP4 SWAP3 POP POP POP JUMP JUMPDEST PUSH0 DUP2 SWAP1 POP SWAP2 SWAP1 POP JUMP JUMPDEST PUSH0 PUSH2 0x45E PUSH2 0x459 PUSH2 0x454 DUP5 PUSH2 0x1FE JUMP JUMPDEST PUSH2 0x43B JUMP JUMPDEST PUSH2 0x1FE JUMP JUMPDEST SWAP1 POP SWAP2 SWAP1 POP JUMP JUMPDEST PUSH0 DUP2 SWAP1 POP SWAP2 SWAP1 POP JUMP JUMPDEST PUSH2 0x477 DUP4 PUSH2 0x444 JUMP JUMPDEST PUSH2 0x48B PUSH2 0x483 DUP3 PUSH2 0x465 JUMP JUMPDEST DUP5 DUP5 SLOAD PUSH2 0x3EA JUMP JUMPDEST DUP3 SSTORE POP POP POP POP JUMP JUMPDEST PUSH0 SWAP1 JUMP JUMPDEST PUSH2 0x49F PUSH2 0x493 JUMP JUMPDEST PUSH2 0x4AA DUP2 DUP5 DUP5 PUSH2 0x46E JUMP JUMPDEST POP POP POP JUMP JUMPDEST JUMPDEST DUP2 DUP2 LT ISZERO PUSH2 0x4CD JUMPI PUSH2 0x4C2 PUSH0 DUP3 PUSH2 0x497 JUMP JUMPDEST PUSH1 0x1 DUP2 ADD SWAP1 POP PUSH2 0x4B0 JUMP JUMPDEST POP POP JUMP JUMPDEST PUSH1 0x1F DUP3 GT ISZERO PUSH2 0x512 JUMPI PUSH2 0x4E3 DUP2 PUSH2 0x3BD JUMP JUMPDEST PUSH2 0x4EC DUP5 PUSH2 0x3CF JUMP JUMPDEST DUP2 ADD PUSH1 0x20 DUP6 LT ISZERO PUSH2 0x4FB JUMPI DUP2 SWAP1 POP JUMPDEST PUSH2 0x50F PUSH2 0x507 DUP6 PUSH2 0x3CF JUMP JUMPDEST DUP4 ADD DUP3 PUSH2 0x4AF JUMP JUMPDEST POP POP JUMPDEST POP POP POP JUMP JUMPDEST PUSH0 DUP3 DUP3 SHR SWAP1 POP SWAP3 SWAP2 POP POP JUMP JUMPDEST PUSH0 PUSH2 0x532 PUSH0 NOT DUP5 PUSH1 0x8 MUL PUSH2 0x517 JUMP JUMPDEST NOT DUP1 DUP4 AND SWAP2 POP POP SWAP3 SWAP2 POP POP JUMP JUMPDEST PUSH0 PUSH2 0x54A DUP4 DUP4 PUSH2 0x523 JUMP JUMPDEST SWAP2 POP DUP3 PUSH1 0x2 MUL DUP3 OR SWAP1 POP SWAP3 SWAP2 POP POP JUMP JUMPDEST PUSH2 0x563 DUP3 PUSH2 0x356 JUMP JUMPDEST PUSH8 0xFFFFFFFFFFFFFFFF DUP2 GT ISZERO PUSH2 0x57C JUMPI PUSH2 0x57B PUSH2 0xDA JUMP JUMPDEST JUMPDEST PUSH2 0x586 DUP3 SLOAD PUSH2 0x38D JUMP JUMPDEST PUSH2 0x591 DUP3 DUP3 DUP6 PUSH2 0x4D1 JUMP JUMPDEST PUSH0 PUSH1 0x20 SWAP1 POP PUSH1 0x1F DUP4 GT PUSH1 0x1 DUP2 EQ PUSH2 0x5C2 JUMPI PUSH0 DUP5 ISZERO PUSH2 0x5B0 JUMPI DUP3 DUP8 ADD MLOAD SWAP1 POP JUMPDEST PUSH2 0x5BA DUP6 DUP3 PUSH2 0x53F JUMP JUMPDEST DUP7 SSTORE POP PUSH2 0x621 JUMP JUMPDEST PUSH1 0x1F NOT DUP5 AND PUSH2 0x5D0 DUP7 PUSH2 0x3BD JUMP JUMPDEST PUSH0 JUMPDEST DUP3 DUP2 LT ISZERO PUSH2 0x5F7 JUMPI DUP5 DUP10 ADD MLOAD DUP3 SSTORE PUSH1 0x1 DUP3 ADD SWAP2 POP PUSH1 0x20 DUP6 ADD SWAP5 POP PUSH1 0x20 DUP2 ADD SWAP1 POP PUSH2 0x5D2 JUMP JUMPDEST DUP7 DUP4 LT ISZERO PUSH2 0x614 JUMPI DUP5 DUP10 ADD MLOAD PUSH2 0x610 PUSH1 0x1F DUP10 AND DUP3 PUSH2 0x523 JUMP JUMPDEST DUP4 SSTORE POP JUMPDEST PUSH1 0x1 PUSH1 0x2 DUP9 MUL ADD DUP9 SSTORE POP POP POP JUMPDEST POP POP POP POP POP POP JUMP JUMPDEST PUSH2 0x6CB DUP1 PUSH2 0x636 PUSH0 CODECOPY PUSH0 RETURN INVALID PUSH1 0x80 PUSH1 0x40 MSTORE PUSH1 0x4 CALLDATASIZE LT PUSH2 0x6F JUMPI PUSH0 CALLDATALOAD PUSH1 0xE0 SHR DUP1 PUSH4 0x8DA5CB5B GT PUSH2 0x4D JUMPI DUP1 PUSH4 0x8DA5CB5B EQ PUSH2 0xF1 JUMPI DUP1 PUSH4 0x9632E720 EQ PUSH2 0x11B JUMPI DUP1 PUSH4 0xED88C68E EQ PUSH2 0x145 JUMPI DUP1 PUSH4 0xF3CCAAC0 EQ PUSH2 0x14F JUMPI PUSH2 0x6F JUMP JUMPDEST DUP1 PUSH4 0x46C922D1 EQ PUSH2 0x73 JUMPI DUP1 PUSH4 0x48B9EF40 EQ PUSH2 0x9D JUMPI DUP1 PUSH4 0x4A79D50C EQ PUSH2 0xC7 JUMPI JUMPDEST PUSH0 DUP1 REVERT JUMPDEST CALLVALUE DUP1 ISZERO PUSH2 0x7E JUMPI PUSH0 DUP1 REVERT JUMPDEST POP PUSH2 0x87 PUSH2 0x179 JUMP JUMPDEST PUSH1 0x40 MLOAD PUSH2 0x94 SWAP2 SWAP1 PUSH2 0x4C7 JUMP JUMPDEST PUSH1 0x40 MLOAD DUP1 SWAP2 SUB SWAP1 RETURN JUMPDEST CALLVALUE DUP1 ISZERO PUSH2 0xA8 JUMPI PUSH0 DUP1 REVERT JUMPDEST POP PUSH2 0xB1 PUSH2 0x205 JUMP JUMPDEST PUSH1 0x40 MLOAD PUSH2 0xBE SWAP2 SWAP1 PUSH2 0x4FF JUMP JUMPDEST PUSH1 0x40 MLOAD DUP1 SWAP2 SUB SWAP1 RETURN JUMPDEST CALLVALUE DUP1 ISZERO PUSH2 0xD2 JUMPI PUSH0 DUP1 REVERT JUMPDEST POP PUSH2 0xDB PUSH2 0x20B JUMP JUMPDEST PUSH1 0x40 MLOAD PUSH2 0xE8 SWAP2 SWAP1 PUSH2 0x4C7 JUMP JUMPDEST PUSH1 0x40 MLOAD DUP1 SWAP2 SUB SWAP1 RETURN JUMPDEST CALLVALUE DUP1 ISZERO PUSH2 0xFC JUMPI PUSH0 DUP1 REVERT JUMPDEST POP PUSH2 0x105 PUSH2 0x296 JUMP JUMPDEST PUSH1 0x40 MLOAD PUSH2 0x112 SWAP2 SWAP1 PUSH2 0x557 JUMP JUMPDEST PUSH1 0x40 MLOAD DUP1 SWAP2 SUB SWAP1 RETURN JUMPDEST CALLVALUE DUP1 ISZERO PUSH2 0x126 JUMPI PUSH0 DUP1 REVERT JUMPDEST POP PUSH2 0x12F PUSH2 0x2BB JUMP JUMPDEST PUSH1 0x40 MLOAD PUSH2 0x13C SWAP2 SWAP1 PUSH2 0x4FF JUMP JUMPDEST PUSH1 0x40 MLOAD DUP1 SWAP2 SUB SWAP1 RETURN JUMPDEST PUSH2 0x14D PUSH2 0x2C1 JUMP JUMPDEST STOP JUMPDEST CALLVALUE DUP1 ISZERO PUSH2 0x15A JUMPI PUSH0 DUP1 REVERT JUMPDEST POP PUSH2 0x163 PUSH2 0x3CB JUMP JUMPDEST PUSH1 0x40 MLOAD PUSH2 0x170 SWAP2 SWAP1 PUSH2 0x4C7 JUMP JUMPDEST PUSH1 0x40 MLOAD DUP1 SWAP2 SUB SWAP1 RETURN JUMPDEST PUSH1 0x3 DUP1 SLOAD PUSH2 0x186 SWAP1 PUSH2 0x59D JUMP JUMPDEST DUP1 PUSH1 0x1F ADD PUSH1 0x20 DUP1 SWAP2 DIV MUL PUSH1 0x20 ADD PUSH1 0x40 MLOAD SWAP1 DUP2 ADD PUSH1 0x40 MSTORE DUP1 SWAP3 SWAP2 SWAP1 DUP2 DUP2 MSTORE PUSH1 0x20 ADD DUP3 DUP1 SLOAD PUSH2 0x1B2 SWAP1 PUSH2 0x59D JUMP JUMPDEST DUP1 ISZERO PUSH2 0x1FD JUMPI DUP1 PUSH1 0x1F LT PUSH2 0x1D4 JUMPI PUSH2 0x100 DUP1 DUP4 SLOAD DIV MUL DUP4 MSTORE SWAP2 PUSH1 0x20 ADD SWAP2 PUSH2 0x1FD JUMP JUMPDEST DUP3 ADD SWAP2 SWAP1 PUSH0 MSTORE PUSH1 0x20 PUSH0 KECCAK256 SWAP1 JUMPDEST DUP2 SLOAD DUP2 MSTORE SWAP1 PUSH1 0x1 ADD SWAP1 PUSH1 0x20 ADD DUP1 DUP4 GT PUSH2 0x1E0 JUMPI DUP3 SWAP1 SUB PUSH1 0x1F AND DUP3 ADD SWAP2 JUMPDEST POP POP POP POP POP DUP2 JUMP JUMPDEST PUSH1 0x1 SLOAD DUP2 JUMP JUMPDEST PUSH0 DUP1 SLOAD PUSH2 0x217 SWAP1 PUSH2 0x59D JUMP JUMPDEST DUP1 PUSH1 0x1F ADD PUSH1 0x20 DUP1 SWAP2 DIV MUL PUSH1 0x20 ADD PUSH1 0x40 MLOAD SWAP1 DUP2 ADD PUSH1 0x40 MSTORE DUP1 SWAP3 SWAP2 SWAP1 DUP2 DUP2 MSTORE PUSH1 0x20 ADD DUP3 DUP1 SLOAD PUSH2 0x243 SWAP1 PUSH2 0x59D JUMP JUMPDEST DUP1 ISZERO PUSH2 0x28E JUMPI DUP1 PUSH1 0x1F LT PUSH2 0x265 JUMPI PUSH2 0x100 DUP1 DUP4 SLOAD DIV MUL DUP4 MSTORE SWAP2 PUSH1 0x20 ADD SWAP2 PUSH2 0x28E JUMP JUMPDEST DUP3 ADD SWAP2 SWAP1 PUSH0 MSTORE PUSH1 0x20 PUSH0 KECCAK256 SWAP1 JUMPDEST DUP2 SLOAD DUP2 MSTORE SWAP1 PUSH1 0x1 ADD SWAP1 PUSH1 0x20 ADD DUP1 DUP4 GT PUSH2 0x271 JUMPI DUP3 SWAP1 SUB PUSH1 0x1F AND DUP3 ADD SWAP2 JUMPDEST POP POP POP POP POP DUP2 JUMP JUMPDEST PUSH1 0x4 PUSH0 SWAP1 SLOAD SWAP1 PUSH2 0x100 EXP SWAP1 DIV PUSH20 0xFFFFFFFFFFFFFFFFFFFFFFFFFFFFFFFFFFFFFFFF AND DUP2 JUMP JUMPDEST PUSH1 0x5 SLOAD DUP2 JUMP JUMPDEST PUSH1 0x5 SLOAD PUSH1 0x1 SLOAD GT PUSH2 0x307 JUMPI PUSH1 0x40 MLOAD PUSH32 0x8C379A000000000000000000000000000000000000000000000000000000000 DUP2 MSTORE PUSH1 0x4 ADD PUSH2 0x2FE SWAP1 PUSH2 0x617 JUMP JUMPDEST PUSH1 0x40 MLOAD DUP1 SWAP2 SUB SWAP1 REVERT JUMPDEST PUSH1 0x4 PUSH0 SWAP1 SLOAD SWAP1 PUSH2 0x100 EXP SWAP1 DIV PUSH20 0xFFFFFFFFFFFFFFFFFFFFFFFFFFFFFFFFFFFFFFFF AND PUSH20 0xFFFFFFFFFFFFFFFFFFFFFFFFFFFFFFFFFFFFFFFF AND PUSH2 0x8FC CALLVALUE SWAP1 DUP2 ISZERO MUL SWAP1 PUSH1 0x40 MLOAD PUSH0 PUSH1 0x40 MLOAD DUP1 DUP4 SUB DUP2 DUP6 DUP9 DUP9 CALL SWAP4 POP POP POP POP ISZERO DUP1 ISZERO PUSH2 0x36B JUMPI RETURNDATASIZE PUSH0 DUP1 RETURNDATACOPY RETURNDATASIZE PUSH0 REVERT JUMPDEST POP CALLVALUE PUSH1 0x5 PUSH0 DUP3 DUP3 SLOAD PUSH2 0x37D SWAP2 SWAP1 PUSH2 0x662 JUMP JUMPDEST SWAP3 POP POP DUP2 SWAP1 SSTORE POP TIMESTAMP CALLVALUE CALLER PUSH20 0xFFFFFFFFFFFFFFFFFFFFFFFFFFFFFFFFFFFFFFFF AND PUSH32 0xE6ADD99D06D9AD7FC456E746AA162EED6211C5002EF2DACDD67B8D2016822FBA PUSH1 0x40 MLOAD PUSH1 0x40 MLOAD DUP1 SWAP2 SUB SWAP1 LOG4 JUMP JUMPDEST PUSH1 0x2 DUP1 SLOAD PUSH2 0x3D8 SWAP1 PUSH2 0x59D JUMP JUMPDEST DUP1 PUSH1 0x1F ADD PUSH1 0x20 DUP1 SWAP2 DIV MUL PUSH1 0x20 ADD PUSH1 0x40 MLOAD SWAP1 DUP2 ADD PUSH1 0x40 MSTORE DUP1 SWAP3 SWAP2 SWAP1 DUP2 DUP2 MSTORE PUSH1 0x20 ADD DUP3 DUP1 SLOAD PUSH2 0x404 SWAP1 PUSH2 0x59D JUMP JUMPDEST DUP1 ISZERO PUSH2 0x44F JUMPI DUP1 PUSH1 0x1F LT PUSH2 0x426 JUMPI PUSH2 0x100 DUP1 DUP4 SLOAD DIV MUL DUP4 MSTORE SWAP2 PUSH1 0x20 ADD SWAP2 PUSH2 0x44F JUMP JUMPDEST DUP3 ADD SWAP2 SWAP1 PUSH0 MSTORE PUSH1 0x20 PUSH0 KECCAK256 SWAP1 JUMPDEST DUP2 SLOAD DUP2 MSTORE SWAP1 PUSH1 0x1 ADD SWAP1 PUSH1 0x20 ADD DUP1 DUP4 GT PUSH2 0x432 JUMPI DUP3 SWAP1 SUB PUSH1 0x1F AND DUP3 ADD SWAP2 JUMPDEST POP POP POP POP POP DUP2 JUMP JUMPDEST PUSH0 DUP2 MLOAD SWAP1 POP SWAP2 SWAP1 POP JUMP JUMPDEST PUSH0 DUP3 DUP3 MSTORE PUSH1 0x20 DUP3 ADD SWAP1 POP SWAP3 SWAP2 POP POP JUMP JUMPDEST DUP3 DUP2 DUP4 MCOPY PUSH0 DUP4 DUP4 ADD MSTORE POP POP POP JUMP JUMPDEST PUSH0 PUSH1 0x1F NOT PUSH1 0x1F DUP4 ADD AND SWAP1 POP SWAP2 SWAP1 POP JUMP JUMPDEST PUSH0 PUSH2 0x499 DUP3 PUSH2 0x457 JUMP JUMPDEST PUSH2 0x4A3 DUP2 DUP6 PUSH2 0x461 JUMP JUMPDEST SWAP4 POP PUSH2 0x4B3 DUP2 DUP6 PUSH1 0x20 DUP7 ADD PUSH2 0x471 JUMP JUMPDEST PUSH2 0x4BC DUP2 PUSH2 0x47F JUMP JUMPDEST DUP5 ADD SWAP2 POP POP SWAP3 SWAP2 POP POP JUMP JUMPDEST PUSH0 PUSH1 0x20 DUP3 ADD SWAP1 POP DUP2 DUP2 SUB PUSH0 DUP4 ADD MSTORE PUSH2 0x4DF DUP2 DUP5 PUSH2 0x48F JUMP JUMPDEST SWAP1 POP SWAP3 SWAP2 POP POP JUMP JUMPDEST PUSH0 DUP2 SWAP1 POP SWAP2 SWAP1 POP JUMP JUMPDEST PUSH2 0x4F9 DUP2 PUSH2 0x4E7 JUMP JUMPDEST DUP3 MSTORE POP POP JUMP JUMPDEST PUSH0 PUSH1 0x20 DUP3 ADD SWAP1 POP PUSH2 0x512 PUSH0 DUP4 ADD DUP5 PUSH2 0x4F0 JUMP JUMPDEST SWAP3 SWAP2 POP POP JUMP JUMPDEST PUSH0 PUSH20 0xFFFFFFFFFFFFFFFFFFFFFFFFFFFFFFFFFFFFFFFF DUP3 AND SWAP1 POP SWAP2 SWAP1 POP JUMP JUMPDEST PUSH0 PUSH2 0x541 DUP3 PUSH2 0x518 JUMP JUMPDEST SWAP1 POP SWAP2 SWAP1 POP JUMP JUMPDEST PUSH2 0x551 DUP2 PUSH2 0x537 JUMP JUMPDEST DUP3 MSTORE POP POP JUMP JUMPDEST PUSH0 PUSH1 0x20 DUP3 ADD SWAP1 POP PUSH2 0x56A PUSH0 DUP4 ADD DUP5 PUSH2 0x548 JUMP JUMPDEST SWAP3 SWAP2 POP POP JUMP JUMPDEST PUSH32 0x4E487B7100000000000000000000000000000000000000000000000000000000 PUSH0 MSTORE PUSH1 0x22 PUSH1 0x4 MSTORE PUSH1 0x24 PUSH0 REVERT JUMPDEST PUSH0 PUSH1 0x2 DUP3 DIV SWAP1 POP PUSH1 0x1 DUP3 AND DUP1 PUSH2 0x5B4 JUMPI PUSH1 0x7F DUP3 AND SWAP2 POP JUMPDEST PUSH1 0x20 DUP3 LT DUP2 SUB PUSH2 0x5C7 JUMPI PUSH2 0x5C6 PUSH2 0x570 JUMP JUMPDEST JUMPDEST POP SWAP2 SWAP1 POP JUMP JUMPDEST PUSH32 0x726571756972656420616D6F756E742066756C6C66696C6C6564000000000000 PUSH0 DUP3 ADD MSTORE POP JUMP JUMPDEST PUSH0 PUSH2 0x601 PUSH1 0x1A DUP4 PUSH2 0x461 JUMP JUMPDEST SWAP2 POP PUSH2 0x60C DUP3 PUSH2 0x5CD JUMP JUMPDEST PUSH1 0x20 DUP3 ADD SWAP1 POP SWAP2 SWAP1 POP JUMP JUMPDEST PUSH0 PUSH1 0x20 DUP3 ADD SWAP1 POP DUP2 DUP2 SUB PUSH0 DUP4 ADD MSTORE PUSH2 0x62E DUP2 PUSH2 0x5F5 JUMP JUMPDEST SWAP1 POP SWAP2 SWAP1 POP JUMP JUMPDEST PUSH32 0x4E487B7100000000000000000000000000000000000000000000000000000000 PUSH0 MSTORE PUSH1 0x11 PUSH1 0x4 MSTORE PUSH1 0x24 PUSH0 REVERT JUMPDEST PUSH0 PUSH2 0x66C DUP3 PUSH2 0x4E7 JUMP JUMPDEST SWAP2 POP PUSH2 0x677 DUP4 PUSH2 0x4E7 JUMP JUMPDEST SWAP3 POP DUP3 DUP3 ADD SWAP1 POP DUP1 DUP3 GT ISZERO PUSH2 0x68F JUMPI PUSH2 0x68E PUSH2 0x635 JUMP JUMPDEST JUMPDEST SWAP3 SWAP2 POP POP JUMP INVALID LOG2 PUSH5 0x6970667358 0x22 SLT KECCAK256 0xEE CREATE2 0xDD 0xAD 0xAB 0xC5 GAS 0xC8 DUP11 0xDC 0xE4 0xB5 0xE7 0xEF PUSH14 0xC25B28476484F5C75647D7DEF084 DUP8 0xC6 0xEA PUSH5 0x736F6C6343 STOP ADDMOD BYTE STOP CALLER "
				},
				"gasEstimates": {
					"creation": {
						"codeDepositCost": "347800",
						"executionCost": "infinite",
						"totalCost": "infinite"
					},
					"external": {
						"donate()": "infinite",
						"image()": "infinite",
						"owner()": "2508",
						"receivedAmount()": "2447",
						"requiredAmount()": "2448",
						"story()": "infinite",
						"title()": "infinite"
					}
				},
				"methodIdentifiers": {
					"donate()": "ed88c68e",
					"image()": "f3ccaac0",
					"owner()": "8da5cb5b",
					"receivedAmount()": "9632e720",
					"requiredAmount()": "48b9ef40",
					"story()": "46c922d1",
					"title()": "4a79d50c"
				}
			},
			"storageLayout": {
				"storage": [
					{
						"astId": 75,
						"contract": "Day-04/code1.sol:Campaign",
						"label": "title",
						"offset": 0,
						"slot": "0",
						"type": "t_string_storage"
					},
					{
						"astId": 77,
						"contract": "Day-04/code1.sol:Campaign",
						"label": "requiredAmount",
						"offset": 0,
						"slot": "1",
						"type": "t_uint256"
					},
					{
						"astId": 79,
						"contract": "Day-04/code1.sol:Campaign",
						"label": "image",
						"offset": 0,
						"slot": "2",
						"type": "t_string_storage"
					},
					{
						"astId": 81,
						"contract": "Day-04/code1.sol:Campaign",
						"label": "story",
						"offset": 0,
						"slot": "3",
						"type": "t_string_storage"
					},
					{
						"astId": 83,
						"contract": "Day-04/code1.sol:Campaign",
						"label": "owner",
						"offset": 0,
						"slot": "4",
						"type": "t_address_payable"
					},
					{
						"astId": 85,
						"contract": "Day-04/code1.sol:Campaign",
						"label": "receivedAmount",
						"offset": 0,
						"slot": "5",
						"type": "t_uint256"
					}
				],
				"types": {
					"t_address_payable": {
						"encoding": "inplace",
						"label": "address payable",
						"numberOfBytes": "20"
					},
					"t_string_storage": {
						"encoding": "bytes",
						"label": "string",
						"numberOfBytes": "32"
					},
					"t_uint256": {
						"encoding": "inplace",
						"label": "uint256",
						"numberOfBytes": "32"
					}
				}
			},
			"userdoc": {
				"kind": "user",
				"methods": {},
				"version": 1
			}
		}
	}
}