{
	"Day-04/code1.sol": {
		"Transfer": {
			"abi": [
				{
					"anonymous": false,
					"inputs": [
						{
							"indexed": false,
							"internalType": "string",
							"name": "name",
							"type": "string"
						}
					],
					"name": "ChangeNameEvent",
					"type": "event"
				},
				{
					"anonymous": false,
					"inputs": [
						{
							"indexed": false,
							"internalType": "address",
							"name": "from",
							"type": "address"
						},
						{
							"indexed": false,
							"internalType": "address",
							"name": "to",
							"type": "address"
						},
						{
							"indexed": false,
							"internalType": "uint256",
							"name": "amount",
							"type": "uint256"
						}
					],
					"name": "TransferEvent",
					"type": "event"
				},
				{
					"inputs": [
						{
							"internalType": "string",
							"name": "_name",
							"type": "string"
						}
					],
					"name": "changeId",
					"outputs": [],
					"stateMutability": "nonpayable",
					"type": "function"
				},
				{
					"inputs": [
						{
							"internalType": "string",
							"name": "_name",
							"type": "string"
						}
					],
					"name": "changeName",
					"outputs": [],
					"stateMutability": "nonpayable",
					"type": "function"
				},
				{
					"inputs": [],
					"name": "id",
					"outputs": [
						{
							"internalType": "uint256",
							"name": "",
							"type": "uint256"
						}
					],
					"stateMutability": "view",
					"type": "function"
				},
				{
					"inputs": [],
					"name": "name",
					"outputs": [
						{
							"internalType": "string",
							"name": "",
							"type": "string"
						}
					],
					"stateMutability": "view",
					"type": "function"
				},
				{
					"inputs": [
						{
							"internalType": "address payable",
							"name": "to",
							"type": "address"
						}
					],
					"name": "transfer",
					"outputs": [],
					"stateMutability": "payable",
					"type": "function"
				}
			],
			"devdoc": {
				"kind": "dev",
				"methods": {},
				"version": 1
			},
			"evm": {
				"assembly": "    /* \"Day-04/code1.sol\":68:629  contract Transfer{... */\n  mstore(0x40, 0x80)\n    /* \"Day-04/code1.sol\":200:226  string public name = \"CTE\" */\n  mload(0x40)\n  dup1\n  0x40\n  add\n  0x40\n  mstore\n  dup1\n  0x03\n  dup2\n  mstore\n  0x20\n  add\n  0x4354450000000000000000000000000000000000000000000000000000000000\n  dup2\n  mstore\n  pop\n  0x00\n  swap1\n  dup2\n  tag_1\n  swap2\n  swap1\n  tag_2\n  jump\t// in\ntag_1:\n  pop\n    /* \"Day-04/code1.sol\":250:251  1 */\n  0x01\n    /* \"Day-04/code1.sol\":233:251  uint public id = 1 */\n  dup1\n  sstore\n    /* \"Day-04/code1.sol\":68:629  contract Transfer{... */\n  callvalue\n  dup1\n  iszero\n  tag_3\n  jumpi\n  0x00\n  dup1\n  revert\ntag_3:\n  pop\n  jump(tag_4)\n    /* \"#utility.yul\":7:106   */\ntag_5:\n    /* \"#utility.yul\":59:65   */\n  0x00\n    /* \"#utility.yul\":93:98   */\n  dup2\n    /* \"#utility.yul\":87:99   */\n  mload\n    /* \"#utility.yul\":77:99   */\n  swap1\n  pop\n    /* \"#utility.yul\":7:106   */\n  swap2\n  swap1\n  pop\n  jump\t// out\n    /* \"#utility.yul\":112:292   */\ntag_6:\n    /* \"#utility.yul\":160:237   */\n  0x4e487b7100000000000000000000000000000000000000000000000000000000\n    /* \"#utility.yul\":157:158   */\n  0x00\n    /* \"#utility.yul\":150:238   */\n  mstore\n    /* \"#utility.yul\":257:261   */\n  0x41\n    /* \"#utility.yul\":254:255   */\n  0x04\n    /* \"#utility.yul\":247:262   */\n  mstore\n    /* \"#utility.yul\":281:285   */\n  0x24\n    /* \"#utility.yul\":278:279   */\n  0x00\n    /* \"#utility.yul\":271:286   */\n  revert\n    /* \"#utility.yul\":298:478   */\ntag_7:\n    /* \"#utility.yul\":346:423   */\n  0x4e487b7100000000000000000000000000000000000000000000000000000000\n    /* \"#utility.yul\":343:344   */\n  0x00\n    /* \"#utility.yul\":336:424   */\n  mstore\n    /* \"#utility.yul\":443:447   */\n  0x22\n    /* \"#utility.yul\":440:441   */\n  0x04\n    /* \"#utility.yul\":433:448   */\n  mstore\n    /* \"#utility.yul\":467:471   */\n  0x24\n    /* \"#utility.yul\":464:465   */\n  0x00\n    /* \"#utility.yul\":457:472   */\n  revert\n    /* \"#utility.yul\":484:804   */\ntag_8:\n    /* \"#utility.yul\":528:534   */\n  0x00\n    /* \"#utility.yul\":565:566   */\n  0x02\n    /* \"#utility.yul\":559:563   */\n  dup3\n    /* \"#utility.yul\":555:567   */\n  div\n    /* \"#utility.yul\":545:567   */\n  swap1\n  pop\n    /* \"#utility.yul\":612:613   */\n  0x01\n    /* \"#utility.yul\":606:610   */\n  dup3\n    /* \"#utility.yul\":602:614   */\n  and\n    /* \"#utility.yul\":633:651   */\n  dup1\n    /* \"#utility.yul\":623:704   */\n  tag_30\n  jumpi\n    /* \"#utility.yul\":689:693   */\n  0x7f\n    /* \"#utility.yul\":681:687   */\n  dup3\n    /* \"#utility.yul\":677:694   */\n  and\n    /* \"#utility.yul\":667:694   */\n  swap2\n  pop\n    /* \"#utility.yul\":623:704   */\ntag_30:\n    /* \"#utility.yul\":751:753   */\n  0x20\n    /* \"#utility.yul\":743:749   */\n  dup3\n    /* \"#utility.yul\":740:754   */\n  lt\n    /* \"#utility.yul\":720:738   */\n  dup2\n    /* \"#utility.yul\":717:755   */\n  sub\n    /* \"#utility.yul\":714:798   */\n  tag_31\n  jumpi\n    /* \"#utility.yul\":770:788   */\n  tag_32\n  tag_7\n  jump\t// in\ntag_32:\n    /* \"#utility.yul\":714:798   */\ntag_31:\n    /* \"#utility.yul\":535:804   */\n  pop\n    /* \"#utility.yul\":484:804   */\n  swap2\n  swap1\n  pop\n  jump\t// out\n    /* \"#utility.yul\":810:951   */\ntag_9:\n    /* \"#utility.yul\":859:863   */\n  0x00\n    /* \"#utility.yul\":882:885   */\n  dup2\n    /* \"#utility.yul\":874:885   */\n  swap1\n  pop\n    /* \"#utility.yul\":905:908   */\n  dup2\n    /* \"#utility.yul\":902:903   */\n  0x00\n    /* \"#utility.yul\":895:909   */\n  mstore\n    /* \"#utility.yul\":939:943   */\n  0x20\n    /* \"#utility.yul\":936:937   */\n  0x00\n    /* \"#utility.yul\":926:944   */\n  keccak256\n    /* \"#utility.yul\":918:944   */\n  swap1\n  pop\n    /* \"#utility.yul\":810:951   */\n  swap2\n  swap1\n  pop\n  jump\t// out\n    /* \"#utility.yul\":957:1050   */\ntag_10:\n    /* \"#utility.yul\":994:1000   */\n  0x00\n    /* \"#utility.yul\":1041:1043   */\n  0x20\n    /* \"#utility.yul\":1036:1038   */\n  0x1f\n    /* \"#utility.yul\":1029:1034   */\n  dup4\n    /* \"#utility.yul\":1025:1039   */\n  add\n    /* \"#utility.yul\":1021:1044   */\n  div\n    /* \"#utility.yul\":1011:1044   */\n  swap1\n  pop\n    /* \"#utility.yul\":957:1050   */\n  swap2\n  swap1\n  pop\n  jump\t// out\n    /* \"#utility.yul\":1056:1163   */\ntag_11:\n    /* \"#utility.yul\":1100:1108   */\n  0x00\n    /* \"#utility.yul\":1150:1155   */\n  dup3\n    /* \"#utility.yul\":1144:1148   */\n  dup3\n    /* \"#utility.yul\":1140:1156   */\n  shl\n    /* \"#utility.yul\":1119:1156   */\n  swap1\n  pop\n    /* \"#utility.yul\":1056:1163   */\n  swap3\n  swap2\n  pop\n  pop\n  jump\t// out\n    /* \"#utility.yul\":1169:1562   */\ntag_12:\n    /* \"#utility.yul\":1238:1244   */\n  0x00\n    /* \"#utility.yul\":1288:1289   */\n  0x08\n    /* \"#utility.yul\":1276:1286   */\n  dup4\n    /* \"#utility.yul\":1272:1290   */\n  mul\n    /* \"#utility.yul\":1311:1408   */\n  tag_37\n    /* \"#utility.yul\":1341:1407   */\n  0xffffffffffffffffffffffffffffffffffffffffffffffffffffffffffffffff\n    /* \"#utility.yul\":1330:1339   */\n  dup3\n    /* \"#utility.yul\":1311:1408   */\n  tag_11\n  jump\t// in\ntag_37:\n    /* \"#utility.yul\":1429:1468   */\n  tag_38\n    /* \"#utility.yul\":1459:1467   */\n  dup7\n    /* \"#utility.yul\":1448:1457   */\n  dup4\n    /* \"#utility.yul\":1429:1468   */\n  tag_11\n  jump\t// in\ntag_38:\n    /* \"#utility.yul\":1417:1468   */\n  swap6\n  pop\n    /* \"#utility.yul\":1501:1505   */\n  dup1\n    /* \"#utility.yul\":1497:1506   */\n  not\n    /* \"#utility.yul\":1490:1495   */\n  dup5\n    /* \"#utility.yul\":1486:1507   */\n  and\n    /* \"#utility.yul\":1477:1507   */\n  swap4\n  pop\n    /* \"#utility.yul\":1550:1554   */\n  dup1\n    /* \"#utility.yul\":1540:1548   */\n  dup7\n    /* \"#utility.yul\":1536:1555   */\n  and\n    /* \"#utility.yul\":1529:1534   */\n  dup5\n    /* \"#utility.yul\":1526:1556   */\n  or\n    /* \"#utility.yul\":1516:1556   */\n  swap3\n  pop\n    /* \"#utility.yul\":1245:1562   */\n  pop\n  pop\n    /* \"#utility.yul\":1169:1562   */\n  swap4\n  swap3\n  pop\n  pop\n  pop\n  jump\t// out\n    /* \"#utility.yul\":1568:1645   */\ntag_13:\n    /* \"#utility.yul\":1605:1612   */\n  0x00\n    /* \"#utility.yul\":1634:1639   */\n  dup2\n    /* \"#utility.yul\":1623:1639   */\n  swap1\n  pop\n    /* \"#utility.yul\":1568:1645   */\n  swap2\n  swap1\n  pop\n  jump\t// out\n    /* \"#utility.yul\":1651:1711   */\ntag_14:\n    /* \"#utility.yul\":1679:1682   */\n  0x00\n    /* \"#utility.yul\":1700:1705   */\n  dup2\n    /* \"#utility.yul\":1693:1705   */\n  swap1\n  pop\n    /* \"#utility.yul\":1651:1711   */\n  swap2\n  swap1\n  pop\n  jump\t// out\n    /* \"#utility.yul\":1717:1859   */\ntag_15:\n    /* \"#utility.yul\":1767:1776   */\n  0x00\n    /* \"#utility.yul\":1800:1853   */\n  tag_42\n    /* \"#utility.yul\":1818:1852   */\n  tag_43\n    /* \"#utility.yul\":1827:1851   */\n  tag_44\n    /* \"#utility.yul\":1845:1850   */\n  dup5\n    /* \"#utility.yul\":1827:1851   */\n  tag_13\n  jump\t// in\ntag_44:\n    /* \"#utility.yul\":1818:1852   */\n  tag_14\n  jump\t// in\ntag_43:\n    /* \"#utility.yul\":1800:1853   */\n  tag_13\n  jump\t// in\ntag_42:\n    /* \"#utility.yul\":1787:1853   */\n  swap1\n  pop\n    /* \"#utility.yul\":1717:1859   */\n  swap2\n  swap1\n  pop\n  jump\t// out\n    /* \"#utility.yul\":1865:1940   */\ntag_16:\n    /* \"#utility.yul\":1908:1911   */\n  0x00\n    /* \"#utility.yul\":1929:1934   */\n  dup2\n    /* \"#utility.yul\":1922:1934   */\n  swap1\n  pop\n    /* \"#utility.yul\":1865:1940   */\n  swap2\n  swap1\n  pop\n  jump\t// out\n    /* \"#utility.yul\":1946:2215   */\ntag_17:\n    /* \"#utility.yul\":2056:2095   */\n  tag_47\n    /* \"#utility.yul\":2087:2094   */\n  dup4\n    /* \"#utility.yul\":2056:2095   */\n  tag_15\n  jump\t// in\ntag_47:\n    /* \"#utility.yul\":2117:2208   */\n  tag_48\n    /* \"#utility.yul\":2166:2207   */\n  tag_49\n    /* \"#utility.yul\":2190:2206   */\n  dup3\n    /* \"#utility.yul\":2166:2207   */\n  tag_16\n  jump\t// in\ntag_49:\n    /* \"#utility.yul\":2158:2164   */\n  dup5\n    /* \"#utility.yul\":2151:2155   */\n  dup5\n    /* \"#utility.yul\":2145:2156   */\n  sload\n    /* \"#utility.yul\":2117:2208   */\n  tag_12\n  jump\t// in\ntag_48:\n    /* \"#utility.yul\":2111:2115   */\n  dup3\n    /* \"#utility.yul\":2104:2209   */\n  sstore\n    /* \"#utility.yul\":2022:2215   */\n  pop\n    /* \"#utility.yul\":1946:2215   */\n  pop\n  pop\n  pop\n  jump\t// out\n    /* \"#utility.yul\":2221:2294   */\ntag_18:\n    /* \"#utility.yul\":2266:2269   */\n  0x00\n    /* \"#utility.yul\":2221:2294   */\n  swap1\n  jump\t// out\n    /* \"#utility.yul\":2300:2489   */\ntag_19:\n    /* \"#utility.yul\":2377:2409   */\n  tag_52\n  tag_18\n  jump\t// in\ntag_52:\n    /* \"#utility.yul\":2418:2483   */\n  tag_53\n    /* \"#utility.yul\":2476:2482   */\n  dup2\n    /* \"#utility.yul\":2468:2474   */\n  dup5\n    /* \"#utility.yul\":2462:2466   */\n  dup5\n    /* \"#utility.yul\":2418:2483   */\n  tag_17\n  jump\t// in\ntag_53:\n    /* \"#utility.yul\":2353:2489   */\n  pop\n    /* \"#utility.yul\":2300:2489   */\n  pop\n  pop\n  jump\t// out\n    /* \"#utility.yul\":2495:2681   */\ntag_20:\n    /* \"#utility.yul\":2555:2675   */\ntag_55:\n    /* \"#utility.yul\":2572:2575   */\n  dup2\n    /* \"#utility.yul\":2565:2570   */\n  dup2\n    /* \"#utility.yul\":2562:2576   */\n  lt\n    /* \"#utility.yul\":2555:2675   */\n  iszero\n  tag_57\n  jumpi\n    /* \"#utility.yul\":2626:2665   */\n  tag_58\n    /* \"#utility.yul\":2663:2664   */\n  0x00\n    /* \"#utility.yul\":2656:2661   */\n  dup3\n    /* \"#utility.yul\":2626:2665   */\n  tag_19\n  jump\t// in\ntag_58:\n    /* \"#utility.yul\":2599:2600   */\n  0x01\n    /* \"#utility.yul\":2592:2597   */\n  dup2\n    /* \"#utility.yul\":2588:2601   */\n  add\n    /* \"#utility.yul\":2579:2601   */\n  swap1\n  pop\n    /* \"#utility.yul\":2555:2675   */\n  jump(tag_55)\ntag_57:\n    /* \"#utility.yul\":2495:2681   */\n  pop\n  pop\n  jump\t// out\n    /* \"#utility.yul\":2687:3230   */\ntag_21:\n    /* \"#utility.yul\":2788:2790   */\n  0x1f\n    /* \"#utility.yul\":2783:2786   */\n  dup3\n    /* \"#utility.yul\":2780:2791   */\n  gt\n    /* \"#utility.yul\":2777:3223   */\n  iszero\n  tag_60\n  jumpi\n    /* \"#utility.yul\":2822:2860   */\n  tag_61\n    /* \"#utility.yul\":2854:2859   */\n  dup2\n    /* \"#utility.yul\":2822:2860   */\n  tag_9\n  jump\t// in\ntag_61:\n    /* \"#utility.yul\":2906:2935   */\n  tag_62\n    /* \"#utility.yul\":2924:2934   */\n  dup5\n    /* \"#utility.yul\":2906:2935   */\n  tag_10\n  jump\t// in\ntag_62:\n    /* \"#utility.yul\":2896:2904   */\n  dup2\n    /* \"#utility.yul\":2892:2936   */\n  add\n    /* \"#utility.yul\":3089:3091   */\n  0x20\n    /* \"#utility.yul\":3077:3087   */\n  dup6\n    /* \"#utility.yul\":3074:3092   */\n  lt\n    /* \"#utility.yul\":3071:3120   */\n  iszero\n  tag_63\n  jumpi\n    /* \"#utility.yul\":3110:3118   */\n  dup2\n    /* \"#utility.yul\":3095:3118   */\n  swap1\n  pop\n    /* \"#utility.yul\":3071:3120   */\ntag_63:\n    /* \"#utility.yul\":3133:3213   */\n  tag_64\n    /* \"#utility.yul\":3189:3211   */\n  tag_65\n    /* \"#utility.yul\":3207:3210   */\n  dup6\n    /* \"#utility.yul\":3189:3211   */\n  tag_10\n  jump\t// in\ntag_65:\n    /* \"#utility.yul\":3179:3187   */\n  dup4\n    /* \"#utility.yul\":3175:3212   */\n  add\n    /* \"#utility.yul\":3162:3173   */\n  dup3\n    /* \"#utility.yul\":3133:3213   */\n  tag_20\n  jump\t// in\ntag_64:\n    /* \"#utility.yul\":2792:3223   */\n  pop\n  pop\n    /* \"#utility.yul\":2777:3223   */\ntag_60:\n    /* \"#utility.yul\":2687:3230   */\n  pop\n  pop\n  pop\n  jump\t// out\n    /* \"#utility.yul\":3236:3353   */\ntag_22:\n    /* \"#utility.yul\":3290:3298   */\n  0x00\n    /* \"#utility.yul\":3340:3345   */\n  dup3\n    /* \"#utility.yul\":3334:3338   */\n  dup3\n    /* \"#utility.yul\":3330:3346   */\n  shr\n    /* \"#utility.yul\":3309:3346   */\n  swap1\n  pop\n    /* \"#utility.yul\":3236:3353   */\n  swap3\n  swap2\n  pop\n  pop\n  jump\t// out\n    /* \"#utility.yul\":3359:3528   */\ntag_23:\n    /* \"#utility.yul\":3403:3409   */\n  0x00\n    /* \"#utility.yul\":3436:3487   */\n  tag_68\n    /* \"#utility.yul\":3484:3485   */\n  0x00\n    /* \"#utility.yul\":3480:3486   */\n  not\n    /* \"#utility.yul\":3472:3477   */\n  dup5\n    /* \"#utility.yul\":3469:3470   */\n  0x08\n    /* \"#utility.yul\":3465:3478   */\n  mul\n    /* \"#utility.yul\":3436:3487   */\n  tag_22\n  jump\t// in\ntag_68:\n    /* \"#utility.yul\":3432:3488   */\n  not\n    /* \"#utility.yul\":3517:3521   */\n  dup1\n    /* \"#utility.yul\":3511:3515   */\n  dup4\n    /* \"#utility.yul\":3507:3522   */\n  and\n    /* \"#utility.yul\":3497:3522   */\n  swap2\n  pop\n    /* \"#utility.yul\":3410:3528   */\n  pop\n    /* \"#utility.yul\":3359:3528   */\n  swap3\n  swap2\n  pop\n  pop\n  jump\t// out\n    /* \"#utility.yul\":3533:3828   */\ntag_24:\n    /* \"#utility.yul\":3609:3613   */\n  0x00\n    /* \"#utility.yul\":3755:3784   */\n  tag_70\n    /* \"#utility.yul\":3780:3783   */\n  dup4\n    /* \"#utility.yul\":3774:3778   */\n  dup4\n    /* \"#utility.yul\":3755:3784   */\n  tag_23\n  jump\t// in\ntag_70:\n    /* \"#utility.yul\":3747:3784   */\n  swap2\n  pop\n    /* \"#utility.yul\":3817:3820   */\n  dup3\n    /* \"#utility.yul\":3814:3815   */\n  0x02\n    /* \"#utility.yul\":3810:3821   */\n  mul\n    /* \"#utility.yul\":3804:3808   */\n  dup3\n    /* \"#utility.yul\":3801:3822   */\n  or\n    /* \"#utility.yul\":3793:3822   */\n  swap1\n  pop\n    /* \"#utility.yul\":3533:3828   */\n  swap3\n  swap2\n  pop\n  pop\n  jump\t// out\n    /* \"#utility.yul\":3833:5228   */\ntag_2:\n    /* \"#utility.yul\":3950:3987   */\n  tag_72\n    /* \"#utility.yul\":3983:3986   */\n  dup3\n    /* \"#utility.yul\":3950:3987   */\n  tag_5\n  jump\t// in\ntag_72:\n    /* \"#utility.yul\":4052:4070   */\n  0xffffffffffffffff\n    /* \"#utility.yul\":4044:4050   */\n  dup2\n    /* \"#utility.yul\":4041:4071   */\n  gt\n    /* \"#utility.yul\":4038:4094   */\n  iszero\n  tag_73\n  jumpi\n    /* \"#utility.yul\":4074:4092   */\n  tag_74\n  tag_6\n  jump\t// in\ntag_74:\n    /* \"#utility.yul\":4038:4094   */\ntag_73:\n    /* \"#utility.yul\":4118:4156   */\n  tag_75\n    /* \"#utility.yul\":4150:4154   */\n  dup3\n    /* \"#utility.yul\":4144:4155   */\n  sload\n    /* \"#utility.yul\":4118:4156   */\n  tag_8\n  jump\t// in\ntag_75:\n    /* \"#utility.yul\":4203:4270   */\n  tag_76\n    /* \"#utility.yul\":4263:4269   */\n  dup3\n    /* \"#utility.yul\":4255:4261   */\n  dup3\n    /* \"#utility.yul\":4249:4253   */\n  dup6\n    /* \"#utility.yul\":4203:4270   */\n  tag_21\n  jump\t// in\ntag_76:\n    /* \"#utility.yul\":4297:4298   */\n  0x00\n    /* \"#utility.yul\":4321:4325   */\n  0x20\n    /* \"#utility.yul\":4308:4325   */\n  swap1\n  pop\n    /* \"#utility.yul\":4353:4355   */\n  0x1f\n    /* \"#utility.yul\":4345:4351   */\n  dup4\n    /* \"#utility.yul\":4342:4356   */\n  gt\n    /* \"#utility.yul\":4370:4371   */\n  0x01\n    /* \"#utility.yul\":4365:4983   */\n  dup2\n  eq\n  tag_78\n  jumpi\n    /* \"#utility.yul\":5027:5028   */\n  0x00\n    /* \"#utility.yul\":5044:5050   */\n  dup5\n    /* \"#utility.yul\":5041:5118   */\n  iszero\n  tag_79\n  jumpi\n    /* \"#utility.yul\":5093:5102   */\n  dup3\n    /* \"#utility.yul\":5088:5091   */\n  dup8\n    /* \"#utility.yul\":5084:5103   */\n  add\n    /* \"#utility.yul\":5078:5104   */\n  mload\n    /* \"#utility.yul\":5069:5104   */\n  swap1\n  pop\n    /* \"#utility.yul\":5041:5118   */\ntag_79:\n    /* \"#utility.yul\":5144:5211   */\n  tag_80\n    /* \"#utility.yul\":5204:5210   */\n  dup6\n    /* \"#utility.yul\":5197:5202   */\n  dup3\n    /* \"#utility.yul\":5144:5211   */\n  tag_24\n  jump\t// in\ntag_80:\n    /* \"#utility.yul\":5138:5142   */\n  dup7\n    /* \"#utility.yul\":5131:5212   */\n  sstore\n    /* \"#utility.yul\":5000:5222   */\n  pop\n    /* \"#utility.yul\":4335:5222   */\n  jump(tag_77)\n    /* \"#utility.yul\":4365:4983   */\ntag_78:\n    /* \"#utility.yul\":4417:4421   */\n  0x1f\n    /* \"#utility.yul\":4413:4422   */\n  not\n    /* \"#utility.yul\":4405:4411   */\n  dup5\n    /* \"#utility.yul\":4401:4423   */\n  and\n    /* \"#utility.yul\":4451:4488   */\n  tag_81\n    /* \"#utility.yul\":4483:4487   */\n  dup7\n    /* \"#utility.yul\":4451:4488   */\n  tag_9\n  jump\t// in\ntag_81:\n    /* \"#utility.yul\":4510:4511   */\n  0x00\n    /* \"#utility.yul\":4524:4732   */\ntag_82:\n    /* \"#utility.yul\":4538:4545   */\n  dup3\n    /* \"#utility.yul\":4535:4536   */\n  dup2\n    /* \"#utility.yul\":4532:4546   */\n  lt\n    /* \"#utility.yul\":4524:4732   */\n  iszero\n  tag_84\n  jumpi\n    /* \"#utility.yul\":4617:4626   */\n  dup5\n    /* \"#utility.yul\":4612:4615   */\n  dup10\n    /* \"#utility.yul\":4608:4627   */\n  add\n    /* \"#utility.yul\":4602:4628   */\n  mload\n    /* \"#utility.yul\":4594:4600   */\n  dup3\n    /* \"#utility.yul\":4587:4629   */\n  sstore\n    /* \"#utility.yul\":4668:4669   */\n  0x01\n    /* \"#utility.yul\":4660:4666   */\n  dup3\n    /* \"#utility.yul\":4656:4670   */\n  add\n    /* \"#utility.yul\":4646:4670   */\n  swap2\n  pop\n    /* \"#utility.yul\":4715:4717   */\n  0x20\n    /* \"#utility.yul\":4704:4713   */\n  dup6\n    /* \"#utility.yul\":4700:4718   */\n  add\n    /* \"#utility.yul\":4687:4718   */\n  swap5\n  pop\n    /* \"#utility.yul\":4561:4565   */\n  0x20\n    /* \"#utility.yul\":4558:4559   */\n  dup2\n    /* \"#utility.yul\":4554:4566   */\n  add\n    /* \"#utility.yul\":4549:4566   */\n  swap1\n  pop\n    /* \"#utility.yul\":4524:4732   */\n  jump(tag_82)\ntag_84:\n    /* \"#utility.yul\":4760:4766   */\n  dup7\n    /* \"#utility.yul\":4751:4758   */\n  dup4\n    /* \"#utility.yul\":4748:4767   */\n  lt\n    /* \"#utility.yul\":4745:4924   */\n  iszero\n  tag_85\n  jumpi\n    /* \"#utility.yul\":4818:4827   */\n  dup5\n    /* \"#utility.yul\":4813:4816   */\n  dup10\n    /* \"#utility.yul\":4809:4828   */\n  add\n    /* \"#utility.yul\":4803:4829   */\n  mload\n    /* \"#utility.yul\":4861:4909   */\n  tag_86\n    /* \"#utility.yul\":4903:4907   */\n  0x1f\n    /* \"#utility.yul\":4895:4901   */\n  dup10\n    /* \"#utility.yul\":4891:4908   */\n  and\n    /* \"#utility.yul\":4880:4889   */\n  dup3\n    /* \"#utility.yul\":4861:4909   */\n  tag_23\n  jump\t// in\ntag_86:\n    /* \"#utility.yul\":4853:4859   */\n  dup4\n    /* \"#utility.yul\":4846:4910   */\n  sstore\n    /* \"#utility.yul\":4768:4924   */\n  pop\n    /* \"#utility.yul\":4745:4924   */\ntag_85:\n    /* \"#utility.yul\":4970:4971   */\n  0x01\n    /* \"#utility.yul\":4966:4967   */\n  0x02\n    /* \"#utility.yul\":4958:4964   */\n  dup9\n    /* \"#utility.yul\":4954:4968   */\n  mul\n    /* \"#utility.yul\":4950:4972   */\n  add\n    /* \"#utility.yul\":4944:4948   */\n  dup9\n    /* \"#utility.yul\":4937:4973   */\n  sstore\n    /* \"#utility.yul\":4372:4983   */\n  pop\n  pop\n  pop\n    /* \"#utility.yul\":4335:5222   */\ntag_77:\n  pop\n    /* \"#utility.yul\":3925:5228   */\n  pop\n  pop\n  pop\n    /* \"#utility.yul\":3833:5228   */\n  pop\n  pop\n  jump\t// out\n    /* \"Day-04/code1.sol\":68:629  contract Transfer{... */\ntag_4:\n  dataSize(sub_0)\n  dup1\n  dataOffset(sub_0)\n  0x00\n  codecopy\n  0x00\n  return\nstop\n\nsub_0: assembly {\n        /* \"Day-04/code1.sol\":68:629  contract Transfer{... */\n      mstore(0x40, 0x80)\n      jumpi(tag_1, lt(calldatasize, 0x04))\n      shr(0xe0, calldataload(0x00))\n      dup1\n      0x06fdde03\n      eq\n      tag_2\n      jumpi\n      dup1\n      0x1a695230\n      eq\n      tag_3\n      jumpi\n      dup1\n      0x5353a2d8\n      eq\n      tag_4\n      jumpi\n      dup1\n      0xaf640d0f\n      eq\n      tag_5\n      jumpi\n      dup1\n      0xda9ab565\n      eq\n      tag_6\n      jumpi\n    tag_1:\n      0x00\n      dup1\n      revert\n        /* \"Day-04/code1.sol\":200:226  string public name = \"CTE\" */\n    tag_2:\n      callvalue\n      dup1\n      iszero\n      tag_7\n      jumpi\n      0x00\n      dup1\n      revert\n    tag_7:\n      pop\n      tag_8\n      tag_9\n      jump\t// in\n    tag_8:\n      mload(0x40)\n      tag_10\n      swap2\n      swap1\n      tag_11\n      jump\t// in\n    tag_10:\n      mload(0x40)\n      dup1\n      swap2\n      sub\n      swap1\n      return\n        /* \"Day-04/code1.sol\":262:412  function transfer(address payable to) public payable {... */\n    tag_3:\n      tag_12\n      0x04\n      dup1\n      calldatasize\n      sub\n      dup2\n      add\n      swap1\n      tag_13\n      swap2\n      swap1\n      tag_14\n      jump\t// in\n    tag_13:\n      tag_15\n      jump\t// in\n    tag_12:\n      stop\n        /* \"Day-04/code1.sol\":420:539  function changeName(string calldata _name) public {... */\n    tag_4:\n      callvalue\n      dup1\n      iszero\n      tag_16\n      jumpi\n      0x00\n      dup1\n      revert\n    tag_16:\n      pop\n      tag_17\n      0x04\n      dup1\n      calldatasize\n      sub\n      dup2\n      add\n      swap1\n      tag_18\n      swap2\n      swap1\n      tag_19\n      jump\t// in\n    tag_18:\n      tag_20\n      jump\t// in\n    tag_17:\n      stop\n        /* \"Day-04/code1.sol\":233:251  uint public id = 1 */\n    tag_5:\n      callvalue\n      dup1\n      iszero\n      tag_21\n      jumpi\n      0x00\n      dup1\n      revert\n    tag_21:\n      pop\n      tag_22\n      tag_23\n      jump\t// in\n    tag_22:\n      mload(0x40)\n      tag_24\n      swap2\n      swap1\n      tag_25\n      jump\t// in\n    tag_24:\n      mload(0x40)\n      dup1\n      swap2\n      sub\n      swap1\n      return\n        /* \"Day-04/code1.sol\":547:626  function changeId(string calldata _name) public {... */\n    tag_6:\n      callvalue\n      dup1\n      iszero\n      tag_26\n      jumpi\n      0x00\n      dup1\n      revert\n    tag_26:\n      pop\n      tag_27\n      0x04\n      dup1\n      calldatasize\n      sub\n      dup2\n      add\n      swap1\n      tag_28\n      swap2\n      swap1\n      tag_19\n      jump\t// in\n    tag_28:\n      tag_29\n      jump\t// in\n    tag_27:\n      stop\n        /* \"Day-04/code1.sol\":200:226  string public name = \"CTE\" */\n    tag_9:\n      0x00\n      dup1\n      sload\n      tag_30\n      swap1\n      tag_31\n      jump\t// in\n    tag_30:\n      dup1\n      0x1f\n      add\n      0x20\n      dup1\n      swap2\n      div\n      mul\n      0x20\n      add\n      mload(0x40)\n      swap1\n      dup2\n      add\n      0x40\n      mstore\n      dup1\n      swap3\n      swap2\n      swap1\n      dup2\n      dup2\n      mstore\n      0x20\n      add\n      dup3\n      dup1\n      sload\n      tag_32\n      swap1\n      tag_31\n      jump\t// in\n    tag_32:\n      dup1\n      iszero\n      tag_33\n      jumpi\n      dup1\n      0x1f\n      lt\n      tag_34\n      jumpi\n      0x0100\n      dup1\n      dup4\n      sload\n      div\n      mul\n      dup4\n      mstore\n      swap2\n      0x20\n      add\n      swap2\n      jump(tag_33)\n    tag_34:\n      dup3\n      add\n      swap2\n      swap1\n      0x00\n      mstore\n      keccak256(0x00, 0x20)\n      swap1\n    tag_35:\n      dup2\n      sload\n      dup2\n      mstore\n      swap1\n      0x01\n      add\n      swap1\n      0x20\n      add\n      dup1\n      dup4\n      gt\n      tag_35\n      jumpi\n      dup3\n      swap1\n      sub\n      0x1f\n      and\n      dup3\n      add\n      swap2\n    tag_33:\n      pop\n      pop\n      pop\n      pop\n      pop\n      dup2\n      jump\t// out\n        /* \"Day-04/code1.sol\":262:412  function transfer(address payable to) public payable {... */\n    tag_15:\n        /* \"Day-04/code1.sol\":326:328  to */\n      dup1\n        /* \"Day-04/code1.sol\":326:337  to.transfer */\n      0xffffffffffffffffffffffffffffffffffffffff\n      and\n        /* \"Day-04/code1.sol\":326:348  to.transfer(msg.value) */\n      0x08fc\n        /* \"Day-04/code1.sol\":338:347  msg.value */\n      callvalue\n        /* \"Day-04/code1.sol\":326:348  to.transfer(msg.value) */\n      swap1\n      dup2\n      iszero\n      mul\n      swap1\n      mload(0x40)\n      0x00\n      mload(0x40)\n      dup1\n      dup4\n      sub\n      dup2\n      dup6\n      dup9\n      dup9\n      call\n      swap4\n      pop\n      pop\n      pop\n      pop\n      iszero\n      dup1\n      iszero\n      tag_38\n      jumpi\n      returndatasize\n      0x00\n      dup1\n      returndatacopy\n      revert(0x00, returndatasize)\n    tag_38:\n      pop\n        /* \"Day-04/code1.sol\":364:404  TransferEvent(msg.sender, to, msg.value) */\n      0xeaf1c4b3ce0f4f62a2bae7eb3e68225c75f7e6ff4422073b7437b9a78d25f170\n        /* \"Day-04/code1.sol\":378:388  msg.sender */\n      caller\n        /* \"Day-04/code1.sol\":390:392  to */\n      dup3\n        /* \"Day-04/code1.sol\":394:403  msg.value */\n      callvalue\n        /* \"Day-04/code1.sol\":364:404  TransferEvent(msg.sender, to, msg.value) */\n      mload(0x40)\n      tag_39\n      swap4\n      swap3\n      swap2\n      swap1\n      tag_40\n      jump\t// in\n    tag_39:\n      mload(0x40)\n      dup1\n      swap2\n      sub\n      swap1\n      log1\n        /* \"Day-04/code1.sol\":262:412  function transfer(address payable to) public payable {... */\n      pop\n      jump\t// out\n        /* \"Day-04/code1.sol\":420:539  function changeName(string calldata _name) public {... */\n    tag_20:\n        /* \"Day-04/code1.sol\":488:493  _name */\n      dup2\n      dup2\n        /* \"Day-04/code1.sol\":481:485  name */\n      0x00\n        /* \"Day-04/code1.sol\":481:493  name = _name */\n      swap2\n      dup3\n      tag_42\n      swap3\n      swap2\n      swap1\n      tag_43\n      jump\t// in\n    tag_42:\n      pop\n        /* \"Day-04/code1.sol\":509:531  ChangeNameEvent(_name) */\n      0x50cccf40d174cba784cc6c10d8511123e07dbfcbbfe39e7e0ace01675a688bc2\n        /* \"Day-04/code1.sol\":525:530  _name */\n      dup3\n      dup3\n        /* \"Day-04/code1.sol\":509:531  ChangeNameEvent(_name) */\n      mload(0x40)\n      tag_44\n      swap3\n      swap2\n      swap1\n      tag_45\n      jump\t// in\n    tag_44:\n      mload(0x40)\n      dup1\n      swap2\n      sub\n      swap1\n      log1\n        /* \"Day-04/code1.sol\":420:539  function changeName(string calldata _name) public {... */\n      pop\n      pop\n      jump\t// out\n        /* \"Day-04/code1.sol\":233:251  uint public id = 1 */\n    tag_23:\n      sload(0x01)\n      dup2\n      jump\t// out\n        /* \"Day-04/code1.sol\":547:626  function changeId(string calldata _name) public {... */\n    tag_29:\n        /* \"Day-04/code1.sol\":613:618  _name */\n      dup2\n      dup2\n        /* \"Day-04/code1.sol\":606:610  name */\n      0x00\n        /* \"Day-04/code1.sol\":606:618  name = _name */\n      swap2\n      dup3\n      tag_47\n      swap3\n      swap2\n      swap1\n      tag_43\n      jump\t// in\n    tag_47:\n      pop\n        /* \"Day-04/code1.sol\":547:626  function changeId(string calldata _name) public {... */\n      pop\n      pop\n      jump\t// out\n        /* \"#utility.yul\":7:106   */\n    tag_48:\n        /* \"#utility.yul\":59:65   */\n      0x00\n        /* \"#utility.yul\":93:98   */\n      dup2\n        /* \"#utility.yul\":87:99   */\n      mload\n        /* \"#utility.yul\":77:99   */\n      swap1\n      pop\n        /* \"#utility.yul\":7:106   */\n      swap2\n      swap1\n      pop\n      jump\t// out\n        /* \"#utility.yul\":112:281   */\n    tag_49:\n        /* \"#utility.yul\":196:207   */\n      0x00\n        /* \"#utility.yul\":230:236   */\n      dup3\n        /* \"#utility.yul\":225:228   */\n      dup3\n        /* \"#utility.yul\":218:237   */\n      mstore\n        /* \"#utility.yul\":270:274   */\n      0x20\n        /* \"#utility.yul\":265:268   */\n      dup3\n        /* \"#utility.yul\":261:275   */\n      add\n        /* \"#utility.yul\":246:275   */\n      swap1\n      pop\n        /* \"#utility.yul\":112:281   */\n      swap3\n      swap2\n      pop\n      pop\n      jump\t// out\n        /* \"#utility.yul\":287:426   */\n    tag_50:\n        /* \"#utility.yul\":376:382   */\n      dup3\n        /* \"#utility.yul\":371:374   */\n      dup2\n        /* \"#utility.yul\":366:369   */\n      dup4\n        /* \"#utility.yul\":360:383   */\n      mcopy\n        /* \"#utility.yul\":417:418   */\n      0x00\n        /* \"#utility.yul\":408:414   */\n      dup4\n        /* \"#utility.yul\":403:406   */\n      dup4\n        /* \"#utility.yul\":399:415   */\n      add\n        /* \"#utility.yul\":392:419   */\n      mstore\n        /* \"#utility.yul\":287:426   */\n      pop\n      pop\n      pop\n      jump\t// out\n        /* \"#utility.yul\":432:534   */\n    tag_51:\n        /* \"#utility.yul\":473:479   */\n      0x00\n        /* \"#utility.yul\":524:526   */\n      0x1f\n        /* \"#utility.yul\":520:527   */\n      not\n        /* \"#utility.yul\":515:517   */\n      0x1f\n        /* \"#utility.yul\":508:513   */\n      dup4\n        /* \"#utility.yul\":504:518   */\n      add\n        /* \"#utility.yul\":500:528   */\n      and\n        /* \"#utility.yul\":490:528   */\n      swap1\n      pop\n        /* \"#utility.yul\":432:534   */\n      swap2\n      swap1\n      pop\n      jump\t// out\n        /* \"#utility.yul\":540:917   */\n    tag_52:\n        /* \"#utility.yul\":628:631   */\n      0x00\n        /* \"#utility.yul\":656:695   */\n      tag_98\n        /* \"#utility.yul\":689:694   */\n      dup3\n        /* \"#utility.yul\":656:695   */\n      tag_48\n      jump\t// in\n    tag_98:\n        /* \"#utility.yul\":711:782   */\n      tag_99\n        /* \"#utility.yul\":775:781   */\n      dup2\n        /* \"#utility.yul\":770:773   */\n      dup6\n        /* \"#utility.yul\":711:782   */\n      tag_49\n      jump\t// in\n    tag_99:\n        /* \"#utility.yul\":704:782   */\n      swap4\n      pop\n        /* \"#utility.yul\":791:856   */\n      tag_100\n        /* \"#utility.yul\":849:855   */\n      dup2\n        /* \"#utility.yul\":844:847   */\n      dup6\n        /* \"#utility.yul\":837:841   */\n      0x20\n        /* \"#utility.yul\":830:835   */\n      dup7\n        /* \"#utility.yul\":826:842   */\n      add\n        /* \"#utility.yul\":791:856   */\n      tag_50\n      jump\t// in\n    tag_100:\n        /* \"#utility.yul\":881:910   */\n      tag_101\n        /* \"#utility.yul\":903:909   */\n      dup2\n        /* \"#utility.yul\":881:910   */\n      tag_51\n      jump\t// in\n    tag_101:\n        /* \"#utility.yul\":876:879   */\n      dup5\n        /* \"#utility.yul\":872:911   */\n      add\n        /* \"#utility.yul\":865:911   */\n      swap2\n      pop\n        /* \"#utility.yul\":632:917   */\n      pop\n        /* \"#utility.yul\":540:917   */\n      swap3\n      swap2\n      pop\n      pop\n      jump\t// out\n        /* \"#utility.yul\":923:1236   */\n    tag_11:\n        /* \"#utility.yul\":1036:1040   */\n      0x00\n        /* \"#utility.yul\":1074:1076   */\n      0x20\n        /* \"#utility.yul\":1063:1072   */\n      dup3\n        /* \"#utility.yul\":1059:1077   */\n      add\n        /* \"#utility.yul\":1051:1077   */\n      swap1\n      pop\n        /* \"#utility.yul\":1123:1132   */\n      dup2\n        /* \"#utility.yul\":1117:1121   */\n      dup2\n        /* \"#utility.yul\":1113:1133   */\n      sub\n        /* \"#utility.yul\":1109:1110   */\n      0x00\n        /* \"#utility.yul\":1098:1107   */\n      dup4\n        /* \"#utility.yul\":1094:1111   */\n      add\n        /* \"#utility.yul\":1087:1134   */\n      mstore\n        /* \"#utility.yul\":1151:1229   */\n      tag_103\n        /* \"#utility.yul\":1224:1228   */\n      dup2\n        /* \"#utility.yul\":1215:1221   */\n      dup5\n        /* \"#utility.yul\":1151:1229   */\n      tag_52\n      jump\t// in\n    tag_103:\n        /* \"#utility.yul\":1143:1229   */\n      swap1\n      pop\n        /* \"#utility.yul\":923:1236   */\n      swap3\n      swap2\n      pop\n      pop\n      jump\t// out\n        /* \"#utility.yul\":1323:1440   */\n    tag_54:\n        /* \"#utility.yul\":1432:1433   */\n      0x00\n        /* \"#utility.yul\":1429:1430   */\n      dup1\n        /* \"#utility.yul\":1422:1434   */\n      revert\n        /* \"#utility.yul\":1446:1563   */\n    tag_55:\n        /* \"#utility.yul\":1555:1556   */\n      0x00\n        /* \"#utility.yul\":1552:1553   */\n      dup1\n        /* \"#utility.yul\":1545:1557   */\n      revert\n        /* \"#utility.yul\":1569:1695   */\n    tag_56:\n        /* \"#utility.yul\":1606:1613   */\n      0x00\n        /* \"#utility.yul\":1646:1688   */\n      0xffffffffffffffffffffffffffffffffffffffff\n        /* \"#utility.yul\":1639:1644   */\n      dup3\n        /* \"#utility.yul\":1635:1689   */\n      and\n        /* \"#utility.yul\":1624:1689   */\n      swap1\n      pop\n        /* \"#utility.yul\":1569:1695   */\n      swap2\n      swap1\n      pop\n      jump\t// out\n        /* \"#utility.yul\":1701:1805   */\n    tag_57:\n        /* \"#utility.yul\":1746:1753   */\n      0x00\n        /* \"#utility.yul\":1775:1799   */\n      tag_109\n        /* \"#utility.yul\":1793:1798   */\n      dup3\n        /* \"#utility.yul\":1775:1799   */\n      tag_56\n      jump\t// in\n    tag_109:\n        /* \"#utility.yul\":1764:1799   */\n      swap1\n      pop\n        /* \"#utility.yul\":1701:1805   */\n      swap2\n      swap1\n      pop\n      jump\t// out\n        /* \"#utility.yul\":1811:1949   */\n    tag_58:\n        /* \"#utility.yul\":1892:1924   */\n      tag_111\n        /* \"#utility.yul\":1918:1923   */\n      dup2\n        /* \"#utility.yul\":1892:1924   */\n      tag_57\n      jump\t// in\n    tag_111:\n        /* \"#utility.yul\":1885:1890   */\n      dup2\n        /* \"#utility.yul\":1882:1925   */\n      eq\n        /* \"#utility.yul\":1872:1943   */\n      tag_112\n      jumpi\n        /* \"#utility.yul\":1939:1940   */\n      0x00\n        /* \"#utility.yul\":1936:1937   */\n      dup1\n        /* \"#utility.yul\":1929:1941   */\n      revert\n        /* \"#utility.yul\":1872:1943   */\n    tag_112:\n        /* \"#utility.yul\":1811:1949   */\n      pop\n      jump\t// out\n        /* \"#utility.yul\":1955:2110   */\n    tag_59:\n        /* \"#utility.yul\":2009:2014   */\n      0x00\n        /* \"#utility.yul\":2047:2053   */\n      dup2\n        /* \"#utility.yul\":2034:2054   */\n      calldataload\n        /* \"#utility.yul\":2025:2054   */\n      swap1\n      pop\n        /* \"#utility.yul\":2063:2104   */\n      tag_114\n        /* \"#utility.yul\":2098:2103   */\n      dup2\n        /* \"#utility.yul\":2063:2104   */\n      tag_58\n      jump\t// in\n    tag_114:\n        /* \"#utility.yul\":1955:2110   */\n      swap3\n      swap2\n      pop\n      pop\n      jump\t// out\n        /* \"#utility.yul\":2116:2461   */\n    tag_14:\n        /* \"#utility.yul\":2183:2189   */\n      0x00\n        /* \"#utility.yul\":2232:2234   */\n      0x20\n        /* \"#utility.yul\":2220:2229   */\n      dup3\n        /* \"#utility.yul\":2211:2218   */\n      dup5\n        /* \"#utility.yul\":2207:2230   */\n      sub\n        /* \"#utility.yul\":2203:2235   */\n      slt\n        /* \"#utility.yul\":2200:2319   */\n      iszero\n      tag_116\n      jumpi\n        /* \"#utility.yul\":2238:2317   */\n      tag_117\n      tag_54\n      jump\t// in\n    tag_117:\n        /* \"#utility.yul\":2200:2319   */\n    tag_116:\n        /* \"#utility.yul\":2358:2359   */\n      0x00\n        /* \"#utility.yul\":2383:2444   */\n      tag_118\n        /* \"#utility.yul\":2436:2443   */\n      dup5\n        /* \"#utility.yul\":2427:2433   */\n      dup3\n        /* \"#utility.yul\":2416:2425   */\n      dup6\n        /* \"#utility.yul\":2412:2434   */\n      add\n        /* \"#utility.yul\":2383:2444   */\n      tag_59\n      jump\t// in\n    tag_118:\n        /* \"#utility.yul\":2373:2444   */\n      swap2\n      pop\n        /* \"#utility.yul\":2329:2454   */\n      pop\n        /* \"#utility.yul\":2116:2461   */\n      swap3\n      swap2\n      pop\n      pop\n      jump\t// out\n        /* \"#utility.yul\":2467:2584   */\n    tag_60:\n        /* \"#utility.yul\":2576:2577   */\n      0x00\n        /* \"#utility.yul\":2573:2574   */\n      dup1\n        /* \"#utility.yul\":2566:2578   */\n      revert\n        /* \"#utility.yul\":2590:2707   */\n    tag_61:\n        /* \"#utility.yul\":2699:2700   */\n      0x00\n        /* \"#utility.yul\":2696:2697   */\n      dup1\n        /* \"#utility.yul\":2689:2701   */\n      revert\n        /* \"#utility.yul\":2713:2830   */\n    tag_62:\n        /* \"#utility.yul\":2822:2823   */\n      0x00\n        /* \"#utility.yul\":2819:2820   */\n      dup1\n        /* \"#utility.yul\":2812:2824   */\n      revert\n        /* \"#utility.yul\":2850:3403   */\n    tag_63:\n        /* \"#utility.yul\":2908:2916   */\n      0x00\n        /* \"#utility.yul\":2918:2924   */\n      dup1\n        /* \"#utility.yul\":2968:2971   */\n      dup4\n        /* \"#utility.yul\":2961:2965   */\n      0x1f\n        /* \"#utility.yul\":2953:2959   */\n      dup5\n        /* \"#utility.yul\":2949:2966   */\n      add\n        /* \"#utility.yul\":2945:2972   */\n      slt\n        /* \"#utility.yul\":2935:3057   */\n      tag_123\n      jumpi\n        /* \"#utility.yul\":2976:3055   */\n      tag_124\n      tag_60\n      jump\t// in\n    tag_124:\n        /* \"#utility.yul\":2935:3057   */\n    tag_123:\n        /* \"#utility.yul\":3089:3095   */\n      dup3\n        /* \"#utility.yul\":3076:3096   */\n      calldataload\n        /* \"#utility.yul\":3066:3096   */\n      swap1\n      pop\n        /* \"#utility.yul\":3119:3137   */\n      0xffffffffffffffff\n        /* \"#utility.yul\":3111:3117   */\n      dup2\n        /* \"#utility.yul\":3108:3138   */\n      gt\n        /* \"#utility.yul\":3105:3222   */\n      iszero\n      tag_125\n      jumpi\n        /* \"#utility.yul\":3141:3220   */\n      tag_126\n      tag_61\n      jump\t// in\n    tag_126:\n        /* \"#utility.yul\":3105:3222   */\n    tag_125:\n        /* \"#utility.yul\":3255:3259   */\n      0x20\n        /* \"#utility.yul\":3247:3253   */\n      dup4\n        /* \"#utility.yul\":3243:3260   */\n      add\n        /* \"#utility.yul\":3231:3260   */\n      swap2\n      pop\n        /* \"#utility.yul\":3309:3312   */\n      dup4\n        /* \"#utility.yul\":3301:3305   */\n      0x01\n        /* \"#utility.yul\":3293:3299   */\n      dup3\n        /* \"#utility.yul\":3289:3306   */\n      mul\n        /* \"#utility.yul\":3279:3287   */\n      dup4\n        /* \"#utility.yul\":3275:3307   */\n      add\n        /* \"#utility.yul\":3272:3313   */\n      gt\n        /* \"#utility.yul\":3269:3397   */\n      iszero\n      tag_127\n      jumpi\n        /* \"#utility.yul\":3316:3395   */\n      tag_128\n      tag_62\n      jump\t// in\n    tag_128:\n        /* \"#utility.yul\":3269:3397   */\n    tag_127:\n        /* \"#utility.yul\":2850:3403   */\n      swap3\n      pop\n      swap3\n      swap1\n      pop\n      jump\t// out\n        /* \"#utility.yul\":3409:3938   */\n    tag_19:\n        /* \"#utility.yul\":3480:3486   */\n      0x00\n        /* \"#utility.yul\":3488:3494   */\n      dup1\n        /* \"#utility.yul\":3537:3539   */\n      0x20\n        /* \"#utility.yul\":3525:3534   */\n      dup4\n        /* \"#utility.yul\":3516:3523   */\n      dup6\n        /* \"#utility.yul\":3512:3535   */\n      sub\n        /* \"#utility.yul\":3508:3540   */\n      slt\n        /* \"#utility.yul\":3505:3624   */\n      iszero\n      tag_130\n      jumpi\n        /* \"#utility.yul\":3543:3622   */\n      tag_131\n      tag_54\n      jump\t// in\n    tag_131:\n        /* \"#utility.yul\":3505:3624   */\n    tag_130:\n        /* \"#utility.yul\":3691:3692   */\n      0x00\n        /* \"#utility.yul\":3680:3689   */\n      dup4\n        /* \"#utility.yul\":3676:3693   */\n      add\n        /* \"#utility.yul\":3663:3694   */\n      calldataload\n        /* \"#utility.yul\":3721:3739   */\n      0xffffffffffffffff\n        /* \"#utility.yul\":3713:3719   */\n      dup2\n        /* \"#utility.yul\":3710:3740   */\n      gt\n        /* \"#utility.yul\":3707:3824   */\n      iszero\n      tag_132\n      jumpi\n        /* \"#utility.yul\":3743:3822   */\n      tag_133\n      tag_55\n      jump\t// in\n    tag_133:\n        /* \"#utility.yul\":3707:3824   */\n    tag_132:\n        /* \"#utility.yul\":3856:3921   */\n      tag_134\n        /* \"#utility.yul\":3913:3920   */\n      dup6\n        /* \"#utility.yul\":3904:3910   */\n      dup3\n        /* \"#utility.yul\":3893:3902   */\n      dup7\n        /* \"#utility.yul\":3889:3911   */\n      add\n        /* \"#utility.yul\":3856:3921   */\n      tag_63\n      jump\t// in\n    tag_134:\n        /* \"#utility.yul\":3838:3921   */\n      swap3\n      pop\n      swap3\n      pop\n        /* \"#utility.yul\":3634:3931   */\n      pop\n        /* \"#utility.yul\":3409:3938   */\n      swap3\n      pop\n      swap3\n      swap1\n      pop\n      jump\t// out\n        /* \"#utility.yul\":3944:4021   */\n    tag_64:\n        /* \"#utility.yul\":3981:3988   */\n      0x00\n        /* \"#utility.yul\":4010:4015   */\n      dup2\n        /* \"#utility.yul\":3999:4015   */\n      swap1\n      pop\n        /* \"#utility.yul\":3944:4021   */\n      swap2\n      swap1\n      pop\n      jump\t// out\n        /* \"#utility.yul\":4027:4145   */\n    tag_65:\n        /* \"#utility.yul\":4114:4138   */\n      tag_137\n        /* \"#utility.yul\":4132:4137   */\n      dup2\n        /* \"#utility.yul\":4114:4138   */\n      tag_64\n      jump\t// in\n    tag_137:\n        /* \"#utility.yul\":4109:4112   */\n      dup3\n        /* \"#utility.yul\":4102:4139   */\n      mstore\n        /* \"#utility.yul\":4027:4145   */\n      pop\n      pop\n      jump\t// out\n        /* \"#utility.yul\":4151:4373   */\n    tag_25:\n        /* \"#utility.yul\":4244:4248   */\n      0x00\n        /* \"#utility.yul\":4282:4284   */\n      0x20\n        /* \"#utility.yul\":4271:4280   */\n      dup3\n        /* \"#utility.yul\":4267:4285   */\n      add\n        /* \"#utility.yul\":4259:4285   */\n      swap1\n      pop\n        /* \"#utility.yul\":4295:4366   */\n      tag_139\n        /* \"#utility.yul\":4363:4364   */\n      0x00\n        /* \"#utility.yul\":4352:4361   */\n      dup4\n        /* \"#utility.yul\":4348:4365   */\n      add\n        /* \"#utility.yul\":4339:4345   */\n      dup5\n        /* \"#utility.yul\":4295:4366   */\n      tag_65\n      jump\t// in\n    tag_139:\n        /* \"#utility.yul\":4151:4373   */\n      swap3\n      swap2\n      pop\n      pop\n      jump\t// out\n        /* \"#utility.yul\":4379:4559   */\n    tag_66:\n        /* \"#utility.yul\":4427:4504   */\n      0x4e487b7100000000000000000000000000000000000000000000000000000000\n        /* \"#utility.yul\":4424:4425   */\n      0x00\n        /* \"#utility.yul\":4417:4505   */\n      mstore\n        /* \"#utility.yul\":4524:4528   */\n      0x22\n        /* \"#utility.yul\":4521:4522   */\n      0x04\n        /* \"#utility.yul\":4514:4529   */\n      mstore\n        /* \"#utility.yul\":4548:4552   */\n      0x24\n        /* \"#utility.yul\":4545:4546   */\n      0x00\n        /* \"#utility.yul\":4538:4553   */\n      revert\n        /* \"#utility.yul\":4565:4885   */\n    tag_31:\n        /* \"#utility.yul\":4609:4615   */\n      0x00\n        /* \"#utility.yul\":4646:4647   */\n      0x02\n        /* \"#utility.yul\":4640:4644   */\n      dup3\n        /* \"#utility.yul\":4636:4648   */\n      div\n        /* \"#utility.yul\":4626:4648   */\n      swap1\n      pop\n        /* \"#utility.yul\":4693:4694   */\n      0x01\n        /* \"#utility.yul\":4687:4691   */\n      dup3\n        /* \"#utility.yul\":4683:4695   */\n      and\n        /* \"#utility.yul\":4714:4732   */\n      dup1\n        /* \"#utility.yul\":4704:4785   */\n      tag_142\n      jumpi\n        /* \"#utility.yul\":4770:4774   */\n      0x7f\n        /* \"#utility.yul\":4762:4768   */\n      dup3\n        /* \"#utility.yul\":4758:4775   */\n      and\n        /* \"#utility.yul\":4748:4775   */\n      swap2\n      pop\n        /* \"#utility.yul\":4704:4785   */\n    tag_142:\n        /* \"#utility.yul\":4832:4834   */\n      0x20\n        /* \"#utility.yul\":4824:4830   */\n      dup3\n        /* \"#utility.yul\":4821:4835   */\n      lt\n        /* \"#utility.yul\":4801:4819   */\n      dup2\n        /* \"#utility.yul\":4798:4836   */\n      sub\n        /* \"#utility.yul\":4795:4879   */\n      tag_143\n      jumpi\n        /* \"#utility.yul\":4851:4869   */\n      tag_144\n      tag_66\n      jump\t// in\n    tag_144:\n        /* \"#utility.yul\":4795:4879   */\n    tag_143:\n        /* \"#utility.yul\":4616:4885   */\n      pop\n        /* \"#utility.yul\":4565:4885   */\n      swap2\n      swap1\n      pop\n      jump\t// out\n        /* \"#utility.yul\":4891:4987   */\n    tag_67:\n        /* \"#utility.yul\":4928:4935   */\n      0x00\n        /* \"#utility.yul\":4957:4981   */\n      tag_146\n        /* \"#utility.yul\":4975:4980   */\n      dup3\n        /* \"#utility.yul\":4957:4981   */\n      tag_56\n      jump\t// in\n    tag_146:\n        /* \"#utility.yul\":4946:4981   */\n      swap1\n      pop\n        /* \"#utility.yul\":4891:4987   */\n      swap2\n      swap1\n      pop\n      jump\t// out\n        /* \"#utility.yul\":4993:5111   */\n    tag_68:\n        /* \"#utility.yul\":5080:5104   */\n      tag_148\n        /* \"#utility.yul\":5098:5103   */\n      dup2\n        /* \"#utility.yul\":5080:5104   */\n      tag_67\n      jump\t// in\n    tag_148:\n        /* \"#utility.yul\":5075:5078   */\n      dup3\n        /* \"#utility.yul\":5068:5105   */\n      mstore\n        /* \"#utility.yul\":4993:5111   */\n      pop\n      pop\n      jump\t// out\n        /* \"#utility.yul\":5117:5177   */\n    tag_69:\n        /* \"#utility.yul\":5145:5148   */\n      0x00\n        /* \"#utility.yul\":5166:5171   */\n      dup2\n        /* \"#utility.yul\":5159:5171   */\n      swap1\n      pop\n        /* \"#utility.yul\":5117:5177   */\n      swap2\n      swap1\n      pop\n      jump\t// out\n        /* \"#utility.yul\":5183:5325   */\n    tag_70:\n        /* \"#utility.yul\":5233:5242   */\n      0x00\n        /* \"#utility.yul\":5266:5319   */\n      tag_151\n        /* \"#utility.yul\":5284:5318   */\n      tag_152\n        /* \"#utility.yul\":5293:5317   */\n      tag_153\n        /* \"#utility.yul\":5311:5316   */\n      dup5\n        /* \"#utility.yul\":5293:5317   */\n      tag_56\n      jump\t// in\n    tag_153:\n        /* \"#utility.yul\":5284:5318   */\n      tag_69\n      jump\t// in\n    tag_152:\n        /* \"#utility.yul\":5266:5319   */\n      tag_56\n      jump\t// in\n    tag_151:\n        /* \"#utility.yul\":5253:5319   */\n      swap1\n      pop\n        /* \"#utility.yul\":5183:5325   */\n      swap2\n      swap1\n      pop\n      jump\t// out\n        /* \"#utility.yul\":5331:5457   */\n    tag_71:\n        /* \"#utility.yul\":5381:5390   */\n      0x00\n        /* \"#utility.yul\":5414:5451   */\n      tag_155\n        /* \"#utility.yul\":5445:5450   */\n      dup3\n        /* \"#utility.yul\":5414:5451   */\n      tag_70\n      jump\t// in\n    tag_155:\n        /* \"#utility.yul\":5401:5451   */\n      swap1\n      pop\n        /* \"#utility.yul\":5331:5457   */\n      swap2\n      swap1\n      pop\n      jump\t// out\n        /* \"#utility.yul\":5463:5597   */\n    tag_72:\n        /* \"#utility.yul\":5521:5530   */\n      0x00\n        /* \"#utility.yul\":5554:5591   */\n      tag_157\n        /* \"#utility.yul\":5585:5590   */\n      dup3\n        /* \"#utility.yul\":5554:5591   */\n      tag_71\n      jump\t// in\n    tag_157:\n        /* \"#utility.yul\":5541:5591   */\n      swap1\n      pop\n        /* \"#utility.yul\":5463:5597   */\n      swap2\n      swap1\n      pop\n      jump\t// out\n        /* \"#utility.yul\":5603:5750   */\n    tag_73:\n        /* \"#utility.yul\":5698:5743   */\n      tag_159\n        /* \"#utility.yul\":5737:5742   */\n      dup2\n        /* \"#utility.yul\":5698:5743   */\n      tag_72\n      jump\t// in\n    tag_159:\n        /* \"#utility.yul\":5693:5696   */\n      dup3\n        /* \"#utility.yul\":5686:5744   */\n      mstore\n        /* \"#utility.yul\":5603:5750   */\n      pop\n      pop\n      jump\t// out\n        /* \"#utility.yul\":5756:6214   */\n    tag_40:\n        /* \"#utility.yul\":5913:5917   */\n      0x00\n        /* \"#utility.yul\":5951:5953   */\n      0x60\n        /* \"#utility.yul\":5940:5949   */\n      dup3\n        /* \"#utility.yul\":5936:5954   */\n      add\n        /* \"#utility.yul\":5928:5954   */\n      swap1\n      pop\n        /* \"#utility.yul\":5964:6035   */\n      tag_161\n        /* \"#utility.yul\":6032:6033   */\n      0x00\n        /* \"#utility.yul\":6021:6030   */\n      dup4\n        /* \"#utility.yul\":6017:6034   */\n      add\n        /* \"#utility.yul\":6008:6014   */\n      dup7\n        /* \"#utility.yul\":5964:6035   */\n      tag_68\n      jump\t// in\n    tag_161:\n        /* \"#utility.yul\":6045:6125   */\n      tag_162\n        /* \"#utility.yul\":6121:6123   */\n      0x20\n        /* \"#utility.yul\":6110:6119   */\n      dup4\n        /* \"#utility.yul\":6106:6124   */\n      add\n        /* \"#utility.yul\":6097:6103   */\n      dup6\n        /* \"#utility.yul\":6045:6125   */\n      tag_73\n      jump\t// in\n    tag_162:\n        /* \"#utility.yul\":6135:6207   */\n      tag_163\n        /* \"#utility.yul\":6203:6205   */\n      0x40\n        /* \"#utility.yul\":6192:6201   */\n      dup4\n        /* \"#utility.yul\":6188:6206   */\n      add\n        /* \"#utility.yul\":6179:6185   */\n      dup5\n        /* \"#utility.yul\":6135:6207   */\n      tag_65\n      jump\t// in\n    tag_163:\n        /* \"#utility.yul\":5756:6214   */\n      swap5\n      swap4\n      pop\n      pop\n      pop\n      pop\n      jump\t// out\n        /* \"#utility.yul\":6220:6317   */\n    tag_74:\n        /* \"#utility.yul\":6279:6285   */\n      0x00\n        /* \"#utility.yul\":6307:6310   */\n      dup3\n        /* \"#utility.yul\":6297:6310   */\n      swap1\n      pop\n        /* \"#utility.yul\":6220:6317   */\n      swap3\n      swap2\n      pop\n      pop\n      jump\t// out\n        /* \"#utility.yul\":6323:6503   */\n    tag_75:\n        /* \"#utility.yul\":6371:6448   */\n      0x4e487b7100000000000000000000000000000000000000000000000000000000\n        /* \"#utility.yul\":6368:6369   */\n      0x00\n        /* \"#utility.yul\":6361:6449   */\n      mstore\n        /* \"#utility.yul\":6468:6472   */\n      0x41\n        /* \"#utility.yul\":6465:6466   */\n      0x04\n        /* \"#utility.yul\":6458:6473   */\n      mstore\n        /* \"#utility.yul\":6492:6496   */\n      0x24\n        /* \"#utility.yul\":6489:6490   */\n      0x00\n        /* \"#utility.yul\":6482:6497   */\n      revert\n        /* \"#utility.yul\":6509:6650   */\n    tag_76:\n        /* \"#utility.yul\":6558:6562   */\n      0x00\n        /* \"#utility.yul\":6581:6584   */\n      dup2\n        /* \"#utility.yul\":6573:6584   */\n      swap1\n      pop\n        /* \"#utility.yul\":6604:6607   */\n      dup2\n        /* \"#utility.yul\":6601:6602   */\n      0x00\n        /* \"#utility.yul\":6594:6608   */\n      mstore\n        /* \"#utility.yul\":6638:6642   */\n      0x20\n        /* \"#utility.yul\":6635:6636   */\n      0x00\n        /* \"#utility.yul\":6625:6643   */\n      keccak256\n        /* \"#utility.yul\":6617:6643   */\n      swap1\n      pop\n        /* \"#utility.yul\":6509:6650   */\n      swap2\n      swap1\n      pop\n      jump\t// out\n        /* \"#utility.yul\":6656:6749   */\n    tag_77:\n        /* \"#utility.yul\":6693:6699   */\n      0x00\n        /* \"#utility.yul\":6740:6742   */\n      0x20\n        /* \"#utility.yul\":6735:6737   */\n      0x1f\n        /* \"#utility.yul\":6728:6733   */\n      dup4\n        /* \"#utility.yul\":6724:6738   */\n      add\n        /* \"#utility.yul\":6720:6743   */\n      div\n        /* \"#utility.yul\":6710:6743   */\n      swap1\n      pop\n        /* \"#utility.yul\":6656:6749   */\n      swap2\n      swap1\n      pop\n      jump\t// out\n        /* \"#utility.yul\":6755:6862   */\n    tag_78:\n        /* \"#utility.yul\":6799:6807   */\n      0x00\n        /* \"#utility.yul\":6849:6854   */\n      dup3\n        /* \"#utility.yul\":6843:6847   */\n      dup3\n        /* \"#utility.yul\":6839:6855   */\n      shl\n        /* \"#utility.yul\":6818:6855   */\n      swap1\n      pop\n        /* \"#utility.yul\":6755:6862   */\n      swap3\n      swap2\n      pop\n      pop\n      jump\t// out\n        /* \"#utility.yul\":6868:7261   */\n    tag_79:\n        /* \"#utility.yul\":6937:6943   */\n      0x00\n        /* \"#utility.yul\":6987:6988   */\n      0x08\n        /* \"#utility.yul\":6975:6985   */\n      dup4\n        /* \"#utility.yul\":6971:6989   */\n      mul\n        /* \"#utility.yul\":7010:7107   */\n      tag_170\n        /* \"#utility.yul\":7040:7106   */\n      0xffffffffffffffffffffffffffffffffffffffffffffffffffffffffffffffff\n        /* \"#utility.yul\":7029:7038   */\n      dup3\n        /* \"#utility.yul\":7010:7107   */\n      tag_78\n      jump\t// in\n    tag_170:\n        /* \"#utility.yul\":7128:7167   */\n      tag_171\n        /* \"#utility.yul\":7158:7166   */\n      dup7\n        /* \"#utility.yul\":7147:7156   */\n      dup4\n        /* \"#utility.yul\":7128:7167   */\n      tag_78\n      jump\t// in\n    tag_171:\n        /* \"#utility.yul\":7116:7167   */\n      swap6\n      pop\n        /* \"#utility.yul\":7200:7204   */\n      dup1\n        /* \"#utility.yul\":7196:7205   */\n      not\n        /* \"#utility.yul\":7189:7194   */\n      dup5\n        /* \"#utility.yul\":7185:7206   */\n      and\n        /* \"#utility.yul\":7176:7206   */\n      swap4\n      pop\n        /* \"#utility.yul\":7249:7253   */\n      dup1\n        /* \"#utility.yul\":7239:7247   */\n      dup7\n        /* \"#utility.yul\":7235:7254   */\n      and\n        /* \"#utility.yul\":7228:7233   */\n      dup5\n        /* \"#utility.yul\":7225:7255   */\n      or\n        /* \"#utility.yul\":7215:7255   */\n      swap3\n      pop\n        /* \"#utility.yul\":6944:7261   */\n      pop\n      pop\n        /* \"#utility.yul\":6868:7261   */\n      swap4\n      swap3\n      pop\n      pop\n      pop\n      jump\t// out\n        /* \"#utility.yul\":7267:7409   */\n    tag_80:\n        /* \"#utility.yul\":7317:7326   */\n      0x00\n        /* \"#utility.yul\":7350:7403   */\n      tag_173\n        /* \"#utility.yul\":7368:7402   */\n      tag_174\n        /* \"#utility.yul\":7377:7401   */\n      tag_175\n        /* \"#utility.yul\":7395:7400   */\n      dup5\n        /* \"#utility.yul\":7377:7401   */\n      tag_64\n      jump\t// in\n    tag_175:\n        /* \"#utility.yul\":7368:7402   */\n      tag_69\n      jump\t// in\n    tag_174:\n        /* \"#utility.yul\":7350:7403   */\n      tag_64\n      jump\t// in\n    tag_173:\n        /* \"#utility.yul\":7337:7403   */\n      swap1\n      pop\n        /* \"#utility.yul\":7267:7409   */\n      swap2\n      swap1\n      pop\n      jump\t// out\n        /* \"#utility.yul\":7415:7490   */\n    tag_81:\n        /* \"#utility.yul\":7458:7461   */\n      0x00\n        /* \"#utility.yul\":7479:7484   */\n      dup2\n        /* \"#utility.yul\":7472:7484   */\n      swap1\n      pop\n        /* \"#utility.yul\":7415:7490   */\n      swap2\n      swap1\n      pop\n      jump\t// out\n        /* \"#utility.yul\":7496:7765   */\n    tag_82:\n        /* \"#utility.yul\":7606:7645   */\n      tag_178\n        /* \"#utility.yul\":7637:7644   */\n      dup4\n        /* \"#utility.yul\":7606:7645   */\n      tag_80\n      jump\t// in\n    tag_178:\n        /* \"#utility.yul\":7667:7758   */\n      tag_179\n        /* \"#utility.yul\":7716:7757   */\n      tag_180\n        /* \"#utility.yul\":7740:7756   */\n      dup3\n        /* \"#utility.yul\":7716:7757   */\n      tag_81\n      jump\t// in\n    tag_180:\n        /* \"#utility.yul\":7708:7714   */\n      dup5\n        /* \"#utility.yul\":7701:7705   */\n      dup5\n        /* \"#utility.yul\":7695:7706   */\n      sload\n        /* \"#utility.yul\":7667:7758   */\n      tag_79\n      jump\t// in\n    tag_179:\n        /* \"#utility.yul\":7661:7665   */\n      dup3\n        /* \"#utility.yul\":7654:7759   */\n      sstore\n        /* \"#utility.yul\":7572:7765   */\n      pop\n        /* \"#utility.yul\":7496:7765   */\n      pop\n      pop\n      pop\n      jump\t// out\n        /* \"#utility.yul\":7771:7844   */\n    tag_83:\n        /* \"#utility.yul\":7816:7819   */\n      0x00\n        /* \"#utility.yul\":7771:7844   */\n      swap1\n      jump\t// out\n        /* \"#utility.yul\":7850:8039   */\n    tag_84:\n        /* \"#utility.yul\":7927:7959   */\n      tag_183\n      tag_83\n      jump\t// in\n    tag_183:\n        /* \"#utility.yul\":7968:8033   */\n      tag_184\n        /* \"#utility.yul\":8026:8032   */\n      dup2\n        /* \"#utility.yul\":8018:8024   */\n      dup5\n        /* \"#utility.yul\":8012:8016   */\n      dup5\n        /* \"#utility.yul\":7968:8033   */\n      tag_82\n      jump\t// in\n    tag_184:\n        /* \"#utility.yul\":7903:8039   */\n      pop\n        /* \"#utility.yul\":7850:8039   */\n      pop\n      pop\n      jump\t// out\n        /* \"#utility.yul\":8045:8231   */\n    tag_85:\n        /* \"#utility.yul\":8105:8225   */\n    tag_186:\n        /* \"#utility.yul\":8122:8125   */\n      dup2\n        /* \"#utility.yul\":8115:8120   */\n      dup2\n        /* \"#utility.yul\":8112:8126   */\n      lt\n        /* \"#utility.yul\":8105:8225   */\n      iszero\n      tag_188\n      jumpi\n        /* \"#utility.yul\":8176:8215   */\n      tag_189\n        /* \"#utility.yul\":8213:8214   */\n      0x00\n        /* \"#utility.yul\":8206:8211   */\n      dup3\n        /* \"#utility.yul\":8176:8215   */\n      tag_84\n      jump\t// in\n    tag_189:\n        /* \"#utility.yul\":8149:8150   */\n      0x01\n        /* \"#utility.yul\":8142:8147   */\n      dup2\n        /* \"#utility.yul\":8138:8151   */\n      add\n        /* \"#utility.yul\":8129:8151   */\n      swap1\n      pop\n        /* \"#utility.yul\":8105:8225   */\n      jump(tag_186)\n    tag_188:\n        /* \"#utility.yul\":8045:8231   */\n      pop\n      pop\n      jump\t// out\n        /* \"#utility.yul\":8237:8780   */\n    tag_86:\n        /* \"#utility.yul\":8338:8340   */\n      0x1f\n        /* \"#utility.yul\":8333:8336   */\n      dup3\n        /* \"#utility.yul\":8330:8341   */\n      gt\n        /* \"#utility.yul\":8327:8773   */\n      iszero\n      tag_191\n      jumpi\n        /* \"#utility.yul\":8372:8410   */\n      tag_192\n        /* \"#utility.yul\":8404:8409   */\n      dup2\n        /* \"#utility.yul\":8372:8410   */\n      tag_76\n      jump\t// in\n    tag_192:\n        /* \"#utility.yul\":8456:8485   */\n      tag_193\n        /* \"#utility.yul\":8474:8484   */\n      dup5\n        /* \"#utility.yul\":8456:8485   */\n      tag_77\n      jump\t// in\n    tag_193:\n        /* \"#utility.yul\":8446:8454   */\n      dup2\n        /* \"#utility.yul\":8442:8486   */\n      add\n        /* \"#utility.yul\":8639:8641   */\n      0x20\n        /* \"#utility.yul\":8627:8637   */\n      dup6\n        /* \"#utility.yul\":8624:8642   */\n      lt\n        /* \"#utility.yul\":8621:8670   */\n      iszero\n      tag_194\n      jumpi\n        /* \"#utility.yul\":8660:8668   */\n      dup2\n        /* \"#utility.yul\":8645:8668   */\n      swap1\n      pop\n        /* \"#utility.yul\":8621:8670   */\n    tag_194:\n        /* \"#utility.yul\":8683:8763   */\n      tag_195\n        /* \"#utility.yul\":8739:8761   */\n      tag_196\n        /* \"#utility.yul\":8757:8760   */\n      dup6\n        /* \"#utility.yul\":8739:8761   */\n      tag_77\n      jump\t// in\n    tag_196:\n        /* \"#utility.yul\":8729:8737   */\n      dup4\n        /* \"#utility.yul\":8725:8762   */\n      add\n        /* \"#utility.yul\":8712:8723   */\n      dup3\n        /* \"#utility.yul\":8683:8763   */\n      tag_85\n      jump\t// in\n    tag_195:\n        /* \"#utility.yul\":8342:8773   */\n      pop\n      pop\n        /* \"#utility.yul\":8327:8773   */\n    tag_191:\n        /* \"#utility.yul\":8237:8780   */\n      pop\n      pop\n      pop\n      jump\t// out\n        /* \"#utility.yul\":8786:8903   */\n    tag_87:\n        /* \"#utility.yul\":8840:8848   */\n      0x00\n        /* \"#utility.yul\":8890:8895   */\n      dup3\n        /* \"#utility.yul\":8884:8888   */\n      dup3\n        /* \"#utility.yul\":8880:8896   */\n      shr\n        /* \"#utility.yul\":8859:8896   */\n      swap1\n      pop\n        /* \"#utility.yul\":8786:8903   */\n      swap3\n      swap2\n      pop\n      pop\n      jump\t// out\n        /* \"#utility.yul\":8909:9078   */\n    tag_88:\n        /* \"#utility.yul\":8953:8959   */\n      0x00\n        /* \"#utility.yul\":8986:9037   */\n      tag_199\n        /* \"#utility.yul\":9034:9035   */\n      0x00\n        /* \"#utility.yul\":9030:9036   */\n      not\n        /* \"#utility.yul\":9022:9027   */\n      dup5\n        /* \"#utility.yul\":9019:9020   */\n      0x08\n        /* \"#utility.yul\":9015:9028   */\n      mul\n        /* \"#utility.yul\":8986:9037   */\n      tag_87\n      jump\t// in\n    tag_199:\n        /* \"#utility.yul\":8982:9038   */\n      not\n        /* \"#utility.yul\":9067:9071   */\n      dup1\n        /* \"#utility.yul\":9061:9065   */\n      dup4\n        /* \"#utility.yul\":9057:9072   */\n      and\n        /* \"#utility.yul\":9047:9072   */\n      swap2\n      pop\n        /* \"#utility.yul\":8960:9078   */\n      pop\n        /* \"#utility.yul\":8909:9078   */\n      swap3\n      swap2\n      pop\n      pop\n      jump\t// out\n        /* \"#utility.yul\":9083:9378   */\n    tag_89:\n        /* \"#utility.yul\":9159:9163   */\n      0x00\n        /* \"#utility.yul\":9305:9334   */\n      tag_201\n        /* \"#utility.yul\":9330:9333   */\n      dup4\n        /* \"#utility.yul\":9324:9328   */\n      dup4\n        /* \"#utility.yul\":9305:9334   */\n      tag_88\n      jump\t// in\n    tag_201:\n        /* \"#utility.yul\":9297:9334   */\n      swap2\n      pop\n        /* \"#utility.yul\":9367:9370   */\n      dup3\n        /* \"#utility.yul\":9364:9365   */\n      0x02\n        /* \"#utility.yul\":9360:9371   */\n      mul\n        /* \"#utility.yul\":9354:9358   */\n      dup3\n        /* \"#utility.yul\":9351:9372   */\n      or\n        /* \"#utility.yul\":9343:9372   */\n      swap1\n      pop\n        /* \"#utility.yul\":9083:9378   */\n      swap3\n      swap2\n      pop\n      pop\n      jump\t// out\n        /* \"#utility.yul\":9383:10786   */\n    tag_43:\n        /* \"#utility.yul\":9507:9551   */\n      tag_203\n        /* \"#utility.yul\":9547:9550   */\n      dup4\n        /* \"#utility.yul\":9542:9545   */\n      dup4\n        /* \"#utility.yul\":9507:9551   */\n      tag_74\n      jump\t// in\n    tag_203:\n        /* \"#utility.yul\":9616:9634   */\n      0xffffffffffffffff\n        /* \"#utility.yul\":9608:9614   */\n      dup2\n        /* \"#utility.yul\":9605:9635   */\n      gt\n        /* \"#utility.yul\":9602:9658   */\n      iszero\n      tag_204\n      jumpi\n        /* \"#utility.yul\":9638:9656   */\n      tag_205\n      tag_75\n      jump\t// in\n    tag_205:\n        /* \"#utility.yul\":9602:9658   */\n    tag_204:\n        /* \"#utility.yul\":9682:9720   */\n      tag_206\n        /* \"#utility.yul\":9714:9718   */\n      dup3\n        /* \"#utility.yul\":9708:9719   */\n      sload\n        /* \"#utility.yul\":9682:9720   */\n      tag_31\n      jump\t// in\n    tag_206:\n        /* \"#utility.yul\":9767:9834   */\n      tag_207\n        /* \"#utility.yul\":9827:9833   */\n      dup3\n        /* \"#utility.yul\":9819:9825   */\n      dup3\n        /* \"#utility.yul\":9813:9817   */\n      dup6\n        /* \"#utility.yul\":9767:9834   */\n      tag_86\n      jump\t// in\n    tag_207:\n        /* \"#utility.yul\":9861:9862   */\n      0x00\n        /* \"#utility.yul\":9890:9892   */\n      0x1f\n        /* \"#utility.yul\":9882:9888   */\n      dup4\n        /* \"#utility.yul\":9879:9893   */\n      gt\n        /* \"#utility.yul\":9907:9908   */\n      0x01\n        /* \"#utility.yul\":9902:10534   */\n      dup2\n      eq\n      tag_209\n      jumpi\n        /* \"#utility.yul\":10578:10579   */\n      0x00\n        /* \"#utility.yul\":10595:10601   */\n      dup5\n        /* \"#utility.yul\":10592:10676   */\n      iszero\n      tag_210\n      jumpi\n        /* \"#utility.yul\":10651:10660   */\n      dup3\n        /* \"#utility.yul\":10646:10649   */\n      dup8\n        /* \"#utility.yul\":10642:10661   */\n      add\n        /* \"#utility.yul\":10629:10662   */\n      calldataload\n        /* \"#utility.yul\":10620:10662   */\n      swap1\n      pop\n        /* \"#utility.yul\":10592:10676   */\n    tag_210:\n        /* \"#utility.yul\":10702:10769   */\n      tag_211\n        /* \"#utility.yul\":10762:10768   */\n      dup6\n        /* \"#utility.yul\":10755:10760   */\n      dup3\n        /* \"#utility.yul\":10702:10769   */\n      tag_89\n      jump\t// in\n    tag_211:\n        /* \"#utility.yul\":10696:10700   */\n      dup7\n        /* \"#utility.yul\":10689:10770   */\n      sstore\n        /* \"#utility.yul\":10551:10780   */\n      pop\n        /* \"#utility.yul\":9872:10780   */\n      jump(tag_208)\n        /* \"#utility.yul\":9902:10534   */\n    tag_209:\n        /* \"#utility.yul\":9954:9958   */\n      0x1f\n        /* \"#utility.yul\":9950:9959   */\n      not\n        /* \"#utility.yul\":9942:9948   */\n      dup5\n        /* \"#utility.yul\":9938:9960   */\n      and\n        /* \"#utility.yul\":9988:10025   */\n      tag_212\n        /* \"#utility.yul\":10020:10024   */\n      dup7\n        /* \"#utility.yul\":9988:10025   */\n      tag_76\n      jump\t// in\n    tag_212:\n        /* \"#utility.yul\":10047:10048   */\n      0x00\n        /* \"#utility.yul\":10061:10276   */\n    tag_213:\n        /* \"#utility.yul\":10075:10082   */\n      dup3\n        /* \"#utility.yul\":10072:10073   */\n      dup2\n        /* \"#utility.yul\":10069:10083   */\n      lt\n        /* \"#utility.yul\":10061:10276   */\n      iszero\n      tag_215\n      jumpi\n        /* \"#utility.yul\":10161:10170   */\n      dup5\n        /* \"#utility.yul\":10156:10159   */\n      dup10\n        /* \"#utility.yul\":10152:10171   */\n      add\n        /* \"#utility.yul\":10139:10172   */\n      calldataload\n        /* \"#utility.yul\":10131:10137   */\n      dup3\n        /* \"#utility.yul\":10124:10173   */\n      sstore\n        /* \"#utility.yul\":10212:10213   */\n      0x01\n        /* \"#utility.yul\":10204:10210   */\n      dup3\n        /* \"#utility.yul\":10200:10214   */\n      add\n        /* \"#utility.yul\":10190:10214   */\n      swap2\n      pop\n        /* \"#utility.yul\":10259:10261   */\n      0x20\n        /* \"#utility.yul\":10248:10257   */\n      dup6\n        /* \"#utility.yul\":10244:10262   */\n      add\n        /* \"#utility.yul\":10231:10262   */\n      swap5\n      pop\n        /* \"#utility.yul\":10098:10102   */\n      0x20\n        /* \"#utility.yul\":10095:10096   */\n      dup2\n        /* \"#utility.yul\":10091:10103   */\n      add\n        /* \"#utility.yul\":10086:10103   */\n      swap1\n      pop\n        /* \"#utility.yul\":10061:10276   */\n      jump(tag_213)\n    tag_215:\n        /* \"#utility.yul\":10304:10310   */\n      dup7\n        /* \"#utility.yul\":10295:10302   */\n      dup4\n        /* \"#utility.yul\":10292:10311   */\n      lt\n        /* \"#utility.yul\":10289:10475   */\n      iszero\n      tag_216\n      jumpi\n        /* \"#utility.yul\":10369:10378   */\n      dup5\n        /* \"#utility.yul\":10364:10367   */\n      dup10\n        /* \"#utility.yul\":10360:10379   */\n      add\n        /* \"#utility.yul\":10347:10380   */\n      calldataload\n        /* \"#utility.yul\":10412:10460   */\n      tag_217\n        /* \"#utility.yul\":10454:10458   */\n      0x1f\n        /* \"#utility.yul\":10446:10452   */\n      dup10\n        /* \"#utility.yul\":10442:10459   */\n      and\n        /* \"#utility.yul\":10431:10440   */\n      dup3\n        /* \"#utility.yul\":10412:10460   */\n      tag_88\n      jump\t// in\n    tag_217:\n        /* \"#utility.yul\":10404:10410   */\n      dup4\n        /* \"#utility.yul\":10397:10461   */\n      sstore\n        /* \"#utility.yul\":10312:10475   */\n      pop\n        /* \"#utility.yul\":10289:10475   */\n    tag_216:\n        /* \"#utility.yul\":10521:10522   */\n      0x01\n        /* \"#utility.yul\":10517:10518   */\n      0x02\n        /* \"#utility.yul\":10509:10515   */\n      dup9\n        /* \"#utility.yul\":10505:10519   */\n      mul\n        /* \"#utility.yul\":10501:10523   */\n      add\n        /* \"#utility.yul\":10495:10499   */\n      dup9\n        /* \"#utility.yul\":10488:10524   */\n      sstore\n        /* \"#utility.yul\":9909:10534   */\n      pop\n      pop\n      pop\n        /* \"#utility.yul\":9872:10780   */\n    tag_208:\n      pop\n        /* \"#utility.yul\":9482:10786   */\n      pop\n      pop\n      pop\n        /* \"#utility.yul\":9383:10786   */\n      pop\n      pop\n      pop\n      jump\t// out\n        /* \"#utility.yul\":10792:10940   */\n    tag_90:\n        /* \"#utility.yul\":10890:10896   */\n      dup3\n        /* \"#utility.yul\":10885:10888   */\n      dup2\n        /* \"#utility.yul\":10880:10883   */\n      dup4\n        /* \"#utility.yul\":10867:10897   */\n      calldatacopy\n        /* \"#utility.yul\":10931:10932   */\n      0x00\n        /* \"#utility.yul\":10922:10928   */\n      dup4\n        /* \"#utility.yul\":10917:10920   */\n      dup4\n        /* \"#utility.yul\":10913:10929   */\n      add\n        /* \"#utility.yul\":10906:10933   */\n      mstore\n        /* \"#utility.yul\":10792:10940   */\n      pop\n      pop\n      pop\n      jump\t// out\n        /* \"#utility.yul\":10970:11287   */\n    tag_91:\n        /* \"#utility.yul\":11068:11071   */\n      0x00\n        /* \"#utility.yul\":11089:11160   */\n      tag_220\n        /* \"#utility.yul\":11153:11159   */\n      dup4\n        /* \"#utility.yul\":11148:11151   */\n      dup6\n        /* \"#utility.yul\":11089:11160   */\n      tag_49\n      jump\t// in\n    tag_220:\n        /* \"#utility.yul\":11082:11160   */\n      swap4\n      pop\n        /* \"#utility.yul\":11170:11226   */\n      tag_221\n        /* \"#utility.yul\":11219:11225   */\n      dup4\n        /* \"#utility.yul\":11214:11217   */\n      dup6\n        /* \"#utility.yul\":11207:11212   */\n      dup5\n        /* \"#utility.yul\":11170:11226   */\n      tag_90\n      jump\t// in\n    tag_221:\n        /* \"#utility.yul\":11251:11280   */\n      tag_222\n        /* \"#utility.yul\":11273:11279   */\n      dup4\n        /* \"#utility.yul\":11251:11280   */\n      tag_51\n      jump\t// in\n    tag_222:\n        /* \"#utility.yul\":11246:11249   */\n      dup5\n        /* \"#utility.yul\":11242:11281   */\n      add\n        /* \"#utility.yul\":11235:11281   */\n      swap1\n      pop\n        /* \"#utility.yul\":10970:11287   */\n      swap4\n      swap3\n      pop\n      pop\n      pop\n      jump\t// out\n        /* \"#utility.yul\":11293:11626   */\n    tag_45:\n        /* \"#utility.yul\":11416:11420   */\n      0x00\n        /* \"#utility.yul\":11454:11456   */\n      0x20\n        /* \"#utility.yul\":11443:11452   */\n      dup3\n        /* \"#utility.yul\":11439:11457   */\n      add\n        /* \"#utility.yul\":11431:11457   */\n      swap1\n      pop\n        /* \"#utility.yul\":11503:11512   */\n      dup2\n        /* \"#utility.yul\":11497:11501   */\n      dup2\n        /* \"#utility.yul\":11493:11513   */\n      sub\n        /* \"#utility.yul\":11489:11490   */\n      0x00\n        /* \"#utility.yul\":11478:11487   */\n      dup4\n        /* \"#utility.yul\":11474:11491   */\n      add\n        /* \"#utility.yul\":11467:11514   */\n      mstore\n        /* \"#utility.yul\":11531:11619   */\n      tag_224\n        /* \"#utility.yul\":11614:11618   */\n      dup2\n        /* \"#utility.yul\":11605:11611   */\n      dup5\n        /* \"#utility.yul\":11597:11603   */\n      dup7\n        /* \"#utility.yul\":11531:11619   */\n      tag_91\n      jump\t// in\n    tag_224:\n        /* \"#utility.yul\":11523:11619   */\n      swap1\n      pop\n        /* \"#utility.yul\":11293:11626   */\n      swap4\n      swap3\n      pop\n      pop\n      pop\n      jump\t// out\n\n    auxdata: 0xa26469706673582212201e3a3f8899ec3e398ad38d700417c3f952545afb68b382b21566b706dd97a17164736f6c634300081a0033\n}\n",
				"bytecode": {
					"linkReferences": {},
					"object": "60806040526040518060400160405280600381526020017f43544500000000000000000000000000000000000000000000000000000000008152505f90816100479190610297565b5060018055348015610057575f80fd5b50610366565b5f81519050919050565b7f4e487b71000000000000000000000000000000000000000000000000000000005f52604160045260245ffd5b7f4e487b71000000000000000000000000000000000000000000000000000000005f52602260045260245ffd5b5f60028204905060018216806100d857607f821691505b6020821081036100eb576100ea610094565b5b50919050565b5f819050815f5260205f209050919050565b5f6020601f8301049050919050565b5f82821b905092915050565b5f6008830261014d7fffffffffffffffffffffffffffffffffffffffffffffffffffffffffffffffff82610112565b6101578683610112565b95508019841693508086168417925050509392505050565b5f819050919050565b5f819050919050565b5f61019b6101966101918461016f565b610178565b61016f565b9050919050565b5f819050919050565b6101b483610181565b6101c86101c0826101a2565b84845461011e565b825550505050565b5f90565b6101dc6101d0565b6101e78184846101ab565b505050565b5b8181101561020a576101ff5f826101d4565b6001810190506101ed565b5050565b601f82111561024f57610220816100f1565b61022984610103565b81016020851015610238578190505b61024c61024485610103565b8301826101ec565b50505b505050565b5f82821c905092915050565b5f61026f5f1984600802610254565b1980831691505092915050565b5f6102878383610260565b9150826002028217905092915050565b6102a08261005d565b67ffffffffffffffff8111156102b9576102b8610067565b5b6102c382546100c1565b6102ce82828561020e565b5f60209050601f8311600181146102ff575f84156102ed578287015190505b6102f7858261027c565b86555061035e565b601f19841661030d866100f1565b5f5b828110156103345784890151825560018201915060208501945060208101905061030f565b86831015610351578489015161034d601f891682610260565b8355505b6001600288020188555050505b505050505050565b6108b4806103735f395ff3fe608060405260043610610049575f3560e01c806306fdde031461004d5780631a695230146100775780635353a2d814610093578063af640d0f146100bb578063da9ab565146100e5575b5f80fd5b348015610058575f80fd5b5061006161010d565b60405161006e91906102f3565b60405180910390f35b610091600480360381019061008c9190610375565b610198565b005b34801561009e575f80fd5b506100b960048036038101906100b49190610401565b61021a565b005b3480156100c6575f80fd5b506100cf610268565b6040516100dc9190610464565b60405180910390f35b3480156100f0575f80fd5b5061010b60048036038101906101069190610401565b61026e565b005b5f8054610119906104aa565b80601f0160208091040260200160405190810160405280929190818152602001828054610145906104aa565b80156101905780601f1061016757610100808354040283529160200191610190565b820191905f5260205f20905b81548152906001019060200180831161017357829003601f168201915b505050505081565b8073ffffffffffffffffffffffffffffffffffffffff166108fc3490811502906040515f60405180830381858888f193505050501580156101db573d5f803e3d5ffd5b507feaf1c4b3ce0f4f62a2bae7eb3e68225c75f7e6ff4422073b7437b9a78d25f17033823460405161020f93929190610555565b60405180910390a150565b81815f918261022a929190610755565b507f50cccf40d174cba784cc6c10d8511123e07dbfcbbfe39e7e0ace01675a688bc2828260405161025c92919061085c565b60405180910390a15050565b60015481565b81815f918261027e929190610755565b505050565b5f81519050919050565b5f82825260208201905092915050565b8281835e5f83830152505050565b5f601f19601f8301169050919050565b5f6102c582610283565b6102cf818561028d565b93506102df81856020860161029d565b6102e8816102ab565b840191505092915050565b5f6020820190508181035f83015261030b81846102bb565b905092915050565b5f80fd5b5f80fd5b5f73ffffffffffffffffffffffffffffffffffffffff82169050919050565b5f6103448261031b565b9050919050565b6103548161033a565b811461035e575f80fd5b50565b5f8135905061036f8161034b565b92915050565b5f6020828403121561038a57610389610313565b5b5f61039784828501610361565b91505092915050565b5f80fd5b5f80fd5b5f80fd5b5f8083601f8401126103c1576103c06103a0565b5b8235905067ffffffffffffffff8111156103de576103dd6103a4565b5b6020830191508360018202830111156103fa576103f96103a8565b5b9250929050565b5f806020838503121561041757610416610313565b5b5f83013567ffffffffffffffff81111561043457610433610317565b5b610440858286016103ac565b92509250509250929050565b5f819050919050565b61045e8161044c565b82525050565b5f6020820190506104775f830184610455565b92915050565b7f4e487b71000000000000000000000000000000000000000000000000000000005f52602260045260245ffd5b5f60028204905060018216806104c157607f821691505b6020821081036104d4576104d361047d565b5b50919050565b5f6104e48261031b565b9050919050565b6104f4816104da565b82525050565b5f819050919050565b5f61051d6105186105138461031b565b6104fa565b61031b565b9050919050565b5f61052e82610503565b9050919050565b5f61053f82610524565b9050919050565b61054f81610535565b82525050565b5f6060820190506105685f8301866104eb565b6105756020830185610546565b6105826040830184610455565b949350505050565b5f82905092915050565b7f4e487b71000000000000000000000000000000000000000000000000000000005f52604160045260245ffd5b5f819050815f5260205f209050919050565b5f6020601f8301049050919050565b5f82821b905092915050565b5f6008830261061d7fffffffffffffffffffffffffffffffffffffffffffffffffffffffffffffffff826105e2565b61062786836105e2565b95508019841693508086168417925050509392505050565b5f61065961065461064f8461044c565b6104fa565b61044c565b9050919050565b5f819050919050565b6106728361063f565b61068661067e82610660565b8484546105ee565b825550505050565b5f90565b61069a61068e565b6106a5818484610669565b505050565b5b818110156106c8576106bd5f82610692565b6001810190506106ab565b5050565b601f82111561070d576106de816105c1565b6106e7846105d3565b810160208510156106f6578190505b61070a610702856105d3565b8301826106aa565b50505b505050565b5f82821c905092915050565b5f61072d5f1984600802610712565b1980831691505092915050565b5f610745838361071e565b9150826002028217905092915050565b61075f838361058a565b67ffffffffffffffff81111561077857610777610594565b5b61078282546104aa565b61078d8282856106cc565b5f601f8311600181146107ba575f84156107a8578287013590505b6107b2858261073a565b865550610819565b601f1984166107c8866105c1565b5f5b828110156107ef578489013582556001820191506020850194506020810190506107ca565b8683101561080c5784890135610808601f89168261071e565b8355505b6001600288020188555050505b50505050505050565b828183375f83830152505050565b5f61083b838561028d565b9350610848838584610822565b610851836102ab565b840190509392505050565b5f6020820190508181035f830152610875818486610830565b9050939250505056fea26469706673582212201e3a3f8899ec3e398ad38d700417c3f952545afb68b382b21566b706dd97a17164736f6c634300081a0033",
					"opcodes": "PUSH1 0x80 PUSH1 0x40 MSTORE PUSH1 0x40 MLOAD DUP1 PUSH1 0x40 ADD PUSH1 0x40 MSTORE DUP1 PUSH1 0x3 DUP2 MSTORE PUSH1 0x20 ADD PUSH32 0x4354450000000000000000000000000000000000000000000000000000000000 DUP2 MSTORE POP PUSH0 SWAP1 DUP2 PUSH2 0x47 SWAP2 SWAP1 PUSH2 0x297 JUMP JUMPDEST POP PUSH1 0x1 DUP1 SSTORE CALLVALUE DUP1 ISZERO PUSH2 0x57 JUMPI PUSH0 DUP1 REVERT JUMPDEST POP PUSH2 0x366 JUMP JUMPDEST PUSH0 DUP2 MLOAD SWAP1 POP SWAP2 SWAP1 POP JUMP JUMPDEST PUSH32 0x4E487B7100000000000000000000000000000000000000000000000000000000 PUSH0 MSTORE PUSH1 0x41 PUSH1 0x4 MSTORE PUSH1 0x24 PUSH0 REVERT JUMPDEST PUSH32 0x4E487B7100000000000000000000000000000000000000000000000000000000 PUSH0 MSTORE PUSH1 0x22 PUSH1 0x4 MSTORE PUSH1 0x24 PUSH0 REVERT JUMPDEST PUSH0 PUSH1 0x2 DUP3 DIV SWAP1 POP PUSH1 0x1 DUP3 AND DUP1 PUSH2 0xD8 JUMPI PUSH1 0x7F DUP3 AND SWAP2 POP JUMPDEST PUSH1 0x20 DUP3 LT DUP2 SUB PUSH2 0xEB JUMPI PUSH2 0xEA PUSH2 0x94 JUMP JUMPDEST JUMPDEST POP SWAP2 SWAP1 POP JUMP JUMPDEST PUSH0 DUP2 SWAP1 POP DUP2 PUSH0 MSTORE PUSH1 0x20 PUSH0 KECCAK256 SWAP1 POP SWAP2 SWAP1 POP JUMP JUMPDEST PUSH0 PUSH1 0x20 PUSH1 0x1F DUP4 ADD DIV SWAP1 POP SWAP2 SWAP1 POP JUMP JUMPDEST PUSH0 DUP3 DUP3 SHL SWAP1 POP SWAP3 SWAP2 POP POP JUMP JUMPDEST PUSH0 PUSH1 0x8 DUP4 MUL PUSH2 0x14D PUSH32 0xFFFFFFFFFFFFFFFFFFFFFFFFFFFFFFFFFFFFFFFFFFFFFFFFFFFFFFFFFFFFFFFF DUP3 PUSH2 0x112 JUMP JUMPDEST PUSH2 0x157 DUP7 DUP4 PUSH2 0x112 JUMP JUMPDEST SWAP6 POP DUP1 NOT DUP5 AND SWAP4 POP DUP1 DUP7 AND DUP5 OR SWAP3 POP POP POP SWAP4 SWAP3 POP POP POP JUMP JUMPDEST PUSH0 DUP2 SWAP1 POP SWAP2 SWAP1 POP JUMP JUMPDEST PUSH0 DUP2 SWAP1 POP SWAP2 SWAP1 POP JUMP JUMPDEST PUSH0 PUSH2 0x19B PUSH2 0x196 PUSH2 0x191 DUP5 PUSH2 0x16F JUMP JUMPDEST PUSH2 0x178 JUMP JUMPDEST PUSH2 0x16F JUMP JUMPDEST SWAP1 POP SWAP2 SWAP1 POP JUMP JUMPDEST PUSH0 DUP2 SWAP1 POP SWAP2 SWAP1 POP JUMP JUMPDEST PUSH2 0x1B4 DUP4 PUSH2 0x181 JUMP JUMPDEST PUSH2 0x1C8 PUSH2 0x1C0 DUP3 PUSH2 0x1A2 JUMP JUMPDEST DUP5 DUP5 SLOAD PUSH2 0x11E JUMP JUMPDEST DUP3 SSTORE POP POP POP POP JUMP JUMPDEST PUSH0 SWAP1 JUMP JUMPDEST PUSH2 0x1DC PUSH2 0x1D0 JUMP JUMPDEST PUSH2 0x1E7 DUP2 DUP5 DUP5 PUSH2 0x1AB JUMP JUMPDEST POP POP POP JUMP JUMPDEST JUMPDEST DUP2 DUP2 LT ISZERO PUSH2 0x20A JUMPI PUSH2 0x1FF PUSH0 DUP3 PUSH2 0x1D4 JUMP JUMPDEST PUSH1 0x1 DUP2 ADD SWAP1 POP PUSH2 0x1ED JUMP JUMPDEST POP POP JUMP JUMPDEST PUSH1 0x1F DUP3 GT ISZERO PUSH2 0x24F JUMPI PUSH2 0x220 DUP2 PUSH2 0xF1 JUMP JUMPDEST PUSH2 0x229 DUP5 PUSH2 0x103 JUMP JUMPDEST DUP2 ADD PUSH1 0x20 DUP6 LT ISZERO PUSH2 0x238 JUMPI DUP2 SWAP1 POP JUMPDEST PUSH2 0x24C PUSH2 0x244 DUP6 PUSH2 0x103 JUMP JUMPDEST DUP4 ADD DUP3 PUSH2 0x1EC JUMP JUMPDEST POP POP JUMPDEST POP POP POP JUMP JUMPDEST PUSH0 DUP3 DUP3 SHR SWAP1 POP SWAP3 SWAP2 POP POP JUMP JUMPDEST PUSH0 PUSH2 0x26F PUSH0 NOT DUP5 PUSH1 0x8 MUL PUSH2 0x254 JUMP JUMPDEST NOT DUP1 DUP4 AND SWAP2 POP POP SWAP3 SWAP2 POP POP JUMP JUMPDEST PUSH0 PUSH2 0x287 DUP4 DUP4 PUSH2 0x260 JUMP JUMPDEST SWAP2 POP DUP3 PUSH1 0x2 MUL DUP3 OR SWAP1 POP SWAP3 SWAP2 POP POP JUMP JUMPDEST PUSH2 0x2A0 DUP3 PUSH2 0x5D JUMP JUMPDEST PUSH8 0xFFFFFFFFFFFFFFFF DUP2 GT ISZERO PUSH2 0x2B9 JUMPI PUSH2 0x2B8 PUSH2 0x67 JUMP JUMPDEST JUMPDEST PUSH2 0x2C3 DUP3 SLOAD PUSH2 0xC1 JUMP JUMPDEST PUSH2 0x2CE DUP3 DUP3 DUP6 PUSH2 0x20E JUMP JUMPDEST PUSH0 PUSH1 0x20 SWAP1 POP PUSH1 0x1F DUP4 GT PUSH1 0x1 DUP2 EQ PUSH2 0x2FF JUMPI PUSH0 DUP5 ISZERO PUSH2 0x2ED JUMPI DUP3 DUP8 ADD MLOAD SWAP1 POP JUMPDEST PUSH2 0x2F7 DUP6 DUP3 PUSH2 0x27C JUMP JUMPDEST DUP7 SSTORE POP PUSH2 0x35E JUMP JUMPDEST PUSH1 0x1F NOT DUP5 AND PUSH2 0x30D DUP7 PUSH2 0xF1 JUMP JUMPDEST PUSH0 JUMPDEST DUP3 DUP2 LT ISZERO PUSH2 0x334 JUMPI DUP5 DUP10 ADD MLOAD DUP3 SSTORE PUSH1 0x1 DUP3 ADD SWAP2 POP PUSH1 0x20 DUP6 ADD SWAP5 POP PUSH1 0x20 DUP2 ADD SWAP1 POP PUSH2 0x30F JUMP JUMPDEST DUP7 DUP4 LT ISZERO PUSH2 0x351 JUMPI DUP5 DUP10 ADD MLOAD PUSH2 0x34D PUSH1 0x1F DUP10 AND DUP3 PUSH2 0x260 JUMP JUMPDEST DUP4 SSTORE POP JUMPDEST PUSH1 0x1 PUSH1 0x2 DUP9 MUL ADD DUP9 SSTORE POP POP POP JUMPDEST POP POP POP POP POP POP JUMP JUMPDEST PUSH2 0x8B4 DUP1 PUSH2 0x373 PUSH0 CODECOPY PUSH0 RETURN INVALID PUSH1 0x80 PUSH1 0x40 MSTORE PUSH1 0x4 CALLDATASIZE LT PUSH2 0x49 JUMPI PUSH0 CALLDATALOAD PUSH1 0xE0 SHR DUP1 PUSH4 0x6FDDE03 EQ PUSH2 0x4D JUMPI DUP1 PUSH4 0x1A695230 EQ PUSH2 0x77 JUMPI DUP1 PUSH4 0x5353A2D8 EQ PUSH2 0x93 JUMPI DUP1 PUSH4 0xAF640D0F EQ PUSH2 0xBB JUMPI DUP1 PUSH4 0xDA9AB565 EQ PUSH2 0xE5 JUMPI JUMPDEST PUSH0 DUP1 REVERT JUMPDEST CALLVALUE DUP1 ISZERO PUSH2 0x58 JUMPI PUSH0 DUP1 REVERT JUMPDEST POP PUSH2 0x61 PUSH2 0x10D JUMP JUMPDEST PUSH1 0x40 MLOAD PUSH2 0x6E SWAP2 SWAP1 PUSH2 0x2F3 JUMP JUMPDEST PUSH1 0x40 MLOAD DUP1 SWAP2 SUB SWAP1 RETURN JUMPDEST PUSH2 0x91 PUSH1 0x4 DUP1 CALLDATASIZE SUB DUP2 ADD SWAP1 PUSH2 0x8C SWAP2 SWAP1 PUSH2 0x375 JUMP JUMPDEST PUSH2 0x198 JUMP JUMPDEST STOP JUMPDEST CALLVALUE DUP1 ISZERO PUSH2 0x9E JUMPI PUSH0 DUP1 REVERT JUMPDEST POP PUSH2 0xB9 PUSH1 0x4 DUP1 CALLDATASIZE SUB DUP2 ADD SWAP1 PUSH2 0xB4 SWAP2 SWAP1 PUSH2 0x401 JUMP JUMPDEST PUSH2 0x21A JUMP JUMPDEST STOP JUMPDEST CALLVALUE DUP1 ISZERO PUSH2 0xC6 JUMPI PUSH0 DUP1 REVERT JUMPDEST POP PUSH2 0xCF PUSH2 0x268 JUMP JUMPDEST PUSH1 0x40 MLOAD PUSH2 0xDC SWAP2 SWAP1 PUSH2 0x464 JUMP JUMPDEST PUSH1 0x40 MLOAD DUP1 SWAP2 SUB SWAP1 RETURN JUMPDEST CALLVALUE DUP1 ISZERO PUSH2 0xF0 JUMPI PUSH0 DUP1 REVERT JUMPDEST POP PUSH2 0x10B PUSH1 0x4 DUP1 CALLDATASIZE SUB DUP2 ADD SWAP1 PUSH2 0x106 SWAP2 SWAP1 PUSH2 0x401 JUMP JUMPDEST PUSH2 0x26E JUMP JUMPDEST STOP JUMPDEST PUSH0 DUP1 SLOAD PUSH2 0x119 SWAP1 PUSH2 0x4AA JUMP JUMPDEST DUP1 PUSH1 0x1F ADD PUSH1 0x20 DUP1 SWAP2 DIV MUL PUSH1 0x20 ADD PUSH1 0x40 MLOAD SWAP1 DUP2 ADD PUSH1 0x40 MSTORE DUP1 SWAP3 SWAP2 SWAP1 DUP2 DUP2 MSTORE PUSH1 0x20 ADD DUP3 DUP1 SLOAD PUSH2 0x145 SWAP1 PUSH2 0x4AA JUMP JUMPDEST DUP1 ISZERO PUSH2 0x190 JUMPI DUP1 PUSH1 0x1F LT PUSH2 0x167 JUMPI PUSH2 0x100 DUP1 DUP4 SLOAD DIV MUL DUP4 MSTORE SWAP2 PUSH1 0x20 ADD SWAP2 PUSH2 0x190 JUMP JUMPDEST DUP3 ADD SWAP2 SWAP1 PUSH0 MSTORE PUSH1 0x20 PUSH0 KECCAK256 SWAP1 JUMPDEST DUP2 SLOAD DUP2 MSTORE SWAP1 PUSH1 0x1 ADD SWAP1 PUSH1 0x20 ADD DUP1 DUP4 GT PUSH2 0x173 JUMPI DUP3 SWAP1 SUB PUSH1 0x1F AND DUP3 ADD SWAP2 JUMPDEST POP POP POP POP POP DUP2 JUMP JUMPDEST DUP1 PUSH20 0xFFFFFFFFFFFFFFFFFFFFFFFFFFFFFFFFFFFFFFFF AND PUSH2 0x8FC CALLVALUE SWAP1 DUP2 ISZERO MUL SWAP1 PUSH1 0x40 MLOAD PUSH0 PUSH1 0x40 MLOAD DUP1 DUP4 SUB DUP2 DUP6 DUP9 DUP9 CALL SWAP4 POP POP POP POP ISZERO DUP1 ISZERO PUSH2 0x1DB JUMPI RETURNDATASIZE PUSH0 DUP1 RETURNDATACOPY RETURNDATASIZE PUSH0 REVERT JUMPDEST POP PUSH32 0xEAF1C4B3CE0F4F62A2BAE7EB3E68225C75F7E6FF4422073B7437B9A78D25F170 CALLER DUP3 CALLVALUE PUSH1 0x40 MLOAD PUSH2 0x20F SWAP4 SWAP3 SWAP2 SWAP1 PUSH2 0x555 JUMP JUMPDEST PUSH1 0x40 MLOAD DUP1 SWAP2 SUB SWAP1 LOG1 POP JUMP JUMPDEST DUP2 DUP2 PUSH0 SWAP2 DUP3 PUSH2 0x22A SWAP3 SWAP2 SWAP1 PUSH2 0x755 JUMP JUMPDEST POP PUSH32 0x50CCCF40D174CBA784CC6C10D8511123E07DBFCBBFE39E7E0ACE01675A688BC2 DUP3 DUP3 PUSH1 0x40 MLOAD PUSH2 0x25C SWAP3 SWAP2 SWAP1 PUSH2 0x85C JUMP JUMPDEST PUSH1 0x40 MLOAD DUP1 SWAP2 SUB SWAP1 LOG1 POP POP JUMP JUMPDEST PUSH1 0x1 SLOAD DUP2 JUMP JUMPDEST DUP2 DUP2 PUSH0 SWAP2 DUP3 PUSH2 0x27E SWAP3 SWAP2 SWAP1 PUSH2 0x755 JUMP JUMPDEST POP POP POP JUMP JUMPDEST PUSH0 DUP2 MLOAD SWAP1 POP SWAP2 SWAP1 POP JUMP JUMPDEST PUSH0 DUP3 DUP3 MSTORE PUSH1 0x20 DUP3 ADD SWAP1 POP SWAP3 SWAP2 POP POP JUMP JUMPDEST DUP3 DUP2 DUP4 MCOPY PUSH0 DUP4 DUP4 ADD MSTORE POP POP POP JUMP JUMPDEST PUSH0 PUSH1 0x1F NOT PUSH1 0x1F DUP4 ADD AND SWAP1 POP SWAP2 SWAP1 POP JUMP JUMPDEST PUSH0 PUSH2 0x2C5 DUP3 PUSH2 0x283 JUMP JUMPDEST PUSH2 0x2CF DUP2 DUP6 PUSH2 0x28D JUMP JUMPDEST SWAP4 POP PUSH2 0x2DF DUP2 DUP6 PUSH1 0x20 DUP7 ADD PUSH2 0x29D JUMP JUMPDEST PUSH2 0x2E8 DUP2 PUSH2 0x2AB JUMP JUMPDEST DUP5 ADD SWAP2 POP POP SWAP3 SWAP2 POP POP JUMP JUMPDEST PUSH0 PUSH1 0x20 DUP3 ADD SWAP1 POP DUP2 DUP2 SUB PUSH0 DUP4 ADD MSTORE PUSH2 0x30B DUP2 DUP5 PUSH2 0x2BB JUMP JUMPDEST SWAP1 POP SWAP3 SWAP2 POP POP JUMP JUMPDEST PUSH0 DUP1 REVERT JUMPDEST PUSH0 DUP1 REVERT JUMPDEST PUSH0 PUSH20 0xFFFFFFFFFFFFFFFFFFFFFFFFFFFFFFFFFFFFFFFF DUP3 AND SWAP1 POP SWAP2 SWAP1 POP JUMP JUMPDEST PUSH0 PUSH2 0x344 DUP3 PUSH2 0x31B JUMP JUMPDEST SWAP1 POP SWAP2 SWAP1 POP JUMP JUMPDEST PUSH2 0x354 DUP2 PUSH2 0x33A JUMP JUMPDEST DUP2 EQ PUSH2 0x35E JUMPI PUSH0 DUP1 REVERT JUMPDEST POP JUMP JUMPDEST PUSH0 DUP2 CALLDATALOAD SWAP1 POP PUSH2 0x36F DUP2 PUSH2 0x34B JUMP JUMPDEST SWAP3 SWAP2 POP POP JUMP JUMPDEST PUSH0 PUSH1 0x20 DUP3 DUP5 SUB SLT ISZERO PUSH2 0x38A JUMPI PUSH2 0x389 PUSH2 0x313 JUMP JUMPDEST JUMPDEST PUSH0 PUSH2 0x397 DUP5 DUP3 DUP6 ADD PUSH2 0x361 JUMP JUMPDEST SWAP2 POP POP SWAP3 SWAP2 POP POP JUMP JUMPDEST PUSH0 DUP1 REVERT JUMPDEST PUSH0 DUP1 REVERT JUMPDEST PUSH0 DUP1 REVERT JUMPDEST PUSH0 DUP1 DUP4 PUSH1 0x1F DUP5 ADD SLT PUSH2 0x3C1 JUMPI PUSH2 0x3C0 PUSH2 0x3A0 JUMP JUMPDEST JUMPDEST DUP3 CALLDATALOAD SWAP1 POP PUSH8 0xFFFFFFFFFFFFFFFF DUP2 GT ISZERO PUSH2 0x3DE JUMPI PUSH2 0x3DD PUSH2 0x3A4 JUMP JUMPDEST JUMPDEST PUSH1 0x20 DUP4 ADD SWAP2 POP DUP4 PUSH1 0x1 DUP3 MUL DUP4 ADD GT ISZERO PUSH2 0x3FA JUMPI PUSH2 0x3F9 PUSH2 0x3A8 JUMP JUMPDEST JUMPDEST SWAP3 POP SWAP3 SWAP1 POP JUMP JUMPDEST PUSH0 DUP1 PUSH1 0x20 DUP4 DUP6 SUB SLT ISZERO PUSH2 0x417 JUMPI PUSH2 0x416 PUSH2 0x313 JUMP JUMPDEST JUMPDEST PUSH0 DUP4 ADD CALLDATALOAD PUSH8 0xFFFFFFFFFFFFFFFF DUP2 GT ISZERO PUSH2 0x434 JUMPI PUSH2 0x433 PUSH2 0x317 JUMP JUMPDEST JUMPDEST PUSH2 0x440 DUP6 DUP3 DUP7 ADD PUSH2 0x3AC JUMP JUMPDEST SWAP3 POP SWAP3 POP POP SWAP3 POP SWAP3 SWAP1 POP JUMP JUMPDEST PUSH0 DUP2 SWAP1 POP SWAP2 SWAP1 POP JUMP JUMPDEST PUSH2 0x45E DUP2 PUSH2 0x44C JUMP JUMPDEST DUP3 MSTORE POP POP JUMP JUMPDEST PUSH0 PUSH1 0x20 DUP3 ADD SWAP1 POP PUSH2 0x477 PUSH0 DUP4 ADD DUP5 PUSH2 0x455 JUMP JUMPDEST SWAP3 SWAP2 POP POP JUMP JUMPDEST PUSH32 0x4E487B7100000000000000000000000000000000000000000000000000000000 PUSH0 MSTORE PUSH1 0x22 PUSH1 0x4 MSTORE PUSH1 0x24 PUSH0 REVERT JUMPDEST PUSH0 PUSH1 0x2 DUP3 DIV SWAP1 POP PUSH1 0x1 DUP3 AND DUP1 PUSH2 0x4C1 JUMPI PUSH1 0x7F DUP3 AND SWAP2 POP JUMPDEST PUSH1 0x20 DUP3 LT DUP2 SUB PUSH2 0x4D4 JUMPI PUSH2 0x4D3 PUSH2 0x47D JUMP JUMPDEST JUMPDEST POP SWAP2 SWAP1 POP JUMP JUMPDEST PUSH0 PUSH2 0x4E4 DUP3 PUSH2 0x31B JUMP JUMPDEST SWAP1 POP SWAP2 SWAP1 POP JUMP JUMPDEST PUSH2 0x4F4 DUP2 PUSH2 0x4DA JUMP JUMPDEST DUP3 MSTORE POP POP JUMP JUMPDEST PUSH0 DUP2 SWAP1 POP SWAP2 SWAP1 POP JUMP JUMPDEST PUSH0 PUSH2 0x51D PUSH2 0x518 PUSH2 0x513 DUP5 PUSH2 0x31B JUMP JUMPDEST PUSH2 0x4FA JUMP JUMPDEST PUSH2 0x31B JUMP JUMPDEST SWAP1 POP SWAP2 SWAP1 POP JUMP JUMPDEST PUSH0 PUSH2 0x52E DUP3 PUSH2 0x503 JUMP JUMPDEST SWAP1 POP SWAP2 SWAP1 POP JUMP JUMPDEST PUSH0 PUSH2 0x53F DUP3 PUSH2 0x524 JUMP JUMPDEST SWAP1 POP SWAP2 SWAP1 POP JUMP JUMPDEST PUSH2 0x54F DUP2 PUSH2 0x535 JUMP JUMPDEST DUP3 MSTORE POP POP JUMP JUMPDEST PUSH0 PUSH1 0x60 DUP3 ADD SWAP1 POP PUSH2 0x568 PUSH0 DUP4 ADD DUP7 PUSH2 0x4EB JUMP JUMPDEST PUSH2 0x575 PUSH1 0x20 DUP4 ADD DUP6 PUSH2 0x546 JUMP JUMPDEST PUSH2 0x582 PUSH1 0x40 DUP4 ADD DUP5 PUSH2 0x455 JUMP JUMPDEST SWAP5 SWAP4 POP POP POP POP JUMP JUMPDEST PUSH0 DUP3 SWAP1 POP SWAP3 SWAP2 POP POP JUMP JUMPDEST PUSH32 0x4E487B7100000000000000000000000000000000000000000000000000000000 PUSH0 MSTORE PUSH1 0x41 PUSH1 0x4 MSTORE PUSH1 0x24 PUSH0 REVERT JUMPDEST PUSH0 DUP2 SWAP1 POP DUP2 PUSH0 MSTORE PUSH1 0x20 PUSH0 KECCAK256 SWAP1 POP SWAP2 SWAP1 POP JUMP JUMPDEST PUSH0 PUSH1 0x20 PUSH1 0x1F DUP4 ADD DIV SWAP1 POP SWAP2 SWAP1 POP JUMP JUMPDEST PUSH0 DUP3 DUP3 SHL SWAP1 POP SWAP3 SWAP2 POP POP JUMP JUMPDEST PUSH0 PUSH1 0x8 DUP4 MUL PUSH2 0x61D PUSH32 0xFFFFFFFFFFFFFFFFFFFFFFFFFFFFFFFFFFFFFFFFFFFFFFFFFFFFFFFFFFFFFFFF DUP3 PUSH2 0x5E2 JUMP JUMPDEST PUSH2 0x627 DUP7 DUP4 PUSH2 0x5E2 JUMP JUMPDEST SWAP6 POP DUP1 NOT DUP5 AND SWAP4 POP DUP1 DUP7 AND DUP5 OR SWAP3 POP POP POP SWAP4 SWAP3 POP POP POP JUMP JUMPDEST PUSH0 PUSH2 0x659 PUSH2 0x654 PUSH2 0x64F DUP5 PUSH2 0x44C JUMP JUMPDEST PUSH2 0x4FA JUMP JUMPDEST PUSH2 0x44C JUMP JUMPDEST SWAP1 POP SWAP2 SWAP1 POP JUMP JUMPDEST PUSH0 DUP2 SWAP1 POP SWAP2 SWAP1 POP JUMP JUMPDEST PUSH2 0x672 DUP4 PUSH2 0x63F JUMP JUMPDEST PUSH2 0x686 PUSH2 0x67E DUP3 PUSH2 0x660 JUMP JUMPDEST DUP5 DUP5 SLOAD PUSH2 0x5EE JUMP JUMPDEST DUP3 SSTORE POP POP POP POP JUMP JUMPDEST PUSH0 SWAP1 JUMP JUMPDEST PUSH2 0x69A PUSH2 0x68E JUMP JUMPDEST PUSH2 0x6A5 DUP2 DUP5 DUP5 PUSH2 0x669 JUMP JUMPDEST POP POP POP JUMP JUMPDEST JUMPDEST DUP2 DUP2 LT ISZERO PUSH2 0x6C8 JUMPI PUSH2 0x6BD PUSH0 DUP3 PUSH2 0x692 JUMP JUMPDEST PUSH1 0x1 DUP2 ADD SWAP1 POP PUSH2 0x6AB JUMP JUMPDEST POP POP JUMP JUMPDEST PUSH1 0x1F DUP3 GT ISZERO PUSH2 0x70D JUMPI PUSH2 0x6DE DUP2 PUSH2 0x5C1 JUMP JUMPDEST PUSH2 0x6E7 DUP5 PUSH2 0x5D3 JUMP JUMPDEST DUP2 ADD PUSH1 0x20 DUP6 LT ISZERO PUSH2 0x6F6 JUMPI DUP2 SWAP1 POP JUMPDEST PUSH2 0x70A PUSH2 0x702 DUP6 PUSH2 0x5D3 JUMP JUMPDEST DUP4 ADD DUP3 PUSH2 0x6AA JUMP JUMPDEST POP POP JUMPDEST POP POP POP JUMP JUMPDEST PUSH0 DUP3 DUP3 SHR SWAP1 POP SWAP3 SWAP2 POP POP JUMP JUMPDEST PUSH0 PUSH2 0x72D PUSH0 NOT DUP5 PUSH1 0x8 MUL PUSH2 0x712 JUMP JUMPDEST NOT DUP1 DUP4 AND SWAP2 POP POP SWAP3 SWAP2 POP POP JUMP JUMPDEST PUSH0 PUSH2 0x745 DUP4 DUP4 PUSH2 0x71E JUMP JUMPDEST SWAP2 POP DUP3 PUSH1 0x2 MUL DUP3 OR SWAP1 POP SWAP3 SWAP2 POP POP JUMP JUMPDEST PUSH2 0x75F DUP4 DUP4 PUSH2 0x58A JUMP JUMPDEST PUSH8 0xFFFFFFFFFFFFFFFF DUP2 GT ISZERO PUSH2 0x778 JUMPI PUSH2 0x777 PUSH2 0x594 JUMP JUMPDEST JUMPDEST PUSH2 0x782 DUP3 SLOAD PUSH2 0x4AA JUMP JUMPDEST PUSH2 0x78D DUP3 DUP3 DUP6 PUSH2 0x6CC JUMP JUMPDEST PUSH0 PUSH1 0x1F DUP4 GT PUSH1 0x1 DUP2 EQ PUSH2 0x7BA JUMPI PUSH0 DUP5 ISZERO PUSH2 0x7A8 JUMPI DUP3 DUP8 ADD CALLDATALOAD SWAP1 POP JUMPDEST PUSH2 0x7B2 DUP6 DUP3 PUSH2 0x73A JUMP JUMPDEST DUP7 SSTORE POP PUSH2 0x819 JUMP JUMPDEST PUSH1 0x1F NOT DUP5 AND PUSH2 0x7C8 DUP7 PUSH2 0x5C1 JUMP JUMPDEST PUSH0 JUMPDEST DUP3 DUP2 LT ISZERO PUSH2 0x7EF JUMPI DUP5 DUP10 ADD CALLDATALOAD DUP3 SSTORE PUSH1 0x1 DUP3 ADD SWAP2 POP PUSH1 0x20 DUP6 ADD SWAP5 POP PUSH1 0x20 DUP2 ADD SWAP1 POP PUSH2 0x7CA JUMP JUMPDEST DUP7 DUP4 LT ISZERO PUSH2 0x80C JUMPI DUP5 DUP10 ADD CALLDATALOAD PUSH2 0x808 PUSH1 0x1F DUP10 AND DUP3 PUSH2 0x71E JUMP JUMPDEST DUP4 SSTORE POP JUMPDEST PUSH1 0x1 PUSH1 0x2 DUP9 MUL ADD DUP9 SSTORE POP POP POP JUMPDEST POP POP POP POP POP POP POP JUMP JUMPDEST DUP3 DUP2 DUP4 CALLDATACOPY PUSH0 DUP4 DUP4 ADD MSTORE POP POP POP JUMP JUMPDEST PUSH0 PUSH2 0x83B DUP4 DUP6 PUSH2 0x28D JUMP JUMPDEST SWAP4 POP PUSH2 0x848 DUP4 DUP6 DUP5 PUSH2 0x822 JUMP JUMPDEST PUSH2 0x851 DUP4 PUSH2 0x2AB JUMP JUMPDEST DUP5 ADD SWAP1 POP SWAP4 SWAP3 POP POP POP JUMP JUMPDEST PUSH0 PUSH1 0x20 DUP3 ADD SWAP1 POP DUP2 DUP2 SUB PUSH0 DUP4 ADD MSTORE PUSH2 0x875 DUP2 DUP5 DUP7 PUSH2 0x830 JUMP JUMPDEST SWAP1 POP SWAP4 SWAP3 POP POP POP JUMP INVALID LOG2 PUSH5 0x6970667358 0x22 SLT KECCAK256 0x1E GASPRICE EXTCODEHASH DUP9 SWAP10 0xEC RETURNDATACOPY CODECOPY DUP11 0xD3 DUP14 PUSH17 0x417C3F952545AFB68B382B21566B706DD SWAP8 LOG1 PUSH18 0x64736F6C634300081A003300000000000000 "
				},
				"gasEstimates": {
					"creation": {
						"codeDepositCost": "445600",
						"executionCost": "infinite",
						"totalCost": "infinite"
					},
					"external": {
						"changeId(string)": "infinite",
						"changeName(string)": "infinite",
						"id()": "2469",
						"name()": "infinite",
						"transfer(address)": "infinite"
					}
				},
				"methodIdentifiers": {
					"changeId(string)": "da9ab565",
					"changeName(string)": "5353a2d8",
					"id()": "af640d0f",
					"name()": "06fdde03",
					"transfer(address)": "1a695230"
				}
			},
			"storageLayout": {
				"storage": [
					{
						"astId": 16,
						"contract": "Day-04/code1.sol:Transfer",
						"label": "name",
						"offset": 0,
						"slot": "0",
						"type": "t_string_storage"
					},
					{
						"astId": 19,
						"contract": "Day-04/code1.sol:Transfer",
						"label": "id",
						"offset": 0,
						"slot": "1",
						"type": "t_uint256"
					}
				],
				"types": {
					"t_string_storage": {
						"encoding": "bytes",
						"label": "string",
						"numberOfBytes": "32"
					},
					"t_uint256": {
						"encoding": "inplace",
						"label": "uint256",
						"numberOfBytes": "32"
					}
				}
			},
			"userdoc": {
				"kind": "user",
				"methods": {},
				"version": 1
			}
		}
	}
}