{
	"Day-19/code1.sol": {
		"SimpleBank": {
			"abi": [
				{
					"inputs": [],
					"stateMutability": "nonpayable",
					"type": "constructor"
				},
				{
					"anonymous": false,
					"inputs": [
						{
							"indexed": true,
							"internalType": "address",
							"name": "account",
							"type": "address"
						},
						{
							"indexed": false,
							"internalType": "uint256",
							"name": "amount",
							"type": "uint256"
						}
					],
					"name": "Deposit",
					"type": "event"
				},
				{
					"anonymous": false,
					"inputs": [
						{
							"indexed": true,
							"internalType": "address",
							"name": "account",
							"type": "address"
						},
						{
							"indexed": false,
							"internalType": "uint256",
							"name": "amount",
							"type": "uint256"
						}
					],
					"name": "Withdrawal",
					"type": "event"
				},
				{
					"inputs": [],
					"name": "deposit",
					"outputs": [],
					"stateMutability": "payable",
					"type": "function"
				},
				{
					"inputs": [],
					"name": "getBalance",
					"outputs": [
						{
							"internalType": "uint256",
							"name": "",
							"type": "uint256"
						}
					],
					"stateMutability": "view",
					"type": "function"
				},
				{
					"inputs": [
						{
							"internalType": "address",
							"name": "account",
							"type": "address"
						}
					],
					"name": "getBalanceOf",
					"outputs": [
						{
							"internalType": "uint256",
							"name": "",
							"type": "uint256"
						}
					],
					"stateMutability": "view",
					"type": "function"
				},
				{
					"inputs": [],
					"name": "owner",
					"outputs": [
						{
							"internalType": "address",
							"name": "",
							"type": "address"
						}
					],
					"stateMutability": "view",
					"type": "function"
				},
				{
					"inputs": [
						{
							"internalType": "uint256",
							"name": "amount",
							"type": "uint256"
						}
					],
					"name": "withdraw",
					"outputs": [],
					"stateMutability": "nonpayable",
					"type": "function"
				}
			],
			"devdoc": {
				"kind": "dev",
				"methods": {},
				"version": 1
			},
			"evm": {
				"assembly": "    /* \"Day-19/code1.sol\":60:1691  contract SimpleBank{... */\n  mstore(0x40, 0x80)\n    /* \"Day-19/code1.sol\":464:514  constructor(){... */\n  callvalue\n  dup1\n  iszero\n  tag_1\n  jumpi\n  0x00\n  dup1\n  revert\ntag_1:\n  pop\n    /* \"Day-19/code1.sol\":496:506  msg.sender */\n  caller\n    /* \"Day-19/code1.sol\":488:493  owner */\n  0x00\n  dup1\n    /* \"Day-19/code1.sol\":488:506  owner = msg.sender */\n  0x0100\n  exp\n  dup2\n  sload\n  dup2\n  0xffffffffffffffffffffffffffffffffffffffff\n  mul\n  not\n  and\n  swap1\n  dup4\n  0xffffffffffffffffffffffffffffffffffffffff\n  and\n  mul\n  or\n  swap1\n  sstore\n  pop\n    /* \"Day-19/code1.sol\":60:1691  contract SimpleBank{... */\n  dataSize(sub_0)\n  dup1\n  dataOffset(sub_0)\n  0x00\n  codecopy\n  0x00\n  return\nstop\n\nsub_0: assembly {\n        /* \"Day-19/code1.sol\":60:1691  contract SimpleBank{... */\n      mstore(0x40, 0x80)\n      jumpi(tag_1, lt(calldatasize, 0x04))\n      shr(0xe0, calldataload(0x00))\n      dup1\n      0x12065fe0\n      eq\n      tag_2\n      jumpi\n      dup1\n      0x2e1a7d4d\n      eq\n      tag_3\n      jumpi\n      dup1\n      0x8da5cb5b\n      eq\n      tag_4\n      jumpi\n      dup1\n      0x9b96eece\n      eq\n      tag_5\n      jumpi\n      dup1\n      0xd0e30db0\n      eq\n      tag_6\n      jumpi\n    tag_1:\n      0x00\n      dup1\n      revert\n        /* \"Day-19/code1.sol\":1219:1315  function getBalance() public view returns(uint256){... */\n    tag_2:\n      callvalue\n      dup1\n      iszero\n      tag_7\n      jumpi\n      0x00\n      dup1\n      revert\n    tag_7:\n      pop\n      tag_8\n      tag_9\n      jump\t// in\n    tag_8:\n      mload(0x40)\n      tag_10\n      swap2\n      swap1\n      tag_11\n      jump\t// in\n    tag_10:\n      mload(0x40)\n      dup1\n      swap2\n      sub\n      swap1\n      return\n        /* \"Day-19/code1.sol\":828:1160  function withdraw(uint256 amount) public {... */\n    tag_3:\n      callvalue\n      dup1\n      iszero\n      tag_12\n      jumpi\n      0x00\n      dup1\n      revert\n    tag_12:\n      pop\n      tag_13\n      0x04\n      dup1\n      calldatasize\n      sub\n      dup2\n      add\n      swap1\n      tag_14\n      swap2\n      swap1\n      tag_15\n      jump\t// in\n    tag_14:\n      tag_16\n      jump\t// in\n    tag_13:\n      stop\n        /* \"Day-19/code1.sol\":115:136  address public  owner */\n    tag_4:\n      callvalue\n      dup1\n      iszero\n      tag_17\n      jumpi\n      0x00\n      dup1\n      revert\n    tag_17:\n      pop\n      tag_18\n      tag_19\n      jump\t// in\n    tag_18:\n      mload(0x40)\n      tag_20\n      swap2\n      swap1\n      tag_21\n      jump\t// in\n    tag_20:\n      mload(0x40)\n      dup1\n      swap2\n      sub\n      swap1\n      return\n        /* \"Day-19/code1.sol\":1387:1507  function getBalanceOf(address account) public view onlyOwner returns(uint256){... */\n    tag_5:\n      callvalue\n      dup1\n      iszero\n      tag_22\n      jumpi\n      0x00\n      dup1\n      revert\n    tag_22:\n      pop\n      tag_23\n      0x04\n      dup1\n      calldatasize\n      sub\n      dup2\n      add\n      swap1\n      tag_24\n      swap2\n      swap1\n      tag_25\n      jump\t// in\n    tag_24:\n      tag_26\n      jump\t// in\n    tag_23:\n      mload(0x40)\n      tag_27\n      swap2\n      swap1\n      tag_11\n      jump\t// in\n    tag_27:\n      mload(0x40)\n      dup1\n      swap2\n      sub\n      swap1\n      return\n        /* \"Day-19/code1.sol\":570:771  function deposit() public payable {... */\n    tag_6:\n      tag_28\n      tag_29\n      jump\t// in\n    tag_28:\n      stop\n        /* \"Day-19/code1.sol\":1219:1315  function getBalance() public view returns(uint256){... */\n    tag_9:\n        /* \"Day-19/code1.sol\":1261:1268  uint256 */\n      0x00\n        /* \"Day-19/code1.sol\":1287:1295  balances */\n      0x01\n        /* \"Day-19/code1.sol\":1287:1307  balances[msg.sender] */\n      0x00\n        /* \"Day-19/code1.sol\":1296:1306  msg.sender */\n      caller\n        /* \"Day-19/code1.sol\":1287:1307  balances[msg.sender] */\n      0xffffffffffffffffffffffffffffffffffffffff\n      and\n      0xffffffffffffffffffffffffffffffffffffffff\n      and\n      dup2\n      mstore\n      0x20\n      add\n      swap1\n      dup2\n      mstore\n      0x20\n      add\n      0x00\n      keccak256\n      sload\n        /* \"Day-19/code1.sol\":1280:1307  return balances[msg.sender] */\n      swap1\n      pop\n        /* \"Day-19/code1.sol\":1219:1315  function getBalance() public view returns(uint256){... */\n      swap1\n      jump\t// out\n        /* \"Day-19/code1.sol\":828:1160  function withdraw(uint256 amount) public {... */\n    tag_16:\n        /* \"Day-19/code1.sol\":897:898  0 */\n      0x00\n        /* \"Day-19/code1.sol\":888:894  amount */\n      dup2\n        /* \"Day-19/code1.sol\":888:898  amount > 0 */\n      gt\n        /* \"Day-19/code1.sol\":880:943  require(amount > 0, \"Withdrawal amount must be greater than 0\") */\n      tag_32\n      jumpi\n      mload(0x40)\n      0x08c379a000000000000000000000000000000000000000000000000000000000\n      dup2\n      mstore\n      0x04\n      add\n      tag_33\n      swap1\n      tag_34\n      jump\t// in\n    tag_33:\n      mload(0x40)\n      dup1\n      swap2\n      sub\n      swap1\n      revert\n    tag_32:\n        /* \"Day-19/code1.sol\":986:992  amount */\n      dup1\n        /* \"Day-19/code1.sol\":962:970  balances */\n      0x01\n        /* \"Day-19/code1.sol\":962:982  balances[msg.sender] */\n      0x00\n        /* \"Day-19/code1.sol\":971:981  msg.sender */\n      caller\n        /* \"Day-19/code1.sol\":962:982  balances[msg.sender] */\n      0xffffffffffffffffffffffffffffffffffffffff\n      and\n      0xffffffffffffffffffffffffffffffffffffffff\n      and\n      dup2\n      mstore\n      0x20\n      add\n      swap1\n      dup2\n      mstore\n      0x20\n      add\n      0x00\n      keccak256\n      sload\n        /* \"Day-19/code1.sol\":962:992  balances[msg.sender] >= amount */\n      lt\n      iszero\n        /* \"Day-19/code1.sol\":954:1016  require(balances[msg.sender] >= amount, \"Insufficiet balance\") */\n      tag_35\n      jumpi\n      mload(0x40)\n      0x08c379a000000000000000000000000000000000000000000000000000000000\n      dup2\n      mstore\n      0x04\n      add\n      tag_36\n      swap1\n      tag_37\n      jump\t// in\n    tag_36:\n      mload(0x40)\n      dup1\n      swap2\n      sub\n      swap1\n      revert\n    tag_35:\n        /* \"Day-19/code1.sol\":1053:1059  amount */\n      dup1\n        /* \"Day-19/code1.sol\":1029:1037  balances */\n      0x01\n        /* \"Day-19/code1.sol\":1029:1049  balances[msg.sender] */\n      0x00\n        /* \"Day-19/code1.sol\":1038:1048  msg.sender */\n      caller\n        /* \"Day-19/code1.sol\":1029:1049  balances[msg.sender] */\n      0xffffffffffffffffffffffffffffffffffffffff\n      and\n      0xffffffffffffffffffffffffffffffffffffffff\n      and\n      dup2\n      mstore\n      0x20\n      add\n      swap1\n      dup2\n      mstore\n      0x20\n      add\n      0x00\n      keccak256\n      0x00\n        /* \"Day-19/code1.sol\":1029:1059  balances[msg.sender] -= amount */\n      dup3\n      dup3\n      sload\n      tag_38\n      swap2\n      swap1\n      tag_39\n      jump\t// in\n    tag_38:\n      swap3\n      pop\n      pop\n      dup2\n      swap1\n      sstore\n      pop\n        /* \"Day-19/code1.sol\":1078:1088  msg.sender */\n      caller\n        /* \"Day-19/code1.sol\":1070:1098  payable(msg.sender).transfer */\n      0xffffffffffffffffffffffffffffffffffffffff\n      and\n        /* \"Day-19/code1.sol\":1070:1106  payable(msg.sender).transfer(amount) */\n      0x08fc\n        /* \"Day-19/code1.sol\":1099:1105  amount */\n      dup3\n        /* \"Day-19/code1.sol\":1070:1106  payable(msg.sender).transfer(amount) */\n      swap1\n      dup2\n      iszero\n      mul\n      swap1\n      mload(0x40)\n      0x00\n      mload(0x40)\n      dup1\n      dup4\n      sub\n      dup2\n      dup6\n      dup9\n      dup9\n      call\n      swap4\n      pop\n      pop\n      pop\n      pop\n      iszero\n      dup1\n      iszero\n      tag_41\n      jumpi\n      returndatasize\n      0x00\n      dup1\n      returndatacopy\n      revert(0x00, returndatasize)\n    tag_41:\n      pop\n        /* \"Day-19/code1.sol\":1133:1143  msg.sender */\n      caller\n        /* \"Day-19/code1.sol\":1122:1152  Withdrawal(msg.sender, amount) */\n      0xffffffffffffffffffffffffffffffffffffffff\n      and\n      0x7fcf532c15f0a6db0bd6d0e038bea71d30d808c7d98cb3bf7268a95bf5081b65\n        /* \"Day-19/code1.sol\":1145:1151  amount */\n      dup3\n        /* \"Day-19/code1.sol\":1122:1152  Withdrawal(msg.sender, amount) */\n      mload(0x40)\n      tag_42\n      swap2\n      swap1\n      tag_11\n      jump\t// in\n    tag_42:\n      mload(0x40)\n      dup1\n      swap2\n      sub\n      swap1\n      log2\n        /* \"Day-19/code1.sol\":828:1160  function withdraw(uint256 amount) public {... */\n      pop\n      jump\t// out\n        /* \"Day-19/code1.sol\":115:136  address public  owner */\n    tag_19:\n      0x00\n      dup1\n      sload\n      swap1\n      0x0100\n      exp\n      swap1\n      div\n      0xffffffffffffffffffffffffffffffffffffffff\n      and\n      dup2\n      jump\t// out\n        /* \"Day-19/code1.sol\":1387:1507  function getBalanceOf(address account) public view onlyOwner returns(uint256){... */\n    tag_26:\n        /* \"Day-19/code1.sol\":1456:1463  uint256 */\n      0x00\n        /* \"Day-19/code1.sol\":1621:1626  owner */\n      dup1\n      0x00\n      swap1\n      sload\n      swap1\n      0x0100\n      exp\n      swap1\n      div\n      0xffffffffffffffffffffffffffffffffffffffff\n      and\n        /* \"Day-19/code1.sol\":1607:1626  msg.sender == owner */\n      0xffffffffffffffffffffffffffffffffffffffff\n      and\n        /* \"Day-19/code1.sol\":1607:1617  msg.sender */\n      caller\n        /* \"Day-19/code1.sol\":1607:1626  msg.sender == owner */\n      0xffffffffffffffffffffffffffffffffffffffff\n      and\n      eq\n        /* \"Day-19/code1.sol\":1599:1668  require(msg.sender == owner, \"Only the owner can call this function\") */\n      tag_44\n      jumpi\n      mload(0x40)\n      0x08c379a000000000000000000000000000000000000000000000000000000000\n      dup2\n      mstore\n      0x04\n      add\n      tag_45\n      swap1\n      tag_46\n      jump\t// in\n    tag_45:\n      mload(0x40)\n      dup1\n      swap2\n      sub\n      swap1\n      revert\n    tag_44:\n        /* \"Day-19/code1.sol\":1482:1490  balances */\n      0x01\n        /* \"Day-19/code1.sol\":1482:1499  balances[account] */\n      0x00\n        /* \"Day-19/code1.sol\":1491:1498  account */\n      dup4\n        /* \"Day-19/code1.sol\":1482:1499  balances[account] */\n      0xffffffffffffffffffffffffffffffffffffffff\n      and\n      0xffffffffffffffffffffffffffffffffffffffff\n      and\n      dup2\n      mstore\n      0x20\n      add\n      swap1\n      dup2\n      mstore\n      0x20\n      add\n      0x00\n      keccak256\n      sload\n        /* \"Day-19/code1.sol\":1475:1499  return balances[account] */\n      swap1\n      pop\n        /* \"Day-19/code1.sol\":1387:1507  function getBalanceOf(address account) public view onlyOwner returns(uint256){... */\n      swap2\n      swap1\n      pop\n      jump\t// out\n        /* \"Day-19/code1.sol\":570:771  function deposit() public payable {... */\n    tag_29:\n        /* \"Day-19/code1.sol\":635:636  0 */\n      0x00\n        /* \"Day-19/code1.sol\":623:632  msg.value */\n      callvalue\n        /* \"Day-19/code1.sol\":623:636  msg.value > 0 */\n      gt\n        /* \"Day-19/code1.sol\":615:673  require(msg.value > 0, \"Deposit amount be greater than 0\") */\n      tag_49\n      jumpi\n      mload(0x40)\n      0x08c379a000000000000000000000000000000000000000000000000000000000\n      dup2\n      mstore\n      0x04\n      add\n      tag_50\n      swap1\n      tag_51\n      jump\t// in\n    tag_50:\n      mload(0x40)\n      dup1\n      swap2\n      sub\n      swap1\n      revert\n    tag_49:\n        /* \"Day-19/code1.sol\":708:717  msg.value */\n      callvalue\n        /* \"Day-19/code1.sol\":684:692  balances */\n      0x01\n        /* \"Day-19/code1.sol\":684:704  balances[msg.sender] */\n      0x00\n        /* \"Day-19/code1.sol\":693:703  msg.sender */\n      caller\n        /* \"Day-19/code1.sol\":684:704  balances[msg.sender] */\n      0xffffffffffffffffffffffffffffffffffffffff\n      and\n      0xffffffffffffffffffffffffffffffffffffffff\n      and\n      dup2\n      mstore\n      0x20\n      add\n      swap1\n      dup2\n      mstore\n      0x20\n      add\n      0x00\n      keccak256\n      0x00\n        /* \"Day-19/code1.sol\":684:717  balances[msg.sender] += msg.value */\n      dup3\n      dup3\n      sload\n      tag_52\n      swap2\n      swap1\n      tag_53\n      jump\t// in\n    tag_52:\n      swap3\n      pop\n      pop\n      dup2\n      swap1\n      sstore\n      pop\n        /* \"Day-19/code1.sol\":741:751  msg.sender */\n      caller\n        /* \"Day-19/code1.sol\":733:763  Deposit(msg.sender, msg.value) */\n      0xffffffffffffffffffffffffffffffffffffffff\n      and\n      0xe1fffcc4923d04b559f4d29a8bfc6cda04eb5b0d3c460751c2402c5c5cc9109c\n        /* \"Day-19/code1.sol\":753:762  msg.value */\n      callvalue\n        /* \"Day-19/code1.sol\":733:763  Deposit(msg.sender, msg.value) */\n      mload(0x40)\n      tag_54\n      swap2\n      swap1\n      tag_11\n      jump\t// in\n    tag_54:\n      mload(0x40)\n      dup1\n      swap2\n      sub\n      swap1\n      log2\n        /* \"Day-19/code1.sol\":570:771  function deposit() public payable {... */\n      jump\t// out\n        /* \"#utility.yul\":7:84   */\n    tag_55:\n        /* \"#utility.yul\":44:51   */\n      0x00\n        /* \"#utility.yul\":73:78   */\n      dup2\n        /* \"#utility.yul\":62:78   */\n      swap1\n      pop\n        /* \"#utility.yul\":7:84   */\n      swap2\n      swap1\n      pop\n      jump\t// out\n        /* \"#utility.yul\":90:208   */\n    tag_56:\n        /* \"#utility.yul\":177:201   */\n      tag_80\n        /* \"#utility.yul\":195:200   */\n      dup2\n        /* \"#utility.yul\":177:201   */\n      tag_55\n      jump\t// in\n    tag_80:\n        /* \"#utility.yul\":172:175   */\n      dup3\n        /* \"#utility.yul\":165:202   */\n      mstore\n        /* \"#utility.yul\":90:208   */\n      pop\n      pop\n      jump\t// out\n        /* \"#utility.yul\":214:436   */\n    tag_11:\n        /* \"#utility.yul\":307:311   */\n      0x00\n        /* \"#utility.yul\":345:347   */\n      0x20\n        /* \"#utility.yul\":334:343   */\n      dup3\n        /* \"#utility.yul\":330:348   */\n      add\n        /* \"#utility.yul\":322:348   */\n      swap1\n      pop\n        /* \"#utility.yul\":358:429   */\n      tag_82\n        /* \"#utility.yul\":426:427   */\n      0x00\n        /* \"#utility.yul\":415:424   */\n      dup4\n        /* \"#utility.yul\":411:428   */\n      add\n        /* \"#utility.yul\":402:408   */\n      dup5\n        /* \"#utility.yul\":358:429   */\n      tag_56\n      jump\t// in\n    tag_82:\n        /* \"#utility.yul\":214:436   */\n      swap3\n      swap2\n      pop\n      pop\n      jump\t// out\n        /* \"#utility.yul\":523:640   */\n    tag_58:\n        /* \"#utility.yul\":632:633   */\n      0x00\n        /* \"#utility.yul\":629:630   */\n      dup1\n        /* \"#utility.yul\":622:634   */\n      revert\n        /* \"#utility.yul\":769:891   */\n    tag_60:\n        /* \"#utility.yul\":842:866   */\n      tag_87\n        /* \"#utility.yul\":860:865   */\n      dup2\n        /* \"#utility.yul\":842:866   */\n      tag_55\n      jump\t// in\n    tag_87:\n        /* \"#utility.yul\":835:840   */\n      dup2\n        /* \"#utility.yul\":832:867   */\n      eq\n        /* \"#utility.yul\":822:885   */\n      tag_88\n      jumpi\n        /* \"#utility.yul\":881:882   */\n      0x00\n        /* \"#utility.yul\":878:879   */\n      dup1\n        /* \"#utility.yul\":871:883   */\n      revert\n        /* \"#utility.yul\":822:885   */\n    tag_88:\n        /* \"#utility.yul\":769:891   */\n      pop\n      jump\t// out\n        /* \"#utility.yul\":897:1036   */\n    tag_61:\n        /* \"#utility.yul\":943:948   */\n      0x00\n        /* \"#utility.yul\":981:987   */\n      dup2\n        /* \"#utility.yul\":968:988   */\n      calldataload\n        /* \"#utility.yul\":959:988   */\n      swap1\n      pop\n        /* \"#utility.yul\":997:1030   */\n      tag_90\n        /* \"#utility.yul\":1024:1029   */\n      dup2\n        /* \"#utility.yul\":997:1030   */\n      tag_60\n      jump\t// in\n    tag_90:\n        /* \"#utility.yul\":897:1036   */\n      swap3\n      swap2\n      pop\n      pop\n      jump\t// out\n        /* \"#utility.yul\":1042:1371   */\n    tag_15:\n        /* \"#utility.yul\":1101:1107   */\n      0x00\n        /* \"#utility.yul\":1150:1152   */\n      0x20\n        /* \"#utility.yul\":1138:1147   */\n      dup3\n        /* \"#utility.yul\":1129:1136   */\n      dup5\n        /* \"#utility.yul\":1125:1148   */\n      sub\n        /* \"#utility.yul\":1121:1153   */\n      slt\n        /* \"#utility.yul\":1118:1237   */\n      iszero\n      tag_92\n      jumpi\n        /* \"#utility.yul\":1156:1235   */\n      tag_93\n      tag_58\n      jump\t// in\n    tag_93:\n        /* \"#utility.yul\":1118:1237   */\n    tag_92:\n        /* \"#utility.yul\":1276:1277   */\n      0x00\n        /* \"#utility.yul\":1301:1354   */\n      tag_94\n        /* \"#utility.yul\":1346:1353   */\n      dup5\n        /* \"#utility.yul\":1337:1343   */\n      dup3\n        /* \"#utility.yul\":1326:1335   */\n      dup6\n        /* \"#utility.yul\":1322:1344   */\n      add\n        /* \"#utility.yul\":1301:1354   */\n      tag_61\n      jump\t// in\n    tag_94:\n        /* \"#utility.yul\":1291:1354   */\n      swap2\n      pop\n        /* \"#utility.yul\":1247:1364   */\n      pop\n        /* \"#utility.yul\":1042:1371   */\n      swap3\n      swap2\n      pop\n      pop\n      jump\t// out\n        /* \"#utility.yul\":1377:1503   */\n    tag_62:\n        /* \"#utility.yul\":1414:1421   */\n      0x00\n        /* \"#utility.yul\":1454:1496   */\n      0xffffffffffffffffffffffffffffffffffffffff\n        /* \"#utility.yul\":1447:1452   */\n      dup3\n        /* \"#utility.yul\":1443:1497   */\n      and\n        /* \"#utility.yul\":1432:1497   */\n      swap1\n      pop\n        /* \"#utility.yul\":1377:1503   */\n      swap2\n      swap1\n      pop\n      jump\t// out\n        /* \"#utility.yul\":1509:1605   */\n    tag_63:\n        /* \"#utility.yul\":1546:1553   */\n      0x00\n        /* \"#utility.yul\":1575:1599   */\n      tag_97\n        /* \"#utility.yul\":1593:1598   */\n      dup3\n        /* \"#utility.yul\":1575:1599   */\n      tag_62\n      jump\t// in\n    tag_97:\n        /* \"#utility.yul\":1564:1599   */\n      swap1\n      pop\n        /* \"#utility.yul\":1509:1605   */\n      swap2\n      swap1\n      pop\n      jump\t// out\n        /* \"#utility.yul\":1611:1729   */\n    tag_64:\n        /* \"#utility.yul\":1698:1722   */\n      tag_99\n        /* \"#utility.yul\":1716:1721   */\n      dup2\n        /* \"#utility.yul\":1698:1722   */\n      tag_63\n      jump\t// in\n    tag_99:\n        /* \"#utility.yul\":1693:1696   */\n      dup3\n        /* \"#utility.yul\":1686:1723   */\n      mstore\n        /* \"#utility.yul\":1611:1729   */\n      pop\n      pop\n      jump\t// out\n        /* \"#utility.yul\":1735:1957   */\n    tag_21:\n        /* \"#utility.yul\":1828:1832   */\n      0x00\n        /* \"#utility.yul\":1866:1868   */\n      0x20\n        /* \"#utility.yul\":1855:1864   */\n      dup3\n        /* \"#utility.yul\":1851:1869   */\n      add\n        /* \"#utility.yul\":1843:1869   */\n      swap1\n      pop\n        /* \"#utility.yul\":1879:1950   */\n      tag_101\n        /* \"#utility.yul\":1947:1948   */\n      0x00\n        /* \"#utility.yul\":1936:1945   */\n      dup4\n        /* \"#utility.yul\":1932:1949   */\n      add\n        /* \"#utility.yul\":1923:1929   */\n      dup5\n        /* \"#utility.yul\":1879:1950   */\n      tag_64\n      jump\t// in\n    tag_101:\n        /* \"#utility.yul\":1735:1957   */\n      swap3\n      swap2\n      pop\n      pop\n      jump\t// out\n        /* \"#utility.yul\":1963:2085   */\n    tag_65:\n        /* \"#utility.yul\":2036:2060   */\n      tag_103\n        /* \"#utility.yul\":2054:2059   */\n      dup2\n        /* \"#utility.yul\":2036:2060   */\n      tag_63\n      jump\t// in\n    tag_103:\n        /* \"#utility.yul\":2029:2034   */\n      dup2\n        /* \"#utility.yul\":2026:2061   */\n      eq\n        /* \"#utility.yul\":2016:2079   */\n      tag_104\n      jumpi\n        /* \"#utility.yul\":2075:2076   */\n      0x00\n        /* \"#utility.yul\":2072:2073   */\n      dup1\n        /* \"#utility.yul\":2065:2077   */\n      revert\n        /* \"#utility.yul\":2016:2079   */\n    tag_104:\n        /* \"#utility.yul\":1963:2085   */\n      pop\n      jump\t// out\n        /* \"#utility.yul\":2091:2230   */\n    tag_66:\n        /* \"#utility.yul\":2137:2142   */\n      0x00\n        /* \"#utility.yul\":2175:2181   */\n      dup2\n        /* \"#utility.yul\":2162:2182   */\n      calldataload\n        /* \"#utility.yul\":2153:2182   */\n      swap1\n      pop\n        /* \"#utility.yul\":2191:2224   */\n      tag_106\n        /* \"#utility.yul\":2218:2223   */\n      dup2\n        /* \"#utility.yul\":2191:2224   */\n      tag_65\n      jump\t// in\n    tag_106:\n        /* \"#utility.yul\":2091:2230   */\n      swap3\n      swap2\n      pop\n      pop\n      jump\t// out\n        /* \"#utility.yul\":2236:2565   */\n    tag_25:\n        /* \"#utility.yul\":2295:2301   */\n      0x00\n        /* \"#utility.yul\":2344:2346   */\n      0x20\n        /* \"#utility.yul\":2332:2341   */\n      dup3\n        /* \"#utility.yul\":2323:2330   */\n      dup5\n        /* \"#utility.yul\":2319:2342   */\n      sub\n        /* \"#utility.yul\":2315:2347   */\n      slt\n        /* \"#utility.yul\":2312:2431   */\n      iszero\n      tag_108\n      jumpi\n        /* \"#utility.yul\":2350:2429   */\n      tag_109\n      tag_58\n      jump\t// in\n    tag_109:\n        /* \"#utility.yul\":2312:2431   */\n    tag_108:\n        /* \"#utility.yul\":2470:2471   */\n      0x00\n        /* \"#utility.yul\":2495:2548   */\n      tag_110\n        /* \"#utility.yul\":2540:2547   */\n      dup5\n        /* \"#utility.yul\":2531:2537   */\n      dup3\n        /* \"#utility.yul\":2520:2529   */\n      dup6\n        /* \"#utility.yul\":2516:2538   */\n      add\n        /* \"#utility.yul\":2495:2548   */\n      tag_66\n      jump\t// in\n    tag_110:\n        /* \"#utility.yul\":2485:2548   */\n      swap2\n      pop\n        /* \"#utility.yul\":2441:2558   */\n      pop\n        /* \"#utility.yul\":2236:2565   */\n      swap3\n      swap2\n      pop\n      pop\n      jump\t// out\n        /* \"#utility.yul\":2571:2740   */\n    tag_67:\n        /* \"#utility.yul\":2655:2666   */\n      0x00\n        /* \"#utility.yul\":2689:2695   */\n      dup3\n        /* \"#utility.yul\":2684:2687   */\n      dup3\n        /* \"#utility.yul\":2677:2696   */\n      mstore\n        /* \"#utility.yul\":2729:2733   */\n      0x20\n        /* \"#utility.yul\":2724:2727   */\n      dup3\n        /* \"#utility.yul\":2720:2734   */\n      add\n        /* \"#utility.yul\":2705:2734   */\n      swap1\n      pop\n        /* \"#utility.yul\":2571:2740   */\n      swap3\n      swap2\n      pop\n      pop\n      jump\t// out\n        /* \"#utility.yul\":2746:2973   */\n    tag_68:\n        /* \"#utility.yul\":2886:2920   */\n      0x5769746864726177616c20616d6f756e74206d75737420626520677265617465\n        /* \"#utility.yul\":2882:2883   */\n      0x00\n        /* \"#utility.yul\":2874:2880   */\n      dup3\n        /* \"#utility.yul\":2870:2884   */\n      add\n        /* \"#utility.yul\":2863:2921   */\n      mstore\n        /* \"#utility.yul\":2955:2965   */\n      0x72207468616e2030000000000000000000000000000000000000000000000000\n        /* \"#utility.yul\":2950:2952   */\n      0x20\n        /* \"#utility.yul\":2942:2948   */\n      dup3\n        /* \"#utility.yul\":2938:2953   */\n      add\n        /* \"#utility.yul\":2931:2966   */\n      mstore\n        /* \"#utility.yul\":2746:2973   */\n      pop\n      jump\t// out\n        /* \"#utility.yul\":2979:3345   */\n    tag_69:\n        /* \"#utility.yul\":3121:3124   */\n      0x00\n        /* \"#utility.yul\":3142:3209   */\n      tag_114\n        /* \"#utility.yul\":3206:3208   */\n      0x28\n        /* \"#utility.yul\":3201:3204   */\n      dup4\n        /* \"#utility.yul\":3142:3209   */\n      tag_67\n      jump\t// in\n    tag_114:\n        /* \"#utility.yul\":3135:3209   */\n      swap2\n      pop\n        /* \"#utility.yul\":3218:3311   */\n      tag_115\n        /* \"#utility.yul\":3307:3310   */\n      dup3\n        /* \"#utility.yul\":3218:3311   */\n      tag_68\n      jump\t// in\n    tag_115:\n        /* \"#utility.yul\":3336:3338   */\n      0x40\n        /* \"#utility.yul\":3331:3334   */\n      dup3\n        /* \"#utility.yul\":3327:3339   */\n      add\n        /* \"#utility.yul\":3320:3339   */\n      swap1\n      pop\n        /* \"#utility.yul\":2979:3345   */\n      swap2\n      swap1\n      pop\n      jump\t// out\n        /* \"#utility.yul\":3351:3770   */\n    tag_34:\n        /* \"#utility.yul\":3517:3521   */\n      0x00\n        /* \"#utility.yul\":3555:3557   */\n      0x20\n        /* \"#utility.yul\":3544:3553   */\n      dup3\n        /* \"#utility.yul\":3540:3558   */\n      add\n        /* \"#utility.yul\":3532:3558   */\n      swap1\n      pop\n        /* \"#utility.yul\":3604:3613   */\n      dup2\n        /* \"#utility.yul\":3598:3602   */\n      dup2\n        /* \"#utility.yul\":3594:3614   */\n      sub\n        /* \"#utility.yul\":3590:3591   */\n      0x00\n        /* \"#utility.yul\":3579:3588   */\n      dup4\n        /* \"#utility.yul\":3575:3592   */\n      add\n        /* \"#utility.yul\":3568:3615   */\n      mstore\n        /* \"#utility.yul\":3632:3763   */\n      tag_117\n        /* \"#utility.yul\":3758:3762   */\n      dup2\n        /* \"#utility.yul\":3632:3763   */\n      tag_69\n      jump\t// in\n    tag_117:\n        /* \"#utility.yul\":3624:3763   */\n      swap1\n      pop\n        /* \"#utility.yul\":3351:3770   */\n      swap2\n      swap1\n      pop\n      jump\t// out\n        /* \"#utility.yul\":3776:3945   */\n    tag_70:\n        /* \"#utility.yul\":3916:3937   */\n      0x496e7375666669636965742062616c616e636500000000000000000000000000\n        /* \"#utility.yul\":3912:3913   */\n      0x00\n        /* \"#utility.yul\":3904:3910   */\n      dup3\n        /* \"#utility.yul\":3900:3914   */\n      add\n        /* \"#utility.yul\":3893:3938   */\n      mstore\n        /* \"#utility.yul\":3776:3945   */\n      pop\n      jump\t// out\n        /* \"#utility.yul\":3951:4317   */\n    tag_71:\n        /* \"#utility.yul\":4093:4096   */\n      0x00\n        /* \"#utility.yul\":4114:4181   */\n      tag_120\n        /* \"#utility.yul\":4178:4180   */\n      0x13\n        /* \"#utility.yul\":4173:4176   */\n      dup4\n        /* \"#utility.yul\":4114:4181   */\n      tag_67\n      jump\t// in\n    tag_120:\n        /* \"#utility.yul\":4107:4181   */\n      swap2\n      pop\n        /* \"#utility.yul\":4190:4283   */\n      tag_121\n        /* \"#utility.yul\":4279:4282   */\n      dup3\n        /* \"#utility.yul\":4190:4283   */\n      tag_70\n      jump\t// in\n    tag_121:\n        /* \"#utility.yul\":4308:4310   */\n      0x20\n        /* \"#utility.yul\":4303:4306   */\n      dup3\n        /* \"#utility.yul\":4299:4311   */\n      add\n        /* \"#utility.yul\":4292:4311   */\n      swap1\n      pop\n        /* \"#utility.yul\":3951:4317   */\n      swap2\n      swap1\n      pop\n      jump\t// out\n        /* \"#utility.yul\":4323:4742   */\n    tag_37:\n        /* \"#utility.yul\":4489:4493   */\n      0x00\n        /* \"#utility.yul\":4527:4529   */\n      0x20\n        /* \"#utility.yul\":4516:4525   */\n      dup3\n        /* \"#utility.yul\":4512:4530   */\n      add\n        /* \"#utility.yul\":4504:4530   */\n      swap1\n      pop\n        /* \"#utility.yul\":4576:4585   */\n      dup2\n        /* \"#utility.yul\":4570:4574   */\n      dup2\n        /* \"#utility.yul\":4566:4586   */\n      sub\n        /* \"#utility.yul\":4562:4563   */\n      0x00\n        /* \"#utility.yul\":4551:4560   */\n      dup4\n        /* \"#utility.yul\":4547:4564   */\n      add\n        /* \"#utility.yul\":4540:4587   */\n      mstore\n        /* \"#utility.yul\":4604:4735   */\n      tag_123\n        /* \"#utility.yul\":4730:4734   */\n      dup2\n        /* \"#utility.yul\":4604:4735   */\n      tag_71\n      jump\t// in\n    tag_123:\n        /* \"#utility.yul\":4596:4735   */\n      swap1\n      pop\n        /* \"#utility.yul\":4323:4742   */\n      swap2\n      swap1\n      pop\n      jump\t// out\n        /* \"#utility.yul\":4748:4928   */\n    tag_72:\n        /* \"#utility.yul\":4796:4873   */\n      0x4e487b7100000000000000000000000000000000000000000000000000000000\n        /* \"#utility.yul\":4793:4794   */\n      0x00\n        /* \"#utility.yul\":4786:4874   */\n      mstore\n        /* \"#utility.yul\":4893:4897   */\n      0x11\n        /* \"#utility.yul\":4890:4891   */\n      0x04\n        /* \"#utility.yul\":4883:4898   */\n      mstore\n        /* \"#utility.yul\":4917:4921   */\n      0x24\n        /* \"#utility.yul\":4914:4915   */\n      0x00\n        /* \"#utility.yul\":4907:4922   */\n      revert\n        /* \"#utility.yul\":4934:5128   */\n    tag_39:\n        /* \"#utility.yul\":4974:4978   */\n      0x00\n        /* \"#utility.yul\":4994:5014   */\n      tag_126\n        /* \"#utility.yul\":5012:5013   */\n      dup3\n        /* \"#utility.yul\":4994:5014   */\n      tag_55\n      jump\t// in\n    tag_126:\n        /* \"#utility.yul\":4989:5014   */\n      swap2\n      pop\n        /* \"#utility.yul\":5028:5048   */\n      tag_127\n        /* \"#utility.yul\":5046:5047   */\n      dup4\n        /* \"#utility.yul\":5028:5048   */\n      tag_55\n      jump\t// in\n    tag_127:\n        /* \"#utility.yul\":5023:5048   */\n      swap3\n      pop\n        /* \"#utility.yul\":5072:5073   */\n      dup3\n        /* \"#utility.yul\":5069:5070   */\n      dup3\n        /* \"#utility.yul\":5065:5074   */\n      sub\n        /* \"#utility.yul\":5057:5074   */\n      swap1\n      pop\n        /* \"#utility.yul\":5096:5097   */\n      dup2\n        /* \"#utility.yul\":5090:5094   */\n      dup2\n        /* \"#utility.yul\":5087:5098   */\n      gt\n        /* \"#utility.yul\":5084:5121   */\n      iszero\n      tag_128\n      jumpi\n        /* \"#utility.yul\":5101:5119   */\n      tag_129\n      tag_72\n      jump\t// in\n    tag_129:\n        /* \"#utility.yul\":5084:5121   */\n    tag_128:\n        /* \"#utility.yul\":4934:5128   */\n      swap3\n      swap2\n      pop\n      pop\n      jump\t// out\n        /* \"#utility.yul\":5134:5358   */\n    tag_73:\n        /* \"#utility.yul\":5274:5308   */\n      0x4f6e6c7920746865206f776e65722063616e2063616c6c20746869732066756e\n        /* \"#utility.yul\":5270:5271   */\n      0x00\n        /* \"#utility.yul\":5262:5268   */\n      dup3\n        /* \"#utility.yul\":5258:5272   */\n      add\n        /* \"#utility.yul\":5251:5309   */\n      mstore\n        /* \"#utility.yul\":5343:5350   */\n      0x6374696f6e000000000000000000000000000000000000000000000000000000\n        /* \"#utility.yul\":5338:5340   */\n      0x20\n        /* \"#utility.yul\":5330:5336   */\n      dup3\n        /* \"#utility.yul\":5326:5341   */\n      add\n        /* \"#utility.yul\":5319:5351   */\n      mstore\n        /* \"#utility.yul\":5134:5358   */\n      pop\n      jump\t// out\n        /* \"#utility.yul\":5364:5730   */\n    tag_74:\n        /* \"#utility.yul\":5506:5509   */\n      0x00\n        /* \"#utility.yul\":5527:5594   */\n      tag_132\n        /* \"#utility.yul\":5591:5593   */\n      0x25\n        /* \"#utility.yul\":5586:5589   */\n      dup4\n        /* \"#utility.yul\":5527:5594   */\n      tag_67\n      jump\t// in\n    tag_132:\n        /* \"#utility.yul\":5520:5594   */\n      swap2\n      pop\n        /* \"#utility.yul\":5603:5696   */\n      tag_133\n        /* \"#utility.yul\":5692:5695   */\n      dup3\n        /* \"#utility.yul\":5603:5696   */\n      tag_73\n      jump\t// in\n    tag_133:\n        /* \"#utility.yul\":5721:5723   */\n      0x40\n        /* \"#utility.yul\":5716:5719   */\n      dup3\n        /* \"#utility.yul\":5712:5724   */\n      add\n        /* \"#utility.yul\":5705:5724   */\n      swap1\n      pop\n        /* \"#utility.yul\":5364:5730   */\n      swap2\n      swap1\n      pop\n      jump\t// out\n        /* \"#utility.yul\":5736:6155   */\n    tag_46:\n        /* \"#utility.yul\":5902:5906   */\n      0x00\n        /* \"#utility.yul\":5940:5942   */\n      0x20\n        /* \"#utility.yul\":5929:5938   */\n      dup3\n        /* \"#utility.yul\":5925:5943   */\n      add\n        /* \"#utility.yul\":5917:5943   */\n      swap1\n      pop\n        /* \"#utility.yul\":5989:5998   */\n      dup2\n        /* \"#utility.yul\":5983:5987   */\n      dup2\n        /* \"#utility.yul\":5979:5999   */\n      sub\n        /* \"#utility.yul\":5975:5976   */\n      0x00\n        /* \"#utility.yul\":5964:5973   */\n      dup4\n        /* \"#utility.yul\":5960:5977   */\n      add\n        /* \"#utility.yul\":5953:6000   */\n      mstore\n        /* \"#utility.yul\":6017:6148   */\n      tag_135\n        /* \"#utility.yul\":6143:6147   */\n      dup2\n        /* \"#utility.yul\":6017:6148   */\n      tag_74\n      jump\t// in\n    tag_135:\n        /* \"#utility.yul\":6009:6148   */\n      swap1\n      pop\n        /* \"#utility.yul\":5736:6155   */\n      swap2\n      swap1\n      pop\n      jump\t// out\n        /* \"#utility.yul\":6161:6343   */\n    tag_75:\n        /* \"#utility.yul\":6301:6335   */\n      0x4465706f73697420616d6f756e742062652067726561746572207468616e2030\n        /* \"#utility.yul\":6297:6298   */\n      0x00\n        /* \"#utility.yul\":6289:6295   */\n      dup3\n        /* \"#utility.yul\":6285:6299   */\n      add\n        /* \"#utility.yul\":6278:6336   */\n      mstore\n        /* \"#utility.yul\":6161:6343   */\n      pop\n      jump\t// out\n        /* \"#utility.yul\":6349:6715   */\n    tag_76:\n        /* \"#utility.yul\":6491:6494   */\n      0x00\n        /* \"#utility.yul\":6512:6579   */\n      tag_138\n        /* \"#utility.yul\":6576:6578   */\n      0x20\n        /* \"#utility.yul\":6571:6574   */\n      dup4\n        /* \"#utility.yul\":6512:6579   */\n      tag_67\n      jump\t// in\n    tag_138:\n        /* \"#utility.yul\":6505:6579   */\n      swap2\n      pop\n        /* \"#utility.yul\":6588:6681   */\n      tag_139\n        /* \"#utility.yul\":6677:6680   */\n      dup3\n        /* \"#utility.yul\":6588:6681   */\n      tag_75\n      jump\t// in\n    tag_139:\n        /* \"#utility.yul\":6706:6708   */\n      0x20\n        /* \"#utility.yul\":6701:6704   */\n      dup3\n        /* \"#utility.yul\":6697:6709   */\n      add\n        /* \"#utility.yul\":6690:6709   */\n      swap1\n      pop\n        /* \"#utility.yul\":6349:6715   */\n      swap2\n      swap1\n      pop\n      jump\t// out\n        /* \"#utility.yul\":6721:7140   */\n    tag_51:\n        /* \"#utility.yul\":6887:6891   */\n      0x00\n        /* \"#utility.yul\":6925:6927   */\n      0x20\n        /* \"#utility.yul\":6914:6923   */\n      dup3\n        /* \"#utility.yul\":6910:6928   */\n      add\n        /* \"#utility.yul\":6902:6928   */\n      swap1\n      pop\n        /* \"#utility.yul\":6974:6983   */\n      dup2\n        /* \"#utility.yul\":6968:6972   */\n      dup2\n        /* \"#utility.yul\":6964:6984   */\n      sub\n        /* \"#utility.yul\":6960:6961   */\n      0x00\n        /* \"#utility.yul\":6949:6958   */\n      dup4\n        /* \"#utility.yul\":6945:6962   */\n      add\n        /* \"#utility.yul\":6938:6985   */\n      mstore\n        /* \"#utility.yul\":7002:7133   */\n      tag_141\n        /* \"#utility.yul\":7128:7132   */\n      dup2\n        /* \"#utility.yul\":7002:7133   */\n      tag_76\n      jump\t// in\n    tag_141:\n        /* \"#utility.yul\":6994:7133   */\n      swap1\n      pop\n        /* \"#utility.yul\":6721:7140   */\n      swap2\n      swap1\n      pop\n      jump\t// out\n        /* \"#utility.yul\":7146:7337   */\n    tag_53:\n        /* \"#utility.yul\":7186:7189   */\n      0x00\n        /* \"#utility.yul\":7205:7225   */\n      tag_143\n        /* \"#utility.yul\":7223:7224   */\n      dup3\n        /* \"#utility.yul\":7205:7225   */\n      tag_55\n      jump\t// in\n    tag_143:\n        /* \"#utility.yul\":7200:7225   */\n      swap2\n      pop\n        /* \"#utility.yul\":7239:7259   */\n      tag_144\n        /* \"#utility.yul\":7257:7258   */\n      dup4\n        /* \"#utility.yul\":7239:7259   */\n      tag_55\n      jump\t// in\n    tag_144:\n        /* \"#utility.yul\":7234:7259   */\n      swap3\n      pop\n        /* \"#utility.yul\":7282:7283   */\n      dup3\n        /* \"#utility.yul\":7279:7280   */\n      dup3\n        /* \"#utility.yul\":7275:7284   */\n      add\n        /* \"#utility.yul\":7268:7284   */\n      swap1\n      pop\n        /* \"#utility.yul\":7303:7306   */\n      dup1\n        /* \"#utility.yul\":7300:7301   */\n      dup3\n        /* \"#utility.yul\":7297:7307   */\n      gt\n        /* \"#utility.yul\":7294:7330   */\n      iszero\n      tag_145\n      jumpi\n        /* \"#utility.yul\":7310:7328   */\n      tag_146\n      tag_72\n      jump\t// in\n    tag_146:\n        /* \"#utility.yul\":7294:7330   */\n    tag_145:\n        /* \"#utility.yul\":7146:7337   */\n      swap3\n      swap2\n      pop\n      pop\n      jump\t// out\n\n    auxdata: 0xa26469706673582212200da22f18359836756e3b753d3b812051a15f27d982240bae4ad941be2cd5666964736f6c634300081a0033\n}\n",
				"bytecode": {
					"linkReferences": {},
					"object": "6080604052348015600e575f80fd5b50335f806101000a81548173ffffffffffffffffffffffffffffffffffffffff021916908373ffffffffffffffffffffffffffffffffffffffff1602179055506108d58061005b5f395ff3fe608060405260043610610049575f3560e01c806312065fe01461004d5780632e1a7d4d146100775780638da5cb5b1461009f5780639b96eece146100c9578063d0e30db014610105575b5f80fd5b348015610058575f80fd5b5061006161010f565b60405161006e91906104f1565b60405180910390f35b348015610082575f80fd5b5061009d60048036038101906100989190610538565b610153565b005b3480156100aa575f80fd5b506100b36102fd565b6040516100c091906105a2565b60405180910390f35b3480156100d4575f80fd5b506100ef60048036038101906100ea91906105e5565b610320565b6040516100fc91906104f1565b60405180910390f35b61010d6103f4565b005b5f60015f3373ffffffffffffffffffffffffffffffffffffffff1673ffffffffffffffffffffffffffffffffffffffff1681526020019081526020015f2054905090565b5f8111610195576040517f08c379a000000000000000000000000000000000000000000000000000000000815260040161018c90610690565b60405180910390fd5b8060015f3373ffffffffffffffffffffffffffffffffffffffff1673ffffffffffffffffffffffffffffffffffffffff1681526020019081526020015f20541015610215576040517f08c379a000000000000000000000000000000000000000000000000000000000815260040161020c906106f8565b60405180910390fd5b8060015f3373ffffffffffffffffffffffffffffffffffffffff1673ffffffffffffffffffffffffffffffffffffffff1681526020019081526020015f205f8282546102619190610743565b925050819055503373ffffffffffffffffffffffffffffffffffffffff166108fc8290811502906040515f60405180830381858888f193505050501580156102ab573d5f803e3d5ffd5b503373ffffffffffffffffffffffffffffffffffffffff167f7fcf532c15f0a6db0bd6d0e038bea71d30d808c7d98cb3bf7268a95bf5081b65826040516102f291906104f1565b60405180910390a250565b5f8054906101000a900473ffffffffffffffffffffffffffffffffffffffff1681565b5f805f9054906101000a900473ffffffffffffffffffffffffffffffffffffffff1673ffffffffffffffffffffffffffffffffffffffff163373ffffffffffffffffffffffffffffffffffffffff16146103af576040517f08c379a00000000000000000000000000000000000000000000000000000000081526004016103a6906107e6565b60405180910390fd5b60015f8373ffffffffffffffffffffffffffffffffffffffff1673ffffffffffffffffffffffffffffffffffffffff1681526020019081526020015f20549050919050565b5f3411610436576040517f08c379a000000000000000000000000000000000000000000000000000000000815260040161042d9061084e565b60405180910390fd5b3460015f3373ffffffffffffffffffffffffffffffffffffffff1673ffffffffffffffffffffffffffffffffffffffff1681526020019081526020015f205f828254610482919061086c565b925050819055503373ffffffffffffffffffffffffffffffffffffffff167fe1fffcc4923d04b559f4d29a8bfc6cda04eb5b0d3c460751c2402c5c5cc9109c346040516104cf91906104f1565b60405180910390a2565b5f819050919050565b6104eb816104d9565b82525050565b5f6020820190506105045f8301846104e2565b92915050565b5f80fd5b610517816104d9565b8114610521575f80fd5b50565b5f813590506105328161050e565b92915050565b5f6020828403121561054d5761054c61050a565b5b5f61055a84828501610524565b91505092915050565b5f73ffffffffffffffffffffffffffffffffffffffff82169050919050565b5f61058c82610563565b9050919050565b61059c81610582565b82525050565b5f6020820190506105b55f830184610593565b92915050565b6105c481610582565b81146105ce575f80fd5b50565b5f813590506105df816105bb565b92915050565b5f602082840312156105fa576105f961050a565b5b5f610607848285016105d1565b91505092915050565b5f82825260208201905092915050565b7f5769746864726177616c20616d6f756e74206d757374206265206772656174655f8201527f72207468616e2030000000000000000000000000000000000000000000000000602082015250565b5f61067a602883610610565b915061068582610620565b604082019050919050565b5f6020820190508181035f8301526106a78161066e565b9050919050565b7f496e7375666669636965742062616c616e6365000000000000000000000000005f82015250565b5f6106e2601383610610565b91506106ed826106ae565b602082019050919050565b5f6020820190508181035f83015261070f816106d6565b9050919050565b7f4e487b71000000000000000000000000000000000000000000000000000000005f52601160045260245ffd5b5f61074d826104d9565b9150610758836104d9565b92508282039050818111156107705761076f610716565b5b92915050565b7f4f6e6c7920746865206f776e65722063616e2063616c6c20746869732066756e5f8201527f6374696f6e000000000000000000000000000000000000000000000000000000602082015250565b5f6107d0602583610610565b91506107db82610776565b604082019050919050565b5f6020820190508181035f8301526107fd816107c4565b9050919050565b7f4465706f73697420616d6f756e742062652067726561746572207468616e20305f82015250565b5f610838602083610610565b915061084382610804565b602082019050919050565b5f6020820190508181035f8301526108658161082c565b9050919050565b5f610876826104d9565b9150610881836104d9565b925082820190508082111561089957610898610716565b5b9291505056fea26469706673582212200da22f18359836756e3b753d3b812051a15f27d982240bae4ad941be2cd5666964736f6c634300081a0033",
					"opcodes": "PUSH1 0x80 PUSH1 0x40 MSTORE CALLVALUE DUP1 ISZERO PUSH1 0xE JUMPI PUSH0 DUP1 REVERT JUMPDEST POP CALLER PUSH0 DUP1 PUSH2 0x100 EXP DUP2 SLOAD DUP2 PUSH20 0xFFFFFFFFFFFFFFFFFFFFFFFFFFFFFFFFFFFFFFFF MUL NOT AND SWAP1 DUP4 PUSH20 0xFFFFFFFFFFFFFFFFFFFFFFFFFFFFFFFFFFFFFFFF AND MUL OR SWAP1 SSTORE POP PUSH2 0x8D5 DUP1 PUSH2 0x5B PUSH0 CODECOPY PUSH0 RETURN INVALID PUSH1 0x80 PUSH1 0x40 MSTORE PUSH1 0x4 CALLDATASIZE LT PUSH2 0x49 JUMPI PUSH0 CALLDATALOAD PUSH1 0xE0 SHR DUP1 PUSH4 0x12065FE0 EQ PUSH2 0x4D JUMPI DUP1 PUSH4 0x2E1A7D4D EQ PUSH2 0x77 JUMPI DUP1 PUSH4 0x8DA5CB5B EQ PUSH2 0x9F JUMPI DUP1 PUSH4 0x9B96EECE EQ PUSH2 0xC9 JUMPI DUP1 PUSH4 0xD0E30DB0 EQ PUSH2 0x105 JUMPI JUMPDEST PUSH0 DUP1 REVERT JUMPDEST CALLVALUE DUP1 ISZERO PUSH2 0x58 JUMPI PUSH0 DUP1 REVERT JUMPDEST POP PUSH2 0x61 PUSH2 0x10F JUMP JUMPDEST PUSH1 0x40 MLOAD PUSH2 0x6E SWAP2 SWAP1 PUSH2 0x4F1 JUMP JUMPDEST PUSH1 0x40 MLOAD DUP1 SWAP2 SUB SWAP1 RETURN JUMPDEST CALLVALUE DUP1 ISZERO PUSH2 0x82 JUMPI PUSH0 DUP1 REVERT JUMPDEST POP PUSH2 0x9D PUSH1 0x4 DUP1 CALLDATASIZE SUB DUP2 ADD SWAP1 PUSH2 0x98 SWAP2 SWAP1 PUSH2 0x538 JUMP JUMPDEST PUSH2 0x153 JUMP JUMPDEST STOP JUMPDEST CALLVALUE DUP1 ISZERO PUSH2 0xAA JUMPI PUSH0 DUP1 REVERT JUMPDEST POP PUSH2 0xB3 PUSH2 0x2FD JUMP JUMPDEST PUSH1 0x40 MLOAD PUSH2 0xC0 SWAP2 SWAP1 PUSH2 0x5A2 JUMP JUMPDEST PUSH1 0x40 MLOAD DUP1 SWAP2 SUB SWAP1 RETURN JUMPDEST CALLVALUE DUP1 ISZERO PUSH2 0xD4 JUMPI PUSH0 DUP1 REVERT JUMPDEST POP PUSH2 0xEF PUSH1 0x4 DUP1 CALLDATASIZE SUB DUP2 ADD SWAP1 PUSH2 0xEA SWAP2 SWAP1 PUSH2 0x5E5 JUMP JUMPDEST PUSH2 0x320 JUMP JUMPDEST PUSH1 0x40 MLOAD PUSH2 0xFC SWAP2 SWAP1 PUSH2 0x4F1 JUMP JUMPDEST PUSH1 0x40 MLOAD DUP1 SWAP2 SUB SWAP1 RETURN JUMPDEST PUSH2 0x10D PUSH2 0x3F4 JUMP JUMPDEST STOP JUMPDEST PUSH0 PUSH1 0x1 PUSH0 CALLER PUSH20 0xFFFFFFFFFFFFFFFFFFFFFFFFFFFFFFFFFFFFFFFF AND PUSH20 0xFFFFFFFFFFFFFFFFFFFFFFFFFFFFFFFFFFFFFFFF AND DUP2 MSTORE PUSH1 0x20 ADD SWAP1 DUP2 MSTORE PUSH1 0x20 ADD PUSH0 KECCAK256 SLOAD SWAP1 POP SWAP1 JUMP JUMPDEST PUSH0 DUP2 GT PUSH2 0x195 JUMPI PUSH1 0x40 MLOAD PUSH32 0x8C379A000000000000000000000000000000000000000000000000000000000 DUP2 MSTORE PUSH1 0x4 ADD PUSH2 0x18C SWAP1 PUSH2 0x690 JUMP JUMPDEST PUSH1 0x40 MLOAD DUP1 SWAP2 SUB SWAP1 REVERT JUMPDEST DUP1 PUSH1 0x1 PUSH0 CALLER PUSH20 0xFFFFFFFFFFFFFFFFFFFFFFFFFFFFFFFFFFFFFFFF AND PUSH20 0xFFFFFFFFFFFFFFFFFFFFFFFFFFFFFFFFFFFFFFFF AND DUP2 MSTORE PUSH1 0x20 ADD SWAP1 DUP2 MSTORE PUSH1 0x20 ADD PUSH0 KECCAK256 SLOAD LT ISZERO PUSH2 0x215 JUMPI PUSH1 0x40 MLOAD PUSH32 0x8C379A000000000000000000000000000000000000000000000000000000000 DUP2 MSTORE PUSH1 0x4 ADD PUSH2 0x20C SWAP1 PUSH2 0x6F8 JUMP JUMPDEST PUSH1 0x40 MLOAD DUP1 SWAP2 SUB SWAP1 REVERT JUMPDEST DUP1 PUSH1 0x1 PUSH0 CALLER PUSH20 0xFFFFFFFFFFFFFFFFFFFFFFFFFFFFFFFFFFFFFFFF AND PUSH20 0xFFFFFFFFFFFFFFFFFFFFFFFFFFFFFFFFFFFFFFFF AND DUP2 MSTORE PUSH1 0x20 ADD SWAP1 DUP2 MSTORE PUSH1 0x20 ADD PUSH0 KECCAK256 PUSH0 DUP3 DUP3 SLOAD PUSH2 0x261 SWAP2 SWAP1 PUSH2 0x743 JUMP JUMPDEST SWAP3 POP POP DUP2 SWAP1 SSTORE POP CALLER PUSH20 0xFFFFFFFFFFFFFFFFFFFFFFFFFFFFFFFFFFFFFFFF AND PUSH2 0x8FC DUP3 SWAP1 DUP2 ISZERO MUL SWAP1 PUSH1 0x40 MLOAD PUSH0 PUSH1 0x40 MLOAD DUP1 DUP4 SUB DUP2 DUP6 DUP9 DUP9 CALL SWAP4 POP POP POP POP ISZERO DUP1 ISZERO PUSH2 0x2AB JUMPI RETURNDATASIZE PUSH0 DUP1 RETURNDATACOPY RETURNDATASIZE PUSH0 REVERT JUMPDEST POP CALLER PUSH20 0xFFFFFFFFFFFFFFFFFFFFFFFFFFFFFFFFFFFFFFFF AND PUSH32 0x7FCF532C15F0A6DB0BD6D0E038BEA71D30D808C7D98CB3BF7268A95BF5081B65 DUP3 PUSH1 0x40 MLOAD PUSH2 0x2F2 SWAP2 SWAP1 PUSH2 0x4F1 JUMP JUMPDEST PUSH1 0x40 MLOAD DUP1 SWAP2 SUB SWAP1 LOG2 POP JUMP JUMPDEST PUSH0 DUP1 SLOAD SWAP1 PUSH2 0x100 EXP SWAP1 DIV PUSH20 0xFFFFFFFFFFFFFFFFFFFFFFFFFFFFFFFFFFFFFFFF AND DUP2 JUMP JUMPDEST PUSH0 DUP1 PUSH0 SWAP1 SLOAD SWAP1 PUSH2 0x100 EXP SWAP1 DIV PUSH20 0xFFFFFFFFFFFFFFFFFFFFFFFFFFFFFFFFFFFFFFFF AND PUSH20 0xFFFFFFFFFFFFFFFFFFFFFFFFFFFFFFFFFFFFFFFF AND CALLER PUSH20 0xFFFFFFFFFFFFFFFFFFFFFFFFFFFFFFFFFFFFFFFF AND EQ PUSH2 0x3AF JUMPI PUSH1 0x40 MLOAD PUSH32 0x8C379A000000000000000000000000000000000000000000000000000000000 DUP2 MSTORE PUSH1 0x4 ADD PUSH2 0x3A6 SWAP1 PUSH2 0x7E6 JUMP JUMPDEST PUSH1 0x40 MLOAD DUP1 SWAP2 SUB SWAP1 REVERT JUMPDEST PUSH1 0x1 PUSH0 DUP4 PUSH20 0xFFFFFFFFFFFFFFFFFFFFFFFFFFFFFFFFFFFFFFFF AND PUSH20 0xFFFFFFFFFFFFFFFFFFFFFFFFFFFFFFFFFFFFFFFF AND DUP2 MSTORE PUSH1 0x20 ADD SWAP1 DUP2 MSTORE PUSH1 0x20 ADD PUSH0 KECCAK256 SLOAD SWAP1 POP SWAP2 SWAP1 POP JUMP JUMPDEST PUSH0 CALLVALUE GT PUSH2 0x436 JUMPI PUSH1 0x40 MLOAD PUSH32 0x8C379A000000000000000000000000000000000000000000000000000000000 DUP2 MSTORE PUSH1 0x4 ADD PUSH2 0x42D SWAP1 PUSH2 0x84E JUMP JUMPDEST PUSH1 0x40 MLOAD DUP1 SWAP2 SUB SWAP1 REVERT JUMPDEST CALLVALUE PUSH1 0x1 PUSH0 CALLER PUSH20 0xFFFFFFFFFFFFFFFFFFFFFFFFFFFFFFFFFFFFFFFF AND PUSH20 0xFFFFFFFFFFFFFFFFFFFFFFFFFFFFFFFFFFFFFFFF AND DUP2 MSTORE PUSH1 0x20 ADD SWAP1 DUP2 MSTORE PUSH1 0x20 ADD PUSH0 KECCAK256 PUSH0 DUP3 DUP3 SLOAD PUSH2 0x482 SWAP2 SWAP1 PUSH2 0x86C JUMP JUMPDEST SWAP3 POP POP DUP2 SWAP1 SSTORE POP CALLER PUSH20 0xFFFFFFFFFFFFFFFFFFFFFFFFFFFFFFFFFFFFFFFF AND PUSH32 0xE1FFFCC4923D04B559F4D29A8BFC6CDA04EB5B0D3C460751C2402C5C5CC9109C CALLVALUE PUSH1 0x40 MLOAD PUSH2 0x4CF SWAP2 SWAP1 PUSH2 0x4F1 JUMP JUMPDEST PUSH1 0x40 MLOAD DUP1 SWAP2 SUB SWAP1 LOG2 JUMP JUMPDEST PUSH0 DUP2 SWAP1 POP SWAP2 SWAP1 POP JUMP JUMPDEST PUSH2 0x4EB DUP2 PUSH2 0x4D9 JUMP JUMPDEST DUP3 MSTORE POP POP JUMP JUMPDEST PUSH0 PUSH1 0x20 DUP3 ADD SWAP1 POP PUSH2 0x504 PUSH0 DUP4 ADD DUP5 PUSH2 0x4E2 JUMP JUMPDEST SWAP3 SWAP2 POP POP JUMP JUMPDEST PUSH0 DUP1 REVERT JUMPDEST PUSH2 0x517 DUP2 PUSH2 0x4D9 JUMP JUMPDEST DUP2 EQ PUSH2 0x521 JUMPI PUSH0 DUP1 REVERT JUMPDEST POP JUMP JUMPDEST PUSH0 DUP2 CALLDATALOAD SWAP1 POP PUSH2 0x532 DUP2 PUSH2 0x50E JUMP JUMPDEST SWAP3 SWAP2 POP POP JUMP JUMPDEST PUSH0 PUSH1 0x20 DUP3 DUP5 SUB SLT ISZERO PUSH2 0x54D JUMPI PUSH2 0x54C PUSH2 0x50A JUMP JUMPDEST JUMPDEST PUSH0 PUSH2 0x55A DUP5 DUP3 DUP6 ADD PUSH2 0x524 JUMP JUMPDEST SWAP2 POP POP SWAP3 SWAP2 POP POP JUMP JUMPDEST PUSH0 PUSH20 0xFFFFFFFFFFFFFFFFFFFFFFFFFFFFFFFFFFFFFFFF DUP3 AND SWAP1 POP SWAP2 SWAP1 POP JUMP JUMPDEST PUSH0 PUSH2 0x58C DUP3 PUSH2 0x563 JUMP JUMPDEST SWAP1 POP SWAP2 SWAP1 POP JUMP JUMPDEST PUSH2 0x59C DUP2 PUSH2 0x582 JUMP JUMPDEST DUP3 MSTORE POP POP JUMP JUMPDEST PUSH0 PUSH1 0x20 DUP3 ADD SWAP1 POP PUSH2 0x5B5 PUSH0 DUP4 ADD DUP5 PUSH2 0x593 JUMP JUMPDEST SWAP3 SWAP2 POP POP JUMP JUMPDEST PUSH2 0x5C4 DUP2 PUSH2 0x582 JUMP JUMPDEST DUP2 EQ PUSH2 0x5CE JUMPI PUSH0 DUP1 REVERT JUMPDEST POP JUMP JUMPDEST PUSH0 DUP2 CALLDATALOAD SWAP1 POP PUSH2 0x5DF DUP2 PUSH2 0x5BB JUMP JUMPDEST SWAP3 SWAP2 POP POP JUMP JUMPDEST PUSH0 PUSH1 0x20 DUP3 DUP5 SUB SLT ISZERO PUSH2 0x5FA JUMPI PUSH2 0x5F9 PUSH2 0x50A JUMP JUMPDEST JUMPDEST PUSH0 PUSH2 0x607 DUP5 DUP3 DUP6 ADD PUSH2 0x5D1 JUMP JUMPDEST SWAP2 POP POP SWAP3 SWAP2 POP POP JUMP JUMPDEST PUSH0 DUP3 DUP3 MSTORE PUSH1 0x20 DUP3 ADD SWAP1 POP SWAP3 SWAP2 POP POP JUMP JUMPDEST PUSH32 0x5769746864726177616C20616D6F756E74206D75737420626520677265617465 PUSH0 DUP3 ADD MSTORE PUSH32 0x72207468616E2030000000000000000000000000000000000000000000000000 PUSH1 0x20 DUP3 ADD MSTORE POP JUMP JUMPDEST PUSH0 PUSH2 0x67A PUSH1 0x28 DUP4 PUSH2 0x610 JUMP JUMPDEST SWAP2 POP PUSH2 0x685 DUP3 PUSH2 0x620 JUMP JUMPDEST PUSH1 0x40 DUP3 ADD SWAP1 POP SWAP2 SWAP1 POP JUMP JUMPDEST PUSH0 PUSH1 0x20 DUP3 ADD SWAP1 POP DUP2 DUP2 SUB PUSH0 DUP4 ADD MSTORE PUSH2 0x6A7 DUP2 PUSH2 0x66E JUMP JUMPDEST SWAP1 POP SWAP2 SWAP1 POP JUMP JUMPDEST PUSH32 0x496E7375666669636965742062616C616E636500000000000000000000000000 PUSH0 DUP3 ADD MSTORE POP JUMP JUMPDEST PUSH0 PUSH2 0x6E2 PUSH1 0x13 DUP4 PUSH2 0x610 JUMP JUMPDEST SWAP2 POP PUSH2 0x6ED DUP3 PUSH2 0x6AE JUMP JUMPDEST PUSH1 0x20 DUP3 ADD SWAP1 POP SWAP2 SWAP1 POP JUMP JUMPDEST PUSH0 PUSH1 0x20 DUP3 ADD SWAP1 POP DUP2 DUP2 SUB PUSH0 DUP4 ADD MSTORE PUSH2 0x70F DUP2 PUSH2 0x6D6 JUMP JUMPDEST SWAP1 POP SWAP2 SWAP1 POP JUMP JUMPDEST PUSH32 0x4E487B7100000000000000000000000000000000000000000000000000000000 PUSH0 MSTORE PUSH1 0x11 PUSH1 0x4 MSTORE PUSH1 0x24 PUSH0 REVERT JUMPDEST PUSH0 PUSH2 0x74D DUP3 PUSH2 0x4D9 JUMP JUMPDEST SWAP2 POP PUSH2 0x758 DUP4 PUSH2 0x4D9 JUMP JUMPDEST SWAP3 POP DUP3 DUP3 SUB SWAP1 POP DUP2 DUP2 GT ISZERO PUSH2 0x770 JUMPI PUSH2 0x76F PUSH2 0x716 JUMP JUMPDEST JUMPDEST SWAP3 SWAP2 POP POP JUMP JUMPDEST PUSH32 0x4F6E6C7920746865206F776E65722063616E2063616C6C20746869732066756E PUSH0 DUP3 ADD MSTORE PUSH32 0x6374696F6E000000000000000000000000000000000000000000000000000000 PUSH1 0x20 DUP3 ADD MSTORE POP JUMP JUMPDEST PUSH0 PUSH2 0x7D0 PUSH1 0x25 DUP4 PUSH2 0x610 JUMP JUMPDEST SWAP2 POP PUSH2 0x7DB DUP3 PUSH2 0x776 JUMP JUMPDEST PUSH1 0x40 DUP3 ADD SWAP1 POP SWAP2 SWAP1 POP JUMP JUMPDEST PUSH0 PUSH1 0x20 DUP3 ADD SWAP1 POP DUP2 DUP2 SUB PUSH0 DUP4 ADD MSTORE PUSH2 0x7FD DUP2 PUSH2 0x7C4 JUMP JUMPDEST SWAP1 POP SWAP2 SWAP1 POP JUMP JUMPDEST PUSH32 0x4465706F73697420616D6F756E742062652067726561746572207468616E2030 PUSH0 DUP3 ADD MSTORE POP JUMP JUMPDEST PUSH0 PUSH2 0x838 PUSH1 0x20 DUP4 PUSH2 0x610 JUMP JUMPDEST SWAP2 POP PUSH2 0x843 DUP3 PUSH2 0x804 JUMP JUMPDEST PUSH1 0x20 DUP3 ADD SWAP1 POP SWAP2 SWAP1 POP JUMP JUMPDEST PUSH0 PUSH1 0x20 DUP3 ADD SWAP1 POP DUP2 DUP2 SUB PUSH0 DUP4 ADD MSTORE PUSH2 0x865 DUP2 PUSH2 0x82C JUMP JUMPDEST SWAP1 POP SWAP2 SWAP1 POP JUMP JUMPDEST PUSH0 PUSH2 0x876 DUP3 PUSH2 0x4D9 JUMP JUMPDEST SWAP2 POP PUSH2 0x881 DUP4 PUSH2 0x4D9 JUMP JUMPDEST SWAP3 POP DUP3 DUP3 ADD SWAP1 POP DUP1 DUP3 GT ISZERO PUSH2 0x899 JUMPI PUSH2 0x898 PUSH2 0x716 JUMP JUMPDEST JUMPDEST SWAP3 SWAP2 POP POP JUMP INVALID LOG2 PUSH5 0x6970667358 0x22 SLT KECCAK256 0xD LOG2 0x2F XOR CALLDATALOAD SWAP9 CALLDATASIZE PUSH22 0x6E3B753D3B812051A15F27D982240BAE4AD941BE2CD5 PUSH7 0x6964736F6C6343 STOP ADDMOD BYTE STOP CALLER "
				},
				"gasEstimates": {
					"creation": {
						"codeDepositCost": "452200",
						"executionCost": "24749",
						"totalCost": "476949"
					},
					"external": {
						"deposit()": "infinite",
						"getBalance()": "2497",
						"getBalanceOf(address)": "5042",
						"owner()": "2527",
						"withdraw(uint256)": "infinite"
					}
				},
				"methodIdentifiers": {
					"deposit()": "d0e30db0",
					"getBalance()": "12065fe0",
					"getBalanceOf(address)": "9b96eece",
					"owner()": "8da5cb5b",
					"withdraw(uint256)": "2e1a7d4d"
				}
			},
			"storageLayout": {
				"storage": [
					{
						"astId": 3,
						"contract": "Day-19/code1.sol:SimpleBank",
						"label": "owner",
						"offset": 0,
						"slot": "0",
						"type": "t_address"
					},
					{
						"astId": 7,
						"contract": "Day-19/code1.sol:SimpleBank",
						"label": "balances",
						"offset": 0,
						"slot": "1",
						"type": "t_mapping(t_address,t_uint256)"
					}
				],
				"types": {
					"t_address": {
						"encoding": "inplace",
						"label": "address",
						"numberOfBytes": "20"
					},
					"t_mapping(t_address,t_uint256)": {
						"encoding": "mapping",
						"key": "t_address",
						"label": "mapping(address => uint256)",
						"numberOfBytes": "32",
						"value": "t_uint256"
					},
					"t_uint256": {
						"encoding": "inplace",
						"label": "uint256",
						"numberOfBytes": "32"
					}
				}
			},
			"userdoc": {
				"kind": "user",
				"methods": {},
				"version": 1
			}
		}
	}
}