{
	"Day-22/code1.sol": {
		"MultiSigOwnershipVerifier": {
			"abi": [
				{
					"anonymous": false,
					"inputs": [
						{
							"indexed": false,
							"internalType": "address",
							"name": "walletAddress",
							"type": "address"
						},
						{
							"indexed": false,
							"internalType": "address[]",
							"name": "owners",
							"type": "address[]"
						},
						{
							"indexed": false,
							"internalType": "uint256",
							"name": "requiredConfirmations",
							"type": "uint256"
						}
					],
					"name": "WalletRegistered",
					"type": "event"
				},
				{
					"inputs": [
						{
							"internalType": "address",
							"name": "_walletAddress",
							"type": "address"
						},
						{
							"internalType": "address[]",
							"name": "_owners",
							"type": "address[]"
						},
						{
							"internalType": "uint256",
							"name": "_requiredConfirmations",
							"type": "uint256"
						}
					],
					"name": "registredWallet",
					"outputs": [],
					"stateMutability": "nonpayable",
					"type": "function"
				}
			],
			"devdoc": {
				"kind": "dev",
				"methods": {},
				"version": 1
			},
			"evm": {
				"assembly": "    /* \"Day-22/code1.sol\":60:1271  contract MultiSigOwnershipVerifier{... */\n  mstore(0x40, 0x80)\n  callvalue\n  dup1\n  iszero\n  tag_1\n  jumpi\n  0x00\n  dup1\n  revert\ntag_1:\n  pop\n  dataSize(sub_0)\n  dup1\n  dataOffset(sub_0)\n  0x00\n  codecopy\n  0x00\n  return\nstop\n\nsub_0: assembly {\n        /* \"Day-22/code1.sol\":60:1271  contract MultiSigOwnershipVerifier{... */\n      mstore(0x40, 0x80)\n      callvalue\n      dup1\n      iszero\n      tag_1\n      jumpi\n      0x00\n      dup1\n      revert\n    tag_1:\n      pop\n      jumpi(tag_2, lt(calldatasize, 0x04))\n      shr(0xe0, calldataload(0x00))\n      dup1\n      0x5401d9f1\n      eq\n      tag_3\n      jumpi\n    tag_2:\n      0x00\n      dup1\n      revert\n        /* \"Day-22/code1.sol\":581:1268  function registredWallet(address _walletAddress, address[] memory _owners, uint256 _requiredConfirmations) external {... */\n    tag_3:\n      tag_4\n      0x04\n      dup1\n      calldatasize\n      sub\n      dup2\n      add\n      swap1\n      tag_5\n      swap2\n      swap1\n      tag_6\n      jump\t// in\n    tag_5:\n      tag_7\n      jump\t// in\n    tag_4:\n      stop\n    tag_7:\n        /* \"Day-22/code1.sol\":742:743  0 */\n      0x00\n        /* \"Day-22/code1.sol\":716:744  _walletAddress != address(0) */\n      0xffffffffffffffffffffffffffffffffffffffff\n      and\n        /* \"Day-22/code1.sol\":716:730  _walletAddress */\n      dup4\n        /* \"Day-22/code1.sol\":716:744  _walletAddress != address(0) */\n      0xffffffffffffffffffffffffffffffffffffffff\n      and\n      sub\n        /* \"Day-22/code1.sol\":708:771  require(_walletAddress != address(0), \"Invalid wallet address\") */\n      tag_9\n      jumpi\n      mload(0x40)\n      0x08c379a000000000000000000000000000000000000000000000000000000000\n      dup2\n      mstore\n      0x04\n      add\n      tag_10\n      swap1\n      tag_11\n      jump\t// in\n    tag_10:\n      mload(0x40)\n      dup1\n      swap2\n      sub\n      swap1\n      revert\n    tag_9:\n        /* \"Day-22/code1.sol\":807:808  0 */\n      0x00\n        /* \"Day-22/code1.sol\":790:797  _owners */\n      dup3\n        /* \"Day-22/code1.sol\":790:804  _owners.length */\n      mload\n        /* \"Day-22/code1.sol\":790:808  _owners.length > 0 */\n      gt\n        /* \"Day-22/code1.sol\":782:840  require(_owners.length > 0, \"At least one owner required\") */\n      tag_12\n      jumpi\n      mload(0x40)\n      0x08c379a000000000000000000000000000000000000000000000000000000000\n      dup2\n      mstore\n      0x04\n      add\n      tag_13\n      swap1\n      tag_14\n      jump\t// in\n    tag_13:\n      mload(0x40)\n      dup1\n      swap2\n      sub\n      swap1\n      revert\n    tag_12:\n        /* \"Day-22/code1.sol\":884:885  0 */\n      0x00\n        /* \"Day-22/code1.sol\":859:881  _requiredConfirmations */\n      dup2\n        /* \"Day-22/code1.sol\":859:885  _requiredConfirmations > 0 */\n      gt\n        /* \"Day-22/code1.sol\":859:929  _requiredConfirmations > 0 && _requiredConfirmations <= _owners.length */\n      dup1\n      iszero\n      tag_15\n      jumpi\n      pop\n        /* \"Day-22/code1.sol\":915:922  _owners */\n      dup2\n        /* \"Day-22/code1.sol\":915:929  _owners.length */\n      mload\n        /* \"Day-22/code1.sol\":889:911  _requiredConfirmations */\n      dup2\n        /* \"Day-22/code1.sol\":889:929  _requiredConfirmations <= _owners.length */\n      gt\n      iszero\n        /* \"Day-22/code1.sol\":859:929  _requiredConfirmations > 0 && _requiredConfirmations <= _owners.length */\n    tag_15:\n        /* \"Day-22/code1.sol\":851:973  require(_requiredConfirmations > 0 && _requiredConfirmations <= _owners.length, \"Invalid number of required confirmation\") */\n      tag_16\n      jumpi\n      mload(0x40)\n      0x08c379a000000000000000000000000000000000000000000000000000000000\n      dup2\n      mstore\n      0x04\n      add\n      tag_17\n      swap1\n      tag_18\n      jump\t// in\n    tag_17:\n      mload(0x40)\n      dup1\n      swap2\n      sub\n      swap1\n      revert\n    tag_16:\n        /* \"Day-22/code1.sol\":1012:1177  MultiSigWallet({... */\n      mload(0x40)\n      dup1\n      0x60\n      add\n      0x40\n      mstore\n      dup1\n        /* \"Day-22/code1.sol\":1046:1053  _owners */\n      dup4\n        /* \"Day-22/code1.sol\":1012:1177  MultiSigWallet({... */\n      dup2\n      mstore\n      0x20\n      add\n        /* \"Day-22/code1.sol\":1087:1109  _requiredConfirmations */\n      dup3\n        /* \"Day-22/code1.sol\":1012:1177  MultiSigWallet({... */\n      dup2\n      mstore\n      0x20\n      add\n        /* \"Day-22/code1.sol\":1161:1165  true */\n      0x01\n        /* \"Day-22/code1.sol\":1012:1177  MultiSigWallet({... */\n      iszero\n      iszero\n      dup2\n      mstore\n      pop\n        /* \"Day-22/code1.sol\":986:993  wallets */\n      0x00\n        /* \"Day-22/code1.sol\":986:1009  wallets[_walletAddress] */\n      dup1\n        /* \"Day-22/code1.sol\":994:1008  _walletAddress */\n      dup6\n        /* \"Day-22/code1.sol\":986:1009  wallets[_walletAddress] */\n      0xffffffffffffffffffffffffffffffffffffffff\n      and\n      0xffffffffffffffffffffffffffffffffffffffff\n      and\n      dup2\n      mstore\n      0x20\n      add\n      swap1\n      dup2\n      mstore\n      0x20\n      add\n      0x00\n      keccak256\n        /* \"Day-22/code1.sol\":986:1177  wallets[_walletAddress] = MultiSigWallet({... */\n      0x00\n      dup3\n      add\n      mload\n      dup2\n      0x00\n      add\n      swap1\n      dup1\n      mload\n      swap1\n      0x20\n      add\n      swap1\n      tag_19\n      swap3\n      swap2\n      swap1\n      tag_20\n      jump\t// in\n    tag_19:\n      pop\n      0x20\n      dup3\n      add\n      mload\n      dup2\n      0x01\n      add\n      sstore\n      0x40\n      dup3\n      add\n      mload\n      dup2\n      0x02\n      add\n      exp(0x0100, 0x00)\n      dup2\n      sload\n      dup2\n      0xff\n      mul\n      not\n      and\n      swap1\n      dup4\n      iszero\n      iszero\n      mul\n      or\n      swap1\n      sstore\n      pop\n      swap1\n      pop\n      pop\n        /* \"Day-22/code1.sol\":1195:1260  WalletRegistered(_walletAddress, _owners, _requiredConfirmations) */\n      0x93df635856cf91a6211f6a8ec8251fffa6c173b887a3091a084d6f33a3d61ce3\n        /* \"Day-22/code1.sol\":1212:1226  _walletAddress */\n      dup4\n        /* \"Day-22/code1.sol\":1228:1235  _owners */\n      dup4\n        /* \"Day-22/code1.sol\":1237:1259  _requiredConfirmations */\n      dup4\n        /* \"Day-22/code1.sol\":1195:1260  WalletRegistered(_walletAddress, _owners, _requiredConfirmations) */\n      mload(0x40)\n      tag_21\n      swap4\n      swap3\n      swap2\n      swap1\n      tag_22\n      jump\t// in\n    tag_21:\n      mload(0x40)\n      dup1\n      swap2\n      sub\n      swap1\n      log1\n        /* \"Day-22/code1.sol\":581:1268  function registredWallet(address _walletAddress, address[] memory _owners, uint256 _requiredConfirmations) external {... */\n      pop\n      pop\n      pop\n      jump\t// out\n    tag_20:\n      dup3\n      dup1\n      sload\n      dup3\n      dup3\n      sstore\n      swap1\n      0x00\n      mstore\n      keccak256(0x00, 0x20)\n      swap1\n      dup2\n      add\n      swap3\n      dup3\n      iszero\n      tag_23\n      jumpi\n      swap2\n      0x20\n      mul\n      dup3\n      add\n    tag_24:\n      dup3\n      dup2\n      gt\n      iszero\n      tag_25\n      jumpi\n      dup3\n      mload\n      dup3\n      exp(0x0100, 0x00)\n      dup2\n      sload\n      dup2\n      0xffffffffffffffffffffffffffffffffffffffff\n      mul\n      not\n      and\n      swap1\n      dup4\n      0xffffffffffffffffffffffffffffffffffffffff\n      and\n      mul\n      or\n      swap1\n      sstore\n      pop\n      swap2\n      0x20\n      add\n      swap2\n      swap1\n      0x01\n      add\n      swap1\n      jump(tag_24)\n    tag_25:\n    tag_23:\n      pop\n      swap1\n      pop\n      tag_26\n      swap2\n      swap1\n      tag_27\n      jump\t// in\n    tag_26:\n      pop\n      swap1\n      jump\t// out\n    tag_27:\n    tag_28:\n      dup1\n      dup3\n      gt\n      iszero\n      tag_29\n      jumpi\n      0x00\n      dup2\n      0x00\n      swap1\n      sstore\n      pop\n      0x01\n      add\n      jump(tag_28)\n    tag_29:\n      pop\n      swap1\n      jump\t// out\n        /* \"#utility.yul\":7:82   */\n    tag_30:\n        /* \"#utility.yul\":40:46   */\n      0x00\n        /* \"#utility.yul\":73:75   */\n      0x40\n        /* \"#utility.yul\":67:76   */\n      mload\n        /* \"#utility.yul\":57:76   */\n      swap1\n      pop\n        /* \"#utility.yul\":7:82   */\n      swap1\n      jump\t// out\n        /* \"#utility.yul\":88:205   */\n    tag_31:\n        /* \"#utility.yul\":197:198   */\n      0x00\n        /* \"#utility.yul\":194:195   */\n      dup1\n        /* \"#utility.yul\":187:199   */\n      revert\n        /* \"#utility.yul\":211:328   */\n    tag_32:\n        /* \"#utility.yul\":320:321   */\n      0x00\n        /* \"#utility.yul\":317:318   */\n      dup1\n        /* \"#utility.yul\":310:322   */\n      revert\n        /* \"#utility.yul\":334:460   */\n    tag_33:\n        /* \"#utility.yul\":371:378   */\n      0x00\n        /* \"#utility.yul\":411:453   */\n      0xffffffffffffffffffffffffffffffffffffffff\n        /* \"#utility.yul\":404:409   */\n      dup3\n        /* \"#utility.yul\":400:454   */\n      and\n        /* \"#utility.yul\":389:454   */\n      swap1\n      pop\n        /* \"#utility.yul\":334:460   */\n      swap2\n      swap1\n      pop\n      jump\t// out\n        /* \"#utility.yul\":466:562   */\n    tag_34:\n        /* \"#utility.yul\":503:510   */\n      0x00\n        /* \"#utility.yul\":532:556   */\n      tag_71\n        /* \"#utility.yul\":550:555   */\n      dup3\n        /* \"#utility.yul\":532:556   */\n      tag_33\n      jump\t// in\n    tag_71:\n        /* \"#utility.yul\":521:556   */\n      swap1\n      pop\n        /* \"#utility.yul\":466:562   */\n      swap2\n      swap1\n      pop\n      jump\t// out\n        /* \"#utility.yul\":568:690   */\n    tag_35:\n        /* \"#utility.yul\":641:665   */\n      tag_73\n        /* \"#utility.yul\":659:664   */\n      dup2\n        /* \"#utility.yul\":641:665   */\n      tag_34\n      jump\t// in\n    tag_73:\n        /* \"#utility.yul\":634:639   */\n      dup2\n        /* \"#utility.yul\":631:666   */\n      eq\n        /* \"#utility.yul\":621:684   */\n      tag_74\n      jumpi\n        /* \"#utility.yul\":680:681   */\n      0x00\n        /* \"#utility.yul\":677:678   */\n      dup1\n        /* \"#utility.yul\":670:682   */\n      revert\n        /* \"#utility.yul\":621:684   */\n    tag_74:\n        /* \"#utility.yul\":568:690   */\n      pop\n      jump\t// out\n        /* \"#utility.yul\":696:835   */\n    tag_36:\n        /* \"#utility.yul\":742:747   */\n      0x00\n        /* \"#utility.yul\":780:786   */\n      dup2\n        /* \"#utility.yul\":767:787   */\n      calldataload\n        /* \"#utility.yul\":758:787   */\n      swap1\n      pop\n        /* \"#utility.yul\":796:829   */\n      tag_76\n        /* \"#utility.yul\":823:828   */\n      dup2\n        /* \"#utility.yul\":796:829   */\n      tag_35\n      jump\t// in\n    tag_76:\n        /* \"#utility.yul\":696:835   */\n      swap3\n      swap2\n      pop\n      pop\n      jump\t// out\n        /* \"#utility.yul\":841:958   */\n    tag_37:\n        /* \"#utility.yul\":950:951   */\n      0x00\n        /* \"#utility.yul\":947:948   */\n      dup1\n        /* \"#utility.yul\":940:952   */\n      revert\n        /* \"#utility.yul\":964:1066   */\n    tag_38:\n        /* \"#utility.yul\":1005:1011   */\n      0x00\n        /* \"#utility.yul\":1056:1058   */\n      0x1f\n        /* \"#utility.yul\":1052:1059   */\n      not\n        /* \"#utility.yul\":1047:1049   */\n      0x1f\n        /* \"#utility.yul\":1040:1045   */\n      dup4\n        /* \"#utility.yul\":1036:1050   */\n      add\n        /* \"#utility.yul\":1032:1060   */\n      and\n        /* \"#utility.yul\":1022:1060   */\n      swap1\n      pop\n        /* \"#utility.yul\":964:1066   */\n      swap2\n      swap1\n      pop\n      jump\t// out\n        /* \"#utility.yul\":1072:1252   */\n    tag_39:\n        /* \"#utility.yul\":1120:1197   */\n      0x4e487b7100000000000000000000000000000000000000000000000000000000\n        /* \"#utility.yul\":1117:1118   */\n      0x00\n        /* \"#utility.yul\":1110:1198   */\n      mstore\n        /* \"#utility.yul\":1217:1221   */\n      0x41\n        /* \"#utility.yul\":1214:1215   */\n      0x04\n        /* \"#utility.yul\":1207:1222   */\n      mstore\n        /* \"#utility.yul\":1241:1245   */\n      0x24\n        /* \"#utility.yul\":1238:1239   */\n      0x00\n        /* \"#utility.yul\":1231:1246   */\n      revert\n        /* \"#utility.yul\":1258:1539   */\n    tag_40:\n        /* \"#utility.yul\":1341:1368   */\n      tag_81\n        /* \"#utility.yul\":1363:1367   */\n      dup3\n        /* \"#utility.yul\":1341:1368   */\n      tag_38\n      jump\t// in\n    tag_81:\n        /* \"#utility.yul\":1333:1339   */\n      dup2\n        /* \"#utility.yul\":1329:1369   */\n      add\n        /* \"#utility.yul\":1471:1477   */\n      dup2\n        /* \"#utility.yul\":1459:1469   */\n      dup2\n        /* \"#utility.yul\":1456:1478   */\n      lt\n        /* \"#utility.yul\":1435:1453   */\n      0xffffffffffffffff\n        /* \"#utility.yul\":1423:1433   */\n      dup3\n        /* \"#utility.yul\":1420:1454   */\n      gt\n        /* \"#utility.yul\":1417:1479   */\n      or\n        /* \"#utility.yul\":1414:1502   */\n      iszero\n      tag_82\n      jumpi\n        /* \"#utility.yul\":1482:1500   */\n      tag_83\n      tag_39\n      jump\t// in\n    tag_83:\n        /* \"#utility.yul\":1414:1502   */\n    tag_82:\n        /* \"#utility.yul\":1522:1532   */\n      dup1\n        /* \"#utility.yul\":1518:1520   */\n      0x40\n        /* \"#utility.yul\":1511:1533   */\n      mstore\n        /* \"#utility.yul\":1301:1539   */\n      pop\n        /* \"#utility.yul\":1258:1539   */\n      pop\n      pop\n      jump\t// out\n        /* \"#utility.yul\":1545:1674   */\n    tag_41:\n        /* \"#utility.yul\":1579:1585   */\n      0x00\n        /* \"#utility.yul\":1606:1626   */\n      tag_85\n      tag_30\n      jump\t// in\n    tag_85:\n        /* \"#utility.yul\":1596:1626   */\n      swap1\n      pop\n        /* \"#utility.yul\":1635:1668   */\n      tag_86\n        /* \"#utility.yul\":1663:1667   */\n      dup3\n        /* \"#utility.yul\":1655:1661   */\n      dup3\n        /* \"#utility.yul\":1635:1668   */\n      tag_40\n      jump\t// in\n    tag_86:\n        /* \"#utility.yul\":1545:1674   */\n      swap2\n      swap1\n      pop\n      jump\t// out\n        /* \"#utility.yul\":1680:1991   */\n    tag_42:\n        /* \"#utility.yul\":1757:1761   */\n      0x00\n        /* \"#utility.yul\":1847:1865   */\n      0xffffffffffffffff\n        /* \"#utility.yul\":1839:1845   */\n      dup3\n        /* \"#utility.yul\":1836:1866   */\n      gt\n        /* \"#utility.yul\":1833:1889   */\n      iszero\n      tag_88\n      jumpi\n        /* \"#utility.yul\":1869:1887   */\n      tag_89\n      tag_39\n      jump\t// in\n    tag_89:\n        /* \"#utility.yul\":1833:1889   */\n    tag_88:\n        /* \"#utility.yul\":1919:1923   */\n      0x20\n        /* \"#utility.yul\":1911:1917   */\n      dup3\n        /* \"#utility.yul\":1907:1924   */\n      mul\n        /* \"#utility.yul\":1899:1924   */\n      swap1\n      pop\n        /* \"#utility.yul\":1979:1983   */\n      0x20\n        /* \"#utility.yul\":1973:1977   */\n      dup2\n        /* \"#utility.yul\":1969:1984   */\n      add\n        /* \"#utility.yul\":1961:1984   */\n      swap1\n      pop\n        /* \"#utility.yul\":1680:1991   */\n      swap2\n      swap1\n      pop\n      jump\t// out\n        /* \"#utility.yul\":1997:2114   */\n    tag_43:\n        /* \"#utility.yul\":2106:2107   */\n      0x00\n        /* \"#utility.yul\":2103:2104   */\n      dup1\n        /* \"#utility.yul\":2096:2108   */\n      revert\n        /* \"#utility.yul\":2137:2847   */\n    tag_44:\n        /* \"#utility.yul\":2233:2238   */\n      0x00\n        /* \"#utility.yul\":2258:2339   */\n      tag_92\n        /* \"#utility.yul\":2274:2338   */\n      tag_93\n        /* \"#utility.yul\":2331:2337   */\n      dup5\n        /* \"#utility.yul\":2274:2338   */\n      tag_42\n      jump\t// in\n    tag_93:\n        /* \"#utility.yul\":2258:2339   */\n      tag_41\n      jump\t// in\n    tag_92:\n        /* \"#utility.yul\":2249:2339   */\n      swap1\n      pop\n        /* \"#utility.yul\":2359:2364   */\n      dup1\n        /* \"#utility.yul\":2388:2394   */\n      dup4\n        /* \"#utility.yul\":2381:2386   */\n      dup3\n        /* \"#utility.yul\":2374:2395   */\n      mstore\n        /* \"#utility.yul\":2422:2426   */\n      0x20\n        /* \"#utility.yul\":2415:2420   */\n      dup3\n        /* \"#utility.yul\":2411:2427   */\n      add\n        /* \"#utility.yul\":2404:2427   */\n      swap1\n      pop\n        /* \"#utility.yul\":2475:2479   */\n      0x20\n        /* \"#utility.yul\":2467:2473   */\n      dup5\n        /* \"#utility.yul\":2463:2480   */\n      mul\n        /* \"#utility.yul\":2455:2461   */\n      dup4\n        /* \"#utility.yul\":2451:2481   */\n      add\n        /* \"#utility.yul\":2504:2507   */\n      dup6\n        /* \"#utility.yul\":2496:2502   */\n      dup2\n        /* \"#utility.yul\":2493:2508   */\n      gt\n        /* \"#utility.yul\":2490:2612   */\n      iszero\n      tag_94\n      jumpi\n        /* \"#utility.yul\":2523:2602   */\n      tag_95\n      tag_43\n      jump\t// in\n    tag_95:\n        /* \"#utility.yul\":2490:2612   */\n    tag_94:\n        /* \"#utility.yul\":2638:2644   */\n      dup4\n        /* \"#utility.yul\":2621:2841   */\n    tag_96:\n        /* \"#utility.yul\":2655:2661   */\n      dup2\n        /* \"#utility.yul\":2650:2653   */\n      dup2\n        /* \"#utility.yul\":2647:2662   */\n      lt\n        /* \"#utility.yul\":2621:2841   */\n      iszero\n      tag_98\n      jumpi\n        /* \"#utility.yul\":2730:2733   */\n      dup1\n        /* \"#utility.yul\":2759:2796   */\n      tag_99\n        /* \"#utility.yul\":2792:2795   */\n      dup9\n        /* \"#utility.yul\":2780:2790   */\n      dup3\n        /* \"#utility.yul\":2759:2796   */\n      tag_36\n      jump\t// in\n    tag_99:\n        /* \"#utility.yul\":2754:2757   */\n      dup5\n        /* \"#utility.yul\":2747:2797   */\n      mstore\n        /* \"#utility.yul\":2826:2830   */\n      0x20\n        /* \"#utility.yul\":2821:2824   */\n      dup5\n        /* \"#utility.yul\":2817:2831   */\n      add\n        /* \"#utility.yul\":2810:2831   */\n      swap4\n      pop\n        /* \"#utility.yul\":2697:2841   */\n      pop\n        /* \"#utility.yul\":2681:2685   */\n      0x20\n        /* \"#utility.yul\":2676:2679   */\n      dup2\n        /* \"#utility.yul\":2672:2686   */\n      add\n        /* \"#utility.yul\":2665:2686   */\n      swap1\n      pop\n        /* \"#utility.yul\":2621:2841   */\n      jump(tag_96)\n    tag_98:\n        /* \"#utility.yul\":2625:2646   */\n      pop\n        /* \"#utility.yul\":2239:2847   */\n      pop\n      pop\n        /* \"#utility.yul\":2137:2847   */\n      swap4\n      swap3\n      pop\n      pop\n      pop\n      jump\t// out\n        /* \"#utility.yul\":2870:3240   */\n    tag_45:\n        /* \"#utility.yul\":2941:2946   */\n      0x00\n        /* \"#utility.yul\":2990:2993   */\n      dup3\n        /* \"#utility.yul\":2983:2987   */\n      0x1f\n        /* \"#utility.yul\":2975:2981   */\n      dup4\n        /* \"#utility.yul\":2971:2988   */\n      add\n        /* \"#utility.yul\":2967:2994   */\n      slt\n        /* \"#utility.yul\":2957:3079   */\n      tag_101\n      jumpi\n        /* \"#utility.yul\":2998:3077   */\n      tag_102\n      tag_37\n      jump\t// in\n    tag_102:\n        /* \"#utility.yul\":2957:3079   */\n    tag_101:\n        /* \"#utility.yul\":3115:3121   */\n      dup2\n        /* \"#utility.yul\":3102:3122   */\n      calldataload\n        /* \"#utility.yul\":3140:3234   */\n      tag_103\n        /* \"#utility.yul\":3230:3233   */\n      dup5\n        /* \"#utility.yul\":3222:3228   */\n      dup3\n        /* \"#utility.yul\":3215:3219   */\n      0x20\n        /* \"#utility.yul\":3207:3213   */\n      dup7\n        /* \"#utility.yul\":3203:3220   */\n      add\n        /* \"#utility.yul\":3140:3234   */\n      tag_44\n      jump\t// in\n    tag_103:\n        /* \"#utility.yul\":3131:3234   */\n      swap2\n      pop\n        /* \"#utility.yul\":2947:3240   */\n      pop\n        /* \"#utility.yul\":2870:3240   */\n      swap3\n      swap2\n      pop\n      pop\n      jump\t// out\n        /* \"#utility.yul\":3246:3323   */\n    tag_46:\n        /* \"#utility.yul\":3283:3290   */\n      0x00\n        /* \"#utility.yul\":3312:3317   */\n      dup2\n        /* \"#utility.yul\":3301:3317   */\n      swap1\n      pop\n        /* \"#utility.yul\":3246:3323   */\n      swap2\n      swap1\n      pop\n      jump\t// out\n        /* \"#utility.yul\":3329:3451   */\n    tag_47:\n        /* \"#utility.yul\":3402:3426   */\n      tag_106\n        /* \"#utility.yul\":3420:3425   */\n      dup2\n        /* \"#utility.yul\":3402:3426   */\n      tag_46\n      jump\t// in\n    tag_106:\n        /* \"#utility.yul\":3395:3400   */\n      dup2\n        /* \"#utility.yul\":3392:3427   */\n      eq\n        /* \"#utility.yul\":3382:3445   */\n      tag_107\n      jumpi\n        /* \"#utility.yul\":3441:3442   */\n      0x00\n        /* \"#utility.yul\":3438:3439   */\n      dup1\n        /* \"#utility.yul\":3431:3443   */\n      revert\n        /* \"#utility.yul\":3382:3445   */\n    tag_107:\n        /* \"#utility.yul\":3329:3451   */\n      pop\n      jump\t// out\n        /* \"#utility.yul\":3457:3596   */\n    tag_48:\n        /* \"#utility.yul\":3503:3508   */\n      0x00\n        /* \"#utility.yul\":3541:3547   */\n      dup2\n        /* \"#utility.yul\":3528:3548   */\n      calldataload\n        /* \"#utility.yul\":3519:3548   */\n      swap1\n      pop\n        /* \"#utility.yul\":3557:3590   */\n      tag_109\n        /* \"#utility.yul\":3584:3589   */\n      dup2\n        /* \"#utility.yul\":3557:3590   */\n      tag_47\n      jump\t// in\n    tag_109:\n        /* \"#utility.yul\":3457:3596   */\n      swap3\n      swap2\n      pop\n      pop\n      jump\t// out\n        /* \"#utility.yul\":3602:4431   */\n    tag_6:\n        /* \"#utility.yul\":3704:3710   */\n      0x00\n        /* \"#utility.yul\":3712:3718   */\n      dup1\n        /* \"#utility.yul\":3720:3726   */\n      0x00\n        /* \"#utility.yul\":3769:3771   */\n      0x60\n        /* \"#utility.yul\":3757:3766   */\n      dup5\n        /* \"#utility.yul\":3748:3755   */\n      dup7\n        /* \"#utility.yul\":3744:3767   */\n      sub\n        /* \"#utility.yul\":3740:3772   */\n      slt\n        /* \"#utility.yul\":3737:3856   */\n      iszero\n      tag_111\n      jumpi\n        /* \"#utility.yul\":3775:3854   */\n      tag_112\n      tag_31\n      jump\t// in\n    tag_112:\n        /* \"#utility.yul\":3737:3856   */\n    tag_111:\n        /* \"#utility.yul\":3895:3896   */\n      0x00\n        /* \"#utility.yul\":3920:3973   */\n      tag_113\n        /* \"#utility.yul\":3965:3972   */\n      dup7\n        /* \"#utility.yul\":3956:3962   */\n      dup3\n        /* \"#utility.yul\":3945:3954   */\n      dup8\n        /* \"#utility.yul\":3941:3963   */\n      add\n        /* \"#utility.yul\":3920:3973   */\n      tag_36\n      jump\t// in\n    tag_113:\n        /* \"#utility.yul\":3910:3973   */\n      swap4\n      pop\n        /* \"#utility.yul\":3866:3983   */\n      pop\n        /* \"#utility.yul\":4050:4052   */\n      0x20\n        /* \"#utility.yul\":4039:4048   */\n      dup5\n        /* \"#utility.yul\":4035:4053   */\n      add\n        /* \"#utility.yul\":4022:4054   */\n      calldataload\n        /* \"#utility.yul\":4081:4099   */\n      0xffffffffffffffff\n        /* \"#utility.yul\":4073:4079   */\n      dup2\n        /* \"#utility.yul\":4070:4100   */\n      gt\n        /* \"#utility.yul\":4067:4184   */\n      iszero\n      tag_114\n      jumpi\n        /* \"#utility.yul\":4103:4182   */\n      tag_115\n      tag_32\n      jump\t// in\n    tag_115:\n        /* \"#utility.yul\":4067:4184   */\n    tag_114:\n        /* \"#utility.yul\":4208:4286   */\n      tag_116\n        /* \"#utility.yul\":4278:4285   */\n      dup7\n        /* \"#utility.yul\":4269:4275   */\n      dup3\n        /* \"#utility.yul\":4258:4267   */\n      dup8\n        /* \"#utility.yul\":4254:4276   */\n      add\n        /* \"#utility.yul\":4208:4286   */\n      tag_45\n      jump\t// in\n    tag_116:\n        /* \"#utility.yul\":4198:4286   */\n      swap3\n      pop\n        /* \"#utility.yul\":3993:4296   */\n      pop\n        /* \"#utility.yul\":4335:4337   */\n      0x40\n        /* \"#utility.yul\":4361:4414   */\n      tag_117\n        /* \"#utility.yul\":4406:4413   */\n      dup7\n        /* \"#utility.yul\":4397:4403   */\n      dup3\n        /* \"#utility.yul\":4386:4395   */\n      dup8\n        /* \"#utility.yul\":4382:4404   */\n      add\n        /* \"#utility.yul\":4361:4414   */\n      tag_48\n      jump\t// in\n    tag_117:\n        /* \"#utility.yul\":4351:4414   */\n      swap2\n      pop\n        /* \"#utility.yul\":4306:4424   */\n      pop\n        /* \"#utility.yul\":3602:4431   */\n      swap3\n      pop\n      swap3\n      pop\n      swap3\n      jump\t// out\n        /* \"#utility.yul\":4437:4606   */\n    tag_49:\n        /* \"#utility.yul\":4521:4532   */\n      0x00\n        /* \"#utility.yul\":4555:4561   */\n      dup3\n        /* \"#utility.yul\":4550:4553   */\n      dup3\n        /* \"#utility.yul\":4543:4562   */\n      mstore\n        /* \"#utility.yul\":4595:4599   */\n      0x20\n        /* \"#utility.yul\":4590:4593   */\n      dup3\n        /* \"#utility.yul\":4586:4600   */\n      add\n        /* \"#utility.yul\":4571:4600   */\n      swap1\n      pop\n        /* \"#utility.yul\":4437:4606   */\n      swap3\n      swap2\n      pop\n      pop\n      jump\t// out\n        /* \"#utility.yul\":4612:4784   */\n    tag_50:\n        /* \"#utility.yul\":4752:4776   */\n      0x496e76616c69642077616c6c6574206164647265737300000000000000000000\n        /* \"#utility.yul\":4748:4749   */\n      0x00\n        /* \"#utility.yul\":4740:4746   */\n      dup3\n        /* \"#utility.yul\":4736:4750   */\n      add\n        /* \"#utility.yul\":4729:4777   */\n      mstore\n        /* \"#utility.yul\":4612:4784   */\n      pop\n      jump\t// out\n        /* \"#utility.yul\":4790:5156   */\n    tag_51:\n        /* \"#utility.yul\":4932:4935   */\n      0x00\n        /* \"#utility.yul\":4953:5020   */\n      tag_121\n        /* \"#utility.yul\":5017:5019   */\n      0x16\n        /* \"#utility.yul\":5012:5015   */\n      dup4\n        /* \"#utility.yul\":4953:5020   */\n      tag_49\n      jump\t// in\n    tag_121:\n        /* \"#utility.yul\":4946:5020   */\n      swap2\n      pop\n        /* \"#utility.yul\":5029:5122   */\n      tag_122\n        /* \"#utility.yul\":5118:5121   */\n      dup3\n        /* \"#utility.yul\":5029:5122   */\n      tag_50\n      jump\t// in\n    tag_122:\n        /* \"#utility.yul\":5147:5149   */\n      0x20\n        /* \"#utility.yul\":5142:5145   */\n      dup3\n        /* \"#utility.yul\":5138:5150   */\n      add\n        /* \"#utility.yul\":5131:5150   */\n      swap1\n      pop\n        /* \"#utility.yul\":4790:5156   */\n      swap2\n      swap1\n      pop\n      jump\t// out\n        /* \"#utility.yul\":5162:5581   */\n    tag_11:\n        /* \"#utility.yul\":5328:5332   */\n      0x00\n        /* \"#utility.yul\":5366:5368   */\n      0x20\n        /* \"#utility.yul\":5355:5364   */\n      dup3\n        /* \"#utility.yul\":5351:5369   */\n      add\n        /* \"#utility.yul\":5343:5369   */\n      swap1\n      pop\n        /* \"#utility.yul\":5415:5424   */\n      dup2\n        /* \"#utility.yul\":5409:5413   */\n      dup2\n        /* \"#utility.yul\":5405:5425   */\n      sub\n        /* \"#utility.yul\":5401:5402   */\n      0x00\n        /* \"#utility.yul\":5390:5399   */\n      dup4\n        /* \"#utility.yul\":5386:5403   */\n      add\n        /* \"#utility.yul\":5379:5426   */\n      mstore\n        /* \"#utility.yul\":5443:5574   */\n      tag_124\n        /* \"#utility.yul\":5569:5573   */\n      dup2\n        /* \"#utility.yul\":5443:5574   */\n      tag_51\n      jump\t// in\n    tag_124:\n        /* \"#utility.yul\":5435:5574   */\n      swap1\n      pop\n        /* \"#utility.yul\":5162:5581   */\n      swap2\n      swap1\n      pop\n      jump\t// out\n        /* \"#utility.yul\":5587:5764   */\n    tag_52:\n        /* \"#utility.yul\":5727:5756   */\n      0x4174206c65617374206f6e65206f776e65722072657175697265640000000000\n        /* \"#utility.yul\":5723:5724   */\n      0x00\n        /* \"#utility.yul\":5715:5721   */\n      dup3\n        /* \"#utility.yul\":5711:5725   */\n      add\n        /* \"#utility.yul\":5704:5757   */\n      mstore\n        /* \"#utility.yul\":5587:5764   */\n      pop\n      jump\t// out\n        /* \"#utility.yul\":5770:6136   */\n    tag_53:\n        /* \"#utility.yul\":5912:5915   */\n      0x00\n        /* \"#utility.yul\":5933:6000   */\n      tag_127\n        /* \"#utility.yul\":5997:5999   */\n      0x1b\n        /* \"#utility.yul\":5992:5995   */\n      dup4\n        /* \"#utility.yul\":5933:6000   */\n      tag_49\n      jump\t// in\n    tag_127:\n        /* \"#utility.yul\":5926:6000   */\n      swap2\n      pop\n        /* \"#utility.yul\":6009:6102   */\n      tag_128\n        /* \"#utility.yul\":6098:6101   */\n      dup3\n        /* \"#utility.yul\":6009:6102   */\n      tag_52\n      jump\t// in\n    tag_128:\n        /* \"#utility.yul\":6127:6129   */\n      0x20\n        /* \"#utility.yul\":6122:6125   */\n      dup3\n        /* \"#utility.yul\":6118:6130   */\n      add\n        /* \"#utility.yul\":6111:6130   */\n      swap1\n      pop\n        /* \"#utility.yul\":5770:6136   */\n      swap2\n      swap1\n      pop\n      jump\t// out\n        /* \"#utility.yul\":6142:6561   */\n    tag_14:\n        /* \"#utility.yul\":6308:6312   */\n      0x00\n        /* \"#utility.yul\":6346:6348   */\n      0x20\n        /* \"#utility.yul\":6335:6344   */\n      dup3\n        /* \"#utility.yul\":6331:6349   */\n      add\n        /* \"#utility.yul\":6323:6349   */\n      swap1\n      pop\n        /* \"#utility.yul\":6395:6404   */\n      dup2\n        /* \"#utility.yul\":6389:6393   */\n      dup2\n        /* \"#utility.yul\":6385:6405   */\n      sub\n        /* \"#utility.yul\":6381:6382   */\n      0x00\n        /* \"#utility.yul\":6370:6379   */\n      dup4\n        /* \"#utility.yul\":6366:6383   */\n      add\n        /* \"#utility.yul\":6359:6406   */\n      mstore\n        /* \"#utility.yul\":6423:6554   */\n      tag_130\n        /* \"#utility.yul\":6549:6553   */\n      dup2\n        /* \"#utility.yul\":6423:6554   */\n      tag_53\n      jump\t// in\n    tag_130:\n        /* \"#utility.yul\":6415:6554   */\n      swap1\n      pop\n        /* \"#utility.yul\":6142:6561   */\n      swap2\n      swap1\n      pop\n      jump\t// out\n        /* \"#utility.yul\":6567:6793   */\n    tag_54:\n        /* \"#utility.yul\":6707:6741   */\n      0x496e76616c6964206e756d626572206f6620726571756972656420636f6e6669\n        /* \"#utility.yul\":6703:6704   */\n      0x00\n        /* \"#utility.yul\":6695:6701   */\n      dup3\n        /* \"#utility.yul\":6691:6705   */\n      add\n        /* \"#utility.yul\":6684:6742   */\n      mstore\n        /* \"#utility.yul\":6776:6785   */\n      0x726d6174696f6e00000000000000000000000000000000000000000000000000\n        /* \"#utility.yul\":6771:6773   */\n      0x20\n        /* \"#utility.yul\":6763:6769   */\n      dup3\n        /* \"#utility.yul\":6759:6774   */\n      add\n        /* \"#utility.yul\":6752:6786   */\n      mstore\n        /* \"#utility.yul\":6567:6793   */\n      pop\n      jump\t// out\n        /* \"#utility.yul\":6799:7165   */\n    tag_55:\n        /* \"#utility.yul\":6941:6944   */\n      0x00\n        /* \"#utility.yul\":6962:7029   */\n      tag_133\n        /* \"#utility.yul\":7026:7028   */\n      0x27\n        /* \"#utility.yul\":7021:7024   */\n      dup4\n        /* \"#utility.yul\":6962:7029   */\n      tag_49\n      jump\t// in\n    tag_133:\n        /* \"#utility.yul\":6955:7029   */\n      swap2\n      pop\n        /* \"#utility.yul\":7038:7131   */\n      tag_134\n        /* \"#utility.yul\":7127:7130   */\n      dup3\n        /* \"#utility.yul\":7038:7131   */\n      tag_54\n      jump\t// in\n    tag_134:\n        /* \"#utility.yul\":7156:7158   */\n      0x40\n        /* \"#utility.yul\":7151:7154   */\n      dup3\n        /* \"#utility.yul\":7147:7159   */\n      add\n        /* \"#utility.yul\":7140:7159   */\n      swap1\n      pop\n        /* \"#utility.yul\":6799:7165   */\n      swap2\n      swap1\n      pop\n      jump\t// out\n        /* \"#utility.yul\":7171:7590   */\n    tag_18:\n        /* \"#utility.yul\":7337:7341   */\n      0x00\n        /* \"#utility.yul\":7375:7377   */\n      0x20\n        /* \"#utility.yul\":7364:7373   */\n      dup3\n        /* \"#utility.yul\":7360:7378   */\n      add\n        /* \"#utility.yul\":7352:7378   */\n      swap1\n      pop\n        /* \"#utility.yul\":7424:7433   */\n      dup2\n        /* \"#utility.yul\":7418:7422   */\n      dup2\n        /* \"#utility.yul\":7414:7434   */\n      sub\n        /* \"#utility.yul\":7410:7411   */\n      0x00\n        /* \"#utility.yul\":7399:7408   */\n      dup4\n        /* \"#utility.yul\":7395:7412   */\n      add\n        /* \"#utility.yul\":7388:7435   */\n      mstore\n        /* \"#utility.yul\":7452:7583   */\n      tag_136\n        /* \"#utility.yul\":7578:7582   */\n      dup2\n        /* \"#utility.yul\":7452:7583   */\n      tag_55\n      jump\t// in\n    tag_136:\n        /* \"#utility.yul\":7444:7583   */\n      swap1\n      pop\n        /* \"#utility.yul\":7171:7590   */\n      swap2\n      swap1\n      pop\n      jump\t// out\n        /* \"#utility.yul\":7596:7714   */\n    tag_56:\n        /* \"#utility.yul\":7683:7707   */\n      tag_138\n        /* \"#utility.yul\":7701:7706   */\n      dup2\n        /* \"#utility.yul\":7683:7707   */\n      tag_34\n      jump\t// in\n    tag_138:\n        /* \"#utility.yul\":7678:7681   */\n      dup3\n        /* \"#utility.yul\":7671:7708   */\n      mstore\n        /* \"#utility.yul\":7596:7714   */\n      pop\n      pop\n      jump\t// out\n        /* \"#utility.yul\":7720:7834   */\n    tag_57:\n        /* \"#utility.yul\":7787:7793   */\n      0x00\n        /* \"#utility.yul\":7821:7826   */\n      dup2\n        /* \"#utility.yul\":7815:7827   */\n      mload\n        /* \"#utility.yul\":7805:7827   */\n      swap1\n      pop\n        /* \"#utility.yul\":7720:7834   */\n      swap2\n      swap1\n      pop\n      jump\t// out\n        /* \"#utility.yul\":7840:8024   */\n    tag_58:\n        /* \"#utility.yul\":7939:7950   */\n      0x00\n        /* \"#utility.yul\":7973:7979   */\n      dup3\n        /* \"#utility.yul\":7968:7971   */\n      dup3\n        /* \"#utility.yul\":7961:7980   */\n      mstore\n        /* \"#utility.yul\":8013:8017   */\n      0x20\n        /* \"#utility.yul\":8008:8011   */\n      dup3\n        /* \"#utility.yul\":8004:8018   */\n      add\n        /* \"#utility.yul\":7989:8018   */\n      swap1\n      pop\n        /* \"#utility.yul\":7840:8024   */\n      swap3\n      swap2\n      pop\n      pop\n      jump\t// out\n        /* \"#utility.yul\":8030:8162   */\n    tag_59:\n        /* \"#utility.yul\":8097:8101   */\n      0x00\n        /* \"#utility.yul\":8120:8123   */\n      dup2\n        /* \"#utility.yul\":8112:8123   */\n      swap1\n      pop\n        /* \"#utility.yul\":8150:8154   */\n      0x20\n        /* \"#utility.yul\":8145:8148   */\n      dup3\n        /* \"#utility.yul\":8141:8155   */\n      add\n        /* \"#utility.yul\":8133:8155   */\n      swap1\n      pop\n        /* \"#utility.yul\":8030:8162   */\n      swap2\n      swap1\n      pop\n      jump\t// out\n        /* \"#utility.yul\":8168:8276   */\n    tag_60:\n        /* \"#utility.yul\":8245:8269   */\n      tag_143\n        /* \"#utility.yul\":8263:8268   */\n      dup2\n        /* \"#utility.yul\":8245:8269   */\n      tag_34\n      jump\t// in\n    tag_143:\n        /* \"#utility.yul\":8240:8243   */\n      dup3\n        /* \"#utility.yul\":8233:8270   */\n      mstore\n        /* \"#utility.yul\":8168:8276   */\n      pop\n      pop\n      jump\t// out\n        /* \"#utility.yul\":8282:8461   */\n    tag_61:\n        /* \"#utility.yul\":8351:8361   */\n      0x00\n        /* \"#utility.yul\":8372:8418   */\n      tag_145\n        /* \"#utility.yul\":8414:8417   */\n      dup4\n        /* \"#utility.yul\":8406:8412   */\n      dup4\n        /* \"#utility.yul\":8372:8418   */\n      tag_60\n      jump\t// in\n    tag_145:\n        /* \"#utility.yul\":8450:8454   */\n      0x20\n        /* \"#utility.yul\":8445:8448   */\n      dup4\n        /* \"#utility.yul\":8441:8455   */\n      add\n        /* \"#utility.yul\":8427:8455   */\n      swap1\n      pop\n        /* \"#utility.yul\":8282:8461   */\n      swap3\n      swap2\n      pop\n      pop\n      jump\t// out\n        /* \"#utility.yul\":8467:8580   */\n    tag_62:\n        /* \"#utility.yul\":8537:8541   */\n      0x00\n        /* \"#utility.yul\":8569:8573   */\n      0x20\n        /* \"#utility.yul\":8564:8567   */\n      dup3\n        /* \"#utility.yul\":8560:8574   */\n      add\n        /* \"#utility.yul\":8552:8574   */\n      swap1\n      pop\n        /* \"#utility.yul\":8467:8580   */\n      swap2\n      swap1\n      pop\n      jump\t// out\n        /* \"#utility.yul\":8616:9348   */\n    tag_63:\n        /* \"#utility.yul\":8735:8738   */\n      0x00\n        /* \"#utility.yul\":8764:8818   */\n      tag_148\n        /* \"#utility.yul\":8812:8817   */\n      dup3\n        /* \"#utility.yul\":8764:8818   */\n      tag_57\n      jump\t// in\n    tag_148:\n        /* \"#utility.yul\":8834:8920   */\n      tag_149\n        /* \"#utility.yul\":8913:8919   */\n      dup2\n        /* \"#utility.yul\":8908:8911   */\n      dup6\n        /* \"#utility.yul\":8834:8920   */\n      tag_58\n      jump\t// in\n    tag_149:\n        /* \"#utility.yul\":8827:8920   */\n      swap4\n      pop\n        /* \"#utility.yul\":8944:9000   */\n      tag_150\n        /* \"#utility.yul\":8994:8999   */\n      dup4\n        /* \"#utility.yul\":8944:9000   */\n      tag_59\n      jump\t// in\n    tag_150:\n        /* \"#utility.yul\":9023:9030   */\n      dup1\n        /* \"#utility.yul\":9054:9055   */\n      0x00\n        /* \"#utility.yul\":9039:9323   */\n    tag_151:\n        /* \"#utility.yul\":9064:9070   */\n      dup4\n        /* \"#utility.yul\":9061:9062   */\n      dup2\n        /* \"#utility.yul\":9058:9071   */\n      lt\n        /* \"#utility.yul\":9039:9323   */\n      iszero\n      tag_153\n      jumpi\n        /* \"#utility.yul\":9140:9146   */\n      dup2\n        /* \"#utility.yul\":9134:9147   */\n      mload\n        /* \"#utility.yul\":9167:9230   */\n      tag_154\n        /* \"#utility.yul\":9226:9229   */\n      dup9\n        /* \"#utility.yul\":9211:9224   */\n      dup3\n        /* \"#utility.yul\":9167:9230   */\n      tag_61\n      jump\t// in\n    tag_154:\n        /* \"#utility.yul\":9160:9230   */\n      swap8\n      pop\n        /* \"#utility.yul\":9253:9313   */\n      tag_155\n        /* \"#utility.yul\":9306:9312   */\n      dup4\n        /* \"#utility.yul\":9253:9313   */\n      tag_62\n      jump\t// in\n    tag_155:\n        /* \"#utility.yul\":9243:9313   */\n      swap3\n      pop\n        /* \"#utility.yul\":9099:9323   */\n      pop\n        /* \"#utility.yul\":9086:9087   */\n      0x01\n        /* \"#utility.yul\":9083:9084   */\n      dup2\n        /* \"#utility.yul\":9079:9088   */\n      add\n        /* \"#utility.yul\":9074:9088   */\n      swap1\n      pop\n        /* \"#utility.yul\":9039:9323   */\n      jump(tag_151)\n    tag_153:\n        /* \"#utility.yul\":9043:9057   */\n      pop\n        /* \"#utility.yul\":9339:9342   */\n      dup6\n        /* \"#utility.yul\":9332:9342   */\n      swap4\n      pop\n        /* \"#utility.yul\":8740:9348   */\n      pop\n      pop\n      pop\n        /* \"#utility.yul\":8616:9348   */\n      swap3\n      swap2\n      pop\n      pop\n      jump\t// out\n        /* \"#utility.yul\":9354:9472   */\n    tag_64:\n        /* \"#utility.yul\":9441:9465   */\n      tag_157\n        /* \"#utility.yul\":9459:9464   */\n      dup2\n        /* \"#utility.yul\":9441:9465   */\n      tag_46\n      jump\t// in\n    tag_157:\n        /* \"#utility.yul\":9436:9439   */\n      dup3\n        /* \"#utility.yul\":9429:9466   */\n      mstore\n        /* \"#utility.yul\":9354:9472   */\n      pop\n      pop\n      jump\t// out\n        /* \"#utility.yul\":9478:10071   */\n    tag_22:\n        /* \"#utility.yul\":9677:9681   */\n      0x00\n        /* \"#utility.yul\":9715:9717   */\n      0x60\n        /* \"#utility.yul\":9704:9713   */\n      dup3\n        /* \"#utility.yul\":9700:9718   */\n      add\n        /* \"#utility.yul\":9692:9718   */\n      swap1\n      pop\n        /* \"#utility.yul\":9728:9799   */\n      tag_159\n        /* \"#utility.yul\":9796:9797   */\n      0x00\n        /* \"#utility.yul\":9785:9794   */\n      dup4\n        /* \"#utility.yul\":9781:9798   */\n      add\n        /* \"#utility.yul\":9772:9778   */\n      dup7\n        /* \"#utility.yul\":9728:9799   */\n      tag_56\n      jump\t// in\n    tag_159:\n        /* \"#utility.yul\":9846:9855   */\n      dup2\n        /* \"#utility.yul\":9840:9844   */\n      dup2\n        /* \"#utility.yul\":9836:9856   */\n      sub\n        /* \"#utility.yul\":9831:9833   */\n      0x20\n        /* \"#utility.yul\":9820:9829   */\n      dup4\n        /* \"#utility.yul\":9816:9834   */\n      add\n        /* \"#utility.yul\":9809:9857   */\n      mstore\n        /* \"#utility.yul\":9874:9982   */\n      tag_160\n        /* \"#utility.yul\":9977:9981   */\n      dup2\n        /* \"#utility.yul\":9968:9974   */\n      dup6\n        /* \"#utility.yul\":9874:9982   */\n      tag_63\n      jump\t// in\n    tag_160:\n        /* \"#utility.yul\":9866:9982   */\n      swap1\n      pop\n        /* \"#utility.yul\":9992:10064   */\n      tag_161\n        /* \"#utility.yul\":10060:10062   */\n      0x40\n        /* \"#utility.yul\":10049:10058   */\n      dup4\n        /* \"#utility.yul\":10045:10063   */\n      add\n        /* \"#utility.yul\":10036:10042   */\n      dup5\n        /* \"#utility.yul\":9992:10064   */\n      tag_64\n      jump\t// in\n    tag_161:\n        /* \"#utility.yul\":9478:10071   */\n      swap5\n      swap4\n      pop\n      pop\n      pop\n      pop\n      jump\t// out\n\n    auxdata: 0xa26469706673582212202c81d3149ab9a411a1c5406cdafc9404024c187dff9fb3c2bbf5e5aeab11492964736f6c634300081a0033\n}\n",
				"bytecode": {
					"linkReferences": {},
					"object": "6080604052348015600e575f80fd5b506107db8061001c5f395ff3fe608060405234801561000f575f80fd5b5060043610610029575f3560e01c80635401d9f11461002d575b5f80fd5b610047600480360381019061004291906104ba565b610049565b005b5f73ffffffffffffffffffffffffffffffffffffffff168373ffffffffffffffffffffffffffffffffffffffff16036100b7576040517f08c379a00000000000000000000000000000000000000000000000000000000081526004016100ae90610580565b60405180910390fd5b5f8251116100fa576040517f08c379a00000000000000000000000000000000000000000000000000000000081526004016100f1906105e8565b60405180910390fd5b5f8111801561010a575081518111155b610149576040517f08c379a000000000000000000000000000000000000000000000000000000000815260040161014090610676565b60405180910390fd5b6040518060600160405280838152602001828152602001600115158152505f808573ffffffffffffffffffffffffffffffffffffffff1673ffffffffffffffffffffffffffffffffffffffff1681526020019081526020015f205f820151815f0190805190602001906101bd92919061022a565b50602082015181600101556040820151816002015f6101000a81548160ff0219169083151502179055509050507f93df635856cf91a6211f6a8ec8251fffa6c173b887a3091a084d6f33a3d61ce383838360405161021d93929190610769565b60405180910390a1505050565b828054828255905f5260205f209081019282156102a0579160200282015b8281111561029f578251825f6101000a81548173ffffffffffffffffffffffffffffffffffffffff021916908373ffffffffffffffffffffffffffffffffffffffff16021790555091602001919060010190610248565b5b5090506102ad91906102b1565b5090565b5b808211156102c8575f815f9055506001016102b2565b5090565b5f604051905090565b5f80fd5b5f80fd5b5f73ffffffffffffffffffffffffffffffffffffffff82169050919050565b5f610306826102dd565b9050919050565b610316816102fc565b8114610320575f80fd5b50565b5f813590506103318161030d565b92915050565b5f80fd5b5f601f19601f8301169050919050565b7f4e487b71000000000000000000000000000000000000000000000000000000005f52604160045260245ffd5b6103818261033b565b810181811067ffffffffffffffff821117156103a05761039f61034b565b5b80604052505050565b5f6103b26102cc565b90506103be8282610378565b919050565b5f67ffffffffffffffff8211156103dd576103dc61034b565b5b602082029050602081019050919050565b5f80fd5b5f6104046103ff846103c3565b6103a9565b90508083825260208201905060208402830185811115610427576104266103ee565b5b835b81811015610450578061043c8882610323565b845260208401935050602081019050610429565b5050509392505050565b5f82601f83011261046e5761046d610337565b5b813561047e8482602086016103f2565b91505092915050565b5f819050919050565b61049981610487565b81146104a3575f80fd5b50565b5f813590506104b481610490565b92915050565b5f805f606084860312156104d1576104d06102d5565b5b5f6104de86828701610323565b935050602084013567ffffffffffffffff8111156104ff576104fe6102d9565b5b61050b8682870161045a565b925050604061051c868287016104a6565b9150509250925092565b5f82825260208201905092915050565b7f496e76616c69642077616c6c65742061646472657373000000000000000000005f82015250565b5f61056a601683610526565b915061057582610536565b602082019050919050565b5f6020820190508181035f8301526105978161055e565b9050919050565b7f4174206c65617374206f6e65206f776e657220726571756972656400000000005f82015250565b5f6105d2601b83610526565b91506105dd8261059e565b602082019050919050565b5f6020820190508181035f8301526105ff816105c6565b9050919050565b7f496e76616c6964206e756d626572206f6620726571756972656420636f6e66695f8201527f726d6174696f6e00000000000000000000000000000000000000000000000000602082015250565b5f610660602783610526565b915061066b82610606565b604082019050919050565b5f6020820190508181035f83015261068d81610654565b9050919050565b61069d816102fc565b82525050565b5f81519050919050565b5f82825260208201905092915050565b5f819050602082019050919050565b6106d5816102fc565b82525050565b5f6106e683836106cc565b60208301905092915050565b5f602082019050919050565b5f610708826106a3565b61071281856106ad565b935061071d836106bd565b805f5b8381101561074d57815161073488826106db565b975061073f836106f2565b925050600181019050610720565b5085935050505092915050565b61076381610487565b82525050565b5f60608201905061077c5f830186610694565b818103602083015261078e81856106fe565b905061079d604083018461075a565b94935050505056fea26469706673582212202c81d3149ab9a411a1c5406cdafc9404024c187dff9fb3c2bbf5e5aeab11492964736f6c634300081a0033",
					"opcodes": "PUSH1 0x80 PUSH1 0x40 MSTORE CALLVALUE DUP1 ISZERO PUSH1 0xE JUMPI PUSH0 DUP1 REVERT JUMPDEST POP PUSH2 0x7DB DUP1 PUSH2 0x1C PUSH0 CODECOPY PUSH0 RETURN INVALID PUSH1 0x80 PUSH1 0x40 MSTORE CALLVALUE DUP1 ISZERO PUSH2 0xF JUMPI PUSH0 DUP1 REVERT JUMPDEST POP PUSH1 0x4 CALLDATASIZE LT PUSH2 0x29 JUMPI PUSH0 CALLDATALOAD PUSH1 0xE0 SHR DUP1 PUSH4 0x5401D9F1 EQ PUSH2 0x2D JUMPI JUMPDEST PUSH0 DUP1 REVERT JUMPDEST PUSH2 0x47 PUSH1 0x4 DUP1 CALLDATASIZE SUB DUP2 ADD SWAP1 PUSH2 0x42 SWAP2 SWAP1 PUSH2 0x4BA JUMP JUMPDEST PUSH2 0x49 JUMP JUMPDEST STOP JUMPDEST PUSH0 PUSH20 0xFFFFFFFFFFFFFFFFFFFFFFFFFFFFFFFFFFFFFFFF AND DUP4 PUSH20 0xFFFFFFFFFFFFFFFFFFFFFFFFFFFFFFFFFFFFFFFF AND SUB PUSH2 0xB7 JUMPI PUSH1 0x40 MLOAD PUSH32 0x8C379A000000000000000000000000000000000000000000000000000000000 DUP2 MSTORE PUSH1 0x4 ADD PUSH2 0xAE SWAP1 PUSH2 0x580 JUMP JUMPDEST PUSH1 0x40 MLOAD DUP1 SWAP2 SUB SWAP1 REVERT JUMPDEST PUSH0 DUP3 MLOAD GT PUSH2 0xFA JUMPI PUSH1 0x40 MLOAD PUSH32 0x8C379A000000000000000000000000000000000000000000000000000000000 DUP2 MSTORE PUSH1 0x4 ADD PUSH2 0xF1 SWAP1 PUSH2 0x5E8 JUMP JUMPDEST PUSH1 0x40 MLOAD DUP1 SWAP2 SUB SWAP1 REVERT JUMPDEST PUSH0 DUP2 GT DUP1 ISZERO PUSH2 0x10A JUMPI POP DUP2 MLOAD DUP2 GT ISZERO JUMPDEST PUSH2 0x149 JUMPI PUSH1 0x40 MLOAD PUSH32 0x8C379A000000000000000000000000000000000000000000000000000000000 DUP2 MSTORE PUSH1 0x4 ADD PUSH2 0x140 SWAP1 PUSH2 0x676 JUMP JUMPDEST PUSH1 0x40 MLOAD DUP1 SWAP2 SUB SWAP1 REVERT JUMPDEST PUSH1 0x40 MLOAD DUP1 PUSH1 0x60 ADD PUSH1 0x40 MSTORE DUP1 DUP4 DUP2 MSTORE PUSH1 0x20 ADD DUP3 DUP2 MSTORE PUSH1 0x20 ADD PUSH1 0x1 ISZERO ISZERO DUP2 MSTORE POP PUSH0 DUP1 DUP6 PUSH20 0xFFFFFFFFFFFFFFFFFFFFFFFFFFFFFFFFFFFFFFFF AND PUSH20 0xFFFFFFFFFFFFFFFFFFFFFFFFFFFFFFFFFFFFFFFF AND DUP2 MSTORE PUSH1 0x20 ADD SWAP1 DUP2 MSTORE PUSH1 0x20 ADD PUSH0 KECCAK256 PUSH0 DUP3 ADD MLOAD DUP2 PUSH0 ADD SWAP1 DUP1 MLOAD SWAP1 PUSH1 0x20 ADD SWAP1 PUSH2 0x1BD SWAP3 SWAP2 SWAP1 PUSH2 0x22A JUMP JUMPDEST POP PUSH1 0x20 DUP3 ADD MLOAD DUP2 PUSH1 0x1 ADD SSTORE PUSH1 0x40 DUP3 ADD MLOAD DUP2 PUSH1 0x2 ADD PUSH0 PUSH2 0x100 EXP DUP2 SLOAD DUP2 PUSH1 0xFF MUL NOT AND SWAP1 DUP4 ISZERO ISZERO MUL OR SWAP1 SSTORE POP SWAP1 POP POP PUSH32 0x93DF635856CF91A6211F6A8EC8251FFFA6C173B887A3091A084D6F33A3D61CE3 DUP4 DUP4 DUP4 PUSH1 0x40 MLOAD PUSH2 0x21D SWAP4 SWAP3 SWAP2 SWAP1 PUSH2 0x769 JUMP JUMPDEST PUSH1 0x40 MLOAD DUP1 SWAP2 SUB SWAP1 LOG1 POP POP POP JUMP JUMPDEST DUP3 DUP1 SLOAD DUP3 DUP3 SSTORE SWAP1 PUSH0 MSTORE PUSH1 0x20 PUSH0 KECCAK256 SWAP1 DUP2 ADD SWAP3 DUP3 ISZERO PUSH2 0x2A0 JUMPI SWAP2 PUSH1 0x20 MUL DUP3 ADD JUMPDEST DUP3 DUP2 GT ISZERO PUSH2 0x29F JUMPI DUP3 MLOAD DUP3 PUSH0 PUSH2 0x100 EXP DUP2 SLOAD DUP2 PUSH20 0xFFFFFFFFFFFFFFFFFFFFFFFFFFFFFFFFFFFFFFFF MUL NOT AND SWAP1 DUP4 PUSH20 0xFFFFFFFFFFFFFFFFFFFFFFFFFFFFFFFFFFFFFFFF AND MUL OR SWAP1 SSTORE POP SWAP2 PUSH1 0x20 ADD SWAP2 SWAP1 PUSH1 0x1 ADD SWAP1 PUSH2 0x248 JUMP JUMPDEST JUMPDEST POP SWAP1 POP PUSH2 0x2AD SWAP2 SWAP1 PUSH2 0x2B1 JUMP JUMPDEST POP SWAP1 JUMP JUMPDEST JUMPDEST DUP1 DUP3 GT ISZERO PUSH2 0x2C8 JUMPI PUSH0 DUP2 PUSH0 SWAP1 SSTORE POP PUSH1 0x1 ADD PUSH2 0x2B2 JUMP JUMPDEST POP SWAP1 JUMP JUMPDEST PUSH0 PUSH1 0x40 MLOAD SWAP1 POP SWAP1 JUMP JUMPDEST PUSH0 DUP1 REVERT JUMPDEST PUSH0 DUP1 REVERT JUMPDEST PUSH0 PUSH20 0xFFFFFFFFFFFFFFFFFFFFFFFFFFFFFFFFFFFFFFFF DUP3 AND SWAP1 POP SWAP2 SWAP1 POP JUMP JUMPDEST PUSH0 PUSH2 0x306 DUP3 PUSH2 0x2DD JUMP JUMPDEST SWAP1 POP SWAP2 SWAP1 POP JUMP JUMPDEST PUSH2 0x316 DUP2 PUSH2 0x2FC JUMP JUMPDEST DUP2 EQ PUSH2 0x320 JUMPI PUSH0 DUP1 REVERT JUMPDEST POP JUMP JUMPDEST PUSH0 DUP2 CALLDATALOAD SWAP1 POP PUSH2 0x331 DUP2 PUSH2 0x30D JUMP JUMPDEST SWAP3 SWAP2 POP POP JUMP JUMPDEST PUSH0 DUP1 REVERT JUMPDEST PUSH0 PUSH1 0x1F NOT PUSH1 0x1F DUP4 ADD AND SWAP1 POP SWAP2 SWAP1 POP JUMP JUMPDEST PUSH32 0x4E487B7100000000000000000000000000000000000000000000000000000000 PUSH0 MSTORE PUSH1 0x41 PUSH1 0x4 MSTORE PUSH1 0x24 PUSH0 REVERT JUMPDEST PUSH2 0x381 DUP3 PUSH2 0x33B JUMP JUMPDEST DUP2 ADD DUP2 DUP2 LT PUSH8 0xFFFFFFFFFFFFFFFF DUP3 GT OR ISZERO PUSH2 0x3A0 JUMPI PUSH2 0x39F PUSH2 0x34B JUMP JUMPDEST JUMPDEST DUP1 PUSH1 0x40 MSTORE POP POP POP JUMP JUMPDEST PUSH0 PUSH2 0x3B2 PUSH2 0x2CC JUMP JUMPDEST SWAP1 POP PUSH2 0x3BE DUP3 DUP3 PUSH2 0x378 JUMP JUMPDEST SWAP2 SWAP1 POP JUMP JUMPDEST PUSH0 PUSH8 0xFFFFFFFFFFFFFFFF DUP3 GT ISZERO PUSH2 0x3DD JUMPI PUSH2 0x3DC PUSH2 0x34B JUMP JUMPDEST JUMPDEST PUSH1 0x20 DUP3 MUL SWAP1 POP PUSH1 0x20 DUP2 ADD SWAP1 POP SWAP2 SWAP1 POP JUMP JUMPDEST PUSH0 DUP1 REVERT JUMPDEST PUSH0 PUSH2 0x404 PUSH2 0x3FF DUP5 PUSH2 0x3C3 JUMP JUMPDEST PUSH2 0x3A9 JUMP JUMPDEST SWAP1 POP DUP1 DUP4 DUP3 MSTORE PUSH1 0x20 DUP3 ADD SWAP1 POP PUSH1 0x20 DUP5 MUL DUP4 ADD DUP6 DUP2 GT ISZERO PUSH2 0x427 JUMPI PUSH2 0x426 PUSH2 0x3EE JUMP JUMPDEST JUMPDEST DUP4 JUMPDEST DUP2 DUP2 LT ISZERO PUSH2 0x450 JUMPI DUP1 PUSH2 0x43C DUP9 DUP3 PUSH2 0x323 JUMP JUMPDEST DUP5 MSTORE PUSH1 0x20 DUP5 ADD SWAP4 POP POP PUSH1 0x20 DUP2 ADD SWAP1 POP PUSH2 0x429 JUMP JUMPDEST POP POP POP SWAP4 SWAP3 POP POP POP JUMP JUMPDEST PUSH0 DUP3 PUSH1 0x1F DUP4 ADD SLT PUSH2 0x46E JUMPI PUSH2 0x46D PUSH2 0x337 JUMP JUMPDEST JUMPDEST DUP2 CALLDATALOAD PUSH2 0x47E DUP5 DUP3 PUSH1 0x20 DUP7 ADD PUSH2 0x3F2 JUMP JUMPDEST SWAP2 POP POP SWAP3 SWAP2 POP POP JUMP JUMPDEST PUSH0 DUP2 SWAP1 POP SWAP2 SWAP1 POP JUMP JUMPDEST PUSH2 0x499 DUP2 PUSH2 0x487 JUMP JUMPDEST DUP2 EQ PUSH2 0x4A3 JUMPI PUSH0 DUP1 REVERT JUMPDEST POP JUMP JUMPDEST PUSH0 DUP2 CALLDATALOAD SWAP1 POP PUSH2 0x4B4 DUP2 PUSH2 0x490 JUMP JUMPDEST SWAP3 SWAP2 POP POP JUMP JUMPDEST PUSH0 DUP1 PUSH0 PUSH1 0x60 DUP5 DUP7 SUB SLT ISZERO PUSH2 0x4D1 JUMPI PUSH2 0x4D0 PUSH2 0x2D5 JUMP JUMPDEST JUMPDEST PUSH0 PUSH2 0x4DE DUP7 DUP3 DUP8 ADD PUSH2 0x323 JUMP JUMPDEST SWAP4 POP POP PUSH1 0x20 DUP5 ADD CALLDATALOAD PUSH8 0xFFFFFFFFFFFFFFFF DUP2 GT ISZERO PUSH2 0x4FF JUMPI PUSH2 0x4FE PUSH2 0x2D9 JUMP JUMPDEST JUMPDEST PUSH2 0x50B DUP7 DUP3 DUP8 ADD PUSH2 0x45A JUMP JUMPDEST SWAP3 POP POP PUSH1 0x40 PUSH2 0x51C DUP7 DUP3 DUP8 ADD PUSH2 0x4A6 JUMP JUMPDEST SWAP2 POP POP SWAP3 POP SWAP3 POP SWAP3 JUMP JUMPDEST PUSH0 DUP3 DUP3 MSTORE PUSH1 0x20 DUP3 ADD SWAP1 POP SWAP3 SWAP2 POP POP JUMP JUMPDEST PUSH32 0x496E76616C69642077616C6C6574206164647265737300000000000000000000 PUSH0 DUP3 ADD MSTORE POP JUMP JUMPDEST PUSH0 PUSH2 0x56A PUSH1 0x16 DUP4 PUSH2 0x526 JUMP JUMPDEST SWAP2 POP PUSH2 0x575 DUP3 PUSH2 0x536 JUMP JUMPDEST PUSH1 0x20 DUP3 ADD SWAP1 POP SWAP2 SWAP1 POP JUMP JUMPDEST PUSH0 PUSH1 0x20 DUP3 ADD SWAP1 POP DUP2 DUP2 SUB PUSH0 DUP4 ADD MSTORE PUSH2 0x597 DUP2 PUSH2 0x55E JUMP JUMPDEST SWAP1 POP SWAP2 SWAP1 POP JUMP JUMPDEST PUSH32 0x4174206C65617374206F6E65206F776E65722072657175697265640000000000 PUSH0 DUP3 ADD MSTORE POP JUMP JUMPDEST PUSH0 PUSH2 0x5D2 PUSH1 0x1B DUP4 PUSH2 0x526 JUMP JUMPDEST SWAP2 POP PUSH2 0x5DD DUP3 PUSH2 0x59E JUMP JUMPDEST PUSH1 0x20 DUP3 ADD SWAP1 POP SWAP2 SWAP1 POP JUMP JUMPDEST PUSH0 PUSH1 0x20 DUP3 ADD SWAP1 POP DUP2 DUP2 SUB PUSH0 DUP4 ADD MSTORE PUSH2 0x5FF DUP2 PUSH2 0x5C6 JUMP JUMPDEST SWAP1 POP SWAP2 SWAP1 POP JUMP JUMPDEST PUSH32 0x496E76616C6964206E756D626572206F6620726571756972656420636F6E6669 PUSH0 DUP3 ADD MSTORE PUSH32 0x726D6174696F6E00000000000000000000000000000000000000000000000000 PUSH1 0x20 DUP3 ADD MSTORE POP JUMP JUMPDEST PUSH0 PUSH2 0x660 PUSH1 0x27 DUP4 PUSH2 0x526 JUMP JUMPDEST SWAP2 POP PUSH2 0x66B DUP3 PUSH2 0x606 JUMP JUMPDEST PUSH1 0x40 DUP3 ADD SWAP1 POP SWAP2 SWAP1 POP JUMP JUMPDEST PUSH0 PUSH1 0x20 DUP3 ADD SWAP1 POP DUP2 DUP2 SUB PUSH0 DUP4 ADD MSTORE PUSH2 0x68D DUP2 PUSH2 0x654 JUMP JUMPDEST SWAP1 POP SWAP2 SWAP1 POP JUMP JUMPDEST PUSH2 0x69D DUP2 PUSH2 0x2FC JUMP JUMPDEST DUP3 MSTORE POP POP JUMP JUMPDEST PUSH0 DUP2 MLOAD SWAP1 POP SWAP2 SWAP1 POP JUMP JUMPDEST PUSH0 DUP3 DUP3 MSTORE PUSH1 0x20 DUP3 ADD SWAP1 POP SWAP3 SWAP2 POP POP JUMP JUMPDEST PUSH0 DUP2 SWAP1 POP PUSH1 0x20 DUP3 ADD SWAP1 POP SWAP2 SWAP1 POP JUMP JUMPDEST PUSH2 0x6D5 DUP2 PUSH2 0x2FC JUMP JUMPDEST DUP3 MSTORE POP POP JUMP JUMPDEST PUSH0 PUSH2 0x6E6 DUP4 DUP4 PUSH2 0x6CC JUMP JUMPDEST PUSH1 0x20 DUP4 ADD SWAP1 POP SWAP3 SWAP2 POP POP JUMP JUMPDEST PUSH0 PUSH1 0x20 DUP3 ADD SWAP1 POP SWAP2 SWAP1 POP JUMP JUMPDEST PUSH0 PUSH2 0x708 DUP3 PUSH2 0x6A3 JUMP JUMPDEST PUSH2 0x712 DUP2 DUP6 PUSH2 0x6AD JUMP JUMPDEST SWAP4 POP PUSH2 0x71D DUP4 PUSH2 0x6BD JUMP JUMPDEST DUP1 PUSH0 JUMPDEST DUP4 DUP2 LT ISZERO PUSH2 0x74D JUMPI DUP2 MLOAD PUSH2 0x734 DUP9 DUP3 PUSH2 0x6DB JUMP JUMPDEST SWAP8 POP PUSH2 0x73F DUP4 PUSH2 0x6F2 JUMP JUMPDEST SWAP3 POP POP PUSH1 0x1 DUP2 ADD SWAP1 POP PUSH2 0x720 JUMP JUMPDEST POP DUP6 SWAP4 POP POP POP POP SWAP3 SWAP2 POP POP JUMP JUMPDEST PUSH2 0x763 DUP2 PUSH2 0x487 JUMP JUMPDEST DUP3 MSTORE POP POP JUMP JUMPDEST PUSH0 PUSH1 0x60 DUP3 ADD SWAP1 POP PUSH2 0x77C PUSH0 DUP4 ADD DUP7 PUSH2 0x694 JUMP JUMPDEST DUP2 DUP2 SUB PUSH1 0x20 DUP4 ADD MSTORE PUSH2 0x78E DUP2 DUP6 PUSH2 0x6FE JUMP JUMPDEST SWAP1 POP PUSH2 0x79D PUSH1 0x40 DUP4 ADD DUP5 PUSH2 0x75A JUMP JUMPDEST SWAP5 SWAP4 POP POP POP POP JUMP INVALID LOG2 PUSH5 0x6970667358 0x22 SLT KECCAK256 0x2C DUP2 0xD3 EQ SWAP11 0xB9 LOG4 GT LOG1 0xC5 BLOCKHASH PUSH13 0xDAFC9404024C187DFF9FB3C2BB CREATE2 0xE5 0xAE 0xAB GT BLOBHASH 0x29 PUSH5 0x736F6C6343 STOP ADDMOD BYTE STOP CALLER "
				},
				"gasEstimates": {
					"creation": {
						"codeDepositCost": "402200",
						"executionCost": "434",
						"totalCost": "402634"
					},
					"external": {
						"registredWallet(address,address[],uint256)": "infinite"
					}
				},
				"methodIdentifiers": {
					"registredWallet(address,address[],uint256)": "5401d9f1"
				}
			},
			"storageLayout": {
				"storage": [
					{
						"astId": 14,
						"contract": "Day-22/code1.sol:MultiSigOwnershipVerifier",
						"label": "wallets",
						"offset": 0,
						"slot": "0",
						"type": "t_mapping(t_address,t_struct(MultiSigWallet)9_storage)"
					}
				],
				"types": {
					"t_address": {
						"encoding": "inplace",
						"label": "address",
						"numberOfBytes": "20"
					},
					"t_array(t_address)dyn_storage": {
						"base": "t_address",
						"encoding": "dynamic_array",
						"label": "address[]",
						"numberOfBytes": "32"
					},
					"t_bool": {
						"encoding": "inplace",
						"label": "bool",
						"numberOfBytes": "1"
					},
					"t_mapping(t_address,t_struct(MultiSigWallet)9_storage)": {
						"encoding": "mapping",
						"key": "t_address",
						"label": "mapping(address => struct MultiSigOwnershipVerifier.MultiSigWallet)",
						"numberOfBytes": "32",
						"value": "t_struct(MultiSigWallet)9_storage"
					},
					"t_struct(MultiSigWallet)9_storage": {
						"encoding": "inplace",
						"label": "struct MultiSigOwnershipVerifier.MultiSigWallet",
						"members": [
							{
								"astId": 4,
								"contract": "Day-22/code1.sol:MultiSigOwnershipVerifier",
								"label": "owners",
								"offset": 0,
								"slot": "0",
								"type": "t_array(t_address)dyn_storage"
							},
							{
								"astId": 6,
								"contract": "Day-22/code1.sol:MultiSigOwnershipVerifier",
								"label": "requiredConfirmations",
								"offset": 0,
								"slot": "1",
								"type": "t_uint256"
							},
							{
								"astId": 8,
								"contract": "Day-22/code1.sol:MultiSigOwnershipVerifier",
								"label": "exists",
								"offset": 0,
								"slot": "2",
								"type": "t_bool"
							}
						],
						"numberOfBytes": "96"
					},
					"t_uint256": {
						"encoding": "inplace",
						"label": "uint256",
						"numberOfBytes": "32"
					}
				}
			},
			"userdoc": {
				"kind": "user",
				"methods": {},
				"version": 1
			}
		}
	}
}