{
	"Day-25/code1.sol": {
		"TransactionHistory": {
			"abi": [
				{
					"anonymous": false,
					"inputs": [
						{
							"indexed": true,
							"internalType": "address",
							"name": "to",
							"type": "address"
						},
						{
							"indexed": true,
							"internalType": "address",
							"name": "from",
							"type": "address"
						},
						{
							"indexed": false,
							"internalType": "uint256",
							"name": "value",
							"type": "uint256"
						},
						{
							"indexed": false,
							"internalType": "uint256",
							"name": "timestamp",
							"type": "uint256"
						}
					],
					"name": "TransactionRecorded",
					"type": "event"
				},
				{
					"inputs": [
						{
							"internalType": "address",
							"name": "to",
							"type": "address"
						}
					],
					"name": "_recordTransaction",
					"outputs": [],
					"stateMutability": "payable",
					"type": "function"
				},
				{
					"inputs": [
						{
							"internalType": "address",
							"name": "account",
							"type": "address"
						}
					],
					"name": "getAllTransactions",
					"outputs": [
						{
							"components": [
								{
									"internalType": "uint256",
									"name": "timestamp",
									"type": "uint256"
								},
								{
									"internalType": "uint256",
									"name": "value",
									"type": "uint256"
								},
								{
									"internalType": "address",
									"name": "from",
									"type": "address"
								}
							],
							"internalType": "struct TransactionHistory.Transaction[]",
							"name": "",
							"type": "tuple[]"
						}
					],
					"stateMutability": "view",
					"type": "function"
				},
				{
					"inputs": [
						{
							"internalType": "address",
							"name": "account",
							"type": "address"
						},
						{
							"internalType": "uint256",
							"name": "index",
							"type": "uint256"
						}
					],
					"name": "getTransaction",
					"outputs": [
						{
							"internalType": "uint256",
							"name": "timestamp",
							"type": "uint256"
						},
						{
							"internalType": "uint256",
							"name": "value",
							"type": "uint256"
						},
						{
							"internalType": "address",
							"name": "from",
							"type": "address"
						}
					],
					"stateMutability": "view",
					"type": "function"
				},
				{
					"inputs": [
						{
							"internalType": "address",
							"name": "account",
							"type": "address"
						}
					],
					"name": "getTransactionCount",
					"outputs": [
						{
							"internalType": "uint256",
							"name": "",
							"type": "uint256"
						}
					],
					"stateMutability": "view",
					"type": "function"
				},
				{
					"stateMutability": "payable",
					"type": "receive"
				}
			],
			"devdoc": {
				"kind": "dev",
				"methods": {},
				"version": 1
			},
			"evm": {
				"assembly": "    /* \"Day-25/code1.sol\":60:2366  contract TransactionHistory{... */\n  mstore(0x40, 0x80)\n  callvalue\n  dup1\n  iszero\n  tag_1\n  jumpi\n  0x00\n  dup1\n  revert\ntag_1:\n  pop\n  dataSize(sub_0)\n  dup1\n  dataOffset(sub_0)\n  0x00\n  codecopy\n  0x00\n  return\nstop\n\nsub_0: assembly {\n        /* \"Day-25/code1.sol\":60:2366  contract TransactionHistory{... */\n      mstore(0x40, 0x80)\n      jumpi(tag_1, lt(calldatasize, 0x04))\n      shr(0xe0, calldataload(0x00))\n      dup1\n      0x23ca0cd2\n      eq\n      tag_3\n      jumpi\n      dup1\n      0xa43293b4\n      eq\n      tag_4\n      jumpi\n      dup1\n      0xdab3b7aa\n      eq\n      tag_5\n      jumpi\n      dup1\n      0xff542382\n      eq\n      tag_6\n      jumpi\n      jump(tag_2)\n    tag_1:\n      jumpi(tag_2, calldatasize)\n        /* \"Day-25/code1.sol\":1531:1572  _recordTransaction(msg.sender, msg.value) */\n      tag_9\n        /* \"Day-25/code1.sol\":1550:1560  msg.sender */\n      caller\n        /* \"Day-25/code1.sol\":1562:1571  msg.value */\n      callvalue\n        /* \"Day-25/code1.sol\":1531:1549  _recordTransaction */\n      tag_10\n        /* \"Day-25/code1.sol\":1531:1572  _recordTransaction(msg.sender, msg.value) */\n      jump\t// in\n    tag_9:\n        /* \"Day-25/code1.sol\":60:2366  contract TransactionHistory{... */\n      stop\n    tag_2:\n      0x00\n      dup1\n      revert\n        /* \"Day-25/code1.sol\":643:778  function getTransactionCount(address account) public view returns(uint256){... */\n    tag_3:\n      callvalue\n      dup1\n      iszero\n      tag_11\n      jumpi\n      0x00\n      dup1\n      revert\n    tag_11:\n      pop\n      tag_12\n      0x04\n      dup1\n      calldatasize\n      sub\n      dup2\n      add\n      swap1\n      tag_13\n      swap2\n      swap1\n      tag_14\n      jump\t// in\n    tag_13:\n      tag_15\n      jump\t// in\n    tag_12:\n      mload(0x40)\n      tag_16\n      swap2\n      swap1\n      tag_17\n      jump\t// in\n    tag_16:\n      mload(0x40)\n      dup1\n      swap2\n      sub\n      swap1\n      return\n        /* \"Day-25/code1.sol\":838:1226  function getTransaction(address account, uint256 index) public view returns(uint256 timestamp, uint256 value, address from){... */\n    tag_4:\n      callvalue\n      dup1\n      iszero\n      tag_18\n      jumpi\n      0x00\n      dup1\n      revert\n    tag_18:\n      pop\n      tag_19\n      0x04\n      dup1\n      calldatasize\n      sub\n      dup2\n      add\n      swap1\n      tag_20\n      swap2\n      swap1\n      tag_21\n      jump\t// in\n    tag_20:\n      tag_22\n      jump\t// in\n    tag_19:\n      mload(0x40)\n      tag_23\n      swap4\n      swap3\n      swap2\n      swap1\n      tag_24\n      jump\t// in\n    tag_23:\n      mload(0x40)\n      dup1\n      swap2\n      sub\n      swap1\n      return\n        /* \"Day-25/code1.sol\":1288:1428  function getAllTransactions(address account) public view returns(Transaction[] memory){... */\n    tag_5:\n      callvalue\n      dup1\n      iszero\n      tag_25\n      jumpi\n      0x00\n      dup1\n      revert\n    tag_25:\n      pop\n      tag_26\n      0x04\n      dup1\n      calldatasize\n      sub\n      dup2\n      add\n      swap1\n      tag_27\n      swap2\n      swap1\n      tag_14\n      jump\t// in\n    tag_27:\n      tag_28\n      jump\t// in\n    tag_26:\n      mload(0x40)\n      tag_29\n      swap2\n      swap1\n      tag_30\n      jump\t// in\n    tag_29:\n      mload(0x40)\n      dup1\n      swap2\n      sub\n      swap1\n      return\n        /* \"Day-25/code1.sol\":2175:2363  function _recordTransaction(address to) external payable {... */\n    tag_6:\n      tag_31\n      0x04\n      dup1\n      calldatasize\n      sub\n      dup2\n      add\n      swap1\n      tag_32\n      swap2\n      swap1\n      tag_14\n      jump\t// in\n    tag_32:\n      tag_33\n      jump\t// in\n    tag_31:\n      stop\n        /* \"Day-25/code1.sol\":1636:2087  function _recordTransaction(address to, uint256 value) internal{... */\n    tag_10:\n        /* \"Day-25/code1.sol\":1726:1727  0 */\n      0x00\n        /* \"Day-25/code1.sol\":1718:1723  value */\n      dup2\n        /* \"Day-25/code1.sol\":1718:1727  value > 0 */\n      gt\n        /* \"Day-25/code1.sol\":1710:1772  require(value > 0, \"Transaction value must be greater than 0\") */\n      tag_35\n      jumpi\n      mload(0x40)\n      0x08c379a000000000000000000000000000000000000000000000000000000000\n      dup2\n      mstore\n      0x04\n      add\n      tag_36\n      swap1\n      tag_37\n      jump\t// in\n    tag_36:\n      mload(0x40)\n      dup1\n      swap2\n      sub\n      swap1\n      revert\n    tag_35:\n        /* \"Day-25/code1.sol\":1785:1818  Transaction memory newTransaction */\n      0x00\n        /* \"Day-25/code1.sol\":1821:1947  Transaction({... */\n      mload(0x40)\n      dup1\n      0x60\n      add\n      0x40\n      mstore\n      dup1\n        /* \"Day-25/code1.sol\":1860:1875  block.timestamp */\n      timestamp\n        /* \"Day-25/code1.sol\":1821:1947  Transaction({... */\n      dup2\n      mstore\n      0x20\n      add\n        /* \"Day-25/code1.sol\":1898:1903  value */\n      dup4\n        /* \"Day-25/code1.sol\":1821:1947  Transaction({... */\n      dup2\n      mstore\n      0x20\n      add\n        /* \"Day-25/code1.sol\":1925:1935  msg.sender */\n      caller\n        /* \"Day-25/code1.sol\":1821:1947  Transaction({... */\n      0xffffffffffffffffffffffffffffffffffffffff\n      and\n      dup2\n      mstore\n      pop\n        /* \"Day-25/code1.sol\":1785:1947  Transaction memory newTransaction = Transaction({... */\n      swap1\n      pop\n        /* \"Day-25/code1.sol\":1960:1979  _transactionHistory */\n      0x00\n        /* \"Day-25/code1.sol\":1960:1983  _transactionHistory[to] */\n      dup1\n        /* \"Day-25/code1.sol\":1980:1982  to */\n      dup5\n        /* \"Day-25/code1.sol\":1960:1983  _transactionHistory[to] */\n      0xffffffffffffffffffffffffffffffffffffffff\n      and\n      0xffffffffffffffffffffffffffffffffffffffff\n      and\n      dup2\n      mstore\n      0x20\n      add\n      swap1\n      dup2\n      mstore\n      0x20\n      add\n      0x00\n      keccak256\n        /* \"Day-25/code1.sol\":1989:2003  newTransaction */\n      dup2\n        /* \"Day-25/code1.sol\":1960:2004  _transactionHistory[to].push(newTransaction) */\n      swap1\n      dup1\n      0x01\n      dup2\n      sload\n      add\n      dup1\n      dup3\n      sstore\n      dup1\n      swap2\n      pop\n      pop\n      0x01\n      swap1\n      sub\n      swap1\n      0x00\n      mstore\n      keccak256(0x00, 0x20)\n      swap1\n      0x03\n      mul\n      add\n      0x00\n      swap1\n      swap2\n      swap1\n      swap2\n      swap1\n      swap2\n      pop\n      0x00\n      dup3\n      add\n      mload\n      dup2\n      0x00\n      add\n      sstore\n      0x20\n      dup3\n      add\n      mload\n      dup2\n      0x01\n      add\n      sstore\n      0x40\n      dup3\n      add\n      mload\n      dup2\n      0x02\n      add\n      exp(0x0100, 0x00)\n      dup2\n      sload\n      dup2\n      0xffffffffffffffffffffffffffffffffffffffff\n      mul\n      not\n      and\n      swap1\n      dup4\n      0xffffffffffffffffffffffffffffffffffffffff\n      and\n      mul\n      or\n      swap1\n      sstore\n      pop\n      pop\n      pop\n        /* \"Day-25/code1.sol\":2044:2054  msg.sender */\n      caller\n        /* \"Day-25/code1.sol\":2020:2079  TransactionRecorded(to, msg.sender, value, block.timestamp) */\n      0xffffffffffffffffffffffffffffffffffffffff\n      and\n        /* \"Day-25/code1.sol\":2040:2042  to */\n      dup4\n        /* \"Day-25/code1.sol\":2020:2079  TransactionRecorded(to, msg.sender, value, block.timestamp) */\n      0xffffffffffffffffffffffffffffffffffffffff\n      and\n      0xa8748c52a921be2a4c654a712d28d92cc72cdf91cea2d11b407d25e9ea18251e\n        /* \"Day-25/code1.sol\":2056:2061  value */\n      dup5\n        /* \"Day-25/code1.sol\":2063:2078  block.timestamp */\n      timestamp\n        /* \"Day-25/code1.sol\":2020:2079  TransactionRecorded(to, msg.sender, value, block.timestamp) */\n      mload(0x40)\n      tag_39\n      swap3\n      swap2\n      swap1\n      tag_40\n      jump\t// in\n    tag_39:\n      mload(0x40)\n      dup1\n      swap2\n      sub\n      swap1\n      log3\n        /* \"Day-25/code1.sol\":1699:2087  {... */\n      pop\n        /* \"Day-25/code1.sol\":1636:2087  function _recordTransaction(address to, uint256 value) internal{... */\n      pop\n      pop\n      jump\t// out\n        /* \"Day-25/code1.sol\":643:778  function getTransactionCount(address account) public view returns(uint256){... */\n    tag_15:\n        /* \"Day-25/code1.sol\":709:716  uint256 */\n      0x00\n        /* \"Day-25/code1.sol\":735:754  _transactionHistory */\n      dup1\n        /* \"Day-25/code1.sol\":735:763  _transactionHistory[account] */\n      0x00\n        /* \"Day-25/code1.sol\":755:762  account */\n      dup4\n        /* \"Day-25/code1.sol\":735:763  _transactionHistory[account] */\n      0xffffffffffffffffffffffffffffffffffffffff\n      and\n      0xffffffffffffffffffffffffffffffffffffffff\n      and\n      dup2\n      mstore\n      0x20\n      add\n      swap1\n      dup2\n      mstore\n      0x20\n      add\n      0x00\n      keccak256\n        /* \"Day-25/code1.sol\":735:770  _transactionHistory[account].length */\n      dup1\n      sload\n      swap1\n      pop\n        /* \"Day-25/code1.sol\":728:770  return _transactionHistory[account].length */\n      swap1\n      pop\n        /* \"Day-25/code1.sol\":643:778  function getTransactionCount(address account) public view returns(uint256){... */\n      swap2\n      swap1\n      pop\n      jump\t// out\n        /* \"Day-25/code1.sol\":838:1226  function getTransaction(address account, uint256 index) public view returns(uint256 timestamp, uint256 value, address from){... */\n    tag_22:\n        /* \"Day-25/code1.sol\":914:931  uint256 timestamp */\n      0x00\n        /* \"Day-25/code1.sol\":933:946  uint256 value */\n      dup1\n        /* \"Day-25/code1.sol\":948:960  address from */\n      0x00\n        /* \"Day-25/code1.sol\":988:1007  _transactionHistory */\n      dup1\n        /* \"Day-25/code1.sol\":988:1016  _transactionHistory[account] */\n      0x00\n        /* \"Day-25/code1.sol\":1008:1015  account */\n      dup7\n        /* \"Day-25/code1.sol\":988:1016  _transactionHistory[account] */\n      0xffffffffffffffffffffffffffffffffffffffff\n      and\n      0xffffffffffffffffffffffffffffffffffffffff\n      and\n      dup2\n      mstore\n      0x20\n      add\n      swap1\n      dup2\n      mstore\n      0x20\n      add\n      0x00\n      keccak256\n        /* \"Day-25/code1.sol\":988:1023  _transactionHistory[account].length */\n      dup1\n      sload\n      swap1\n      pop\n        /* \"Day-25/code1.sol\":980:985  index */\n      dup5\n        /* \"Day-25/code1.sol\":980:1023  index < _transactionHistory[account].length */\n      lt\n        /* \"Day-25/code1.sol\":972:1059  require(index < _transactionHistory[account].length, \"Transaction index out of bounds\") */\n      tag_43\n      jumpi\n      mload(0x40)\n      0x08c379a000000000000000000000000000000000000000000000000000000000\n      dup2\n      mstore\n      0x04\n      add\n      tag_44\n      swap1\n      tag_45\n      jump\t// in\n    tag_44:\n      mload(0x40)\n      dup1\n      swap2\n      sub\n      swap1\n      revert\n    tag_43:\n        /* \"Day-25/code1.sol\":1070:1100  Transaction memory transaction */\n      0x00\n        /* \"Day-25/code1.sol\":1103:1122  _transactionHistory */\n      dup1\n        /* \"Day-25/code1.sol\":1103:1131  _transactionHistory[account] */\n      0x00\n        /* \"Day-25/code1.sol\":1123:1130  account */\n      dup8\n        /* \"Day-25/code1.sol\":1103:1131  _transactionHistory[account] */\n      0xffffffffffffffffffffffffffffffffffffffff\n      and\n      0xffffffffffffffffffffffffffffffffffffffff\n      and\n      dup2\n      mstore\n      0x20\n      add\n      swap1\n      dup2\n      mstore\n      0x20\n      add\n      0x00\n      keccak256\n        /* \"Day-25/code1.sol\":1132:1137  index */\n      dup6\n        /* \"Day-25/code1.sol\":1103:1138  _transactionHistory[account][index] */\n      dup2\n      sload\n      dup2\n      lt\n      tag_46\n      jumpi\n      tag_47\n      tag_48\n      jump\t// in\n    tag_47:\n    tag_46:\n      swap1\n      0x00\n      mstore\n      keccak256(0x00, 0x20)\n      swap1\n      0x03\n      mul\n      add\n        /* \"Day-25/code1.sol\":1070:1138  Transaction memory transaction = _transactionHistory[account][index] */\n      mload(0x40)\n      dup1\n      0x60\n      add\n      0x40\n      mstore\n      swap1\n      dup2\n      0x00\n      dup3\n      add\n      sload\n      dup2\n      mstore\n      0x20\n      add\n      0x01\n      dup3\n      add\n      sload\n      dup2\n      mstore\n      0x20\n      add\n      0x02\n      dup3\n      add\n      0x00\n      swap1\n      sload\n      swap1\n      0x0100\n      exp\n      swap1\n      div\n      0xffffffffffffffffffffffffffffffffffffffff\n      and\n      0xffffffffffffffffffffffffffffffffffffffff\n      and\n      0xffffffffffffffffffffffffffffffffffffffff\n      and\n      dup2\n      mstore\n      pop\n      pop\n      swap1\n      pop\n        /* \"Day-25/code1.sol\":1159:1170  transaction */\n      dup1\n        /* \"Day-25/code1.sol\":1159:1180  transaction.timestamp */\n      0x00\n      add\n      mload\n        /* \"Day-25/code1.sol\":1182:1193  transaction */\n      dup2\n        /* \"Day-25/code1.sol\":1182:1199  transaction.value */\n      0x20\n      add\n      mload\n        /* \"Day-25/code1.sol\":1201:1212  transaction */\n      dup3\n        /* \"Day-25/code1.sol\":1201:1217  transaction.from */\n      0x40\n      add\n      mload\n        /* \"Day-25/code1.sol\":1151:1218  return (transaction.timestamp, transaction.value, transaction.from) */\n      swap4\n      pop\n      swap4\n      pop\n      swap4\n      pop\n      pop\n        /* \"Day-25/code1.sol\":838:1226  function getTransaction(address account, uint256 index) public view returns(uint256 timestamp, uint256 value, address from){... */\n      swap3\n      pop\n      swap3\n      pop\n      swap3\n      jump\t// out\n        /* \"Day-25/code1.sol\":1288:1428  function getAllTransactions(address account) public view returns(Transaction[] memory){... */\n    tag_28:\n        /* \"Day-25/code1.sol\":1353:1373  Transaction[] memory */\n      0x60\n        /* \"Day-25/code1.sol\":1392:1411  _transactionHistory */\n      0x00\n        /* \"Day-25/code1.sol\":1392:1420  _transactionHistory[account] */\n      dup1\n        /* \"Day-25/code1.sol\":1412:1419  account */\n      dup4\n        /* \"Day-25/code1.sol\":1392:1420  _transactionHistory[account] */\n      0xffffffffffffffffffffffffffffffffffffffff\n      and\n      0xffffffffffffffffffffffffffffffffffffffff\n      and\n      dup2\n      mstore\n      0x20\n      add\n      swap1\n      dup2\n      mstore\n      0x20\n      add\n      0x00\n      keccak256\n        /* \"Day-25/code1.sol\":1385:1420  return _transactionHistory[account] */\n      dup1\n      sload\n      dup1\n      0x20\n      mul\n      0x20\n      add\n      mload(0x40)\n      swap1\n      dup2\n      add\n      0x40\n      mstore\n      dup1\n      swap3\n      swap2\n      swap1\n      dup2\n      dup2\n      mstore\n      0x20\n      add\n      0x00\n      swap1\n    tag_51:\n      dup3\n      dup3\n      lt\n      iszero\n      tag_52\n      jumpi\n      dup4\n      dup3\n      swap1\n      0x00\n      mstore\n      keccak256(0x00, 0x20)\n      swap1\n      0x03\n      mul\n      add\n      mload(0x40)\n      dup1\n      0x60\n      add\n      0x40\n      mstore\n      swap1\n      dup2\n      0x00\n      dup3\n      add\n      sload\n      dup2\n      mstore\n      0x20\n      add\n      0x01\n      dup3\n      add\n      sload\n      dup2\n      mstore\n      0x20\n      add\n      0x02\n      dup3\n      add\n      0x00\n      swap1\n      sload\n      swap1\n      0x0100\n      exp\n      swap1\n      div\n      0xffffffffffffffffffffffffffffffffffffffff\n      and\n      0xffffffffffffffffffffffffffffffffffffffff\n      and\n      0xffffffffffffffffffffffffffffffffffffffff\n      and\n      dup2\n      mstore\n      pop\n      pop\n      dup2\n      mstore\n      0x20\n      add\n      swap1\n      0x01\n      add\n      swap1\n      jump(tag_51)\n    tag_52:\n      pop\n      pop\n      pop\n      pop\n      swap1\n      pop\n        /* \"Day-25/code1.sol\":1288:1428  function getAllTransactions(address account) public view returns(Transaction[] memory){... */\n      swap2\n      swap1\n      pop\n      jump\t// out\n        /* \"Day-25/code1.sol\":2175:2363  function _recordTransaction(address to) external payable {... */\n    tag_33:\n        /* \"Day-25/code1.sol\":2263:2264  0 */\n      0x00\n        /* \"Day-25/code1.sol\":2251:2260  msg.value */\n      callvalue\n        /* \"Day-25/code1.sol\":2251:2264  msg.value > 0 */\n      gt\n        /* \"Day-25/code1.sol\":2243:2309  require(msg.value > 0, \"Transaction value must be greater than 0\") */\n      tag_55\n      jumpi\n      mload(0x40)\n      0x08c379a000000000000000000000000000000000000000000000000000000000\n      dup2\n      mstore\n      0x04\n      add\n      tag_56\n      swap1\n      tag_37\n      jump\t// in\n    tag_56:\n      mload(0x40)\n      dup1\n      swap2\n      sub\n      swap1\n      revert\n    tag_55:\n        /* \"Day-25/code1.sol\":2322:2355  _recordTransaction(to, msg.value) */\n      tag_57\n        /* \"Day-25/code1.sol\":2341:2343  to */\n      dup2\n        /* \"Day-25/code1.sol\":2345:2354  msg.value */\n      callvalue\n        /* \"Day-25/code1.sol\":2322:2340  _recordTransaction */\n      tag_10\n        /* \"Day-25/code1.sol\":2322:2355  _recordTransaction(to, msg.value) */\n      jump\t// in\n    tag_57:\n        /* \"Day-25/code1.sol\":2175:2363  function _recordTransaction(address to) external payable {... */\n      pop\n      jump\t// out\n        /* \"#utility.yul\":88:205   */\n    tag_59:\n        /* \"#utility.yul\":197:198   */\n      0x00\n        /* \"#utility.yul\":194:195   */\n      dup1\n        /* \"#utility.yul\":187:199   */\n      revert\n        /* \"#utility.yul\":334:460   */\n    tag_61:\n        /* \"#utility.yul\":371:378   */\n      0x00\n        /* \"#utility.yul\":411:453   */\n      0xffffffffffffffffffffffffffffffffffffffff\n        /* \"#utility.yul\":404:409   */\n      dup3\n        /* \"#utility.yul\":400:454   */\n      and\n        /* \"#utility.yul\":389:454   */\n      swap1\n      pop\n        /* \"#utility.yul\":334:460   */\n      swap2\n      swap1\n      pop\n      jump\t// out\n        /* \"#utility.yul\":466:562   */\n    tag_62:\n        /* \"#utility.yul\":503:510   */\n      0x00\n        /* \"#utility.yul\":532:556   */\n      tag_90\n        /* \"#utility.yul\":550:555   */\n      dup3\n        /* \"#utility.yul\":532:556   */\n      tag_61\n      jump\t// in\n    tag_90:\n        /* \"#utility.yul\":521:556   */\n      swap1\n      pop\n        /* \"#utility.yul\":466:562   */\n      swap2\n      swap1\n      pop\n      jump\t// out\n        /* \"#utility.yul\":568:690   */\n    tag_63:\n        /* \"#utility.yul\":641:665   */\n      tag_92\n        /* \"#utility.yul\":659:664   */\n      dup2\n        /* \"#utility.yul\":641:665   */\n      tag_62\n      jump\t// in\n    tag_92:\n        /* \"#utility.yul\":634:639   */\n      dup2\n        /* \"#utility.yul\":631:666   */\n      eq\n        /* \"#utility.yul\":621:684   */\n      tag_93\n      jumpi\n        /* \"#utility.yul\":680:681   */\n      0x00\n        /* \"#utility.yul\":677:678   */\n      dup1\n        /* \"#utility.yul\":670:682   */\n      revert\n        /* \"#utility.yul\":621:684   */\n    tag_93:\n        /* \"#utility.yul\":568:690   */\n      pop\n      jump\t// out\n        /* \"#utility.yul\":696:835   */\n    tag_64:\n        /* \"#utility.yul\":742:747   */\n      0x00\n        /* \"#utility.yul\":780:786   */\n      dup2\n        /* \"#utility.yul\":767:787   */\n      calldataload\n        /* \"#utility.yul\":758:787   */\n      swap1\n      pop\n        /* \"#utility.yul\":796:829   */\n      tag_95\n        /* \"#utility.yul\":823:828   */\n      dup2\n        /* \"#utility.yul\":796:829   */\n      tag_63\n      jump\t// in\n    tag_95:\n        /* \"#utility.yul\":696:835   */\n      swap3\n      swap2\n      pop\n      pop\n      jump\t// out\n        /* \"#utility.yul\":841:1170   */\n    tag_14:\n        /* \"#utility.yul\":900:906   */\n      0x00\n        /* \"#utility.yul\":949:951   */\n      0x20\n        /* \"#utility.yul\":937:946   */\n      dup3\n        /* \"#utility.yul\":928:935   */\n      dup5\n        /* \"#utility.yul\":924:947   */\n      sub\n        /* \"#utility.yul\":920:952   */\n      slt\n        /* \"#utility.yul\":917:1036   */\n      iszero\n      tag_97\n      jumpi\n        /* \"#utility.yul\":955:1034   */\n      tag_98\n      tag_59\n      jump\t// in\n    tag_98:\n        /* \"#utility.yul\":917:1036   */\n    tag_97:\n        /* \"#utility.yul\":1075:1076   */\n      0x00\n        /* \"#utility.yul\":1100:1153   */\n      tag_99\n        /* \"#utility.yul\":1145:1152   */\n      dup5\n        /* \"#utility.yul\":1136:1142   */\n      dup3\n        /* \"#utility.yul\":1125:1134   */\n      dup6\n        /* \"#utility.yul\":1121:1143   */\n      add\n        /* \"#utility.yul\":1100:1153   */\n      tag_64\n      jump\t// in\n    tag_99:\n        /* \"#utility.yul\":1090:1153   */\n      swap2\n      pop\n        /* \"#utility.yul\":1046:1163   */\n      pop\n        /* \"#utility.yul\":841:1170   */\n      swap3\n      swap2\n      pop\n      pop\n      jump\t// out\n        /* \"#utility.yul\":1176:1253   */\n    tag_65:\n        /* \"#utility.yul\":1213:1220   */\n      0x00\n        /* \"#utility.yul\":1242:1247   */\n      dup2\n        /* \"#utility.yul\":1231:1247   */\n      swap1\n      pop\n        /* \"#utility.yul\":1176:1253   */\n      swap2\n      swap1\n      pop\n      jump\t// out\n        /* \"#utility.yul\":1259:1377   */\n    tag_66:\n        /* \"#utility.yul\":1346:1370   */\n      tag_102\n        /* \"#utility.yul\":1364:1369   */\n      dup2\n        /* \"#utility.yul\":1346:1370   */\n      tag_65\n      jump\t// in\n    tag_102:\n        /* \"#utility.yul\":1341:1344   */\n      dup3\n        /* \"#utility.yul\":1334:1371   */\n      mstore\n        /* \"#utility.yul\":1259:1377   */\n      pop\n      pop\n      jump\t// out\n        /* \"#utility.yul\":1383:1605   */\n    tag_17:\n        /* \"#utility.yul\":1476:1480   */\n      0x00\n        /* \"#utility.yul\":1514:1516   */\n      0x20\n        /* \"#utility.yul\":1503:1512   */\n      dup3\n        /* \"#utility.yul\":1499:1517   */\n      add\n        /* \"#utility.yul\":1491:1517   */\n      swap1\n      pop\n        /* \"#utility.yul\":1527:1598   */\n      tag_104\n        /* \"#utility.yul\":1595:1596   */\n      0x00\n        /* \"#utility.yul\":1584:1593   */\n      dup4\n        /* \"#utility.yul\":1580:1597   */\n      add\n        /* \"#utility.yul\":1571:1577   */\n      dup5\n        /* \"#utility.yul\":1527:1598   */\n      tag_66\n      jump\t// in\n    tag_104:\n        /* \"#utility.yul\":1383:1605   */\n      swap3\n      swap2\n      pop\n      pop\n      jump\t// out\n        /* \"#utility.yul\":1611:1733   */\n    tag_67:\n        /* \"#utility.yul\":1684:1708   */\n      tag_106\n        /* \"#utility.yul\":1702:1707   */\n      dup2\n        /* \"#utility.yul\":1684:1708   */\n      tag_65\n      jump\t// in\n    tag_106:\n        /* \"#utility.yul\":1677:1682   */\n      dup2\n        /* \"#utility.yul\":1674:1709   */\n      eq\n        /* \"#utility.yul\":1664:1727   */\n      tag_107\n      jumpi\n        /* \"#utility.yul\":1723:1724   */\n      0x00\n        /* \"#utility.yul\":1720:1721   */\n      dup1\n        /* \"#utility.yul\":1713:1725   */\n      revert\n        /* \"#utility.yul\":1664:1727   */\n    tag_107:\n        /* \"#utility.yul\":1611:1733   */\n      pop\n      jump\t// out\n        /* \"#utility.yul\":1739:1878   */\n    tag_68:\n        /* \"#utility.yul\":1785:1790   */\n      0x00\n        /* \"#utility.yul\":1823:1829   */\n      dup2\n        /* \"#utility.yul\":1810:1830   */\n      calldataload\n        /* \"#utility.yul\":1801:1830   */\n      swap1\n      pop\n        /* \"#utility.yul\":1839:1872   */\n      tag_109\n        /* \"#utility.yul\":1866:1871   */\n      dup2\n        /* \"#utility.yul\":1839:1872   */\n      tag_67\n      jump\t// in\n    tag_109:\n        /* \"#utility.yul\":1739:1878   */\n      swap3\n      swap2\n      pop\n      pop\n      jump\t// out\n        /* \"#utility.yul\":1884:2358   */\n    tag_21:\n        /* \"#utility.yul\":1952:1958   */\n      0x00\n        /* \"#utility.yul\":1960:1966   */\n      dup1\n        /* \"#utility.yul\":2009:2011   */\n      0x40\n        /* \"#utility.yul\":1997:2006   */\n      dup4\n        /* \"#utility.yul\":1988:1995   */\n      dup6\n        /* \"#utility.yul\":1984:2007   */\n      sub\n        /* \"#utility.yul\":1980:2012   */\n      slt\n        /* \"#utility.yul\":1977:2096   */\n      iszero\n      tag_111\n      jumpi\n        /* \"#utility.yul\":2015:2094   */\n      tag_112\n      tag_59\n      jump\t// in\n    tag_112:\n        /* \"#utility.yul\":1977:2096   */\n    tag_111:\n        /* \"#utility.yul\":2135:2136   */\n      0x00\n        /* \"#utility.yul\":2160:2213   */\n      tag_113\n        /* \"#utility.yul\":2205:2212   */\n      dup6\n        /* \"#utility.yul\":2196:2202   */\n      dup3\n        /* \"#utility.yul\":2185:2194   */\n      dup7\n        /* \"#utility.yul\":2181:2203   */\n      add\n        /* \"#utility.yul\":2160:2213   */\n      tag_64\n      jump\t// in\n    tag_113:\n        /* \"#utility.yul\":2150:2213   */\n      swap3\n      pop\n        /* \"#utility.yul\":2106:2223   */\n      pop\n        /* \"#utility.yul\":2262:2264   */\n      0x20\n        /* \"#utility.yul\":2288:2341   */\n      tag_114\n        /* \"#utility.yul\":2333:2340   */\n      dup6\n        /* \"#utility.yul\":2324:2330   */\n      dup3\n        /* \"#utility.yul\":2313:2322   */\n      dup7\n        /* \"#utility.yul\":2309:2331   */\n      add\n        /* \"#utility.yul\":2288:2341   */\n      tag_68\n      jump\t// in\n    tag_114:\n        /* \"#utility.yul\":2278:2341   */\n      swap2\n      pop\n        /* \"#utility.yul\":2233:2351   */\n      pop\n        /* \"#utility.yul\":1884:2358   */\n      swap3\n      pop\n      swap3\n      swap1\n      pop\n      jump\t// out\n        /* \"#utility.yul\":2364:2482   */\n    tag_69:\n        /* \"#utility.yul\":2451:2475   */\n      tag_116\n        /* \"#utility.yul\":2469:2474   */\n      dup2\n        /* \"#utility.yul\":2451:2475   */\n      tag_62\n      jump\t// in\n    tag_116:\n        /* \"#utility.yul\":2446:2449   */\n      dup3\n        /* \"#utility.yul\":2439:2476   */\n      mstore\n        /* \"#utility.yul\":2364:2482   */\n      pop\n      pop\n      jump\t// out\n        /* \"#utility.yul\":2488:2930   */\n    tag_24:\n        /* \"#utility.yul\":2637:2641   */\n      0x00\n        /* \"#utility.yul\":2675:2677   */\n      0x60\n        /* \"#utility.yul\":2664:2673   */\n      dup3\n        /* \"#utility.yul\":2660:2678   */\n      add\n        /* \"#utility.yul\":2652:2678   */\n      swap1\n      pop\n        /* \"#utility.yul\":2688:2759   */\n      tag_118\n        /* \"#utility.yul\":2756:2757   */\n      0x00\n        /* \"#utility.yul\":2745:2754   */\n      dup4\n        /* \"#utility.yul\":2741:2758   */\n      add\n        /* \"#utility.yul\":2732:2738   */\n      dup7\n        /* \"#utility.yul\":2688:2759   */\n      tag_66\n      jump\t// in\n    tag_118:\n        /* \"#utility.yul\":2769:2841   */\n      tag_119\n        /* \"#utility.yul\":2837:2839   */\n      0x20\n        /* \"#utility.yul\":2826:2835   */\n      dup4\n        /* \"#utility.yul\":2822:2840   */\n      add\n        /* \"#utility.yul\":2813:2819   */\n      dup6\n        /* \"#utility.yul\":2769:2841   */\n      tag_66\n      jump\t// in\n    tag_119:\n        /* \"#utility.yul\":2851:2923   */\n      tag_120\n        /* \"#utility.yul\":2919:2921   */\n      0x40\n        /* \"#utility.yul\":2908:2917   */\n      dup4\n        /* \"#utility.yul\":2904:2922   */\n      add\n        /* \"#utility.yul\":2895:2901   */\n      dup5\n        /* \"#utility.yul\":2851:2923   */\n      tag_69\n      jump\t// in\n    tag_120:\n        /* \"#utility.yul\":2488:2930   */\n      swap5\n      swap4\n      pop\n      pop\n      pop\n      pop\n      jump\t// out\n        /* \"#utility.yul\":2936:3076   */\n    tag_70:\n        /* \"#utility.yul\":3029:3035   */\n      0x00\n        /* \"#utility.yul\":3063:3068   */\n      dup2\n        /* \"#utility.yul\":3057:3069   */\n      mload\n        /* \"#utility.yul\":3047:3069   */\n      swap1\n      pop\n        /* \"#utility.yul\":2936:3076   */\n      swap2\n      swap1\n      pop\n      jump\t// out\n        /* \"#utility.yul\":3082:3292   */\n    tag_71:\n        /* \"#utility.yul\":3207:3218   */\n      0x00\n        /* \"#utility.yul\":3241:3247   */\n      dup3\n        /* \"#utility.yul\":3236:3239   */\n      dup3\n        /* \"#utility.yul\":3229:3248   */\n      mstore\n        /* \"#utility.yul\":3281:3285   */\n      0x20\n        /* \"#utility.yul\":3276:3279   */\n      dup3\n        /* \"#utility.yul\":3272:3286   */\n      add\n        /* \"#utility.yul\":3257:3286   */\n      swap1\n      pop\n        /* \"#utility.yul\":3082:3292   */\n      swap3\n      swap2\n      pop\n      pop\n      jump\t// out\n        /* \"#utility.yul\":3298:3456   */\n    tag_72:\n        /* \"#utility.yul\":3391:3395   */\n      0x00\n        /* \"#utility.yul\":3414:3417   */\n      dup2\n        /* \"#utility.yul\":3406:3417   */\n      swap1\n      pop\n        /* \"#utility.yul\":3444:3448   */\n      0x20\n        /* \"#utility.yul\":3439:3442   */\n      dup3\n        /* \"#utility.yul\":3435:3449   */\n      add\n        /* \"#utility.yul\":3427:3449   */\n      swap1\n      pop\n        /* \"#utility.yul\":3298:3456   */\n      swap2\n      swap1\n      pop\n      jump\t// out\n        /* \"#utility.yul\":3462:3570   */\n    tag_73:\n        /* \"#utility.yul\":3539:3563   */\n      tag_125\n        /* \"#utility.yul\":3557:3562   */\n      dup2\n        /* \"#utility.yul\":3539:3563   */\n      tag_65\n      jump\t// in\n    tag_125:\n        /* \"#utility.yul\":3534:3537   */\n      dup3\n        /* \"#utility.yul\":3527:3564   */\n      mstore\n        /* \"#utility.yul\":3462:3570   */\n      pop\n      pop\n      jump\t// out\n        /* \"#utility.yul\":3576:3684   */\n    tag_74:\n        /* \"#utility.yul\":3653:3677   */\n      tag_127\n        /* \"#utility.yul\":3671:3676   */\n      dup2\n        /* \"#utility.yul\":3653:3677   */\n      tag_62\n      jump\t// in\n    tag_127:\n        /* \"#utility.yul\":3648:3651   */\n      dup3\n        /* \"#utility.yul\":3641:3678   */\n      mstore\n        /* \"#utility.yul\":3576:3684   */\n      pop\n      pop\n      jump\t// out\n        /* \"#utility.yul\":3776:4455   */\n    tag_75:\n        /* \"#utility.yul\":3915:3919   */\n      0x60\n        /* \"#utility.yul\":3910:3913   */\n      dup3\n        /* \"#utility.yul\":3906:3920   */\n      add\n        /* \"#utility.yul\":4007:4011   */\n      0x00\n        /* \"#utility.yul\":4000:4005   */\n      dup3\n        /* \"#utility.yul\":3996:4012   */\n      add\n        /* \"#utility.yul\":3990:4013   */\n      mload\n        /* \"#utility.yul\":4026:4089   */\n      tag_129\n        /* \"#utility.yul\":4083:4087   */\n      0x00\n        /* \"#utility.yul\":4078:4081   */\n      dup6\n        /* \"#utility.yul\":4074:4088   */\n      add\n        /* \"#utility.yul\":4060:4072   */\n      dup3\n        /* \"#utility.yul\":4026:4089   */\n      tag_73\n      jump\t// in\n    tag_129:\n        /* \"#utility.yul\":3930:4099   */\n      pop\n        /* \"#utility.yul\":4182:4186   */\n      0x20\n        /* \"#utility.yul\":4175:4180   */\n      dup3\n        /* \"#utility.yul\":4171:4187   */\n      add\n        /* \"#utility.yul\":4165:4188   */\n      mload\n        /* \"#utility.yul\":4201:4264   */\n      tag_130\n        /* \"#utility.yul\":4258:4262   */\n      0x20\n        /* \"#utility.yul\":4253:4256   */\n      dup6\n        /* \"#utility.yul\":4249:4263   */\n      add\n        /* \"#utility.yul\":4235:4247   */\n      dup3\n        /* \"#utility.yul\":4201:4264   */\n      tag_73\n      jump\t// in\n    tag_130:\n        /* \"#utility.yul\":4109:4274   */\n      pop\n        /* \"#utility.yul\":4356:4360   */\n      0x40\n        /* \"#utility.yul\":4349:4354   */\n      dup3\n        /* \"#utility.yul\":4345:4361   */\n      add\n        /* \"#utility.yul\":4339:4362   */\n      mload\n        /* \"#utility.yul\":4375:4438   */\n      tag_131\n        /* \"#utility.yul\":4432:4436   */\n      0x40\n        /* \"#utility.yul\":4427:4430   */\n      dup6\n        /* \"#utility.yul\":4423:4437   */\n      add\n        /* \"#utility.yul\":4409:4421   */\n      dup3\n        /* \"#utility.yul\":4375:4438   */\n      tag_74\n      jump\t// in\n    tag_131:\n        /* \"#utility.yul\":4284:4448   */\n      pop\n        /* \"#utility.yul\":3884:4455   */\n      pop\n        /* \"#utility.yul\":3776:4455   */\n      pop\n      pop\n      jump\t// out\n        /* \"#utility.yul\":4461:4744   */\n    tag_76:\n        /* \"#utility.yul\":4582:4592   */\n      0x00\n        /* \"#utility.yul\":4603:4701   */\n      tag_133\n        /* \"#utility.yul\":4697:4700   */\n      dup4\n        /* \"#utility.yul\":4689:4695   */\n      dup4\n        /* \"#utility.yul\":4603:4701   */\n      tag_75\n      jump\t// in\n    tag_133:\n        /* \"#utility.yul\":4733:4737   */\n      0x60\n        /* \"#utility.yul\":4728:4731   */\n      dup4\n        /* \"#utility.yul\":4724:4738   */\n      add\n        /* \"#utility.yul\":4710:4738   */\n      swap1\n      pop\n        /* \"#utility.yul\":4461:4744   */\n      swap3\n      swap2\n      pop\n      pop\n      jump\t// out\n        /* \"#utility.yul\":4750:4889   */\n    tag_77:\n        /* \"#utility.yul\":4846:4850   */\n      0x00\n        /* \"#utility.yul\":4878:4882   */\n      0x20\n        /* \"#utility.yul\":4873:4876   */\n      dup3\n        /* \"#utility.yul\":4869:4883   */\n      add\n        /* \"#utility.yul\":4861:4883   */\n      swap1\n      pop\n        /* \"#utility.yul\":4750:4889   */\n      swap2\n      swap1\n      pop\n      jump\t// out\n        /* \"#utility.yul\":4985:5925   */\n    tag_78:\n        /* \"#utility.yul\":5156:5159   */\n      0x00\n        /* \"#utility.yul\":5185:5265   */\n      tag_136\n        /* \"#utility.yul\":5259:5264   */\n      dup3\n        /* \"#utility.yul\":5185:5265   */\n      tag_70\n      jump\t// in\n    tag_136:\n        /* \"#utility.yul\":5281:5393   */\n      tag_137\n        /* \"#utility.yul\":5386:5392   */\n      dup2\n        /* \"#utility.yul\":5381:5384   */\n      dup6\n        /* \"#utility.yul\":5281:5393   */\n      tag_71\n      jump\t// in\n    tag_137:\n        /* \"#utility.yul\":5274:5393   */\n      swap4\n      pop\n        /* \"#utility.yul\":5417:5499   */\n      tag_138\n        /* \"#utility.yul\":5493:5498   */\n      dup4\n        /* \"#utility.yul\":5417:5499   */\n      tag_72\n      jump\t// in\n    tag_138:\n        /* \"#utility.yul\":5522:5529   */\n      dup1\n        /* \"#utility.yul\":5553:5554   */\n      0x00\n        /* \"#utility.yul\":5538:5900   */\n    tag_139:\n        /* \"#utility.yul\":5563:5569   */\n      dup4\n        /* \"#utility.yul\":5560:5561   */\n      dup2\n        /* \"#utility.yul\":5557:5570   */\n      lt\n        /* \"#utility.yul\":5538:5900   */\n      iszero\n      tag_141\n      jumpi\n        /* \"#utility.yul\":5639:5645   */\n      dup2\n        /* \"#utility.yul\":5633:5646   */\n      mload\n        /* \"#utility.yul\":5666:5781   */\n      tag_142\n        /* \"#utility.yul\":5777:5780   */\n      dup9\n        /* \"#utility.yul\":5762:5775   */\n      dup3\n        /* \"#utility.yul\":5666:5781   */\n      tag_76\n      jump\t// in\n    tag_142:\n        /* \"#utility.yul\":5659:5781   */\n      swap8\n      pop\n        /* \"#utility.yul\":5804:5890   */\n      tag_143\n        /* \"#utility.yul\":5883:5889   */\n      dup4\n        /* \"#utility.yul\":5804:5890   */\n      tag_77\n      jump\t// in\n    tag_143:\n        /* \"#utility.yul\":5794:5890   */\n      swap3\n      pop\n        /* \"#utility.yul\":5598:5900   */\n      pop\n        /* \"#utility.yul\":5585:5586   */\n      0x01\n        /* \"#utility.yul\":5582:5583   */\n      dup2\n        /* \"#utility.yul\":5578:5587   */\n      add\n        /* \"#utility.yul\":5573:5587   */\n      swap1\n      pop\n        /* \"#utility.yul\":5538:5900   */\n      jump(tag_139)\n    tag_141:\n        /* \"#utility.yul\":5542:5556   */\n      pop\n        /* \"#utility.yul\":5916:5919   */\n      dup6\n        /* \"#utility.yul\":5909:5919   */\n      swap4\n      pop\n        /* \"#utility.yul\":5161:5925   */\n      pop\n      pop\n      pop\n        /* \"#utility.yul\":4985:5925   */\n      swap3\n      swap2\n      pop\n      pop\n      jump\t// out\n        /* \"#utility.yul\":5931:6408   */\n    tag_30:\n        /* \"#utility.yul\":6126:6130   */\n      0x00\n        /* \"#utility.yul\":6164:6166   */\n      0x20\n        /* \"#utility.yul\":6153:6162   */\n      dup3\n        /* \"#utility.yul\":6149:6167   */\n      add\n        /* \"#utility.yul\":6141:6167   */\n      swap1\n      pop\n        /* \"#utility.yul\":6213:6222   */\n      dup2\n        /* \"#utility.yul\":6207:6211   */\n      dup2\n        /* \"#utility.yul\":6203:6223   */\n      sub\n        /* \"#utility.yul\":6199:6200   */\n      0x00\n        /* \"#utility.yul\":6188:6197   */\n      dup4\n        /* \"#utility.yul\":6184:6201   */\n      add\n        /* \"#utility.yul\":6177:6224   */\n      mstore\n        /* \"#utility.yul\":6241:6401   */\n      tag_145\n        /* \"#utility.yul\":6396:6400   */\n      dup2\n        /* \"#utility.yul\":6387:6393   */\n      dup5\n        /* \"#utility.yul\":6241:6401   */\n      tag_78\n      jump\t// in\n    tag_145:\n        /* \"#utility.yul\":6233:6401   */\n      swap1\n      pop\n        /* \"#utility.yul\":5931:6408   */\n      swap3\n      swap2\n      pop\n      pop\n      jump\t// out\n        /* \"#utility.yul\":6414:6583   */\n    tag_79:\n        /* \"#utility.yul\":6498:6509   */\n      0x00\n        /* \"#utility.yul\":6532:6538   */\n      dup3\n        /* \"#utility.yul\":6527:6530   */\n      dup3\n        /* \"#utility.yul\":6520:6539   */\n      mstore\n        /* \"#utility.yul\":6572:6576   */\n      0x20\n        /* \"#utility.yul\":6567:6570   */\n      dup3\n        /* \"#utility.yul\":6563:6577   */\n      add\n        /* \"#utility.yul\":6548:6577   */\n      swap1\n      pop\n        /* \"#utility.yul\":6414:6583   */\n      swap3\n      swap2\n      pop\n      pop\n      jump\t// out\n        /* \"#utility.yul\":6589:6816   */\n    tag_80:\n        /* \"#utility.yul\":6729:6763   */\n      0x5472616e73616374696f6e2076616c7565206d75737420626520677265617465\n        /* \"#utility.yul\":6725:6726   */\n      0x00\n        /* \"#utility.yul\":6717:6723   */\n      dup3\n        /* \"#utility.yul\":6713:6727   */\n      add\n        /* \"#utility.yul\":6706:6764   */\n      mstore\n        /* \"#utility.yul\":6798:6808   */\n      0x72207468616e2030000000000000000000000000000000000000000000000000\n        /* \"#utility.yul\":6793:6795   */\n      0x20\n        /* \"#utility.yul\":6785:6791   */\n      dup3\n        /* \"#utility.yul\":6781:6796   */\n      add\n        /* \"#utility.yul\":6774:6809   */\n      mstore\n        /* \"#utility.yul\":6589:6816   */\n      pop\n      jump\t// out\n        /* \"#utility.yul\":6822:7188   */\n    tag_81:\n        /* \"#utility.yul\":6964:6967   */\n      0x00\n        /* \"#utility.yul\":6985:7052   */\n      tag_149\n        /* \"#utility.yul\":7049:7051   */\n      0x28\n        /* \"#utility.yul\":7044:7047   */\n      dup4\n        /* \"#utility.yul\":6985:7052   */\n      tag_79\n      jump\t// in\n    tag_149:\n        /* \"#utility.yul\":6978:7052   */\n      swap2\n      pop\n        /* \"#utility.yul\":7061:7154   */\n      tag_150\n        /* \"#utility.yul\":7150:7153   */\n      dup3\n        /* \"#utility.yul\":7061:7154   */\n      tag_80\n      jump\t// in\n    tag_150:\n        /* \"#utility.yul\":7179:7181   */\n      0x40\n        /* \"#utility.yul\":7174:7177   */\n      dup3\n        /* \"#utility.yul\":7170:7182   */\n      add\n        /* \"#utility.yul\":7163:7182   */\n      swap1\n      pop\n        /* \"#utility.yul\":6822:7188   */\n      swap2\n      swap1\n      pop\n      jump\t// out\n        /* \"#utility.yul\":7194:7613   */\n    tag_37:\n        /* \"#utility.yul\":7360:7364   */\n      0x00\n        /* \"#utility.yul\":7398:7400   */\n      0x20\n        /* \"#utility.yul\":7387:7396   */\n      dup3\n        /* \"#utility.yul\":7383:7401   */\n      add\n        /* \"#utility.yul\":7375:7401   */\n      swap1\n      pop\n        /* \"#utility.yul\":7447:7456   */\n      dup2\n        /* \"#utility.yul\":7441:7445   */\n      dup2\n        /* \"#utility.yul\":7437:7457   */\n      sub\n        /* \"#utility.yul\":7433:7434   */\n      0x00\n        /* \"#utility.yul\":7422:7431   */\n      dup4\n        /* \"#utility.yul\":7418:7435   */\n      add\n        /* \"#utility.yul\":7411:7458   */\n      mstore\n        /* \"#utility.yul\":7475:7606   */\n      tag_152\n        /* \"#utility.yul\":7601:7605   */\n      dup2\n        /* \"#utility.yul\":7475:7606   */\n      tag_81\n      jump\t// in\n    tag_152:\n        /* \"#utility.yul\":7467:7606   */\n      swap1\n      pop\n        /* \"#utility.yul\":7194:7613   */\n      swap2\n      swap1\n      pop\n      jump\t// out\n        /* \"#utility.yul\":7619:7951   */\n    tag_40:\n        /* \"#utility.yul\":7740:7744   */\n      0x00\n        /* \"#utility.yul\":7778:7780   */\n      0x40\n        /* \"#utility.yul\":7767:7776   */\n      dup3\n        /* \"#utility.yul\":7763:7781   */\n      add\n        /* \"#utility.yul\":7755:7781   */\n      swap1\n      pop\n        /* \"#utility.yul\":7791:7862   */\n      tag_154\n        /* \"#utility.yul\":7859:7860   */\n      0x00\n        /* \"#utility.yul\":7848:7857   */\n      dup4\n        /* \"#utility.yul\":7844:7861   */\n      add\n        /* \"#utility.yul\":7835:7841   */\n      dup6\n        /* \"#utility.yul\":7791:7862   */\n      tag_66\n      jump\t// in\n    tag_154:\n        /* \"#utility.yul\":7872:7944   */\n      tag_155\n        /* \"#utility.yul\":7940:7942   */\n      0x20\n        /* \"#utility.yul\":7929:7938   */\n      dup4\n        /* \"#utility.yul\":7925:7943   */\n      add\n        /* \"#utility.yul\":7916:7922   */\n      dup5\n        /* \"#utility.yul\":7872:7944   */\n      tag_66\n      jump\t// in\n    tag_155:\n        /* \"#utility.yul\":7619:7951   */\n      swap4\n      swap3\n      pop\n      pop\n      pop\n      jump\t// out\n        /* \"#utility.yul\":7957:8138   */\n    tag_82:\n        /* \"#utility.yul\":8097:8130   */\n      0x5472616e73616374696f6e20696e646578206f7574206f6620626f756e647300\n        /* \"#utility.yul\":8093:8094   */\n      0x00\n        /* \"#utility.yul\":8085:8091   */\n      dup3\n        /* \"#utility.yul\":8081:8095   */\n      add\n        /* \"#utility.yul\":8074:8131   */\n      mstore\n        /* \"#utility.yul\":7957:8138   */\n      pop\n      jump\t// out\n        /* \"#utility.yul\":8144:8510   */\n    tag_83:\n        /* \"#utility.yul\":8286:8289   */\n      0x00\n        /* \"#utility.yul\":8307:8374   */\n      tag_158\n        /* \"#utility.yul\":8371:8373   */\n      0x1f\n        /* \"#utility.yul\":8366:8369   */\n      dup4\n        /* \"#utility.yul\":8307:8374   */\n      tag_79\n      jump\t// in\n    tag_158:\n        /* \"#utility.yul\":8300:8374   */\n      swap2\n      pop\n        /* \"#utility.yul\":8383:8476   */\n      tag_159\n        /* \"#utility.yul\":8472:8475   */\n      dup3\n        /* \"#utility.yul\":8383:8476   */\n      tag_82\n      jump\t// in\n    tag_159:\n        /* \"#utility.yul\":8501:8503   */\n      0x20\n        /* \"#utility.yul\":8496:8499   */\n      dup3\n        /* \"#utility.yul\":8492:8504   */\n      add\n        /* \"#utility.yul\":8485:8504   */\n      swap1\n      pop\n        /* \"#utility.yul\":8144:8510   */\n      swap2\n      swap1\n      pop\n      jump\t// out\n        /* \"#utility.yul\":8516:8935   */\n    tag_45:\n        /* \"#utility.yul\":8682:8686   */\n      0x00\n        /* \"#utility.yul\":8720:8722   */\n      0x20\n        /* \"#utility.yul\":8709:8718   */\n      dup3\n        /* \"#utility.yul\":8705:8723   */\n      add\n        /* \"#utility.yul\":8697:8723   */\n      swap1\n      pop\n        /* \"#utility.yul\":8769:8778   */\n      dup2\n        /* \"#utility.yul\":8763:8767   */\n      dup2\n        /* \"#utility.yul\":8759:8779   */\n      sub\n        /* \"#utility.yul\":8755:8756   */\n      0x00\n        /* \"#utility.yul\":8744:8753   */\n      dup4\n        /* \"#utility.yul\":8740:8757   */\n      add\n        /* \"#utility.yul\":8733:8780   */\n      mstore\n        /* \"#utility.yul\":8797:8928   */\n      tag_161\n        /* \"#utility.yul\":8923:8927   */\n      dup2\n        /* \"#utility.yul\":8797:8928   */\n      tag_83\n      jump\t// in\n    tag_161:\n        /* \"#utility.yul\":8789:8928   */\n      swap1\n      pop\n        /* \"#utility.yul\":8516:8935   */\n      swap2\n      swap1\n      pop\n      jump\t// out\n        /* \"#utility.yul\":8941:9121   */\n    tag_48:\n        /* \"#utility.yul\":8989:9066   */\n      0x4e487b7100000000000000000000000000000000000000000000000000000000\n        /* \"#utility.yul\":8986:8987   */\n      0x00\n        /* \"#utility.yul\":8979:9067   */\n      mstore\n        /* \"#utility.yul\":9086:9090   */\n      0x32\n        /* \"#utility.yul\":9083:9084   */\n      0x04\n        /* \"#utility.yul\":9076:9091   */\n      mstore\n        /* \"#utility.yul\":9110:9114   */\n      0x24\n        /* \"#utility.yul\":9107:9108   */\n      0x00\n        /* \"#utility.yul\":9100:9115   */\n      revert\n\n    auxdata: 0xa264697066735822122054b11da244a4e5c5ef2c8c83bf40e2bd01c88453cf0d0792cfb0bd1b80b4e72b64736f6c634300081a0033\n}\n",
				"bytecode": {
					"linkReferences": {},
					"object": "6080604052348015600e575f80fd5b506109eb8061001c5f395ff3fe608060405260043610610042575f3560e01c806323ca0cd214610057578063a43293b414610093578063dab3b7aa146100d1578063ff5423821461010d57610053565b36610053576100513334610129565b005b5f80fd5b348015610062575f80fd5b5061007d6004803603810190610078919061062d565b6102c8565b60405161008a9190610670565b60405180910390f35b34801561009e575f80fd5b506100b960048036038101906100b491906106b3565b610310565b6040516100c893929190610700565b60405180910390f35b3480156100dc575f80fd5b506100f760048036038101906100f2919061062d565b610480565b604051610104919061083b565b60405180910390f35b6101276004803603810190610122919061062d565b610580565b005b5f811161016b576040517f08c379a0000000000000000000000000000000000000000000000000000000008152600401610162906108db565b60405180910390fd5b5f60405180606001604052804281526020018381526020013373ffffffffffffffffffffffffffffffffffffffff1681525090505f808473ffffffffffffffffffffffffffffffffffffffff1673ffffffffffffffffffffffffffffffffffffffff1681526020019081526020015f2081908060018154018082558091505060019003905f5260205f2090600302015f909190919091505f820151815f0155602082015181600101556040820151816002015f6101000a81548173ffffffffffffffffffffffffffffffffffffffff021916908373ffffffffffffffffffffffffffffffffffffffff16021790555050503373ffffffffffffffffffffffffffffffffffffffff168373ffffffffffffffffffffffffffffffffffffffff167fa8748c52a921be2a4c654a712d28d92cc72cdf91cea2d11b407d25e9ea18251e84426040516102bb9291906108f9565b60405180910390a3505050565b5f805f8373ffffffffffffffffffffffffffffffffffffffff1673ffffffffffffffffffffffffffffffffffffffff1681526020019081526020015f20805490509050919050565b5f805f805f8673ffffffffffffffffffffffffffffffffffffffff1673ffffffffffffffffffffffffffffffffffffffff1681526020019081526020015f20805490508410610394576040517f08c379a000000000000000000000000000000000000000000000000000000000815260040161038b9061096a565b60405180910390fd5b5f805f8773ffffffffffffffffffffffffffffffffffffffff1673ffffffffffffffffffffffffffffffffffffffff1681526020019081526020015f2085815481106103e3576103e2610988565b5b905f5260205f2090600302016040518060600160405290815f820154815260200160018201548152602001600282015f9054906101000a900473ffffffffffffffffffffffffffffffffffffffff1673ffffffffffffffffffffffffffffffffffffffff1673ffffffffffffffffffffffffffffffffffffffff16815250509050805f015181602001518260400151935093509350509250925092565b60605f808373ffffffffffffffffffffffffffffffffffffffff1673ffffffffffffffffffffffffffffffffffffffff1681526020019081526020015f20805480602002602001604051908101604052809291908181526020015f905b82821015610575578382905f5260205f2090600302016040518060600160405290815f820154815260200160018201548152602001600282015f9054906101000a900473ffffffffffffffffffffffffffffffffffffffff1673ffffffffffffffffffffffffffffffffffffffff1673ffffffffffffffffffffffffffffffffffffffff1681525050815260200190600101906104dd565b505050509050919050565b5f34116105c2576040517f08c379a00000000000000000000000000000000000000000000000000000000081526004016105b9906108db565b60405180910390fd5b6105cc8134610129565b50565b5f80fd5b5f73ffffffffffffffffffffffffffffffffffffffff82169050919050565b5f6105fc826105d3565b9050919050565b61060c816105f2565b8114610616575f80fd5b50565b5f8135905061062781610603565b92915050565b5f60208284031215610642576106416105cf565b5b5f61064f84828501610619565b91505092915050565b5f819050919050565b61066a81610658565b82525050565b5f6020820190506106835f830184610661565b92915050565b61069281610658565b811461069c575f80fd5b50565b5f813590506106ad81610689565b92915050565b5f80604083850312156106c9576106c86105cf565b5b5f6106d685828601610619565b92505060206106e78582860161069f565b9150509250929050565b6106fa816105f2565b82525050565b5f6060820190506107135f830186610661565b6107206020830185610661565b61072d60408301846106f1565b949350505050565b5f81519050919050565b5f82825260208201905092915050565b5f819050602082019050919050565b61076781610658565b82525050565b610776816105f2565b82525050565b606082015f8201516107905f85018261075e565b5060208201516107a3602085018261075e565b5060408201516107b6604085018261076d565b50505050565b5f6107c7838361077c565b60608301905092915050565b5f602082019050919050565b5f6107e982610735565b6107f3818561073f565b93506107fe8361074f565b805f5b8381101561082e57815161081588826107bc565b9750610820836107d3565b925050600181019050610801565b5085935050505092915050565b5f6020820190508181035f83015261085381846107df565b905092915050565b5f82825260208201905092915050565b7f5472616e73616374696f6e2076616c7565206d757374206265206772656174655f8201527f72207468616e2030000000000000000000000000000000000000000000000000602082015250565b5f6108c560288361085b565b91506108d08261086b565b604082019050919050565b5f6020820190508181035f8301526108f2816108b9565b9050919050565b5f60408201905061090c5f830185610661565b6109196020830184610661565b9392505050565b7f5472616e73616374696f6e20696e646578206f7574206f6620626f756e6473005f82015250565b5f610954601f8361085b565b915061095f82610920565b602082019050919050565b5f6020820190508181035f83015261098181610948565b9050919050565b7f4e487b71000000000000000000000000000000000000000000000000000000005f52603260045260245ffdfea264697066735822122054b11da244a4e5c5ef2c8c83bf40e2bd01c88453cf0d0792cfb0bd1b80b4e72b64736f6c634300081a0033",
					"opcodes": "PUSH1 0x80 PUSH1 0x40 MSTORE CALLVALUE DUP1 ISZERO PUSH1 0xE JUMPI PUSH0 DUP1 REVERT JUMPDEST POP PUSH2 0x9EB DUP1 PUSH2 0x1C PUSH0 CODECOPY PUSH0 RETURN INVALID PUSH1 0x80 PUSH1 0x40 MSTORE PUSH1 0x4 CALLDATASIZE LT PUSH2 0x42 JUMPI PUSH0 CALLDATALOAD PUSH1 0xE0 SHR DUP1 PUSH4 0x23CA0CD2 EQ PUSH2 0x57 JUMPI DUP1 PUSH4 0xA43293B4 EQ PUSH2 0x93 JUMPI DUP1 PUSH4 0xDAB3B7AA EQ PUSH2 0xD1 JUMPI DUP1 PUSH4 0xFF542382 EQ PUSH2 0x10D JUMPI PUSH2 0x53 JUMP JUMPDEST CALLDATASIZE PUSH2 0x53 JUMPI PUSH2 0x51 CALLER CALLVALUE PUSH2 0x129 JUMP JUMPDEST STOP JUMPDEST PUSH0 DUP1 REVERT JUMPDEST CALLVALUE DUP1 ISZERO PUSH2 0x62 JUMPI PUSH0 DUP1 REVERT JUMPDEST POP PUSH2 0x7D PUSH1 0x4 DUP1 CALLDATASIZE SUB DUP2 ADD SWAP1 PUSH2 0x78 SWAP2 SWAP1 PUSH2 0x62D JUMP JUMPDEST PUSH2 0x2C8 JUMP JUMPDEST PUSH1 0x40 MLOAD PUSH2 0x8A SWAP2 SWAP1 PUSH2 0x670 JUMP JUMPDEST PUSH1 0x40 MLOAD DUP1 SWAP2 SUB SWAP1 RETURN JUMPDEST CALLVALUE DUP1 ISZERO PUSH2 0x9E JUMPI PUSH0 DUP1 REVERT JUMPDEST POP PUSH2 0xB9 PUSH1 0x4 DUP1 CALLDATASIZE SUB DUP2 ADD SWAP1 PUSH2 0xB4 SWAP2 SWAP1 PUSH2 0x6B3 JUMP JUMPDEST PUSH2 0x310 JUMP JUMPDEST PUSH1 0x40 MLOAD PUSH2 0xC8 SWAP4 SWAP3 SWAP2 SWAP1 PUSH2 0x700 JUMP JUMPDEST PUSH1 0x40 MLOAD DUP1 SWAP2 SUB SWAP1 RETURN JUMPDEST CALLVALUE DUP1 ISZERO PUSH2 0xDC JUMPI PUSH0 DUP1 REVERT JUMPDEST POP PUSH2 0xF7 PUSH1 0x4 DUP1 CALLDATASIZE SUB DUP2 ADD SWAP1 PUSH2 0xF2 SWAP2 SWAP1 PUSH2 0x62D JUMP JUMPDEST PUSH2 0x480 JUMP JUMPDEST PUSH1 0x40 MLOAD PUSH2 0x104 SWAP2 SWAP1 PUSH2 0x83B JUMP JUMPDEST PUSH1 0x40 MLOAD DUP1 SWAP2 SUB SWAP1 RETURN JUMPDEST PUSH2 0x127 PUSH1 0x4 DUP1 CALLDATASIZE SUB DUP2 ADD SWAP1 PUSH2 0x122 SWAP2 SWAP1 PUSH2 0x62D JUMP JUMPDEST PUSH2 0x580 JUMP JUMPDEST STOP JUMPDEST PUSH0 DUP2 GT PUSH2 0x16B JUMPI PUSH1 0x40 MLOAD PUSH32 0x8C379A000000000000000000000000000000000000000000000000000000000 DUP2 MSTORE PUSH1 0x4 ADD PUSH2 0x162 SWAP1 PUSH2 0x8DB JUMP JUMPDEST PUSH1 0x40 MLOAD DUP1 SWAP2 SUB SWAP1 REVERT JUMPDEST PUSH0 PUSH1 0x40 MLOAD DUP1 PUSH1 0x60 ADD PUSH1 0x40 MSTORE DUP1 TIMESTAMP DUP2 MSTORE PUSH1 0x20 ADD DUP4 DUP2 MSTORE PUSH1 0x20 ADD CALLER PUSH20 0xFFFFFFFFFFFFFFFFFFFFFFFFFFFFFFFFFFFFFFFF AND DUP2 MSTORE POP SWAP1 POP PUSH0 DUP1 DUP5 PUSH20 0xFFFFFFFFFFFFFFFFFFFFFFFFFFFFFFFFFFFFFFFF AND PUSH20 0xFFFFFFFFFFFFFFFFFFFFFFFFFFFFFFFFFFFFFFFF AND DUP2 MSTORE PUSH1 0x20 ADD SWAP1 DUP2 MSTORE PUSH1 0x20 ADD PUSH0 KECCAK256 DUP2 SWAP1 DUP1 PUSH1 0x1 DUP2 SLOAD ADD DUP1 DUP3 SSTORE DUP1 SWAP2 POP POP PUSH1 0x1 SWAP1 SUB SWAP1 PUSH0 MSTORE PUSH1 0x20 PUSH0 KECCAK256 SWAP1 PUSH1 0x3 MUL ADD PUSH0 SWAP1 SWAP2 SWAP1 SWAP2 SWAP1 SWAP2 POP PUSH0 DUP3 ADD MLOAD DUP2 PUSH0 ADD SSTORE PUSH1 0x20 DUP3 ADD MLOAD DUP2 PUSH1 0x1 ADD SSTORE PUSH1 0x40 DUP3 ADD MLOAD DUP2 PUSH1 0x2 ADD PUSH0 PUSH2 0x100 EXP DUP2 SLOAD DUP2 PUSH20 0xFFFFFFFFFFFFFFFFFFFFFFFFFFFFFFFFFFFFFFFF MUL NOT AND SWAP1 DUP4 PUSH20 0xFFFFFFFFFFFFFFFFFFFFFFFFFFFFFFFFFFFFFFFF AND MUL OR SWAP1 SSTORE POP POP POP CALLER PUSH20 0xFFFFFFFFFFFFFFFFFFFFFFFFFFFFFFFFFFFFFFFF AND DUP4 PUSH20 0xFFFFFFFFFFFFFFFFFFFFFFFFFFFFFFFFFFFFFFFF AND PUSH32 0xA8748C52A921BE2A4C654A712D28D92CC72CDF91CEA2D11B407D25E9EA18251E DUP5 TIMESTAMP PUSH1 0x40 MLOAD PUSH2 0x2BB SWAP3 SWAP2 SWAP1 PUSH2 0x8F9 JUMP JUMPDEST PUSH1 0x40 MLOAD DUP1 SWAP2 SUB SWAP1 LOG3 POP POP POP JUMP JUMPDEST PUSH0 DUP1 PUSH0 DUP4 PUSH20 0xFFFFFFFFFFFFFFFFFFFFFFFFFFFFFFFFFFFFFFFF AND PUSH20 0xFFFFFFFFFFFFFFFFFFFFFFFFFFFFFFFFFFFFFFFF AND DUP2 MSTORE PUSH1 0x20 ADD SWAP1 DUP2 MSTORE PUSH1 0x20 ADD PUSH0 KECCAK256 DUP1 SLOAD SWAP1 POP SWAP1 POP SWAP2 SWAP1 POP JUMP JUMPDEST PUSH0 DUP1 PUSH0 DUP1 PUSH0 DUP7 PUSH20 0xFFFFFFFFFFFFFFFFFFFFFFFFFFFFFFFFFFFFFFFF AND PUSH20 0xFFFFFFFFFFFFFFFFFFFFFFFFFFFFFFFFFFFFFFFF AND DUP2 MSTORE PUSH1 0x20 ADD SWAP1 DUP2 MSTORE PUSH1 0x20 ADD PUSH0 KECCAK256 DUP1 SLOAD SWAP1 POP DUP5 LT PUSH2 0x394 JUMPI PUSH1 0x40 MLOAD PUSH32 0x8C379A000000000000000000000000000000000000000000000000000000000 DUP2 MSTORE PUSH1 0x4 ADD PUSH2 0x38B SWAP1 PUSH2 0x96A JUMP JUMPDEST PUSH1 0x40 MLOAD DUP1 SWAP2 SUB SWAP1 REVERT JUMPDEST PUSH0 DUP1 PUSH0 DUP8 PUSH20 0xFFFFFFFFFFFFFFFFFFFFFFFFFFFFFFFFFFFFFFFF AND PUSH20 0xFFFFFFFFFFFFFFFFFFFFFFFFFFFFFFFFFFFFFFFF AND DUP2 MSTORE PUSH1 0x20 ADD SWAP1 DUP2 MSTORE PUSH1 0x20 ADD PUSH0 KECCAK256 DUP6 DUP2 SLOAD DUP2 LT PUSH2 0x3E3 JUMPI PUSH2 0x3E2 PUSH2 0x988 JUMP JUMPDEST JUMPDEST SWAP1 PUSH0 MSTORE PUSH1 0x20 PUSH0 KECCAK256 SWAP1 PUSH1 0x3 MUL ADD PUSH1 0x40 MLOAD DUP1 PUSH1 0x60 ADD PUSH1 0x40 MSTORE SWAP1 DUP2 PUSH0 DUP3 ADD SLOAD DUP2 MSTORE PUSH1 0x20 ADD PUSH1 0x1 DUP3 ADD SLOAD DUP2 MSTORE PUSH1 0x20 ADD PUSH1 0x2 DUP3 ADD PUSH0 SWAP1 SLOAD SWAP1 PUSH2 0x100 EXP SWAP1 DIV PUSH20 0xFFFFFFFFFFFFFFFFFFFFFFFFFFFFFFFFFFFFFFFF AND PUSH20 0xFFFFFFFFFFFFFFFFFFFFFFFFFFFFFFFFFFFFFFFF AND PUSH20 0xFFFFFFFFFFFFFFFFFFFFFFFFFFFFFFFFFFFFFFFF AND DUP2 MSTORE POP POP SWAP1 POP DUP1 PUSH0 ADD MLOAD DUP2 PUSH1 0x20 ADD MLOAD DUP3 PUSH1 0x40 ADD MLOAD SWAP4 POP SWAP4 POP SWAP4 POP POP SWAP3 POP SWAP3 POP SWAP3 JUMP JUMPDEST PUSH1 0x60 PUSH0 DUP1 DUP4 PUSH20 0xFFFFFFFFFFFFFFFFFFFFFFFFFFFFFFFFFFFFFFFF AND PUSH20 0xFFFFFFFFFFFFFFFFFFFFFFFFFFFFFFFFFFFFFFFF AND DUP2 MSTORE PUSH1 0x20 ADD SWAP1 DUP2 MSTORE PUSH1 0x20 ADD PUSH0 KECCAK256 DUP1 SLOAD DUP1 PUSH1 0x20 MUL PUSH1 0x20 ADD PUSH1 0x40 MLOAD SWAP1 DUP2 ADD PUSH1 0x40 MSTORE DUP1 SWAP3 SWAP2 SWAP1 DUP2 DUP2 MSTORE PUSH1 0x20 ADD PUSH0 SWAP1 JUMPDEST DUP3 DUP3 LT ISZERO PUSH2 0x575 JUMPI DUP4 DUP3 SWAP1 PUSH0 MSTORE PUSH1 0x20 PUSH0 KECCAK256 SWAP1 PUSH1 0x3 MUL ADD PUSH1 0x40 MLOAD DUP1 PUSH1 0x60 ADD PUSH1 0x40 MSTORE SWAP1 DUP2 PUSH0 DUP3 ADD SLOAD DUP2 MSTORE PUSH1 0x20 ADD PUSH1 0x1 DUP3 ADD SLOAD DUP2 MSTORE PUSH1 0x20 ADD PUSH1 0x2 DUP3 ADD PUSH0 SWAP1 SLOAD SWAP1 PUSH2 0x100 EXP SWAP1 DIV PUSH20 0xFFFFFFFFFFFFFFFFFFFFFFFFFFFFFFFFFFFFFFFF AND PUSH20 0xFFFFFFFFFFFFFFFFFFFFFFFFFFFFFFFFFFFFFFFF AND PUSH20 0xFFFFFFFFFFFFFFFFFFFFFFFFFFFFFFFFFFFFFFFF AND DUP2 MSTORE POP POP DUP2 MSTORE PUSH1 0x20 ADD SWAP1 PUSH1 0x1 ADD SWAP1 PUSH2 0x4DD JUMP JUMPDEST POP POP POP POP SWAP1 POP SWAP2 SWAP1 POP JUMP JUMPDEST PUSH0 CALLVALUE GT PUSH2 0x5C2 JUMPI PUSH1 0x40 MLOAD PUSH32 0x8C379A000000000000000000000000000000000000000000000000000000000 DUP2 MSTORE PUSH1 0x4 ADD PUSH2 0x5B9 SWAP1 PUSH2 0x8DB JUMP JUMPDEST PUSH1 0x40 MLOAD DUP1 SWAP2 SUB SWAP1 REVERT JUMPDEST PUSH2 0x5CC DUP2 CALLVALUE PUSH2 0x129 JUMP JUMPDEST POP JUMP JUMPDEST PUSH0 DUP1 REVERT JUMPDEST PUSH0 PUSH20 0xFFFFFFFFFFFFFFFFFFFFFFFFFFFFFFFFFFFFFFFF DUP3 AND SWAP1 POP SWAP2 SWAP1 POP JUMP JUMPDEST PUSH0 PUSH2 0x5FC DUP3 PUSH2 0x5D3 JUMP JUMPDEST SWAP1 POP SWAP2 SWAP1 POP JUMP JUMPDEST PUSH2 0x60C DUP2 PUSH2 0x5F2 JUMP JUMPDEST DUP2 EQ PUSH2 0x616 JUMPI PUSH0 DUP1 REVERT JUMPDEST POP JUMP JUMPDEST PUSH0 DUP2 CALLDATALOAD SWAP1 POP PUSH2 0x627 DUP2 PUSH2 0x603 JUMP JUMPDEST SWAP3 SWAP2 POP POP JUMP JUMPDEST PUSH0 PUSH1 0x20 DUP3 DUP5 SUB SLT ISZERO PUSH2 0x642 JUMPI PUSH2 0x641 PUSH2 0x5CF JUMP JUMPDEST JUMPDEST PUSH0 PUSH2 0x64F DUP5 DUP3 DUP6 ADD PUSH2 0x619 JUMP JUMPDEST SWAP2 POP POP SWAP3 SWAP2 POP POP JUMP JUMPDEST PUSH0 DUP2 SWAP1 POP SWAP2 SWAP1 POP JUMP JUMPDEST PUSH2 0x66A DUP2 PUSH2 0x658 JUMP JUMPDEST DUP3 MSTORE POP POP JUMP JUMPDEST PUSH0 PUSH1 0x20 DUP3 ADD SWAP1 POP PUSH2 0x683 PUSH0 DUP4 ADD DUP5 PUSH2 0x661 JUMP JUMPDEST SWAP3 SWAP2 POP POP JUMP JUMPDEST PUSH2 0x692 DUP2 PUSH2 0x658 JUMP JUMPDEST DUP2 EQ PUSH2 0x69C JUMPI PUSH0 DUP1 REVERT JUMPDEST POP JUMP JUMPDEST PUSH0 DUP2 CALLDATALOAD SWAP1 POP PUSH2 0x6AD DUP2 PUSH2 0x689 JUMP JUMPDEST SWAP3 SWAP2 POP POP JUMP JUMPDEST PUSH0 DUP1 PUSH1 0x40 DUP4 DUP6 SUB SLT ISZERO PUSH2 0x6C9 JUMPI PUSH2 0x6C8 PUSH2 0x5CF JUMP JUMPDEST JUMPDEST PUSH0 PUSH2 0x6D6 DUP6 DUP3 DUP7 ADD PUSH2 0x619 JUMP JUMPDEST SWAP3 POP POP PUSH1 0x20 PUSH2 0x6E7 DUP6 DUP3 DUP7 ADD PUSH2 0x69F JUMP JUMPDEST SWAP2 POP POP SWAP3 POP SWAP3 SWAP1 POP JUMP JUMPDEST PUSH2 0x6FA DUP2 PUSH2 0x5F2 JUMP JUMPDEST DUP3 MSTORE POP POP JUMP JUMPDEST PUSH0 PUSH1 0x60 DUP3 ADD SWAP1 POP PUSH2 0x713 PUSH0 DUP4 ADD DUP7 PUSH2 0x661 JUMP JUMPDEST PUSH2 0x720 PUSH1 0x20 DUP4 ADD DUP6 PUSH2 0x661 JUMP JUMPDEST PUSH2 0x72D PUSH1 0x40 DUP4 ADD DUP5 PUSH2 0x6F1 JUMP JUMPDEST SWAP5 SWAP4 POP POP POP POP JUMP JUMPDEST PUSH0 DUP2 MLOAD SWAP1 POP SWAP2 SWAP1 POP JUMP JUMPDEST PUSH0 DUP3 DUP3 MSTORE PUSH1 0x20 DUP3 ADD SWAP1 POP SWAP3 SWAP2 POP POP JUMP JUMPDEST PUSH0 DUP2 SWAP1 POP PUSH1 0x20 DUP3 ADD SWAP1 POP SWAP2 SWAP1 POP JUMP JUMPDEST PUSH2 0x767 DUP2 PUSH2 0x658 JUMP JUMPDEST DUP3 MSTORE POP POP JUMP JUMPDEST PUSH2 0x776 DUP2 PUSH2 0x5F2 JUMP JUMPDEST DUP3 MSTORE POP POP JUMP JUMPDEST PUSH1 0x60 DUP3 ADD PUSH0 DUP3 ADD MLOAD PUSH2 0x790 PUSH0 DUP6 ADD DUP3 PUSH2 0x75E JUMP JUMPDEST POP PUSH1 0x20 DUP3 ADD MLOAD PUSH2 0x7A3 PUSH1 0x20 DUP6 ADD DUP3 PUSH2 0x75E JUMP JUMPDEST POP PUSH1 0x40 DUP3 ADD MLOAD PUSH2 0x7B6 PUSH1 0x40 DUP6 ADD DUP3 PUSH2 0x76D JUMP JUMPDEST POP POP POP POP JUMP JUMPDEST PUSH0 PUSH2 0x7C7 DUP4 DUP4 PUSH2 0x77C JUMP JUMPDEST PUSH1 0x60 DUP4 ADD SWAP1 POP SWAP3 SWAP2 POP POP JUMP JUMPDEST PUSH0 PUSH1 0x20 DUP3 ADD SWAP1 POP SWAP2 SWAP1 POP JUMP JUMPDEST PUSH0 PUSH2 0x7E9 DUP3 PUSH2 0x735 JUMP JUMPDEST PUSH2 0x7F3 DUP2 DUP6 PUSH2 0x73F JUMP JUMPDEST SWAP4 POP PUSH2 0x7FE DUP4 PUSH2 0x74F JUMP JUMPDEST DUP1 PUSH0 JUMPDEST DUP4 DUP2 LT ISZERO PUSH2 0x82E JUMPI DUP2 MLOAD PUSH2 0x815 DUP9 DUP3 PUSH2 0x7BC JUMP JUMPDEST SWAP8 POP PUSH2 0x820 DUP4 PUSH2 0x7D3 JUMP JUMPDEST SWAP3 POP POP PUSH1 0x1 DUP2 ADD SWAP1 POP PUSH2 0x801 JUMP JUMPDEST POP DUP6 SWAP4 POP POP POP POP SWAP3 SWAP2 POP POP JUMP JUMPDEST PUSH0 PUSH1 0x20 DUP3 ADD SWAP1 POP DUP2 DUP2 SUB PUSH0 DUP4 ADD MSTORE PUSH2 0x853 DUP2 DUP5 PUSH2 0x7DF JUMP JUMPDEST SWAP1 POP SWAP3 SWAP2 POP POP JUMP JUMPDEST PUSH0 DUP3 DUP3 MSTORE PUSH1 0x20 DUP3 ADD SWAP1 POP SWAP3 SWAP2 POP POP JUMP JUMPDEST PUSH32 0x5472616E73616374696F6E2076616C7565206D75737420626520677265617465 PUSH0 DUP3 ADD MSTORE PUSH32 0x72207468616E2030000000000000000000000000000000000000000000000000 PUSH1 0x20 DUP3 ADD MSTORE POP JUMP JUMPDEST PUSH0 PUSH2 0x8C5 PUSH1 0x28 DUP4 PUSH2 0x85B JUMP JUMPDEST SWAP2 POP PUSH2 0x8D0 DUP3 PUSH2 0x86B JUMP JUMPDEST PUSH1 0x40 DUP3 ADD SWAP1 POP SWAP2 SWAP1 POP JUMP JUMPDEST PUSH0 PUSH1 0x20 DUP3 ADD SWAP1 POP DUP2 DUP2 SUB PUSH0 DUP4 ADD MSTORE PUSH2 0x8F2 DUP2 PUSH2 0x8B9 JUMP JUMPDEST SWAP1 POP SWAP2 SWAP1 POP JUMP JUMPDEST PUSH0 PUSH1 0x40 DUP3 ADD SWAP1 POP PUSH2 0x90C PUSH0 DUP4 ADD DUP6 PUSH2 0x661 JUMP JUMPDEST PUSH2 0x919 PUSH1 0x20 DUP4 ADD DUP5 PUSH2 0x661 JUMP JUMPDEST SWAP4 SWAP3 POP POP POP JUMP JUMPDEST PUSH32 0x5472616E73616374696F6E20696E646578206F7574206F6620626F756E647300 PUSH0 DUP3 ADD MSTORE POP JUMP JUMPDEST PUSH0 PUSH2 0x954 PUSH1 0x1F DUP4 PUSH2 0x85B JUMP JUMPDEST SWAP2 POP PUSH2 0x95F DUP3 PUSH2 0x920 JUMP JUMPDEST PUSH1 0x20 DUP3 ADD SWAP1 POP SWAP2 SWAP1 POP JUMP JUMPDEST PUSH0 PUSH1 0x20 DUP3 ADD SWAP1 POP DUP2 DUP2 SUB PUSH0 DUP4 ADD MSTORE PUSH2 0x981 DUP2 PUSH2 0x948 JUMP JUMPDEST SWAP1 POP SWAP2 SWAP1 POP JUMP JUMPDEST PUSH32 0x4E487B7100000000000000000000000000000000000000000000000000000000 PUSH0 MSTORE PUSH1 0x32 PUSH1 0x4 MSTORE PUSH1 0x24 PUSH0 REVERT INVALID LOG2 PUSH5 0x6970667358 0x22 SLT KECCAK256 SLOAD 0xB1 SAR LOG2 PREVRANDAO LOG4 0xE5 0xC5 0xEF 0x2C DUP13 DUP4 0xBF BLOCKHASH 0xE2 0xBD ADD 0xC8 DUP5 MSTORE8 0xCF 0xD SMOD SWAP3 0xCF 0xB0 0xBD SHL DUP1 0xB4 0xE7 0x2B PUSH5 0x736F6C6343 STOP ADDMOD BYTE STOP CALLER "
				},
				"gasEstimates": {
					"creation": {
						"codeDepositCost": "507800",
						"executionCost": "541",
						"totalCost": "508341"
					},
					"external": {
						"_recordTransaction(address)": "infinite",
						"getAllTransactions(address)": "infinite",
						"getTransaction(address,uint256)": "infinite",
						"getTransactionCount(address)": "2815"
					},
					"internal": {
						"_recordTransaction(address,uint256)": "infinite"
					}
				},
				"methodIdentifiers": {
					"_recordTransaction(address)": "ff542382",
					"getAllTransactions(address)": "dab3b7aa",
					"getTransaction(address,uint256)": "a43293b4",
					"getTransactionCount(address)": "23ca0cd2"
				}
			},
			"storageLayout": {
				"storage": [
					{
						"astId": 14,
						"contract": "Day-25/code1.sol:TransactionHistory",
						"label": "_transactionHistory",
						"offset": 0,
						"slot": "0",
						"type": "t_mapping(t_address,t_array(t_struct(Transaction)8_storage)dyn_storage)"
					}
				],
				"types": {
					"t_address": {
						"encoding": "inplace",
						"label": "address",
						"numberOfBytes": "20"
					},
					"t_array(t_struct(Transaction)8_storage)dyn_storage": {
						"base": "t_struct(Transaction)8_storage",
						"encoding": "dynamic_array",
						"label": "struct TransactionHistory.Transaction[]",
						"numberOfBytes": "32"
					},
					"t_mapping(t_address,t_array(t_struct(Transaction)8_storage)dyn_storage)": {
						"encoding": "mapping",
						"key": "t_address",
						"label": "mapping(address => struct TransactionHistory.Transaction[])",
						"numberOfBytes": "32",
						"value": "t_array(t_struct(Transaction)8_storage)dyn_storage"
					},
					"t_struct(Transaction)8_storage": {
						"encoding": "inplace",
						"label": "struct TransactionHistory.Transaction",
						"members": [
							{
								"astId": 3,
								"contract": "Day-25/code1.sol:TransactionHistory",
								"label": "timestamp",
								"offset": 0,
								"slot": "0",
								"type": "t_uint256"
							},
							{
								"astId": 5,
								"contract": "Day-25/code1.sol:TransactionHistory",
								"label": "value",
								"offset": 0,
								"slot": "1",
								"type": "t_uint256"
							},
							{
								"astId": 7,
								"contract": "Day-25/code1.sol:TransactionHistory",
								"label": "from",
								"offset": 0,
								"slot": "2",
								"type": "t_address"
							}
						],
						"numberOfBytes": "96"
					},
					"t_uint256": {
						"encoding": "inplace",
						"label": "uint256",
						"numberOfBytes": "32"
					}
				}
			},
			"userdoc": {
				"kind": "user",
				"methods": {},
				"version": 1
			}
		}
	}
}