{
	"Latency2.sol": {
		"BlockLatencyReason": {
			"abi": [
				{
					"inputs": [],
					"stateMutability": "nonpayable",
					"type": "constructor"
				},
				{
					"inputs": [
						{
							"internalType": "uint256",
							"name": "",
							"type": "uint256"
						}
					],
					"name": "blockData",
					"outputs": [
						{
							"internalType": "string",
							"name": "reason",
							"type": "string"
						},
						{
							"internalType": "uint256",
							"name": "latency",
							"type": "uint256"
						},
						{
							"internalType": "bool",
							"name": "generated",
							"type": "bool"
						}
					],
					"stateMutability": "view",
					"type": "function"
				},
				{
					"inputs": [
						{
							"internalType": "uint256",
							"name": "blockNumber",
							"type": "uint256"
						}
					],
					"name": "getLatency",
					"outputs": [
						{
							"internalType": "string",
							"name": "reason",
							"type": "string"
						},
						{
							"internalType": "uint256",
							"name": "latency",
							"type": "uint256"
						}
					],
					"stateMutability": "nonpayable",
					"type": "function"
				}
			],
			"devdoc": {
				"kind": "dev",
				"methods": {},
				"version": 1
			},
			"evm": {
				"assembly": "    /* \"Latency2.sol\":61:2611  contract BlockLatencyReason {... */\n  mstore(0x40, 0x80)\n    /* \"Latency2.sol\":368:1796  constructor() {... */\n  callvalue\n  dup1\n  iszero\n  tag_1\n  jumpi\n  0x00\n  dup1\n  revert\ntag_1:\n  pop\n    /* \"Latency2.sol\":460:531  blockData[1].reason = \"Farmer KYC submission Initial transaction setup\" */\n  mload(0x40)\n  dup1\n  0x60\n  add\n  0x40\n  mstore\n  dup1\n  0x2f\n  dup2\n  mstore\n  0x20\n  add\n  data_6ddf227d19c8b51ded1f78964d9891526aa12b95c6fd41e52dc3d8e9b0ab7bf5\n  0x2f\n  swap2\n  codecopy\n    /* \"Latency2.sol\":460:469  blockData */\n  0x00\n    /* \"Latency2.sol\":460:472  blockData[1] */\n  dup1\n    /* \"Latency2.sol\":470:471  1 */\n  0x01\n    /* \"Latency2.sol\":460:472  blockData[1] */\n  dup2\n  mstore\n  0x20\n  add\n  swap1\n  dup2\n  mstore\n  0x20\n  add\n  0x00\n  keccak256\n    /* \"Latency2.sol\":460:479  blockData[1].reason */\n  0x00\n  add\n    /* \"Latency2.sol\":460:531  blockData[1].reason = \"Farmer KYC submission Initial transaction setup\" */\n  swap1\n  dup2\n  tag_4\n  swap2\n  swap1\n  tag_5\n  jump\t// in\ntag_4:\n  pop\n    /* \"Latency2.sol\":542:624  blockData[2].reason = \"Govt. Fund Allocation Subsidy approval and fund allocation\" */\n  mload(0x40)\n  dup1\n  0x60\n  add\n  0x40\n  mstore\n  dup1\n  0x3a\n  dup2\n  mstore\n  0x20\n  add\n  data_ff59a92c43d74b71a64fb4743c01e629fa4fa7a3ce3535a555886e034b114e7c\n  0x3a\n  swap2\n  codecopy\n    /* \"Latency2.sol\":542:551  blockData */\n  0x00\n    /* \"Latency2.sol\":542:554  blockData[2] */\n  dup1\n    /* \"Latency2.sol\":552:553  2 */\n  0x02\n    /* \"Latency2.sol\":542:554  blockData[2] */\n  dup2\n  mstore\n  0x20\n  add\n  swap1\n  dup2\n  mstore\n  0x20\n  add\n  0x00\n  keccak256\n    /* \"Latency2.sol\":542:561  blockData[2].reason */\n  0x00\n  add\n    /* \"Latency2.sol\":542:624  blockData[2].reason = \"Govt. Fund Allocation Subsidy approval and fund allocation\" */\n  swap1\n  dup2\n  tag_6\n  swap2\n  swap1\n  tag_5\n  jump\t// in\ntag_6:\n  pop\n    /* \"Latency2.sol\":635:710  blockData[3].reason = \"Seed wholesaler order Seed supply request confirmed\" */\n  mload(0x40)\n  dup1\n  0x60\n  add\n  0x40\n  mstore\n  dup1\n  0x33\n  dup2\n  mstore\n  0x20\n  add\n  data_d4f6638fea6164c12ac44e7ab19ae26b89a4a7d2da79d200acdf85eee10de2f7\n  0x33\n  swap2\n  codecopy\n    /* \"Latency2.sol\":635:644  blockData */\n  0x00\n    /* \"Latency2.sol\":635:647  blockData[3] */\n  dup1\n    /* \"Latency2.sol\":645:646  3 */\n  0x03\n    /* \"Latency2.sol\":635:647  blockData[3] */\n  dup2\n  mstore\n  0x20\n  add\n  swap1\n  dup2\n  mstore\n  0x20\n  add\n  0x00\n  keccak256\n    /* \"Latency2.sol\":635:654  blockData[3].reason */\n  0x00\n  add\n    /* \"Latency2.sol\":635:710  blockData[3].reason = \"Seed wholesaler order Seed supply request confirmed\" */\n  swap1\n  dup2\n  tag_7\n  swap2\n  swap1\n  tag_5\n  jump\t// in\ntag_7:\n  pop\n    /* \"Latency2.sol\":721:795  blockData[4].reason = \"Seed delivery to farmer Digital order confirmation\" */\n  mload(0x40)\n  dup1\n  0x60\n  add\n  0x40\n  mstore\n  dup1\n  0x32\n  dup2\n  mstore\n  0x20\n  add\n  data_162d696d8ff892c164983f209506a8a287a8d09639b4c9afbc8b1977d27bbe9e\n  0x32\n  swap2\n  codecopy\n    /* \"Latency2.sol\":721:730  blockData */\n  0x00\n    /* \"Latency2.sol\":721:733  blockData[4] */\n  dup1\n    /* \"Latency2.sol\":731:732  4 */\n  0x04\n    /* \"Latency2.sol\":721:733  blockData[4] */\n  dup2\n  mstore\n  0x20\n  add\n  swap1\n  dup2\n  mstore\n  0x20\n  add\n  0x00\n  keccak256\n    /* \"Latency2.sol\":721:740  blockData[4].reason */\n  0x00\n  add\n    /* \"Latency2.sol\":721:795  blockData[4].reason = \"Seed delivery to farmer Digital order confirmation\" */\n  swap1\n  dup2\n  tag_8\n  swap2\n  swap1\n  tag_5\n  jump\t// in\ntag_8:\n  pop\n    /* \"Latency2.sol\":806:888  blockData[5].reason = \"Payment release to wholesaler Delivery tracking validation\" */\n  mload(0x40)\n  dup1\n  0x60\n  add\n  0x40\n  mstore\n  dup1\n  0x3a\n  dup2\n  mstore\n  0x20\n  add\n  data_410bae402133d3b078e0be1f129fd19fc0ddf1aae4814b89c9c98b864cd66691\n  0x3a\n  swap2\n  codecopy\n    /* \"Latency2.sol\":806:815  blockData */\n  0x00\n    /* \"Latency2.sol\":806:818  blockData[5] */\n  dup1\n    /* \"Latency2.sol\":816:817  5 */\n  0x05\n    /* \"Latency2.sol\":806:818  blockData[5] */\n  dup2\n  mstore\n  0x20\n  add\n  swap1\n  dup2\n  mstore\n  0x20\n  add\n  0x00\n  keccak256\n    /* \"Latency2.sol\":806:825  blockData[5].reason */\n  0x00\n  add\n    /* \"Latency2.sol\":806:888  blockData[5].reason = \"Payment release to wholesaler Delivery tracking validation\" */\n  swap1\n  dup2\n  tag_9\n  swap2\n  swap1\n  tag_5\n  jump\t// in\ntag_9:\n  pop\n    /* \"Latency2.sol\":899:967  blockData[6].reason = \"Crop Growth and harvest Crop sowing recorded\" */\n  mload(0x40)\n  dup1\n  0x60\n  add\n  0x40\n  mstore\n  dup1\n  0x2c\n  dup2\n  mstore\n  0x20\n  add\n  data_0f2daabdf8921d011df90a77c048c01ed5ab23b9a480fa394a644166a948b175\n  0x2c\n  swap2\n  codecopy\n    /* \"Latency2.sol\":899:908  blockData */\n  0x00\n    /* \"Latency2.sol\":899:911  blockData[6] */\n  dup1\n    /* \"Latency2.sol\":909:910  6 */\n  0x06\n    /* \"Latency2.sol\":899:911  blockData[6] */\n  dup2\n  mstore\n  0x20\n  add\n  swap1\n  dup2\n  mstore\n  0x20\n  add\n  0x00\n  keccak256\n    /* \"Latency2.sol\":899:918  blockData[6].reason */\n  0x00\n  add\n    /* \"Latency2.sol\":899:967  blockData[6].reason = \"Crop Growth and harvest Crop sowing recorded\" */\n  swap1\n  dup2\n  tag_10\n  swap2\n  swap1\n  tag_5\n  jump\t// in\ntag_10:\n  pop\n    /* \"Latency2.sol\":978:1058  blockData[7].reason = \"Received harvest crop from farmer Field monitoring entry\" */\n  mload(0x40)\n  dup1\n  0x60\n  add\n  0x40\n  mstore\n  dup1\n  0x38\n  dup2\n  mstore\n  0x20\n  add\n  data_aef2d42ea2e2580b45bfcbfc260ab2da8bdd90ccf802df695be1f6e10dc9c805\n  0x38\n  swap2\n  codecopy\n    /* \"Latency2.sol\":978:987  blockData */\n  0x00\n    /* \"Latency2.sol\":978:990  blockData[7] */\n  dup1\n    /* \"Latency2.sol\":988:989  7 */\n  0x07\n    /* \"Latency2.sol\":978:990  blockData[7] */\n  dup2\n  mstore\n  0x20\n  add\n  swap1\n  dup2\n  mstore\n  0x20\n  add\n  0x00\n  keccak256\n    /* \"Latency2.sol\":978:997  blockData[7].reason */\n  0x00\n  add\n    /* \"Latency2.sol\":978:1058  blockData[7].reason = \"Received harvest crop from farmer Field monitoring entry\" */\n  swap1\n  dup2\n  tag_11\n  swap2\n  swap1\n  tag_5\n  jump\t// in\ntag_11:\n  pop\n    /* \"Latency2.sol\":1069:1141  blockData[8].reason = \"Send corn to processing unit IoT data monitoring\" */\n  mload(0x40)\n  dup1\n  0x60\n  add\n  0x40\n  mstore\n  dup1\n  0x30\n  dup2\n  mstore\n  0x20\n  add\n  data_717430a2b948e8e28ae9d875d280589974a36d963cedec1491790d3264817634\n  0x30\n  swap2\n  codecopy\n    /* \"Latency2.sol\":1069:1078  blockData */\n  0x00\n    /* \"Latency2.sol\":1069:1081  blockData[8] */\n  dup1\n    /* \"Latency2.sol\":1079:1080  8 */\n  0x08\n    /* \"Latency2.sol\":1069:1081  blockData[8] */\n  dup2\n  mstore\n  0x20\n  add\n  swap1\n  dup2\n  mstore\n  0x20\n  add\n  0x00\n  keccak256\n    /* \"Latency2.sol\":1069:1088  blockData[8].reason */\n  0x00\n  add\n    /* \"Latency2.sol\":1069:1141  blockData[8].reason = \"Send corn to processing unit IoT data monitoring\" */\n  swap1\n  dup2\n  tag_12\n  swap2\n  swap1\n  tag_5\n  jump\t// in\ntag_12:\n  pop\n    /* \"Latency2.sol\":1152:1218  blockData[9].reason = \"Retail distribution Transport & validation\" */\n  mload(0x40)\n  dup1\n  0x60\n  add\n  0x40\n  mstore\n  dup1\n  0x2a\n  dup2\n  mstore\n  0x20\n  add\n  data_65512260639b4fcb1f618888a9f0547c7e9ba38bcaf78b579131a661a4859f1c\n  0x2a\n  swap2\n  codecopy\n    /* \"Latency2.sol\":1152:1161  blockData */\n  0x00\n    /* \"Latency2.sol\":1152:1164  blockData[9] */\n  dup1\n    /* \"Latency2.sol\":1162:1163  9 */\n  0x09\n    /* \"Latency2.sol\":1152:1164  blockData[9] */\n  dup2\n  mstore\n  0x20\n  add\n  swap1\n  dup2\n  mstore\n  0x20\n  add\n  0x00\n  keccak256\n    /* \"Latency2.sol\":1152:1171  blockData[9].reason */\n  0x00\n  add\n    /* \"Latency2.sol\":1152:1218  blockData[9].reason = \"Retail distribution Transport & validation\" */\n  swap1\n  dup2\n  tag_13\n  swap2\n  swap1\n  tag_5\n  jump\t// in\ntag_13:\n  pop\n    /* \"Latency2.sol\":1229:1301  blockData[10].reason = \"Consumer Purchase Computation and quality check\" */\n  mload(0x40)\n  dup1\n  0x60\n  add\n  0x40\n  mstore\n  dup1\n  0x2f\n  dup2\n  mstore\n  0x20\n  add\n  data_3e689171a078c81a3bd46540e70e5609178852e98fcb585e70e70fa870699908\n  0x2f\n  swap2\n  codecopy\n    /* \"Latency2.sol\":1229:1238  blockData */\n  0x00\n    /* \"Latency2.sol\":1229:1242  blockData[10] */\n  dup1\n    /* \"Latency2.sol\":1239:1241  10 */\n  0x0a\n    /* \"Latency2.sol\":1229:1242  blockData[10] */\n  dup2\n  mstore\n  0x20\n  add\n  swap1\n  dup2\n  mstore\n  0x20\n  add\n  0x00\n  keccak256\n    /* \"Latency2.sol\":1229:1249  blockData[10].reason */\n  0x00\n  add\n    /* \"Latency2.sol\":1229:1301  blockData[10].reason = \"Consumer Purchase Computation and quality check\" */\n  swap1\n  dup2\n  tag_14\n  swap2\n  swap1\n  tag_5\n  jump\t// in\ntag_14:\n  pop\n    /* \"Latency2.sol\":1312:1382  blockData[11].reason = \"Retail distribution Consumer level checkpoint\" */\n  mload(0x40)\n  dup1\n  0x60\n  add\n  0x40\n  mstore\n  dup1\n  0x2d\n  dup2\n  mstore\n  0x20\n  add\n  data_5479c83749de5abc256166b3ca8be557d20d27fe626ee4eed4b9f92cc544aefe\n  0x2d\n  swap2\n  codecopy\n    /* \"Latency2.sol\":1312:1321  blockData */\n  0x00\n    /* \"Latency2.sol\":1312:1325  blockData[11] */\n  dup1\n    /* \"Latency2.sol\":1322:1324  11 */\n  0x0b\n    /* \"Latency2.sol\":1312:1325  blockData[11] */\n  dup2\n  mstore\n  0x20\n  add\n  swap1\n  dup2\n  mstore\n  0x20\n  add\n  0x00\n  keccak256\n    /* \"Latency2.sol\":1312:1332  blockData[11].reason */\n  0x00\n  add\n    /* \"Latency2.sol\":1312:1382  blockData[11].reason = \"Retail distribution Consumer level checkpoint\" */\n  swap1\n  dup2\n  tag_15\n  swap2\n  swap1\n  tag_5\n  jump\t// in\ntag_15:\n  pop\n    /* \"Latency2.sol\":1393:1459  blockData[12].reason = \"Wholesaler to consumer Demand aggregation\" */\n  mload(0x40)\n  dup1\n  0x60\n  add\n  0x40\n  mstore\n  dup1\n  0x29\n  dup2\n  mstore\n  0x20\n  add\n  data_4d21a24d4c4b7da178fcef76e46bfc3812b02d19179a7541d04696034f47d2c0\n  0x29\n  swap2\n  codecopy\n    /* \"Latency2.sol\":1393:1402  blockData */\n  0x00\n    /* \"Latency2.sol\":1393:1406  blockData[12] */\n  dup1\n    /* \"Latency2.sol\":1403:1405  12 */\n  0x0c\n    /* \"Latency2.sol\":1393:1406  blockData[12] */\n  dup2\n  mstore\n  0x20\n  add\n  swap1\n  dup2\n  mstore\n  0x20\n  add\n  0x00\n  keccak256\n    /* \"Latency2.sol\":1393:1413  blockData[12].reason */\n  0x00\n  add\n    /* \"Latency2.sol\":1393:1459  blockData[12].reason = \"Wholesaler to consumer Demand aggregation\" */\n  swap1\n  dup2\n  tag_16\n  swap2\n  swap1\n  tag_5\n  jump\t// in\ntag_16:\n  pop\n    /* \"Latency2.sol\":1470:1541  blockData[13].reason = \"Consumer purchase Multiple buyers transactions\" */\n  mload(0x40)\n  dup1\n  0x60\n  add\n  0x40\n  mstore\n  dup1\n  0x2e\n  dup2\n  mstore\n  0x20\n  add\n  data_85a3539d7f8a59bc86fe5b9616747b08a8c592ae61598e3b6356312b6b973de9\n  0x2e\n  swap2\n  codecopy\n    /* \"Latency2.sol\":1470:1479  blockData */\n  0x00\n    /* \"Latency2.sol\":1470:1483  blockData[13] */\n  dup1\n    /* \"Latency2.sol\":1480:1482  13 */\n  0x0d\n    /* \"Latency2.sol\":1470:1483  blockData[13] */\n  dup2\n  mstore\n  0x20\n  add\n  swap1\n  dup2\n  mstore\n  0x20\n  add\n  0x00\n  keccak256\n    /* \"Latency2.sol\":1470:1490  blockData[13].reason */\n  0x00\n  add\n    /* \"Latency2.sol\":1470:1541  blockData[13].reason = \"Consumer purchase Multiple buyers transactions\" */\n  swap1\n  dup2\n  tag_17\n  swap2\n  swap1\n  tag_5\n  jump\t// in\ntag_17:\n  pop\n    /* \"Latency2.sol\":1552:1626  blockData[14].reason = \"Payment settlement Simple settlement confirmation\" */\n  mload(0x40)\n  dup1\n  0x60\n  add\n  0x40\n  mstore\n  dup1\n  0x31\n  dup2\n  mstore\n  0x20\n  add\n  data_b3a3fc01435de4c0caeac50dc263cfb5c3fae97a2e5726374a32ff48302fc000\n  0x31\n  swap2\n  codecopy\n    /* \"Latency2.sol\":1552:1561  blockData */\n  0x00\n    /* \"Latency2.sol\":1552:1565  blockData[14] */\n  dup1\n    /* \"Latency2.sol\":1562:1564  14 */\n  0x0e\n    /* \"Latency2.sol\":1552:1565  blockData[14] */\n  dup2\n  mstore\n  0x20\n  add\n  swap1\n  dup2\n  mstore\n  0x20\n  add\n  0x00\n  keccak256\n    /* \"Latency2.sol\":1552:1572  blockData[14].reason */\n  0x00\n  add\n    /* \"Latency2.sol\":1552:1626  blockData[14].reason = \"Payment settlement Simple settlement confirmation\" */\n  swap1\n  dup2\n  tag_18\n  swap2\n  swap1\n  tag_5\n  jump\t// in\ntag_18:\n  pop\n    /* \"Latency2.sol\":1637:1705  blockData[15].reason = \"Repeat transaction Optimized repeat pattern\" */\n  mload(0x40)\n  dup1\n  0x60\n  add\n  0x40\n  mstore\n  dup1\n  0x2b\n  dup2\n  mstore\n  0x20\n  add\n  data_aa41a8fc5618b06660047ef6ab8d5a863481f6d9b8e1b0a12036519db532fa37\n  0x2b\n  swap2\n  codecopy\n    /* \"Latency2.sol\":1637:1646  blockData */\n  0x00\n    /* \"Latency2.sol\":1637:1650  blockData[15] */\n  dup1\n    /* \"Latency2.sol\":1647:1649  15 */\n  0x0f\n    /* \"Latency2.sol\":1637:1650  blockData[15] */\n  dup2\n  mstore\n  0x20\n  add\n  swap1\n  dup2\n  mstore\n  0x20\n  add\n  0x00\n  keccak256\n    /* \"Latency2.sol\":1637:1657  blockData[15].reason */\n  0x00\n  add\n    /* \"Latency2.sol\":1637:1705  blockData[15].reason = \"Repeat transaction Optimized repeat pattern\" */\n  swap1\n  dup2\n  tag_19\n  swap2\n  swap1\n  tag_5\n  jump\t// in\ntag_19:\n  pop\n    /* \"Latency2.sol\":1716:1788  blockData[16].reason = \"Confirmation Final consumer confirmation record\" */\n  mload(0x40)\n  dup1\n  0x60\n  add\n  0x40\n  mstore\n  dup1\n  0x2f\n  dup2\n  mstore\n  0x20\n  add\n  data_7071501aa97dcc9f5c28627ca521caf021618615f470826ce2ec47633b02eadf\n  0x2f\n  swap2\n  codecopy\n    /* \"Latency2.sol\":1716:1725  blockData */\n  0x00\n    /* \"Latency2.sol\":1716:1729  blockData[16] */\n  dup1\n    /* \"Latency2.sol\":1726:1728  16 */\n  0x10\n    /* \"Latency2.sol\":1716:1729  blockData[16] */\n  dup2\n  mstore\n  0x20\n  add\n  swap1\n  dup2\n  mstore\n  0x20\n  add\n  0x00\n  keccak256\n    /* \"Latency2.sol\":1716:1736  blockData[16].reason */\n  0x00\n  add\n    /* \"Latency2.sol\":1716:1788  blockData[16].reason = \"Confirmation Final consumer confirmation record\" */\n  swap1\n  dup2\n  tag_20\n  swap2\n  swap1\n  tag_5\n  jump\t// in\ntag_20:\n  pop\n    /* \"Latency2.sol\":61:2611  contract BlockLatencyReason {... */\n  jump(tag_21)\n    /* \"#utility.yul\":7:106   */\ntag_22:\n    /* \"#utility.yul\":59:65   */\n  0x00\n    /* \"#utility.yul\":93:98   */\n  dup2\n    /* \"#utility.yul\":87:99   */\n  mload\n    /* \"#utility.yul\":77:99   */\n  swap1\n  pop\n    /* \"#utility.yul\":7:106   */\n  swap2\n  swap1\n  pop\n  jump\t// out\n    /* \"#utility.yul\":112:292   */\ntag_23:\n    /* \"#utility.yul\":160:237   */\n  0x4e487b7100000000000000000000000000000000000000000000000000000000\n    /* \"#utility.yul\":157:158   */\n  0x00\n    /* \"#utility.yul\":150:238   */\n  mstore\n    /* \"#utility.yul\":257:261   */\n  0x41\n    /* \"#utility.yul\":254:255   */\n  0x04\n    /* \"#utility.yul\":247:262   */\n  mstore\n    /* \"#utility.yul\":281:285   */\n  0x24\n    /* \"#utility.yul\":278:279   */\n  0x00\n    /* \"#utility.yul\":271:286   */\n  revert\n    /* \"#utility.yul\":298:478   */\ntag_24:\n    /* \"#utility.yul\":346:423   */\n  0x4e487b7100000000000000000000000000000000000000000000000000000000\n    /* \"#utility.yul\":343:344   */\n  0x00\n    /* \"#utility.yul\":336:424   */\n  mstore\n    /* \"#utility.yul\":443:447   */\n  0x22\n    /* \"#utility.yul\":440:441   */\n  0x04\n    /* \"#utility.yul\":433:448   */\n  mstore\n    /* \"#utility.yul\":467:471   */\n  0x24\n    /* \"#utility.yul\":464:465   */\n  0x00\n    /* \"#utility.yul\":457:472   */\n  revert\n    /* \"#utility.yul\":484:804   */\ntag_25:\n    /* \"#utility.yul\":528:534   */\n  0x00\n    /* \"#utility.yul\":565:566   */\n  0x02\n    /* \"#utility.yul\":559:563   */\n  dup3\n    /* \"#utility.yul\":555:567   */\n  div\n    /* \"#utility.yul\":545:567   */\n  swap1\n  pop\n    /* \"#utility.yul\":612:613   */\n  0x01\n    /* \"#utility.yul\":606:610   */\n  dup3\n    /* \"#utility.yul\":602:614   */\n  and\n    /* \"#utility.yul\":633:651   */\n  dup1\n    /* \"#utility.yul\":623:704   */\n  tag_47\n  jumpi\n    /* \"#utility.yul\":689:693   */\n  0x7f\n    /* \"#utility.yul\":681:687   */\n  dup3\n    /* \"#utility.yul\":677:694   */\n  and\n    /* \"#utility.yul\":667:694   */\n  swap2\n  pop\n    /* \"#utility.yul\":623:704   */\ntag_47:\n    /* \"#utility.yul\":751:753   */\n  0x20\n    /* \"#utility.yul\":743:749   */\n  dup3\n    /* \"#utility.yul\":740:754   */\n  lt\n    /* \"#utility.yul\":720:738   */\n  dup2\n    /* \"#utility.yul\":717:755   */\n  sub\n    /* \"#utility.yul\":714:798   */\n  tag_48\n  jumpi\n    /* \"#utility.yul\":770:788   */\n  tag_49\n  tag_24\n  jump\t// in\ntag_49:\n    /* \"#utility.yul\":714:798   */\ntag_48:\n    /* \"#utility.yul\":535:804   */\n  pop\n    /* \"#utility.yul\":484:804   */\n  swap2\n  swap1\n  pop\n  jump\t// out\n    /* \"#utility.yul\":810:951   */\ntag_26:\n    /* \"#utility.yul\":859:863   */\n  0x00\n    /* \"#utility.yul\":882:885   */\n  dup2\n    /* \"#utility.yul\":874:885   */\n  swap1\n  pop\n    /* \"#utility.yul\":905:908   */\n  dup2\n    /* \"#utility.yul\":902:903   */\n  0x00\n    /* \"#utility.yul\":895:909   */\n  mstore\n    /* \"#utility.yul\":939:943   */\n  0x20\n    /* \"#utility.yul\":936:937   */\n  0x00\n    /* \"#utility.yul\":926:944   */\n  keccak256\n    /* \"#utility.yul\":918:944   */\n  swap1\n  pop\n    /* \"#utility.yul\":810:951   */\n  swap2\n  swap1\n  pop\n  jump\t// out\n    /* \"#utility.yul\":957:1050   */\ntag_27:\n    /* \"#utility.yul\":994:1000   */\n  0x00\n    /* \"#utility.yul\":1041:1043   */\n  0x20\n    /* \"#utility.yul\":1036:1038   */\n  0x1f\n    /* \"#utility.yul\":1029:1034   */\n  dup4\n    /* \"#utility.yul\":1025:1039   */\n  add\n    /* \"#utility.yul\":1021:1044   */\n  div\n    /* \"#utility.yul\":1011:1044   */\n  swap1\n  pop\n    /* \"#utility.yul\":957:1050   */\n  swap2\n  swap1\n  pop\n  jump\t// out\n    /* \"#utility.yul\":1056:1163   */\ntag_28:\n    /* \"#utility.yul\":1100:1108   */\n  0x00\n    /* \"#utility.yul\":1150:1155   */\n  dup3\n    /* \"#utility.yul\":1144:1148   */\n  dup3\n    /* \"#utility.yul\":1140:1156   */\n  shl\n    /* \"#utility.yul\":1119:1156   */\n  swap1\n  pop\n    /* \"#utility.yul\":1056:1163   */\n  swap3\n  swap2\n  pop\n  pop\n  jump\t// out\n    /* \"#utility.yul\":1169:1562   */\ntag_29:\n    /* \"#utility.yul\":1238:1244   */\n  0x00\n    /* \"#utility.yul\":1288:1289   */\n  0x08\n    /* \"#utility.yul\":1276:1286   */\n  dup4\n    /* \"#utility.yul\":1272:1290   */\n  mul\n    /* \"#utility.yul\":1311:1408   */\n  tag_54\n    /* \"#utility.yul\":1341:1407   */\n  0xffffffffffffffffffffffffffffffffffffffffffffffffffffffffffffffff\n    /* \"#utility.yul\":1330:1339   */\n  dup3\n    /* \"#utility.yul\":1311:1408   */\n  tag_28\n  jump\t// in\ntag_54:\n    /* \"#utility.yul\":1429:1468   */\n  tag_55\n    /* \"#utility.yul\":1459:1467   */\n  dup7\n    /* \"#utility.yul\":1448:1457   */\n  dup4\n    /* \"#utility.yul\":1429:1468   */\n  tag_28\n  jump\t// in\ntag_55:\n    /* \"#utility.yul\":1417:1468   */\n  swap6\n  pop\n    /* \"#utility.yul\":1501:1505   */\n  dup1\n    /* \"#utility.yul\":1497:1506   */\n  not\n    /* \"#utility.yul\":1490:1495   */\n  dup5\n    /* \"#utility.yul\":1486:1507   */\n  and\n    /* \"#utility.yul\":1477:1507   */\n  swap4\n  pop\n    /* \"#utility.yul\":1550:1554   */\n  dup1\n    /* \"#utility.yul\":1540:1548   */\n  dup7\n    /* \"#utility.yul\":1536:1555   */\n  and\n    /* \"#utility.yul\":1529:1534   */\n  dup5\n    /* \"#utility.yul\":1526:1556   */\n  or\n    /* \"#utility.yul\":1516:1556   */\n  swap3\n  pop\n    /* \"#utility.yul\":1245:1562   */\n  pop\n  pop\n    /* \"#utility.yul\":1169:1562   */\n  swap4\n  swap3\n  pop\n  pop\n  pop\n  jump\t// out\n    /* \"#utility.yul\":1568:1645   */\ntag_30:\n    /* \"#utility.yul\":1605:1612   */\n  0x00\n    /* \"#utility.yul\":1634:1639   */\n  dup2\n    /* \"#utility.yul\":1623:1639   */\n  swap1\n  pop\n    /* \"#utility.yul\":1568:1645   */\n  swap2\n  swap1\n  pop\n  jump\t// out\n    /* \"#utility.yul\":1651:1711   */\ntag_31:\n    /* \"#utility.yul\":1679:1682   */\n  0x00\n    /* \"#utility.yul\":1700:1705   */\n  dup2\n    /* \"#utility.yul\":1693:1705   */\n  swap1\n  pop\n    /* \"#utility.yul\":1651:1711   */\n  swap2\n  swap1\n  pop\n  jump\t// out\n    /* \"#utility.yul\":1717:1859   */\ntag_32:\n    /* \"#utility.yul\":1767:1776   */\n  0x00\n    /* \"#utility.yul\":1800:1853   */\n  tag_59\n    /* \"#utility.yul\":1818:1852   */\n  tag_60\n    /* \"#utility.yul\":1827:1851   */\n  tag_61\n    /* \"#utility.yul\":1845:1850   */\n  dup5\n    /* \"#utility.yul\":1827:1851   */\n  tag_30\n  jump\t// in\ntag_61:\n    /* \"#utility.yul\":1818:1852   */\n  tag_31\n  jump\t// in\ntag_60:\n    /* \"#utility.yul\":1800:1853   */\n  tag_30\n  jump\t// in\ntag_59:\n    /* \"#utility.yul\":1787:1853   */\n  swap1\n  pop\n    /* \"#utility.yul\":1717:1859   */\n  swap2\n  swap1\n  pop\n  jump\t// out\n    /* \"#utility.yul\":1865:1940   */\ntag_33:\n    /* \"#utility.yul\":1908:1911   */\n  0x00\n    /* \"#utility.yul\":1929:1934   */\n  dup2\n    /* \"#utility.yul\":1922:1934   */\n  swap1\n  pop\n    /* \"#utility.yul\":1865:1940   */\n  swap2\n  swap1\n  pop\n  jump\t// out\n    /* \"#utility.yul\":1946:2215   */\ntag_34:\n    /* \"#utility.yul\":2056:2095   */\n  tag_64\n    /* \"#utility.yul\":2087:2094   */\n  dup4\n    /* \"#utility.yul\":2056:2095   */\n  tag_32\n  jump\t// in\ntag_64:\n    /* \"#utility.yul\":2117:2208   */\n  tag_65\n    /* \"#utility.yul\":2166:2207   */\n  tag_66\n    /* \"#utility.yul\":2190:2206   */\n  dup3\n    /* \"#utility.yul\":2166:2207   */\n  tag_33\n  jump\t// in\ntag_66:\n    /* \"#utility.yul\":2158:2164   */\n  dup5\n    /* \"#utility.yul\":2151:2155   */\n  dup5\n    /* \"#utility.yul\":2145:2156   */\n  sload\n    /* \"#utility.yul\":2117:2208   */\n  tag_29\n  jump\t// in\ntag_65:\n    /* \"#utility.yul\":2111:2115   */\n  dup3\n    /* \"#utility.yul\":2104:2209   */\n  sstore\n    /* \"#utility.yul\":2022:2215   */\n  pop\n    /* \"#utility.yul\":1946:2215   */\n  pop\n  pop\n  pop\n  jump\t// out\n    /* \"#utility.yul\":2221:2294   */\ntag_35:\n    /* \"#utility.yul\":2266:2269   */\n  0x00\n    /* \"#utility.yul\":2221:2294   */\n  swap1\n  jump\t// out\n    /* \"#utility.yul\":2300:2489   */\ntag_36:\n    /* \"#utility.yul\":2377:2409   */\n  tag_69\n  tag_35\n  jump\t// in\ntag_69:\n    /* \"#utility.yul\":2418:2483   */\n  tag_70\n    /* \"#utility.yul\":2476:2482   */\n  dup2\n    /* \"#utility.yul\":2468:2474   */\n  dup5\n    /* \"#utility.yul\":2462:2466   */\n  dup5\n    /* \"#utility.yul\":2418:2483   */\n  tag_34\n  jump\t// in\ntag_70:\n    /* \"#utility.yul\":2353:2489   */\n  pop\n    /* \"#utility.yul\":2300:2489   */\n  pop\n  pop\n  jump\t// out\n    /* \"#utility.yul\":2495:2681   */\ntag_37:\n    /* \"#utility.yul\":2555:2675   */\ntag_72:\n    /* \"#utility.yul\":2572:2575   */\n  dup2\n    /* \"#utility.yul\":2565:2570   */\n  dup2\n    /* \"#utility.yul\":2562:2576   */\n  lt\n    /* \"#utility.yul\":2555:2675   */\n  iszero\n  tag_74\n  jumpi\n    /* \"#utility.yul\":2626:2665   */\n  tag_75\n    /* \"#utility.yul\":2663:2664   */\n  0x00\n    /* \"#utility.yul\":2656:2661   */\n  dup3\n    /* \"#utility.yul\":2626:2665   */\n  tag_36\n  jump\t// in\ntag_75:\n    /* \"#utility.yul\":2599:2600   */\n  0x01\n    /* \"#utility.yul\":2592:2597   */\n  dup2\n    /* \"#utility.yul\":2588:2601   */\n  add\n    /* \"#utility.yul\":2579:2601   */\n  swap1\n  pop\n    /* \"#utility.yul\":2555:2675   */\n  jump(tag_72)\ntag_74:\n    /* \"#utility.yul\":2495:2681   */\n  pop\n  pop\n  jump\t// out\n    /* \"#utility.yul\":2687:3230   */\ntag_38:\n    /* \"#utility.yul\":2788:2790   */\n  0x1f\n    /* \"#utility.yul\":2783:2786   */\n  dup3\n    /* \"#utility.yul\":2780:2791   */\n  gt\n    /* \"#utility.yul\":2777:3223   */\n  iszero\n  tag_77\n  jumpi\n    /* \"#utility.yul\":2822:2860   */\n  tag_78\n    /* \"#utility.yul\":2854:2859   */\n  dup2\n    /* \"#utility.yul\":2822:2860   */\n  tag_26\n  jump\t// in\ntag_78:\n    /* \"#utility.yul\":2906:2935   */\n  tag_79\n    /* \"#utility.yul\":2924:2934   */\n  dup5\n    /* \"#utility.yul\":2906:2935   */\n  tag_27\n  jump\t// in\ntag_79:\n    /* \"#utility.yul\":2896:2904   */\n  dup2\n    /* \"#utility.yul\":2892:2936   */\n  add\n    /* \"#utility.yul\":3089:3091   */\n  0x20\n    /* \"#utility.yul\":3077:3087   */\n  dup6\n    /* \"#utility.yul\":3074:3092   */\n  lt\n    /* \"#utility.yul\":3071:3120   */\n  iszero\n  tag_80\n  jumpi\n    /* \"#utility.yul\":3110:3118   */\n  dup2\n    /* \"#utility.yul\":3095:3118   */\n  swap1\n  pop\n    /* \"#utility.yul\":3071:3120   */\ntag_80:\n    /* \"#utility.yul\":3133:3213   */\n  tag_81\n    /* \"#utility.yul\":3189:3211   */\n  tag_82\n    /* \"#utility.yul\":3207:3210   */\n  dup6\n    /* \"#utility.yul\":3189:3211   */\n  tag_27\n  jump\t// in\ntag_82:\n    /* \"#utility.yul\":3179:3187   */\n  dup4\n    /* \"#utility.yul\":3175:3212   */\n  add\n    /* \"#utility.yul\":3162:3173   */\n  dup3\n    /* \"#utility.yul\":3133:3213   */\n  tag_37\n  jump\t// in\ntag_81:\n    /* \"#utility.yul\":2792:3223   */\n  pop\n  pop\n    /* \"#utility.yul\":2777:3223   */\ntag_77:\n    /* \"#utility.yul\":2687:3230   */\n  pop\n  pop\n  pop\n  jump\t// out\n    /* \"#utility.yul\":3236:3353   */\ntag_39:\n    /* \"#utility.yul\":3290:3298   */\n  0x00\n    /* \"#utility.yul\":3340:3345   */\n  dup3\n    /* \"#utility.yul\":3334:3338   */\n  dup3\n    /* \"#utility.yul\":3330:3346   */\n  shr\n    /* \"#utility.yul\":3309:3346   */\n  swap1\n  pop\n    /* \"#utility.yul\":3236:3353   */\n  swap3\n  swap2\n  pop\n  pop\n  jump\t// out\n    /* \"#utility.yul\":3359:3528   */\ntag_40:\n    /* \"#utility.yul\":3403:3409   */\n  0x00\n    /* \"#utility.yul\":3436:3487   */\n  tag_85\n    /* \"#utility.yul\":3484:3485   */\n  0x00\n    /* \"#utility.yul\":3480:3486   */\n  not\n    /* \"#utility.yul\":3472:3477   */\n  dup5\n    /* \"#utility.yul\":3469:3470   */\n  0x08\n    /* \"#utility.yul\":3465:3478   */\n  mul\n    /* \"#utility.yul\":3436:3487   */\n  tag_39\n  jump\t// in\ntag_85:\n    /* \"#utility.yul\":3432:3488   */\n  not\n    /* \"#utility.yul\":3517:3521   */\n  dup1\n    /* \"#utility.yul\":3511:3515   */\n  dup4\n    /* \"#utility.yul\":3507:3522   */\n  and\n    /* \"#utility.yul\":3497:3522   */\n  swap2\n  pop\n    /* \"#utility.yul\":3410:3528   */\n  pop\n    /* \"#utility.yul\":3359:3528   */\n  swap3\n  swap2\n  pop\n  pop\n  jump\t// out\n    /* \"#utility.yul\":3533:3828   */\ntag_41:\n    /* \"#utility.yul\":3609:3613   */\n  0x00\n    /* \"#utility.yul\":3755:3784   */\n  tag_87\n    /* \"#utility.yul\":3780:3783   */\n  dup4\n    /* \"#utility.yul\":3774:3778   */\n  dup4\n    /* \"#utility.yul\":3755:3784   */\n  tag_40\n  jump\t// in\ntag_87:\n    /* \"#utility.yul\":3747:3784   */\n  swap2\n  pop\n    /* \"#utility.yul\":3817:3820   */\n  dup3\n    /* \"#utility.yul\":3814:3815   */\n  0x02\n    /* \"#utility.yul\":3810:3821   */\n  mul\n    /* \"#utility.yul\":3804:3808   */\n  dup3\n    /* \"#utility.yul\":3801:3822   */\n  or\n    /* \"#utility.yul\":3793:3822   */\n  swap1\n  pop\n    /* \"#utility.yul\":3533:3828   */\n  swap3\n  swap2\n  pop\n  pop\n  jump\t// out\n    /* \"#utility.yul\":3833:5228   */\ntag_5:\n    /* \"#utility.yul\":3950:3987   */\n  tag_89\n    /* \"#utility.yul\":3983:3986   */\n  dup3\n    /* \"#utility.yul\":3950:3987   */\n  tag_22\n  jump\t// in\ntag_89:\n    /* \"#utility.yul\":4052:4070   */\n  0xffffffffffffffff\n    /* \"#utility.yul\":4044:4050   */\n  dup2\n    /* \"#utility.yul\":4041:4071   */\n  gt\n    /* \"#utility.yul\":4038:4094   */\n  iszero\n  tag_90\n  jumpi\n    /* \"#utility.yul\":4074:4092   */\n  tag_91\n  tag_23\n  jump\t// in\ntag_91:\n    /* \"#utility.yul\":4038:4094   */\ntag_90:\n    /* \"#utility.yul\":4118:4156   */\n  tag_92\n    /* \"#utility.yul\":4150:4154   */\n  dup3\n    /* \"#utility.yul\":4144:4155   */\n  sload\n    /* \"#utility.yul\":4118:4156   */\n  tag_25\n  jump\t// in\ntag_92:\n    /* \"#utility.yul\":4203:4270   */\n  tag_93\n    /* \"#utility.yul\":4263:4269   */\n  dup3\n    /* \"#utility.yul\":4255:4261   */\n  dup3\n    /* \"#utility.yul\":4249:4253   */\n  dup6\n    /* \"#utility.yul\":4203:4270   */\n  tag_38\n  jump\t// in\ntag_93:\n    /* \"#utility.yul\":4297:4298   */\n  0x00\n    /* \"#utility.yul\":4321:4325   */\n  0x20\n    /* \"#utility.yul\":4308:4325   */\n  swap1\n  pop\n    /* \"#utility.yul\":4353:4355   */\n  0x1f\n    /* \"#utility.yul\":4345:4351   */\n  dup4\n    /* \"#utility.yul\":4342:4356   */\n  gt\n    /* \"#utility.yul\":4370:4371   */\n  0x01\n    /* \"#utility.yul\":4365:4983   */\n  dup2\n  eq\n  tag_95\n  jumpi\n    /* \"#utility.yul\":5027:5028   */\n  0x00\n    /* \"#utility.yul\":5044:5050   */\n  dup5\n    /* \"#utility.yul\":5041:5118   */\n  iszero\n  tag_96\n  jumpi\n    /* \"#utility.yul\":5093:5102   */\n  dup3\n    /* \"#utility.yul\":5088:5091   */\n  dup8\n    /* \"#utility.yul\":5084:5103   */\n  add\n    /* \"#utility.yul\":5078:5104   */\n  mload\n    /* \"#utility.yul\":5069:5104   */\n  swap1\n  pop\n    /* \"#utility.yul\":5041:5118   */\ntag_96:\n    /* \"#utility.yul\":5144:5211   */\n  tag_97\n    /* \"#utility.yul\":5204:5210   */\n  dup6\n    /* \"#utility.yul\":5197:5202   */\n  dup3\n    /* \"#utility.yul\":5144:5211   */\n  tag_41\n  jump\t// in\ntag_97:\n    /* \"#utility.yul\":5138:5142   */\n  dup7\n    /* \"#utility.yul\":5131:5212   */\n  sstore\n    /* \"#utility.yul\":5000:5222   */\n  pop\n    /* \"#utility.yul\":4335:5222   */\n  jump(tag_94)\n    /* \"#utility.yul\":4365:4983   */\ntag_95:\n    /* \"#utility.yul\":4417:4421   */\n  0x1f\n    /* \"#utility.yul\":4413:4422   */\n  not\n    /* \"#utility.yul\":4405:4411   */\n  dup5\n    /* \"#utility.yul\":4401:4423   */\n  and\n    /* \"#utility.yul\":4451:4488   */\n  tag_98\n    /* \"#utility.yul\":4483:4487   */\n  dup7\n    /* \"#utility.yul\":4451:4488   */\n  tag_26\n  jump\t// in\ntag_98:\n    /* \"#utility.yul\":4510:4511   */\n  0x00\n    /* \"#utility.yul\":4524:4732   */\ntag_99:\n    /* \"#utility.yul\":4538:4545   */\n  dup3\n    /* \"#utility.yul\":4535:4536   */\n  dup2\n    /* \"#utility.yul\":4532:4546   */\n  lt\n    /* \"#utility.yul\":4524:4732   */\n  iszero\n  tag_101\n  jumpi\n    /* \"#utility.yul\":4617:4626   */\n  dup5\n    /* \"#utility.yul\":4612:4615   */\n  dup10\n    /* \"#utility.yul\":4608:4627   */\n  add\n    /* \"#utility.yul\":4602:4628   */\n  mload\n    /* \"#utility.yul\":4594:4600   */\n  dup3\n    /* \"#utility.yul\":4587:4629   */\n  sstore\n    /* \"#utility.yul\":4668:4669   */\n  0x01\n    /* \"#utility.yul\":4660:4666   */\n  dup3\n    /* \"#utility.yul\":4656:4670   */\n  add\n    /* \"#utility.yul\":4646:4670   */\n  swap2\n  pop\n    /* \"#utility.yul\":4715:4717   */\n  0x20\n    /* \"#utility.yul\":4704:4713   */\n  dup6\n    /* \"#utility.yul\":4700:4718   */\n  add\n    /* \"#utility.yul\":4687:4718   */\n  swap5\n  pop\n    /* \"#utility.yul\":4561:4565   */\n  0x20\n    /* \"#utility.yul\":4558:4559   */\n  dup2\n    /* \"#utility.yul\":4554:4566   */\n  add\n    /* \"#utility.yul\":4549:4566   */\n  swap1\n  pop\n    /* \"#utility.yul\":4524:4732   */\n  jump(tag_99)\ntag_101:\n    /* \"#utility.yul\":4760:4766   */\n  dup7\n    /* \"#utility.yul\":4751:4758   */\n  dup4\n    /* \"#utility.yul\":4748:4767   */\n  lt\n    /* \"#utility.yul\":4745:4924   */\n  iszero\n  tag_102\n  jumpi\n    /* \"#utility.yul\":4818:4827   */\n  dup5\n    /* \"#utility.yul\":4813:4816   */\n  dup10\n    /* \"#utility.yul\":4809:4828   */\n  add\n    /* \"#utility.yul\":4803:4829   */\n  mload\n    /* \"#utility.yul\":4861:4909   */\n  tag_103\n    /* \"#utility.yul\":4903:4907   */\n  0x1f\n    /* \"#utility.yul\":4895:4901   */\n  dup10\n    /* \"#utility.yul\":4891:4908   */\n  and\n    /* \"#utility.yul\":4880:4889   */\n  dup3\n    /* \"#utility.yul\":4861:4909   */\n  tag_40\n  jump\t// in\ntag_103:\n    /* \"#utility.yul\":4853:4859   */\n  dup4\n    /* \"#utility.yul\":4846:4910   */\n  sstore\n    /* \"#utility.yul\":4768:4924   */\n  pop\n    /* \"#utility.yul\":4745:4924   */\ntag_102:\n    /* \"#utility.yul\":4970:4971   */\n  0x01\n    /* \"#utility.yul\":4966:4967   */\n  0x02\n    /* \"#utility.yul\":4958:4964   */\n  dup9\n    /* \"#utility.yul\":4954:4968   */\n  mul\n    /* \"#utility.yul\":4950:4972   */\n  add\n    /* \"#utility.yul\":4944:4948   */\n  dup9\n    /* \"#utility.yul\":4937:4973   */\n  sstore\n    /* \"#utility.yul\":4372:4983   */\n  pop\n  pop\n  pop\n    /* \"#utility.yul\":4335:5222   */\ntag_94:\n  pop\n    /* \"#utility.yul\":3925:5228   */\n  pop\n  pop\n  pop\n    /* \"#utility.yul\":3833:5228   */\n  pop\n  pop\n  jump\t// out\n    /* \"Latency2.sol\":61:2611  contract BlockLatencyReason {... */\ntag_21:\n  dataSize(sub_0)\n  dup1\n  dataOffset(sub_0)\n  0x00\n  codecopy\n  0x00\n  return\nstop\ndata_0f2daabdf8921d011df90a77c048c01ed5ab23b9a480fa394a644166a948b175 43726f702047726f77746820616e6420686172766573742043726f7020736f77696e67207265636f72646564\ndata_162d696d8ff892c164983f209506a8a287a8d09639b4c9afbc8b1977d27bbe9e 536565642064656c697665727920746f206661726d6572204469676974616c206f7264657220636f6e6669726d6174696f6e\ndata_3e689171a078c81a3bd46540e70e5609178852e98fcb585e70e70fa870699908 436f6e73756d657220507572636861736520436f6d7075746174696f6e20616e64207175616c69747920636865636b\ndata_410bae402133d3b078e0be1f129fd19fc0ddf1aae4814b89c9c98b864cd66691 5061796d656e742072656c6561736520746f2077686f6c6573616c65722044656c697665727920747261636b696e672076616c69646174696f6e\ndata_4d21a24d4c4b7da178fcef76e46bfc3812b02d19179a7541d04696034f47d2c0 57686f6c6573616c657220746f20636f6e73756d65722044656d616e64206167677265676174696f6e\ndata_5479c83749de5abc256166b3ca8be557d20d27fe626ee4eed4b9f92cc544aefe 52657461696c20646973747269627574696f6e20436f6e73756d6572206c6576656c20636865636b706f696e74\ndata_65512260639b4fcb1f618888a9f0547c7e9ba38bcaf78b579131a661a4859f1c 52657461696c20646973747269627574696f6e205472616e73706f727420262076616c69646174696f6e\ndata_6ddf227d19c8b51ded1f78964d9891526aa12b95c6fd41e52dc3d8e9b0ab7bf5 4661726d6572204b5943207375626d697373696f6e20496e697469616c207472616e73616374696f6e207365747570\ndata_7071501aa97dcc9f5c28627ca521caf021618615f470826ce2ec47633b02eadf 436f6e6669726d6174696f6e2046696e616c20636f6e73756d657220636f6e6669726d6174696f6e207265636f7264\ndata_717430a2b948e8e28ae9d875d280589974a36d963cedec1491790d3264817634 53656e6420636f726e20746f2070726f63657373696e6720756e697420496f542064617461206d6f6e69746f72696e67\ndata_85a3539d7f8a59bc86fe5b9616747b08a8c592ae61598e3b6356312b6b973de9 436f6e73756d6572207075726368617365204d756c7469706c6520627579657273207472616e73616374696f6e73\ndata_aa41a8fc5618b06660047ef6ab8d5a863481f6d9b8e1b0a12036519db532fa37 526570656174207472616e73616374696f6e204f7074696d697a656420726570656174207061747465726e\ndata_aef2d42ea2e2580b45bfcbfc260ab2da8bdd90ccf802df695be1f6e10dc9c805 526563656976656420686172766573742063726f702066726f6d206661726d6572204669656c64206d6f6e69746f72696e6720656e747279\ndata_b3a3fc01435de4c0caeac50dc263cfb5c3fae97a2e5726374a32ff48302fc000 5061796d656e7420736574746c656d656e742053696d706c6520736574746c656d656e7420636f6e6669726d6174696f6e\ndata_d4f6638fea6164c12ac44e7ab19ae26b89a4a7d2da79d200acdf85eee10de2f7 536565642077686f6c6573616c6572206f72646572205365656420737570706c79207265717565737420636f6e6669726d6564\ndata_ff59a92c43d74b71a64fb4743c01e629fa4fa7a3ce3535a555886e034b114e7c 476f76742e2046756e6420416c6c6f636174696f6e205375627369647920617070726f76616c20616e642066756e6420616c6c6f636174696f6e\n\nsub_0: assembly {\n        /* \"Latency2.sol\":61:2611  contract BlockLatencyReason {... */\n      mstore(0x40, 0x80)\n      callvalue\n      dup1\n      iszero\n      tag_1\n      jumpi\n      0x00\n      dup1\n      revert\n    tag_1:\n      pop\n      jumpi(tag_2, lt(calldatasize, 0x04))\n      shr(0xe0, calldataload(0x00))\n      dup1\n      0x0bc69182\n      eq\n      tag_3\n      jumpi\n      dup1\n      0x7e21c28b\n      eq\n      tag_4\n      jumpi\n    tag_2:\n      0x00\n      dup1\n      revert\n        /* \"Latency2.sol\":1854:2608  function getLatency(uint256 blockNumber) public returns (string memory reason, uint256 latency) {... */\n    tag_3:\n      tag_5\n      0x04\n      dup1\n      calldatasize\n      sub\n      dup2\n      add\n      swap1\n      tag_6\n      swap2\n      swap1\n      tag_7\n      jump\t// in\n    tag_6:\n      tag_8\n      jump\t// in\n    tag_5:\n      mload(0x40)\n      tag_9\n      swap3\n      swap2\n      swap1\n      tag_10\n      jump\t// in\n    tag_9:\n      mload(0x40)\n      dup1\n      swap2\n      sub\n      swap1\n      return\n        /* \"Latency2.sol\":313:359  mapping(uint256 => BlockInfo) public blockData */\n    tag_4:\n      tag_11\n      0x04\n      dup1\n      calldatasize\n      sub\n      dup2\n      add\n      swap1\n      tag_12\n      swap2\n      swap1\n      tag_7\n      jump\t// in\n    tag_12:\n      tag_13\n      jump\t// in\n    tag_11:\n      mload(0x40)\n      tag_14\n      swap4\n      swap3\n      swap2\n      swap1\n      tag_15\n      jump\t// in\n    tag_14:\n      mload(0x40)\n      dup1\n      swap2\n      sub\n      swap1\n      return\n        /* \"Latency2.sol\":1854:2608  function getLatency(uint256 blockNumber) public returns (string memory reason, uint256 latency) {... */\n    tag_8:\n        /* \"Latency2.sol\":1911:1931  string memory reason */\n      0x60\n        /* \"Latency2.sol\":1933:1948  uint256 latency */\n      0x00\n        /* \"Latency2.sol\":2015:2016  0 */\n      dup1\n        /* \"Latency2.sol\":1975:1984  blockData */\n      0x00\n        /* \"Latency2.sol\":1975:1997  blockData[blockNumber] */\n      dup1\n        /* \"Latency2.sol\":1985:1996  blockNumber */\n      dup6\n        /* \"Latency2.sol\":1975:1997  blockData[blockNumber] */\n      dup2\n      mstore\n      0x20\n      add\n      swap1\n      dup2\n      mstore\n      0x20\n      add\n      0x00\n      keccak256\n        /* \"Latency2.sol\":1975:2004  blockData[blockNumber].reason */\n      0x00\n      add\n        /* \"Latency2.sol\":1969:2012  bytes(blockData[blockNumber].reason).length */\n      dup1\n      sload\n      tag_17\n      swap1\n      tag_18\n      jump\t// in\n    tag_17:\n      swap1\n      pop\n        /* \"Latency2.sol\":1969:2016  bytes(blockData[blockNumber].reason).length > 0 */\n      gt\n        /* \"Latency2.sol\":1961:2036  require(bytes(blockData[blockNumber].reason).length > 0, \"Block not found\") */\n      tag_19\n      jumpi\n      mload(0x40)\n      0x08c379a000000000000000000000000000000000000000000000000000000000\n      dup2\n      mstore\n      0x04\n      add\n      tag_20\n      swap1\n      tag_21\n      jump\t// in\n    tag_20:\n      mload(0x40)\n      dup1\n      swap2\n      sub\n      swap1\n      revert\n    tag_19:\n        /* \"Latency2.sol\":2107:2116  blockData */\n      0x00\n        /* \"Latency2.sol\":2107:2129  blockData[blockNumber] */\n      dup1\n        /* \"Latency2.sol\":2117:2128  blockNumber */\n      dup5\n        /* \"Latency2.sol\":2107:2129  blockData[blockNumber] */\n      dup2\n      mstore\n      0x20\n      add\n      swap1\n      dup2\n      mstore\n      0x20\n      add\n      0x00\n      keccak256\n        /* \"Latency2.sol\":2107:2139  blockData[blockNumber].generated */\n      0x02\n      add\n      0x00\n      swap1\n      sload\n      swap1\n      0x0100\n      exp\n      swap1\n      div\n      0xff\n      and\n        /* \"Latency2.sol\":2103:2238  if (blockData[blockNumber].generated) {... */\n      iszero\n      tag_22\n      jumpi\n        /* \"Latency2.sol\":2164:2173  blockData */\n      0x00\n        /* \"Latency2.sol\":2164:2186  blockData[blockNumber] */\n      dup1\n        /* \"Latency2.sol\":2174:2185  blockNumber */\n      dup5\n        /* \"Latency2.sol\":2164:2186  blockData[blockNumber] */\n      dup2\n      mstore\n      0x20\n      add\n      swap1\n      dup2\n      mstore\n      0x20\n      add\n      0x00\n      keccak256\n        /* \"Latency2.sol\":2164:2193  blockData[blockNumber].reason */\n      0x00\n      add\n        /* \"Latency2.sol\":2195:2204  blockData */\n      0x00\n        /* \"Latency2.sol\":2195:2217  blockData[blockNumber] */\n      dup1\n        /* \"Latency2.sol\":2205:2216  blockNumber */\n      dup6\n        /* \"Latency2.sol\":2195:2217  blockData[blockNumber] */\n      dup2\n      mstore\n      0x20\n      add\n      swap1\n      dup2\n      mstore\n      0x20\n      add\n      0x00\n      keccak256\n        /* \"Latency2.sol\":2195:2225  blockData[blockNumber].latency */\n      0x01\n      add\n      sload\n        /* \"Latency2.sol\":2156:2226  return (blockData[blockNumber].reason, blockData[blockNumber].latency) */\n      dup2\n      dup1\n      sload\n      tag_23\n      swap1\n      tag_18\n      jump\t// in\n    tag_23:\n      dup1\n      0x1f\n      add\n      0x20\n      dup1\n      swap2\n      div\n      mul\n      0x20\n      add\n      mload(0x40)\n      swap1\n      dup2\n      add\n      0x40\n      mstore\n      dup1\n      swap3\n      swap2\n      swap1\n      dup2\n      dup2\n      mstore\n      0x20\n      add\n      dup3\n      dup1\n      sload\n      tag_24\n      swap1\n      tag_18\n      jump\t// in\n    tag_24:\n      dup1\n      iszero\n      tag_25\n      jumpi\n      dup1\n      0x1f\n      lt\n      tag_26\n      jumpi\n      0x0100\n      dup1\n      dup4\n      sload\n      div\n      mul\n      dup4\n      mstore\n      swap2\n      0x20\n      add\n      swap2\n      jump(tag_25)\n    tag_26:\n      dup3\n      add\n      swap2\n      swap1\n      0x00\n      mstore\n      keccak256(0x00, 0x20)\n      swap1\n    tag_27:\n      dup2\n      sload\n      dup2\n      mstore\n      swap1\n      0x01\n      add\n      swap1\n      0x20\n      add\n      dup1\n      dup4\n      gt\n      tag_27\n      jumpi\n      dup3\n      swap1\n      sub\n      0x1f\n      and\n      dup3\n      add\n      swap2\n    tag_25:\n      pop\n      pop\n      pop\n      pop\n      pop\n      swap2\n      pop\n      swap2\n      pop\n      swap2\n      pop\n      jump(tag_16)\n        /* \"Latency2.sol\":2103:2238  if (blockData[blockNumber].generated) {... */\n    tag_22:\n        /* \"Latency2.sol\":2260:2274  uint256 random */\n      0x00\n        /* \"Latency2.sol\":2312:2327  block.timestamp */\n      timestamp\n        /* \"Latency2.sol\":2329:2345  block.prevrandao */\n      prevrandao\n        /* \"Latency2.sol\":2347:2357  msg.sender */\n      caller\n        /* \"Latency2.sol\":2359:2370  blockNumber */\n      dup7\n        /* \"Latency2.sol\":2295:2371  abi.encodePacked(block.timestamp, block.prevrandao, msg.sender, blockNumber) */\n      add(0x20, mload(0x40))\n      tag_28\n      swap5\n      swap4\n      swap3\n      swap2\n      swap1\n      tag_29\n      jump\t// in\n    tag_28:\n      mload(0x40)\n      0x20\n      dup2\n      dup4\n      sub\n      sub\n      dup2\n      mstore\n      swap1\n      0x40\n      mstore\n        /* \"Latency2.sol\":2285:2372  keccak256(abi.encodePacked(block.timestamp, block.prevrandao, msg.sender, blockNumber)) */\n      dup1\n      mload\n      swap1\n      0x20\n      add\n      keccak256\n        /* \"Latency2.sol\":2277:2373  uint256(keccak256(abi.encodePacked(block.timestamp, block.prevrandao, msg.sender, blockNumber))) */\n      0x00\n      shr\n        /* \"Latency2.sol\":2260:2373  uint256 random = uint256(keccak256(abi.encodePacked(block.timestamp, block.prevrandao, msg.sender, blockNumber))) */\n      swap1\n      pop\n        /* \"Latency2.sol\":2384:2404  uint256 latencyValue */\n      0x00\n        /* \"Latency2.sol\":2424:2427  250 */\n      0xfa\n        /* \"Latency2.sol\":2417:2420  551 */\n      0x0227\n        /* \"Latency2.sol\":2408:2414  random */\n      dup4\n        /* \"Latency2.sol\":2408:2420  random % 551 */\n      tag_30\n      swap2\n      swap1\n      tag_31\n      jump\t// in\n    tag_30:\n        /* \"Latency2.sol\":2407:2427  (random % 551) + 250 */\n      tag_32\n      swap2\n      swap1\n      tag_33\n      jump\t// in\n    tag_32:\n        /* \"Latency2.sol\":2384:2427  uint256 latencyValue = (random % 551) + 250 */\n      swap1\n      pop\n        /* \"Latency2.sol\":2473:2485  latencyValue */\n      dup1\n        /* \"Latency2.sol\":2440:2449  blockData */\n      0x00\n        /* \"Latency2.sol\":2440:2462  blockData[blockNumber] */\n      dup1\n        /* \"Latency2.sol\":2450:2461  blockNumber */\n      dup8\n        /* \"Latency2.sol\":2440:2462  blockData[blockNumber] */\n      dup2\n      mstore\n      0x20\n      add\n      swap1\n      dup2\n      mstore\n      0x20\n      add\n      0x00\n      keccak256\n        /* \"Latency2.sol\":2440:2470  blockData[blockNumber].latency */\n      0x01\n      add\n        /* \"Latency2.sol\":2440:2485  blockData[blockNumber].latency = latencyValue */\n      dup2\n      swap1\n      sstore\n      pop\n        /* \"Latency2.sol\":2531:2535  true */\n      0x01\n        /* \"Latency2.sol\":2496:2505  blockData */\n      0x00\n        /* \"Latency2.sol\":2496:2518  blockData[blockNumber] */\n      dup1\n        /* \"Latency2.sol\":2506:2517  blockNumber */\n      dup8\n        /* \"Latency2.sol\":2496:2518  blockData[blockNumber] */\n      dup2\n      mstore\n      0x20\n      add\n      swap1\n      dup2\n      mstore\n      0x20\n      add\n      0x00\n      keccak256\n        /* \"Latency2.sol\":2496:2528  blockData[blockNumber].generated */\n      0x02\n      add\n      0x00\n        /* \"Latency2.sol\":2496:2535  blockData[blockNumber].generated = true */\n      0x0100\n      exp\n      dup2\n      sload\n      dup2\n      0xff\n      mul\n      not\n      and\n      swap1\n      dup4\n      iszero\n      iszero\n      mul\n      or\n      swap1\n      sstore\n      pop\n        /* \"Latency2.sol\":2556:2565  blockData */\n      0x00\n        /* \"Latency2.sol\":2556:2578  blockData[blockNumber] */\n      dup1\n        /* \"Latency2.sol\":2566:2577  blockNumber */\n      dup7\n        /* \"Latency2.sol\":2556:2578  blockData[blockNumber] */\n      dup2\n      mstore\n      0x20\n      add\n      swap1\n      dup2\n      mstore\n      0x20\n      add\n      0x00\n      keccak256\n        /* \"Latency2.sol\":2556:2585  blockData[blockNumber].reason */\n      0x00\n      add\n        /* \"Latency2.sol\":2587:2599  latencyValue */\n      dup2\n        /* \"Latency2.sol\":2548:2600  return (blockData[blockNumber].reason, latencyValue) */\n      dup2\n      dup1\n      sload\n      tag_34\n      swap1\n      tag_18\n      jump\t// in\n    tag_34:\n      dup1\n      0x1f\n      add\n      0x20\n      dup1\n      swap2\n      div\n      mul\n      0x20\n      add\n      mload(0x40)\n      swap1\n      dup2\n      add\n      0x40\n      mstore\n      dup1\n      swap3\n      swap2\n      swap1\n      dup2\n      dup2\n      mstore\n      0x20\n      add\n      dup3\n      dup1\n      sload\n      tag_35\n      swap1\n      tag_18\n      jump\t// in\n    tag_35:\n      dup1\n      iszero\n      tag_36\n      jumpi\n      dup1\n      0x1f\n      lt\n      tag_37\n      jumpi\n      0x0100\n      dup1\n      dup4\n      sload\n      div\n      mul\n      dup4\n      mstore\n      swap2\n      0x20\n      add\n      swap2\n      jump(tag_36)\n    tag_37:\n      dup3\n      add\n      swap2\n      swap1\n      0x00\n      mstore\n      keccak256(0x00, 0x20)\n      swap1\n    tag_38:\n      dup2\n      sload\n      dup2\n      mstore\n      swap1\n      0x01\n      add\n      swap1\n      0x20\n      add\n      dup1\n      dup4\n      gt\n      tag_38\n      jumpi\n      dup3\n      swap1\n      sub\n      0x1f\n      and\n      dup3\n      add\n      swap2\n    tag_36:\n      pop\n      pop\n      pop\n      pop\n      pop\n      swap2\n      pop\n      swap4\n      pop\n      swap4\n      pop\n      pop\n      pop\n        /* \"Latency2.sol\":1854:2608  function getLatency(uint256 blockNumber) public returns (string memory reason, uint256 latency) {... */\n    tag_16:\n      swap2\n      pop\n      swap2\n      jump\t// out\n        /* \"Latency2.sol\":313:359  mapping(uint256 => BlockInfo) public blockData */\n    tag_13:\n      mstore(0x20, 0x00)\n      dup1\n      0x00\n      mstore\n      keccak256(0x00, 0x40)\n      0x00\n      swap2\n      pop\n      swap1\n      pop\n      dup1\n      0x00\n      add\n      dup1\n      sload\n      tag_39\n      swap1\n      tag_18\n      jump\t// in\n    tag_39:\n      dup1\n      0x1f\n      add\n      0x20\n      dup1\n      swap2\n      div\n      mul\n      0x20\n      add\n      mload(0x40)\n      swap1\n      dup2\n      add\n      0x40\n      mstore\n      dup1\n      swap3\n      swap2\n      swap1\n      dup2\n      dup2\n      mstore\n      0x20\n      add\n      dup3\n      dup1\n      sload\n      tag_40\n      swap1\n      tag_18\n      jump\t// in\n    tag_40:\n      dup1\n      iszero\n      tag_41\n      jumpi\n      dup1\n      0x1f\n      lt\n      tag_42\n      jumpi\n      0x0100\n      dup1\n      dup4\n      sload\n      div\n      mul\n      dup4\n      mstore\n      swap2\n      0x20\n      add\n      swap2\n      jump(tag_41)\n    tag_42:\n      dup3\n      add\n      swap2\n      swap1\n      0x00\n      mstore\n      keccak256(0x00, 0x20)\n      swap1\n    tag_43:\n      dup2\n      sload\n      dup2\n      mstore\n      swap1\n      0x01\n      add\n      swap1\n      0x20\n      add\n      dup1\n      dup4\n      gt\n      tag_43\n      jumpi\n      dup3\n      swap1\n      sub\n      0x1f\n      and\n      dup3\n      add\n      swap2\n    tag_41:\n      pop\n      pop\n      pop\n      pop\n      pop\n      swap1\n      dup1\n      0x01\n      add\n      sload\n      swap1\n      dup1\n      0x02\n      add\n      0x00\n      swap1\n      sload\n      swap1\n      0x0100\n      exp\n      swap1\n      div\n      0xff\n      and\n      swap1\n      pop\n      dup4\n      jump\t// out\n        /* \"#utility.yul\":88:205   */\n    tag_45:\n        /* \"#utility.yul\":197:198   */\n      0x00\n        /* \"#utility.yul\":194:195   */\n      dup1\n        /* \"#utility.yul\":187:199   */\n      revert\n        /* \"#utility.yul\":334:411   */\n    tag_47:\n        /* \"#utility.yul\":371:378   */\n      0x00\n        /* \"#utility.yul\":400:405   */\n      dup2\n        /* \"#utility.yul\":389:405   */\n      swap1\n      pop\n        /* \"#utility.yul\":334:411   */\n      swap2\n      swap1\n      pop\n      jump\t// out\n        /* \"#utility.yul\":417:539   */\n    tag_48:\n        /* \"#utility.yul\":490:514   */\n      tag_77\n        /* \"#utility.yul\":508:513   */\n      dup2\n        /* \"#utility.yul\":490:514   */\n      tag_47\n      jump\t// in\n    tag_77:\n        /* \"#utility.yul\":483:488   */\n      dup2\n        /* \"#utility.yul\":480:515   */\n      eq\n        /* \"#utility.yul\":470:533   */\n      tag_78\n      jumpi\n        /* \"#utility.yul\":529:530   */\n      0x00\n        /* \"#utility.yul\":526:527   */\n      dup1\n        /* \"#utility.yul\":519:531   */\n      revert\n        /* \"#utility.yul\":470:533   */\n    tag_78:\n        /* \"#utility.yul\":417:539   */\n      pop\n      jump\t// out\n        /* \"#utility.yul\":545:684   */\n    tag_49:\n        /* \"#utility.yul\":591:596   */\n      0x00\n        /* \"#utility.yul\":629:635   */\n      dup2\n        /* \"#utility.yul\":616:636   */\n      calldataload\n        /* \"#utility.yul\":607:636   */\n      swap1\n      pop\n        /* \"#utility.yul\":645:678   */\n      tag_80\n        /* \"#utility.yul\":672:677   */\n      dup2\n        /* \"#utility.yul\":645:678   */\n      tag_48\n      jump\t// in\n    tag_80:\n        /* \"#utility.yul\":545:684   */\n      swap3\n      swap2\n      pop\n      pop\n      jump\t// out\n        /* \"#utility.yul\":690:1019   */\n    tag_7:\n        /* \"#utility.yul\":749:755   */\n      0x00\n        /* \"#utility.yul\":798:800   */\n      0x20\n        /* \"#utility.yul\":786:795   */\n      dup3\n        /* \"#utility.yul\":777:784   */\n      dup5\n        /* \"#utility.yul\":773:796   */\n      sub\n        /* \"#utility.yul\":769:801   */\n      slt\n        /* \"#utility.yul\":766:885   */\n      iszero\n      tag_82\n      jumpi\n        /* \"#utility.yul\":804:883   */\n      tag_83\n      tag_45\n      jump\t// in\n    tag_83:\n        /* \"#utility.yul\":766:885   */\n    tag_82:\n        /* \"#utility.yul\":924:925   */\n      0x00\n        /* \"#utility.yul\":949:1002   */\n      tag_84\n        /* \"#utility.yul\":994:1001   */\n      dup5\n        /* \"#utility.yul\":985:991   */\n      dup3\n        /* \"#utility.yul\":974:983   */\n      dup6\n        /* \"#utility.yul\":970:992   */\n      add\n        /* \"#utility.yul\":949:1002   */\n      tag_49\n      jump\t// in\n    tag_84:\n        /* \"#utility.yul\":939:1002   */\n      swap2\n      pop\n        /* \"#utility.yul\":895:1012   */\n      pop\n        /* \"#utility.yul\":690:1019   */\n      swap3\n      swap2\n      pop\n      pop\n      jump\t// out\n        /* \"#utility.yul\":1025:1124   */\n    tag_50:\n        /* \"#utility.yul\":1077:1083   */\n      0x00\n        /* \"#utility.yul\":1111:1116   */\n      dup2\n        /* \"#utility.yul\":1105:1117   */\n      mload\n        /* \"#utility.yul\":1095:1117   */\n      swap1\n      pop\n        /* \"#utility.yul\":1025:1124   */\n      swap2\n      swap1\n      pop\n      jump\t// out\n        /* \"#utility.yul\":1130:1299   */\n    tag_51:\n        /* \"#utility.yul\":1214:1225   */\n      0x00\n        /* \"#utility.yul\":1248:1254   */\n      dup3\n        /* \"#utility.yul\":1243:1246   */\n      dup3\n        /* \"#utility.yul\":1236:1255   */\n      mstore\n        /* \"#utility.yul\":1288:1292   */\n      0x20\n        /* \"#utility.yul\":1283:1286   */\n      dup3\n        /* \"#utility.yul\":1279:1293   */\n      add\n        /* \"#utility.yul\":1264:1293   */\n      swap1\n      pop\n        /* \"#utility.yul\":1130:1299   */\n      swap3\n      swap2\n      pop\n      pop\n      jump\t// out\n        /* \"#utility.yul\":1305:1444   */\n    tag_52:\n        /* \"#utility.yul\":1394:1400   */\n      dup3\n        /* \"#utility.yul\":1389:1392   */\n      dup2\n        /* \"#utility.yul\":1384:1387   */\n      dup4\n        /* \"#utility.yul\":1378:1401   */\n      mcopy\n        /* \"#utility.yul\":1435:1436   */\n      0x00\n        /* \"#utility.yul\":1426:1432   */\n      dup4\n        /* \"#utility.yul\":1421:1424   */\n      dup4\n        /* \"#utility.yul\":1417:1433   */\n      add\n        /* \"#utility.yul\":1410:1437   */\n      mstore\n        /* \"#utility.yul\":1305:1444   */\n      pop\n      pop\n      pop\n      jump\t// out\n        /* \"#utility.yul\":1450:1552   */\n    tag_53:\n        /* \"#utility.yul\":1491:1497   */\n      0x00\n        /* \"#utility.yul\":1542:1544   */\n      0x1f\n        /* \"#utility.yul\":1538:1545   */\n      not\n        /* \"#utility.yul\":1533:1535   */\n      0x1f\n        /* \"#utility.yul\":1526:1531   */\n      dup4\n        /* \"#utility.yul\":1522:1536   */\n      add\n        /* \"#utility.yul\":1518:1546   */\n      and\n        /* \"#utility.yul\":1508:1546   */\n      swap1\n      pop\n        /* \"#utility.yul\":1450:1552   */\n      swap2\n      swap1\n      pop\n      jump\t// out\n        /* \"#utility.yul\":1558:1935   */\n    tag_54:\n        /* \"#utility.yul\":1646:1649   */\n      0x00\n        /* \"#utility.yul\":1674:1713   */\n      tag_90\n        /* \"#utility.yul\":1707:1712   */\n      dup3\n        /* \"#utility.yul\":1674:1713   */\n      tag_50\n      jump\t// in\n    tag_90:\n        /* \"#utility.yul\":1729:1800   */\n      tag_91\n        /* \"#utility.yul\":1793:1799   */\n      dup2\n        /* \"#utility.yul\":1788:1791   */\n      dup6\n        /* \"#utility.yul\":1729:1800   */\n      tag_51\n      jump\t// in\n    tag_91:\n        /* \"#utility.yul\":1722:1800   */\n      swap4\n      pop\n        /* \"#utility.yul\":1809:1874   */\n      tag_92\n        /* \"#utility.yul\":1867:1873   */\n      dup2\n        /* \"#utility.yul\":1862:1865   */\n      dup6\n        /* \"#utility.yul\":1855:1859   */\n      0x20\n        /* \"#utility.yul\":1848:1853   */\n      dup7\n        /* \"#utility.yul\":1844:1860   */\n      add\n        /* \"#utility.yul\":1809:1874   */\n      tag_52\n      jump\t// in\n    tag_92:\n        /* \"#utility.yul\":1899:1928   */\n      tag_93\n        /* \"#utility.yul\":1921:1927   */\n      dup2\n        /* \"#utility.yul\":1899:1928   */\n      tag_53\n      jump\t// in\n    tag_93:\n        /* \"#utility.yul\":1894:1897   */\n      dup5\n        /* \"#utility.yul\":1890:1929   */\n      add\n        /* \"#utility.yul\":1883:1929   */\n      swap2\n      pop\n        /* \"#utility.yul\":1650:1935   */\n      pop\n        /* \"#utility.yul\":1558:1935   */\n      swap3\n      swap2\n      pop\n      pop\n      jump\t// out\n        /* \"#utility.yul\":1941:2059   */\n    tag_55:\n        /* \"#utility.yul\":2028:2052   */\n      tag_95\n        /* \"#utility.yul\":2046:2051   */\n      dup2\n        /* \"#utility.yul\":2028:2052   */\n      tag_47\n      jump\t// in\n    tag_95:\n        /* \"#utility.yul\":2023:2026   */\n      dup3\n        /* \"#utility.yul\":2016:2053   */\n      mstore\n        /* \"#utility.yul\":1941:2059   */\n      pop\n      pop\n      jump\t// out\n        /* \"#utility.yul\":2065:2488   */\n    tag_10:\n        /* \"#utility.yul\":2206:2210   */\n      0x00\n        /* \"#utility.yul\":2244:2246   */\n      0x40\n        /* \"#utility.yul\":2233:2242   */\n      dup3\n        /* \"#utility.yul\":2229:2247   */\n      add\n        /* \"#utility.yul\":2221:2247   */\n      swap1\n      pop\n        /* \"#utility.yul\":2293:2302   */\n      dup2\n        /* \"#utility.yul\":2287:2291   */\n      dup2\n        /* \"#utility.yul\":2283:2303   */\n      sub\n        /* \"#utility.yul\":2279:2280   */\n      0x00\n        /* \"#utility.yul\":2268:2277   */\n      dup4\n        /* \"#utility.yul\":2264:2281   */\n      add\n        /* \"#utility.yul\":2257:2304   */\n      mstore\n        /* \"#utility.yul\":2321:2399   */\n      tag_97\n        /* \"#utility.yul\":2394:2398   */\n      dup2\n        /* \"#utility.yul\":2385:2391   */\n      dup6\n        /* \"#utility.yul\":2321:2399   */\n      tag_54\n      jump\t// in\n    tag_97:\n        /* \"#utility.yul\":2313:2399   */\n      swap1\n      pop\n        /* \"#utility.yul\":2409:2481   */\n      tag_98\n        /* \"#utility.yul\":2477:2479   */\n      0x20\n        /* \"#utility.yul\":2466:2475   */\n      dup4\n        /* \"#utility.yul\":2462:2480   */\n      add\n        /* \"#utility.yul\":2453:2459   */\n      dup5\n        /* \"#utility.yul\":2409:2481   */\n      tag_55\n      jump\t// in\n    tag_98:\n        /* \"#utility.yul\":2065:2488   */\n      swap4\n      swap3\n      pop\n      pop\n      pop\n      jump\t// out\n        /* \"#utility.yul\":2494:2584   */\n    tag_56:\n        /* \"#utility.yul\":2528:2535   */\n      0x00\n        /* \"#utility.yul\":2571:2576   */\n      dup2\n        /* \"#utility.yul\":2564:2577   */\n      iszero\n        /* \"#utility.yul\":2557:2578   */\n      iszero\n        /* \"#utility.yul\":2546:2578   */\n      swap1\n      pop\n        /* \"#utility.yul\":2494:2584   */\n      swap2\n      swap1\n      pop\n      jump\t// out\n        /* \"#utility.yul\":2590:2699   */\n    tag_57:\n        /* \"#utility.yul\":2671:2692   */\n      tag_101\n        /* \"#utility.yul\":2686:2691   */\n      dup2\n        /* \"#utility.yul\":2671:2692   */\n      tag_56\n      jump\t// in\n    tag_101:\n        /* \"#utility.yul\":2666:2669   */\n      dup3\n        /* \"#utility.yul\":2659:2693   */\n      mstore\n        /* \"#utility.yul\":2590:2699   */\n      pop\n      pop\n      jump\t// out\n        /* \"#utility.yul\":2705:3226   */\n    tag_15:\n        /* \"#utility.yul\":2868:2872   */\n      0x00\n        /* \"#utility.yul\":2906:2908   */\n      0x60\n        /* \"#utility.yul\":2895:2904   */\n      dup3\n        /* \"#utility.yul\":2891:2909   */\n      add\n        /* \"#utility.yul\":2883:2909   */\n      swap1\n      pop\n        /* \"#utility.yul\":2955:2964   */\n      dup2\n        /* \"#utility.yul\":2949:2953   */\n      dup2\n        /* \"#utility.yul\":2945:2965   */\n      sub\n        /* \"#utility.yul\":2941:2942   */\n      0x00\n        /* \"#utility.yul\":2930:2939   */\n      dup4\n        /* \"#utility.yul\":2926:2943   */\n      add\n        /* \"#utility.yul\":2919:2966   */\n      mstore\n        /* \"#utility.yul\":2983:3061   */\n      tag_103\n        /* \"#utility.yul\":3056:3060   */\n      dup2\n        /* \"#utility.yul\":3047:3053   */\n      dup7\n        /* \"#utility.yul\":2983:3061   */\n      tag_54\n      jump\t// in\n    tag_103:\n        /* \"#utility.yul\":2975:3061   */\n      swap1\n      pop\n        /* \"#utility.yul\":3071:3143   */\n      tag_104\n        /* \"#utility.yul\":3139:3141   */\n      0x20\n        /* \"#utility.yul\":3128:3137   */\n      dup4\n        /* \"#utility.yul\":3124:3142   */\n      add\n        /* \"#utility.yul\":3115:3121   */\n      dup6\n        /* \"#utility.yul\":3071:3143   */\n      tag_55\n      jump\t// in\n    tag_104:\n        /* \"#utility.yul\":3153:3219   */\n      tag_105\n        /* \"#utility.yul\":3215:3217   */\n      0x40\n        /* \"#utility.yul\":3204:3213   */\n      dup4\n        /* \"#utility.yul\":3200:3218   */\n      add\n        /* \"#utility.yul\":3191:3197   */\n      dup5\n        /* \"#utility.yul\":3153:3219   */\n      tag_57\n      jump\t// in\n    tag_105:\n        /* \"#utility.yul\":2705:3226   */\n      swap5\n      swap4\n      pop\n      pop\n      pop\n      pop\n      jump\t// out\n        /* \"#utility.yul\":3232:3412   */\n    tag_58:\n        /* \"#utility.yul\":3280:3357   */\n      0x4e487b7100000000000000000000000000000000000000000000000000000000\n        /* \"#utility.yul\":3277:3278   */\n      0x00\n        /* \"#utility.yul\":3270:3358   */\n      mstore\n        /* \"#utility.yul\":3377:3381   */\n      0x22\n        /* \"#utility.yul\":3374:3375   */\n      0x04\n        /* \"#utility.yul\":3367:3382   */\n      mstore\n        /* \"#utility.yul\":3401:3405   */\n      0x24\n        /* \"#utility.yul\":3398:3399   */\n      0x00\n        /* \"#utility.yul\":3391:3406   */\n      revert\n        /* \"#utility.yul\":3418:3738   */\n    tag_18:\n        /* \"#utility.yul\":3462:3468   */\n      0x00\n        /* \"#utility.yul\":3499:3500   */\n      0x02\n        /* \"#utility.yul\":3493:3497   */\n      dup3\n        /* \"#utility.yul\":3489:3501   */\n      div\n        /* \"#utility.yul\":3479:3501   */\n      swap1\n      pop\n        /* \"#utility.yul\":3546:3547   */\n      0x01\n        /* \"#utility.yul\":3540:3544   */\n      dup3\n        /* \"#utility.yul\":3536:3548   */\n      and\n        /* \"#utility.yul\":3567:3585   */\n      dup1\n        /* \"#utility.yul\":3557:3638   */\n      tag_108\n      jumpi\n        /* \"#utility.yul\":3623:3627   */\n      0x7f\n        /* \"#utility.yul\":3615:3621   */\n      dup3\n        /* \"#utility.yul\":3611:3628   */\n      and\n        /* \"#utility.yul\":3601:3628   */\n      swap2\n      pop\n        /* \"#utility.yul\":3557:3638   */\n    tag_108:\n        /* \"#utility.yul\":3685:3687   */\n      0x20\n        /* \"#utility.yul\":3677:3683   */\n      dup3\n        /* \"#utility.yul\":3674:3688   */\n      lt\n        /* \"#utility.yul\":3654:3672   */\n      dup2\n        /* \"#utility.yul\":3651:3689   */\n      sub\n        /* \"#utility.yul\":3648:3732   */\n      tag_109\n      jumpi\n        /* \"#utility.yul\":3704:3722   */\n      tag_110\n      tag_58\n      jump\t// in\n    tag_110:\n        /* \"#utility.yul\":3648:3732   */\n    tag_109:\n        /* \"#utility.yul\":3469:3738   */\n      pop\n        /* \"#utility.yul\":3418:3738   */\n      swap2\n      swap1\n      pop\n      jump\t// out\n        /* \"#utility.yul\":3744:3909   */\n    tag_59:\n        /* \"#utility.yul\":3884:3901   */\n      0x426c6f636b206e6f7420666f756e640000000000000000000000000000000000\n        /* \"#utility.yul\":3880:3881   */\n      0x00\n        /* \"#utility.yul\":3872:3878   */\n      dup3\n        /* \"#utility.yul\":3868:3882   */\n      add\n        /* \"#utility.yul\":3861:3902   */\n      mstore\n        /* \"#utility.yul\":3744:3909   */\n      pop\n      jump\t// out\n        /* \"#utility.yul\":3915:4281   */\n    tag_60:\n        /* \"#utility.yul\":4057:4060   */\n      0x00\n        /* \"#utility.yul\":4078:4145   */\n      tag_113\n        /* \"#utility.yul\":4142:4144   */\n      0x0f\n        /* \"#utility.yul\":4137:4140   */\n      dup4\n        /* \"#utility.yul\":4078:4145   */\n      tag_51\n      jump\t// in\n    tag_113:\n        /* \"#utility.yul\":4071:4145   */\n      swap2\n      pop\n        /* \"#utility.yul\":4154:4247   */\n      tag_114\n        /* \"#utility.yul\":4243:4246   */\n      dup3\n        /* \"#utility.yul\":4154:4247   */\n      tag_59\n      jump\t// in\n    tag_114:\n        /* \"#utility.yul\":4272:4274   */\n      0x20\n        /* \"#utility.yul\":4267:4270   */\n      dup3\n        /* \"#utility.yul\":4263:4275   */\n      add\n        /* \"#utility.yul\":4256:4275   */\n      swap1\n      pop\n        /* \"#utility.yul\":3915:4281   */\n      swap2\n      swap1\n      pop\n      jump\t// out\n        /* \"#utility.yul\":4287:4706   */\n    tag_21:\n        /* \"#utility.yul\":4453:4457   */\n      0x00\n        /* \"#utility.yul\":4491:4493   */\n      0x20\n        /* \"#utility.yul\":4480:4489   */\n      dup3\n        /* \"#utility.yul\":4476:4494   */\n      add\n        /* \"#utility.yul\":4468:4494   */\n      swap1\n      pop\n        /* \"#utility.yul\":4540:4549   */\n      dup2\n        /* \"#utility.yul\":4534:4538   */\n      dup2\n        /* \"#utility.yul\":4530:4550   */\n      sub\n        /* \"#utility.yul\":4526:4527   */\n      0x00\n        /* \"#utility.yul\":4515:4524   */\n      dup4\n        /* \"#utility.yul\":4511:4528   */\n      add\n        /* \"#utility.yul\":4504:4551   */\n      mstore\n        /* \"#utility.yul\":4568:4699   */\n      tag_116\n        /* \"#utility.yul\":4694:4698   */\n      dup2\n        /* \"#utility.yul\":4568:4699   */\n      tag_60\n      jump\t// in\n    tag_116:\n        /* \"#utility.yul\":4560:4699   */\n      swap1\n      pop\n        /* \"#utility.yul\":4287:4706   */\n      swap2\n      swap1\n      pop\n      jump\t// out\n        /* \"#utility.yul\":4712:4791   */\n    tag_61:\n        /* \"#utility.yul\":4751:4758   */\n      0x00\n        /* \"#utility.yul\":4780:4785   */\n      dup2\n        /* \"#utility.yul\":4769:4785   */\n      swap1\n      pop\n        /* \"#utility.yul\":4712:4791   */\n      swap2\n      swap1\n      pop\n      jump\t// out\n        /* \"#utility.yul\":4797:4954   */\n    tag_62:\n        /* \"#utility.yul\":4902:4947   */\n      tag_119\n        /* \"#utility.yul\":4922:4946   */\n      tag_120\n        /* \"#utility.yul\":4940:4945   */\n      dup3\n        /* \"#utility.yul\":4922:4946   */\n      tag_47\n      jump\t// in\n    tag_120:\n        /* \"#utility.yul\":4902:4947   */\n      tag_61\n      jump\t// in\n    tag_119:\n        /* \"#utility.yul\":4897:4900   */\n      dup3\n        /* \"#utility.yul\":4890:4948   */\n      mstore\n        /* \"#utility.yul\":4797:4954   */\n      pop\n      pop\n      jump\t// out\n        /* \"#utility.yul\":4960:5086   */\n    tag_63:\n        /* \"#utility.yul\":4997:5004   */\n      0x00\n        /* \"#utility.yul\":5037:5079   */\n      0xffffffffffffffffffffffffffffffffffffffff\n        /* \"#utility.yul\":5030:5035   */\n      dup3\n        /* \"#utility.yul\":5026:5080   */\n      and\n        /* \"#utility.yul\":5015:5080   */\n      swap1\n      pop\n        /* \"#utility.yul\":4960:5086   */\n      swap2\n      swap1\n      pop\n      jump\t// out\n        /* \"#utility.yul\":5092:5188   */\n    tag_64:\n        /* \"#utility.yul\":5129:5136   */\n      0x00\n        /* \"#utility.yul\":5158:5182   */\n      tag_123\n        /* \"#utility.yul\":5176:5181   */\n      dup3\n        /* \"#utility.yul\":5158:5182   */\n      tag_63\n      jump\t// in\n    tag_123:\n        /* \"#utility.yul\":5147:5182   */\n      swap1\n      pop\n        /* \"#utility.yul\":5092:5188   */\n      swap2\n      swap1\n      pop\n      jump\t// out\n        /* \"#utility.yul\":5194:5288   */\n    tag_65:\n        /* \"#utility.yul\":5227:5235   */\n      0x00\n        /* \"#utility.yul\":5275:5280   */\n      dup2\n        /* \"#utility.yul\":5271:5273   */\n      0x60\n        /* \"#utility.yul\":5267:5281   */\n      shl\n        /* \"#utility.yul\":5246:5281   */\n      swap1\n      pop\n        /* \"#utility.yul\":5194:5288   */\n      swap2\n      swap1\n      pop\n      jump\t// out\n        /* \"#utility.yul\":5294:5388   */\n    tag_66:\n        /* \"#utility.yul\":5333:5340   */\n      0x00\n        /* \"#utility.yul\":5362:5382   */\n      tag_126\n        /* \"#utility.yul\":5376:5381   */\n      dup3\n        /* \"#utility.yul\":5362:5382   */\n      tag_65\n      jump\t// in\n    tag_126:\n        /* \"#utility.yul\":5351:5382   */\n      swap1\n      pop\n        /* \"#utility.yul\":5294:5388   */\n      swap2\n      swap1\n      pop\n      jump\t// out\n        /* \"#utility.yul\":5394:5494   */\n    tag_67:\n        /* \"#utility.yul\":5433:5440   */\n      0x00\n        /* \"#utility.yul\":5462:5488   */\n      tag_128\n        /* \"#utility.yul\":5482:5487   */\n      dup3\n        /* \"#utility.yul\":5462:5488   */\n      tag_66\n      jump\t// in\n    tag_128:\n        /* \"#utility.yul\":5451:5488   */\n      swap1\n      pop\n        /* \"#utility.yul\":5394:5494   */\n      swap2\n      swap1\n      pop\n      jump\t// out\n        /* \"#utility.yul\":5500:5657   */\n    tag_68:\n        /* \"#utility.yul\":5605:5650   */\n      tag_130\n        /* \"#utility.yul\":5625:5649   */\n      tag_131\n        /* \"#utility.yul\":5643:5648   */\n      dup3\n        /* \"#utility.yul\":5625:5649   */\n      tag_64\n      jump\t// in\n    tag_131:\n        /* \"#utility.yul\":5605:5650   */\n      tag_67\n      jump\t// in\n    tag_130:\n        /* \"#utility.yul\":5600:5603   */\n      dup3\n        /* \"#utility.yul\":5593:5651   */\n      mstore\n        /* \"#utility.yul\":5500:5657   */\n      pop\n      pop\n      jump\t// out\n        /* \"#utility.yul\":5663:6342   */\n    tag_29:\n        /* \"#utility.yul\":5859:5862   */\n      0x00\n        /* \"#utility.yul\":5874:5949   */\n      tag_133\n        /* \"#utility.yul\":5945:5948   */\n      dup3\n        /* \"#utility.yul\":5936:5942   */\n      dup8\n        /* \"#utility.yul\":5874:5949   */\n      tag_62\n      jump\t// in\n    tag_133:\n        /* \"#utility.yul\":5974:5976   */\n      0x20\n        /* \"#utility.yul\":5969:5972   */\n      dup3\n        /* \"#utility.yul\":5965:5977   */\n      add\n        /* \"#utility.yul\":5958:5977   */\n      swap2\n      pop\n        /* \"#utility.yul\":5987:6062   */\n      tag_134\n        /* \"#utility.yul\":6058:6061   */\n      dup3\n        /* \"#utility.yul\":6049:6055   */\n      dup7\n        /* \"#utility.yul\":5987:6062   */\n      tag_62\n      jump\t// in\n    tag_134:\n        /* \"#utility.yul\":6087:6089   */\n      0x20\n        /* \"#utility.yul\":6082:6085   */\n      dup3\n        /* \"#utility.yul\":6078:6090   */\n      add\n        /* \"#utility.yul\":6071:6090   */\n      swap2\n      pop\n        /* \"#utility.yul\":6100:6175   */\n      tag_135\n        /* \"#utility.yul\":6171:6174   */\n      dup3\n        /* \"#utility.yul\":6162:6168   */\n      dup6\n        /* \"#utility.yul\":6100:6175   */\n      tag_68\n      jump\t// in\n    tag_135:\n        /* \"#utility.yul\":6200:6202   */\n      0x14\n        /* \"#utility.yul\":6195:6198   */\n      dup3\n        /* \"#utility.yul\":6191:6203   */\n      add\n        /* \"#utility.yul\":6184:6203   */\n      swap2\n      pop\n        /* \"#utility.yul\":6213:6288   */\n      tag_136\n        /* \"#utility.yul\":6284:6287   */\n      dup3\n        /* \"#utility.yul\":6275:6281   */\n      dup5\n        /* \"#utility.yul\":6213:6288   */\n      tag_62\n      jump\t// in\n    tag_136:\n        /* \"#utility.yul\":6313:6315   */\n      0x20\n        /* \"#utility.yul\":6308:6311   */\n      dup3\n        /* \"#utility.yul\":6304:6316   */\n      add\n        /* \"#utility.yul\":6297:6316   */\n      swap2\n      pop\n        /* \"#utility.yul\":6333:6336   */\n      dup2\n        /* \"#utility.yul\":6326:6336   */\n      swap1\n      pop\n        /* \"#utility.yul\":5663:6342   */\n      swap6\n      swap5\n      pop\n      pop\n      pop\n      pop\n      pop\n      jump\t// out\n        /* \"#utility.yul\":6348:6528   */\n    tag_69:\n        /* \"#utility.yul\":6396:6473   */\n      0x4e487b7100000000000000000000000000000000000000000000000000000000\n        /* \"#utility.yul\":6393:6394   */\n      0x00\n        /* \"#utility.yul\":6386:6474   */\n      mstore\n        /* \"#utility.yul\":6493:6497   */\n      0x12\n        /* \"#utility.yul\":6490:6491   */\n      0x04\n        /* \"#utility.yul\":6483:6498   */\n      mstore\n        /* \"#utility.yul\":6517:6521   */\n      0x24\n        /* \"#utility.yul\":6514:6515   */\n      0x00\n        /* \"#utility.yul\":6507:6522   */\n      revert\n        /* \"#utility.yul\":6534:6710   */\n    tag_31:\n        /* \"#utility.yul\":6566:6567   */\n      0x00\n        /* \"#utility.yul\":6583:6603   */\n      tag_139\n        /* \"#utility.yul\":6601:6602   */\n      dup3\n        /* \"#utility.yul\":6583:6603   */\n      tag_47\n      jump\t// in\n    tag_139:\n        /* \"#utility.yul\":6578:6603   */\n      swap2\n      pop\n        /* \"#utility.yul\":6617:6637   */\n      tag_140\n        /* \"#utility.yul\":6635:6636   */\n      dup4\n        /* \"#utility.yul\":6617:6637   */\n      tag_47\n      jump\t// in\n    tag_140:\n        /* \"#utility.yul\":6612:6637   */\n      swap3\n      pop\n        /* \"#utility.yul\":6656:6657   */\n      dup3\n        /* \"#utility.yul\":6646:6681   */\n      tag_141\n      jumpi\n        /* \"#utility.yul\":6661:6679   */\n      tag_142\n      tag_69\n      jump\t// in\n    tag_142:\n        /* \"#utility.yul\":6646:6681   */\n    tag_141:\n        /* \"#utility.yul\":6702:6703   */\n      dup3\n        /* \"#utility.yul\":6699:6700   */\n      dup3\n        /* \"#utility.yul\":6695:6704   */\n      mod\n        /* \"#utility.yul\":6690:6704   */\n      swap1\n      pop\n        /* \"#utility.yul\":6534:6710   */\n      swap3\n      swap2\n      pop\n      pop\n      jump\t// out\n        /* \"#utility.yul\":6716:6896   */\n    tag_70:\n        /* \"#utility.yul\":6764:6841   */\n      0x4e487b7100000000000000000000000000000000000000000000000000000000\n        /* \"#utility.yul\":6761:6762   */\n      0x00\n        /* \"#utility.yul\":6754:6842   */\n      mstore\n        /* \"#utility.yul\":6861:6865   */\n      0x11\n        /* \"#utility.yul\":6858:6859   */\n      0x04\n        /* \"#utility.yul\":6851:6866   */\n      mstore\n        /* \"#utility.yul\":6885:6889   */\n      0x24\n        /* \"#utility.yul\":6882:6883   */\n      0x00\n        /* \"#utility.yul\":6875:6890   */\n      revert\n        /* \"#utility.yul\":6902:7093   */\n    tag_33:\n        /* \"#utility.yul\":6942:6945   */\n      0x00\n        /* \"#utility.yul\":6961:6981   */\n      tag_145\n        /* \"#utility.yul\":6979:6980   */\n      dup3\n        /* \"#utility.yul\":6961:6981   */\n      tag_47\n      jump\t// in\n    tag_145:\n        /* \"#utility.yul\":6956:6981   */\n      swap2\n      pop\n        /* \"#utility.yul\":6995:7015   */\n      tag_146\n        /* \"#utility.yul\":7013:7014   */\n      dup4\n        /* \"#utility.yul\":6995:7015   */\n      tag_47\n      jump\t// in\n    tag_146:\n        /* \"#utility.yul\":6990:7015   */\n      swap3\n      pop\n        /* \"#utility.yul\":7038:7039   */\n      dup3\n        /* \"#utility.yul\":7035:7036   */\n      dup3\n        /* \"#utility.yul\":7031:7040   */\n      add\n        /* \"#utility.yul\":7024:7040   */\n      swap1\n      pop\n        /* \"#utility.yul\":7059:7062   */\n      dup1\n        /* \"#utility.yul\":7056:7057   */\n      dup3\n        /* \"#utility.yul\":7053:7063   */\n      gt\n        /* \"#utility.yul\":7050:7086   */\n      iszero\n      tag_147\n      jumpi\n        /* \"#utility.yul\":7066:7084   */\n      tag_148\n      tag_70\n      jump\t// in\n    tag_148:\n        /* \"#utility.yul\":7050:7086   */\n    tag_147:\n        /* \"#utility.yul\":6902:7093   */\n      swap3\n      swap2\n      pop\n      pop\n      jump\t// out\n\n    auxdata: 0xa26469706673582212206ea4906dc221acdda7748f26026844b3c873f93f30a2f488d94356171674038464736f6c634300081a0033\n}\n",
				"bytecode": {
					"linkReferences": {},
					"object": "608060405234801561000f575f80fd5b506040518060600160405280602f8152602001610fcf602f91395f80600181526020019081526020015f205f01908161004891906105df565b506040518060600160405280603a8152602001611152603a91395f80600281526020019081526020015f205f01908161008191906105df565b5060405180606001604052806033815260200161111f603391395f80600381526020019081526020015f205f0190816100ba91906105df565b50604051806060016040528060328152602001610eb4603291395f80600481526020019081526020015f205f0190816100f391906105df565b506040518060600160405280603a8152602001610f15603a91395f80600581526020019081526020015f205f01908161012c91906105df565b506040518060600160405280602c8152602001610e88602c91395f80600681526020019081526020015f205f01908161016591906105df565b506040518060600160405280603881526020016110b6603891395f80600781526020019081526020015f205f01908161019e91906105df565b5060405180606001604052806030815260200161102d603091395f80600881526020019081526020015f205f0190816101d791906105df565b506040518060600160405280602a8152602001610fa5602a91395f80600981526020019081526020015f205f01908161021091906105df565b506040518060600160405280602f8152602001610ee6602f91395f80600a81526020019081526020015f205f01908161024991906105df565b506040518060600160405280602d8152602001610f78602d91395f80600b81526020019081526020015f205f01908161028291906105df565b50604051806060016040528060298152602001610f4f602991395f80600c81526020019081526020015f205f0190816102bb91906105df565b506040518060600160405280602e815260200161105d602e91395f80600d81526020019081526020015f205f0190816102f491906105df565b506040518060600160405280603181526020016110ee603191395f80600e81526020019081526020015f205f01908161032d91906105df565b506040518060600160405280602b815260200161108b602b91395f80600f81526020019081526020015f205f01908161036691906105df565b506040518060600160405280602f8152602001610ffe602f91395f80601081526020019081526020015f205f01908161039f91906105df565b506106ae565b5f81519050919050565b7f4e487b71000000000000000000000000000000000000000000000000000000005f52604160045260245ffd5b7f4e487b71000000000000000000000000000000000000000000000000000000005f52602260045260245ffd5b5f600282049050600182168061042057607f821691505b602082108103610433576104326103dc565b5b50919050565b5f819050815f5260205f209050919050565b5f6020601f8301049050919050565b5f82821b905092915050565b5f600883026104957fffffffffffffffffffffffffffffffffffffffffffffffffffffffffffffffff8261045a565b61049f868361045a565b95508019841693508086168417925050509392505050565b5f819050919050565b5f819050919050565b5f6104e36104de6104d9846104b7565b6104c0565b6104b7565b9050919050565b5f819050919050565b6104fc836104c9565b610510610508826104ea565b848454610466565b825550505050565b5f90565b610524610518565b61052f8184846104f3565b505050565b5b81811015610552576105475f8261051c565b600181019050610535565b5050565b601f8211156105975761056881610439565b6105718461044b565b81016020851015610580578190505b61059461058c8561044b565b830182610534565b50505b505050565b5f82821c905092915050565b5f6105b75f198460080261059c565b1980831691505092915050565b5f6105cf83836105a8565b9150826002028217905092915050565b6105e8826103a5565b67ffffffffffffffff811115610601576106006103af565b5b61060b8254610409565b610616828285610556565b5f60209050601f831160018114610647575f8415610635578287015190505b61063f85826105c4565b8655506106a6565b601f19841661065586610439565b5f5b8281101561067c57848901518255600182019150602085019450602081019050610657565b868310156106995784890151610695601f8916826105a8565b8355505b6001600288020188555050505b505050505050565b6107cd806106bb5f395ff3fe608060405234801561000f575f80fd5b5060043610610034575f3560e01c80630bc69182146100385780637e21c28b14610069575b5f80fd5b610052600480360381019061004d9190610405565b61009b565b6040516100609291906104af565b60405180910390f35b610083600480360381019061007e9190610405565b610317565b604051610092939291906104f7565b60405180910390f35b60605f805f808581526020019081526020015f205f0180546100bc90610560565b9050116100fe576040517f08c379a00000000000000000000000000000000000000000000000000000000081526004016100f5906105da565b60405180910390fd5b5f808481526020019081526020015f206002015f9054906101000a900460ff16156101dc575f808481526020019081526020015f205f015f808581526020019081526020015f206001015481805461015590610560565b80601f016020809104026020016040519081016040528092919081815260200182805461018190610560565b80156101cc5780601f106101a3576101008083540402835291602001916101cc565b820191905f5260205f20905b8154815290600101906020018083116101af57829003601f168201915b5050505050915091509150610312565b5f424433866040516020016101f4949392919061068d565b604051602081830303815290604052805190602001205f1c90505f60fa6102278361021f9190610707565b6102299190610764565b9050805f808781526020019081526020015f206001018190555060015f808781526020019081526020015f206002015f6101000a81548160ff0219169083151502179055505f808681526020019081526020015f205f018181805461028d90610560565b80601f01602080910402602001604051908101604052809291908181526020018280546102b990610560565b80156103045780601f106102db57610100808354040283529160200191610304565b820191905f5260205f20905b8154815290600101906020018083116102e757829003601f168201915b505050505091509350935050505b915091565b5f602052805f5260405f205f91509050805f01805461033590610560565b80601f016020809104026020016040519081016040528092919081815260200182805461036190610560565b80156103ac5780601f10610383576101008083540402835291602001916103ac565b820191905f5260205f20905b81548152906001019060200180831161038f57829003601f168201915b505050505090806001015490806002015f9054906101000a900460ff16905083565b5f80fd5b5f819050919050565b6103e4816103d2565b81146103ee575f80fd5b50565b5f813590506103ff816103db565b92915050565b5f6020828403121561041a576104196103ce565b5b5f610427848285016103f1565b91505092915050565b5f81519050919050565b5f82825260208201905092915050565b8281835e5f83830152505050565b5f601f19601f8301169050919050565b5f61047282610430565b61047c818561043a565b935061048c81856020860161044a565b61049581610458565b840191505092915050565b6104a9816103d2565b82525050565b5f6040820190508181035f8301526104c78185610468565b90506104d660208301846104a0565b9392505050565b5f8115159050919050565b6104f1816104dd565b82525050565b5f6060820190508181035f83015261050f8186610468565b905061051e60208301856104a0565b61052b60408301846104e8565b949350505050565b7f4e487b71000000000000000000000000000000000000000000000000000000005f52602260045260245ffd5b5f600282049050600182168061057757607f821691505b60208210810361058a57610589610533565b5b50919050565b7f426c6f636b206e6f7420666f756e6400000000000000000000000000000000005f82015250565b5f6105c4600f8361043a565b91506105cf82610590565b602082019050919050565b5f6020820190508181035f8301526105f1816105b8565b9050919050565b5f819050919050565b61061261060d826103d2565b6105f8565b82525050565b5f73ffffffffffffffffffffffffffffffffffffffff82169050919050565b5f61064182610618565b9050919050565b5f8160601b9050919050565b5f61065e82610648565b9050919050565b5f61066f82610654565b9050919050565b61068761068282610637565b610665565b82525050565b5f6106988287610601565b6020820191506106a88286610601565b6020820191506106b88285610676565b6014820191506106c88284610601565b60208201915081905095945050505050565b7f4e487b71000000000000000000000000000000000000000000000000000000005f52601260045260245ffd5b5f610711826103d2565b915061071c836103d2565b92508261072c5761072b6106da565b5b828206905092915050565b7f4e487b71000000000000000000000000000000000000000000000000000000005f52601160045260245ffd5b5f61076e826103d2565b9150610779836103d2565b925082820190508082111561079157610790610737565b5b9291505056fea26469706673582212206ea4906dc221acdda7748f26026844b3c873f93f30a2f488d94356171674038464736f6c634300081a003343726f702047726f77746820616e6420686172766573742043726f7020736f77696e67207265636f72646564536565642064656c697665727920746f206661726d6572204469676974616c206f7264657220636f6e6669726d6174696f6e436f6e73756d657220507572636861736520436f6d7075746174696f6e20616e64207175616c69747920636865636b5061796d656e742072656c6561736520746f2077686f6c6573616c65722044656c697665727920747261636b696e672076616c69646174696f6e57686f6c6573616c657220746f20636f6e73756d65722044656d616e64206167677265676174696f6e52657461696c20646973747269627574696f6e20436f6e73756d6572206c6576656c20636865636b706f696e7452657461696c20646973747269627574696f6e205472616e73706f727420262076616c69646174696f6e4661726d6572204b5943207375626d697373696f6e20496e697469616c207472616e73616374696f6e207365747570436f6e6669726d6174696f6e2046696e616c20636f6e73756d657220636f6e6669726d6174696f6e207265636f726453656e6420636f726e20746f2070726f63657373696e6720756e697420496f542064617461206d6f6e69746f72696e67436f6e73756d6572207075726368617365204d756c7469706c6520627579657273207472616e73616374696f6e73526570656174207472616e73616374696f6e204f7074696d697a656420726570656174207061747465726e526563656976656420686172766573742063726f702066726f6d206661726d6572204669656c64206d6f6e69746f72696e6720656e7472795061796d656e7420736574746c656d656e742053696d706c6520736574746c656d656e7420636f6e6669726d6174696f6e536565642077686f6c6573616c6572206f72646572205365656420737570706c79207265717565737420636f6e6669726d6564476f76742e2046756e6420416c6c6f636174696f6e205375627369647920617070726f76616c20616e642066756e6420616c6c6f636174696f6e",
					"opcodes": "PUSH1 0x80 PUSH1 0x40 MSTORE CALLVALUE DUP1 ISZERO PUSH2 0xF JUMPI PUSH0 DUP1 REVERT JUMPDEST POP PUSH1 0x40 MLOAD DUP1 PUSH1 0x60 ADD PUSH1 0x40 MSTORE DUP1 PUSH1 0x2F DUP2 MSTORE PUSH1 0x20 ADD PUSH2 0xFCF PUSH1 0x2F SWAP2 CODECOPY PUSH0 DUP1 PUSH1 0x1 DUP2 MSTORE PUSH1 0x20 ADD SWAP1 DUP2 MSTORE PUSH1 0x20 ADD PUSH0 KECCAK256 PUSH0 ADD SWAP1 DUP2 PUSH2 0x48 SWAP2 SWAP1 PUSH2 0x5DF JUMP JUMPDEST POP PUSH1 0x40 MLOAD DUP1 PUSH1 0x60 ADD PUSH1 0x40 MSTORE DUP1 PUSH1 0x3A DUP2 MSTORE PUSH1 0x20 ADD PUSH2 0x1152 PUSH1 0x3A SWAP2 CODECOPY PUSH0 DUP1 PUSH1 0x2 DUP2 MSTORE PUSH1 0x20 ADD SWAP1 DUP2 MSTORE PUSH1 0x20 ADD PUSH0 KECCAK256 PUSH0 ADD SWAP1 DUP2 PUSH2 0x81 SWAP2 SWAP1 PUSH2 0x5DF JUMP JUMPDEST POP PUSH1 0x40 MLOAD DUP1 PUSH1 0x60 ADD PUSH1 0x40 MSTORE DUP1 PUSH1 0x33 DUP2 MSTORE PUSH1 0x20 ADD PUSH2 0x111F PUSH1 0x33 SWAP2 CODECOPY PUSH0 DUP1 PUSH1 0x3 DUP2 MSTORE PUSH1 0x20 ADD SWAP1 DUP2 MSTORE PUSH1 0x20 ADD PUSH0 KECCAK256 PUSH0 ADD SWAP1 DUP2 PUSH2 0xBA SWAP2 SWAP1 PUSH2 0x5DF JUMP JUMPDEST POP PUSH1 0x40 MLOAD DUP1 PUSH1 0x60 ADD PUSH1 0x40 MSTORE DUP1 PUSH1 0x32 DUP2 MSTORE PUSH1 0x20 ADD PUSH2 0xEB4 PUSH1 0x32 SWAP2 CODECOPY PUSH0 DUP1 PUSH1 0x4 DUP2 MSTORE PUSH1 0x20 ADD SWAP1 DUP2 MSTORE PUSH1 0x20 ADD PUSH0 KECCAK256 PUSH0 ADD SWAP1 DUP2 PUSH2 0xF3 SWAP2 SWAP1 PUSH2 0x5DF JUMP JUMPDEST POP PUSH1 0x40 MLOAD DUP1 PUSH1 0x60 ADD PUSH1 0x40 MSTORE DUP1 PUSH1 0x3A DUP2 MSTORE PUSH1 0x20 ADD PUSH2 0xF15 PUSH1 0x3A SWAP2 CODECOPY PUSH0 DUP1 PUSH1 0x5 DUP2 MSTORE PUSH1 0x20 ADD SWAP1 DUP2 MSTORE PUSH1 0x20 ADD PUSH0 KECCAK256 PUSH0 ADD SWAP1 DUP2 PUSH2 0x12C SWAP2 SWAP1 PUSH2 0x5DF JUMP JUMPDEST POP PUSH1 0x40 MLOAD DUP1 PUSH1 0x60 ADD PUSH1 0x40 MSTORE DUP1 PUSH1 0x2C DUP2 MSTORE PUSH1 0x20 ADD PUSH2 0xE88 PUSH1 0x2C SWAP2 CODECOPY PUSH0 DUP1 PUSH1 0x6 DUP2 MSTORE PUSH1 0x20 ADD SWAP1 DUP2 MSTORE PUSH1 0x20 ADD PUSH0 KECCAK256 PUSH0 ADD SWAP1 DUP2 PUSH2 0x165 SWAP2 SWAP1 PUSH2 0x5DF JUMP JUMPDEST POP PUSH1 0x40 MLOAD DUP1 PUSH1 0x60 ADD PUSH1 0x40 MSTORE DUP1 PUSH1 0x38 DUP2 MSTORE PUSH1 0x20 ADD PUSH2 0x10B6 PUSH1 0x38 SWAP2 CODECOPY PUSH0 DUP1 PUSH1 0x7 DUP2 MSTORE PUSH1 0x20 ADD SWAP1 DUP2 MSTORE PUSH1 0x20 ADD PUSH0 KECCAK256 PUSH0 ADD SWAP1 DUP2 PUSH2 0x19E SWAP2 SWAP1 PUSH2 0x5DF JUMP JUMPDEST POP PUSH1 0x40 MLOAD DUP1 PUSH1 0x60 ADD PUSH1 0x40 MSTORE DUP1 PUSH1 0x30 DUP2 MSTORE PUSH1 0x20 ADD PUSH2 0x102D PUSH1 0x30 SWAP2 CODECOPY PUSH0 DUP1 PUSH1 0x8 DUP2 MSTORE PUSH1 0x20 ADD SWAP1 DUP2 MSTORE PUSH1 0x20 ADD PUSH0 KECCAK256 PUSH0 ADD SWAP1 DUP2 PUSH2 0x1D7 SWAP2 SWAP1 PUSH2 0x5DF JUMP JUMPDEST POP PUSH1 0x40 MLOAD DUP1 PUSH1 0x60 ADD PUSH1 0x40 MSTORE DUP1 PUSH1 0x2A DUP2 MSTORE PUSH1 0x20 ADD PUSH2 0xFA5 PUSH1 0x2A SWAP2 CODECOPY PUSH0 DUP1 PUSH1 0x9 DUP2 MSTORE PUSH1 0x20 ADD SWAP1 DUP2 MSTORE PUSH1 0x20 ADD PUSH0 KECCAK256 PUSH0 ADD SWAP1 DUP2 PUSH2 0x210 SWAP2 SWAP1 PUSH2 0x5DF JUMP JUMPDEST POP PUSH1 0x40 MLOAD DUP1 PUSH1 0x60 ADD PUSH1 0x40 MSTORE DUP1 PUSH1 0x2F DUP2 MSTORE PUSH1 0x20 ADD PUSH2 0xEE6 PUSH1 0x2F SWAP2 CODECOPY PUSH0 DUP1 PUSH1 0xA DUP2 MSTORE PUSH1 0x20 ADD SWAP1 DUP2 MSTORE PUSH1 0x20 ADD PUSH0 KECCAK256 PUSH0 ADD SWAP1 DUP2 PUSH2 0x249 SWAP2 SWAP1 PUSH2 0x5DF JUMP JUMPDEST POP PUSH1 0x40 MLOAD DUP1 PUSH1 0x60 ADD PUSH1 0x40 MSTORE DUP1 PUSH1 0x2D DUP2 MSTORE PUSH1 0x20 ADD PUSH2 0xF78 PUSH1 0x2D SWAP2 CODECOPY PUSH0 DUP1 PUSH1 0xB DUP2 MSTORE PUSH1 0x20 ADD SWAP1 DUP2 MSTORE PUSH1 0x20 ADD PUSH0 KECCAK256 PUSH0 ADD SWAP1 DUP2 PUSH2 0x282 SWAP2 SWAP1 PUSH2 0x5DF JUMP JUMPDEST POP PUSH1 0x40 MLOAD DUP1 PUSH1 0x60 ADD PUSH1 0x40 MSTORE DUP1 PUSH1 0x29 DUP2 MSTORE PUSH1 0x20 ADD PUSH2 0xF4F PUSH1 0x29 SWAP2 CODECOPY PUSH0 DUP1 PUSH1 0xC DUP2 MSTORE PUSH1 0x20 ADD SWAP1 DUP2 MSTORE PUSH1 0x20 ADD PUSH0 KECCAK256 PUSH0 ADD SWAP1 DUP2 PUSH2 0x2BB SWAP2 SWAP1 PUSH2 0x5DF JUMP JUMPDEST POP PUSH1 0x40 MLOAD DUP1 PUSH1 0x60 ADD PUSH1 0x40 MSTORE DUP1 PUSH1 0x2E DUP2 MSTORE PUSH1 0x20 ADD PUSH2 0x105D PUSH1 0x2E SWAP2 CODECOPY PUSH0 DUP1 PUSH1 0xD DUP2 MSTORE PUSH1 0x20 ADD SWAP1 DUP2 MSTORE PUSH1 0x20 ADD PUSH0 KECCAK256 PUSH0 ADD SWAP1 DUP2 PUSH2 0x2F4 SWAP2 SWAP1 PUSH2 0x5DF JUMP JUMPDEST POP PUSH1 0x40 MLOAD DUP1 PUSH1 0x60 ADD PUSH1 0x40 MSTORE DUP1 PUSH1 0x31 DUP2 MSTORE PUSH1 0x20 ADD PUSH2 0x10EE PUSH1 0x31 SWAP2 CODECOPY PUSH0 DUP1 PUSH1 0xE DUP2 MSTORE PUSH1 0x20 ADD SWAP1 DUP2 MSTORE PUSH1 0x20 ADD PUSH0 KECCAK256 PUSH0 ADD SWAP1 DUP2 PUSH2 0x32D SWAP2 SWAP1 PUSH2 0x5DF JUMP JUMPDEST POP PUSH1 0x40 MLOAD DUP1 PUSH1 0x60 ADD PUSH1 0x40 MSTORE DUP1 PUSH1 0x2B DUP2 MSTORE PUSH1 0x20 ADD PUSH2 0x108B PUSH1 0x2B SWAP2 CODECOPY PUSH0 DUP1 PUSH1 0xF DUP2 MSTORE PUSH1 0x20 ADD SWAP1 DUP2 MSTORE PUSH1 0x20 ADD PUSH0 KECCAK256 PUSH0 ADD SWAP1 DUP2 PUSH2 0x366 SWAP2 SWAP1 PUSH2 0x5DF JUMP JUMPDEST POP PUSH1 0x40 MLOAD DUP1 PUSH1 0x60 ADD PUSH1 0x40 MSTORE DUP1 PUSH1 0x2F DUP2 MSTORE PUSH1 0x20 ADD PUSH2 0xFFE PUSH1 0x2F SWAP2 CODECOPY PUSH0 DUP1 PUSH1 0x10 DUP2 MSTORE PUSH1 0x20 ADD SWAP1 DUP2 MSTORE PUSH1 0x20 ADD PUSH0 KECCAK256 PUSH0 ADD SWAP1 DUP2 PUSH2 0x39F SWAP2 SWAP1 PUSH2 0x5DF JUMP JUMPDEST POP PUSH2 0x6AE JUMP JUMPDEST PUSH0 DUP2 MLOAD SWAP1 POP SWAP2 SWAP1 POP JUMP JUMPDEST PUSH32 0x4E487B7100000000000000000000000000000000000000000000000000000000 PUSH0 MSTORE PUSH1 0x41 PUSH1 0x4 MSTORE PUSH1 0x24 PUSH0 REVERT JUMPDEST PUSH32 0x4E487B7100000000000000000000000000000000000000000000000000000000 PUSH0 MSTORE PUSH1 0x22 PUSH1 0x4 MSTORE PUSH1 0x24 PUSH0 REVERT JUMPDEST PUSH0 PUSH1 0x2 DUP3 DIV SWAP1 POP PUSH1 0x1 DUP3 AND DUP1 PUSH2 0x420 JUMPI PUSH1 0x7F DUP3 AND SWAP2 POP JUMPDEST PUSH1 0x20 DUP3 LT DUP2 SUB PUSH2 0x433 JUMPI PUSH2 0x432 PUSH2 0x3DC JUMP JUMPDEST JUMPDEST POP SWAP2 SWAP1 POP JUMP JUMPDEST PUSH0 DUP2 SWAP1 POP DUP2 PUSH0 MSTORE PUSH1 0x20 PUSH0 KECCAK256 SWAP1 POP SWAP2 SWAP1 POP JUMP JUMPDEST PUSH0 PUSH1 0x20 PUSH1 0x1F DUP4 ADD DIV SWAP1 POP SWAP2 SWAP1 POP JUMP JUMPDEST PUSH0 DUP3 DUP3 SHL SWAP1 POP SWAP3 SWAP2 POP POP JUMP JUMPDEST PUSH0 PUSH1 0x8 DUP4 MUL PUSH2 0x495 PUSH32 0xFFFFFFFFFFFFFFFFFFFFFFFFFFFFFFFFFFFFFFFFFFFFFFFFFFFFFFFFFFFFFFFF DUP3 PUSH2 0x45A JUMP JUMPDEST PUSH2 0x49F DUP7 DUP4 PUSH2 0x45A JUMP JUMPDEST SWAP6 POP DUP1 NOT DUP5 AND SWAP4 POP DUP1 DUP7 AND DUP5 OR SWAP3 POP POP POP SWAP4 SWAP3 POP POP POP JUMP JUMPDEST PUSH0 DUP2 SWAP1 POP SWAP2 SWAP1 POP JUMP JUMPDEST PUSH0 DUP2 SWAP1 POP SWAP2 SWAP1 POP JUMP JUMPDEST PUSH0 PUSH2 0x4E3 PUSH2 0x4DE PUSH2 0x4D9 DUP5 PUSH2 0x4B7 JUMP JUMPDEST PUSH2 0x4C0 JUMP JUMPDEST PUSH2 0x4B7 JUMP JUMPDEST SWAP1 POP SWAP2 SWAP1 POP JUMP JUMPDEST PUSH0 DUP2 SWAP1 POP SWAP2 SWAP1 POP JUMP JUMPDEST PUSH2 0x4FC DUP4 PUSH2 0x4C9 JUMP JUMPDEST PUSH2 0x510 PUSH2 0x508 DUP3 PUSH2 0x4EA JUMP JUMPDEST DUP5 DUP5 SLOAD PUSH2 0x466 JUMP JUMPDEST DUP3 SSTORE POP POP POP POP JUMP JUMPDEST PUSH0 SWAP1 JUMP JUMPDEST PUSH2 0x524 PUSH2 0x518 JUMP JUMPDEST PUSH2 0x52F DUP2 DUP5 DUP5 PUSH2 0x4F3 JUMP JUMPDEST POP POP POP JUMP JUMPDEST JUMPDEST DUP2 DUP2 LT ISZERO PUSH2 0x552 JUMPI PUSH2 0x547 PUSH0 DUP3 PUSH2 0x51C JUMP JUMPDEST PUSH1 0x1 DUP2 ADD SWAP1 POP PUSH2 0x535 JUMP JUMPDEST POP POP JUMP JUMPDEST PUSH1 0x1F DUP3 GT ISZERO PUSH2 0x597 JUMPI PUSH2 0x568 DUP2 PUSH2 0x439 JUMP JUMPDEST PUSH2 0x571 DUP5 PUSH2 0x44B JUMP JUMPDEST DUP2 ADD PUSH1 0x20 DUP6 LT ISZERO PUSH2 0x580 JUMPI DUP2 SWAP1 POP JUMPDEST PUSH2 0x594 PUSH2 0x58C DUP6 PUSH2 0x44B JUMP JUMPDEST DUP4 ADD DUP3 PUSH2 0x534 JUMP JUMPDEST POP POP JUMPDEST POP POP POP JUMP JUMPDEST PUSH0 DUP3 DUP3 SHR SWAP1 POP SWAP3 SWAP2 POP POP JUMP JUMPDEST PUSH0 PUSH2 0x5B7 PUSH0 NOT DUP5 PUSH1 0x8 MUL PUSH2 0x59C JUMP JUMPDEST NOT DUP1 DUP4 AND SWAP2 POP POP SWAP3 SWAP2 POP POP JUMP JUMPDEST PUSH0 PUSH2 0x5CF DUP4 DUP4 PUSH2 0x5A8 JUMP JUMPDEST SWAP2 POP DUP3 PUSH1 0x2 MUL DUP3 OR SWAP1 POP SWAP3 SWAP2 POP POP JUMP JUMPDEST PUSH2 0x5E8 DUP3 PUSH2 0x3A5 JUMP JUMPDEST PUSH8 0xFFFFFFFFFFFFFFFF DUP2 GT ISZERO PUSH2 0x601 JUMPI PUSH2 0x600 PUSH2 0x3AF JUMP JUMPDEST JUMPDEST PUSH2 0x60B DUP3 SLOAD PUSH2 0x409 JUMP JUMPDEST PUSH2 0x616 DUP3 DUP3 DUP6 PUSH2 0x556 JUMP JUMPDEST PUSH0 PUSH1 0x20 SWAP1 POP PUSH1 0x1F DUP4 GT PUSH1 0x1 DUP2 EQ PUSH2 0x647 JUMPI PUSH0 DUP5 ISZERO PUSH2 0x635 JUMPI DUP3 DUP8 ADD MLOAD SWAP1 POP JUMPDEST PUSH2 0x63F DUP6 DUP3 PUSH2 0x5C4 JUMP JUMPDEST DUP7 SSTORE POP PUSH2 0x6A6 JUMP JUMPDEST PUSH1 0x1F NOT DUP5 AND PUSH2 0x655 DUP7 PUSH2 0x439 JUMP JUMPDEST PUSH0 JUMPDEST DUP3 DUP2 LT ISZERO PUSH2 0x67C JUMPI DUP5 DUP10 ADD MLOAD DUP3 SSTORE PUSH1 0x1 DUP3 ADD SWAP2 POP PUSH1 0x20 DUP6 ADD SWAP5 POP PUSH1 0x20 DUP2 ADD SWAP1 POP PUSH2 0x657 JUMP JUMPDEST DUP7 DUP4 LT ISZERO PUSH2 0x699 JUMPI DUP5 DUP10 ADD MLOAD PUSH2 0x695 PUSH1 0x1F DUP10 AND DUP3 PUSH2 0x5A8 JUMP JUMPDEST DUP4 SSTORE POP JUMPDEST PUSH1 0x1 PUSH1 0x2 DUP9 MUL ADD DUP9 SSTORE POP POP POP JUMPDEST POP POP POP POP POP POP JUMP JUMPDEST PUSH2 0x7CD DUP1 PUSH2 0x6BB PUSH0 CODECOPY PUSH0 RETURN INVALID PUSH1 0x80 PUSH1 0x40 MSTORE CALLVALUE DUP1 ISZERO PUSH2 0xF JUMPI PUSH0 DUP1 REVERT JUMPDEST POP PUSH1 0x4 CALLDATASIZE LT PUSH2 0x34 JUMPI PUSH0 CALLDATALOAD PUSH1 0xE0 SHR DUP1 PUSH4 0xBC69182 EQ PUSH2 0x38 JUMPI DUP1 PUSH4 0x7E21C28B EQ PUSH2 0x69 JUMPI JUMPDEST PUSH0 DUP1 REVERT JUMPDEST PUSH2 0x52 PUSH1 0x4 DUP1 CALLDATASIZE SUB DUP2 ADD SWAP1 PUSH2 0x4D SWAP2 SWAP1 PUSH2 0x405 JUMP JUMPDEST PUSH2 0x9B JUMP JUMPDEST PUSH1 0x40 MLOAD PUSH2 0x60 SWAP3 SWAP2 SWAP1 PUSH2 0x4AF JUMP JUMPDEST PUSH1 0x40 MLOAD DUP1 SWAP2 SUB SWAP1 RETURN JUMPDEST PUSH2 0x83 PUSH1 0x4 DUP1 CALLDATASIZE SUB DUP2 ADD SWAP1 PUSH2 0x7E SWAP2 SWAP1 PUSH2 0x405 JUMP JUMPDEST PUSH2 0x317 JUMP JUMPDEST PUSH1 0x40 MLOAD PUSH2 0x92 SWAP4 SWAP3 SWAP2 SWAP1 PUSH2 0x4F7 JUMP JUMPDEST PUSH1 0x40 MLOAD DUP1 SWAP2 SUB SWAP1 RETURN JUMPDEST PUSH1 0x60 PUSH0 DUP1 PUSH0 DUP1 DUP6 DUP2 MSTORE PUSH1 0x20 ADD SWAP1 DUP2 MSTORE PUSH1 0x20 ADD PUSH0 KECCAK256 PUSH0 ADD DUP1 SLOAD PUSH2 0xBC SWAP1 PUSH2 0x560 JUMP JUMPDEST SWAP1 POP GT PUSH2 0xFE JUMPI PUSH1 0x40 MLOAD PUSH32 0x8C379A000000000000000000000000000000000000000000000000000000000 DUP2 MSTORE PUSH1 0x4 ADD PUSH2 0xF5 SWAP1 PUSH2 0x5DA JUMP JUMPDEST PUSH1 0x40 MLOAD DUP1 SWAP2 SUB SWAP1 REVERT JUMPDEST PUSH0 DUP1 DUP5 DUP2 MSTORE PUSH1 0x20 ADD SWAP1 DUP2 MSTORE PUSH1 0x20 ADD PUSH0 KECCAK256 PUSH1 0x2 ADD PUSH0 SWAP1 SLOAD SWAP1 PUSH2 0x100 EXP SWAP1 DIV PUSH1 0xFF AND ISZERO PUSH2 0x1DC JUMPI PUSH0 DUP1 DUP5 DUP2 MSTORE PUSH1 0x20 ADD SWAP1 DUP2 MSTORE PUSH1 0x20 ADD PUSH0 KECCAK256 PUSH0 ADD PUSH0 DUP1 DUP6 DUP2 MSTORE PUSH1 0x20 ADD SWAP1 DUP2 MSTORE PUSH1 0x20 ADD PUSH0 KECCAK256 PUSH1 0x1 ADD SLOAD DUP2 DUP1 SLOAD PUSH2 0x155 SWAP1 PUSH2 0x560 JUMP JUMPDEST DUP1 PUSH1 0x1F ADD PUSH1 0x20 DUP1 SWAP2 DIV MUL PUSH1 0x20 ADD PUSH1 0x40 MLOAD SWAP1 DUP2 ADD PUSH1 0x40 MSTORE DUP1 SWAP3 SWAP2 SWAP1 DUP2 DUP2 MSTORE PUSH1 0x20 ADD DUP3 DUP1 SLOAD PUSH2 0x181 SWAP1 PUSH2 0x560 JUMP JUMPDEST DUP1 ISZERO PUSH2 0x1CC JUMPI DUP1 PUSH1 0x1F LT PUSH2 0x1A3 JUMPI PUSH2 0x100 DUP1 DUP4 SLOAD DIV MUL DUP4 MSTORE SWAP2 PUSH1 0x20 ADD SWAP2 PUSH2 0x1CC JUMP JUMPDEST DUP3 ADD SWAP2 SWAP1 PUSH0 MSTORE PUSH1 0x20 PUSH0 KECCAK256 SWAP1 JUMPDEST DUP2 SLOAD DUP2 MSTORE SWAP1 PUSH1 0x1 ADD SWAP1 PUSH1 0x20 ADD DUP1 DUP4 GT PUSH2 0x1AF JUMPI DUP3 SWAP1 SUB PUSH1 0x1F AND DUP3 ADD SWAP2 JUMPDEST POP POP POP POP POP SWAP2 POP SWAP2 POP SWAP2 POP PUSH2 0x312 JUMP JUMPDEST PUSH0 TIMESTAMP PREVRANDAO CALLER DUP7 PUSH1 0x40 MLOAD PUSH1 0x20 ADD PUSH2 0x1F4 SWAP5 SWAP4 SWAP3 SWAP2 SWAP1 PUSH2 0x68D JUMP JUMPDEST PUSH1 0x40 MLOAD PUSH1 0x20 DUP2 DUP4 SUB SUB DUP2 MSTORE SWAP1 PUSH1 0x40 MSTORE DUP1 MLOAD SWAP1 PUSH1 0x20 ADD KECCAK256 PUSH0 SHR SWAP1 POP PUSH0 PUSH1 0xFA PUSH2 0x227 DUP4 PUSH2 0x21F SWAP2 SWAP1 PUSH2 0x707 JUMP JUMPDEST PUSH2 0x229 SWAP2 SWAP1 PUSH2 0x764 JUMP JUMPDEST SWAP1 POP DUP1 PUSH0 DUP1 DUP8 DUP2 MSTORE PUSH1 0x20 ADD SWAP1 DUP2 MSTORE PUSH1 0x20 ADD PUSH0 KECCAK256 PUSH1 0x1 ADD DUP2 SWAP1 SSTORE POP PUSH1 0x1 PUSH0 DUP1 DUP8 DUP2 MSTORE PUSH1 0x20 ADD SWAP1 DUP2 MSTORE PUSH1 0x20 ADD PUSH0 KECCAK256 PUSH1 0x2 ADD PUSH0 PUSH2 0x100 EXP DUP2 SLOAD DUP2 PUSH1 0xFF MUL NOT AND SWAP1 DUP4 ISZERO ISZERO MUL OR SWAP1 SSTORE POP PUSH0 DUP1 DUP7 DUP2 MSTORE PUSH1 0x20 ADD SWAP1 DUP2 MSTORE PUSH1 0x20 ADD PUSH0 KECCAK256 PUSH0 ADD DUP2 DUP2 DUP1 SLOAD PUSH2 0x28D SWAP1 PUSH2 0x560 JUMP JUMPDEST DUP1 PUSH1 0x1F ADD PUSH1 0x20 DUP1 SWAP2 DIV MUL PUSH1 0x20 ADD PUSH1 0x40 MLOAD SWAP1 DUP2 ADD PUSH1 0x40 MSTORE DUP1 SWAP3 SWAP2 SWAP1 DUP2 DUP2 MSTORE PUSH1 0x20 ADD DUP3 DUP1 SLOAD PUSH2 0x2B9 SWAP1 PUSH2 0x560 JUMP JUMPDEST DUP1 ISZERO PUSH2 0x304 JUMPI DUP1 PUSH1 0x1F LT PUSH2 0x2DB JUMPI PUSH2 0x100 DUP1 DUP4 SLOAD DIV MUL DUP4 MSTORE SWAP2 PUSH1 0x20 ADD SWAP2 PUSH2 0x304 JUMP JUMPDEST DUP3 ADD SWAP2 SWAP1 PUSH0 MSTORE PUSH1 0x20 PUSH0 KECCAK256 SWAP1 JUMPDEST DUP2 SLOAD DUP2 MSTORE SWAP1 PUSH1 0x1 ADD SWAP1 PUSH1 0x20 ADD DUP1 DUP4 GT PUSH2 0x2E7 JUMPI DUP3 SWAP1 SUB PUSH1 0x1F AND DUP3 ADD SWAP2 JUMPDEST POP POP POP POP POP SWAP2 POP SWAP4 POP SWAP4 POP POP POP JUMPDEST SWAP2 POP SWAP2 JUMP JUMPDEST PUSH0 PUSH1 0x20 MSTORE DUP1 PUSH0 MSTORE PUSH1 0x40 PUSH0 KECCAK256 PUSH0 SWAP2 POP SWAP1 POP DUP1 PUSH0 ADD DUP1 SLOAD PUSH2 0x335 SWAP1 PUSH2 0x560 JUMP JUMPDEST DUP1 PUSH1 0x1F ADD PUSH1 0x20 DUP1 SWAP2 DIV MUL PUSH1 0x20 ADD PUSH1 0x40 MLOAD SWAP1 DUP2 ADD PUSH1 0x40 MSTORE DUP1 SWAP3 SWAP2 SWAP1 DUP2 DUP2 MSTORE PUSH1 0x20 ADD DUP3 DUP1 SLOAD PUSH2 0x361 SWAP1 PUSH2 0x560 JUMP JUMPDEST DUP1 ISZERO PUSH2 0x3AC JUMPI DUP1 PUSH1 0x1F LT PUSH2 0x383 JUMPI PUSH2 0x100 DUP1 DUP4 SLOAD DIV MUL DUP4 MSTORE SWAP2 PUSH1 0x20 ADD SWAP2 PUSH2 0x3AC JUMP JUMPDEST DUP3 ADD SWAP2 SWAP1 PUSH0 MSTORE PUSH1 0x20 PUSH0 KECCAK256 SWAP1 JUMPDEST DUP2 SLOAD DUP2 MSTORE SWAP1 PUSH1 0x1 ADD SWAP1 PUSH1 0x20 ADD DUP1 DUP4 GT PUSH2 0x38F JUMPI DUP3 SWAP1 SUB PUSH1 0x1F AND DUP3 ADD SWAP2 JUMPDEST POP POP POP POP POP SWAP1 DUP1 PUSH1 0x1 ADD SLOAD SWAP1 DUP1 PUSH1 0x2 ADD PUSH0 SWAP1 SLOAD SWAP1 PUSH2 0x100 EXP SWAP1 DIV PUSH1 0xFF AND SWAP1 POP DUP4 JUMP JUMPDEST PUSH0 DUP1 REVERT JUMPDEST PUSH0 DUP2 SWAP1 POP SWAP2 SWAP1 POP JUMP JUMPDEST PUSH2 0x3E4 DUP2 PUSH2 0x3D2 JUMP JUMPDEST DUP2 EQ PUSH2 0x3EE JUMPI PUSH0 DUP1 REVERT JUMPDEST POP JUMP JUMPDEST PUSH0 DUP2 CALLDATALOAD SWAP1 POP PUSH2 0x3FF DUP2 PUSH2 0x3DB JUMP JUMPDEST SWAP3 SWAP2 POP POP JUMP JUMPDEST PUSH0 PUSH1 0x20 DUP3 DUP5 SUB SLT ISZERO PUSH2 0x41A JUMPI PUSH2 0x419 PUSH2 0x3CE JUMP JUMPDEST JUMPDEST PUSH0 PUSH2 0x427 DUP5 DUP3 DUP6 ADD PUSH2 0x3F1 JUMP JUMPDEST SWAP2 POP POP SWAP3 SWAP2 POP POP JUMP JUMPDEST PUSH0 DUP2 MLOAD SWAP1 POP SWAP2 SWAP1 POP JUMP JUMPDEST PUSH0 DUP3 DUP3 MSTORE PUSH1 0x20 DUP3 ADD SWAP1 POP SWAP3 SWAP2 POP POP JUMP JUMPDEST DUP3 DUP2 DUP4 MCOPY PUSH0 DUP4 DUP4 ADD MSTORE POP POP POP JUMP JUMPDEST PUSH0 PUSH1 0x1F NOT PUSH1 0x1F DUP4 ADD AND SWAP1 POP SWAP2 SWAP1 POP JUMP JUMPDEST PUSH0 PUSH2 0x472 DUP3 PUSH2 0x430 JUMP JUMPDEST PUSH2 0x47C DUP2 DUP6 PUSH2 0x43A JUMP JUMPDEST SWAP4 POP PUSH2 0x48C DUP2 DUP6 PUSH1 0x20 DUP7 ADD PUSH2 0x44A JUMP JUMPDEST PUSH2 0x495 DUP2 PUSH2 0x458 JUMP JUMPDEST DUP5 ADD SWAP2 POP POP SWAP3 SWAP2 POP POP JUMP JUMPDEST PUSH2 0x4A9 DUP2 PUSH2 0x3D2 JUMP JUMPDEST DUP3 MSTORE POP POP JUMP JUMPDEST PUSH0 PUSH1 0x40 DUP3 ADD SWAP1 POP DUP2 DUP2 SUB PUSH0 DUP4 ADD MSTORE PUSH2 0x4C7 DUP2 DUP6 PUSH2 0x468 JUMP JUMPDEST SWAP1 POP PUSH2 0x4D6 PUSH1 0x20 DUP4 ADD DUP5 PUSH2 0x4A0 JUMP JUMPDEST SWAP4 SWAP3 POP POP POP JUMP JUMPDEST PUSH0 DUP2 ISZERO ISZERO SWAP1 POP SWAP2 SWAP1 POP JUMP JUMPDEST PUSH2 0x4F1 DUP2 PUSH2 0x4DD JUMP JUMPDEST DUP3 MSTORE POP POP JUMP JUMPDEST PUSH0 PUSH1 0x60 DUP3 ADD SWAP1 POP DUP2 DUP2 SUB PUSH0 DUP4 ADD MSTORE PUSH2 0x50F DUP2 DUP7 PUSH2 0x468 JUMP JUMPDEST SWAP1 POP PUSH2 0x51E PUSH1 0x20 DUP4 ADD DUP6 PUSH2 0x4A0 JUMP JUMPDEST PUSH2 0x52B PUSH1 0x40 DUP4 ADD DUP5 PUSH2 0x4E8 JUMP JUMPDEST SWAP5 SWAP4 POP POP POP POP JUMP JUMPDEST PUSH32 0x4E487B7100000000000000000000000000000000000000000000000000000000 PUSH0 MSTORE PUSH1 0x22 PUSH1 0x4 MSTORE PUSH1 0x24 PUSH0 REVERT JUMPDEST PUSH0 PUSH1 0x2 DUP3 DIV SWAP1 POP PUSH1 0x1 DUP3 AND DUP1 PUSH2 0x577 JUMPI PUSH1 0x7F DUP3 AND SWAP2 POP JUMPDEST PUSH1 0x20 DUP3 LT DUP2 SUB PUSH2 0x58A JUMPI PUSH2 0x589 PUSH2 0x533 JUMP JUMPDEST JUMPDEST POP SWAP2 SWAP1 POP JUMP JUMPDEST PUSH32 0x426C6F636B206E6F7420666F756E640000000000000000000000000000000000 PUSH0 DUP3 ADD MSTORE POP JUMP JUMPDEST PUSH0 PUSH2 0x5C4 PUSH1 0xF DUP4 PUSH2 0x43A JUMP JUMPDEST SWAP2 POP PUSH2 0x5CF DUP3 PUSH2 0x590 JUMP JUMPDEST PUSH1 0x20 DUP3 ADD SWAP1 POP SWAP2 SWAP1 POP JUMP JUMPDEST PUSH0 PUSH1 0x20 DUP3 ADD SWAP1 POP DUP2 DUP2 SUB PUSH0 DUP4 ADD MSTORE PUSH2 0x5F1 DUP2 PUSH2 0x5B8 JUMP JUMPDEST SWAP1 POP SWAP2 SWAP1 POP JUMP JUMPDEST PUSH0 DUP2 SWAP1 POP SWAP2 SWAP1 POP JUMP JUMPDEST PUSH2 0x612 PUSH2 0x60D DUP3 PUSH2 0x3D2 JUMP JUMPDEST PUSH2 0x5F8 JUMP JUMPDEST DUP3 MSTORE POP POP JUMP JUMPDEST PUSH0 PUSH20 0xFFFFFFFFFFFFFFFFFFFFFFFFFFFFFFFFFFFFFFFF DUP3 AND SWAP1 POP SWAP2 SWAP1 POP JUMP JUMPDEST PUSH0 PUSH2 0x641 DUP3 PUSH2 0x618 JUMP JUMPDEST SWAP1 POP SWAP2 SWAP1 POP JUMP JUMPDEST PUSH0 DUP2 PUSH1 0x60 SHL SWAP1 POP SWAP2 SWAP1 POP JUMP JUMPDEST PUSH0 PUSH2 0x65E DUP3 PUSH2 0x648 JUMP JUMPDEST SWAP1 POP SWAP2 SWAP1 POP JUMP JUMPDEST PUSH0 PUSH2 0x66F DUP3 PUSH2 0x654 JUMP JUMPDEST SWAP1 POP SWAP2 SWAP1 POP JUMP JUMPDEST PUSH2 0x687 PUSH2 0x682 DUP3 PUSH2 0x637 JUMP JUMPDEST PUSH2 0x665 JUMP JUMPDEST DUP3 MSTORE POP POP JUMP JUMPDEST PUSH0 PUSH2 0x698 DUP3 DUP8 PUSH2 0x601 JUMP JUMPDEST PUSH1 0x20 DUP3 ADD SWAP2 POP PUSH2 0x6A8 DUP3 DUP7 PUSH2 0x601 JUMP JUMPDEST PUSH1 0x20 DUP3 ADD SWAP2 POP PUSH2 0x6B8 DUP3 DUP6 PUSH2 0x676 JUMP JUMPDEST PUSH1 0x14 DUP3 ADD SWAP2 POP PUSH2 0x6C8 DUP3 DUP5 PUSH2 0x601 JUMP JUMPDEST PUSH1 0x20 DUP3 ADD SWAP2 POP DUP2 SWAP1 POP SWAP6 SWAP5 POP POP POP POP POP JUMP JUMPDEST PUSH32 0x4E487B7100000000000000000000000000000000000000000000000000000000 PUSH0 MSTORE PUSH1 0x12 PUSH1 0x4 MSTORE PUSH1 0x24 PUSH0 REVERT JUMPDEST PUSH0 PUSH2 0x711 DUP3 PUSH2 0x3D2 JUMP JUMPDEST SWAP2 POP PUSH2 0x71C DUP4 PUSH2 0x3D2 JUMP JUMPDEST SWAP3 POP DUP3 PUSH2 0x72C JUMPI PUSH2 0x72B PUSH2 0x6DA JUMP JUMPDEST JUMPDEST DUP3 DUP3 MOD SWAP1 POP SWAP3 SWAP2 POP POP JUMP JUMPDEST PUSH32 0x4E487B7100000000000000000000000000000000000000000000000000000000 PUSH0 MSTORE PUSH1 0x11 PUSH1 0x4 MSTORE PUSH1 0x24 PUSH0 REVERT JUMPDEST PUSH0 PUSH2 0x76E DUP3 PUSH2 0x3D2 JUMP JUMPDEST SWAP2 POP PUSH2 0x779 DUP4 PUSH2 0x3D2 JUMP JUMPDEST SWAP3 POP DUP3 DUP3 ADD SWAP1 POP DUP1 DUP3 GT ISZERO PUSH2 0x791 JUMPI PUSH2 0x790 PUSH2 0x737 JUMP JUMPDEST JUMPDEST SWAP3 SWAP2 POP POP JUMP INVALID LOG2 PUSH5 0x6970667358 0x22 SLT KECCAK256 PUSH15 0xA4906DC221ACDDA7748F26026844B3 0xC8 PUSH20 0xF93F30A2F488D94356171674038464736F6C6343 STOP ADDMOD BYTE STOP CALLER NUMBER PUSH19 0x6F702047726F77746820616E64206861727665 PUSH20 0x742043726F7020736F77696E67207265636F7264 PUSH6 0x645365656420 PUSH5 0x656C697665 PUSH19 0x7920746F206661726D6572204469676974616C KECCAK256 PUSH16 0x7264657220636F6E6669726D6174696F PUSH15 0x436F6E73756D657220507572636861 PUSH20 0x6520436F6D7075746174696F6E20616E64207175 PUSH2 0x6C69 PUSH21 0x7920636865636B5061796D656E742072656C656173 PUSH6 0x20746F207768 PUSH16 0x6C6573616C65722044656C6976657279 KECCAK256 PUSH21 0x7261636B696E672076616C69646174696F6E57686F PUSH13 0x6573616C657220746F20636F6E PUSH20 0x756D65722044656D616E64206167677265676174 PUSH10 0x6F6E52657461696C2064 PUSH10 0x73747269627574696F6E KECCAK256 NUMBER PUSH16 0x6E73756D6572206C6576656C20636865 PUSH4 0x6B706F69 PUSH15 0x7452657461696C2064697374726962 PUSH22 0x74696F6E205472616E73706F727420262076616C6964 PUSH2 0x7469 PUSH16 0x6E4661726D6572204B5943207375626D PUSH10 0x7373696F6E20496E6974 PUSH10 0x616C207472616E736163 PUSH21 0x696F6E207365747570436F6E6669726D6174696F6E KECCAK256 CHAINID PUSH10 0x6E616C20636F6E73756D PUSH6 0x7220636F6E66 PUSH10 0x726D6174696F6E207265 PUSH4 0x6F726453 PUSH6 0x6E6420636F72 PUSH15 0x20746F2070726F63657373696E6720 PUSH22 0x6E697420496F542064617461206D6F6E69746F72696E PUSH8 0x436F6E73756D6572 KECCAK256 PUSH17 0x75726368617365204D756C7469706C6520 PUSH3 0x757965 PUSH19 0x73207472616E73616374696F6E735265706561 PUSH21 0x207472616E73616374696F6E204F7074696D697A65 PUSH5 0x2072657065 PUSH2 0x7420 PUSH17 0x61747465726E5265636569766564206861 PUSH19 0x766573742063726F702066726F6D206661726D PUSH6 0x72204669656C PUSH5 0x206D6F6E69 PUSH21 0x6F72696E6720656E7472795061796D656E74207365 PUSH21 0x746C656D656E742053696D706C6520736574746C65 PUSH14 0x656E7420636F6E6669726D617469 PUSH16 0x6E536565642077686F6C6573616C6572 KECCAK256 PUSH16 0x72646572205365656420737570706C79 KECCAK256 PUSH19 0x65717565737420636F6E6669726D6564476F76 PUSH21 0x2E2046756E6420416C6C6F636174696F6E20537562 PUSH20 0x69647920617070726F76616C20616E642066756E PUSH5 0x20616C6C6F PUSH4 0x6174696F PUSH15 0x0 "
				},
				"gasEstimates": {
					"creation": {
						"codeDepositCost": "399400",
						"executionCost": "infinite",
						"totalCost": "infinite"
					},
					"external": {
						"blockData(uint256)": "infinite",
						"getLatency(uint256)": "infinite"
					}
				},
				"methodIdentifiers": {
					"blockData(uint256)": "7e21c28b",
					"getLatency(uint256)": "0bc69182"
				}
			},
			"storageLayout": {
				"storage": [
					{
						"astId": 13,
						"contract": "Latency2.sol:BlockLatencyReason",
						"label": "blockData",
						"offset": 0,
						"slot": "0",
						"type": "t_mapping(t_uint256,t_struct(BlockInfo)8_storage)"
					}
				],
				"types": {
					"t_bool": {
						"encoding": "inplace",
						"label": "bool",
						"numberOfBytes": "1"
					},
					"t_mapping(t_uint256,t_struct(BlockInfo)8_storage)": {
						"encoding": "mapping",
						"key": "t_uint256",
						"label": "mapping(uint256 => struct BlockLatencyReason.BlockInfo)",
						"numberOfBytes": "32",
						"value": "t_struct(BlockInfo)8_storage"
					},
					"t_string_storage": {
						"encoding": "bytes",
						"label": "string",
						"numberOfBytes": "32"
					},
					"t_struct(BlockInfo)8_storage": {
						"encoding": "inplace",
						"label": "struct BlockLatencyReason.BlockInfo",
						"members": [
							{
								"astId": 3,
								"contract": "Latency2.sol:BlockLatencyReason",
								"label": "reason",
								"offset": 0,
								"slot": "0",
								"type": "t_string_storage"
							},
							{
								"astId": 5,
								"contract": "Latency2.sol:BlockLatencyReason",
								"label": "latency",
								"offset": 0,
								"slot": "1",
								"type": "t_uint256"
							},
							{
								"astId": 7,
								"contract": "Latency2.sol:BlockLatencyReason",
								"label": "generated",
								"offset": 0,
								"slot": "2",
								"type": "t_bool"
							}
						],
						"numberOfBytes": "96"
					},
					"t_uint256": {
						"encoding": "inplace",
						"label": "uint256",
						"numberOfBytes": "32"
					}
				}
			},
			"userdoc": {
				"kind": "user",
				"methods": {},
				"version": 1
			}
		}
	}
}