{
	"Day-17/code1.sol": {
		"LendingBorrowing": {
			"abi": [
				{
					"anonymous": false,
					"inputs": [
						{
							"indexed": true,
							"internalType": "uint256",
							"name": "loanId",
							"type": "uint256"
						},
						{
							"indexed": true,
							"internalType": "address",
							"name": "lender",
							"type": "address"
						},
						{
							"indexed": false,
							"internalType": "uint256",
							"name": "principal",
							"type": "uint256"
						},
						{
							"indexed": false,
							"internalType": "uint256",
							"name": "interestRate",
							"type": "uint256"
						},
						{
							"indexed": false,
							"internalType": "uint256",
							"name": "duration",
							"type": "uint256"
						}
					],
					"name": "LoanOffered",
					"type": "event"
				},
				{
					"anonymous": false,
					"inputs": [
						{
							"indexed": true,
							"internalType": "uint256",
							"name": "loanId",
							"type": "uint256"
						},
						{
							"indexed": true,
							"internalType": "address",
							"name": "borrower",
							"type": "address"
						},
						{
							"indexed": false,
							"internalType": "uint256",
							"name": "amount",
							"type": "uint256"
						}
					],
					"name": "LoanRepaid",
					"type": "event"
				},
				{
					"anonymous": false,
					"inputs": [
						{
							"indexed": true,
							"internalType": "uint256",
							"name": "loanId",
							"type": "uint256"
						},
						{
							"indexed": true,
							"internalType": "address",
							"name": "borrower",
							"type": "address"
						}
					],
					"name": "LoanTaken",
					"type": "event"
				},
				{
					"anonymous": false,
					"inputs": [
						{
							"indexed": true,
							"internalType": "uint256",
							"name": "loanId",
							"type": "uint256"
						},
						{
							"indexed": true,
							"internalType": "address",
							"name": "lender",
							"type": "address"
						},
						{
							"indexed": false,
							"internalType": "uint256",
							"name": "amount",
							"type": "uint256"
						}
					],
					"name": "LoanWithdrawn",
					"type": "event"
				},
				{
					"inputs": [
						{
							"internalType": "uint256",
							"name": "loanId",
							"type": "uint256"
						}
					],
					"name": "cancelLoan",
					"outputs": [],
					"stateMutability": "nonpayable",
					"type": "function"
				},
				{
					"inputs": [
						{
							"internalType": "uint256",
							"name": "loanId",
							"type": "uint256"
						}
					],
					"name": "getTotalRepayAmount",
					"outputs": [
						{
							"internalType": "uint256",
							"name": "",
							"type": "uint256"
						}
					],
					"stateMutability": "view",
					"type": "function"
				},
				{
					"inputs": [],
					"name": "loanIdCounter",
					"outputs": [
						{
							"internalType": "uint256",
							"name": "",
							"type": "uint256"
						}
					],
					"stateMutability": "view",
					"type": "function"
				},
				{
					"inputs": [
						{
							"internalType": "uint256",
							"name": "",
							"type": "uint256"
						}
					],
					"name": "loans",
					"outputs": [
						{
							"internalType": "address",
							"name": "lender",
							"type": "address"
						},
						{
							"internalType": "address",
							"name": "borrower",
							"type": "address"
						},
						{
							"internalType": "uint256",
							"name": "principal",
							"type": "uint256"
						},
						{
							"internalType": "uint256",
							"name": "interestRate",
							"type": "uint256"
						},
						{
							"internalType": "uint256",
							"name": "startTimestamp",
							"type": "uint256"
						},
						{
							"internalType": "uint256",
							"name": "duration",
							"type": "uint256"
						},
						{
							"internalType": "bool",
							"name": "isRepaid",
							"type": "bool"
						},
						{
							"internalType": "bool",
							"name": "isWithdrawn",
							"type": "bool"
						}
					],
					"stateMutability": "view",
					"type": "function"
				},
				{
					"inputs": [
						{
							"internalType": "uint256",
							"name": "interestRateBps",
							"type": "uint256"
						},
						{
							"internalType": "uint256",
							"name": "durationSecs",
							"type": "uint256"
						}
					],
					"name": "offerLoan",
					"outputs": [
						{
							"internalType": "uint256",
							"name": "",
							"type": "uint256"
						}
					],
					"stateMutability": "payable",
					"type": "function"
				},
				{
					"inputs": [
						{
							"internalType": "uint256",
							"name": "loanId",
							"type": "uint256"
						}
					],
					"name": "repayLoan",
					"outputs": [],
					"stateMutability": "payable",
					"type": "function"
				},
				{
					"inputs": [
						{
							"internalType": "uint256",
							"name": "loanId",
							"type": "uint256"
						}
					],
					"name": "takeLoan",
					"outputs": [],
					"stateMutability": "nonpayable",
					"type": "function"
				},
				{
					"inputs": [
						{
							"internalType": "uint256",
							"name": "loanId",
							"type": "uint256"
						}
					],
					"name": "withdraws",
					"outputs": [],
					"stateMutability": "nonpayable",
					"type": "function"
				}
			],
			"devdoc": {
				"kind": "dev",
				"methods": {},
				"version": 1
			},
			"evm": {
				"assembly": "    /* \"Day-17/code1.sol\":60:4433  contract LendingBorrowing{... */\n  mstore(0x40, 0x80)\n  callvalue\n  dup1\n  iszero\n  tag_1\n  jumpi\n  0x00\n  dup1\n  revert\ntag_1:\n  pop\n  dataSize(sub_0)\n  dup1\n  dataOffset(sub_0)\n  0x00\n  codecopy\n  0x00\n  return\nstop\n\nsub_0: assembly {\n        /* \"Day-17/code1.sol\":60:4433  contract LendingBorrowing{... */\n      mstore(0x40, 0x80)\n      jumpi(tag_1, lt(calldatasize, 0x04))\n      shr(0xe0, calldataload(0x00))\n      dup1\n      0xb8306fb4\n      gt\n      tag_10\n      jumpi\n      dup1\n      0xb8306fb4\n      eq\n      tag_6\n      jumpi\n      dup1\n      0xbdbfa3de\n      eq\n      tag_7\n      jumpi\n      dup1\n      0xdc4c2e7f\n      eq\n      tag_8\n      jumpi\n      dup1\n      0xe1ec3c68\n      eq\n      tag_9\n      jumpi\n      jump(tag_1)\n    tag_10:\n      dup1\n      0x55466c37\n      eq\n      tag_2\n      jumpi\n      dup1\n      0x8c803fc2\n      eq\n      tag_3\n      jumpi\n      dup1\n      0x9d939d16\n      eq\n      tag_4\n      jumpi\n      dup1\n      0xab7b1c89\n      eq\n      tag_5\n      jumpi\n    tag_1:\n      0x00\n      dup1\n      revert\n        /* \"Day-17/code1.sol\":2837:3300  function withdraws(uint256 loanId) external {... */\n    tag_2:\n      callvalue\n      dup1\n      iszero\n      tag_11\n      jumpi\n      0x00\n      dup1\n      revert\n    tag_11:\n      pop\n      tag_12\n      0x04\n      dup1\n      calldatasize\n      sub\n      dup2\n      add\n      swap1\n      tag_13\n      swap2\n      swap1\n      tag_14\n      jump\t// in\n    tag_13:\n      tag_15\n      jump\t// in\n    tag_12:\n      stop\n        /* \"Day-17/code1.sol\":1614:2096  function takeLoan(uint256 loanId) external{... */\n    tag_3:\n      callvalue\n      dup1\n      iszero\n      tag_16\n      jumpi\n      0x00\n      dup1\n      revert\n    tag_16:\n      pop\n      tag_17\n      0x04\n      dup1\n      calldatasize\n      sub\n      dup2\n      add\n      swap1\n      tag_18\n      swap2\n      swap1\n      tag_14\n      jump\t// in\n    tag_18:\n      tag_19\n      jump\t// in\n    tag_17:\n      stop\n        /* \"Day-17/code1.sol\":341:369  uint256 public loanIdCounter */\n    tag_4:\n      callvalue\n      dup1\n      iszero\n      tag_20\n      jumpi\n      0x00\n      dup1\n      revert\n    tag_20:\n      pop\n      tag_21\n      tag_22\n      jump\t// in\n    tag_21:\n      mload(0x40)\n      tag_23\n      swap2\n      swap1\n      tag_24\n      jump\t// in\n    tag_23:\n      mload(0x40)\n      dup1\n      swap2\n      sub\n      swap1\n      return\n        /* \"Day-17/code1.sol\":2148:2792  function repayLoan(uint256 loanId) external payable {... */\n    tag_5:\n      tag_25\n      0x04\n      dup1\n      calldatasize\n      sub\n      dup2\n      add\n      swap1\n      tag_26\n      swap2\n      swap1\n      tag_14\n      jump\t// in\n    tag_26:\n      tag_27\n      jump\t// in\n    tag_25:\n      stop\n        /* \"Day-17/code1.sol\":3344:3984  function getTotalRepayAmount(uint256 loanId) public view returns(uint256){... */\n    tag_6:\n      callvalue\n      dup1\n      iszero\n      tag_28\n      jumpi\n      0x00\n      dup1\n      revert\n    tag_28:\n      pop\n      tag_29\n      0x04\n      dup1\n      calldatasize\n      sub\n      dup2\n      add\n      swap1\n      tag_30\n      swap2\n      swap1\n      tag_14\n      jump\t// in\n    tag_30:\n      tag_31\n      jump\t// in\n    tag_29:\n      mload(0x40)\n      tag_32\n      swap2\n      swap1\n      tag_24\n      jump\t// in\n    tag_32:\n      mload(0x40)\n      dup1\n      swap2\n      sub\n      swap1\n      return\n        /* \"Day-17/code1.sol\":4054:4430  function cancelLoan(uint256 loanId) external {... */\n    tag_7:\n      callvalue\n      dup1\n      iszero\n      tag_33\n      jumpi\n      0x00\n      dup1\n      revert\n    tag_33:\n      pop\n      tag_34\n      0x04\n      dup1\n      calldatasize\n      sub\n      dup2\n      add\n      swap1\n      tag_35\n      swap2\n      swap1\n      tag_14\n      jump\t// in\n    tag_35:\n      tag_36\n      jump\t// in\n    tag_34:\n      stop\n        /* \"Day-17/code1.sol\":866:1577  function offerLoan(uint256 interestRateBps, uint256 durationSecs) external payable returns(uint256){... */\n    tag_8:\n      tag_37\n      0x04\n      dup1\n      calldatasize\n      sub\n      dup2\n      add\n      swap1\n      tag_38\n      swap2\n      swap1\n      tag_39\n      jump\t// in\n    tag_38:\n      tag_40\n      jump\t// in\n    tag_37:\n      mload(0x40)\n      tag_41\n      swap2\n      swap1\n      tag_24\n      jump\t// in\n    tag_41:\n      mload(0x40)\n      dup1\n      swap2\n      sub\n      swap1\n      return\n        /* \"Day-17/code1.sol\":376:412  mapping(uint256=> Loan) public loans */\n    tag_9:\n      callvalue\n      dup1\n      iszero\n      tag_42\n      jumpi\n      0x00\n      dup1\n      revert\n    tag_42:\n      pop\n      tag_43\n      0x04\n      dup1\n      calldatasize\n      sub\n      dup2\n      add\n      swap1\n      tag_44\n      swap2\n      swap1\n      tag_14\n      jump\t// in\n    tag_44:\n      tag_45\n      jump\t// in\n    tag_43:\n      mload(0x40)\n      tag_46\n      swap9\n      swap8\n      swap7\n      swap6\n      swap5\n      swap4\n      swap3\n      swap2\n      swap1\n      tag_47\n      jump\t// in\n    tag_46:\n      mload(0x40)\n      dup1\n      swap2\n      sub\n      swap1\n      return\n        /* \"Day-17/code1.sol\":2837:3300  function withdraws(uint256 loanId) external {... */\n    tag_15:\n        /* \"Day-17/code1.sol\":2892:2909  Loan storage loan */\n      0x00\n        /* \"Day-17/code1.sol\":2912:2917  loans */\n      0x01\n        /* \"Day-17/code1.sol\":2912:2925  loans[loanId] */\n      0x00\n        /* \"Day-17/code1.sol\":2918:2924  loanId */\n      dup4\n        /* \"Day-17/code1.sol\":2912:2925  loans[loanId] */\n      dup2\n      mstore\n      0x20\n      add\n      swap1\n      dup2\n      mstore\n      0x20\n      add\n      0x00\n      keccak256\n        /* \"Day-17/code1.sol\":2892:2925  Loan storage loan = loans[loanId] */\n      swap1\n      pop\n        /* \"Day-17/code1.sol\":2958:2962  loan */\n      dup1\n        /* \"Day-17/code1.sol\":2958:2969  loan.lender */\n      0x00\n      add\n      0x00\n      swap1\n      sload\n      swap1\n      0x0100\n      exp\n      swap1\n      div\n      0xffffffffffffffffffffffffffffffffffffffff\n      and\n        /* \"Day-17/code1.sol\":2944:2969  msg.sender == loan.lender */\n      0xffffffffffffffffffffffffffffffffffffffff\n      and\n        /* \"Day-17/code1.sol\":2944:2954  msg.sender */\n      caller\n        /* \"Day-17/code1.sol\":2944:2969  msg.sender == loan.lender */\n      0xffffffffffffffffffffffffffffffffffffffff\n      and\n      eq\n        /* \"Day-17/code1.sol\":2936:2984  require(msg.sender == loan.lender, \"Not lender\") */\n      tag_49\n      jumpi\n      mload(0x40)\n      0x08c379a000000000000000000000000000000000000000000000000000000000\n      dup2\n      mstore\n      0x04\n      add\n      tag_50\n      swap1\n      tag_51\n      jump\t// in\n    tag_50:\n      mload(0x40)\n      dup1\n      swap2\n      sub\n      swap1\n      revert\n    tag_49:\n        /* \"Day-17/code1.sol\":3003:3007  loan */\n      dup1\n        /* \"Day-17/code1.sol\":3003:3016  loan.isRepaid */\n      0x06\n      add\n      0x00\n      swap1\n      sload\n      swap1\n      0x0100\n      exp\n      swap1\n      div\n      0xff\n      and\n        /* \"Day-17/code1.sol\":2995:3035  require(loan.isRepaid, \"Not repaid yet\") */\n      tag_52\n      jumpi\n      mload(0x40)\n      0x08c379a000000000000000000000000000000000000000000000000000000000\n      dup2\n      mstore\n      0x04\n      add\n      tag_53\n      swap1\n      tag_54\n      jump\t// in\n    tag_53:\n      mload(0x40)\n      dup1\n      swap2\n      sub\n      swap1\n      revert\n    tag_52:\n        /* \"Day-17/code1.sol\":3055:3059  loan */\n      dup1\n        /* \"Day-17/code1.sol\":3055:3071  loan.isWithdrawn */\n      0x06\n      add\n      0x01\n      swap1\n      sload\n      swap1\n      0x0100\n      exp\n      swap1\n      div\n      0xff\n      and\n        /* \"Day-17/code1.sol\":3054:3071  !loan.isWithdrawn */\n      iszero\n        /* \"Day-17/code1.sol\":3046:3093  require(!loan.isWithdrawn, \"Already withdrawn\") */\n      tag_55\n      jumpi\n      mload(0x40)\n      0x08c379a000000000000000000000000000000000000000000000000000000000\n      dup2\n      mstore\n      0x04\n      add\n      tag_56\n      swap1\n      tag_57\n      jump\t// in\n    tag_56:\n      mload(0x40)\n      dup1\n      swap2\n      sub\n      swap1\n      revert\n    tag_55:\n        /* \"Day-17/code1.sol\":3125:3129  true */\n      0x01\n        /* \"Day-17/code1.sol\":3106:3110  loan */\n      dup2\n        /* \"Day-17/code1.sol\":3106:3122  loan.isWithdrawn */\n      0x06\n      add\n      0x01\n        /* \"Day-17/code1.sol\":3106:3129  loan.isWithdrawn = true */\n      0x0100\n      exp\n      dup2\n      sload\n      dup2\n      0xff\n      mul\n      not\n      and\n      swap1\n      dup4\n      iszero\n      iszero\n      mul\n      or\n      swap1\n      sstore\n      pop\n        /* \"Day-17/code1.sol\":3140:3154  uint256 amount */\n      0x00\n        /* \"Day-17/code1.sol\":3157:3184  getTotalRepayAmount(loanId) */\n      tag_58\n        /* \"Day-17/code1.sol\":3177:3183  loanId */\n      dup4\n        /* \"Day-17/code1.sol\":3157:3176  getTotalRepayAmount */\n      tag_31\n        /* \"Day-17/code1.sol\":3157:3184  getTotalRepayAmount(loanId) */\n      jump\t// in\n    tag_58:\n        /* \"Day-17/code1.sol\":3140:3184  uint256 amount = getTotalRepayAmount(loanId) */\n      swap1\n      pop\n        /* \"Day-17/code1.sol\":3205:3215  msg.sender */\n      caller\n        /* \"Day-17/code1.sol\":3197:3225  payable(msg.sender).transfer */\n      0xffffffffffffffffffffffffffffffffffffffff\n      and\n        /* \"Day-17/code1.sol\":3197:3233  payable(msg.sender).transfer(amount) */\n      0x08fc\n        /* \"Day-17/code1.sol\":3226:3232  amount */\n      dup3\n        /* \"Day-17/code1.sol\":3197:3233  payable(msg.sender).transfer(amount) */\n      swap1\n      dup2\n      iszero\n      mul\n      swap1\n      mload(0x40)\n      0x00\n      mload(0x40)\n      dup1\n      dup4\n      sub\n      dup2\n      dup6\n      dup9\n      dup9\n      call\n      swap4\n      pop\n      pop\n      pop\n      pop\n      iszero\n      dup1\n      iszero\n      tag_60\n      jumpi\n      returndatasize\n      0x00\n      dup1\n      returndatacopy\n      revert(0x00, returndatasize)\n    tag_60:\n      pop\n        /* \"Day-17/code1.sol\":3273:3283  msg.sender */\n      caller\n        /* \"Day-17/code1.sol\":3251:3292  LoanWithdrawn(loanId, msg.sender, amount) */\n      0xffffffffffffffffffffffffffffffffffffffff\n      and\n        /* \"Day-17/code1.sol\":3265:3271  loanId */\n      dup4\n        /* \"Day-17/code1.sol\":3251:3292  LoanWithdrawn(loanId, msg.sender, amount) */\n      0xd9be35d8e9210ad784ca0909b49fe383d354d739fa104306a88b85412ade641e\n        /* \"Day-17/code1.sol\":3285:3291  amount */\n      dup4\n        /* \"Day-17/code1.sol\":3251:3292  LoanWithdrawn(loanId, msg.sender, amount) */\n      mload(0x40)\n      tag_61\n      swap2\n      swap1\n      tag_24\n      jump\t// in\n    tag_61:\n      mload(0x40)\n      dup1\n      swap2\n      sub\n      swap1\n      log3\n        /* \"Day-17/code1.sol\":2881:3300  {... */\n      pop\n      pop\n        /* \"Day-17/code1.sol\":2837:3300  function withdraws(uint256 loanId) external {... */\n      pop\n      jump\t// out\n        /* \"Day-17/code1.sol\":1614:2096  function takeLoan(uint256 loanId) external{... */\n    tag_19:\n        /* \"Day-17/code1.sol\":1667:1684  Loan storage loan */\n      0x00\n        /* \"Day-17/code1.sol\":1687:1692  loans */\n      0x01\n        /* \"Day-17/code1.sol\":1687:1700  loans[loanId] */\n      0x00\n        /* \"Day-17/code1.sol\":1693:1699  loanId */\n      dup4\n        /* \"Day-17/code1.sol\":1687:1700  loans[loanId] */\n      dup2\n      mstore\n      0x20\n      add\n      swap1\n      dup2\n      mstore\n      0x20\n      add\n      0x00\n      keccak256\n        /* \"Day-17/code1.sol\":1667:1700  Loan storage loan = loans[loanId] */\n      swap1\n      pop\n        /* \"Day-17/code1.sol\":1742:1743  0 */\n      0x00\n        /* \"Day-17/code1.sol\":1719:1744  loan.lender != address(0) */\n      0xffffffffffffffffffffffffffffffffffffffff\n      and\n        /* \"Day-17/code1.sol\":1719:1723  loan */\n      dup2\n        /* \"Day-17/code1.sol\":1719:1730  loan.lender */\n      0x00\n      add\n      0x00\n      swap1\n      sload\n      swap1\n      0x0100\n      exp\n      swap1\n      div\n      0xffffffffffffffffffffffffffffffffffffffff\n      and\n        /* \"Day-17/code1.sol\":1719:1744  loan.lender != address(0) */\n      0xffffffffffffffffffffffffffffffffffffffff\n      and\n      sub\n        /* \"Day-17/code1.sol\":1711:1768  require(loan.lender != address(0), \"Loan does not exist\") */\n      tag_63\n      jumpi\n      mload(0x40)\n      0x08c379a000000000000000000000000000000000000000000000000000000000\n      dup2\n      mstore\n      0x04\n      add\n      tag_64\n      swap1\n      tag_65\n      jump\t// in\n    tag_64:\n      mload(0x40)\n      dup1\n      swap2\n      sub\n      swap1\n      revert\n    tag_63:\n        /* \"Day-17/code1.sol\":1812:1813  0 */\n      0x00\n        /* \"Day-17/code1.sol\":1787:1814  loan.borrower == address(0) */\n      0xffffffffffffffffffffffffffffffffffffffff\n      and\n        /* \"Day-17/code1.sol\":1787:1791  loan */\n      dup2\n        /* \"Day-17/code1.sol\":1787:1800  loan.borrower */\n      0x01\n      add\n      0x00\n      swap1\n      sload\n      swap1\n      0x0100\n      exp\n      swap1\n      div\n      0xffffffffffffffffffffffffffffffffffffffff\n      and\n        /* \"Day-17/code1.sol\":1787:1814  loan.borrower == address(0) */\n      0xffffffffffffffffffffffffffffffffffffffff\n      and\n      eq\n        /* \"Day-17/code1.sol\":1779:1837  require(loan.borrower == address(0), \"Loan already taken\") */\n      tag_66\n      jumpi\n      mload(0x40)\n      0x08c379a000000000000000000000000000000000000000000000000000000000\n      dup2\n      mstore\n      0x04\n      add\n      tag_67\n      swap1\n      tag_68\n      jump\t// in\n    tag_67:\n      mload(0x40)\n      dup1\n      swap2\n      sub\n      swap1\n      revert\n    tag_66:\n        /* \"Day-17/code1.sol\":1857:1861  loan */\n      dup1\n        /* \"Day-17/code1.sol\":1857:1873  loan.isWithdrawn */\n      0x06\n      add\n      0x01\n      swap1\n      sload\n      swap1\n      0x0100\n      exp\n      swap1\n      div\n      0xff\n      and\n        /* \"Day-17/code1.sol\":1856:1873  !loan.isWithdrawn */\n      iszero\n        /* \"Day-17/code1.sol\":1848:1895  require(!loan.isWithdrawn, \"Already withdrawn\") */\n      tag_69\n      jumpi\n      mload(0x40)\n      0x08c379a000000000000000000000000000000000000000000000000000000000\n      dup2\n      mstore\n      0x04\n      add\n      tag_70\n      swap1\n      tag_57\n      jump\t// in\n    tag_70:\n      mload(0x40)\n      dup1\n      swap2\n      sub\n      swap1\n      revert\n    tag_69:\n        /* \"Day-17/code1.sol\":1926:1936  msg.sender */\n      caller\n        /* \"Day-17/code1.sol\":1910:1914  loan */\n      dup2\n        /* \"Day-17/code1.sol\":1910:1923  loan.borrower */\n      0x01\n      add\n      0x00\n        /* \"Day-17/code1.sol\":1910:1936  loan.borrower = msg.sender */\n      0x0100\n      exp\n      dup2\n      sload\n      dup2\n      0xffffffffffffffffffffffffffffffffffffffff\n      mul\n      not\n      and\n      swap1\n      dup4\n      0xffffffffffffffffffffffffffffffffffffffff\n      and\n      mul\n      or\n      swap1\n      sstore\n      pop\n        /* \"Day-17/code1.sol\":1969:1984  block.timestamp */\n      timestamp\n        /* \"Day-17/code1.sol\":1947:1951  loan */\n      dup2\n        /* \"Day-17/code1.sol\":1947:1966  loan.startTimestamp */\n      0x04\n      add\n        /* \"Day-17/code1.sol\":1947:1984  loan.startTimestamp = block.timestamp */\n      dup2\n      swap1\n      sstore\n      pop\n        /* \"Day-17/code1.sol\":2005:2015  msg.sender */\n      caller\n        /* \"Day-17/code1.sol\":1997:2025  payable(msg.sender).transfer */\n      0xffffffffffffffffffffffffffffffffffffffff\n      and\n        /* \"Day-17/code1.sol\":1997:2041  payable(msg.sender).transfer(loan.principal) */\n      0x08fc\n        /* \"Day-17/code1.sol\":2026:2030  loan */\n      dup3\n        /* \"Day-17/code1.sol\":2026:2040  loan.principal */\n      0x02\n      add\n      sload\n        /* \"Day-17/code1.sol\":1997:2041  payable(msg.sender).transfer(loan.principal) */\n      swap1\n      dup2\n      iszero\n      mul\n      swap1\n      mload(0x40)\n      0x00\n      mload(0x40)\n      dup1\n      dup4\n      sub\n      dup2\n      dup6\n      dup9\n      dup9\n      call\n      swap4\n      pop\n      pop\n      pop\n      pop\n      iszero\n      dup1\n      iszero\n      tag_72\n      jumpi\n      returndatasize\n      0x00\n      dup1\n      returndatacopy\n      revert(0x00, returndatasize)\n    tag_72:\n      pop\n        /* \"Day-17/code1.sol\":2077:2087  msg.sender */\n      caller\n        /* \"Day-17/code1.sol\":2059:2088  LoanTaken(loanId, msg.sender) */\n      0xffffffffffffffffffffffffffffffffffffffff\n      and\n        /* \"Day-17/code1.sol\":2069:2075  loanId */\n      dup3\n        /* \"Day-17/code1.sol\":2059:2088  LoanTaken(loanId, msg.sender) */\n      0xbac8b0df3257db5daa325139613958183ad538fab4981f5f37c0346b068e4c\n      mload(0x40)\n      mload(0x40)\n      dup1\n      swap2\n      sub\n      swap1\n      log3\n        /* \"Day-17/code1.sol\":1656:2096  {... */\n      pop\n        /* \"Day-17/code1.sol\":1614:2096  function takeLoan(uint256 loanId) external{... */\n      pop\n      jump\t// out\n        /* \"Day-17/code1.sol\":341:369  uint256 public loanIdCounter */\n    tag_22:\n      sload(0x00)\n      dup2\n      jump\t// out\n        /* \"Day-17/code1.sol\":2148:2792  function repayLoan(uint256 loanId) external payable {... */\n    tag_27:\n        /* \"Day-17/code1.sol\":2211:2228  Loan storage loan */\n      0x00\n        /* \"Day-17/code1.sol\":2231:2236  loans */\n      0x01\n        /* \"Day-17/code1.sol\":2231:2244  loans[loanId] */\n      0x00\n        /* \"Day-17/code1.sol\":2237:2243  loanId */\n      dup4\n        /* \"Day-17/code1.sol\":2231:2244  loans[loanId] */\n      dup2\n      mstore\n      0x20\n      add\n      swap1\n      dup2\n      mstore\n      0x20\n      add\n      0x00\n      keccak256\n        /* \"Day-17/code1.sol\":2211:2244  Loan storage loan = loans[loanId] */\n      swap1\n      pop\n        /* \"Day-17/code1.sol\":2277:2281  loan */\n      dup1\n        /* \"Day-17/code1.sol\":2277:2290  loan.borrower */\n      0x01\n      add\n      0x00\n      swap1\n      sload\n      swap1\n      0x0100\n      exp\n      swap1\n      div\n      0xffffffffffffffffffffffffffffffffffffffff\n      and\n        /* \"Day-17/code1.sol\":2263:2290  msg.sender == loan.borrower */\n      0xffffffffffffffffffffffffffffffffffffffff\n      and\n        /* \"Day-17/code1.sol\":2263:2273  msg.sender */\n      caller\n        /* \"Day-17/code1.sol\":2263:2290  msg.sender == loan.borrower */\n      0xffffffffffffffffffffffffffffffffffffffff\n      and\n      eq\n        /* \"Day-17/code1.sol\":2255:2307  require(msg.sender == loan.borrower, \"Not borrower\") */\n      tag_74\n      jumpi\n      mload(0x40)\n      0x08c379a000000000000000000000000000000000000000000000000000000000\n      dup2\n      mstore\n      0x04\n      add\n      tag_75\n      swap1\n      tag_76\n      jump\t// in\n    tag_75:\n      mload(0x40)\n      dup1\n      swap2\n      sub\n      swap1\n      revert\n    tag_74:\n        /* \"Day-17/code1.sol\":2327:2331  loan */\n      dup1\n        /* \"Day-17/code1.sol\":2327:2340  loan.isRepaid */\n      0x06\n      add\n      0x00\n      swap1\n      sload\n      swap1\n      0x0100\n      exp\n      swap1\n      div\n      0xff\n      and\n        /* \"Day-17/code1.sol\":2326:2340  !loan.isRepaid */\n      iszero\n        /* \"Day-17/code1.sol\":2318:2359  require(!loan.isRepaid, \"Already repaid\") */\n      tag_77\n      jumpi\n      mload(0x40)\n      0x08c379a000000000000000000000000000000000000000000000000000000000\n      dup2\n      mstore\n      0x04\n      add\n      tag_78\n      swap1\n      tag_79\n      jump\t// in\n    tag_78:\n      mload(0x40)\n      dup1\n      swap2\n      sub\n      swap1\n      revert\n    tag_77:\n        /* \"Day-17/code1.sol\":2400:2401  0 */\n      0x00\n        /* \"Day-17/code1.sol\":2378:2382  loan */\n      dup2\n        /* \"Day-17/code1.sol\":2378:2397  loan.startTimestamp */\n      0x04\n      add\n      sload\n        /* \"Day-17/code1.sol\":2378:2401  loan.startTimestamp > 0 */\n      gt\n        /* \"Day-17/code1.sol\":2370:2422  require(loan.startTimestamp > 0, \"Loan not started\") */\n      tag_80\n      jumpi\n      mload(0x40)\n      0x08c379a000000000000000000000000000000000000000000000000000000000\n      dup2\n      mstore\n      0x04\n      add\n      tag_81\n      swap1\n      tag_82\n      jump\t// in\n    tag_81:\n      mload(0x40)\n      dup1\n      swap2\n      sub\n      swap1\n      revert\n    tag_80:\n        /* \"Day-17/code1.sol\":2437:2453  uint256 totalDue */\n      0x00\n        /* \"Day-17/code1.sol\":2456:2483  getTotalRepayAmount(loanId) */\n      tag_83\n        /* \"Day-17/code1.sol\":2476:2482  loanId */\n      dup4\n        /* \"Day-17/code1.sol\":2456:2475  getTotalRepayAmount */\n      tag_31\n        /* \"Day-17/code1.sol\":2456:2483  getTotalRepayAmount(loanId) */\n      jump\t// in\n    tag_83:\n        /* \"Day-17/code1.sol\":2437:2483  uint256 totalDue = getTotalRepayAmount(loanId) */\n      swap1\n      pop\n        /* \"Day-17/code1.sol\":2515:2523  totalDue */\n      dup1\n        /* \"Day-17/code1.sol\":2502:2511  msg.value */\n      callvalue\n        /* \"Day-17/code1.sol\":2502:2523  msg.value >= totalDue */\n      lt\n      iszero\n        /* \"Day-17/code1.sol\":2494:2550  require(msg.value >= totalDue, \"Insufficient repayment\") */\n      tag_84\n      jumpi\n      mload(0x40)\n      0x08c379a000000000000000000000000000000000000000000000000000000000\n      dup2\n      mstore\n      0x04\n      add\n      tag_85\n      swap1\n      tag_86\n      jump\t// in\n    tag_85:\n      mload(0x40)\n      dup1\n      swap2\n      sub\n      swap1\n      revert\n    tag_84:\n        /* \"Day-17/code1.sol\":2578:2582  true */\n      0x01\n        /* \"Day-17/code1.sol\":2562:2566  loan */\n      dup3\n        /* \"Day-17/code1.sol\":2562:2575  loan.isRepaid */\n      0x06\n      add\n      0x00\n        /* \"Day-17/code1.sol\":2562:2582  loan.isRepaid = true */\n      0x0100\n      exp\n      dup2\n      sload\n      dup2\n      0xff\n      mul\n      not\n      and\n      swap1\n      dup4\n      iszero\n      iszero\n      mul\n      or\n      swap1\n      sstore\n      pop\n        /* \"Day-17/code1.sol\":2618:2628  msg.sender */\n      caller\n        /* \"Day-17/code1.sol\":2599:2640  LoanRepaid(loanId, msg.sender, msg.value) */\n      0xffffffffffffffffffffffffffffffffffffffff\n      and\n        /* \"Day-17/code1.sol\":2610:2616  loanId */\n      dup4\n        /* \"Day-17/code1.sol\":2599:2640  LoanRepaid(loanId, msg.sender, msg.value) */\n      0x512d3e65b3e58c2187bb1872aa435dba5bd09c1c03823ba56ab70aac411e4a21\n        /* \"Day-17/code1.sol\":2630:2639  msg.value */\n      callvalue\n        /* \"Day-17/code1.sol\":2599:2640  LoanRepaid(loanId, msg.sender, msg.value) */\n      mload(0x40)\n      tag_87\n      swap2\n      swap1\n      tag_24\n      jump\t// in\n    tag_87:\n      mload(0x40)\n      dup1\n      swap2\n      sub\n      swap1\n      log3\n        /* \"Day-17/code1.sol\":2703:2711  totalDue */\n      dup1\n        /* \"Day-17/code1.sol\":2691:2700  msg.value */\n      callvalue\n        /* \"Day-17/code1.sol\":2691:2711  msg.value > totalDue */\n      gt\n        /* \"Day-17/code1.sol\":2688:2784  if(msg.value > totalDue){... */\n      iszero\n      tag_88\n      jumpi\n        /* \"Day-17/code1.sol\":2731:2741  msg.sender */\n      caller\n        /* \"Day-17/code1.sol\":2723:2751  payable(msg.sender).transfer */\n      0xffffffffffffffffffffffffffffffffffffffff\n      and\n        /* \"Day-17/code1.sol\":2723:2773  payable(msg.sender).transfer(msg.value - totalDue) */\n      0x08fc\n        /* \"Day-17/code1.sol\":2764:2772  totalDue */\n      dup3\n        /* \"Day-17/code1.sol\":2752:2761  msg.value */\n      callvalue\n        /* \"Day-17/code1.sol\":2752:2772  msg.value - totalDue */\n      tag_89\n      swap2\n      swap1\n      tag_90\n      jump\t// in\n    tag_89:\n        /* \"Day-17/code1.sol\":2723:2773  payable(msg.sender).transfer(msg.value - totalDue) */\n      swap1\n      dup2\n      iszero\n      mul\n      swap1\n      mload(0x40)\n      0x00\n      mload(0x40)\n      dup1\n      dup4\n      sub\n      dup2\n      dup6\n      dup9\n      dup9\n      call\n      swap4\n      pop\n      pop\n      pop\n      pop\n      iszero\n      dup1\n      iszero\n      tag_92\n      jumpi\n      returndatasize\n      0x00\n      dup1\n      returndatacopy\n      revert(0x00, returndatasize)\n    tag_92:\n      pop\n        /* \"Day-17/code1.sol\":2688:2784  if(msg.value > totalDue){... */\n    tag_88:\n        /* \"Day-17/code1.sol\":2200:2792  {... */\n      pop\n      pop\n        /* \"Day-17/code1.sol\":2148:2792  function repayLoan(uint256 loanId) external payable {... */\n      pop\n      jump\t// out\n        /* \"Day-17/code1.sol\":3344:3984  function getTotalRepayAmount(uint256 loanId) public view returns(uint256){... */\n    tag_31:\n        /* \"Day-17/code1.sol\":3409:3416  uint256 */\n      0x00\n        /* \"Day-17/code1.sol\":3428:3445  Loan storage loan */\n      dup1\n        /* \"Day-17/code1.sol\":3448:3453  loans */\n      0x01\n        /* \"Day-17/code1.sol\":3448:3461  loans[loanId] */\n      0x00\n        /* \"Day-17/code1.sol\":3454:3460  loanId */\n      dup5\n        /* \"Day-17/code1.sol\":3448:3461  loans[loanId] */\n      dup2\n      mstore\n      0x20\n      add\n      swap1\n      dup2\n      mstore\n      0x20\n      add\n      0x00\n      keccak256\n        /* \"Day-17/code1.sol\":3428:3461  Loan storage loan = loans[loanId] */\n      swap1\n      pop\n        /* \"Day-17/code1.sol\":3503:3504  0 */\n      0x00\n        /* \"Day-17/code1.sol\":3480:3505  loan.lender != address(0) */\n      0xffffffffffffffffffffffffffffffffffffffff\n      and\n        /* \"Day-17/code1.sol\":3480:3484  loan */\n      dup2\n        /* \"Day-17/code1.sol\":3480:3491  loan.lender */\n      0x00\n      add\n      0x00\n      swap1\n      sload\n      swap1\n      0x0100\n      exp\n      swap1\n      div\n      0xffffffffffffffffffffffffffffffffffffffff\n      and\n        /* \"Day-17/code1.sol\":3480:3505  loan.lender != address(0) */\n      0xffffffffffffffffffffffffffffffffffffffff\n      and\n      sub\n        /* \"Day-17/code1.sol\":3472:3529  require(loan.lender != address(0), \"Loan does not exist\") */\n      tag_94\n      jumpi\n      mload(0x40)\n      0x08c379a000000000000000000000000000000000000000000000000000000000\n      dup2\n      mstore\n      0x04\n      add\n      tag_95\n      swap1\n      tag_65\n      jump\t// in\n    tag_95:\n      mload(0x40)\n      dup1\n      swap2\n      sub\n      swap1\n      revert\n    tag_94:\n        /* \"Day-17/code1.sol\":3570:3571  0 */\n      0x00\n        /* \"Day-17/code1.sol\":3548:3552  loan */\n      dup2\n        /* \"Day-17/code1.sol\":3548:3567  loan.startTimestamp */\n      0x04\n      add\n      sload\n        /* \"Day-17/code1.sol\":3548:3571  loan.startTimestamp > 0 */\n      gt\n        /* \"Day-17/code1.sol\":3540:3592  require(loan.startTimestamp > 0, \"Loan not started\") */\n      tag_96\n      jumpi\n      mload(0x40)\n      0x08c379a000000000000000000000000000000000000000000000000000000000\n      dup2\n      mstore\n      0x04\n      add\n      tag_97\n      swap1\n      tag_82\n      jump\t// in\n    tag_97:\n      mload(0x40)\n      dup1\n      swap2\n      sub\n      swap1\n      revert\n    tag_96:\n        /* \"Day-17/code1.sol\":3687:3706  uint256 timeElapsed */\n      0x00\n        /* \"Day-17/code1.sol\":3749:3753  loan */\n      dup2\n        /* \"Day-17/code1.sol\":3749:3762  loan.duration */\n      0x05\n      add\n      sload\n        /* \"Day-17/code1.sol\":3727:3731  loan */\n      dup3\n        /* \"Day-17/code1.sol\":3727:3746  loan.startTimestamp */\n      0x04\n      add\n      sload\n        /* \"Day-17/code1.sol\":3727:3762  loan.startTimestamp + loan.duration */\n      tag_98\n      swap2\n      swap1\n      tag_99\n      jump\t// in\n    tag_98:\n        /* \"Day-17/code1.sol\":3709:3724  block.timestamp */\n      timestamp\n        /* \"Day-17/code1.sol\":3709:3762  block.timestamp > loan.startTimestamp + loan.duration */\n      gt\n        /* \"Day-17/code1.sol\":3709:3836  block.timestamp > loan.startTimestamp + loan.duration... */\n      tag_100\n      jumpi\n        /* \"Day-17/code1.sol\":3817:3821  loan */\n      dup2\n        /* \"Day-17/code1.sol\":3817:3836  loan.startTimestamp */\n      0x04\n      add\n      sload\n        /* \"Day-17/code1.sol\":3799:3814  block.timestamp */\n      timestamp\n        /* \"Day-17/code1.sol\":3799:3836  block.timestamp - loan.startTimestamp */\n      tag_101\n      swap2\n      swap1\n      tag_90\n      jump\t// in\n    tag_101:\n        /* \"Day-17/code1.sol\":3709:3836  block.timestamp > loan.startTimestamp + loan.duration... */\n      jump(tag_102)\n    tag_100:\n        /* \"Day-17/code1.sol\":3774:3778  loan */\n      dup2\n        /* \"Day-17/code1.sol\":3774:3787  loan.duration */\n      0x05\n      add\n      sload\n        /* \"Day-17/code1.sol\":3709:3836  block.timestamp > loan.startTimestamp + loan.duration... */\n    tag_102:\n        /* \"Day-17/code1.sol\":3687:3836  uint256 timeElapsed = block.timestamp > loan.startTimestamp + loan.duration... */\n      swap1\n      pop\n        /* \"Day-17/code1.sol\":3849:3865  uint256 interest */\n      0x00\n        /* \"Day-17/code1.sol\":3925:3933  365 days */\n      0x01e13380\n        /* \"Day-17/code1.sol\":3919:3922  1e4 */\n      0x2710\n        /* \"Day-17/code1.sol\":3905:3916  timeElapsed */\n      dup4\n        /* \"Day-17/code1.sol\":3885:3889  loan */\n      dup6\n        /* \"Day-17/code1.sol\":3885:3902  loan.interestRate */\n      0x03\n      add\n      sload\n        /* \"Day-17/code1.sol\":3868:3872  loan */\n      dup7\n        /* \"Day-17/code1.sol\":3868:3882  loan.principal */\n      0x02\n      add\n      sload\n        /* \"Day-17/code1.sol\":3868:3902  loan.principal * loan.interestRate */\n      tag_103\n      swap2\n      swap1\n      tag_104\n      jump\t// in\n    tag_103:\n        /* \"Day-17/code1.sol\":3868:3916  loan.principal * loan.interestRate * timeElapsed */\n      tag_105\n      swap2\n      swap1\n      tag_104\n      jump\t// in\n    tag_105:\n        /* \"Day-17/code1.sol\":3868:3922  loan.principal * loan.interestRate * timeElapsed / 1e4 */\n      tag_106\n      swap2\n      swap1\n      tag_107\n      jump\t// in\n    tag_106:\n        /* \"Day-17/code1.sol\":3868:3933  loan.principal * loan.interestRate * timeElapsed / 1e4 / 365 days */\n      tag_108\n      swap2\n      swap1\n      tag_107\n      jump\t// in\n    tag_108:\n        /* \"Day-17/code1.sol\":3849:3933  uint256 interest = loan.principal * loan.interestRate * timeElapsed / 1e4 / 365 days */\n      swap1\n      pop\n        /* \"Day-17/code1.sol\":3968:3976  interest */\n      dup1\n        /* \"Day-17/code1.sol\":3951:3955  loan */\n      dup4\n        /* \"Day-17/code1.sol\":3951:3965  loan.principal */\n      0x02\n      add\n      sload\n        /* \"Day-17/code1.sol\":3951:3976  loan.principal + interest */\n      tag_109\n      swap2\n      swap1\n      tag_99\n      jump\t// in\n    tag_109:\n        /* \"Day-17/code1.sol\":3944:3976  return loan.principal + interest */\n      swap4\n      pop\n      pop\n      pop\n      pop\n        /* \"Day-17/code1.sol\":3344:3984  function getTotalRepayAmount(uint256 loanId) public view returns(uint256){... */\n      swap2\n      swap1\n      pop\n      jump\t// out\n        /* \"Day-17/code1.sol\":4054:4430  function cancelLoan(uint256 loanId) external {... */\n    tag_36:\n        /* \"Day-17/code1.sol\":4110:4127  Loan storage loan */\n      0x00\n        /* \"Day-17/code1.sol\":4130:4135  loans */\n      0x01\n        /* \"Day-17/code1.sol\":4130:4143  loans[loanId] */\n      0x00\n        /* \"Day-17/code1.sol\":4136:4142  loanId */\n      dup4\n        /* \"Day-17/code1.sol\":4130:4143  loans[loanId] */\n      dup2\n      mstore\n      0x20\n      add\n      swap1\n      dup2\n      mstore\n      0x20\n      add\n      0x00\n      keccak256\n        /* \"Day-17/code1.sol\":4110:4143  Loan storage loan = loans[loanId] */\n      swap1\n      pop\n        /* \"Day-17/code1.sol\":4176:4180  loan */\n      dup1\n        /* \"Day-17/code1.sol\":4176:4187  loan.lender */\n      0x00\n      add\n      0x00\n      swap1\n      sload\n      swap1\n      0x0100\n      exp\n      swap1\n      div\n      0xffffffffffffffffffffffffffffffffffffffff\n      and\n        /* \"Day-17/code1.sol\":4162:4187  msg.sender == loan.lender */\n      0xffffffffffffffffffffffffffffffffffffffff\n      and\n        /* \"Day-17/code1.sol\":4162:4172  msg.sender */\n      caller\n        /* \"Day-17/code1.sol\":4162:4187  msg.sender == loan.lender */\n      0xffffffffffffffffffffffffffffffffffffffff\n      and\n      eq\n        /* \"Day-17/code1.sol\":4154:4202  require(msg.sender == loan.lender, \"Not lender\") */\n      tag_111\n      jumpi\n      mload(0x40)\n      0x08c379a000000000000000000000000000000000000000000000000000000000\n      dup2\n      mstore\n      0x04\n      add\n      tag_112\n      swap1\n      tag_51\n      jump\t// in\n    tag_112:\n      mload(0x40)\n      dup1\n      swap2\n      sub\n      swap1\n      revert\n    tag_111:\n        /* \"Day-17/code1.sol\":4246:4247  0 */\n      0x00\n        /* \"Day-17/code1.sol\":4221:4248  loan.borrower == address(0) */\n      0xffffffffffffffffffffffffffffffffffffffff\n      and\n        /* \"Day-17/code1.sol\":4221:4225  loan */\n      dup2\n        /* \"Day-17/code1.sol\":4221:4234  loan.borrower */\n      0x01\n      add\n      0x00\n      swap1\n      sload\n      swap1\n      0x0100\n      exp\n      swap1\n      div\n      0xffffffffffffffffffffffffffffffffffffffff\n      and\n        /* \"Day-17/code1.sol\":4221:4248  loan.borrower == address(0) */\n      0xffffffffffffffffffffffffffffffffffffffff\n      and\n      eq\n        /* \"Day-17/code1.sol\":4213:4271  require(loan.borrower == address(0), \"Loan already taken\") */\n      tag_113\n      jumpi\n      mload(0x40)\n      0x08c379a000000000000000000000000000000000000000000000000000000000\n      dup2\n      mstore\n      0x04\n      add\n      tag_114\n      swap1\n      tag_68\n      jump\t// in\n    tag_114:\n      mload(0x40)\n      dup1\n      swap2\n      sub\n      swap1\n      revert\n    tag_113:\n        /* \"Day-17/code1.sol\":4291:4295  loan */\n      dup1\n        /* \"Day-17/code1.sol\":4291:4307  loan.isWithdrawn */\n      0x06\n      add\n      0x01\n      swap1\n      sload\n      swap1\n      0x0100\n      exp\n      swap1\n      div\n      0xff\n      and\n        /* \"Day-17/code1.sol\":4290:4307  !loan.isWithdrawn */\n      iszero\n        /* \"Day-17/code1.sol\":4282:4329  require(!loan.isWithdrawn, \"Already withdrawn\") */\n      tag_115\n      jumpi\n      mload(0x40)\n      0x08c379a000000000000000000000000000000000000000000000000000000000\n      dup2\n      mstore\n      0x04\n      add\n      tag_116\n      swap1\n      tag_57\n      jump\t// in\n    tag_116:\n      mload(0x40)\n      dup1\n      swap2\n      sub\n      swap1\n      revert\n    tag_115:\n        /* \"Day-17/code1.sol\":4361:4365  true */\n      0x01\n        /* \"Day-17/code1.sol\":4342:4346  loan */\n      dup2\n        /* \"Day-17/code1.sol\":4342:4358  loan.isWithdrawn */\n      0x06\n      add\n      0x01\n        /* \"Day-17/code1.sol\":4342:4365  loan.isWithdrawn = true */\n      0x0100\n      exp\n      dup2\n      sload\n      dup2\n      0xff\n      mul\n      not\n      and\n      swap1\n      dup4\n      iszero\n      iszero\n      mul\n      or\n      swap1\n      sstore\n      pop\n        /* \"Day-17/code1.sol\":4386:4396  msg.sender */\n      caller\n        /* \"Day-17/code1.sol\":4378:4406  payable(msg.sender).transfer */\n      0xffffffffffffffffffffffffffffffffffffffff\n      and\n        /* \"Day-17/code1.sol\":4378:4422  payable(msg.sender).transfer(loan.principal) */\n      0x08fc\n        /* \"Day-17/code1.sol\":4407:4411  loan */\n      dup3\n        /* \"Day-17/code1.sol\":4407:4421  loan.principal */\n      0x02\n      add\n      sload\n        /* \"Day-17/code1.sol\":4378:4422  payable(msg.sender).transfer(loan.principal) */\n      swap1\n      dup2\n      iszero\n      mul\n      swap1\n      mload(0x40)\n      0x00\n      mload(0x40)\n      dup1\n      dup4\n      sub\n      dup2\n      dup6\n      dup9\n      dup9\n      call\n      swap4\n      pop\n      pop\n      pop\n      pop\n      iszero\n      dup1\n      iszero\n      tag_118\n      jumpi\n      returndatasize\n      0x00\n      dup1\n      returndatacopy\n      revert(0x00, returndatasize)\n    tag_118:\n      pop\n        /* \"Day-17/code1.sol\":4099:4430  {... */\n      pop\n        /* \"Day-17/code1.sol\":4054:4430  function cancelLoan(uint256 loanId) external {... */\n      pop\n      jump\t// out\n        /* \"Day-17/code1.sol\":866:1577  function offerLoan(uint256 interestRateBps, uint256 durationSecs) external payable returns(uint256){... */\n    tag_40:\n        /* \"Day-17/code1.sol\":957:964  uint256 */\n      0x00\n        /* \"Day-17/code1.sol\":996:997  0 */\n      dup1\n        /* \"Day-17/code1.sol\":984:993  msg.value */\n      callvalue\n        /* \"Day-17/code1.sol\":984:997  msg.value > 0 */\n      gt\n        /* \"Day-17/code1.sol\":976:1015  require(msg.value > 0, \"No funds sent\") */\n      tag_120\n      jumpi\n      mload(0x40)\n      0x08c379a000000000000000000000000000000000000000000000000000000000\n      dup2\n      mstore\n      0x04\n      add\n      tag_121\n      swap1\n      tag_122\n      jump\t// in\n    tag_121:\n      mload(0x40)\n      dup1\n      swap2\n      sub\n      swap1\n      revert\n    tag_120:\n        /* \"Day-17/code1.sol\":1049:1050  0 */\n      0x00\n        /* \"Day-17/code1.sol\":1034:1046  durationSecs */\n      dup3\n        /* \"Day-17/code1.sol\":1034:1050  durationSecs > 0 */\n      gt\n        /* \"Day-17/code1.sol\":1026:1080  require(durationSecs > 0, \"Duration must be positive\") */\n      tag_123\n      jumpi\n      mload(0x40)\n      0x08c379a000000000000000000000000000000000000000000000000000000000\n      dup2\n      mstore\n      0x04\n      add\n      tag_124\n      swap1\n      tag_125\n      jump\t// in\n    tag_124:\n      mload(0x40)\n      dup1\n      swap2\n      sub\n      swap1\n      revert\n    tag_123:\n        /* \"Day-17/code1.sol\":1095:1108  loanIdCounter */\n      0x00\n      dup1\n        /* \"Day-17/code1.sol\":1095:1110  loanIdCounter++ */\n      dup2\n      sload\n      dup1\n      swap3\n      swap2\n      swap1\n      tag_126\n      swap1\n      tag_127\n      jump\t// in\n    tag_126:\n      swap2\n      swap1\n      pop\n      sstore\n      pop\n        /* \"Day-17/code1.sol\":1144:1440  Loan({... */\n      mload(0x40)\n      dup1\n      0x0100\n      add\n      0x40\n      mstore\n      dup1\n        /* \"Day-17/code1.sol\":1172:1182  msg.sender */\n      caller\n        /* \"Day-17/code1.sol\":1144:1440  Loan({... */\n      0xffffffffffffffffffffffffffffffffffffffff\n      and\n      dup2\n      mstore\n      0x20\n      add\n        /* \"Day-17/code1.sol\":1215:1216  0 */\n      0x00\n        /* \"Day-17/code1.sol\":1144:1440  Loan({... */\n      0xffffffffffffffffffffffffffffffffffffffff\n      and\n      dup2\n      mstore\n      0x20\n      add\n        /* \"Day-17/code1.sol\":1243:1252  msg.value */\n      callvalue\n        /* \"Day-17/code1.sol\":1144:1440  Loan({... */\n      dup2\n      mstore\n      0x20\n      add\n        /* \"Day-17/code1.sol\":1281:1296  interestRateBps */\n      dup5\n        /* \"Day-17/code1.sol\":1144:1440  Loan({... */\n      dup2\n      mstore\n      0x20\n      add\n        /* \"Day-17/code1.sol\":1327:1328  0 */\n      0x00\n        /* \"Day-17/code1.sol\":1144:1440  Loan({... */\n      dup2\n      mstore\n      0x20\n      add\n        /* \"Day-17/code1.sol\":1353:1365  durationSecs */\n      dup4\n        /* \"Day-17/code1.sol\":1144:1440  Loan({... */\n      dup2\n      mstore\n      0x20\n      add\n        /* \"Day-17/code1.sol\":1390:1395  false */\n      0x00\n        /* \"Day-17/code1.sol\":1144:1440  Loan({... */\n      iszero\n      iszero\n      dup2\n      mstore\n      0x20\n      add\n        /* \"Day-17/code1.sol\":1423:1428  false */\n      0x00\n        /* \"Day-17/code1.sol\":1144:1440  Loan({... */\n      iszero\n      iszero\n      dup2\n      mstore\n      pop\n        /* \"Day-17/code1.sol\":1121:1126  loans */\n      0x01\n        /* \"Day-17/code1.sol\":1121:1141  loans[loanIdCounter] */\n      0x00\n        /* \"Day-17/code1.sol\":1127:1140  loanIdCounter */\n      dup1\n      sload\n        /* \"Day-17/code1.sol\":1121:1141  loans[loanIdCounter] */\n      dup2\n      mstore\n      0x20\n      add\n      swap1\n      dup2\n      mstore\n      0x20\n      add\n      0x00\n      keccak256\n        /* \"Day-17/code1.sol\":1121:1440  loans[loanIdCounter] = Loan({... */\n      0x00\n      dup3\n      add\n      mload\n      dup2\n      0x00\n      add\n      exp(0x0100, 0x00)\n      dup2\n      sload\n      dup2\n      0xffffffffffffffffffffffffffffffffffffffff\n      mul\n      not\n      and\n      swap1\n      dup4\n      0xffffffffffffffffffffffffffffffffffffffff\n      and\n      mul\n      or\n      swap1\n      sstore\n      pop\n      0x20\n      dup3\n      add\n      mload\n      dup2\n      0x01\n      add\n      exp(0x0100, 0x00)\n      dup2\n      sload\n      dup2\n      0xffffffffffffffffffffffffffffffffffffffff\n      mul\n      not\n      and\n      swap1\n      dup4\n      0xffffffffffffffffffffffffffffffffffffffff\n      and\n      mul\n      or\n      swap1\n      sstore\n      pop\n      0x40\n      dup3\n      add\n      mload\n      dup2\n      0x02\n      add\n      sstore\n      0x60\n      dup3\n      add\n      mload\n      dup2\n      0x03\n      add\n      sstore\n      0x80\n      dup3\n      add\n      mload\n      dup2\n      0x04\n      add\n      sstore\n      0xa0\n      dup3\n      add\n      mload\n      dup2\n      0x05\n      add\n      sstore\n      0xc0\n      dup3\n      add\n      mload\n      dup2\n      0x06\n      add\n      exp(0x0100, 0x00)\n      dup2\n      sload\n      dup2\n      0xff\n      mul\n      not\n      and\n      swap1\n      dup4\n      iszero\n      iszero\n      mul\n      or\n      swap1\n      sstore\n      pop\n      0xe0\n      dup3\n      add\n      mload\n      dup2\n      0x06\n      add\n      exp(0x0100, 0x01)\n      dup2\n      sload\n      dup2\n      0xff\n      mul\n      not\n      and\n      swap1\n      dup4\n      iszero\n      iszero\n      mul\n      or\n      swap1\n      sstore\n      pop\n      swap1\n      pop\n      pop\n        /* \"Day-17/code1.sol\":1485:1495  msg.sender */\n      caller\n        /* \"Day-17/code1.sol\":1458:1538  LoanOffered(loanIdCounter, msg.sender, msg.value, interestRateBps, durationSecs) */\n      0xffffffffffffffffffffffffffffffffffffffff\n      and\n        /* \"Day-17/code1.sol\":1470:1483  loanIdCounter */\n      sload(0x00)\n        /* \"Day-17/code1.sol\":1458:1538  LoanOffered(loanIdCounter, msg.sender, msg.value, interestRateBps, durationSecs) */\n      0xe0db5667ac702f891c2469f5758854ecd1c0bf57ffb0a65e7433e8d5db39f59e\n        /* \"Day-17/code1.sol\":1497:1506  msg.value */\n      callvalue\n        /* \"Day-17/code1.sol\":1508:1523  interestRateBps */\n      dup7\n        /* \"Day-17/code1.sol\":1525:1537  durationSecs */\n      dup7\n        /* \"Day-17/code1.sol\":1458:1538  LoanOffered(loanIdCounter, msg.sender, msg.value, interestRateBps, durationSecs) */\n      mload(0x40)\n      tag_128\n      swap4\n      swap3\n      swap2\n      swap1\n      tag_129\n      jump\t// in\n    tag_128:\n      mload(0x40)\n      dup1\n      swap2\n      sub\n      swap1\n      log3\n        /* \"Day-17/code1.sol\":1556:1569  loanIdCounter */\n      sload(0x00)\n        /* \"Day-17/code1.sol\":1549:1569  return loanIdCounter */\n      swap1\n      pop\n        /* \"Day-17/code1.sol\":866:1577  function offerLoan(uint256 interestRateBps, uint256 durationSecs) external payable returns(uint256){... */\n      swap3\n      swap2\n      pop\n      pop\n      jump\t// out\n        /* \"Day-17/code1.sol\":376:412  mapping(uint256=> Loan) public loans */\n    tag_45:\n      mstore(0x20, 0x01)\n      dup1\n      0x00\n      mstore\n      keccak256(0x00, 0x40)\n      0x00\n      swap2\n      pop\n      swap1\n      pop\n      dup1\n      0x00\n      add\n      0x00\n      swap1\n      sload\n      swap1\n      0x0100\n      exp\n      swap1\n      div\n      0xffffffffffffffffffffffffffffffffffffffff\n      and\n      swap1\n      dup1\n      0x01\n      add\n      0x00\n      swap1\n      sload\n      swap1\n      0x0100\n      exp\n      swap1\n      div\n      0xffffffffffffffffffffffffffffffffffffffff\n      and\n      swap1\n      dup1\n      0x02\n      add\n      sload\n      swap1\n      dup1\n      0x03\n      add\n      sload\n      swap1\n      dup1\n      0x04\n      add\n      sload\n      swap1\n      dup1\n      0x05\n      add\n      sload\n      swap1\n      dup1\n      0x06\n      add\n      0x00\n      swap1\n      sload\n      swap1\n      0x0100\n      exp\n      swap1\n      div\n      0xff\n      and\n      swap1\n      dup1\n      0x06\n      add\n      0x01\n      swap1\n      sload\n      swap1\n      0x0100\n      exp\n      swap1\n      div\n      0xff\n      and\n      swap1\n      pop\n      dup9\n      jump\t// out\n        /* \"#utility.yul\":88:205   */\n    tag_131:\n        /* \"#utility.yul\":197:198   */\n      0x00\n        /* \"#utility.yul\":194:195   */\n      dup1\n        /* \"#utility.yul\":187:199   */\n      revert\n        /* \"#utility.yul\":334:411   */\n    tag_133:\n        /* \"#utility.yul\":371:378   */\n      0x00\n        /* \"#utility.yul\":400:405   */\n      dup2\n        /* \"#utility.yul\":389:405   */\n      swap1\n      pop\n        /* \"#utility.yul\":334:411   */\n      swap2\n      swap1\n      pop\n      jump\t// out\n        /* \"#utility.yul\":417:539   */\n    tag_134:\n        /* \"#utility.yul\":490:514   */\n      tag_173\n        /* \"#utility.yul\":508:513   */\n      dup2\n        /* \"#utility.yul\":490:514   */\n      tag_133\n      jump\t// in\n    tag_173:\n        /* \"#utility.yul\":483:488   */\n      dup2\n        /* \"#utility.yul\":480:515   */\n      eq\n        /* \"#utility.yul\":470:533   */\n      tag_174\n      jumpi\n        /* \"#utility.yul\":529:530   */\n      0x00\n        /* \"#utility.yul\":526:527   */\n      dup1\n        /* \"#utility.yul\":519:531   */\n      revert\n        /* \"#utility.yul\":470:533   */\n    tag_174:\n        /* \"#utility.yul\":417:539   */\n      pop\n      jump\t// out\n        /* \"#utility.yul\":545:684   */\n    tag_135:\n        /* \"#utility.yul\":591:596   */\n      0x00\n        /* \"#utility.yul\":629:635   */\n      dup2\n        /* \"#utility.yul\":616:636   */\n      calldataload\n        /* \"#utility.yul\":607:636   */\n      swap1\n      pop\n        /* \"#utility.yul\":645:678   */\n      tag_176\n        /* \"#utility.yul\":672:677   */\n      dup2\n        /* \"#utility.yul\":645:678   */\n      tag_134\n      jump\t// in\n    tag_176:\n        /* \"#utility.yul\":545:684   */\n      swap3\n      swap2\n      pop\n      pop\n      jump\t// out\n        /* \"#utility.yul\":690:1019   */\n    tag_14:\n        /* \"#utility.yul\":749:755   */\n      0x00\n        /* \"#utility.yul\":798:800   */\n      0x20\n        /* \"#utility.yul\":786:795   */\n      dup3\n        /* \"#utility.yul\":777:784   */\n      dup5\n        /* \"#utility.yul\":773:796   */\n      sub\n        /* \"#utility.yul\":769:801   */\n      slt\n        /* \"#utility.yul\":766:885   */\n      iszero\n      tag_178\n      jumpi\n        /* \"#utility.yul\":804:883   */\n      tag_179\n      tag_131\n      jump\t// in\n    tag_179:\n        /* \"#utility.yul\":766:885   */\n    tag_178:\n        /* \"#utility.yul\":924:925   */\n      0x00\n        /* \"#utility.yul\":949:1002   */\n      tag_180\n        /* \"#utility.yul\":994:1001   */\n      dup5\n        /* \"#utility.yul\":985:991   */\n      dup3\n        /* \"#utility.yul\":974:983   */\n      dup6\n        /* \"#utility.yul\":970:992   */\n      add\n        /* \"#utility.yul\":949:1002   */\n      tag_135\n      jump\t// in\n    tag_180:\n        /* \"#utility.yul\":939:1002   */\n      swap2\n      pop\n        /* \"#utility.yul\":895:1012   */\n      pop\n        /* \"#utility.yul\":690:1019   */\n      swap3\n      swap2\n      pop\n      pop\n      jump\t// out\n        /* \"#utility.yul\":1025:1143   */\n    tag_136:\n        /* \"#utility.yul\":1112:1136   */\n      tag_182\n        /* \"#utility.yul\":1130:1135   */\n      dup2\n        /* \"#utility.yul\":1112:1136   */\n      tag_133\n      jump\t// in\n    tag_182:\n        /* \"#utility.yul\":1107:1110   */\n      dup3\n        /* \"#utility.yul\":1100:1137   */\n      mstore\n        /* \"#utility.yul\":1025:1143   */\n      pop\n      pop\n      jump\t// out\n        /* \"#utility.yul\":1149:1371   */\n    tag_24:\n        /* \"#utility.yul\":1242:1246   */\n      0x00\n        /* \"#utility.yul\":1280:1282   */\n      0x20\n        /* \"#utility.yul\":1269:1278   */\n      dup3\n        /* \"#utility.yul\":1265:1283   */\n      add\n        /* \"#utility.yul\":1257:1283   */\n      swap1\n      pop\n        /* \"#utility.yul\":1293:1364   */\n      tag_184\n        /* \"#utility.yul\":1361:1362   */\n      0x00\n        /* \"#utility.yul\":1350:1359   */\n      dup4\n        /* \"#utility.yul\":1346:1363   */\n      add\n        /* \"#utility.yul\":1337:1343   */\n      dup5\n        /* \"#utility.yul\":1293:1364   */\n      tag_136\n      jump\t// in\n    tag_184:\n        /* \"#utility.yul\":1149:1371   */\n      swap3\n      swap2\n      pop\n      pop\n      jump\t// out\n        /* \"#utility.yul\":1377:1851   */\n    tag_39:\n        /* \"#utility.yul\":1445:1451   */\n      0x00\n        /* \"#utility.yul\":1453:1459   */\n      dup1\n        /* \"#utility.yul\":1502:1504   */\n      0x40\n        /* \"#utility.yul\":1490:1499   */\n      dup4\n        /* \"#utility.yul\":1481:1488   */\n      dup6\n        /* \"#utility.yul\":1477:1500   */\n      sub\n        /* \"#utility.yul\":1473:1505   */\n      slt\n        /* \"#utility.yul\":1470:1589   */\n      iszero\n      tag_186\n      jumpi\n        /* \"#utility.yul\":1508:1587   */\n      tag_187\n      tag_131\n      jump\t// in\n    tag_187:\n        /* \"#utility.yul\":1470:1589   */\n    tag_186:\n        /* \"#utility.yul\":1628:1629   */\n      0x00\n        /* \"#utility.yul\":1653:1706   */\n      tag_188\n        /* \"#utility.yul\":1698:1705   */\n      dup6\n        /* \"#utility.yul\":1689:1695   */\n      dup3\n        /* \"#utility.yul\":1678:1687   */\n      dup7\n        /* \"#utility.yul\":1674:1696   */\n      add\n        /* \"#utility.yul\":1653:1706   */\n      tag_135\n      jump\t// in\n    tag_188:\n        /* \"#utility.yul\":1643:1706   */\n      swap3\n      pop\n        /* \"#utility.yul\":1599:1716   */\n      pop\n        /* \"#utility.yul\":1755:1757   */\n      0x20\n        /* \"#utility.yul\":1781:1834   */\n      tag_189\n        /* \"#utility.yul\":1826:1833   */\n      dup6\n        /* \"#utility.yul\":1817:1823   */\n      dup3\n        /* \"#utility.yul\":1806:1815   */\n      dup7\n        /* \"#utility.yul\":1802:1824   */\n      add\n        /* \"#utility.yul\":1781:1834   */\n      tag_135\n      jump\t// in\n    tag_189:\n        /* \"#utility.yul\":1771:1834   */\n      swap2\n      pop\n        /* \"#utility.yul\":1726:1844   */\n      pop\n        /* \"#utility.yul\":1377:1851   */\n      swap3\n      pop\n      swap3\n      swap1\n      pop\n      jump\t// out\n        /* \"#utility.yul\":1857:1983   */\n    tag_137:\n        /* \"#utility.yul\":1894:1901   */\n      0x00\n        /* \"#utility.yul\":1934:1976   */\n      0xffffffffffffffffffffffffffffffffffffffff\n        /* \"#utility.yul\":1927:1932   */\n      dup3\n        /* \"#utility.yul\":1923:1977   */\n      and\n        /* \"#utility.yul\":1912:1977   */\n      swap1\n      pop\n        /* \"#utility.yul\":1857:1983   */\n      swap2\n      swap1\n      pop\n      jump\t// out\n        /* \"#utility.yul\":1989:2085   */\n    tag_138:\n        /* \"#utility.yul\":2026:2033   */\n      0x00\n        /* \"#utility.yul\":2055:2079   */\n      tag_192\n        /* \"#utility.yul\":2073:2078   */\n      dup3\n        /* \"#utility.yul\":2055:2079   */\n      tag_137\n      jump\t// in\n    tag_192:\n        /* \"#utility.yul\":2044:2079   */\n      swap1\n      pop\n        /* \"#utility.yul\":1989:2085   */\n      swap2\n      swap1\n      pop\n      jump\t// out\n        /* \"#utility.yul\":2091:2209   */\n    tag_139:\n        /* \"#utility.yul\":2178:2202   */\n      tag_194\n        /* \"#utility.yul\":2196:2201   */\n      dup2\n        /* \"#utility.yul\":2178:2202   */\n      tag_138\n      jump\t// in\n    tag_194:\n        /* \"#utility.yul\":2173:2176   */\n      dup3\n        /* \"#utility.yul\":2166:2203   */\n      mstore\n        /* \"#utility.yul\":2091:2209   */\n      pop\n      pop\n      jump\t// out\n        /* \"#utility.yul\":2215:2305   */\n    tag_140:\n        /* \"#utility.yul\":2249:2256   */\n      0x00\n        /* \"#utility.yul\":2292:2297   */\n      dup2\n        /* \"#utility.yul\":2285:2298   */\n      iszero\n        /* \"#utility.yul\":2278:2299   */\n      iszero\n        /* \"#utility.yul\":2267:2299   */\n      swap1\n      pop\n        /* \"#utility.yul\":2215:2305   */\n      swap2\n      swap1\n      pop\n      jump\t// out\n        /* \"#utility.yul\":2311:2420   */\n    tag_141:\n        /* \"#utility.yul\":2392:2413   */\n      tag_197\n        /* \"#utility.yul\":2407:2412   */\n      dup2\n        /* \"#utility.yul\":2392:2413   */\n      tag_140\n      jump\t// in\n    tag_197:\n        /* \"#utility.yul\":2387:2390   */\n      dup3\n        /* \"#utility.yul\":2380:2414   */\n      mstore\n        /* \"#utility.yul\":2311:2420   */\n      pop\n      pop\n      jump\t// out\n        /* \"#utility.yul\":2426:3399   */\n    tag_47:\n        /* \"#utility.yul\":2703:2707   */\n      0x00\n        /* \"#utility.yul\":2741:2744   */\n      0x0100\n        /* \"#utility.yul\":2730:2739   */\n      dup3\n        /* \"#utility.yul\":2726:2745   */\n      add\n        /* \"#utility.yul\":2718:2745   */\n      swap1\n      pop\n        /* \"#utility.yul\":2755:2826   */\n      tag_199\n        /* \"#utility.yul\":2823:2824   */\n      0x00\n        /* \"#utility.yul\":2812:2821   */\n      dup4\n        /* \"#utility.yul\":2808:2825   */\n      add\n        /* \"#utility.yul\":2799:2805   */\n      dup12\n        /* \"#utility.yul\":2755:2826   */\n      tag_139\n      jump\t// in\n    tag_199:\n        /* \"#utility.yul\":2836:2908   */\n      tag_200\n        /* \"#utility.yul\":2904:2906   */\n      0x20\n        /* \"#utility.yul\":2893:2902   */\n      dup4\n        /* \"#utility.yul\":2889:2907   */\n      add\n        /* \"#utility.yul\":2880:2886   */\n      dup11\n        /* \"#utility.yul\":2836:2908   */\n      tag_139\n      jump\t// in\n    tag_200:\n        /* \"#utility.yul\":2918:2990   */\n      tag_201\n        /* \"#utility.yul\":2986:2988   */\n      0x40\n        /* \"#utility.yul\":2975:2984   */\n      dup4\n        /* \"#utility.yul\":2971:2989   */\n      add\n        /* \"#utility.yul\":2962:2968   */\n      dup10\n        /* \"#utility.yul\":2918:2990   */\n      tag_136\n      jump\t// in\n    tag_201:\n        /* \"#utility.yul\":3000:3072   */\n      tag_202\n        /* \"#utility.yul\":3068:3070   */\n      0x60\n        /* \"#utility.yul\":3057:3066   */\n      dup4\n        /* \"#utility.yul\":3053:3071   */\n      add\n        /* \"#utility.yul\":3044:3050   */\n      dup9\n        /* \"#utility.yul\":3000:3072   */\n      tag_136\n      jump\t// in\n    tag_202:\n        /* \"#utility.yul\":3082:3155   */\n      tag_203\n        /* \"#utility.yul\":3150:3153   */\n      0x80\n        /* \"#utility.yul\":3139:3148   */\n      dup4\n        /* \"#utility.yul\":3135:3154   */\n      add\n        /* \"#utility.yul\":3126:3132   */\n      dup8\n        /* \"#utility.yul\":3082:3155   */\n      tag_136\n      jump\t// in\n    tag_203:\n        /* \"#utility.yul\":3165:3238   */\n      tag_204\n        /* \"#utility.yul\":3233:3236   */\n      0xa0\n        /* \"#utility.yul\":3222:3231   */\n      dup4\n        /* \"#utility.yul\":3218:3237   */\n      add\n        /* \"#utility.yul\":3209:3215   */\n      dup7\n        /* \"#utility.yul\":3165:3238   */\n      tag_136\n      jump\t// in\n    tag_204:\n        /* \"#utility.yul\":3248:3315   */\n      tag_205\n        /* \"#utility.yul\":3310:3313   */\n      0xc0\n        /* \"#utility.yul\":3299:3308   */\n      dup4\n        /* \"#utility.yul\":3295:3314   */\n      add\n        /* \"#utility.yul\":3286:3292   */\n      dup6\n        /* \"#utility.yul\":3248:3315   */\n      tag_141\n      jump\t// in\n    tag_205:\n        /* \"#utility.yul\":3325:3392   */\n      tag_206\n        /* \"#utility.yul\":3387:3390   */\n      0xe0\n        /* \"#utility.yul\":3376:3385   */\n      dup4\n        /* \"#utility.yul\":3372:3391   */\n      add\n        /* \"#utility.yul\":3363:3369   */\n      dup5\n        /* \"#utility.yul\":3325:3392   */\n      tag_141\n      jump\t// in\n    tag_206:\n        /* \"#utility.yul\":2426:3399   */\n      swap10\n      swap9\n      pop\n      pop\n      pop\n      pop\n      pop\n      pop\n      pop\n      pop\n      pop\n      jump\t// out\n        /* \"#utility.yul\":3405:3574   */\n    tag_142:\n        /* \"#utility.yul\":3489:3500   */\n      0x00\n        /* \"#utility.yul\":3523:3529   */\n      dup3\n        /* \"#utility.yul\":3518:3521   */\n      dup3\n        /* \"#utility.yul\":3511:3530   */\n      mstore\n        /* \"#utility.yul\":3563:3567   */\n      0x20\n        /* \"#utility.yul\":3558:3561   */\n      dup3\n        /* \"#utility.yul\":3554:3568   */\n      add\n        /* \"#utility.yul\":3539:3568   */\n      swap1\n      pop\n        /* \"#utility.yul\":3405:3574   */\n      swap3\n      swap2\n      pop\n      pop\n      jump\t// out\n        /* \"#utility.yul\":3580:3740   */\n    tag_143:\n        /* \"#utility.yul\":3720:3732   */\n      0x4e6f74206c656e64657200000000000000000000000000000000000000000000\n        /* \"#utility.yul\":3716:3717   */\n      0x00\n        /* \"#utility.yul\":3708:3714   */\n      dup3\n        /* \"#utility.yul\":3704:3718   */\n      add\n        /* \"#utility.yul\":3697:3733   */\n      mstore\n        /* \"#utility.yul\":3580:3740   */\n      pop\n      jump\t// out\n        /* \"#utility.yul\":3746:4112   */\n    tag_144:\n        /* \"#utility.yul\":3888:3891   */\n      0x00\n        /* \"#utility.yul\":3909:3976   */\n      tag_210\n        /* \"#utility.yul\":3973:3975   */\n      0x0a\n        /* \"#utility.yul\":3968:3971   */\n      dup4\n        /* \"#utility.yul\":3909:3976   */\n      tag_142\n      jump\t// in\n    tag_210:\n        /* \"#utility.yul\":3902:3976   */\n      swap2\n      pop\n        /* \"#utility.yul\":3985:4078   */\n      tag_211\n        /* \"#utility.yul\":4074:4077   */\n      dup3\n        /* \"#utility.yul\":3985:4078   */\n      tag_143\n      jump\t// in\n    tag_211:\n        /* \"#utility.yul\":4103:4105   */\n      0x20\n        /* \"#utility.yul\":4098:4101   */\n      dup3\n        /* \"#utility.yul\":4094:4106   */\n      add\n        /* \"#utility.yul\":4087:4106   */\n      swap1\n      pop\n        /* \"#utility.yul\":3746:4112   */\n      swap2\n      swap1\n      pop\n      jump\t// out\n        /* \"#utility.yul\":4118:4537   */\n    tag_51:\n        /* \"#utility.yul\":4284:4288   */\n      0x00\n        /* \"#utility.yul\":4322:4324   */\n      0x20\n        /* \"#utility.yul\":4311:4320   */\n      dup3\n        /* \"#utility.yul\":4307:4325   */\n      add\n        /* \"#utility.yul\":4299:4325   */\n      swap1\n      pop\n        /* \"#utility.yul\":4371:4380   */\n      dup2\n        /* \"#utility.yul\":4365:4369   */\n      dup2\n        /* \"#utility.yul\":4361:4381   */\n      sub\n        /* \"#utility.yul\":4357:4358   */\n      0x00\n        /* \"#utility.yul\":4346:4355   */\n      dup4\n        /* \"#utility.yul\":4342:4359   */\n      add\n        /* \"#utility.yul\":4335:4382   */\n      mstore\n        /* \"#utility.yul\":4399:4530   */\n      tag_213\n        /* \"#utility.yul\":4525:4529   */\n      dup2\n        /* \"#utility.yul\":4399:4530   */\n      tag_144\n      jump\t// in\n    tag_213:\n        /* \"#utility.yul\":4391:4530   */\n      swap1\n      pop\n        /* \"#utility.yul\":4118:4537   */\n      swap2\n      swap1\n      pop\n      jump\t// out\n        /* \"#utility.yul\":4543:4707   */\n    tag_145:\n        /* \"#utility.yul\":4683:4699   */\n      0x4e6f742072657061696420796574000000000000000000000000000000000000\n        /* \"#utility.yul\":4679:4680   */\n      0x00\n        /* \"#utility.yul\":4671:4677   */\n      dup3\n        /* \"#utility.yul\":4667:4681   */\n      add\n        /* \"#utility.yul\":4660:4700   */\n      mstore\n        /* \"#utility.yul\":4543:4707   */\n      pop\n      jump\t// out\n        /* \"#utility.yul\":4713:5079   */\n    tag_146:\n        /* \"#utility.yul\":4855:4858   */\n      0x00\n        /* \"#utility.yul\":4876:4943   */\n      tag_216\n        /* \"#utility.yul\":4940:4942   */\n      0x0e\n        /* \"#utility.yul\":4935:4938   */\n      dup4\n        /* \"#utility.yul\":4876:4943   */\n      tag_142\n      jump\t// in\n    tag_216:\n        /* \"#utility.yul\":4869:4943   */\n      swap2\n      pop\n        /* \"#utility.yul\":4952:5045   */\n      tag_217\n        /* \"#utility.yul\":5041:5044   */\n      dup3\n        /* \"#utility.yul\":4952:5045   */\n      tag_145\n      jump\t// in\n    tag_217:\n        /* \"#utility.yul\":5070:5072   */\n      0x20\n        /* \"#utility.yul\":5065:5068   */\n      dup3\n        /* \"#utility.yul\":5061:5073   */\n      add\n        /* \"#utility.yul\":5054:5073   */\n      swap1\n      pop\n        /* \"#utility.yul\":4713:5079   */\n      swap2\n      swap1\n      pop\n      jump\t// out\n        /* \"#utility.yul\":5085:5504   */\n    tag_54:\n        /* \"#utility.yul\":5251:5255   */\n      0x00\n        /* \"#utility.yul\":5289:5291   */\n      0x20\n        /* \"#utility.yul\":5278:5287   */\n      dup3\n        /* \"#utility.yul\":5274:5292   */\n      add\n        /* \"#utility.yul\":5266:5292   */\n      swap1\n      pop\n        /* \"#utility.yul\":5338:5347   */\n      dup2\n        /* \"#utility.yul\":5332:5336   */\n      dup2\n        /* \"#utility.yul\":5328:5348   */\n      sub\n        /* \"#utility.yul\":5324:5325   */\n      0x00\n        /* \"#utility.yul\":5313:5322   */\n      dup4\n        /* \"#utility.yul\":5309:5326   */\n      add\n        /* \"#utility.yul\":5302:5349   */\n      mstore\n        /* \"#utility.yul\":5366:5497   */\n      tag_219\n        /* \"#utility.yul\":5492:5496   */\n      dup2\n        /* \"#utility.yul\":5366:5497   */\n      tag_146\n      jump\t// in\n    tag_219:\n        /* \"#utility.yul\":5358:5497   */\n      swap1\n      pop\n        /* \"#utility.yul\":5085:5504   */\n      swap2\n      swap1\n      pop\n      jump\t// out\n        /* \"#utility.yul\":5510:5677   */\n    tag_147:\n        /* \"#utility.yul\":5650:5669   */\n      0x416c72656164792077697468647261776e000000000000000000000000000000\n        /* \"#utility.yul\":5646:5647   */\n      0x00\n        /* \"#utility.yul\":5638:5644   */\n      dup3\n        /* \"#utility.yul\":5634:5648   */\n      add\n        /* \"#utility.yul\":5627:5670   */\n      mstore\n        /* \"#utility.yul\":5510:5677   */\n      pop\n      jump\t// out\n        /* \"#utility.yul\":5683:6049   */\n    tag_148:\n        /* \"#utility.yul\":5825:5828   */\n      0x00\n        /* \"#utility.yul\":5846:5913   */\n      tag_222\n        /* \"#utility.yul\":5910:5912   */\n      0x11\n        /* \"#utility.yul\":5905:5908   */\n      dup4\n        /* \"#utility.yul\":5846:5913   */\n      tag_142\n      jump\t// in\n    tag_222:\n        /* \"#utility.yul\":5839:5913   */\n      swap2\n      pop\n        /* \"#utility.yul\":5922:6015   */\n      tag_223\n        /* \"#utility.yul\":6011:6014   */\n      dup3\n        /* \"#utility.yul\":5922:6015   */\n      tag_147\n      jump\t// in\n    tag_223:\n        /* \"#utility.yul\":6040:6042   */\n      0x20\n        /* \"#utility.yul\":6035:6038   */\n      dup3\n        /* \"#utility.yul\":6031:6043   */\n      add\n        /* \"#utility.yul\":6024:6043   */\n      swap1\n      pop\n        /* \"#utility.yul\":5683:6049   */\n      swap2\n      swap1\n      pop\n      jump\t// out\n        /* \"#utility.yul\":6055:6474   */\n    tag_57:\n        /* \"#utility.yul\":6221:6225   */\n      0x00\n        /* \"#utility.yul\":6259:6261   */\n      0x20\n        /* \"#utility.yul\":6248:6257   */\n      dup3\n        /* \"#utility.yul\":6244:6262   */\n      add\n        /* \"#utility.yul\":6236:6262   */\n      swap1\n      pop\n        /* \"#utility.yul\":6308:6317   */\n      dup2\n        /* \"#utility.yul\":6302:6306   */\n      dup2\n        /* \"#utility.yul\":6298:6318   */\n      sub\n        /* \"#utility.yul\":6294:6295   */\n      0x00\n        /* \"#utility.yul\":6283:6292   */\n      dup4\n        /* \"#utility.yul\":6279:6296   */\n      add\n        /* \"#utility.yul\":6272:6319   */\n      mstore\n        /* \"#utility.yul\":6336:6467   */\n      tag_225\n        /* \"#utility.yul\":6462:6466   */\n      dup2\n        /* \"#utility.yul\":6336:6467   */\n      tag_148\n      jump\t// in\n    tag_225:\n        /* \"#utility.yul\":6328:6467   */\n      swap1\n      pop\n        /* \"#utility.yul\":6055:6474   */\n      swap2\n      swap1\n      pop\n      jump\t// out\n        /* \"#utility.yul\":6480:6649   */\n    tag_149:\n        /* \"#utility.yul\":6620:6641   */\n      0x4c6f616e20646f6573206e6f7420657869737400000000000000000000000000\n        /* \"#utility.yul\":6616:6617   */\n      0x00\n        /* \"#utility.yul\":6608:6614   */\n      dup3\n        /* \"#utility.yul\":6604:6618   */\n      add\n        /* \"#utility.yul\":6597:6642   */\n      mstore\n        /* \"#utility.yul\":6480:6649   */\n      pop\n      jump\t// out\n        /* \"#utility.yul\":6655:7021   */\n    tag_150:\n        /* \"#utility.yul\":6797:6800   */\n      0x00\n        /* \"#utility.yul\":6818:6885   */\n      tag_228\n        /* \"#utility.yul\":6882:6884   */\n      0x13\n        /* \"#utility.yul\":6877:6880   */\n      dup4\n        /* \"#utility.yul\":6818:6885   */\n      tag_142\n      jump\t// in\n    tag_228:\n        /* \"#utility.yul\":6811:6885   */\n      swap2\n      pop\n        /* \"#utility.yul\":6894:6987   */\n      tag_229\n        /* \"#utility.yul\":6983:6986   */\n      dup3\n        /* \"#utility.yul\":6894:6987   */\n      tag_149\n      jump\t// in\n    tag_229:\n        /* \"#utility.yul\":7012:7014   */\n      0x20\n        /* \"#utility.yul\":7007:7010   */\n      dup3\n        /* \"#utility.yul\":7003:7015   */\n      add\n        /* \"#utility.yul\":6996:7015   */\n      swap1\n      pop\n        /* \"#utility.yul\":6655:7021   */\n      swap2\n      swap1\n      pop\n      jump\t// out\n        /* \"#utility.yul\":7027:7446   */\n    tag_65:\n        /* \"#utility.yul\":7193:7197   */\n      0x00\n        /* \"#utility.yul\":7231:7233   */\n      0x20\n        /* \"#utility.yul\":7220:7229   */\n      dup3\n        /* \"#utility.yul\":7216:7234   */\n      add\n        /* \"#utility.yul\":7208:7234   */\n      swap1\n      pop\n        /* \"#utility.yul\":7280:7289   */\n      dup2\n        /* \"#utility.yul\":7274:7278   */\n      dup2\n        /* \"#utility.yul\":7270:7290   */\n      sub\n        /* \"#utility.yul\":7266:7267   */\n      0x00\n        /* \"#utility.yul\":7255:7264   */\n      dup4\n        /* \"#utility.yul\":7251:7268   */\n      add\n        /* \"#utility.yul\":7244:7291   */\n      mstore\n        /* \"#utility.yul\":7308:7439   */\n      tag_231\n        /* \"#utility.yul\":7434:7438   */\n      dup2\n        /* \"#utility.yul\":7308:7439   */\n      tag_150\n      jump\t// in\n    tag_231:\n        /* \"#utility.yul\":7300:7439   */\n      swap1\n      pop\n        /* \"#utility.yul\":7027:7446   */\n      swap2\n      swap1\n      pop\n      jump\t// out\n        /* \"#utility.yul\":7452:7620   */\n    tag_151:\n        /* \"#utility.yul\":7592:7612   */\n      0x4c6f616e20616c72656164792074616b656e0000000000000000000000000000\n        /* \"#utility.yul\":7588:7589   */\n      0x00\n        /* \"#utility.yul\":7580:7586   */\n      dup3\n        /* \"#utility.yul\":7576:7590   */\n      add\n        /* \"#utility.yul\":7569:7613   */\n      mstore\n        /* \"#utility.yul\":7452:7620   */\n      pop\n      jump\t// out\n        /* \"#utility.yul\":7626:7992   */\n    tag_152:\n        /* \"#utility.yul\":7768:7771   */\n      0x00\n        /* \"#utility.yul\":7789:7856   */\n      tag_234\n        /* \"#utility.yul\":7853:7855   */\n      0x12\n        /* \"#utility.yul\":7848:7851   */\n      dup4\n        /* \"#utility.yul\":7789:7856   */\n      tag_142\n      jump\t// in\n    tag_234:\n        /* \"#utility.yul\":7782:7856   */\n      swap2\n      pop\n        /* \"#utility.yul\":7865:7958   */\n      tag_235\n        /* \"#utility.yul\":7954:7957   */\n      dup3\n        /* \"#utility.yul\":7865:7958   */\n      tag_151\n      jump\t// in\n    tag_235:\n        /* \"#utility.yul\":7983:7985   */\n      0x20\n        /* \"#utility.yul\":7978:7981   */\n      dup3\n        /* \"#utility.yul\":7974:7986   */\n      add\n        /* \"#utility.yul\":7967:7986   */\n      swap1\n      pop\n        /* \"#utility.yul\":7626:7992   */\n      swap2\n      swap1\n      pop\n      jump\t// out\n        /* \"#utility.yul\":7998:8417   */\n    tag_68:\n        /* \"#utility.yul\":8164:8168   */\n      0x00\n        /* \"#utility.yul\":8202:8204   */\n      0x20\n        /* \"#utility.yul\":8191:8200   */\n      dup3\n        /* \"#utility.yul\":8187:8205   */\n      add\n        /* \"#utility.yul\":8179:8205   */\n      swap1\n      pop\n        /* \"#utility.yul\":8251:8260   */\n      dup2\n        /* \"#utility.yul\":8245:8249   */\n      dup2\n        /* \"#utility.yul\":8241:8261   */\n      sub\n        /* \"#utility.yul\":8237:8238   */\n      0x00\n        /* \"#utility.yul\":8226:8235   */\n      dup4\n        /* \"#utility.yul\":8222:8239   */\n      add\n        /* \"#utility.yul\":8215:8262   */\n      mstore\n        /* \"#utility.yul\":8279:8410   */\n      tag_237\n        /* \"#utility.yul\":8405:8409   */\n      dup2\n        /* \"#utility.yul\":8279:8410   */\n      tag_152\n      jump\t// in\n    tag_237:\n        /* \"#utility.yul\":8271:8410   */\n      swap1\n      pop\n        /* \"#utility.yul\":7998:8417   */\n      swap2\n      swap1\n      pop\n      jump\t// out\n        /* \"#utility.yul\":8423:8585   */\n    tag_153:\n        /* \"#utility.yul\":8563:8577   */\n      0x4e6f7420626f72726f7765720000000000000000000000000000000000000000\n        /* \"#utility.yul\":8559:8560   */\n      0x00\n        /* \"#utility.yul\":8551:8557   */\n      dup3\n        /* \"#utility.yul\":8547:8561   */\n      add\n        /* \"#utility.yul\":8540:8578   */\n      mstore\n        /* \"#utility.yul\":8423:8585   */\n      pop\n      jump\t// out\n        /* \"#utility.yul\":8591:8957   */\n    tag_154:\n        /* \"#utility.yul\":8733:8736   */\n      0x00\n        /* \"#utility.yul\":8754:8821   */\n      tag_240\n        /* \"#utility.yul\":8818:8820   */\n      0x0c\n        /* \"#utility.yul\":8813:8816   */\n      dup4\n        /* \"#utility.yul\":8754:8821   */\n      tag_142\n      jump\t// in\n    tag_240:\n        /* \"#utility.yul\":8747:8821   */\n      swap2\n      pop\n        /* \"#utility.yul\":8830:8923   */\n      tag_241\n        /* \"#utility.yul\":8919:8922   */\n      dup3\n        /* \"#utility.yul\":8830:8923   */\n      tag_153\n      jump\t// in\n    tag_241:\n        /* \"#utility.yul\":8948:8950   */\n      0x20\n        /* \"#utility.yul\":8943:8946   */\n      dup3\n        /* \"#utility.yul\":8939:8951   */\n      add\n        /* \"#utility.yul\":8932:8951   */\n      swap1\n      pop\n        /* \"#utility.yul\":8591:8957   */\n      swap2\n      swap1\n      pop\n      jump\t// out\n        /* \"#utility.yul\":8963:9382   */\n    tag_76:\n        /* \"#utility.yul\":9129:9133   */\n      0x00\n        /* \"#utility.yul\":9167:9169   */\n      0x20\n        /* \"#utility.yul\":9156:9165   */\n      dup3\n        /* \"#utility.yul\":9152:9170   */\n      add\n        /* \"#utility.yul\":9144:9170   */\n      swap1\n      pop\n        /* \"#utility.yul\":9216:9225   */\n      dup2\n        /* \"#utility.yul\":9210:9214   */\n      dup2\n        /* \"#utility.yul\":9206:9226   */\n      sub\n        /* \"#utility.yul\":9202:9203   */\n      0x00\n        /* \"#utility.yul\":9191:9200   */\n      dup4\n        /* \"#utility.yul\":9187:9204   */\n      add\n        /* \"#utility.yul\":9180:9227   */\n      mstore\n        /* \"#utility.yul\":9244:9375   */\n      tag_243\n        /* \"#utility.yul\":9370:9374   */\n      dup2\n        /* \"#utility.yul\":9244:9375   */\n      tag_154\n      jump\t// in\n    tag_243:\n        /* \"#utility.yul\":9236:9375   */\n      swap1\n      pop\n        /* \"#utility.yul\":8963:9382   */\n      swap2\n      swap1\n      pop\n      jump\t// out\n        /* \"#utility.yul\":9388:9552   */\n    tag_155:\n        /* \"#utility.yul\":9528:9544   */\n      0x416c726561647920726570616964000000000000000000000000000000000000\n        /* \"#utility.yul\":9524:9525   */\n      0x00\n        /* \"#utility.yul\":9516:9522   */\n      dup3\n        /* \"#utility.yul\":9512:9526   */\n      add\n        /* \"#utility.yul\":9505:9545   */\n      mstore\n        /* \"#utility.yul\":9388:9552   */\n      pop\n      jump\t// out\n        /* \"#utility.yul\":9558:9924   */\n    tag_156:\n        /* \"#utility.yul\":9700:9703   */\n      0x00\n        /* \"#utility.yul\":9721:9788   */\n      tag_246\n        /* \"#utility.yul\":9785:9787   */\n      0x0e\n        /* \"#utility.yul\":9780:9783   */\n      dup4\n        /* \"#utility.yul\":9721:9788   */\n      tag_142\n      jump\t// in\n    tag_246:\n        /* \"#utility.yul\":9714:9788   */\n      swap2\n      pop\n        /* \"#utility.yul\":9797:9890   */\n      tag_247\n        /* \"#utility.yul\":9886:9889   */\n      dup3\n        /* \"#utility.yul\":9797:9890   */\n      tag_155\n      jump\t// in\n    tag_247:\n        /* \"#utility.yul\":9915:9917   */\n      0x20\n        /* \"#utility.yul\":9910:9913   */\n      dup3\n        /* \"#utility.yul\":9906:9918   */\n      add\n        /* \"#utility.yul\":9899:9918   */\n      swap1\n      pop\n        /* \"#utility.yul\":9558:9924   */\n      swap2\n      swap1\n      pop\n      jump\t// out\n        /* \"#utility.yul\":9930:10349   */\n    tag_79:\n        /* \"#utility.yul\":10096:10100   */\n      0x00\n        /* \"#utility.yul\":10134:10136   */\n      0x20\n        /* \"#utility.yul\":10123:10132   */\n      dup3\n        /* \"#utility.yul\":10119:10137   */\n      add\n        /* \"#utility.yul\":10111:10137   */\n      swap1\n      pop\n        /* \"#utility.yul\":10183:10192   */\n      dup2\n        /* \"#utility.yul\":10177:10181   */\n      dup2\n        /* \"#utility.yul\":10173:10193   */\n      sub\n        /* \"#utility.yul\":10169:10170   */\n      0x00\n        /* \"#utility.yul\":10158:10167   */\n      dup4\n        /* \"#utility.yul\":10154:10171   */\n      add\n        /* \"#utility.yul\":10147:10194   */\n      mstore\n        /* \"#utility.yul\":10211:10342   */\n      tag_249\n        /* \"#utility.yul\":10337:10341   */\n      dup2\n        /* \"#utility.yul\":10211:10342   */\n      tag_156\n      jump\t// in\n    tag_249:\n        /* \"#utility.yul\":10203:10342   */\n      swap1\n      pop\n        /* \"#utility.yul\":9930:10349   */\n      swap2\n      swap1\n      pop\n      jump\t// out\n        /* \"#utility.yul\":10355:10521   */\n    tag_157:\n        /* \"#utility.yul\":10495:10513   */\n      0x4c6f616e206e6f74207374617274656400000000000000000000000000000000\n        /* \"#utility.yul\":10491:10492   */\n      0x00\n        /* \"#utility.yul\":10483:10489   */\n      dup3\n        /* \"#utility.yul\":10479:10493   */\n      add\n        /* \"#utility.yul\":10472:10514   */\n      mstore\n        /* \"#utility.yul\":10355:10521   */\n      pop\n      jump\t// out\n        /* \"#utility.yul\":10527:10893   */\n    tag_158:\n        /* \"#utility.yul\":10669:10672   */\n      0x00\n        /* \"#utility.yul\":10690:10757   */\n      tag_252\n        /* \"#utility.yul\":10754:10756   */\n      0x10\n        /* \"#utility.yul\":10749:10752   */\n      dup4\n        /* \"#utility.yul\":10690:10757   */\n      tag_142\n      jump\t// in\n    tag_252:\n        /* \"#utility.yul\":10683:10757   */\n      swap2\n      pop\n        /* \"#utility.yul\":10766:10859   */\n      tag_253\n        /* \"#utility.yul\":10855:10858   */\n      dup3\n        /* \"#utility.yul\":10766:10859   */\n      tag_157\n      jump\t// in\n    tag_253:\n        /* \"#utility.yul\":10884:10886   */\n      0x20\n        /* \"#utility.yul\":10879:10882   */\n      dup3\n        /* \"#utility.yul\":10875:10887   */\n      add\n        /* \"#utility.yul\":10868:10887   */\n      swap1\n      pop\n        /* \"#utility.yul\":10527:10893   */\n      swap2\n      swap1\n      pop\n      jump\t// out\n        /* \"#utility.yul\":10899:11318   */\n    tag_82:\n        /* \"#utility.yul\":11065:11069   */\n      0x00\n        /* \"#utility.yul\":11103:11105   */\n      0x20\n        /* \"#utility.yul\":11092:11101   */\n      dup3\n        /* \"#utility.yul\":11088:11106   */\n      add\n        /* \"#utility.yul\":11080:11106   */\n      swap1\n      pop\n        /* \"#utility.yul\":11152:11161   */\n      dup2\n        /* \"#utility.yul\":11146:11150   */\n      dup2\n        /* \"#utility.yul\":11142:11162   */\n      sub\n        /* \"#utility.yul\":11138:11139   */\n      0x00\n        /* \"#utility.yul\":11127:11136   */\n      dup4\n        /* \"#utility.yul\":11123:11140   */\n      add\n        /* \"#utility.yul\":11116:11163   */\n      mstore\n        /* \"#utility.yul\":11180:11311   */\n      tag_255\n        /* \"#utility.yul\":11306:11310   */\n      dup2\n        /* \"#utility.yul\":11180:11311   */\n      tag_158\n      jump\t// in\n    tag_255:\n        /* \"#utility.yul\":11172:11311   */\n      swap1\n      pop\n        /* \"#utility.yul\":10899:11318   */\n      swap2\n      swap1\n      pop\n      jump\t// out\n        /* \"#utility.yul\":11324:11496   */\n    tag_159:\n        /* \"#utility.yul\":11464:11488   */\n      0x496e73756666696369656e742072657061796d656e7400000000000000000000\n        /* \"#utility.yul\":11460:11461   */\n      0x00\n        /* \"#utility.yul\":11452:11458   */\n      dup3\n        /* \"#utility.yul\":11448:11462   */\n      add\n        /* \"#utility.yul\":11441:11489   */\n      mstore\n        /* \"#utility.yul\":11324:11496   */\n      pop\n      jump\t// out\n        /* \"#utility.yul\":11502:11868   */\n    tag_160:\n        /* \"#utility.yul\":11644:11647   */\n      0x00\n        /* \"#utility.yul\":11665:11732   */\n      tag_258\n        /* \"#utility.yul\":11729:11731   */\n      0x16\n        /* \"#utility.yul\":11724:11727   */\n      dup4\n        /* \"#utility.yul\":11665:11732   */\n      tag_142\n      jump\t// in\n    tag_258:\n        /* \"#utility.yul\":11658:11732   */\n      swap2\n      pop\n        /* \"#utility.yul\":11741:11834   */\n      tag_259\n        /* \"#utility.yul\":11830:11833   */\n      dup3\n        /* \"#utility.yul\":11741:11834   */\n      tag_159\n      jump\t// in\n    tag_259:\n        /* \"#utility.yul\":11859:11861   */\n      0x20\n        /* \"#utility.yul\":11854:11857   */\n      dup3\n        /* \"#utility.yul\":11850:11862   */\n      add\n        /* \"#utility.yul\":11843:11862   */\n      swap1\n      pop\n        /* \"#utility.yul\":11502:11868   */\n      swap2\n      swap1\n      pop\n      jump\t// out\n        /* \"#utility.yul\":11874:12293   */\n    tag_86:\n        /* \"#utility.yul\":12040:12044   */\n      0x00\n        /* \"#utility.yul\":12078:12080   */\n      0x20\n        /* \"#utility.yul\":12067:12076   */\n      dup3\n        /* \"#utility.yul\":12063:12081   */\n      add\n        /* \"#utility.yul\":12055:12081   */\n      swap1\n      pop\n        /* \"#utility.yul\":12127:12136   */\n      dup2\n        /* \"#utility.yul\":12121:12125   */\n      dup2\n        /* \"#utility.yul\":12117:12137   */\n      sub\n        /* \"#utility.yul\":12113:12114   */\n      0x00\n        /* \"#utility.yul\":12102:12111   */\n      dup4\n        /* \"#utility.yul\":12098:12115   */\n      add\n        /* \"#utility.yul\":12091:12138   */\n      mstore\n        /* \"#utility.yul\":12155:12286   */\n      tag_261\n        /* \"#utility.yul\":12281:12285   */\n      dup2\n        /* \"#utility.yul\":12155:12286   */\n      tag_160\n      jump\t// in\n    tag_261:\n        /* \"#utility.yul\":12147:12286   */\n      swap1\n      pop\n        /* \"#utility.yul\":11874:12293   */\n      swap2\n      swap1\n      pop\n      jump\t// out\n        /* \"#utility.yul\":12299:12479   */\n    tag_161:\n        /* \"#utility.yul\":12347:12424   */\n      0x4e487b7100000000000000000000000000000000000000000000000000000000\n        /* \"#utility.yul\":12344:12345   */\n      0x00\n        /* \"#utility.yul\":12337:12425   */\n      mstore\n        /* \"#utility.yul\":12444:12448   */\n      0x11\n        /* \"#utility.yul\":12441:12442   */\n      0x04\n        /* \"#utility.yul\":12434:12449   */\n      mstore\n        /* \"#utility.yul\":12468:12472   */\n      0x24\n        /* \"#utility.yul\":12465:12466   */\n      0x00\n        /* \"#utility.yul\":12458:12473   */\n      revert\n        /* \"#utility.yul\":12485:12679   */\n    tag_90:\n        /* \"#utility.yul\":12525:12529   */\n      0x00\n        /* \"#utility.yul\":12545:12565   */\n      tag_264\n        /* \"#utility.yul\":12563:12564   */\n      dup3\n        /* \"#utility.yul\":12545:12565   */\n      tag_133\n      jump\t// in\n    tag_264:\n        /* \"#utility.yul\":12540:12565   */\n      swap2\n      pop\n        /* \"#utility.yul\":12579:12599   */\n      tag_265\n        /* \"#utility.yul\":12597:12598   */\n      dup4\n        /* \"#utility.yul\":12579:12599   */\n      tag_133\n      jump\t// in\n    tag_265:\n        /* \"#utility.yul\":12574:12599   */\n      swap3\n      pop\n        /* \"#utility.yul\":12623:12624   */\n      dup3\n        /* \"#utility.yul\":12620:12621   */\n      dup3\n        /* \"#utility.yul\":12616:12625   */\n      sub\n        /* \"#utility.yul\":12608:12625   */\n      swap1\n      pop\n        /* \"#utility.yul\":12647:12648   */\n      dup2\n        /* \"#utility.yul\":12641:12645   */\n      dup2\n        /* \"#utility.yul\":12638:12649   */\n      gt\n        /* \"#utility.yul\":12635:12672   */\n      iszero\n      tag_266\n      jumpi\n        /* \"#utility.yul\":12652:12670   */\n      tag_267\n      tag_161\n      jump\t// in\n    tag_267:\n        /* \"#utility.yul\":12635:12672   */\n    tag_266:\n        /* \"#utility.yul\":12485:12679   */\n      swap3\n      swap2\n      pop\n      pop\n      jump\t// out\n        /* \"#utility.yul\":12685:12876   */\n    tag_99:\n        /* \"#utility.yul\":12725:12728   */\n      0x00\n        /* \"#utility.yul\":12744:12764   */\n      tag_269\n        /* \"#utility.yul\":12762:12763   */\n      dup3\n        /* \"#utility.yul\":12744:12764   */\n      tag_133\n      jump\t// in\n    tag_269:\n        /* \"#utility.yul\":12739:12764   */\n      swap2\n      pop\n        /* \"#utility.yul\":12778:12798   */\n      tag_270\n        /* \"#utility.yul\":12796:12797   */\n      dup4\n        /* \"#utility.yul\":12778:12798   */\n      tag_133\n      jump\t// in\n    tag_270:\n        /* \"#utility.yul\":12773:12798   */\n      swap3\n      pop\n        /* \"#utility.yul\":12821:12822   */\n      dup3\n        /* \"#utility.yul\":12818:12819   */\n      dup3\n        /* \"#utility.yul\":12814:12823   */\n      add\n        /* \"#utility.yul\":12807:12823   */\n      swap1\n      pop\n        /* \"#utility.yul\":12842:12845   */\n      dup1\n        /* \"#utility.yul\":12839:12840   */\n      dup3\n        /* \"#utility.yul\":12836:12846   */\n      gt\n        /* \"#utility.yul\":12833:12869   */\n      iszero\n      tag_271\n      jumpi\n        /* \"#utility.yul\":12849:12867   */\n      tag_272\n      tag_161\n      jump\t// in\n    tag_272:\n        /* \"#utility.yul\":12833:12869   */\n    tag_271:\n        /* \"#utility.yul\":12685:12876   */\n      swap3\n      swap2\n      pop\n      pop\n      jump\t// out\n        /* \"#utility.yul\":12882:13292   */\n    tag_104:\n        /* \"#utility.yul\":12922:12929   */\n      0x00\n        /* \"#utility.yul\":12945:12965   */\n      tag_274\n        /* \"#utility.yul\":12963:12964   */\n      dup3\n        /* \"#utility.yul\":12945:12965   */\n      tag_133\n      jump\t// in\n    tag_274:\n        /* \"#utility.yul\":12940:12965   */\n      swap2\n      pop\n        /* \"#utility.yul\":12979:12999   */\n      tag_275\n        /* \"#utility.yul\":12997:12998   */\n      dup4\n        /* \"#utility.yul\":12979:12999   */\n      tag_133\n      jump\t// in\n    tag_275:\n        /* \"#utility.yul\":12974:12999   */\n      swap3\n      pop\n        /* \"#utility.yul\":13034:13035   */\n      dup3\n        /* \"#utility.yul\":13031:13032   */\n      dup3\n        /* \"#utility.yul\":13027:13036   */\n      mul\n        /* \"#utility.yul\":13056:13086   */\n      tag_276\n        /* \"#utility.yul\":13074:13085   */\n      dup2\n        /* \"#utility.yul\":13056:13086   */\n      tag_133\n      jump\t// in\n    tag_276:\n        /* \"#utility.yul\":13045:13086   */\n      swap2\n      pop\n        /* \"#utility.yul\":13235:13236   */\n      dup3\n        /* \"#utility.yul\":13226:13233   */\n      dup3\n        /* \"#utility.yul\":13222:13237   */\n      div\n        /* \"#utility.yul\":13219:13220   */\n      dup5\n        /* \"#utility.yul\":13216:13238   */\n      eq\n        /* \"#utility.yul\":13196:13197   */\n      dup4\n        /* \"#utility.yul\":13189:13198   */\n      iszero\n        /* \"#utility.yul\":13169:13252   */\n      or\n        /* \"#utility.yul\":13146:13285   */\n      tag_277\n      jumpi\n        /* \"#utility.yul\":13265:13283   */\n      tag_278\n      tag_161\n      jump\t// in\n    tag_278:\n        /* \"#utility.yul\":13146:13285   */\n    tag_277:\n        /* \"#utility.yul\":12930:13292   */\n      pop\n        /* \"#utility.yul\":12882:13292   */\n      swap3\n      swap2\n      pop\n      pop\n      jump\t// out\n        /* \"#utility.yul\":13298:13478   */\n    tag_162:\n        /* \"#utility.yul\":13346:13423   */\n      0x4e487b7100000000000000000000000000000000000000000000000000000000\n        /* \"#utility.yul\":13343:13344   */\n      0x00\n        /* \"#utility.yul\":13336:13424   */\n      mstore\n        /* \"#utility.yul\":13443:13447   */\n      0x12\n        /* \"#utility.yul\":13440:13441   */\n      0x04\n        /* \"#utility.yul\":13433:13448   */\n      mstore\n        /* \"#utility.yul\":13467:13471   */\n      0x24\n        /* \"#utility.yul\":13464:13465   */\n      0x00\n        /* \"#utility.yul\":13457:13472   */\n      revert\n        /* \"#utility.yul\":13484:13669   */\n    tag_107:\n        /* \"#utility.yul\":13524:13525   */\n      0x00\n        /* \"#utility.yul\":13541:13561   */\n      tag_281\n        /* \"#utility.yul\":13559:13560   */\n      dup3\n        /* \"#utility.yul\":13541:13561   */\n      tag_133\n      jump\t// in\n    tag_281:\n        /* \"#utility.yul\":13536:13561   */\n      swap2\n      pop\n        /* \"#utility.yul\":13575:13595   */\n      tag_282\n        /* \"#utility.yul\":13593:13594   */\n      dup4\n        /* \"#utility.yul\":13575:13595   */\n      tag_133\n      jump\t// in\n    tag_282:\n        /* \"#utility.yul\":13570:13595   */\n      swap3\n      pop\n        /* \"#utility.yul\":13614:13615   */\n      dup3\n        /* \"#utility.yul\":13604:13639   */\n      tag_283\n      jumpi\n        /* \"#utility.yul\":13619:13637   */\n      tag_284\n      tag_162\n      jump\t// in\n    tag_284:\n        /* \"#utility.yul\":13604:13639   */\n    tag_283:\n        /* \"#utility.yul\":13661:13662   */\n      dup3\n        /* \"#utility.yul\":13658:13659   */\n      dup3\n        /* \"#utility.yul\":13654:13663   */\n      div\n        /* \"#utility.yul\":13649:13663   */\n      swap1\n      pop\n        /* \"#utility.yul\":13484:13669   */\n      swap3\n      swap2\n      pop\n      pop\n      jump\t// out\n        /* \"#utility.yul\":13675:13838   */\n    tag_163:\n        /* \"#utility.yul\":13815:13830   */\n      0x4e6f2066756e64732073656e7400000000000000000000000000000000000000\n        /* \"#utility.yul\":13811:13812   */\n      0x00\n        /* \"#utility.yul\":13803:13809   */\n      dup3\n        /* \"#utility.yul\":13799:13813   */\n      add\n        /* \"#utility.yul\":13792:13831   */\n      mstore\n        /* \"#utility.yul\":13675:13838   */\n      pop\n      jump\t// out\n        /* \"#utility.yul\":13844:14210   */\n    tag_164:\n        /* \"#utility.yul\":13986:13989   */\n      0x00\n        /* \"#utility.yul\":14007:14074   */\n      tag_287\n        /* \"#utility.yul\":14071:14073   */\n      0x0d\n        /* \"#utility.yul\":14066:14069   */\n      dup4\n        /* \"#utility.yul\":14007:14074   */\n      tag_142\n      jump\t// in\n    tag_287:\n        /* \"#utility.yul\":14000:14074   */\n      swap2\n      pop\n        /* \"#utility.yul\":14083:14176   */\n      tag_288\n        /* \"#utility.yul\":14172:14175   */\n      dup3\n        /* \"#utility.yul\":14083:14176   */\n      tag_163\n      jump\t// in\n    tag_288:\n        /* \"#utility.yul\":14201:14203   */\n      0x20\n        /* \"#utility.yul\":14196:14199   */\n      dup3\n        /* \"#utility.yul\":14192:14204   */\n      add\n        /* \"#utility.yul\":14185:14204   */\n      swap1\n      pop\n        /* \"#utility.yul\":13844:14210   */\n      swap2\n      swap1\n      pop\n      jump\t// out\n        /* \"#utility.yul\":14216:14635   */\n    tag_122:\n        /* \"#utility.yul\":14382:14386   */\n      0x00\n        /* \"#utility.yul\":14420:14422   */\n      0x20\n        /* \"#utility.yul\":14409:14418   */\n      dup3\n        /* \"#utility.yul\":14405:14423   */\n      add\n        /* \"#utility.yul\":14397:14423   */\n      swap1\n      pop\n        /* \"#utility.yul\":14469:14478   */\n      dup2\n        /* \"#utility.yul\":14463:14467   */\n      dup2\n        /* \"#utility.yul\":14459:14479   */\n      sub\n        /* \"#utility.yul\":14455:14456   */\n      0x00\n        /* \"#utility.yul\":14444:14453   */\n      dup4\n        /* \"#utility.yul\":14440:14457   */\n      add\n        /* \"#utility.yul\":14433:14480   */\n      mstore\n        /* \"#utility.yul\":14497:14628   */\n      tag_290\n        /* \"#utility.yul\":14623:14627   */\n      dup2\n        /* \"#utility.yul\":14497:14628   */\n      tag_164\n      jump\t// in\n    tag_290:\n        /* \"#utility.yul\":14489:14628   */\n      swap1\n      pop\n        /* \"#utility.yul\":14216:14635   */\n      swap2\n      swap1\n      pop\n      jump\t// out\n        /* \"#utility.yul\":14641:14816   */\n    tag_165:\n        /* \"#utility.yul\":14781:14808   */\n      0x4475726174696f6e206d75737420626520706f73697469766500000000000000\n        /* \"#utility.yul\":14777:14778   */\n      0x00\n        /* \"#utility.yul\":14769:14775   */\n      dup3\n        /* \"#utility.yul\":14765:14779   */\n      add\n        /* \"#utility.yul\":14758:14809   */\n      mstore\n        /* \"#utility.yul\":14641:14816   */\n      pop\n      jump\t// out\n        /* \"#utility.yul\":14822:15188   */\n    tag_166:\n        /* \"#utility.yul\":14964:14967   */\n      0x00\n        /* \"#utility.yul\":14985:15052   */\n      tag_293\n        /* \"#utility.yul\":15049:15051   */\n      0x19\n        /* \"#utility.yul\":15044:15047   */\n      dup4\n        /* \"#utility.yul\":14985:15052   */\n      tag_142\n      jump\t// in\n    tag_293:\n        /* \"#utility.yul\":14978:15052   */\n      swap2\n      pop\n        /* \"#utility.yul\":15061:15154   */\n      tag_294\n        /* \"#utility.yul\":15150:15153   */\n      dup3\n        /* \"#utility.yul\":15061:15154   */\n      tag_165\n      jump\t// in\n    tag_294:\n        /* \"#utility.yul\":15179:15181   */\n      0x20\n        /* \"#utility.yul\":15174:15177   */\n      dup3\n        /* \"#utility.yul\":15170:15182   */\n      add\n        /* \"#utility.yul\":15163:15182   */\n      swap1\n      pop\n        /* \"#utility.yul\":14822:15188   */\n      swap2\n      swap1\n      pop\n      jump\t// out\n        /* \"#utility.yul\":15194:15613   */\n    tag_125:\n        /* \"#utility.yul\":15360:15364   */\n      0x00\n        /* \"#utility.yul\":15398:15400   */\n      0x20\n        /* \"#utility.yul\":15387:15396   */\n      dup3\n        /* \"#utility.yul\":15383:15401   */\n      add\n        /* \"#utility.yul\":15375:15401   */\n      swap1\n      pop\n        /* \"#utility.yul\":15447:15456   */\n      dup2\n        /* \"#utility.yul\":15441:15445   */\n      dup2\n        /* \"#utility.yul\":15437:15457   */\n      sub\n        /* \"#utility.yul\":15433:15434   */\n      0x00\n        /* \"#utility.yul\":15422:15431   */\n      dup4\n        /* \"#utility.yul\":15418:15435   */\n      add\n        /* \"#utility.yul\":15411:15458   */\n      mstore\n        /* \"#utility.yul\":15475:15606   */\n      tag_296\n        /* \"#utility.yul\":15601:15605   */\n      dup2\n        /* \"#utility.yul\":15475:15606   */\n      tag_166\n      jump\t// in\n    tag_296:\n        /* \"#utility.yul\":15467:15606   */\n      swap1\n      pop\n        /* \"#utility.yul\":15194:15613   */\n      swap2\n      swap1\n      pop\n      jump\t// out\n        /* \"#utility.yul\":15619:15852   */\n    tag_127:\n        /* \"#utility.yul\":15658:15661   */\n      0x00\n        /* \"#utility.yul\":15681:15705   */\n      tag_298\n        /* \"#utility.yul\":15699:15704   */\n      dup3\n        /* \"#utility.yul\":15681:15705   */\n      tag_133\n      jump\t// in\n    tag_298:\n        /* \"#utility.yul\":15672:15705   */\n      swap2\n      pop\n        /* \"#utility.yul\":15727:15793   */\n      0xffffffffffffffffffffffffffffffffffffffffffffffffffffffffffffffff\n        /* \"#utility.yul\":15720:15725   */\n      dup3\n        /* \"#utility.yul\":15717:15794   */\n      sub\n        /* \"#utility.yul\":15714:15817   */\n      tag_299\n      jumpi\n        /* \"#utility.yul\":15797:15815   */\n      tag_300\n      tag_161\n      jump\t// in\n    tag_300:\n        /* \"#utility.yul\":15714:15817   */\n    tag_299:\n        /* \"#utility.yul\":15844:15845   */\n      0x01\n        /* \"#utility.yul\":15837:15842   */\n      dup3\n        /* \"#utility.yul\":15833:15846   */\n      add\n        /* \"#utility.yul\":15826:15846   */\n      swap1\n      pop\n        /* \"#utility.yul\":15619:15852   */\n      swap2\n      swap1\n      pop\n      jump\t// out\n        /* \"#utility.yul\":15858:16300   */\n    tag_129:\n        /* \"#utility.yul\":16007:16011   */\n      0x00\n        /* \"#utility.yul\":16045:16047   */\n      0x60\n        /* \"#utility.yul\":16034:16043   */\n      dup3\n        /* \"#utility.yul\":16030:16048   */\n      add\n        /* \"#utility.yul\":16022:16048   */\n      swap1\n      pop\n        /* \"#utility.yul\":16058:16129   */\n      tag_302\n        /* \"#utility.yul\":16126:16127   */\n      0x00\n        /* \"#utility.yul\":16115:16124   */\n      dup4\n        /* \"#utility.yul\":16111:16128   */\n      add\n        /* \"#utility.yul\":16102:16108   */\n      dup7\n        /* \"#utility.yul\":16058:16129   */\n      tag_136\n      jump\t// in\n    tag_302:\n        /* \"#utility.yul\":16139:16211   */\n      tag_303\n        /* \"#utility.yul\":16207:16209   */\n      0x20\n        /* \"#utility.yul\":16196:16205   */\n      dup4\n        /* \"#utility.yul\":16192:16210   */\n      add\n        /* \"#utility.yul\":16183:16189   */\n      dup6\n        /* \"#utility.yul\":16139:16211   */\n      tag_136\n      jump\t// in\n    tag_303:\n        /* \"#utility.yul\":16221:16293   */\n      tag_304\n        /* \"#utility.yul\":16289:16291   */\n      0x40\n        /* \"#utility.yul\":16278:16287   */\n      dup4\n        /* \"#utility.yul\":16274:16292   */\n      add\n        /* \"#utility.yul\":16265:16271   */\n      dup5\n        /* \"#utility.yul\":16221:16293   */\n      tag_136\n      jump\t// in\n    tag_304:\n        /* \"#utility.yul\":15858:16300   */\n      swap5\n      swap4\n      pop\n      pop\n      pop\n      pop\n      jump\t// out\n\n    auxdata: 0xa26469706673582212206bd33ac78f32e7ab68536373b8c7e2b801947f84805944c57e66cc957a0236fd64736f6c634300081a0033\n}\n",
				"bytecode": {
					"linkReferences": {},
					"object": "6080604052348015600e575f80fd5b506117228061001c5f395ff3fe60806040526004361061007a575f3560e01c8063b8306fb41161004d578063b8306fb414610114578063bdbfa3de14610150578063dc4c2e7f14610178578063e1ec3c68146101a85761007a565b806355466c371461007e5780638c803fc2146100a65780639d939d16146100ce578063ab7b1c89146100f8575b5f80fd5b348015610089575f80fd5b506100a4600480360381019061009f9190610f51565b6101eb565b005b3480156100b1575f80fd5b506100cc60048036038101906100c79190610f51565b6103f2565b005b3480156100d9575f80fd5b506100e2610653565b6040516100ef9190610f8b565b60405180910390f35b610112600480360381019061010d9190610f51565b610658565b005b34801561011f575f80fd5b5061013a60048036038101906101359190610f51565b6108ab565b6040516101479190610f8b565b60405180910390f35b34801561015b575f80fd5b5061017660048036038101906101719190610f51565b610a26565b005b610192600480360381019061018d9190610fa4565b610c16565b60405161019f9190610f8b565b60405180910390f35b3480156101b3575f80fd5b506101ce60048036038101906101c99190610f51565b610e7f565b6040516101e298979695949392919061103b565b60405180910390f35b5f60015f8381526020019081526020015f209050805f015f9054906101000a900473ffffffffffffffffffffffffffffffffffffffff1673ffffffffffffffffffffffffffffffffffffffff163373ffffffffffffffffffffffffffffffffffffffff161461028f576040517f08c379a000000000000000000000000000000000000000000000000000000000815260040161028690611111565b60405180910390fd5b806006015f9054906101000a900460ff166102df576040517f08c379a00000000000000000000000000000000000000000000000000000000081526004016102d690611179565b60405180910390fd5b8060060160019054906101000a900460ff1615610331576040517f08c379a0000000000000000000000000000000000000000000000000000000008152600401610328906111e1565b60405180910390fd5b60018160060160016101000a81548160ff0219169083151502179055505f610358836108ab565b90503373ffffffffffffffffffffffffffffffffffffffff166108fc8290811502906040515f60405180830381858888f1935050505015801561039d573d5f803e3d5ffd5b503373ffffffffffffffffffffffffffffffffffffffff16837fd9be35d8e9210ad784ca0909b49fe383d354d739fa104306a88b85412ade641e836040516103e59190610f8b565b60405180910390a3505050565b5f60015f8381526020019081526020015f2090505f73ffffffffffffffffffffffffffffffffffffffff16815f015f9054906101000a900473ffffffffffffffffffffffffffffffffffffffff1673ffffffffffffffffffffffffffffffffffffffff1603610496576040517f08c379a000000000000000000000000000000000000000000000000000000000815260040161048d90611249565b60405180910390fd5b5f73ffffffffffffffffffffffffffffffffffffffff16816001015f9054906101000a900473ffffffffffffffffffffffffffffffffffffffff1673ffffffffffffffffffffffffffffffffffffffff1614610527576040517f08c379a000000000000000000000000000000000000000000000000000000000815260040161051e906112b1565b60405180910390fd5b8060060160019054906101000a900460ff1615610579576040517f08c379a0000000000000000000000000000000000000000000000000000000008152600401610570906111e1565b60405180910390fd5b33816001015f6101000a81548173ffffffffffffffffffffffffffffffffffffffff021916908373ffffffffffffffffffffffffffffffffffffffff1602179055504281600401819055503373ffffffffffffffffffffffffffffffffffffffff166108fc826002015490811502906040515f60405180830381858888f1935050505015801561060b573d5f803e3d5ffd5b503373ffffffffffffffffffffffffffffffffffffffff16827ebac8b0df3257db5daa325139613958183ad538fab4981f5f37c0346b068e4c60405160405180910390a35050565b5f5481565b5f60015f8381526020019081526020015f209050806001015f9054906101000a900473ffffffffffffffffffffffffffffffffffffffff1673ffffffffffffffffffffffffffffffffffffffff163373ffffffffffffffffffffffffffffffffffffffff16146106fd576040517f08c379a00000000000000000000000000000000000000000000000000000000081526004016106f490611319565b60405180910390fd5b806006015f9054906101000a900460ff161561074e576040517f08c379a000000000000000000000000000000000000000000000000000000000815260040161074590611381565b60405180910390fd5b5f816004015411610794576040517f08c379a000000000000000000000000000000000000000000000000000000000815260040161078b906113e9565b60405180910390fd5b5f61079e836108ab565b9050803410156107e3576040517f08c379a00000000000000000000000000000000000000000000000000000000081526004016107da90611451565b60405180910390fd5b6001826006015f6101000a81548160ff0219169083151502179055503373ffffffffffffffffffffffffffffffffffffffff16837f512d3e65b3e58c2187bb1872aa435dba5bd09c1c03823ba56ab70aac411e4a21346040516108469190610f8b565b60405180910390a3803411156108a6573373ffffffffffffffffffffffffffffffffffffffff166108fc823461087c919061149c565b90811502906040515f60405180830381858888f193505050501580156108a4573d5f803e3d5ffd5b505b505050565b5f8060015f8481526020019081526020015f2090505f73ffffffffffffffffffffffffffffffffffffffff16815f015f9054906101000a900473ffffffffffffffffffffffffffffffffffffffff1673ffffffffffffffffffffffffffffffffffffffff1603610950576040517f08c379a000000000000000000000000000000000000000000000000000000000815260040161094790611249565b60405180910390fd5b5f816004015411610996576040517f08c379a000000000000000000000000000000000000000000000000000000000815260040161098d906113e9565b60405180910390fd5b5f816005015482600401546109ab91906114cf565b42116109c6578160040154426109c1919061149c565b6109cc565b81600501545b90505f6301e1338061271083856003015486600201546109ec9190611502565b6109f69190611502565b610a009190611570565b610a0a9190611570565b9050808360020154610a1c91906114cf565b9350505050919050565b5f60015f8381526020019081526020015f209050805f015f9054906101000a900473ffffffffffffffffffffffffffffffffffffffff1673ffffffffffffffffffffffffffffffffffffffff163373ffffffffffffffffffffffffffffffffffffffff1614610aca576040517f08c379a0000000000000000000000000000000000000000000000000000000008152600401610ac190611111565b60405180910390fd5b5f73ffffffffffffffffffffffffffffffffffffffff16816001015f9054906101000a900473ffffffffffffffffffffffffffffffffffffffff1673ffffffffffffffffffffffffffffffffffffffff1614610b5b576040517f08c379a0000000000000000000000000000000000000000000000000000000008152600401610b52906112b1565b60405180910390fd5b8060060160019054906101000a900460ff1615610bad576040517f08c379a0000000000000000000000000000000000000000000000000000000008152600401610ba4906111e1565b60405180910390fd5b60018160060160016101000a81548160ff0219169083151502179055503373ffffffffffffffffffffffffffffffffffffffff166108fc826002015490811502906040515f60405180830381858888f19350505050158015610c11573d5f803e3d5ffd5b505050565b5f803411610c59576040517f08c379a0000000000000000000000000000000000000000000000000000000008152600401610c50906115ea565b60405180910390fd5b5f8211610c9b576040517f08c379a0000000000000000000000000000000000000000000000000000000008152600401610c9290611652565b60405180910390fd5b5f80815480929190610cac90611670565b91905055506040518061010001604052803373ffffffffffffffffffffffffffffffffffffffff1681526020015f73ffffffffffffffffffffffffffffffffffffffff1681526020013481526020018481526020015f81526020018381526020015f151581526020015f151581525060015f805481526020019081526020015f205f820151815f015f6101000a81548173ffffffffffffffffffffffffffffffffffffffff021916908373ffffffffffffffffffffffffffffffffffffffff1602179055506020820151816001015f6101000a81548173ffffffffffffffffffffffffffffffffffffffff021916908373ffffffffffffffffffffffffffffffffffffffff16021790555060408201518160020155606082015181600301556080820151816004015560a0820151816005015560c0820151816006015f6101000a81548160ff02191690831515021790555060e08201518160060160016101000a81548160ff0219169083151502179055509050503373ffffffffffffffffffffffffffffffffffffffff165f547fe0db5667ac702f891c2469f5758854ecd1c0bf57ffb0a65e7433e8d5db39f59e348686604051610e6d939291906116b7565b60405180910390a35f54905092915050565b6001602052805f5260405f205f91509050805f015f9054906101000a900473ffffffffffffffffffffffffffffffffffffffff1690806001015f9054906101000a900473ffffffffffffffffffffffffffffffffffffffff1690806002015490806003015490806004015490806005015490806006015f9054906101000a900460ff16908060060160019054906101000a900460ff16905088565b5f80fd5b5f819050919050565b610f3081610f1e565b8114610f3a575f80fd5b50565b5f81359050610f4b81610f27565b92915050565b5f60208284031215610f6657610f65610f1a565b5b5f610f7384828501610f3d565b91505092915050565b610f8581610f1e565b82525050565b5f602082019050610f9e5f830184610f7c565b92915050565b5f8060408385031215610fba57610fb9610f1a565b5b5f610fc785828601610f3d565b9250506020610fd885828601610f3d565b9150509250929050565b5f73ffffffffffffffffffffffffffffffffffffffff82169050919050565b5f61100b82610fe2565b9050919050565b61101b81611001565b82525050565b5f8115159050919050565b61103581611021565b82525050565b5f6101008201905061104f5f83018b611012565b61105c602083018a611012565b6110696040830189610f7c565b6110766060830188610f7c565b6110836080830187610f7c565b61109060a0830186610f7c565b61109d60c083018561102c565b6110aa60e083018461102c565b9998505050505050505050565b5f82825260208201905092915050565b7f4e6f74206c656e646572000000000000000000000000000000000000000000005f82015250565b5f6110fb600a836110b7565b9150611106826110c7565b602082019050919050565b5f6020820190508181035f830152611128816110ef565b9050919050565b7f4e6f7420726570616964207965740000000000000000000000000000000000005f82015250565b5f611163600e836110b7565b915061116e8261112f565b602082019050919050565b5f6020820190508181035f83015261119081611157565b9050919050565b7f416c72656164792077697468647261776e0000000000000000000000000000005f82015250565b5f6111cb6011836110b7565b91506111d682611197565b602082019050919050565b5f6020820190508181035f8301526111f8816111bf565b9050919050565b7f4c6f616e20646f6573206e6f74206578697374000000000000000000000000005f82015250565b5f6112336013836110b7565b915061123e826111ff565b602082019050919050565b5f6020820190508181035f83015261126081611227565b9050919050565b7f4c6f616e20616c72656164792074616b656e00000000000000000000000000005f82015250565b5f61129b6012836110b7565b91506112a682611267565b602082019050919050565b5f6020820190508181035f8301526112c88161128f565b9050919050565b7f4e6f7420626f72726f77657200000000000000000000000000000000000000005f82015250565b5f611303600c836110b7565b915061130e826112cf565b602082019050919050565b5f6020820190508181035f830152611330816112f7565b9050919050565b7f416c7265616479207265706169640000000000000000000000000000000000005f82015250565b5f61136b600e836110b7565b915061137682611337565b602082019050919050565b5f6020820190508181035f8301526113988161135f565b9050919050565b7f4c6f616e206e6f742073746172746564000000000000000000000000000000005f82015250565b5f6113d36010836110b7565b91506113de8261139f565b602082019050919050565b5f6020820190508181035f830152611400816113c7565b9050919050565b7f496e73756666696369656e742072657061796d656e74000000000000000000005f82015250565b5f61143b6016836110b7565b915061144682611407565b602082019050919050565b5f6020820190508181035f8301526114688161142f565b9050919050565b7f4e487b71000000000000000000000000000000000000000000000000000000005f52601160045260245ffd5b5f6114a682610f1e565b91506114b183610f1e565b92508282039050818111156114c9576114c861146f565b5b92915050565b5f6114d982610f1e565b91506114e483610f1e565b92508282019050808211156114fc576114fb61146f565b5b92915050565b5f61150c82610f1e565b915061151783610f1e565b925082820261152581610f1e565b9150828204841483151761153c5761153b61146f565b5b5092915050565b7f4e487b71000000000000000000000000000000000000000000000000000000005f52601260045260245ffd5b5f61157a82610f1e565b915061158583610f1e565b92508261159557611594611543565b5b828204905092915050565b7f4e6f2066756e64732073656e74000000000000000000000000000000000000005f82015250565b5f6115d4600d836110b7565b91506115df826115a0565b602082019050919050565b5f6020820190508181035f830152611601816115c8565b9050919050565b7f4475726174696f6e206d75737420626520706f736974697665000000000000005f82015250565b5f61163c6019836110b7565b915061164782611608565b602082019050919050565b5f6020820190508181035f83015261166981611630565b9050919050565b5f61167a82610f1e565b91507fffffffffffffffffffffffffffffffffffffffffffffffffffffffffffffffff82036116ac576116ab61146f565b5b600182019050919050565b5f6060820190506116ca5f830186610f7c565b6116d76020830185610f7c565b6116e46040830184610f7c565b94935050505056fea26469706673582212206bd33ac78f32e7ab68536373b8c7e2b801947f84805944c57e66cc957a0236fd64736f6c634300081a0033",
					"opcodes": "PUSH1 0x80 PUSH1 0x40 MSTORE CALLVALUE DUP1 ISZERO PUSH1 0xE JUMPI PUSH0 DUP1 REVERT JUMPDEST POP PUSH2 0x1722 DUP1 PUSH2 0x1C PUSH0 CODECOPY PUSH0 RETURN INVALID PUSH1 0x80 PUSH1 0x40 MSTORE PUSH1 0x4 CALLDATASIZE LT PUSH2 0x7A JUMPI PUSH0 CALLDATALOAD PUSH1 0xE0 SHR DUP1 PUSH4 0xB8306FB4 GT PUSH2 0x4D JUMPI DUP1 PUSH4 0xB8306FB4 EQ PUSH2 0x114 JUMPI DUP1 PUSH4 0xBDBFA3DE EQ PUSH2 0x150 JUMPI DUP1 PUSH4 0xDC4C2E7F EQ PUSH2 0x178 JUMPI DUP1 PUSH4 0xE1EC3C68 EQ PUSH2 0x1A8 JUMPI PUSH2 0x7A JUMP JUMPDEST DUP1 PUSH4 0x55466C37 EQ PUSH2 0x7E JUMPI DUP1 PUSH4 0x8C803FC2 EQ PUSH2 0xA6 JUMPI DUP1 PUSH4 0x9D939D16 EQ PUSH2 0xCE JUMPI DUP1 PUSH4 0xAB7B1C89 EQ PUSH2 0xF8 JUMPI JUMPDEST PUSH0 DUP1 REVERT JUMPDEST CALLVALUE DUP1 ISZERO PUSH2 0x89 JUMPI PUSH0 DUP1 REVERT JUMPDEST POP PUSH2 0xA4 PUSH1 0x4 DUP1 CALLDATASIZE SUB DUP2 ADD SWAP1 PUSH2 0x9F SWAP2 SWAP1 PUSH2 0xF51 JUMP JUMPDEST PUSH2 0x1EB JUMP JUMPDEST STOP JUMPDEST CALLVALUE DUP1 ISZERO PUSH2 0xB1 JUMPI PUSH0 DUP1 REVERT JUMPDEST POP PUSH2 0xCC PUSH1 0x4 DUP1 CALLDATASIZE SUB DUP2 ADD SWAP1 PUSH2 0xC7 SWAP2 SWAP1 PUSH2 0xF51 JUMP JUMPDEST PUSH2 0x3F2 JUMP JUMPDEST STOP JUMPDEST CALLVALUE DUP1 ISZERO PUSH2 0xD9 JUMPI PUSH0 DUP1 REVERT JUMPDEST POP PUSH2 0xE2 PUSH2 0x653 JUMP JUMPDEST PUSH1 0x40 MLOAD PUSH2 0xEF SWAP2 SWAP1 PUSH2 0xF8B JUMP JUMPDEST PUSH1 0x40 MLOAD DUP1 SWAP2 SUB SWAP1 RETURN JUMPDEST PUSH2 0x112 PUSH1 0x4 DUP1 CALLDATASIZE SUB DUP2 ADD SWAP1 PUSH2 0x10D SWAP2 SWAP1 PUSH2 0xF51 JUMP JUMPDEST PUSH2 0x658 JUMP JUMPDEST STOP JUMPDEST CALLVALUE DUP1 ISZERO PUSH2 0x11F JUMPI PUSH0 DUP1 REVERT JUMPDEST POP PUSH2 0x13A PUSH1 0x4 DUP1 CALLDATASIZE SUB DUP2 ADD SWAP1 PUSH2 0x135 SWAP2 SWAP1 PUSH2 0xF51 JUMP JUMPDEST PUSH2 0x8AB JUMP JUMPDEST PUSH1 0x40 MLOAD PUSH2 0x147 SWAP2 SWAP1 PUSH2 0xF8B JUMP JUMPDEST PUSH1 0x40 MLOAD DUP1 SWAP2 SUB SWAP1 RETURN JUMPDEST CALLVALUE DUP1 ISZERO PUSH2 0x15B JUMPI PUSH0 DUP1 REVERT JUMPDEST POP PUSH2 0x176 PUSH1 0x4 DUP1 CALLDATASIZE SUB DUP2 ADD SWAP1 PUSH2 0x171 SWAP2 SWAP1 PUSH2 0xF51 JUMP JUMPDEST PUSH2 0xA26 JUMP JUMPDEST STOP JUMPDEST PUSH2 0x192 PUSH1 0x4 DUP1 CALLDATASIZE SUB DUP2 ADD SWAP1 PUSH2 0x18D SWAP2 SWAP1 PUSH2 0xFA4 JUMP JUMPDEST PUSH2 0xC16 JUMP JUMPDEST PUSH1 0x40 MLOAD PUSH2 0x19F SWAP2 SWAP1 PUSH2 0xF8B JUMP JUMPDEST PUSH1 0x40 MLOAD DUP1 SWAP2 SUB SWAP1 RETURN JUMPDEST CALLVALUE DUP1 ISZERO PUSH2 0x1B3 JUMPI PUSH0 DUP1 REVERT JUMPDEST POP PUSH2 0x1CE PUSH1 0x4 DUP1 CALLDATASIZE SUB DUP2 ADD SWAP1 PUSH2 0x1C9 SWAP2 SWAP1 PUSH2 0xF51 JUMP JUMPDEST PUSH2 0xE7F JUMP JUMPDEST PUSH1 0x40 MLOAD PUSH2 0x1E2 SWAP9 SWAP8 SWAP7 SWAP6 SWAP5 SWAP4 SWAP3 SWAP2 SWAP1 PUSH2 0x103B JUMP JUMPDEST PUSH1 0x40 MLOAD DUP1 SWAP2 SUB SWAP1 RETURN JUMPDEST PUSH0 PUSH1 0x1 PUSH0 DUP4 DUP2 MSTORE PUSH1 0x20 ADD SWAP1 DUP2 MSTORE PUSH1 0x20 ADD PUSH0 KECCAK256 SWAP1 POP DUP1 PUSH0 ADD PUSH0 SWAP1 SLOAD SWAP1 PUSH2 0x100 EXP SWAP1 DIV PUSH20 0xFFFFFFFFFFFFFFFFFFFFFFFFFFFFFFFFFFFFFFFF AND PUSH20 0xFFFFFFFFFFFFFFFFFFFFFFFFFFFFFFFFFFFFFFFF AND CALLER PUSH20 0xFFFFFFFFFFFFFFFFFFFFFFFFFFFFFFFFFFFFFFFF AND EQ PUSH2 0x28F JUMPI PUSH1 0x40 MLOAD PUSH32 0x8C379A000000000000000000000000000000000000000000000000000000000 DUP2 MSTORE PUSH1 0x4 ADD PUSH2 0x286 SWAP1 PUSH2 0x1111 JUMP JUMPDEST PUSH1 0x40 MLOAD DUP1 SWAP2 SUB SWAP1 REVERT JUMPDEST DUP1 PUSH1 0x6 ADD PUSH0 SWAP1 SLOAD SWAP1 PUSH2 0x100 EXP SWAP1 DIV PUSH1 0xFF AND PUSH2 0x2DF JUMPI PUSH1 0x40 MLOAD PUSH32 0x8C379A000000000000000000000000000000000000000000000000000000000 DUP2 MSTORE PUSH1 0x4 ADD PUSH2 0x2D6 SWAP1 PUSH2 0x1179 JUMP JUMPDEST PUSH1 0x40 MLOAD DUP1 SWAP2 SUB SWAP1 REVERT JUMPDEST DUP1 PUSH1 0x6 ADD PUSH1 0x1 SWAP1 SLOAD SWAP1 PUSH2 0x100 EXP SWAP1 DIV PUSH1 0xFF AND ISZERO PUSH2 0x331 JUMPI PUSH1 0x40 MLOAD PUSH32 0x8C379A000000000000000000000000000000000000000000000000000000000 DUP2 MSTORE PUSH1 0x4 ADD PUSH2 0x328 SWAP1 PUSH2 0x11E1 JUMP JUMPDEST PUSH1 0x40 MLOAD DUP1 SWAP2 SUB SWAP1 REVERT JUMPDEST PUSH1 0x1 DUP2 PUSH1 0x6 ADD PUSH1 0x1 PUSH2 0x100 EXP DUP2 SLOAD DUP2 PUSH1 0xFF MUL NOT AND SWAP1 DUP4 ISZERO ISZERO MUL OR SWAP1 SSTORE POP PUSH0 PUSH2 0x358 DUP4 PUSH2 0x8AB JUMP JUMPDEST SWAP1 POP CALLER PUSH20 0xFFFFFFFFFFFFFFFFFFFFFFFFFFFFFFFFFFFFFFFF AND PUSH2 0x8FC DUP3 SWAP1 DUP2 ISZERO MUL SWAP1 PUSH1 0x40 MLOAD PUSH0 PUSH1 0x40 MLOAD DUP1 DUP4 SUB DUP2 DUP6 DUP9 DUP9 CALL SWAP4 POP POP POP POP ISZERO DUP1 ISZERO PUSH2 0x39D JUMPI RETURNDATASIZE PUSH0 DUP1 RETURNDATACOPY RETURNDATASIZE PUSH0 REVERT JUMPDEST POP CALLER PUSH20 0xFFFFFFFFFFFFFFFFFFFFFFFFFFFFFFFFFFFFFFFF AND DUP4 PUSH32 0xD9BE35D8E9210AD784CA0909B49FE383D354D739FA104306A88B85412ADE641E DUP4 PUSH1 0x40 MLOAD PUSH2 0x3E5 SWAP2 SWAP1 PUSH2 0xF8B JUMP JUMPDEST PUSH1 0x40 MLOAD DUP1 SWAP2 SUB SWAP1 LOG3 POP POP POP JUMP JUMPDEST PUSH0 PUSH1 0x1 PUSH0 DUP4 DUP2 MSTORE PUSH1 0x20 ADD SWAP1 DUP2 MSTORE PUSH1 0x20 ADD PUSH0 KECCAK256 SWAP1 POP PUSH0 PUSH20 0xFFFFFFFFFFFFFFFFFFFFFFFFFFFFFFFFFFFFFFFF AND DUP2 PUSH0 ADD PUSH0 SWAP1 SLOAD SWAP1 PUSH2 0x100 EXP SWAP1 DIV PUSH20 0xFFFFFFFFFFFFFFFFFFFFFFFFFFFFFFFFFFFFFFFF AND PUSH20 0xFFFFFFFFFFFFFFFFFFFFFFFFFFFFFFFFFFFFFFFF AND SUB PUSH2 0x496 JUMPI PUSH1 0x40 MLOAD PUSH32 0x8C379A000000000000000000000000000000000000000000000000000000000 DUP2 MSTORE PUSH1 0x4 ADD PUSH2 0x48D SWAP1 PUSH2 0x1249 JUMP JUMPDEST PUSH1 0x40 MLOAD DUP1 SWAP2 SUB SWAP1 REVERT JUMPDEST PUSH0 PUSH20 0xFFFFFFFFFFFFFFFFFFFFFFFFFFFFFFFFFFFFFFFF AND DUP2 PUSH1 0x1 ADD PUSH0 SWAP1 SLOAD SWAP1 PUSH2 0x100 EXP SWAP1 DIV PUSH20 0xFFFFFFFFFFFFFFFFFFFFFFFFFFFFFFFFFFFFFFFF AND PUSH20 0xFFFFFFFFFFFFFFFFFFFFFFFFFFFFFFFFFFFFFFFF AND EQ PUSH2 0x527 JUMPI PUSH1 0x40 MLOAD PUSH32 0x8C379A000000000000000000000000000000000000000000000000000000000 DUP2 MSTORE PUSH1 0x4 ADD PUSH2 0x51E SWAP1 PUSH2 0x12B1 JUMP JUMPDEST PUSH1 0x40 MLOAD DUP1 SWAP2 SUB SWAP1 REVERT JUMPDEST DUP1 PUSH1 0x6 ADD PUSH1 0x1 SWAP1 SLOAD SWAP1 PUSH2 0x100 EXP SWAP1 DIV PUSH1 0xFF AND ISZERO PUSH2 0x579 JUMPI PUSH1 0x40 MLOAD PUSH32 0x8C379A000000000000000000000000000000000000000000000000000000000 DUP2 MSTORE PUSH1 0x4 ADD PUSH2 0x570 SWAP1 PUSH2 0x11E1 JUMP JUMPDEST PUSH1 0x40 MLOAD DUP1 SWAP2 SUB SWAP1 REVERT JUMPDEST CALLER DUP2 PUSH1 0x1 ADD PUSH0 PUSH2 0x100 EXP DUP2 SLOAD DUP2 PUSH20 0xFFFFFFFFFFFFFFFFFFFFFFFFFFFFFFFFFFFFFFFF MUL NOT AND SWAP1 DUP4 PUSH20 0xFFFFFFFFFFFFFFFFFFFFFFFFFFFFFFFFFFFFFFFF AND MUL OR SWAP1 SSTORE POP TIMESTAMP DUP2 PUSH1 0x4 ADD DUP2 SWAP1 SSTORE POP CALLER PUSH20 0xFFFFFFFFFFFFFFFFFFFFFFFFFFFFFFFFFFFFFFFF AND PUSH2 0x8FC DUP3 PUSH1 0x2 ADD SLOAD SWAP1 DUP2 ISZERO MUL SWAP1 PUSH1 0x40 MLOAD PUSH0 PUSH1 0x40 MLOAD DUP1 DUP4 SUB DUP2 DUP6 DUP9 DUP9 CALL SWAP4 POP POP POP POP ISZERO DUP1 ISZERO PUSH2 0x60B JUMPI RETURNDATASIZE PUSH0 DUP1 RETURNDATACOPY RETURNDATASIZE PUSH0 REVERT JUMPDEST POP CALLER PUSH20 0xFFFFFFFFFFFFFFFFFFFFFFFFFFFFFFFFFFFFFFFF AND DUP3 PUSH31 0xBAC8B0DF3257DB5DAA325139613958183AD538FAB4981F5F37C0346B068E4C PUSH1 0x40 MLOAD PUSH1 0x40 MLOAD DUP1 SWAP2 SUB SWAP1 LOG3 POP POP JUMP JUMPDEST PUSH0 SLOAD DUP2 JUMP JUMPDEST PUSH0 PUSH1 0x1 PUSH0 DUP4 DUP2 MSTORE PUSH1 0x20 ADD SWAP1 DUP2 MSTORE PUSH1 0x20 ADD PUSH0 KECCAK256 SWAP1 POP DUP1 PUSH1 0x1 ADD PUSH0 SWAP1 SLOAD SWAP1 PUSH2 0x100 EXP SWAP1 DIV PUSH20 0xFFFFFFFFFFFFFFFFFFFFFFFFFFFFFFFFFFFFFFFF AND PUSH20 0xFFFFFFFFFFFFFFFFFFFFFFFFFFFFFFFFFFFFFFFF AND CALLER PUSH20 0xFFFFFFFFFFFFFFFFFFFFFFFFFFFFFFFFFFFFFFFF AND EQ PUSH2 0x6FD JUMPI PUSH1 0x40 MLOAD PUSH32 0x8C379A000000000000000000000000000000000000000000000000000000000 DUP2 MSTORE PUSH1 0x4 ADD PUSH2 0x6F4 SWAP1 PUSH2 0x1319 JUMP JUMPDEST PUSH1 0x40 MLOAD DUP1 SWAP2 SUB SWAP1 REVERT JUMPDEST DUP1 PUSH1 0x6 ADD PUSH0 SWAP1 SLOAD SWAP1 PUSH2 0x100 EXP SWAP1 DIV PUSH1 0xFF AND ISZERO PUSH2 0x74E JUMPI PUSH1 0x40 MLOAD PUSH32 0x8C379A000000000000000000000000000000000000000000000000000000000 DUP2 MSTORE PUSH1 0x4 ADD PUSH2 0x745 SWAP1 PUSH2 0x1381 JUMP JUMPDEST PUSH1 0x40 MLOAD DUP1 SWAP2 SUB SWAP1 REVERT JUMPDEST PUSH0 DUP2 PUSH1 0x4 ADD SLOAD GT PUSH2 0x794 JUMPI PUSH1 0x40 MLOAD PUSH32 0x8C379A000000000000000000000000000000000000000000000000000000000 DUP2 MSTORE PUSH1 0x4 ADD PUSH2 0x78B SWAP1 PUSH2 0x13E9 JUMP JUMPDEST PUSH1 0x40 MLOAD DUP1 SWAP2 SUB SWAP1 REVERT JUMPDEST PUSH0 PUSH2 0x79E DUP4 PUSH2 0x8AB JUMP JUMPDEST SWAP1 POP DUP1 CALLVALUE LT ISZERO PUSH2 0x7E3 JUMPI PUSH1 0x40 MLOAD PUSH32 0x8C379A000000000000000000000000000000000000000000000000000000000 DUP2 MSTORE PUSH1 0x4 ADD PUSH2 0x7DA SWAP1 PUSH2 0x1451 JUMP JUMPDEST PUSH1 0x40 MLOAD DUP1 SWAP2 SUB SWAP1 REVERT JUMPDEST PUSH1 0x1 DUP3 PUSH1 0x6 ADD PUSH0 PUSH2 0x100 EXP DUP2 SLOAD DUP2 PUSH1 0xFF MUL NOT AND SWAP1 DUP4 ISZERO ISZERO MUL OR SWAP1 SSTORE POP CALLER PUSH20 0xFFFFFFFFFFFFFFFFFFFFFFFFFFFFFFFFFFFFFFFF AND DUP4 PUSH32 0x512D3E65B3E58C2187BB1872AA435DBA5BD09C1C03823BA56AB70AAC411E4A21 CALLVALUE PUSH1 0x40 MLOAD PUSH2 0x846 SWAP2 SWAP1 PUSH2 0xF8B JUMP JUMPDEST PUSH1 0x40 MLOAD DUP1 SWAP2 SUB SWAP1 LOG3 DUP1 CALLVALUE GT ISZERO PUSH2 0x8A6 JUMPI CALLER PUSH20 0xFFFFFFFFFFFFFFFFFFFFFFFFFFFFFFFFFFFFFFFF AND PUSH2 0x8FC DUP3 CALLVALUE PUSH2 0x87C SWAP2 SWAP1 PUSH2 0x149C JUMP JUMPDEST SWAP1 DUP2 ISZERO MUL SWAP1 PUSH1 0x40 MLOAD PUSH0 PUSH1 0x40 MLOAD DUP1 DUP4 SUB DUP2 DUP6 DUP9 DUP9 CALL SWAP4 POP POP POP POP ISZERO DUP1 ISZERO PUSH2 0x8A4 JUMPI RETURNDATASIZE PUSH0 DUP1 RETURNDATACOPY RETURNDATASIZE PUSH0 REVERT JUMPDEST POP JUMPDEST POP POP POP JUMP JUMPDEST PUSH0 DUP1 PUSH1 0x1 PUSH0 DUP5 DUP2 MSTORE PUSH1 0x20 ADD SWAP1 DUP2 MSTORE PUSH1 0x20 ADD PUSH0 KECCAK256 SWAP1 POP PUSH0 PUSH20 0xFFFFFFFFFFFFFFFFFFFFFFFFFFFFFFFFFFFFFFFF AND DUP2 PUSH0 ADD PUSH0 SWAP1 SLOAD SWAP1 PUSH2 0x100 EXP SWAP1 DIV PUSH20 0xFFFFFFFFFFFFFFFFFFFFFFFFFFFFFFFFFFFFFFFF AND PUSH20 0xFFFFFFFFFFFFFFFFFFFFFFFFFFFFFFFFFFFFFFFF AND SUB PUSH2 0x950 JUMPI PUSH1 0x40 MLOAD PUSH32 0x8C379A000000000000000000000000000000000000000000000000000000000 DUP2 MSTORE PUSH1 0x4 ADD PUSH2 0x947 SWAP1 PUSH2 0x1249 JUMP JUMPDEST PUSH1 0x40 MLOAD DUP1 SWAP2 SUB SWAP1 REVERT JUMPDEST PUSH0 DUP2 PUSH1 0x4 ADD SLOAD GT PUSH2 0x996 JUMPI PUSH1 0x40 MLOAD PUSH32 0x8C379A000000000000000000000000000000000000000000000000000000000 DUP2 MSTORE PUSH1 0x4 ADD PUSH2 0x98D SWAP1 PUSH2 0x13E9 JUMP JUMPDEST PUSH1 0x40 MLOAD DUP1 SWAP2 SUB SWAP1 REVERT JUMPDEST PUSH0 DUP2 PUSH1 0x5 ADD SLOAD DUP3 PUSH1 0x4 ADD SLOAD PUSH2 0x9AB SWAP2 SWAP1 PUSH2 0x14CF JUMP JUMPDEST TIMESTAMP GT PUSH2 0x9C6 JUMPI DUP2 PUSH1 0x4 ADD SLOAD TIMESTAMP PUSH2 0x9C1 SWAP2 SWAP1 PUSH2 0x149C JUMP JUMPDEST PUSH2 0x9CC JUMP JUMPDEST DUP2 PUSH1 0x5 ADD SLOAD JUMPDEST SWAP1 POP PUSH0 PUSH4 0x1E13380 PUSH2 0x2710 DUP4 DUP6 PUSH1 0x3 ADD SLOAD DUP7 PUSH1 0x2 ADD SLOAD PUSH2 0x9EC SWAP2 SWAP1 PUSH2 0x1502 JUMP JUMPDEST PUSH2 0x9F6 SWAP2 SWAP1 PUSH2 0x1502 JUMP JUMPDEST PUSH2 0xA00 SWAP2 SWAP1 PUSH2 0x1570 JUMP JUMPDEST PUSH2 0xA0A SWAP2 SWAP1 PUSH2 0x1570 JUMP JUMPDEST SWAP1 POP DUP1 DUP4 PUSH1 0x2 ADD SLOAD PUSH2 0xA1C SWAP2 SWAP1 PUSH2 0x14CF JUMP JUMPDEST SWAP4 POP POP POP POP SWAP2 SWAP1 POP JUMP JUMPDEST PUSH0 PUSH1 0x1 PUSH0 DUP4 DUP2 MSTORE PUSH1 0x20 ADD SWAP1 DUP2 MSTORE PUSH1 0x20 ADD PUSH0 KECCAK256 SWAP1 POP DUP1 PUSH0 ADD PUSH0 SWAP1 SLOAD SWAP1 PUSH2 0x100 EXP SWAP1 DIV PUSH20 0xFFFFFFFFFFFFFFFFFFFFFFFFFFFFFFFFFFFFFFFF AND PUSH20 0xFFFFFFFFFFFFFFFFFFFFFFFFFFFFFFFFFFFFFFFF AND CALLER PUSH20 0xFFFFFFFFFFFFFFFFFFFFFFFFFFFFFFFFFFFFFFFF AND EQ PUSH2 0xACA JUMPI PUSH1 0x40 MLOAD PUSH32 0x8C379A000000000000000000000000000000000000000000000000000000000 DUP2 MSTORE PUSH1 0x4 ADD PUSH2 0xAC1 SWAP1 PUSH2 0x1111 JUMP JUMPDEST PUSH1 0x40 MLOAD DUP1 SWAP2 SUB SWAP1 REVERT JUMPDEST PUSH0 PUSH20 0xFFFFFFFFFFFFFFFFFFFFFFFFFFFFFFFFFFFFFFFF AND DUP2 PUSH1 0x1 ADD PUSH0 SWAP1 SLOAD SWAP1 PUSH2 0x100 EXP SWAP1 DIV PUSH20 0xFFFFFFFFFFFFFFFFFFFFFFFFFFFFFFFFFFFFFFFF AND PUSH20 0xFFFFFFFFFFFFFFFFFFFFFFFFFFFFFFFFFFFFFFFF AND EQ PUSH2 0xB5B JUMPI PUSH1 0x40 MLOAD PUSH32 0x8C379A000000000000000000000000000000000000000000000000000000000 DUP2 MSTORE PUSH1 0x4 ADD PUSH2 0xB52 SWAP1 PUSH2 0x12B1 JUMP JUMPDEST PUSH1 0x40 MLOAD DUP1 SWAP2 SUB SWAP1 REVERT JUMPDEST DUP1 PUSH1 0x6 ADD PUSH1 0x1 SWAP1 SLOAD SWAP1 PUSH2 0x100 EXP SWAP1 DIV PUSH1 0xFF AND ISZERO PUSH2 0xBAD JUMPI PUSH1 0x40 MLOAD PUSH32 0x8C379A000000000000000000000000000000000000000000000000000000000 DUP2 MSTORE PUSH1 0x4 ADD PUSH2 0xBA4 SWAP1 PUSH2 0x11E1 JUMP JUMPDEST PUSH1 0x40 MLOAD DUP1 SWAP2 SUB SWAP1 REVERT JUMPDEST PUSH1 0x1 DUP2 PUSH1 0x6 ADD PUSH1 0x1 PUSH2 0x100 EXP DUP2 SLOAD DUP2 PUSH1 0xFF MUL NOT AND SWAP1 DUP4 ISZERO ISZERO MUL OR SWAP1 SSTORE POP CALLER PUSH20 0xFFFFFFFFFFFFFFFFFFFFFFFFFFFFFFFFFFFFFFFF AND PUSH2 0x8FC DUP3 PUSH1 0x2 ADD SLOAD SWAP1 DUP2 ISZERO MUL SWAP1 PUSH1 0x40 MLOAD PUSH0 PUSH1 0x40 MLOAD DUP1 DUP4 SUB DUP2 DUP6 DUP9 DUP9 CALL SWAP4 POP POP POP POP ISZERO DUP1 ISZERO PUSH2 0xC11 JUMPI RETURNDATASIZE PUSH0 DUP1 RETURNDATACOPY RETURNDATASIZE PUSH0 REVERT JUMPDEST POP POP POP JUMP JUMPDEST PUSH0 DUP1 CALLVALUE GT PUSH2 0xC59 JUMPI PUSH1 0x40 MLOAD PUSH32 0x8C379A000000000000000000000000000000000000000000000000000000000 DUP2 MSTORE PUSH1 0x4 ADD PUSH2 0xC50 SWAP1 PUSH2 0x15EA JUMP JUMPDEST PUSH1 0x40 MLOAD DUP1 SWAP2 SUB SWAP1 REVERT JUMPDEST PUSH0 DUP3 GT PUSH2 0xC9B JUMPI PUSH1 0x40 MLOAD PUSH32 0x8C379A000000000000000000000000000000000000000000000000000000000 DUP2 MSTORE PUSH1 0x4 ADD PUSH2 0xC92 SWAP1 PUSH2 0x1652 JUMP JUMPDEST PUSH1 0x40 MLOAD DUP1 SWAP2 SUB SWAP1 REVERT JUMPDEST PUSH0 DUP1 DUP2 SLOAD DUP1 SWAP3 SWAP2 SWAP1 PUSH2 0xCAC SWAP1 PUSH2 0x1670 JUMP JUMPDEST SWAP2 SWAP1 POP SSTORE POP PUSH1 0x40 MLOAD DUP1 PUSH2 0x100 ADD PUSH1 0x40 MSTORE DUP1 CALLER PUSH20 0xFFFFFFFFFFFFFFFFFFFFFFFFFFFFFFFFFFFFFFFF AND DUP2 MSTORE PUSH1 0x20 ADD PUSH0 PUSH20 0xFFFFFFFFFFFFFFFFFFFFFFFFFFFFFFFFFFFFFFFF AND DUP2 MSTORE PUSH1 0x20 ADD CALLVALUE DUP2 MSTORE PUSH1 0x20 ADD DUP5 DUP2 MSTORE PUSH1 0x20 ADD PUSH0 DUP2 MSTORE PUSH1 0x20 ADD DUP4 DUP2 MSTORE PUSH1 0x20 ADD PUSH0 ISZERO ISZERO DUP2 MSTORE PUSH1 0x20 ADD PUSH0 ISZERO ISZERO DUP2 MSTORE POP PUSH1 0x1 PUSH0 DUP1 SLOAD DUP2 MSTORE PUSH1 0x20 ADD SWAP1 DUP2 MSTORE PUSH1 0x20 ADD PUSH0 KECCAK256 PUSH0 DUP3 ADD MLOAD DUP2 PUSH0 ADD PUSH0 PUSH2 0x100 EXP DUP2 SLOAD DUP2 PUSH20 0xFFFFFFFFFFFFFFFFFFFFFFFFFFFFFFFFFFFFFFFF MUL NOT AND SWAP1 DUP4 PUSH20 0xFFFFFFFFFFFFFFFFFFFFFFFFFFFFFFFFFFFFFFFF AND MUL OR SWAP1 SSTORE POP PUSH1 0x20 DUP3 ADD MLOAD DUP2 PUSH1 0x1 ADD PUSH0 PUSH2 0x100 EXP DUP2 SLOAD DUP2 PUSH20 0xFFFFFFFFFFFFFFFFFFFFFFFFFFFFFFFFFFFFFFFF MUL NOT AND SWAP1 DUP4 PUSH20 0xFFFFFFFFFFFFFFFFFFFFFFFFFFFFFFFFFFFFFFFF AND MUL OR SWAP1 SSTORE POP PUSH1 0x40 DUP3 ADD MLOAD DUP2 PUSH1 0x2 ADD SSTORE PUSH1 0x60 DUP3 ADD MLOAD DUP2 PUSH1 0x3 ADD SSTORE PUSH1 0x80 DUP3 ADD MLOAD DUP2 PUSH1 0x4 ADD SSTORE PUSH1 0xA0 DUP3 ADD MLOAD DUP2 PUSH1 0x5 ADD SSTORE PUSH1 0xC0 DUP3 ADD MLOAD DUP2 PUSH1 0x6 ADD PUSH0 PUSH2 0x100 EXP DUP2 SLOAD DUP2 PUSH1 0xFF MUL NOT AND SWAP1 DUP4 ISZERO ISZERO MUL OR SWAP1 SSTORE POP PUSH1 0xE0 DUP3 ADD MLOAD DUP2 PUSH1 0x6 ADD PUSH1 0x1 PUSH2 0x100 EXP DUP2 SLOAD DUP2 PUSH1 0xFF MUL NOT AND SWAP1 DUP4 ISZERO ISZERO MUL OR SWAP1 SSTORE POP SWAP1 POP POP CALLER PUSH20 0xFFFFFFFFFFFFFFFFFFFFFFFFFFFFFFFFFFFFFFFF AND PUSH0 SLOAD PUSH32 0xE0DB5667AC702F891C2469F5758854ECD1C0BF57FFB0A65E7433E8D5DB39F59E CALLVALUE DUP7 DUP7 PUSH1 0x40 MLOAD PUSH2 0xE6D SWAP4 SWAP3 SWAP2 SWAP1 PUSH2 0x16B7 JUMP JUMPDEST PUSH1 0x40 MLOAD DUP1 SWAP2 SUB SWAP1 LOG3 PUSH0 SLOAD SWAP1 POP SWAP3 SWAP2 POP POP JUMP JUMPDEST PUSH1 0x1 PUSH1 0x20 MSTORE DUP1 PUSH0 MSTORE PUSH1 0x40 PUSH0 KECCAK256 PUSH0 SWAP2 POP SWAP1 POP DUP1 PUSH0 ADD PUSH0 SWAP1 SLOAD SWAP1 PUSH2 0x100 EXP SWAP1 DIV PUSH20 0xFFFFFFFFFFFFFFFFFFFFFFFFFFFFFFFFFFFFFFFF AND SWAP1 DUP1 PUSH1 0x1 ADD PUSH0 SWAP1 SLOAD SWAP1 PUSH2 0x100 EXP SWAP1 DIV PUSH20 0xFFFFFFFFFFFFFFFFFFFFFFFFFFFFFFFFFFFFFFFF AND SWAP1 DUP1 PUSH1 0x2 ADD SLOAD SWAP1 DUP1 PUSH1 0x3 ADD SLOAD SWAP1 DUP1 PUSH1 0x4 ADD SLOAD SWAP1 DUP1 PUSH1 0x5 ADD SLOAD SWAP1 DUP1 PUSH1 0x6 ADD PUSH0 SWAP1 SLOAD SWAP1 PUSH2 0x100 EXP SWAP1 DIV PUSH1 0xFF AND SWAP1 DUP1 PUSH1 0x6 ADD PUSH1 0x1 SWAP1 SLOAD SWAP1 PUSH2 0x100 EXP SWAP1 DIV PUSH1 0xFF AND SWAP1 POP DUP9 JUMP JUMPDEST PUSH0 DUP1 REVERT JUMPDEST PUSH0 DUP2 SWAP1 POP SWAP2 SWAP1 POP JUMP JUMPDEST PUSH2 0xF30 DUP2 PUSH2 0xF1E JUMP JUMPDEST DUP2 EQ PUSH2 0xF3A JUMPI PUSH0 DUP1 REVERT JUMPDEST POP JUMP JUMPDEST PUSH0 DUP2 CALLDATALOAD SWAP1 POP PUSH2 0xF4B DUP2 PUSH2 0xF27 JUMP JUMPDEST SWAP3 SWAP2 POP POP JUMP JUMPDEST PUSH0 PUSH1 0x20 DUP3 DUP5 SUB SLT ISZERO PUSH2 0xF66 JUMPI PUSH2 0xF65 PUSH2 0xF1A JUMP JUMPDEST JUMPDEST PUSH0 PUSH2 0xF73 DUP5 DUP3 DUP6 ADD PUSH2 0xF3D JUMP JUMPDEST SWAP2 POP POP SWAP3 SWAP2 POP POP JUMP JUMPDEST PUSH2 0xF85 DUP2 PUSH2 0xF1E JUMP JUMPDEST DUP3 MSTORE POP POP JUMP JUMPDEST PUSH0 PUSH1 0x20 DUP3 ADD SWAP1 POP PUSH2 0xF9E PUSH0 DUP4 ADD DUP5 PUSH2 0xF7C JUMP JUMPDEST SWAP3 SWAP2 POP POP JUMP JUMPDEST PUSH0 DUP1 PUSH1 0x40 DUP4 DUP6 SUB SLT ISZERO PUSH2 0xFBA JUMPI PUSH2 0xFB9 PUSH2 0xF1A JUMP JUMPDEST JUMPDEST PUSH0 PUSH2 0xFC7 DUP6 DUP3 DUP7 ADD PUSH2 0xF3D JUMP JUMPDEST SWAP3 POP POP PUSH1 0x20 PUSH2 0xFD8 DUP6 DUP3 DUP7 ADD PUSH2 0xF3D JUMP JUMPDEST SWAP2 POP POP SWAP3 POP SWAP3 SWAP1 POP JUMP JUMPDEST PUSH0 PUSH20 0xFFFFFFFFFFFFFFFFFFFFFFFFFFFFFFFFFFFFFFFF DUP3 AND SWAP1 POP SWAP2 SWAP1 POP JUMP JUMPDEST PUSH0 PUSH2 0x100B DUP3 PUSH2 0xFE2 JUMP JUMPDEST SWAP1 POP SWAP2 SWAP1 POP JUMP JUMPDEST PUSH2 0x101B DUP2 PUSH2 0x1001 JUMP JUMPDEST DUP3 MSTORE POP POP JUMP JUMPDEST PUSH0 DUP2 ISZERO ISZERO SWAP1 POP SWAP2 SWAP1 POP JUMP JUMPDEST PUSH2 0x1035 DUP2 PUSH2 0x1021 JUMP JUMPDEST DUP3 MSTORE POP POP JUMP JUMPDEST PUSH0 PUSH2 0x100 DUP3 ADD SWAP1 POP PUSH2 0x104F PUSH0 DUP4 ADD DUP12 PUSH2 0x1012 JUMP JUMPDEST PUSH2 0x105C PUSH1 0x20 DUP4 ADD DUP11 PUSH2 0x1012 JUMP JUMPDEST PUSH2 0x1069 PUSH1 0x40 DUP4 ADD DUP10 PUSH2 0xF7C JUMP JUMPDEST PUSH2 0x1076 PUSH1 0x60 DUP4 ADD DUP9 PUSH2 0xF7C JUMP JUMPDEST PUSH2 0x1083 PUSH1 0x80 DUP4 ADD DUP8 PUSH2 0xF7C JUMP JUMPDEST PUSH2 0x1090 PUSH1 0xA0 DUP4 ADD DUP7 PUSH2 0xF7C JUMP JUMPDEST PUSH2 0x109D PUSH1 0xC0 DUP4 ADD DUP6 PUSH2 0x102C JUMP JUMPDEST PUSH2 0x10AA PUSH1 0xE0 DUP4 ADD DUP5 PUSH2 0x102C JUMP JUMPDEST SWAP10 SWAP9 POP POP POP POP POP POP POP POP POP JUMP JUMPDEST PUSH0 DUP3 DUP3 MSTORE PUSH1 0x20 DUP3 ADD SWAP1 POP SWAP3 SWAP2 POP POP JUMP JUMPDEST PUSH32 0x4E6F74206C656E64657200000000000000000000000000000000000000000000 PUSH0 DUP3 ADD MSTORE POP JUMP JUMPDEST PUSH0 PUSH2 0x10FB PUSH1 0xA DUP4 PUSH2 0x10B7 JUMP JUMPDEST SWAP2 POP PUSH2 0x1106 DUP3 PUSH2 0x10C7 JUMP JUMPDEST PUSH1 0x20 DUP3 ADD SWAP1 POP SWAP2 SWAP1 POP JUMP JUMPDEST PUSH0 PUSH1 0x20 DUP3 ADD SWAP1 POP DUP2 DUP2 SUB PUSH0 DUP4 ADD MSTORE PUSH2 0x1128 DUP2 PUSH2 0x10EF JUMP JUMPDEST SWAP1 POP SWAP2 SWAP1 POP JUMP JUMPDEST PUSH32 0x4E6F742072657061696420796574000000000000000000000000000000000000 PUSH0 DUP3 ADD MSTORE POP JUMP JUMPDEST PUSH0 PUSH2 0x1163 PUSH1 0xE DUP4 PUSH2 0x10B7 JUMP JUMPDEST SWAP2 POP PUSH2 0x116E DUP3 PUSH2 0x112F JUMP JUMPDEST PUSH1 0x20 DUP3 ADD SWAP1 POP SWAP2 SWAP1 POP JUMP JUMPDEST PUSH0 PUSH1 0x20 DUP3 ADD SWAP1 POP DUP2 DUP2 SUB PUSH0 DUP4 ADD MSTORE PUSH2 0x1190 DUP2 PUSH2 0x1157 JUMP JUMPDEST SWAP1 POP SWAP2 SWAP1 POP JUMP JUMPDEST PUSH32 0x416C72656164792077697468647261776E000000000000000000000000000000 PUSH0 DUP3 ADD MSTORE POP JUMP JUMPDEST PUSH0 PUSH2 0x11CB PUSH1 0x11 DUP4 PUSH2 0x10B7 JUMP JUMPDEST SWAP2 POP PUSH2 0x11D6 DUP3 PUSH2 0x1197 JUMP JUMPDEST PUSH1 0x20 DUP3 ADD SWAP1 POP SWAP2 SWAP1 POP JUMP JUMPDEST PUSH0 PUSH1 0x20 DUP3 ADD SWAP1 POP DUP2 DUP2 SUB PUSH0 DUP4 ADD MSTORE PUSH2 0x11F8 DUP2 PUSH2 0x11BF JUMP JUMPDEST SWAP1 POP SWAP2 SWAP1 POP JUMP JUMPDEST PUSH32 0x4C6F616E20646F6573206E6F7420657869737400000000000000000000000000 PUSH0 DUP3 ADD MSTORE POP JUMP JUMPDEST PUSH0 PUSH2 0x1233 PUSH1 0x13 DUP4 PUSH2 0x10B7 JUMP JUMPDEST SWAP2 POP PUSH2 0x123E DUP3 PUSH2 0x11FF JUMP JUMPDEST PUSH1 0x20 DUP3 ADD SWAP1 POP SWAP2 SWAP1 POP JUMP JUMPDEST PUSH0 PUSH1 0x20 DUP3 ADD SWAP1 POP DUP2 DUP2 SUB PUSH0 DUP4 ADD MSTORE PUSH2 0x1260 DUP2 PUSH2 0x1227 JUMP JUMPDEST SWAP1 POP SWAP2 SWAP1 POP JUMP JUMPDEST PUSH32 0x4C6F616E20616C72656164792074616B656E0000000000000000000000000000 PUSH0 DUP3 ADD MSTORE POP JUMP JUMPDEST PUSH0 PUSH2 0x129B PUSH1 0x12 DUP4 PUSH2 0x10B7 JUMP JUMPDEST SWAP2 POP PUSH2 0x12A6 DUP3 PUSH2 0x1267 JUMP JUMPDEST PUSH1 0x20 DUP3 ADD SWAP1 POP SWAP2 SWAP1 POP JUMP JUMPDEST PUSH0 PUSH1 0x20 DUP3 ADD SWAP1 POP DUP2 DUP2 SUB PUSH0 DUP4 ADD MSTORE PUSH2 0x12C8 DUP2 PUSH2 0x128F JUMP JUMPDEST SWAP1 POP SWAP2 SWAP1 POP JUMP JUMPDEST PUSH32 0x4E6F7420626F72726F7765720000000000000000000000000000000000000000 PUSH0 DUP3 ADD MSTORE POP JUMP JUMPDEST PUSH0 PUSH2 0x1303 PUSH1 0xC DUP4 PUSH2 0x10B7 JUMP JUMPDEST SWAP2 POP PUSH2 0x130E DUP3 PUSH2 0x12CF JUMP JUMPDEST PUSH1 0x20 DUP3 ADD SWAP1 POP SWAP2 SWAP1 POP JUMP JUMPDEST PUSH0 PUSH1 0x20 DUP3 ADD SWAP1 POP DUP2 DUP2 SUB PUSH0 DUP4 ADD MSTORE PUSH2 0x1330 DUP2 PUSH2 0x12F7 JUMP JUMPDEST SWAP1 POP SWAP2 SWAP1 POP JUMP JUMPDEST PUSH32 0x416C726561647920726570616964000000000000000000000000000000000000 PUSH0 DUP3 ADD MSTORE POP JUMP JUMPDEST PUSH0 PUSH2 0x136B PUSH1 0xE DUP4 PUSH2 0x10B7 JUMP JUMPDEST SWAP2 POP PUSH2 0x1376 DUP3 PUSH2 0x1337 JUMP JUMPDEST PUSH1 0x20 DUP3 ADD SWAP1 POP SWAP2 SWAP1 POP JUMP JUMPDEST PUSH0 PUSH1 0x20 DUP3 ADD SWAP1 POP DUP2 DUP2 SUB PUSH0 DUP4 ADD MSTORE PUSH2 0x1398 DUP2 PUSH2 0x135F JUMP JUMPDEST SWAP1 POP SWAP2 SWAP1 POP JUMP JUMPDEST PUSH32 0x4C6F616E206E6F74207374617274656400000000000000000000000000000000 PUSH0 DUP3 ADD MSTORE POP JUMP JUMPDEST PUSH0 PUSH2 0x13D3 PUSH1 0x10 DUP4 PUSH2 0x10B7 JUMP JUMPDEST SWAP2 POP PUSH2 0x13DE DUP3 PUSH2 0x139F JUMP JUMPDEST PUSH1 0x20 DUP3 ADD SWAP1 POP SWAP2 SWAP1 POP JUMP JUMPDEST PUSH0 PUSH1 0x20 DUP3 ADD SWAP1 POP DUP2 DUP2 SUB PUSH0 DUP4 ADD MSTORE PUSH2 0x1400 DUP2 PUSH2 0x13C7 JUMP JUMPDEST SWAP1 POP SWAP2 SWAP1 POP JUMP JUMPDEST PUSH32 0x496E73756666696369656E742072657061796D656E7400000000000000000000 PUSH0 DUP3 ADD MSTORE POP JUMP JUMPDEST PUSH0 PUSH2 0x143B PUSH1 0x16 DUP4 PUSH2 0x10B7 JUMP JUMPDEST SWAP2 POP PUSH2 0x1446 DUP3 PUSH2 0x1407 JUMP JUMPDEST PUSH1 0x20 DUP3 ADD SWAP1 POP SWAP2 SWAP1 POP JUMP JUMPDEST PUSH0 PUSH1 0x20 DUP3 ADD SWAP1 POP DUP2 DUP2 SUB PUSH0 DUP4 ADD MSTORE PUSH2 0x1468 DUP2 PUSH2 0x142F JUMP JUMPDEST SWAP1 POP SWAP2 SWAP1 POP JUMP JUMPDEST PUSH32 0x4E487B7100000000000000000000000000000000000000000000000000000000 PUSH0 MSTORE PUSH1 0x11 PUSH1 0x4 MSTORE PUSH1 0x24 PUSH0 REVERT JUMPDEST PUSH0 PUSH2 0x14A6 DUP3 PUSH2 0xF1E JUMP JUMPDEST SWAP2 POP PUSH2 0x14B1 DUP4 PUSH2 0xF1E JUMP JUMPDEST SWAP3 POP DUP3 DUP3 SUB SWAP1 POP DUP2 DUP2 GT ISZERO PUSH2 0x14C9 JUMPI PUSH2 0x14C8 PUSH2 0x146F JUMP JUMPDEST JUMPDEST SWAP3 SWAP2 POP POP JUMP JUMPDEST PUSH0 PUSH2 0x14D9 DUP3 PUSH2 0xF1E JUMP JUMPDEST SWAP2 POP PUSH2 0x14E4 DUP4 PUSH2 0xF1E JUMP JUMPDEST SWAP3 POP DUP3 DUP3 ADD SWAP1 POP DUP1 DUP3 GT ISZERO PUSH2 0x14FC JUMPI PUSH2 0x14FB PUSH2 0x146F JUMP JUMPDEST JUMPDEST SWAP3 SWAP2 POP POP JUMP JUMPDEST PUSH0 PUSH2 0x150C DUP3 PUSH2 0xF1E JUMP JUMPDEST SWAP2 POP PUSH2 0x1517 DUP4 PUSH2 0xF1E JUMP JUMPDEST SWAP3 POP DUP3 DUP3 MUL PUSH2 0x1525 DUP2 PUSH2 0xF1E JUMP JUMPDEST SWAP2 POP DUP3 DUP3 DIV DUP5 EQ DUP4 ISZERO OR PUSH2 0x153C JUMPI PUSH2 0x153B PUSH2 0x146F JUMP JUMPDEST JUMPDEST POP SWAP3 SWAP2 POP POP JUMP JUMPDEST PUSH32 0x4E487B7100000000000000000000000000000000000000000000000000000000 PUSH0 MSTORE PUSH1 0x12 PUSH1 0x4 MSTORE PUSH1 0x24 PUSH0 REVERT JUMPDEST PUSH0 PUSH2 0x157A DUP3 PUSH2 0xF1E JUMP JUMPDEST SWAP2 POP PUSH2 0x1585 DUP4 PUSH2 0xF1E JUMP JUMPDEST SWAP3 POP DUP3 PUSH2 0x1595 JUMPI PUSH2 0x1594 PUSH2 0x1543 JUMP JUMPDEST JUMPDEST DUP3 DUP3 DIV SWAP1 POP SWAP3 SWAP2 POP POP JUMP JUMPDEST PUSH32 0x4E6F2066756E64732073656E7400000000000000000000000000000000000000 PUSH0 DUP3 ADD MSTORE POP JUMP JUMPDEST PUSH0 PUSH2 0x15D4 PUSH1 0xD DUP4 PUSH2 0x10B7 JUMP JUMPDEST SWAP2 POP PUSH2 0x15DF DUP3 PUSH2 0x15A0 JUMP JUMPDEST PUSH1 0x20 DUP3 ADD SWAP1 POP SWAP2 SWAP1 POP JUMP JUMPDEST PUSH0 PUSH1 0x20 DUP3 ADD SWAP1 POP DUP2 DUP2 SUB PUSH0 DUP4 ADD MSTORE PUSH2 0x1601 DUP2 PUSH2 0x15C8 JUMP JUMPDEST SWAP1 POP SWAP2 SWAP1 POP JUMP JUMPDEST PUSH32 0x4475726174696F6E206D75737420626520706F73697469766500000000000000 PUSH0 DUP3 ADD MSTORE POP JUMP JUMPDEST PUSH0 PUSH2 0x163C PUSH1 0x19 DUP4 PUSH2 0x10B7 JUMP JUMPDEST SWAP2 POP PUSH2 0x1647 DUP3 PUSH2 0x1608 JUMP JUMPDEST PUSH1 0x20 DUP3 ADD SWAP1 POP SWAP2 SWAP1 POP JUMP JUMPDEST PUSH0 PUSH1 0x20 DUP3 ADD SWAP1 POP DUP2 DUP2 SUB PUSH0 DUP4 ADD MSTORE PUSH2 0x1669 DUP2 PUSH2 0x1630 JUMP JUMPDEST SWAP1 POP SWAP2 SWAP1 POP JUMP JUMPDEST PUSH0 PUSH2 0x167A DUP3 PUSH2 0xF1E JUMP JUMPDEST SWAP2 POP PUSH32 0xFFFFFFFFFFFFFFFFFFFFFFFFFFFFFFFFFFFFFFFFFFFFFFFFFFFFFFFFFFFFFFFF DUP3 SUB PUSH2 0x16AC JUMPI PUSH2 0x16AB PUSH2 0x146F JUMP JUMPDEST JUMPDEST PUSH1 0x1 DUP3 ADD SWAP1 POP SWAP2 SWAP1 POP JUMP JUMPDEST PUSH0 PUSH1 0x60 DUP3 ADD SWAP1 POP PUSH2 0x16CA PUSH0 DUP4 ADD DUP7 PUSH2 0xF7C JUMP JUMPDEST PUSH2 0x16D7 PUSH1 0x20 DUP4 ADD DUP6 PUSH2 0xF7C JUMP JUMPDEST PUSH2 0x16E4 PUSH1 0x40 DUP4 ADD DUP5 PUSH2 0xF7C JUMP JUMPDEST SWAP5 SWAP4 POP POP POP POP JUMP INVALID LOG2 PUSH5 0x6970667358 0x22 SLT KECCAK256 PUSH12 0xD33AC78F32E7AB68536373B8 0xC7 0xE2 0xB8 ADD SWAP5 PUSH32 0x84805944C57E66CC957A0236FD64736F6C634300081A00330000000000000000 "
				},
				"gasEstimates": {
					"creation": {
						"codeDepositCost": "1184400",
						"executionCost": "1232",
						"totalCost": "1185632"
					},
					"external": {
						"cancelLoan(uint256)": "infinite",
						"getTotalRepayAmount(uint256)": "infinite",
						"loanIdCounter()": "2469",
						"loans(uint256)": "infinite",
						"offerLoan(uint256,uint256)": "infinite",
						"repayLoan(uint256)": "infinite",
						"takeLoan(uint256)": "infinite",
						"withdraws(uint256)": "infinite"
					}
				},
				"methodIdentifiers": {
					"cancelLoan(uint256)": "bdbfa3de",
					"getTotalRepayAmount(uint256)": "b8306fb4",
					"loanIdCounter()": "9d939d16",
					"loans(uint256)": "e1ec3c68",
					"offerLoan(uint256,uint256)": "dc4c2e7f",
					"repayLoan(uint256)": "ab7b1c89",
					"takeLoan(uint256)": "8c803fc2",
					"withdraws(uint256)": "55466c37"
				}
			},
			"storageLayout": {
				"storage": [
					{
						"astId": 20,
						"contract": "Day-17/code1.sol:LendingBorrowing",
						"label": "loanIdCounter",
						"offset": 0,
						"slot": "0",
						"type": "t_uint256"
					},
					{
						"astId": 25,
						"contract": "Day-17/code1.sol:LendingBorrowing",
						"label": "loans",
						"offset": 0,
						"slot": "1",
						"type": "t_mapping(t_uint256,t_struct(Loan)18_storage)"
					}
				],
				"types": {
					"t_address": {
						"encoding": "inplace",
						"label": "address",
						"numberOfBytes": "20"
					},
					"t_bool": {
						"encoding": "inplace",
						"label": "bool",
						"numberOfBytes": "1"
					},
					"t_mapping(t_uint256,t_struct(Loan)18_storage)": {
						"encoding": "mapping",
						"key": "t_uint256",
						"label": "mapping(uint256 => struct LendingBorrowing.Loan)",
						"numberOfBytes": "32",
						"value": "t_struct(Loan)18_storage"
					},
					"t_struct(Loan)18_storage": {
						"encoding": "inplace",
						"label": "struct LendingBorrowing.Loan",
						"members": [
							{
								"astId": 3,
								"contract": "Day-17/code1.sol:LendingBorrowing",
								"label": "lender",
								"offset": 0,
								"slot": "0",
								"type": "t_address"
							},
							{
								"astId": 5,
								"contract": "Day-17/code1.sol:LendingBorrowing",
								"label": "borrower",
								"offset": 0,
								"slot": "1",
								"type": "t_address"
							},
							{
								"astId": 7,
								"contract": "Day-17/code1.sol:LendingBorrowing",
								"label": "principal",
								"offset": 0,
								"slot": "2",
								"type": "t_uint256"
							},
							{
								"astId": 9,
								"contract": "Day-17/code1.sol:LendingBorrowing",
								"label": "interestRate",
								"offset": 0,
								"slot": "3",
								"type": "t_uint256"
							},
							{
								"astId": 11,
								"contract": "Day-17/code1.sol:LendingBorrowing",
								"label": "startTimestamp",
								"offset": 0,
								"slot": "4",
								"type": "t_uint256"
							},
							{
								"astId": 13,
								"contract": "Day-17/code1.sol:LendingBorrowing",
								"label": "duration",
								"offset": 0,
								"slot": "5",
								"type": "t_uint256"
							},
							{
								"astId": 15,
								"contract": "Day-17/code1.sol:LendingBorrowing",
								"label": "isRepaid",
								"offset": 0,
								"slot": "6",
								"type": "t_bool"
							},
							{
								"astId": 17,
								"contract": "Day-17/code1.sol:LendingBorrowing",
								"label": "isWithdrawn",
								"offset": 1,
								"slot": "6",
								"type": "t_bool"
							}
						],
						"numberOfBytes": "224"
					},
					"t_uint256": {
						"encoding": "inplace",
						"label": "uint256",
						"numberOfBytes": "32"
					}
				}
			},
			"userdoc": {
				"kind": "user",
				"methods": {},
				"version": 1
			}
		}
	}
}