{
	"Day-31/code1.sol": {
		"avgCalulator": {
			"abi": [
				{
					"anonymous": false,
					"inputs": [],
					"name": "AverageReset",
					"type": "event"
				},
				{
					"anonymous": false,
					"inputs": [
						{
							"indexed": false,
							"internalType": "uint256",
							"name": "number",
							"type": "uint256"
						},
						{
							"indexed": false,
							"internalType": "uint256",
							"name": "newAverage",
							"type": "uint256"
						}
					],
					"name": "NumberAdded",
					"type": "event"
				},
				{
					"inputs": [
						{
							"internalType": "uint256",
							"name": "_number",
							"type": "uint256"
						}
					],
					"name": "addNumber",
					"outputs": [],
					"stateMutability": "nonpayable",
					"type": "function"
				},
				{
					"inputs": [],
					"name": "getAverage",
					"outputs": [
						{
							"internalType": "uint256",
							"name": "",
							"type": "uint256"
						}
					],
					"stateMutability": "view",
					"type": "function"
				},
				{
					"inputs": [],
					"name": "getReadableAverage",
					"outputs": [
						{
							"internalType": "uint256",
							"name": "",
							"type": "uint256"
						}
					],
					"stateMutability": "view",
					"type": "function"
				},
				{
					"inputs": [],
					"name": "getStats",
					"outputs": [
						{
							"internalType": "uint256",
							"name": "totalSum",
							"type": "uint256"
						},
						{
							"internalType": "uint256",
							"name": "count",
							"type": "uint256"
						},
						{
							"internalType": "uint256",
							"name": "preciseAverage",
							"type": "uint256"
						}
					],
					"stateMutability": "view",
					"type": "function"
				},
				{
					"inputs": [],
					"name": "reset",
					"outputs": [],
					"stateMutability": "nonpayable",
					"type": "function"
				}
			],
			"devdoc": {
				"kind": "dev",
				"methods": {},
				"version": 1
			},
			"evm": {
				"assembly": "    /* \"Day-31/code1.sol\":61:1411  contract avgCalulator{... */\n  mstore(0x40, 0x80)\n  callvalue\n  dup1\n  iszero\n  tag_1\n  jumpi\n  0x00\n  dup1\n  revert\ntag_1:\n  pop\n  dataSize(sub_0)\n  dup1\n  dataOffset(sub_0)\n  0x00\n  codecopy\n  0x00\n  return\nstop\n\nsub_0: assembly {\n        /* \"Day-31/code1.sol\":61:1411  contract avgCalulator{... */\n      mstore(0x40, 0x80)\n      callvalue\n      dup1\n      iszero\n      tag_1\n      jumpi\n      0x00\n      dup1\n      revert\n    tag_1:\n      pop\n      jumpi(tag_2, lt(calldatasize, 0x04))\n      shr(0xe0, calldataload(0x00))\n      dup1\n      0x21055acb\n      eq\n      tag_3\n      jumpi\n      dup1\n      0x38e049d3\n      eq\n      tag_4\n      jumpi\n      dup1\n      0xc59d4847\n      eq\n      tag_5\n      jumpi\n      dup1\n      0xd826f88f\n      eq\n      tag_6\n      jumpi\n      dup1\n      0xfce68023\n      eq\n      tag_7\n      jumpi\n    tag_2:\n      0x00\n      dup1\n      revert\n        /* \"Day-31/code1.sol\":840:941  function getAverage() external view returns(uint256){... */\n    tag_3:\n      tag_8\n      tag_9\n      jump\t// in\n    tag_8:\n      mload(0x40)\n      tag_10\n      swap2\n      swap1\n      tag_11\n      jump\t// in\n    tag_10:\n      mload(0x40)\n      dup1\n      swap2\n      sub\n      swap1\n      return\n        /* \"Day-31/code1.sol\":949:1065  function getReadableAverage() external view returns(uint256){... */\n    tag_4:\n      tag_12\n      tag_13\n      jump\t// in\n    tag_12:\n      mload(0x40)\n      tag_14\n      swap2\n      swap1\n      tag_11\n      jump\t// in\n    tag_14:\n      mload(0x40)\n      dup1\n      swap2\n      sub\n      swap1\n      return\n        /* \"Day-31/code1.sol\":1190:1408  function getStats() external view returns (uint256 totalSum, uint256 count, uint256 preciseAverage){... */\n    tag_5:\n      tag_15\n      tag_16\n      jump\t// in\n    tag_15:\n      mload(0x40)\n      tag_17\n      swap4\n      swap3\n      swap2\n      swap1\n      tag_18\n      jump\t// in\n    tag_17:\n      mload(0x40)\n      dup1\n      swap2\n      sub\n      swap1\n      return\n        /* \"Day-31/code1.sol\":1073:1182  function reset() external {... */\n    tag_6:\n      tag_19\n      tag_20\n      jump\t// in\n    tag_19:\n      stop\n        /* \"Day-31/code1.sol\":331:832  function addNumber(uint256 _number) external {... */\n    tag_7:\n      tag_21\n      0x04\n      dup1\n      calldatasize\n      sub\n      dup2\n      add\n      swap1\n      tag_22\n      swap2\n      swap1\n      tag_23\n      jump\t// in\n    tag_22:\n      tag_24\n      jump\t// in\n    tag_21:\n      stop\n        /* \"Day-31/code1.sol\":840:941  function getAverage() external view returns(uint256){... */\n    tag_9:\n        /* \"Day-31/code1.sol\":884:891  uint256 */\n      0x00\n        /* \"Day-31/code1.sol\":910:921  averageData */\n      dup1\n        /* \"Day-31/code1.sol\":910:933  averageData.lastAverage */\n      0x00\n      add\n      0x14\n      swap1\n      sload\n      swap1\n      0x0100\n      exp\n      swap1\n      div\n      0xffffffffffffffffffffffff\n      and\n        /* \"Day-31/code1.sol\":903:933  return averageData.lastAverage */\n      0xffffffffffffffffffffffff\n      and\n      swap1\n      pop\n        /* \"Day-31/code1.sol\":840:941  function getAverage() external view returns(uint256){... */\n      swap1\n      jump\t// out\n        /* \"Day-31/code1.sol\":949:1065  function getReadableAverage() external view returns(uint256){... */\n    tag_13:\n        /* \"Day-31/code1.sol\":1001:1008  uint256 */\n      0x00\n        /* \"Day-31/code1.sol\":1053:1057  1000 */\n      0x03e8\n        /* \"Day-31/code1.sol\":1027:1038  averageData */\n      0x00\n        /* \"Day-31/code1.sol\":1027:1050  averageData.lastAverage */\n      dup1\n      add\n      0x14\n      swap1\n      sload\n      swap1\n      0x0100\n      exp\n      swap1\n      div\n      0xffffffffffffffffffffffff\n      and\n        /* \"Day-31/code1.sol\":1027:1057  averageData.lastAverage / 1000 */\n      tag_27\n      swap2\n      swap1\n      tag_28\n      jump\t// in\n    tag_27:\n        /* \"Day-31/code1.sol\":1020:1057  return averageData.lastAverage / 1000 */\n      0xffffffffffffffffffffffff\n      and\n      swap1\n      pop\n        /* \"Day-31/code1.sol\":949:1065  function getReadableAverage() external view returns(uint256){... */\n      swap1\n      jump\t// out\n        /* \"Day-31/code1.sol\":1190:1408  function getStats() external view returns (uint256 totalSum, uint256 count, uint256 preciseAverage){... */\n    tag_16:\n        /* \"Day-31/code1.sol\":1233:1249  uint256 totalSum */\n      0x00\n        /* \"Day-31/code1.sol\":1251:1264  uint256 count */\n      dup1\n        /* \"Day-31/code1.sol\":1266:1288  uint256 preciseAverage */\n      0x00\n        /* \"Day-31/code1.sol\":1300:1323  AverageData memory data */\n      dup1\n        /* \"Day-31/code1.sol\":1326:1337  averageData */\n      0x00\n        /* \"Day-31/code1.sol\":1300:1337  AverageData memory data = averageData */\n      mload(0x40)\n      dup1\n      0x60\n      add\n      0x40\n      mstore\n      swap1\n      dup2\n      0x00\n      dup3\n      add\n      0x00\n      swap1\n      sload\n      swap1\n      0x0100\n      exp\n      swap1\n      div\n      0xffffffffffffffffffffffffffffffff\n      and\n      0xffffffffffffffffffffffffffffffff\n      and\n      0xffffffffffffffffffffffffffffffff\n      and\n      dup2\n      mstore\n      0x20\n      add\n      0x00\n      dup3\n      add\n      0x10\n      swap1\n      sload\n      swap1\n      0x0100\n      exp\n      swap1\n      div\n      0xffffffff\n      and\n      0xffffffff\n      and\n      0xffffffff\n      and\n      dup2\n      mstore\n      0x20\n      add\n      0x00\n      dup3\n      add\n      0x14\n      swap1\n      sload\n      swap1\n      0x0100\n      exp\n      swap1\n      div\n      0xffffffffffffffffffffffff\n      and\n      0xffffffffffffffffffffffff\n      and\n      0xffffffffffffffffffffffff\n      and\n      dup2\n      mstore\n      pop\n      pop\n      swap1\n      pop\n        /* \"Day-31/code1.sol\":1356:1360  data */\n      dup1\n        /* \"Day-31/code1.sol\":1356:1369  data.totalSum */\n      0x00\n      add\n      mload\n        /* \"Day-31/code1.sol\":1371:1375  data */\n      dup2\n        /* \"Day-31/code1.sol\":1371:1381  data.count */\n      0x20\n      add\n      mload\n        /* \"Day-31/code1.sol\":1383:1387  data */\n      dup3\n        /* \"Day-31/code1.sol\":1383:1399  data.lastAverage */\n      0x40\n      add\n      mload\n        /* \"Day-31/code1.sol\":1348:1400  return (data.totalSum, data.count, data.lastAverage) */\n      dup3\n      0xffffffffffffffffffffffffffffffff\n      and\n      swap3\n      pop\n      dup2\n      0xffffffff\n      and\n      swap2\n      pop\n      dup1\n      0xffffffffffffffffffffffff\n      and\n      swap1\n      pop\n      swap4\n      pop\n      swap4\n      pop\n      swap4\n      pop\n      pop\n        /* \"Day-31/code1.sol\":1190:1408  function getStats() external view returns (uint256 totalSum, uint256 count, uint256 preciseAverage){... */\n      swap1\n      swap2\n      swap3\n      jump\t// out\n        /* \"Day-31/code1.sol\":1073:1182  function reset() external {... */\n    tag_20:\n        /* \"Day-31/code1.sol\":1124:1144  AverageData(0, 0, 0) */\n      mload(0x40)\n      dup1\n      0x60\n      add\n      0x40\n      mstore\n      dup1\n        /* \"Day-31/code1.sol\":1136:1137  0 */\n      0x00\n        /* \"Day-31/code1.sol\":1124:1144  AverageData(0, 0, 0) */\n      0xffffffffffffffffffffffffffffffff\n      and\n      dup2\n      mstore\n      0x20\n      add\n        /* \"Day-31/code1.sol\":1139:1140  0 */\n      0x00\n        /* \"Day-31/code1.sol\":1124:1144  AverageData(0, 0, 0) */\n      0xffffffff\n      and\n      dup2\n      mstore\n      0x20\n      add\n        /* \"Day-31/code1.sol\":1142:1143  0 */\n      0x00\n        /* \"Day-31/code1.sol\":1124:1144  AverageData(0, 0, 0) */\n      0xffffffffffffffffffffffff\n      and\n      dup2\n      mstore\n      pop\n        /* \"Day-31/code1.sol\":1110:1121  averageData */\n      0x00\n        /* \"Day-31/code1.sol\":1110:1144  averageData = AverageData(0, 0, 0) */\n      dup1\n      dup3\n      add\n      mload\n      dup2\n      0x00\n      add\n      exp(0x0100, 0x00)\n      dup2\n      sload\n      dup2\n      0xffffffffffffffffffffffffffffffff\n      mul\n      not\n      and\n      swap1\n      dup4\n      0xffffffffffffffffffffffffffffffff\n      and\n      mul\n      or\n      swap1\n      sstore\n      pop\n      0x20\n      dup3\n      add\n      mload\n      dup2\n      0x00\n      add\n      exp(0x0100, 0x10)\n      dup2\n      sload\n      dup2\n      0xffffffff\n      mul\n      not\n      and\n      swap1\n      dup4\n      0xffffffff\n      and\n      mul\n      or\n      swap1\n      sstore\n      pop\n      0x40\n      dup3\n      add\n      mload\n      dup2\n      0x00\n      add\n      exp(0x0100, 0x14)\n      dup2\n      sload\n      dup2\n      0xffffffffffffffffffffffff\n      mul\n      not\n      and\n      swap1\n      dup4\n      0xffffffffffffffffffffffff\n      and\n      mul\n      or\n      swap1\n      sstore\n      pop\n      swap1\n      pop\n      pop\n        /* \"Day-31/code1.sol\":1160:1174  AverageReset() */\n      0x2531b481092fda7531f57ac16900b99a3dd63ab6ec95287822745b5c1f63b60f\n      mload(0x40)\n      mload(0x40)\n      dup1\n      swap2\n      sub\n      swap1\n      log1\n        /* \"Day-31/code1.sol\":1073:1182  function reset() external {... */\n      jump\t// out\n        /* \"Day-31/code1.sol\":331:832  function addNumber(uint256 _number) external {... */\n    tag_24:\n        /* \"Day-31/code1.sol\":387:410  AverageData memory data */\n      0x00\n        /* \"Day-31/code1.sol\":413:424  averageData */\n      dup1\n        /* \"Day-31/code1.sol\":387:424  AverageData memory data = averageData */\n      mload(0x40)\n      dup1\n      0x60\n      add\n      0x40\n      mstore\n      swap1\n      dup2\n      0x00\n      dup3\n      add\n      0x00\n      swap1\n      sload\n      swap1\n      0x0100\n      exp\n      swap1\n      div\n      0xffffffffffffffffffffffffffffffff\n      and\n      0xffffffffffffffffffffffffffffffff\n      and\n      0xffffffffffffffffffffffffffffffff\n      and\n      dup2\n      mstore\n      0x20\n      add\n      0x00\n      dup3\n      add\n      0x10\n      swap1\n      sload\n      swap1\n      0x0100\n      exp\n      swap1\n      div\n      0xffffffff\n      and\n      0xffffffff\n      and\n      0xffffffff\n      and\n      dup2\n      mstore\n      0x20\n      add\n      0x00\n      dup3\n      add\n      0x14\n      swap1\n      sload\n      swap1\n      0x0100\n      exp\n      swap1\n      div\n      0xffffffffffffffffffffffff\n      and\n      0xffffffffffffffffffffffff\n      and\n      0xffffffffffffffffffffffff\n      and\n      dup2\n      mstore\n      pop\n      pop\n      swap1\n      pop\n        /* \"Day-31/code1.sol\":437:456  uint256 newTotalSum */\n      0x00\n        /* \"Day-31/code1.sol\":475:482  _number */\n      dup3\n        /* \"Day-31/code1.sol\":459:463  data */\n      dup3\n        /* \"Day-31/code1.sol\":459:472  data.totalSum */\n      0x00\n      add\n      mload\n        /* \"Day-31/code1.sol\":459:482  data.totalSum + _number */\n      0xffffffffffffffffffffffffffffffff\n      and\n      tag_32\n      swap2\n      swap1\n      tag_33\n      jump\t// in\n    tag_32:\n        /* \"Day-31/code1.sol\":437:482  uint256 newTotalSum = data.totalSum + _number */\n      swap1\n      pop\n        /* \"Day-31/code1.sol\":493:508  uint32 newCount */\n      0x00\n        /* \"Day-31/code1.sol\":524:525  1 */\n      0x01\n        /* \"Day-31/code1.sol\":511:515  data */\n      dup4\n        /* \"Day-31/code1.sol\":511:521  data.count */\n      0x20\n      add\n      mload\n        /* \"Day-31/code1.sol\":511:525  data.count + 1 */\n      tag_34\n      swap2\n      swap1\n      tag_35\n      jump\t// in\n    tag_34:\n        /* \"Day-31/code1.sol\":493:525  uint32 newCount = data.count + 1 */\n      swap1\n      pop\n        /* \"Day-31/code1.sol\":538:560  uint256 preciseAverage */\n      0x00\n        /* \"Day-31/code1.sol\":586:594  newCount */\n      dup2\n        /* \"Day-31/code1.sol\":563:594  (newTotalSum * 1000) / newCount */\n      0xffffffff\n      and\n        /* \"Day-31/code1.sol\":578:582  1000 */\n      0x03e8\n        /* \"Day-31/code1.sol\":564:575  newTotalSum */\n      dup5\n        /* \"Day-31/code1.sol\":564:582  newTotalSum * 1000 */\n      tag_36\n      swap2\n      swap1\n      tag_37\n      jump\t// in\n    tag_36:\n        /* \"Day-31/code1.sol\":563:594  (newTotalSum * 1000) / newCount */\n      tag_38\n      swap2\n      swap1\n      tag_39\n      jump\t// in\n    tag_38:\n        /* \"Day-31/code1.sol\":538:594  uint256 preciseAverage = (newTotalSum * 1000) / newCount */\n      swap1\n      pop\n        /* \"Day-31/code1.sol\":621:770  AverageData({... */\n      mload(0x40)\n      dup1\n      0x60\n      add\n      0x40\n      mstore\n      dup1\n        /* \"Day-31/code1.sol\":666:677  newTotalSum */\n      dup5\n        /* \"Day-31/code1.sol\":621:770  AverageData({... */\n      0xffffffffffffffffffffffffffffffff\n      and\n      dup2\n      mstore\n      0x20\n      add\n        /* \"Day-31/code1.sol\":700:708  newCount */\n      dup4\n        /* \"Day-31/code1.sol\":621:770  AverageData({... */\n      0xffffffff\n      and\n      dup2\n      mstore\n      0x20\n      add\n        /* \"Day-31/code1.sol\":743:757  preciseAverage */\n      dup3\n        /* \"Day-31/code1.sol\":621:770  AverageData({... */\n      0xffffffffffffffffffffffff\n      and\n      dup2\n      mstore\n      pop\n        /* \"Day-31/code1.sol\":607:618  averageData */\n      0x00\n        /* \"Day-31/code1.sol\":607:770  averageData = AverageData({... */\n      dup1\n      dup3\n      add\n      mload\n      dup2\n      0x00\n      add\n      exp(0x0100, 0x00)\n      dup2\n      sload\n      dup2\n      0xffffffffffffffffffffffffffffffff\n      mul\n      not\n      and\n      swap1\n      dup4\n      0xffffffffffffffffffffffffffffffff\n      and\n      mul\n      or\n      swap1\n      sstore\n      pop\n      0x20\n      dup3\n      add\n      mload\n      dup2\n      0x00\n      add\n      exp(0x0100, 0x10)\n      dup2\n      sload\n      dup2\n      0xffffffff\n      mul\n      not\n      and\n      swap1\n      dup4\n      0xffffffff\n      and\n      mul\n      or\n      swap1\n      sstore\n      pop\n      0x40\n      dup3\n      add\n      mload\n      dup2\n      0x00\n      add\n      exp(0x0100, 0x14)\n      dup2\n      sload\n      dup2\n      0xffffffffffffffffffffffff\n      mul\n      not\n      and\n      swap1\n      dup4\n      0xffffffffffffffffffffffff\n      and\n      mul\n      or\n      swap1\n      sstore\n      pop\n      swap1\n      pop\n      pop\n        /* \"Day-31/code1.sol\":788:824  NumberAdded(_number, preciseAverage) */\n      0x3953975296e80fadd8df493e1e04b0cf0360a89eaf91ce2195c2a48feeb7579d\n        /* \"Day-31/code1.sol\":800:807  _number */\n      dup6\n        /* \"Day-31/code1.sol\":809:823  preciseAverage */\n      dup3\n        /* \"Day-31/code1.sol\":788:824  NumberAdded(_number, preciseAverage) */\n      mload(0x40)\n      tag_40\n      swap3\n      swap2\n      swap1\n      tag_41\n      jump\t// in\n    tag_40:\n      mload(0x40)\n      dup1\n      swap2\n      sub\n      swap1\n      log1\n        /* \"Day-31/code1.sol\":376:832  {... */\n      pop\n      pop\n      pop\n      pop\n        /* \"Day-31/code1.sol\":331:832  function addNumber(uint256 _number) external {... */\n      pop\n      jump\t// out\n        /* \"#utility.yul\":7:84   */\n    tag_42:\n        /* \"#utility.yul\":44:51   */\n      0x00\n        /* \"#utility.yul\":73:78   */\n      dup2\n        /* \"#utility.yul\":62:78   */\n      swap1\n      pop\n        /* \"#utility.yul\":7:84   */\n      swap2\n      swap1\n      pop\n      jump\t// out\n        /* \"#utility.yul\":90:208   */\n    tag_43:\n        /* \"#utility.yul\":177:201   */\n      tag_56\n        /* \"#utility.yul\":195:200   */\n      dup2\n        /* \"#utility.yul\":177:201   */\n      tag_42\n      jump\t// in\n    tag_56:\n        /* \"#utility.yul\":172:175   */\n      dup3\n        /* \"#utility.yul\":165:202   */\n      mstore\n        /* \"#utility.yul\":90:208   */\n      pop\n      pop\n      jump\t// out\n        /* \"#utility.yul\":214:436   */\n    tag_11:\n        /* \"#utility.yul\":307:311   */\n      0x00\n        /* \"#utility.yul\":345:347   */\n      0x20\n        /* \"#utility.yul\":334:343   */\n      dup3\n        /* \"#utility.yul\":330:348   */\n      add\n        /* \"#utility.yul\":322:348   */\n      swap1\n      pop\n        /* \"#utility.yul\":358:429   */\n      tag_58\n        /* \"#utility.yul\":426:427   */\n      0x00\n        /* \"#utility.yul\":415:424   */\n      dup4\n        /* \"#utility.yul\":411:428   */\n      add\n        /* \"#utility.yul\":402:408   */\n      dup5\n        /* \"#utility.yul\":358:429   */\n      tag_43\n      jump\t// in\n    tag_58:\n        /* \"#utility.yul\":214:436   */\n      swap3\n      swap2\n      pop\n      pop\n      jump\t// out\n        /* \"#utility.yul\":442:884   */\n    tag_18:\n        /* \"#utility.yul\":591:595   */\n      0x00\n        /* \"#utility.yul\":629:631   */\n      0x60\n        /* \"#utility.yul\":618:627   */\n      dup3\n        /* \"#utility.yul\":614:632   */\n      add\n        /* \"#utility.yul\":606:632   */\n      swap1\n      pop\n        /* \"#utility.yul\":642:713   */\n      tag_60\n        /* \"#utility.yul\":710:711   */\n      0x00\n        /* \"#utility.yul\":699:708   */\n      dup4\n        /* \"#utility.yul\":695:712   */\n      add\n        /* \"#utility.yul\":686:692   */\n      dup7\n        /* \"#utility.yul\":642:713   */\n      tag_43\n      jump\t// in\n    tag_60:\n        /* \"#utility.yul\":723:795   */\n      tag_61\n        /* \"#utility.yul\":791:793   */\n      0x20\n        /* \"#utility.yul\":780:789   */\n      dup4\n        /* \"#utility.yul\":776:794   */\n      add\n        /* \"#utility.yul\":767:773   */\n      dup6\n        /* \"#utility.yul\":723:795   */\n      tag_43\n      jump\t// in\n    tag_61:\n        /* \"#utility.yul\":805:877   */\n      tag_62\n        /* \"#utility.yul\":873:875   */\n      0x40\n        /* \"#utility.yul\":862:871   */\n      dup4\n        /* \"#utility.yul\":858:876   */\n      add\n        /* \"#utility.yul\":849:855   */\n      dup5\n        /* \"#utility.yul\":805:877   */\n      tag_43\n      jump\t// in\n    tag_62:\n        /* \"#utility.yul\":442:884   */\n      swap5\n      swap4\n      pop\n      pop\n      pop\n      pop\n      jump\t// out\n        /* \"#utility.yul\":971:1088   */\n    tag_45:\n        /* \"#utility.yul\":1080:1081   */\n      0x00\n        /* \"#utility.yul\":1077:1078   */\n      dup1\n        /* \"#utility.yul\":1070:1082   */\n      revert\n        /* \"#utility.yul\":1217:1339   */\n    tag_47:\n        /* \"#utility.yul\":1290:1314   */\n      tag_67\n        /* \"#utility.yul\":1308:1313   */\n      dup2\n        /* \"#utility.yul\":1290:1314   */\n      tag_42\n      jump\t// in\n    tag_67:\n        /* \"#utility.yul\":1283:1288   */\n      dup2\n        /* \"#utility.yul\":1280:1315   */\n      eq\n        /* \"#utility.yul\":1270:1333   */\n      tag_68\n      jumpi\n        /* \"#utility.yul\":1329:1330   */\n      0x00\n        /* \"#utility.yul\":1326:1327   */\n      dup1\n        /* \"#utility.yul\":1319:1331   */\n      revert\n        /* \"#utility.yul\":1270:1333   */\n    tag_68:\n        /* \"#utility.yul\":1217:1339   */\n      pop\n      jump\t// out\n        /* \"#utility.yul\":1345:1484   */\n    tag_48:\n        /* \"#utility.yul\":1391:1396   */\n      0x00\n        /* \"#utility.yul\":1429:1435   */\n      dup2\n        /* \"#utility.yul\":1416:1436   */\n      calldataload\n        /* \"#utility.yul\":1407:1436   */\n      swap1\n      pop\n        /* \"#utility.yul\":1445:1478   */\n      tag_70\n        /* \"#utility.yul\":1472:1477   */\n      dup2\n        /* \"#utility.yul\":1445:1478   */\n      tag_47\n      jump\t// in\n    tag_70:\n        /* \"#utility.yul\":1345:1484   */\n      swap3\n      swap2\n      pop\n      pop\n      jump\t// out\n        /* \"#utility.yul\":1490:1819   */\n    tag_23:\n        /* \"#utility.yul\":1549:1555   */\n      0x00\n        /* \"#utility.yul\":1598:1600   */\n      0x20\n        /* \"#utility.yul\":1586:1595   */\n      dup3\n        /* \"#utility.yul\":1577:1584   */\n      dup5\n        /* \"#utility.yul\":1573:1596   */\n      sub\n        /* \"#utility.yul\":1569:1601   */\n      slt\n        /* \"#utility.yul\":1566:1685   */\n      iszero\n      tag_72\n      jumpi\n        /* \"#utility.yul\":1604:1683   */\n      tag_73\n      tag_45\n      jump\t// in\n    tag_73:\n        /* \"#utility.yul\":1566:1685   */\n    tag_72:\n        /* \"#utility.yul\":1724:1725   */\n      0x00\n        /* \"#utility.yul\":1749:1802   */\n      tag_74\n        /* \"#utility.yul\":1794:1801   */\n      dup5\n        /* \"#utility.yul\":1785:1791   */\n      dup3\n        /* \"#utility.yul\":1774:1783   */\n      dup6\n        /* \"#utility.yul\":1770:1792   */\n      add\n        /* \"#utility.yul\":1749:1802   */\n      tag_48\n      jump\t// in\n    tag_74:\n        /* \"#utility.yul\":1739:1802   */\n      swap2\n      pop\n        /* \"#utility.yul\":1695:1812   */\n      pop\n        /* \"#utility.yul\":1490:1819   */\n      swap3\n      swap2\n      pop\n      pop\n      jump\t// out\n        /* \"#utility.yul\":1825:1934   */\n    tag_49:\n        /* \"#utility.yul\":1861:1868   */\n      0x00\n        /* \"#utility.yul\":1901:1927   */\n      0xffffffffffffffffffffffff\n        /* \"#utility.yul\":1894:1899   */\n      dup3\n        /* \"#utility.yul\":1890:1928   */\n      and\n        /* \"#utility.yul\":1879:1928   */\n      swap1\n      pop\n        /* \"#utility.yul\":1825:1934   */\n      swap2\n      swap1\n      pop\n      jump\t// out\n        /* \"#utility.yul\":1940:2120   */\n    tag_50:\n        /* \"#utility.yul\":1988:2065   */\n      0x4e487b7100000000000000000000000000000000000000000000000000000000\n        /* \"#utility.yul\":1985:1986   */\n      0x00\n        /* \"#utility.yul\":1978:2066   */\n      mstore\n        /* \"#utility.yul\":2085:2089   */\n      0x12\n        /* \"#utility.yul\":2082:2083   */\n      0x04\n        /* \"#utility.yul\":2075:2090   */\n      mstore\n        /* \"#utility.yul\":2109:2113   */\n      0x24\n        /* \"#utility.yul\":2106:2107   */\n      0x00\n        /* \"#utility.yul\":2099:2114   */\n      revert\n        /* \"#utility.yul\":2126:2306   */\n    tag_51:\n        /* \"#utility.yul\":2174:2251   */\n      0x4e487b7100000000000000000000000000000000000000000000000000000000\n        /* \"#utility.yul\":2171:2172   */\n      0x00\n        /* \"#utility.yul\":2164:2252   */\n      mstore\n        /* \"#utility.yul\":2271:2275   */\n      0x11\n        /* \"#utility.yul\":2268:2269   */\n      0x04\n        /* \"#utility.yul\":2261:2276   */\n      mstore\n        /* \"#utility.yul\":2295:2299   */\n      0x24\n        /* \"#utility.yul\":2292:2293   */\n      0x00\n        /* \"#utility.yul\":2285:2300   */\n      revert\n        /* \"#utility.yul\":2312:2494   */\n    tag_28:\n        /* \"#utility.yul\":2351:2352   */\n      0x00\n        /* \"#utility.yul\":2368:2387   */\n      tag_79\n        /* \"#utility.yul\":2385:2386   */\n      dup3\n        /* \"#utility.yul\":2368:2387   */\n      tag_49\n      jump\t// in\n    tag_79:\n        /* \"#utility.yul\":2363:2387   */\n      swap2\n      pop\n        /* \"#utility.yul\":2401:2420   */\n      tag_80\n        /* \"#utility.yul\":2418:2419   */\n      dup4\n        /* \"#utility.yul\":2401:2420   */\n      tag_49\n      jump\t// in\n    tag_80:\n        /* \"#utility.yul\":2396:2420   */\n      swap3\n      pop\n        /* \"#utility.yul\":2439:2440   */\n      dup3\n        /* \"#utility.yul\":2429:2464   */\n      tag_81\n      jumpi\n        /* \"#utility.yul\":2444:2462   */\n      tag_82\n      tag_50\n      jump\t// in\n    tag_82:\n        /* \"#utility.yul\":2429:2464   */\n    tag_81:\n        /* \"#utility.yul\":2486:2487   */\n      dup3\n        /* \"#utility.yul\":2483:2484   */\n      dup3\n        /* \"#utility.yul\":2479:2488   */\n      div\n        /* \"#utility.yul\":2474:2488   */\n      swap1\n      pop\n        /* \"#utility.yul\":2312:2494   */\n      swap3\n      swap2\n      pop\n      pop\n      jump\t// out\n        /* \"#utility.yul\":2500:2691   */\n    tag_33:\n        /* \"#utility.yul\":2540:2543   */\n      0x00\n        /* \"#utility.yul\":2559:2579   */\n      tag_84\n        /* \"#utility.yul\":2577:2578   */\n      dup3\n        /* \"#utility.yul\":2559:2579   */\n      tag_42\n      jump\t// in\n    tag_84:\n        /* \"#utility.yul\":2554:2579   */\n      swap2\n      pop\n        /* \"#utility.yul\":2593:2613   */\n      tag_85\n        /* \"#utility.yul\":2611:2612   */\n      dup4\n        /* \"#utility.yul\":2593:2613   */\n      tag_42\n      jump\t// in\n    tag_85:\n        /* \"#utility.yul\":2588:2613   */\n      swap3\n      pop\n        /* \"#utility.yul\":2636:2637   */\n      dup3\n        /* \"#utility.yul\":2633:2634   */\n      dup3\n        /* \"#utility.yul\":2629:2638   */\n      add\n        /* \"#utility.yul\":2622:2638   */\n      swap1\n      pop\n        /* \"#utility.yul\":2657:2660   */\n      dup1\n        /* \"#utility.yul\":2654:2655   */\n      dup3\n        /* \"#utility.yul\":2651:2661   */\n      gt\n        /* \"#utility.yul\":2648:2684   */\n      iszero\n      tag_86\n      jumpi\n        /* \"#utility.yul\":2664:2682   */\n      tag_87\n      tag_51\n      jump\t// in\n    tag_87:\n        /* \"#utility.yul\":2648:2684   */\n    tag_86:\n        /* \"#utility.yul\":2500:2691   */\n      swap3\n      swap2\n      pop\n      pop\n      jump\t// out\n        /* \"#utility.yul\":2697:2790   */\n    tag_52:\n        /* \"#utility.yul\":2733:2740   */\n      0x00\n        /* \"#utility.yul\":2773:2783   */\n      0xffffffff\n        /* \"#utility.yul\":2766:2771   */\n      dup3\n        /* \"#utility.yul\":2762:2784   */\n      and\n        /* \"#utility.yul\":2751:2784   */\n      swap1\n      pop\n        /* \"#utility.yul\":2697:2790   */\n      swap2\n      swap1\n      pop\n      jump\t// out\n        /* \"#utility.yul\":2796:2993   */\n    tag_35:\n        /* \"#utility.yul\":2835:2838   */\n      0x00\n        /* \"#utility.yul\":2854:2873   */\n      tag_90\n        /* \"#utility.yul\":2871:2872   */\n      dup3\n        /* \"#utility.yul\":2854:2873   */\n      tag_52\n      jump\t// in\n    tag_90:\n        /* \"#utility.yul\":2849:2873   */\n      swap2\n      pop\n        /* \"#utility.yul\":2887:2906   */\n      tag_91\n        /* \"#utility.yul\":2904:2905   */\n      dup4\n        /* \"#utility.yul\":2887:2906   */\n      tag_52\n      jump\t// in\n    tag_91:\n        /* \"#utility.yul\":2882:2906   */\n      swap3\n      pop\n        /* \"#utility.yul\":2929:2930   */\n      dup3\n        /* \"#utility.yul\":2926:2927   */\n      dup3\n        /* \"#utility.yul\":2922:2931   */\n      add\n        /* \"#utility.yul\":2915:2931   */\n      swap1\n      pop\n        /* \"#utility.yul\":2952:2962   */\n      0xffffffff\n        /* \"#utility.yul\":2947:2950   */\n      dup2\n        /* \"#utility.yul\":2944:2963   */\n      gt\n        /* \"#utility.yul\":2941:2986   */\n      iszero\n      tag_92\n      jumpi\n        /* \"#utility.yul\":2966:2984   */\n      tag_93\n      tag_51\n      jump\t// in\n    tag_93:\n        /* \"#utility.yul\":2941:2986   */\n    tag_92:\n        /* \"#utility.yul\":2796:2993   */\n      swap3\n      swap2\n      pop\n      pop\n      jump\t// out\n        /* \"#utility.yul\":2999:3409   */\n    tag_37:\n        /* \"#utility.yul\":3039:3046   */\n      0x00\n        /* \"#utility.yul\":3062:3082   */\n      tag_95\n        /* \"#utility.yul\":3080:3081   */\n      dup3\n        /* \"#utility.yul\":3062:3082   */\n      tag_42\n      jump\t// in\n    tag_95:\n        /* \"#utility.yul\":3057:3082   */\n      swap2\n      pop\n        /* \"#utility.yul\":3096:3116   */\n      tag_96\n        /* \"#utility.yul\":3114:3115   */\n      dup4\n        /* \"#utility.yul\":3096:3116   */\n      tag_42\n      jump\t// in\n    tag_96:\n        /* \"#utility.yul\":3091:3116   */\n      swap3\n      pop\n        /* \"#utility.yul\":3151:3152   */\n      dup3\n        /* \"#utility.yul\":3148:3149   */\n      dup3\n        /* \"#utility.yul\":3144:3153   */\n      mul\n        /* \"#utility.yul\":3173:3203   */\n      tag_97\n        /* \"#utility.yul\":3191:3202   */\n      dup2\n        /* \"#utility.yul\":3173:3203   */\n      tag_42\n      jump\t// in\n    tag_97:\n        /* \"#utility.yul\":3162:3203   */\n      swap2\n      pop\n        /* \"#utility.yul\":3352:3353   */\n      dup3\n        /* \"#utility.yul\":3343:3350   */\n      dup3\n        /* \"#utility.yul\":3339:3354   */\n      div\n        /* \"#utility.yul\":3336:3337   */\n      dup5\n        /* \"#utility.yul\":3333:3355   */\n      eq\n        /* \"#utility.yul\":3313:3314   */\n      dup4\n        /* \"#utility.yul\":3306:3315   */\n      iszero\n        /* \"#utility.yul\":3286:3369   */\n      or\n        /* \"#utility.yul\":3263:3402   */\n      tag_98\n      jumpi\n        /* \"#utility.yul\":3382:3400   */\n      tag_99\n      tag_51\n      jump\t// in\n    tag_99:\n        /* \"#utility.yul\":3263:3402   */\n    tag_98:\n        /* \"#utility.yul\":3047:3409   */\n      pop\n        /* \"#utility.yul\":2999:3409   */\n      swap3\n      swap2\n      pop\n      pop\n      jump\t// out\n        /* \"#utility.yul\":3415:3600   */\n    tag_39:\n        /* \"#utility.yul\":3455:3456   */\n      0x00\n        /* \"#utility.yul\":3472:3492   */\n      tag_101\n        /* \"#utility.yul\":3490:3491   */\n      dup3\n        /* \"#utility.yul\":3472:3492   */\n      tag_42\n      jump\t// in\n    tag_101:\n        /* \"#utility.yul\":3467:3492   */\n      swap2\n      pop\n        /* \"#utility.yul\":3506:3526   */\n      tag_102\n        /* \"#utility.yul\":3524:3525   */\n      dup4\n        /* \"#utility.yul\":3506:3526   */\n      tag_42\n      jump\t// in\n    tag_102:\n        /* \"#utility.yul\":3501:3526   */\n      swap3\n      pop\n        /* \"#utility.yul\":3545:3546   */\n      dup3\n        /* \"#utility.yul\":3535:3570   */\n      tag_103\n      jumpi\n        /* \"#utility.yul\":3550:3568   */\n      tag_104\n      tag_50\n      jump\t// in\n    tag_104:\n        /* \"#utility.yul\":3535:3570   */\n    tag_103:\n        /* \"#utility.yul\":3592:3593   */\n      dup3\n        /* \"#utility.yul\":3589:3590   */\n      dup3\n        /* \"#utility.yul\":3585:3594   */\n      div\n        /* \"#utility.yul\":3580:3594   */\n      swap1\n      pop\n        /* \"#utility.yul\":3415:3600   */\n      swap3\n      swap2\n      pop\n      pop\n      jump\t// out\n        /* \"#utility.yul\":3606:3938   */\n    tag_41:\n        /* \"#utility.yul\":3727:3731   */\n      0x00\n        /* \"#utility.yul\":3765:3767   */\n      0x40\n        /* \"#utility.yul\":3754:3763   */\n      dup3\n        /* \"#utility.yul\":3750:3768   */\n      add\n        /* \"#utility.yul\":3742:3768   */\n      swap1\n      pop\n        /* \"#utility.yul\":3778:3849   */\n      tag_106\n        /* \"#utility.yul\":3846:3847   */\n      0x00\n        /* \"#utility.yul\":3835:3844   */\n      dup4\n        /* \"#utility.yul\":3831:3848   */\n      add\n        /* \"#utility.yul\":3822:3828   */\n      dup6\n        /* \"#utility.yul\":3778:3849   */\n      tag_43\n      jump\t// in\n    tag_106:\n        /* \"#utility.yul\":3859:3931   */\n      tag_107\n        /* \"#utility.yul\":3927:3929   */\n      0x20\n        /* \"#utility.yul\":3916:3925   */\n      dup4\n        /* \"#utility.yul\":3912:3930   */\n      add\n        /* \"#utility.yul\":3903:3909   */\n      dup5\n        /* \"#utility.yul\":3859:3931   */\n      tag_43\n      jump\t// in\n    tag_107:\n        /* \"#utility.yul\":3606:3938   */\n      swap4\n      swap3\n      pop\n      pop\n      pop\n      jump\t// out\n\n    auxdata: 0xa2646970667358221220c659e748772fa7e71116b12c134f4309f862816248d2a55d6cd267bcfd69e46c64736f6c634300081a0033\n}\n",
				"bytecode": {
					"linkReferences": {},
					"object": "6080604052348015600e575f80fd5b5061082f8061001c5f395ff3fe608060405234801561000f575f80fd5b5060043610610055575f3560e01c806321055acb1461005957806338e049d314610077578063c59d484714610095578063d826f88f146100b5578063fce68023146100bf575b5f80fd5b6100616100db565b60405161006e91906105a0565b60405180910390f35b61007f61010b565b60405161008c91906105a0565b60405180910390f35b61009d610148565b6040516100ac939291906105b9565b60405180910390f35b6100bd61024d565b005b6100d960048036038101906100d4919061061c565b610358565b005b5f805f0160149054906101000a90046bffffffffffffffffffffffff166bffffffffffffffffffffffff16905090565b5f6103e85f800160149054906101000a90046bffffffffffffffffffffffff1661013591906106b8565b6bffffffffffffffffffffffff16905090565b5f805f805f6040518060600160405290815f82015f9054906101000a90046fffffffffffffffffffffffffffffffff166fffffffffffffffffffffffffffffffff166fffffffffffffffffffffffffffffffff1681526020015f820160109054906101000a900463ffffffff1663ffffffff1663ffffffff1681526020015f820160149054906101000a90046bffffffffffffffffffffffff166bffffffffffffffffffffffff166bffffffffffffffffffffffff16815250509050805f015181602001518260400151826fffffffffffffffffffffffffffffffff1692508163ffffffff169150806bffffffffffffffffffffffff16905093509350935050909192565b60405180606001604052805f6fffffffffffffffffffffffffffffffff1681526020015f63ffffffff1681526020015f6bffffffffffffffffffffffff168152505f80820151815f015f6101000a8154816fffffffffffffffffffffffffffffffff02191690836fffffffffffffffffffffffffffffffff1602179055506020820151815f0160106101000a81548163ffffffff021916908363ffffffff1602179055506040820151815f0160146101000a8154816bffffffffffffffffffffffff02191690836bffffffffffffffffffffffff1602179055509050507f2531b481092fda7531f57ac16900b99a3dd63ab6ec95287822745b5c1f63b60f60405160405180910390a1565b5f806040518060600160405290815f82015f9054906101000a90046fffffffffffffffffffffffffffffffff166fffffffffffffffffffffffffffffffff166fffffffffffffffffffffffffffffffff1681526020015f820160109054906101000a900463ffffffff1663ffffffff1663ffffffff1681526020015f820160149054906101000a90046bffffffffffffffffffffffff166bffffffffffffffffffffffff166bffffffffffffffffffffffff168152505090505f82825f01516fffffffffffffffffffffffffffffffff1661043391906106e8565b90505f60018360200151610447919061072a565b90505f8163ffffffff166103e88461045f9190610761565b61046991906107a2565b90506040518060600160405280846fffffffffffffffffffffffffffffffff1681526020018363ffffffff168152602001826bffffffffffffffffffffffff168152505f80820151815f015f6101000a8154816fffffffffffffffffffffffffffffffff02191690836fffffffffffffffffffffffffffffffff1602179055506020820151815f0160106101000a81548163ffffffff021916908363ffffffff1602179055506040820151815f0160146101000a8154816bffffffffffffffffffffffff02191690836bffffffffffffffffffffffff1602179055509050507f3953975296e80fadd8df493e1e04b0cf0360a89eaf91ce2195c2a48feeb7579d85826040516105799291906107d2565b60405180910390a15050505050565b5f819050919050565b61059a81610588565b82525050565b5f6020820190506105b35f830184610591565b92915050565b5f6060820190506105cc5f830186610591565b6105d96020830185610591565b6105e66040830184610591565b949350505050565b5f80fd5b6105fb81610588565b8114610605575f80fd5b50565b5f81359050610616816105f2565b92915050565b5f60208284031215610631576106306105ee565b5b5f61063e84828501610608565b91505092915050565b5f6bffffffffffffffffffffffff82169050919050565b7f4e487b71000000000000000000000000000000000000000000000000000000005f52601260045260245ffd5b7f4e487b71000000000000000000000000000000000000000000000000000000005f52601160045260245ffd5b5f6106c282610647565b91506106cd83610647565b9250826106dd576106dc61065e565b5b828204905092915050565b5f6106f282610588565b91506106fd83610588565b92508282019050808211156107155761071461068b565b5b92915050565b5f63ffffffff82169050919050565b5f6107348261071b565b915061073f8361071b565b9250828201905063ffffffff81111561075b5761075a61068b565b5b92915050565b5f61076b82610588565b915061077683610588565b925082820261078481610588565b9150828204841483151761079b5761079a61068b565b5b5092915050565b5f6107ac82610588565b91506107b783610588565b9250826107c7576107c661065e565b5b828204905092915050565b5f6040820190506107e55f830185610591565b6107f26020830184610591565b939250505056fea2646970667358221220c659e748772fa7e71116b12c134f4309f862816248d2a55d6cd267bcfd69e46c64736f6c634300081a0033",
					"opcodes": "PUSH1 0x80 PUSH1 0x40 MSTORE CALLVALUE DUP1 ISZERO PUSH1 0xE JUMPI PUSH0 DUP1 REVERT JUMPDEST POP PUSH2 0x82F DUP1 PUSH2 0x1C PUSH0 CODECOPY PUSH0 RETURN INVALID PUSH1 0x80 PUSH1 0x40 MSTORE CALLVALUE DUP1 ISZERO PUSH2 0xF JUMPI PUSH0 DUP1 REVERT JUMPDEST POP PUSH1 0x4 CALLDATASIZE LT PUSH2 0x55 JUMPI PUSH0 CALLDATALOAD PUSH1 0xE0 SHR DUP1 PUSH4 0x21055ACB EQ PUSH2 0x59 JUMPI DUP1 PUSH4 0x38E049D3 EQ PUSH2 0x77 JUMPI DUP1 PUSH4 0xC59D4847 EQ PUSH2 0x95 JUMPI DUP1 PUSH4 0xD826F88F EQ PUSH2 0xB5 JUMPI DUP1 PUSH4 0xFCE68023 EQ PUSH2 0xBF JUMPI JUMPDEST PUSH0 DUP1 REVERT JUMPDEST PUSH2 0x61 PUSH2 0xDB JUMP JUMPDEST PUSH1 0x40 MLOAD PUSH2 0x6E SWAP2 SWAP1 PUSH2 0x5A0 JUMP JUMPDEST PUSH1 0x40 MLOAD DUP1 SWAP2 SUB SWAP1 RETURN JUMPDEST PUSH2 0x7F PUSH2 0x10B JUMP JUMPDEST PUSH1 0x40 MLOAD PUSH2 0x8C SWAP2 SWAP1 PUSH2 0x5A0 JUMP JUMPDEST PUSH1 0x40 MLOAD DUP1 SWAP2 SUB SWAP1 RETURN JUMPDEST PUSH2 0x9D PUSH2 0x148 JUMP JUMPDEST PUSH1 0x40 MLOAD PUSH2 0xAC SWAP4 SWAP3 SWAP2 SWAP1 PUSH2 0x5B9 JUMP JUMPDEST PUSH1 0x40 MLOAD DUP1 SWAP2 SUB SWAP1 RETURN JUMPDEST PUSH2 0xBD PUSH2 0x24D JUMP JUMPDEST STOP JUMPDEST PUSH2 0xD9 PUSH1 0x4 DUP1 CALLDATASIZE SUB DUP2 ADD SWAP1 PUSH2 0xD4 SWAP2 SWAP1 PUSH2 0x61C JUMP JUMPDEST PUSH2 0x358 JUMP JUMPDEST STOP JUMPDEST PUSH0 DUP1 PUSH0 ADD PUSH1 0x14 SWAP1 SLOAD SWAP1 PUSH2 0x100 EXP SWAP1 DIV PUSH12 0xFFFFFFFFFFFFFFFFFFFFFFFF AND PUSH12 0xFFFFFFFFFFFFFFFFFFFFFFFF AND SWAP1 POP SWAP1 JUMP JUMPDEST PUSH0 PUSH2 0x3E8 PUSH0 DUP1 ADD PUSH1 0x14 SWAP1 SLOAD SWAP1 PUSH2 0x100 EXP SWAP1 DIV PUSH12 0xFFFFFFFFFFFFFFFFFFFFFFFF AND PUSH2 0x135 SWAP2 SWAP1 PUSH2 0x6B8 JUMP JUMPDEST PUSH12 0xFFFFFFFFFFFFFFFFFFFFFFFF AND SWAP1 POP SWAP1 JUMP JUMPDEST PUSH0 DUP1 PUSH0 DUP1 PUSH0 PUSH1 0x40 MLOAD DUP1 PUSH1 0x60 ADD PUSH1 0x40 MSTORE SWAP1 DUP2 PUSH0 DUP3 ADD PUSH0 SWAP1 SLOAD SWAP1 PUSH2 0x100 EXP SWAP1 DIV PUSH16 0xFFFFFFFFFFFFFFFFFFFFFFFFFFFFFFFF AND PUSH16 0xFFFFFFFFFFFFFFFFFFFFFFFFFFFFFFFF AND PUSH16 0xFFFFFFFFFFFFFFFFFFFFFFFFFFFFFFFF AND DUP2 MSTORE PUSH1 0x20 ADD PUSH0 DUP3 ADD PUSH1 0x10 SWAP1 SLOAD SWAP1 PUSH2 0x100 EXP SWAP1 DIV PUSH4 0xFFFFFFFF AND PUSH4 0xFFFFFFFF AND PUSH4 0xFFFFFFFF AND DUP2 MSTORE PUSH1 0x20 ADD PUSH0 DUP3 ADD PUSH1 0x14 SWAP1 SLOAD SWAP1 PUSH2 0x100 EXP SWAP1 DIV PUSH12 0xFFFFFFFFFFFFFFFFFFFFFFFF AND PUSH12 0xFFFFFFFFFFFFFFFFFFFFFFFF AND PUSH12 0xFFFFFFFFFFFFFFFFFFFFFFFF AND DUP2 MSTORE POP POP SWAP1 POP DUP1 PUSH0 ADD MLOAD DUP2 PUSH1 0x20 ADD MLOAD DUP3 PUSH1 0x40 ADD MLOAD DUP3 PUSH16 0xFFFFFFFFFFFFFFFFFFFFFFFFFFFFFFFF AND SWAP3 POP DUP2 PUSH4 0xFFFFFFFF AND SWAP2 POP DUP1 PUSH12 0xFFFFFFFFFFFFFFFFFFFFFFFF AND SWAP1 POP SWAP4 POP SWAP4 POP SWAP4 POP POP SWAP1 SWAP2 SWAP3 JUMP JUMPDEST PUSH1 0x40 MLOAD DUP1 PUSH1 0x60 ADD PUSH1 0x40 MSTORE DUP1 PUSH0 PUSH16 0xFFFFFFFFFFFFFFFFFFFFFFFFFFFFFFFF AND DUP2 MSTORE PUSH1 0x20 ADD PUSH0 PUSH4 0xFFFFFFFF AND DUP2 MSTORE PUSH1 0x20 ADD PUSH0 PUSH12 0xFFFFFFFFFFFFFFFFFFFFFFFF AND DUP2 MSTORE POP PUSH0 DUP1 DUP3 ADD MLOAD DUP2 PUSH0 ADD PUSH0 PUSH2 0x100 EXP DUP2 SLOAD DUP2 PUSH16 0xFFFFFFFFFFFFFFFFFFFFFFFFFFFFFFFF MUL NOT AND SWAP1 DUP4 PUSH16 0xFFFFFFFFFFFFFFFFFFFFFFFFFFFFFFFF AND MUL OR SWAP1 SSTORE POP PUSH1 0x20 DUP3 ADD MLOAD DUP2 PUSH0 ADD PUSH1 0x10 PUSH2 0x100 EXP DUP2 SLOAD DUP2 PUSH4 0xFFFFFFFF MUL NOT AND SWAP1 DUP4 PUSH4 0xFFFFFFFF AND MUL OR SWAP1 SSTORE POP PUSH1 0x40 DUP3 ADD MLOAD DUP2 PUSH0 ADD PUSH1 0x14 PUSH2 0x100 EXP DUP2 SLOAD DUP2 PUSH12 0xFFFFFFFFFFFFFFFFFFFFFFFF MUL NOT AND SWAP1 DUP4 PUSH12 0xFFFFFFFFFFFFFFFFFFFFFFFF AND MUL OR SWAP1 SSTORE POP SWAP1 POP POP PUSH32 0x2531B481092FDA7531F57AC16900B99A3DD63AB6EC95287822745B5C1F63B60F PUSH1 0x40 MLOAD PUSH1 0x40 MLOAD DUP1 SWAP2 SUB SWAP1 LOG1 JUMP JUMPDEST PUSH0 DUP1 PUSH1 0x40 MLOAD DUP1 PUSH1 0x60 ADD PUSH1 0x40 MSTORE SWAP1 DUP2 PUSH0 DUP3 ADD PUSH0 SWAP1 SLOAD SWAP1 PUSH2 0x100 EXP SWAP1 DIV PUSH16 0xFFFFFFFFFFFFFFFFFFFFFFFFFFFFFFFF AND PUSH16 0xFFFFFFFFFFFFFFFFFFFFFFFFFFFFFFFF AND PUSH16 0xFFFFFFFFFFFFFFFFFFFFFFFFFFFFFFFF AND DUP2 MSTORE PUSH1 0x20 ADD PUSH0 DUP3 ADD PUSH1 0x10 SWAP1 SLOAD SWAP1 PUSH2 0x100 EXP SWAP1 DIV PUSH4 0xFFFFFFFF AND PUSH4 0xFFFFFFFF AND PUSH4 0xFFFFFFFF AND DUP2 MSTORE PUSH1 0x20 ADD PUSH0 DUP3 ADD PUSH1 0x14 SWAP1 SLOAD SWAP1 PUSH2 0x100 EXP SWAP1 DIV PUSH12 0xFFFFFFFFFFFFFFFFFFFFFFFF AND PUSH12 0xFFFFFFFFFFFFFFFFFFFFFFFF AND PUSH12 0xFFFFFFFFFFFFFFFFFFFFFFFF AND DUP2 MSTORE POP POP SWAP1 POP PUSH0 DUP3 DUP3 PUSH0 ADD MLOAD PUSH16 0xFFFFFFFFFFFFFFFFFFFFFFFFFFFFFFFF AND PUSH2 0x433 SWAP2 SWAP1 PUSH2 0x6E8 JUMP JUMPDEST SWAP1 POP PUSH0 PUSH1 0x1 DUP4 PUSH1 0x20 ADD MLOAD PUSH2 0x447 SWAP2 SWAP1 PUSH2 0x72A JUMP JUMPDEST SWAP1 POP PUSH0 DUP2 PUSH4 0xFFFFFFFF AND PUSH2 0x3E8 DUP5 PUSH2 0x45F SWAP2 SWAP1 PUSH2 0x761 JUMP JUMPDEST PUSH2 0x469 SWAP2 SWAP1 PUSH2 0x7A2 JUMP JUMPDEST SWAP1 POP PUSH1 0x40 MLOAD DUP1 PUSH1 0x60 ADD PUSH1 0x40 MSTORE DUP1 DUP5 PUSH16 0xFFFFFFFFFFFFFFFFFFFFFFFFFFFFFFFF AND DUP2 MSTORE PUSH1 0x20 ADD DUP4 PUSH4 0xFFFFFFFF AND DUP2 MSTORE PUSH1 0x20 ADD DUP3 PUSH12 0xFFFFFFFFFFFFFFFFFFFFFFFF AND DUP2 MSTORE POP PUSH0 DUP1 DUP3 ADD MLOAD DUP2 PUSH0 ADD PUSH0 PUSH2 0x100 EXP DUP2 SLOAD DUP2 PUSH16 0xFFFFFFFFFFFFFFFFFFFFFFFFFFFFFFFF MUL NOT AND SWAP1 DUP4 PUSH16 0xFFFFFFFFFFFFFFFFFFFFFFFFFFFFFFFF AND MUL OR SWAP1 SSTORE POP PUSH1 0x20 DUP3 ADD MLOAD DUP2 PUSH0 ADD PUSH1 0x10 PUSH2 0x100 EXP DUP2 SLOAD DUP2 PUSH4 0xFFFFFFFF MUL NOT AND SWAP1 DUP4 PUSH4 0xFFFFFFFF AND MUL OR SWAP1 SSTORE POP PUSH1 0x40 DUP3 ADD MLOAD DUP2 PUSH0 ADD PUSH1 0x14 PUSH2 0x100 EXP DUP2 SLOAD DUP2 PUSH12 0xFFFFFFFFFFFFFFFFFFFFFFFF MUL NOT AND SWAP1 DUP4 PUSH12 0xFFFFFFFFFFFFFFFFFFFFFFFF AND MUL OR SWAP1 SSTORE POP SWAP1 POP POP PUSH32 0x3953975296E80FADD8DF493E1E04B0CF0360A89EAF91CE2195C2A48FEEB7579D DUP6 DUP3 PUSH1 0x40 MLOAD PUSH2 0x579 SWAP3 SWAP2 SWAP1 PUSH2 0x7D2 JUMP JUMPDEST PUSH1 0x40 MLOAD DUP1 SWAP2 SUB SWAP1 LOG1 POP POP POP POP POP JUMP JUMPDEST PUSH0 DUP2 SWAP1 POP SWAP2 SWAP1 POP JUMP JUMPDEST PUSH2 0x59A DUP2 PUSH2 0x588 JUMP JUMPDEST DUP3 MSTORE POP POP JUMP JUMPDEST PUSH0 PUSH1 0x20 DUP3 ADD SWAP1 POP PUSH2 0x5B3 PUSH0 DUP4 ADD DUP5 PUSH2 0x591 JUMP JUMPDEST SWAP3 SWAP2 POP POP JUMP JUMPDEST PUSH0 PUSH1 0x60 DUP3 ADD SWAP1 POP PUSH2 0x5CC PUSH0 DUP4 ADD DUP7 PUSH2 0x591 JUMP JUMPDEST PUSH2 0x5D9 PUSH1 0x20 DUP4 ADD DUP6 PUSH2 0x591 JUMP JUMPDEST PUSH2 0x5E6 PUSH1 0x40 DUP4 ADD DUP5 PUSH2 0x591 JUMP JUMPDEST SWAP5 SWAP4 POP POP POP POP JUMP JUMPDEST PUSH0 DUP1 REVERT JUMPDEST PUSH2 0x5FB DUP2 PUSH2 0x588 JUMP JUMPDEST DUP2 EQ PUSH2 0x605 JUMPI PUSH0 DUP1 REVERT JUMPDEST POP JUMP JUMPDEST PUSH0 DUP2 CALLDATALOAD SWAP1 POP PUSH2 0x616 DUP2 PUSH2 0x5F2 JUMP JUMPDEST SWAP3 SWAP2 POP POP JUMP JUMPDEST PUSH0 PUSH1 0x20 DUP3 DUP5 SUB SLT ISZERO PUSH2 0x631 JUMPI PUSH2 0x630 PUSH2 0x5EE JUMP JUMPDEST JUMPDEST PUSH0 PUSH2 0x63E DUP5 DUP3 DUP6 ADD PUSH2 0x608 JUMP JUMPDEST SWAP2 POP POP SWAP3 SWAP2 POP POP JUMP JUMPDEST PUSH0 PUSH12 0xFFFFFFFFFFFFFFFFFFFFFFFF DUP3 AND SWAP1 POP SWAP2 SWAP1 POP JUMP JUMPDEST PUSH32 0x4E487B7100000000000000000000000000000000000000000000000000000000 PUSH0 MSTORE PUSH1 0x12 PUSH1 0x4 MSTORE PUSH1 0x24 PUSH0 REVERT JUMPDEST PUSH32 0x4E487B7100000000000000000000000000000000000000000000000000000000 PUSH0 MSTORE PUSH1 0x11 PUSH1 0x4 MSTORE PUSH1 0x24 PUSH0 REVERT JUMPDEST PUSH0 PUSH2 0x6C2 DUP3 PUSH2 0x647 JUMP JUMPDEST SWAP2 POP PUSH2 0x6CD DUP4 PUSH2 0x647 JUMP JUMPDEST SWAP3 POP DUP3 PUSH2 0x6DD JUMPI PUSH2 0x6DC PUSH2 0x65E JUMP JUMPDEST JUMPDEST DUP3 DUP3 DIV SWAP1 POP SWAP3 SWAP2 POP POP JUMP JUMPDEST PUSH0 PUSH2 0x6F2 DUP3 PUSH2 0x588 JUMP JUMPDEST SWAP2 POP PUSH2 0x6FD DUP4 PUSH2 0x588 JUMP JUMPDEST SWAP3 POP DUP3 DUP3 ADD SWAP1 POP DUP1 DUP3 GT ISZERO PUSH2 0x715 JUMPI PUSH2 0x714 PUSH2 0x68B JUMP JUMPDEST JUMPDEST SWAP3 SWAP2 POP POP JUMP JUMPDEST PUSH0 PUSH4 0xFFFFFFFF DUP3 AND SWAP1 POP SWAP2 SWAP1 POP JUMP JUMPDEST PUSH0 PUSH2 0x734 DUP3 PUSH2 0x71B JUMP JUMPDEST SWAP2 POP PUSH2 0x73F DUP4 PUSH2 0x71B JUMP JUMPDEST SWAP3 POP DUP3 DUP3 ADD SWAP1 POP PUSH4 0xFFFFFFFF DUP2 GT ISZERO PUSH2 0x75B JUMPI PUSH2 0x75A PUSH2 0x68B JUMP JUMPDEST JUMPDEST SWAP3 SWAP2 POP POP JUMP JUMPDEST PUSH0 PUSH2 0x76B DUP3 PUSH2 0x588 JUMP JUMPDEST SWAP2 POP PUSH2 0x776 DUP4 PUSH2 0x588 JUMP JUMPDEST SWAP3 POP DUP3 DUP3 MUL PUSH2 0x784 DUP2 PUSH2 0x588 JUMP JUMPDEST SWAP2 POP DUP3 DUP3 DIV DUP5 EQ DUP4 ISZERO OR PUSH2 0x79B JUMPI PUSH2 0x79A PUSH2 0x68B JUMP JUMPDEST JUMPDEST POP SWAP3 SWAP2 POP POP JUMP JUMPDEST PUSH0 PUSH2 0x7AC DUP3 PUSH2 0x588 JUMP JUMPDEST SWAP2 POP PUSH2 0x7B7 DUP4 PUSH2 0x588 JUMP JUMPDEST SWAP3 POP DUP3 PUSH2 0x7C7 JUMPI PUSH2 0x7C6 PUSH2 0x65E JUMP JUMPDEST JUMPDEST DUP3 DUP3 DIV SWAP1 POP SWAP3 SWAP2 POP POP JUMP JUMPDEST PUSH0 PUSH1 0x40 DUP3 ADD SWAP1 POP PUSH2 0x7E5 PUSH0 DUP4 ADD DUP6 PUSH2 0x591 JUMP JUMPDEST PUSH2 0x7F2 PUSH1 0x20 DUP4 ADD DUP5 PUSH2 0x591 JUMP JUMPDEST SWAP4 SWAP3 POP POP POP JUMP INVALID LOG2 PUSH5 0x6970667358 0x22 SLT KECCAK256 0xC6 MSIZE 0xE7 BASEFEE PUSH24 0x2FA7E71116B12C134F4309F862816248D2A55D6CD267BCFD PUSH10 0xE46C64736F6C63430008 BYTE STOP CALLER "
				},
				"gasEstimates": {
					"creation": {
						"codeDepositCost": "419000",
						"executionCost": "453",
						"totalCost": "419453"
					},
					"external": {
						"addNumber(uint256)": "infinite",
						"getAverage()": "2507",
						"getReadableAverage()": "infinite",
						"getStats()": "infinite",
						"reset()": "56907"
					}
				},
				"methodIdentifiers": {
					"addNumber(uint256)": "fce68023",
					"getAverage()": "21055acb",
					"getReadableAverage()": "38e049d3",
					"getStats()": "c59d4847",
					"reset()": "d826f88f"
				}
			},
			"storageLayout": {
				"storage": [
					{
						"astId": 11,
						"contract": "Day-31/code1.sol:avgCalulator",
						"label": "averageData",
						"offset": 0,
						"slot": "0",
						"type": "t_struct(AverageData)8_storage"
					}
				],
				"types": {
					"t_struct(AverageData)8_storage": {
						"encoding": "inplace",
						"label": "struct avgCalulator.AverageData",
						"members": [
							{
								"astId": 3,
								"contract": "Day-31/code1.sol:avgCalulator",
								"label": "totalSum",
								"offset": 0,
								"slot": "0",
								"type": "t_uint128"
							},
							{
								"astId": 5,
								"contract": "Day-31/code1.sol:avgCalulator",
								"label": "count",
								"offset": 16,
								"slot": "0",
								"type": "t_uint32"
							},
							{
								"astId": 7,
								"contract": "Day-31/code1.sol:avgCalulator",
								"label": "lastAverage",
								"offset": 20,
								"slot": "0",
								"type": "t_uint96"
							}
						],
						"numberOfBytes": "32"
					},
					"t_uint128": {
						"encoding": "inplace",
						"label": "uint128",
						"numberOfBytes": "16"
					},
					"t_uint32": {
						"encoding": "inplace",
						"label": "uint32",
						"numberOfBytes": "4"
					},
					"t_uint96": {
						"encoding": "inplace",
						"label": "uint96",
						"numberOfBytes": "12"
					}
				}
			},
			"userdoc": {
				"kind": "user",
				"methods": {},
				"version": 1
			}
		}
	}
}