{
	"Day-30/code1.sol": {
		"Auction": {
			"abi": [
				{
					"inputs": [
						{
							"internalType": "uint256",
							"name": "_biddingTime",
							"type": "uint256"
						}
					],
					"stateMutability": "nonpayable",
					"type": "constructor"
				},
				{
					"anonymous": false,
					"inputs": [
						{
							"indexed": false,
							"internalType": "address",
							"name": "winner",
							"type": "address"
						},
						{
							"indexed": false,
							"internalType": "uint256",
							"name": "amount",
							"type": "uint256"
						}
					],
					"name": "AcutionEnded",
					"type": "event"
				},
				{
					"anonymous": false,
					"inputs": [
						{
							"indexed": false,
							"internalType": "address",
							"name": "bidder",
							"type": "address"
						},
						{
							"indexed": false,
							"internalType": "uint256",
							"name": "amount",
							"type": "uint256"
						}
					],
					"name": "HighestBidIncreased",
					"type": "event"
				},
				{
					"inputs": [],
					"name": "bid",
					"outputs": [],
					"stateMutability": "payable",
					"type": "function"
				},
				{
					"inputs": [],
					"name": "endAuction",
					"outputs": [],
					"stateMutability": "nonpayable",
					"type": "function"
				},
				{
					"inputs": [],
					"name": "endTime",
					"outputs": [
						{
							"internalType": "uint256",
							"name": "",
							"type": "uint256"
						}
					],
					"stateMutability": "view",
					"type": "function"
				},
				{
					"inputs": [],
					"name": "ended",
					"outputs": [
						{
							"internalType": "bool",
							"name": "",
							"type": "bool"
						}
					],
					"stateMutability": "view",
					"type": "function"
				},
				{
					"inputs": [],
					"name": "highestBid",
					"outputs": [
						{
							"internalType": "uint256",
							"name": "",
							"type": "uint256"
						}
					],
					"stateMutability": "view",
					"type": "function"
				},
				{
					"inputs": [],
					"name": "highestBidder",
					"outputs": [
						{
							"internalType": "address",
							"name": "",
							"type": "address"
						}
					],
					"stateMutability": "view",
					"type": "function"
				},
				{
					"inputs": [
						{
							"internalType": "address",
							"name": "",
							"type": "address"
						}
					],
					"name": "pendingReturns",
					"outputs": [
						{
							"internalType": "uint256",
							"name": "",
							"type": "uint256"
						}
					],
					"stateMutability": "view",
					"type": "function"
				},
				{
					"inputs": [],
					"name": "seller",
					"outputs": [
						{
							"internalType": "address",
							"name": "",
							"type": "address"
						}
					],
					"stateMutability": "view",
					"type": "function"
				},
				{
					"inputs": [],
					"name": "withdraw",
					"outputs": [
						{
							"internalType": "bool",
							"name": "",
							"type": "bool"
						}
					],
					"stateMutability": "nonpayable",
					"type": "function"
				}
			],
			"devdoc": {
				"kind": "dev",
				"methods": {},
				"version": 1
			},
			"evm": {
				"assembly": "    /* \"Day-30/code1.sol\":61:1830  contract Auction{... */\n  mstore(0x40, 0x80)\n    /* \"Day-30/code1.sol\":400:519  constructor(uint _biddingTime){... */\n  callvalue\n  dup1\n  iszero\n  tag_1\n  jumpi\n  0x00\n  dup1\n  revert\ntag_1:\n  pop\n  mload(0x40)\n  sub(codesize, bytecodeSize)\n  dup1\n  bytecodeSize\n  dup4\n  codecopy\n  dup2\n  dup2\n  add\n  0x40\n  mstore\n  dup2\n  add\n  swap1\n  tag_2\n  swap2\n  swap1\n  tag_3\n  jump\t// in\ntag_2:\n    /* \"Day-30/code1.sol\":450:460  msg.sender */\n  caller\n    /* \"Day-30/code1.sol\":441:447  seller */\n  0x00\n  dup1\n    /* \"Day-30/code1.sol\":441:460  seller = msg.sender */\n  0x0100\n  exp\n  dup2\n  sload\n  dup2\n  0xffffffffffffffffffffffffffffffffffffffff\n  mul\n  not\n  and\n  swap1\n  dup4\n  0xffffffffffffffffffffffffffffffffffffffff\n  and\n  mul\n  or\n  swap1\n  sstore\n  pop\n    /* \"Day-30/code1.sol\":499:511  _biddingTime */\n  dup1\n    /* \"Day-30/code1.sol\":481:496  block.timestamp */\n  timestamp\n    /* \"Day-30/code1.sol\":481:511  block.timestamp + _biddingTime */\n  tag_6\n  swap2\n  swap1\n  tag_7\n  jump\t// in\ntag_6:\n    /* \"Day-30/code1.sol\":471:478  endTime */\n  0x01\n    /* \"Day-30/code1.sol\":471:511  endTime = block.timestamp + _biddingTime */\n  dup2\n  swap1\n  sstore\n  pop\n    /* \"Day-30/code1.sol\":400:519  constructor(uint _biddingTime){... */\n  pop\n    /* \"Day-30/code1.sol\":61:1830  contract Auction{... */\n  jump(tag_8)\n    /* \"#utility.yul\":88:205   */\ntag_10:\n    /* \"#utility.yul\":197:198   */\n  0x00\n    /* \"#utility.yul\":194:195   */\n  dup1\n    /* \"#utility.yul\":187:199   */\n  revert\n    /* \"#utility.yul\":334:411   */\ntag_12:\n    /* \"#utility.yul\":371:378   */\n  0x00\n    /* \"#utility.yul\":400:405   */\n  dup2\n    /* \"#utility.yul\":389:405   */\n  swap1\n  pop\n    /* \"#utility.yul\":334:411   */\n  swap2\n  swap1\n  pop\n  jump\t// out\n    /* \"#utility.yul\":417:539   */\ntag_13:\n    /* \"#utility.yul\":490:514   */\n  tag_22\n    /* \"#utility.yul\":508:513   */\n  dup2\n    /* \"#utility.yul\":490:514   */\n  tag_12\n  jump\t// in\ntag_22:\n    /* \"#utility.yul\":483:488   */\n  dup2\n    /* \"#utility.yul\":480:515   */\n  eq\n    /* \"#utility.yul\":470:533   */\n  tag_23\n  jumpi\n    /* \"#utility.yul\":529:530   */\n  0x00\n    /* \"#utility.yul\":526:527   */\n  dup1\n    /* \"#utility.yul\":519:531   */\n  revert\n    /* \"#utility.yul\":470:533   */\ntag_23:\n    /* \"#utility.yul\":417:539   */\n  pop\n  jump\t// out\n    /* \"#utility.yul\":545:688   */\ntag_14:\n    /* \"#utility.yul\":602:607   */\n  0x00\n    /* \"#utility.yul\":633:639   */\n  dup2\n    /* \"#utility.yul\":627:640   */\n  mload\n    /* \"#utility.yul\":618:640   */\n  swap1\n  pop\n    /* \"#utility.yul\":649:682   */\n  tag_25\n    /* \"#utility.yul\":676:681   */\n  dup2\n    /* \"#utility.yul\":649:682   */\n  tag_13\n  jump\t// in\ntag_25:\n    /* \"#utility.yul\":545:688   */\n  swap3\n  swap2\n  pop\n  pop\n  jump\t// out\n    /* \"#utility.yul\":694:1045   */\ntag_3:\n    /* \"#utility.yul\":764:770   */\n  0x00\n    /* \"#utility.yul\":813:815   */\n  0x20\n    /* \"#utility.yul\":801:810   */\n  dup3\n    /* \"#utility.yul\":792:799   */\n  dup5\n    /* \"#utility.yul\":788:811   */\n  sub\n    /* \"#utility.yul\":784:816   */\n  slt\n    /* \"#utility.yul\":781:900   */\n  iszero\n  tag_27\n  jumpi\n    /* \"#utility.yul\":819:898   */\n  tag_28\n  tag_10\n  jump\t// in\ntag_28:\n    /* \"#utility.yul\":781:900   */\ntag_27:\n    /* \"#utility.yul\":939:940   */\n  0x00\n    /* \"#utility.yul\":964:1028   */\n  tag_29\n    /* \"#utility.yul\":1020:1027   */\n  dup5\n    /* \"#utility.yul\":1011:1017   */\n  dup3\n    /* \"#utility.yul\":1000:1009   */\n  dup6\n    /* \"#utility.yul\":996:1018   */\n  add\n    /* \"#utility.yul\":964:1028   */\n  tag_14\n  jump\t// in\ntag_29:\n    /* \"#utility.yul\":954:1028   */\n  swap2\n  pop\n    /* \"#utility.yul\":910:1038   */\n  pop\n    /* \"#utility.yul\":694:1045   */\n  swap3\n  swap2\n  pop\n  pop\n  jump\t// out\n    /* \"#utility.yul\":1051:1231   */\ntag_15:\n    /* \"#utility.yul\":1099:1176   */\n  0x4e487b7100000000000000000000000000000000000000000000000000000000\n    /* \"#utility.yul\":1096:1097   */\n  0x00\n    /* \"#utility.yul\":1089:1177   */\n  mstore\n    /* \"#utility.yul\":1196:1200   */\n  0x11\n    /* \"#utility.yul\":1193:1194   */\n  0x04\n    /* \"#utility.yul\":1186:1201   */\n  mstore\n    /* \"#utility.yul\":1220:1224   */\n  0x24\n    /* \"#utility.yul\":1217:1218   */\n  0x00\n    /* \"#utility.yul\":1210:1225   */\n  revert\n    /* \"#utility.yul\":1237:1428   */\ntag_7:\n    /* \"#utility.yul\":1277:1280   */\n  0x00\n    /* \"#utility.yul\":1296:1316   */\n  tag_32\n    /* \"#utility.yul\":1314:1315   */\n  dup3\n    /* \"#utility.yul\":1296:1316   */\n  tag_12\n  jump\t// in\ntag_32:\n    /* \"#utility.yul\":1291:1316   */\n  swap2\n  pop\n    /* \"#utility.yul\":1330:1350   */\n  tag_33\n    /* \"#utility.yul\":1348:1349   */\n  dup4\n    /* \"#utility.yul\":1330:1350   */\n  tag_12\n  jump\t// in\ntag_33:\n    /* \"#utility.yul\":1325:1350   */\n  swap3\n  pop\n    /* \"#utility.yul\":1373:1374   */\n  dup3\n    /* \"#utility.yul\":1370:1371   */\n  dup3\n    /* \"#utility.yul\":1366:1375   */\n  add\n    /* \"#utility.yul\":1359:1375   */\n  swap1\n  pop\n    /* \"#utility.yul\":1394:1397   */\n  dup1\n    /* \"#utility.yul\":1391:1392   */\n  dup3\n    /* \"#utility.yul\":1388:1398   */\n  gt\n    /* \"#utility.yul\":1385:1421   */\n  iszero\n  tag_34\n  jumpi\n    /* \"#utility.yul\":1401:1419   */\n  tag_35\n  tag_15\n  jump\t// in\ntag_35:\n    /* \"#utility.yul\":1385:1421   */\ntag_34:\n    /* \"#utility.yul\":1237:1428   */\n  swap3\n  swap2\n  pop\n  pop\n  jump\t// out\n    /* \"Day-30/code1.sol\":61:1830  contract Auction{... */\ntag_8:\n  dataSize(sub_0)\n  dup1\n  dataOffset(sub_0)\n  0x00\n  codecopy\n  0x00\n  return\nstop\n\nsub_0: assembly {\n        /* \"Day-30/code1.sol\":61:1830  contract Auction{... */\n      mstore(0x40, 0x80)\n      jumpi(tag_1, lt(calldatasize, 0x04))\n      shr(0xe0, calldataload(0x00))\n      dup1\n      0x3197cbb6\n      gt\n      tag_11\n      jumpi\n      dup1\n      0x3197cbb6\n      eq\n      tag_6\n      jumpi\n      dup1\n      0x3ccfd60b\n      eq\n      tag_7\n      jumpi\n      dup1\n      0x91f90157\n      eq\n      tag_8\n      jumpi\n      dup1\n      0xd57bde79\n      eq\n      tag_9\n      jumpi\n      dup1\n      0xfe67a54b\n      eq\n      tag_10\n      jumpi\n      jump(tag_1)\n    tag_11:\n      dup1\n      0x08551a53\n      eq\n      tag_2\n      jumpi\n      dup1\n      0x12fa6feb\n      eq\n      tag_3\n      jumpi\n      dup1\n      0x1998aeef\n      eq\n      tag_4\n      jumpi\n      dup1\n      0x26b387bb\n      eq\n      tag_5\n      jumpi\n    tag_1:\n      0x00\n      dup1\n      revert\n        /* \"Day-30/code1.sol\":84:105  address public seller */\n    tag_2:\n      callvalue\n      dup1\n      iszero\n      tag_12\n      jumpi\n      0x00\n      dup1\n      revert\n    tag_12:\n      pop\n      tag_13\n      tag_14\n      jump\t// in\n    tag_13:\n      mload(0x40)\n      tag_15\n      swap2\n      swap1\n      tag_16\n      jump\t// in\n    tag_15:\n      mload(0x40)\n      dup1\n      swap2\n      sub\n      swap1\n      return\n        /* \"Day-30/code1.sol\":202:219  bool public ended */\n    tag_3:\n      callvalue\n      dup1\n      iszero\n      tag_17\n      jumpi\n      0x00\n      dup1\n      revert\n    tag_17:\n      pop\n      tag_18\n      tag_19\n      jump\t// in\n    tag_18:\n      mload(0x40)\n      tag_20\n      swap2\n      swap1\n      tag_21\n      jump\t// in\n    tag_20:\n      mload(0x40)\n      dup1\n      swap2\n      sub\n      swap1\n      return\n        /* \"Day-30/code1.sol\":527:944  function bid() external payable{... */\n    tag_4:\n      tag_22\n      tag_23\n      jump\t// in\n    tag_22:\n      stop\n        /* \"Day-30/code1.sol\":228:274  mapping(address => uint) public pendingReturns */\n    tag_5:\n      callvalue\n      dup1\n      iszero\n      tag_24\n      jumpi\n      0x00\n      dup1\n      revert\n    tag_24:\n      pop\n      tag_25\n      0x04\n      dup1\n      calldatasize\n      sub\n      dup2\n      add\n      swap1\n      tag_26\n      swap2\n      swap1\n      tag_27\n      jump\t// in\n    tag_26:\n      tag_28\n      jump\t// in\n    tag_25:\n      mload(0x40)\n      tag_29\n      swap2\n      swap1\n      tag_30\n      jump\t// in\n    tag_29:\n      mload(0x40)\n      dup1\n      swap2\n      sub\n      swap1\n      return\n        /* \"Day-30/code1.sol\":112:131  uint public endTime */\n    tag_6:\n      callvalue\n      dup1\n      iszero\n      tag_31\n      jumpi\n      0x00\n      dup1\n      revert\n    tag_31:\n      pop\n      tag_32\n      tag_33\n      jump\t// in\n    tag_32:\n      mload(0x40)\n      tag_34\n      swap2\n      swap1\n      tag_30\n      jump\t// in\n    tag_34:\n      mload(0x40)\n      dup1\n      swap2\n      sub\n      swap1\n      return\n        /* \"Day-30/code1.sol\":952:1359  function withdraw() external returns(bool){... */\n    tag_7:\n      callvalue\n      dup1\n      iszero\n      tag_35\n      jumpi\n      0x00\n      dup1\n      revert\n    tag_35:\n      pop\n      tag_36\n      tag_37\n      jump\t// in\n    tag_36:\n      mload(0x40)\n      tag_38\n      swap2\n      swap1\n      tag_21\n      jump\t// in\n    tag_38:\n      mload(0x40)\n      dup1\n      swap2\n      sub\n      swap1\n      return\n        /* \"Day-30/code1.sol\":138:166  address public highestBidder */\n    tag_8:\n      callvalue\n      dup1\n      iszero\n      tag_39\n      jumpi\n      0x00\n      dup1\n      revert\n    tag_39:\n      pop\n      tag_40\n      tag_41\n      jump\t// in\n    tag_40:\n      mload(0x40)\n      tag_42\n      swap2\n      swap1\n      tag_16\n      jump\t// in\n    tag_42:\n      mload(0x40)\n      dup1\n      swap2\n      sub\n      swap1\n      return\n        /* \"Day-30/code1.sol\":173:195  uint public highestBid */\n    tag_9:\n      callvalue\n      dup1\n      iszero\n      tag_43\n      jumpi\n      0x00\n      dup1\n      revert\n    tag_43:\n      pop\n      tag_44\n      tag_45\n      jump\t// in\n    tag_44:\n      mload(0x40)\n      tag_46\n      swap2\n      swap1\n      tag_30\n      jump\t// in\n    tag_46:\n      mload(0x40)\n      dup1\n      swap2\n      sub\n      swap1\n      return\n        /* \"Day-30/code1.sol\":1367:1827  function endAuction() external {... */\n    tag_10:\n      callvalue\n      dup1\n      iszero\n      tag_47\n      jumpi\n      0x00\n      dup1\n      revert\n    tag_47:\n      pop\n      tag_48\n      tag_49\n      jump\t// in\n    tag_48:\n      stop\n        /* \"Day-30/code1.sol\":84:105  address public seller */\n    tag_14:\n      0x00\n      dup1\n      sload\n      swap1\n      0x0100\n      exp\n      swap1\n      div\n      0xffffffffffffffffffffffffffffffffffffffff\n      and\n      dup2\n      jump\t// out\n        /* \"Day-30/code1.sol\":202:219  bool public ended */\n    tag_19:\n      0x04\n      0x00\n      swap1\n      sload\n      swap1\n      0x0100\n      exp\n      swap1\n      div\n      0xff\n      and\n      dup2\n      jump\t// out\n        /* \"Day-30/code1.sol\":527:944  function bid() external payable{... */\n    tag_23:\n        /* \"Day-30/code1.sol\":595:602  endTime */\n      sload(0x01)\n        /* \"Day-30/code1.sol\":577:592  block.timestamp */\n      timestamp\n        /* \"Day-30/code1.sol\":577:602  block.timestamp < endTime */\n      lt\n        /* \"Day-30/code1.sol\":569:629  require(block.timestamp < endTime, \"Auction already ended.\") */\n      tag_51\n      jumpi\n      mload(0x40)\n      0x08c379a000000000000000000000000000000000000000000000000000000000\n      dup2\n      mstore\n      0x04\n      add\n      tag_52\n      swap1\n      tag_53\n      jump\t// in\n    tag_52:\n      mload(0x40)\n      dup1\n      swap2\n      sub\n      swap1\n      revert\n    tag_51:\n        /* \"Day-30/code1.sol\":660:670  highestBid */\n      sload(0x03)\n        /* \"Day-30/code1.sol\":648:657  msg.value */\n      callvalue\n        /* \"Day-30/code1.sol\":648:670  msg.value > highestBid */\n      gt\n        /* \"Day-30/code1.sol\":640:705  require(msg.value > highestBid, \"There already is a higher bid.\") */\n      tag_54\n      jumpi\n      mload(0x40)\n      0x08c379a000000000000000000000000000000000000000000000000000000000\n      dup2\n      mstore\n      0x04\n      add\n      tag_55\n      swap1\n      tag_56\n      jump\t// in\n    tag_55:\n      mload(0x40)\n      dup1\n      swap2\n      sub\n      swap1\n      revert\n    tag_54:\n        /* \"Day-30/code1.sol\":735:736  0 */\n      0x00\n        /* \"Day-30/code1.sol\":721:731  highestBid */\n      sload(0x03)\n        /* \"Day-30/code1.sol\":721:736  highestBid != 0 */\n      eq\n        /* \"Day-30/code1.sol\":718:807  if(highestBid != 0){... */\n      tag_57\n      jumpi\n        /* \"Day-30/code1.sol\":785:795  highestBid */\n      sload(0x03)\n        /* \"Day-30/code1.sol\":752:766  pendingReturns */\n      0x05\n        /* \"Day-30/code1.sol\":752:781  pendingReturns[highestBidder] */\n      0x00\n        /* \"Day-30/code1.sol\":767:780  highestBidder */\n      0x02\n      0x00\n      swap1\n      sload\n      swap1\n      0x0100\n      exp\n      swap1\n      div\n      0xffffffffffffffffffffffffffffffffffffffff\n      and\n        /* \"Day-30/code1.sol\":752:781  pendingReturns[highestBidder] */\n      0xffffffffffffffffffffffffffffffffffffffff\n      and\n      0xffffffffffffffffffffffffffffffffffffffff\n      and\n      dup2\n      mstore\n      0x20\n      add\n      swap1\n      dup2\n      mstore\n      0x20\n      add\n      0x00\n      keccak256\n      0x00\n        /* \"Day-30/code1.sol\":752:795  pendingReturns[highestBidder] += highestBid */\n      dup3\n      dup3\n      sload\n      tag_58\n      swap2\n      swap1\n      tag_59\n      jump\t// in\n    tag_58:\n      swap3\n      pop\n      pop\n      dup2\n      swap1\n      sstore\n      pop\n        /* \"Day-30/code1.sol\":718:807  if(highestBid != 0){... */\n    tag_57:\n        /* \"Day-30/code1.sol\":835:845  msg.sender */\n      caller\n        /* \"Day-30/code1.sol\":819:832  highestBidder */\n      0x02\n      0x00\n        /* \"Day-30/code1.sol\":819:845  highestBidder = msg.sender */\n      0x0100\n      exp\n      dup2\n      sload\n      dup2\n      0xffffffffffffffffffffffffffffffffffffffff\n      mul\n      not\n      and\n      swap1\n      dup4\n      0xffffffffffffffffffffffffffffffffffffffff\n      and\n      mul\n      or\n      swap1\n      sstore\n      pop\n        /* \"Day-30/code1.sol\":869:878  msg.value */\n      callvalue\n        /* \"Day-30/code1.sol\":856:866  highestBid */\n      0x03\n        /* \"Day-30/code1.sol\":856:878  highestBid = msg.value */\n      dup2\n      swap1\n      sstore\n      pop\n        /* \"Day-30/code1.sol\":894:936  HighestBidIncreased(msg.sender, msg.value) */\n      0xf4757a49b326036464bec6fe419a4ae38c8a02ce3e68bf0809674f6aab8ad300\n        /* \"Day-30/code1.sol\":914:924  msg.sender */\n      caller\n        /* \"Day-30/code1.sol\":926:935  msg.value */\n      callvalue\n        /* \"Day-30/code1.sol\":894:936  HighestBidIncreased(msg.sender, msg.value) */\n      mload(0x40)\n      tag_60\n      swap3\n      swap2\n      swap1\n      tag_61\n      jump\t// in\n    tag_60:\n      mload(0x40)\n      dup1\n      swap2\n      sub\n      swap1\n      log1\n        /* \"Day-30/code1.sol\":527:944  function bid() external payable{... */\n      jump\t// out\n        /* \"Day-30/code1.sol\":228:274  mapping(address => uint) public pendingReturns */\n    tag_28:\n      mstore(0x20, 0x05)\n      dup1\n      0x00\n      mstore\n      keccak256(0x00, 0x40)\n      0x00\n      swap2\n      pop\n      swap1\n      pop\n      sload\n      dup2\n      jump\t// out\n        /* \"Day-30/code1.sol\":112:131  uint public endTime */\n    tag_33:\n      sload(0x01)\n      dup2\n      jump\t// out\n        /* \"Day-30/code1.sol\":952:1359  function withdraw() external returns(bool){... */\n    tag_37:\n        /* \"Day-30/code1.sol\":989:993  bool */\n      0x00\n        /* \"Day-30/code1.sol\":1005:1016  uint amount */\n      dup1\n        /* \"Day-30/code1.sol\":1019:1033  pendingReturns */\n      0x05\n        /* \"Day-30/code1.sol\":1019:1045  pendingReturns[msg.sender] */\n      0x00\n        /* \"Day-30/code1.sol\":1034:1044  msg.sender */\n      caller\n        /* \"Day-30/code1.sol\":1019:1045  pendingReturns[msg.sender] */\n      0xffffffffffffffffffffffffffffffffffffffff\n      and\n      0xffffffffffffffffffffffffffffffffffffffff\n      and\n      dup2\n      mstore\n      0x20\n      add\n      swap1\n      dup2\n      mstore\n      0x20\n      add\n      0x00\n      keccak256\n      sload\n        /* \"Day-30/code1.sol\":1005:1045  uint amount = pendingReturns[msg.sender] */\n      swap1\n      pop\n        /* \"Day-30/code1.sol\":1073:1074  0 */\n      0x00\n        /* \"Day-30/code1.sol\":1064:1070  amount */\n      dup2\n        /* \"Day-30/code1.sol\":1064:1074  amount > 0 */\n      gt\n        /* \"Day-30/code1.sol\":1056:1100  require(amount > 0, \"No funds to withdraw.\") */\n      tag_63\n      jumpi\n      mload(0x40)\n      0x08c379a000000000000000000000000000000000000000000000000000000000\n      dup2\n      mstore\n      0x04\n      add\n      tag_64\n      swap1\n      tag_65\n      jump\t// in\n    tag_64:\n      mload(0x40)\n      dup1\n      swap2\n      sub\n      swap1\n      revert\n    tag_63:\n        /* \"Day-30/code1.sol\":1142:1143  0 */\n      0x00\n        /* \"Day-30/code1.sol\":1113:1127  pendingReturns */\n      0x05\n        /* \"Day-30/code1.sol\":1113:1139  pendingReturns[msg.sender] */\n      0x00\n        /* \"Day-30/code1.sol\":1128:1138  msg.sender */\n      caller\n        /* \"Day-30/code1.sol\":1113:1139  pendingReturns[msg.sender] */\n      0xffffffffffffffffffffffffffffffffffffffff\n      and\n      0xffffffffffffffffffffffffffffffffffffffff\n      and\n      dup2\n      mstore\n      0x20\n      add\n      swap1\n      dup2\n      mstore\n      0x20\n      add\n      0x00\n      keccak256\n        /* \"Day-30/code1.sol\":1113:1143  pendingReturns[msg.sender] = 0 */\n      dup2\n      swap1\n      sstore\n      pop\n        /* \"Day-30/code1.sol\":1157:1169  bool success */\n      0x00\n        /* \"Day-30/code1.sol\":1183:1193  msg.sender */\n      caller\n        /* \"Day-30/code1.sol\":1175:1199  payable(msg.sender).call */\n      0xffffffffffffffffffffffffffffffffffffffff\n      and\n        /* \"Day-30/code1.sol\":1207:1213  amount */\n      dup3\n        /* \"Day-30/code1.sol\":1175:1218  payable(msg.sender).call{value: amount}(\"\") */\n      mload(0x40)\n      tag_66\n      swap1\n      tag_67\n      jump\t// in\n    tag_66:\n      0x00\n      mload(0x40)\n      dup1\n      dup4\n      sub\n      dup2\n      dup6\n      dup8\n      gas\n      call\n      swap3\n      pop\n      pop\n      pop\n      returndatasize\n      dup1\n      0x00\n      dup2\n      eq\n      tag_70\n      jumpi\n      mload(0x40)\n      swap2\n      pop\n      and(add(returndatasize, 0x3f), not(0x1f))\n      dup3\n      add\n      0x40\n      mstore\n      returndatasize\n      dup3\n      mstore\n      returndatasize\n      0x00\n      0x20\n      dup5\n      add\n      returndatacopy\n      jump(tag_69)\n    tag_70:\n      0x60\n      swap2\n      pop\n    tag_69:\n      pop\n        /* \"Day-30/code1.sol\":1156:1218  (bool success, ) = payable(msg.sender).call{value: amount}(\"\") */\n      pop\n      swap1\n      pop\n        /* \"Day-30/code1.sol\":1233:1240  success */\n      dup1\n        /* \"Day-30/code1.sol\":1229:1330  if(!success){... */\n      tag_71\n      jumpi\n        /* \"Day-30/code1.sol\":1285:1291  amount */\n      dup2\n        /* \"Day-30/code1.sol\":1256:1270  pendingReturns */\n      0x05\n        /* \"Day-30/code1.sol\":1256:1282  pendingReturns[msg.sender] */\n      0x00\n        /* \"Day-30/code1.sol\":1271:1281  msg.sender */\n      caller\n        /* \"Day-30/code1.sol\":1256:1282  pendingReturns[msg.sender] */\n      0xffffffffffffffffffffffffffffffffffffffff\n      and\n      0xffffffffffffffffffffffffffffffffffffffff\n      and\n      dup2\n      mstore\n      0x20\n      add\n      swap1\n      dup2\n      mstore\n      0x20\n      add\n      0x00\n      keccak256\n        /* \"Day-30/code1.sol\":1256:1291  pendingReturns[msg.sender] = amount */\n      dup2\n      swap1\n      sstore\n      pop\n        /* \"Day-30/code1.sol\":1313:1318  false */\n      0x00\n        /* \"Day-30/code1.sol\":1306:1318  return false */\n      swap3\n      pop\n      pop\n      pop\n      jump(tag_62)\n        /* \"Day-30/code1.sol\":1229:1330  if(!success){... */\n    tag_71:\n        /* \"Day-30/code1.sol\":1347:1351  true */\n      0x01\n        /* \"Day-30/code1.sol\":1340:1351  return true */\n      swap3\n      pop\n      pop\n      pop\n        /* \"Day-30/code1.sol\":952:1359  function withdraw() external returns(bool){... */\n    tag_62:\n      swap1\n      jump\t// out\n        /* \"Day-30/code1.sol\":138:166  address public highestBidder */\n    tag_41:\n      0x02\n      0x00\n      swap1\n      sload\n      swap1\n      0x0100\n      exp\n      swap1\n      div\n      0xffffffffffffffffffffffffffffffffffffffff\n      and\n      dup2\n      jump\t// out\n        /* \"Day-30/code1.sol\":173:195  uint public highestBid */\n    tag_45:\n      sload(0x03)\n      dup2\n      jump\t// out\n        /* \"Day-30/code1.sol\":1367:1827  function endAuction() external {... */\n    tag_49:\n        /* \"Day-30/code1.sol\":1436:1443  endTime */\n      sload(0x01)\n        /* \"Day-30/code1.sol\":1417:1432  block.timestamp */\n      timestamp\n        /* \"Day-30/code1.sol\":1417:1443  block.timestamp >= endTime */\n      lt\n      iszero\n        /* \"Day-30/code1.sol\":1409:1470  require(block.timestamp >= endTime, \"Auction not yet ended.\") */\n      tag_73\n      jumpi\n      mload(0x40)\n      0x08c379a000000000000000000000000000000000000000000000000000000000\n      dup2\n      mstore\n      0x04\n      add\n      tag_74\n      swap1\n      tag_75\n      jump\t// in\n    tag_74:\n      mload(0x40)\n      dup1\n      swap2\n      sub\n      swap1\n      revert\n    tag_73:\n        /* \"Day-30/code1.sol\":1490:1495  ended */\n      0x04\n      0x00\n      swap1\n      sload\n      swap1\n      0x0100\n      exp\n      swap1\n      div\n      0xff\n      and\n        /* \"Day-30/code1.sol\":1489:1495  !ended */\n      iszero\n        /* \"Day-30/code1.sol\":1481:1535  require(!ended, \"endAuction has already been called.\") */\n      tag_76\n      jumpi\n      mload(0x40)\n      0x08c379a000000000000000000000000000000000000000000000000000000000\n      dup2\n      mstore\n      0x04\n      add\n      tag_77\n      swap1\n      tag_78\n      jump\t// in\n    tag_77:\n      mload(0x40)\n      dup1\n      swap2\n      sub\n      swap1\n      revert\n    tag_76:\n        /* \"Day-30/code1.sol\":1568:1574  seller */\n      0x00\n      dup1\n      sload\n      swap1\n      0x0100\n      exp\n      swap1\n      div\n      0xffffffffffffffffffffffffffffffffffffffff\n      and\n        /* \"Day-30/code1.sol\":1554:1574  msg.sender == seller */\n      0xffffffffffffffffffffffffffffffffffffffff\n      and\n        /* \"Day-30/code1.sol\":1554:1564  msg.sender */\n      caller\n        /* \"Day-30/code1.sol\":1554:1574  msg.sender == seller */\n      0xffffffffffffffffffffffffffffffffffffffff\n      and\n      eq\n        /* \"Day-30/code1.sol\":1546:1607  require(msg.sender == seller, \"Only seller can end auction.\") */\n      tag_79\n      jumpi\n      mload(0x40)\n      0x08c379a000000000000000000000000000000000000000000000000000000000\n      dup2\n      mstore\n      0x04\n      add\n      tag_80\n      swap1\n      tag_81\n      jump\t// in\n    tag_80:\n      mload(0x40)\n      dup1\n      swap2\n      sub\n      swap1\n      revert\n    tag_79:\n        /* \"Day-30/code1.sol\":1628:1632  true */\n      0x01\n        /* \"Day-30/code1.sol\":1620:1625  ended */\n      0x04\n      0x00\n        /* \"Day-30/code1.sol\":1620:1632  ended = true */\n      0x0100\n      exp\n      dup2\n      sload\n      dup2\n      0xff\n      mul\n      not\n      and\n      swap1\n      dup4\n      iszero\n      iszero\n      mul\n      or\n      swap1\n      sstore\n      pop\n        /* \"Day-30/code1.sol\":1648:1687  AcutionEnded(highestBidder, highestBid) */\n      0x917fd6d893e435f61cf143a3149d8db6cd1e06c6367f7448bda8e98d75e202f6\n        /* \"Day-30/code1.sol\":1661:1674  highestBidder */\n      0x02\n      0x00\n      swap1\n      sload\n      swap1\n      0x0100\n      exp\n      swap1\n      div\n      0xffffffffffffffffffffffffffffffffffffffff\n      and\n        /* \"Day-30/code1.sol\":1676:1686  highestBid */\n      sload(0x03)\n        /* \"Day-30/code1.sol\":1648:1687  AcutionEnded(highestBidder, highestBid) */\n      mload(0x40)\n      tag_82\n      swap3\n      swap2\n      swap1\n      tag_61\n      jump\t// in\n    tag_82:\n      mload(0x40)\n      dup1\n      swap2\n      sub\n      swap1\n      log1\n        /* \"Day-30/code1.sol\":1701:1713  bool success */\n      0x00\n        /* \"Day-30/code1.sol\":1727:1733  seller */\n      dup1\n      0x00\n      swap1\n      sload\n      swap1\n      0x0100\n      exp\n      swap1\n      div\n      0xffffffffffffffffffffffffffffffffffffffff\n      and\n        /* \"Day-30/code1.sol\":1719:1739  payable(seller).call */\n      0xffffffffffffffffffffffffffffffffffffffff\n      and\n        /* \"Day-30/code1.sol\":1747:1757  highestBid */\n      sload(0x03)\n        /* \"Day-30/code1.sol\":1719:1762  payable(seller).call{value: highestBid}(\"\") */\n      mload(0x40)\n      tag_83\n      swap1\n      tag_67\n      jump\t// in\n    tag_83:\n      0x00\n      mload(0x40)\n      dup1\n      dup4\n      sub\n      dup2\n      dup6\n      dup8\n      gas\n      call\n      swap3\n      pop\n      pop\n      pop\n      returndatasize\n      dup1\n      0x00\n      dup2\n      eq\n      tag_86\n      jumpi\n      mload(0x40)\n      swap2\n      pop\n      and(add(returndatasize, 0x3f), not(0x1f))\n      dup3\n      add\n      0x40\n      mstore\n      returndatasize\n      dup3\n      mstore\n      returndatasize\n      0x00\n      0x20\n      dup5\n      add\n      returndatacopy\n      jump(tag_85)\n    tag_86:\n      0x60\n      swap2\n      pop\n    tag_85:\n      pop\n        /* \"Day-30/code1.sol\":1700:1762  (bool success, ) = payable(seller).call{value: highestBid}(\"\") */\n      pop\n      swap1\n      pop\n        /* \"Day-30/code1.sol\":1781:1788  success */\n      dup1\n        /* \"Day-30/code1.sol\":1773:1819  require(success, \"Transfer to seller failed.\") */\n      tag_87\n      jumpi\n      mload(0x40)\n      0x08c379a000000000000000000000000000000000000000000000000000000000\n      dup2\n      mstore\n      0x04\n      add\n      tag_88\n      swap1\n      tag_89\n      jump\t// in\n    tag_88:\n      mload(0x40)\n      dup1\n      swap2\n      sub\n      swap1\n      revert\n    tag_87:\n        /* \"Day-30/code1.sol\":1398:1827  {... */\n      pop\n        /* \"Day-30/code1.sol\":1367:1827  function endAuction() external {... */\n      jump\t// out\n        /* \"#utility.yul\":7:133   */\n    tag_90:\n        /* \"#utility.yul\":44:51   */\n      0x00\n        /* \"#utility.yul\":84:126   */\n      0xffffffffffffffffffffffffffffffffffffffff\n        /* \"#utility.yul\":77:82   */\n      dup3\n        /* \"#utility.yul\":73:127   */\n      and\n        /* \"#utility.yul\":62:127   */\n      swap1\n      pop\n        /* \"#utility.yul\":7:133   */\n      swap2\n      swap1\n      pop\n      jump\t// out\n        /* \"#utility.yul\":139:235   */\n    tag_91:\n        /* \"#utility.yul\":176:183   */\n      0x00\n        /* \"#utility.yul\":205:229   */\n      tag_124\n        /* \"#utility.yul\":223:228   */\n      dup3\n        /* \"#utility.yul\":205:229   */\n      tag_90\n      jump\t// in\n    tag_124:\n        /* \"#utility.yul\":194:229   */\n      swap1\n      pop\n        /* \"#utility.yul\":139:235   */\n      swap2\n      swap1\n      pop\n      jump\t// out\n        /* \"#utility.yul\":241:359   */\n    tag_92:\n        /* \"#utility.yul\":328:352   */\n      tag_126\n        /* \"#utility.yul\":346:351   */\n      dup2\n        /* \"#utility.yul\":328:352   */\n      tag_91\n      jump\t// in\n    tag_126:\n        /* \"#utility.yul\":323:326   */\n      dup3\n        /* \"#utility.yul\":316:353   */\n      mstore\n        /* \"#utility.yul\":241:359   */\n      pop\n      pop\n      jump\t// out\n        /* \"#utility.yul\":365:587   */\n    tag_16:\n        /* \"#utility.yul\":458:462   */\n      0x00\n        /* \"#utility.yul\":496:498   */\n      0x20\n        /* \"#utility.yul\":485:494   */\n      dup3\n        /* \"#utility.yul\":481:499   */\n      add\n        /* \"#utility.yul\":473:499   */\n      swap1\n      pop\n        /* \"#utility.yul\":509:580   */\n      tag_128\n        /* \"#utility.yul\":577:578   */\n      0x00\n        /* \"#utility.yul\":566:575   */\n      dup4\n        /* \"#utility.yul\":562:579   */\n      add\n        /* \"#utility.yul\":553:559   */\n      dup5\n        /* \"#utility.yul\":509:580   */\n      tag_92\n      jump\t// in\n    tag_128:\n        /* \"#utility.yul\":365:587   */\n      swap3\n      swap2\n      pop\n      pop\n      jump\t// out\n        /* \"#utility.yul\":593:683   */\n    tag_93:\n        /* \"#utility.yul\":627:634   */\n      0x00\n        /* \"#utility.yul\":670:675   */\n      dup2\n        /* \"#utility.yul\":663:676   */\n      iszero\n        /* \"#utility.yul\":656:677   */\n      iszero\n        /* \"#utility.yul\":645:677   */\n      swap1\n      pop\n        /* \"#utility.yul\":593:683   */\n      swap2\n      swap1\n      pop\n      jump\t// out\n        /* \"#utility.yul\":689:798   */\n    tag_94:\n        /* \"#utility.yul\":770:791   */\n      tag_131\n        /* \"#utility.yul\":785:790   */\n      dup2\n        /* \"#utility.yul\":770:791   */\n      tag_93\n      jump\t// in\n    tag_131:\n        /* \"#utility.yul\":765:768   */\n      dup3\n        /* \"#utility.yul\":758:792   */\n      mstore\n        /* \"#utility.yul\":689:798   */\n      pop\n      pop\n      jump\t// out\n        /* \"#utility.yul\":804:1014   */\n    tag_21:\n        /* \"#utility.yul\":891:895   */\n      0x00\n        /* \"#utility.yul\":929:931   */\n      0x20\n        /* \"#utility.yul\":918:927   */\n      dup3\n        /* \"#utility.yul\":914:932   */\n      add\n        /* \"#utility.yul\":906:932   */\n      swap1\n      pop\n        /* \"#utility.yul\":942:1007   */\n      tag_133\n        /* \"#utility.yul\":1004:1005   */\n      0x00\n        /* \"#utility.yul\":993:1002   */\n      dup4\n        /* \"#utility.yul\":989:1006   */\n      add\n        /* \"#utility.yul\":980:986   */\n      dup5\n        /* \"#utility.yul\":942:1007   */\n      tag_94\n      jump\t// in\n    tag_133:\n        /* \"#utility.yul\":804:1014   */\n      swap3\n      swap2\n      pop\n      pop\n      jump\t// out\n        /* \"#utility.yul\":1101:1218   */\n    tag_96:\n        /* \"#utility.yul\":1210:1211   */\n      0x00\n        /* \"#utility.yul\":1207:1208   */\n      dup1\n        /* \"#utility.yul\":1200:1212   */\n      revert\n        /* \"#utility.yul\":1347:1469   */\n    tag_98:\n        /* \"#utility.yul\":1420:1444   */\n      tag_138\n        /* \"#utility.yul\":1438:1443   */\n      dup2\n        /* \"#utility.yul\":1420:1444   */\n      tag_91\n      jump\t// in\n    tag_138:\n        /* \"#utility.yul\":1413:1418   */\n      dup2\n        /* \"#utility.yul\":1410:1445   */\n      eq\n        /* \"#utility.yul\":1400:1463   */\n      tag_139\n      jumpi\n        /* \"#utility.yul\":1459:1460   */\n      0x00\n        /* \"#utility.yul\":1456:1457   */\n      dup1\n        /* \"#utility.yul\":1449:1461   */\n      revert\n        /* \"#utility.yul\":1400:1463   */\n    tag_139:\n        /* \"#utility.yul\":1347:1469   */\n      pop\n      jump\t// out\n        /* \"#utility.yul\":1475:1614   */\n    tag_99:\n        /* \"#utility.yul\":1521:1526   */\n      0x00\n        /* \"#utility.yul\":1559:1565   */\n      dup2\n        /* \"#utility.yul\":1546:1566   */\n      calldataload\n        /* \"#utility.yul\":1537:1566   */\n      swap1\n      pop\n        /* \"#utility.yul\":1575:1608   */\n      tag_141\n        /* \"#utility.yul\":1602:1607   */\n      dup2\n        /* \"#utility.yul\":1575:1608   */\n      tag_98\n      jump\t// in\n    tag_141:\n        /* \"#utility.yul\":1475:1614   */\n      swap3\n      swap2\n      pop\n      pop\n      jump\t// out\n        /* \"#utility.yul\":1620:1949   */\n    tag_27:\n        /* \"#utility.yul\":1679:1685   */\n      0x00\n        /* \"#utility.yul\":1728:1730   */\n      0x20\n        /* \"#utility.yul\":1716:1725   */\n      dup3\n        /* \"#utility.yul\":1707:1714   */\n      dup5\n        /* \"#utility.yul\":1703:1726   */\n      sub\n        /* \"#utility.yul\":1699:1731   */\n      slt\n        /* \"#utility.yul\":1696:1815   */\n      iszero\n      tag_143\n      jumpi\n        /* \"#utility.yul\":1734:1813   */\n      tag_144\n      tag_96\n      jump\t// in\n    tag_144:\n        /* \"#utility.yul\":1696:1815   */\n    tag_143:\n        /* \"#utility.yul\":1854:1855   */\n      0x00\n        /* \"#utility.yul\":1879:1932   */\n      tag_145\n        /* \"#utility.yul\":1924:1931   */\n      dup5\n        /* \"#utility.yul\":1915:1921   */\n      dup3\n        /* \"#utility.yul\":1904:1913   */\n      dup6\n        /* \"#utility.yul\":1900:1922   */\n      add\n        /* \"#utility.yul\":1879:1932   */\n      tag_99\n      jump\t// in\n    tag_145:\n        /* \"#utility.yul\":1869:1932   */\n      swap2\n      pop\n        /* \"#utility.yul\":1825:1942   */\n      pop\n        /* \"#utility.yul\":1620:1949   */\n      swap3\n      swap2\n      pop\n      pop\n      jump\t// out\n        /* \"#utility.yul\":1955:2032   */\n    tag_100:\n        /* \"#utility.yul\":1992:1999   */\n      0x00\n        /* \"#utility.yul\":2021:2026   */\n      dup2\n        /* \"#utility.yul\":2010:2026   */\n      swap1\n      pop\n        /* \"#utility.yul\":1955:2032   */\n      swap2\n      swap1\n      pop\n      jump\t// out\n        /* \"#utility.yul\":2038:2156   */\n    tag_101:\n        /* \"#utility.yul\":2125:2149   */\n      tag_148\n        /* \"#utility.yul\":2143:2148   */\n      dup2\n        /* \"#utility.yul\":2125:2149   */\n      tag_100\n      jump\t// in\n    tag_148:\n        /* \"#utility.yul\":2120:2123   */\n      dup3\n        /* \"#utility.yul\":2113:2150   */\n      mstore\n        /* \"#utility.yul\":2038:2156   */\n      pop\n      pop\n      jump\t// out\n        /* \"#utility.yul\":2162:2384   */\n    tag_30:\n        /* \"#utility.yul\":2255:2259   */\n      0x00\n        /* \"#utility.yul\":2293:2295   */\n      0x20\n        /* \"#utility.yul\":2282:2291   */\n      dup3\n        /* \"#utility.yul\":2278:2296   */\n      add\n        /* \"#utility.yul\":2270:2296   */\n      swap1\n      pop\n        /* \"#utility.yul\":2306:2377   */\n      tag_150\n        /* \"#utility.yul\":2374:2375   */\n      0x00\n        /* \"#utility.yul\":2363:2372   */\n      dup4\n        /* \"#utility.yul\":2359:2376   */\n      add\n        /* \"#utility.yul\":2350:2356   */\n      dup5\n        /* \"#utility.yul\":2306:2377   */\n      tag_101\n      jump\t// in\n    tag_150:\n        /* \"#utility.yul\":2162:2384   */\n      swap3\n      swap2\n      pop\n      pop\n      jump\t// out\n        /* \"#utility.yul\":2390:2559   */\n    tag_102:\n        /* \"#utility.yul\":2474:2485   */\n      0x00\n        /* \"#utility.yul\":2508:2514   */\n      dup3\n        /* \"#utility.yul\":2503:2506   */\n      dup3\n        /* \"#utility.yul\":2496:2515   */\n      mstore\n        /* \"#utility.yul\":2548:2552   */\n      0x20\n        /* \"#utility.yul\":2543:2546   */\n      dup3\n        /* \"#utility.yul\":2539:2553   */\n      add\n        /* \"#utility.yul\":2524:2553   */\n      swap1\n      pop\n        /* \"#utility.yul\":2390:2559   */\n      swap3\n      swap2\n      pop\n      pop\n      jump\t// out\n        /* \"#utility.yul\":2565:2737   */\n    tag_103:\n        /* \"#utility.yul\":2705:2729   */\n      0x41756374696f6e20616c726561647920656e6465642e00000000000000000000\n        /* \"#utility.yul\":2701:2702   */\n      0x00\n        /* \"#utility.yul\":2693:2699   */\n      dup3\n        /* \"#utility.yul\":2689:2703   */\n      add\n        /* \"#utility.yul\":2682:2730   */\n      mstore\n        /* \"#utility.yul\":2565:2737   */\n      pop\n      jump\t// out\n        /* \"#utility.yul\":2743:3109   */\n    tag_104:\n        /* \"#utility.yul\":2885:2888   */\n      0x00\n        /* \"#utility.yul\":2906:2973   */\n      tag_154\n        /* \"#utility.yul\":2970:2972   */\n      0x16\n        /* \"#utility.yul\":2965:2968   */\n      dup4\n        /* \"#utility.yul\":2906:2973   */\n      tag_102\n      jump\t// in\n    tag_154:\n        /* \"#utility.yul\":2899:2973   */\n      swap2\n      pop\n        /* \"#utility.yul\":2982:3075   */\n      tag_155\n        /* \"#utility.yul\":3071:3074   */\n      dup3\n        /* \"#utility.yul\":2982:3075   */\n      tag_103\n      jump\t// in\n    tag_155:\n        /* \"#utility.yul\":3100:3102   */\n      0x20\n        /* \"#utility.yul\":3095:3098   */\n      dup3\n        /* \"#utility.yul\":3091:3103   */\n      add\n        /* \"#utility.yul\":3084:3103   */\n      swap1\n      pop\n        /* \"#utility.yul\":2743:3109   */\n      swap2\n      swap1\n      pop\n      jump\t// out\n        /* \"#utility.yul\":3115:3534   */\n    tag_53:\n        /* \"#utility.yul\":3281:3285   */\n      0x00\n        /* \"#utility.yul\":3319:3321   */\n      0x20\n        /* \"#utility.yul\":3308:3317   */\n      dup3\n        /* \"#utility.yul\":3304:3322   */\n      add\n        /* \"#utility.yul\":3296:3322   */\n      swap1\n      pop\n        /* \"#utility.yul\":3368:3377   */\n      dup2\n        /* \"#utility.yul\":3362:3366   */\n      dup2\n        /* \"#utility.yul\":3358:3378   */\n      sub\n        /* \"#utility.yul\":3354:3355   */\n      0x00\n        /* \"#utility.yul\":3343:3352   */\n      dup4\n        /* \"#utility.yul\":3339:3356   */\n      add\n        /* \"#utility.yul\":3332:3379   */\n      mstore\n        /* \"#utility.yul\":3396:3527   */\n      tag_157\n        /* \"#utility.yul\":3522:3526   */\n      dup2\n        /* \"#utility.yul\":3396:3527   */\n      tag_104\n      jump\t// in\n    tag_157:\n        /* \"#utility.yul\":3388:3527   */\n      swap1\n      pop\n        /* \"#utility.yul\":3115:3534   */\n      swap2\n      swap1\n      pop\n      jump\t// out\n        /* \"#utility.yul\":3540:3720   */\n    tag_105:\n        /* \"#utility.yul\":3680:3712   */\n      0x546865726520616c7265616479206973206120686967686572206269642e0000\n        /* \"#utility.yul\":3676:3677   */\n      0x00\n        /* \"#utility.yul\":3668:3674   */\n      dup3\n        /* \"#utility.yul\":3664:3678   */\n      add\n        /* \"#utility.yul\":3657:3713   */\n      mstore\n        /* \"#utility.yul\":3540:3720   */\n      pop\n      jump\t// out\n        /* \"#utility.yul\":3726:4092   */\n    tag_106:\n        /* \"#utility.yul\":3868:3871   */\n      0x00\n        /* \"#utility.yul\":3889:3956   */\n      tag_160\n        /* \"#utility.yul\":3953:3955   */\n      0x1e\n        /* \"#utility.yul\":3948:3951   */\n      dup4\n        /* \"#utility.yul\":3889:3956   */\n      tag_102\n      jump\t// in\n    tag_160:\n        /* \"#utility.yul\":3882:3956   */\n      swap2\n      pop\n        /* \"#utility.yul\":3965:4058   */\n      tag_161\n        /* \"#utility.yul\":4054:4057   */\n      dup3\n        /* \"#utility.yul\":3965:4058   */\n      tag_105\n      jump\t// in\n    tag_161:\n        /* \"#utility.yul\":4083:4085   */\n      0x20\n        /* \"#utility.yul\":4078:4081   */\n      dup3\n        /* \"#utility.yul\":4074:4086   */\n      add\n        /* \"#utility.yul\":4067:4086   */\n      swap1\n      pop\n        /* \"#utility.yul\":3726:4092   */\n      swap2\n      swap1\n      pop\n      jump\t// out\n        /* \"#utility.yul\":4098:4517   */\n    tag_56:\n        /* \"#utility.yul\":4264:4268   */\n      0x00\n        /* \"#utility.yul\":4302:4304   */\n      0x20\n        /* \"#utility.yul\":4291:4300   */\n      dup3\n        /* \"#utility.yul\":4287:4305   */\n      add\n        /* \"#utility.yul\":4279:4305   */\n      swap1\n      pop\n        /* \"#utility.yul\":4351:4360   */\n      dup2\n        /* \"#utility.yul\":4345:4349   */\n      dup2\n        /* \"#utility.yul\":4341:4361   */\n      sub\n        /* \"#utility.yul\":4337:4338   */\n      0x00\n        /* \"#utility.yul\":4326:4335   */\n      dup4\n        /* \"#utility.yul\":4322:4339   */\n      add\n        /* \"#utility.yul\":4315:4362   */\n      mstore\n        /* \"#utility.yul\":4379:4510   */\n      tag_163\n        /* \"#utility.yul\":4505:4509   */\n      dup2\n        /* \"#utility.yul\":4379:4510   */\n      tag_106\n      jump\t// in\n    tag_163:\n        /* \"#utility.yul\":4371:4510   */\n      swap1\n      pop\n        /* \"#utility.yul\":4098:4517   */\n      swap2\n      swap1\n      pop\n      jump\t// out\n        /* \"#utility.yul\":4523:4703   */\n    tag_107:\n        /* \"#utility.yul\":4571:4648   */\n      0x4e487b7100000000000000000000000000000000000000000000000000000000\n        /* \"#utility.yul\":4568:4569   */\n      0x00\n        /* \"#utility.yul\":4561:4649   */\n      mstore\n        /* \"#utility.yul\":4668:4672   */\n      0x11\n        /* \"#utility.yul\":4665:4666   */\n      0x04\n        /* \"#utility.yul\":4658:4673   */\n      mstore\n        /* \"#utility.yul\":4692:4696   */\n      0x24\n        /* \"#utility.yul\":4689:4690   */\n      0x00\n        /* \"#utility.yul\":4682:4697   */\n      revert\n        /* \"#utility.yul\":4709:4900   */\n    tag_59:\n        /* \"#utility.yul\":4749:4752   */\n      0x00\n        /* \"#utility.yul\":4768:4788   */\n      tag_166\n        /* \"#utility.yul\":4786:4787   */\n      dup3\n        /* \"#utility.yul\":4768:4788   */\n      tag_100\n      jump\t// in\n    tag_166:\n        /* \"#utility.yul\":4763:4788   */\n      swap2\n      pop\n        /* \"#utility.yul\":4802:4822   */\n      tag_167\n        /* \"#utility.yul\":4820:4821   */\n      dup4\n        /* \"#utility.yul\":4802:4822   */\n      tag_100\n      jump\t// in\n    tag_167:\n        /* \"#utility.yul\":4797:4822   */\n      swap3\n      pop\n        /* \"#utility.yul\":4845:4846   */\n      dup3\n        /* \"#utility.yul\":4842:4843   */\n      dup3\n        /* \"#utility.yul\":4838:4847   */\n      add\n        /* \"#utility.yul\":4831:4847   */\n      swap1\n      pop\n        /* \"#utility.yul\":4866:4869   */\n      dup1\n        /* \"#utility.yul\":4863:4864   */\n      dup3\n        /* \"#utility.yul\":4860:4870   */\n      gt\n        /* \"#utility.yul\":4857:4893   */\n      iszero\n      tag_168\n      jumpi\n        /* \"#utility.yul\":4873:4891   */\n      tag_169\n      tag_107\n      jump\t// in\n    tag_169:\n        /* \"#utility.yul\":4857:4893   */\n    tag_168:\n        /* \"#utility.yul\":4709:4900   */\n      swap3\n      swap2\n      pop\n      pop\n      jump\t// out\n        /* \"#utility.yul\":4906:5238   */\n    tag_61:\n        /* \"#utility.yul\":5027:5031   */\n      0x00\n        /* \"#utility.yul\":5065:5067   */\n      0x40\n        /* \"#utility.yul\":5054:5063   */\n      dup3\n        /* \"#utility.yul\":5050:5068   */\n      add\n        /* \"#utility.yul\":5042:5068   */\n      swap1\n      pop\n        /* \"#utility.yul\":5078:5149   */\n      tag_171\n        /* \"#utility.yul\":5146:5147   */\n      0x00\n        /* \"#utility.yul\":5135:5144   */\n      dup4\n        /* \"#utility.yul\":5131:5148   */\n      add\n        /* \"#utility.yul\":5122:5128   */\n      dup6\n        /* \"#utility.yul\":5078:5149   */\n      tag_92\n      jump\t// in\n    tag_171:\n        /* \"#utility.yul\":5159:5231   */\n      tag_172\n        /* \"#utility.yul\":5227:5229   */\n      0x20\n        /* \"#utility.yul\":5216:5225   */\n      dup4\n        /* \"#utility.yul\":5212:5230   */\n      add\n        /* \"#utility.yul\":5203:5209   */\n      dup5\n        /* \"#utility.yul\":5159:5231   */\n      tag_101\n      jump\t// in\n    tag_172:\n        /* \"#utility.yul\":4906:5238   */\n      swap4\n      swap3\n      pop\n      pop\n      pop\n      jump\t// out\n        /* \"#utility.yul\":5244:5415   */\n    tag_108:\n        /* \"#utility.yul\":5384:5407   */\n      0x4e6f2066756e647320746f2077697468647261772e0000000000000000000000\n        /* \"#utility.yul\":5380:5381   */\n      0x00\n        /* \"#utility.yul\":5372:5378   */\n      dup3\n        /* \"#utility.yul\":5368:5382   */\n      add\n        /* \"#utility.yul\":5361:5408   */\n      mstore\n        /* \"#utility.yul\":5244:5415   */\n      pop\n      jump\t// out\n        /* \"#utility.yul\":5421:5787   */\n    tag_109:\n        /* \"#utility.yul\":5563:5566   */\n      0x00\n        /* \"#utility.yul\":5584:5651   */\n      tag_175\n        /* \"#utility.yul\":5648:5650   */\n      0x15\n        /* \"#utility.yul\":5643:5646   */\n      dup4\n        /* \"#utility.yul\":5584:5651   */\n      tag_102\n      jump\t// in\n    tag_175:\n        /* \"#utility.yul\":5577:5651   */\n      swap2\n      pop\n        /* \"#utility.yul\":5660:5753   */\n      tag_176\n        /* \"#utility.yul\":5749:5752   */\n      dup3\n        /* \"#utility.yul\":5660:5753   */\n      tag_108\n      jump\t// in\n    tag_176:\n        /* \"#utility.yul\":5778:5780   */\n      0x20\n        /* \"#utility.yul\":5773:5776   */\n      dup3\n        /* \"#utility.yul\":5769:5781   */\n      add\n        /* \"#utility.yul\":5762:5781   */\n      swap1\n      pop\n        /* \"#utility.yul\":5421:5787   */\n      swap2\n      swap1\n      pop\n      jump\t// out\n        /* \"#utility.yul\":5793:6212   */\n    tag_65:\n        /* \"#utility.yul\":5959:5963   */\n      0x00\n        /* \"#utility.yul\":5997:5999   */\n      0x20\n        /* \"#utility.yul\":5986:5995   */\n      dup3\n        /* \"#utility.yul\":5982:6000   */\n      add\n        /* \"#utility.yul\":5974:6000   */\n      swap1\n      pop\n        /* \"#utility.yul\":6046:6055   */\n      dup2\n        /* \"#utility.yul\":6040:6044   */\n      dup2\n        /* \"#utility.yul\":6036:6056   */\n      sub\n        /* \"#utility.yul\":6032:6033   */\n      0x00\n        /* \"#utility.yul\":6021:6030   */\n      dup4\n        /* \"#utility.yul\":6017:6034   */\n      add\n        /* \"#utility.yul\":6010:6057   */\n      mstore\n        /* \"#utility.yul\":6074:6205   */\n      tag_178\n        /* \"#utility.yul\":6200:6204   */\n      dup2\n        /* \"#utility.yul\":6074:6205   */\n      tag_109\n      jump\t// in\n    tag_178:\n        /* \"#utility.yul\":6066:6205   */\n      swap1\n      pop\n        /* \"#utility.yul\":5793:6212   */\n      swap2\n      swap1\n      pop\n      jump\t// out\n        /* \"#utility.yul\":6218:6365   */\n    tag_110:\n        /* \"#utility.yul\":6319:6330   */\n      0x00\n        /* \"#utility.yul\":6356:6359   */\n      dup2\n        /* \"#utility.yul\":6341:6359   */\n      swap1\n      pop\n        /* \"#utility.yul\":6218:6365   */\n      swap3\n      swap2\n      pop\n      pop\n      jump\t// out\n        /* \"#utility.yul\":6371:6485   */\n    tag_111:\n      pop\n      jump\t// out\n        /* \"#utility.yul\":6491:6889   */\n    tag_112:\n        /* \"#utility.yul\":6650:6653   */\n      0x00\n        /* \"#utility.yul\":6671:6754   */\n      tag_182\n        /* \"#utility.yul\":6752:6753   */\n      0x00\n        /* \"#utility.yul\":6747:6750   */\n      dup4\n        /* \"#utility.yul\":6671:6754   */\n      tag_110\n      jump\t// in\n    tag_182:\n        /* \"#utility.yul\":6664:6754   */\n      swap2\n      pop\n        /* \"#utility.yul\":6763:6856   */\n      tag_183\n        /* \"#utility.yul\":6852:6855   */\n      dup3\n        /* \"#utility.yul\":6763:6856   */\n      tag_111\n      jump\t// in\n    tag_183:\n        /* \"#utility.yul\":6881:6882   */\n      0x00\n        /* \"#utility.yul\":6876:6879   */\n      dup3\n        /* \"#utility.yul\":6872:6883   */\n      add\n        /* \"#utility.yul\":6865:6883   */\n      swap1\n      pop\n        /* \"#utility.yul\":6491:6889   */\n      swap2\n      swap1\n      pop\n      jump\t// out\n        /* \"#utility.yul\":6895:7274   */\n    tag_67:\n        /* \"#utility.yul\":7079:7082   */\n      0x00\n        /* \"#utility.yul\":7101:7248   */\n      tag_185\n        /* \"#utility.yul\":7244:7247   */\n      dup3\n        /* \"#utility.yul\":7101:7248   */\n      tag_112\n      jump\t// in\n    tag_185:\n        /* \"#utility.yul\":7094:7248   */\n      swap2\n      pop\n        /* \"#utility.yul\":7265:7268   */\n      dup2\n        /* \"#utility.yul\":7258:7268   */\n      swap1\n      pop\n        /* \"#utility.yul\":6895:7274   */\n      swap2\n      swap1\n      pop\n      jump\t// out\n        /* \"#utility.yul\":7280:7452   */\n    tag_113:\n        /* \"#utility.yul\":7420:7444   */\n      0x41756374696f6e206e6f742079657420656e6465642e00000000000000000000\n        /* \"#utility.yul\":7416:7417   */\n      0x00\n        /* \"#utility.yul\":7408:7414   */\n      dup3\n        /* \"#utility.yul\":7404:7418   */\n      add\n        /* \"#utility.yul\":7397:7445   */\n      mstore\n        /* \"#utility.yul\":7280:7452   */\n      pop\n      jump\t// out\n        /* \"#utility.yul\":7458:7824   */\n    tag_114:\n        /* \"#utility.yul\":7600:7603   */\n      0x00\n        /* \"#utility.yul\":7621:7688   */\n      tag_188\n        /* \"#utility.yul\":7685:7687   */\n      0x16\n        /* \"#utility.yul\":7680:7683   */\n      dup4\n        /* \"#utility.yul\":7621:7688   */\n      tag_102\n      jump\t// in\n    tag_188:\n        /* \"#utility.yul\":7614:7688   */\n      swap2\n      pop\n        /* \"#utility.yul\":7697:7790   */\n      tag_189\n        /* \"#utility.yul\":7786:7789   */\n      dup3\n        /* \"#utility.yul\":7697:7790   */\n      tag_113\n      jump\t// in\n    tag_189:\n        /* \"#utility.yul\":7815:7817   */\n      0x20\n        /* \"#utility.yul\":7810:7813   */\n      dup3\n        /* \"#utility.yul\":7806:7818   */\n      add\n        /* \"#utility.yul\":7799:7818   */\n      swap1\n      pop\n        /* \"#utility.yul\":7458:7824   */\n      swap2\n      swap1\n      pop\n      jump\t// out\n        /* \"#utility.yul\":7830:8249   */\n    tag_75:\n        /* \"#utility.yul\":7996:8000   */\n      0x00\n        /* \"#utility.yul\":8034:8036   */\n      0x20\n        /* \"#utility.yul\":8023:8032   */\n      dup3\n        /* \"#utility.yul\":8019:8037   */\n      add\n        /* \"#utility.yul\":8011:8037   */\n      swap1\n      pop\n        /* \"#utility.yul\":8083:8092   */\n      dup2\n        /* \"#utility.yul\":8077:8081   */\n      dup2\n        /* \"#utility.yul\":8073:8093   */\n      sub\n        /* \"#utility.yul\":8069:8070   */\n      0x00\n        /* \"#utility.yul\":8058:8067   */\n      dup4\n        /* \"#utility.yul\":8054:8071   */\n      add\n        /* \"#utility.yul\":8047:8094   */\n      mstore\n        /* \"#utility.yul\":8111:8242   */\n      tag_191\n        /* \"#utility.yul\":8237:8241   */\n      dup2\n        /* \"#utility.yul\":8111:8242   */\n      tag_114\n      jump\t// in\n    tag_191:\n        /* \"#utility.yul\":8103:8242   */\n      swap1\n      pop\n        /* \"#utility.yul\":7830:8249   */\n      swap2\n      swap1\n      pop\n      jump\t// out\n        /* \"#utility.yul\":8255:8477   */\n    tag_115:\n        /* \"#utility.yul\":8395:8429   */\n      0x656e6441756374696f6e2068617320616c7265616479206265656e2063616c6c\n        /* \"#utility.yul\":8391:8392   */\n      0x00\n        /* \"#utility.yul\":8383:8389   */\n      dup3\n        /* \"#utility.yul\":8379:8393   */\n      add\n        /* \"#utility.yul\":8372:8430   */\n      mstore\n        /* \"#utility.yul\":8464:8469   */\n      0x65642e0000000000000000000000000000000000000000000000000000000000\n        /* \"#utility.yul\":8459:8461   */\n      0x20\n        /* \"#utility.yul\":8451:8457   */\n      dup3\n        /* \"#utility.yul\":8447:8462   */\n      add\n        /* \"#utility.yul\":8440:8470   */\n      mstore\n        /* \"#utility.yul\":8255:8477   */\n      pop\n      jump\t// out\n        /* \"#utility.yul\":8483:8849   */\n    tag_116:\n        /* \"#utility.yul\":8625:8628   */\n      0x00\n        /* \"#utility.yul\":8646:8713   */\n      tag_194\n        /* \"#utility.yul\":8710:8712   */\n      0x23\n        /* \"#utility.yul\":8705:8708   */\n      dup4\n        /* \"#utility.yul\":8646:8713   */\n      tag_102\n      jump\t// in\n    tag_194:\n        /* \"#utility.yul\":8639:8713   */\n      swap2\n      pop\n        /* \"#utility.yul\":8722:8815   */\n      tag_195\n        /* \"#utility.yul\":8811:8814   */\n      dup3\n        /* \"#utility.yul\":8722:8815   */\n      tag_115\n      jump\t// in\n    tag_195:\n        /* \"#utility.yul\":8840:8842   */\n      0x40\n        /* \"#utility.yul\":8835:8838   */\n      dup3\n        /* \"#utility.yul\":8831:8843   */\n      add\n        /* \"#utility.yul\":8824:8843   */\n      swap1\n      pop\n        /* \"#utility.yul\":8483:8849   */\n      swap2\n      swap1\n      pop\n      jump\t// out\n        /* \"#utility.yul\":8855:9274   */\n    tag_78:\n        /* \"#utility.yul\":9021:9025   */\n      0x00\n        /* \"#utility.yul\":9059:9061   */\n      0x20\n        /* \"#utility.yul\":9048:9057   */\n      dup3\n        /* \"#utility.yul\":9044:9062   */\n      add\n        /* \"#utility.yul\":9036:9062   */\n      swap1\n      pop\n        /* \"#utility.yul\":9108:9117   */\n      dup2\n        /* \"#utility.yul\":9102:9106   */\n      dup2\n        /* \"#utility.yul\":9098:9118   */\n      sub\n        /* \"#utility.yul\":9094:9095   */\n      0x00\n        /* \"#utility.yul\":9083:9092   */\n      dup4\n        /* \"#utility.yul\":9079:9096   */\n      add\n        /* \"#utility.yul\":9072:9119   */\n      mstore\n        /* \"#utility.yul\":9136:9267   */\n      tag_197\n        /* \"#utility.yul\":9262:9266   */\n      dup2\n        /* \"#utility.yul\":9136:9267   */\n      tag_116\n      jump\t// in\n    tag_197:\n        /* \"#utility.yul\":9128:9267   */\n      swap1\n      pop\n        /* \"#utility.yul\":8855:9274   */\n      swap2\n      swap1\n      pop\n      jump\t// out\n        /* \"#utility.yul\":9280:9458   */\n    tag_117:\n        /* \"#utility.yul\":9420:9450   */\n      0x4f6e6c792073656c6c65722063616e20656e642061756374696f6e2e00000000\n        /* \"#utility.yul\":9416:9417   */\n      0x00\n        /* \"#utility.yul\":9408:9414   */\n      dup3\n        /* \"#utility.yul\":9404:9418   */\n      add\n        /* \"#utility.yul\":9397:9451   */\n      mstore\n        /* \"#utility.yul\":9280:9458   */\n      pop\n      jump\t// out\n        /* \"#utility.yul\":9464:9830   */\n    tag_118:\n        /* \"#utility.yul\":9606:9609   */\n      0x00\n        /* \"#utility.yul\":9627:9694   */\n      tag_200\n        /* \"#utility.yul\":9691:9693   */\n      0x1c\n        /* \"#utility.yul\":9686:9689   */\n      dup4\n        /* \"#utility.yul\":9627:9694   */\n      tag_102\n      jump\t// in\n    tag_200:\n        /* \"#utility.yul\":9620:9694   */\n      swap2\n      pop\n        /* \"#utility.yul\":9703:9796   */\n      tag_201\n        /* \"#utility.yul\":9792:9795   */\n      dup3\n        /* \"#utility.yul\":9703:9796   */\n      tag_117\n      jump\t// in\n    tag_201:\n        /* \"#utility.yul\":9821:9823   */\n      0x20\n        /* \"#utility.yul\":9816:9819   */\n      dup3\n        /* \"#utility.yul\":9812:9824   */\n      add\n        /* \"#utility.yul\":9805:9824   */\n      swap1\n      pop\n        /* \"#utility.yul\":9464:9830   */\n      swap2\n      swap1\n      pop\n      jump\t// out\n        /* \"#utility.yul\":9836:10255   */\n    tag_81:\n        /* \"#utility.yul\":10002:10006   */\n      0x00\n        /* \"#utility.yul\":10040:10042   */\n      0x20\n        /* \"#utility.yul\":10029:10038   */\n      dup3\n        /* \"#utility.yul\":10025:10043   */\n      add\n        /* \"#utility.yul\":10017:10043   */\n      swap1\n      pop\n        /* \"#utility.yul\":10089:10098   */\n      dup2\n        /* \"#utility.yul\":10083:10087   */\n      dup2\n        /* \"#utility.yul\":10079:10099   */\n      sub\n        /* \"#utility.yul\":10075:10076   */\n      0x00\n        /* \"#utility.yul\":10064:10073   */\n      dup4\n        /* \"#utility.yul\":10060:10077   */\n      add\n        /* \"#utility.yul\":10053:10100   */\n      mstore\n        /* \"#utility.yul\":10117:10248   */\n      tag_203\n        /* \"#utility.yul\":10243:10247   */\n      dup2\n        /* \"#utility.yul\":10117:10248   */\n      tag_118\n      jump\t// in\n    tag_203:\n        /* \"#utility.yul\":10109:10248   */\n      swap1\n      pop\n        /* \"#utility.yul\":9836:10255   */\n      swap2\n      swap1\n      pop\n      jump\t// out\n        /* \"#utility.yul\":10261:10437   */\n    tag_119:\n        /* \"#utility.yul\":10401:10429   */\n      0x5472616e7366657220746f2073656c6c6572206661696c65642e000000000000\n        /* \"#utility.yul\":10397:10398   */\n      0x00\n        /* \"#utility.yul\":10389:10395   */\n      dup3\n        /* \"#utility.yul\":10385:10399   */\n      add\n        /* \"#utility.yul\":10378:10430   */\n      mstore\n        /* \"#utility.yul\":10261:10437   */\n      pop\n      jump\t// out\n        /* \"#utility.yul\":10443:10809   */\n    tag_120:\n        /* \"#utility.yul\":10585:10588   */\n      0x00\n        /* \"#utility.yul\":10606:10673   */\n      tag_206\n        /* \"#utility.yul\":10670:10672   */\n      0x1a\n        /* \"#utility.yul\":10665:10668   */\n      dup4\n        /* \"#utility.yul\":10606:10673   */\n      tag_102\n      jump\t// in\n    tag_206:\n        /* \"#utility.yul\":10599:10673   */\n      swap2\n      pop\n        /* \"#utility.yul\":10682:10775   */\n      tag_207\n        /* \"#utility.yul\":10771:10774   */\n      dup3\n        /* \"#utility.yul\":10682:10775   */\n      tag_119\n      jump\t// in\n    tag_207:\n        /* \"#utility.yul\":10800:10802   */\n      0x20\n        /* \"#utility.yul\":10795:10798   */\n      dup3\n        /* \"#utility.yul\":10791:10803   */\n      add\n        /* \"#utility.yul\":10784:10803   */\n      swap1\n      pop\n        /* \"#utility.yul\":10443:10809   */\n      swap2\n      swap1\n      pop\n      jump\t// out\n        /* \"#utility.yul\":10815:11234   */\n    tag_89:\n        /* \"#utility.yul\":10981:10985   */\n      0x00\n        /* \"#utility.yul\":11019:11021   */\n      0x20\n        /* \"#utility.yul\":11008:11017   */\n      dup3\n        /* \"#utility.yul\":11004:11022   */\n      add\n        /* \"#utility.yul\":10996:11022   */\n      swap1\n      pop\n        /* \"#utility.yul\":11068:11077   */\n      dup2\n        /* \"#utility.yul\":11062:11066   */\n      dup2\n        /* \"#utility.yul\":11058:11078   */\n      sub\n        /* \"#utility.yul\":11054:11055   */\n      0x00\n        /* \"#utility.yul\":11043:11052   */\n      dup4\n        /* \"#utility.yul\":11039:11056   */\n      add\n        /* \"#utility.yul\":11032:11079   */\n      mstore\n        /* \"#utility.yul\":11096:11227   */\n      tag_209\n        /* \"#utility.yul\":11222:11226   */\n      dup2\n        /* \"#utility.yul\":11096:11227   */\n      tag_120\n      jump\t// in\n    tag_209:\n        /* \"#utility.yul\":11088:11227   */\n      swap1\n      pop\n        /* \"#utility.yul\":10815:11234   */\n      swap2\n      swap1\n      pop\n      jump\t// out\n\n    auxdata: 0xa26469706673582212209857e7c8cda12e45fc011ea74a92a4e3cd4f54d570d01093d7bb8d83e909341e64736f6c634300081a0033\n}\n",
				"bytecode": {
					"linkReferences": {},
					"object": "608060405234801561000f575f80fd5b50604051610e4b380380610e4b833981810160405281019061003191906100bf565b335f806101000a81548173ffffffffffffffffffffffffffffffffffffffff021916908373ffffffffffffffffffffffffffffffffffffffff160217905550804261007c9190610117565b6001819055505061014a565b5f80fd5b5f819050919050565b61009e8161008c565b81146100a8575f80fd5b50565b5f815190506100b981610095565b92915050565b5f602082840312156100d4576100d3610088565b5b5f6100e1848285016100ab565b91505092915050565b7f4e487b71000000000000000000000000000000000000000000000000000000005f52601160045260245ffd5b5f6101218261008c565b915061012c8361008c565b9250828201905080821115610144576101436100ea565b5b92915050565b610cf4806101575f395ff3fe608060405260043610610085575f3560e01c80633197cbb6116100585780633197cbb6146101235780633ccfd60b1461014d57806391f9015714610177578063d57bde79146101a1578063fe67a54b146101cb57610085565b806308551a531461008957806312fa6feb146100b35780631998aeef146100dd57806326b387bb146100e7575b5f80fd5b348015610094575f80fd5b5061009d6101e1565b6040516100aa9190610812565b60405180910390f35b3480156100be575f80fd5b506100c7610204565b6040516100d49190610845565b60405180910390f35b6100e5610216565b005b3480156100f2575f80fd5b5061010d6004803603810190610108919061088c565b6103a0565b60405161011a91906108cf565b60405180910390f35b34801561012e575f80fd5b506101376103b5565b60405161014491906108cf565b60405180910390f35b348015610158575f80fd5b506101616103bb565b60405161016e9190610845565b60405180910390f35b348015610182575f80fd5b5061018b610544565b6040516101989190610812565b60405180910390f35b3480156101ac575f80fd5b506101b5610569565b6040516101c291906108cf565b60405180910390f35b3480156101d6575f80fd5b506101df61056f565b005b5f8054906101000a900473ffffffffffffffffffffffffffffffffffffffff1681565b60045f9054906101000a900460ff1681565b600154421061025a576040517f08c379a000000000000000000000000000000000000000000000000000000000815260040161025190610942565b60405180910390fd5b600354341161029e576040517f08c379a0000000000000000000000000000000000000000000000000000000008152600401610295906109aa565b60405180910390fd5b5f6003541461031e5760035460055f60025f9054906101000a900473ffffffffffffffffffffffffffffffffffffffff1673ffffffffffffffffffffffffffffffffffffffff1673ffffffffffffffffffffffffffffffffffffffff1681526020019081526020015f205f82825461031691906109f5565b925050819055505b3360025f6101000a81548173ffffffffffffffffffffffffffffffffffffffff021916908373ffffffffffffffffffffffffffffffffffffffff160217905550346003819055507ff4757a49b326036464bec6fe419a4ae38c8a02ce3e68bf0809674f6aab8ad3003334604051610396929190610a28565b60405180910390a1565b6005602052805f5260405f205f915090505481565b60015481565b5f8060055f3373ffffffffffffffffffffffffffffffffffffffff1673ffffffffffffffffffffffffffffffffffffffff1681526020019081526020015f205490505f811161043f576040517f08c379a000000000000000000000000000000000000000000000000000000000815260040161043690610a99565b60405180910390fd5b5f60055f3373ffffffffffffffffffffffffffffffffffffffff1673ffffffffffffffffffffffffffffffffffffffff1681526020019081526020015f20819055505f3373ffffffffffffffffffffffffffffffffffffffff16826040516104a690610ae4565b5f6040518083038185875af1925050503d805f81146104e0576040519150601f19603f3d011682016040523d82523d5f602084013e6104e5565b606091505b505090508061053a578160055f3373ffffffffffffffffffffffffffffffffffffffff1673ffffffffffffffffffffffffffffffffffffffff1681526020019081526020015f20819055505f92505050610541565b6001925050505b90565b60025f9054906101000a900473ffffffffffffffffffffffffffffffffffffffff1681565b60035481565b6001544210156105b4576040517f08c379a00000000000000000000000000000000000000000000000000000000081526004016105ab90610b42565b60405180910390fd5b60045f9054906101000a900460ff1615610603576040517f08c379a00000000000000000000000000000000000000000000000000000000081526004016105fa90610bd0565b60405180910390fd5b5f8054906101000a900473ffffffffffffffffffffffffffffffffffffffff1673ffffffffffffffffffffffffffffffffffffffff163373ffffffffffffffffffffffffffffffffffffffff1614610690576040517f08c379a000000000000000000000000000000000000000000000000000000000815260040161068790610c38565b60405180910390fd5b600160045f6101000a81548160ff0219169083151502179055507f917fd6d893e435f61cf143a3149d8db6cd1e06c6367f7448bda8e98d75e202f660025f9054906101000a900473ffffffffffffffffffffffffffffffffffffffff166003546040516106fe929190610a28565b60405180910390a15f805f9054906101000a900473ffffffffffffffffffffffffffffffffffffffff1673ffffffffffffffffffffffffffffffffffffffff1660035460405161074d90610ae4565b5f6040518083038185875af1925050503d805f8114610787576040519150601f19603f3d011682016040523d82523d5f602084013e61078c565b606091505b50509050806107d0576040517f08c379a00000000000000000000000000000000000000000000000000000000081526004016107c790610ca0565b60405180910390fd5b50565b5f73ffffffffffffffffffffffffffffffffffffffff82169050919050565b5f6107fc826107d3565b9050919050565b61080c816107f2565b82525050565b5f6020820190506108255f830184610803565b92915050565b5f8115159050919050565b61083f8161082b565b82525050565b5f6020820190506108585f830184610836565b92915050565b5f80fd5b61086b816107f2565b8114610875575f80fd5b50565b5f8135905061088681610862565b92915050565b5f602082840312156108a1576108a061085e565b5b5f6108ae84828501610878565b91505092915050565b5f819050919050565b6108c9816108b7565b82525050565b5f6020820190506108e25f8301846108c0565b92915050565b5f82825260208201905092915050565b7f41756374696f6e20616c726561647920656e6465642e000000000000000000005f82015250565b5f61092c6016836108e8565b9150610937826108f8565b602082019050919050565b5f6020820190508181035f83015261095981610920565b9050919050565b7f546865726520616c7265616479206973206120686967686572206269642e00005f82015250565b5f610994601e836108e8565b915061099f82610960565b602082019050919050565b5f6020820190508181035f8301526109c181610988565b9050919050565b7f4e487b71000000000000000000000000000000000000000000000000000000005f52601160045260245ffd5b5f6109ff826108b7565b9150610a0a836108b7565b9250828201905080821115610a2257610a216109c8565b5b92915050565b5f604082019050610a3b5f830185610803565b610a4860208301846108c0565b9392505050565b7f4e6f2066756e647320746f2077697468647261772e00000000000000000000005f82015250565b5f610a836015836108e8565b9150610a8e82610a4f565b602082019050919050565b5f6020820190508181035f830152610ab081610a77565b9050919050565b5f81905092915050565b50565b5f610acf5f83610ab7565b9150610ada82610ac1565b5f82019050919050565b5f610aee82610ac4565b9150819050919050565b7f41756374696f6e206e6f742079657420656e6465642e000000000000000000005f82015250565b5f610b2c6016836108e8565b9150610b3782610af8565b602082019050919050565b5f6020820190508181035f830152610b5981610b20565b9050919050565b7f656e6441756374696f6e2068617320616c7265616479206265656e2063616c6c5f8201527f65642e0000000000000000000000000000000000000000000000000000000000602082015250565b5f610bba6023836108e8565b9150610bc582610b60565b604082019050919050565b5f6020820190508181035f830152610be781610bae565b9050919050565b7f4f6e6c792073656c6c65722063616e20656e642061756374696f6e2e000000005f82015250565b5f610c22601c836108e8565b9150610c2d82610bee565b602082019050919050565b5f6020820190508181035f830152610c4f81610c16565b9050919050565b7f5472616e7366657220746f2073656c6c6572206661696c65642e0000000000005f82015250565b5f610c8a601a836108e8565b9150610c9582610c56565b602082019050919050565b5f6020820190508181035f830152610cb781610c7e565b905091905056fea26469706673582212209857e7c8cda12e45fc011ea74a92a4e3cd4f54d570d01093d7bb8d83e909341e64736f6c634300081a0033",
					"opcodes": "PUSH1 0x80 PUSH1 0x40 MSTORE CALLVALUE DUP1 ISZERO PUSH2 0xF JUMPI PUSH0 DUP1 REVERT JUMPDEST POP PUSH1 0x40 MLOAD PUSH2 0xE4B CODESIZE SUB DUP1 PUSH2 0xE4B DUP4 CODECOPY DUP2 DUP2 ADD PUSH1 0x40 MSTORE DUP2 ADD SWAP1 PUSH2 0x31 SWAP2 SWAP1 PUSH2 0xBF JUMP JUMPDEST CALLER PUSH0 DUP1 PUSH2 0x100 EXP DUP2 SLOAD DUP2 PUSH20 0xFFFFFFFFFFFFFFFFFFFFFFFFFFFFFFFFFFFFFFFF MUL NOT AND SWAP1 DUP4 PUSH20 0xFFFFFFFFFFFFFFFFFFFFFFFFFFFFFFFFFFFFFFFF AND MUL OR SWAP1 SSTORE POP DUP1 TIMESTAMP PUSH2 0x7C SWAP2 SWAP1 PUSH2 0x117 JUMP JUMPDEST PUSH1 0x1 DUP2 SWAP1 SSTORE POP POP PUSH2 0x14A JUMP JUMPDEST PUSH0 DUP1 REVERT JUMPDEST PUSH0 DUP2 SWAP1 POP SWAP2 SWAP1 POP JUMP JUMPDEST PUSH2 0x9E DUP2 PUSH2 0x8C JUMP JUMPDEST DUP2 EQ PUSH2 0xA8 JUMPI PUSH0 DUP1 REVERT JUMPDEST POP JUMP JUMPDEST PUSH0 DUP2 MLOAD SWAP1 POP PUSH2 0xB9 DUP2 PUSH2 0x95 JUMP JUMPDEST SWAP3 SWAP2 POP POP JUMP JUMPDEST PUSH0 PUSH1 0x20 DUP3 DUP5 SUB SLT ISZERO PUSH2 0xD4 JUMPI PUSH2 0xD3 PUSH2 0x88 JUMP JUMPDEST JUMPDEST PUSH0 PUSH2 0xE1 DUP5 DUP3 DUP6 ADD PUSH2 0xAB JUMP JUMPDEST SWAP2 POP POP SWAP3 SWAP2 POP POP JUMP JUMPDEST PUSH32 0x4E487B7100000000000000000000000000000000000000000000000000000000 PUSH0 MSTORE PUSH1 0x11 PUSH1 0x4 MSTORE PUSH1 0x24 PUSH0 REVERT JUMPDEST PUSH0 PUSH2 0x121 DUP3 PUSH2 0x8C JUMP JUMPDEST SWAP2 POP PUSH2 0x12C DUP4 PUSH2 0x8C JUMP JUMPDEST SWAP3 POP DUP3 DUP3 ADD SWAP1 POP DUP1 DUP3 GT ISZERO PUSH2 0x144 JUMPI PUSH2 0x143 PUSH2 0xEA JUMP JUMPDEST JUMPDEST SWAP3 SWAP2 POP POP JUMP JUMPDEST PUSH2 0xCF4 DUP1 PUSH2 0x157 PUSH0 CODECOPY PUSH0 RETURN INVALID PUSH1 0x80 PUSH1 0x40 MSTORE PUSH1 0x4 CALLDATASIZE LT PUSH2 0x85 JUMPI PUSH0 CALLDATALOAD PUSH1 0xE0 SHR DUP1 PUSH4 0x3197CBB6 GT PUSH2 0x58 JUMPI DUP1 PUSH4 0x3197CBB6 EQ PUSH2 0x123 JUMPI DUP1 PUSH4 0x3CCFD60B EQ PUSH2 0x14D JUMPI DUP1 PUSH4 0x91F90157 EQ PUSH2 0x177 JUMPI DUP1 PUSH4 0xD57BDE79 EQ PUSH2 0x1A1 JUMPI DUP1 PUSH4 0xFE67A54B EQ PUSH2 0x1CB JUMPI PUSH2 0x85 JUMP JUMPDEST DUP1 PUSH4 0x8551A53 EQ PUSH2 0x89 JUMPI DUP1 PUSH4 0x12FA6FEB EQ PUSH2 0xB3 JUMPI DUP1 PUSH4 0x1998AEEF EQ PUSH2 0xDD JUMPI DUP1 PUSH4 0x26B387BB EQ PUSH2 0xE7 JUMPI JUMPDEST PUSH0 DUP1 REVERT JUMPDEST CALLVALUE DUP1 ISZERO PUSH2 0x94 JUMPI PUSH0 DUP1 REVERT JUMPDEST POP PUSH2 0x9D PUSH2 0x1E1 JUMP JUMPDEST PUSH1 0x40 MLOAD PUSH2 0xAA SWAP2 SWAP1 PUSH2 0x812 JUMP JUMPDEST PUSH1 0x40 MLOAD DUP1 SWAP2 SUB SWAP1 RETURN JUMPDEST CALLVALUE DUP1 ISZERO PUSH2 0xBE JUMPI PUSH0 DUP1 REVERT JUMPDEST POP PUSH2 0xC7 PUSH2 0x204 JUMP JUMPDEST PUSH1 0x40 MLOAD PUSH2 0xD4 SWAP2 SWAP1 PUSH2 0x845 JUMP JUMPDEST PUSH1 0x40 MLOAD DUP1 SWAP2 SUB SWAP1 RETURN JUMPDEST PUSH2 0xE5 PUSH2 0x216 JUMP JUMPDEST STOP JUMPDEST CALLVALUE DUP1 ISZERO PUSH2 0xF2 JUMPI PUSH0 DUP1 REVERT JUMPDEST POP PUSH2 0x10D PUSH1 0x4 DUP1 CALLDATASIZE SUB DUP2 ADD SWAP1 PUSH2 0x108 SWAP2 SWAP1 PUSH2 0x88C JUMP JUMPDEST PUSH2 0x3A0 JUMP JUMPDEST PUSH1 0x40 MLOAD PUSH2 0x11A SWAP2 SWAP1 PUSH2 0x8CF JUMP JUMPDEST PUSH1 0x40 MLOAD DUP1 SWAP2 SUB SWAP1 RETURN JUMPDEST CALLVALUE DUP1 ISZERO PUSH2 0x12E JUMPI PUSH0 DUP1 REVERT JUMPDEST POP PUSH2 0x137 PUSH2 0x3B5 JUMP JUMPDEST PUSH1 0x40 MLOAD PUSH2 0x144 SWAP2 SWAP1 PUSH2 0x8CF JUMP JUMPDEST PUSH1 0x40 MLOAD DUP1 SWAP2 SUB SWAP1 RETURN JUMPDEST CALLVALUE DUP1 ISZERO PUSH2 0x158 JUMPI PUSH0 DUP1 REVERT JUMPDEST POP PUSH2 0x161 PUSH2 0x3BB JUMP JUMPDEST PUSH1 0x40 MLOAD PUSH2 0x16E SWAP2 SWAP1 PUSH2 0x845 JUMP JUMPDEST PUSH1 0x40 MLOAD DUP1 SWAP2 SUB SWAP1 RETURN JUMPDEST CALLVALUE DUP1 ISZERO PUSH2 0x182 JUMPI PUSH0 DUP1 REVERT JUMPDEST POP PUSH2 0x18B PUSH2 0x544 JUMP JUMPDEST PUSH1 0x40 MLOAD PUSH2 0x198 SWAP2 SWAP1 PUSH2 0x812 JUMP JUMPDEST PUSH1 0x40 MLOAD DUP1 SWAP2 SUB SWAP1 RETURN JUMPDEST CALLVALUE DUP1 ISZERO PUSH2 0x1AC JUMPI PUSH0 DUP1 REVERT JUMPDEST POP PUSH2 0x1B5 PUSH2 0x569 JUMP JUMPDEST PUSH1 0x40 MLOAD PUSH2 0x1C2 SWAP2 SWAP1 PUSH2 0x8CF JUMP JUMPDEST PUSH1 0x40 MLOAD DUP1 SWAP2 SUB SWAP1 RETURN JUMPDEST CALLVALUE DUP1 ISZERO PUSH2 0x1D6 JUMPI PUSH0 DUP1 REVERT JUMPDEST POP PUSH2 0x1DF PUSH2 0x56F JUMP JUMPDEST STOP JUMPDEST PUSH0 DUP1 SLOAD SWAP1 PUSH2 0x100 EXP SWAP1 DIV PUSH20 0xFFFFFFFFFFFFFFFFFFFFFFFFFFFFFFFFFFFFFFFF AND DUP2 JUMP JUMPDEST PUSH1 0x4 PUSH0 SWAP1 SLOAD SWAP1 PUSH2 0x100 EXP SWAP1 DIV PUSH1 0xFF AND DUP2 JUMP JUMPDEST PUSH1 0x1 SLOAD TIMESTAMP LT PUSH2 0x25A JUMPI PUSH1 0x40 MLOAD PUSH32 0x8C379A000000000000000000000000000000000000000000000000000000000 DUP2 MSTORE PUSH1 0x4 ADD PUSH2 0x251 SWAP1 PUSH2 0x942 JUMP JUMPDEST PUSH1 0x40 MLOAD DUP1 SWAP2 SUB SWAP1 REVERT JUMPDEST PUSH1 0x3 SLOAD CALLVALUE GT PUSH2 0x29E JUMPI PUSH1 0x40 MLOAD PUSH32 0x8C379A000000000000000000000000000000000000000000000000000000000 DUP2 MSTORE PUSH1 0x4 ADD PUSH2 0x295 SWAP1 PUSH2 0x9AA JUMP JUMPDEST PUSH1 0x40 MLOAD DUP1 SWAP2 SUB SWAP1 REVERT JUMPDEST PUSH0 PUSH1 0x3 SLOAD EQ PUSH2 0x31E JUMPI PUSH1 0x3 SLOAD PUSH1 0x5 PUSH0 PUSH1 0x2 PUSH0 SWAP1 SLOAD SWAP1 PUSH2 0x100 EXP SWAP1 DIV PUSH20 0xFFFFFFFFFFFFFFFFFFFFFFFFFFFFFFFFFFFFFFFF AND PUSH20 0xFFFFFFFFFFFFFFFFFFFFFFFFFFFFFFFFFFFFFFFF AND PUSH20 0xFFFFFFFFFFFFFFFFFFFFFFFFFFFFFFFFFFFFFFFF AND DUP2 MSTORE PUSH1 0x20 ADD SWAP1 DUP2 MSTORE PUSH1 0x20 ADD PUSH0 KECCAK256 PUSH0 DUP3 DUP3 SLOAD PUSH2 0x316 SWAP2 SWAP1 PUSH2 0x9F5 JUMP JUMPDEST SWAP3 POP POP DUP2 SWAP1 SSTORE POP JUMPDEST CALLER PUSH1 0x2 PUSH0 PUSH2 0x100 EXP DUP2 SLOAD DUP2 PUSH20 0xFFFFFFFFFFFFFFFFFFFFFFFFFFFFFFFFFFFFFFFF MUL NOT AND SWAP1 DUP4 PUSH20 0xFFFFFFFFFFFFFFFFFFFFFFFFFFFFFFFFFFFFFFFF AND MUL OR SWAP1 SSTORE POP CALLVALUE PUSH1 0x3 DUP2 SWAP1 SSTORE POP PUSH32 0xF4757A49B326036464BEC6FE419A4AE38C8A02CE3E68BF0809674F6AAB8AD300 CALLER CALLVALUE PUSH1 0x40 MLOAD PUSH2 0x396 SWAP3 SWAP2 SWAP1 PUSH2 0xA28 JUMP JUMPDEST PUSH1 0x40 MLOAD DUP1 SWAP2 SUB SWAP1 LOG1 JUMP JUMPDEST PUSH1 0x5 PUSH1 0x20 MSTORE DUP1 PUSH0 MSTORE PUSH1 0x40 PUSH0 KECCAK256 PUSH0 SWAP2 POP SWAP1 POP SLOAD DUP2 JUMP JUMPDEST PUSH1 0x1 SLOAD DUP2 JUMP JUMPDEST PUSH0 DUP1 PUSH1 0x5 PUSH0 CALLER PUSH20 0xFFFFFFFFFFFFFFFFFFFFFFFFFFFFFFFFFFFFFFFF AND PUSH20 0xFFFFFFFFFFFFFFFFFFFFFFFFFFFFFFFFFFFFFFFF AND DUP2 MSTORE PUSH1 0x20 ADD SWAP1 DUP2 MSTORE PUSH1 0x20 ADD PUSH0 KECCAK256 SLOAD SWAP1 POP PUSH0 DUP2 GT PUSH2 0x43F JUMPI PUSH1 0x40 MLOAD PUSH32 0x8C379A000000000000000000000000000000000000000000000000000000000 DUP2 MSTORE PUSH1 0x4 ADD PUSH2 0x436 SWAP1 PUSH2 0xA99 JUMP JUMPDEST PUSH1 0x40 MLOAD DUP1 SWAP2 SUB SWAP1 REVERT JUMPDEST PUSH0 PUSH1 0x5 PUSH0 CALLER PUSH20 0xFFFFFFFFFFFFFFFFFFFFFFFFFFFFFFFFFFFFFFFF AND PUSH20 0xFFFFFFFFFFFFFFFFFFFFFFFFFFFFFFFFFFFFFFFF AND DUP2 MSTORE PUSH1 0x20 ADD SWAP1 DUP2 MSTORE PUSH1 0x20 ADD PUSH0 KECCAK256 DUP2 SWAP1 SSTORE POP PUSH0 CALLER PUSH20 0xFFFFFFFFFFFFFFFFFFFFFFFFFFFFFFFFFFFFFFFF AND DUP3 PUSH1 0x40 MLOAD PUSH2 0x4A6 SWAP1 PUSH2 0xAE4 JUMP JUMPDEST PUSH0 PUSH1 0x40 MLOAD DUP1 DUP4 SUB DUP2 DUP6 DUP8 GAS CALL SWAP3 POP POP POP RETURNDATASIZE DUP1 PUSH0 DUP2 EQ PUSH2 0x4E0 JUMPI PUSH1 0x40 MLOAD SWAP2 POP PUSH1 0x1F NOT PUSH1 0x3F RETURNDATASIZE ADD AND DUP3 ADD PUSH1 0x40 MSTORE RETURNDATASIZE DUP3 MSTORE RETURNDATASIZE PUSH0 PUSH1 0x20 DUP5 ADD RETURNDATACOPY PUSH2 0x4E5 JUMP JUMPDEST PUSH1 0x60 SWAP2 POP JUMPDEST POP POP SWAP1 POP DUP1 PUSH2 0x53A JUMPI DUP2 PUSH1 0x5 PUSH0 CALLER PUSH20 0xFFFFFFFFFFFFFFFFFFFFFFFFFFFFFFFFFFFFFFFF AND PUSH20 0xFFFFFFFFFFFFFFFFFFFFFFFFFFFFFFFFFFFFFFFF AND DUP2 MSTORE PUSH1 0x20 ADD SWAP1 DUP2 MSTORE PUSH1 0x20 ADD PUSH0 KECCAK256 DUP2 SWAP1 SSTORE POP PUSH0 SWAP3 POP POP POP PUSH2 0x541 JUMP JUMPDEST PUSH1 0x1 SWAP3 POP POP POP JUMPDEST SWAP1 JUMP JUMPDEST PUSH1 0x2 PUSH0 SWAP1 SLOAD SWAP1 PUSH2 0x100 EXP SWAP1 DIV PUSH20 0xFFFFFFFFFFFFFFFFFFFFFFFFFFFFFFFFFFFFFFFF AND DUP2 JUMP JUMPDEST PUSH1 0x3 SLOAD DUP2 JUMP JUMPDEST PUSH1 0x1 SLOAD TIMESTAMP LT ISZERO PUSH2 0x5B4 JUMPI PUSH1 0x40 MLOAD PUSH32 0x8C379A000000000000000000000000000000000000000000000000000000000 DUP2 MSTORE PUSH1 0x4 ADD PUSH2 0x5AB SWAP1 PUSH2 0xB42 JUMP JUMPDEST PUSH1 0x40 MLOAD DUP1 SWAP2 SUB SWAP1 REVERT JUMPDEST PUSH1 0x4 PUSH0 SWAP1 SLOAD SWAP1 PUSH2 0x100 EXP SWAP1 DIV PUSH1 0xFF AND ISZERO PUSH2 0x603 JUMPI PUSH1 0x40 MLOAD PUSH32 0x8C379A000000000000000000000000000000000000000000000000000000000 DUP2 MSTORE PUSH1 0x4 ADD PUSH2 0x5FA SWAP1 PUSH2 0xBD0 JUMP JUMPDEST PUSH1 0x40 MLOAD DUP1 SWAP2 SUB SWAP1 REVERT JUMPDEST PUSH0 DUP1 SLOAD SWAP1 PUSH2 0x100 EXP SWAP1 DIV PUSH20 0xFFFFFFFFFFFFFFFFFFFFFFFFFFFFFFFFFFFFFFFF AND PUSH20 0xFFFFFFFFFFFFFFFFFFFFFFFFFFFFFFFFFFFFFFFF AND CALLER PUSH20 0xFFFFFFFFFFFFFFFFFFFFFFFFFFFFFFFFFFFFFFFF AND EQ PUSH2 0x690 JUMPI PUSH1 0x40 MLOAD PUSH32 0x8C379A000000000000000000000000000000000000000000000000000000000 DUP2 MSTORE PUSH1 0x4 ADD PUSH2 0x687 SWAP1 PUSH2 0xC38 JUMP JUMPDEST PUSH1 0x40 MLOAD DUP1 SWAP2 SUB SWAP1 REVERT JUMPDEST PUSH1 0x1 PUSH1 0x4 PUSH0 PUSH2 0x100 EXP DUP2 SLOAD DUP2 PUSH1 0xFF MUL NOT AND SWAP1 DUP4 ISZERO ISZERO MUL OR SWAP1 SSTORE POP PUSH32 0x917FD6D893E435F61CF143A3149D8DB6CD1E06C6367F7448BDA8E98D75E202F6 PUSH1 0x2 PUSH0 SWAP1 SLOAD SWAP1 PUSH2 0x100 EXP SWAP1 DIV PUSH20 0xFFFFFFFFFFFFFFFFFFFFFFFFFFFFFFFFFFFFFFFF AND PUSH1 0x3 SLOAD PUSH1 0x40 MLOAD PUSH2 0x6FE SWAP3 SWAP2 SWAP1 PUSH2 0xA28 JUMP JUMPDEST PUSH1 0x40 MLOAD DUP1 SWAP2 SUB SWAP1 LOG1 PUSH0 DUP1 PUSH0 SWAP1 SLOAD SWAP1 PUSH2 0x100 EXP SWAP1 DIV PUSH20 0xFFFFFFFFFFFFFFFFFFFFFFFFFFFFFFFFFFFFFFFF AND PUSH20 0xFFFFFFFFFFFFFFFFFFFFFFFFFFFFFFFFFFFFFFFF AND PUSH1 0x3 SLOAD PUSH1 0x40 MLOAD PUSH2 0x74D SWAP1 PUSH2 0xAE4 JUMP JUMPDEST PUSH0 PUSH1 0x40 MLOAD DUP1 DUP4 SUB DUP2 DUP6 DUP8 GAS CALL SWAP3 POP POP POP RETURNDATASIZE DUP1 PUSH0 DUP2 EQ PUSH2 0x787 JUMPI PUSH1 0x40 MLOAD SWAP2 POP PUSH1 0x1F NOT PUSH1 0x3F RETURNDATASIZE ADD AND DUP3 ADD PUSH1 0x40 MSTORE RETURNDATASIZE DUP3 MSTORE RETURNDATASIZE PUSH0 PUSH1 0x20 DUP5 ADD RETURNDATACOPY PUSH2 0x78C JUMP JUMPDEST PUSH1 0x60 SWAP2 POP JUMPDEST POP POP SWAP1 POP DUP1 PUSH2 0x7D0 JUMPI PUSH1 0x40 MLOAD PUSH32 0x8C379A000000000000000000000000000000000000000000000000000000000 DUP2 MSTORE PUSH1 0x4 ADD PUSH2 0x7C7 SWAP1 PUSH2 0xCA0 JUMP JUMPDEST PUSH1 0x40 MLOAD DUP1 SWAP2 SUB SWAP1 REVERT JUMPDEST POP JUMP JUMPDEST PUSH0 PUSH20 0xFFFFFFFFFFFFFFFFFFFFFFFFFFFFFFFFFFFFFFFF DUP3 AND SWAP1 POP SWAP2 SWAP1 POP JUMP JUMPDEST PUSH0 PUSH2 0x7FC DUP3 PUSH2 0x7D3 JUMP JUMPDEST SWAP1 POP SWAP2 SWAP1 POP JUMP JUMPDEST PUSH2 0x80C DUP2 PUSH2 0x7F2 JUMP JUMPDEST DUP3 MSTORE POP POP JUMP JUMPDEST PUSH0 PUSH1 0x20 DUP3 ADD SWAP1 POP PUSH2 0x825 PUSH0 DUP4 ADD DUP5 PUSH2 0x803 JUMP JUMPDEST SWAP3 SWAP2 POP POP JUMP JUMPDEST PUSH0 DUP2 ISZERO ISZERO SWAP1 POP SWAP2 SWAP1 POP JUMP JUMPDEST PUSH2 0x83F DUP2 PUSH2 0x82B JUMP JUMPDEST DUP3 MSTORE POP POP JUMP JUMPDEST PUSH0 PUSH1 0x20 DUP3 ADD SWAP1 POP PUSH2 0x858 PUSH0 DUP4 ADD DUP5 PUSH2 0x836 JUMP JUMPDEST SWAP3 SWAP2 POP POP JUMP JUMPDEST PUSH0 DUP1 REVERT JUMPDEST PUSH2 0x86B DUP2 PUSH2 0x7F2 JUMP JUMPDEST DUP2 EQ PUSH2 0x875 JUMPI PUSH0 DUP1 REVERT JUMPDEST POP JUMP JUMPDEST PUSH0 DUP2 CALLDATALOAD SWAP1 POP PUSH2 0x886 DUP2 PUSH2 0x862 JUMP JUMPDEST SWAP3 SWAP2 POP POP JUMP JUMPDEST PUSH0 PUSH1 0x20 DUP3 DUP5 SUB SLT ISZERO PUSH2 0x8A1 JUMPI PUSH2 0x8A0 PUSH2 0x85E JUMP JUMPDEST JUMPDEST PUSH0 PUSH2 0x8AE DUP5 DUP3 DUP6 ADD PUSH2 0x878 JUMP JUMPDEST SWAP2 POP POP SWAP3 SWAP2 POP POP JUMP JUMPDEST PUSH0 DUP2 SWAP1 POP SWAP2 SWAP1 POP JUMP JUMPDEST PUSH2 0x8C9 DUP2 PUSH2 0x8B7 JUMP JUMPDEST DUP3 MSTORE POP POP JUMP JUMPDEST PUSH0 PUSH1 0x20 DUP3 ADD SWAP1 POP PUSH2 0x8E2 PUSH0 DUP4 ADD DUP5 PUSH2 0x8C0 JUMP JUMPDEST SWAP3 SWAP2 POP POP JUMP JUMPDEST PUSH0 DUP3 DUP3 MSTORE PUSH1 0x20 DUP3 ADD SWAP1 POP SWAP3 SWAP2 POP POP JUMP JUMPDEST PUSH32 0x41756374696F6E20616C726561647920656E6465642E00000000000000000000 PUSH0 DUP3 ADD MSTORE POP JUMP JUMPDEST PUSH0 PUSH2 0x92C PUSH1 0x16 DUP4 PUSH2 0x8E8 JUMP JUMPDEST SWAP2 POP PUSH2 0x937 DUP3 PUSH2 0x8F8 JUMP JUMPDEST PUSH1 0x20 DUP3 ADD SWAP1 POP SWAP2 SWAP1 POP JUMP JUMPDEST PUSH0 PUSH1 0x20 DUP3 ADD SWAP1 POP DUP2 DUP2 SUB PUSH0 DUP4 ADD MSTORE PUSH2 0x959 DUP2 PUSH2 0x920 JUMP JUMPDEST SWAP1 POP SWAP2 SWAP1 POP JUMP JUMPDEST PUSH32 0x546865726520616C7265616479206973206120686967686572206269642E0000 PUSH0 DUP3 ADD MSTORE POP JUMP JUMPDEST PUSH0 PUSH2 0x994 PUSH1 0x1E DUP4 PUSH2 0x8E8 JUMP JUMPDEST SWAP2 POP PUSH2 0x99F DUP3 PUSH2 0x960 JUMP JUMPDEST PUSH1 0x20 DUP3 ADD SWAP1 POP SWAP2 SWAP1 POP JUMP JUMPDEST PUSH0 PUSH1 0x20 DUP3 ADD SWAP1 POP DUP2 DUP2 SUB PUSH0 DUP4 ADD MSTORE PUSH2 0x9C1 DUP2 PUSH2 0x988 JUMP JUMPDEST SWAP1 POP SWAP2 SWAP1 POP JUMP JUMPDEST PUSH32 0x4E487B7100000000000000000000000000000000000000000000000000000000 PUSH0 MSTORE PUSH1 0x11 PUSH1 0x4 MSTORE PUSH1 0x24 PUSH0 REVERT JUMPDEST PUSH0 PUSH2 0x9FF DUP3 PUSH2 0x8B7 JUMP JUMPDEST SWAP2 POP PUSH2 0xA0A DUP4 PUSH2 0x8B7 JUMP JUMPDEST SWAP3 POP DUP3 DUP3 ADD SWAP1 POP DUP1 DUP3 GT ISZERO PUSH2 0xA22 JUMPI PUSH2 0xA21 PUSH2 0x9C8 JUMP JUMPDEST JUMPDEST SWAP3 SWAP2 POP POP JUMP JUMPDEST PUSH0 PUSH1 0x40 DUP3 ADD SWAP1 POP PUSH2 0xA3B PUSH0 DUP4 ADD DUP6 PUSH2 0x803 JUMP JUMPDEST PUSH2 0xA48 PUSH1 0x20 DUP4 ADD DUP5 PUSH2 0x8C0 JUMP JUMPDEST SWAP4 SWAP3 POP POP POP JUMP JUMPDEST PUSH32 0x4E6F2066756E647320746F2077697468647261772E0000000000000000000000 PUSH0 DUP3 ADD MSTORE POP JUMP JUMPDEST PUSH0 PUSH2 0xA83 PUSH1 0x15 DUP4 PUSH2 0x8E8 JUMP JUMPDEST SWAP2 POP PUSH2 0xA8E DUP3 PUSH2 0xA4F JUMP JUMPDEST PUSH1 0x20 DUP3 ADD SWAP1 POP SWAP2 SWAP1 POP JUMP JUMPDEST PUSH0 PUSH1 0x20 DUP3 ADD SWAP1 POP DUP2 DUP2 SUB PUSH0 DUP4 ADD MSTORE PUSH2 0xAB0 DUP2 PUSH2 0xA77 JUMP JUMPDEST SWAP1 POP SWAP2 SWAP1 POP JUMP JUMPDEST PUSH0 DUP2 SWAP1 POP SWAP3 SWAP2 POP POP JUMP JUMPDEST POP JUMP JUMPDEST PUSH0 PUSH2 0xACF PUSH0 DUP4 PUSH2 0xAB7 JUMP JUMPDEST SWAP2 POP PUSH2 0xADA DUP3 PUSH2 0xAC1 JUMP JUMPDEST PUSH0 DUP3 ADD SWAP1 POP SWAP2 SWAP1 POP JUMP JUMPDEST PUSH0 PUSH2 0xAEE DUP3 PUSH2 0xAC4 JUMP JUMPDEST SWAP2 POP DUP2 SWAP1 POP SWAP2 SWAP1 POP JUMP JUMPDEST PUSH32 0x41756374696F6E206E6F742079657420656E6465642E00000000000000000000 PUSH0 DUP3 ADD MSTORE POP JUMP JUMPDEST PUSH0 PUSH2 0xB2C PUSH1 0x16 DUP4 PUSH2 0x8E8 JUMP JUMPDEST SWAP2 POP PUSH2 0xB37 DUP3 PUSH2 0xAF8 JUMP JUMPDEST PUSH1 0x20 DUP3 ADD SWAP1 POP SWAP2 SWAP1 POP JUMP JUMPDEST PUSH0 PUSH1 0x20 DUP3 ADD SWAP1 POP DUP2 DUP2 SUB PUSH0 DUP4 ADD MSTORE PUSH2 0xB59 DUP2 PUSH2 0xB20 JUMP JUMPDEST SWAP1 POP SWAP2 SWAP1 POP JUMP JUMPDEST PUSH32 0x656E6441756374696F6E2068617320616C7265616479206265656E2063616C6C PUSH0 DUP3 ADD MSTORE PUSH32 0x65642E0000000000000000000000000000000000000000000000000000000000 PUSH1 0x20 DUP3 ADD MSTORE POP JUMP JUMPDEST PUSH0 PUSH2 0xBBA PUSH1 0x23 DUP4 PUSH2 0x8E8 JUMP JUMPDEST SWAP2 POP PUSH2 0xBC5 DUP3 PUSH2 0xB60 JUMP JUMPDEST PUSH1 0x40 DUP3 ADD SWAP1 POP SWAP2 SWAP1 POP JUMP JUMPDEST PUSH0 PUSH1 0x20 DUP3 ADD SWAP1 POP DUP2 DUP2 SUB PUSH0 DUP4 ADD MSTORE PUSH2 0xBE7 DUP2 PUSH2 0xBAE JUMP JUMPDEST SWAP1 POP SWAP2 SWAP1 POP JUMP JUMPDEST PUSH32 0x4F6E6C792073656C6C65722063616E20656E642061756374696F6E2E00000000 PUSH0 DUP3 ADD MSTORE POP JUMP JUMPDEST PUSH0 PUSH2 0xC22 PUSH1 0x1C DUP4 PUSH2 0x8E8 JUMP JUMPDEST SWAP2 POP PUSH2 0xC2D DUP3 PUSH2 0xBEE JUMP JUMPDEST PUSH1 0x20 DUP3 ADD SWAP1 POP SWAP2 SWAP1 POP JUMP JUMPDEST PUSH0 PUSH1 0x20 DUP3 ADD SWAP1 POP DUP2 DUP2 SUB PUSH0 DUP4 ADD MSTORE PUSH2 0xC4F DUP2 PUSH2 0xC16 JUMP JUMPDEST SWAP1 POP SWAP2 SWAP1 POP JUMP JUMPDEST PUSH32 0x5472616E7366657220746F2073656C6C6572206661696C65642E000000000000 PUSH0 DUP3 ADD MSTORE POP JUMP JUMPDEST PUSH0 PUSH2 0xC8A PUSH1 0x1A DUP4 PUSH2 0x8E8 JUMP JUMPDEST SWAP2 POP PUSH2 0xC95 DUP3 PUSH2 0xC56 JUMP JUMPDEST PUSH1 0x20 DUP3 ADD SWAP1 POP SWAP2 SWAP1 POP JUMP JUMPDEST PUSH0 PUSH1 0x20 DUP3 ADD SWAP1 POP DUP2 DUP2 SUB PUSH0 DUP4 ADD MSTORE PUSH2 0xCB7 DUP2 PUSH2 0xC7E JUMP JUMPDEST SWAP1 POP SWAP2 SWAP1 POP JUMP INVALID LOG2 PUSH5 0x6970667358 0x22 SLT KECCAK256 SWAP9 JUMPI 0xE7 0xC8 0xCD LOG1 0x2E GASLIMIT 0xFC ADD 0x1E 0xA7 BLOBBASEFEE SWAP3 LOG4 0xE3 0xCD 0x4F SLOAD 0xD5 PUSH17 0xD01093D7BB8D83E909341E64736F6C6343 STOP ADDMOD BYTE STOP CALLER "
				},
				"gasEstimates": {
					"creation": {
						"codeDepositCost": "663200",
						"executionCost": "infinite",
						"totalCost": "infinite"
					},
					"external": {
						"bid()": "infinite",
						"endAuction()": "infinite",
						"endTime()": "2425",
						"ended()": "2489",
						"highestBid()": "2491",
						"highestBidder()": "2552",
						"pendingReturns(address)": "2869",
						"seller()": "2506",
						"withdraw()": "infinite"
					}
				},
				"methodIdentifiers": {
					"bid()": "1998aeef",
					"endAuction()": "fe67a54b",
					"endTime()": "3197cbb6",
					"ended()": "12fa6feb",
					"highestBid()": "d57bde79",
					"highestBidder()": "91f90157",
					"pendingReturns(address)": "26b387bb",
					"seller()": "08551a53",
					"withdraw()": "3ccfd60b"
				}
			},
			"storageLayout": {
				"storage": [
					{
						"astId": 3,
						"contract": "Day-30/code1.sol:Auction",
						"label": "seller",
						"offset": 0,
						"slot": "0",
						"type": "t_address"
					},
					{
						"astId": 5,
						"contract": "Day-30/code1.sol:Auction",
						"label": "endTime",
						"offset": 0,
						"slot": "1",
						"type": "t_uint256"
					},
					{
						"astId": 7,
						"contract": "Day-30/code1.sol:Auction",
						"label": "highestBidder",
						"offset": 0,
						"slot": "2",
						"type": "t_address"
					},
					{
						"astId": 9,
						"contract": "Day-30/code1.sol:Auction",
						"label": "highestBid",
						"offset": 0,
						"slot": "3",
						"type": "t_uint256"
					},
					{
						"astId": 11,
						"contract": "Day-30/code1.sol:Auction",
						"label": "ended",
						"offset": 0,
						"slot": "4",
						"type": "t_bool"
					},
					{
						"astId": 15,
						"contract": "Day-30/code1.sol:Auction",
						"label": "pendingReturns",
						"offset": 0,
						"slot": "5",
						"type": "t_mapping(t_address,t_uint256)"
					}
				],
				"types": {
					"t_address": {
						"encoding": "inplace",
						"label": "address",
						"numberOfBytes": "20"
					},
					"t_bool": {
						"encoding": "inplace",
						"label": "bool",
						"numberOfBytes": "1"
					},
					"t_mapping(t_address,t_uint256)": {
						"encoding": "mapping",
						"key": "t_address",
						"label": "mapping(address => uint256)",
						"numberOfBytes": "32",
						"value": "t_uint256"
					},
					"t_uint256": {
						"encoding": "inplace",
						"label": "uint256",
						"numberOfBytes": "32"
					}
				}
			},
			"userdoc": {
				"kind": "user",
				"methods": {},
				"version": 1
			}
		}
	}
}