{
	"Day-29/code1.sol": {
		"Auction": {
			"abi": [
				{
					"inputs": [
						{
							"internalType": "uint256",
							"name": "_biddingTime",
							"type": "uint256"
						}
					],
					"stateMutability": "nonpayable",
					"type": "constructor"
				},
				{
					"anonymous": false,
					"inputs": [
						{
							"indexed": false,
							"internalType": "address",
							"name": "winner",
							"type": "address"
						},
						{
							"indexed": false,
							"internalType": "uint256",
							"name": "amount",
							"type": "uint256"
						}
					],
					"name": "AuctionEnded",
					"type": "event"
				},
				{
					"anonymous": false,
					"inputs": [
						{
							"indexed": false,
							"internalType": "address",
							"name": "bidder",
							"type": "address"
						},
						{
							"indexed": false,
							"internalType": "uint256",
							"name": "amount",
							"type": "uint256"
						}
					],
					"name": "HighestBidIncreased",
					"type": "event"
				},
				{
					"inputs": [],
					"name": "auctionEndTime",
					"outputs": [
						{
							"internalType": "uint256",
							"name": "",
							"type": "uint256"
						}
					],
					"stateMutability": "view",
					"type": "function"
				},
				{
					"inputs": [],
					"name": "bid",
					"outputs": [],
					"stateMutability": "payable",
					"type": "function"
				},
				{
					"inputs": [],
					"name": "endAuction",
					"outputs": [],
					"stateMutability": "nonpayable",
					"type": "function"
				},
				{
					"inputs": [],
					"name": "ended",
					"outputs": [
						{
							"internalType": "bool",
							"name": "",
							"type": "bool"
						}
					],
					"stateMutability": "view",
					"type": "function"
				},
				{
					"inputs": [],
					"name": "highestBid",
					"outputs": [
						{
							"internalType": "uint256",
							"name": "",
							"type": "uint256"
						}
					],
					"stateMutability": "view",
					"type": "function"
				},
				{
					"inputs": [],
					"name": "highestBidder",
					"outputs": [
						{
							"internalType": "address",
							"name": "",
							"type": "address"
						}
					],
					"stateMutability": "view",
					"type": "function"
				},
				{
					"inputs": [],
					"name": "owner",
					"outputs": [
						{
							"internalType": "address",
							"name": "",
							"type": "address"
						}
					],
					"stateMutability": "view",
					"type": "function"
				},
				{
					"inputs": [
						{
							"internalType": "address",
							"name": "",
							"type": "address"
						}
					],
					"name": "pendingReturns",
					"outputs": [
						{
							"internalType": "uint256",
							"name": "",
							"type": "uint256"
						}
					],
					"stateMutability": "view",
					"type": "function"
				},
				{
					"inputs": [],
					"name": "withdraw",
					"outputs": [
						{
							"internalType": "bool",
							"name": "",
							"type": "bool"
						}
					],
					"stateMutability": "nonpayable",
					"type": "function"
				}
			],
			"devdoc": {
				"author": "Copilot",
				"kind": "dev",
				"methods": {
					"constructor": {
						"params": {
							"_biddingTime": "Duration of the auction in seconds"
						}
					}
				},
				"title": "Simple Auction Contract",
				"version": 1
			},
			"evm": {
				"assembly": "    /* \"Day-29/code1.sol\":230:2374  contract Auction {... */\n  mstore(0x40, 0x80)\n    /* \"Day-29/code1.sol\":889:1015  constructor(uint _biddingTime) {... */\n  callvalue\n  dup1\n  iszero\n  tag_1\n  jumpi\n  0x00\n  dup1\n  revert\ntag_1:\n  pop\n  mload(0x40)\n  sub(codesize, bytecodeSize)\n  dup1\n  bytecodeSize\n  dup4\n  codecopy\n  dup2\n  dup2\n  add\n  0x40\n  mstore\n  dup2\n  add\n  swap1\n  tag_2\n  swap2\n  swap1\n  tag_3\n  jump\t// in\ntag_2:\n    /* \"Day-29/code1.sol\":939:949  msg.sender */\n  caller\n    /* \"Day-29/code1.sol\":931:936  owner */\n  0x00\n  dup1\n    /* \"Day-29/code1.sol\":931:949  owner = msg.sender */\n  0x0100\n  exp\n  dup2\n  sload\n  dup2\n  0xffffffffffffffffffffffffffffffffffffffff\n  mul\n  not\n  and\n  swap1\n  dup4\n  0xffffffffffffffffffffffffffffffffffffffff\n  and\n  mul\n  or\n  swap1\n  sstore\n  pop\n    /* \"Day-29/code1.sol\":995:1007  _biddingTime */\n  dup1\n    /* \"Day-29/code1.sol\":977:992  block.timestamp */\n  timestamp\n    /* \"Day-29/code1.sol\":977:1007  block.timestamp + _biddingTime */\n  tag_6\n  swap2\n  swap1\n  tag_7\n  jump\t// in\ntag_6:\n    /* \"Day-29/code1.sol\":960:974  auctionEndTime */\n  0x03\n    /* \"Day-29/code1.sol\":960:1007  auctionEndTime = block.timestamp + _biddingTime */\n  dup2\n  swap1\n  sstore\n  pop\n    /* \"Day-29/code1.sol\":889:1015  constructor(uint _biddingTime) {... */\n  pop\n    /* \"Day-29/code1.sol\":230:2374  contract Auction {... */\n  jump(tag_8)\n    /* \"#utility.yul\":88:205   */\ntag_10:\n    /* \"#utility.yul\":197:198   */\n  0x00\n    /* \"#utility.yul\":194:195   */\n  dup1\n    /* \"#utility.yul\":187:199   */\n  revert\n    /* \"#utility.yul\":334:411   */\ntag_12:\n    /* \"#utility.yul\":371:378   */\n  0x00\n    /* \"#utility.yul\":400:405   */\n  dup2\n    /* \"#utility.yul\":389:405   */\n  swap1\n  pop\n    /* \"#utility.yul\":334:411   */\n  swap2\n  swap1\n  pop\n  jump\t// out\n    /* \"#utility.yul\":417:539   */\ntag_13:\n    /* \"#utility.yul\":490:514   */\n  tag_22\n    /* \"#utility.yul\":508:513   */\n  dup2\n    /* \"#utility.yul\":490:514   */\n  tag_12\n  jump\t// in\ntag_22:\n    /* \"#utility.yul\":483:488   */\n  dup2\n    /* \"#utility.yul\":480:515   */\n  eq\n    /* \"#utility.yul\":470:533   */\n  tag_23\n  jumpi\n    /* \"#utility.yul\":529:530   */\n  0x00\n    /* \"#utility.yul\":526:527   */\n  dup1\n    /* \"#utility.yul\":519:531   */\n  revert\n    /* \"#utility.yul\":470:533   */\ntag_23:\n    /* \"#utility.yul\":417:539   */\n  pop\n  jump\t// out\n    /* \"#utility.yul\":545:688   */\ntag_14:\n    /* \"#utility.yul\":602:607   */\n  0x00\n    /* \"#utility.yul\":633:639   */\n  dup2\n    /* \"#utility.yul\":627:640   */\n  mload\n    /* \"#utility.yul\":618:640   */\n  swap1\n  pop\n    /* \"#utility.yul\":649:682   */\n  tag_25\n    /* \"#utility.yul\":676:681   */\n  dup2\n    /* \"#utility.yul\":649:682   */\n  tag_13\n  jump\t// in\ntag_25:\n    /* \"#utility.yul\":545:688   */\n  swap3\n  swap2\n  pop\n  pop\n  jump\t// out\n    /* \"#utility.yul\":694:1045   */\ntag_3:\n    /* \"#utility.yul\":764:770   */\n  0x00\n    /* \"#utility.yul\":813:815   */\n  0x20\n    /* \"#utility.yul\":801:810   */\n  dup3\n    /* \"#utility.yul\":792:799   */\n  dup5\n    /* \"#utility.yul\":788:811   */\n  sub\n    /* \"#utility.yul\":784:816   */\n  slt\n    /* \"#utility.yul\":781:900   */\n  iszero\n  tag_27\n  jumpi\n    /* \"#utility.yul\":819:898   */\n  tag_28\n  tag_10\n  jump\t// in\ntag_28:\n    /* \"#utility.yul\":781:900   */\ntag_27:\n    /* \"#utility.yul\":939:940   */\n  0x00\n    /* \"#utility.yul\":964:1028   */\n  tag_29\n    /* \"#utility.yul\":1020:1027   */\n  dup5\n    /* \"#utility.yul\":1011:1017   */\n  dup3\n    /* \"#utility.yul\":1000:1009   */\n  dup6\n    /* \"#utility.yul\":996:1018   */\n  add\n    /* \"#utility.yul\":964:1028   */\n  tag_14\n  jump\t// in\ntag_29:\n    /* \"#utility.yul\":954:1028   */\n  swap2\n  pop\n    /* \"#utility.yul\":910:1038   */\n  pop\n    /* \"#utility.yul\":694:1045   */\n  swap3\n  swap2\n  pop\n  pop\n  jump\t// out\n    /* \"#utility.yul\":1051:1231   */\ntag_15:\n    /* \"#utility.yul\":1099:1176   */\n  0x4e487b7100000000000000000000000000000000000000000000000000000000\n    /* \"#utility.yul\":1096:1097   */\n  0x00\n    /* \"#utility.yul\":1089:1177   */\n  mstore\n    /* \"#utility.yul\":1196:1200   */\n  0x11\n    /* \"#utility.yul\":1193:1194   */\n  0x04\n    /* \"#utility.yul\":1186:1201   */\n  mstore\n    /* \"#utility.yul\":1220:1224   */\n  0x24\n    /* \"#utility.yul\":1217:1218   */\n  0x00\n    /* \"#utility.yul\":1210:1225   */\n  revert\n    /* \"#utility.yul\":1237:1428   */\ntag_7:\n    /* \"#utility.yul\":1277:1280   */\n  0x00\n    /* \"#utility.yul\":1296:1316   */\n  tag_32\n    /* \"#utility.yul\":1314:1315   */\n  dup3\n    /* \"#utility.yul\":1296:1316   */\n  tag_12\n  jump\t// in\ntag_32:\n    /* \"#utility.yul\":1291:1316   */\n  swap2\n  pop\n    /* \"#utility.yul\":1330:1350   */\n  tag_33\n    /* \"#utility.yul\":1348:1349   */\n  dup4\n    /* \"#utility.yul\":1330:1350   */\n  tag_12\n  jump\t// in\ntag_33:\n    /* \"#utility.yul\":1325:1350   */\n  swap3\n  pop\n    /* \"#utility.yul\":1373:1374   */\n  dup3\n    /* \"#utility.yul\":1370:1371   */\n  dup3\n    /* \"#utility.yul\":1366:1375   */\n  add\n    /* \"#utility.yul\":1359:1375   */\n  swap1\n  pop\n    /* \"#utility.yul\":1394:1397   */\n  dup1\n    /* \"#utility.yul\":1391:1392   */\n  dup3\n    /* \"#utility.yul\":1388:1398   */\n  gt\n    /* \"#utility.yul\":1385:1421   */\n  iszero\n  tag_34\n  jumpi\n    /* \"#utility.yul\":1401:1419   */\n  tag_35\n  tag_15\n  jump\t// in\ntag_35:\n    /* \"#utility.yul\":1385:1421   */\ntag_34:\n    /* \"#utility.yul\":1237:1428   */\n  swap3\n  swap2\n  pop\n  pop\n  jump\t// out\n    /* \"Day-29/code1.sol\":230:2374  contract Auction {... */\ntag_8:\n  dataSize(sub_0)\n  dup1\n  dataOffset(sub_0)\n  0x00\n  codecopy\n  0x00\n  return\nstop\n\nsub_0: assembly {\n        /* \"Day-29/code1.sol\":230:2374  contract Auction {... */\n      mstore(0x40, 0x80)\n      jumpi(tag_1, lt(calldatasize, 0x04))\n      shr(0xe0, calldataload(0x00))\n      dup1\n      0x4b449cba\n      gt\n      tag_11\n      jumpi\n      dup1\n      0x4b449cba\n      eq\n      tag_6\n      jumpi\n      dup1\n      0x8da5cb5b\n      eq\n      tag_7\n      jumpi\n      dup1\n      0x91f90157\n      eq\n      tag_8\n      jumpi\n      dup1\n      0xd57bde79\n      eq\n      tag_9\n      jumpi\n      dup1\n      0xfe67a54b\n      eq\n      tag_10\n      jumpi\n      jump(tag_1)\n    tag_11:\n      dup1\n      0x12fa6feb\n      eq\n      tag_2\n      jumpi\n      dup1\n      0x1998aeef\n      eq\n      tag_3\n      jumpi\n      dup1\n      0x26b387bb\n      eq\n      tag_4\n      jumpi\n      dup1\n      0x3ccfd60b\n      eq\n      tag_5\n      jumpi\n    tag_1:\n      0x00\n      dup1\n      revert\n        /* \"Day-29/code1.sol\":378:395  bool public ended */\n    tag_2:\n      callvalue\n      dup1\n      iszero\n      tag_12\n      jumpi\n      0x00\n      dup1\n      revert\n    tag_12:\n      pop\n      tag_13\n      tag_14\n      jump\t// in\n    tag_13:\n      mload(0x40)\n      tag_15\n      swap2\n      swap1\n      tag_16\n      jump\t// in\n    tag_15:\n      mload(0x40)\n      dup1\n      swap2\n      sub\n      swap1\n      return\n        /* \"Day-29/code1.sol\":1067:1545  function bid() external payable {... */\n    tag_3:\n      tag_17\n      tag_18\n      jump\t// in\n    tag_17:\n      stop\n        /* \"Day-29/code1.sol\":404:450  mapping(address => uint) public pendingReturns */\n    tag_4:\n      callvalue\n      dup1\n      iszero\n      tag_19\n      jumpi\n      0x00\n      dup1\n      revert\n    tag_19:\n      pop\n      tag_20\n      0x04\n      dup1\n      calldatasize\n      sub\n      dup2\n      add\n      swap1\n      tag_21\n      swap2\n      swap1\n      tag_22\n      jump\t// in\n    tag_21:\n      tag_23\n      jump\t// in\n    tag_20:\n      mload(0x40)\n      tag_24\n      swap2\n      swap1\n      tag_25\n      jump\t// in\n    tag_24:\n      mload(0x40)\n      dup1\n      swap2\n      sub\n      swap1\n      return\n        /* \"Day-29/code1.sol\":1619:1981  function withdraw() external returns (bool) {... */\n    tag_5:\n      callvalue\n      dup1\n      iszero\n      tag_26\n      jumpi\n      0x00\n      dup1\n      revert\n    tag_26:\n      pop\n      tag_27\n      tag_28\n      jump\t// in\n    tag_27:\n      mload(0x40)\n      tag_29\n      swap2\n      swap1\n      tag_16\n      jump\t// in\n    tag_29:\n      mload(0x40)\n      dup1\n      swap2\n      sub\n      swap1\n      return\n        /* \"Day-29/code1.sol\":345:371  uint public auctionEndTime */\n    tag_6:\n      callvalue\n      dup1\n      iszero\n      tag_30\n      jumpi\n      0x00\n      dup1\n      revert\n    tag_30:\n      pop\n      tag_31\n      tag_32\n      jump\t// in\n    tag_31:\n      mload(0x40)\n      tag_33\n      swap2\n      swap1\n      tag_25\n      jump\t// in\n    tag_33:\n      mload(0x40)\n      dup1\n      swap2\n      sub\n      swap1\n      return\n        /* \"Day-29/code1.sol\":254:274  address public owner */\n    tag_7:\n      callvalue\n      dup1\n      iszero\n      tag_34\n      jumpi\n      0x00\n      dup1\n      revert\n    tag_34:\n      pop\n      tag_35\n      tag_36\n      jump\t// in\n    tag_35:\n      mload(0x40)\n      tag_37\n      swap2\n      swap1\n      tag_38\n      jump\t// in\n    tag_37:\n      mload(0x40)\n      dup1\n      swap2\n      sub\n      swap1\n      return\n        /* \"Day-29/code1.sol\":281:309  address public highestBidder */\n    tag_8:\n      callvalue\n      dup1\n      iszero\n      tag_39\n      jumpi\n      0x00\n      dup1\n      revert\n    tag_39:\n      pop\n      tag_40\n      tag_41\n      jump\t// in\n    tag_40:\n      mload(0x40)\n      tag_42\n      swap2\n      swap1\n      tag_38\n      jump\t// in\n    tag_42:\n      mload(0x40)\n      dup1\n      swap2\n      sub\n      swap1\n      return\n        /* \"Day-29/code1.sol\":316:338  uint public highestBid */\n    tag_9:\n      callvalue\n      dup1\n      iszero\n      tag_43\n      jumpi\n      0x00\n      dup1\n      revert\n    tag_43:\n      pop\n      tag_44\n      tag_45\n      jump\t// in\n    tag_44:\n      mload(0x40)\n      tag_46\n      swap2\n      swap1\n      tag_25\n      jump\t// in\n    tag_46:\n      mload(0x40)\n      dup1\n      swap2\n      sub\n      swap1\n      return\n        /* \"Day-29/code1.sol\":2050:2371  function endAuction() external onlyOwner {... */\n    tag_10:\n      callvalue\n      dup1\n      iszero\n      tag_47\n      jumpi\n      0x00\n      dup1\n      revert\n    tag_47:\n      pop\n      tag_48\n      tag_49\n      jump\t// in\n    tag_48:\n      stop\n        /* \"Day-29/code1.sol\":378:395  bool public ended */\n    tag_14:\n      0x04\n      0x00\n      swap1\n      sload\n      swap1\n      0x0100\n      exp\n      swap1\n      div\n      0xff\n      and\n      dup2\n      jump\t// out\n        /* \"Day-29/code1.sol\":1067:1545  function bid() external payable {... */\n    tag_18:\n        /* \"Day-29/code1.sol\":1136:1150  auctionEndTime */\n      sload(0x03)\n        /* \"Day-29/code1.sol\":1118:1133  block.timestamp */\n      timestamp\n        /* \"Day-29/code1.sol\":1118:1150  block.timestamp < auctionEndTime */\n      lt\n        /* \"Day-29/code1.sol\":1110:1177  require(block.timestamp < auctionEndTime, \"Auction already ended.\") */\n      tag_51\n      jumpi\n      mload(0x40)\n      0x08c379a000000000000000000000000000000000000000000000000000000000\n      dup2\n      mstore\n      0x04\n      add\n      tag_52\n      swap1\n      tag_53\n      jump\t// in\n    tag_52:\n      mload(0x40)\n      dup1\n      swap2\n      sub\n      swap1\n      revert\n    tag_51:\n        /* \"Day-29/code1.sol\":1208:1218  highestBid */\n      sload(0x02)\n        /* \"Day-29/code1.sol\":1196:1205  msg.value */\n      callvalue\n        /* \"Day-29/code1.sol\":1196:1218  msg.value > highestBid */\n      gt\n        /* \"Day-29/code1.sol\":1188:1253  require(msg.value > highestBid, \"There already is a higher bid.\") */\n      tag_54\n      jumpi\n      mload(0x40)\n      0x08c379a000000000000000000000000000000000000000000000000000000000\n      dup2\n      mstore\n      0x04\n      add\n      tag_55\n      swap1\n      tag_56\n      jump\t// in\n    tag_55:\n      mload(0x40)\n      dup1\n      swap2\n      sub\n      swap1\n      revert\n    tag_54:\n        /* \"Day-29/code1.sol\":1284:1285  0 */\n      0x00\n        /* \"Day-29/code1.sol\":1270:1280  highestBid */\n      sload(0x02)\n        /* \"Day-29/code1.sol\":1270:1285  highestBid != 0 */\n      eq\n        /* \"Day-29/code1.sol\":1266:1408  if (highestBid != 0) {... */\n      tag_57\n      jumpi\n        /* \"Day-29/code1.sol\":1386:1396  highestBid */\n      sload(0x02)\n        /* \"Day-29/code1.sol\":1353:1367  pendingReturns */\n      0x05\n        /* \"Day-29/code1.sol\":1353:1382  pendingReturns[highestBidder] */\n      0x00\n        /* \"Day-29/code1.sol\":1368:1381  highestBidder */\n      0x01\n      0x00\n      swap1\n      sload\n      swap1\n      0x0100\n      exp\n      swap1\n      div\n      0xffffffffffffffffffffffffffffffffffffffff\n      and\n        /* \"Day-29/code1.sol\":1353:1382  pendingReturns[highestBidder] */\n      0xffffffffffffffffffffffffffffffffffffffff\n      and\n      0xffffffffffffffffffffffffffffffffffffffff\n      and\n      dup2\n      mstore\n      0x20\n      add\n      swap1\n      dup2\n      mstore\n      0x20\n      add\n      0x00\n      keccak256\n      0x00\n        /* \"Day-29/code1.sol\":1353:1396  pendingReturns[highestBidder] += highestBid */\n      dup3\n      dup3\n      sload\n      tag_58\n      swap2\n      swap1\n      tag_59\n      jump\t// in\n    tag_58:\n      swap3\n      pop\n      pop\n      dup2\n      swap1\n      sstore\n      pop\n        /* \"Day-29/code1.sol\":1266:1408  if (highestBid != 0) {... */\n    tag_57:\n        /* \"Day-29/code1.sol\":1436:1446  msg.sender */\n      caller\n        /* \"Day-29/code1.sol\":1420:1433  highestBidder */\n      0x01\n      0x00\n        /* \"Day-29/code1.sol\":1420:1446  highestBidder = msg.sender */\n      0x0100\n      exp\n      dup2\n      sload\n      dup2\n      0xffffffffffffffffffffffffffffffffffffffff\n      mul\n      not\n      and\n      swap1\n      dup4\n      0xffffffffffffffffffffffffffffffffffffffff\n      and\n      mul\n      or\n      swap1\n      sstore\n      pop\n        /* \"Day-29/code1.sol\":1470:1479  msg.value */\n      callvalue\n        /* \"Day-29/code1.sol\":1457:1467  highestBid */\n      0x02\n        /* \"Day-29/code1.sol\":1457:1479  highestBid = msg.value */\n      dup2\n      swap1\n      sstore\n      pop\n        /* \"Day-29/code1.sol\":1495:1537  HighestBidIncreased(msg.sender, msg.value) */\n      0xf4757a49b326036464bec6fe419a4ae38c8a02ce3e68bf0809674f6aab8ad300\n        /* \"Day-29/code1.sol\":1515:1525  msg.sender */\n      caller\n        /* \"Day-29/code1.sol\":1527:1536  msg.value */\n      callvalue\n        /* \"Day-29/code1.sol\":1495:1537  HighestBidIncreased(msg.sender, msg.value) */\n      mload(0x40)\n      tag_60\n      swap3\n      swap2\n      swap1\n      tag_61\n      jump\t// in\n    tag_60:\n      mload(0x40)\n      dup1\n      swap2\n      sub\n      swap1\n      log1\n        /* \"Day-29/code1.sol\":1067:1545  function bid() external payable {... */\n      jump\t// out\n        /* \"Day-29/code1.sol\":404:450  mapping(address => uint) public pendingReturns */\n    tag_23:\n      mstore(0x20, 0x05)\n      dup1\n      0x00\n      mstore\n      keccak256(0x00, 0x40)\n      0x00\n      swap2\n      pop\n      swap1\n      pop\n      sload\n      dup2\n      jump\t// out\n        /* \"Day-29/code1.sol\":1619:1981  function withdraw() external returns (bool) {... */\n    tag_28:\n        /* \"Day-29/code1.sol\":1657:1661  bool */\n      0x00\n        /* \"Day-29/code1.sol\":1674:1685  uint amount */\n      dup1\n        /* \"Day-29/code1.sol\":1688:1702  pendingReturns */\n      0x05\n        /* \"Day-29/code1.sol\":1688:1714  pendingReturns[msg.sender] */\n      0x00\n        /* \"Day-29/code1.sol\":1703:1713  msg.sender */\n      caller\n        /* \"Day-29/code1.sol\":1688:1714  pendingReturns[msg.sender] */\n      0xffffffffffffffffffffffffffffffffffffffff\n      and\n      0xffffffffffffffffffffffffffffffffffffffff\n      and\n      dup2\n      mstore\n      0x20\n      add\n      swap1\n      dup2\n      mstore\n      0x20\n      add\n      0x00\n      keccak256\n      sload\n        /* \"Day-29/code1.sol\":1674:1714  uint amount = pendingReturns[msg.sender] */\n      swap1\n      pop\n        /* \"Day-29/code1.sol\":1738:1739  0 */\n      0x00\n        /* \"Day-29/code1.sol\":1729:1735  amount */\n      dup2\n        /* \"Day-29/code1.sol\":1729:1739  amount > 0 */\n      gt\n        /* \"Day-29/code1.sol\":1725:1952  if (amount > 0) {... */\n      iszero\n      tag_63\n      jumpi\n        /* \"Day-29/code1.sol\":1785:1786  0 */\n      0x00\n        /* \"Day-29/code1.sol\":1756:1770  pendingReturns */\n      0x05\n        /* \"Day-29/code1.sol\":1756:1782  pendingReturns[msg.sender] */\n      0x00\n        /* \"Day-29/code1.sol\":1771:1781  msg.sender */\n      caller\n        /* \"Day-29/code1.sol\":1756:1782  pendingReturns[msg.sender] */\n      0xffffffffffffffffffffffffffffffffffffffff\n      and\n      0xffffffffffffffffffffffffffffffffffffffff\n      and\n      dup2\n      mstore\n      0x20\n      add\n      swap1\n      dup2\n      mstore\n      0x20\n      add\n      0x00\n      keccak256\n        /* \"Day-29/code1.sol\":1756:1786  pendingReturns[msg.sender] = 0 */\n      dup2\n      swap1\n      sstore\n      pop\n        /* \"Day-29/code1.sol\":1814:1824  msg.sender */\n      caller\n        /* \"Day-29/code1.sol\":1806:1830  payable(msg.sender).send */\n      0xffffffffffffffffffffffffffffffffffffffff\n      and\n        /* \"Day-29/code1.sol\":1806:1838  payable(msg.sender).send(amount) */\n      0x08fc\n        /* \"Day-29/code1.sol\":1831:1837  amount */\n      dup3\n        /* \"Day-29/code1.sol\":1806:1838  payable(msg.sender).send(amount) */\n      swap1\n      dup2\n      iszero\n      mul\n      swap1\n      mload(0x40)\n      0x00\n      mload(0x40)\n      dup1\n      dup4\n      sub\n      dup2\n      dup6\n      dup9\n      dup9\n      call\n      swap4\n      pop\n      pop\n      pop\n      pop\n        /* \"Day-29/code1.sol\":1801:1941  if (!payable(msg.sender).send(amount)) {... */\n      tag_65\n      jumpi\n        /* \"Day-29/code1.sol\":1888:1894  amount */\n      dup1\n        /* \"Day-29/code1.sol\":1859:1873  pendingReturns */\n      0x05\n        /* \"Day-29/code1.sol\":1859:1885  pendingReturns[msg.sender] */\n      0x00\n        /* \"Day-29/code1.sol\":1874:1884  msg.sender */\n      caller\n        /* \"Day-29/code1.sol\":1859:1885  pendingReturns[msg.sender] */\n      0xffffffffffffffffffffffffffffffffffffffff\n      and\n      0xffffffffffffffffffffffffffffffffffffffff\n      and\n      dup2\n      mstore\n      0x20\n      add\n      swap1\n      dup2\n      mstore\n      0x20\n      add\n      0x00\n      keccak256\n        /* \"Day-29/code1.sol\":1859:1894  pendingReturns[msg.sender] = amount */\n      dup2\n      swap1\n      sstore\n      pop\n        /* \"Day-29/code1.sol\":1920:1925  false */\n      0x00\n        /* \"Day-29/code1.sol\":1913:1925  return false */\n      swap2\n      pop\n      pop\n      jump(tag_62)\n        /* \"Day-29/code1.sol\":1801:1941  if (!payable(msg.sender).send(amount)) {... */\n    tag_65:\n        /* \"Day-29/code1.sol\":1725:1952  if (amount > 0) {... */\n    tag_63:\n        /* \"Day-29/code1.sol\":1969:1973  true */\n      0x01\n        /* \"Day-29/code1.sol\":1962:1973  return true */\n      swap2\n      pop\n      pop\n        /* \"Day-29/code1.sol\":1619:1981  function withdraw() external returns (bool) {... */\n    tag_62:\n      swap1\n      jump\t// out\n        /* \"Day-29/code1.sol\":345:371  uint public auctionEndTime */\n    tag_32:\n      sload(0x03)\n      dup2\n      jump\t// out\n        /* \"Day-29/code1.sol\":254:274  address public owner */\n    tag_36:\n      0x00\n      dup1\n      sload\n      swap1\n      0x0100\n      exp\n      swap1\n      div\n      0xffffffffffffffffffffffffffffffffffffffff\n      and\n      dup2\n      jump\t// out\n        /* \"Day-29/code1.sol\":281:309  address public highestBidder */\n    tag_41:\n      0x01\n      0x00\n      swap1\n      sload\n      swap1\n      0x0100\n      exp\n      swap1\n      div\n      0xffffffffffffffffffffffffffffffffffffffff\n      and\n      dup2\n      jump\t// out\n        /* \"Day-29/code1.sol\":316:338  uint public highestBid */\n    tag_45:\n      sload(0x02)\n      dup2\n      jump\t// out\n        /* \"Day-29/code1.sol\":2050:2371  function endAuction() external onlyOwner {... */\n    tag_49:\n        /* \"Day-29/code1.sol\":688:693  owner */\n      0x00\n      dup1\n      sload\n      swap1\n      0x0100\n      exp\n      swap1\n      div\n      0xffffffffffffffffffffffffffffffffffffffff\n      and\n        /* \"Day-29/code1.sol\":674:693  msg.sender == owner */\n      0xffffffffffffffffffffffffffffffffffffffff\n      and\n        /* \"Day-29/code1.sol\":674:684  msg.sender */\n      caller\n        /* \"Day-29/code1.sol\":674:693  msg.sender == owner */\n      0xffffffffffffffffffffffffffffffffffffffff\n      and\n      eq\n        /* \"Day-29/code1.sol\":666:722  require(msg.sender == owner, \"Only owner can call this\") */\n      tag_67\n      jumpi\n      mload(0x40)\n      0x08c379a000000000000000000000000000000000000000000000000000000000\n      dup2\n      mstore\n      0x04\n      add\n      tag_68\n      swap1\n      tag_69\n      jump\t// in\n    tag_68:\n      mload(0x40)\n      dup1\n      swap2\n      sub\n      swap1\n      revert\n    tag_67:\n        /* \"Day-29/code1.sol\":2129:2143  auctionEndTime */\n      sload(0x03)\n        /* \"Day-29/code1.sol\":2110:2125  block.timestamp */\n      timestamp\n        /* \"Day-29/code1.sol\":2110:2143  block.timestamp >= auctionEndTime */\n      lt\n      iszero\n        /* \"Day-29/code1.sol\":2102:2170  require(block.timestamp >= auctionEndTime, \"Auction not yet ended.\") */\n      tag_71\n      jumpi\n      mload(0x40)\n      0x08c379a000000000000000000000000000000000000000000000000000000000\n      dup2\n      mstore\n      0x04\n      add\n      tag_72\n      swap1\n      tag_73\n      jump\t// in\n    tag_72:\n      mload(0x40)\n      dup1\n      swap2\n      sub\n      swap1\n      revert\n    tag_71:\n        /* \"Day-29/code1.sol\":2190:2195  ended */\n      0x04\n      0x00\n      swap1\n      sload\n      swap1\n      0x0100\n      exp\n      swap1\n      div\n      0xff\n      and\n        /* \"Day-29/code1.sol\":2189:2195  !ended */\n      iszero\n        /* \"Day-29/code1.sol\":2181:2235  require(!ended, \"endAuction has already been called.\") */\n      tag_74\n      jumpi\n      mload(0x40)\n      0x08c379a000000000000000000000000000000000000000000000000000000000\n      dup2\n      mstore\n      0x04\n      add\n      tag_75\n      swap1\n      tag_76\n      jump\t// in\n    tag_75:\n      mload(0x40)\n      dup1\n      swap2\n      sub\n      swap1\n      revert\n    tag_74:\n        /* \"Day-29/code1.sol\":2256:2260  true */\n      0x01\n        /* \"Day-29/code1.sol\":2248:2253  ended */\n      0x04\n      0x00\n        /* \"Day-29/code1.sol\":2248:2260  ended = true */\n      0x0100\n      exp\n      dup2\n      sload\n      dup2\n      0xff\n      mul\n      not\n      and\n      swap1\n      dup4\n      iszero\n      iszero\n      mul\n      or\n      swap1\n      sstore\n      pop\n        /* \"Day-29/code1.sol\":2276:2315  AuctionEnded(highestBidder, highestBid) */\n      0xdaec4582d5d9595688c8c98545fdd1c696d41c6aeaeb636737e84ed2f5c00eda\n        /* \"Day-29/code1.sol\":2289:2302  highestBidder */\n      0x01\n      0x00\n      swap1\n      sload\n      swap1\n      0x0100\n      exp\n      swap1\n      div\n      0xffffffffffffffffffffffffffffffffffffffff\n      and\n        /* \"Day-29/code1.sol\":2304:2314  highestBid */\n      sload(0x02)\n        /* \"Day-29/code1.sol\":2276:2315  AuctionEnded(highestBidder, highestBid) */\n      mload(0x40)\n      tag_77\n      swap3\n      swap2\n      swap1\n      tag_61\n      jump\t// in\n    tag_77:\n      mload(0x40)\n      dup1\n      swap2\n      sub\n      swap1\n      log1\n        /* \"Day-29/code1.sol\":2336:2341  owner */\n      0x00\n      dup1\n      sload\n      swap1\n      0x0100\n      exp\n      swap1\n      div\n      0xffffffffffffffffffffffffffffffffffffffff\n      and\n        /* \"Day-29/code1.sol\":2328:2351  payable(owner).transfer */\n      0xffffffffffffffffffffffffffffffffffffffff\n      and\n        /* \"Day-29/code1.sol\":2328:2363  payable(owner).transfer(highestBid) */\n      0x08fc\n        /* \"Day-29/code1.sol\":2352:2362  highestBid */\n      sload(0x02)\n        /* \"Day-29/code1.sol\":2328:2363  payable(owner).transfer(highestBid) */\n      swap1\n      dup2\n      iszero\n      mul\n      swap1\n      mload(0x40)\n      0x00\n      mload(0x40)\n      dup1\n      dup4\n      sub\n      dup2\n      dup6\n      dup9\n      dup9\n      call\n      swap4\n      pop\n      pop\n      pop\n      pop\n      iszero\n      dup1\n      iszero\n      tag_79\n      jumpi\n      returndatasize\n      0x00\n      dup1\n      returndatacopy\n      revert(0x00, returndatasize)\n    tag_79:\n      pop\n        /* \"Day-29/code1.sol\":2050:2371  function endAuction() external onlyOwner {... */\n      jump\t// out\n        /* \"#utility.yul\":7:97   */\n    tag_80:\n        /* \"#utility.yul\":41:48   */\n      0x00\n        /* \"#utility.yul\":84:89   */\n      dup2\n        /* \"#utility.yul\":77:90   */\n      iszero\n        /* \"#utility.yul\":70:91   */\n      iszero\n        /* \"#utility.yul\":59:91   */\n      swap1\n      pop\n        /* \"#utility.yul\":7:97   */\n      swap2\n      swap1\n      pop\n      jump\t// out\n        /* \"#utility.yul\":103:212   */\n    tag_81:\n        /* \"#utility.yul\":184:205   */\n      tag_107\n        /* \"#utility.yul\":199:204   */\n      dup2\n        /* \"#utility.yul\":184:205   */\n      tag_80\n      jump\t// in\n    tag_107:\n        /* \"#utility.yul\":179:182   */\n      dup3\n        /* \"#utility.yul\":172:206   */\n      mstore\n        /* \"#utility.yul\":103:212   */\n      pop\n      pop\n      jump\t// out\n        /* \"#utility.yul\":218:428   */\n    tag_16:\n        /* \"#utility.yul\":305:309   */\n      0x00\n        /* \"#utility.yul\":343:345   */\n      0x20\n        /* \"#utility.yul\":332:341   */\n      dup3\n        /* \"#utility.yul\":328:346   */\n      add\n        /* \"#utility.yul\":320:346   */\n      swap1\n      pop\n        /* \"#utility.yul\":356:421   */\n      tag_109\n        /* \"#utility.yul\":418:419   */\n      0x00\n        /* \"#utility.yul\":407:416   */\n      dup4\n        /* \"#utility.yul\":403:420   */\n      add\n        /* \"#utility.yul\":394:400   */\n      dup5\n        /* \"#utility.yul\":356:421   */\n      tag_81\n      jump\t// in\n    tag_109:\n        /* \"#utility.yul\":218:428   */\n      swap3\n      swap2\n      pop\n      pop\n      jump\t// out\n        /* \"#utility.yul\":515:632   */\n    tag_83:\n        /* \"#utility.yul\":624:625   */\n      0x00\n        /* \"#utility.yul\":621:622   */\n      dup1\n        /* \"#utility.yul\":614:626   */\n      revert\n        /* \"#utility.yul\":761:887   */\n    tag_85:\n        /* \"#utility.yul\":798:805   */\n      0x00\n        /* \"#utility.yul\":838:880   */\n      0xffffffffffffffffffffffffffffffffffffffff\n        /* \"#utility.yul\":831:836   */\n      dup3\n        /* \"#utility.yul\":827:881   */\n      and\n        /* \"#utility.yul\":816:881   */\n      swap1\n      pop\n        /* \"#utility.yul\":761:887   */\n      swap2\n      swap1\n      pop\n      jump\t// out\n        /* \"#utility.yul\":893:989   */\n    tag_86:\n        /* \"#utility.yul\":930:937   */\n      0x00\n        /* \"#utility.yul\":959:983   */\n      tag_115\n        /* \"#utility.yul\":977:982   */\n      dup3\n        /* \"#utility.yul\":959:983   */\n      tag_85\n      jump\t// in\n    tag_115:\n        /* \"#utility.yul\":948:983   */\n      swap1\n      pop\n        /* \"#utility.yul\":893:989   */\n      swap2\n      swap1\n      pop\n      jump\t// out\n        /* \"#utility.yul\":995:1117   */\n    tag_87:\n        /* \"#utility.yul\":1068:1092   */\n      tag_117\n        /* \"#utility.yul\":1086:1091   */\n      dup2\n        /* \"#utility.yul\":1068:1092   */\n      tag_86\n      jump\t// in\n    tag_117:\n        /* \"#utility.yul\":1061:1066   */\n      dup2\n        /* \"#utility.yul\":1058:1093   */\n      eq\n        /* \"#utility.yul\":1048:1111   */\n      tag_118\n      jumpi\n        /* \"#utility.yul\":1107:1108   */\n      0x00\n        /* \"#utility.yul\":1104:1105   */\n      dup1\n        /* \"#utility.yul\":1097:1109   */\n      revert\n        /* \"#utility.yul\":1048:1111   */\n    tag_118:\n        /* \"#utility.yul\":995:1117   */\n      pop\n      jump\t// out\n        /* \"#utility.yul\":1123:1262   */\n    tag_88:\n        /* \"#utility.yul\":1169:1174   */\n      0x00\n        /* \"#utility.yul\":1207:1213   */\n      dup2\n        /* \"#utility.yul\":1194:1214   */\n      calldataload\n        /* \"#utility.yul\":1185:1214   */\n      swap1\n      pop\n        /* \"#utility.yul\":1223:1256   */\n      tag_120\n        /* \"#utility.yul\":1250:1255   */\n      dup2\n        /* \"#utility.yul\":1223:1256   */\n      tag_87\n      jump\t// in\n    tag_120:\n        /* \"#utility.yul\":1123:1262   */\n      swap3\n      swap2\n      pop\n      pop\n      jump\t// out\n        /* \"#utility.yul\":1268:1597   */\n    tag_22:\n        /* \"#utility.yul\":1327:1333   */\n      0x00\n        /* \"#utility.yul\":1376:1378   */\n      0x20\n        /* \"#utility.yul\":1364:1373   */\n      dup3\n        /* \"#utility.yul\":1355:1362   */\n      dup5\n        /* \"#utility.yul\":1351:1374   */\n      sub\n        /* \"#utility.yul\":1347:1379   */\n      slt\n        /* \"#utility.yul\":1344:1463   */\n      iszero\n      tag_122\n      jumpi\n        /* \"#utility.yul\":1382:1461   */\n      tag_123\n      tag_83\n      jump\t// in\n    tag_123:\n        /* \"#utility.yul\":1344:1463   */\n    tag_122:\n        /* \"#utility.yul\":1502:1503   */\n      0x00\n        /* \"#utility.yul\":1527:1580   */\n      tag_124\n        /* \"#utility.yul\":1572:1579   */\n      dup5\n        /* \"#utility.yul\":1563:1569   */\n      dup3\n        /* \"#utility.yul\":1552:1561   */\n      dup6\n        /* \"#utility.yul\":1548:1570   */\n      add\n        /* \"#utility.yul\":1527:1580   */\n      tag_88\n      jump\t// in\n    tag_124:\n        /* \"#utility.yul\":1517:1580   */\n      swap2\n      pop\n        /* \"#utility.yul\":1473:1590   */\n      pop\n        /* \"#utility.yul\":1268:1597   */\n      swap3\n      swap2\n      pop\n      pop\n      jump\t// out\n        /* \"#utility.yul\":1603:1680   */\n    tag_89:\n        /* \"#utility.yul\":1640:1647   */\n      0x00\n        /* \"#utility.yul\":1669:1674   */\n      dup2\n        /* \"#utility.yul\":1658:1674   */\n      swap1\n      pop\n        /* \"#utility.yul\":1603:1680   */\n      swap2\n      swap1\n      pop\n      jump\t// out\n        /* \"#utility.yul\":1686:1804   */\n    tag_90:\n        /* \"#utility.yul\":1773:1797   */\n      tag_127\n        /* \"#utility.yul\":1791:1796   */\n      dup2\n        /* \"#utility.yul\":1773:1797   */\n      tag_89\n      jump\t// in\n    tag_127:\n        /* \"#utility.yul\":1768:1771   */\n      dup3\n        /* \"#utility.yul\":1761:1798   */\n      mstore\n        /* \"#utility.yul\":1686:1804   */\n      pop\n      pop\n      jump\t// out\n        /* \"#utility.yul\":1810:2032   */\n    tag_25:\n        /* \"#utility.yul\":1903:1907   */\n      0x00\n        /* \"#utility.yul\":1941:1943   */\n      0x20\n        /* \"#utility.yul\":1930:1939   */\n      dup3\n        /* \"#utility.yul\":1926:1944   */\n      add\n        /* \"#utility.yul\":1918:1944   */\n      swap1\n      pop\n        /* \"#utility.yul\":1954:2025   */\n      tag_129\n        /* \"#utility.yul\":2022:2023   */\n      0x00\n        /* \"#utility.yul\":2011:2020   */\n      dup4\n        /* \"#utility.yul\":2007:2024   */\n      add\n        /* \"#utility.yul\":1998:2004   */\n      dup5\n        /* \"#utility.yul\":1954:2025   */\n      tag_90\n      jump\t// in\n    tag_129:\n        /* \"#utility.yul\":1810:2032   */\n      swap3\n      swap2\n      pop\n      pop\n      jump\t// out\n        /* \"#utility.yul\":2038:2156   */\n    tag_91:\n        /* \"#utility.yul\":2125:2149   */\n      tag_131\n        /* \"#utility.yul\":2143:2148   */\n      dup2\n        /* \"#utility.yul\":2125:2149   */\n      tag_86\n      jump\t// in\n    tag_131:\n        /* \"#utility.yul\":2120:2123   */\n      dup3\n        /* \"#utility.yul\":2113:2150   */\n      mstore\n        /* \"#utility.yul\":2038:2156   */\n      pop\n      pop\n      jump\t// out\n        /* \"#utility.yul\":2162:2384   */\n    tag_38:\n        /* \"#utility.yul\":2255:2259   */\n      0x00\n        /* \"#utility.yul\":2293:2295   */\n      0x20\n        /* \"#utility.yul\":2282:2291   */\n      dup3\n        /* \"#utility.yul\":2278:2296   */\n      add\n        /* \"#utility.yul\":2270:2296   */\n      swap1\n      pop\n        /* \"#utility.yul\":2306:2377   */\n      tag_133\n        /* \"#utility.yul\":2374:2375   */\n      0x00\n        /* \"#utility.yul\":2363:2372   */\n      dup4\n        /* \"#utility.yul\":2359:2376   */\n      add\n        /* \"#utility.yul\":2350:2356   */\n      dup5\n        /* \"#utility.yul\":2306:2377   */\n      tag_91\n      jump\t// in\n    tag_133:\n        /* \"#utility.yul\":2162:2384   */\n      swap3\n      swap2\n      pop\n      pop\n      jump\t// out\n        /* \"#utility.yul\":2390:2559   */\n    tag_92:\n        /* \"#utility.yul\":2474:2485   */\n      0x00\n        /* \"#utility.yul\":2508:2514   */\n      dup3\n        /* \"#utility.yul\":2503:2506   */\n      dup3\n        /* \"#utility.yul\":2496:2515   */\n      mstore\n        /* \"#utility.yul\":2548:2552   */\n      0x20\n        /* \"#utility.yul\":2543:2546   */\n      dup3\n        /* \"#utility.yul\":2539:2553   */\n      add\n        /* \"#utility.yul\":2524:2553   */\n      swap1\n      pop\n        /* \"#utility.yul\":2390:2559   */\n      swap3\n      swap2\n      pop\n      pop\n      jump\t// out\n        /* \"#utility.yul\":2565:2737   */\n    tag_93:\n        /* \"#utility.yul\":2705:2729   */\n      0x41756374696f6e20616c726561647920656e6465642e00000000000000000000\n        /* \"#utility.yul\":2701:2702   */\n      0x00\n        /* \"#utility.yul\":2693:2699   */\n      dup3\n        /* \"#utility.yul\":2689:2703   */\n      add\n        /* \"#utility.yul\":2682:2730   */\n      mstore\n        /* \"#utility.yul\":2565:2737   */\n      pop\n      jump\t// out\n        /* \"#utility.yul\":2743:3109   */\n    tag_94:\n        /* \"#utility.yul\":2885:2888   */\n      0x00\n        /* \"#utility.yul\":2906:2973   */\n      tag_137\n        /* \"#utility.yul\":2970:2972   */\n      0x16\n        /* \"#utility.yul\":2965:2968   */\n      dup4\n        /* \"#utility.yul\":2906:2973   */\n      tag_92\n      jump\t// in\n    tag_137:\n        /* \"#utility.yul\":2899:2973   */\n      swap2\n      pop\n        /* \"#utility.yul\":2982:3075   */\n      tag_138\n        /* \"#utility.yul\":3071:3074   */\n      dup3\n        /* \"#utility.yul\":2982:3075   */\n      tag_93\n      jump\t// in\n    tag_138:\n        /* \"#utility.yul\":3100:3102   */\n      0x20\n        /* \"#utility.yul\":3095:3098   */\n      dup3\n        /* \"#utility.yul\":3091:3103   */\n      add\n        /* \"#utility.yul\":3084:3103   */\n      swap1\n      pop\n        /* \"#utility.yul\":2743:3109   */\n      swap2\n      swap1\n      pop\n      jump\t// out\n        /* \"#utility.yul\":3115:3534   */\n    tag_53:\n        /* \"#utility.yul\":3281:3285   */\n      0x00\n        /* \"#utility.yul\":3319:3321   */\n      0x20\n        /* \"#utility.yul\":3308:3317   */\n      dup3\n        /* \"#utility.yul\":3304:3322   */\n      add\n        /* \"#utility.yul\":3296:3322   */\n      swap1\n      pop\n        /* \"#utility.yul\":3368:3377   */\n      dup2\n        /* \"#utility.yul\":3362:3366   */\n      dup2\n        /* \"#utility.yul\":3358:3378   */\n      sub\n        /* \"#utility.yul\":3354:3355   */\n      0x00\n        /* \"#utility.yul\":3343:3352   */\n      dup4\n        /* \"#utility.yul\":3339:3356   */\n      add\n        /* \"#utility.yul\":3332:3379   */\n      mstore\n        /* \"#utility.yul\":3396:3527   */\n      tag_140\n        /* \"#utility.yul\":3522:3526   */\n      dup2\n        /* \"#utility.yul\":3396:3527   */\n      tag_94\n      jump\t// in\n    tag_140:\n        /* \"#utility.yul\":3388:3527   */\n      swap1\n      pop\n        /* \"#utility.yul\":3115:3534   */\n      swap2\n      swap1\n      pop\n      jump\t// out\n        /* \"#utility.yul\":3540:3720   */\n    tag_95:\n        /* \"#utility.yul\":3680:3712   */\n      0x546865726520616c7265616479206973206120686967686572206269642e0000\n        /* \"#utility.yul\":3676:3677   */\n      0x00\n        /* \"#utility.yul\":3668:3674   */\n      dup3\n        /* \"#utility.yul\":3664:3678   */\n      add\n        /* \"#utility.yul\":3657:3713   */\n      mstore\n        /* \"#utility.yul\":3540:3720   */\n      pop\n      jump\t// out\n        /* \"#utility.yul\":3726:4092   */\n    tag_96:\n        /* \"#utility.yul\":3868:3871   */\n      0x00\n        /* \"#utility.yul\":3889:3956   */\n      tag_143\n        /* \"#utility.yul\":3953:3955   */\n      0x1e\n        /* \"#utility.yul\":3948:3951   */\n      dup4\n        /* \"#utility.yul\":3889:3956   */\n      tag_92\n      jump\t// in\n    tag_143:\n        /* \"#utility.yul\":3882:3956   */\n      swap2\n      pop\n        /* \"#utility.yul\":3965:4058   */\n      tag_144\n        /* \"#utility.yul\":4054:4057   */\n      dup3\n        /* \"#utility.yul\":3965:4058   */\n      tag_95\n      jump\t// in\n    tag_144:\n        /* \"#utility.yul\":4083:4085   */\n      0x20\n        /* \"#utility.yul\":4078:4081   */\n      dup3\n        /* \"#utility.yul\":4074:4086   */\n      add\n        /* \"#utility.yul\":4067:4086   */\n      swap1\n      pop\n        /* \"#utility.yul\":3726:4092   */\n      swap2\n      swap1\n      pop\n      jump\t// out\n        /* \"#utility.yul\":4098:4517   */\n    tag_56:\n        /* \"#utility.yul\":4264:4268   */\n      0x00\n        /* \"#utility.yul\":4302:4304   */\n      0x20\n        /* \"#utility.yul\":4291:4300   */\n      dup3\n        /* \"#utility.yul\":4287:4305   */\n      add\n        /* \"#utility.yul\":4279:4305   */\n      swap1\n      pop\n        /* \"#utility.yul\":4351:4360   */\n      dup2\n        /* \"#utility.yul\":4345:4349   */\n      dup2\n        /* \"#utility.yul\":4341:4361   */\n      sub\n        /* \"#utility.yul\":4337:4338   */\n      0x00\n        /* \"#utility.yul\":4326:4335   */\n      dup4\n        /* \"#utility.yul\":4322:4339   */\n      add\n        /* \"#utility.yul\":4315:4362   */\n      mstore\n        /* \"#utility.yul\":4379:4510   */\n      tag_146\n        /* \"#utility.yul\":4505:4509   */\n      dup2\n        /* \"#utility.yul\":4379:4510   */\n      tag_96\n      jump\t// in\n    tag_146:\n        /* \"#utility.yul\":4371:4510   */\n      swap1\n      pop\n        /* \"#utility.yul\":4098:4517   */\n      swap2\n      swap1\n      pop\n      jump\t// out\n        /* \"#utility.yul\":4523:4703   */\n    tag_97:\n        /* \"#utility.yul\":4571:4648   */\n      0x4e487b7100000000000000000000000000000000000000000000000000000000\n        /* \"#utility.yul\":4568:4569   */\n      0x00\n        /* \"#utility.yul\":4561:4649   */\n      mstore\n        /* \"#utility.yul\":4668:4672   */\n      0x11\n        /* \"#utility.yul\":4665:4666   */\n      0x04\n        /* \"#utility.yul\":4658:4673   */\n      mstore\n        /* \"#utility.yul\":4692:4696   */\n      0x24\n        /* \"#utility.yul\":4689:4690   */\n      0x00\n        /* \"#utility.yul\":4682:4697   */\n      revert\n        /* \"#utility.yul\":4709:4900   */\n    tag_59:\n        /* \"#utility.yul\":4749:4752   */\n      0x00\n        /* \"#utility.yul\":4768:4788   */\n      tag_149\n        /* \"#utility.yul\":4786:4787   */\n      dup3\n        /* \"#utility.yul\":4768:4788   */\n      tag_89\n      jump\t// in\n    tag_149:\n        /* \"#utility.yul\":4763:4788   */\n      swap2\n      pop\n        /* \"#utility.yul\":4802:4822   */\n      tag_150\n        /* \"#utility.yul\":4820:4821   */\n      dup4\n        /* \"#utility.yul\":4802:4822   */\n      tag_89\n      jump\t// in\n    tag_150:\n        /* \"#utility.yul\":4797:4822   */\n      swap3\n      pop\n        /* \"#utility.yul\":4845:4846   */\n      dup3\n        /* \"#utility.yul\":4842:4843   */\n      dup3\n        /* \"#utility.yul\":4838:4847   */\n      add\n        /* \"#utility.yul\":4831:4847   */\n      swap1\n      pop\n        /* \"#utility.yul\":4866:4869   */\n      dup1\n        /* \"#utility.yul\":4863:4864   */\n      dup3\n        /* \"#utility.yul\":4860:4870   */\n      gt\n        /* \"#utility.yul\":4857:4893   */\n      iszero\n      tag_151\n      jumpi\n        /* \"#utility.yul\":4873:4891   */\n      tag_152\n      tag_97\n      jump\t// in\n    tag_152:\n        /* \"#utility.yul\":4857:4893   */\n    tag_151:\n        /* \"#utility.yul\":4709:4900   */\n      swap3\n      swap2\n      pop\n      pop\n      jump\t// out\n        /* \"#utility.yul\":4906:5238   */\n    tag_61:\n        /* \"#utility.yul\":5027:5031   */\n      0x00\n        /* \"#utility.yul\":5065:5067   */\n      0x40\n        /* \"#utility.yul\":5054:5063   */\n      dup3\n        /* \"#utility.yul\":5050:5068   */\n      add\n        /* \"#utility.yul\":5042:5068   */\n      swap1\n      pop\n        /* \"#utility.yul\":5078:5149   */\n      tag_154\n        /* \"#utility.yul\":5146:5147   */\n      0x00\n        /* \"#utility.yul\":5135:5144   */\n      dup4\n        /* \"#utility.yul\":5131:5148   */\n      add\n        /* \"#utility.yul\":5122:5128   */\n      dup6\n        /* \"#utility.yul\":5078:5149   */\n      tag_91\n      jump\t// in\n    tag_154:\n        /* \"#utility.yul\":5159:5231   */\n      tag_155\n        /* \"#utility.yul\":5227:5229   */\n      0x20\n        /* \"#utility.yul\":5216:5225   */\n      dup4\n        /* \"#utility.yul\":5212:5230   */\n      add\n        /* \"#utility.yul\":5203:5209   */\n      dup5\n        /* \"#utility.yul\":5159:5231   */\n      tag_90\n      jump\t// in\n    tag_155:\n        /* \"#utility.yul\":4906:5238   */\n      swap4\n      swap3\n      pop\n      pop\n      pop\n      jump\t// out\n        /* \"#utility.yul\":5244:5418   */\n    tag_98:\n        /* \"#utility.yul\":5384:5410   */\n      0x4f6e6c79206f776e65722063616e2063616c6c20746869730000000000000000\n        /* \"#utility.yul\":5380:5381   */\n      0x00\n        /* \"#utility.yul\":5372:5378   */\n      dup3\n        /* \"#utility.yul\":5368:5382   */\n      add\n        /* \"#utility.yul\":5361:5411   */\n      mstore\n        /* \"#utility.yul\":5244:5418   */\n      pop\n      jump\t// out\n        /* \"#utility.yul\":5424:5790   */\n    tag_99:\n        /* \"#utility.yul\":5566:5569   */\n      0x00\n        /* \"#utility.yul\":5587:5654   */\n      tag_158\n        /* \"#utility.yul\":5651:5653   */\n      0x18\n        /* \"#utility.yul\":5646:5649   */\n      dup4\n        /* \"#utility.yul\":5587:5654   */\n      tag_92\n      jump\t// in\n    tag_158:\n        /* \"#utility.yul\":5580:5654   */\n      swap2\n      pop\n        /* \"#utility.yul\":5663:5756   */\n      tag_159\n        /* \"#utility.yul\":5752:5755   */\n      dup3\n        /* \"#utility.yul\":5663:5756   */\n      tag_98\n      jump\t// in\n    tag_159:\n        /* \"#utility.yul\":5781:5783   */\n      0x20\n        /* \"#utility.yul\":5776:5779   */\n      dup3\n        /* \"#utility.yul\":5772:5784   */\n      add\n        /* \"#utility.yul\":5765:5784   */\n      swap1\n      pop\n        /* \"#utility.yul\":5424:5790   */\n      swap2\n      swap1\n      pop\n      jump\t// out\n        /* \"#utility.yul\":5796:6215   */\n    tag_69:\n        /* \"#utility.yul\":5962:5966   */\n      0x00\n        /* \"#utility.yul\":6000:6002   */\n      0x20\n        /* \"#utility.yul\":5989:5998   */\n      dup3\n        /* \"#utility.yul\":5985:6003   */\n      add\n        /* \"#utility.yul\":5977:6003   */\n      swap1\n      pop\n        /* \"#utility.yul\":6049:6058   */\n      dup2\n        /* \"#utility.yul\":6043:6047   */\n      dup2\n        /* \"#utility.yul\":6039:6059   */\n      sub\n        /* \"#utility.yul\":6035:6036   */\n      0x00\n        /* \"#utility.yul\":6024:6033   */\n      dup4\n        /* \"#utility.yul\":6020:6037   */\n      add\n        /* \"#utility.yul\":6013:6060   */\n      mstore\n        /* \"#utility.yul\":6077:6208   */\n      tag_161\n        /* \"#utility.yul\":6203:6207   */\n      dup2\n        /* \"#utility.yul\":6077:6208   */\n      tag_99\n      jump\t// in\n    tag_161:\n        /* \"#utility.yul\":6069:6208   */\n      swap1\n      pop\n        /* \"#utility.yul\":5796:6215   */\n      swap2\n      swap1\n      pop\n      jump\t// out\n        /* \"#utility.yul\":6221:6393   */\n    tag_100:\n        /* \"#utility.yul\":6361:6385   */\n      0x41756374696f6e206e6f742079657420656e6465642e00000000000000000000\n        /* \"#utility.yul\":6357:6358   */\n      0x00\n        /* \"#utility.yul\":6349:6355   */\n      dup3\n        /* \"#utility.yul\":6345:6359   */\n      add\n        /* \"#utility.yul\":6338:6386   */\n      mstore\n        /* \"#utility.yul\":6221:6393   */\n      pop\n      jump\t// out\n        /* \"#utility.yul\":6399:6765   */\n    tag_101:\n        /* \"#utility.yul\":6541:6544   */\n      0x00\n        /* \"#utility.yul\":6562:6629   */\n      tag_164\n        /* \"#utility.yul\":6626:6628   */\n      0x16\n        /* \"#utility.yul\":6621:6624   */\n      dup4\n        /* \"#utility.yul\":6562:6629   */\n      tag_92\n      jump\t// in\n    tag_164:\n        /* \"#utility.yul\":6555:6629   */\n      swap2\n      pop\n        /* \"#utility.yul\":6638:6731   */\n      tag_165\n        /* \"#utility.yul\":6727:6730   */\n      dup3\n        /* \"#utility.yul\":6638:6731   */\n      tag_100\n      jump\t// in\n    tag_165:\n        /* \"#utility.yul\":6756:6758   */\n      0x20\n        /* \"#utility.yul\":6751:6754   */\n      dup3\n        /* \"#utility.yul\":6747:6759   */\n      add\n        /* \"#utility.yul\":6740:6759   */\n      swap1\n      pop\n        /* \"#utility.yul\":6399:6765   */\n      swap2\n      swap1\n      pop\n      jump\t// out\n        /* \"#utility.yul\":6771:7190   */\n    tag_73:\n        /* \"#utility.yul\":6937:6941   */\n      0x00\n        /* \"#utility.yul\":6975:6977   */\n      0x20\n        /* \"#utility.yul\":6964:6973   */\n      dup3\n        /* \"#utility.yul\":6960:6978   */\n      add\n        /* \"#utility.yul\":6952:6978   */\n      swap1\n      pop\n        /* \"#utility.yul\":7024:7033   */\n      dup2\n        /* \"#utility.yul\":7018:7022   */\n      dup2\n        /* \"#utility.yul\":7014:7034   */\n      sub\n        /* \"#utility.yul\":7010:7011   */\n      0x00\n        /* \"#utility.yul\":6999:7008   */\n      dup4\n        /* \"#utility.yul\":6995:7012   */\n      add\n        /* \"#utility.yul\":6988:7035   */\n      mstore\n        /* \"#utility.yul\":7052:7183   */\n      tag_167\n        /* \"#utility.yul\":7178:7182   */\n      dup2\n        /* \"#utility.yul\":7052:7183   */\n      tag_101\n      jump\t// in\n    tag_167:\n        /* \"#utility.yul\":7044:7183   */\n      swap1\n      pop\n        /* \"#utility.yul\":6771:7190   */\n      swap2\n      swap1\n      pop\n      jump\t// out\n        /* \"#utility.yul\":7196:7418   */\n    tag_102:\n        /* \"#utility.yul\":7336:7370   */\n      0x656e6441756374696f6e2068617320616c7265616479206265656e2063616c6c\n        /* \"#utility.yul\":7332:7333   */\n      0x00\n        /* \"#utility.yul\":7324:7330   */\n      dup3\n        /* \"#utility.yul\":7320:7334   */\n      add\n        /* \"#utility.yul\":7313:7371   */\n      mstore\n        /* \"#utility.yul\":7405:7410   */\n      0x65642e0000000000000000000000000000000000000000000000000000000000\n        /* \"#utility.yul\":7400:7402   */\n      0x20\n        /* \"#utility.yul\":7392:7398   */\n      dup3\n        /* \"#utility.yul\":7388:7403   */\n      add\n        /* \"#utility.yul\":7381:7411   */\n      mstore\n        /* \"#utility.yul\":7196:7418   */\n      pop\n      jump\t// out\n        /* \"#utility.yul\":7424:7790   */\n    tag_103:\n        /* \"#utility.yul\":7566:7569   */\n      0x00\n        /* \"#utility.yul\":7587:7654   */\n      tag_170\n        /* \"#utility.yul\":7651:7653   */\n      0x23\n        /* \"#utility.yul\":7646:7649   */\n      dup4\n        /* \"#utility.yul\":7587:7654   */\n      tag_92\n      jump\t// in\n    tag_170:\n        /* \"#utility.yul\":7580:7654   */\n      swap2\n      pop\n        /* \"#utility.yul\":7663:7756   */\n      tag_171\n        /* \"#utility.yul\":7752:7755   */\n      dup3\n        /* \"#utility.yul\":7663:7756   */\n      tag_102\n      jump\t// in\n    tag_171:\n        /* \"#utility.yul\":7781:7783   */\n      0x40\n        /* \"#utility.yul\":7776:7779   */\n      dup3\n        /* \"#utility.yul\":7772:7784   */\n      add\n        /* \"#utility.yul\":7765:7784   */\n      swap1\n      pop\n        /* \"#utility.yul\":7424:7790   */\n      swap2\n      swap1\n      pop\n      jump\t// out\n        /* \"#utility.yul\":7796:8215   */\n    tag_76:\n        /* \"#utility.yul\":7962:7966   */\n      0x00\n        /* \"#utility.yul\":8000:8002   */\n      0x20\n        /* \"#utility.yul\":7989:7998   */\n      dup3\n        /* \"#utility.yul\":7985:8003   */\n      add\n        /* \"#utility.yul\":7977:8003   */\n      swap1\n      pop\n        /* \"#utility.yul\":8049:8058   */\n      dup2\n        /* \"#utility.yul\":8043:8047   */\n      dup2\n        /* \"#utility.yul\":8039:8059   */\n      sub\n        /* \"#utility.yul\":8035:8036   */\n      0x00\n        /* \"#utility.yul\":8024:8033   */\n      dup4\n        /* \"#utility.yul\":8020:8037   */\n      add\n        /* \"#utility.yul\":8013:8060   */\n      mstore\n        /* \"#utility.yul\":8077:8208   */\n      tag_173\n        /* \"#utility.yul\":8203:8207   */\n      dup2\n        /* \"#utility.yul\":8077:8208   */\n      tag_103\n      jump\t// in\n    tag_173:\n        /* \"#utility.yul\":8069:8208   */\n      swap1\n      pop\n        /* \"#utility.yul\":7796:8215   */\n      swap2\n      swap1\n      pop\n      jump\t// out\n\n    auxdata: 0xa264697066735822122007a7a49c7185584dfd520f42de9e1be41e7a7515190666fa3623e11c495498c764736f6c634300081a0033\n}\n",
				"bytecode": {
					"linkReferences": {},
					"object": "608060405234801561000f575f80fd5b50604051610c64380380610c64833981810160405281019061003191906100bf565b335f806101000a81548173ffffffffffffffffffffffffffffffffffffffff021916908373ffffffffffffffffffffffffffffffffffffffff160217905550804261007c9190610117565b6003819055505061014a565b5f80fd5b5f819050919050565b61009e8161008c565b81146100a8575f80fd5b50565b5f815190506100b981610095565b92915050565b5f602082840312156100d4576100d3610088565b5b5f6100e1848285016100ab565b91505092915050565b7f4e487b71000000000000000000000000000000000000000000000000000000005f52601160045260245ffd5b5f6101218261008c565b915061012c8361008c565b9250828201905080821115610144576101436100ea565b5b92915050565b610b0d806101575f395ff3fe608060405260043610610085575f3560e01c80634b449cba116100585780634b449cba146101235780638da5cb5b1461014d57806391f9015714610177578063d57bde79146101a1578063fe67a54b146101cb57610085565b806312fa6feb146100895780631998aeef146100b357806326b387bb146100bd5780633ccfd60b146100f9575b5f80fd5b348015610094575f80fd5b5061009d6101e1565b6040516100aa9190610717565b60405180910390f35b6100bb6101f3565b005b3480156100c8575f80fd5b506100e360048036038101906100de919061078e565b61037d565b6040516100f091906107d1565b60405180910390f35b348015610104575f80fd5b5061010d610392565b60405161011a9190610717565b60405180910390f35b34801561012e575f80fd5b506101376104ab565b60405161014491906107d1565b60405180910390f35b348015610158575f80fd5b506101616104b1565b60405161016e91906107f9565b60405180910390f35b348015610182575f80fd5b5061018b6104d4565b60405161019891906107f9565b60405180910390f35b3480156101ac575f80fd5b506101b56104f9565b6040516101c291906107d1565b60405180910390f35b3480156101d6575f80fd5b506101df6104ff565b005b60045f9054906101000a900460ff1681565b6003544210610237576040517f08c379a000000000000000000000000000000000000000000000000000000000815260040161022e9061086c565b60405180910390fd5b600254341161027b576040517f08c379a0000000000000000000000000000000000000000000000000000000008152600401610272906108d4565b60405180910390fd5b5f600254146102fb5760025460055f60015f9054906101000a900473ffffffffffffffffffffffffffffffffffffffff1673ffffffffffffffffffffffffffffffffffffffff1673ffffffffffffffffffffffffffffffffffffffff1681526020019081526020015f205f8282546102f3919061091f565b925050819055505b3360015f6101000a81548173ffffffffffffffffffffffffffffffffffffffff021916908373ffffffffffffffffffffffffffffffffffffffff160217905550346002819055507ff4757a49b326036464bec6fe419a4ae38c8a02ce3e68bf0809674f6aab8ad3003334604051610373929190610952565b60405180910390a1565b6005602052805f5260405f205f915090505481565b5f8060055f3373ffffffffffffffffffffffffffffffffffffffff1673ffffffffffffffffffffffffffffffffffffffff1681526020019081526020015f205490505f8111156104a2575f60055f3373ffffffffffffffffffffffffffffffffffffffff1673ffffffffffffffffffffffffffffffffffffffff1681526020019081526020015f20819055503373ffffffffffffffffffffffffffffffffffffffff166108fc8290811502906040515f60405180830381858888f193505050506104a1578060055f3373ffffffffffffffffffffffffffffffffffffffff1673ffffffffffffffffffffffffffffffffffffffff1681526020019081526020015f20819055505f9150506104a8565b5b60019150505b90565b60035481565b5f8054906101000a900473ffffffffffffffffffffffffffffffffffffffff1681565b60015f9054906101000a900473ffffffffffffffffffffffffffffffffffffffff1681565b60025481565b5f8054906101000a900473ffffffffffffffffffffffffffffffffffffffff1673ffffffffffffffffffffffffffffffffffffffff163373ffffffffffffffffffffffffffffffffffffffff161461058c576040517f08c379a0000000000000000000000000000000000000000000000000000000008152600401610583906109c3565b60405180910390fd5b6003544210156105d1576040517f08c379a00000000000000000000000000000000000000000000000000000000081526004016105c890610a2b565b60405180910390fd5b60045f9054906101000a900460ff1615610620576040517f08c379a000000000000000000000000000000000000000000000000000000000815260040161061790610ab9565b60405180910390fd5b600160045f6101000a81548160ff0219169083151502179055507fdaec4582d5d9595688c8c98545fdd1c696d41c6aeaeb636737e84ed2f5c00eda60015f9054906101000a900473ffffffffffffffffffffffffffffffffffffffff1660025460405161068e929190610952565b60405180910390a15f8054906101000a900473ffffffffffffffffffffffffffffffffffffffff1673ffffffffffffffffffffffffffffffffffffffff166108fc60025490811502906040515f60405180830381858888f193505050501580156106fa573d5f803e3d5ffd5b50565b5f8115159050919050565b610711816106fd565b82525050565b5f60208201905061072a5f830184610708565b92915050565b5f80fd5b5f73ffffffffffffffffffffffffffffffffffffffff82169050919050565b5f61075d82610734565b9050919050565b61076d81610753565b8114610777575f80fd5b50565b5f8135905061078881610764565b92915050565b5f602082840312156107a3576107a2610730565b5b5f6107b08482850161077a565b91505092915050565b5f819050919050565b6107cb816107b9565b82525050565b5f6020820190506107e45f8301846107c2565b92915050565b6107f381610753565b82525050565b5f60208201905061080c5f8301846107ea565b92915050565b5f82825260208201905092915050565b7f41756374696f6e20616c726561647920656e6465642e000000000000000000005f82015250565b5f610856601683610812565b915061086182610822565b602082019050919050565b5f6020820190508181035f8301526108838161084a565b9050919050565b7f546865726520616c7265616479206973206120686967686572206269642e00005f82015250565b5f6108be601e83610812565b91506108c98261088a565b602082019050919050565b5f6020820190508181035f8301526108eb816108b2565b9050919050565b7f4e487b71000000000000000000000000000000000000000000000000000000005f52601160045260245ffd5b5f610929826107b9565b9150610934836107b9565b925082820190508082111561094c5761094b6108f2565b5b92915050565b5f6040820190506109655f8301856107ea565b61097260208301846107c2565b9392505050565b7f4f6e6c79206f776e65722063616e2063616c6c207468697300000000000000005f82015250565b5f6109ad601883610812565b91506109b882610979565b602082019050919050565b5f6020820190508181035f8301526109da816109a1565b9050919050565b7f41756374696f6e206e6f742079657420656e6465642e000000000000000000005f82015250565b5f610a15601683610812565b9150610a20826109e1565b602082019050919050565b5f6020820190508181035f830152610a4281610a09565b9050919050565b7f656e6441756374696f6e2068617320616c7265616479206265656e2063616c6c5f8201527f65642e0000000000000000000000000000000000000000000000000000000000602082015250565b5f610aa3602383610812565b9150610aae82610a49565b604082019050919050565b5f6020820190508181035f830152610ad081610a97565b905091905056fea264697066735822122007a7a49c7185584dfd520f42de9e1be41e7a7515190666fa3623e11c495498c764736f6c634300081a0033",
					"opcodes": "PUSH1 0x80 PUSH1 0x40 MSTORE CALLVALUE DUP1 ISZERO PUSH2 0xF JUMPI PUSH0 DUP1 REVERT JUMPDEST POP PUSH1 0x40 MLOAD PUSH2 0xC64 CODESIZE SUB DUP1 PUSH2 0xC64 DUP4 CODECOPY DUP2 DUP2 ADD PUSH1 0x40 MSTORE DUP2 ADD SWAP1 PUSH2 0x31 SWAP2 SWAP1 PUSH2 0xBF JUMP JUMPDEST CALLER PUSH0 DUP1 PUSH2 0x100 EXP DUP2 SLOAD DUP2 PUSH20 0xFFFFFFFFFFFFFFFFFFFFFFFFFFFFFFFFFFFFFFFF MUL NOT AND SWAP1 DUP4 PUSH20 0xFFFFFFFFFFFFFFFFFFFFFFFFFFFFFFFFFFFFFFFF AND MUL OR SWAP1 SSTORE POP DUP1 TIMESTAMP PUSH2 0x7C SWAP2 SWAP1 PUSH2 0x117 JUMP JUMPDEST PUSH1 0x3 DUP2 SWAP1 SSTORE POP POP PUSH2 0x14A JUMP JUMPDEST PUSH0 DUP1 REVERT JUMPDEST PUSH0 DUP2 SWAP1 POP SWAP2 SWAP1 POP JUMP JUMPDEST PUSH2 0x9E DUP2 PUSH2 0x8C JUMP JUMPDEST DUP2 EQ PUSH2 0xA8 JUMPI PUSH0 DUP1 REVERT JUMPDEST POP JUMP JUMPDEST PUSH0 DUP2 MLOAD SWAP1 POP PUSH2 0xB9 DUP2 PUSH2 0x95 JUMP JUMPDEST SWAP3 SWAP2 POP POP JUMP JUMPDEST PUSH0 PUSH1 0x20 DUP3 DUP5 SUB SLT ISZERO PUSH2 0xD4 JUMPI PUSH2 0xD3 PUSH2 0x88 JUMP JUMPDEST JUMPDEST PUSH0 PUSH2 0xE1 DUP5 DUP3 DUP6 ADD PUSH2 0xAB JUMP JUMPDEST SWAP2 POP POP SWAP3 SWAP2 POP POP JUMP JUMPDEST PUSH32 0x4E487B7100000000000000000000000000000000000000000000000000000000 PUSH0 MSTORE PUSH1 0x11 PUSH1 0x4 MSTORE PUSH1 0x24 PUSH0 REVERT JUMPDEST PUSH0 PUSH2 0x121 DUP3 PUSH2 0x8C JUMP JUMPDEST SWAP2 POP PUSH2 0x12C DUP4 PUSH2 0x8C JUMP JUMPDEST SWAP3 POP DUP3 DUP3 ADD SWAP1 POP DUP1 DUP3 GT ISZERO PUSH2 0x144 JUMPI PUSH2 0x143 PUSH2 0xEA JUMP JUMPDEST JUMPDEST SWAP3 SWAP2 POP POP JUMP JUMPDEST PUSH2 0xB0D DUP1 PUSH2 0x157 PUSH0 CODECOPY PUSH0 RETURN INVALID PUSH1 0x80 PUSH1 0x40 MSTORE PUSH1 0x4 CALLDATASIZE LT PUSH2 0x85 JUMPI PUSH0 CALLDATALOAD PUSH1 0xE0 SHR DUP1 PUSH4 0x4B449CBA GT PUSH2 0x58 JUMPI DUP1 PUSH4 0x4B449CBA EQ PUSH2 0x123 JUMPI DUP1 PUSH4 0x8DA5CB5B EQ PUSH2 0x14D JUMPI DUP1 PUSH4 0x91F90157 EQ PUSH2 0x177 JUMPI DUP1 PUSH4 0xD57BDE79 EQ PUSH2 0x1A1 JUMPI DUP1 PUSH4 0xFE67A54B EQ PUSH2 0x1CB JUMPI PUSH2 0x85 JUMP JUMPDEST DUP1 PUSH4 0x12FA6FEB EQ PUSH2 0x89 JUMPI DUP1 PUSH4 0x1998AEEF EQ PUSH2 0xB3 JUMPI DUP1 PUSH4 0x26B387BB EQ PUSH2 0xBD JUMPI DUP1 PUSH4 0x3CCFD60B EQ PUSH2 0xF9 JUMPI JUMPDEST PUSH0 DUP1 REVERT JUMPDEST CALLVALUE DUP1 ISZERO PUSH2 0x94 JUMPI PUSH0 DUP1 REVERT JUMPDEST POP PUSH2 0x9D PUSH2 0x1E1 JUMP JUMPDEST PUSH1 0x40 MLOAD PUSH2 0xAA SWAP2 SWAP1 PUSH2 0x717 JUMP JUMPDEST PUSH1 0x40 MLOAD DUP1 SWAP2 SUB SWAP1 RETURN JUMPDEST PUSH2 0xBB PUSH2 0x1F3 JUMP JUMPDEST STOP JUMPDEST CALLVALUE DUP1 ISZERO PUSH2 0xC8 JUMPI PUSH0 DUP1 REVERT JUMPDEST POP PUSH2 0xE3 PUSH1 0x4 DUP1 CALLDATASIZE SUB DUP2 ADD SWAP1 PUSH2 0xDE SWAP2 SWAP1 PUSH2 0x78E JUMP JUMPDEST PUSH2 0x37D JUMP JUMPDEST PUSH1 0x40 MLOAD PUSH2 0xF0 SWAP2 SWAP1 PUSH2 0x7D1 JUMP JUMPDEST PUSH1 0x40 MLOAD DUP1 SWAP2 SUB SWAP1 RETURN JUMPDEST CALLVALUE DUP1 ISZERO PUSH2 0x104 JUMPI PUSH0 DUP1 REVERT JUMPDEST POP PUSH2 0x10D PUSH2 0x392 JUMP JUMPDEST PUSH1 0x40 MLOAD PUSH2 0x11A SWAP2 SWAP1 PUSH2 0x717 JUMP JUMPDEST PUSH1 0x40 MLOAD DUP1 SWAP2 SUB SWAP1 RETURN JUMPDEST CALLVALUE DUP1 ISZERO PUSH2 0x12E JUMPI PUSH0 DUP1 REVERT JUMPDEST POP PUSH2 0x137 PUSH2 0x4AB JUMP JUMPDEST PUSH1 0x40 MLOAD PUSH2 0x144 SWAP2 SWAP1 PUSH2 0x7D1 JUMP JUMPDEST PUSH1 0x40 MLOAD DUP1 SWAP2 SUB SWAP1 RETURN JUMPDEST CALLVALUE DUP1 ISZERO PUSH2 0x158 JUMPI PUSH0 DUP1 REVERT JUMPDEST POP PUSH2 0x161 PUSH2 0x4B1 JUMP JUMPDEST PUSH1 0x40 MLOAD PUSH2 0x16E SWAP2 SWAP1 PUSH2 0x7F9 JUMP JUMPDEST PUSH1 0x40 MLOAD DUP1 SWAP2 SUB SWAP1 RETURN JUMPDEST CALLVALUE DUP1 ISZERO PUSH2 0x182 JUMPI PUSH0 DUP1 REVERT JUMPDEST POP PUSH2 0x18B PUSH2 0x4D4 JUMP JUMPDEST PUSH1 0x40 MLOAD PUSH2 0x198 SWAP2 SWAP1 PUSH2 0x7F9 JUMP JUMPDEST PUSH1 0x40 MLOAD DUP1 SWAP2 SUB SWAP1 RETURN JUMPDEST CALLVALUE DUP1 ISZERO PUSH2 0x1AC JUMPI PUSH0 DUP1 REVERT JUMPDEST POP PUSH2 0x1B5 PUSH2 0x4F9 JUMP JUMPDEST PUSH1 0x40 MLOAD PUSH2 0x1C2 SWAP2 SWAP1 PUSH2 0x7D1 JUMP JUMPDEST PUSH1 0x40 MLOAD DUP1 SWAP2 SUB SWAP1 RETURN JUMPDEST CALLVALUE DUP1 ISZERO PUSH2 0x1D6 JUMPI PUSH0 DUP1 REVERT JUMPDEST POP PUSH2 0x1DF PUSH2 0x4FF JUMP JUMPDEST STOP JUMPDEST PUSH1 0x4 PUSH0 SWAP1 SLOAD SWAP1 PUSH2 0x100 EXP SWAP1 DIV PUSH1 0xFF AND DUP2 JUMP JUMPDEST PUSH1 0x3 SLOAD TIMESTAMP LT PUSH2 0x237 JUMPI PUSH1 0x40 MLOAD PUSH32 0x8C379A000000000000000000000000000000000000000000000000000000000 DUP2 MSTORE PUSH1 0x4 ADD PUSH2 0x22E SWAP1 PUSH2 0x86C JUMP JUMPDEST PUSH1 0x40 MLOAD DUP1 SWAP2 SUB SWAP1 REVERT JUMPDEST PUSH1 0x2 SLOAD CALLVALUE GT PUSH2 0x27B JUMPI PUSH1 0x40 MLOAD PUSH32 0x8C379A000000000000000000000000000000000000000000000000000000000 DUP2 MSTORE PUSH1 0x4 ADD PUSH2 0x272 SWAP1 PUSH2 0x8D4 JUMP JUMPDEST PUSH1 0x40 MLOAD DUP1 SWAP2 SUB SWAP1 REVERT JUMPDEST PUSH0 PUSH1 0x2 SLOAD EQ PUSH2 0x2FB JUMPI PUSH1 0x2 SLOAD PUSH1 0x5 PUSH0 PUSH1 0x1 PUSH0 SWAP1 SLOAD SWAP1 PUSH2 0x100 EXP SWAP1 DIV PUSH20 0xFFFFFFFFFFFFFFFFFFFFFFFFFFFFFFFFFFFFFFFF AND PUSH20 0xFFFFFFFFFFFFFFFFFFFFFFFFFFFFFFFFFFFFFFFF AND PUSH20 0xFFFFFFFFFFFFFFFFFFFFFFFFFFFFFFFFFFFFFFFF AND DUP2 MSTORE PUSH1 0x20 ADD SWAP1 DUP2 MSTORE PUSH1 0x20 ADD PUSH0 KECCAK256 PUSH0 DUP3 DUP3 SLOAD PUSH2 0x2F3 SWAP2 SWAP1 PUSH2 0x91F JUMP JUMPDEST SWAP3 POP POP DUP2 SWAP1 SSTORE POP JUMPDEST CALLER PUSH1 0x1 PUSH0 PUSH2 0x100 EXP DUP2 SLOAD DUP2 PUSH20 0xFFFFFFFFFFFFFFFFFFFFFFFFFFFFFFFFFFFFFFFF MUL NOT AND SWAP1 DUP4 PUSH20 0xFFFFFFFFFFFFFFFFFFFFFFFFFFFFFFFFFFFFFFFF AND MUL OR SWAP1 SSTORE POP CALLVALUE PUSH1 0x2 DUP2 SWAP1 SSTORE POP PUSH32 0xF4757A49B326036464BEC6FE419A4AE38C8A02CE3E68BF0809674F6AAB8AD300 CALLER CALLVALUE PUSH1 0x40 MLOAD PUSH2 0x373 SWAP3 SWAP2 SWAP1 PUSH2 0x952 JUMP JUMPDEST PUSH1 0x40 MLOAD DUP1 SWAP2 SUB SWAP1 LOG1 JUMP JUMPDEST PUSH1 0x5 PUSH1 0x20 MSTORE DUP1 PUSH0 MSTORE PUSH1 0x40 PUSH0 KECCAK256 PUSH0 SWAP2 POP SWAP1 POP SLOAD DUP2 JUMP JUMPDEST PUSH0 DUP1 PUSH1 0x5 PUSH0 CALLER PUSH20 0xFFFFFFFFFFFFFFFFFFFFFFFFFFFFFFFFFFFFFFFF AND PUSH20 0xFFFFFFFFFFFFFFFFFFFFFFFFFFFFFFFFFFFFFFFF AND DUP2 MSTORE PUSH1 0x20 ADD SWAP1 DUP2 MSTORE PUSH1 0x20 ADD PUSH0 KECCAK256 SLOAD SWAP1 POP PUSH0 DUP2 GT ISZERO PUSH2 0x4A2 JUMPI PUSH0 PUSH1 0x5 PUSH0 CALLER PUSH20 0xFFFFFFFFFFFFFFFFFFFFFFFFFFFFFFFFFFFFFFFF AND PUSH20 0xFFFFFFFFFFFFFFFFFFFFFFFFFFFFFFFFFFFFFFFF AND DUP2 MSTORE PUSH1 0x20 ADD SWAP1 DUP2 MSTORE PUSH1 0x20 ADD PUSH0 KECCAK256 DUP2 SWAP1 SSTORE POP CALLER PUSH20 0xFFFFFFFFFFFFFFFFFFFFFFFFFFFFFFFFFFFFFFFF AND PUSH2 0x8FC DUP3 SWAP1 DUP2 ISZERO MUL SWAP1 PUSH1 0x40 MLOAD PUSH0 PUSH1 0x40 MLOAD DUP1 DUP4 SUB DUP2 DUP6 DUP9 DUP9 CALL SWAP4 POP POP POP POP PUSH2 0x4A1 JUMPI DUP1 PUSH1 0x5 PUSH0 CALLER PUSH20 0xFFFFFFFFFFFFFFFFFFFFFFFFFFFFFFFFFFFFFFFF AND PUSH20 0xFFFFFFFFFFFFFFFFFFFFFFFFFFFFFFFFFFFFFFFF AND DUP2 MSTORE PUSH1 0x20 ADD SWAP1 DUP2 MSTORE PUSH1 0x20 ADD PUSH0 KECCAK256 DUP2 SWAP1 SSTORE POP PUSH0 SWAP2 POP POP PUSH2 0x4A8 JUMP JUMPDEST JUMPDEST PUSH1 0x1 SWAP2 POP POP JUMPDEST SWAP1 JUMP JUMPDEST PUSH1 0x3 SLOAD DUP2 JUMP JUMPDEST PUSH0 DUP1 SLOAD SWAP1 PUSH2 0x100 EXP SWAP1 DIV PUSH20 0xFFFFFFFFFFFFFFFFFFFFFFFFFFFFFFFFFFFFFFFF AND DUP2 JUMP JUMPDEST PUSH1 0x1 PUSH0 SWAP1 SLOAD SWAP1 PUSH2 0x100 EXP SWAP1 DIV PUSH20 0xFFFFFFFFFFFFFFFFFFFFFFFFFFFFFFFFFFFFFFFF AND DUP2 JUMP JUMPDEST PUSH1 0x2 SLOAD DUP2 JUMP JUMPDEST PUSH0 DUP1 SLOAD SWAP1 PUSH2 0x100 EXP SWAP1 DIV PUSH20 0xFFFFFFFFFFFFFFFFFFFFFFFFFFFFFFFFFFFFFFFF AND PUSH20 0xFFFFFFFFFFFFFFFFFFFFFFFFFFFFFFFFFFFFFFFF AND CALLER PUSH20 0xFFFFFFFFFFFFFFFFFFFFFFFFFFFFFFFFFFFFFFFF AND EQ PUSH2 0x58C JUMPI PUSH1 0x40 MLOAD PUSH32 0x8C379A000000000000000000000000000000000000000000000000000000000 DUP2 MSTORE PUSH1 0x4 ADD PUSH2 0x583 SWAP1 PUSH2 0x9C3 JUMP JUMPDEST PUSH1 0x40 MLOAD DUP1 SWAP2 SUB SWAP1 REVERT JUMPDEST PUSH1 0x3 SLOAD TIMESTAMP LT ISZERO PUSH2 0x5D1 JUMPI PUSH1 0x40 MLOAD PUSH32 0x8C379A000000000000000000000000000000000000000000000000000000000 DUP2 MSTORE PUSH1 0x4 ADD PUSH2 0x5C8 SWAP1 PUSH2 0xA2B JUMP JUMPDEST PUSH1 0x40 MLOAD DUP1 SWAP2 SUB SWAP1 REVERT JUMPDEST PUSH1 0x4 PUSH0 SWAP1 SLOAD SWAP1 PUSH2 0x100 EXP SWAP1 DIV PUSH1 0xFF AND ISZERO PUSH2 0x620 JUMPI PUSH1 0x40 MLOAD PUSH32 0x8C379A000000000000000000000000000000000000000000000000000000000 DUP2 MSTORE PUSH1 0x4 ADD PUSH2 0x617 SWAP1 PUSH2 0xAB9 JUMP JUMPDEST PUSH1 0x40 MLOAD DUP1 SWAP2 SUB SWAP1 REVERT JUMPDEST PUSH1 0x1 PUSH1 0x4 PUSH0 PUSH2 0x100 EXP DUP2 SLOAD DUP2 PUSH1 0xFF MUL NOT AND SWAP1 DUP4 ISZERO ISZERO MUL OR SWAP1 SSTORE POP PUSH32 0xDAEC4582D5D9595688C8C98545FDD1C696D41C6AEAEB636737E84ED2F5C00EDA PUSH1 0x1 PUSH0 SWAP1 SLOAD SWAP1 PUSH2 0x100 EXP SWAP1 DIV PUSH20 0xFFFFFFFFFFFFFFFFFFFFFFFFFFFFFFFFFFFFFFFF AND PUSH1 0x2 SLOAD PUSH1 0x40 MLOAD PUSH2 0x68E SWAP3 SWAP2 SWAP1 PUSH2 0x952 JUMP JUMPDEST PUSH1 0x40 MLOAD DUP1 SWAP2 SUB SWAP1 LOG1 PUSH0 DUP1 SLOAD SWAP1 PUSH2 0x100 EXP SWAP1 DIV PUSH20 0xFFFFFFFFFFFFFFFFFFFFFFFFFFFFFFFFFFFFFFFF AND PUSH20 0xFFFFFFFFFFFFFFFFFFFFFFFFFFFFFFFFFFFFFFFF AND PUSH2 0x8FC PUSH1 0x2 SLOAD SWAP1 DUP2 ISZERO MUL SWAP1 PUSH1 0x40 MLOAD PUSH0 PUSH1 0x40 MLOAD DUP1 DUP4 SUB DUP2 DUP6 DUP9 DUP9 CALL SWAP4 POP POP POP POP ISZERO DUP1 ISZERO PUSH2 0x6FA JUMPI RETURNDATASIZE PUSH0 DUP1 RETURNDATACOPY RETURNDATASIZE PUSH0 REVERT JUMPDEST POP JUMP JUMPDEST PUSH0 DUP2 ISZERO ISZERO SWAP1 POP SWAP2 SWAP1 POP JUMP JUMPDEST PUSH2 0x711 DUP2 PUSH2 0x6FD JUMP JUMPDEST DUP3 MSTORE POP POP JUMP JUMPDEST PUSH0 PUSH1 0x20 DUP3 ADD SWAP1 POP PUSH2 0x72A PUSH0 DUP4 ADD DUP5 PUSH2 0x708 JUMP JUMPDEST SWAP3 SWAP2 POP POP JUMP JUMPDEST PUSH0 DUP1 REVERT JUMPDEST PUSH0 PUSH20 0xFFFFFFFFFFFFFFFFFFFFFFFFFFFFFFFFFFFFFFFF DUP3 AND SWAP1 POP SWAP2 SWAP1 POP JUMP JUMPDEST PUSH0 PUSH2 0x75D DUP3 PUSH2 0x734 JUMP JUMPDEST SWAP1 POP SWAP2 SWAP1 POP JUMP JUMPDEST PUSH2 0x76D DUP2 PUSH2 0x753 JUMP JUMPDEST DUP2 EQ PUSH2 0x777 JUMPI PUSH0 DUP1 REVERT JUMPDEST POP JUMP JUMPDEST PUSH0 DUP2 CALLDATALOAD SWAP1 POP PUSH2 0x788 DUP2 PUSH2 0x764 JUMP JUMPDEST SWAP3 SWAP2 POP POP JUMP JUMPDEST PUSH0 PUSH1 0x20 DUP3 DUP5 SUB SLT ISZERO PUSH2 0x7A3 JUMPI PUSH2 0x7A2 PUSH2 0x730 JUMP JUMPDEST JUMPDEST PUSH0 PUSH2 0x7B0 DUP5 DUP3 DUP6 ADD PUSH2 0x77A JUMP JUMPDEST SWAP2 POP POP SWAP3 SWAP2 POP POP JUMP JUMPDEST PUSH0 DUP2 SWAP1 POP SWAP2 SWAP1 POP JUMP JUMPDEST PUSH2 0x7CB DUP2 PUSH2 0x7B9 JUMP JUMPDEST DUP3 MSTORE POP POP JUMP JUMPDEST PUSH0 PUSH1 0x20 DUP3 ADD SWAP1 POP PUSH2 0x7E4 PUSH0 DUP4 ADD DUP5 PUSH2 0x7C2 JUMP JUMPDEST SWAP3 SWAP2 POP POP JUMP JUMPDEST PUSH2 0x7F3 DUP2 PUSH2 0x753 JUMP JUMPDEST DUP3 MSTORE POP POP JUMP JUMPDEST PUSH0 PUSH1 0x20 DUP3 ADD SWAP1 POP PUSH2 0x80C PUSH0 DUP4 ADD DUP5 PUSH2 0x7EA JUMP JUMPDEST SWAP3 SWAP2 POP POP JUMP JUMPDEST PUSH0 DUP3 DUP3 MSTORE PUSH1 0x20 DUP3 ADD SWAP1 POP SWAP3 SWAP2 POP POP JUMP JUMPDEST PUSH32 0x41756374696F6E20616C726561647920656E6465642E00000000000000000000 PUSH0 DUP3 ADD MSTORE POP JUMP JUMPDEST PUSH0 PUSH2 0x856 PUSH1 0x16 DUP4 PUSH2 0x812 JUMP JUMPDEST SWAP2 POP PUSH2 0x861 DUP3 PUSH2 0x822 JUMP JUMPDEST PUSH1 0x20 DUP3 ADD SWAP1 POP SWAP2 SWAP1 POP JUMP JUMPDEST PUSH0 PUSH1 0x20 DUP3 ADD SWAP1 POP DUP2 DUP2 SUB PUSH0 DUP4 ADD MSTORE PUSH2 0x883 DUP2 PUSH2 0x84A JUMP JUMPDEST SWAP1 POP SWAP2 SWAP1 POP JUMP JUMPDEST PUSH32 0x546865726520616C7265616479206973206120686967686572206269642E0000 PUSH0 DUP3 ADD MSTORE POP JUMP JUMPDEST PUSH0 PUSH2 0x8BE PUSH1 0x1E DUP4 PUSH2 0x812 JUMP JUMPDEST SWAP2 POP PUSH2 0x8C9 DUP3 PUSH2 0x88A JUMP JUMPDEST PUSH1 0x20 DUP3 ADD SWAP1 POP SWAP2 SWAP1 POP JUMP JUMPDEST PUSH0 PUSH1 0x20 DUP3 ADD SWAP1 POP DUP2 DUP2 SUB PUSH0 DUP4 ADD MSTORE PUSH2 0x8EB DUP2 PUSH2 0x8B2 JUMP JUMPDEST SWAP1 POP SWAP2 SWAP1 POP JUMP JUMPDEST PUSH32 0x4E487B7100000000000000000000000000000000000000000000000000000000 PUSH0 MSTORE PUSH1 0x11 PUSH1 0x4 MSTORE PUSH1 0x24 PUSH0 REVERT JUMPDEST PUSH0 PUSH2 0x929 DUP3 PUSH2 0x7B9 JUMP JUMPDEST SWAP2 POP PUSH2 0x934 DUP4 PUSH2 0x7B9 JUMP JUMPDEST SWAP3 POP DUP3 DUP3 ADD SWAP1 POP DUP1 DUP3 GT ISZERO PUSH2 0x94C JUMPI PUSH2 0x94B PUSH2 0x8F2 JUMP JUMPDEST JUMPDEST SWAP3 SWAP2 POP POP JUMP JUMPDEST PUSH0 PUSH1 0x40 DUP3 ADD SWAP1 POP PUSH2 0x965 PUSH0 DUP4 ADD DUP6 PUSH2 0x7EA JUMP JUMPDEST PUSH2 0x972 PUSH1 0x20 DUP4 ADD DUP5 PUSH2 0x7C2 JUMP JUMPDEST SWAP4 SWAP3 POP POP POP JUMP JUMPDEST PUSH32 0x4F6E6C79206F776E65722063616E2063616C6C20746869730000000000000000 PUSH0 DUP3 ADD MSTORE POP JUMP JUMPDEST PUSH0 PUSH2 0x9AD PUSH1 0x18 DUP4 PUSH2 0x812 JUMP JUMPDEST SWAP2 POP PUSH2 0x9B8 DUP3 PUSH2 0x979 JUMP JUMPDEST PUSH1 0x20 DUP3 ADD SWAP1 POP SWAP2 SWAP1 POP JUMP JUMPDEST PUSH0 PUSH1 0x20 DUP3 ADD SWAP1 POP DUP2 DUP2 SUB PUSH0 DUP4 ADD MSTORE PUSH2 0x9DA DUP2 PUSH2 0x9A1 JUMP JUMPDEST SWAP1 POP SWAP2 SWAP1 POP JUMP JUMPDEST PUSH32 0x41756374696F6E206E6F742079657420656E6465642E00000000000000000000 PUSH0 DUP3 ADD MSTORE POP JUMP JUMPDEST PUSH0 PUSH2 0xA15 PUSH1 0x16 DUP4 PUSH2 0x812 JUMP JUMPDEST SWAP2 POP PUSH2 0xA20 DUP3 PUSH2 0x9E1 JUMP JUMPDEST PUSH1 0x20 DUP3 ADD SWAP1 POP SWAP2 SWAP1 POP JUMP JUMPDEST PUSH0 PUSH1 0x20 DUP3 ADD SWAP1 POP DUP2 DUP2 SUB PUSH0 DUP4 ADD MSTORE PUSH2 0xA42 DUP2 PUSH2 0xA09 JUMP JUMPDEST SWAP1 POP SWAP2 SWAP1 POP JUMP JUMPDEST PUSH32 0x656E6441756374696F6E2068617320616C7265616479206265656E2063616C6C PUSH0 DUP3 ADD MSTORE PUSH32 0x65642E0000000000000000000000000000000000000000000000000000000000 PUSH1 0x20 DUP3 ADD MSTORE POP JUMP JUMPDEST PUSH0 PUSH2 0xAA3 PUSH1 0x23 DUP4 PUSH2 0x812 JUMP JUMPDEST SWAP2 POP PUSH2 0xAAE DUP3 PUSH2 0xA49 JUMP JUMPDEST PUSH1 0x40 DUP3 ADD SWAP1 POP SWAP2 SWAP1 POP JUMP JUMPDEST PUSH0 PUSH1 0x20 DUP3 ADD SWAP1 POP DUP2 DUP2 SUB PUSH0 DUP4 ADD MSTORE PUSH2 0xAD0 DUP2 PUSH2 0xA97 JUMP JUMPDEST SWAP1 POP SWAP2 SWAP1 POP JUMP INVALID LOG2 PUSH5 0x6970667358 0x22 SLT KECCAK256 SMOD 0xA7 LOG4 SWAP13 PUSH18 0x85584DFD520F42DE9E1BE41E7A7515190666 STATICCALL CALLDATASIZE 0x23 0xE1 SHR BLOBHASH SLOAD SWAP9 0xC7 PUSH5 0x736F6C6343 STOP ADDMOD BYTE STOP CALLER "
				},
				"gasEstimates": {
					"creation": {
						"codeDepositCost": "565800",
						"executionCost": "infinite",
						"totalCost": "infinite"
					},
					"external": {
						"auctionEndTime()": "2425",
						"bid()": "infinite",
						"endAuction()": "infinite",
						"ended()": "2467",
						"highestBid()": "2491",
						"highestBidder()": "2552",
						"owner()": "2527",
						"pendingReturns(address)": "2847",
						"withdraw()": "infinite"
					}
				},
				"methodIdentifiers": {
					"auctionEndTime()": "4b449cba",
					"bid()": "1998aeef",
					"endAuction()": "fe67a54b",
					"ended()": "12fa6feb",
					"highestBid()": "d57bde79",
					"highestBidder()": "91f90157",
					"owner()": "8da5cb5b",
					"pendingReturns(address)": "26b387bb",
					"withdraw()": "3ccfd60b"
				}
			},
			"storageLayout": {
				"storage": [
					{
						"astId": 4,
						"contract": "Day-29/code1.sol:Auction",
						"label": "owner",
						"offset": 0,
						"slot": "0",
						"type": "t_address"
					},
					{
						"astId": 6,
						"contract": "Day-29/code1.sol:Auction",
						"label": "highestBidder",
						"offset": 0,
						"slot": "1",
						"type": "t_address"
					},
					{
						"astId": 8,
						"contract": "Day-29/code1.sol:Auction",
						"label": "highestBid",
						"offset": 0,
						"slot": "2",
						"type": "t_uint256"
					},
					{
						"astId": 10,
						"contract": "Day-29/code1.sol:Auction",
						"label": "auctionEndTime",
						"offset": 0,
						"slot": "3",
						"type": "t_uint256"
					},
					{
						"astId": 12,
						"contract": "Day-29/code1.sol:Auction",
						"label": "ended",
						"offset": 0,
						"slot": "4",
						"type": "t_bool"
					},
					{
						"astId": 16,
						"contract": "Day-29/code1.sol:Auction",
						"label": "pendingReturns",
						"offset": 0,
						"slot": "5",
						"type": "t_mapping(t_address,t_uint256)"
					}
				],
				"types": {
					"t_address": {
						"encoding": "inplace",
						"label": "address",
						"numberOfBytes": "20"
					},
					"t_bool": {
						"encoding": "inplace",
						"label": "bool",
						"numberOfBytes": "1"
					},
					"t_mapping(t_address,t_uint256)": {
						"encoding": "mapping",
						"key": "t_address",
						"label": "mapping(address => uint256)",
						"numberOfBytes": "32",
						"value": "t_uint256"
					},
					"t_uint256": {
						"encoding": "inplace",
						"label": "uint256",
						"numberOfBytes": "32"
					}
				}
			},
			"userdoc": {
				"kind": "user",
				"methods": {
					"bid()": {
						"notice": "Place a bid on the auction"
					},
					"constructor": {
						"notice": "Initialize the auction with a bidding duration in seconds"
					},
					"endAuction()": {
						"notice": "End the auction and send funds to the owner"
					},
					"withdraw()": {
						"notice": "Withdraw your pending returns if you were outbid"
					}
				},
				"notice": "This contract implements a simple auction where bidders can place bids and the highest bidder wins.",
				"version": 1
			}
		}
	}
}