{
	"Day-26/code1.sol": {
		"EtherLending": {
			"abi": [
				{
					"inputs": [],
					"stateMutability": "nonpayable",
					"type": "constructor"
				},
				{
					"anonymous": false,
					"inputs": [
						{
							"indexed": true,
							"internalType": "address",
							"name": "borrower",
							"type": "address"
						},
						{
							"indexed": false,
							"internalType": "uint256",
							"name": "amount",
							"type": "uint256"
						}
					],
					"name": "Borrowed",
					"type": "event"
				},
				{
					"anonymous": false,
					"inputs": [
						{
							"indexed": true,
							"internalType": "address",
							"name": "lender",
							"type": "address"
						},
						{
							"indexed": false,
							"internalType": "uint256",
							"name": "amount",
							"type": "uint256"
						}
					],
					"name": "Deposited",
					"type": "event"
				},
				{
					"anonymous": false,
					"inputs": [
						{
							"indexed": true,
							"internalType": "address",
							"name": "borrower",
							"type": "address"
						},
						{
							"indexed": false,
							"internalType": "uint256",
							"name": "amount",
							"type": "uint256"
						},
						{
							"indexed": false,
							"internalType": "uint256",
							"name": "interest",
							"type": "uint256"
						}
					],
					"name": "Repaid",
					"type": "event"
				},
				{
					"anonymous": false,
					"inputs": [
						{
							"indexed": true,
							"internalType": "address",
							"name": "lender",
							"type": "address"
						},
						{
							"indexed": false,
							"internalType": "uint256",
							"name": "amount",
							"type": "uint256"
						}
					],
					"name": "Withdrawn",
					"type": "event"
				},
				{
					"inputs": [],
					"name": "INTEREST_RATE",
					"outputs": [
						{
							"internalType": "uint256",
							"name": "",
							"type": "uint256"
						}
					],
					"stateMutability": "view",
					"type": "function"
				},
				{
					"inputs": [],
					"name": "SECONDS_PER_YEAR",
					"outputs": [
						{
							"internalType": "uint256",
							"name": "",
							"type": "uint256"
						}
					],
					"stateMutability": "view",
					"type": "function"
				},
				{
					"inputs": [
						{
							"internalType": "uint256",
							"name": "amount",
							"type": "uint256"
						}
					],
					"name": "borrow",
					"outputs": [],
					"stateMutability": "nonpayable",
					"type": "function"
				},
				{
					"inputs": [
						{
							"internalType": "address",
							"name": "",
							"type": "address"
						},
						{
							"internalType": "uint256",
							"name": "",
							"type": "uint256"
						}
					],
					"name": "borrowers",
					"outputs": [
						{
							"internalType": "address",
							"name": "borrower",
							"type": "address"
						},
						{
							"internalType": "uint256",
							"name": "amount",
							"type": "uint256"
						},
						{
							"internalType": "uint256",
							"name": "interestRate",
							"type": "uint256"
						},
						{
							"internalType": "uint256",
							"name": "startTime",
							"type": "uint256"
						},
						{
							"internalType": "bool",
							"name": "repaid",
							"type": "bool"
						}
					],
					"stateMutability": "view",
					"type": "function"
				},
				{
					"inputs": [],
					"name": "deposit",
					"outputs": [],
					"stateMutability": "payable",
					"type": "function"
				},
				{
					"inputs": [
						{
							"internalType": "address",
							"name": "borrower",
							"type": "address"
						},
						{
							"internalType": "uint256",
							"name": "index",
							"type": "uint256"
						}
					],
					"name": "getLoan",
					"outputs": [
						{
							"internalType": "uint256",
							"name": "amount",
							"type": "uint256"
						},
						{
							"internalType": "uint256",
							"name": "interestRate",
							"type": "uint256"
						},
						{
							"internalType": "uint256",
							"name": "startTime",
							"type": "uint256"
						},
						{
							"internalType": "bool",
							"name": "repaid",
							"type": "bool"
						}
					],
					"stateMutability": "view",
					"type": "function"
				},
				{
					"inputs": [
						{
							"internalType": "address",
							"name": "borrower",
							"type": "address"
						}
					],
					"name": "getLoanCount",
					"outputs": [
						{
							"internalType": "uint256",
							"name": "",
							"type": "uint256"
						}
					],
					"stateMutability": "view",
					"type": "function"
				},
				{
					"inputs": [
						{
							"internalType": "address",
							"name": "",
							"type": "address"
						}
					],
					"name": "lenders",
					"outputs": [
						{
							"internalType": "uint256",
							"name": "",
							"type": "uint256"
						}
					],
					"stateMutability": "view",
					"type": "function"
				},
				{
					"inputs": [],
					"name": "owner",
					"outputs": [
						{
							"internalType": "address",
							"name": "",
							"type": "address"
						}
					],
					"stateMutability": "view",
					"type": "function"
				},
				{
					"inputs": [
						{
							"internalType": "uint256",
							"name": "amount",
							"type": "uint256"
						}
					],
					"name": "recoverETH",
					"outputs": [],
					"stateMutability": "nonpayable",
					"type": "function"
				},
				{
					"inputs": [
						{
							"internalType": "uint256",
							"name": "loanIndex",
							"type": "uint256"
						}
					],
					"name": "repay",
					"outputs": [],
					"stateMutability": "payable",
					"type": "function"
				},
				{
					"inputs": [],
					"name": "totalLiquidity",
					"outputs": [
						{
							"internalType": "uint256",
							"name": "",
							"type": "uint256"
						}
					],
					"stateMutability": "view",
					"type": "function"
				},
				{
					"inputs": [
						{
							"internalType": "uint256",
							"name": "amount",
							"type": "uint256"
						}
					],
					"name": "withdraw",
					"outputs": [],
					"stateMutability": "nonpayable",
					"type": "function"
				}
			],
			"devdoc": {
				"kind": "dev",
				"methods": {},
				"version": 1
			},
			"evm": {
				"assembly": "    /* \"Day-26/code1.sol\":60:4472  contract EtherLending {... */\n  mstore(0x40, 0x80)\n    /* \"Day-26/code1.sol\":924:975  constructor() {... */\n  callvalue\n  dup1\n  iszero\n  tag_1\n  jumpi\n  0x00\n  dup1\n  revert\ntag_1:\n  pop\n    /* \"Day-26/code1.sol\":957:967  msg.sender */\n  caller\n    /* \"Day-26/code1.sol\":949:954  owner */\n  0x00\n  dup1\n    /* \"Day-26/code1.sol\":949:967  owner = msg.sender */\n  0x0100\n  exp\n  dup2\n  sload\n  dup2\n  0xffffffffffffffffffffffffffffffffffffffff\n  mul\n  not\n  and\n  swap1\n  dup4\n  0xffffffffffffffffffffffffffffffffffffffff\n  and\n  mul\n  or\n  swap1\n  sstore\n  pop\n    /* \"Day-26/code1.sol\":60:4472  contract EtherLending {... */\n  dataSize(sub_0)\n  dup1\n  dataOffset(sub_0)\n  0x00\n  codecopy\n  0x00\n  return\nstop\n\nsub_0: assembly {\n        /* \"Day-26/code1.sol\":60:4472  contract EtherLending {... */\n      mstore(0x40, 0x80)\n      jumpi(tag_1, lt(calldatasize, 0x04))\n      shr(0xe0, calldataload(0x00))\n      dup1\n      0xa1c51586\n      gt\n      tag_15\n      jumpi\n      dup1\n      0xd3335553\n      gt\n      tag_16\n      jumpi\n      dup1\n      0xd3335553\n      eq\n      tag_11\n      jumpi\n      dup1\n      0xe6a69ab8\n      eq\n      tag_12\n      jumpi\n      dup1\n      0xf335ed76\n      eq\n      tag_13\n      jumpi\n      dup1\n      0xf53c61e0\n      eq\n      tag_14\n      jumpi\n      jump(tag_1)\n    tag_16:\n      dup1\n      0xa1c51586\n      eq\n      tag_8\n      jumpi\n      dup1\n      0xc5ebeaec\n      eq\n      tag_9\n      jumpi\n      dup1\n      0xd0e30db0\n      eq\n      tag_10\n      jumpi\n      jump(tag_1)\n    tag_15:\n      dup1\n      0x15770f92\n      eq\n      tag_2\n      jumpi\n      dup1\n      0x28fd10d7\n      eq\n      tag_3\n      jumpi\n      dup1\n      0x2e1a7d4d\n      eq\n      tag_4\n      jumpi\n      dup1\n      0x371fd8e6\n      eq\n      tag_5\n      jumpi\n      dup1\n      0x5b72a33a\n      eq\n      tag_6\n      jumpi\n      dup1\n      0x8da5cb5b\n      eq\n      tag_7\n      jumpi\n    tag_1:\n      0x00\n      dup1\n      revert\n        /* \"Day-26/code1.sol\":116:142  uint public totalLiquidity */\n    tag_2:\n      callvalue\n      dup1\n      iszero\n      tag_17\n      jumpi\n      0x00\n      dup1\n      revert\n    tag_17:\n      pop\n      tag_18\n      tag_19\n      jump\t// in\n    tag_18:\n      mload(0x40)\n      tag_20\n      swap2\n      swap1\n      tag_21\n      jump\t// in\n    tag_20:\n      mload(0x40)\n      dup1\n      swap2\n      sub\n      swap1\n      return\n        /* \"Day-26/code1.sol\":445:484  mapping(address => uint) public lenders */\n    tag_3:\n      callvalue\n      dup1\n      iszero\n      tag_22\n      jumpi\n      0x00\n      dup1\n      revert\n    tag_22:\n      pop\n      tag_23\n      0x04\n      dup1\n      calldatasize\n      sub\n      dup2\n      add\n      swap1\n      tag_24\n      swap2\n      swap1\n      tag_25\n      jump\t// in\n    tag_24:\n      tag_26\n      jump\t// in\n    tag_23:\n      mload(0x40)\n      tag_27\n      swap2\n      swap1\n      tag_21\n      jump\t// in\n    tag_27:\n      mload(0x40)\n      dup1\n      swap2\n      sub\n      swap1\n      return\n        /* \"Day-26/code1.sol\":1333:1691  function withdraw(uint amount) external {... */\n    tag_4:\n      callvalue\n      dup1\n      iszero\n      tag_28\n      jumpi\n      0x00\n      dup1\n      revert\n    tag_28:\n      pop\n      tag_29\n      0x04\n      dup1\n      calldatasize\n      sub\n      dup2\n      add\n      swap1\n      tag_30\n      swap2\n      swap1\n      tag_31\n      jump\t// in\n    tag_30:\n      tag_32\n      jump\t// in\n    tag_29:\n      stop\n        /* \"Day-26/code1.sol\":2462:3466  function repay(uint loanIndex) external payable {... */\n    tag_5:\n      tag_33\n      0x04\n      dup1\n      calldatasize\n      sub\n      dup2\n      add\n      swap1\n      tag_34\n      swap2\n      swap1\n      tag_31\n      jump\t// in\n    tag_34:\n      tag_35\n      jump\t// in\n    tag_33:\n      stop\n        /* \"Day-26/code1.sol\":149:187  uint public constant INTEREST_RATE = 5 */\n    tag_6:\n      callvalue\n      dup1\n      iszero\n      tag_36\n      jumpi\n      0x00\n      dup1\n      revert\n    tag_36:\n      pop\n      tag_37\n      tag_38\n      jump\t// in\n    tag_37:\n      mload(0x40)\n      tag_39\n      swap2\n      swap1\n      tag_21\n      jump\t// in\n    tag_39:\n      mload(0x40)\n      dup1\n      swap2\n      sub\n      swap1\n      return\n        /* \"Day-26/code1.sol\":89:109  address public owner */\n    tag_7:\n      callvalue\n      dup1\n      iszero\n      tag_40\n      jumpi\n      0x00\n      dup1\n      revert\n    tag_40:\n      pop\n      tag_41\n      tag_42\n      jump\t// in\n    tag_41:\n      mload(0x40)\n      tag_43\n      swap2\n      swap1\n      tag_44\n      jump\t// in\n    tag_43:\n      mload(0x40)\n      dup1\n      swap2\n      sub\n      swap1\n      return\n        /* \"Day-26/code1.sol\":3517:3974  function getLoan(address borrower, uint index) external view returns (... */\n    tag_8:\n      callvalue\n      dup1\n      iszero\n      tag_45\n      jumpi\n      0x00\n      dup1\n      revert\n    tag_45:\n      pop\n      tag_46\n      0x04\n      dup1\n      calldatasize\n      sub\n      dup2\n      add\n      swap1\n      tag_47\n      swap2\n      swap1\n      tag_48\n      jump\t// in\n    tag_47:\n      tag_49\n      jump\t// in\n    tag_46:\n      mload(0x40)\n      tag_50\n      swap5\n      swap4\n      swap3\n      swap2\n      swap1\n      tag_51\n      jump\t// in\n    tag_50:\n      mload(0x40)\n      dup1\n      swap2\n      sub\n      swap1\n      return\n        /* \"Day-26/code1.sol\":1736:2400  function borrow(uint amount) external {... */\n    tag_9:\n      callvalue\n      dup1\n      iszero\n      tag_52\n      jumpi\n      0x00\n      dup1\n      revert\n    tag_52:\n      pop\n      tag_53\n      0x04\n      dup1\n      calldatasize\n      sub\n      dup2\n      add\n      swap1\n      tag_54\n      swap2\n      swap1\n      tag_31\n      jump\t// in\n    tag_54:\n      tag_55\n      jump\t// in\n    tag_53:\n      stop\n        /* \"Day-26/code1.sol\":1027:1265  function deposit() external payable {... */\n    tag_10:\n      tag_56\n      tag_57\n      jump\t// in\n    tag_56:\n      stop\n        /* \"Day-26/code1.sol\":4223:4469  function recoverETH(uint amount) external onlyOwner {... */\n    tag_11:\n      callvalue\n      dup1\n      iszero\n      tag_58\n      jumpi\n      0x00\n      dup1\n      revert\n    tag_58:\n      pop\n      tag_59\n      0x04\n      dup1\n      calldatasize\n      sub\n      dup2\n      add\n      swap1\n      tag_60\n      swap2\n      swap1\n      tag_31\n      jump\t// in\n    tag_60:\n      tag_61\n      jump\t// in\n    tag_59:\n      stop\n        /* \"Day-26/code1.sol\":216:264  uint public constant SECONDS_PER_YEAR = 31536000 */\n    tag_12:\n      callvalue\n      dup1\n      iszero\n      tag_62\n      jumpi\n      0x00\n      dup1\n      revert\n    tag_62:\n      pop\n      tag_63\n      tag_64\n      jump\t// in\n    tag_63:\n      mload(0x40)\n      tag_65\n      swap2\n      swap1\n      tag_21\n      jump\t// in\n    tag_65:\n      mload(0x40)\n      dup1\n      swap2\n      sub\n      swap1\n      return\n        /* \"Day-26/code1.sol\":491:534  mapping(address => Loan[]) public borrowers */\n    tag_13:\n      callvalue\n      dup1\n      iszero\n      tag_66\n      jumpi\n      0x00\n      dup1\n      revert\n    tag_66:\n      pop\n      tag_67\n      0x04\n      dup1\n      calldatasize\n      sub\n      dup2\n      add\n      swap1\n      tag_68\n      swap2\n      swap1\n      tag_48\n      jump\t// in\n    tag_68:\n      tag_69\n      jump\t// in\n    tag_67:\n      mload(0x40)\n      tag_70\n      swap6\n      swap5\n      swap4\n      swap3\n      swap2\n      swap1\n      tag_71\n      jump\t// in\n    tag_70:\n      mload(0x40)\n      dup1\n      swap2\n      sub\n      swap1\n      return\n        /* \"Day-26/code1.sol\":4035:4156  function getLoanCount(address borrower) external view returns (uint) {... */\n    tag_14:\n      callvalue\n      dup1\n      iszero\n      tag_72\n      jumpi\n      0x00\n      dup1\n      revert\n    tag_72:\n      pop\n      tag_73\n      0x04\n      dup1\n      calldatasize\n      sub\n      dup2\n      add\n      swap1\n      tag_74\n      swap2\n      swap1\n      tag_25\n      jump\t// in\n    tag_74:\n      tag_75\n      jump\t// in\n    tag_73:\n      mload(0x40)\n      tag_76\n      swap2\n      swap1\n      tag_21\n      jump\t// in\n    tag_76:\n      mload(0x40)\n      dup1\n      swap2\n      sub\n      swap1\n      return\n        /* \"Day-26/code1.sol\":116:142  uint public totalLiquidity */\n    tag_19:\n      sload(0x01)\n      dup2\n      jump\t// out\n        /* \"Day-26/code1.sol\":445:484  mapping(address => uint) public lenders */\n    tag_26:\n      mstore(0x20, 0x02)\n      dup1\n      0x00\n      mstore\n      keccak256(0x00, 0x40)\n      0x00\n      swap2\n      pop\n      swap1\n      pop\n      sload\n      dup2\n      jump\t// out\n        /* \"Day-26/code1.sol\":1333:1691  function withdraw(uint amount) external {... */\n    tag_32:\n        /* \"Day-26/code1.sol\":1402:1409  lenders */\n      0x02\n        /* \"Day-26/code1.sol\":1402:1421  lenders[msg.sender] */\n      0x00\n        /* \"Day-26/code1.sol\":1410:1420  msg.sender */\n      caller\n        /* \"Day-26/code1.sol\":1402:1421  lenders[msg.sender] */\n      0xffffffffffffffffffffffffffffffffffffffff\n      and\n      0xffffffffffffffffffffffffffffffffffffffff\n      and\n      dup2\n      mstore\n      0x20\n      add\n      swap1\n      dup2\n      mstore\n      0x20\n      add\n      0x00\n      keccak256\n      sload\n        /* \"Day-26/code1.sol\":1392:1398  amount */\n      dup2\n        /* \"Day-26/code1.sol\":1392:1421  amount <= lenders[msg.sender] */\n      gt\n      iszero\n        /* \"Day-26/code1.sol\":1384:1446  require(amount <= lenders[msg.sender], \"Insufficient balance\") */\n      tag_78\n      jumpi\n      mload(0x40)\n      0x08c379a000000000000000000000000000000000000000000000000000000000\n      dup2\n      mstore\n      0x04\n      add\n      tag_79\n      swap1\n      tag_80\n      jump\t// in\n    tag_79:\n      mload(0x40)\n      dup1\n      swap2\n      sub\n      swap1\n      revert\n    tag_78:\n        /* \"Day-26/code1.sol\":1480:1486  amount */\n      dup1\n        /* \"Day-26/code1.sol\":1457:1464  lenders */\n      0x02\n        /* \"Day-26/code1.sol\":1457:1476  lenders[msg.sender] */\n      0x00\n        /* \"Day-26/code1.sol\":1465:1475  msg.sender */\n      caller\n        /* \"Day-26/code1.sol\":1457:1476  lenders[msg.sender] */\n      0xffffffffffffffffffffffffffffffffffffffff\n      and\n      0xffffffffffffffffffffffffffffffffffffffff\n      and\n      dup2\n      mstore\n      0x20\n      add\n      swap1\n      dup2\n      mstore\n      0x20\n      add\n      0x00\n      keccak256\n      0x00\n        /* \"Day-26/code1.sol\":1457:1486  lenders[msg.sender] -= amount */\n      dup3\n      dup3\n      sload\n      tag_81\n      swap2\n      swap1\n      tag_82\n      jump\t// in\n    tag_81:\n      swap3\n      pop\n      pop\n      dup2\n      swap1\n      sstore\n      pop\n        /* \"Day-26/code1.sol\":1515:1521  amount */\n      dup1\n        /* \"Day-26/code1.sol\":1497:1511  totalLiquidity */\n      0x01\n      0x00\n        /* \"Day-26/code1.sol\":1497:1521  totalLiquidity -= amount */\n      dup3\n      dup3\n      sload\n      tag_83\n      swap2\n      swap1\n      tag_82\n      jump\t// in\n    tag_83:\n      swap3\n      pop\n      pop\n      dup2\n      swap1\n      sstore\n      pop\n        /* \"Day-26/code1.sol\":1543:1552  bool sent */\n      0x00\n        /* \"Day-26/code1.sol\":1558:1568  msg.sender */\n      caller\n        /* \"Day-26/code1.sol\":1558:1573  msg.sender.call */\n      0xffffffffffffffffffffffffffffffffffffffff\n      and\n        /* \"Day-26/code1.sol\":1581:1587  amount */\n      dup3\n        /* \"Day-26/code1.sol\":1558:1592  msg.sender.call{value: amount}(\"\") */\n      mload(0x40)\n      tag_84\n      swap1\n      tag_85\n      jump\t// in\n    tag_84:\n      0x00\n      mload(0x40)\n      dup1\n      dup4\n      sub\n      dup2\n      dup6\n      dup8\n      gas\n      call\n      swap3\n      pop\n      pop\n      pop\n      returndatasize\n      dup1\n      0x00\n      dup2\n      eq\n      tag_88\n      jumpi\n      mload(0x40)\n      swap2\n      pop\n      and(add(returndatasize, 0x3f), not(0x1f))\n      dup3\n      add\n      0x40\n      mstore\n      returndatasize\n      dup3\n      mstore\n      returndatasize\n      0x00\n      0x20\n      dup5\n      add\n      returndatacopy\n      jump(tag_87)\n    tag_88:\n      0x60\n      swap2\n      pop\n    tag_87:\n      pop\n        /* \"Day-26/code1.sol\":1542:1592  (bool sent, ) = msg.sender.call{value: amount}(\"\") */\n      pop\n      swap1\n      pop\n        /* \"Day-26/code1.sol\":1611:1615  sent */\n      dup1\n        /* \"Day-26/code1.sol\":1603:1638  require(sent, \"Failed to send ETH\") */\n      tag_89\n      jumpi\n      mload(0x40)\n      0x08c379a000000000000000000000000000000000000000000000000000000000\n      dup2\n      mstore\n      0x04\n      add\n      tag_90\n      swap1\n      tag_91\n      jump\t// in\n    tag_90:\n      mload(0x40)\n      dup1\n      swap2\n      sub\n      swap1\n      revert\n    tag_89:\n        /* \"Day-26/code1.sol\":1664:1674  msg.sender */\n      caller\n        /* \"Day-26/code1.sol\":1654:1683  Withdrawn(msg.sender, amount) */\n      0xffffffffffffffffffffffffffffffffffffffff\n      and\n      0x7084f5476618d8e60b11ef0d7d3f06914655adb8793e28ff7f018d4c76d505d5\n        /* \"Day-26/code1.sol\":1676:1682  amount */\n      dup4\n        /* \"Day-26/code1.sol\":1654:1683  Withdrawn(msg.sender, amount) */\n      mload(0x40)\n      tag_92\n      swap2\n      swap1\n      tag_21\n      jump\t// in\n    tag_92:\n      mload(0x40)\n      dup1\n      swap2\n      sub\n      swap1\n      log2\n        /* \"Day-26/code1.sol\":1373:1691  {... */\n      pop\n        /* \"Day-26/code1.sol\":1333:1691  function withdraw(uint amount) external {... */\n      pop\n      jump\t// out\n        /* \"Day-26/code1.sol\":2462:3466  function repay(uint loanIndex) external payable {... */\n    tag_35:\n        /* \"Day-26/code1.sol\":2541:2550  borrowers */\n      0x03\n        /* \"Day-26/code1.sol\":2541:2562  borrowers[msg.sender] */\n      0x00\n        /* \"Day-26/code1.sol\":2551:2561  msg.sender */\n      caller\n        /* \"Day-26/code1.sol\":2541:2562  borrowers[msg.sender] */\n      0xffffffffffffffffffffffffffffffffffffffff\n      and\n      0xffffffffffffffffffffffffffffffffffffffff\n      and\n      dup2\n      mstore\n      0x20\n      add\n      swap1\n      dup2\n      mstore\n      0x20\n      add\n      0x00\n      keccak256\n        /* \"Day-26/code1.sol\":2541:2569  borrowers[msg.sender].length */\n      dup1\n      sload\n      swap1\n      pop\n        /* \"Day-26/code1.sol\":2529:2538  loanIndex */\n      dup2\n        /* \"Day-26/code1.sol\":2529:2569  loanIndex < borrowers[msg.sender].length */\n      lt\n        /* \"Day-26/code1.sol\":2521:2592  require(loanIndex < borrowers[msg.sender].length, \"Invalid loan index\") */\n      tag_94\n      jumpi\n      mload(0x40)\n      0x08c379a000000000000000000000000000000000000000000000000000000000\n      dup2\n      mstore\n      0x04\n      add\n      tag_95\n      swap1\n      tag_96\n      jump\t// in\n    tag_95:\n      mload(0x40)\n      dup1\n      swap2\n      sub\n      swap1\n      revert\n    tag_94:\n        /* \"Day-26/code1.sol\":2603:2620  Loan storage loan */\n      0x00\n        /* \"Day-26/code1.sol\":2623:2632  borrowers */\n      0x03\n        /* \"Day-26/code1.sol\":2623:2644  borrowers[msg.sender] */\n      0x00\n        /* \"Day-26/code1.sol\":2633:2643  msg.sender */\n      caller\n        /* \"Day-26/code1.sol\":2623:2644  borrowers[msg.sender] */\n      0xffffffffffffffffffffffffffffffffffffffff\n      and\n      0xffffffffffffffffffffffffffffffffffffffff\n      and\n      dup2\n      mstore\n      0x20\n      add\n      swap1\n      dup2\n      mstore\n      0x20\n      add\n      0x00\n      keccak256\n        /* \"Day-26/code1.sol\":2645:2654  loanIndex */\n      dup3\n        /* \"Day-26/code1.sol\":2623:2655  borrowers[msg.sender][loanIndex] */\n      dup2\n      sload\n      dup2\n      lt\n      tag_97\n      jumpi\n      tag_98\n      tag_99\n      jump\t// in\n    tag_98:\n    tag_97:\n      swap1\n      0x00\n      mstore\n      keccak256(0x00, 0x20)\n      swap1\n      0x05\n      mul\n      add\n        /* \"Day-26/code1.sol\":2603:2655  Loan storage loan = borrowers[msg.sender][loanIndex] */\n      swap1\n      pop\n        /* \"Day-26/code1.sol\":2675:2679  loan */\n      dup1\n        /* \"Day-26/code1.sol\":2675:2686  loan.repaid */\n      0x04\n      add\n      0x00\n      swap1\n      sload\n      swap1\n      0x0100\n      exp\n      swap1\n      div\n      0xff\n      and\n        /* \"Day-26/code1.sol\":2674:2686  !loan.repaid */\n      iszero\n        /* \"Day-26/code1.sol\":2666:2710  require(!loan.repaid, \"Loan already repaid\") */\n      tag_101\n      jumpi\n      mload(0x40)\n      0x08c379a000000000000000000000000000000000000000000000000000000000\n      dup2\n      mstore\n      0x04\n      add\n      tag_102\n      swap1\n      tag_103\n      jump\t// in\n    tag_102:\n      mload(0x40)\n      dup1\n      swap2\n      sub\n      swap1\n      revert\n    tag_101:\n        /* \"Day-26/code1.sol\":2731:2747  uint timeElapsed */\n      0x00\n        /* \"Day-26/code1.sol\":2768:2772  loan */\n      dup2\n        /* \"Day-26/code1.sol\":2768:2782  loan.startTime */\n      0x03\n      add\n      sload\n        /* \"Day-26/code1.sol\":2750:2765  block.timestamp */\n      timestamp\n        /* \"Day-26/code1.sol\":2750:2782  block.timestamp - loan.startTime */\n      tag_104\n      swap2\n      swap1\n      tag_82\n      jump\t// in\n    tag_104:\n        /* \"Day-26/code1.sol\":2731:2782  uint timeElapsed = block.timestamp - loan.startTime */\n      swap1\n      pop\n        /* \"Day-26/code1.sol\":2793:2806  uint interest */\n      0x00\n        /* \"Day-26/code1.sol\":2879:2882  100 */\n      0x64\n        /* \"Day-26/code1.sol\":256:264  31536000 */\n      0x01e13380\n        /* \"Day-26/code1.sol\":2860:2882  SECONDS_PER_YEAR * 100 */\n      tag_105\n      swap2\n      swap1\n      tag_106\n      jump\t// in\n    tag_105:\n        /* \"Day-26/code1.sol\":2844:2855  timeElapsed */\n      dup3\n        /* \"Day-26/code1.sol\":2824:2828  loan */\n      dup5\n        /* \"Day-26/code1.sol\":2824:2841  loan.interestRate */\n      0x02\n      add\n      sload\n        /* \"Day-26/code1.sol\":2810:2814  loan */\n      dup6\n        /* \"Day-26/code1.sol\":2810:2821  loan.amount */\n      0x01\n      add\n      sload\n        /* \"Day-26/code1.sol\":2810:2841  loan.amount * loan.interestRate */\n      tag_107\n      swap2\n      swap1\n      tag_106\n      jump\t// in\n    tag_107:\n        /* \"Day-26/code1.sol\":2810:2855  loan.amount * loan.interestRate * timeElapsed */\n      tag_108\n      swap2\n      swap1\n      tag_106\n      jump\t// in\n    tag_108:\n        /* \"Day-26/code1.sol\":2809:2883  (loan.amount * loan.interestRate * timeElapsed) / (SECONDS_PER_YEAR * 100) */\n      tag_109\n      swap2\n      swap1\n      tag_110\n      jump\t// in\n    tag_109:\n        /* \"Day-26/code1.sol\":2793:2883  uint interest = (loan.amount * loan.interestRate * timeElapsed) / (SECONDS_PER_YEAR * 100) */\n      swap1\n      pop\n        /* \"Day-26/code1.sol\":2894:2913  uint totalRepayment */\n      0x00\n        /* \"Day-26/code1.sol\":2930:2938  interest */\n      dup2\n        /* \"Day-26/code1.sol\":2916:2920  loan */\n      dup5\n        /* \"Day-26/code1.sol\":2916:2927  loan.amount */\n      0x01\n      add\n      sload\n        /* \"Day-26/code1.sol\":2916:2938  loan.amount + interest */\n      tag_111\n      swap2\n      swap1\n      tag_112\n      jump\t// in\n    tag_111:\n        /* \"Day-26/code1.sol\":2894:2938  uint totalRepayment = loan.amount + interest */\n      swap1\n      pop\n        /* \"Day-26/code1.sol\":2980:2994  totalRepayment */\n      dup1\n        /* \"Day-26/code1.sol\":2967:2976  msg.value */\n      callvalue\n        /* \"Day-26/code1.sol\":2967:2994  msg.value >= totalRepayment */\n      lt\n      iszero\n        /* \"Day-26/code1.sol\":2959:3028  require(msg.value >= totalRepayment, \"Insufficient repayment amount\") */\n      tag_113\n      jumpi\n      mload(0x40)\n      0x08c379a000000000000000000000000000000000000000000000000000000000\n      dup2\n      mstore\n      0x04\n      add\n      tag_114\n      swap1\n      tag_115\n      jump\t// in\n    tag_114:\n      mload(0x40)\n      dup1\n      swap2\n      sub\n      swap1\n      revert\n    tag_113:\n        /* \"Day-26/code1.sol\":3063:3067  true */\n      0x01\n        /* \"Day-26/code1.sol\":3049:3053  loan */\n      dup5\n        /* \"Day-26/code1.sol\":3049:3060  loan.repaid */\n      0x04\n      add\n      0x00\n        /* \"Day-26/code1.sol\":3049:3067  loan.repaid = true */\n      0x0100\n      exp\n      dup2\n      sload\n      dup2\n      0xff\n      mul\n      not\n      and\n      swap1\n      dup4\n      iszero\n      iszero\n      mul\n      or\n      swap1\n      sstore\n      pop\n        /* \"Day-26/code1.sol\":3096:3110  totalRepayment */\n      dup1\n        /* \"Day-26/code1.sol\":3078:3092  totalLiquidity */\n      0x01\n      0x00\n        /* \"Day-26/code1.sol\":3078:3110  totalLiquidity += totalRepayment */\n      dup3\n      dup3\n      sload\n      tag_116\n      swap2\n      swap1\n      tag_112\n      jump\t// in\n    tag_116:\n      swap3\n      pop\n      pop\n      dup2\n      swap1\n      sstore\n      pop\n        /* \"Day-26/code1.sol\":3185:3199  totalRepayment */\n      dup1\n        /* \"Day-26/code1.sol\":3173:3182  msg.value */\n      callvalue\n        /* \"Day-26/code1.sol\":3173:3199  msg.value > totalRepayment */\n      gt\n        /* \"Day-26/code1.sol\":3169:3392  if (msg.value > totalRepayment) {... */\n      iszero\n      tag_117\n      jumpi\n        /* \"Day-26/code1.sol\":3216:3227  uint refund */\n      0x00\n        /* \"Day-26/code1.sol\":3242:3256  totalRepayment */\n      dup2\n        /* \"Day-26/code1.sol\":3230:3239  msg.value */\n      callvalue\n        /* \"Day-26/code1.sol\":3230:3256  msg.value - totalRepayment */\n      tag_118\n      swap2\n      swap1\n      tag_82\n      jump\t// in\n    tag_118:\n        /* \"Day-26/code1.sol\":3216:3256  uint refund = msg.value - totalRepayment */\n      swap1\n      pop\n        /* \"Day-26/code1.sol\":3272:3281  bool sent */\n      0x00\n        /* \"Day-26/code1.sol\":3287:3297  msg.sender */\n      caller\n        /* \"Day-26/code1.sol\":3287:3302  msg.sender.call */\n      0xffffffffffffffffffffffffffffffffffffffff\n      and\n        /* \"Day-26/code1.sol\":3310:3316  refund */\n      dup3\n        /* \"Day-26/code1.sol\":3287:3321  msg.sender.call{value: refund}(\"\") */\n      mload(0x40)\n      tag_119\n      swap1\n      tag_85\n      jump\t// in\n    tag_119:\n      0x00\n      mload(0x40)\n      dup1\n      dup4\n      sub\n      dup2\n      dup6\n      dup8\n      gas\n      call\n      swap3\n      pop\n      pop\n      pop\n      returndatasize\n      dup1\n      0x00\n      dup2\n      eq\n      tag_122\n      jumpi\n      mload(0x40)\n      swap2\n      pop\n      and(add(returndatasize, 0x3f), not(0x1f))\n      dup3\n      add\n      0x40\n      mstore\n      returndatasize\n      dup3\n      mstore\n      returndatasize\n      0x00\n      0x20\n      dup5\n      add\n      returndatacopy\n      jump(tag_121)\n    tag_122:\n      0x60\n      swap2\n      pop\n    tag_121:\n      pop\n        /* \"Day-26/code1.sol\":3271:3321  (bool sent, ) = msg.sender.call{value: refund}(\"\") */\n      pop\n      swap1\n      pop\n        /* \"Day-26/code1.sol\":3344:3348  sent */\n      dup1\n        /* \"Day-26/code1.sol\":3336:3380  require(sent, \"Failed to refund excess ETH\") */\n      tag_123\n      jumpi\n      mload(0x40)\n      0x08c379a000000000000000000000000000000000000000000000000000000000\n      dup2\n      mstore\n      0x04\n      add\n      tag_124\n      swap1\n      tag_125\n      jump\t// in\n    tag_124:\n      mload(0x40)\n      dup1\n      swap2\n      sub\n      swap1\n      revert\n    tag_123:\n        /* \"Day-26/code1.sol\":3201:3392  {... */\n      pop\n      pop\n        /* \"Day-26/code1.sol\":3169:3392  if (msg.value > totalRepayment) {... */\n    tag_117:\n        /* \"Day-26/code1.sol\":3424:3434  msg.sender */\n      caller\n        /* \"Day-26/code1.sol\":3417:3458  Repaid(msg.sender, loan.amount, interest) */\n      0xffffffffffffffffffffffffffffffffffffffff\n      and\n      0x1b8cd61ed43bec7c6bdad3a18ffee613f99c853d16c50678d248d879e1b43438\n        /* \"Day-26/code1.sol\":3436:3440  loan */\n      dup6\n        /* \"Day-26/code1.sol\":3436:3447  loan.amount */\n      0x01\n      add\n      sload\n        /* \"Day-26/code1.sol\":3449:3457  interest */\n      dup5\n        /* \"Day-26/code1.sol\":3417:3458  Repaid(msg.sender, loan.amount, interest) */\n      mload(0x40)\n      tag_126\n      swap3\n      swap2\n      swap1\n      tag_127\n      jump\t// in\n    tag_126:\n      mload(0x40)\n      dup1\n      swap2\n      sub\n      swap1\n      log2\n        /* \"Day-26/code1.sol\":2510:3466  {... */\n      pop\n      pop\n      pop\n      pop\n        /* \"Day-26/code1.sol\":2462:3466  function repay(uint loanIndex) external payable {... */\n      pop\n      jump\t// out\n        /* \"Day-26/code1.sol\":149:187  uint public constant INTEREST_RATE = 5 */\n    tag_38:\n        /* \"Day-26/code1.sol\":186:187  5 */\n      0x05\n        /* \"Day-26/code1.sol\":149:187  uint public constant INTEREST_RATE = 5 */\n      dup2\n      jump\t// out\n        /* \"Day-26/code1.sol\":89:109  address public owner */\n    tag_42:\n      0x00\n      dup1\n      sload\n      swap1\n      0x0100\n      exp\n      swap1\n      div\n      0xffffffffffffffffffffffffffffffffffffffff\n      and\n      dup2\n      jump\t// out\n        /* \"Day-26/code1.sol\":3517:3974  function getLoan(address borrower, uint index) external view returns (... */\n    tag_49:\n        /* \"Day-26/code1.sol\":3597:3608  uint amount */\n      0x00\n        /* \"Day-26/code1.sol\":3619:3636  uint interestRate */\n      dup1\n        /* \"Day-26/code1.sol\":3647:3661  uint startTime */\n      0x00\n        /* \"Day-26/code1.sol\":3672:3683  bool repaid */\n      dup1\n        /* \"Day-26/code1.sol\":3718:3727  borrowers */\n      0x03\n        /* \"Day-26/code1.sol\":3718:3737  borrowers[borrower] */\n      0x00\n        /* \"Day-26/code1.sol\":3728:3736  borrower */\n      dup8\n        /* \"Day-26/code1.sol\":3718:3737  borrowers[borrower] */\n      0xffffffffffffffffffffffffffffffffffffffff\n      and\n      0xffffffffffffffffffffffffffffffffffffffff\n      and\n      dup2\n      mstore\n      0x20\n      add\n      swap1\n      dup2\n      mstore\n      0x20\n      add\n      0x00\n      keccak256\n        /* \"Day-26/code1.sol\":3718:3744  borrowers[borrower].length */\n      dup1\n      sload\n      swap1\n      pop\n        /* \"Day-26/code1.sol\":3710:3715  index */\n      dup6\n        /* \"Day-26/code1.sol\":3710:3744  index < borrowers[borrower].length */\n      lt\n        /* \"Day-26/code1.sol\":3702:3767  require(index < borrowers[borrower].length, \"Invalid loan index\") */\n      tag_129\n      jumpi\n      mload(0x40)\n      0x08c379a000000000000000000000000000000000000000000000000000000000\n      dup2\n      mstore\n      0x04\n      add\n      tag_130\n      swap1\n      tag_96\n      jump\t// in\n    tag_130:\n      mload(0x40)\n      dup1\n      swap2\n      sub\n      swap1\n      revert\n    tag_129:\n        /* \"Day-26/code1.sol\":3778:3795  Loan storage loan */\n      0x00\n        /* \"Day-26/code1.sol\":3798:3807  borrowers */\n      0x03\n        /* \"Day-26/code1.sol\":3798:3817  borrowers[borrower] */\n      0x00\n        /* \"Day-26/code1.sol\":3808:3816  borrower */\n      dup9\n        /* \"Day-26/code1.sol\":3798:3817  borrowers[borrower] */\n      0xffffffffffffffffffffffffffffffffffffffff\n      and\n      0xffffffffffffffffffffffffffffffffffffffff\n      and\n      dup2\n      mstore\n      0x20\n      add\n      swap1\n      dup2\n      mstore\n      0x20\n      add\n      0x00\n      keccak256\n        /* \"Day-26/code1.sol\":3818:3823  index */\n      dup7\n        /* \"Day-26/code1.sol\":3798:3824  borrowers[borrower][index] */\n      dup2\n      sload\n      dup2\n      lt\n      tag_131\n      jumpi\n      tag_132\n      tag_99\n      jump\t// in\n    tag_132:\n    tag_131:\n      swap1\n      0x00\n      mstore\n      keccak256(0x00, 0x20)\n      swap1\n      0x05\n      mul\n      add\n        /* \"Day-26/code1.sol\":3778:3824  Loan storage loan = borrowers[borrower][index] */\n      swap1\n      pop\n        /* \"Day-26/code1.sol\":3857:3861  loan */\n      dup1\n        /* \"Day-26/code1.sol\":3857:3868  loan.amount */\n      0x01\n      add\n      sload\n        /* \"Day-26/code1.sol\":3883:3887  loan */\n      dup2\n        /* \"Day-26/code1.sol\":3883:3900  loan.interestRate */\n      0x02\n      add\n      sload\n        /* \"Day-26/code1.sol\":3915:3919  loan */\n      dup3\n        /* \"Day-26/code1.sol\":3915:3929  loan.startTime */\n      0x03\n      add\n      sload\n        /* \"Day-26/code1.sol\":3944:3948  loan */\n      dup4\n        /* \"Day-26/code1.sol\":3944:3955  loan.repaid */\n      0x04\n      add\n      0x00\n      swap1\n      sload\n      swap1\n      0x0100\n      exp\n      swap1\n      div\n      0xff\n      and\n        /* \"Day-26/code1.sol\":3835:3966  return (... */\n      swap5\n      pop\n      swap5\n      pop\n      swap5\n      pop\n      swap5\n      pop\n      pop\n        /* \"Day-26/code1.sol\":3517:3974  function getLoan(address borrower, uint index) external view returns (... */\n      swap3\n      swap6\n      swap2\n      swap5\n      pop\n      swap3\n      pop\n      jump\t// out\n        /* \"Day-26/code1.sol\":1736:2400  function borrow(uint amount) external {... */\n    tag_55:\n        /* \"Day-26/code1.sol\":1803:1817  totalLiquidity */\n      sload(0x01)\n        /* \"Day-26/code1.sol\":1793:1799  amount */\n      dup2\n        /* \"Day-26/code1.sol\":1793:1817  amount <= totalLiquidity */\n      gt\n      iszero\n        /* \"Day-26/code1.sol\":1785:1844  require(amount <= totalLiquidity, \"Insufficient liquidity\") */\n      tag_135\n      jumpi\n      mload(0x40)\n      0x08c379a000000000000000000000000000000000000000000000000000000000\n      dup2\n      mstore\n      0x04\n      add\n      tag_136\n      swap1\n      tag_137\n      jump\t// in\n    tag_136:\n      mload(0x40)\n      dup1\n      swap2\n      sub\n      swap1\n      revert\n    tag_135:\n        /* \"Day-26/code1.sol\":1872:1873  0 */\n      0x00\n        /* \"Day-26/code1.sol\":1863:1869  amount */\n      dup2\n        /* \"Day-26/code1.sol\":1863:1873  amount > 0 */\n      gt\n        /* \"Day-26/code1.sol\":1855:1905  require(amount > 0, \"Must borrow more than 0 ETH\") */\n      tag_138\n      jumpi\n      mload(0x40)\n      0x08c379a000000000000000000000000000000000000000000000000000000000\n      dup2\n      mstore\n      0x04\n      add\n      tag_139\n      swap1\n      tag_140\n      jump\t// in\n    tag_139:\n      mload(0x40)\n      dup1\n      swap2\n      sub\n      swap1\n      revert\n    tag_138:\n        /* \"Day-26/code1.sol\":1926:1945  Loan memory newLoan */\n      0x00\n        /* \"Day-26/code1.sol\":1948:2140  Loan({... */\n      mload(0x40)\n      dup1\n      0xa0\n      add\n      0x40\n      mstore\n      dup1\n        /* \"Day-26/code1.sol\":1978:1988  msg.sender */\n      caller\n        /* \"Day-26/code1.sol\":1948:2140  Loan({... */\n      0xffffffffffffffffffffffffffffffffffffffff\n      and\n      dup2\n      mstore\n      0x20\n      add\n        /* \"Day-26/code1.sol\":2011:2017  amount */\n      dup4\n        /* \"Day-26/code1.sol\":1948:2140  Loan({... */\n      dup2\n      mstore\n      0x20\n      add\n        /* \"Day-26/code1.sol\":186:187  5 */\n      0x05\n        /* \"Day-26/code1.sol\":1948:2140  Loan({... */\n      dup2\n      mstore\n      0x20\n      add\n        /* \"Day-26/code1.sol\":2085:2100  block.timestamp */\n      timestamp\n        /* \"Day-26/code1.sol\":1948:2140  Loan({... */\n      dup2\n      mstore\n      0x20\n      add\n        /* \"Day-26/code1.sol\":2123:2128  false */\n      0x00\n        /* \"Day-26/code1.sol\":1948:2140  Loan({... */\n      iszero\n      iszero\n      dup2\n      mstore\n      pop\n        /* \"Day-26/code1.sol\":1926:2140  Loan memory newLoan = Loan({... */\n      swap1\n      pop\n        /* \"Day-26/code1.sol\":2161:2170  borrowers */\n      0x03\n        /* \"Day-26/code1.sol\":2161:2182  borrowers[msg.sender] */\n      0x00\n        /* \"Day-26/code1.sol\":2171:2181  msg.sender */\n      caller\n        /* \"Day-26/code1.sol\":2161:2182  borrowers[msg.sender] */\n      0xffffffffffffffffffffffffffffffffffffffff\n      and\n      0xffffffffffffffffffffffffffffffffffffffff\n      and\n      dup2\n      mstore\n      0x20\n      add\n      swap1\n      dup2\n      mstore\n      0x20\n      add\n      0x00\n      keccak256\n        /* \"Day-26/code1.sol\":2188:2195  newLoan */\n      dup2\n        /* \"Day-26/code1.sol\":2161:2196  borrowers[msg.sender].push(newLoan) */\n      swap1\n      dup1\n      0x01\n      dup2\n      sload\n      add\n      dup1\n      dup3\n      sstore\n      dup1\n      swap2\n      pop\n      pop\n      0x01\n      swap1\n      sub\n      swap1\n      0x00\n      mstore\n      keccak256(0x00, 0x20)\n      swap1\n      0x05\n      mul\n      add\n      0x00\n      swap1\n      swap2\n      swap1\n      swap2\n      swap1\n      swap2\n      pop\n      0x00\n      dup3\n      add\n      mload\n      dup2\n      0x00\n      add\n      exp(0x0100, 0x00)\n      dup2\n      sload\n      dup2\n      0xffffffffffffffffffffffffffffffffffffffff\n      mul\n      not\n      and\n      swap1\n      dup4\n      0xffffffffffffffffffffffffffffffffffffffff\n      and\n      mul\n      or\n      swap1\n      sstore\n      pop\n      0x20\n      dup3\n      add\n      mload\n      dup2\n      0x01\n      add\n      sstore\n      0x40\n      dup3\n      add\n      mload\n      dup2\n      0x02\n      add\n      sstore\n      0x60\n      dup3\n      add\n      mload\n      dup2\n      0x03\n      add\n      sstore\n      0x80\n      dup3\n      add\n      mload\n      dup2\n      0x04\n      add\n      exp(0x0100, 0x00)\n      dup2\n      sload\n      dup2\n      0xff\n      mul\n      not\n      and\n      swap1\n      dup4\n      iszero\n      iszero\n      mul\n      or\n      swap1\n      sstore\n      pop\n      pop\n      pop\n        /* \"Day-26/code1.sol\":2225:2231  amount */\n      dup2\n        /* \"Day-26/code1.sol\":2207:2221  totalLiquidity */\n      0x01\n      0x00\n        /* \"Day-26/code1.sol\":2207:2231  totalLiquidity -= amount */\n      dup3\n      dup3\n      sload\n      tag_142\n      swap2\n      swap1\n      tag_82\n      jump\t// in\n    tag_142:\n      swap3\n      pop\n      pop\n      dup2\n      swap1\n      sstore\n      pop\n        /* \"Day-26/code1.sol\":2253:2262  bool sent */\n      0x00\n        /* \"Day-26/code1.sol\":2268:2278  msg.sender */\n      caller\n        /* \"Day-26/code1.sol\":2268:2283  msg.sender.call */\n      0xffffffffffffffffffffffffffffffffffffffff\n      and\n        /* \"Day-26/code1.sol\":2291:2297  amount */\n      dup4\n        /* \"Day-26/code1.sol\":2268:2302  msg.sender.call{value: amount}(\"\") */\n      mload(0x40)\n      tag_143\n      swap1\n      tag_85\n      jump\t// in\n    tag_143:\n      0x00\n      mload(0x40)\n      dup1\n      dup4\n      sub\n      dup2\n      dup6\n      dup8\n      gas\n      call\n      swap3\n      pop\n      pop\n      pop\n      returndatasize\n      dup1\n      0x00\n      dup2\n      eq\n      tag_146\n      jumpi\n      mload(0x40)\n      swap2\n      pop\n      and(add(returndatasize, 0x3f), not(0x1f))\n      dup3\n      add\n      0x40\n      mstore\n      returndatasize\n      dup3\n      mstore\n      returndatasize\n      0x00\n      0x20\n      dup5\n      add\n      returndatacopy\n      jump(tag_145)\n    tag_146:\n      0x60\n      swap2\n      pop\n    tag_145:\n      pop\n        /* \"Day-26/code1.sol\":2252:2302  (bool sent, ) = msg.sender.call{value: amount}(\"\") */\n      pop\n      swap1\n      pop\n        /* \"Day-26/code1.sol\":2321:2325  sent */\n      dup1\n        /* \"Day-26/code1.sol\":2313:2348  require(sent, \"Failed to send ETH\") */\n      tag_147\n      jumpi\n      mload(0x40)\n      0x08c379a000000000000000000000000000000000000000000000000000000000\n      dup2\n      mstore\n      0x04\n      add\n      tag_148\n      swap1\n      tag_91\n      jump\t// in\n    tag_148:\n      mload(0x40)\n      dup1\n      swap2\n      sub\n      swap1\n      revert\n    tag_147:\n        /* \"Day-26/code1.sol\":2373:2383  msg.sender */\n      caller\n        /* \"Day-26/code1.sol\":2364:2392  Borrowed(msg.sender, amount) */\n      0xffffffffffffffffffffffffffffffffffffffff\n      and\n      0xac59582e5396aca512fa873a2047e7f4c80f8f55d4a06cb34a78a0187f62719f\n        /* \"Day-26/code1.sol\":2385:2391  amount */\n      dup5\n        /* \"Day-26/code1.sol\":2364:2392  Borrowed(msg.sender, amount) */\n      mload(0x40)\n      tag_149\n      swap2\n      swap1\n      tag_21\n      jump\t// in\n    tag_149:\n      mload(0x40)\n      dup1\n      swap2\n      sub\n      swap1\n      log2\n        /* \"Day-26/code1.sol\":1774:2400  {... */\n      pop\n      pop\n        /* \"Day-26/code1.sol\":1736:2400  function borrow(uint amount) external {... */\n      pop\n      jump\t// out\n        /* \"Day-26/code1.sol\":1027:1265  function deposit() external payable {... */\n    tag_57:\n        /* \"Day-26/code1.sol\":1094:1095  0 */\n      0x00\n        /* \"Day-26/code1.sol\":1082:1091  msg.value */\n      callvalue\n        /* \"Day-26/code1.sol\":1082:1095  msg.value > 0 */\n      gt\n        /* \"Day-26/code1.sol\":1074:1128  require(msg.value > 0, \"Must deposit more than 0 ETH\") */\n      tag_151\n      jumpi\n      mload(0x40)\n      0x08c379a000000000000000000000000000000000000000000000000000000000\n      dup2\n      mstore\n      0x04\n      add\n      tag_152\n      swap1\n      tag_153\n      jump\t// in\n    tag_152:\n      mload(0x40)\n      dup1\n      swap2\n      sub\n      swap1\n      revert\n    tag_151:\n        /* \"Day-26/code1.sol\":1162:1171  msg.value */\n      callvalue\n        /* \"Day-26/code1.sol\":1139:1146  lenders */\n      0x02\n        /* \"Day-26/code1.sol\":1139:1158  lenders[msg.sender] */\n      0x00\n        /* \"Day-26/code1.sol\":1147:1157  msg.sender */\n      caller\n        /* \"Day-26/code1.sol\":1139:1158  lenders[msg.sender] */\n      0xffffffffffffffffffffffffffffffffffffffff\n      and\n      0xffffffffffffffffffffffffffffffffffffffff\n      and\n      dup2\n      mstore\n      0x20\n      add\n      swap1\n      dup2\n      mstore\n      0x20\n      add\n      0x00\n      keccak256\n      0x00\n        /* \"Day-26/code1.sol\":1139:1171  lenders[msg.sender] += msg.value */\n      dup3\n      dup3\n      sload\n      tag_154\n      swap2\n      swap1\n      tag_112\n      jump\t// in\n    tag_154:\n      swap3\n      pop\n      pop\n      dup2\n      swap1\n      sstore\n      pop\n        /* \"Day-26/code1.sol\":1200:1209  msg.value */\n      callvalue\n        /* \"Day-26/code1.sol\":1182:1196  totalLiquidity */\n      0x01\n      0x00\n        /* \"Day-26/code1.sol\":1182:1209  totalLiquidity += msg.value */\n      dup3\n      dup3\n      sload\n      tag_155\n      swap2\n      swap1\n      tag_112\n      jump\t// in\n    tag_155:\n      swap3\n      pop\n      pop\n      dup2\n      swap1\n      sstore\n      pop\n        /* \"Day-26/code1.sol\":1235:1245  msg.sender */\n      caller\n        /* \"Day-26/code1.sol\":1225:1257  Deposited(msg.sender, msg.value) */\n      0xffffffffffffffffffffffffffffffffffffffff\n      and\n      0x2da466a7b24304f47e87fa2e1e5a81b9831ce54fec19055ce277ca2f39ba42c4\n        /* \"Day-26/code1.sol\":1247:1256  msg.value */\n      callvalue\n        /* \"Day-26/code1.sol\":1225:1257  Deposited(msg.sender, msg.value) */\n      mload(0x40)\n      tag_156\n      swap2\n      swap1\n      tag_21\n      jump\t// in\n    tag_156:\n      mload(0x40)\n      dup1\n      swap2\n      sub\n      swap1\n      log2\n        /* \"Day-26/code1.sol\":1027:1265  function deposit() external payable {... */\n      jump\t// out\n        /* \"Day-26/code1.sol\":4223:4469  function recoverETH(uint amount) external onlyOwner {... */\n    tag_61:\n        /* \"Day-26/code1.sol\":858:863  owner */\n      0x00\n      dup1\n      sload\n      swap1\n      0x0100\n      exp\n      swap1\n      div\n      0xffffffffffffffffffffffffffffffffffffffff\n      and\n        /* \"Day-26/code1.sol\":844:863  msg.sender == owner */\n      0xffffffffffffffffffffffffffffffffffffffff\n      and\n        /* \"Day-26/code1.sol\":844:854  msg.sender */\n      caller\n        /* \"Day-26/code1.sol\":844:863  msg.sender == owner */\n      0xffffffffffffffffffffffffffffffffffffffff\n      and\n      eq\n        /* \"Day-26/code1.sol\":836:892  require(msg.sender == owner, \"Only owner can call this\") */\n      tag_158\n      jumpi\n      mload(0x40)\n      0x08c379a000000000000000000000000000000000000000000000000000000000\n      dup2\n      mstore\n      0x04\n      add\n      tag_159\n      swap1\n      tag_160\n      jump\t// in\n    tag_159:\n      mload(0x40)\n      dup1\n      swap2\n      sub\n      swap1\n      revert\n    tag_158:\n        /* \"Day-26/code1.sol\":4304:4325  address(this).balance */\n      selfbalance\n        /* \"Day-26/code1.sol\":4294:4300  amount */\n      dup2\n        /* \"Day-26/code1.sol\":4294:4325  amount <= address(this).balance */\n      gt\n      iszero\n        /* \"Day-26/code1.sol\":4286:4359  require(amount <= address(this).balance, \"Insufficient contract balance\") */\n      tag_162\n      jumpi\n      mload(0x40)\n      0x08c379a000000000000000000000000000000000000000000000000000000000\n      dup2\n      mstore\n      0x04\n      add\n      tag_163\n      swap1\n      tag_164\n      jump\t// in\n    tag_163:\n      mload(0x40)\n      dup1\n      swap2\n      sub\n      swap1\n      revert\n    tag_162:\n        /* \"Day-26/code1.sol\":4371:4380  bool sent */\n      0x00\n        /* \"Day-26/code1.sol\":4386:4391  owner */\n      dup1\n      0x00\n      swap1\n      sload\n      swap1\n      0x0100\n      exp\n      swap1\n      div\n      0xffffffffffffffffffffffffffffffffffffffff\n      and\n        /* \"Day-26/code1.sol\":4386:4396  owner.call */\n      0xffffffffffffffffffffffffffffffffffffffff\n      and\n        /* \"Day-26/code1.sol\":4404:4410  amount */\n      dup3\n        /* \"Day-26/code1.sol\":4386:4415  owner.call{value: amount}(\"\") */\n      mload(0x40)\n      tag_165\n      swap1\n      tag_85\n      jump\t// in\n    tag_165:\n      0x00\n      mload(0x40)\n      dup1\n      dup4\n      sub\n      dup2\n      dup6\n      dup8\n      gas\n      call\n      swap3\n      pop\n      pop\n      pop\n      returndatasize\n      dup1\n      0x00\n      dup2\n      eq\n      tag_168\n      jumpi\n      mload(0x40)\n      swap2\n      pop\n      and(add(returndatasize, 0x3f), not(0x1f))\n      dup3\n      add\n      0x40\n      mstore\n      returndatasize\n      dup3\n      mstore\n      returndatasize\n      0x00\n      0x20\n      dup5\n      add\n      returndatacopy\n      jump(tag_167)\n    tag_168:\n      0x60\n      swap2\n      pop\n    tag_167:\n      pop\n        /* \"Day-26/code1.sol\":4370:4415  (bool sent, ) = owner.call{value: amount}(\"\") */\n      pop\n      swap1\n      pop\n        /* \"Day-26/code1.sol\":4434:4438  sent */\n      dup1\n        /* \"Day-26/code1.sol\":4426:4461  require(sent, \"Failed to send ETH\") */\n      tag_169\n      jumpi\n      mload(0x40)\n      0x08c379a000000000000000000000000000000000000000000000000000000000\n      dup2\n      mstore\n      0x04\n      add\n      tag_170\n      swap1\n      tag_91\n      jump\t// in\n    tag_170:\n      mload(0x40)\n      dup1\n      swap2\n      sub\n      swap1\n      revert\n    tag_169:\n        /* \"Day-26/code1.sol\":4275:4469  {... */\n      pop\n        /* \"Day-26/code1.sol\":4223:4469  function recoverETH(uint amount) external onlyOwner {... */\n      pop\n      jump\t// out\n        /* \"Day-26/code1.sol\":216:264  uint public constant SECONDS_PER_YEAR = 31536000 */\n    tag_64:\n        /* \"Day-26/code1.sol\":256:264  31536000 */\n      0x01e13380\n        /* \"Day-26/code1.sol\":216:264  uint public constant SECONDS_PER_YEAR = 31536000 */\n      dup2\n      jump\t// out\n        /* \"Day-26/code1.sol\":491:534  mapping(address => Loan[]) public borrowers */\n    tag_69:\n      mstore(0x20, 0x03)\n      dup2\n      0x00\n      mstore\n      keccak256(0x00, 0x40)\n      dup2\n      dup2\n      sload\n      dup2\n      lt\n      tag_171\n      jumpi\n      0x00\n      dup1\n      revert\n    tag_171:\n      swap1\n      0x00\n      mstore\n      keccak256(0x00, 0x20)\n      swap1\n      0x05\n      mul\n      add\n      0x00\n      swap2\n      pop\n      swap2\n      pop\n      pop\n      dup1\n      0x00\n      add\n      0x00\n      swap1\n      sload\n      swap1\n      0x0100\n      exp\n      swap1\n      div\n      0xffffffffffffffffffffffffffffffffffffffff\n      and\n      swap1\n      dup1\n      0x01\n      add\n      sload\n      swap1\n      dup1\n      0x02\n      add\n      sload\n      swap1\n      dup1\n      0x03\n      add\n      sload\n      swap1\n      dup1\n      0x04\n      add\n      0x00\n      swap1\n      sload\n      swap1\n      0x0100\n      exp\n      swap1\n      div\n      0xff\n      and\n      swap1\n      pop\n      dup6\n      jump\t// out\n        /* \"Day-26/code1.sol\":4035:4156  function getLoanCount(address borrower) external view returns (uint) {... */\n    tag_75:\n        /* \"Day-26/code1.sol\":4098:4102  uint */\n      0x00\n        /* \"Day-26/code1.sol\":4122:4131  borrowers */\n      0x03\n        /* \"Day-26/code1.sol\":4122:4141  borrowers[borrower] */\n      0x00\n        /* \"Day-26/code1.sol\":4132:4140  borrower */\n      dup4\n        /* \"Day-26/code1.sol\":4122:4141  borrowers[borrower] */\n      0xffffffffffffffffffffffffffffffffffffffff\n      and\n      0xffffffffffffffffffffffffffffffffffffffff\n      and\n      dup2\n      mstore\n      0x20\n      add\n      swap1\n      dup2\n      mstore\n      0x20\n      add\n      0x00\n      keccak256\n        /* \"Day-26/code1.sol\":4122:4148  borrowers[borrower].length */\n      dup1\n      sload\n      swap1\n      pop\n        /* \"Day-26/code1.sol\":4115:4148  return borrowers[borrower].length */\n      swap1\n      pop\n        /* \"Day-26/code1.sol\":4035:4156  function getLoanCount(address borrower) external view returns (uint) {... */\n      swap2\n      swap1\n      pop\n      jump\t// out\n        /* \"#utility.yul\":7:84   */\n    tag_174:\n        /* \"#utility.yul\":44:51   */\n      0x00\n        /* \"#utility.yul\":73:78   */\n      dup2\n        /* \"#utility.yul\":62:78   */\n      swap1\n      pop\n        /* \"#utility.yul\":7:84   */\n      swap2\n      swap1\n      pop\n      jump\t// out\n        /* \"#utility.yul\":90:208   */\n    tag_175:\n        /* \"#utility.yul\":177:201   */\n      tag_219\n        /* \"#utility.yul\":195:200   */\n      dup2\n        /* \"#utility.yul\":177:201   */\n      tag_174\n      jump\t// in\n    tag_219:\n        /* \"#utility.yul\":172:175   */\n      dup3\n        /* \"#utility.yul\":165:202   */\n      mstore\n        /* \"#utility.yul\":90:208   */\n      pop\n      pop\n      jump\t// out\n        /* \"#utility.yul\":214:436   */\n    tag_21:\n        /* \"#utility.yul\":307:311   */\n      0x00\n        /* \"#utility.yul\":345:347   */\n      0x20\n        /* \"#utility.yul\":334:343   */\n      dup3\n        /* \"#utility.yul\":330:348   */\n      add\n        /* \"#utility.yul\":322:348   */\n      swap1\n      pop\n        /* \"#utility.yul\":358:429   */\n      tag_221\n        /* \"#utility.yul\":426:427   */\n      0x00\n        /* \"#utility.yul\":415:424   */\n      dup4\n        /* \"#utility.yul\":411:428   */\n      add\n        /* \"#utility.yul\":402:408   */\n      dup5\n        /* \"#utility.yul\":358:429   */\n      tag_175\n      jump\t// in\n    tag_221:\n        /* \"#utility.yul\":214:436   */\n      swap3\n      swap2\n      pop\n      pop\n      jump\t// out\n        /* \"#utility.yul\":523:640   */\n    tag_177:\n        /* \"#utility.yul\":632:633   */\n      0x00\n        /* \"#utility.yul\":629:630   */\n      dup1\n        /* \"#utility.yul\":622:634   */\n      revert\n        /* \"#utility.yul\":769:895   */\n    tag_179:\n        /* \"#utility.yul\":806:813   */\n      0x00\n        /* \"#utility.yul\":846:888   */\n      0xffffffffffffffffffffffffffffffffffffffff\n        /* \"#utility.yul\":839:844   */\n      dup3\n        /* \"#utility.yul\":835:889   */\n      and\n        /* \"#utility.yul\":824:889   */\n      swap1\n      pop\n        /* \"#utility.yul\":769:895   */\n      swap2\n      swap1\n      pop\n      jump\t// out\n        /* \"#utility.yul\":901:997   */\n    tag_180:\n        /* \"#utility.yul\":938:945   */\n      0x00\n        /* \"#utility.yul\":967:991   */\n      tag_227\n        /* \"#utility.yul\":985:990   */\n      dup3\n        /* \"#utility.yul\":967:991   */\n      tag_179\n      jump\t// in\n    tag_227:\n        /* \"#utility.yul\":956:991   */\n      swap1\n      pop\n        /* \"#utility.yul\":901:997   */\n      swap2\n      swap1\n      pop\n      jump\t// out\n        /* \"#utility.yul\":1003:1125   */\n    tag_181:\n        /* \"#utility.yul\":1076:1100   */\n      tag_229\n        /* \"#utility.yul\":1094:1099   */\n      dup2\n        /* \"#utility.yul\":1076:1100   */\n      tag_180\n      jump\t// in\n    tag_229:\n        /* \"#utility.yul\":1069:1074   */\n      dup2\n        /* \"#utility.yul\":1066:1101   */\n      eq\n        /* \"#utility.yul\":1056:1119   */\n      tag_230\n      jumpi\n        /* \"#utility.yul\":1115:1116   */\n      0x00\n        /* \"#utility.yul\":1112:1113   */\n      dup1\n        /* \"#utility.yul\":1105:1117   */\n      revert\n        /* \"#utility.yul\":1056:1119   */\n    tag_230:\n        /* \"#utility.yul\":1003:1125   */\n      pop\n      jump\t// out\n        /* \"#utility.yul\":1131:1270   */\n    tag_182:\n        /* \"#utility.yul\":1177:1182   */\n      0x00\n        /* \"#utility.yul\":1215:1221   */\n      dup2\n        /* \"#utility.yul\":1202:1222   */\n      calldataload\n        /* \"#utility.yul\":1193:1222   */\n      swap1\n      pop\n        /* \"#utility.yul\":1231:1264   */\n      tag_232\n        /* \"#utility.yul\":1258:1263   */\n      dup2\n        /* \"#utility.yul\":1231:1264   */\n      tag_181\n      jump\t// in\n    tag_232:\n        /* \"#utility.yul\":1131:1270   */\n      swap3\n      swap2\n      pop\n      pop\n      jump\t// out\n        /* \"#utility.yul\":1276:1605   */\n    tag_25:\n        /* \"#utility.yul\":1335:1341   */\n      0x00\n        /* \"#utility.yul\":1384:1386   */\n      0x20\n        /* \"#utility.yul\":1372:1381   */\n      dup3\n        /* \"#utility.yul\":1363:1370   */\n      dup5\n        /* \"#utility.yul\":1359:1382   */\n      sub\n        /* \"#utility.yul\":1355:1387   */\n      slt\n        /* \"#utility.yul\":1352:1471   */\n      iszero\n      tag_234\n      jumpi\n        /* \"#utility.yul\":1390:1469   */\n      tag_235\n      tag_177\n      jump\t// in\n    tag_235:\n        /* \"#utility.yul\":1352:1471   */\n    tag_234:\n        /* \"#utility.yul\":1510:1511   */\n      0x00\n        /* \"#utility.yul\":1535:1588   */\n      tag_236\n        /* \"#utility.yul\":1580:1587   */\n      dup5\n        /* \"#utility.yul\":1571:1577   */\n      dup3\n        /* \"#utility.yul\":1560:1569   */\n      dup6\n        /* \"#utility.yul\":1556:1578   */\n      add\n        /* \"#utility.yul\":1535:1588   */\n      tag_182\n      jump\t// in\n    tag_236:\n        /* \"#utility.yul\":1525:1588   */\n      swap2\n      pop\n        /* \"#utility.yul\":1481:1598   */\n      pop\n        /* \"#utility.yul\":1276:1605   */\n      swap3\n      swap2\n      pop\n      pop\n      jump\t// out\n        /* \"#utility.yul\":1611:1733   */\n    tag_183:\n        /* \"#utility.yul\":1684:1708   */\n      tag_238\n        /* \"#utility.yul\":1702:1707   */\n      dup2\n        /* \"#utility.yul\":1684:1708   */\n      tag_174\n      jump\t// in\n    tag_238:\n        /* \"#utility.yul\":1677:1682   */\n      dup2\n        /* \"#utility.yul\":1674:1709   */\n      eq\n        /* \"#utility.yul\":1664:1727   */\n      tag_239\n      jumpi\n        /* \"#utility.yul\":1723:1724   */\n      0x00\n        /* \"#utility.yul\":1720:1721   */\n      dup1\n        /* \"#utility.yul\":1713:1725   */\n      revert\n        /* \"#utility.yul\":1664:1727   */\n    tag_239:\n        /* \"#utility.yul\":1611:1733   */\n      pop\n      jump\t// out\n        /* \"#utility.yul\":1739:1878   */\n    tag_184:\n        /* \"#utility.yul\":1785:1790   */\n      0x00\n        /* \"#utility.yul\":1823:1829   */\n      dup2\n        /* \"#utility.yul\":1810:1830   */\n      calldataload\n        /* \"#utility.yul\":1801:1830   */\n      swap1\n      pop\n        /* \"#utility.yul\":1839:1872   */\n      tag_241\n        /* \"#utility.yul\":1866:1871   */\n      dup2\n        /* \"#utility.yul\":1839:1872   */\n      tag_183\n      jump\t// in\n    tag_241:\n        /* \"#utility.yul\":1739:1878   */\n      swap3\n      swap2\n      pop\n      pop\n      jump\t// out\n        /* \"#utility.yul\":1884:2213   */\n    tag_31:\n        /* \"#utility.yul\":1943:1949   */\n      0x00\n        /* \"#utility.yul\":1992:1994   */\n      0x20\n        /* \"#utility.yul\":1980:1989   */\n      dup3\n        /* \"#utility.yul\":1971:1978   */\n      dup5\n        /* \"#utility.yul\":1967:1990   */\n      sub\n        /* \"#utility.yul\":1963:1995   */\n      slt\n        /* \"#utility.yul\":1960:2079   */\n      iszero\n      tag_243\n      jumpi\n        /* \"#utility.yul\":1998:2077   */\n      tag_244\n      tag_177\n      jump\t// in\n    tag_244:\n        /* \"#utility.yul\":1960:2079   */\n    tag_243:\n        /* \"#utility.yul\":2118:2119   */\n      0x00\n        /* \"#utility.yul\":2143:2196   */\n      tag_245\n        /* \"#utility.yul\":2188:2195   */\n      dup5\n        /* \"#utility.yul\":2179:2185   */\n      dup3\n        /* \"#utility.yul\":2168:2177   */\n      dup6\n        /* \"#utility.yul\":2164:2186   */\n      add\n        /* \"#utility.yul\":2143:2196   */\n      tag_184\n      jump\t// in\n    tag_245:\n        /* \"#utility.yul\":2133:2196   */\n      swap2\n      pop\n        /* \"#utility.yul\":2089:2206   */\n      pop\n        /* \"#utility.yul\":1884:2213   */\n      swap3\n      swap2\n      pop\n      pop\n      jump\t// out\n        /* \"#utility.yul\":2219:2337   */\n    tag_185:\n        /* \"#utility.yul\":2306:2330   */\n      tag_247\n        /* \"#utility.yul\":2324:2329   */\n      dup2\n        /* \"#utility.yul\":2306:2330   */\n      tag_180\n      jump\t// in\n    tag_247:\n        /* \"#utility.yul\":2301:2304   */\n      dup3\n        /* \"#utility.yul\":2294:2331   */\n      mstore\n        /* \"#utility.yul\":2219:2337   */\n      pop\n      pop\n      jump\t// out\n        /* \"#utility.yul\":2343:2565   */\n    tag_44:\n        /* \"#utility.yul\":2436:2440   */\n      0x00\n        /* \"#utility.yul\":2474:2476   */\n      0x20\n        /* \"#utility.yul\":2463:2472   */\n      dup3\n        /* \"#utility.yul\":2459:2477   */\n      add\n        /* \"#utility.yul\":2451:2477   */\n      swap1\n      pop\n        /* \"#utility.yul\":2487:2558   */\n      tag_249\n        /* \"#utility.yul\":2555:2556   */\n      0x00\n        /* \"#utility.yul\":2544:2553   */\n      dup4\n        /* \"#utility.yul\":2540:2557   */\n      add\n        /* \"#utility.yul\":2531:2537   */\n      dup5\n        /* \"#utility.yul\":2487:2558   */\n      tag_185\n      jump\t// in\n    tag_249:\n        /* \"#utility.yul\":2343:2565   */\n      swap3\n      swap2\n      pop\n      pop\n      jump\t// out\n        /* \"#utility.yul\":2571:3045   */\n    tag_48:\n        /* \"#utility.yul\":2639:2645   */\n      0x00\n        /* \"#utility.yul\":2647:2653   */\n      dup1\n        /* \"#utility.yul\":2696:2698   */\n      0x40\n        /* \"#utility.yul\":2684:2693   */\n      dup4\n        /* \"#utility.yul\":2675:2682   */\n      dup6\n        /* \"#utility.yul\":2671:2694   */\n      sub\n        /* \"#utility.yul\":2667:2699   */\n      slt\n        /* \"#utility.yul\":2664:2783   */\n      iszero\n      tag_251\n      jumpi\n        /* \"#utility.yul\":2702:2781   */\n      tag_252\n      tag_177\n      jump\t// in\n    tag_252:\n        /* \"#utility.yul\":2664:2783   */\n    tag_251:\n        /* \"#utility.yul\":2822:2823   */\n      0x00\n        /* \"#utility.yul\":2847:2900   */\n      tag_253\n        /* \"#utility.yul\":2892:2899   */\n      dup6\n        /* \"#utility.yul\":2883:2889   */\n      dup3\n        /* \"#utility.yul\":2872:2881   */\n      dup7\n        /* \"#utility.yul\":2868:2890   */\n      add\n        /* \"#utility.yul\":2847:2900   */\n      tag_182\n      jump\t// in\n    tag_253:\n        /* \"#utility.yul\":2837:2900   */\n      swap3\n      pop\n        /* \"#utility.yul\":2793:2910   */\n      pop\n        /* \"#utility.yul\":2949:2951   */\n      0x20\n        /* \"#utility.yul\":2975:3028   */\n      tag_254\n        /* \"#utility.yul\":3020:3027   */\n      dup6\n        /* \"#utility.yul\":3011:3017   */\n      dup3\n        /* \"#utility.yul\":3000:3009   */\n      dup7\n        /* \"#utility.yul\":2996:3018   */\n      add\n        /* \"#utility.yul\":2975:3028   */\n      tag_184\n      jump\t// in\n    tag_254:\n        /* \"#utility.yul\":2965:3028   */\n      swap2\n      pop\n        /* \"#utility.yul\":2920:3038   */\n      pop\n        /* \"#utility.yul\":2571:3045   */\n      swap3\n      pop\n      swap3\n      swap1\n      pop\n      jump\t// out\n        /* \"#utility.yul\":3051:3141   */\n    tag_186:\n        /* \"#utility.yul\":3085:3092   */\n      0x00\n        /* \"#utility.yul\":3128:3133   */\n      dup2\n        /* \"#utility.yul\":3121:3134   */\n      iszero\n        /* \"#utility.yul\":3114:3135   */\n      iszero\n        /* \"#utility.yul\":3103:3135   */\n      swap1\n      pop\n        /* \"#utility.yul\":3051:3141   */\n      swap2\n      swap1\n      pop\n      jump\t// out\n        /* \"#utility.yul\":3147:3256   */\n    tag_187:\n        /* \"#utility.yul\":3228:3249   */\n      tag_257\n        /* \"#utility.yul\":3243:3248   */\n      dup2\n        /* \"#utility.yul\":3228:3249   */\n      tag_186\n      jump\t// in\n    tag_257:\n        /* \"#utility.yul\":3223:3226   */\n      dup3\n        /* \"#utility.yul\":3216:3250   */\n      mstore\n        /* \"#utility.yul\":3147:3256   */\n      pop\n      pop\n      jump\t// out\n        /* \"#utility.yul\":3262:3803   */\n    tag_51:\n        /* \"#utility.yul\":3433:3437   */\n      0x00\n        /* \"#utility.yul\":3471:3474   */\n      0x80\n        /* \"#utility.yul\":3460:3469   */\n      dup3\n        /* \"#utility.yul\":3456:3475   */\n      add\n        /* \"#utility.yul\":3448:3475   */\n      swap1\n      pop\n        /* \"#utility.yul\":3485:3556   */\n      tag_259\n        /* \"#utility.yul\":3553:3554   */\n      0x00\n        /* \"#utility.yul\":3542:3551   */\n      dup4\n        /* \"#utility.yul\":3538:3555   */\n      add\n        /* \"#utility.yul\":3529:3535   */\n      dup8\n        /* \"#utility.yul\":3485:3556   */\n      tag_175\n      jump\t// in\n    tag_259:\n        /* \"#utility.yul\":3566:3638   */\n      tag_260\n        /* \"#utility.yul\":3634:3636   */\n      0x20\n        /* \"#utility.yul\":3623:3632   */\n      dup4\n        /* \"#utility.yul\":3619:3637   */\n      add\n        /* \"#utility.yul\":3610:3616   */\n      dup7\n        /* \"#utility.yul\":3566:3638   */\n      tag_175\n      jump\t// in\n    tag_260:\n        /* \"#utility.yul\":3648:3720   */\n      tag_261\n        /* \"#utility.yul\":3716:3718   */\n      0x40\n        /* \"#utility.yul\":3705:3714   */\n      dup4\n        /* \"#utility.yul\":3701:3719   */\n      add\n        /* \"#utility.yul\":3692:3698   */\n      dup6\n        /* \"#utility.yul\":3648:3720   */\n      tag_175\n      jump\t// in\n    tag_261:\n        /* \"#utility.yul\":3730:3796   */\n      tag_262\n        /* \"#utility.yul\":3792:3794   */\n      0x60\n        /* \"#utility.yul\":3781:3790   */\n      dup4\n        /* \"#utility.yul\":3777:3795   */\n      add\n        /* \"#utility.yul\":3768:3774   */\n      dup5\n        /* \"#utility.yul\":3730:3796   */\n      tag_187\n      jump\t// in\n    tag_262:\n        /* \"#utility.yul\":3262:3803   */\n      swap6\n      swap5\n      pop\n      pop\n      pop\n      pop\n      pop\n      jump\t// out\n        /* \"#utility.yul\":3809:4461   */\n    tag_71:\n        /* \"#utility.yul\":4008:4012   */\n      0x00\n        /* \"#utility.yul\":4046:4049   */\n      0xa0\n        /* \"#utility.yul\":4035:4044   */\n      dup3\n        /* \"#utility.yul\":4031:4050   */\n      add\n        /* \"#utility.yul\":4023:4050   */\n      swap1\n      pop\n        /* \"#utility.yul\":4060:4131   */\n      tag_264\n        /* \"#utility.yul\":4128:4129   */\n      0x00\n        /* \"#utility.yul\":4117:4126   */\n      dup4\n        /* \"#utility.yul\":4113:4130   */\n      add\n        /* \"#utility.yul\":4104:4110   */\n      dup9\n        /* \"#utility.yul\":4060:4131   */\n      tag_185\n      jump\t// in\n    tag_264:\n        /* \"#utility.yul\":4141:4213   */\n      tag_265\n        /* \"#utility.yul\":4209:4211   */\n      0x20\n        /* \"#utility.yul\":4198:4207   */\n      dup4\n        /* \"#utility.yul\":4194:4212   */\n      add\n        /* \"#utility.yul\":4185:4191   */\n      dup8\n        /* \"#utility.yul\":4141:4213   */\n      tag_175\n      jump\t// in\n    tag_265:\n        /* \"#utility.yul\":4223:4295   */\n      tag_266\n        /* \"#utility.yul\":4291:4293   */\n      0x40\n        /* \"#utility.yul\":4280:4289   */\n      dup4\n        /* \"#utility.yul\":4276:4294   */\n      add\n        /* \"#utility.yul\":4267:4273   */\n      dup7\n        /* \"#utility.yul\":4223:4295   */\n      tag_175\n      jump\t// in\n    tag_266:\n        /* \"#utility.yul\":4305:4377   */\n      tag_267\n        /* \"#utility.yul\":4373:4375   */\n      0x60\n        /* \"#utility.yul\":4362:4371   */\n      dup4\n        /* \"#utility.yul\":4358:4376   */\n      add\n        /* \"#utility.yul\":4349:4355   */\n      dup6\n        /* \"#utility.yul\":4305:4377   */\n      tag_175\n      jump\t// in\n    tag_267:\n        /* \"#utility.yul\":4387:4454   */\n      tag_268\n        /* \"#utility.yul\":4449:4452   */\n      0x80\n        /* \"#utility.yul\":4438:4447   */\n      dup4\n        /* \"#utility.yul\":4434:4453   */\n      add\n        /* \"#utility.yul\":4425:4431   */\n      dup5\n        /* \"#utility.yul\":4387:4454   */\n      tag_187\n      jump\t// in\n    tag_268:\n        /* \"#utility.yul\":3809:4461   */\n      swap7\n      swap6\n      pop\n      pop\n      pop\n      pop\n      pop\n      pop\n      jump\t// out\n        /* \"#utility.yul\":4467:4636   */\n    tag_188:\n        /* \"#utility.yul\":4551:4562   */\n      0x00\n        /* \"#utility.yul\":4585:4591   */\n      dup3\n        /* \"#utility.yul\":4580:4583   */\n      dup3\n        /* \"#utility.yul\":4573:4592   */\n      mstore\n        /* \"#utility.yul\":4625:4629   */\n      0x20\n        /* \"#utility.yul\":4620:4623   */\n      dup3\n        /* \"#utility.yul\":4616:4630   */\n      add\n        /* \"#utility.yul\":4601:4630   */\n      swap1\n      pop\n        /* \"#utility.yul\":4467:4636   */\n      swap3\n      swap2\n      pop\n      pop\n      jump\t// out\n        /* \"#utility.yul\":4642:4812   */\n    tag_189:\n        /* \"#utility.yul\":4782:4804   */\n      0x496e73756666696369656e742062616c616e6365000000000000000000000000\n        /* \"#utility.yul\":4778:4779   */\n      0x00\n        /* \"#utility.yul\":4770:4776   */\n      dup3\n        /* \"#utility.yul\":4766:4780   */\n      add\n        /* \"#utility.yul\":4759:4805   */\n      mstore\n        /* \"#utility.yul\":4642:4812   */\n      pop\n      jump\t// out\n        /* \"#utility.yul\":4818:5184   */\n    tag_190:\n        /* \"#utility.yul\":4960:4963   */\n      0x00\n        /* \"#utility.yul\":4981:5048   */\n      tag_272\n        /* \"#utility.yul\":5045:5047   */\n      0x14\n        /* \"#utility.yul\":5040:5043   */\n      dup4\n        /* \"#utility.yul\":4981:5048   */\n      tag_188\n      jump\t// in\n    tag_272:\n        /* \"#utility.yul\":4974:5048   */\n      swap2\n      pop\n        /* \"#utility.yul\":5057:5150   */\n      tag_273\n        /* \"#utility.yul\":5146:5149   */\n      dup3\n        /* \"#utility.yul\":5057:5150   */\n      tag_189\n      jump\t// in\n    tag_273:\n        /* \"#utility.yul\":5175:5177   */\n      0x20\n        /* \"#utility.yul\":5170:5173   */\n      dup3\n        /* \"#utility.yul\":5166:5178   */\n      add\n        /* \"#utility.yul\":5159:5178   */\n      swap1\n      pop\n        /* \"#utility.yul\":4818:5184   */\n      swap2\n      swap1\n      pop\n      jump\t// out\n        /* \"#utility.yul\":5190:5609   */\n    tag_80:\n        /* \"#utility.yul\":5356:5360   */\n      0x00\n        /* \"#utility.yul\":5394:5396   */\n      0x20\n        /* \"#utility.yul\":5383:5392   */\n      dup3\n        /* \"#utility.yul\":5379:5397   */\n      add\n        /* \"#utility.yul\":5371:5397   */\n      swap1\n      pop\n        /* \"#utility.yul\":5443:5452   */\n      dup2\n        /* \"#utility.yul\":5437:5441   */\n      dup2\n        /* \"#utility.yul\":5433:5453   */\n      sub\n        /* \"#utility.yul\":5429:5430   */\n      0x00\n        /* \"#utility.yul\":5418:5427   */\n      dup4\n        /* \"#utility.yul\":5414:5431   */\n      add\n        /* \"#utility.yul\":5407:5454   */\n      mstore\n        /* \"#utility.yul\":5471:5602   */\n      tag_275\n        /* \"#utility.yul\":5597:5601   */\n      dup2\n        /* \"#utility.yul\":5471:5602   */\n      tag_190\n      jump\t// in\n    tag_275:\n        /* \"#utility.yul\":5463:5602   */\n      swap1\n      pop\n        /* \"#utility.yul\":5190:5609   */\n      swap2\n      swap1\n      pop\n      jump\t// out\n        /* \"#utility.yul\":5615:5795   */\n    tag_191:\n        /* \"#utility.yul\":5663:5740   */\n      0x4e487b7100000000000000000000000000000000000000000000000000000000\n        /* \"#utility.yul\":5660:5661   */\n      0x00\n        /* \"#utility.yul\":5653:5741   */\n      mstore\n        /* \"#utility.yul\":5760:5764   */\n      0x11\n        /* \"#utility.yul\":5757:5758   */\n      0x04\n        /* \"#utility.yul\":5750:5765   */\n      mstore\n        /* \"#utility.yul\":5784:5788   */\n      0x24\n        /* \"#utility.yul\":5781:5782   */\n      0x00\n        /* \"#utility.yul\":5774:5789   */\n      revert\n        /* \"#utility.yul\":5801:5995   */\n    tag_82:\n        /* \"#utility.yul\":5841:5845   */\n      0x00\n        /* \"#utility.yul\":5861:5881   */\n      tag_278\n        /* \"#utility.yul\":5879:5880   */\n      dup3\n        /* \"#utility.yul\":5861:5881   */\n      tag_174\n      jump\t// in\n    tag_278:\n        /* \"#utility.yul\":5856:5881   */\n      swap2\n      pop\n        /* \"#utility.yul\":5895:5915   */\n      tag_279\n        /* \"#utility.yul\":5913:5914   */\n      dup4\n        /* \"#utility.yul\":5895:5915   */\n      tag_174\n      jump\t// in\n    tag_279:\n        /* \"#utility.yul\":5890:5915   */\n      swap3\n      pop\n        /* \"#utility.yul\":5939:5940   */\n      dup3\n        /* \"#utility.yul\":5936:5937   */\n      dup3\n        /* \"#utility.yul\":5932:5941   */\n      sub\n        /* \"#utility.yul\":5924:5941   */\n      swap1\n      pop\n        /* \"#utility.yul\":5963:5964   */\n      dup2\n        /* \"#utility.yul\":5957:5961   */\n      dup2\n        /* \"#utility.yul\":5954:5965   */\n      gt\n        /* \"#utility.yul\":5951:5988   */\n      iszero\n      tag_280\n      jumpi\n        /* \"#utility.yul\":5968:5986   */\n      tag_281\n      tag_191\n      jump\t// in\n    tag_281:\n        /* \"#utility.yul\":5951:5988   */\n    tag_280:\n        /* \"#utility.yul\":5801:5995   */\n      swap3\n      swap2\n      pop\n      pop\n      jump\t// out\n        /* \"#utility.yul\":6001:6148   */\n    tag_192:\n        /* \"#utility.yul\":6102:6113   */\n      0x00\n        /* \"#utility.yul\":6139:6142   */\n      dup2\n        /* \"#utility.yul\":6124:6142   */\n      swap1\n      pop\n        /* \"#utility.yul\":6001:6148   */\n      swap3\n      swap2\n      pop\n      pop\n      jump\t// out\n        /* \"#utility.yul\":6154:6268   */\n    tag_193:\n      pop\n      jump\t// out\n        /* \"#utility.yul\":6274:6672   */\n    tag_194:\n        /* \"#utility.yul\":6433:6436   */\n      0x00\n        /* \"#utility.yul\":6454:6537   */\n      tag_285\n        /* \"#utility.yul\":6535:6536   */\n      0x00\n        /* \"#utility.yul\":6530:6533   */\n      dup4\n        /* \"#utility.yul\":6454:6537   */\n      tag_192\n      jump\t// in\n    tag_285:\n        /* \"#utility.yul\":6447:6537   */\n      swap2\n      pop\n        /* \"#utility.yul\":6546:6639   */\n      tag_286\n        /* \"#utility.yul\":6635:6638   */\n      dup3\n        /* \"#utility.yul\":6546:6639   */\n      tag_193\n      jump\t// in\n    tag_286:\n        /* \"#utility.yul\":6664:6665   */\n      0x00\n        /* \"#utility.yul\":6659:6662   */\n      dup3\n        /* \"#utility.yul\":6655:6666   */\n      add\n        /* \"#utility.yul\":6648:6666   */\n      swap1\n      pop\n        /* \"#utility.yul\":6274:6672   */\n      swap2\n      swap1\n      pop\n      jump\t// out\n        /* \"#utility.yul\":6678:7057   */\n    tag_85:\n        /* \"#utility.yul\":6862:6865   */\n      0x00\n        /* \"#utility.yul\":6884:7031   */\n      tag_288\n        /* \"#utility.yul\":7027:7030   */\n      dup3\n        /* \"#utility.yul\":6884:7031   */\n      tag_194\n      jump\t// in\n    tag_288:\n        /* \"#utility.yul\":6877:7031   */\n      swap2\n      pop\n        /* \"#utility.yul\":7048:7051   */\n      dup2\n        /* \"#utility.yul\":7041:7051   */\n      swap1\n      pop\n        /* \"#utility.yul\":6678:7057   */\n      swap2\n      swap1\n      pop\n      jump\t// out\n        /* \"#utility.yul\":7063:7231   */\n    tag_195:\n        /* \"#utility.yul\":7203:7223   */\n      0x4661696c656420746f2073656e64204554480000000000000000000000000000\n        /* \"#utility.yul\":7199:7200   */\n      0x00\n        /* \"#utility.yul\":7191:7197   */\n      dup3\n        /* \"#utility.yul\":7187:7201   */\n      add\n        /* \"#utility.yul\":7180:7224   */\n      mstore\n        /* \"#utility.yul\":7063:7231   */\n      pop\n      jump\t// out\n        /* \"#utility.yul\":7237:7603   */\n    tag_196:\n        /* \"#utility.yul\":7379:7382   */\n      0x00\n        /* \"#utility.yul\":7400:7467   */\n      tag_291\n        /* \"#utility.yul\":7464:7466   */\n      0x12\n        /* \"#utility.yul\":7459:7462   */\n      dup4\n        /* \"#utility.yul\":7400:7467   */\n      tag_188\n      jump\t// in\n    tag_291:\n        /* \"#utility.yul\":7393:7467   */\n      swap2\n      pop\n        /* \"#utility.yul\":7476:7569   */\n      tag_292\n        /* \"#utility.yul\":7565:7568   */\n      dup3\n        /* \"#utility.yul\":7476:7569   */\n      tag_195\n      jump\t// in\n    tag_292:\n        /* \"#utility.yul\":7594:7596   */\n      0x20\n        /* \"#utility.yul\":7589:7592   */\n      dup3\n        /* \"#utility.yul\":7585:7597   */\n      add\n        /* \"#utility.yul\":7578:7597   */\n      swap1\n      pop\n        /* \"#utility.yul\":7237:7603   */\n      swap2\n      swap1\n      pop\n      jump\t// out\n        /* \"#utility.yul\":7609:8028   */\n    tag_91:\n        /* \"#utility.yul\":7775:7779   */\n      0x00\n        /* \"#utility.yul\":7813:7815   */\n      0x20\n        /* \"#utility.yul\":7802:7811   */\n      dup3\n        /* \"#utility.yul\":7798:7816   */\n      add\n        /* \"#utility.yul\":7790:7816   */\n      swap1\n      pop\n        /* \"#utility.yul\":7862:7871   */\n      dup2\n        /* \"#utility.yul\":7856:7860   */\n      dup2\n        /* \"#utility.yul\":7852:7872   */\n      sub\n        /* \"#utility.yul\":7848:7849   */\n      0x00\n        /* \"#utility.yul\":7837:7846   */\n      dup4\n        /* \"#utility.yul\":7833:7850   */\n      add\n        /* \"#utility.yul\":7826:7873   */\n      mstore\n        /* \"#utility.yul\":7890:8021   */\n      tag_294\n        /* \"#utility.yul\":8016:8020   */\n      dup2\n        /* \"#utility.yul\":7890:8021   */\n      tag_196\n      jump\t// in\n    tag_294:\n        /* \"#utility.yul\":7882:8021   */\n      swap1\n      pop\n        /* \"#utility.yul\":7609:8028   */\n      swap2\n      swap1\n      pop\n      jump\t// out\n        /* \"#utility.yul\":8034:8202   */\n    tag_197:\n        /* \"#utility.yul\":8174:8194   */\n      0x496e76616c6964206c6f616e20696e6465780000000000000000000000000000\n        /* \"#utility.yul\":8170:8171   */\n      0x00\n        /* \"#utility.yul\":8162:8168   */\n      dup3\n        /* \"#utility.yul\":8158:8172   */\n      add\n        /* \"#utility.yul\":8151:8195   */\n      mstore\n        /* \"#utility.yul\":8034:8202   */\n      pop\n      jump\t// out\n        /* \"#utility.yul\":8208:8574   */\n    tag_198:\n        /* \"#utility.yul\":8350:8353   */\n      0x00\n        /* \"#utility.yul\":8371:8438   */\n      tag_297\n        /* \"#utility.yul\":8435:8437   */\n      0x12\n        /* \"#utility.yul\":8430:8433   */\n      dup4\n        /* \"#utility.yul\":8371:8438   */\n      tag_188\n      jump\t// in\n    tag_297:\n        /* \"#utility.yul\":8364:8438   */\n      swap2\n      pop\n        /* \"#utility.yul\":8447:8540   */\n      tag_298\n        /* \"#utility.yul\":8536:8539   */\n      dup3\n        /* \"#utility.yul\":8447:8540   */\n      tag_197\n      jump\t// in\n    tag_298:\n        /* \"#utility.yul\":8565:8567   */\n      0x20\n        /* \"#utility.yul\":8560:8563   */\n      dup3\n        /* \"#utility.yul\":8556:8568   */\n      add\n        /* \"#utility.yul\":8549:8568   */\n      swap1\n      pop\n        /* \"#utility.yul\":8208:8574   */\n      swap2\n      swap1\n      pop\n      jump\t// out\n        /* \"#utility.yul\":8580:8999   */\n    tag_96:\n        /* \"#utility.yul\":8746:8750   */\n      0x00\n        /* \"#utility.yul\":8784:8786   */\n      0x20\n        /* \"#utility.yul\":8773:8782   */\n      dup3\n        /* \"#utility.yul\":8769:8787   */\n      add\n        /* \"#utility.yul\":8761:8787   */\n      swap1\n      pop\n        /* \"#utility.yul\":8833:8842   */\n      dup2\n        /* \"#utility.yul\":8827:8831   */\n      dup2\n        /* \"#utility.yul\":8823:8843   */\n      sub\n        /* \"#utility.yul\":8819:8820   */\n      0x00\n        /* \"#utility.yul\":8808:8817   */\n      dup4\n        /* \"#utility.yul\":8804:8821   */\n      add\n        /* \"#utility.yul\":8797:8844   */\n      mstore\n        /* \"#utility.yul\":8861:8992   */\n      tag_300\n        /* \"#utility.yul\":8987:8991   */\n      dup2\n        /* \"#utility.yul\":8861:8992   */\n      tag_198\n      jump\t// in\n    tag_300:\n        /* \"#utility.yul\":8853:8992   */\n      swap1\n      pop\n        /* \"#utility.yul\":8580:8999   */\n      swap2\n      swap1\n      pop\n      jump\t// out\n        /* \"#utility.yul\":9005:9185   */\n    tag_99:\n        /* \"#utility.yul\":9053:9130   */\n      0x4e487b7100000000000000000000000000000000000000000000000000000000\n        /* \"#utility.yul\":9050:9051   */\n      0x00\n        /* \"#utility.yul\":9043:9131   */\n      mstore\n        /* \"#utility.yul\":9150:9154   */\n      0x32\n        /* \"#utility.yul\":9147:9148   */\n      0x04\n        /* \"#utility.yul\":9140:9155   */\n      mstore\n        /* \"#utility.yul\":9174:9178   */\n      0x24\n        /* \"#utility.yul\":9171:9172   */\n      0x00\n        /* \"#utility.yul\":9164:9179   */\n      revert\n        /* \"#utility.yul\":9191:9360   */\n    tag_199:\n        /* \"#utility.yul\":9331:9352   */\n      0x4c6f616e20616c72656164792072657061696400000000000000000000000000\n        /* \"#utility.yul\":9327:9328   */\n      0x00\n        /* \"#utility.yul\":9319:9325   */\n      dup3\n        /* \"#utility.yul\":9315:9329   */\n      add\n        /* \"#utility.yul\":9308:9353   */\n      mstore\n        /* \"#utility.yul\":9191:9360   */\n      pop\n      jump\t// out\n        /* \"#utility.yul\":9366:9732   */\n    tag_200:\n        /* \"#utility.yul\":9508:9511   */\n      0x00\n        /* \"#utility.yul\":9529:9596   */\n      tag_304\n        /* \"#utility.yul\":9593:9595   */\n      0x13\n        /* \"#utility.yul\":9588:9591   */\n      dup4\n        /* \"#utility.yul\":9529:9596   */\n      tag_188\n      jump\t// in\n    tag_304:\n        /* \"#utility.yul\":9522:9596   */\n      swap2\n      pop\n        /* \"#utility.yul\":9605:9698   */\n      tag_305\n        /* \"#utility.yul\":9694:9697   */\n      dup3\n        /* \"#utility.yul\":9605:9698   */\n      tag_199\n      jump\t// in\n    tag_305:\n        /* \"#utility.yul\":9723:9725   */\n      0x20\n        /* \"#utility.yul\":9718:9721   */\n      dup3\n        /* \"#utility.yul\":9714:9726   */\n      add\n        /* \"#utility.yul\":9707:9726   */\n      swap1\n      pop\n        /* \"#utility.yul\":9366:9732   */\n      swap2\n      swap1\n      pop\n      jump\t// out\n        /* \"#utility.yul\":9738:10157   */\n    tag_103:\n        /* \"#utility.yul\":9904:9908   */\n      0x00\n        /* \"#utility.yul\":9942:9944   */\n      0x20\n        /* \"#utility.yul\":9931:9940   */\n      dup3\n        /* \"#utility.yul\":9927:9945   */\n      add\n        /* \"#utility.yul\":9919:9945   */\n      swap1\n      pop\n        /* \"#utility.yul\":9991:10000   */\n      dup2\n        /* \"#utility.yul\":9985:9989   */\n      dup2\n        /* \"#utility.yul\":9981:10001   */\n      sub\n        /* \"#utility.yul\":9977:9978   */\n      0x00\n        /* \"#utility.yul\":9966:9975   */\n      dup4\n        /* \"#utility.yul\":9962:9979   */\n      add\n        /* \"#utility.yul\":9955:10002   */\n      mstore\n        /* \"#utility.yul\":10019:10150   */\n      tag_307\n        /* \"#utility.yul\":10145:10149   */\n      dup2\n        /* \"#utility.yul\":10019:10150   */\n      tag_200\n      jump\t// in\n    tag_307:\n        /* \"#utility.yul\":10011:10150   */\n      swap1\n      pop\n        /* \"#utility.yul\":9738:10157   */\n      swap2\n      swap1\n      pop\n      jump\t// out\n        /* \"#utility.yul\":10163:10573   */\n    tag_106:\n        /* \"#utility.yul\":10203:10210   */\n      0x00\n        /* \"#utility.yul\":10226:10246   */\n      tag_309\n        /* \"#utility.yul\":10244:10245   */\n      dup3\n        /* \"#utility.yul\":10226:10246   */\n      tag_174\n      jump\t// in\n    tag_309:\n        /* \"#utility.yul\":10221:10246   */\n      swap2\n      pop\n        /* \"#utility.yul\":10260:10280   */\n      tag_310\n        /* \"#utility.yul\":10278:10279   */\n      dup4\n        /* \"#utility.yul\":10260:10280   */\n      tag_174\n      jump\t// in\n    tag_310:\n        /* \"#utility.yul\":10255:10280   */\n      swap3\n      pop\n        /* \"#utility.yul\":10315:10316   */\n      dup3\n        /* \"#utility.yul\":10312:10313   */\n      dup3\n        /* \"#utility.yul\":10308:10317   */\n      mul\n        /* \"#utility.yul\":10337:10367   */\n      tag_311\n        /* \"#utility.yul\":10355:10366   */\n      dup2\n        /* \"#utility.yul\":10337:10367   */\n      tag_174\n      jump\t// in\n    tag_311:\n        /* \"#utility.yul\":10326:10367   */\n      swap2\n      pop\n        /* \"#utility.yul\":10516:10517   */\n      dup3\n        /* \"#utility.yul\":10507:10514   */\n      dup3\n        /* \"#utility.yul\":10503:10518   */\n      div\n        /* \"#utility.yul\":10500:10501   */\n      dup5\n        /* \"#utility.yul\":10497:10519   */\n      eq\n        /* \"#utility.yul\":10477:10478   */\n      dup4\n        /* \"#utility.yul\":10470:10479   */\n      iszero\n        /* \"#utility.yul\":10450:10533   */\n      or\n        /* \"#utility.yul\":10427:10566   */\n      tag_312\n      jumpi\n        /* \"#utility.yul\":10546:10564   */\n      tag_313\n      tag_191\n      jump\t// in\n    tag_313:\n        /* \"#utility.yul\":10427:10566   */\n    tag_312:\n        /* \"#utility.yul\":10211:10573   */\n      pop\n        /* \"#utility.yul\":10163:10573   */\n      swap3\n      swap2\n      pop\n      pop\n      jump\t// out\n        /* \"#utility.yul\":10579:10759   */\n    tag_201:\n        /* \"#utility.yul\":10627:10704   */\n      0x4e487b7100000000000000000000000000000000000000000000000000000000\n        /* \"#utility.yul\":10624:10625   */\n      0x00\n        /* \"#utility.yul\":10617:10705   */\n      mstore\n        /* \"#utility.yul\":10724:10728   */\n      0x12\n        /* \"#utility.yul\":10721:10722   */\n      0x04\n        /* \"#utility.yul\":10714:10729   */\n      mstore\n        /* \"#utility.yul\":10748:10752   */\n      0x24\n        /* \"#utility.yul\":10745:10746   */\n      0x00\n        /* \"#utility.yul\":10738:10753   */\n      revert\n        /* \"#utility.yul\":10765:10950   */\n    tag_110:\n        /* \"#utility.yul\":10805:10806   */\n      0x00\n        /* \"#utility.yul\":10822:10842   */\n      tag_316\n        /* \"#utility.yul\":10840:10841   */\n      dup3\n        /* \"#utility.yul\":10822:10842   */\n      tag_174\n      jump\t// in\n    tag_316:\n        /* \"#utility.yul\":10817:10842   */\n      swap2\n      pop\n        /* \"#utility.yul\":10856:10876   */\n      tag_317\n        /* \"#utility.yul\":10874:10875   */\n      dup4\n        /* \"#utility.yul\":10856:10876   */\n      tag_174\n      jump\t// in\n    tag_317:\n        /* \"#utility.yul\":10851:10876   */\n      swap3\n      pop\n        /* \"#utility.yul\":10895:10896   */\n      dup3\n        /* \"#utility.yul\":10885:10920   */\n      tag_318\n      jumpi\n        /* \"#utility.yul\":10900:10918   */\n      tag_319\n      tag_201\n      jump\t// in\n    tag_319:\n        /* \"#utility.yul\":10885:10920   */\n    tag_318:\n        /* \"#utility.yul\":10942:10943   */\n      dup3\n        /* \"#utility.yul\":10939:10940   */\n      dup3\n        /* \"#utility.yul\":10935:10944   */\n      div\n        /* \"#utility.yul\":10930:10944   */\n      swap1\n      pop\n        /* \"#utility.yul\":10765:10950   */\n      swap3\n      swap2\n      pop\n      pop\n      jump\t// out\n        /* \"#utility.yul\":10956:11147   */\n    tag_112:\n        /* \"#utility.yul\":10996:10999   */\n      0x00\n        /* \"#utility.yul\":11015:11035   */\n      tag_321\n        /* \"#utility.yul\":11033:11034   */\n      dup3\n        /* \"#utility.yul\":11015:11035   */\n      tag_174\n      jump\t// in\n    tag_321:\n        /* \"#utility.yul\":11010:11035   */\n      swap2\n      pop\n        /* \"#utility.yul\":11049:11069   */\n      tag_322\n        /* \"#utility.yul\":11067:11068   */\n      dup4\n        /* \"#utility.yul\":11049:11069   */\n      tag_174\n      jump\t// in\n    tag_322:\n        /* \"#utility.yul\":11044:11069   */\n      swap3\n      pop\n        /* \"#utility.yul\":11092:11093   */\n      dup3\n        /* \"#utility.yul\":11089:11090   */\n      dup3\n        /* \"#utility.yul\":11085:11094   */\n      add\n        /* \"#utility.yul\":11078:11094   */\n      swap1\n      pop\n        /* \"#utility.yul\":11113:11116   */\n      dup1\n        /* \"#utility.yul\":11110:11111   */\n      dup3\n        /* \"#utility.yul\":11107:11117   */\n      gt\n        /* \"#utility.yul\":11104:11140   */\n      iszero\n      tag_323\n      jumpi\n        /* \"#utility.yul\":11120:11138   */\n      tag_324\n      tag_191\n      jump\t// in\n    tag_324:\n        /* \"#utility.yul\":11104:11140   */\n    tag_323:\n        /* \"#utility.yul\":10956:11147   */\n      swap3\n      swap2\n      pop\n      pop\n      jump\t// out\n        /* \"#utility.yul\":11153:11332   */\n    tag_202:\n        /* \"#utility.yul\":11293:11324   */\n      0x496e73756666696369656e742072657061796d656e7420616d6f756e74000000\n        /* \"#utility.yul\":11289:11290   */\n      0x00\n        /* \"#utility.yul\":11281:11287   */\n      dup3\n        /* \"#utility.yul\":11277:11291   */\n      add\n        /* \"#utility.yul\":11270:11325   */\n      mstore\n        /* \"#utility.yul\":11153:11332   */\n      pop\n      jump\t// out\n        /* \"#utility.yul\":11338:11704   */\n    tag_203:\n        /* \"#utility.yul\":11480:11483   */\n      0x00\n        /* \"#utility.yul\":11501:11568   */\n      tag_327\n        /* \"#utility.yul\":11565:11567   */\n      0x1d\n        /* \"#utility.yul\":11560:11563   */\n      dup4\n        /* \"#utility.yul\":11501:11568   */\n      tag_188\n      jump\t// in\n    tag_327:\n        /* \"#utility.yul\":11494:11568   */\n      swap2\n      pop\n        /* \"#utility.yul\":11577:11670   */\n      tag_328\n        /* \"#utility.yul\":11666:11669   */\n      dup3\n        /* \"#utility.yul\":11577:11670   */\n      tag_202\n      jump\t// in\n    tag_328:\n        /* \"#utility.yul\":11695:11697   */\n      0x20\n        /* \"#utility.yul\":11690:11693   */\n      dup3\n        /* \"#utility.yul\":11686:11698   */\n      add\n        /* \"#utility.yul\":11679:11698   */\n      swap1\n      pop\n        /* \"#utility.yul\":11338:11704   */\n      swap2\n      swap1\n      pop\n      jump\t// out\n        /* \"#utility.yul\":11710:12129   */\n    tag_115:\n        /* \"#utility.yul\":11876:11880   */\n      0x00\n        /* \"#utility.yul\":11914:11916   */\n      0x20\n        /* \"#utility.yul\":11903:11912   */\n      dup3\n        /* \"#utility.yul\":11899:11917   */\n      add\n        /* \"#utility.yul\":11891:11917   */\n      swap1\n      pop\n        /* \"#utility.yul\":11963:11972   */\n      dup2\n        /* \"#utility.yul\":11957:11961   */\n      dup2\n        /* \"#utility.yul\":11953:11973   */\n      sub\n        /* \"#utility.yul\":11949:11950   */\n      0x00\n        /* \"#utility.yul\":11938:11947   */\n      dup4\n        /* \"#utility.yul\":11934:11951   */\n      add\n        /* \"#utility.yul\":11927:11974   */\n      mstore\n        /* \"#utility.yul\":11991:12122   */\n      tag_330\n        /* \"#utility.yul\":12117:12121   */\n      dup2\n        /* \"#utility.yul\":11991:12122   */\n      tag_203\n      jump\t// in\n    tag_330:\n        /* \"#utility.yul\":11983:12122   */\n      swap1\n      pop\n        /* \"#utility.yul\":11710:12129   */\n      swap2\n      swap1\n      pop\n      jump\t// out\n        /* \"#utility.yul\":12135:12312   */\n    tag_204:\n        /* \"#utility.yul\":12275:12304   */\n      0x4661696c656420746f20726566756e6420657863657373204554480000000000\n        /* \"#utility.yul\":12271:12272   */\n      0x00\n        /* \"#utility.yul\":12263:12269   */\n      dup3\n        /* \"#utility.yul\":12259:12273   */\n      add\n        /* \"#utility.yul\":12252:12305   */\n      mstore\n        /* \"#utility.yul\":12135:12312   */\n      pop\n      jump\t// out\n        /* \"#utility.yul\":12318:12684   */\n    tag_205:\n        /* \"#utility.yul\":12460:12463   */\n      0x00\n        /* \"#utility.yul\":12481:12548   */\n      tag_333\n        /* \"#utility.yul\":12545:12547   */\n      0x1b\n        /* \"#utility.yul\":12540:12543   */\n      dup4\n        /* \"#utility.yul\":12481:12548   */\n      tag_188\n      jump\t// in\n    tag_333:\n        /* \"#utility.yul\":12474:12548   */\n      swap2\n      pop\n        /* \"#utility.yul\":12557:12650   */\n      tag_334\n        /* \"#utility.yul\":12646:12649   */\n      dup3\n        /* \"#utility.yul\":12557:12650   */\n      tag_204\n      jump\t// in\n    tag_334:\n        /* \"#utility.yul\":12675:12677   */\n      0x20\n        /* \"#utility.yul\":12670:12673   */\n      dup3\n        /* \"#utility.yul\":12666:12678   */\n      add\n        /* \"#utility.yul\":12659:12678   */\n      swap1\n      pop\n        /* \"#utility.yul\":12318:12684   */\n      swap2\n      swap1\n      pop\n      jump\t// out\n        /* \"#utility.yul\":12690:13109   */\n    tag_125:\n        /* \"#utility.yul\":12856:12860   */\n      0x00\n        /* \"#utility.yul\":12894:12896   */\n      0x20\n        /* \"#utility.yul\":12883:12892   */\n      dup3\n        /* \"#utility.yul\":12879:12897   */\n      add\n        /* \"#utility.yul\":12871:12897   */\n      swap1\n      pop\n        /* \"#utility.yul\":12943:12952   */\n      dup2\n        /* \"#utility.yul\":12937:12941   */\n      dup2\n        /* \"#utility.yul\":12933:12953   */\n      sub\n        /* \"#utility.yul\":12929:12930   */\n      0x00\n        /* \"#utility.yul\":12918:12927   */\n      dup4\n        /* \"#utility.yul\":12914:12931   */\n      add\n        /* \"#utility.yul\":12907:12954   */\n      mstore\n        /* \"#utility.yul\":12971:13102   */\n      tag_336\n        /* \"#utility.yul\":13097:13101   */\n      dup2\n        /* \"#utility.yul\":12971:13102   */\n      tag_205\n      jump\t// in\n    tag_336:\n        /* \"#utility.yul\":12963:13102   */\n      swap1\n      pop\n        /* \"#utility.yul\":12690:13109   */\n      swap2\n      swap1\n      pop\n      jump\t// out\n        /* \"#utility.yul\":13115:13447   */\n    tag_127:\n        /* \"#utility.yul\":13236:13240   */\n      0x00\n        /* \"#utility.yul\":13274:13276   */\n      0x40\n        /* \"#utility.yul\":13263:13272   */\n      dup3\n        /* \"#utility.yul\":13259:13277   */\n      add\n        /* \"#utility.yul\":13251:13277   */\n      swap1\n      pop\n        /* \"#utility.yul\":13287:13358   */\n      tag_338\n        /* \"#utility.yul\":13355:13356   */\n      0x00\n        /* \"#utility.yul\":13344:13353   */\n      dup4\n        /* \"#utility.yul\":13340:13357   */\n      add\n        /* \"#utility.yul\":13331:13337   */\n      dup6\n        /* \"#utility.yul\":13287:13358   */\n      tag_175\n      jump\t// in\n    tag_338:\n        /* \"#utility.yul\":13368:13440   */\n      tag_339\n        /* \"#utility.yul\":13436:13438   */\n      0x20\n        /* \"#utility.yul\":13425:13434   */\n      dup4\n        /* \"#utility.yul\":13421:13439   */\n      add\n        /* \"#utility.yul\":13412:13418   */\n      dup5\n        /* \"#utility.yul\":13368:13440   */\n      tag_175\n      jump\t// in\n    tag_339:\n        /* \"#utility.yul\":13115:13447   */\n      swap4\n      swap3\n      pop\n      pop\n      pop\n      jump\t// out\n        /* \"#utility.yul\":13453:13625   */\n    tag_206:\n        /* \"#utility.yul\":13593:13617   */\n      0x496e73756666696369656e74206c697175696469747900000000000000000000\n        /* \"#utility.yul\":13589:13590   */\n      0x00\n        /* \"#utility.yul\":13581:13587   */\n      dup3\n        /* \"#utility.yul\":13577:13591   */\n      add\n        /* \"#utility.yul\":13570:13618   */\n      mstore\n        /* \"#utility.yul\":13453:13625   */\n      pop\n      jump\t// out\n        /* \"#utility.yul\":13631:13997   */\n    tag_207:\n        /* \"#utility.yul\":13773:13776   */\n      0x00\n        /* \"#utility.yul\":13794:13861   */\n      tag_342\n        /* \"#utility.yul\":13858:13860   */\n      0x16\n        /* \"#utility.yul\":13853:13856   */\n      dup4\n        /* \"#utility.yul\":13794:13861   */\n      tag_188\n      jump\t// in\n    tag_342:\n        /* \"#utility.yul\":13787:13861   */\n      swap2\n      pop\n        /* \"#utility.yul\":13870:13963   */\n      tag_343\n        /* \"#utility.yul\":13959:13962   */\n      dup3\n        /* \"#utility.yul\":13870:13963   */\n      tag_206\n      jump\t// in\n    tag_343:\n        /* \"#utility.yul\":13988:13990   */\n      0x20\n        /* \"#utility.yul\":13983:13986   */\n      dup3\n        /* \"#utility.yul\":13979:13991   */\n      add\n        /* \"#utility.yul\":13972:13991   */\n      swap1\n      pop\n        /* \"#utility.yul\":13631:13997   */\n      swap2\n      swap1\n      pop\n      jump\t// out\n        /* \"#utility.yul\":14003:14422   */\n    tag_137:\n        /* \"#utility.yul\":14169:14173   */\n      0x00\n        /* \"#utility.yul\":14207:14209   */\n      0x20\n        /* \"#utility.yul\":14196:14205   */\n      dup3\n        /* \"#utility.yul\":14192:14210   */\n      add\n        /* \"#utility.yul\":14184:14210   */\n      swap1\n      pop\n        /* \"#utility.yul\":14256:14265   */\n      dup2\n        /* \"#utility.yul\":14250:14254   */\n      dup2\n        /* \"#utility.yul\":14246:14266   */\n      sub\n        /* \"#utility.yul\":14242:14243   */\n      0x00\n        /* \"#utility.yul\":14231:14240   */\n      dup4\n        /* \"#utility.yul\":14227:14244   */\n      add\n        /* \"#utility.yul\":14220:14267   */\n      mstore\n        /* \"#utility.yul\":14284:14415   */\n      tag_345\n        /* \"#utility.yul\":14410:14414   */\n      dup2\n        /* \"#utility.yul\":14284:14415   */\n      tag_207\n      jump\t// in\n    tag_345:\n        /* \"#utility.yul\":14276:14415   */\n      swap1\n      pop\n        /* \"#utility.yul\":14003:14422   */\n      swap2\n      swap1\n      pop\n      jump\t// out\n        /* \"#utility.yul\":14428:14605   */\n    tag_208:\n        /* \"#utility.yul\":14568:14597   */\n      0x4d75737420626f72726f77206d6f7265207468616e2030204554480000000000\n        /* \"#utility.yul\":14564:14565   */\n      0x00\n        /* \"#utility.yul\":14556:14562   */\n      dup3\n        /* \"#utility.yul\":14552:14566   */\n      add\n        /* \"#utility.yul\":14545:14598   */\n      mstore\n        /* \"#utility.yul\":14428:14605   */\n      pop\n      jump\t// out\n        /* \"#utility.yul\":14611:14977   */\n    tag_209:\n        /* \"#utility.yul\":14753:14756   */\n      0x00\n        /* \"#utility.yul\":14774:14841   */\n      tag_348\n        /* \"#utility.yul\":14838:14840   */\n      0x1b\n        /* \"#utility.yul\":14833:14836   */\n      dup4\n        /* \"#utility.yul\":14774:14841   */\n      tag_188\n      jump\t// in\n    tag_348:\n        /* \"#utility.yul\":14767:14841   */\n      swap2\n      pop\n        /* \"#utility.yul\":14850:14943   */\n      tag_349\n        /* \"#utility.yul\":14939:14942   */\n      dup3\n        /* \"#utility.yul\":14850:14943   */\n      tag_208\n      jump\t// in\n    tag_349:\n        /* \"#utility.yul\":14968:14970   */\n      0x20\n        /* \"#utility.yul\":14963:14966   */\n      dup3\n        /* \"#utility.yul\":14959:14971   */\n      add\n        /* \"#utility.yul\":14952:14971   */\n      swap1\n      pop\n        /* \"#utility.yul\":14611:14977   */\n      swap2\n      swap1\n      pop\n      jump\t// out\n        /* \"#utility.yul\":14983:15402   */\n    tag_140:\n        /* \"#utility.yul\":15149:15153   */\n      0x00\n        /* \"#utility.yul\":15187:15189   */\n      0x20\n        /* \"#utility.yul\":15176:15185   */\n      dup3\n        /* \"#utility.yul\":15172:15190   */\n      add\n        /* \"#utility.yul\":15164:15190   */\n      swap1\n      pop\n        /* \"#utility.yul\":15236:15245   */\n      dup2\n        /* \"#utility.yul\":15230:15234   */\n      dup2\n        /* \"#utility.yul\":15226:15246   */\n      sub\n        /* \"#utility.yul\":15222:15223   */\n      0x00\n        /* \"#utility.yul\":15211:15220   */\n      dup4\n        /* \"#utility.yul\":15207:15224   */\n      add\n        /* \"#utility.yul\":15200:15247   */\n      mstore\n        /* \"#utility.yul\":15264:15395   */\n      tag_351\n        /* \"#utility.yul\":15390:15394   */\n      dup2\n        /* \"#utility.yul\":15264:15395   */\n      tag_209\n      jump\t// in\n    tag_351:\n        /* \"#utility.yul\":15256:15395   */\n      swap1\n      pop\n        /* \"#utility.yul\":14983:15402   */\n      swap2\n      swap1\n      pop\n      jump\t// out\n        /* \"#utility.yul\":15408:15586   */\n    tag_210:\n        /* \"#utility.yul\":15548:15578   */\n      0x4d757374206465706f736974206d6f7265207468616e20302045544800000000\n        /* \"#utility.yul\":15544:15545   */\n      0x00\n        /* \"#utility.yul\":15536:15542   */\n      dup3\n        /* \"#utility.yul\":15532:15546   */\n      add\n        /* \"#utility.yul\":15525:15579   */\n      mstore\n        /* \"#utility.yul\":15408:15586   */\n      pop\n      jump\t// out\n        /* \"#utility.yul\":15592:15958   */\n    tag_211:\n        /* \"#utility.yul\":15734:15737   */\n      0x00\n        /* \"#utility.yul\":15755:15822   */\n      tag_354\n        /* \"#utility.yul\":15819:15821   */\n      0x1c\n        /* \"#utility.yul\":15814:15817   */\n      dup4\n        /* \"#utility.yul\":15755:15822   */\n      tag_188\n      jump\t// in\n    tag_354:\n        /* \"#utility.yul\":15748:15822   */\n      swap2\n      pop\n        /* \"#utility.yul\":15831:15924   */\n      tag_355\n        /* \"#utility.yul\":15920:15923   */\n      dup3\n        /* \"#utility.yul\":15831:15924   */\n      tag_210\n      jump\t// in\n    tag_355:\n        /* \"#utility.yul\":15949:15951   */\n      0x20\n        /* \"#utility.yul\":15944:15947   */\n      dup3\n        /* \"#utility.yul\":15940:15952   */\n      add\n        /* \"#utility.yul\":15933:15952   */\n      swap1\n      pop\n        /* \"#utility.yul\":15592:15958   */\n      swap2\n      swap1\n      pop\n      jump\t// out\n        /* \"#utility.yul\":15964:16383   */\n    tag_153:\n        /* \"#utility.yul\":16130:16134   */\n      0x00\n        /* \"#utility.yul\":16168:16170   */\n      0x20\n        /* \"#utility.yul\":16157:16166   */\n      dup3\n        /* \"#utility.yul\":16153:16171   */\n      add\n        /* \"#utility.yul\":16145:16171   */\n      swap1\n      pop\n        /* \"#utility.yul\":16217:16226   */\n      dup2\n        /* \"#utility.yul\":16211:16215   */\n      dup2\n        /* \"#utility.yul\":16207:16227   */\n      sub\n        /* \"#utility.yul\":16203:16204   */\n      0x00\n        /* \"#utility.yul\":16192:16201   */\n      dup4\n        /* \"#utility.yul\":16188:16205   */\n      add\n        /* \"#utility.yul\":16181:16228   */\n      mstore\n        /* \"#utility.yul\":16245:16376   */\n      tag_357\n        /* \"#utility.yul\":16371:16375   */\n      dup2\n        /* \"#utility.yul\":16245:16376   */\n      tag_211\n      jump\t// in\n    tag_357:\n        /* \"#utility.yul\":16237:16376   */\n      swap1\n      pop\n        /* \"#utility.yul\":15964:16383   */\n      swap2\n      swap1\n      pop\n      jump\t// out\n        /* \"#utility.yul\":16389:16563   */\n    tag_212:\n        /* \"#utility.yul\":16529:16555   */\n      0x4f6e6c79206f776e65722063616e2063616c6c20746869730000000000000000\n        /* \"#utility.yul\":16525:16526   */\n      0x00\n        /* \"#utility.yul\":16517:16523   */\n      dup3\n        /* \"#utility.yul\":16513:16527   */\n      add\n        /* \"#utility.yul\":16506:16556   */\n      mstore\n        /* \"#utility.yul\":16389:16563   */\n      pop\n      jump\t// out\n        /* \"#utility.yul\":16569:16935   */\n    tag_213:\n        /* \"#utility.yul\":16711:16714   */\n      0x00\n        /* \"#utility.yul\":16732:16799   */\n      tag_360\n        /* \"#utility.yul\":16796:16798   */\n      0x18\n        /* \"#utility.yul\":16791:16794   */\n      dup4\n        /* \"#utility.yul\":16732:16799   */\n      tag_188\n      jump\t// in\n    tag_360:\n        /* \"#utility.yul\":16725:16799   */\n      swap2\n      pop\n        /* \"#utility.yul\":16808:16901   */\n      tag_361\n        /* \"#utility.yul\":16897:16900   */\n      dup3\n        /* \"#utility.yul\":16808:16901   */\n      tag_212\n      jump\t// in\n    tag_361:\n        /* \"#utility.yul\":16926:16928   */\n      0x20\n        /* \"#utility.yul\":16921:16924   */\n      dup3\n        /* \"#utility.yul\":16917:16929   */\n      add\n        /* \"#utility.yul\":16910:16929   */\n      swap1\n      pop\n        /* \"#utility.yul\":16569:16935   */\n      swap2\n      swap1\n      pop\n      jump\t// out\n        /* \"#utility.yul\":16941:17360   */\n    tag_160:\n        /* \"#utility.yul\":17107:17111   */\n      0x00\n        /* \"#utility.yul\":17145:17147   */\n      0x20\n        /* \"#utility.yul\":17134:17143   */\n      dup3\n        /* \"#utility.yul\":17130:17148   */\n      add\n        /* \"#utility.yul\":17122:17148   */\n      swap1\n      pop\n        /* \"#utility.yul\":17194:17203   */\n      dup2\n        /* \"#utility.yul\":17188:17192   */\n      dup2\n        /* \"#utility.yul\":17184:17204   */\n      sub\n        /* \"#utility.yul\":17180:17181   */\n      0x00\n        /* \"#utility.yul\":17169:17178   */\n      dup4\n        /* \"#utility.yul\":17165:17182   */\n      add\n        /* \"#utility.yul\":17158:17205   */\n      mstore\n        /* \"#utility.yul\":17222:17353   */\n      tag_363\n        /* \"#utility.yul\":17348:17352   */\n      dup2\n        /* \"#utility.yul\":17222:17353   */\n      tag_213\n      jump\t// in\n    tag_363:\n        /* \"#utility.yul\":17214:17353   */\n      swap1\n      pop\n        /* \"#utility.yul\":16941:17360   */\n      swap2\n      swap1\n      pop\n      jump\t// out\n        /* \"#utility.yul\":17366:17545   */\n    tag_214:\n        /* \"#utility.yul\":17506:17537   */\n      0x496e73756666696369656e7420636f6e74726163742062616c616e6365000000\n        /* \"#utility.yul\":17502:17503   */\n      0x00\n        /* \"#utility.yul\":17494:17500   */\n      dup3\n        /* \"#utility.yul\":17490:17504   */\n      add\n        /* \"#utility.yul\":17483:17538   */\n      mstore\n        /* \"#utility.yul\":17366:17545   */\n      pop\n      jump\t// out\n        /* \"#utility.yul\":17551:17917   */\n    tag_215:\n        /* \"#utility.yul\":17693:17696   */\n      0x00\n        /* \"#utility.yul\":17714:17781   */\n      tag_366\n        /* \"#utility.yul\":17778:17780   */\n      0x1d\n        /* \"#utility.yul\":17773:17776   */\n      dup4\n        /* \"#utility.yul\":17714:17781   */\n      tag_188\n      jump\t// in\n    tag_366:\n        /* \"#utility.yul\":17707:17781   */\n      swap2\n      pop\n        /* \"#utility.yul\":17790:17883   */\n      tag_367\n        /* \"#utility.yul\":17879:17882   */\n      dup3\n        /* \"#utility.yul\":17790:17883   */\n      tag_214\n      jump\t// in\n    tag_367:\n        /* \"#utility.yul\":17908:17910   */\n      0x20\n        /* \"#utility.yul\":17903:17906   */\n      dup3\n        /* \"#utility.yul\":17899:17911   */\n      add\n        /* \"#utility.yul\":17892:17911   */\n      swap1\n      pop\n        /* \"#utility.yul\":17551:17917   */\n      swap2\n      swap1\n      pop\n      jump\t// out\n        /* \"#utility.yul\":17923:18342   */\n    tag_164:\n        /* \"#utility.yul\":18089:18093   */\n      0x00\n        /* \"#utility.yul\":18127:18129   */\n      0x20\n        /* \"#utility.yul\":18116:18125   */\n      dup3\n        /* \"#utility.yul\":18112:18130   */\n      add\n        /* \"#utility.yul\":18104:18130   */\n      swap1\n      pop\n        /* \"#utility.yul\":18176:18185   */\n      dup2\n        /* \"#utility.yul\":18170:18174   */\n      dup2\n        /* \"#utility.yul\":18166:18186   */\n      sub\n        /* \"#utility.yul\":18162:18163   */\n      0x00\n        /* \"#utility.yul\":18151:18160   */\n      dup4\n        /* \"#utility.yul\":18147:18164   */\n      add\n        /* \"#utility.yul\":18140:18187   */\n      mstore\n        /* \"#utility.yul\":18204:18335   */\n      tag_369\n        /* \"#utility.yul\":18330:18334   */\n      dup2\n        /* \"#utility.yul\":18204:18335   */\n      tag_215\n      jump\t// in\n    tag_369:\n        /* \"#utility.yul\":18196:18335   */\n      swap1\n      pop\n        /* \"#utility.yul\":17923:18342   */\n      swap2\n      swap1\n      pop\n      jump\t// out\n\n    auxdata: 0xa2646970667358221220a490f1a6d499b13d5caaa91fc99bf4dc2c9744b7092be206e784e89cc818202a64736f6c634300081a0033\n}\n",
				"bytecode": {
					"linkReferences": {},
					"object": "6080604052348015600e575f80fd5b50335f806101000a81548173ffffffffffffffffffffffffffffffffffffffff021916908373ffffffffffffffffffffffffffffffffffffffff1602179055506118348061005b5f395ff3fe6080604052600436106100c1575f3560e01c8063a1c515861161007e578063d333555311610058578063d333555314610234578063e6a69ab81461025c578063f335ed7614610286578063f53c61e0146102c6576100c1565b8063a1c51586146101c3578063c5ebeaec14610202578063d0e30db01461022a576100c1565b806315770f92146100c557806328fd10d7146100ef5780632e1a7d4d1461012b578063371fd8e6146101535780635b72a33a1461016f5780638da5cb5b14610199575b5f80fd5b3480156100d0575f80fd5b506100d9610302565b6040516100e69190610fa5565b60405180910390f35b3480156100fa575f80fd5b506101156004803603810190610110919061101c565b610308565b6040516101229190610fa5565b60405180910390f35b348015610136575f80fd5b50610151600480360381019061014c9190611071565b61031d565b005b61016d60048036038101906101689190611071565b610502565b005b34801561017a575f80fd5b5061018361082a565b6040516101909190610fa5565b60405180910390f35b3480156101a4575f80fd5b506101ad61082f565b6040516101ba91906110ab565b60405180910390f35b3480156101ce575f80fd5b506101e960048036038101906101e491906110c4565b610852565b6040516101f9949392919061111c565b60405180910390f35b34801561020d575f80fd5b5061022860048036038101906102239190611071565b610968565b005b610232610c2c565b005b34801561023f575f80fd5b5061025a60048036038101906102559190611071565b610d29565b005b348015610267575f80fd5b50610270610ec5565b60405161027d9190610fa5565b60405180910390f35b348015610291575f80fd5b506102ac60048036038101906102a791906110c4565b610ecd565b6040516102bd95949392919061115f565b60405180910390f35b3480156102d1575f80fd5b506102ec60048036038101906102e7919061101c565b610f44565b6040516102f99190610fa5565b60405180910390f35b60015481565b6002602052805f5260405f205f915090505481565b60025f3373ffffffffffffffffffffffffffffffffffffffff1673ffffffffffffffffffffffffffffffffffffffff1681526020019081526020015f205481111561039d576040517f08c379a00000000000000000000000000000000000000000000000000000000081526004016103949061120a565b60405180910390fd5b8060025f3373ffffffffffffffffffffffffffffffffffffffff1673ffffffffffffffffffffffffffffffffffffffff1681526020019081526020015f205f8282546103e99190611255565b925050819055508060015f8282546104019190611255565b925050819055505f3373ffffffffffffffffffffffffffffffffffffffff168260405161042d906112b5565b5f6040518083038185875af1925050503d805f8114610467576040519150601f19603f3d011682016040523d82523d5f602084013e61046c565b606091505b50509050806104b0576040517f08c379a00000000000000000000000000000000000000000000000000000000081526004016104a790611313565b60405180910390fd5b3373ffffffffffffffffffffffffffffffffffffffff167f7084f5476618d8e60b11ef0d7d3f06914655adb8793e28ff7f018d4c76d505d5836040516104f69190610fa5565b60405180910390a25050565b60035f3373ffffffffffffffffffffffffffffffffffffffff1673ffffffffffffffffffffffffffffffffffffffff1681526020019081526020015f20805490508110610584576040517f08c379a000000000000000000000000000000000000000000000000000000000815260040161057b9061137b565b60405180910390fd5b5f60035f3373ffffffffffffffffffffffffffffffffffffffff1673ffffffffffffffffffffffffffffffffffffffff1681526020019081526020015f2082815481106105d4576105d3611399565b5b905f5260205f2090600502019050806004015f9054906101000a900460ff1615610633576040517f08c379a000000000000000000000000000000000000000000000000000000000815260040161062a90611410565b60405180910390fd5b5f8160030154426106449190611255565b90505f60646301e13380610658919061142e565b828460020154856001015461066d919061142e565b610677919061142e565b610681919061149c565b90505f81846001015461069491906114cc565b9050803410156106d9576040517f08c379a00000000000000000000000000000000000000000000000000000000081526004016106d090611549565b60405180910390fd5b6001846004015f6101000a81548160ff0219169083151502179055508060015f82825461070691906114cc565b92505081905550803411156107cf575f81346107229190611255565b90505f3373ffffffffffffffffffffffffffffffffffffffff1682604051610749906112b5565b5f6040518083038185875af1925050503d805f8114610783576040519150601f19603f3d011682016040523d82523d5f602084013e610788565b606091505b50509050806107cc576040517f08c379a00000000000000000000000000000000000000000000000000000000081526004016107c3906115b1565b60405180910390fd5b50505b3373ffffffffffffffffffffffffffffffffffffffff167f1b8cd61ed43bec7c6bdad3a18ffee613f99c853d16c50678d248d879e1b4343885600101548460405161081b9291906115cf565b60405180910390a25050505050565b600581565b5f8054906101000a900473ffffffffffffffffffffffffffffffffffffffff1681565b5f805f8060035f8773ffffffffffffffffffffffffffffffffffffffff1673ffffffffffffffffffffffffffffffffffffffff1681526020019081526020015f208054905085106108d8576040517f08c379a00000000000000000000000000000000000000000000000000000000081526004016108cf9061137b565b60405180910390fd5b5f60035f8873ffffffffffffffffffffffffffffffffffffffff1673ffffffffffffffffffffffffffffffffffffffff1681526020019081526020015f20868154811061092857610927611399565b5b905f5260205f2090600502019050806001015481600201548260030154836004015f9054906101000a900460ff1694509450945094505092959194509250565b6001548111156109ad576040517f08c379a00000000000000000000000000000000000000000000000000000000081526004016109a490611640565b60405180910390fd5b5f81116109ef576040517f08c379a00000000000000000000000000000000000000000000000000000000081526004016109e6906116a8565b60405180910390fd5b5f6040518060a001604052803373ffffffffffffffffffffffffffffffffffffffff168152602001838152602001600581526020014281526020015f1515815250905060035f3373ffffffffffffffffffffffffffffffffffffffff1673ffffffffffffffffffffffffffffffffffffffff1681526020019081526020015f2081908060018154018082558091505060019003905f5260205f2090600502015f909190919091505f820151815f015f6101000a81548173ffffffffffffffffffffffffffffffffffffffff021916908373ffffffffffffffffffffffffffffffffffffffff1602179055506020820151816001015560408201518160020155606082015181600301556080820151816004015f6101000a81548160ff02191690831515021790555050508160015f828254610b2a9190611255565b925050819055505f3373ffffffffffffffffffffffffffffffffffffffff1683604051610b56906112b5565b5f6040518083038185875af1925050503d805f8114610b90576040519150601f19603f3d011682016040523d82523d5f602084013e610b95565b606091505b5050905080610bd9576040517f08c379a0000000000000000000000000000000000000000000000000000000008152600401610bd090611313565b60405180910390fd5b3373ffffffffffffffffffffffffffffffffffffffff167fac59582e5396aca512fa873a2047e7f4c80f8f55d4a06cb34a78a0187f62719f84604051610c1f9190610fa5565b60405180910390a2505050565b5f3411610c6e576040517f08c379a0000000000000000000000000000000000000000000000000000000008152600401610c6590611710565b60405180910390fd5b3460025f3373ffffffffffffffffffffffffffffffffffffffff1673ffffffffffffffffffffffffffffffffffffffff1681526020019081526020015f205f828254610cba91906114cc565b925050819055503460015f828254610cd291906114cc565b925050819055503373ffffffffffffffffffffffffffffffffffffffff167f2da466a7b24304f47e87fa2e1e5a81b9831ce54fec19055ce277ca2f39ba42c434604051610d1f9190610fa5565b60405180910390a2565b5f8054906101000a900473ffffffffffffffffffffffffffffffffffffffff1673ffffffffffffffffffffffffffffffffffffffff163373ffffffffffffffffffffffffffffffffffffffff1614610db6576040517f08c379a0000000000000000000000000000000000000000000000000000000008152600401610dad90611778565b60405180910390fd5b47811115610df9576040517f08c379a0000000000000000000000000000000000000000000000000000000008152600401610df0906117e0565b60405180910390fd5b5f805f9054906101000a900473ffffffffffffffffffffffffffffffffffffffff1673ffffffffffffffffffffffffffffffffffffffff1682604051610e3e906112b5565b5f6040518083038185875af1925050503d805f8114610e78576040519150601f19603f3d011682016040523d82523d5f602084013e610e7d565b606091505b5050905080610ec1576040517f08c379a0000000000000000000000000000000000000000000000000000000008152600401610eb890611313565b60405180910390fd5b5050565b6301e1338081565b6003602052815f5260405f208181548110610ee6575f80fd5b905f5260205f2090600502015f9150915050805f015f9054906101000a900473ffffffffffffffffffffffffffffffffffffffff1690806001015490806002015490806003015490806004015f9054906101000a900460ff16905085565b5f60035f8373ffffffffffffffffffffffffffffffffffffffff1673ffffffffffffffffffffffffffffffffffffffff1681526020019081526020015f20805490509050919050565b5f819050919050565b610f9f81610f8d565b82525050565b5f602082019050610fb85f830184610f96565b92915050565b5f80fd5b5f73ffffffffffffffffffffffffffffffffffffffff82169050919050565b5f610feb82610fc2565b9050919050565b610ffb81610fe1565b8114611005575f80fd5b50565b5f8135905061101681610ff2565b92915050565b5f6020828403121561103157611030610fbe565b5b5f61103e84828501611008565b91505092915050565b61105081610f8d565b811461105a575f80fd5b50565b5f8135905061106b81611047565b92915050565b5f6020828403121561108657611085610fbe565b5b5f6110938482850161105d565b91505092915050565b6110a581610fe1565b82525050565b5f6020820190506110be5f83018461109c565b92915050565b5f80604083850312156110da576110d9610fbe565b5b5f6110e785828601611008565b92505060206110f88582860161105d565b9150509250929050565b5f8115159050919050565b61111681611102565b82525050565b5f60808201905061112f5f830187610f96565b61113c6020830186610f96565b6111496040830185610f96565b611156606083018461110d565b95945050505050565b5f60a0820190506111725f83018861109c565b61117f6020830187610f96565b61118c6040830186610f96565b6111996060830185610f96565b6111a6608083018461110d565b9695505050505050565b5f82825260208201905092915050565b7f496e73756666696369656e742062616c616e63650000000000000000000000005f82015250565b5f6111f46014836111b0565b91506111ff826111c0565b602082019050919050565b5f6020820190508181035f830152611221816111e8565b9050919050565b7f4e487b71000000000000000000000000000000000000000000000000000000005f52601160045260245ffd5b5f61125f82610f8d565b915061126a83610f8d565b925082820390508181111561128257611281611228565b5b92915050565b5f81905092915050565b50565b5f6112a05f83611288565b91506112ab82611292565b5f82019050919050565b5f6112bf82611295565b9150819050919050565b7f4661696c656420746f2073656e642045544800000000000000000000000000005f82015250565b5f6112fd6012836111b0565b9150611308826112c9565b602082019050919050565b5f6020820190508181035f83015261132a816112f1565b9050919050565b7f496e76616c6964206c6f616e20696e64657800000000000000000000000000005f82015250565b5f6113656012836111b0565b915061137082611331565b602082019050919050565b5f6020820190508181035f83015261139281611359565b9050919050565b7f4e487b71000000000000000000000000000000000000000000000000000000005f52603260045260245ffd5b7f4c6f616e20616c726561647920726570616964000000000000000000000000005f82015250565b5f6113fa6013836111b0565b9150611405826113c6565b602082019050919050565b5f6020820190508181035f830152611427816113ee565b9050919050565b5f61143882610f8d565b915061144383610f8d565b925082820261145181610f8d565b9150828204841483151761146857611467611228565b5b5092915050565b7f4e487b71000000000000000000000000000000000000000000000000000000005f52601260045260245ffd5b5f6114a682610f8d565b91506114b183610f8d565b9250826114c1576114c061146f565b5b828204905092915050565b5f6114d682610f8d565b91506114e183610f8d565b92508282019050808211156114f9576114f8611228565b5b92915050565b7f496e73756666696369656e742072657061796d656e7420616d6f756e740000005f82015250565b5f611533601d836111b0565b915061153e826114ff565b602082019050919050565b5f6020820190508181035f83015261156081611527565b9050919050565b7f4661696c656420746f20726566756e64206578636573732045544800000000005f82015250565b5f61159b601b836111b0565b91506115a682611567565b602082019050919050565b5f6020820190508181035f8301526115c88161158f565b9050919050565b5f6040820190506115e25f830185610f96565b6115ef6020830184610f96565b9392505050565b7f496e73756666696369656e74206c6971756964697479000000000000000000005f82015250565b5f61162a6016836111b0565b9150611635826115f6565b602082019050919050565b5f6020820190508181035f8301526116578161161e565b9050919050565b7f4d75737420626f72726f77206d6f7265207468616e20302045544800000000005f82015250565b5f611692601b836111b0565b915061169d8261165e565b602082019050919050565b5f6020820190508181035f8301526116bf81611686565b9050919050565b7f4d757374206465706f736974206d6f7265207468616e203020455448000000005f82015250565b5f6116fa601c836111b0565b9150611705826116c6565b602082019050919050565b5f6020820190508181035f830152611727816116ee565b9050919050565b7f4f6e6c79206f776e65722063616e2063616c6c207468697300000000000000005f82015250565b5f6117626018836111b0565b915061176d8261172e565b602082019050919050565b5f6020820190508181035f83015261178f81611756565b9050919050565b7f496e73756666696369656e7420636f6e74726163742062616c616e63650000005f82015250565b5f6117ca601d836111b0565b91506117d582611796565b602082019050919050565b5f6020820190508181035f8301526117f7816117be565b905091905056fea2646970667358221220a490f1a6d499b13d5caaa91fc99bf4dc2c9744b7092be206e784e89cc818202a64736f6c634300081a0033",
					"opcodes": "PUSH1 0x80 PUSH1 0x40 MSTORE CALLVALUE DUP1 ISZERO PUSH1 0xE JUMPI PUSH0 DUP1 REVERT JUMPDEST POP CALLER PUSH0 DUP1 PUSH2 0x100 EXP DUP2 SLOAD DUP2 PUSH20 0xFFFFFFFFFFFFFFFFFFFFFFFFFFFFFFFFFFFFFFFF MUL NOT AND SWAP1 DUP4 PUSH20 0xFFFFFFFFFFFFFFFFFFFFFFFFFFFFFFFFFFFFFFFF AND MUL OR SWAP1 SSTORE POP PUSH2 0x1834 DUP1 PUSH2 0x5B PUSH0 CODECOPY PUSH0 RETURN INVALID PUSH1 0x80 PUSH1 0x40 MSTORE PUSH1 0x4 CALLDATASIZE LT PUSH2 0xC1 JUMPI PUSH0 CALLDATALOAD PUSH1 0xE0 SHR DUP1 PUSH4 0xA1C51586 GT PUSH2 0x7E JUMPI DUP1 PUSH4 0xD3335553 GT PUSH2 0x58 JUMPI DUP1 PUSH4 0xD3335553 EQ PUSH2 0x234 JUMPI DUP1 PUSH4 0xE6A69AB8 EQ PUSH2 0x25C JUMPI DUP1 PUSH4 0xF335ED76 EQ PUSH2 0x286 JUMPI DUP1 PUSH4 0xF53C61E0 EQ PUSH2 0x2C6 JUMPI PUSH2 0xC1 JUMP JUMPDEST DUP1 PUSH4 0xA1C51586 EQ PUSH2 0x1C3 JUMPI DUP1 PUSH4 0xC5EBEAEC EQ PUSH2 0x202 JUMPI DUP1 PUSH4 0xD0E30DB0 EQ PUSH2 0x22A JUMPI PUSH2 0xC1 JUMP JUMPDEST DUP1 PUSH4 0x15770F92 EQ PUSH2 0xC5 JUMPI DUP1 PUSH4 0x28FD10D7 EQ PUSH2 0xEF JUMPI DUP1 PUSH4 0x2E1A7D4D EQ PUSH2 0x12B JUMPI DUP1 PUSH4 0x371FD8E6 EQ PUSH2 0x153 JUMPI DUP1 PUSH4 0x5B72A33A EQ PUSH2 0x16F JUMPI DUP1 PUSH4 0x8DA5CB5B EQ PUSH2 0x199 JUMPI JUMPDEST PUSH0 DUP1 REVERT JUMPDEST CALLVALUE DUP1 ISZERO PUSH2 0xD0 JUMPI PUSH0 DUP1 REVERT JUMPDEST POP PUSH2 0xD9 PUSH2 0x302 JUMP JUMPDEST PUSH1 0x40 MLOAD PUSH2 0xE6 SWAP2 SWAP1 PUSH2 0xFA5 JUMP JUMPDEST PUSH1 0x40 MLOAD DUP1 SWAP2 SUB SWAP1 RETURN JUMPDEST CALLVALUE DUP1 ISZERO PUSH2 0xFA JUMPI PUSH0 DUP1 REVERT JUMPDEST POP PUSH2 0x115 PUSH1 0x4 DUP1 CALLDATASIZE SUB DUP2 ADD SWAP1 PUSH2 0x110 SWAP2 SWAP1 PUSH2 0x101C JUMP JUMPDEST PUSH2 0x308 JUMP JUMPDEST PUSH1 0x40 MLOAD PUSH2 0x122 SWAP2 SWAP1 PUSH2 0xFA5 JUMP JUMPDEST PUSH1 0x40 MLOAD DUP1 SWAP2 SUB SWAP1 RETURN JUMPDEST CALLVALUE DUP1 ISZERO PUSH2 0x136 JUMPI PUSH0 DUP1 REVERT JUMPDEST POP PUSH2 0x151 PUSH1 0x4 DUP1 CALLDATASIZE SUB DUP2 ADD SWAP1 PUSH2 0x14C SWAP2 SWAP1 PUSH2 0x1071 JUMP JUMPDEST PUSH2 0x31D JUMP JUMPDEST STOP JUMPDEST PUSH2 0x16D PUSH1 0x4 DUP1 CALLDATASIZE SUB DUP2 ADD SWAP1 PUSH2 0x168 SWAP2 SWAP1 PUSH2 0x1071 JUMP JUMPDEST PUSH2 0x502 JUMP JUMPDEST STOP JUMPDEST CALLVALUE DUP1 ISZERO PUSH2 0x17A JUMPI PUSH0 DUP1 REVERT JUMPDEST POP PUSH2 0x183 PUSH2 0x82A JUMP JUMPDEST PUSH1 0x40 MLOAD PUSH2 0x190 SWAP2 SWAP1 PUSH2 0xFA5 JUMP JUMPDEST PUSH1 0x40 MLOAD DUP1 SWAP2 SUB SWAP1 RETURN JUMPDEST CALLVALUE DUP1 ISZERO PUSH2 0x1A4 JUMPI PUSH0 DUP1 REVERT JUMPDEST POP PUSH2 0x1AD PUSH2 0x82F JUMP JUMPDEST PUSH1 0x40 MLOAD PUSH2 0x1BA SWAP2 SWAP1 PUSH2 0x10AB JUMP JUMPDEST PUSH1 0x40 MLOAD DUP1 SWAP2 SUB SWAP1 RETURN JUMPDEST CALLVALUE DUP1 ISZERO PUSH2 0x1CE JUMPI PUSH0 DUP1 REVERT JUMPDEST POP PUSH2 0x1E9 PUSH1 0x4 DUP1 CALLDATASIZE SUB DUP2 ADD SWAP1 PUSH2 0x1E4 SWAP2 SWAP1 PUSH2 0x10C4 JUMP JUMPDEST PUSH2 0x852 JUMP JUMPDEST PUSH1 0x40 MLOAD PUSH2 0x1F9 SWAP5 SWAP4 SWAP3 SWAP2 SWAP1 PUSH2 0x111C JUMP JUMPDEST PUSH1 0x40 MLOAD DUP1 SWAP2 SUB SWAP1 RETURN JUMPDEST CALLVALUE DUP1 ISZERO PUSH2 0x20D JUMPI PUSH0 DUP1 REVERT JUMPDEST POP PUSH2 0x228 PUSH1 0x4 DUP1 CALLDATASIZE SUB DUP2 ADD SWAP1 PUSH2 0x223 SWAP2 SWAP1 PUSH2 0x1071 JUMP JUMPDEST PUSH2 0x968 JUMP JUMPDEST STOP JUMPDEST PUSH2 0x232 PUSH2 0xC2C JUMP JUMPDEST STOP JUMPDEST CALLVALUE DUP1 ISZERO PUSH2 0x23F JUMPI PUSH0 DUP1 REVERT JUMPDEST POP PUSH2 0x25A PUSH1 0x4 DUP1 CALLDATASIZE SUB DUP2 ADD SWAP1 PUSH2 0x255 SWAP2 SWAP1 PUSH2 0x1071 JUMP JUMPDEST PUSH2 0xD29 JUMP JUMPDEST STOP JUMPDEST CALLVALUE DUP1 ISZERO PUSH2 0x267 JUMPI PUSH0 DUP1 REVERT JUMPDEST POP PUSH2 0x270 PUSH2 0xEC5 JUMP JUMPDEST PUSH1 0x40 MLOAD PUSH2 0x27D SWAP2 SWAP1 PUSH2 0xFA5 JUMP JUMPDEST PUSH1 0x40 MLOAD DUP1 SWAP2 SUB SWAP1 RETURN JUMPDEST CALLVALUE DUP1 ISZERO PUSH2 0x291 JUMPI PUSH0 DUP1 REVERT JUMPDEST POP PUSH2 0x2AC PUSH1 0x4 DUP1 CALLDATASIZE SUB DUP2 ADD SWAP1 PUSH2 0x2A7 SWAP2 SWAP1 PUSH2 0x10C4 JUMP JUMPDEST PUSH2 0xECD JUMP JUMPDEST PUSH1 0x40 MLOAD PUSH2 0x2BD SWAP6 SWAP5 SWAP4 SWAP3 SWAP2 SWAP1 PUSH2 0x115F JUMP JUMPDEST PUSH1 0x40 MLOAD DUP1 SWAP2 SUB SWAP1 RETURN JUMPDEST CALLVALUE DUP1 ISZERO PUSH2 0x2D1 JUMPI PUSH0 DUP1 REVERT JUMPDEST POP PUSH2 0x2EC PUSH1 0x4 DUP1 CALLDATASIZE SUB DUP2 ADD SWAP1 PUSH2 0x2E7 SWAP2 SWAP1 PUSH2 0x101C JUMP JUMPDEST PUSH2 0xF44 JUMP JUMPDEST PUSH1 0x40 MLOAD PUSH2 0x2F9 SWAP2 SWAP1 PUSH2 0xFA5 JUMP JUMPDEST PUSH1 0x40 MLOAD DUP1 SWAP2 SUB SWAP1 RETURN JUMPDEST PUSH1 0x1 SLOAD DUP2 JUMP JUMPDEST PUSH1 0x2 PUSH1 0x20 MSTORE DUP1 PUSH0 MSTORE PUSH1 0x40 PUSH0 KECCAK256 PUSH0 SWAP2 POP SWAP1 POP SLOAD DUP2 JUMP JUMPDEST PUSH1 0x2 PUSH0 CALLER PUSH20 0xFFFFFFFFFFFFFFFFFFFFFFFFFFFFFFFFFFFFFFFF AND PUSH20 0xFFFFFFFFFFFFFFFFFFFFFFFFFFFFFFFFFFFFFFFF AND DUP2 MSTORE PUSH1 0x20 ADD SWAP1 DUP2 MSTORE PUSH1 0x20 ADD PUSH0 KECCAK256 SLOAD DUP2 GT ISZERO PUSH2 0x39D JUMPI PUSH1 0x40 MLOAD PUSH32 0x8C379A000000000000000000000000000000000000000000000000000000000 DUP2 MSTORE PUSH1 0x4 ADD PUSH2 0x394 SWAP1 PUSH2 0x120A JUMP JUMPDEST PUSH1 0x40 MLOAD DUP1 SWAP2 SUB SWAP1 REVERT JUMPDEST DUP1 PUSH1 0x2 PUSH0 CALLER PUSH20 0xFFFFFFFFFFFFFFFFFFFFFFFFFFFFFFFFFFFFFFFF AND PUSH20 0xFFFFFFFFFFFFFFFFFFFFFFFFFFFFFFFFFFFFFFFF AND DUP2 MSTORE PUSH1 0x20 ADD SWAP1 DUP2 MSTORE PUSH1 0x20 ADD PUSH0 KECCAK256 PUSH0 DUP3 DUP3 SLOAD PUSH2 0x3E9 SWAP2 SWAP1 PUSH2 0x1255 JUMP JUMPDEST SWAP3 POP POP DUP2 SWAP1 SSTORE POP DUP1 PUSH1 0x1 PUSH0 DUP3 DUP3 SLOAD PUSH2 0x401 SWAP2 SWAP1 PUSH2 0x1255 JUMP JUMPDEST SWAP3 POP POP DUP2 SWAP1 SSTORE POP PUSH0 CALLER PUSH20 0xFFFFFFFFFFFFFFFFFFFFFFFFFFFFFFFFFFFFFFFF AND DUP3 PUSH1 0x40 MLOAD PUSH2 0x42D SWAP1 PUSH2 0x12B5 JUMP JUMPDEST PUSH0 PUSH1 0x40 MLOAD DUP1 DUP4 SUB DUP2 DUP6 DUP8 GAS CALL SWAP3 POP POP POP RETURNDATASIZE DUP1 PUSH0 DUP2 EQ PUSH2 0x467 JUMPI PUSH1 0x40 MLOAD SWAP2 POP PUSH1 0x1F NOT PUSH1 0x3F RETURNDATASIZE ADD AND DUP3 ADD PUSH1 0x40 MSTORE RETURNDATASIZE DUP3 MSTORE RETURNDATASIZE PUSH0 PUSH1 0x20 DUP5 ADD RETURNDATACOPY PUSH2 0x46C JUMP JUMPDEST PUSH1 0x60 SWAP2 POP JUMPDEST POP POP SWAP1 POP DUP1 PUSH2 0x4B0 JUMPI PUSH1 0x40 MLOAD PUSH32 0x8C379A000000000000000000000000000000000000000000000000000000000 DUP2 MSTORE PUSH1 0x4 ADD PUSH2 0x4A7 SWAP1 PUSH2 0x1313 JUMP JUMPDEST PUSH1 0x40 MLOAD DUP1 SWAP2 SUB SWAP1 REVERT JUMPDEST CALLER PUSH20 0xFFFFFFFFFFFFFFFFFFFFFFFFFFFFFFFFFFFFFFFF AND PUSH32 0x7084F5476618D8E60B11EF0D7D3F06914655ADB8793E28FF7F018D4C76D505D5 DUP4 PUSH1 0x40 MLOAD PUSH2 0x4F6 SWAP2 SWAP1 PUSH2 0xFA5 JUMP JUMPDEST PUSH1 0x40 MLOAD DUP1 SWAP2 SUB SWAP1 LOG2 POP POP JUMP JUMPDEST PUSH1 0x3 PUSH0 CALLER PUSH20 0xFFFFFFFFFFFFFFFFFFFFFFFFFFFFFFFFFFFFFFFF AND PUSH20 0xFFFFFFFFFFFFFFFFFFFFFFFFFFFFFFFFFFFFFFFF AND DUP2 MSTORE PUSH1 0x20 ADD SWAP1 DUP2 MSTORE PUSH1 0x20 ADD PUSH0 KECCAK256 DUP1 SLOAD SWAP1 POP DUP2 LT PUSH2 0x584 JUMPI PUSH1 0x40 MLOAD PUSH32 0x8C379A000000000000000000000000000000000000000000000000000000000 DUP2 MSTORE PUSH1 0x4 ADD PUSH2 0x57B SWAP1 PUSH2 0x137B JUMP JUMPDEST PUSH1 0x40 MLOAD DUP1 SWAP2 SUB SWAP1 REVERT JUMPDEST PUSH0 PUSH1 0x3 PUSH0 CALLER PUSH20 0xFFFFFFFFFFFFFFFFFFFFFFFFFFFFFFFFFFFFFFFF AND PUSH20 0xFFFFFFFFFFFFFFFFFFFFFFFFFFFFFFFFFFFFFFFF AND DUP2 MSTORE PUSH1 0x20 ADD SWAP1 DUP2 MSTORE PUSH1 0x20 ADD PUSH0 KECCAK256 DUP3 DUP2 SLOAD DUP2 LT PUSH2 0x5D4 JUMPI PUSH2 0x5D3 PUSH2 0x1399 JUMP JUMPDEST JUMPDEST SWAP1 PUSH0 MSTORE PUSH1 0x20 PUSH0 KECCAK256 SWAP1 PUSH1 0x5 MUL ADD SWAP1 POP DUP1 PUSH1 0x4 ADD PUSH0 SWAP1 SLOAD SWAP1 PUSH2 0x100 EXP SWAP1 DIV PUSH1 0xFF AND ISZERO PUSH2 0x633 JUMPI PUSH1 0x40 MLOAD PUSH32 0x8C379A000000000000000000000000000000000000000000000000000000000 DUP2 MSTORE PUSH1 0x4 ADD PUSH2 0x62A SWAP1 PUSH2 0x1410 JUMP JUMPDEST PUSH1 0x40 MLOAD DUP1 SWAP2 SUB SWAP1 REVERT JUMPDEST PUSH0 DUP2 PUSH1 0x3 ADD SLOAD TIMESTAMP PUSH2 0x644 SWAP2 SWAP1 PUSH2 0x1255 JUMP JUMPDEST SWAP1 POP PUSH0 PUSH1 0x64 PUSH4 0x1E13380 PUSH2 0x658 SWAP2 SWAP1 PUSH2 0x142E JUMP JUMPDEST DUP3 DUP5 PUSH1 0x2 ADD SLOAD DUP6 PUSH1 0x1 ADD SLOAD PUSH2 0x66D SWAP2 SWAP1 PUSH2 0x142E JUMP JUMPDEST PUSH2 0x677 SWAP2 SWAP1 PUSH2 0x142E JUMP JUMPDEST PUSH2 0x681 SWAP2 SWAP1 PUSH2 0x149C JUMP JUMPDEST SWAP1 POP PUSH0 DUP2 DUP5 PUSH1 0x1 ADD SLOAD PUSH2 0x694 SWAP2 SWAP1 PUSH2 0x14CC JUMP JUMPDEST SWAP1 POP DUP1 CALLVALUE LT ISZERO PUSH2 0x6D9 JUMPI PUSH1 0x40 MLOAD PUSH32 0x8C379A000000000000000000000000000000000000000000000000000000000 DUP2 MSTORE PUSH1 0x4 ADD PUSH2 0x6D0 SWAP1 PUSH2 0x1549 JUMP JUMPDEST PUSH1 0x40 MLOAD DUP1 SWAP2 SUB SWAP1 REVERT JUMPDEST PUSH1 0x1 DUP5 PUSH1 0x4 ADD PUSH0 PUSH2 0x100 EXP DUP2 SLOAD DUP2 PUSH1 0xFF MUL NOT AND SWAP1 DUP4 ISZERO ISZERO MUL OR SWAP1 SSTORE POP DUP1 PUSH1 0x1 PUSH0 DUP3 DUP3 SLOAD PUSH2 0x706 SWAP2 SWAP1 PUSH2 0x14CC JUMP JUMPDEST SWAP3 POP POP DUP2 SWAP1 SSTORE POP DUP1 CALLVALUE GT ISZERO PUSH2 0x7CF JUMPI PUSH0 DUP2 CALLVALUE PUSH2 0x722 SWAP2 SWAP1 PUSH2 0x1255 JUMP JUMPDEST SWAP1 POP PUSH0 CALLER PUSH20 0xFFFFFFFFFFFFFFFFFFFFFFFFFFFFFFFFFFFFFFFF AND DUP3 PUSH1 0x40 MLOAD PUSH2 0x749 SWAP1 PUSH2 0x12B5 JUMP JUMPDEST PUSH0 PUSH1 0x40 MLOAD DUP1 DUP4 SUB DUP2 DUP6 DUP8 GAS CALL SWAP3 POP POP POP RETURNDATASIZE DUP1 PUSH0 DUP2 EQ PUSH2 0x783 JUMPI PUSH1 0x40 MLOAD SWAP2 POP PUSH1 0x1F NOT PUSH1 0x3F RETURNDATASIZE ADD AND DUP3 ADD PUSH1 0x40 MSTORE RETURNDATASIZE DUP3 MSTORE RETURNDATASIZE PUSH0 PUSH1 0x20 DUP5 ADD RETURNDATACOPY PUSH2 0x788 JUMP JUMPDEST PUSH1 0x60 SWAP2 POP JUMPDEST POP POP SWAP1 POP DUP1 PUSH2 0x7CC JUMPI PUSH1 0x40 MLOAD PUSH32 0x8C379A000000000000000000000000000000000000000000000000000000000 DUP2 MSTORE PUSH1 0x4 ADD PUSH2 0x7C3 SWAP1 PUSH2 0x15B1 JUMP JUMPDEST PUSH1 0x40 MLOAD DUP1 SWAP2 SUB SWAP1 REVERT JUMPDEST POP POP JUMPDEST CALLER PUSH20 0xFFFFFFFFFFFFFFFFFFFFFFFFFFFFFFFFFFFFFFFF AND PUSH32 0x1B8CD61ED43BEC7C6BDAD3A18FFEE613F99C853D16C50678D248D879E1B43438 DUP6 PUSH1 0x1 ADD SLOAD DUP5 PUSH1 0x40 MLOAD PUSH2 0x81B SWAP3 SWAP2 SWAP1 PUSH2 0x15CF JUMP JUMPDEST PUSH1 0x40 MLOAD DUP1 SWAP2 SUB SWAP1 LOG2 POP POP POP POP POP JUMP JUMPDEST PUSH1 0x5 DUP2 JUMP JUMPDEST PUSH0 DUP1 SLOAD SWAP1 PUSH2 0x100 EXP SWAP1 DIV PUSH20 0xFFFFFFFFFFFFFFFFFFFFFFFFFFFFFFFFFFFFFFFF AND DUP2 JUMP JUMPDEST PUSH0 DUP1 PUSH0 DUP1 PUSH1 0x3 PUSH0 DUP8 PUSH20 0xFFFFFFFFFFFFFFFFFFFFFFFFFFFFFFFFFFFFFFFF AND PUSH20 0xFFFFFFFFFFFFFFFFFFFFFFFFFFFFFFFFFFFFFFFF AND DUP2 MSTORE PUSH1 0x20 ADD SWAP1 DUP2 MSTORE PUSH1 0x20 ADD PUSH0 KECCAK256 DUP1 SLOAD SWAP1 POP DUP6 LT PUSH2 0x8D8 JUMPI PUSH1 0x40 MLOAD PUSH32 0x8C379A000000000000000000000000000000000000000000000000000000000 DUP2 MSTORE PUSH1 0x4 ADD PUSH2 0x8CF SWAP1 PUSH2 0x137B JUMP JUMPDEST PUSH1 0x40 MLOAD DUP1 SWAP2 SUB SWAP1 REVERT JUMPDEST PUSH0 PUSH1 0x3 PUSH0 DUP9 PUSH20 0xFFFFFFFFFFFFFFFFFFFFFFFFFFFFFFFFFFFFFFFF AND PUSH20 0xFFFFFFFFFFFFFFFFFFFFFFFFFFFFFFFFFFFFFFFF AND DUP2 MSTORE PUSH1 0x20 ADD SWAP1 DUP2 MSTORE PUSH1 0x20 ADD PUSH0 KECCAK256 DUP7 DUP2 SLOAD DUP2 LT PUSH2 0x928 JUMPI PUSH2 0x927 PUSH2 0x1399 JUMP JUMPDEST JUMPDEST SWAP1 PUSH0 MSTORE PUSH1 0x20 PUSH0 KECCAK256 SWAP1 PUSH1 0x5 MUL ADD SWAP1 POP DUP1 PUSH1 0x1 ADD SLOAD DUP2 PUSH1 0x2 ADD SLOAD DUP3 PUSH1 0x3 ADD SLOAD DUP4 PUSH1 0x4 ADD PUSH0 SWAP1 SLOAD SWAP1 PUSH2 0x100 EXP SWAP1 DIV PUSH1 0xFF AND SWAP5 POP SWAP5 POP SWAP5 POP SWAP5 POP POP SWAP3 SWAP6 SWAP2 SWAP5 POP SWAP3 POP JUMP JUMPDEST PUSH1 0x1 SLOAD DUP2 GT ISZERO PUSH2 0x9AD JUMPI PUSH1 0x40 MLOAD PUSH32 0x8C379A000000000000000000000000000000000000000000000000000000000 DUP2 MSTORE PUSH1 0x4 ADD PUSH2 0x9A4 SWAP1 PUSH2 0x1640 JUMP JUMPDEST PUSH1 0x40 MLOAD DUP1 SWAP2 SUB SWAP1 REVERT JUMPDEST PUSH0 DUP2 GT PUSH2 0x9EF JUMPI PUSH1 0x40 MLOAD PUSH32 0x8C379A000000000000000000000000000000000000000000000000000000000 DUP2 MSTORE PUSH1 0x4 ADD PUSH2 0x9E6 SWAP1 PUSH2 0x16A8 JUMP JUMPDEST PUSH1 0x40 MLOAD DUP1 SWAP2 SUB SWAP1 REVERT JUMPDEST PUSH0 PUSH1 0x40 MLOAD DUP1 PUSH1 0xA0 ADD PUSH1 0x40 MSTORE DUP1 CALLER PUSH20 0xFFFFFFFFFFFFFFFFFFFFFFFFFFFFFFFFFFFFFFFF AND DUP2 MSTORE PUSH1 0x20 ADD DUP4 DUP2 MSTORE PUSH1 0x20 ADD PUSH1 0x5 DUP2 MSTORE PUSH1 0x20 ADD TIMESTAMP DUP2 MSTORE PUSH1 0x20 ADD PUSH0 ISZERO ISZERO DUP2 MSTORE POP SWAP1 POP PUSH1 0x3 PUSH0 CALLER PUSH20 0xFFFFFFFFFFFFFFFFFFFFFFFFFFFFFFFFFFFFFFFF AND PUSH20 0xFFFFFFFFFFFFFFFFFFFFFFFFFFFFFFFFFFFFFFFF AND DUP2 MSTORE PUSH1 0x20 ADD SWAP1 DUP2 MSTORE PUSH1 0x20 ADD PUSH0 KECCAK256 DUP2 SWAP1 DUP1 PUSH1 0x1 DUP2 SLOAD ADD DUP1 DUP3 SSTORE DUP1 SWAP2 POP POP PUSH1 0x1 SWAP1 SUB SWAP1 PUSH0 MSTORE PUSH1 0x20 PUSH0 KECCAK256 SWAP1 PUSH1 0x5 MUL ADD PUSH0 SWAP1 SWAP2 SWAP1 SWAP2 SWAP1 SWAP2 POP PUSH0 DUP3 ADD MLOAD DUP2 PUSH0 ADD PUSH0 PUSH2 0x100 EXP DUP2 SLOAD DUP2 PUSH20 0xFFFFFFFFFFFFFFFFFFFFFFFFFFFFFFFFFFFFFFFF MUL NOT AND SWAP1 DUP4 PUSH20 0xFFFFFFFFFFFFFFFFFFFFFFFFFFFFFFFFFFFFFFFF AND MUL OR SWAP1 SSTORE POP PUSH1 0x20 DUP3 ADD MLOAD DUP2 PUSH1 0x1 ADD SSTORE PUSH1 0x40 DUP3 ADD MLOAD DUP2 PUSH1 0x2 ADD SSTORE PUSH1 0x60 DUP3 ADD MLOAD DUP2 PUSH1 0x3 ADD SSTORE PUSH1 0x80 DUP3 ADD MLOAD DUP2 PUSH1 0x4 ADD PUSH0 PUSH2 0x100 EXP DUP2 SLOAD DUP2 PUSH1 0xFF MUL NOT AND SWAP1 DUP4 ISZERO ISZERO MUL OR SWAP1 SSTORE POP POP POP DUP2 PUSH1 0x1 PUSH0 DUP3 DUP3 SLOAD PUSH2 0xB2A SWAP2 SWAP1 PUSH2 0x1255 JUMP JUMPDEST SWAP3 POP POP DUP2 SWAP1 SSTORE POP PUSH0 CALLER PUSH20 0xFFFFFFFFFFFFFFFFFFFFFFFFFFFFFFFFFFFFFFFF AND DUP4 PUSH1 0x40 MLOAD PUSH2 0xB56 SWAP1 PUSH2 0x12B5 JUMP JUMPDEST PUSH0 PUSH1 0x40 MLOAD DUP1 DUP4 SUB DUP2 DUP6 DUP8 GAS CALL SWAP3 POP POP POP RETURNDATASIZE DUP1 PUSH0 DUP2 EQ PUSH2 0xB90 JUMPI PUSH1 0x40 MLOAD SWAP2 POP PUSH1 0x1F NOT PUSH1 0x3F RETURNDATASIZE ADD AND DUP3 ADD PUSH1 0x40 MSTORE RETURNDATASIZE DUP3 MSTORE RETURNDATASIZE PUSH0 PUSH1 0x20 DUP5 ADD RETURNDATACOPY PUSH2 0xB95 JUMP JUMPDEST PUSH1 0x60 SWAP2 POP JUMPDEST POP POP SWAP1 POP DUP1 PUSH2 0xBD9 JUMPI PUSH1 0x40 MLOAD PUSH32 0x8C379A000000000000000000000000000000000000000000000000000000000 DUP2 MSTORE PUSH1 0x4 ADD PUSH2 0xBD0 SWAP1 PUSH2 0x1313 JUMP JUMPDEST PUSH1 0x40 MLOAD DUP1 SWAP2 SUB SWAP1 REVERT JUMPDEST CALLER PUSH20 0xFFFFFFFFFFFFFFFFFFFFFFFFFFFFFFFFFFFFFFFF AND PUSH32 0xAC59582E5396ACA512FA873A2047E7F4C80F8F55D4A06CB34A78A0187F62719F DUP5 PUSH1 0x40 MLOAD PUSH2 0xC1F SWAP2 SWAP1 PUSH2 0xFA5 JUMP JUMPDEST PUSH1 0x40 MLOAD DUP1 SWAP2 SUB SWAP1 LOG2 POP POP POP JUMP JUMPDEST PUSH0 CALLVALUE GT PUSH2 0xC6E JUMPI PUSH1 0x40 MLOAD PUSH32 0x8C379A000000000000000000000000000000000000000000000000000000000 DUP2 MSTORE PUSH1 0x4 ADD PUSH2 0xC65 SWAP1 PUSH2 0x1710 JUMP JUMPDEST PUSH1 0x40 MLOAD DUP1 SWAP2 SUB SWAP1 REVERT JUMPDEST CALLVALUE PUSH1 0x2 PUSH0 CALLER PUSH20 0xFFFFFFFFFFFFFFFFFFFFFFFFFFFFFFFFFFFFFFFF AND PUSH20 0xFFFFFFFFFFFFFFFFFFFFFFFFFFFFFFFFFFFFFFFF AND DUP2 MSTORE PUSH1 0x20 ADD SWAP1 DUP2 MSTORE PUSH1 0x20 ADD PUSH0 KECCAK256 PUSH0 DUP3 DUP3 SLOAD PUSH2 0xCBA SWAP2 SWAP1 PUSH2 0x14CC JUMP JUMPDEST SWAP3 POP POP DUP2 SWAP1 SSTORE POP CALLVALUE PUSH1 0x1 PUSH0 DUP3 DUP3 SLOAD PUSH2 0xCD2 SWAP2 SWAP1 PUSH2 0x14CC JUMP JUMPDEST SWAP3 POP POP DUP2 SWAP1 SSTORE POP CALLER PUSH20 0xFFFFFFFFFFFFFFFFFFFFFFFFFFFFFFFFFFFFFFFF AND PUSH32 0x2DA466A7B24304F47E87FA2E1E5A81B9831CE54FEC19055CE277CA2F39BA42C4 CALLVALUE PUSH1 0x40 MLOAD PUSH2 0xD1F SWAP2 SWAP1 PUSH2 0xFA5 JUMP JUMPDEST PUSH1 0x40 MLOAD DUP1 SWAP2 SUB SWAP1 LOG2 JUMP JUMPDEST PUSH0 DUP1 SLOAD SWAP1 PUSH2 0x100 EXP SWAP1 DIV PUSH20 0xFFFFFFFFFFFFFFFFFFFFFFFFFFFFFFFFFFFFFFFF AND PUSH20 0xFFFFFFFFFFFFFFFFFFFFFFFFFFFFFFFFFFFFFFFF AND CALLER PUSH20 0xFFFFFFFFFFFFFFFFFFFFFFFFFFFFFFFFFFFFFFFF AND EQ PUSH2 0xDB6 JUMPI PUSH1 0x40 MLOAD PUSH32 0x8C379A000000000000000000000000000000000000000000000000000000000 DUP2 MSTORE PUSH1 0x4 ADD PUSH2 0xDAD SWAP1 PUSH2 0x1778 JUMP JUMPDEST PUSH1 0x40 MLOAD DUP1 SWAP2 SUB SWAP1 REVERT JUMPDEST SELFBALANCE DUP2 GT ISZERO PUSH2 0xDF9 JUMPI PUSH1 0x40 MLOAD PUSH32 0x8C379A000000000000000000000000000000000000000000000000000000000 DUP2 MSTORE PUSH1 0x4 ADD PUSH2 0xDF0 SWAP1 PUSH2 0x17E0 JUMP JUMPDEST PUSH1 0x40 MLOAD DUP1 SWAP2 SUB SWAP1 REVERT JUMPDEST PUSH0 DUP1 PUSH0 SWAP1 SLOAD SWAP1 PUSH2 0x100 EXP SWAP1 DIV PUSH20 0xFFFFFFFFFFFFFFFFFFFFFFFFFFFFFFFFFFFFFFFF AND PUSH20 0xFFFFFFFFFFFFFFFFFFFFFFFFFFFFFFFFFFFFFFFF AND DUP3 PUSH1 0x40 MLOAD PUSH2 0xE3E SWAP1 PUSH2 0x12B5 JUMP JUMPDEST PUSH0 PUSH1 0x40 MLOAD DUP1 DUP4 SUB DUP2 DUP6 DUP8 GAS CALL SWAP3 POP POP POP RETURNDATASIZE DUP1 PUSH0 DUP2 EQ PUSH2 0xE78 JUMPI PUSH1 0x40 MLOAD SWAP2 POP PUSH1 0x1F NOT PUSH1 0x3F RETURNDATASIZE ADD AND DUP3 ADD PUSH1 0x40 MSTORE RETURNDATASIZE DUP3 MSTORE RETURNDATASIZE PUSH0 PUSH1 0x20 DUP5 ADD RETURNDATACOPY PUSH2 0xE7D JUMP JUMPDEST PUSH1 0x60 SWAP2 POP JUMPDEST POP POP SWAP1 POP DUP1 PUSH2 0xEC1 JUMPI PUSH1 0x40 MLOAD PUSH32 0x8C379A000000000000000000000000000000000000000000000000000000000 DUP2 MSTORE PUSH1 0x4 ADD PUSH2 0xEB8 SWAP1 PUSH2 0x1313 JUMP JUMPDEST PUSH1 0x40 MLOAD DUP1 SWAP2 SUB SWAP1 REVERT JUMPDEST POP POP JUMP JUMPDEST PUSH4 0x1E13380 DUP2 JUMP JUMPDEST PUSH1 0x3 PUSH1 0x20 MSTORE DUP2 PUSH0 MSTORE PUSH1 0x40 PUSH0 KECCAK256 DUP2 DUP2 SLOAD DUP2 LT PUSH2 0xEE6 JUMPI PUSH0 DUP1 REVERT JUMPDEST SWAP1 PUSH0 MSTORE PUSH1 0x20 PUSH0 KECCAK256 SWAP1 PUSH1 0x5 MUL ADD PUSH0 SWAP2 POP SWAP2 POP POP DUP1 PUSH0 ADD PUSH0 SWAP1 SLOAD SWAP1 PUSH2 0x100 EXP SWAP1 DIV PUSH20 0xFFFFFFFFFFFFFFFFFFFFFFFFFFFFFFFFFFFFFFFF AND SWAP1 DUP1 PUSH1 0x1 ADD SLOAD SWAP1 DUP1 PUSH1 0x2 ADD SLOAD SWAP1 DUP1 PUSH1 0x3 ADD SLOAD SWAP1 DUP1 PUSH1 0x4 ADD PUSH0 SWAP1 SLOAD SWAP1 PUSH2 0x100 EXP SWAP1 DIV PUSH1 0xFF AND SWAP1 POP DUP6 JUMP JUMPDEST PUSH0 PUSH1 0x3 PUSH0 DUP4 PUSH20 0xFFFFFFFFFFFFFFFFFFFFFFFFFFFFFFFFFFFFFFFF AND PUSH20 0xFFFFFFFFFFFFFFFFFFFFFFFFFFFFFFFFFFFFFFFF AND DUP2 MSTORE PUSH1 0x20 ADD SWAP1 DUP2 MSTORE PUSH1 0x20 ADD PUSH0 KECCAK256 DUP1 SLOAD SWAP1 POP SWAP1 POP SWAP2 SWAP1 POP JUMP JUMPDEST PUSH0 DUP2 SWAP1 POP SWAP2 SWAP1 POP JUMP JUMPDEST PUSH2 0xF9F DUP2 PUSH2 0xF8D JUMP JUMPDEST DUP3 MSTORE POP POP JUMP JUMPDEST PUSH0 PUSH1 0x20 DUP3 ADD SWAP1 POP PUSH2 0xFB8 PUSH0 DUP4 ADD DUP5 PUSH2 0xF96 JUMP JUMPDEST SWAP3 SWAP2 POP POP JUMP JUMPDEST PUSH0 DUP1 REVERT JUMPDEST PUSH0 PUSH20 0xFFFFFFFFFFFFFFFFFFFFFFFFFFFFFFFFFFFFFFFF DUP3 AND SWAP1 POP SWAP2 SWAP1 POP JUMP JUMPDEST PUSH0 PUSH2 0xFEB DUP3 PUSH2 0xFC2 JUMP JUMPDEST SWAP1 POP SWAP2 SWAP1 POP JUMP JUMPDEST PUSH2 0xFFB DUP2 PUSH2 0xFE1 JUMP JUMPDEST DUP2 EQ PUSH2 0x1005 JUMPI PUSH0 DUP1 REVERT JUMPDEST POP JUMP JUMPDEST PUSH0 DUP2 CALLDATALOAD SWAP1 POP PUSH2 0x1016 DUP2 PUSH2 0xFF2 JUMP JUMPDEST SWAP3 SWAP2 POP POP JUMP JUMPDEST PUSH0 PUSH1 0x20 DUP3 DUP5 SUB SLT ISZERO PUSH2 0x1031 JUMPI PUSH2 0x1030 PUSH2 0xFBE JUMP JUMPDEST JUMPDEST PUSH0 PUSH2 0x103E DUP5 DUP3 DUP6 ADD PUSH2 0x1008 JUMP JUMPDEST SWAP2 POP POP SWAP3 SWAP2 POP POP JUMP JUMPDEST PUSH2 0x1050 DUP2 PUSH2 0xF8D JUMP JUMPDEST DUP2 EQ PUSH2 0x105A JUMPI PUSH0 DUP1 REVERT JUMPDEST POP JUMP JUMPDEST PUSH0 DUP2 CALLDATALOAD SWAP1 POP PUSH2 0x106B DUP2 PUSH2 0x1047 JUMP JUMPDEST SWAP3 SWAP2 POP POP JUMP JUMPDEST PUSH0 PUSH1 0x20 DUP3 DUP5 SUB SLT ISZERO PUSH2 0x1086 JUMPI PUSH2 0x1085 PUSH2 0xFBE JUMP JUMPDEST JUMPDEST PUSH0 PUSH2 0x1093 DUP5 DUP3 DUP6 ADD PUSH2 0x105D JUMP JUMPDEST SWAP2 POP POP SWAP3 SWAP2 POP POP JUMP JUMPDEST PUSH2 0x10A5 DUP2 PUSH2 0xFE1 JUMP JUMPDEST DUP3 MSTORE POP POP JUMP JUMPDEST PUSH0 PUSH1 0x20 DUP3 ADD SWAP1 POP PUSH2 0x10BE PUSH0 DUP4 ADD DUP5 PUSH2 0x109C JUMP JUMPDEST SWAP3 SWAP2 POP POP JUMP JUMPDEST PUSH0 DUP1 PUSH1 0x40 DUP4 DUP6 SUB SLT ISZERO PUSH2 0x10DA JUMPI PUSH2 0x10D9 PUSH2 0xFBE JUMP JUMPDEST JUMPDEST PUSH0 PUSH2 0x10E7 DUP6 DUP3 DUP7 ADD PUSH2 0x1008 JUMP JUMPDEST SWAP3 POP POP PUSH1 0x20 PUSH2 0x10F8 DUP6 DUP3 DUP7 ADD PUSH2 0x105D JUMP JUMPDEST SWAP2 POP POP SWAP3 POP SWAP3 SWAP1 POP JUMP JUMPDEST PUSH0 DUP2 ISZERO ISZERO SWAP1 POP SWAP2 SWAP1 POP JUMP JUMPDEST PUSH2 0x1116 DUP2 PUSH2 0x1102 JUMP JUMPDEST DUP3 MSTORE POP POP JUMP JUMPDEST PUSH0 PUSH1 0x80 DUP3 ADD SWAP1 POP PUSH2 0x112F PUSH0 DUP4 ADD DUP8 PUSH2 0xF96 JUMP JUMPDEST PUSH2 0x113C PUSH1 0x20 DUP4 ADD DUP7 PUSH2 0xF96 JUMP JUMPDEST PUSH2 0x1149 PUSH1 0x40 DUP4 ADD DUP6 PUSH2 0xF96 JUMP JUMPDEST PUSH2 0x1156 PUSH1 0x60 DUP4 ADD DUP5 PUSH2 0x110D JUMP JUMPDEST SWAP6 SWAP5 POP POP POP POP POP JUMP JUMPDEST PUSH0 PUSH1 0xA0 DUP3 ADD SWAP1 POP PUSH2 0x1172 PUSH0 DUP4 ADD DUP9 PUSH2 0x109C JUMP JUMPDEST PUSH2 0x117F PUSH1 0x20 DUP4 ADD DUP8 PUSH2 0xF96 JUMP JUMPDEST PUSH2 0x118C PUSH1 0x40 DUP4 ADD DUP7 PUSH2 0xF96 JUMP JUMPDEST PUSH2 0x1199 PUSH1 0x60 DUP4 ADD DUP6 PUSH2 0xF96 JUMP JUMPDEST PUSH2 0x11A6 PUSH1 0x80 DUP4 ADD DUP5 PUSH2 0x110D JUMP JUMPDEST SWAP7 SWAP6 POP POP POP POP POP POP JUMP JUMPDEST PUSH0 DUP3 DUP3 MSTORE PUSH1 0x20 DUP3 ADD SWAP1 POP SWAP3 SWAP2 POP POP JUMP JUMPDEST PUSH32 0x496E73756666696369656E742062616C616E6365000000000000000000000000 PUSH0 DUP3 ADD MSTORE POP JUMP JUMPDEST PUSH0 PUSH2 0x11F4 PUSH1 0x14 DUP4 PUSH2 0x11B0 JUMP JUMPDEST SWAP2 POP PUSH2 0x11FF DUP3 PUSH2 0x11C0 JUMP JUMPDEST PUSH1 0x20 DUP3 ADD SWAP1 POP SWAP2 SWAP1 POP JUMP JUMPDEST PUSH0 PUSH1 0x20 DUP3 ADD SWAP1 POP DUP2 DUP2 SUB PUSH0 DUP4 ADD MSTORE PUSH2 0x1221 DUP2 PUSH2 0x11E8 JUMP JUMPDEST SWAP1 POP SWAP2 SWAP1 POP JUMP JUMPDEST PUSH32 0x4E487B7100000000000000000000000000000000000000000000000000000000 PUSH0 MSTORE PUSH1 0x11 PUSH1 0x4 MSTORE PUSH1 0x24 PUSH0 REVERT JUMPDEST PUSH0 PUSH2 0x125F DUP3 PUSH2 0xF8D JUMP JUMPDEST SWAP2 POP PUSH2 0x126A DUP4 PUSH2 0xF8D JUMP JUMPDEST SWAP3 POP DUP3 DUP3 SUB SWAP1 POP DUP2 DUP2 GT ISZERO PUSH2 0x1282 JUMPI PUSH2 0x1281 PUSH2 0x1228 JUMP JUMPDEST JUMPDEST SWAP3 SWAP2 POP POP JUMP JUMPDEST PUSH0 DUP2 SWAP1 POP SWAP3 SWAP2 POP POP JUMP JUMPDEST POP JUMP JUMPDEST PUSH0 PUSH2 0x12A0 PUSH0 DUP4 PUSH2 0x1288 JUMP JUMPDEST SWAP2 POP PUSH2 0x12AB DUP3 PUSH2 0x1292 JUMP JUMPDEST PUSH0 DUP3 ADD SWAP1 POP SWAP2 SWAP1 POP JUMP JUMPDEST PUSH0 PUSH2 0x12BF DUP3 PUSH2 0x1295 JUMP JUMPDEST SWAP2 POP DUP2 SWAP1 POP SWAP2 SWAP1 POP JUMP JUMPDEST PUSH32 0x4661696C656420746F2073656E64204554480000000000000000000000000000 PUSH0 DUP3 ADD MSTORE POP JUMP JUMPDEST PUSH0 PUSH2 0x12FD PUSH1 0x12 DUP4 PUSH2 0x11B0 JUMP JUMPDEST SWAP2 POP PUSH2 0x1308 DUP3 PUSH2 0x12C9 JUMP JUMPDEST PUSH1 0x20 DUP3 ADD SWAP1 POP SWAP2 SWAP1 POP JUMP JUMPDEST PUSH0 PUSH1 0x20 DUP3 ADD SWAP1 POP DUP2 DUP2 SUB PUSH0 DUP4 ADD MSTORE PUSH2 0x132A DUP2 PUSH2 0x12F1 JUMP JUMPDEST SWAP1 POP SWAP2 SWAP1 POP JUMP JUMPDEST PUSH32 0x496E76616C6964206C6F616E20696E6465780000000000000000000000000000 PUSH0 DUP3 ADD MSTORE POP JUMP JUMPDEST PUSH0 PUSH2 0x1365 PUSH1 0x12 DUP4 PUSH2 0x11B0 JUMP JUMPDEST SWAP2 POP PUSH2 0x1370 DUP3 PUSH2 0x1331 JUMP JUMPDEST PUSH1 0x20 DUP3 ADD SWAP1 POP SWAP2 SWAP1 POP JUMP JUMPDEST PUSH0 PUSH1 0x20 DUP3 ADD SWAP1 POP DUP2 DUP2 SUB PUSH0 DUP4 ADD MSTORE PUSH2 0x1392 DUP2 PUSH2 0x1359 JUMP JUMPDEST SWAP1 POP SWAP2 SWAP1 POP JUMP JUMPDEST PUSH32 0x4E487B7100000000000000000000000000000000000000000000000000000000 PUSH0 MSTORE PUSH1 0x32 PUSH1 0x4 MSTORE PUSH1 0x24 PUSH0 REVERT JUMPDEST PUSH32 0x4C6F616E20616C72656164792072657061696400000000000000000000000000 PUSH0 DUP3 ADD MSTORE POP JUMP JUMPDEST PUSH0 PUSH2 0x13FA PUSH1 0x13 DUP4 PUSH2 0x11B0 JUMP JUMPDEST SWAP2 POP PUSH2 0x1405 DUP3 PUSH2 0x13C6 JUMP JUMPDEST PUSH1 0x20 DUP3 ADD SWAP1 POP SWAP2 SWAP1 POP JUMP JUMPDEST PUSH0 PUSH1 0x20 DUP3 ADD SWAP1 POP DUP2 DUP2 SUB PUSH0 DUP4 ADD MSTORE PUSH2 0x1427 DUP2 PUSH2 0x13EE JUMP JUMPDEST SWAP1 POP SWAP2 SWAP1 POP JUMP JUMPDEST PUSH0 PUSH2 0x1438 DUP3 PUSH2 0xF8D JUMP JUMPDEST SWAP2 POP PUSH2 0x1443 DUP4 PUSH2 0xF8D JUMP JUMPDEST SWAP3 POP DUP3 DUP3 MUL PUSH2 0x1451 DUP2 PUSH2 0xF8D JUMP JUMPDEST SWAP2 POP DUP3 DUP3 DIV DUP5 EQ DUP4 ISZERO OR PUSH2 0x1468 JUMPI PUSH2 0x1467 PUSH2 0x1228 JUMP JUMPDEST JUMPDEST POP SWAP3 SWAP2 POP POP JUMP JUMPDEST PUSH32 0x4E487B7100000000000000000000000000000000000000000000000000000000 PUSH0 MSTORE PUSH1 0x12 PUSH1 0x4 MSTORE PUSH1 0x24 PUSH0 REVERT JUMPDEST PUSH0 PUSH2 0x14A6 DUP3 PUSH2 0xF8D JUMP JUMPDEST SWAP2 POP PUSH2 0x14B1 DUP4 PUSH2 0xF8D JUMP JUMPDEST SWAP3 POP DUP3 PUSH2 0x14C1 JUMPI PUSH2 0x14C0 PUSH2 0x146F JUMP JUMPDEST JUMPDEST DUP3 DUP3 DIV SWAP1 POP SWAP3 SWAP2 POP POP JUMP JUMPDEST PUSH0 PUSH2 0x14D6 DUP3 PUSH2 0xF8D JUMP JUMPDEST SWAP2 POP PUSH2 0x14E1 DUP4 PUSH2 0xF8D JUMP JUMPDEST SWAP3 POP DUP3 DUP3 ADD SWAP1 POP DUP1 DUP3 GT ISZERO PUSH2 0x14F9 JUMPI PUSH2 0x14F8 PUSH2 0x1228 JUMP JUMPDEST JUMPDEST SWAP3 SWAP2 POP POP JUMP JUMPDEST PUSH32 0x496E73756666696369656E742072657061796D656E7420616D6F756E74000000 PUSH0 DUP3 ADD MSTORE POP JUMP JUMPDEST PUSH0 PUSH2 0x1533 PUSH1 0x1D DUP4 PUSH2 0x11B0 JUMP JUMPDEST SWAP2 POP PUSH2 0x153E DUP3 PUSH2 0x14FF JUMP JUMPDEST PUSH1 0x20 DUP3 ADD SWAP1 POP SWAP2 SWAP1 POP JUMP JUMPDEST PUSH0 PUSH1 0x20 DUP3 ADD SWAP1 POP DUP2 DUP2 SUB PUSH0 DUP4 ADD MSTORE PUSH2 0x1560 DUP2 PUSH2 0x1527 JUMP JUMPDEST SWAP1 POP SWAP2 SWAP1 POP JUMP JUMPDEST PUSH32 0x4661696C656420746F20726566756E6420657863657373204554480000000000 PUSH0 DUP3 ADD MSTORE POP JUMP JUMPDEST PUSH0 PUSH2 0x159B PUSH1 0x1B DUP4 PUSH2 0x11B0 JUMP JUMPDEST SWAP2 POP PUSH2 0x15A6 DUP3 PUSH2 0x1567 JUMP JUMPDEST PUSH1 0x20 DUP3 ADD SWAP1 POP SWAP2 SWAP1 POP JUMP JUMPDEST PUSH0 PUSH1 0x20 DUP3 ADD SWAP1 POP DUP2 DUP2 SUB PUSH0 DUP4 ADD MSTORE PUSH2 0x15C8 DUP2 PUSH2 0x158F JUMP JUMPDEST SWAP1 POP SWAP2 SWAP1 POP JUMP JUMPDEST PUSH0 PUSH1 0x40 DUP3 ADD SWAP1 POP PUSH2 0x15E2 PUSH0 DUP4 ADD DUP6 PUSH2 0xF96 JUMP JUMPDEST PUSH2 0x15EF PUSH1 0x20 DUP4 ADD DUP5 PUSH2 0xF96 JUMP JUMPDEST SWAP4 SWAP3 POP POP POP JUMP JUMPDEST PUSH32 0x496E73756666696369656E74206C697175696469747900000000000000000000 PUSH0 DUP3 ADD MSTORE POP JUMP JUMPDEST PUSH0 PUSH2 0x162A PUSH1 0x16 DUP4 PUSH2 0x11B0 JUMP JUMPDEST SWAP2 POP PUSH2 0x1635 DUP3 PUSH2 0x15F6 JUMP JUMPDEST PUSH1 0x20 DUP3 ADD SWAP1 POP SWAP2 SWAP1 POP JUMP JUMPDEST PUSH0 PUSH1 0x20 DUP3 ADD SWAP1 POP DUP2 DUP2 SUB PUSH0 DUP4 ADD MSTORE PUSH2 0x1657 DUP2 PUSH2 0x161E JUMP JUMPDEST SWAP1 POP SWAP2 SWAP1 POP JUMP JUMPDEST PUSH32 0x4D75737420626F72726F77206D6F7265207468616E2030204554480000000000 PUSH0 DUP3 ADD MSTORE POP JUMP JUMPDEST PUSH0 PUSH2 0x1692 PUSH1 0x1B DUP4 PUSH2 0x11B0 JUMP JUMPDEST SWAP2 POP PUSH2 0x169D DUP3 PUSH2 0x165E JUMP JUMPDEST PUSH1 0x20 DUP3 ADD SWAP1 POP SWAP2 SWAP1 POP JUMP JUMPDEST PUSH0 PUSH1 0x20 DUP3 ADD SWAP1 POP DUP2 DUP2 SUB PUSH0 DUP4 ADD MSTORE PUSH2 0x16BF DUP2 PUSH2 0x1686 JUMP JUMPDEST SWAP1 POP SWAP2 SWAP1 POP JUMP JUMPDEST PUSH32 0x4D757374206465706F736974206D6F7265207468616E20302045544800000000 PUSH0 DUP3 ADD MSTORE POP JUMP JUMPDEST PUSH0 PUSH2 0x16FA PUSH1 0x1C DUP4 PUSH2 0x11B0 JUMP JUMPDEST SWAP2 POP PUSH2 0x1705 DUP3 PUSH2 0x16C6 JUMP JUMPDEST PUSH1 0x20 DUP3 ADD SWAP1 POP SWAP2 SWAP1 POP JUMP JUMPDEST PUSH0 PUSH1 0x20 DUP3 ADD SWAP1 POP DUP2 DUP2 SUB PUSH0 DUP4 ADD MSTORE PUSH2 0x1727 DUP2 PUSH2 0x16EE JUMP JUMPDEST SWAP1 POP SWAP2 SWAP1 POP JUMP JUMPDEST PUSH32 0x4F6E6C79206F776E65722063616E2063616C6C20746869730000000000000000 PUSH0 DUP3 ADD MSTORE POP JUMP JUMPDEST PUSH0 PUSH2 0x1762 PUSH1 0x18 DUP4 PUSH2 0x11B0 JUMP JUMPDEST SWAP2 POP PUSH2 0x176D DUP3 PUSH2 0x172E JUMP JUMPDEST PUSH1 0x20 DUP3 ADD SWAP1 POP SWAP2 SWAP1 POP JUMP JUMPDEST PUSH0 PUSH1 0x20 DUP3 ADD SWAP1 POP DUP2 DUP2 SUB PUSH0 DUP4 ADD MSTORE PUSH2 0x178F DUP2 PUSH2 0x1756 JUMP JUMPDEST SWAP1 POP SWAP2 SWAP1 POP JUMP JUMPDEST PUSH32 0x496E73756666696369656E7420636F6E74726163742062616C616E6365000000 PUSH0 DUP3 ADD MSTORE POP JUMP JUMPDEST PUSH0 PUSH2 0x17CA PUSH1 0x1D DUP4 PUSH2 0x11B0 JUMP JUMPDEST SWAP2 POP PUSH2 0x17D5 DUP3 PUSH2 0x1796 JUMP JUMPDEST PUSH1 0x20 DUP3 ADD SWAP1 POP SWAP2 SWAP1 POP JUMP JUMPDEST PUSH0 PUSH1 0x20 DUP3 ADD SWAP1 POP DUP2 DUP2 SUB PUSH0 DUP4 ADD MSTORE PUSH2 0x17F7 DUP2 PUSH2 0x17BE JUMP JUMPDEST SWAP1 POP SWAP2 SWAP1 POP JUMP INVALID LOG2 PUSH5 0x6970667358 0x22 SLT KECCAK256 LOG4 SWAP1 CALL 0xA6 0xD4 SWAP10 0xB1 RETURNDATASIZE TLOAD 0xAA 0xA9 0x1F 0xC9 SWAP12 DELEGATECALL 0xDC 0x2C SWAP8 PREVRANDAO 0xB7 MULMOD 0x2B 0xE2 MOD 0xE7 DUP5 0xE8 SWAP13 0xC8 XOR KECCAK256 0x2A PUSH5 0x736F6C6343 STOP ADDMOD BYTE STOP CALLER "
				},
				"gasEstimates": {
					"creation": {
						"codeDepositCost": "1239200",
						"executionCost": "25551",
						"totalCost": "1264751"
					},
					"external": {
						"INTEREST_RATE()": "414",
						"SECONDS_PER_YEAR()": "369",
						"borrow(uint256)": "infinite",
						"borrowers(address,uint256)": "infinite",
						"deposit()": "infinite",
						"getLoan(address,uint256)": "infinite",
						"getLoanCount(address)": "2925",
						"lenders(address)": "2825",
						"owner()": "2616",
						"recoverETH(uint256)": "infinite",
						"repay(uint256)": "infinite",
						"totalLiquidity()": "2426",
						"withdraw(uint256)": "infinite"
					}
				},
				"methodIdentifiers": {
					"INTEREST_RATE()": "5b72a33a",
					"SECONDS_PER_YEAR()": "e6a69ab8",
					"borrow(uint256)": "c5ebeaec",
					"borrowers(address,uint256)": "f335ed76",
					"deposit()": "d0e30db0",
					"getLoan(address,uint256)": "a1c51586",
					"getLoanCount(address)": "f53c61e0",
					"lenders(address)": "28fd10d7",
					"owner()": "8da5cb5b",
					"recoverETH(uint256)": "d3335553",
					"repay(uint256)": "371fd8e6",
					"totalLiquidity()": "15770f92",
					"withdraw(uint256)": "2e1a7d4d"
				}
			},
			"storageLayout": {
				"storage": [
					{
						"astId": 3,
						"contract": "Day-26/code1.sol:EtherLending",
						"label": "owner",
						"offset": 0,
						"slot": "0",
						"type": "t_address"
					},
					{
						"astId": 5,
						"contract": "Day-26/code1.sol:EtherLending",
						"label": "totalLiquidity",
						"offset": 0,
						"slot": "1",
						"type": "t_uint256"
					},
					{
						"astId": 26,
						"contract": "Day-26/code1.sol:EtherLending",
						"label": "lenders",
						"offset": 0,
						"slot": "2",
						"type": "t_mapping(t_address,t_uint256)"
					},
					{
						"astId": 32,
						"contract": "Day-26/code1.sol:EtherLending",
						"label": "borrowers",
						"offset": 0,
						"slot": "3",
						"type": "t_mapping(t_address,t_array(t_struct(Loan)22_storage)dyn_storage)"
					}
				],
				"types": {
					"t_address": {
						"encoding": "inplace",
						"label": "address",
						"numberOfBytes": "20"
					},
					"t_array(t_struct(Loan)22_storage)dyn_storage": {
						"base": "t_struct(Loan)22_storage",
						"encoding": "dynamic_array",
						"label": "struct EtherLending.Loan[]",
						"numberOfBytes": "32"
					},
					"t_bool": {
						"encoding": "inplace",
						"label": "bool",
						"numberOfBytes": "1"
					},
					"t_mapping(t_address,t_array(t_struct(Loan)22_storage)dyn_storage)": {
						"encoding": "mapping",
						"key": "t_address",
						"label": "mapping(address => struct EtherLending.Loan[])",
						"numberOfBytes": "32",
						"value": "t_array(t_struct(Loan)22_storage)dyn_storage"
					},
					"t_mapping(t_address,t_uint256)": {
						"encoding": "mapping",
						"key": "t_address",
						"label": "mapping(address => uint256)",
						"numberOfBytes": "32",
						"value": "t_uint256"
					},
					"t_struct(Loan)22_storage": {
						"encoding": "inplace",
						"label": "struct EtherLending.Loan",
						"members": [
							{
								"astId": 13,
								"contract": "Day-26/code1.sol:EtherLending",
								"label": "borrower",
								"offset": 0,
								"slot": "0",
								"type": "t_address"
							},
							{
								"astId": 15,
								"contract": "Day-26/code1.sol:EtherLending",
								"label": "amount",
								"offset": 0,
								"slot": "1",
								"type": "t_uint256"
							},
							{
								"astId": 17,
								"contract": "Day-26/code1.sol:EtherLending",
								"label": "interestRate",
								"offset": 0,
								"slot": "2",
								"type": "t_uint256"
							},
							{
								"astId": 19,
								"contract": "Day-26/code1.sol:EtherLending",
								"label": "startTime",
								"offset": 0,
								"slot": "3",
								"type": "t_uint256"
							},
							{
								"astId": 21,
								"contract": "Day-26/code1.sol:EtherLending",
								"label": "repaid",
								"offset": 0,
								"slot": "4",
								"type": "t_bool"
							}
						],
						"numberOfBytes": "160"
					},
					"t_uint256": {
						"encoding": "inplace",
						"label": "uint256",
						"numberOfBytes": "32"
					}
				}
			},
			"userdoc": {
				"kind": "user",
				"methods": {},
				"version": 1
			}
		}
	}
}