{
	"Day-28/code1.sol": {
		"Lottery": {
			"abi": [
				{
					"inputs": [],
					"stateMutability": "nonpayable",
					"type": "constructor"
				},
				{
					"anonymous": false,
					"inputs": [
						{
							"indexed": true,
							"internalType": "address",
							"name": "player",
							"type": "address"
						}
					],
					"name": "PlayerJoined",
					"type": "event"
				},
				{
					"anonymous": false,
					"inputs": [
						{
							"indexed": true,
							"internalType": "address",
							"name": "winner",
							"type": "address"
						}
					],
					"name": "WinnerSelected",
					"type": "event"
				},
				{
					"inputs": [],
					"name": "getPlayers",
					"outputs": [
						{
							"internalType": "address[]",
							"name": "",
							"type": "address[]"
						}
					],
					"stateMutability": "view",
					"type": "function"
				},
				{
					"inputs": [],
					"name": "join",
					"outputs": [],
					"stateMutability": "payable",
					"type": "function"
				},
				{
					"inputs": [],
					"name": "manager",
					"outputs": [
						{
							"internalType": "address",
							"name": "",
							"type": "address"
						}
					],
					"stateMutability": "view",
					"type": "function"
				},
				{
					"inputs": [],
					"name": "pickWinner",
					"outputs": [],
					"stateMutability": "nonpayable",
					"type": "function"
				},
				{
					"inputs": [
						{
							"internalType": "uint256",
							"name": "",
							"type": "uint256"
						}
					],
					"name": "players",
					"outputs": [
						{
							"internalType": "address",
							"name": "",
							"type": "address"
						}
					],
					"stateMutability": "view",
					"type": "function"
				},
				{
					"inputs": [],
					"name": "winner",
					"outputs": [
						{
							"internalType": "address",
							"name": "",
							"type": "address"
						}
					],
					"stateMutability": "view",
					"type": "function"
				}
			],
			"devdoc": {
				"kind": "dev",
				"methods": {},
				"version": 1
			},
			"evm": {
				"assembly": "    /* \"Day-28/code1.sol\":60:1596  contract Lottery {... */\n  mstore(0x40, 0x80)\n    /* \"Day-28/code1.sol\":486:539  constructor() {... */\n  callvalue\n  dup1\n  iszero\n  tag_1\n  jumpi\n  0x00\n  dup1\n  revert\ntag_1:\n  pop\n    /* \"Day-28/code1.sol\":521:531  msg.sender */\n  caller\n    /* \"Day-28/code1.sol\":511:518  manager */\n  0x00\n  dup1\n    /* \"Day-28/code1.sol\":511:531  manager = msg.sender */\n  0x0100\n  exp\n  dup2\n  sload\n  dup2\n  0xffffffffffffffffffffffffffffffffffffffff\n  mul\n  not\n  and\n  swap1\n  dup4\n  0xffffffffffffffffffffffffffffffffffffffff\n  and\n  mul\n  or\n  swap1\n  sstore\n  pop\n    /* \"Day-28/code1.sol\":60:1596  contract Lottery {... */\n  dataSize(sub_0)\n  dup1\n  dataOffset(sub_0)\n  0x00\n  codecopy\n  0x00\n  return\nstop\n\nsub_0: assembly {\n        /* \"Day-28/code1.sol\":60:1596  contract Lottery {... */\n      mstore(0x40, 0x80)\n      jumpi(tag_1, lt(calldatasize, 0x04))\n      shr(0xe0, calldataload(0x00))\n      dup1\n      0x481c6a75\n      eq\n      tag_2\n      jumpi\n      dup1\n      0x5d495aea\n      eq\n      tag_3\n      jumpi\n      dup1\n      0x8b5b9ccc\n      eq\n      tag_4\n      jumpi\n      dup1\n      0xb688a363\n      eq\n      tag_5\n      jumpi\n      dup1\n      0xdfbf53ae\n      eq\n      tag_6\n      jumpi\n      dup1\n      0xf71d96cb\n      eq\n      tag_7\n      jumpi\n    tag_1:\n      0x00\n      dup1\n      revert\n        /* \"Day-28/code1.sol\":84:106  address public manager */\n    tag_2:\n      callvalue\n      dup1\n      iszero\n      tag_8\n      jumpi\n      0x00\n      dup1\n      revert\n    tag_8:\n      pop\n      tag_9\n      tag_10\n      jump\t// in\n    tag_9:\n      mload(0x40)\n      tag_11\n      swap2\n      swap1\n      tag_12\n      jump\t// in\n    tag_11:\n      mload(0x40)\n      dup1\n      swap2\n      sub\n      swap1\n      return\n        /* \"Day-28/code1.sol\":821:1234  function pickWinner() public onlyManager {... */\n    tag_3:\n      callvalue\n      dup1\n      iszero\n      tag_13\n      jumpi\n      0x00\n      dup1\n      revert\n    tag_13:\n      pop\n      tag_14\n      tag_15\n      jump\t// in\n    tag_14:\n      stop\n        /* \"Day-28/code1.sol\":1499:1593  function getPlayers() public view returns (address[] memory) {... */\n    tag_4:\n      callvalue\n      dup1\n      iszero\n      tag_16\n      jumpi\n      0x00\n      dup1\n      revert\n    tag_16:\n      pop\n      tag_17\n      tag_18\n      jump\t// in\n    tag_17:\n      mload(0x40)\n      tag_19\n      swap2\n      swap1\n      tag_20\n      jump\t// in\n    tag_19:\n      mload(0x40)\n      dup1\n      swap2\n      sub\n      swap1\n      return\n        /* \"Day-28/code1.sol\":594:776  function join() public payable {... */\n    tag_5:\n      tag_21\n      tag_22\n      jump\t// in\n    tag_21:\n      stop\n        /* \"Day-28/code1.sol\":179:200  address public winner */\n    tag_6:\n      callvalue\n      dup1\n      iszero\n      tag_23\n      jumpi\n      0x00\n      dup1\n      revert\n    tag_23:\n      pop\n      tag_24\n      tag_25\n      jump\t// in\n    tag_24:\n      mload(0x40)\n      tag_26\n      swap2\n      swap1\n      tag_12\n      jump\t// in\n    tag_26:\n      mload(0x40)\n      dup1\n      swap2\n      sub\n      swap1\n      return\n        /* \"Day-28/code1.sol\":113:137  address[] public players */\n    tag_7:\n      callvalue\n      dup1\n      iszero\n      tag_27\n      jumpi\n      0x00\n      dup1\n      revert\n    tag_27:\n      pop\n      tag_28\n      0x04\n      dup1\n      calldatasize\n      sub\n      dup2\n      add\n      swap1\n      tag_29\n      swap2\n      swap1\n      tag_30\n      jump\t// in\n    tag_29:\n      tag_31\n      jump\t// in\n    tag_28:\n      mload(0x40)\n      tag_32\n      swap2\n      swap1\n      tag_12\n      jump\t// in\n    tag_32:\n      mload(0x40)\n      dup1\n      swap2\n      sub\n      swap1\n      return\n        /* \"Day-28/code1.sol\":84:106  address public manager */\n    tag_10:\n      0x00\n      dup1\n      sload\n      swap1\n      0x0100\n      exp\n      swap1\n      div\n      0xffffffffffffffffffffffffffffffffffffffff\n      and\n      dup2\n      jump\t// out\n        /* \"Day-28/code1.sol\":821:1234  function pickWinner() public onlyManager {... */\n    tag_15:\n        /* \"Day-28/code1.sol\":407:414  manager */\n      0x00\n      dup1\n      sload\n      swap1\n      0x0100\n      exp\n      swap1\n      div\n      0xffffffffffffffffffffffffffffffffffffffff\n      and\n        /* \"Day-28/code1.sol\":393:414  msg.sender == manager */\n      0xffffffffffffffffffffffffffffffffffffffff\n      and\n        /* \"Day-28/code1.sol\":393:403  msg.sender */\n      caller\n        /* \"Day-28/code1.sol\":393:414  msg.sender == manager */\n      0xffffffffffffffffffffffffffffffffffffffff\n      and\n      eq\n        /* \"Day-28/code1.sol\":385:458  require(msg.sender == manager, \"Only the manager can call this function\") */\n      tag_34\n      jumpi\n      mload(0x40)\n      0x08c379a000000000000000000000000000000000000000000000000000000000\n      dup2\n      mstore\n      0x04\n      add\n      tag_35\n      swap1\n      tag_36\n      jump\t// in\n    tag_35:\n      mload(0x40)\n      dup1\n      swap2\n      sub\n      swap1\n      revert\n    tag_34:\n        /* \"Day-28/code1.sol\":898:899  0 */\n      0x00\n        /* \"Day-28/code1.sol\":881:888  players */\n      0x01\n        /* \"Day-28/code1.sol\":881:895  players.length */\n      dup1\n      sload\n      swap1\n      pop\n        /* \"Day-28/code1.sol\":881:899  players.length > 0 */\n      gt\n        /* \"Day-28/code1.sol\":873:929  require(players.length > 0, \"No players in the lottery\") */\n      tag_38\n      jumpi\n      mload(0x40)\n      0x08c379a000000000000000000000000000000000000000000000000000000000\n      dup2\n      mstore\n      0x04\n      add\n      tag_39\n      swap1\n      tag_40\n      jump\t// in\n    tag_39:\n      mload(0x40)\n      dup1\n      swap2\n      sub\n      swap1\n      revert\n    tag_38:\n        /* \"Day-28/code1.sol\":940:950  uint index */\n      0x00\n        /* \"Day-28/code1.sol\":964:971  players */\n      0x01\n        /* \"Day-28/code1.sol\":964:978  players.length */\n      dup1\n      sload\n      swap1\n      pop\n        /* \"Day-28/code1.sol\":953:961  random() */\n      tag_41\n        /* \"Day-28/code1.sol\":953:959  random */\n      tag_42\n        /* \"Day-28/code1.sol\":953:961  random() */\n      jump\t// in\n    tag_41:\n        /* \"Day-28/code1.sol\":953:978  random() % players.length */\n      tag_43\n      swap2\n      swap1\n      tag_44\n      jump\t// in\n    tag_43:\n        /* \"Day-28/code1.sol\":940:978  uint index = random() % players.length */\n      swap1\n      pop\n        /* \"Day-28/code1.sol\":998:1005  players */\n      0x01\n        /* \"Day-28/code1.sol\":1006:1011  index */\n      dup2\n        /* \"Day-28/code1.sol\":998:1012  players[index] */\n      dup2\n      sload\n      dup2\n      lt\n      tag_45\n      jumpi\n      tag_46\n      tag_47\n      jump\t// in\n    tag_46:\n    tag_45:\n      swap1\n      0x00\n      mstore\n      keccak256(0x00, 0x20)\n      add\n      0x00\n      swap1\n      sload\n      swap1\n      0x0100\n      exp\n      swap1\n      div\n      0xffffffffffffffffffffffffffffffffffffffff\n      and\n        /* \"Day-28/code1.sol\":989:995  winner */\n      0x02\n      0x00\n        /* \"Day-28/code1.sol\":989:1012  winner = players[index] */\n      0x0100\n      exp\n      dup2\n      sload\n      dup2\n      0xffffffffffffffffffffffffffffffffffffffff\n      mul\n      not\n      and\n      swap1\n      dup4\n      0xffffffffffffffffffffffffffffffffffffffff\n      and\n      mul\n      or\n      swap1\n      sstore\n      pop\n        /* \"Day-28/code1.sol\":1089:1095  winner */\n      0x02\n      0x00\n      swap1\n      sload\n      swap1\n      0x0100\n      exp\n      swap1\n      div\n      0xffffffffffffffffffffffffffffffffffffffff\n      and\n        /* \"Day-28/code1.sol\":1081:1105  payable(winner).transfer */\n      0xffffffffffffffffffffffffffffffffffffffff\n      and\n        /* \"Day-28/code1.sol\":1081:1128  payable(winner).transfer(address(this).balance) */\n      0x08fc\n        /* \"Day-28/code1.sol\":1106:1127  address(this).balance */\n      selfbalance\n        /* \"Day-28/code1.sol\":1081:1128  payable(winner).transfer(address(this).balance) */\n      swap1\n      dup2\n      iszero\n      mul\n      swap1\n      mload(0x40)\n      0x00\n      mload(0x40)\n      dup1\n      dup4\n      sub\n      dup2\n      dup6\n      dup9\n      dup9\n      call\n      swap4\n      pop\n      pop\n      pop\n      pop\n      iszero\n      dup1\n      iszero\n      tag_50\n      jumpi\n      returndatasize\n      0x00\n      dup1\n      returndatacopy\n      revert(0x00, returndatasize)\n    tag_50:\n      pop\n        /* \"Day-28/code1.sol\":1159:1165  winner */\n      0x02\n      0x00\n      swap1\n      sload\n      swap1\n      0x0100\n      exp\n      swap1\n      div\n      0xffffffffffffffffffffffffffffffffffffffff\n      and\n        /* \"Day-28/code1.sol\":1144:1166  WinnerSelected(winner) */\n      0xffffffffffffffffffffffffffffffffffffffff\n      and\n      0x1d4c260f1824cd028e6c9e6e31c3a0b94f2513e7a641113ec759d382f9bdd5a1\n      mload(0x40)\n      mload(0x40)\n      dup1\n      swap2\n      sub\n      swap1\n      log2\n        /* \"Day-28/code1.sol\":1219:1226  players */\n      0x01\n      0x00\n        /* \"Day-28/code1.sol\":1212:1226  delete players */\n      tag_51\n      swap2\n      swap1\n      tag_52\n      jump\t// in\n    tag_51:\n        /* \"Day-28/code1.sol\":862:1234  {... */\n      pop\n        /* \"Day-28/code1.sol\":821:1234  function pickWinner() public onlyManager {... */\n      jump\t// out\n        /* \"Day-28/code1.sol\":1499:1593  function getPlayers() public view returns (address[] memory) {... */\n    tag_18:\n        /* \"Day-28/code1.sol\":1542:1558  address[] memory */\n      0x60\n        /* \"Day-28/code1.sol\":1578:1585  players */\n      0x01\n        /* \"Day-28/code1.sol\":1571:1585  return players */\n      dup1\n      sload\n      dup1\n      0x20\n      mul\n      0x20\n      add\n      mload(0x40)\n      swap1\n      dup2\n      add\n      0x40\n      mstore\n      dup1\n      swap3\n      swap2\n      swap1\n      dup2\n      dup2\n      mstore\n      0x20\n      add\n      dup3\n      dup1\n      sload\n      dup1\n      iszero\n      tag_54\n      jumpi\n      0x20\n      mul\n      dup3\n      add\n      swap2\n      swap1\n      0x00\n      mstore\n      keccak256(0x00, 0x20)\n      swap1\n    tag_55:\n      dup2\n      0x00\n      swap1\n      sload\n      swap1\n      0x0100\n      exp\n      swap1\n      div\n      0xffffffffffffffffffffffffffffffffffffffff\n      and\n      0xffffffffffffffffffffffffffffffffffffffff\n      and\n      dup2\n      mstore\n      0x20\n      add\n      swap1\n      0x01\n      add\n      swap1\n      dup1\n      dup4\n      gt\n      tag_55\n      jumpi\n    tag_54:\n      pop\n      pop\n      pop\n      pop\n      pop\n      swap1\n      pop\n        /* \"Day-28/code1.sol\":1499:1593  function getPlayers() public view returns (address[] memory) {... */\n      swap1\n      jump\t// out\n        /* \"Day-28/code1.sol\":594:776  function join() public payable {... */\n    tag_22:\n        /* \"Day-28/code1.sol\":657:667  0.01 ether */\n      0x2386f26fc10000\n        /* \"Day-28/code1.sol\":644:653  msg.value */\n      callvalue\n        /* \"Day-28/code1.sol\":644:667  msg.value == 0.01 ether */\n      eq\n        /* \"Day-28/code1.sol\":636:693  require(msg.value == 0.01 ether, \"Entry fee is 0.01 ETH\") */\n      tag_57\n      jumpi\n      mload(0x40)\n      0x08c379a000000000000000000000000000000000000000000000000000000000\n      dup2\n      mstore\n      0x04\n      add\n      tag_58\n      swap1\n      tag_59\n      jump\t// in\n    tag_58:\n      mload(0x40)\n      dup1\n      swap2\n      sub\n      swap1\n      revert\n    tag_57:\n        /* \"Day-28/code1.sol\":704:711  players */\n      0x01\n        /* \"Day-28/code1.sol\":717:727  msg.sender */\n      caller\n        /* \"Day-28/code1.sol\":704:728  players.push(msg.sender) */\n      swap1\n      dup1\n      0x01\n      dup2\n      sload\n      add\n      dup1\n      dup3\n      sstore\n      dup1\n      swap2\n      pop\n      pop\n      0x01\n      swap1\n      sub\n      swap1\n      0x00\n      mstore\n      keccak256(0x00, 0x20)\n      add\n      0x00\n      swap1\n      swap2\n      swap1\n      swap2\n      swap1\n      swap2\n      0x0100\n      exp\n      dup2\n      sload\n      dup2\n      0xffffffffffffffffffffffffffffffffffffffff\n      mul\n      not\n      and\n      swap1\n      dup4\n      0xffffffffffffffffffffffffffffffffffffffff\n      and\n      mul\n      or\n      swap1\n      sstore\n      pop\n        /* \"Day-28/code1.sol\":757:767  msg.sender */\n      caller\n        /* \"Day-28/code1.sol\":744:768  PlayerJoined(msg.sender) */\n      0xffffffffffffffffffffffffffffffffffffffff\n      and\n      0x31e760aa525306aba638a784082a013b6a1cc0a9a1789f3f22281c0453b10b1f\n      mload(0x40)\n      mload(0x40)\n      dup1\n      swap2\n      sub\n      swap1\n      log2\n        /* \"Day-28/code1.sol\":594:776  function join() public payable {... */\n      jump\t// out\n        /* \"Day-28/code1.sol\":179:200  address public winner */\n    tag_25:\n      0x02\n      0x00\n      swap1\n      sload\n      swap1\n      0x0100\n      exp\n      swap1\n      div\n      0xffffffffffffffffffffffffffffffffffffffff\n      and\n      dup2\n      jump\t// out\n        /* \"Day-28/code1.sol\":113:137  address[] public players */\n    tag_31:\n      0x01\n      dup2\n      dup2\n      sload\n      dup2\n      lt\n      tag_61\n      jumpi\n      0x00\n      dup1\n      revert\n    tag_61:\n      swap1\n      0x00\n      mstore\n      keccak256(0x00, 0x20)\n      add\n      0x00\n      swap2\n      pop\n      sload\n      swap1\n      0x0100\n      exp\n      swap1\n      div\n      0xffffffffffffffffffffffffffffffffffffffff\n      and\n      dup2\n      jump\t// out\n        /* \"Day-28/code1.sol\":1311:1467  function random() private view returns (uint) {... */\n    tag_42:\n        /* \"Day-28/code1.sol\":1351:1355  uint */\n      0x00\n        /* \"Day-28/code1.sol\":1407:1423  block.difficulty */\n      prevrandao\n        /* \"Day-28/code1.sol\":1425:1440  block.timestamp */\n      timestamp\n        /* \"Day-28/code1.sol\":1442:1449  players */\n      0x01\n        /* \"Day-28/code1.sol\":1442:1456  players.length */\n      dup1\n      sload\n      swap1\n      pop\n        /* \"Day-28/code1.sol\":1390:1457  abi.encodePacked(block.difficulty, block.timestamp, players.length) */\n      add(0x20, mload(0x40))\n      tag_64\n      swap4\n      swap3\n      swap2\n      swap1\n      tag_65\n      jump\t// in\n    tag_64:\n      mload(0x40)\n      0x20\n      dup2\n      dup4\n      sub\n      sub\n      dup2\n      mstore\n      swap1\n      0x40\n      mstore\n        /* \"Day-28/code1.sol\":1380:1458  keccak256(abi.encodePacked(block.difficulty, block.timestamp, players.length)) */\n      dup1\n      mload\n      swap1\n      0x20\n      add\n      keccak256\n        /* \"Day-28/code1.sol\":1375:1459  uint(keccak256(abi.encodePacked(block.difficulty, block.timestamp, players.length))) */\n      0x00\n      shr\n        /* \"Day-28/code1.sol\":1368:1459  return uint(keccak256(abi.encodePacked(block.difficulty, block.timestamp, players.length))) */\n      swap1\n      pop\n        /* \"Day-28/code1.sol\":1311:1467  function random() private view returns (uint) {... */\n      swap1\n      jump\t// out\n    tag_52:\n      pop\n      dup1\n      sload\n      0x00\n      dup3\n      sstore\n      swap1\n      0x00\n      mstore\n      keccak256(0x00, 0x20)\n      swap1\n      dup2\n      add\n      swap1\n      tag_67\n      swap2\n      swap1\n      tag_68\n      jump\t// in\n    tag_67:\n      pop\n      jump\t// out\n    tag_68:\n    tag_69:\n      dup1\n      dup3\n      gt\n      iszero\n      tag_70\n      jumpi\n      0x00\n      dup2\n      0x00\n      swap1\n      sstore\n      pop\n      0x01\n      add\n      jump(tag_69)\n    tag_70:\n      pop\n      swap1\n      jump\t// out\n        /* \"#utility.yul\":7:133   */\n    tag_71:\n        /* \"#utility.yul\":44:51   */\n      0x00\n        /* \"#utility.yul\":84:126   */\n      0xffffffffffffffffffffffffffffffffffffffff\n        /* \"#utility.yul\":77:82   */\n      dup3\n        /* \"#utility.yul\":73:127   */\n      and\n        /* \"#utility.yul\":62:127   */\n      swap1\n      pop\n        /* \"#utility.yul\":7:133   */\n      swap2\n      swap1\n      pop\n      jump\t// out\n        /* \"#utility.yul\":139:235   */\n    tag_72:\n        /* \"#utility.yul\":176:183   */\n      0x00\n        /* \"#utility.yul\":205:229   */\n      tag_100\n        /* \"#utility.yul\":223:228   */\n      dup3\n        /* \"#utility.yul\":205:229   */\n      tag_71\n      jump\t// in\n    tag_100:\n        /* \"#utility.yul\":194:229   */\n      swap1\n      pop\n        /* \"#utility.yul\":139:235   */\n      swap2\n      swap1\n      pop\n      jump\t// out\n        /* \"#utility.yul\":241:359   */\n    tag_73:\n        /* \"#utility.yul\":328:352   */\n      tag_102\n        /* \"#utility.yul\":346:351   */\n      dup2\n        /* \"#utility.yul\":328:352   */\n      tag_72\n      jump\t// in\n    tag_102:\n        /* \"#utility.yul\":323:326   */\n      dup3\n        /* \"#utility.yul\":316:353   */\n      mstore\n        /* \"#utility.yul\":241:359   */\n      pop\n      pop\n      jump\t// out\n        /* \"#utility.yul\":365:587   */\n    tag_12:\n        /* \"#utility.yul\":458:462   */\n      0x00\n        /* \"#utility.yul\":496:498   */\n      0x20\n        /* \"#utility.yul\":485:494   */\n      dup3\n        /* \"#utility.yul\":481:499   */\n      add\n        /* \"#utility.yul\":473:499   */\n      swap1\n      pop\n        /* \"#utility.yul\":509:580   */\n      tag_104\n        /* \"#utility.yul\":577:578   */\n      0x00\n        /* \"#utility.yul\":566:575   */\n      dup4\n        /* \"#utility.yul\":562:579   */\n      add\n        /* \"#utility.yul\":553:559   */\n      dup5\n        /* \"#utility.yul\":509:580   */\n      tag_73\n      jump\t// in\n    tag_104:\n        /* \"#utility.yul\":365:587   */\n      swap3\n      swap2\n      pop\n      pop\n      jump\t// out\n        /* \"#utility.yul\":593:707   */\n    tag_74:\n        /* \"#utility.yul\":660:666   */\n      0x00\n        /* \"#utility.yul\":694:699   */\n      dup2\n        /* \"#utility.yul\":688:700   */\n      mload\n        /* \"#utility.yul\":678:700   */\n      swap1\n      pop\n        /* \"#utility.yul\":593:707   */\n      swap2\n      swap1\n      pop\n      jump\t// out\n        /* \"#utility.yul\":713:897   */\n    tag_75:\n        /* \"#utility.yul\":812:823   */\n      0x00\n        /* \"#utility.yul\":846:852   */\n      dup3\n        /* \"#utility.yul\":841:844   */\n      dup3\n        /* \"#utility.yul\":834:853   */\n      mstore\n        /* \"#utility.yul\":886:890   */\n      0x20\n        /* \"#utility.yul\":881:884   */\n      dup3\n        /* \"#utility.yul\":877:891   */\n      add\n        /* \"#utility.yul\":862:891   */\n      swap1\n      pop\n        /* \"#utility.yul\":713:897   */\n      swap3\n      swap2\n      pop\n      pop\n      jump\t// out\n        /* \"#utility.yul\":903:1035   */\n    tag_76:\n        /* \"#utility.yul\":970:974   */\n      0x00\n        /* \"#utility.yul\":993:996   */\n      dup2\n        /* \"#utility.yul\":985:996   */\n      swap1\n      pop\n        /* \"#utility.yul\":1023:1027   */\n      0x20\n        /* \"#utility.yul\":1018:1021   */\n      dup3\n        /* \"#utility.yul\":1014:1028   */\n      add\n        /* \"#utility.yul\":1006:1028   */\n      swap1\n      pop\n        /* \"#utility.yul\":903:1035   */\n      swap2\n      swap1\n      pop\n      jump\t// out\n        /* \"#utility.yul\":1041:1149   */\n    tag_77:\n        /* \"#utility.yul\":1118:1142   */\n      tag_109\n        /* \"#utility.yul\":1136:1141   */\n      dup2\n        /* \"#utility.yul\":1118:1142   */\n      tag_72\n      jump\t// in\n    tag_109:\n        /* \"#utility.yul\":1113:1116   */\n      dup3\n        /* \"#utility.yul\":1106:1143   */\n      mstore\n        /* \"#utility.yul\":1041:1149   */\n      pop\n      pop\n      jump\t// out\n        /* \"#utility.yul\":1155:1334   */\n    tag_78:\n        /* \"#utility.yul\":1224:1234   */\n      0x00\n        /* \"#utility.yul\":1245:1291   */\n      tag_111\n        /* \"#utility.yul\":1287:1290   */\n      dup4\n        /* \"#utility.yul\":1279:1285   */\n      dup4\n        /* \"#utility.yul\":1245:1291   */\n      tag_77\n      jump\t// in\n    tag_111:\n        /* \"#utility.yul\":1323:1327   */\n      0x20\n        /* \"#utility.yul\":1318:1321   */\n      dup4\n        /* \"#utility.yul\":1314:1328   */\n      add\n        /* \"#utility.yul\":1300:1328   */\n      swap1\n      pop\n        /* \"#utility.yul\":1155:1334   */\n      swap3\n      swap2\n      pop\n      pop\n      jump\t// out\n        /* \"#utility.yul\":1340:1453   */\n    tag_79:\n        /* \"#utility.yul\":1410:1414   */\n      0x00\n        /* \"#utility.yul\":1442:1446   */\n      0x20\n        /* \"#utility.yul\":1437:1440   */\n      dup3\n        /* \"#utility.yul\":1433:1447   */\n      add\n        /* \"#utility.yul\":1425:1447   */\n      swap1\n      pop\n        /* \"#utility.yul\":1340:1453   */\n      swap2\n      swap1\n      pop\n      jump\t// out\n        /* \"#utility.yul\":1489:2221   */\n    tag_80:\n        /* \"#utility.yul\":1608:1611   */\n      0x00\n        /* \"#utility.yul\":1637:1691   */\n      tag_114\n        /* \"#utility.yul\":1685:1690   */\n      dup3\n        /* \"#utility.yul\":1637:1691   */\n      tag_74\n      jump\t// in\n    tag_114:\n        /* \"#utility.yul\":1707:1793   */\n      tag_115\n        /* \"#utility.yul\":1786:1792   */\n      dup2\n        /* \"#utility.yul\":1781:1784   */\n      dup6\n        /* \"#utility.yul\":1707:1793   */\n      tag_75\n      jump\t// in\n    tag_115:\n        /* \"#utility.yul\":1700:1793   */\n      swap4\n      pop\n        /* \"#utility.yul\":1817:1873   */\n      tag_116\n        /* \"#utility.yul\":1867:1872   */\n      dup4\n        /* \"#utility.yul\":1817:1873   */\n      tag_76\n      jump\t// in\n    tag_116:\n        /* \"#utility.yul\":1896:1903   */\n      dup1\n        /* \"#utility.yul\":1927:1928   */\n      0x00\n        /* \"#utility.yul\":1912:2196   */\n    tag_117:\n        /* \"#utility.yul\":1937:1943   */\n      dup4\n        /* \"#utility.yul\":1934:1935   */\n      dup2\n        /* \"#utility.yul\":1931:1944   */\n      lt\n        /* \"#utility.yul\":1912:2196   */\n      iszero\n      tag_119\n      jumpi\n        /* \"#utility.yul\":2013:2019   */\n      dup2\n        /* \"#utility.yul\":2007:2020   */\n      mload\n        /* \"#utility.yul\":2040:2103   */\n      tag_120\n        /* \"#utility.yul\":2099:2102   */\n      dup9\n        /* \"#utility.yul\":2084:2097   */\n      dup3\n        /* \"#utility.yul\":2040:2103   */\n      tag_78\n      jump\t// in\n    tag_120:\n        /* \"#utility.yul\":2033:2103   */\n      swap8\n      pop\n        /* \"#utility.yul\":2126:2186   */\n      tag_121\n        /* \"#utility.yul\":2179:2185   */\n      dup4\n        /* \"#utility.yul\":2126:2186   */\n      tag_79\n      jump\t// in\n    tag_121:\n        /* \"#utility.yul\":2116:2186   */\n      swap3\n      pop\n        /* \"#utility.yul\":1972:2196   */\n      pop\n        /* \"#utility.yul\":1959:1960   */\n      0x01\n        /* \"#utility.yul\":1956:1957   */\n      dup2\n        /* \"#utility.yul\":1952:1961   */\n      add\n        /* \"#utility.yul\":1947:1961   */\n      swap1\n      pop\n        /* \"#utility.yul\":1912:2196   */\n      jump(tag_117)\n    tag_119:\n        /* \"#utility.yul\":1916:1930   */\n      pop\n        /* \"#utility.yul\":2212:2215   */\n      dup6\n        /* \"#utility.yul\":2205:2215   */\n      swap4\n      pop\n        /* \"#utility.yul\":1613:2221   */\n      pop\n      pop\n      pop\n        /* \"#utility.yul\":1489:2221   */\n      swap3\n      swap2\n      pop\n      pop\n      jump\t// out\n        /* \"#utility.yul\":2227:2600   */\n    tag_20:\n        /* \"#utility.yul\":2370:2374   */\n      0x00\n        /* \"#utility.yul\":2408:2410   */\n      0x20\n        /* \"#utility.yul\":2397:2406   */\n      dup3\n        /* \"#utility.yul\":2393:2411   */\n      add\n        /* \"#utility.yul\":2385:2411   */\n      swap1\n      pop\n        /* \"#utility.yul\":2457:2466   */\n      dup2\n        /* \"#utility.yul\":2451:2455   */\n      dup2\n        /* \"#utility.yul\":2447:2467   */\n      sub\n        /* \"#utility.yul\":2443:2444   */\n      0x00\n        /* \"#utility.yul\":2432:2441   */\n      dup4\n        /* \"#utility.yul\":2428:2445   */\n      add\n        /* \"#utility.yul\":2421:2468   */\n      mstore\n        /* \"#utility.yul\":2485:2593   */\n      tag_123\n        /* \"#utility.yul\":2588:2592   */\n      dup2\n        /* \"#utility.yul\":2579:2585   */\n      dup5\n        /* \"#utility.yul\":2485:2593   */\n      tag_80\n      jump\t// in\n    tag_123:\n        /* \"#utility.yul\":2477:2593   */\n      swap1\n      pop\n        /* \"#utility.yul\":2227:2600   */\n      swap3\n      swap2\n      pop\n      pop\n      jump\t// out\n        /* \"#utility.yul\":2687:2804   */\n    tag_82:\n        /* \"#utility.yul\":2796:2797   */\n      0x00\n        /* \"#utility.yul\":2793:2794   */\n      dup1\n        /* \"#utility.yul\":2786:2798   */\n      revert\n        /* \"#utility.yul\":2933:3010   */\n    tag_84:\n        /* \"#utility.yul\":2970:2977   */\n      0x00\n        /* \"#utility.yul\":2999:3004   */\n      dup2\n        /* \"#utility.yul\":2988:3004   */\n      swap1\n      pop\n        /* \"#utility.yul\":2933:3010   */\n      swap2\n      swap1\n      pop\n      jump\t// out\n        /* \"#utility.yul\":3016:3138   */\n    tag_85:\n        /* \"#utility.yul\":3089:3113   */\n      tag_129\n        /* \"#utility.yul\":3107:3112   */\n      dup2\n        /* \"#utility.yul\":3089:3113   */\n      tag_84\n      jump\t// in\n    tag_129:\n        /* \"#utility.yul\":3082:3087   */\n      dup2\n        /* \"#utility.yul\":3079:3114   */\n      eq\n        /* \"#utility.yul\":3069:3132   */\n      tag_130\n      jumpi\n        /* \"#utility.yul\":3128:3129   */\n      0x00\n        /* \"#utility.yul\":3125:3126   */\n      dup1\n        /* \"#utility.yul\":3118:3130   */\n      revert\n        /* \"#utility.yul\":3069:3132   */\n    tag_130:\n        /* \"#utility.yul\":3016:3138   */\n      pop\n      jump\t// out\n        /* \"#utility.yul\":3144:3283   */\n    tag_86:\n        /* \"#utility.yul\":3190:3195   */\n      0x00\n        /* \"#utility.yul\":3228:3234   */\n      dup2\n        /* \"#utility.yul\":3215:3235   */\n      calldataload\n        /* \"#utility.yul\":3206:3235   */\n      swap1\n      pop\n        /* \"#utility.yul\":3244:3277   */\n      tag_132\n        /* \"#utility.yul\":3271:3276   */\n      dup2\n        /* \"#utility.yul\":3244:3277   */\n      tag_85\n      jump\t// in\n    tag_132:\n        /* \"#utility.yul\":3144:3283   */\n      swap3\n      swap2\n      pop\n      pop\n      jump\t// out\n        /* \"#utility.yul\":3289:3618   */\n    tag_30:\n        /* \"#utility.yul\":3348:3354   */\n      0x00\n        /* \"#utility.yul\":3397:3399   */\n      0x20\n        /* \"#utility.yul\":3385:3394   */\n      dup3\n        /* \"#utility.yul\":3376:3383   */\n      dup5\n        /* \"#utility.yul\":3372:3395   */\n      sub\n        /* \"#utility.yul\":3368:3400   */\n      slt\n        /* \"#utility.yul\":3365:3484   */\n      iszero\n      tag_134\n      jumpi\n        /* \"#utility.yul\":3403:3482   */\n      tag_135\n      tag_82\n      jump\t// in\n    tag_135:\n        /* \"#utility.yul\":3365:3484   */\n    tag_134:\n        /* \"#utility.yul\":3523:3524   */\n      0x00\n        /* \"#utility.yul\":3548:3601   */\n      tag_136\n        /* \"#utility.yul\":3593:3600   */\n      dup5\n        /* \"#utility.yul\":3584:3590   */\n      dup3\n        /* \"#utility.yul\":3573:3582   */\n      dup6\n        /* \"#utility.yul\":3569:3591   */\n      add\n        /* \"#utility.yul\":3548:3601   */\n      tag_86\n      jump\t// in\n    tag_136:\n        /* \"#utility.yul\":3538:3601   */\n      swap2\n      pop\n        /* \"#utility.yul\":3494:3611   */\n      pop\n        /* \"#utility.yul\":3289:3618   */\n      swap3\n      swap2\n      pop\n      pop\n      jump\t// out\n        /* \"#utility.yul\":3624:3793   */\n    tag_87:\n        /* \"#utility.yul\":3708:3719   */\n      0x00\n        /* \"#utility.yul\":3742:3748   */\n      dup3\n        /* \"#utility.yul\":3737:3740   */\n      dup3\n        /* \"#utility.yul\":3730:3749   */\n      mstore\n        /* \"#utility.yul\":3782:3786   */\n      0x20\n        /* \"#utility.yul\":3777:3780   */\n      dup3\n        /* \"#utility.yul\":3773:3787   */\n      add\n        /* \"#utility.yul\":3758:3787   */\n      swap1\n      pop\n        /* \"#utility.yul\":3624:3793   */\n      swap3\n      swap2\n      pop\n      pop\n      jump\t// out\n        /* \"#utility.yul\":3799:4025   */\n    tag_88:\n        /* \"#utility.yul\":3939:3973   */\n      0x4f6e6c7920746865206d616e616765722063616e2063616c6c20746869732066\n        /* \"#utility.yul\":3935:3936   */\n      0x00\n        /* \"#utility.yul\":3927:3933   */\n      dup3\n        /* \"#utility.yul\":3923:3937   */\n      add\n        /* \"#utility.yul\":3916:3974   */\n      mstore\n        /* \"#utility.yul\":4008:4017   */\n      0x756e6374696f6e00000000000000000000000000000000000000000000000000\n        /* \"#utility.yul\":4003:4005   */\n      0x20\n        /* \"#utility.yul\":3995:4001   */\n      dup3\n        /* \"#utility.yul\":3991:4006   */\n      add\n        /* \"#utility.yul\":3984:4018   */\n      mstore\n        /* \"#utility.yul\":3799:4025   */\n      pop\n      jump\t// out\n        /* \"#utility.yul\":4031:4397   */\n    tag_89:\n        /* \"#utility.yul\":4173:4176   */\n      0x00\n        /* \"#utility.yul\":4194:4261   */\n      tag_140\n        /* \"#utility.yul\":4258:4260   */\n      0x27\n        /* \"#utility.yul\":4253:4256   */\n      dup4\n        /* \"#utility.yul\":4194:4261   */\n      tag_87\n      jump\t// in\n    tag_140:\n        /* \"#utility.yul\":4187:4261   */\n      swap2\n      pop\n        /* \"#utility.yul\":4270:4363   */\n      tag_141\n        /* \"#utility.yul\":4359:4362   */\n      dup3\n        /* \"#utility.yul\":4270:4363   */\n      tag_88\n      jump\t// in\n    tag_141:\n        /* \"#utility.yul\":4388:4390   */\n      0x40\n        /* \"#utility.yul\":4383:4386   */\n      dup3\n        /* \"#utility.yul\":4379:4391   */\n      add\n        /* \"#utility.yul\":4372:4391   */\n      swap1\n      pop\n        /* \"#utility.yul\":4031:4397   */\n      swap2\n      swap1\n      pop\n      jump\t// out\n        /* \"#utility.yul\":4403:4822   */\n    tag_36:\n        /* \"#utility.yul\":4569:4573   */\n      0x00\n        /* \"#utility.yul\":4607:4609   */\n      0x20\n        /* \"#utility.yul\":4596:4605   */\n      dup3\n        /* \"#utility.yul\":4592:4610   */\n      add\n        /* \"#utility.yul\":4584:4610   */\n      swap1\n      pop\n        /* \"#utility.yul\":4656:4665   */\n      dup2\n        /* \"#utility.yul\":4650:4654   */\n      dup2\n        /* \"#utility.yul\":4646:4666   */\n      sub\n        /* \"#utility.yul\":4642:4643   */\n      0x00\n        /* \"#utility.yul\":4631:4640   */\n      dup4\n        /* \"#utility.yul\":4627:4644   */\n      add\n        /* \"#utility.yul\":4620:4667   */\n      mstore\n        /* \"#utility.yul\":4684:4815   */\n      tag_143\n        /* \"#utility.yul\":4810:4814   */\n      dup2\n        /* \"#utility.yul\":4684:4815   */\n      tag_89\n      jump\t// in\n    tag_143:\n        /* \"#utility.yul\":4676:4815   */\n      swap1\n      pop\n        /* \"#utility.yul\":4403:4822   */\n      swap2\n      swap1\n      pop\n      jump\t// out\n        /* \"#utility.yul\":4828:5003   */\n    tag_90:\n        /* \"#utility.yul\":4968:4995   */\n      0x4e6f20706c617965727320696e20746865206c6f747465727900000000000000\n        /* \"#utility.yul\":4964:4965   */\n      0x00\n        /* \"#utility.yul\":4956:4962   */\n      dup3\n        /* \"#utility.yul\":4952:4966   */\n      add\n        /* \"#utility.yul\":4945:4996   */\n      mstore\n        /* \"#utility.yul\":4828:5003   */\n      pop\n      jump\t// out\n        /* \"#utility.yul\":5009:5375   */\n    tag_91:\n        /* \"#utility.yul\":5151:5154   */\n      0x00\n        /* \"#utility.yul\":5172:5239   */\n      tag_146\n        /* \"#utility.yul\":5236:5238   */\n      0x19\n        /* \"#utility.yul\":5231:5234   */\n      dup4\n        /* \"#utility.yul\":5172:5239   */\n      tag_87\n      jump\t// in\n    tag_146:\n        /* \"#utility.yul\":5165:5239   */\n      swap2\n      pop\n        /* \"#utility.yul\":5248:5341   */\n      tag_147\n        /* \"#utility.yul\":5337:5340   */\n      dup3\n        /* \"#utility.yul\":5248:5341   */\n      tag_90\n      jump\t// in\n    tag_147:\n        /* \"#utility.yul\":5366:5368   */\n      0x20\n        /* \"#utility.yul\":5361:5364   */\n      dup3\n        /* \"#utility.yul\":5357:5369   */\n      add\n        /* \"#utility.yul\":5350:5369   */\n      swap1\n      pop\n        /* \"#utility.yul\":5009:5375   */\n      swap2\n      swap1\n      pop\n      jump\t// out\n        /* \"#utility.yul\":5381:5800   */\n    tag_40:\n        /* \"#utility.yul\":5547:5551   */\n      0x00\n        /* \"#utility.yul\":5585:5587   */\n      0x20\n        /* \"#utility.yul\":5574:5583   */\n      dup3\n        /* \"#utility.yul\":5570:5588   */\n      add\n        /* \"#utility.yul\":5562:5588   */\n      swap1\n      pop\n        /* \"#utility.yul\":5634:5643   */\n      dup2\n        /* \"#utility.yul\":5628:5632   */\n      dup2\n        /* \"#utility.yul\":5624:5644   */\n      sub\n        /* \"#utility.yul\":5620:5621   */\n      0x00\n        /* \"#utility.yul\":5609:5618   */\n      dup4\n        /* \"#utility.yul\":5605:5622   */\n      add\n        /* \"#utility.yul\":5598:5645   */\n      mstore\n        /* \"#utility.yul\":5662:5793   */\n      tag_149\n        /* \"#utility.yul\":5788:5792   */\n      dup2\n        /* \"#utility.yul\":5662:5793   */\n      tag_91\n      jump\t// in\n    tag_149:\n        /* \"#utility.yul\":5654:5793   */\n      swap1\n      pop\n        /* \"#utility.yul\":5381:5800   */\n      swap2\n      swap1\n      pop\n      jump\t// out\n        /* \"#utility.yul\":5806:5986   */\n    tag_92:\n        /* \"#utility.yul\":5854:5931   */\n      0x4e487b7100000000000000000000000000000000000000000000000000000000\n        /* \"#utility.yul\":5851:5852   */\n      0x00\n        /* \"#utility.yul\":5844:5932   */\n      mstore\n        /* \"#utility.yul\":5951:5955   */\n      0x12\n        /* \"#utility.yul\":5948:5949   */\n      0x04\n        /* \"#utility.yul\":5941:5956   */\n      mstore\n        /* \"#utility.yul\":5975:5979   */\n      0x24\n        /* \"#utility.yul\":5972:5973   */\n      0x00\n        /* \"#utility.yul\":5965:5980   */\n      revert\n        /* \"#utility.yul\":5992:6168   */\n    tag_44:\n        /* \"#utility.yul\":6024:6025   */\n      0x00\n        /* \"#utility.yul\":6041:6061   */\n      tag_152\n        /* \"#utility.yul\":6059:6060   */\n      dup3\n        /* \"#utility.yul\":6041:6061   */\n      tag_84\n      jump\t// in\n    tag_152:\n        /* \"#utility.yul\":6036:6061   */\n      swap2\n      pop\n        /* \"#utility.yul\":6075:6095   */\n      tag_153\n        /* \"#utility.yul\":6093:6094   */\n      dup4\n        /* \"#utility.yul\":6075:6095   */\n      tag_84\n      jump\t// in\n    tag_153:\n        /* \"#utility.yul\":6070:6095   */\n      swap3\n      pop\n        /* \"#utility.yul\":6114:6115   */\n      dup3\n        /* \"#utility.yul\":6104:6139   */\n      tag_154\n      jumpi\n        /* \"#utility.yul\":6119:6137   */\n      tag_155\n      tag_92\n      jump\t// in\n    tag_155:\n        /* \"#utility.yul\":6104:6139   */\n    tag_154:\n        /* \"#utility.yul\":6160:6161   */\n      dup3\n        /* \"#utility.yul\":6157:6158   */\n      dup3\n        /* \"#utility.yul\":6153:6162   */\n      mod\n        /* \"#utility.yul\":6148:6162   */\n      swap1\n      pop\n        /* \"#utility.yul\":5992:6168   */\n      swap3\n      swap2\n      pop\n      pop\n      jump\t// out\n        /* \"#utility.yul\":6174:6354   */\n    tag_47:\n        /* \"#utility.yul\":6222:6299   */\n      0x4e487b7100000000000000000000000000000000000000000000000000000000\n        /* \"#utility.yul\":6219:6220   */\n      0x00\n        /* \"#utility.yul\":6212:6300   */\n      mstore\n        /* \"#utility.yul\":6319:6323   */\n      0x32\n        /* \"#utility.yul\":6316:6317   */\n      0x04\n        /* \"#utility.yul\":6309:6324   */\n      mstore\n        /* \"#utility.yul\":6343:6347   */\n      0x24\n        /* \"#utility.yul\":6340:6341   */\n      0x00\n        /* \"#utility.yul\":6333:6348   */\n      revert\n        /* \"#utility.yul\":6360:6531   */\n    tag_93:\n        /* \"#utility.yul\":6500:6523   */\n      0x456e7472792066656520697320302e3031204554480000000000000000000000\n        /* \"#utility.yul\":6496:6497   */\n      0x00\n        /* \"#utility.yul\":6488:6494   */\n      dup3\n        /* \"#utility.yul\":6484:6498   */\n      add\n        /* \"#utility.yul\":6477:6524   */\n      mstore\n        /* \"#utility.yul\":6360:6531   */\n      pop\n      jump\t// out\n        /* \"#utility.yul\":6537:6903   */\n    tag_94:\n        /* \"#utility.yul\":6679:6682   */\n      0x00\n        /* \"#utility.yul\":6700:6767   */\n      tag_159\n        /* \"#utility.yul\":6764:6766   */\n      0x15\n        /* \"#utility.yul\":6759:6762   */\n      dup4\n        /* \"#utility.yul\":6700:6767   */\n      tag_87\n      jump\t// in\n    tag_159:\n        /* \"#utility.yul\":6693:6767   */\n      swap2\n      pop\n        /* \"#utility.yul\":6776:6869   */\n      tag_160\n        /* \"#utility.yul\":6865:6868   */\n      dup3\n        /* \"#utility.yul\":6776:6869   */\n      tag_93\n      jump\t// in\n    tag_160:\n        /* \"#utility.yul\":6894:6896   */\n      0x20\n        /* \"#utility.yul\":6889:6892   */\n      dup3\n        /* \"#utility.yul\":6885:6897   */\n      add\n        /* \"#utility.yul\":6878:6897   */\n      swap1\n      pop\n        /* \"#utility.yul\":6537:6903   */\n      swap2\n      swap1\n      pop\n      jump\t// out\n        /* \"#utility.yul\":6909:7328   */\n    tag_59:\n        /* \"#utility.yul\":7075:7079   */\n      0x00\n        /* \"#utility.yul\":7113:7115   */\n      0x20\n        /* \"#utility.yul\":7102:7111   */\n      dup3\n        /* \"#utility.yul\":7098:7116   */\n      add\n        /* \"#utility.yul\":7090:7116   */\n      swap1\n      pop\n        /* \"#utility.yul\":7162:7171   */\n      dup2\n        /* \"#utility.yul\":7156:7160   */\n      dup2\n        /* \"#utility.yul\":7152:7172   */\n      sub\n        /* \"#utility.yul\":7148:7149   */\n      0x00\n        /* \"#utility.yul\":7137:7146   */\n      dup4\n        /* \"#utility.yul\":7133:7150   */\n      add\n        /* \"#utility.yul\":7126:7173   */\n      mstore\n        /* \"#utility.yul\":7190:7321   */\n      tag_162\n        /* \"#utility.yul\":7316:7320   */\n      dup2\n        /* \"#utility.yul\":7190:7321   */\n      tag_94\n      jump\t// in\n    tag_162:\n        /* \"#utility.yul\":7182:7321   */\n      swap1\n      pop\n        /* \"#utility.yul\":6909:7328   */\n      swap2\n      swap1\n      pop\n      jump\t// out\n        /* \"#utility.yul\":7334:7413   */\n    tag_95:\n        /* \"#utility.yul\":7373:7380   */\n      0x00\n        /* \"#utility.yul\":7402:7407   */\n      dup2\n        /* \"#utility.yul\":7391:7407   */\n      swap1\n      pop\n        /* \"#utility.yul\":7334:7413   */\n      swap2\n      swap1\n      pop\n      jump\t// out\n        /* \"#utility.yul\":7419:7576   */\n    tag_96:\n        /* \"#utility.yul\":7524:7569   */\n      tag_165\n        /* \"#utility.yul\":7544:7568   */\n      tag_166\n        /* \"#utility.yul\":7562:7567   */\n      dup3\n        /* \"#utility.yul\":7544:7568   */\n      tag_84\n      jump\t// in\n    tag_166:\n        /* \"#utility.yul\":7524:7569   */\n      tag_95\n      jump\t// in\n    tag_165:\n        /* \"#utility.yul\":7519:7522   */\n      dup3\n        /* \"#utility.yul\":7512:7570   */\n      mstore\n        /* \"#utility.yul\":7419:7576   */\n      pop\n      pop\n      jump\t// out\n        /* \"#utility.yul\":7582:8120   */\n    tag_65:\n        /* \"#utility.yul\":7750:7753   */\n      0x00\n        /* \"#utility.yul\":7765:7840   */\n      tag_168\n        /* \"#utility.yul\":7836:7839   */\n      dup3\n        /* \"#utility.yul\":7827:7833   */\n      dup7\n        /* \"#utility.yul\":7765:7840   */\n      tag_96\n      jump\t// in\n    tag_168:\n        /* \"#utility.yul\":7865:7867   */\n      0x20\n        /* \"#utility.yul\":7860:7863   */\n      dup3\n        /* \"#utility.yul\":7856:7868   */\n      add\n        /* \"#utility.yul\":7849:7868   */\n      swap2\n      pop\n        /* \"#utility.yul\":7878:7953   */\n      tag_169\n        /* \"#utility.yul\":7949:7952   */\n      dup3\n        /* \"#utility.yul\":7940:7946   */\n      dup6\n        /* \"#utility.yul\":7878:7953   */\n      tag_96\n      jump\t// in\n    tag_169:\n        /* \"#utility.yul\":7978:7980   */\n      0x20\n        /* \"#utility.yul\":7973:7976   */\n      dup3\n        /* \"#utility.yul\":7969:7981   */\n      add\n        /* \"#utility.yul\":7962:7981   */\n      swap2\n      pop\n        /* \"#utility.yul\":7991:8066   */\n      tag_170\n        /* \"#utility.yul\":8062:8065   */\n      dup3\n        /* \"#utility.yul\":8053:8059   */\n      dup5\n        /* \"#utility.yul\":7991:8066   */\n      tag_96\n      jump\t// in\n    tag_170:\n        /* \"#utility.yul\":8091:8093   */\n      0x20\n        /* \"#utility.yul\":8086:8089   */\n      dup3\n        /* \"#utility.yul\":8082:8094   */\n      add\n        /* \"#utility.yul\":8075:8094   */\n      swap2\n      pop\n        /* \"#utility.yul\":8111:8114   */\n      dup2\n        /* \"#utility.yul\":8104:8114   */\n      swap1\n      pop\n        /* \"#utility.yul\":7582:8120   */\n      swap5\n      swap4\n      pop\n      pop\n      pop\n      pop\n      jump\t// out\n\n    auxdata: 0xa264697066735822122023fbdda17b0e0d4d107bb3028d9b020ea84ccc32b3effb1a3aa7d26a59a8735064736f6c634300081a0033\n}\n",
				"bytecode": {
					"linkReferences": {},
					"object": "6080604052348015600e575f80fd5b50335f806101000a81548173ffffffffffffffffffffffffffffffffffffffff021916908373ffffffffffffffffffffffffffffffffffffffff1602179055506109fd8061005b5f395ff3fe608060405260043610610054575f3560e01c8063481c6a75146100585780635d495aea146100825780638b5b9ccc14610098578063b688a363146100c2578063dfbf53ae146100cc578063f71d96cb146100f6575b5f80fd5b348015610063575f80fd5b5061006c610132565b6040516100799190610621565b60405180910390f35b34801561008d575f80fd5b50610096610155565b005b3480156100a3575f80fd5b506100ac610398565b6040516100b991906106f1565b60405180910390f35b6100ca610423565b005b3480156100d7575f80fd5b506100e0610511565b6040516100ed9190610621565b60405180910390f35b348015610101575f80fd5b5061011c60048036038101906101179190610748565b610536565b6040516101299190610621565b60405180910390f35b5f8054906101000a900473ffffffffffffffffffffffffffffffffffffffff1681565b5f8054906101000a900473ffffffffffffffffffffffffffffffffffffffff1673ffffffffffffffffffffffffffffffffffffffff163373ffffffffffffffffffffffffffffffffffffffff16146101e2576040517f08c379a00000000000000000000000000000000000000000000000000000000081526004016101d9906107f3565b60405180910390fd5b5f60018054905011610229576040517f08c379a00000000000000000000000000000000000000000000000000000000081526004016102209061085b565b60405180910390fd5b5f600180549050610238610571565b61024291906108a6565b905060018181548110610258576102576108d6565b5b905f5260205f20015f9054906101000a900473ffffffffffffffffffffffffffffffffffffffff1660025f6101000a81548173ffffffffffffffffffffffffffffffffffffffff021916908373ffffffffffffffffffffffffffffffffffffffff16021790555060025f9054906101000a900473ffffffffffffffffffffffffffffffffffffffff1673ffffffffffffffffffffffffffffffffffffffff166108fc4790811502906040515f60405180830381858888f19350505050158015610323573d5f803e3d5ffd5b5060025f9054906101000a900473ffffffffffffffffffffffffffffffffffffffff1673ffffffffffffffffffffffffffffffffffffffff167f1d4c260f1824cd028e6c9e6e31c3a0b94f2513e7a641113ec759d382f9bdd5a160405160405180910390a260015f61039591906105a9565b50565b6060600180548060200260200160405190810160405280929190818152602001828054801561041957602002820191905f5260205f20905b815f9054906101000a900473ffffffffffffffffffffffffffffffffffffffff1673ffffffffffffffffffffffffffffffffffffffff16815260200190600101908083116103d0575b5050505050905090565b662386f26fc10000341461046c576040517f08c379a00000000000000000000000000000000000000000000000000000000081526004016104639061094d565b60405180910390fd5b600133908060018154018082558091505060019003905f5260205f20015f9091909190916101000a81548173ffffffffffffffffffffffffffffffffffffffff021916908373ffffffffffffffffffffffffffffffffffffffff1602179055503373ffffffffffffffffffffffffffffffffffffffff167f31e760aa525306aba638a784082a013b6a1cc0a9a1789f3f22281c0453b10b1f60405160405180910390a2565b60025f9054906101000a900473ffffffffffffffffffffffffffffffffffffffff1681565b60018181548110610545575f80fd5b905f5260205f20015f915054906101000a900473ffffffffffffffffffffffffffffffffffffffff1681565b5f444260018054905060405160200161058c9392919061098b565b604051602081830303815290604052805190602001205f1c905090565b5080545f8255905f5260205f20908101906105c491906105c7565b50565b5b808211156105de575f815f9055506001016105c8565b5090565b5f73ffffffffffffffffffffffffffffffffffffffff82169050919050565b5f61060b826105e2565b9050919050565b61061b81610601565b82525050565b5f6020820190506106345f830184610612565b92915050565b5f81519050919050565b5f82825260208201905092915050565b5f819050602082019050919050565b61066c81610601565b82525050565b5f61067d8383610663565b60208301905092915050565b5f602082019050919050565b5f61069f8261063a565b6106a98185610644565b93506106b483610654565b805f5b838110156106e45781516106cb8882610672565b97506106d683610689565b9250506001810190506106b7565b5085935050505092915050565b5f6020820190508181035f8301526107098184610695565b905092915050565b5f80fd5b5f819050919050565b61072781610715565b8114610731575f80fd5b50565b5f813590506107428161071e565b92915050565b5f6020828403121561075d5761075c610711565b5b5f61076a84828501610734565b91505092915050565b5f82825260208201905092915050565b7f4f6e6c7920746865206d616e616765722063616e2063616c6c207468697320665f8201527f756e6374696f6e00000000000000000000000000000000000000000000000000602082015250565b5f6107dd602783610773565b91506107e882610783565b604082019050919050565b5f6020820190508181035f83015261080a816107d1565b9050919050565b7f4e6f20706c617965727320696e20746865206c6f7474657279000000000000005f82015250565b5f610845601983610773565b915061085082610811565b602082019050919050565b5f6020820190508181035f83015261087281610839565b9050919050565b7f4e487b71000000000000000000000000000000000000000000000000000000005f52601260045260245ffd5b5f6108b082610715565b91506108bb83610715565b9250826108cb576108ca610879565b5b828206905092915050565b7f4e487b71000000000000000000000000000000000000000000000000000000005f52603260045260245ffd5b7f456e7472792066656520697320302e30312045544800000000000000000000005f82015250565b5f610937601583610773565b915061094282610903565b602082019050919050565b5f6020820190508181035f8301526109648161092b565b9050919050565b5f819050919050565b61098561098082610715565b61096b565b82525050565b5f6109968286610974565b6020820191506109a68285610974565b6020820191506109b68284610974565b60208201915081905094935050505056fea264697066735822122023fbdda17b0e0d4d107bb3028d9b020ea84ccc32b3effb1a3aa7d26a59a8735064736f6c634300081a0033",
					"opcodes": "PUSH1 0x80 PUSH1 0x40 MSTORE CALLVALUE DUP1 ISZERO PUSH1 0xE JUMPI PUSH0 DUP1 REVERT JUMPDEST POP CALLER PUSH0 DUP1 PUSH2 0x100 EXP DUP2 SLOAD DUP2 PUSH20 0xFFFFFFFFFFFFFFFFFFFFFFFFFFFFFFFFFFFFFFFF MUL NOT AND SWAP1 DUP4 PUSH20 0xFFFFFFFFFFFFFFFFFFFFFFFFFFFFFFFFFFFFFFFF AND MUL OR SWAP1 SSTORE POP PUSH2 0x9FD DUP1 PUSH2 0x5B PUSH0 CODECOPY PUSH0 RETURN INVALID PUSH1 0x80 PUSH1 0x40 MSTORE PUSH1 0x4 CALLDATASIZE LT PUSH2 0x54 JUMPI PUSH0 CALLDATALOAD PUSH1 0xE0 SHR DUP1 PUSH4 0x481C6A75 EQ PUSH2 0x58 JUMPI DUP1 PUSH4 0x5D495AEA EQ PUSH2 0x82 JUMPI DUP1 PUSH4 0x8B5B9CCC EQ PUSH2 0x98 JUMPI DUP1 PUSH4 0xB688A363 EQ PUSH2 0xC2 JUMPI DUP1 PUSH4 0xDFBF53AE EQ PUSH2 0xCC JUMPI DUP1 PUSH4 0xF71D96CB EQ PUSH2 0xF6 JUMPI JUMPDEST PUSH0 DUP1 REVERT JUMPDEST CALLVALUE DUP1 ISZERO PUSH2 0x63 JUMPI PUSH0 DUP1 REVERT JUMPDEST POP PUSH2 0x6C PUSH2 0x132 JUMP JUMPDEST PUSH1 0x40 MLOAD PUSH2 0x79 SWAP2 SWAP1 PUSH2 0x621 JUMP JUMPDEST PUSH1 0x40 MLOAD DUP1 SWAP2 SUB SWAP1 RETURN JUMPDEST CALLVALUE DUP1 ISZERO PUSH2 0x8D JUMPI PUSH0 DUP1 REVERT JUMPDEST POP PUSH2 0x96 PUSH2 0x155 JUMP JUMPDEST STOP JUMPDEST CALLVALUE DUP1 ISZERO PUSH2 0xA3 JUMPI PUSH0 DUP1 REVERT JUMPDEST POP PUSH2 0xAC PUSH2 0x398 JUMP JUMPDEST PUSH1 0x40 MLOAD PUSH2 0xB9 SWAP2 SWAP1 PUSH2 0x6F1 JUMP JUMPDEST PUSH1 0x40 MLOAD DUP1 SWAP2 SUB SWAP1 RETURN JUMPDEST PUSH2 0xCA PUSH2 0x423 JUMP JUMPDEST STOP JUMPDEST CALLVALUE DUP1 ISZERO PUSH2 0xD7 JUMPI PUSH0 DUP1 REVERT JUMPDEST POP PUSH2 0xE0 PUSH2 0x511 JUMP JUMPDEST PUSH1 0x40 MLOAD PUSH2 0xED SWAP2 SWAP1 PUSH2 0x621 JUMP JUMPDEST PUSH1 0x40 MLOAD DUP1 SWAP2 SUB SWAP1 RETURN JUMPDEST CALLVALUE DUP1 ISZERO PUSH2 0x101 JUMPI PUSH0 DUP1 REVERT JUMPDEST POP PUSH2 0x11C PUSH1 0x4 DUP1 CALLDATASIZE SUB DUP2 ADD SWAP1 PUSH2 0x117 SWAP2 SWAP1 PUSH2 0x748 JUMP JUMPDEST PUSH2 0x536 JUMP JUMPDEST PUSH1 0x40 MLOAD PUSH2 0x129 SWAP2 SWAP1 PUSH2 0x621 JUMP JUMPDEST PUSH1 0x40 MLOAD DUP1 SWAP2 SUB SWAP1 RETURN JUMPDEST PUSH0 DUP1 SLOAD SWAP1 PUSH2 0x100 EXP SWAP1 DIV PUSH20 0xFFFFFFFFFFFFFFFFFFFFFFFFFFFFFFFFFFFFFFFF AND DUP2 JUMP JUMPDEST PUSH0 DUP1 SLOAD SWAP1 PUSH2 0x100 EXP SWAP1 DIV PUSH20 0xFFFFFFFFFFFFFFFFFFFFFFFFFFFFFFFFFFFFFFFF AND PUSH20 0xFFFFFFFFFFFFFFFFFFFFFFFFFFFFFFFFFFFFFFFF AND CALLER PUSH20 0xFFFFFFFFFFFFFFFFFFFFFFFFFFFFFFFFFFFFFFFF AND EQ PUSH2 0x1E2 JUMPI PUSH1 0x40 MLOAD PUSH32 0x8C379A000000000000000000000000000000000000000000000000000000000 DUP2 MSTORE PUSH1 0x4 ADD PUSH2 0x1D9 SWAP1 PUSH2 0x7F3 JUMP JUMPDEST PUSH1 0x40 MLOAD DUP1 SWAP2 SUB SWAP1 REVERT JUMPDEST PUSH0 PUSH1 0x1 DUP1 SLOAD SWAP1 POP GT PUSH2 0x229 JUMPI PUSH1 0x40 MLOAD PUSH32 0x8C379A000000000000000000000000000000000000000000000000000000000 DUP2 MSTORE PUSH1 0x4 ADD PUSH2 0x220 SWAP1 PUSH2 0x85B JUMP JUMPDEST PUSH1 0x40 MLOAD DUP1 SWAP2 SUB SWAP1 REVERT JUMPDEST PUSH0 PUSH1 0x1 DUP1 SLOAD SWAP1 POP PUSH2 0x238 PUSH2 0x571 JUMP JUMPDEST PUSH2 0x242 SWAP2 SWAP1 PUSH2 0x8A6 JUMP JUMPDEST SWAP1 POP PUSH1 0x1 DUP2 DUP2 SLOAD DUP2 LT PUSH2 0x258 JUMPI PUSH2 0x257 PUSH2 0x8D6 JUMP JUMPDEST JUMPDEST SWAP1 PUSH0 MSTORE PUSH1 0x20 PUSH0 KECCAK256 ADD PUSH0 SWAP1 SLOAD SWAP1 PUSH2 0x100 EXP SWAP1 DIV PUSH20 0xFFFFFFFFFFFFFFFFFFFFFFFFFFFFFFFFFFFFFFFF AND PUSH1 0x2 PUSH0 PUSH2 0x100 EXP DUP2 SLOAD DUP2 PUSH20 0xFFFFFFFFFFFFFFFFFFFFFFFFFFFFFFFFFFFFFFFF MUL NOT AND SWAP1 DUP4 PUSH20 0xFFFFFFFFFFFFFFFFFFFFFFFFFFFFFFFFFFFFFFFF AND MUL OR SWAP1 SSTORE POP PUSH1 0x2 PUSH0 SWAP1 SLOAD SWAP1 PUSH2 0x100 EXP SWAP1 DIV PUSH20 0xFFFFFFFFFFFFFFFFFFFFFFFFFFFFFFFFFFFFFFFF AND PUSH20 0xFFFFFFFFFFFFFFFFFFFFFFFFFFFFFFFFFFFFFFFF AND PUSH2 0x8FC SELFBALANCE SWAP1 DUP2 ISZERO MUL SWAP1 PUSH1 0x40 MLOAD PUSH0 PUSH1 0x40 MLOAD DUP1 DUP4 SUB DUP2 DUP6 DUP9 DUP9 CALL SWAP4 POP POP POP POP ISZERO DUP1 ISZERO PUSH2 0x323 JUMPI RETURNDATASIZE PUSH0 DUP1 RETURNDATACOPY RETURNDATASIZE PUSH0 REVERT JUMPDEST POP PUSH1 0x2 PUSH0 SWAP1 SLOAD SWAP1 PUSH2 0x100 EXP SWAP1 DIV PUSH20 0xFFFFFFFFFFFFFFFFFFFFFFFFFFFFFFFFFFFFFFFF AND PUSH20 0xFFFFFFFFFFFFFFFFFFFFFFFFFFFFFFFFFFFFFFFF AND PUSH32 0x1D4C260F1824CD028E6C9E6E31C3A0B94F2513E7A641113EC759D382F9BDD5A1 PUSH1 0x40 MLOAD PUSH1 0x40 MLOAD DUP1 SWAP2 SUB SWAP1 LOG2 PUSH1 0x1 PUSH0 PUSH2 0x395 SWAP2 SWAP1 PUSH2 0x5A9 JUMP JUMPDEST POP JUMP JUMPDEST PUSH1 0x60 PUSH1 0x1 DUP1 SLOAD DUP1 PUSH1 0x20 MUL PUSH1 0x20 ADD PUSH1 0x40 MLOAD SWAP1 DUP2 ADD PUSH1 0x40 MSTORE DUP1 SWAP3 SWAP2 SWAP1 DUP2 DUP2 MSTORE PUSH1 0x20 ADD DUP3 DUP1 SLOAD DUP1 ISZERO PUSH2 0x419 JUMPI PUSH1 0x20 MUL DUP3 ADD SWAP2 SWAP1 PUSH0 MSTORE PUSH1 0x20 PUSH0 KECCAK256 SWAP1 JUMPDEST DUP2 PUSH0 SWAP1 SLOAD SWAP1 PUSH2 0x100 EXP SWAP1 DIV PUSH20 0xFFFFFFFFFFFFFFFFFFFFFFFFFFFFFFFFFFFFFFFF AND PUSH20 0xFFFFFFFFFFFFFFFFFFFFFFFFFFFFFFFFFFFFFFFF AND DUP2 MSTORE PUSH1 0x20 ADD SWAP1 PUSH1 0x1 ADD SWAP1 DUP1 DUP4 GT PUSH2 0x3D0 JUMPI JUMPDEST POP POP POP POP POP SWAP1 POP SWAP1 JUMP JUMPDEST PUSH7 0x2386F26FC10000 CALLVALUE EQ PUSH2 0x46C JUMPI PUSH1 0x40 MLOAD PUSH32 0x8C379A000000000000000000000000000000000000000000000000000000000 DUP2 MSTORE PUSH1 0x4 ADD PUSH2 0x463 SWAP1 PUSH2 0x94D JUMP JUMPDEST PUSH1 0x40 MLOAD DUP1 SWAP2 SUB SWAP1 REVERT JUMPDEST PUSH1 0x1 CALLER SWAP1 DUP1 PUSH1 0x1 DUP2 SLOAD ADD DUP1 DUP3 SSTORE DUP1 SWAP2 POP POP PUSH1 0x1 SWAP1 SUB SWAP1 PUSH0 MSTORE PUSH1 0x20 PUSH0 KECCAK256 ADD PUSH0 SWAP1 SWAP2 SWAP1 SWAP2 SWAP1 SWAP2 PUSH2 0x100 EXP DUP2 SLOAD DUP2 PUSH20 0xFFFFFFFFFFFFFFFFFFFFFFFFFFFFFFFFFFFFFFFF MUL NOT AND SWAP1 DUP4 PUSH20 0xFFFFFFFFFFFFFFFFFFFFFFFFFFFFFFFFFFFFFFFF AND MUL OR SWAP1 SSTORE POP CALLER PUSH20 0xFFFFFFFFFFFFFFFFFFFFFFFFFFFFFFFFFFFFFFFF AND PUSH32 0x31E760AA525306ABA638A784082A013B6A1CC0A9A1789F3F22281C0453B10B1F PUSH1 0x40 MLOAD PUSH1 0x40 MLOAD DUP1 SWAP2 SUB SWAP1 LOG2 JUMP JUMPDEST PUSH1 0x2 PUSH0 SWAP1 SLOAD SWAP1 PUSH2 0x100 EXP SWAP1 DIV PUSH20 0xFFFFFFFFFFFFFFFFFFFFFFFFFFFFFFFFFFFFFFFF AND DUP2 JUMP JUMPDEST PUSH1 0x1 DUP2 DUP2 SLOAD DUP2 LT PUSH2 0x545 JUMPI PUSH0 DUP1 REVERT JUMPDEST SWAP1 PUSH0 MSTORE PUSH1 0x20 PUSH0 KECCAK256 ADD PUSH0 SWAP2 POP SLOAD SWAP1 PUSH2 0x100 EXP SWAP1 DIV PUSH20 0xFFFFFFFFFFFFFFFFFFFFFFFFFFFFFFFFFFFFFFFF AND DUP2 JUMP JUMPDEST PUSH0 PREVRANDAO TIMESTAMP PUSH1 0x1 DUP1 SLOAD SWAP1 POP PUSH1 0x40 MLOAD PUSH1 0x20 ADD PUSH2 0x58C SWAP4 SWAP3 SWAP2 SWAP1 PUSH2 0x98B JUMP JUMPDEST PUSH1 0x40 MLOAD PUSH1 0x20 DUP2 DUP4 SUB SUB DUP2 MSTORE SWAP1 PUSH1 0x40 MSTORE DUP1 MLOAD SWAP1 PUSH1 0x20 ADD KECCAK256 PUSH0 SHR SWAP1 POP SWAP1 JUMP JUMPDEST POP DUP1 SLOAD PUSH0 DUP3 SSTORE SWAP1 PUSH0 MSTORE PUSH1 0x20 PUSH0 KECCAK256 SWAP1 DUP2 ADD SWAP1 PUSH2 0x5C4 SWAP2 SWAP1 PUSH2 0x5C7 JUMP JUMPDEST POP JUMP JUMPDEST JUMPDEST DUP1 DUP3 GT ISZERO PUSH2 0x5DE JUMPI PUSH0 DUP2 PUSH0 SWAP1 SSTORE POP PUSH1 0x1 ADD PUSH2 0x5C8 JUMP JUMPDEST POP SWAP1 JUMP JUMPDEST PUSH0 PUSH20 0xFFFFFFFFFFFFFFFFFFFFFFFFFFFFFFFFFFFFFFFF DUP3 AND SWAP1 POP SWAP2 SWAP1 POP JUMP JUMPDEST PUSH0 PUSH2 0x60B DUP3 PUSH2 0x5E2 JUMP JUMPDEST SWAP1 POP SWAP2 SWAP1 POP JUMP JUMPDEST PUSH2 0x61B DUP2 PUSH2 0x601 JUMP JUMPDEST DUP3 MSTORE POP POP JUMP JUMPDEST PUSH0 PUSH1 0x20 DUP3 ADD SWAP1 POP PUSH2 0x634 PUSH0 DUP4 ADD DUP5 PUSH2 0x612 JUMP JUMPDEST SWAP3 SWAP2 POP POP JUMP JUMPDEST PUSH0 DUP2 MLOAD SWAP1 POP SWAP2 SWAP1 POP JUMP JUMPDEST PUSH0 DUP3 DUP3 MSTORE PUSH1 0x20 DUP3 ADD SWAP1 POP SWAP3 SWAP2 POP POP JUMP JUMPDEST PUSH0 DUP2 SWAP1 POP PUSH1 0x20 DUP3 ADD SWAP1 POP SWAP2 SWAP1 POP JUMP JUMPDEST PUSH2 0x66C DUP2 PUSH2 0x601 JUMP JUMPDEST DUP3 MSTORE POP POP JUMP JUMPDEST PUSH0 PUSH2 0x67D DUP4 DUP4 PUSH2 0x663 JUMP JUMPDEST PUSH1 0x20 DUP4 ADD SWAP1 POP SWAP3 SWAP2 POP POP JUMP JUMPDEST PUSH0 PUSH1 0x20 DUP3 ADD SWAP1 POP SWAP2 SWAP1 POP JUMP JUMPDEST PUSH0 PUSH2 0x69F DUP3 PUSH2 0x63A JUMP JUMPDEST PUSH2 0x6A9 DUP2 DUP6 PUSH2 0x644 JUMP JUMPDEST SWAP4 POP PUSH2 0x6B4 DUP4 PUSH2 0x654 JUMP JUMPDEST DUP1 PUSH0 JUMPDEST DUP4 DUP2 LT ISZERO PUSH2 0x6E4 JUMPI DUP2 MLOAD PUSH2 0x6CB DUP9 DUP3 PUSH2 0x672 JUMP JUMPDEST SWAP8 POP PUSH2 0x6D6 DUP4 PUSH2 0x689 JUMP JUMPDEST SWAP3 POP POP PUSH1 0x1 DUP2 ADD SWAP1 POP PUSH2 0x6B7 JUMP JUMPDEST POP DUP6 SWAP4 POP POP POP POP SWAP3 SWAP2 POP POP JUMP JUMPDEST PUSH0 PUSH1 0x20 DUP3 ADD SWAP1 POP DUP2 DUP2 SUB PUSH0 DUP4 ADD MSTORE PUSH2 0x709 DUP2 DUP5 PUSH2 0x695 JUMP JUMPDEST SWAP1 POP SWAP3 SWAP2 POP POP JUMP JUMPDEST PUSH0 DUP1 REVERT JUMPDEST PUSH0 DUP2 SWAP1 POP SWAP2 SWAP1 POP JUMP JUMPDEST PUSH2 0x727 DUP2 PUSH2 0x715 JUMP JUMPDEST DUP2 EQ PUSH2 0x731 JUMPI PUSH0 DUP1 REVERT JUMPDEST POP JUMP JUMPDEST PUSH0 DUP2 CALLDATALOAD SWAP1 POP PUSH2 0x742 DUP2 PUSH2 0x71E JUMP JUMPDEST SWAP3 SWAP2 POP POP JUMP JUMPDEST PUSH0 PUSH1 0x20 DUP3 DUP5 SUB SLT ISZERO PUSH2 0x75D JUMPI PUSH2 0x75C PUSH2 0x711 JUMP JUMPDEST JUMPDEST PUSH0 PUSH2 0x76A DUP5 DUP3 DUP6 ADD PUSH2 0x734 JUMP JUMPDEST SWAP2 POP POP SWAP3 SWAP2 POP POP JUMP JUMPDEST PUSH0 DUP3 DUP3 MSTORE PUSH1 0x20 DUP3 ADD SWAP1 POP SWAP3 SWAP2 POP POP JUMP JUMPDEST PUSH32 0x4F6E6C7920746865206D616E616765722063616E2063616C6C20746869732066 PUSH0 DUP3 ADD MSTORE PUSH32 0x756E6374696F6E00000000000000000000000000000000000000000000000000 PUSH1 0x20 DUP3 ADD MSTORE POP JUMP JUMPDEST PUSH0 PUSH2 0x7DD PUSH1 0x27 DUP4 PUSH2 0x773 JUMP JUMPDEST SWAP2 POP PUSH2 0x7E8 DUP3 PUSH2 0x783 JUMP JUMPDEST PUSH1 0x40 DUP3 ADD SWAP1 POP SWAP2 SWAP1 POP JUMP JUMPDEST PUSH0 PUSH1 0x20 DUP3 ADD SWAP1 POP DUP2 DUP2 SUB PUSH0 DUP4 ADD MSTORE PUSH2 0x80A DUP2 PUSH2 0x7D1 JUMP JUMPDEST SWAP1 POP SWAP2 SWAP1 POP JUMP JUMPDEST PUSH32 0x4E6F20706C617965727320696E20746865206C6F747465727900000000000000 PUSH0 DUP3 ADD MSTORE POP JUMP JUMPDEST PUSH0 PUSH2 0x845 PUSH1 0x19 DUP4 PUSH2 0x773 JUMP JUMPDEST SWAP2 POP PUSH2 0x850 DUP3 PUSH2 0x811 JUMP JUMPDEST PUSH1 0x20 DUP3 ADD SWAP1 POP SWAP2 SWAP1 POP JUMP JUMPDEST PUSH0 PUSH1 0x20 DUP3 ADD SWAP1 POP DUP2 DUP2 SUB PUSH0 DUP4 ADD MSTORE PUSH2 0x872 DUP2 PUSH2 0x839 JUMP JUMPDEST SWAP1 POP SWAP2 SWAP1 POP JUMP JUMPDEST PUSH32 0x4E487B7100000000000000000000000000000000000000000000000000000000 PUSH0 MSTORE PUSH1 0x12 PUSH1 0x4 MSTORE PUSH1 0x24 PUSH0 REVERT JUMPDEST PUSH0 PUSH2 0x8B0 DUP3 PUSH2 0x715 JUMP JUMPDEST SWAP2 POP PUSH2 0x8BB DUP4 PUSH2 0x715 JUMP JUMPDEST SWAP3 POP DUP3 PUSH2 0x8CB JUMPI PUSH2 0x8CA PUSH2 0x879 JUMP JUMPDEST JUMPDEST DUP3 DUP3 MOD SWAP1 POP SWAP3 SWAP2 POP POP JUMP JUMPDEST PUSH32 0x4E487B7100000000000000000000000000000000000000000000000000000000 PUSH0 MSTORE PUSH1 0x32 PUSH1 0x4 MSTORE PUSH1 0x24 PUSH0 REVERT JUMPDEST PUSH32 0x456E7472792066656520697320302E3031204554480000000000000000000000 PUSH0 DUP3 ADD MSTORE POP JUMP JUMPDEST PUSH0 PUSH2 0x937 PUSH1 0x15 DUP4 PUSH2 0x773 JUMP JUMPDEST SWAP2 POP PUSH2 0x942 DUP3 PUSH2 0x903 JUMP JUMPDEST PUSH1 0x20 DUP3 ADD SWAP1 POP SWAP2 SWAP1 POP JUMP JUMPDEST PUSH0 PUSH1 0x20 DUP3 ADD SWAP1 POP DUP2 DUP2 SUB PUSH0 DUP4 ADD MSTORE PUSH2 0x964 DUP2 PUSH2 0x92B JUMP JUMPDEST SWAP1 POP SWAP2 SWAP1 POP JUMP JUMPDEST PUSH0 DUP2 SWAP1 POP SWAP2 SWAP1 POP JUMP JUMPDEST PUSH2 0x985 PUSH2 0x980 DUP3 PUSH2 0x715 JUMP JUMPDEST PUSH2 0x96B JUMP JUMPDEST DUP3 MSTORE POP POP JUMP JUMPDEST PUSH0 PUSH2 0x996 DUP3 DUP7 PUSH2 0x974 JUMP JUMPDEST PUSH1 0x20 DUP3 ADD SWAP2 POP PUSH2 0x9A6 DUP3 DUP6 PUSH2 0x974 JUMP JUMPDEST PUSH1 0x20 DUP3 ADD SWAP2 POP PUSH2 0x9B6 DUP3 DUP5 PUSH2 0x974 JUMP JUMPDEST PUSH1 0x20 DUP3 ADD SWAP2 POP DUP2 SWAP1 POP SWAP5 SWAP4 POP POP POP POP JUMP INVALID LOG2 PUSH5 0x6970667358 0x22 SLT KECCAK256 0x23 0xFB 0xDD LOG1 PUSH28 0xE0D4D107BB3028D9B020EA84CCC32B3EFFB1A3AA7D26A59A8735064 PUSH20 0x6F6C634300081A00330000000000000000000000 "
				},
				"gasEstimates": {
					"creation": {
						"codeDepositCost": "511400",
						"executionCost": "24806",
						"totalCost": "536206"
					},
					"external": {
						"getPlayers()": "infinite",
						"join()": "49920",
						"manager()": "2483",
						"pickWinner()": "infinite",
						"players(uint256)": "5032",
						"winner()": "2574"
					},
					"internal": {
						"random()": "infinite"
					}
				},
				"methodIdentifiers": {
					"getPlayers()": "8b5b9ccc",
					"join()": "b688a363",
					"manager()": "481c6a75",
					"pickWinner()": "5d495aea",
					"players(uint256)": "f71d96cb",
					"winner()": "dfbf53ae"
				}
			},
			"storageLayout": {
				"storage": [
					{
						"astId": 3,
						"contract": "Day-28/code1.sol:Lottery",
						"label": "manager",
						"offset": 0,
						"slot": "0",
						"type": "t_address"
					},
					{
						"astId": 6,
						"contract": "Day-28/code1.sol:Lottery",
						"label": "players",
						"offset": 0,
						"slot": "1",
						"type": "t_array(t_address)dyn_storage"
					},
					{
						"astId": 8,
						"contract": "Day-28/code1.sol:Lottery",
						"label": "winner",
						"offset": 0,
						"slot": "2",
						"type": "t_address"
					}
				],
				"types": {
					"t_address": {
						"encoding": "inplace",
						"label": "address",
						"numberOfBytes": "20"
					},
					"t_array(t_address)dyn_storage": {
						"base": "t_address",
						"encoding": "dynamic_array",
						"label": "address[]",
						"numberOfBytes": "32"
					}
				}
			},
			"userdoc": {
				"kind": "user",
				"methods": {},
				"version": 1
			}
		}
	}
}