{
	"Crowdfunding/Crowdfunding.sol": {
		"Crowdfunding": {
			"abi": [
				{
					"inputs": [
						{
							"internalType": "address",
							"name": "_owner",
							"type": "address"
						},
						{
							"internalType": "string",
							"name": "_name",
							"type": "string"
						},
						{
							"internalType": "string",
							"name": "_description",
							"type": "string"
						},
						{
							"internalType": "uint256",
							"name": "_goal",
							"type": "uint256"
						},
						{
							"internalType": "uint256",
							"name": "_durationInDays",
							"type": "uint256"
						}
					],
					"stateMutability": "nonpayable",
					"type": "constructor"
				},
				{
					"inputs": [
						{
							"internalType": "string",
							"name": "_name",
							"type": "string"
						},
						{
							"internalType": "uint256",
							"name": "_amount",
							"type": "uint256"
						}
					],
					"name": "addTier",
					"outputs": [],
					"stateMutability": "nonpayable",
					"type": "function"
				},
				{
					"inputs": [
						{
							"internalType": "address",
							"name": "",
							"type": "address"
						}
					],
					"name": "backers",
					"outputs": [
						{
							"internalType": "uint256",
							"name": "totalContribution",
							"type": "uint256"
						}
					],
					"stateMutability": "view",
					"type": "function"
				},
				{
					"inputs": [],
					"name": "deadline",
					"outputs": [
						{
							"internalType": "uint256",
							"name": "",
							"type": "uint256"
						}
					],
					"stateMutability": "view",
					"type": "function"
				},
				{
					"inputs": [],
					"name": "description",
					"outputs": [
						{
							"internalType": "string",
							"name": "",
							"type": "string"
						}
					],
					"stateMutability": "view",
					"type": "function"
				},
				{
					"inputs": [
						{
							"internalType": "uint256",
							"name": "_daysToAdd",
							"type": "uint256"
						}
					],
					"name": "extendDeadline",
					"outputs": [],
					"stateMutability": "nonpayable",
					"type": "function"
				},
				{
					"inputs": [
						{
							"internalType": "uint256",
							"name": "_tierIndex",
							"type": "uint256"
						}
					],
					"name": "fund",
					"outputs": [],
					"stateMutability": "payable",
					"type": "function"
				},
				{
					"inputs": [],
					"name": "getCampaignStatus",
					"outputs": [
						{
							"internalType": "enum Crowdfunding.CampaignState",
							"name": "",
							"type": "uint8"
						}
					],
					"stateMutability": "view",
					"type": "function"
				},
				{
					"inputs": [],
					"name": "getContractBalance",
					"outputs": [
						{
							"internalType": "uint256",
							"name": "",
							"type": "uint256"
						}
					],
					"stateMutability": "view",
					"type": "function"
				},
				{
					"inputs": [],
					"name": "getTiers",
					"outputs": [
						{
							"components": [
								{
									"internalType": "string",
									"name": "name",
									"type": "string"
								},
								{
									"internalType": "uint256",
									"name": "amount",
									"type": "uint256"
								},
								{
									"internalType": "uint256",
									"name": "backers",
									"type": "uint256"
								}
							],
							"internalType": "struct Crowdfunding.Tier[]",
							"name": "",
							"type": "tuple[]"
						}
					],
					"stateMutability": "view",
					"type": "function"
				},
				{
					"inputs": [],
					"name": "goal",
					"outputs": [
						{
							"internalType": "uint256",
							"name": "",
							"type": "uint256"
						}
					],
					"stateMutability": "view",
					"type": "function"
				},
				{
					"inputs": [
						{
							"internalType": "address",
							"name": "_backer",
							"type": "address"
						},
						{
							"internalType": "uint256",
							"name": "_tierIndex",
							"type": "uint256"
						}
					],
					"name": "hasFundendTier",
					"outputs": [
						{
							"internalType": "bool",
							"name": "",
							"type": "bool"
						}
					],
					"stateMutability": "view",
					"type": "function"
				},
				{
					"inputs": [],
					"name": "name",
					"outputs": [
						{
							"internalType": "string",
							"name": "",
							"type": "string"
						}
					],
					"stateMutability": "view",
					"type": "function"
				},
				{
					"inputs": [],
					"name": "owner",
					"outputs": [
						{
							"internalType": "address",
							"name": "",
							"type": "address"
						}
					],
					"stateMutability": "view",
					"type": "function"
				},
				{
					"inputs": [],
					"name": "paused",
					"outputs": [
						{
							"internalType": "bool",
							"name": "",
							"type": "bool"
						}
					],
					"stateMutability": "view",
					"type": "function"
				},
				{
					"inputs": [],
					"name": "refund",
					"outputs": [],
					"stateMutability": "nonpayable",
					"type": "function"
				},
				{
					"inputs": [
						{
							"internalType": "uint256",
							"name": "_index",
							"type": "uint256"
						}
					],
					"name": "removeTier",
					"outputs": [],
					"stateMutability": "nonpayable",
					"type": "function"
				},
				{
					"inputs": [],
					"name": "state",
					"outputs": [
						{
							"internalType": "enum Crowdfunding.CampaignState",
							"name": "",
							"type": "uint8"
						}
					],
					"stateMutability": "view",
					"type": "function"
				},
				{
					"inputs": [
						{
							"internalType": "uint256",
							"name": "",
							"type": "uint256"
						}
					],
					"name": "tiers",
					"outputs": [
						{
							"internalType": "string",
							"name": "name",
							"type": "string"
						},
						{
							"internalType": "uint256",
							"name": "amount",
							"type": "uint256"
						},
						{
							"internalType": "uint256",
							"name": "backers",
							"type": "uint256"
						}
					],
					"stateMutability": "view",
					"type": "function"
				},
				{
					"inputs": [],
					"name": "togglePause",
					"outputs": [],
					"stateMutability": "nonpayable",
					"type": "function"
				},
				{
					"inputs": [],
					"name": "withdraw",
					"outputs": [],
					"stateMutability": "nonpayable",
					"type": "function"
				}
			],
			"devdoc": {
				"kind": "dev",
				"methods": {},
				"version": 1
			},
			"evm": {
				"assembly": "    /* \"Crowdfunding/Crowdfunding.sol\":60:4188  contract Crowdfunding{... */\n  mstore(0x40, 0x80)\n    /* \"Crowdfunding/Crowdfunding.sol\":963:1352  constructor(... */\n  callvalue\n  dup1\n  iszero\n  tag_1\n  jumpi\n  0x00\n  dup1\n  revert\ntag_1:\n  pop\n  mload(0x40)\n  sub(codesize, bytecodeSize)\n  dup1\n  bytecodeSize\n  dup4\n  codecopy\n  dup2\n  dup2\n  add\n  0x40\n  mstore\n  dup2\n  add\n  swap1\n  tag_2\n  swap2\n  swap1\n  tag_3\n  jump\t// in\ntag_2:\n    /* \"Crowdfunding/Crowdfunding.sol\":1149:1154  _name */\n  dup4\n    /* \"Crowdfunding/Crowdfunding.sol\":1142:1146  name */\n  0x00\n    /* \"Crowdfunding/Crowdfunding.sol\":1142:1154  name = _name */\n  swap1\n  dup2\n  tag_6\n  swap2\n  swap1\n  tag_7\n  jump\t// in\ntag_6:\n  pop\n    /* \"Crowdfunding/Crowdfunding.sol\":1179:1191  _description */\n  dup3\n    /* \"Crowdfunding/Crowdfunding.sol\":1165:1176  description */\n  0x01\n    /* \"Crowdfunding/Crowdfunding.sol\":1165:1191  description = _description */\n  swap1\n  dup2\n  tag_8\n  swap2\n  swap1\n  tag_7\n  jump\t// in\ntag_8:\n  pop\n    /* \"Crowdfunding/Crowdfunding.sol\":1209:1214  _goal */\n  dup2\n    /* \"Crowdfunding/Crowdfunding.sol\":1202:1206  goal */\n  0x02\n    /* \"Crowdfunding/Crowdfunding.sol\":1202:1214  goal = _goal */\n  dup2\n  swap1\n  sstore\n  pop\n    /* \"Crowdfunding/Crowdfunding.sol\":1273:1279  1 days */\n  0x015180\n    /* \"Crowdfunding/Crowdfunding.sol\":1255:1270  _durationInDays */\n  dup2\n    /* \"Crowdfunding/Crowdfunding.sol\":1255:1279  _durationInDays * 1 days */\n  tag_9\n  swap2\n  swap1\n  tag_10\n  jump\t// in\ntag_9:\n    /* \"Crowdfunding/Crowdfunding.sol\":1236:1251  block.timestamp */\n  timestamp\n    /* \"Crowdfunding/Crowdfunding.sol\":1236:1280  block.timestamp + (_durationInDays * 1 days) */\n  tag_11\n  swap2\n  swap1\n  tag_12\n  jump\t// in\ntag_11:\n    /* \"Crowdfunding/Crowdfunding.sol\":1225:1233  deadline */\n  0x03\n    /* \"Crowdfunding/Crowdfunding.sol\":1225:1280  deadline = block.timestamp + (_durationInDays * 1 days) */\n  dup2\n  swap1\n  sstore\n  pop\n    /* \"Crowdfunding/Crowdfunding.sol\":1299:1305  _owner */\n  dup5\n    /* \"Crowdfunding/Crowdfunding.sol\":1291:1296  owner */\n  0x04\n  0x00\n    /* \"Crowdfunding/Crowdfunding.sol\":1291:1305  owner = _owner */\n  0x0100\n  exp\n  dup2\n  sload\n  dup2\n  0xffffffffffffffffffffffffffffffffffffffff\n  mul\n  not\n  and\n  swap1\n  dup4\n  0xffffffffffffffffffffffffffffffffffffffff\n  and\n  mul\n  or\n  swap1\n  sstore\n  pop\n    /* \"Crowdfunding/Crowdfunding.sol\":1324:1344  CampaignState.Active */\n  0x00\n    /* \"Crowdfunding/Crowdfunding.sol\":1316:1321  state */\n  0x04\n  0x15\n    /* \"Crowdfunding/Crowdfunding.sol\":1316:1344  state = CampaignState.Active */\n  0x0100\n  exp\n  dup2\n  sload\n  dup2\n  0xff\n  mul\n  not\n  and\n  swap1\n  dup4\n  0x02\n  dup2\n  gt\n  iszero\n  tag_13\n  jumpi\n  tag_14\n  tag_15\n  jump\t// in\ntag_14:\ntag_13:\n  mul\n  or\n  swap1\n  sstore\n  pop\n    /* \"Crowdfunding/Crowdfunding.sol\":963:1352  constructor(... */\n  pop\n  pop\n  pop\n  pop\n  pop\n    /* \"Crowdfunding/Crowdfunding.sol\":60:4188  contract Crowdfunding{... */\n  jump(tag_16)\n    /* \"#utility.yul\":7:82   */\ntag_17:\n    /* \"#utility.yul\":40:46   */\n  0x00\n    /* \"#utility.yul\":73:75   */\n  0x40\n    /* \"#utility.yul\":67:76   */\n  mload\n    /* \"#utility.yul\":57:76   */\n  swap1\n  pop\n    /* \"#utility.yul\":7:82   */\n  swap1\n  jump\t// out\n    /* \"#utility.yul\":88:205   */\ntag_18:\n    /* \"#utility.yul\":197:198   */\n  0x00\n    /* \"#utility.yul\":194:195   */\n  dup1\n    /* \"#utility.yul\":187:199   */\n  revert\n    /* \"#utility.yul\":211:328   */\ntag_19:\n    /* \"#utility.yul\":320:321   */\n  0x00\n    /* \"#utility.yul\":317:318   */\n  dup1\n    /* \"#utility.yul\":310:322   */\n  revert\n    /* \"#utility.yul\":334:460   */\ntag_20:\n    /* \"#utility.yul\":371:378   */\n  0x00\n    /* \"#utility.yul\":411:453   */\n  0xffffffffffffffffffffffffffffffffffffffff\n    /* \"#utility.yul\":404:409   */\n  dup3\n    /* \"#utility.yul\":400:454   */\n  and\n    /* \"#utility.yul\":389:454   */\n  swap1\n  pop\n    /* \"#utility.yul\":334:460   */\n  swap2\n  swap1\n  pop\n  jump\t// out\n    /* \"#utility.yul\":466:562   */\ntag_21:\n    /* \"#utility.yul\":503:510   */\n  0x00\n    /* \"#utility.yul\":532:556   */\n  tag_62\n    /* \"#utility.yul\":550:555   */\n  dup3\n    /* \"#utility.yul\":532:556   */\n  tag_20\n  jump\t// in\ntag_62:\n    /* \"#utility.yul\":521:556   */\n  swap1\n  pop\n    /* \"#utility.yul\":466:562   */\n  swap2\n  swap1\n  pop\n  jump\t// out\n    /* \"#utility.yul\":568:690   */\ntag_22:\n    /* \"#utility.yul\":641:665   */\n  tag_64\n    /* \"#utility.yul\":659:664   */\n  dup2\n    /* \"#utility.yul\":641:665   */\n  tag_21\n  jump\t// in\ntag_64:\n    /* \"#utility.yul\":634:639   */\n  dup2\n    /* \"#utility.yul\":631:666   */\n  eq\n    /* \"#utility.yul\":621:684   */\n  tag_65\n  jumpi\n    /* \"#utility.yul\":680:681   */\n  0x00\n    /* \"#utility.yul\":677:678   */\n  dup1\n    /* \"#utility.yul\":670:682   */\n  revert\n    /* \"#utility.yul\":621:684   */\ntag_65:\n    /* \"#utility.yul\":568:690   */\n  pop\n  jump\t// out\n    /* \"#utility.yul\":696:839   */\ntag_23:\n    /* \"#utility.yul\":753:758   */\n  0x00\n    /* \"#utility.yul\":784:790   */\n  dup2\n    /* \"#utility.yul\":778:791   */\n  mload\n    /* \"#utility.yul\":769:791   */\n  swap1\n  pop\n    /* \"#utility.yul\":800:833   */\n  tag_67\n    /* \"#utility.yul\":827:832   */\n  dup2\n    /* \"#utility.yul\":800:833   */\n  tag_22\n  jump\t// in\ntag_67:\n    /* \"#utility.yul\":696:839   */\n  swap3\n  swap2\n  pop\n  pop\n  jump\t// out\n    /* \"#utility.yul\":845:962   */\ntag_24:\n    /* \"#utility.yul\":954:955   */\n  0x00\n    /* \"#utility.yul\":951:952   */\n  dup1\n    /* \"#utility.yul\":944:956   */\n  revert\n    /* \"#utility.yul\":968:1085   */\ntag_25:\n    /* \"#utility.yul\":1077:1078   */\n  0x00\n    /* \"#utility.yul\":1074:1075   */\n  dup1\n    /* \"#utility.yul\":1067:1079   */\n  revert\n    /* \"#utility.yul\":1091:1193   */\ntag_26:\n    /* \"#utility.yul\":1132:1138   */\n  0x00\n    /* \"#utility.yul\":1183:1185   */\n  0x1f\n    /* \"#utility.yul\":1179:1186   */\n  not\n    /* \"#utility.yul\":1174:1176   */\n  0x1f\n    /* \"#utility.yul\":1167:1172   */\n  dup4\n    /* \"#utility.yul\":1163:1177   */\n  add\n    /* \"#utility.yul\":1159:1187   */\n  and\n    /* \"#utility.yul\":1149:1187   */\n  swap1\n  pop\n    /* \"#utility.yul\":1091:1193   */\n  swap2\n  swap1\n  pop\n  jump\t// out\n    /* \"#utility.yul\":1199:1379   */\ntag_27:\n    /* \"#utility.yul\":1247:1324   */\n  0x4e487b7100000000000000000000000000000000000000000000000000000000\n    /* \"#utility.yul\":1244:1245   */\n  0x00\n    /* \"#utility.yul\":1237:1325   */\n  mstore\n    /* \"#utility.yul\":1344:1348   */\n  0x41\n    /* \"#utility.yul\":1341:1342   */\n  0x04\n    /* \"#utility.yul\":1334:1349   */\n  mstore\n    /* \"#utility.yul\":1368:1372   */\n  0x24\n    /* \"#utility.yul\":1365:1366   */\n  0x00\n    /* \"#utility.yul\":1358:1373   */\n  revert\n    /* \"#utility.yul\":1385:1666   */\ntag_28:\n    /* \"#utility.yul\":1468:1495   */\n  tag_73\n    /* \"#utility.yul\":1490:1494   */\n  dup3\n    /* \"#utility.yul\":1468:1495   */\n  tag_26\n  jump\t// in\ntag_73:\n    /* \"#utility.yul\":1460:1466   */\n  dup2\n    /* \"#utility.yul\":1456:1496   */\n  add\n    /* \"#utility.yul\":1598:1604   */\n  dup2\n    /* \"#utility.yul\":1586:1596   */\n  dup2\n    /* \"#utility.yul\":1583:1605   */\n  lt\n    /* \"#utility.yul\":1562:1580   */\n  0xffffffffffffffff\n    /* \"#utility.yul\":1550:1560   */\n  dup3\n    /* \"#utility.yul\":1547:1581   */\n  gt\n    /* \"#utility.yul\":1544:1606   */\n  or\n    /* \"#utility.yul\":1541:1629   */\n  iszero\n  tag_74\n  jumpi\n    /* \"#utility.yul\":1609:1627   */\n  tag_75\n  tag_27\n  jump\t// in\ntag_75:\n    /* \"#utility.yul\":1541:1629   */\ntag_74:\n    /* \"#utility.yul\":1649:1659   */\n  dup1\n    /* \"#utility.yul\":1645:1647   */\n  0x40\n    /* \"#utility.yul\":1638:1660   */\n  mstore\n    /* \"#utility.yul\":1428:1666   */\n  pop\n    /* \"#utility.yul\":1385:1666   */\n  pop\n  pop\n  jump\t// out\n    /* \"#utility.yul\":1672:1801   */\ntag_29:\n    /* \"#utility.yul\":1706:1712   */\n  0x00\n    /* \"#utility.yul\":1733:1753   */\n  tag_77\n  tag_17\n  jump\t// in\ntag_77:\n    /* \"#utility.yul\":1723:1753   */\n  swap1\n  pop\n    /* \"#utility.yul\":1762:1795   */\n  tag_78\n    /* \"#utility.yul\":1790:1794   */\n  dup3\n    /* \"#utility.yul\":1782:1788   */\n  dup3\n    /* \"#utility.yul\":1762:1795   */\n  tag_28\n  jump\t// in\ntag_78:\n    /* \"#utility.yul\":1672:1801   */\n  swap2\n  swap1\n  pop\n  jump\t// out\n    /* \"#utility.yul\":1807:2115   */\ntag_30:\n    /* \"#utility.yul\":1869:1873   */\n  0x00\n    /* \"#utility.yul\":1959:1977   */\n  0xffffffffffffffff\n    /* \"#utility.yul\":1951:1957   */\n  dup3\n    /* \"#utility.yul\":1948:1978   */\n  gt\n    /* \"#utility.yul\":1945:2001   */\n  iszero\n  tag_80\n  jumpi\n    /* \"#utility.yul\":1981:1999   */\n  tag_81\n  tag_27\n  jump\t// in\ntag_81:\n    /* \"#utility.yul\":1945:2001   */\ntag_80:\n    /* \"#utility.yul\":2019:2048   */\n  tag_82\n    /* \"#utility.yul\":2041:2047   */\n  dup3\n    /* \"#utility.yul\":2019:2048   */\n  tag_26\n  jump\t// in\ntag_82:\n    /* \"#utility.yul\":2011:2048   */\n  swap1\n  pop\n    /* \"#utility.yul\":2103:2107   */\n  0x20\n    /* \"#utility.yul\":2097:2101   */\n  dup2\n    /* \"#utility.yul\":2093:2108   */\n  add\n    /* \"#utility.yul\":2085:2108   */\n  swap1\n  pop\n    /* \"#utility.yul\":1807:2115   */\n  swap2\n  swap1\n  pop\n  jump\t// out\n    /* \"#utility.yul\":2121:2260   */\ntag_31:\n    /* \"#utility.yul\":2210:2216   */\n  dup3\n    /* \"#utility.yul\":2205:2208   */\n  dup2\n    /* \"#utility.yul\":2200:2203   */\n  dup4\n    /* \"#utility.yul\":2194:2217   */\n  mcopy\n    /* \"#utility.yul\":2251:2252   */\n  0x00\n    /* \"#utility.yul\":2242:2248   */\n  dup4\n    /* \"#utility.yul\":2237:2240   */\n  dup4\n    /* \"#utility.yul\":2233:2249   */\n  add\n    /* \"#utility.yul\":2226:2253   */\n  mstore\n    /* \"#utility.yul\":2121:2260   */\n  pop\n  pop\n  pop\n  jump\t// out\n    /* \"#utility.yul\":2266:2700   */\ntag_32:\n    /* \"#utility.yul\":2355:2360   */\n  0x00\n    /* \"#utility.yul\":2380:2446   */\n  tag_85\n    /* \"#utility.yul\":2396:2445   */\n  tag_86\n    /* \"#utility.yul\":2438:2444   */\n  dup5\n    /* \"#utility.yul\":2396:2445   */\n  tag_30\n  jump\t// in\ntag_86:\n    /* \"#utility.yul\":2380:2446   */\n  tag_29\n  jump\t// in\ntag_85:\n    /* \"#utility.yul\":2371:2446   */\n  swap1\n  pop\n    /* \"#utility.yul\":2469:2475   */\n  dup3\n    /* \"#utility.yul\":2462:2467   */\n  dup2\n    /* \"#utility.yul\":2455:2476   */\n  mstore\n    /* \"#utility.yul\":2507:2511   */\n  0x20\n    /* \"#utility.yul\":2500:2505   */\n  dup2\n    /* \"#utility.yul\":2496:2512   */\n  add\n    /* \"#utility.yul\":2545:2548   */\n  dup5\n    /* \"#utility.yul\":2536:2542   */\n  dup5\n    /* \"#utility.yul\":2531:2534   */\n  dup5\n    /* \"#utility.yul\":2527:2543   */\n  add\n    /* \"#utility.yul\":2524:2549   */\n  gt\n    /* \"#utility.yul\":2521:2633   */\n  iszero\n  tag_87\n  jumpi\n    /* \"#utility.yul\":2552:2631   */\n  tag_88\n  tag_25\n  jump\t// in\ntag_88:\n    /* \"#utility.yul\":2521:2633   */\ntag_87:\n    /* \"#utility.yul\":2642:2694   */\n  tag_89\n    /* \"#utility.yul\":2687:2693   */\n  dup5\n    /* \"#utility.yul\":2682:2685   */\n  dup3\n    /* \"#utility.yul\":2677:2680   */\n  dup6\n    /* \"#utility.yul\":2642:2694   */\n  tag_31\n  jump\t// in\ntag_89:\n    /* \"#utility.yul\":2361:2700   */\n  pop\n    /* \"#utility.yul\":2266:2700   */\n  swap4\n  swap3\n  pop\n  pop\n  pop\n  jump\t// out\n    /* \"#utility.yul\":2720:3075   */\ntag_33:\n    /* \"#utility.yul\":2787:2792   */\n  0x00\n    /* \"#utility.yul\":2836:2839   */\n  dup3\n    /* \"#utility.yul\":2829:2833   */\n  0x1f\n    /* \"#utility.yul\":2821:2827   */\n  dup4\n    /* \"#utility.yul\":2817:2834   */\n  add\n    /* \"#utility.yul\":2813:2840   */\n  slt\n    /* \"#utility.yul\":2803:2925   */\n  tag_91\n  jumpi\n    /* \"#utility.yul\":2844:2923   */\n  tag_92\n  tag_24\n  jump\t// in\ntag_92:\n    /* \"#utility.yul\":2803:2925   */\ntag_91:\n    /* \"#utility.yul\":2954:2960   */\n  dup2\n    /* \"#utility.yul\":2948:2961   */\n  mload\n    /* \"#utility.yul\":2979:3069   */\n  tag_93\n    /* \"#utility.yul\":3065:3068   */\n  dup5\n    /* \"#utility.yul\":3057:3063   */\n  dup3\n    /* \"#utility.yul\":3050:3054   */\n  0x20\n    /* \"#utility.yul\":3042:3048   */\n  dup7\n    /* \"#utility.yul\":3038:3055   */\n  add\n    /* \"#utility.yul\":2979:3069   */\n  tag_32\n  jump\t// in\ntag_93:\n    /* \"#utility.yul\":2970:3069   */\n  swap2\n  pop\n    /* \"#utility.yul\":2793:3075   */\n  pop\n    /* \"#utility.yul\":2720:3075   */\n  swap3\n  swap2\n  pop\n  pop\n  jump\t// out\n    /* \"#utility.yul\":3081:3158   */\ntag_34:\n    /* \"#utility.yul\":3118:3125   */\n  0x00\n    /* \"#utility.yul\":3147:3152   */\n  dup2\n    /* \"#utility.yul\":3136:3152   */\n  swap1\n  pop\n    /* \"#utility.yul\":3081:3158   */\n  swap2\n  swap1\n  pop\n  jump\t// out\n    /* \"#utility.yul\":3164:3286   */\ntag_35:\n    /* \"#utility.yul\":3237:3261   */\n  tag_96\n    /* \"#utility.yul\":3255:3260   */\n  dup2\n    /* \"#utility.yul\":3237:3261   */\n  tag_34\n  jump\t// in\ntag_96:\n    /* \"#utility.yul\":3230:3235   */\n  dup2\n    /* \"#utility.yul\":3227:3262   */\n  eq\n    /* \"#utility.yul\":3217:3280   */\n  tag_97\n  jumpi\n    /* \"#utility.yul\":3276:3277   */\n  0x00\n    /* \"#utility.yul\":3273:3274   */\n  dup1\n    /* \"#utility.yul\":3266:3278   */\n  revert\n    /* \"#utility.yul\":3217:3280   */\ntag_97:\n    /* \"#utility.yul\":3164:3286   */\n  pop\n  jump\t// out\n    /* \"#utility.yul\":3292:3435   */\ntag_36:\n    /* \"#utility.yul\":3349:3354   */\n  0x00\n    /* \"#utility.yul\":3380:3386   */\n  dup2\n    /* \"#utility.yul\":3374:3387   */\n  mload\n    /* \"#utility.yul\":3365:3387   */\n  swap1\n  pop\n    /* \"#utility.yul\":3396:3429   */\n  tag_99\n    /* \"#utility.yul\":3423:3428   */\n  dup2\n    /* \"#utility.yul\":3396:3429   */\n  tag_35\n  jump\t// in\ntag_99:\n    /* \"#utility.yul\":3292:3435   */\n  swap3\n  swap2\n  pop\n  pop\n  jump\t// out\n    /* \"#utility.yul\":3441:4764   */\ntag_3:\n    /* \"#utility.yul\":3567:3573   */\n  0x00\n    /* \"#utility.yul\":3575:3581   */\n  dup1\n    /* \"#utility.yul\":3583:3589   */\n  0x00\n    /* \"#utility.yul\":3591:3597   */\n  dup1\n    /* \"#utility.yul\":3599:3605   */\n  0x00\n    /* \"#utility.yul\":3648:3651   */\n  0xa0\n    /* \"#utility.yul\":3636:3645   */\n  dup7\n    /* \"#utility.yul\":3627:3634   */\n  dup9\n    /* \"#utility.yul\":3623:3646   */\n  sub\n    /* \"#utility.yul\":3619:3652   */\n  slt\n    /* \"#utility.yul\":3616:3736   */\n  iszero\n  tag_101\n  jumpi\n    /* \"#utility.yul\":3655:3734   */\n  tag_102\n  tag_18\n  jump\t// in\ntag_102:\n    /* \"#utility.yul\":3616:3736   */\ntag_101:\n    /* \"#utility.yul\":3775:3776   */\n  0x00\n    /* \"#utility.yul\":3800:3864   */\n  tag_103\n    /* \"#utility.yul\":3856:3863   */\n  dup9\n    /* \"#utility.yul\":3847:3853   */\n  dup3\n    /* \"#utility.yul\":3836:3845   */\n  dup10\n    /* \"#utility.yul\":3832:3854   */\n  add\n    /* \"#utility.yul\":3800:3864   */\n  tag_23\n  jump\t// in\ntag_103:\n    /* \"#utility.yul\":3790:3864   */\n  swap6\n  pop\n    /* \"#utility.yul\":3746:3874   */\n  pop\n    /* \"#utility.yul\":3934:3936   */\n  0x20\n    /* \"#utility.yul\":3923:3932   */\n  dup7\n    /* \"#utility.yul\":3919:3937   */\n  add\n    /* \"#utility.yul\":3913:3938   */\n  mload\n    /* \"#utility.yul\":3965:3983   */\n  0xffffffffffffffff\n    /* \"#utility.yul\":3957:3963   */\n  dup2\n    /* \"#utility.yul\":3954:3984   */\n  gt\n    /* \"#utility.yul\":3951:4068   */\n  iszero\n  tag_104\n  jumpi\n    /* \"#utility.yul\":3987:4066   */\n  tag_105\n  tag_19\n  jump\t// in\ntag_105:\n    /* \"#utility.yul\":3951:4068   */\ntag_104:\n    /* \"#utility.yul\":4092:4166   */\n  tag_106\n    /* \"#utility.yul\":4158:4165   */\n  dup9\n    /* \"#utility.yul\":4149:4155   */\n  dup3\n    /* \"#utility.yul\":4138:4147   */\n  dup10\n    /* \"#utility.yul\":4134:4156   */\n  add\n    /* \"#utility.yul\":4092:4166   */\n  tag_33\n  jump\t// in\ntag_106:\n    /* \"#utility.yul\":4082:4166   */\n  swap5\n  pop\n    /* \"#utility.yul\":3884:4176   */\n  pop\n    /* \"#utility.yul\":4236:4238   */\n  0x40\n    /* \"#utility.yul\":4225:4234   */\n  dup7\n    /* \"#utility.yul\":4221:4239   */\n  add\n    /* \"#utility.yul\":4215:4240   */\n  mload\n    /* \"#utility.yul\":4267:4285   */\n  0xffffffffffffffff\n    /* \"#utility.yul\":4259:4265   */\n  dup2\n    /* \"#utility.yul\":4256:4286   */\n  gt\n    /* \"#utility.yul\":4253:4370   */\n  iszero\n  tag_107\n  jumpi\n    /* \"#utility.yul\":4289:4368   */\n  tag_108\n  tag_19\n  jump\t// in\ntag_108:\n    /* \"#utility.yul\":4253:4370   */\ntag_107:\n    /* \"#utility.yul\":4394:4468   */\n  tag_109\n    /* \"#utility.yul\":4460:4467   */\n  dup9\n    /* \"#utility.yul\":4451:4457   */\n  dup3\n    /* \"#utility.yul\":4440:4449   */\n  dup10\n    /* \"#utility.yul\":4436:4458   */\n  add\n    /* \"#utility.yul\":4394:4468   */\n  tag_33\n  jump\t// in\ntag_109:\n    /* \"#utility.yul\":4384:4468   */\n  swap4\n  pop\n    /* \"#utility.yul\":4186:4478   */\n  pop\n    /* \"#utility.yul\":4517:4519   */\n  0x60\n    /* \"#utility.yul\":4543:4607   */\n  tag_110\n    /* \"#utility.yul\":4599:4606   */\n  dup9\n    /* \"#utility.yul\":4590:4596   */\n  dup3\n    /* \"#utility.yul\":4579:4588   */\n  dup10\n    /* \"#utility.yul\":4575:4597   */\n  add\n    /* \"#utility.yul\":4543:4607   */\n  tag_36\n  jump\t// in\ntag_110:\n    /* \"#utility.yul\":4533:4607   */\n  swap3\n  pop\n    /* \"#utility.yul\":4488:4617   */\n  pop\n    /* \"#utility.yul\":4656:4659   */\n  0x80\n    /* \"#utility.yul\":4683:4747   */\n  tag_111\n    /* \"#utility.yul\":4739:4746   */\n  dup9\n    /* \"#utility.yul\":4730:4736   */\n  dup3\n    /* \"#utility.yul\":4719:4728   */\n  dup10\n    /* \"#utility.yul\":4715:4737   */\n  add\n    /* \"#utility.yul\":4683:4747   */\n  tag_36\n  jump\t// in\ntag_111:\n    /* \"#utility.yul\":4673:4747   */\n  swap2\n  pop\n    /* \"#utility.yul\":4627:4757   */\n  pop\n    /* \"#utility.yul\":3441:4764   */\n  swap3\n  swap6\n  pop\n  swap3\n  swap6\n  swap1\n  swap4\n  pop\n  jump\t// out\n    /* \"#utility.yul\":4770:4869   */\ntag_37:\n    /* \"#utility.yul\":4822:4828   */\n  0x00\n    /* \"#utility.yul\":4856:4861   */\n  dup2\n    /* \"#utility.yul\":4850:4862   */\n  mload\n    /* \"#utility.yul\":4840:4862   */\n  swap1\n  pop\n    /* \"#utility.yul\":4770:4869   */\n  swap2\n  swap1\n  pop\n  jump\t// out\n    /* \"#utility.yul\":4875:5055   */\ntag_38:\n    /* \"#utility.yul\":4923:5000   */\n  0x4e487b7100000000000000000000000000000000000000000000000000000000\n    /* \"#utility.yul\":4920:4921   */\n  0x00\n    /* \"#utility.yul\":4913:5001   */\n  mstore\n    /* \"#utility.yul\":5020:5024   */\n  0x22\n    /* \"#utility.yul\":5017:5018   */\n  0x04\n    /* \"#utility.yul\":5010:5025   */\n  mstore\n    /* \"#utility.yul\":5044:5048   */\n  0x24\n    /* \"#utility.yul\":5041:5042   */\n  0x00\n    /* \"#utility.yul\":5034:5049   */\n  revert\n    /* \"#utility.yul\":5061:5381   */\ntag_39:\n    /* \"#utility.yul\":5105:5111   */\n  0x00\n    /* \"#utility.yul\":5142:5143   */\n  0x02\n    /* \"#utility.yul\":5136:5140   */\n  dup3\n    /* \"#utility.yul\":5132:5144   */\n  div\n    /* \"#utility.yul\":5122:5144   */\n  swap1\n  pop\n    /* \"#utility.yul\":5189:5190   */\n  0x01\n    /* \"#utility.yul\":5183:5187   */\n  dup3\n    /* \"#utility.yul\":5179:5191   */\n  and\n    /* \"#utility.yul\":5210:5228   */\n  dup1\n    /* \"#utility.yul\":5200:5281   */\n  tag_115\n  jumpi\n    /* \"#utility.yul\":5266:5270   */\n  0x7f\n    /* \"#utility.yul\":5258:5264   */\n  dup3\n    /* \"#utility.yul\":5254:5271   */\n  and\n    /* \"#utility.yul\":5244:5271   */\n  swap2\n  pop\n    /* \"#utility.yul\":5200:5281   */\ntag_115:\n    /* \"#utility.yul\":5328:5330   */\n  0x20\n    /* \"#utility.yul\":5320:5326   */\n  dup3\n    /* \"#utility.yul\":5317:5331   */\n  lt\n    /* \"#utility.yul\":5297:5315   */\n  dup2\n    /* \"#utility.yul\":5294:5332   */\n  sub\n    /* \"#utility.yul\":5291:5375   */\n  tag_116\n  jumpi\n    /* \"#utility.yul\":5347:5365   */\n  tag_117\n  tag_38\n  jump\t// in\ntag_117:\n    /* \"#utility.yul\":5291:5375   */\ntag_116:\n    /* \"#utility.yul\":5112:5381   */\n  pop\n    /* \"#utility.yul\":5061:5381   */\n  swap2\n  swap1\n  pop\n  jump\t// out\n    /* \"#utility.yul\":5387:5528   */\ntag_40:\n    /* \"#utility.yul\":5436:5440   */\n  0x00\n    /* \"#utility.yul\":5459:5462   */\n  dup2\n    /* \"#utility.yul\":5451:5462   */\n  swap1\n  pop\n    /* \"#utility.yul\":5482:5485   */\n  dup2\n    /* \"#utility.yul\":5479:5480   */\n  0x00\n    /* \"#utility.yul\":5472:5486   */\n  mstore\n    /* \"#utility.yul\":5516:5520   */\n  0x20\n    /* \"#utility.yul\":5513:5514   */\n  0x00\n    /* \"#utility.yul\":5503:5521   */\n  keccak256\n    /* \"#utility.yul\":5495:5521   */\n  swap1\n  pop\n    /* \"#utility.yul\":5387:5528   */\n  swap2\n  swap1\n  pop\n  jump\t// out\n    /* \"#utility.yul\":5534:5627   */\ntag_41:\n    /* \"#utility.yul\":5571:5577   */\n  0x00\n    /* \"#utility.yul\":5618:5620   */\n  0x20\n    /* \"#utility.yul\":5613:5615   */\n  0x1f\n    /* \"#utility.yul\":5606:5611   */\n  dup4\n    /* \"#utility.yul\":5602:5616   */\n  add\n    /* \"#utility.yul\":5598:5621   */\n  div\n    /* \"#utility.yul\":5588:5621   */\n  swap1\n  pop\n    /* \"#utility.yul\":5534:5627   */\n  swap2\n  swap1\n  pop\n  jump\t// out\n    /* \"#utility.yul\":5633:5740   */\ntag_42:\n    /* \"#utility.yul\":5677:5685   */\n  0x00\n    /* \"#utility.yul\":5727:5732   */\n  dup3\n    /* \"#utility.yul\":5721:5725   */\n  dup3\n    /* \"#utility.yul\":5717:5733   */\n  shl\n    /* \"#utility.yul\":5696:5733   */\n  swap1\n  pop\n    /* \"#utility.yul\":5633:5740   */\n  swap3\n  swap2\n  pop\n  pop\n  jump\t// out\n    /* \"#utility.yul\":5746:6139   */\ntag_43:\n    /* \"#utility.yul\":5815:5821   */\n  0x00\n    /* \"#utility.yul\":5865:5866   */\n  0x08\n    /* \"#utility.yul\":5853:5863   */\n  dup4\n    /* \"#utility.yul\":5849:5867   */\n  mul\n    /* \"#utility.yul\":5888:5985   */\n  tag_122\n    /* \"#utility.yul\":5918:5984   */\n  0xffffffffffffffffffffffffffffffffffffffffffffffffffffffffffffffff\n    /* \"#utility.yul\":5907:5916   */\n  dup3\n    /* \"#utility.yul\":5888:5985   */\n  tag_42\n  jump\t// in\ntag_122:\n    /* \"#utility.yul\":6006:6045   */\n  tag_123\n    /* \"#utility.yul\":6036:6044   */\n  dup7\n    /* \"#utility.yul\":6025:6034   */\n  dup4\n    /* \"#utility.yul\":6006:6045   */\n  tag_42\n  jump\t// in\ntag_123:\n    /* \"#utility.yul\":5994:6045   */\n  swap6\n  pop\n    /* \"#utility.yul\":6078:6082   */\n  dup1\n    /* \"#utility.yul\":6074:6083   */\n  not\n    /* \"#utility.yul\":6067:6072   */\n  dup5\n    /* \"#utility.yul\":6063:6084   */\n  and\n    /* \"#utility.yul\":6054:6084   */\n  swap4\n  pop\n    /* \"#utility.yul\":6127:6131   */\n  dup1\n    /* \"#utility.yul\":6117:6125   */\n  dup7\n    /* \"#utility.yul\":6113:6132   */\n  and\n    /* \"#utility.yul\":6106:6111   */\n  dup5\n    /* \"#utility.yul\":6103:6133   */\n  or\n    /* \"#utility.yul\":6093:6133   */\n  swap3\n  pop\n    /* \"#utility.yul\":5822:6139   */\n  pop\n  pop\n    /* \"#utility.yul\":5746:6139   */\n  swap4\n  swap3\n  pop\n  pop\n  pop\n  jump\t// out\n    /* \"#utility.yul\":6145:6205   */\ntag_44:\n    /* \"#utility.yul\":6173:6176   */\n  0x00\n    /* \"#utility.yul\":6194:6199   */\n  dup2\n    /* \"#utility.yul\":6187:6199   */\n  swap1\n  pop\n    /* \"#utility.yul\":6145:6205   */\n  swap2\n  swap1\n  pop\n  jump\t// out\n    /* \"#utility.yul\":6211:6353   */\ntag_45:\n    /* \"#utility.yul\":6261:6270   */\n  0x00\n    /* \"#utility.yul\":6294:6347   */\n  tag_126\n    /* \"#utility.yul\":6312:6346   */\n  tag_127\n    /* \"#utility.yul\":6321:6345   */\n  tag_128\n    /* \"#utility.yul\":6339:6344   */\n  dup5\n    /* \"#utility.yul\":6321:6345   */\n  tag_34\n  jump\t// in\ntag_128:\n    /* \"#utility.yul\":6312:6346   */\n  tag_44\n  jump\t// in\ntag_127:\n    /* \"#utility.yul\":6294:6347   */\n  tag_34\n  jump\t// in\ntag_126:\n    /* \"#utility.yul\":6281:6347   */\n  swap1\n  pop\n    /* \"#utility.yul\":6211:6353   */\n  swap2\n  swap1\n  pop\n  jump\t// out\n    /* \"#utility.yul\":6359:6434   */\ntag_46:\n    /* \"#utility.yul\":6402:6405   */\n  0x00\n    /* \"#utility.yul\":6423:6428   */\n  dup2\n    /* \"#utility.yul\":6416:6428   */\n  swap1\n  pop\n    /* \"#utility.yul\":6359:6434   */\n  swap2\n  swap1\n  pop\n  jump\t// out\n    /* \"#utility.yul\":6440:6709   */\ntag_47:\n    /* \"#utility.yul\":6550:6589   */\n  tag_131\n    /* \"#utility.yul\":6581:6588   */\n  dup4\n    /* \"#utility.yul\":6550:6589   */\n  tag_45\n  jump\t// in\ntag_131:\n    /* \"#utility.yul\":6611:6702   */\n  tag_132\n    /* \"#utility.yul\":6660:6701   */\n  tag_133\n    /* \"#utility.yul\":6684:6700   */\n  dup3\n    /* \"#utility.yul\":6660:6701   */\n  tag_46\n  jump\t// in\ntag_133:\n    /* \"#utility.yul\":6652:6658   */\n  dup5\n    /* \"#utility.yul\":6645:6649   */\n  dup5\n    /* \"#utility.yul\":6639:6650   */\n  sload\n    /* \"#utility.yul\":6611:6702   */\n  tag_43\n  jump\t// in\ntag_132:\n    /* \"#utility.yul\":6605:6609   */\n  dup3\n    /* \"#utility.yul\":6598:6703   */\n  sstore\n    /* \"#utility.yul\":6516:6709   */\n  pop\n    /* \"#utility.yul\":6440:6709   */\n  pop\n  pop\n  pop\n  jump\t// out\n    /* \"#utility.yul\":6715:6788   */\ntag_48:\n    /* \"#utility.yul\":6760:6763   */\n  0x00\n    /* \"#utility.yul\":6715:6788   */\n  swap1\n  jump\t// out\n    /* \"#utility.yul\":6794:6983   */\ntag_49:\n    /* \"#utility.yul\":6871:6903   */\n  tag_136\n  tag_48\n  jump\t// in\ntag_136:\n    /* \"#utility.yul\":6912:6977   */\n  tag_137\n    /* \"#utility.yul\":6970:6976   */\n  dup2\n    /* \"#utility.yul\":6962:6968   */\n  dup5\n    /* \"#utility.yul\":6956:6960   */\n  dup5\n    /* \"#utility.yul\":6912:6977   */\n  tag_47\n  jump\t// in\ntag_137:\n    /* \"#utility.yul\":6847:6983   */\n  pop\n    /* \"#utility.yul\":6794:6983   */\n  pop\n  pop\n  jump\t// out\n    /* \"#utility.yul\":6989:7175   */\ntag_50:\n    /* \"#utility.yul\":7049:7169   */\ntag_139:\n    /* \"#utility.yul\":7066:7069   */\n  dup2\n    /* \"#utility.yul\":7059:7064   */\n  dup2\n    /* \"#utility.yul\":7056:7070   */\n  lt\n    /* \"#utility.yul\":7049:7169   */\n  iszero\n  tag_141\n  jumpi\n    /* \"#utility.yul\":7120:7159   */\n  tag_142\n    /* \"#utility.yul\":7157:7158   */\n  0x00\n    /* \"#utility.yul\":7150:7155   */\n  dup3\n    /* \"#utility.yul\":7120:7159   */\n  tag_49\n  jump\t// in\ntag_142:\n    /* \"#utility.yul\":7093:7094   */\n  0x01\n    /* \"#utility.yul\":7086:7091   */\n  dup2\n    /* \"#utility.yul\":7082:7095   */\n  add\n    /* \"#utility.yul\":7073:7095   */\n  swap1\n  pop\n    /* \"#utility.yul\":7049:7169   */\n  jump(tag_139)\ntag_141:\n    /* \"#utility.yul\":6989:7175   */\n  pop\n  pop\n  jump\t// out\n    /* \"#utility.yul\":7181:7724   */\ntag_51:\n    /* \"#utility.yul\":7282:7284   */\n  0x1f\n    /* \"#utility.yul\":7277:7280   */\n  dup3\n    /* \"#utility.yul\":7274:7285   */\n  gt\n    /* \"#utility.yul\":7271:7717   */\n  iszero\n  tag_144\n  jumpi\n    /* \"#utility.yul\":7316:7354   */\n  tag_145\n    /* \"#utility.yul\":7348:7353   */\n  dup2\n    /* \"#utility.yul\":7316:7354   */\n  tag_40\n  jump\t// in\ntag_145:\n    /* \"#utility.yul\":7400:7429   */\n  tag_146\n    /* \"#utility.yul\":7418:7428   */\n  dup5\n    /* \"#utility.yul\":7400:7429   */\n  tag_41\n  jump\t// in\ntag_146:\n    /* \"#utility.yul\":7390:7398   */\n  dup2\n    /* \"#utility.yul\":7386:7430   */\n  add\n    /* \"#utility.yul\":7583:7585   */\n  0x20\n    /* \"#utility.yul\":7571:7581   */\n  dup6\n    /* \"#utility.yul\":7568:7586   */\n  lt\n    /* \"#utility.yul\":7565:7614   */\n  iszero\n  tag_147\n  jumpi\n    /* \"#utility.yul\":7604:7612   */\n  dup2\n    /* \"#utility.yul\":7589:7612   */\n  swap1\n  pop\n    /* \"#utility.yul\":7565:7614   */\ntag_147:\n    /* \"#utility.yul\":7627:7707   */\n  tag_148\n    /* \"#utility.yul\":7683:7705   */\n  tag_149\n    /* \"#utility.yul\":7701:7704   */\n  dup6\n    /* \"#utility.yul\":7683:7705   */\n  tag_41\n  jump\t// in\ntag_149:\n    /* \"#utility.yul\":7673:7681   */\n  dup4\n    /* \"#utility.yul\":7669:7706   */\n  add\n    /* \"#utility.yul\":7656:7667   */\n  dup3\n    /* \"#utility.yul\":7627:7707   */\n  tag_50\n  jump\t// in\ntag_148:\n    /* \"#utility.yul\":7286:7717   */\n  pop\n  pop\n    /* \"#utility.yul\":7271:7717   */\ntag_144:\n    /* \"#utility.yul\":7181:7724   */\n  pop\n  pop\n  pop\n  jump\t// out\n    /* \"#utility.yul\":7730:7847   */\ntag_52:\n    /* \"#utility.yul\":7784:7792   */\n  0x00\n    /* \"#utility.yul\":7834:7839   */\n  dup3\n    /* \"#utility.yul\":7828:7832   */\n  dup3\n    /* \"#utility.yul\":7824:7840   */\n  shr\n    /* \"#utility.yul\":7803:7840   */\n  swap1\n  pop\n    /* \"#utility.yul\":7730:7847   */\n  swap3\n  swap2\n  pop\n  pop\n  jump\t// out\n    /* \"#utility.yul\":7853:8022   */\ntag_53:\n    /* \"#utility.yul\":7897:7903   */\n  0x00\n    /* \"#utility.yul\":7930:7981   */\n  tag_152\n    /* \"#utility.yul\":7978:7979   */\n  0x00\n    /* \"#utility.yul\":7974:7980   */\n  not\n    /* \"#utility.yul\":7966:7971   */\n  dup5\n    /* \"#utility.yul\":7963:7964   */\n  0x08\n    /* \"#utility.yul\":7959:7972   */\n  mul\n    /* \"#utility.yul\":7930:7981   */\n  tag_52\n  jump\t// in\ntag_152:\n    /* \"#utility.yul\":7926:7982   */\n  not\n    /* \"#utility.yul\":8011:8015   */\n  dup1\n    /* \"#utility.yul\":8005:8009   */\n  dup4\n    /* \"#utility.yul\":8001:8016   */\n  and\n    /* \"#utility.yul\":7991:8016   */\n  swap2\n  pop\n    /* \"#utility.yul\":7904:8022   */\n  pop\n    /* \"#utility.yul\":7853:8022   */\n  swap3\n  swap2\n  pop\n  pop\n  jump\t// out\n    /* \"#utility.yul\":8027:8322   */\ntag_54:\n    /* \"#utility.yul\":8103:8107   */\n  0x00\n    /* \"#utility.yul\":8249:8278   */\n  tag_154\n    /* \"#utility.yul\":8274:8277   */\n  dup4\n    /* \"#utility.yul\":8268:8272   */\n  dup4\n    /* \"#utility.yul\":8249:8278   */\n  tag_53\n  jump\t// in\ntag_154:\n    /* \"#utility.yul\":8241:8278   */\n  swap2\n  pop\n    /* \"#utility.yul\":8311:8314   */\n  dup3\n    /* \"#utility.yul\":8308:8309   */\n  0x02\n    /* \"#utility.yul\":8304:8315   */\n  mul\n    /* \"#utility.yul\":8298:8302   */\n  dup3\n    /* \"#utility.yul\":8295:8316   */\n  or\n    /* \"#utility.yul\":8287:8316   */\n  swap1\n  pop\n    /* \"#utility.yul\":8027:8322   */\n  swap3\n  swap2\n  pop\n  pop\n  jump\t// out\n    /* \"#utility.yul\":8327:9722   */\ntag_7:\n    /* \"#utility.yul\":8444:8481   */\n  tag_156\n    /* \"#utility.yul\":8477:8480   */\n  dup3\n    /* \"#utility.yul\":8444:8481   */\n  tag_37\n  jump\t// in\ntag_156:\n    /* \"#utility.yul\":8546:8564   */\n  0xffffffffffffffff\n    /* \"#utility.yul\":8538:8544   */\n  dup2\n    /* \"#utility.yul\":8535:8565   */\n  gt\n    /* \"#utility.yul\":8532:8588   */\n  iszero\n  tag_157\n  jumpi\n    /* \"#utility.yul\":8568:8586   */\n  tag_158\n  tag_27\n  jump\t// in\ntag_158:\n    /* \"#utility.yul\":8532:8588   */\ntag_157:\n    /* \"#utility.yul\":8612:8650   */\n  tag_159\n    /* \"#utility.yul\":8644:8648   */\n  dup3\n    /* \"#utility.yul\":8638:8649   */\n  sload\n    /* \"#utility.yul\":8612:8650   */\n  tag_39\n  jump\t// in\ntag_159:\n    /* \"#utility.yul\":8697:8764   */\n  tag_160\n    /* \"#utility.yul\":8757:8763   */\n  dup3\n    /* \"#utility.yul\":8749:8755   */\n  dup3\n    /* \"#utility.yul\":8743:8747   */\n  dup6\n    /* \"#utility.yul\":8697:8764   */\n  tag_51\n  jump\t// in\ntag_160:\n    /* \"#utility.yul\":8791:8792   */\n  0x00\n    /* \"#utility.yul\":8815:8819   */\n  0x20\n    /* \"#utility.yul\":8802:8819   */\n  swap1\n  pop\n    /* \"#utility.yul\":8847:8849   */\n  0x1f\n    /* \"#utility.yul\":8839:8845   */\n  dup4\n    /* \"#utility.yul\":8836:8850   */\n  gt\n    /* \"#utility.yul\":8864:8865   */\n  0x01\n    /* \"#utility.yul\":8859:9477   */\n  dup2\n  eq\n  tag_162\n  jumpi\n    /* \"#utility.yul\":9521:9522   */\n  0x00\n    /* \"#utility.yul\":9538:9544   */\n  dup5\n    /* \"#utility.yul\":9535:9612   */\n  iszero\n  tag_163\n  jumpi\n    /* \"#utility.yul\":9587:9596   */\n  dup3\n    /* \"#utility.yul\":9582:9585   */\n  dup8\n    /* \"#utility.yul\":9578:9597   */\n  add\n    /* \"#utility.yul\":9572:9598   */\n  mload\n    /* \"#utility.yul\":9563:9598   */\n  swap1\n  pop\n    /* \"#utility.yul\":9535:9612   */\ntag_163:\n    /* \"#utility.yul\":9638:9705   */\n  tag_164\n    /* \"#utility.yul\":9698:9704   */\n  dup6\n    /* \"#utility.yul\":9691:9696   */\n  dup3\n    /* \"#utility.yul\":9638:9705   */\n  tag_54\n  jump\t// in\ntag_164:\n    /* \"#utility.yul\":9632:9636   */\n  dup7\n    /* \"#utility.yul\":9625:9706   */\n  sstore\n    /* \"#utility.yul\":9494:9716   */\n  pop\n    /* \"#utility.yul\":8829:9716   */\n  jump(tag_161)\n    /* \"#utility.yul\":8859:9477   */\ntag_162:\n    /* \"#utility.yul\":8911:8915   */\n  0x1f\n    /* \"#utility.yul\":8907:8916   */\n  not\n    /* \"#utility.yul\":8899:8905   */\n  dup5\n    /* \"#utility.yul\":8895:8917   */\n  and\n    /* \"#utility.yul\":8945:8982   */\n  tag_165\n    /* \"#utility.yul\":8977:8981   */\n  dup7\n    /* \"#utility.yul\":8945:8982   */\n  tag_40\n  jump\t// in\ntag_165:\n    /* \"#utility.yul\":9004:9005   */\n  0x00\n    /* \"#utility.yul\":9018:9226   */\ntag_166:\n    /* \"#utility.yul\":9032:9039   */\n  dup3\n    /* \"#utility.yul\":9029:9030   */\n  dup2\n    /* \"#utility.yul\":9026:9040   */\n  lt\n    /* \"#utility.yul\":9018:9226   */\n  iszero\n  tag_168\n  jumpi\n    /* \"#utility.yul\":9111:9120   */\n  dup5\n    /* \"#utility.yul\":9106:9109   */\n  dup10\n    /* \"#utility.yul\":9102:9121   */\n  add\n    /* \"#utility.yul\":9096:9122   */\n  mload\n    /* \"#utility.yul\":9088:9094   */\n  dup3\n    /* \"#utility.yul\":9081:9123   */\n  sstore\n    /* \"#utility.yul\":9162:9163   */\n  0x01\n    /* \"#utility.yul\":9154:9160   */\n  dup3\n    /* \"#utility.yul\":9150:9164   */\n  add\n    /* \"#utility.yul\":9140:9164   */\n  swap2\n  pop\n    /* \"#utility.yul\":9209:9211   */\n  0x20\n    /* \"#utility.yul\":9198:9207   */\n  dup6\n    /* \"#utility.yul\":9194:9212   */\n  add\n    /* \"#utility.yul\":9181:9212   */\n  swap5\n  pop\n    /* \"#utility.yul\":9055:9059   */\n  0x20\n    /* \"#utility.yul\":9052:9053   */\n  dup2\n    /* \"#utility.yul\":9048:9060   */\n  add\n    /* \"#utility.yul\":9043:9060   */\n  swap1\n  pop\n    /* \"#utility.yul\":9018:9226   */\n  jump(tag_166)\ntag_168:\n    /* \"#utility.yul\":9254:9260   */\n  dup7\n    /* \"#utility.yul\":9245:9252   */\n  dup4\n    /* \"#utility.yul\":9242:9261   */\n  lt\n    /* \"#utility.yul\":9239:9418   */\n  iszero\n  tag_169\n  jumpi\n    /* \"#utility.yul\":9312:9321   */\n  dup5\n    /* \"#utility.yul\":9307:9310   */\n  dup10\n    /* \"#utility.yul\":9303:9322   */\n  add\n    /* \"#utility.yul\":9297:9323   */\n  mload\n    /* \"#utility.yul\":9355:9403   */\n  tag_170\n    /* \"#utility.yul\":9397:9401   */\n  0x1f\n    /* \"#utility.yul\":9389:9395   */\n  dup10\n    /* \"#utility.yul\":9385:9402   */\n  and\n    /* \"#utility.yul\":9374:9383   */\n  dup3\n    /* \"#utility.yul\":9355:9403   */\n  tag_53\n  jump\t// in\ntag_170:\n    /* \"#utility.yul\":9347:9353   */\n  dup4\n    /* \"#utility.yul\":9340:9404   */\n  sstore\n    /* \"#utility.yul\":9262:9418   */\n  pop\n    /* \"#utility.yul\":9239:9418   */\ntag_169:\n    /* \"#utility.yul\":9464:9465   */\n  0x01\n    /* \"#utility.yul\":9460:9461   */\n  0x02\n    /* \"#utility.yul\":9452:9458   */\n  dup9\n    /* \"#utility.yul\":9448:9462   */\n  mul\n    /* \"#utility.yul\":9444:9466   */\n  add\n    /* \"#utility.yul\":9438:9442   */\n  dup9\n    /* \"#utility.yul\":9431:9467   */\n  sstore\n    /* \"#utility.yul\":8866:9477   */\n  pop\n  pop\n  pop\n    /* \"#utility.yul\":8829:9716   */\ntag_161:\n  pop\n    /* \"#utility.yul\":8419:9722   */\n  pop\n  pop\n  pop\n    /* \"#utility.yul\":8327:9722   */\n  pop\n  pop\n  jump\t// out\n    /* \"#utility.yul\":9728:9908   */\ntag_55:\n    /* \"#utility.yul\":9776:9853   */\n  0x4e487b7100000000000000000000000000000000000000000000000000000000\n    /* \"#utility.yul\":9773:9774   */\n  0x00\n    /* \"#utility.yul\":9766:9854   */\n  mstore\n    /* \"#utility.yul\":9873:9877   */\n  0x11\n    /* \"#utility.yul\":9870:9871   */\n  0x04\n    /* \"#utility.yul\":9863:9878   */\n  mstore\n    /* \"#utility.yul\":9897:9901   */\n  0x24\n    /* \"#utility.yul\":9894:9895   */\n  0x00\n    /* \"#utility.yul\":9887:9902   */\n  revert\n    /* \"#utility.yul\":9914:10324   */\ntag_10:\n    /* \"#utility.yul\":9954:9961   */\n  0x00\n    /* \"#utility.yul\":9977:9997   */\n  tag_173\n    /* \"#utility.yul\":9995:9996   */\n  dup3\n    /* \"#utility.yul\":9977:9997   */\n  tag_34\n  jump\t// in\ntag_173:\n    /* \"#utility.yul\":9972:9997   */\n  swap2\n  pop\n    /* \"#utility.yul\":10011:10031   */\n  tag_174\n    /* \"#utility.yul\":10029:10030   */\n  dup4\n    /* \"#utility.yul\":10011:10031   */\n  tag_34\n  jump\t// in\ntag_174:\n    /* \"#utility.yul\":10006:10031   */\n  swap3\n  pop\n    /* \"#utility.yul\":10066:10067   */\n  dup3\n    /* \"#utility.yul\":10063:10064   */\n  dup3\n    /* \"#utility.yul\":10059:10068   */\n  mul\n    /* \"#utility.yul\":10088:10118   */\n  tag_175\n    /* \"#utility.yul\":10106:10117   */\n  dup2\n    /* \"#utility.yul\":10088:10118   */\n  tag_34\n  jump\t// in\ntag_175:\n    /* \"#utility.yul\":10077:10118   */\n  swap2\n  pop\n    /* \"#utility.yul\":10267:10268   */\n  dup3\n    /* \"#utility.yul\":10258:10265   */\n  dup3\n    /* \"#utility.yul\":10254:10269   */\n  div\n    /* \"#utility.yul\":10251:10252   */\n  dup5\n    /* \"#utility.yul\":10248:10270   */\n  eq\n    /* \"#utility.yul\":10228:10229   */\n  dup4\n    /* \"#utility.yul\":10221:10230   */\n  iszero\n    /* \"#utility.yul\":10201:10284   */\n  or\n    /* \"#utility.yul\":10178:10317   */\n  tag_176\n  jumpi\n    /* \"#utility.yul\":10297:10315   */\n  tag_177\n  tag_55\n  jump\t// in\ntag_177:\n    /* \"#utility.yul\":10178:10317   */\ntag_176:\n    /* \"#utility.yul\":9962:10324   */\n  pop\n    /* \"#utility.yul\":9914:10324   */\n  swap3\n  swap2\n  pop\n  pop\n  jump\t// out\n    /* \"#utility.yul\":10330:10521   */\ntag_12:\n    /* \"#utility.yul\":10370:10373   */\n  0x00\n    /* \"#utility.yul\":10389:10409   */\n  tag_179\n    /* \"#utility.yul\":10407:10408   */\n  dup3\n    /* \"#utility.yul\":10389:10409   */\n  tag_34\n  jump\t// in\ntag_179:\n    /* \"#utility.yul\":10384:10409   */\n  swap2\n  pop\n    /* \"#utility.yul\":10423:10443   */\n  tag_180\n    /* \"#utility.yul\":10441:10442   */\n  dup4\n    /* \"#utility.yul\":10423:10443   */\n  tag_34\n  jump\t// in\ntag_180:\n    /* \"#utility.yul\":10418:10443   */\n  swap3\n  pop\n    /* \"#utility.yul\":10466:10467   */\n  dup3\n    /* \"#utility.yul\":10463:10464   */\n  dup3\n    /* \"#utility.yul\":10459:10468   */\n  add\n    /* \"#utility.yul\":10452:10468   */\n  swap1\n  pop\n    /* \"#utility.yul\":10487:10490   */\n  dup1\n    /* \"#utility.yul\":10484:10485   */\n  dup3\n    /* \"#utility.yul\":10481:10491   */\n  gt\n    /* \"#utility.yul\":10478:10514   */\n  iszero\n  tag_181\n  jumpi\n    /* \"#utility.yul\":10494:10512   */\n  tag_182\n  tag_55\n  jump\t// in\ntag_182:\n    /* \"#utility.yul\":10478:10514   */\ntag_181:\n    /* \"#utility.yul\":10330:10521   */\n  swap3\n  swap2\n  pop\n  pop\n  jump\t// out\n    /* \"#utility.yul\":10527:10707   */\ntag_15:\n    /* \"#utility.yul\":10575:10652   */\n  0x4e487b7100000000000000000000000000000000000000000000000000000000\n    /* \"#utility.yul\":10572:10573   */\n  0x00\n    /* \"#utility.yul\":10565:10653   */\n  mstore\n    /* \"#utility.yul\":10672:10676   */\n  0x21\n    /* \"#utility.yul\":10669:10670   */\n  0x04\n    /* \"#utility.yul\":10662:10677   */\n  mstore\n    /* \"#utility.yul\":10696:10700   */\n  0x24\n    /* \"#utility.yul\":10693:10694   */\n  0x00\n    /* \"#utility.yul\":10686:10701   */\n  revert\n    /* \"Crowdfunding/Crowdfunding.sol\":60:4188  contract Crowdfunding{... */\ntag_16:\n  dataSize(sub_0)\n  dup1\n  dataOffset(sub_0)\n  0x00\n  codecopy\n  0x00\n  return\nstop\n\nsub_0: assembly {\n        /* \"Crowdfunding/Crowdfunding.sol\":60:4188  contract Crowdfunding{... */\n      mstore(0x40, 0x80)\n      jumpi(tag_1, lt(calldatasize, 0x04))\n      shr(0xe0, calldataload(0x00))\n      dup1\n      0x6f9fb98a\n      gt\n      tag_22\n      jumpi\n      dup1\n      0xb85dfb80\n      gt\n      tag_23\n      jumpi\n      dup1\n      0xb85dfb80\n      eq\n      tag_17\n      jumpi\n      dup1\n      0xc19d93fb\n      eq\n      tag_18\n      jumpi\n      dup1\n      0xc4ae3168\n      eq\n      tag_19\n      jumpi\n      dup1\n      0xca1d209d\n      eq\n      tag_20\n      jumpi\n      dup1\n      0xde170570\n      eq\n      tag_21\n      jumpi\n      jump(tag_1)\n    tag_23:\n      dup1\n      0x6f9fb98a\n      eq\n      tag_12\n      jumpi\n      dup1\n      0x7284e416\n      eq\n      tag_13\n      jumpi\n      dup1\n      0x7497211b\n      eq\n      tag_14\n      jumpi\n      dup1\n      0x8da5cb5b\n      eq\n      tag_15\n      jumpi\n      dup1\n      0x8ece7b91\n      eq\n      tag_16\n      jumpi\n      jump(tag_1)\n    tag_22:\n      dup1\n      0x389b7533\n      gt\n      tag_24\n      jumpi\n      dup1\n      0x389b7533\n      eq\n      tag_7\n      jumpi\n      dup1\n      0x3ccfd60b\n      eq\n      tag_8\n      jumpi\n      dup1\n      0x40193883\n      eq\n      tag_9\n      jumpi\n      dup1\n      0x590e1ae3\n      eq\n      tag_10\n      jumpi\n      dup1\n      0x5c975abb\n      eq\n      tag_11\n      jumpi\n      jump(tag_1)\n    tag_24:\n      dup1\n      0x039af9eb\n      eq\n      tag_2\n      jumpi\n      dup1\n      0x06fdde03\n      eq\n      tag_3\n      jumpi\n      dup1\n      0x10550515\n      eq\n      tag_4\n      jumpi\n      dup1\n      0x15922efb\n      eq\n      tag_5\n      jumpi\n      dup1\n      0x29dcb0cf\n      eq\n      tag_6\n      jumpi\n    tag_1:\n      0x00\n      dup1\n      revert\n        /* \"Crowdfunding/Crowdfunding.sol\":555:574  Tier[] public tiers */\n    tag_2:\n      callvalue\n      dup1\n      iszero\n      tag_25\n      jumpi\n      0x00\n      dup1\n      revert\n    tag_25:\n      pop\n      tag_26\n      0x04\n      dup1\n      calldatasize\n      sub\n      dup2\n      add\n      swap1\n      tag_27\n      swap2\n      swap1\n      tag_28\n      jump\t// in\n    tag_27:\n      tag_29\n      jump\t// in\n    tag_26:\n      mload(0x40)\n      tag_30\n      swap4\n      swap3\n      swap2\n      swap1\n      tag_31\n      jump\t// in\n    tag_30:\n      mload(0x40)\n      dup1\n      swap2\n      sub\n      swap1\n      return\n        /* \"Crowdfunding/Crowdfunding.sol\":88:106  string public name */\n    tag_3:\n      callvalue\n      dup1\n      iszero\n      tag_32\n      jumpi\n      0x00\n      dup1\n      revert\n    tag_32:\n      pop\n      tag_33\n      tag_34\n      jump\t// in\n    tag_33:\n      mload(0x40)\n      tag_35\n      swap2\n      swap1\n      tag_36\n      jump\t// in\n    tag_35:\n      mload(0x40)\n      dup1\n      swap2\n      sub\n      swap1\n      return\n        /* \"Crowdfunding/Crowdfunding.sol\":3781:4054  function getCampaignStatus() public view returns(CampaignState){... */\n    tag_4:\n      callvalue\n      dup1\n      iszero\n      tag_37\n      jumpi\n      0x00\n      dup1\n      revert\n    tag_37:\n      pop\n      tag_38\n      tag_39\n      jump\t// in\n    tag_38:\n      mload(0x40)\n      tag_40\n      swap2\n      swap1\n      tag_41\n      jump\t// in\n    tag_40:\n      mload(0x40)\n      dup1\n      swap2\n      sub\n      swap1\n      return\n        /* \"Crowdfunding/Crowdfunding.sol\":3445:3597  function hasFundendTier(address _backer, uint256 _tierIndex) public view returns(bool){... */\n    tag_5:\n      callvalue\n      dup1\n      iszero\n      tag_42\n      jumpi\n      0x00\n      dup1\n      revert\n    tag_42:\n      pop\n      tag_43\n      0x04\n      dup1\n      calldatasize\n      sub\n      dup2\n      add\n      swap1\n      tag_44\n      swap2\n      swap1\n      tag_45\n      jump\t// in\n    tag_44:\n      tag_46\n      jump\t// in\n    tag_43:\n      mload(0x40)\n      tag_47\n      swap2\n      swap1\n      tag_48\n      jump\t// in\n    tag_47:\n      mload(0x40)\n      dup1\n      swap2\n      sub\n      swap1\n      return\n        /* \"Crowdfunding/Crowdfunding.sol\":171:194  uint256 public deadline */\n    tag_6:\n      callvalue\n      dup1\n      iszero\n      tag_49\n      jumpi\n      0x00\n      dup1\n      revert\n    tag_49:\n      pop\n      tag_50\n      tag_51\n      jump\t// in\n    tag_50:\n      mload(0x40)\n      tag_52\n      swap2\n      swap1\n      tag_53\n      jump\t// in\n    tag_52:\n      mload(0x40)\n      dup1\n      swap2\n      sub\n      swap1\n      return\n        /* \"Crowdfunding/Crowdfunding.sol\":4062:4185  function extendDeadline(uint256 _daysToAdd) public onlyOwner campaignOpen{... */\n    tag_7:\n      callvalue\n      dup1\n      iszero\n      tag_54\n      jumpi\n      0x00\n      dup1\n      revert\n    tag_54:\n      pop\n      tag_55\n      0x04\n      dup1\n      calldatasize\n      sub\n      dup2\n      add\n      swap1\n      tag_56\n      swap2\n      swap1\n      tag_28\n      jump\t// in\n    tag_56:\n      tag_57\n      jump\t// in\n    tag_55:\n      stop\n        /* \"Crowdfunding/Crowdfunding.sol\":2604:2923  function withdraw() public onlyOwner{... */\n    tag_8:\n      callvalue\n      dup1\n      iszero\n      tag_58\n      jumpi\n      0x00\n      dup1\n      revert\n    tag_58:\n      pop\n      tag_59\n      tag_60\n      jump\t// in\n    tag_59:\n      stop\n        /* \"Crowdfunding/Crowdfunding.sol\":145:164  uint256 public goal */\n    tag_9:\n      callvalue\n      dup1\n      iszero\n      tag_61\n      jumpi\n      0x00\n      dup1\n      revert\n    tag_61:\n      pop\n      tag_62\n      tag_63\n      jump\t// in\n    tag_62:\n      mload(0x40)\n      tag_64\n      swap2\n      swap1\n      tag_53\n      jump\t// in\n    tag_64:\n      mload(0x40)\n      dup1\n      swap2\n      sub\n      swap1\n      return\n        /* \"Crowdfunding/Crowdfunding.sol\":3044:3437  function refund() public {... */\n    tag_10:\n      callvalue\n      dup1\n      iszero\n      tag_65\n      jumpi\n      0x00\n      dup1\n      revert\n    tag_65:\n      pop\n      tag_66\n      tag_67\n      jump\t// in\n    tag_66:\n      stop\n        /* \"Crowdfunding/Crowdfunding.sol\":228:246  bool public paused */\n    tag_11:\n      callvalue\n      dup1\n      iszero\n      tag_68\n      jumpi\n      0x00\n      dup1\n      revert\n    tag_68:\n      pop\n      tag_69\n      tag_70\n      jump\t// in\n    tag_69:\n      mload(0x40)\n      tag_71\n      swap2\n      swap1\n      tag_48\n      jump\t// in\n    tag_71:\n      mload(0x40)\n      dup1\n      swap2\n      sub\n      swap1\n      return\n        /* \"Crowdfunding/Crowdfunding.sol\":2931:3036  function getContractBalance() public view returns(uint256){... */\n    tag_12:\n      callvalue\n      dup1\n      iszero\n      tag_72\n      jumpi\n      0x00\n      dup1\n      revert\n    tag_72:\n      pop\n      tag_73\n      tag_74\n      jump\t// in\n    tag_73:\n      mload(0x40)\n      tag_75\n      swap2\n      swap1\n      tag_53\n      jump\t// in\n    tag_75:\n      mload(0x40)\n      dup1\n      swap2\n      sub\n      swap1\n      return\n        /* \"Crowdfunding/Crowdfunding.sol\":113:138  string public description */\n    tag_13:\n      callvalue\n      dup1\n      iszero\n      tag_76\n      jumpi\n      0x00\n      dup1\n      revert\n    tag_76:\n      pop\n      tag_77\n      tag_78\n      jump\t// in\n    tag_77:\n      mload(0x40)\n      tag_79\n      swap2\n      swap1\n      tag_36\n      jump\t// in\n    tag_79:\n      mload(0x40)\n      dup1\n      swap2\n      sub\n      swap1\n      return\n        /* \"Crowdfunding/Crowdfunding.sol\":2398:2594  function removeTier(uint256 _index) public onlyOwner{... */\n    tag_14:\n      callvalue\n      dup1\n      iszero\n      tag_80\n      jumpi\n      0x00\n      dup1\n      revert\n    tag_80:\n      pop\n      tag_81\n      0x04\n      dup1\n      calldatasize\n      sub\n      dup2\n      add\n      swap1\n      tag_82\n      swap2\n      swap1\n      tag_28\n      jump\t// in\n    tag_82:\n      tag_83\n      jump\t// in\n    tag_81:\n      stop\n        /* \"Crowdfunding/Crowdfunding.sol\":201:221  address public owner */\n    tag_15:\n      callvalue\n      dup1\n      iszero\n      tag_84\n      jumpi\n      0x00\n      dup1\n      revert\n    tag_84:\n      pop\n      tag_85\n      tag_86\n      jump\t// in\n    tag_85:\n      mload(0x40)\n      tag_87\n      swap2\n      swap1\n      tag_88\n      jump\t// in\n    tag_87:\n      mload(0x40)\n      dup1\n      swap2\n      sub\n      swap1\n      return\n        /* \"Crowdfunding/Crowdfunding.sol\":2192:2390  function addTier(string memory _name,... */\n    tag_16:\n      callvalue\n      dup1\n      iszero\n      tag_89\n      jumpi\n      0x00\n      dup1\n      revert\n    tag_89:\n      pop\n      tag_90\n      0x04\n      dup1\n      calldatasize\n      sub\n      dup2\n      add\n      swap1\n      tag_91\n      swap2\n      swap1\n      tag_92\n      jump\t// in\n    tag_91:\n      tag_93\n      jump\t// in\n    tag_90:\n      stop\n        /* \"Crowdfunding/Crowdfunding.sol\":583:625  mapping (address => Backer) public backers */\n    tag_17:\n      callvalue\n      dup1\n      iszero\n      tag_94\n      jumpi\n      0x00\n      dup1\n      revert\n    tag_94:\n      pop\n      tag_95\n      0x04\n      dup1\n      calldatasize\n      sub\n      dup2\n      add\n      swap1\n      tag_96\n      swap2\n      swap1\n      tag_97\n      jump\t// in\n    tag_96:\n      tag_98\n      jump\t// in\n    tag_95:\n      mload(0x40)\n      tag_99\n      swap2\n      swap1\n      tag_53\n      jump\t// in\n    tag_99:\n      mload(0x40)\n      dup1\n      swap2\n      sub\n      swap1\n      return\n        /* \"Crowdfunding/Crowdfunding.sol\":308:334  CampaignState public state */\n    tag_18:\n      callvalue\n      dup1\n      iszero\n      tag_100\n      jumpi\n      0x00\n      dup1\n      revert\n    tag_100:\n      pop\n      tag_101\n      tag_102\n      jump\t// in\n    tag_101:\n      mload(0x40)\n      tag_103\n      swap2\n      swap1\n      tag_41\n      jump\t// in\n    tag_103:\n      mload(0x40)\n      dup1\n      swap2\n      sub\n      swap1\n      return\n        /* \"Crowdfunding/Crowdfunding.sol\":3699:3773  function togglePause() public onlyOwner{... */\n    tag_19:\n      callvalue\n      dup1\n      iszero\n      tag_104\n      jumpi\n      0x00\n      dup1\n      revert\n    tag_104:\n      pop\n      tag_105\n      tag_106\n      jump\t// in\n    tag_105:\n      stop\n        /* \"Crowdfunding/Crowdfunding.sol\":1773:2184  function fund(uint256 _tierIndex) public payable campaignOpen{... */\n    tag_20:\n      tag_107\n      0x04\n      dup1\n      calldatasize\n      sub\n      dup2\n      add\n      swap1\n      tag_108\n      swap2\n      swap1\n      tag_28\n      jump\t// in\n    tag_108:\n      tag_109\n      jump\t// in\n    tag_107:\n      stop\n        /* \"Crowdfunding/Crowdfunding.sol\":3605:3691  function getTiers() public view returns (Tier[] memory){... */\n    tag_21:\n      callvalue\n      dup1\n      iszero\n      tag_110\n      jumpi\n      0x00\n      dup1\n      revert\n    tag_110:\n      pop\n      tag_111\n      tag_112\n      jump\t// in\n    tag_111:\n      mload(0x40)\n      tag_113\n      swap2\n      swap1\n      tag_114\n      jump\t// in\n    tag_113:\n      mload(0x40)\n      dup1\n      swap2\n      sub\n      swap1\n      return\n        /* \"Crowdfunding/Crowdfunding.sol\":555:574  Tier[] public tiers */\n    tag_29:\n      0x05\n      dup2\n      dup2\n      sload\n      dup2\n      lt\n      tag_115\n      jumpi\n      0x00\n      dup1\n      revert\n    tag_115:\n      swap1\n      0x00\n      mstore\n      keccak256(0x00, 0x20)\n      swap1\n      0x03\n      mul\n      add\n      0x00\n      swap2\n      pop\n      swap1\n      pop\n      dup1\n      0x00\n      add\n      dup1\n      sload\n      tag_117\n      swap1\n      tag_118\n      jump\t// in\n    tag_117:\n      dup1\n      0x1f\n      add\n      0x20\n      dup1\n      swap2\n      div\n      mul\n      0x20\n      add\n      mload(0x40)\n      swap1\n      dup2\n      add\n      0x40\n      mstore\n      dup1\n      swap3\n      swap2\n      swap1\n      dup2\n      dup2\n      mstore\n      0x20\n      add\n      dup3\n      dup1\n      sload\n      tag_119\n      swap1\n      tag_118\n      jump\t// in\n    tag_119:\n      dup1\n      iszero\n      tag_120\n      jumpi\n      dup1\n      0x1f\n      lt\n      tag_121\n      jumpi\n      0x0100\n      dup1\n      dup4\n      sload\n      div\n      mul\n      dup4\n      mstore\n      swap2\n      0x20\n      add\n      swap2\n      jump(tag_120)\n    tag_121:\n      dup3\n      add\n      swap2\n      swap1\n      0x00\n      mstore\n      keccak256(0x00, 0x20)\n      swap1\n    tag_122:\n      dup2\n      sload\n      dup2\n      mstore\n      swap1\n      0x01\n      add\n      swap1\n      0x20\n      add\n      dup1\n      dup4\n      gt\n      tag_122\n      jumpi\n      dup3\n      swap1\n      sub\n      0x1f\n      and\n      dup3\n      add\n      swap2\n    tag_120:\n      pop\n      pop\n      pop\n      pop\n      pop\n      swap1\n      dup1\n      0x01\n      add\n      sload\n      swap1\n      dup1\n      0x02\n      add\n      sload\n      swap1\n      pop\n      dup4\n      jump\t// out\n        /* \"Crowdfunding/Crowdfunding.sol\":88:106  string public name */\n    tag_34:\n      0x00\n      dup1\n      sload\n      tag_123\n      swap1\n      tag_118\n      jump\t// in\n    tag_123:\n      dup1\n      0x1f\n      add\n      0x20\n      dup1\n      swap2\n      div\n      mul\n      0x20\n      add\n      mload(0x40)\n      swap1\n      dup2\n      add\n      0x40\n      mstore\n      dup1\n      swap3\n      swap2\n      swap1\n      dup2\n      dup2\n      mstore\n      0x20\n      add\n      dup3\n      dup1\n      sload\n      tag_124\n      swap1\n      tag_118\n      jump\t// in\n    tag_124:\n      dup1\n      iszero\n      tag_125\n      jumpi\n      dup1\n      0x1f\n      lt\n      tag_126\n      jumpi\n      0x0100\n      dup1\n      dup4\n      sload\n      div\n      mul\n      dup4\n      mstore\n      swap2\n      0x20\n      add\n      swap2\n      jump(tag_125)\n    tag_126:\n      dup3\n      add\n      swap2\n      swap1\n      0x00\n      mstore\n      keccak256(0x00, 0x20)\n      swap1\n    tag_127:\n      dup2\n      sload\n      dup2\n      mstore\n      swap1\n      0x01\n      add\n      swap1\n      0x20\n      add\n      dup1\n      dup4\n      gt\n      tag_127\n      jumpi\n      dup3\n      swap1\n      sub\n      0x1f\n      and\n      dup3\n      add\n      swap2\n    tag_125:\n      pop\n      pop\n      pop\n      pop\n      pop\n      dup2\n      jump\t// out\n        /* \"Crowdfunding/Crowdfunding.sol\":3781:4054  function getCampaignStatus() public view returns(CampaignState){... */\n    tag_39:\n        /* \"Crowdfunding/Crowdfunding.sol\":3830:3843  CampaignState */\n      0x00\n        /* \"Crowdfunding/Crowdfunding.sol\":3867:3887  CampaignState.Active */\n      dup1\n        /* \"Crowdfunding/Crowdfunding.sol\":3858:3887  state == CampaignState.Active */\n      0x02\n      dup2\n      gt\n      iszero\n      tag_129\n      jumpi\n      tag_130\n      tag_131\n      jump\t// in\n    tag_130:\n    tag_129:\n        /* \"Crowdfunding/Crowdfunding.sol\":3858:3863  state */\n      0x04\n      0x15\n      swap1\n      sload\n      swap1\n      0x0100\n      exp\n      swap1\n      div\n      0xff\n      and\n        /* \"Crowdfunding/Crowdfunding.sol\":3858:3887  state == CampaignState.Active */\n      0x02\n      dup2\n      gt\n      iszero\n      tag_132\n      jumpi\n      tag_133\n      tag_131\n      jump\t// in\n    tag_133:\n    tag_132:\n      eq\n        /* \"Crowdfunding/Crowdfunding.sol\":3858:3917  state == CampaignState.Active && block.timestamp > deadline */\n      dup1\n      iszero\n      tag_134\n      jumpi\n      pop\n        /* \"Crowdfunding/Crowdfunding.sol\":3909:3917  deadline */\n      sload(0x03)\n        /* \"Crowdfunding/Crowdfunding.sol\":3891:3906  block.timestamp */\n      timestamp\n        /* \"Crowdfunding/Crowdfunding.sol\":3891:3917  block.timestamp > deadline */\n      gt\n        /* \"Crowdfunding/Crowdfunding.sol\":3858:3917  state == CampaignState.Active && block.timestamp > deadline */\n    tag_134:\n        /* \"Crowdfunding/Crowdfunding.sol\":3855:4024  if(state == CampaignState.Active && block.timestamp > deadline){... */\n      iszero\n      tag_135\n      jumpi\n        /* \"Crowdfunding/Crowdfunding.sol\":3958:3962  goal */\n      sload(0x02)\n        /* \"Crowdfunding/Crowdfunding.sol\":3933:3954  address(this).balance */\n      selfbalance\n        /* \"Crowdfunding/Crowdfunding.sol\":3933:3962  address(this).balance >= goal */\n      lt\n      iszero\n        /* \"Crowdfunding/Crowdfunding.sol\":3933:4012  address(this).balance >= goal ? CampaignState.Successful : CampaignState.Failed */\n      tag_136\n      jumpi\n        /* \"Crowdfunding/Crowdfunding.sol\":3992:4012  CampaignState.Failed */\n      0x02\n        /* \"Crowdfunding/Crowdfunding.sol\":3933:4012  address(this).balance >= goal ? CampaignState.Successful : CampaignState.Failed */\n      jump(tag_137)\n    tag_136:\n        /* \"Crowdfunding/Crowdfunding.sol\":3965:3989  CampaignState.Successful */\n      0x01\n        /* \"Crowdfunding/Crowdfunding.sol\":3933:4012  address(this).balance >= goal ? CampaignState.Successful : CampaignState.Failed */\n    tag_137:\n      pop\n        /* \"Crowdfunding/Crowdfunding.sol\":3855:4024  if(state == CampaignState.Active && block.timestamp > deadline){... */\n    tag_135:\n        /* \"Crowdfunding/Crowdfunding.sol\":4041:4046  state */\n      0x04\n      0x15\n      swap1\n      sload\n      swap1\n      0x0100\n      exp\n      swap1\n      div\n      0xff\n      and\n        /* \"Crowdfunding/Crowdfunding.sol\":4034:4046  return state */\n      swap1\n      pop\n        /* \"Crowdfunding/Crowdfunding.sol\":3781:4054  function getCampaignStatus() public view returns(CampaignState){... */\n      swap1\n      jump\t// out\n        /* \"Crowdfunding/Crowdfunding.sol\":3445:3597  function hasFundendTier(address _backer, uint256 _tierIndex) public view returns(bool){... */\n    tag_46:\n        /* \"Crowdfunding/Crowdfunding.sol\":3526:3530  bool */\n      0x00\n        /* \"Crowdfunding/Crowdfunding.sol\":3549:3556  backers */\n      0x06\n        /* \"Crowdfunding/Crowdfunding.sol\":3549:3565  backers[_backer] */\n      0x00\n        /* \"Crowdfunding/Crowdfunding.sol\":3557:3564  _backer */\n      dup5\n        /* \"Crowdfunding/Crowdfunding.sol\":3549:3565  backers[_backer] */\n      0xffffffffffffffffffffffffffffffffffffffff\n      and\n      0xffffffffffffffffffffffffffffffffffffffff\n      and\n      dup2\n      mstore\n      0x20\n      add\n      swap1\n      dup2\n      mstore\n      0x20\n      add\n      0x00\n      keccak256\n        /* \"Crowdfunding/Crowdfunding.sol\":3549:3577  backers[_backer].fundedTiers */\n      0x01\n      add\n        /* \"Crowdfunding/Crowdfunding.sol\":3549:3589  backers[_backer].fundedTiers[_tierIndex] */\n      0x00\n        /* \"Crowdfunding/Crowdfunding.sol\":3578:3588  _tierIndex */\n      dup4\n        /* \"Crowdfunding/Crowdfunding.sol\":3549:3589  backers[_backer].fundedTiers[_tierIndex] */\n      dup2\n      mstore\n      0x20\n      add\n      swap1\n      dup2\n      mstore\n      0x20\n      add\n      0x00\n      keccak256\n      0x00\n      swap1\n      sload\n      swap1\n      0x0100\n      exp\n      swap1\n      div\n      0xff\n      and\n        /* \"Crowdfunding/Crowdfunding.sol\":3542:3589  return backers[_backer].fundedTiers[_tierIndex] */\n      swap1\n      pop\n        /* \"Crowdfunding/Crowdfunding.sol\":3445:3597  function hasFundendTier(address _backer, uint256 _tierIndex) public view returns(bool){... */\n      swap3\n      swap2\n      pop\n      pop\n      jump\t// out\n        /* \"Crowdfunding/Crowdfunding.sol\":171:194  uint256 public deadline */\n    tag_51:\n      sload(0x03)\n      dup2\n      jump\t// out\n        /* \"Crowdfunding/Crowdfunding.sol\":4062:4185  function extendDeadline(uint256 _daysToAdd) public onlyOwner campaignOpen{... */\n    tag_57:\n        /* \"Crowdfunding/Crowdfunding.sol\":687:692  owner */\n      0x04\n      0x00\n      swap1\n      sload\n      swap1\n      0x0100\n      exp\n      swap1\n      div\n      0xffffffffffffffffffffffffffffffffffffffff\n      and\n        /* \"Crowdfunding/Crowdfunding.sol\":673:692  msg.sender == owner */\n      0xffffffffffffffffffffffffffffffffffffffff\n      and\n        /* \"Crowdfunding/Crowdfunding.sol\":673:683  msg.sender */\n      caller\n        /* \"Crowdfunding/Crowdfunding.sol\":673:692  msg.sender == owner */\n      0xffffffffffffffffffffffffffffffffffffffff\n      and\n      eq\n        /* \"Crowdfunding/Crowdfunding.sol\":665:710  require(msg.sender == owner, \"Not the owner\") */\n      tag_140\n      jumpi\n      mload(0x40)\n      0x08c379a000000000000000000000000000000000000000000000000000000000\n      dup2\n      mstore\n      0x04\n      add\n      tag_141\n      swap1\n      tag_142\n      jump\t// in\n    tag_141:\n      mload(0x40)\n      dup1\n      swap2\n      sub\n      swap1\n      revert\n    tag_140:\n        /* \"Crowdfunding/Crowdfunding.sol\":789:809  CampaignState.Active */\n      0x00\n        /* \"Crowdfunding/Crowdfunding.sol\":780:809  state == CampaignState.Active */\n      0x02\n      dup2\n      gt\n      iszero\n      tag_144\n      jumpi\n      tag_145\n      tag_131\n      jump\t// in\n    tag_145:\n    tag_144:\n        /* \"Crowdfunding/Crowdfunding.sol\":780:785  state */\n      0x04\n      0x15\n      swap1\n      sload\n      swap1\n      0x0100\n      exp\n      swap1\n      div\n      0xff\n      and\n        /* \"Crowdfunding/Crowdfunding.sol\":780:809  state == CampaignState.Active */\n      0x02\n      dup2\n      gt\n      iszero\n      tag_146\n      jumpi\n      tag_147\n      tag_131\n      jump\t// in\n    tag_147:\n    tag_146:\n      eq\n        /* \"Crowdfunding/Crowdfunding.sol\":772:836  require(state == CampaignState.Active, \"Campaign is not active\") */\n      tag_148\n      jumpi\n      mload(0x40)\n      0x08c379a000000000000000000000000000000000000000000000000000000000\n      dup2\n      mstore\n      0x04\n      add\n      tag_149\n      swap1\n      tag_150\n      jump\t// in\n    tag_149:\n      mload(0x40)\n      dup1\n      swap2\n      sub\n      swap1\n      revert\n    tag_148:\n        /* \"Crowdfunding/Crowdfunding.sol\":4171:4177  1 days */\n      0x015180\n        /* \"Crowdfunding/Crowdfunding.sol\":4158:4168  _daysToAdd */\n      dup2\n        /* \"Crowdfunding/Crowdfunding.sol\":4158:4177  _daysToAdd * 1 days */\n      tag_152\n      swap2\n      swap1\n      tag_153\n      jump\t// in\n    tag_152:\n        /* \"Crowdfunding/Crowdfunding.sol\":4146:4154  deadline */\n      0x03\n      0x00\n        /* \"Crowdfunding/Crowdfunding.sol\":4146:4177  deadline += _daysToAdd * 1 days */\n      dup3\n      dup3\n      sload\n      tag_154\n      swap2\n      swap1\n      tag_155\n      jump\t// in\n    tag_154:\n      swap3\n      pop\n      pop\n      dup2\n      swap1\n      sstore\n      pop\n        /* \"Crowdfunding/Crowdfunding.sol\":4062:4185  function extendDeadline(uint256 _daysToAdd) public onlyOwner campaignOpen{... */\n      pop\n      jump\t// out\n        /* \"Crowdfunding/Crowdfunding.sol\":2604:2923  function withdraw() public onlyOwner{... */\n    tag_60:\n        /* \"Crowdfunding/Crowdfunding.sol\":687:692  owner */\n      0x04\n      0x00\n      swap1\n      sload\n      swap1\n      0x0100\n      exp\n      swap1\n      div\n      0xffffffffffffffffffffffffffffffffffffffff\n      and\n        /* \"Crowdfunding/Crowdfunding.sol\":673:692  msg.sender == owner */\n      0xffffffffffffffffffffffffffffffffffffffff\n      and\n        /* \"Crowdfunding/Crowdfunding.sol\":673:683  msg.sender */\n      caller\n        /* \"Crowdfunding/Crowdfunding.sol\":673:692  msg.sender == owner */\n      0xffffffffffffffffffffffffffffffffffffffff\n      and\n      eq\n        /* \"Crowdfunding/Crowdfunding.sol\":665:710  require(msg.sender == owner, \"Not the owner\") */\n      tag_157\n      jumpi\n      mload(0x40)\n      0x08c379a000000000000000000000000000000000000000000000000000000000\n      dup2\n      mstore\n      0x04\n      add\n      tag_158\n      swap1\n      tag_142\n      jump\t// in\n    tag_158:\n      mload(0x40)\n      dup1\n      swap2\n      sub\n      swap1\n      revert\n    tag_157:\n        /* \"Crowdfunding/Crowdfunding.sol\":2651:2680  checkAndUpdateCampaignState() */\n      tag_160\n        /* \"Crowdfunding/Crowdfunding.sol\":2651:2678  checkAndUpdateCampaignState */\n      tag_161\n        /* \"Crowdfunding/Crowdfunding.sol\":2651:2680  checkAndUpdateCampaignState() */\n      jump\t// in\n    tag_160:\n        /* \"Crowdfunding/Crowdfunding.sol\":2708:2732  CampaignState.Successful */\n      0x01\n        /* \"Crowdfunding/Crowdfunding.sol\":2699:2732  state == CampaignState.Successful */\n      0x02\n      dup2\n      gt\n      iszero\n      tag_162\n      jumpi\n      tag_163\n      tag_131\n      jump\t// in\n    tag_163:\n    tag_162:\n        /* \"Crowdfunding/Crowdfunding.sol\":2699:2704  state */\n      0x04\n      0x15\n      swap1\n      sload\n      swap1\n      0x0100\n      exp\n      swap1\n      div\n      0xff\n      and\n        /* \"Crowdfunding/Crowdfunding.sol\":2699:2732  state == CampaignState.Successful */\n      0x02\n      dup2\n      gt\n      iszero\n      tag_164\n      jumpi\n      tag_165\n      tag_131\n      jump\t// in\n    tag_165:\n    tag_164:\n      eq\n        /* \"Crowdfunding/Crowdfunding.sol\":2691:2760  require(state == CampaignState.Successful, \"Campaign not successful\") */\n      tag_166\n      jumpi\n      mload(0x40)\n      0x08c379a000000000000000000000000000000000000000000000000000000000\n      dup2\n      mstore\n      0x04\n      add\n      tag_167\n      swap1\n      tag_168\n      jump\t// in\n    tag_167:\n      mload(0x40)\n      dup1\n      swap2\n      sub\n      swap1\n      revert\n    tag_166:\n        /* \"Crowdfunding/Crowdfunding.sol\":2773:2788  uint256 balance */\n      0x00\n        /* \"Crowdfunding/Crowdfunding.sol\":2791:2812  address(this).balance */\n      selfbalance\n        /* \"Crowdfunding/Crowdfunding.sol\":2773:2812  uint256 balance = address(this).balance */\n      swap1\n      pop\n        /* \"Crowdfunding/Crowdfunding.sol\":2841:2842  0 */\n      0x00\n        /* \"Crowdfunding/Crowdfunding.sol\":2831:2838  balance */\n      dup2\n        /* \"Crowdfunding/Crowdfunding.sol\":2831:2842  balance > 0 */\n      gt\n        /* \"Crowdfunding/Crowdfunding.sol\":2823:2869  require(balance > 0, \"No balance to withdraw\") */\n      tag_169\n      jumpi\n      mload(0x40)\n      0x08c379a000000000000000000000000000000000000000000000000000000000\n      dup2\n      mstore\n      0x04\n      add\n      tag_170\n      swap1\n      tag_171\n      jump\t// in\n    tag_170:\n      mload(0x40)\n      dup1\n      swap2\n      sub\n      swap1\n      revert\n    tag_169:\n        /* \"Crowdfunding/Crowdfunding.sol\":2891:2896  owner */\n      0x04\n      0x00\n      swap1\n      sload\n      swap1\n      0x0100\n      exp\n      swap1\n      div\n      0xffffffffffffffffffffffffffffffffffffffff\n      and\n        /* \"Crowdfunding/Crowdfunding.sol\":2882:2906  payable (owner).transfer */\n      0xffffffffffffffffffffffffffffffffffffffff\n      and\n        /* \"Crowdfunding/Crowdfunding.sol\":2882:2915  payable (owner).transfer(balance) */\n      0x08fc\n        /* \"Crowdfunding/Crowdfunding.sol\":2907:2914  balance */\n      dup3\n        /* \"Crowdfunding/Crowdfunding.sol\":2882:2915  payable (owner).transfer(balance) */\n      swap1\n      dup2\n      iszero\n      mul\n      swap1\n      mload(0x40)\n      0x00\n      mload(0x40)\n      dup1\n      dup4\n      sub\n      dup2\n      dup6\n      dup9\n      dup9\n      call\n      swap4\n      pop\n      pop\n      pop\n      pop\n      iszero\n      dup1\n      iszero\n      tag_173\n      jumpi\n      returndatasize\n      0x00\n      dup1\n      returndatacopy\n      revert(0x00, returndatasize)\n    tag_173:\n      pop\n        /* \"Crowdfunding/Crowdfunding.sol\":2640:2923  {... */\n      pop\n        /* \"Crowdfunding/Crowdfunding.sol\":2604:2923  function withdraw() public onlyOwner{... */\n      jump\t// out\n        /* \"Crowdfunding/Crowdfunding.sol\":145:164  uint256 public goal */\n    tag_63:\n      sload(0x02)\n      dup2\n      jump\t// out\n        /* \"Crowdfunding/Crowdfunding.sol\":3044:3437  function refund() public {... */\n    tag_67:\n        /* \"Crowdfunding/Crowdfunding.sol\":3080:3109  checkAndUpdateCampaignState() */\n      tag_175\n        /* \"Crowdfunding/Crowdfunding.sol\":3080:3107  checkAndUpdateCampaignState */\n      tag_161\n        /* \"Crowdfunding/Crowdfunding.sol\":3080:3109  checkAndUpdateCampaignState() */\n      jump\t// in\n    tag_175:\n        /* \"Crowdfunding/Crowdfunding.sol\":3137:3157  CampaignState.Failed */\n      0x02\n        /* \"Crowdfunding/Crowdfunding.sol\":3128:3157  state == CampaignState.Failed */\n      dup1\n      dup2\n      gt\n      iszero\n      tag_176\n      jumpi\n      tag_177\n      tag_131\n      jump\t// in\n    tag_177:\n    tag_176:\n        /* \"Crowdfunding/Crowdfunding.sol\":3128:3133  state */\n      0x04\n      0x15\n      swap1\n      sload\n      swap1\n      0x0100\n      exp\n      swap1\n      div\n      0xff\n      and\n        /* \"Crowdfunding/Crowdfunding.sol\":3128:3157  state == CampaignState.Failed */\n      0x02\n      dup2\n      gt\n      iszero\n      tag_178\n      jumpi\n      tag_179\n      tag_131\n      jump\t// in\n    tag_179:\n    tag_178:\n      eq\n        /* \"Crowdfunding/Crowdfunding.sol\":3120:3183  require(state == CampaignState.Failed, \"Refunds not available\") */\n      tag_180\n      jumpi\n      mload(0x40)\n      0x08c379a000000000000000000000000000000000000000000000000000000000\n      dup2\n      mstore\n      0x04\n      add\n      tag_181\n      swap1\n      tag_182\n      jump\t// in\n    tag_181:\n      mload(0x40)\n      dup1\n      swap2\n      sub\n      swap1\n      revert\n    tag_180:\n        /* \"Crowdfunding/Crowdfunding.sol\":3194:3208  uint256 amount */\n      0x00\n        /* \"Crowdfunding/Crowdfunding.sol\":3211:3218  backers */\n      0x06\n        /* \"Crowdfunding/Crowdfunding.sol\":3211:3230  backers[msg.sender] */\n      0x00\n        /* \"Crowdfunding/Crowdfunding.sol\":3219:3229  msg.sender */\n      caller\n        /* \"Crowdfunding/Crowdfunding.sol\":3211:3230  backers[msg.sender] */\n      0xffffffffffffffffffffffffffffffffffffffff\n      and\n      0xffffffffffffffffffffffffffffffffffffffff\n      and\n      dup2\n      mstore\n      0x20\n      add\n      swap1\n      dup2\n      mstore\n      0x20\n      add\n      0x00\n      keccak256\n        /* \"Crowdfunding/Crowdfunding.sol\":3211:3248  backers[msg.sender].totalContribution */\n      0x00\n      add\n      sload\n        /* \"Crowdfunding/Crowdfunding.sol\":3194:3248  uint256 amount = backers[msg.sender].totalContribution */\n      swap1\n      pop\n        /* \"Crowdfunding/Crowdfunding.sol\":3276:3277  0 */\n      0x00\n        /* \"Crowdfunding/Crowdfunding.sol\":3267:3273  amount */\n      dup2\n        /* \"Crowdfunding/Crowdfunding.sol\":3267:3277  amount > 0 */\n      gt\n        /* \"Crowdfunding/Crowdfunding.sol\":3259:3308  require(amount > 0, \"No contributions to refund\") */\n      tag_183\n      jumpi\n      mload(0x40)\n      0x08c379a000000000000000000000000000000000000000000000000000000000\n      dup2\n      mstore\n      0x04\n      add\n      tag_184\n      swap1\n      tag_185\n      jump\t// in\n    tag_184:\n      mload(0x40)\n      dup1\n      swap2\n      sub\n      swap1\n      revert\n    tag_183:\n        /* \"Crowdfunding/Crowdfunding.sol\":3361:3362  0 */\n      0x00\n        /* \"Crowdfunding/Crowdfunding.sol\":3321:3328  backers */\n      0x06\n        /* \"Crowdfunding/Crowdfunding.sol\":3321:3340  backers[msg.sender] */\n      0x00\n        /* \"Crowdfunding/Crowdfunding.sol\":3329:3339  msg.sender */\n      caller\n        /* \"Crowdfunding/Crowdfunding.sol\":3321:3340  backers[msg.sender] */\n      0xffffffffffffffffffffffffffffffffffffffff\n      and\n      0xffffffffffffffffffffffffffffffffffffffff\n      and\n      dup2\n      mstore\n      0x20\n      add\n      swap1\n      dup2\n      mstore\n      0x20\n      add\n      0x00\n      keccak256\n        /* \"Crowdfunding/Crowdfunding.sol\":3321:3358  backers[msg.sender].totalContribution */\n      0x00\n      add\n        /* \"Crowdfunding/Crowdfunding.sol\":3321:3362  backers[msg.sender].totalContribution = 0 */\n      dup2\n      swap1\n      sstore\n      pop\n        /* \"Crowdfunding/Crowdfunding.sol\":3401:3411  msg.sender */\n      caller\n        /* \"Crowdfunding/Crowdfunding.sol\":3393:3421  payable(msg.sender).transfer */\n      0xffffffffffffffffffffffffffffffffffffffff\n      and\n        /* \"Crowdfunding/Crowdfunding.sol\":3393:3429  payable(msg.sender).transfer(amount) */\n      0x08fc\n        /* \"Crowdfunding/Crowdfunding.sol\":3422:3428  amount */\n      dup3\n        /* \"Crowdfunding/Crowdfunding.sol\":3393:3429  payable(msg.sender).transfer(amount) */\n      swap1\n      dup2\n      iszero\n      mul\n      swap1\n      mload(0x40)\n      0x00\n      mload(0x40)\n      dup1\n      dup4\n      sub\n      dup2\n      dup6\n      dup9\n      dup9\n      call\n      swap4\n      pop\n      pop\n      pop\n      pop\n      iszero\n      dup1\n      iszero\n      tag_187\n      jumpi\n      returndatasize\n      0x00\n      dup1\n      returndatacopy\n      revert(0x00, returndatasize)\n    tag_187:\n      pop\n        /* \"Crowdfunding/Crowdfunding.sol\":3069:3437  {... */\n      pop\n        /* \"Crowdfunding/Crowdfunding.sol\":3044:3437  function refund() public {... */\n      jump\t// out\n        /* \"Crowdfunding/Crowdfunding.sol\":228:246  bool public paused */\n    tag_70:\n      0x04\n      0x14\n      swap1\n      sload\n      swap1\n      0x0100\n      exp\n      swap1\n      div\n      0xff\n      and\n      dup2\n      jump\t// out\n        /* \"Crowdfunding/Crowdfunding.sol\":2931:3036  function getContractBalance() public view returns(uint256){... */\n    tag_74:\n        /* \"Crowdfunding/Crowdfunding.sol\":2981:2988  uint256 */\n      0x00\n        /* \"Crowdfunding/Crowdfunding.sol\":3007:3028  address(this).balance */\n      selfbalance\n        /* \"Crowdfunding/Crowdfunding.sol\":3000:3028  return address(this).balance */\n      swap1\n      pop\n        /* \"Crowdfunding/Crowdfunding.sol\":2931:3036  function getContractBalance() public view returns(uint256){... */\n      swap1\n      jump\t// out\n        /* \"Crowdfunding/Crowdfunding.sol\":113:138  string public description */\n    tag_78:\n      0x01\n      dup1\n      sload\n      tag_189\n      swap1\n      tag_118\n      jump\t// in\n    tag_189:\n      dup1\n      0x1f\n      add\n      0x20\n      dup1\n      swap2\n      div\n      mul\n      0x20\n      add\n      mload(0x40)\n      swap1\n      dup2\n      add\n      0x40\n      mstore\n      dup1\n      swap3\n      swap2\n      swap1\n      dup2\n      dup2\n      mstore\n      0x20\n      add\n      dup3\n      dup1\n      sload\n      tag_190\n      swap1\n      tag_118\n      jump\t// in\n    tag_190:\n      dup1\n      iszero\n      tag_191\n      jumpi\n      dup1\n      0x1f\n      lt\n      tag_192\n      jumpi\n      0x0100\n      dup1\n      dup4\n      sload\n      div\n      mul\n      dup4\n      mstore\n      swap2\n      0x20\n      add\n      swap2\n      jump(tag_191)\n    tag_192:\n      dup3\n      add\n      swap2\n      swap1\n      0x00\n      mstore\n      keccak256(0x00, 0x20)\n      swap1\n    tag_193:\n      dup2\n      sload\n      dup2\n      mstore\n      swap1\n      0x01\n      add\n      swap1\n      0x20\n      add\n      dup1\n      dup4\n      gt\n      tag_193\n      jumpi\n      dup3\n      swap1\n      sub\n      0x1f\n      and\n      dup3\n      add\n      swap2\n    tag_191:\n      pop\n      pop\n      pop\n      pop\n      pop\n      dup2\n      jump\t// out\n        /* \"Crowdfunding/Crowdfunding.sol\":2398:2594  function removeTier(uint256 _index) public onlyOwner{... */\n    tag_83:\n        /* \"Crowdfunding/Crowdfunding.sol\":687:692  owner */\n      0x04\n      0x00\n      swap1\n      sload\n      swap1\n      0x0100\n      exp\n      swap1\n      div\n      0xffffffffffffffffffffffffffffffffffffffff\n      and\n        /* \"Crowdfunding/Crowdfunding.sol\":673:692  msg.sender == owner */\n      0xffffffffffffffffffffffffffffffffffffffff\n      and\n        /* \"Crowdfunding/Crowdfunding.sol\":673:683  msg.sender */\n      caller\n        /* \"Crowdfunding/Crowdfunding.sol\":673:692  msg.sender == owner */\n      0xffffffffffffffffffffffffffffffffffffffff\n      and\n      eq\n        /* \"Crowdfunding/Crowdfunding.sol\":665:710  require(msg.sender == owner, \"Not the owner\") */\n      tag_195\n      jumpi\n      mload(0x40)\n      0x08c379a000000000000000000000000000000000000000000000000000000000\n      dup2\n      mstore\n      0x04\n      add\n      tag_196\n      swap1\n      tag_142\n      jump\t// in\n    tag_196:\n      mload(0x40)\n      dup1\n      swap2\n      sub\n      swap1\n      revert\n    tag_195:\n        /* \"Crowdfunding/Crowdfunding.sol\":2478:2483  tiers */\n      0x05\n        /* \"Crowdfunding/Crowdfunding.sol\":2478:2490  tiers.length */\n      dup1\n      sload\n      swap1\n      pop\n        /* \"Crowdfunding/Crowdfunding.sol\":2469:2475  _index */\n      dup2\n        /* \"Crowdfunding/Crowdfunding.sol\":2469:2490  _index < tiers.length */\n      lt\n        /* \"Crowdfunding/Crowdfunding.sol\":2461:2514  require(_index < tiers.length, \"Tier does not exist\") */\n      tag_198\n      jumpi\n      mload(0x40)\n      0x08c379a000000000000000000000000000000000000000000000000000000000\n      dup2\n      mstore\n      0x04\n      add\n      tag_199\n      swap1\n      tag_200\n      jump\t// in\n    tag_199:\n      mload(0x40)\n      dup1\n      swap2\n      sub\n      swap1\n      revert\n    tag_198:\n        /* \"Crowdfunding/Crowdfunding.sol\":2541:2546  tiers */\n      0x05\n        /* \"Crowdfunding/Crowdfunding.sol\":2562:2563  1 */\n      0x01\n        /* \"Crowdfunding/Crowdfunding.sol\":2547:2552  tiers */\n      0x05\n        /* \"Crowdfunding/Crowdfunding.sol\":2547:2559  tiers.length */\n      dup1\n      sload\n      swap1\n      pop\n        /* \"Crowdfunding/Crowdfunding.sol\":2547:2563  tiers.length - 1 */\n      tag_201\n      swap2\n      swap1\n      tag_202\n      jump\t// in\n    tag_201:\n        /* \"Crowdfunding/Crowdfunding.sol\":2541:2564  tiers[tiers.length - 1] */\n      dup2\n      sload\n      dup2\n      lt\n      tag_203\n      jumpi\n      tag_204\n      tag_205\n      jump\t// in\n    tag_204:\n    tag_203:\n      swap1\n      0x00\n      mstore\n      keccak256(0x00, 0x20)\n      swap1\n      0x03\n      mul\n      add\n        /* \"Crowdfunding/Crowdfunding.sol\":2525:2530  tiers */\n      0x05\n        /* \"Crowdfunding/Crowdfunding.sol\":2531:2537  _index */\n      dup3\n        /* \"Crowdfunding/Crowdfunding.sol\":2525:2538  tiers[_index] */\n      dup2\n      sload\n      dup2\n      lt\n      tag_207\n      jumpi\n      tag_208\n      tag_205\n      jump\t// in\n    tag_208:\n    tag_207:\n      swap1\n      0x00\n      mstore\n      keccak256(0x00, 0x20)\n      swap1\n      0x03\n      mul\n      add\n        /* \"Crowdfunding/Crowdfunding.sol\":2525:2564  tiers[_index] = tiers[tiers.length - 1] */\n      0x00\n      dup3\n      add\n      dup2\n      0x00\n      add\n      swap1\n      dup2\n      tag_210\n      swap2\n      swap1\n      tag_211\n      jump\t// in\n    tag_210:\n      pop\n      0x01\n      dup3\n      add\n      sload\n      dup2\n      0x01\n      add\n      sstore\n      0x02\n      dup3\n      add\n      sload\n      dup2\n      0x02\n      add\n      sstore\n      swap1\n      pop\n      pop\n        /* \"Crowdfunding/Crowdfunding.sol\":2575:2580  tiers */\n      0x05\n        /* \"Crowdfunding/Crowdfunding.sol\":2575:2586  tiers.pop() */\n      dup1\n      sload\n      dup1\n      tag_212\n      jumpi\n      tag_213\n      tag_214\n      jump\t// in\n    tag_213:\n    tag_212:\n      0x01\n      swap1\n      sub\n      dup2\n      dup2\n      swap1\n      0x00\n      mstore\n      keccak256(0x00, 0x20)\n      swap1\n      0x03\n      mul\n      add\n      0x00\n      dup1\n      dup3\n      add\n      0x00\n      tag_216\n      swap2\n      swap1\n      tag_217\n      jump\t// in\n    tag_216:\n      0x01\n      dup3\n      add\n      0x00\n      swap1\n      sstore\n      0x02\n      dup3\n      add\n      0x00\n      swap1\n      sstore\n      pop\n      pop\n      swap1\n      sstore\n        /* \"Crowdfunding/Crowdfunding.sol\":2398:2594  function removeTier(uint256 _index) public onlyOwner{... */\n      pop\n      jump\t// out\n        /* \"Crowdfunding/Crowdfunding.sol\":201:221  address public owner */\n    tag_86:\n      0x04\n      0x00\n      swap1\n      sload\n      swap1\n      0x0100\n      exp\n      swap1\n      div\n      0xffffffffffffffffffffffffffffffffffffffff\n      and\n      dup2\n      jump\t// out\n        /* \"Crowdfunding/Crowdfunding.sol\":2192:2390  function addTier(string memory _name,... */\n    tag_93:\n        /* \"Crowdfunding/Crowdfunding.sol\":687:692  owner */\n      0x04\n      0x00\n      swap1\n      sload\n      swap1\n      0x0100\n      exp\n      swap1\n      div\n      0xffffffffffffffffffffffffffffffffffffffff\n      and\n        /* \"Crowdfunding/Crowdfunding.sol\":673:692  msg.sender == owner */\n      0xffffffffffffffffffffffffffffffffffffffff\n      and\n        /* \"Crowdfunding/Crowdfunding.sol\":673:683  msg.sender */\n      caller\n        /* \"Crowdfunding/Crowdfunding.sol\":673:692  msg.sender == owner */\n      0xffffffffffffffffffffffffffffffffffffffff\n      and\n      eq\n        /* \"Crowdfunding/Crowdfunding.sol\":665:710  require(msg.sender == owner, \"Not the owner\") */\n      tag_219\n      jumpi\n      mload(0x40)\n      0x08c379a000000000000000000000000000000000000000000000000000000000\n      dup2\n      mstore\n      0x04\n      add\n      tag_220\n      swap1\n      tag_142\n      jump\t// in\n    tag_220:\n      mload(0x40)\n      dup1\n      swap2\n      sub\n      swap1\n      revert\n    tag_219:\n        /* \"Crowdfunding/Crowdfunding.sol\":2301:2302  0 */\n      0x00\n        /* \"Crowdfunding/Crowdfunding.sol\":2291:2298  _amount */\n      dup2\n        /* \"Crowdfunding/Crowdfunding.sol\":2291:2302  _amount > 0 */\n      gt\n        /* \"Crowdfunding/Crowdfunding.sol\":2283:2336  require(_amount > 0, \"Amount must be greater than 0\") */\n      tag_222\n      jumpi\n      mload(0x40)\n      0x08c379a000000000000000000000000000000000000000000000000000000000\n      dup2\n      mstore\n      0x04\n      add\n      tag_223\n      swap1\n      tag_224\n      jump\t// in\n    tag_223:\n      mload(0x40)\n      dup1\n      swap2\n      sub\n      swap1\n      revert\n    tag_222:\n        /* \"Crowdfunding/Crowdfunding.sol\":2347:2352  tiers */\n      0x05\n        /* \"Crowdfunding/Crowdfunding.sol\":2358:2381  Tier(_name, _amount, 0) */\n      mload(0x40)\n      dup1\n      0x60\n      add\n      0x40\n      mstore\n      dup1\n        /* \"Crowdfunding/Crowdfunding.sol\":2363:2368  _name */\n      dup5\n        /* \"Crowdfunding/Crowdfunding.sol\":2358:2381  Tier(_name, _amount, 0) */\n      dup2\n      mstore\n      0x20\n      add\n        /* \"Crowdfunding/Crowdfunding.sol\":2370:2377  _amount */\n      dup4\n        /* \"Crowdfunding/Crowdfunding.sol\":2358:2381  Tier(_name, _amount, 0) */\n      dup2\n      mstore\n      0x20\n      add\n        /* \"Crowdfunding/Crowdfunding.sol\":2379:2380  0 */\n      0x00\n        /* \"Crowdfunding/Crowdfunding.sol\":2358:2381  Tier(_name, _amount, 0) */\n      dup2\n      mstore\n      pop\n        /* \"Crowdfunding/Crowdfunding.sol\":2347:2382  tiers.push(Tier(_name, _amount, 0)) */\n      swap1\n      dup1\n      0x01\n      dup2\n      sload\n      add\n      dup1\n      dup3\n      sstore\n      dup1\n      swap2\n      pop\n      pop\n      0x01\n      swap1\n      sub\n      swap1\n      0x00\n      mstore\n      keccak256(0x00, 0x20)\n      swap1\n      0x03\n      mul\n      add\n      0x00\n      swap1\n      swap2\n      swap1\n      swap2\n      swap1\n      swap2\n      pop\n      0x00\n      dup3\n      add\n      mload\n      dup2\n      0x00\n      add\n      swap1\n      dup2\n      tag_226\n      swap2\n      swap1\n      tag_227\n      jump\t// in\n    tag_226:\n      pop\n      0x20\n      dup3\n      add\n      mload\n      dup2\n      0x01\n      add\n      sstore\n      0x40\n      dup3\n      add\n      mload\n      dup2\n      0x02\n      add\n      sstore\n      pop\n      pop\n        /* \"Crowdfunding/Crowdfunding.sol\":2192:2390  function addTier(string memory _name,... */\n      pop\n      pop\n      jump\t// out\n        /* \"Crowdfunding/Crowdfunding.sol\":583:625  mapping (address => Backer) public backers */\n    tag_98:\n      mstore(0x20, 0x06)\n      dup1\n      0x00\n      mstore\n      keccak256(0x00, 0x40)\n      0x00\n      swap2\n      pop\n      swap1\n      pop\n      dup1\n      0x00\n      add\n      sload\n      swap1\n      pop\n      dup2\n      jump\t// out\n        /* \"Crowdfunding/Crowdfunding.sol\":308:334  CampaignState public state */\n    tag_102:\n      0x04\n      0x15\n      swap1\n      sload\n      swap1\n      0x0100\n      exp\n      swap1\n      div\n      0xff\n      and\n      dup2\n      jump\t// out\n        /* \"Crowdfunding/Crowdfunding.sol\":3699:3773  function togglePause() public onlyOwner{... */\n    tag_106:\n        /* \"Crowdfunding/Crowdfunding.sol\":687:692  owner */\n      0x04\n      0x00\n      swap1\n      sload\n      swap1\n      0x0100\n      exp\n      swap1\n      div\n      0xffffffffffffffffffffffffffffffffffffffff\n      and\n        /* \"Crowdfunding/Crowdfunding.sol\":673:692  msg.sender == owner */\n      0xffffffffffffffffffffffffffffffffffffffff\n      and\n        /* \"Crowdfunding/Crowdfunding.sol\":673:683  msg.sender */\n      caller\n        /* \"Crowdfunding/Crowdfunding.sol\":673:692  msg.sender == owner */\n      0xffffffffffffffffffffffffffffffffffffffff\n      and\n      eq\n        /* \"Crowdfunding/Crowdfunding.sol\":665:710  require(msg.sender == owner, \"Not the owner\") */\n      tag_229\n      jumpi\n      mload(0x40)\n      0x08c379a000000000000000000000000000000000000000000000000000000000\n      dup2\n      mstore\n      0x04\n      add\n      tag_230\n      swap1\n      tag_142\n      jump\t// in\n    tag_230:\n      mload(0x40)\n      dup1\n      swap2\n      sub\n      swap1\n      revert\n    tag_229:\n        /* \"Crowdfunding/Crowdfunding.sol\":3759:3765  paused */\n      0x04\n      0x14\n      swap1\n      sload\n      swap1\n      0x0100\n      exp\n      swap1\n      div\n      0xff\n      and\n        /* \"Crowdfunding/Crowdfunding.sol\":3758:3765  !paused */\n      iszero\n        /* \"Crowdfunding/Crowdfunding.sol\":3749:3755  paused */\n      0x04\n      0x14\n        /* \"Crowdfunding/Crowdfunding.sol\":3749:3765  paused = !paused */\n      0x0100\n      exp\n      dup2\n      sload\n      dup2\n      0xff\n      mul\n      not\n      and\n      swap1\n      dup4\n      iszero\n      iszero\n      mul\n      or\n      swap1\n      sstore\n      pop\n        /* \"Crowdfunding/Crowdfunding.sol\":3699:3773  function togglePause() public onlyOwner{... */\n      jump\t// out\n        /* \"Crowdfunding/Crowdfunding.sol\":1773:2184  function fund(uint256 _tierIndex) public payable campaignOpen{... */\n    tag_109:\n        /* \"Crowdfunding/Crowdfunding.sol\":789:809  CampaignState.Active */\n      0x00\n        /* \"Crowdfunding/Crowdfunding.sol\":780:809  state == CampaignState.Active */\n      0x02\n      dup2\n      gt\n      iszero\n      tag_233\n      jumpi\n      tag_234\n      tag_131\n      jump\t// in\n    tag_234:\n    tag_233:\n        /* \"Crowdfunding/Crowdfunding.sol\":780:785  state */\n      0x04\n      0x15\n      swap1\n      sload\n      swap1\n      0x0100\n      exp\n      swap1\n      div\n      0xff\n      and\n        /* \"Crowdfunding/Crowdfunding.sol\":780:809  state == CampaignState.Active */\n      0x02\n      dup2\n      gt\n      iszero\n      tag_235\n      jumpi\n      tag_236\n      tag_131\n      jump\t// in\n    tag_236:\n    tag_235:\n      eq\n        /* \"Crowdfunding/Crowdfunding.sol\":772:836  require(state == CampaignState.Active, \"Campaign is not active\") */\n      tag_237\n      jumpi\n      mload(0x40)\n      0x08c379a000000000000000000000000000000000000000000000000000000000\n      dup2\n      mstore\n      0x04\n      add\n      tag_238\n      swap1\n      tag_150\n      jump\t// in\n    tag_238:\n      mload(0x40)\n      dup1\n      swap2\n      sub\n      swap1\n      revert\n    tag_237:\n        /* \"Crowdfunding/Crowdfunding.sol\":1866:1871  tiers */\n      0x05\n        /* \"Crowdfunding/Crowdfunding.sol\":1866:1878  tiers.length */\n      dup1\n      sload\n      swap1\n      pop\n        /* \"Crowdfunding/Crowdfunding.sol\":1853:1863  _tierIndex */\n      dup2\n        /* \"Crowdfunding/Crowdfunding.sol\":1853:1878  _tierIndex < tiers.length */\n      lt\n        /* \"Crowdfunding/Crowdfunding.sol\":1845:1895  require(_tierIndex < tiers.length, \"Invalid tier\") */\n      tag_240\n      jumpi\n      mload(0x40)\n      0x08c379a000000000000000000000000000000000000000000000000000000000\n      dup2\n      mstore\n      0x04\n      add\n      tag_241\n      swap1\n      tag_242\n      jump\t// in\n    tag_241:\n      mload(0x40)\n      dup1\n      swap2\n      sub\n      swap1\n      revert\n    tag_240:\n        /* \"Crowdfunding/Crowdfunding.sol\":1927:1932  tiers */\n      0x05\n        /* \"Crowdfunding/Crowdfunding.sol\":1933:1943  _tierIndex */\n      dup2\n        /* \"Crowdfunding/Crowdfunding.sol\":1927:1944  tiers[_tierIndex] */\n      dup2\n      sload\n      dup2\n      lt\n      tag_243\n      jumpi\n      tag_244\n      tag_205\n      jump\t// in\n    tag_244:\n    tag_243:\n      swap1\n      0x00\n      mstore\n      keccak256(0x00, 0x20)\n      swap1\n      0x03\n      mul\n      add\n        /* \"Crowdfunding/Crowdfunding.sol\":1927:1951  tiers[_tierIndex].amount */\n      0x01\n      add\n      sload\n        /* \"Crowdfunding/Crowdfunding.sol\":1914:1923  msg.value */\n      callvalue\n        /* \"Crowdfunding/Crowdfunding.sol\":1914:1951  msg.value == tiers[_tierIndex].amount */\n      eq\n        /* \"Crowdfunding/Crowdfunding.sol\":1906:1972  require(msg.value == tiers[_tierIndex].amount, \"Incorrect amount\") */\n      tag_246\n      jumpi\n      mload(0x40)\n      0x08c379a000000000000000000000000000000000000000000000000000000000\n      dup2\n      mstore\n      0x04\n      add\n      tag_247\n      swap1\n      tag_248\n      jump\t// in\n    tag_247:\n      mload(0x40)\n      dup1\n      swap2\n      sub\n      swap1\n      revert\n    tag_246:\n        /* \"Crowdfunding/Crowdfunding.sol\":1985:1990  tiers */\n      0x05\n        /* \"Crowdfunding/Crowdfunding.sol\":1991:2001  _tierIndex */\n      dup2\n        /* \"Crowdfunding/Crowdfunding.sol\":1985:2002  tiers[_tierIndex] */\n      dup2\n      sload\n      dup2\n      lt\n      tag_249\n      jumpi\n      tag_250\n      tag_205\n      jump\t// in\n    tag_250:\n    tag_249:\n      swap1\n      0x00\n      mstore\n      keccak256(0x00, 0x20)\n      swap1\n      0x03\n      mul\n      add\n        /* \"Crowdfunding/Crowdfunding.sol\":1985:2010  tiers[_tierIndex].backers */\n      0x02\n      add\n      0x00\n        /* \"Crowdfunding/Crowdfunding.sol\":1985:2012  tiers[_tierIndex].backers++ */\n      dup2\n      sload\n      dup1\n      swap3\n      swap2\n      swap1\n      tag_252\n      swap1\n      tag_253\n      jump\t// in\n    tag_252:\n      swap2\n      swap1\n      pop\n      sstore\n      pop\n        /* \"Crowdfunding/Crowdfunding.sol\":2064:2073  msg.value */\n      callvalue\n        /* \"Crowdfunding/Crowdfunding.sol\":2023:2030  backers */\n      0x06\n        /* \"Crowdfunding/Crowdfunding.sol\":2023:2042  backers[msg.sender] */\n      0x00\n        /* \"Crowdfunding/Crowdfunding.sol\":2031:2041  msg.sender */\n      caller\n        /* \"Crowdfunding/Crowdfunding.sol\":2023:2042  backers[msg.sender] */\n      0xffffffffffffffffffffffffffffffffffffffff\n      and\n      0xffffffffffffffffffffffffffffffffffffffff\n      and\n      dup2\n      mstore\n      0x20\n      add\n      swap1\n      dup2\n      mstore\n      0x20\n      add\n      0x00\n      keccak256\n        /* \"Crowdfunding/Crowdfunding.sol\":2023:2060  backers[msg.sender].totalContribution */\n      0x00\n      add\n      0x00\n        /* \"Crowdfunding/Crowdfunding.sol\":2023:2073  backers[msg.sender].totalContribution += msg.value */\n      dup3\n      dup3\n      sload\n      tag_254\n      swap2\n      swap1\n      tag_155\n      jump\t// in\n    tag_254:\n      swap3\n      pop\n      pop\n      dup2\n      swap1\n      sstore\n      pop\n        /* \"Crowdfunding/Crowdfunding.sol\":2130:2134  true */\n      0x01\n        /* \"Crowdfunding/Crowdfunding.sol\":2084:2091  backers */\n      0x06\n        /* \"Crowdfunding/Crowdfunding.sol\":2084:2103  backers[msg.sender] */\n      0x00\n        /* \"Crowdfunding/Crowdfunding.sol\":2092:2102  msg.sender */\n      caller\n        /* \"Crowdfunding/Crowdfunding.sol\":2084:2103  backers[msg.sender] */\n      0xffffffffffffffffffffffffffffffffffffffff\n      and\n      0xffffffffffffffffffffffffffffffffffffffff\n      and\n      dup2\n      mstore\n      0x20\n      add\n      swap1\n      dup2\n      mstore\n      0x20\n      add\n      0x00\n      keccak256\n        /* \"Crowdfunding/Crowdfunding.sol\":2084:2115  backers[msg.sender].fundedTiers */\n      0x01\n      add\n        /* \"Crowdfunding/Crowdfunding.sol\":2084:2127  backers[msg.sender].fundedTiers[_tierIndex] */\n      0x00\n        /* \"Crowdfunding/Crowdfunding.sol\":2116:2126  _tierIndex */\n      dup4\n        /* \"Crowdfunding/Crowdfunding.sol\":2084:2127  backers[msg.sender].fundedTiers[_tierIndex] */\n      dup2\n      mstore\n      0x20\n      add\n      swap1\n      dup2\n      mstore\n      0x20\n      add\n      0x00\n      keccak256\n      0x00\n        /* \"Crowdfunding/Crowdfunding.sol\":2084:2134  backers[msg.sender].fundedTiers[_tierIndex] = true */\n      0x0100\n      exp\n      dup2\n      sload\n      dup2\n      0xff\n      mul\n      not\n      and\n      swap1\n      dup4\n      iszero\n      iszero\n      mul\n      or\n      swap1\n      sstore\n      pop\n        /* \"Crowdfunding/Crowdfunding.sol\":2147:2176  checkAndUpdateCampaignState() */\n      tag_255\n        /* \"Crowdfunding/Crowdfunding.sol\":2147:2174  checkAndUpdateCampaignState */\n      tag_161\n        /* \"Crowdfunding/Crowdfunding.sol\":2147:2176  checkAndUpdateCampaignState() */\n      jump\t// in\n    tag_255:\n        /* \"Crowdfunding/Crowdfunding.sol\":1773:2184  function fund(uint256 _tierIndex) public payable campaignOpen{... */\n      pop\n      jump\t// out\n        /* \"Crowdfunding/Crowdfunding.sol\":3605:3691  function getTiers() public view returns (Tier[] memory){... */\n    tag_112:\n        /* \"Crowdfunding/Crowdfunding.sol\":3646:3659  Tier[] memory */\n      0x60\n        /* \"Crowdfunding/Crowdfunding.sol\":3678:3683  tiers */\n      0x05\n        /* \"Crowdfunding/Crowdfunding.sol\":3671:3683  return tiers */\n      dup1\n      sload\n      dup1\n      0x20\n      mul\n      0x20\n      add\n      mload(0x40)\n      swap1\n      dup2\n      add\n      0x40\n      mstore\n      dup1\n      swap3\n      swap2\n      swap1\n      dup2\n      dup2\n      mstore\n      0x20\n      add\n      0x00\n      swap1\n    tag_257:\n      dup3\n      dup3\n      lt\n      iszero\n      tag_258\n      jumpi\n      dup4\n      dup3\n      swap1\n      0x00\n      mstore\n      keccak256(0x00, 0x20)\n      swap1\n      0x03\n      mul\n      add\n      mload(0x40)\n      dup1\n      0x60\n      add\n      0x40\n      mstore\n      swap1\n      dup2\n      0x00\n      dup3\n      add\n      dup1\n      sload\n      tag_260\n      swap1\n      tag_118\n      jump\t// in\n    tag_260:\n      dup1\n      0x1f\n      add\n      0x20\n      dup1\n      swap2\n      div\n      mul\n      0x20\n      add\n      mload(0x40)\n      swap1\n      dup2\n      add\n      0x40\n      mstore\n      dup1\n      swap3\n      swap2\n      swap1\n      dup2\n      dup2\n      mstore\n      0x20\n      add\n      dup3\n      dup1\n      sload\n      tag_261\n      swap1\n      tag_118\n      jump\t// in\n    tag_261:\n      dup1\n      iszero\n      tag_262\n      jumpi\n      dup1\n      0x1f\n      lt\n      tag_263\n      jumpi\n      0x0100\n      dup1\n      dup4\n      sload\n      div\n      mul\n      dup4\n      mstore\n      swap2\n      0x20\n      add\n      swap2\n      jump(tag_262)\n    tag_263:\n      dup3\n      add\n      swap2\n      swap1\n      0x00\n      mstore\n      keccak256(0x00, 0x20)\n      swap1\n    tag_264:\n      dup2\n      sload\n      dup2\n      mstore\n      swap1\n      0x01\n      add\n      swap1\n      0x20\n      add\n      dup1\n      dup4\n      gt\n      tag_264\n      jumpi\n      dup3\n      swap1\n      sub\n      0x1f\n      and\n      dup3\n      add\n      swap2\n    tag_262:\n      pop\n      pop\n      pop\n      pop\n      pop\n      dup2\n      mstore\n      0x20\n      add\n      0x01\n      dup3\n      add\n      sload\n      dup2\n      mstore\n      0x20\n      add\n      0x02\n      dup3\n      add\n      sload\n      dup2\n      mstore\n      pop\n      pop\n      dup2\n      mstore\n      0x20\n      add\n      swap1\n      0x01\n      add\n      swap1\n      jump(tag_257)\n    tag_258:\n      pop\n      pop\n      pop\n      pop\n      swap1\n      pop\n        /* \"Crowdfunding/Crowdfunding.sol\":3605:3691  function getTiers() public view returns (Tier[] memory){... */\n      swap1\n      jump\t// out\n        /* \"Crowdfunding/Crowdfunding.sol\":1360:1765  function checkAndUpdateCampaignState() internal {... */\n    tag_161:\n        /* \"Crowdfunding/Crowdfunding.sol\":1431:1451  CampaignState.Active */\n      0x00\n        /* \"Crowdfunding/Crowdfunding.sol\":1422:1451  state == CampaignState.Active */\n      0x02\n      dup2\n      gt\n      iszero\n      tag_266\n      jumpi\n      tag_267\n      tag_131\n      jump\t// in\n    tag_267:\n    tag_266:\n        /* \"Crowdfunding/Crowdfunding.sol\":1422:1427  state */\n      0x04\n      0x15\n      swap1\n      sload\n      swap1\n      0x0100\n      exp\n      swap1\n      div\n      0xff\n      and\n        /* \"Crowdfunding/Crowdfunding.sol\":1422:1451  state == CampaignState.Active */\n      0x02\n      dup2\n      gt\n      iszero\n      tag_268\n      jumpi\n      tag_269\n      tag_131\n      jump\t// in\n    tag_269:\n    tag_268:\n      sub\n        /* \"Crowdfunding/Crowdfunding.sol\":1419:1758  if(state == CampaignState.Active){... */\n      tag_270\n      jumpi\n        /* \"Crowdfunding/Crowdfunding.sol\":1489:1497  deadline */\n      sload(0x03)\n        /* \"Crowdfunding/Crowdfunding.sol\":1470:1485  block.timestamp */\n      timestamp\n        /* \"Crowdfunding/Crowdfunding.sol\":1470:1497  block.timestamp >= deadline */\n      lt\n        /* \"Crowdfunding/Crowdfunding.sol\":1467:1747  if(block.timestamp >= deadline){... */\n      tag_271\n      jumpi\n        /* \"Crowdfunding/Crowdfunding.sol\":1550:1554  goal */\n      sload(0x02)\n        /* \"Crowdfunding/Crowdfunding.sol\":1525:1546  address(this).balance */\n      selfbalance\n        /* \"Crowdfunding/Crowdfunding.sol\":1525:1554  address(this).balance >= goal */\n      lt\n      iszero\n        /* \"Crowdfunding/Crowdfunding.sol\":1525:1603  address(this).balance >= goal ? CampaignState.Successful: CampaignState.Failed */\n      tag_272\n      jumpi\n        /* \"Crowdfunding/Crowdfunding.sol\":1583:1603  CampaignState.Failed */\n      0x02\n        /* \"Crowdfunding/Crowdfunding.sol\":1525:1603  address(this).balance >= goal ? CampaignState.Successful: CampaignState.Failed */\n      jump(tag_273)\n    tag_272:\n        /* \"Crowdfunding/Crowdfunding.sol\":1557:1581  CampaignState.Successful */\n      0x01\n        /* \"Crowdfunding/Crowdfunding.sol\":1525:1603  address(this).balance >= goal ? CampaignState.Successful: CampaignState.Failed */\n    tag_273:\n        /* \"Crowdfunding/Crowdfunding.sol\":1517:1522  state */\n      0x04\n      0x15\n        /* \"Crowdfunding/Crowdfunding.sol\":1517:1603  state = address(this).balance >= goal ? CampaignState.Successful: CampaignState.Failed */\n      0x0100\n      exp\n      dup2\n      sload\n      dup2\n      0xff\n      mul\n      not\n      and\n      swap1\n      dup4\n      0x02\n      dup2\n      gt\n      iszero\n      tag_274\n      jumpi\n      tag_275\n      tag_131\n      jump\t// in\n    tag_275:\n    tag_274:\n      mul\n      or\n      swap1\n      sstore\n      pop\n        /* \"Crowdfunding/Crowdfunding.sol\":1467:1747  if(block.timestamp >= deadline){... */\n      jump(tag_276)\n    tag_271:\n        /* \"Crowdfunding/Crowdfunding.sol\":1677:1681  goal */\n      sload(0x02)\n        /* \"Crowdfunding/Crowdfunding.sol\":1652:1673  address(this).balance */\n      selfbalance\n        /* \"Crowdfunding/Crowdfunding.sol\":1652:1681  address(this).balance >= goal */\n      lt\n      iszero\n        /* \"Crowdfunding/Crowdfunding.sol\":1652:1730  address(this).balance >= goal ? CampaignState.Successful: CampaignState.Active */\n      tag_277\n      jumpi\n        /* \"Crowdfunding/Crowdfunding.sol\":1710:1730  CampaignState.Active */\n      0x00\n        /* \"Crowdfunding/Crowdfunding.sol\":1652:1730  address(this).balance >= goal ? CampaignState.Successful: CampaignState.Active */\n      jump(tag_278)\n    tag_277:\n        /* \"Crowdfunding/Crowdfunding.sol\":1684:1708  CampaignState.Successful */\n      0x01\n        /* \"Crowdfunding/Crowdfunding.sol\":1652:1730  address(this).balance >= goal ? CampaignState.Successful: CampaignState.Active */\n    tag_278:\n        /* \"Crowdfunding/Crowdfunding.sol\":1644:1649  state */\n      0x04\n      0x15\n        /* \"Crowdfunding/Crowdfunding.sol\":1644:1730  state = address(this).balance >= goal ? CampaignState.Successful: CampaignState.Active */\n      0x0100\n      exp\n      dup2\n      sload\n      dup2\n      0xff\n      mul\n      not\n      and\n      swap1\n      dup4\n      0x02\n      dup2\n      gt\n      iszero\n      tag_279\n      jumpi\n      tag_280\n      tag_131\n      jump\t// in\n    tag_280:\n    tag_279:\n      mul\n      or\n      swap1\n      sstore\n      pop\n        /* \"Crowdfunding/Crowdfunding.sol\":1467:1747  if(block.timestamp >= deadline){... */\n    tag_276:\n        /* \"Crowdfunding/Crowdfunding.sol\":1419:1758  if(state == CampaignState.Active){... */\n    tag_270:\n        /* \"Crowdfunding/Crowdfunding.sol\":1360:1765  function checkAndUpdateCampaignState() internal {... */\n      jump\t// out\n    tag_217:\n      pop\n      dup1\n      sload\n      tag_281\n      swap1\n      tag_118\n      jump\t// in\n    tag_281:\n      0x00\n      dup3\n      sstore\n      dup1\n      0x1f\n      lt\n      tag_283\n      jumpi\n      pop\n      jump(tag_282)\n    tag_283:\n      0x1f\n      add\n      0x20\n      swap1\n      div\n      swap1\n      0x00\n      mstore\n      keccak256(0x00, 0x20)\n      swap1\n      dup2\n      add\n      swap1\n      tag_284\n      swap2\n      swap1\n      tag_285\n      jump\t// in\n    tag_284:\n    tag_282:\n      pop\n      jump\t// out\n    tag_285:\n    tag_286:\n      dup1\n      dup3\n      gt\n      iszero\n      tag_287\n      jumpi\n      0x00\n      dup2\n      0x00\n      swap1\n      sstore\n      pop\n      0x01\n      add\n      jump(tag_286)\n    tag_287:\n      pop\n      swap1\n      jump\t// out\n        /* \"#utility.yul\":7:82   */\n    tag_288:\n        /* \"#utility.yul\":40:46   */\n      0x00\n        /* \"#utility.yul\":73:75   */\n      0x40\n        /* \"#utility.yul\":67:76   */\n      mload\n        /* \"#utility.yul\":57:76   */\n      swap1\n      pop\n        /* \"#utility.yul\":7:82   */\n      swap1\n      jump\t// out\n        /* \"#utility.yul\":88:205   */\n    tag_289:\n        /* \"#utility.yul\":197:198   */\n      0x00\n        /* \"#utility.yul\":194:195   */\n      dup1\n        /* \"#utility.yul\":187:199   */\n      revert\n        /* \"#utility.yul\":211:328   */\n    tag_290:\n        /* \"#utility.yul\":320:321   */\n      0x00\n        /* \"#utility.yul\":317:318   */\n      dup1\n        /* \"#utility.yul\":310:322   */\n      revert\n        /* \"#utility.yul\":334:411   */\n    tag_291:\n        /* \"#utility.yul\":371:378   */\n      0x00\n        /* \"#utility.yul\":400:405   */\n      dup2\n        /* \"#utility.yul\":389:405   */\n      swap1\n      pop\n        /* \"#utility.yul\":334:411   */\n      swap2\n      swap1\n      pop\n      jump\t// out\n        /* \"#utility.yul\":417:539   */\n    tag_292:\n        /* \"#utility.yul\":490:514   */\n      tag_374\n        /* \"#utility.yul\":508:513   */\n      dup2\n        /* \"#utility.yul\":490:514   */\n      tag_291\n      jump\t// in\n    tag_374:\n        /* \"#utility.yul\":483:488   */\n      dup2\n        /* \"#utility.yul\":480:515   */\n      eq\n        /* \"#utility.yul\":470:533   */\n      tag_375\n      jumpi\n        /* \"#utility.yul\":529:530   */\n      0x00\n        /* \"#utility.yul\":526:527   */\n      dup1\n        /* \"#utility.yul\":519:531   */\n      revert\n        /* \"#utility.yul\":470:533   */\n    tag_375:\n        /* \"#utility.yul\":417:539   */\n      pop\n      jump\t// out\n        /* \"#utility.yul\":545:684   */\n    tag_293:\n        /* \"#utility.yul\":591:596   */\n      0x00\n        /* \"#utility.yul\":629:635   */\n      dup2\n        /* \"#utility.yul\":616:636   */\n      calldataload\n        /* \"#utility.yul\":607:636   */\n      swap1\n      pop\n        /* \"#utility.yul\":645:678   */\n      tag_377\n        /* \"#utility.yul\":672:677   */\n      dup2\n        /* \"#utility.yul\":645:678   */\n      tag_292\n      jump\t// in\n    tag_377:\n        /* \"#utility.yul\":545:684   */\n      swap3\n      swap2\n      pop\n      pop\n      jump\t// out\n        /* \"#utility.yul\":690:1019   */\n    tag_28:\n        /* \"#utility.yul\":749:755   */\n      0x00\n        /* \"#utility.yul\":798:800   */\n      0x20\n        /* \"#utility.yul\":786:795   */\n      dup3\n        /* \"#utility.yul\":777:784   */\n      dup5\n        /* \"#utility.yul\":773:796   */\n      sub\n        /* \"#utility.yul\":769:801   */\n      slt\n        /* \"#utility.yul\":766:885   */\n      iszero\n      tag_379\n      jumpi\n        /* \"#utility.yul\":804:883   */\n      tag_380\n      tag_289\n      jump\t// in\n    tag_380:\n        /* \"#utility.yul\":766:885   */\n    tag_379:\n        /* \"#utility.yul\":924:925   */\n      0x00\n        /* \"#utility.yul\":949:1002   */\n      tag_381\n        /* \"#utility.yul\":994:1001   */\n      dup5\n        /* \"#utility.yul\":985:991   */\n      dup3\n        /* \"#utility.yul\":974:983   */\n      dup6\n        /* \"#utility.yul\":970:992   */\n      add\n        /* \"#utility.yul\":949:1002   */\n      tag_293\n      jump\t// in\n    tag_381:\n        /* \"#utility.yul\":939:1002   */\n      swap2\n      pop\n        /* \"#utility.yul\":895:1012   */\n      pop\n        /* \"#utility.yul\":690:1019   */\n      swap3\n      swap2\n      pop\n      pop\n      jump\t// out\n        /* \"#utility.yul\":1025:1124   */\n    tag_294:\n        /* \"#utility.yul\":1077:1083   */\n      0x00\n        /* \"#utility.yul\":1111:1116   */\n      dup2\n        /* \"#utility.yul\":1105:1117   */\n      mload\n        /* \"#utility.yul\":1095:1117   */\n      swap1\n      pop\n        /* \"#utility.yul\":1025:1124   */\n      swap2\n      swap1\n      pop\n      jump\t// out\n        /* \"#utility.yul\":1130:1299   */\n    tag_295:\n        /* \"#utility.yul\":1214:1225   */\n      0x00\n        /* \"#utility.yul\":1248:1254   */\n      dup3\n        /* \"#utility.yul\":1243:1246   */\n      dup3\n        /* \"#utility.yul\":1236:1255   */\n      mstore\n        /* \"#utility.yul\":1288:1292   */\n      0x20\n        /* \"#utility.yul\":1283:1286   */\n      dup3\n        /* \"#utility.yul\":1279:1293   */\n      add\n        /* \"#utility.yul\":1264:1293   */\n      swap1\n      pop\n        /* \"#utility.yul\":1130:1299   */\n      swap3\n      swap2\n      pop\n      pop\n      jump\t// out\n        /* \"#utility.yul\":1305:1444   */\n    tag_296:\n        /* \"#utility.yul\":1394:1400   */\n      dup3\n        /* \"#utility.yul\":1389:1392   */\n      dup2\n        /* \"#utility.yul\":1384:1387   */\n      dup4\n        /* \"#utility.yul\":1378:1401   */\n      mcopy\n        /* \"#utility.yul\":1435:1436   */\n      0x00\n        /* \"#utility.yul\":1426:1432   */\n      dup4\n        /* \"#utility.yul\":1421:1424   */\n      dup4\n        /* \"#utility.yul\":1417:1433   */\n      add\n        /* \"#utility.yul\":1410:1437   */\n      mstore\n        /* \"#utility.yul\":1305:1444   */\n      pop\n      pop\n      pop\n      jump\t// out\n        /* \"#utility.yul\":1450:1552   */\n    tag_297:\n        /* \"#utility.yul\":1491:1497   */\n      0x00\n        /* \"#utility.yul\":1542:1544   */\n      0x1f\n        /* \"#utility.yul\":1538:1545   */\n      not\n        /* \"#utility.yul\":1533:1535   */\n      0x1f\n        /* \"#utility.yul\":1526:1531   */\n      dup4\n        /* \"#utility.yul\":1522:1536   */\n      add\n        /* \"#utility.yul\":1518:1546   */\n      and\n        /* \"#utility.yul\":1508:1546   */\n      swap1\n      pop\n        /* \"#utility.yul\":1450:1552   */\n      swap2\n      swap1\n      pop\n      jump\t// out\n        /* \"#utility.yul\":1558:1935   */\n    tag_298:\n        /* \"#utility.yul\":1646:1649   */\n      0x00\n        /* \"#utility.yul\":1674:1713   */\n      tag_387\n        /* \"#utility.yul\":1707:1712   */\n      dup3\n        /* \"#utility.yul\":1674:1713   */\n      tag_294\n      jump\t// in\n    tag_387:\n        /* \"#utility.yul\":1729:1800   */\n      tag_388\n        /* \"#utility.yul\":1793:1799   */\n      dup2\n        /* \"#utility.yul\":1788:1791   */\n      dup6\n        /* \"#utility.yul\":1729:1800   */\n      tag_295\n      jump\t// in\n    tag_388:\n        /* \"#utility.yul\":1722:1800   */\n      swap4\n      pop\n        /* \"#utility.yul\":1809:1874   */\n      tag_389\n        /* \"#utility.yul\":1867:1873   */\n      dup2\n        /* \"#utility.yul\":1862:1865   */\n      dup6\n        /* \"#utility.yul\":1855:1859   */\n      0x20\n        /* \"#utility.yul\":1848:1853   */\n      dup7\n        /* \"#utility.yul\":1844:1860   */\n      add\n        /* \"#utility.yul\":1809:1874   */\n      tag_296\n      jump\t// in\n    tag_389:\n        /* \"#utility.yul\":1899:1928   */\n      tag_390\n        /* \"#utility.yul\":1921:1927   */\n      dup2\n        /* \"#utility.yul\":1899:1928   */\n      tag_297\n      jump\t// in\n    tag_390:\n        /* \"#utility.yul\":1894:1897   */\n      dup5\n        /* \"#utility.yul\":1890:1929   */\n      add\n        /* \"#utility.yul\":1883:1929   */\n      swap2\n      pop\n        /* \"#utility.yul\":1650:1935   */\n      pop\n        /* \"#utility.yul\":1558:1935   */\n      swap3\n      swap2\n      pop\n      pop\n      jump\t// out\n        /* \"#utility.yul\":1941:2059   */\n    tag_299:\n        /* \"#utility.yul\":2028:2052   */\n      tag_392\n        /* \"#utility.yul\":2046:2051   */\n      dup2\n        /* \"#utility.yul\":2028:2052   */\n      tag_291\n      jump\t// in\n    tag_392:\n        /* \"#utility.yul\":2023:2026   */\n      dup3\n        /* \"#utility.yul\":2016:2053   */\n      mstore\n        /* \"#utility.yul\":1941:2059   */\n      pop\n      pop\n      jump\t// out\n        /* \"#utility.yul\":2065:2598   */\n    tag_31:\n        /* \"#utility.yul\":2234:2238   */\n      0x00\n        /* \"#utility.yul\":2272:2274   */\n      0x60\n        /* \"#utility.yul\":2261:2270   */\n      dup3\n        /* \"#utility.yul\":2257:2275   */\n      add\n        /* \"#utility.yul\":2249:2275   */\n      swap1\n      pop\n        /* \"#utility.yul\":2321:2330   */\n      dup2\n        /* \"#utility.yul\":2315:2319   */\n      dup2\n        /* \"#utility.yul\":2311:2331   */\n      sub\n        /* \"#utility.yul\":2307:2308   */\n      0x00\n        /* \"#utility.yul\":2296:2305   */\n      dup4\n        /* \"#utility.yul\":2292:2309   */\n      add\n        /* \"#utility.yul\":2285:2332   */\n      mstore\n        /* \"#utility.yul\":2349:2427   */\n      tag_394\n        /* \"#utility.yul\":2422:2426   */\n      dup2\n        /* \"#utility.yul\":2413:2419   */\n      dup7\n        /* \"#utility.yul\":2349:2427   */\n      tag_298\n      jump\t// in\n    tag_394:\n        /* \"#utility.yul\":2341:2427   */\n      swap1\n      pop\n        /* \"#utility.yul\":2437:2509   */\n      tag_395\n        /* \"#utility.yul\":2505:2507   */\n      0x20\n        /* \"#utility.yul\":2494:2503   */\n      dup4\n        /* \"#utility.yul\":2490:2508   */\n      add\n        /* \"#utility.yul\":2481:2487   */\n      dup6\n        /* \"#utility.yul\":2437:2509   */\n      tag_299\n      jump\t// in\n    tag_395:\n        /* \"#utility.yul\":2519:2591   */\n      tag_396\n        /* \"#utility.yul\":2587:2589   */\n      0x40\n        /* \"#utility.yul\":2576:2585   */\n      dup4\n        /* \"#utility.yul\":2572:2590   */\n      add\n        /* \"#utility.yul\":2563:2569   */\n      dup5\n        /* \"#utility.yul\":2519:2591   */\n      tag_299\n      jump\t// in\n    tag_396:\n        /* \"#utility.yul\":2065:2598   */\n      swap5\n      swap4\n      pop\n      pop\n      pop\n      pop\n      jump\t// out\n        /* \"#utility.yul\":2604:2917   */\n    tag_36:\n        /* \"#utility.yul\":2717:2721   */\n      0x00\n        /* \"#utility.yul\":2755:2757   */\n      0x20\n        /* \"#utility.yul\":2744:2753   */\n      dup3\n        /* \"#utility.yul\":2740:2758   */\n      add\n        /* \"#utility.yul\":2732:2758   */\n      swap1\n      pop\n        /* \"#utility.yul\":2804:2813   */\n      dup2\n        /* \"#utility.yul\":2798:2802   */\n      dup2\n        /* \"#utility.yul\":2794:2814   */\n      sub\n        /* \"#utility.yul\":2790:2791   */\n      0x00\n        /* \"#utility.yul\":2779:2788   */\n      dup4\n        /* \"#utility.yul\":2775:2792   */\n      add\n        /* \"#utility.yul\":2768:2815   */\n      mstore\n        /* \"#utility.yul\":2832:2910   */\n      tag_398\n        /* \"#utility.yul\":2905:2909   */\n      dup2\n        /* \"#utility.yul\":2896:2902   */\n      dup5\n        /* \"#utility.yul\":2832:2910   */\n      tag_298\n      jump\t// in\n    tag_398:\n        /* \"#utility.yul\":2824:2910   */\n      swap1\n      pop\n        /* \"#utility.yul\":2604:2917   */\n      swap3\n      swap2\n      pop\n      pop\n      jump\t// out\n        /* \"#utility.yul\":2923:3103   */\n    tag_131:\n        /* \"#utility.yul\":2971:3048   */\n      0x4e487b7100000000000000000000000000000000000000000000000000000000\n        /* \"#utility.yul\":2968:2969   */\n      0x00\n        /* \"#utility.yul\":2961:3049   */\n      mstore\n        /* \"#utility.yul\":3068:3072   */\n      0x21\n        /* \"#utility.yul\":3065:3066   */\n      0x04\n        /* \"#utility.yul\":3058:3073   */\n      mstore\n        /* \"#utility.yul\":3092:3096   */\n      0x24\n        /* \"#utility.yul\":3089:3090   */\n      0x00\n        /* \"#utility.yul\":3082:3097   */\n      revert\n        /* \"#utility.yul\":3109:3230   */\n    tag_300:\n        /* \"#utility.yul\":3198:3199   */\n      0x03\n        /* \"#utility.yul\":3191:3196   */\n      dup2\n        /* \"#utility.yul\":3188:3200   */\n      lt\n        /* \"#utility.yul\":3178:3224   */\n      tag_401\n      jumpi\n        /* \"#utility.yul\":3204:3222   */\n      tag_402\n      tag_131\n      jump\t// in\n    tag_402:\n        /* \"#utility.yul\":3178:3224   */\n    tag_401:\n        /* \"#utility.yul\":3109:3230   */\n      pop\n      jump\t// out\n        /* \"#utility.yul\":3236:3379   */\n    tag_301:\n        /* \"#utility.yul\":3289:3296   */\n      0x00\n        /* \"#utility.yul\":3318:3323   */\n      dup2\n        /* \"#utility.yul\":3307:3323   */\n      swap1\n      pop\n        /* \"#utility.yul\":3324:3373   */\n      tag_404\n        /* \"#utility.yul\":3367:3372   */\n      dup3\n        /* \"#utility.yul\":3324:3373   */\n      tag_300\n      jump\t// in\n    tag_404:\n        /* \"#utility.yul\":3236:3379   */\n      swap2\n      swap1\n      pop\n      jump\t// out\n        /* \"#utility.yul\":3385:3528   */\n    tag_302:\n        /* \"#utility.yul\":3449:3458   */\n      0x00\n        /* \"#utility.yul\":3482:3522   */\n      tag_406\n        /* \"#utility.yul\":3516:3521   */\n      dup3\n        /* \"#utility.yul\":3482:3522   */\n      tag_301\n      jump\t// in\n    tag_406:\n        /* \"#utility.yul\":3469:3522   */\n      swap1\n      pop\n        /* \"#utility.yul\":3385:3528   */\n      swap2\n      swap1\n      pop\n      jump\t// out\n        /* \"#utility.yul\":3534:3693   */\n    tag_303:\n        /* \"#utility.yul\":3635:3686   */\n      tag_408\n        /* \"#utility.yul\":3680:3685   */\n      dup2\n        /* \"#utility.yul\":3635:3686   */\n      tag_302\n      jump\t// in\n    tag_408:\n        /* \"#utility.yul\":3630:3633   */\n      dup3\n        /* \"#utility.yul\":3623:3687   */\n      mstore\n        /* \"#utility.yul\":3534:3693   */\n      pop\n      pop\n      jump\t// out\n        /* \"#utility.yul\":3699:3949   */\n    tag_41:\n        /* \"#utility.yul\":3806:3810   */\n      0x00\n        /* \"#utility.yul\":3844:3846   */\n      0x20\n        /* \"#utility.yul\":3833:3842   */\n      dup3\n        /* \"#utility.yul\":3829:3847   */\n      add\n        /* \"#utility.yul\":3821:3847   */\n      swap1\n      pop\n        /* \"#utility.yul\":3857:3942   */\n      tag_410\n        /* \"#utility.yul\":3939:3940   */\n      0x00\n        /* \"#utility.yul\":3928:3937   */\n      dup4\n        /* \"#utility.yul\":3924:3941   */\n      add\n        /* \"#utility.yul\":3915:3921   */\n      dup5\n        /* \"#utility.yul\":3857:3942   */\n      tag_303\n      jump\t// in\n    tag_410:\n        /* \"#utility.yul\":3699:3949   */\n      swap3\n      swap2\n      pop\n      pop\n      jump\t// out\n        /* \"#utility.yul\":3955:4081   */\n    tag_304:\n        /* \"#utility.yul\":3992:3999   */\n      0x00\n        /* \"#utility.yul\":4032:4074   */\n      0xffffffffffffffffffffffffffffffffffffffff\n        /* \"#utility.yul\":4025:4030   */\n      dup3\n        /* \"#utility.yul\":4021:4075   */\n      and\n        /* \"#utility.yul\":4010:4075   */\n      swap1\n      pop\n        /* \"#utility.yul\":3955:4081   */\n      swap2\n      swap1\n      pop\n      jump\t// out\n        /* \"#utility.yul\":4087:4183   */\n    tag_305:\n        /* \"#utility.yul\":4124:4131   */\n      0x00\n        /* \"#utility.yul\":4153:4177   */\n      tag_413\n        /* \"#utility.yul\":4171:4176   */\n      dup3\n        /* \"#utility.yul\":4153:4177   */\n      tag_304\n      jump\t// in\n    tag_413:\n        /* \"#utility.yul\":4142:4177   */\n      swap1\n      pop\n        /* \"#utility.yul\":4087:4183   */\n      swap2\n      swap1\n      pop\n      jump\t// out\n        /* \"#utility.yul\":4189:4311   */\n    tag_306:\n        /* \"#utility.yul\":4262:4286   */\n      tag_415\n        /* \"#utility.yul\":4280:4285   */\n      dup2\n        /* \"#utility.yul\":4262:4286   */\n      tag_305\n      jump\t// in\n    tag_415:\n        /* \"#utility.yul\":4255:4260   */\n      dup2\n        /* \"#utility.yul\":4252:4287   */\n      eq\n        /* \"#utility.yul\":4242:4305   */\n      tag_416\n      jumpi\n        /* \"#utility.yul\":4301:4302   */\n      0x00\n        /* \"#utility.yul\":4298:4299   */\n      dup1\n        /* \"#utility.yul\":4291:4303   */\n      revert\n        /* \"#utility.yul\":4242:4305   */\n    tag_416:\n        /* \"#utility.yul\":4189:4311   */\n      pop\n      jump\t// out\n        /* \"#utility.yul\":4317:4456   */\n    tag_307:\n        /* \"#utility.yul\":4363:4368   */\n      0x00\n        /* \"#utility.yul\":4401:4407   */\n      dup2\n        /* \"#utility.yul\":4388:4408   */\n      calldataload\n        /* \"#utility.yul\":4379:4408   */\n      swap1\n      pop\n        /* \"#utility.yul\":4417:4450   */\n      tag_418\n        /* \"#utility.yul\":4444:4449   */\n      dup2\n        /* \"#utility.yul\":4417:4450   */\n      tag_306\n      jump\t// in\n    tag_418:\n        /* \"#utility.yul\":4317:4456   */\n      swap3\n      swap2\n      pop\n      pop\n      jump\t// out\n        /* \"#utility.yul\":4462:4936   */\n    tag_45:\n        /* \"#utility.yul\":4530:4536   */\n      0x00\n        /* \"#utility.yul\":4538:4544   */\n      dup1\n        /* \"#utility.yul\":4587:4589   */\n      0x40\n        /* \"#utility.yul\":4575:4584   */\n      dup4\n        /* \"#utility.yul\":4566:4573   */\n      dup6\n        /* \"#utility.yul\":4562:4585   */\n      sub\n        /* \"#utility.yul\":4558:4590   */\n      slt\n        /* \"#utility.yul\":4555:4674   */\n      iszero\n      tag_420\n      jumpi\n        /* \"#utility.yul\":4593:4672   */\n      tag_421\n      tag_289\n      jump\t// in\n    tag_421:\n        /* \"#utility.yul\":4555:4674   */\n    tag_420:\n        /* \"#utility.yul\":4713:4714   */\n      0x00\n        /* \"#utility.yul\":4738:4791   */\n      tag_422\n        /* \"#utility.yul\":4783:4790   */\n      dup6\n        /* \"#utility.yul\":4774:4780   */\n      dup3\n        /* \"#utility.yul\":4763:4772   */\n      dup7\n        /* \"#utility.yul\":4759:4781   */\n      add\n        /* \"#utility.yul\":4738:4791   */\n      tag_307\n      jump\t// in\n    tag_422:\n        /* \"#utility.yul\":4728:4791   */\n      swap3\n      pop\n        /* \"#utility.yul\":4684:4801   */\n      pop\n        /* \"#utility.yul\":4840:4842   */\n      0x20\n        /* \"#utility.yul\":4866:4919   */\n      tag_423\n        /* \"#utility.yul\":4911:4918   */\n      dup6\n        /* \"#utility.yul\":4902:4908   */\n      dup3\n        /* \"#utility.yul\":4891:4900   */\n      dup7\n        /* \"#utility.yul\":4887:4909   */\n      add\n        /* \"#utility.yul\":4866:4919   */\n      tag_293\n      jump\t// in\n    tag_423:\n        /* \"#utility.yul\":4856:4919   */\n      swap2\n      pop\n        /* \"#utility.yul\":4811:4929   */\n      pop\n        /* \"#utility.yul\":4462:4936   */\n      swap3\n      pop\n      swap3\n      swap1\n      pop\n      jump\t// out\n        /* \"#utility.yul\":4942:5032   */\n    tag_308:\n        /* \"#utility.yul\":4976:4983   */\n      0x00\n        /* \"#utility.yul\":5019:5024   */\n      dup2\n        /* \"#utility.yul\":5012:5025   */\n      iszero\n        /* \"#utility.yul\":5005:5026   */\n      iszero\n        /* \"#utility.yul\":4994:5026   */\n      swap1\n      pop\n        /* \"#utility.yul\":4942:5032   */\n      swap2\n      swap1\n      pop\n      jump\t// out\n        /* \"#utility.yul\":5038:5147   */\n    tag_309:\n        /* \"#utility.yul\":5119:5140   */\n      tag_426\n        /* \"#utility.yul\":5134:5139   */\n      dup2\n        /* \"#utility.yul\":5119:5140   */\n      tag_308\n      jump\t// in\n    tag_426:\n        /* \"#utility.yul\":5114:5117   */\n      dup3\n        /* \"#utility.yul\":5107:5141   */\n      mstore\n        /* \"#utility.yul\":5038:5147   */\n      pop\n      pop\n      jump\t// out\n        /* \"#utility.yul\":5153:5363   */\n    tag_48:\n        /* \"#utility.yul\":5240:5244   */\n      0x00\n        /* \"#utility.yul\":5278:5280   */\n      0x20\n        /* \"#utility.yul\":5267:5276   */\n      dup3\n        /* \"#utility.yul\":5263:5281   */\n      add\n        /* \"#utility.yul\":5255:5281   */\n      swap1\n      pop\n        /* \"#utility.yul\":5291:5356   */\n      tag_428\n        /* \"#utility.yul\":5353:5354   */\n      0x00\n        /* \"#utility.yul\":5342:5351   */\n      dup4\n        /* \"#utility.yul\":5338:5355   */\n      add\n        /* \"#utility.yul\":5329:5335   */\n      dup5\n        /* \"#utility.yul\":5291:5356   */\n      tag_309\n      jump\t// in\n    tag_428:\n        /* \"#utility.yul\":5153:5363   */\n      swap3\n      swap2\n      pop\n      pop\n      jump\t// out\n        /* \"#utility.yul\":5369:5591   */\n    tag_53:\n        /* \"#utility.yul\":5462:5466   */\n      0x00\n        /* \"#utility.yul\":5500:5502   */\n      0x20\n        /* \"#utility.yul\":5489:5498   */\n      dup3\n        /* \"#utility.yul\":5485:5503   */\n      add\n        /* \"#utility.yul\":5477:5503   */\n      swap1\n      pop\n        /* \"#utility.yul\":5513:5584   */\n      tag_430\n        /* \"#utility.yul\":5581:5582   */\n      0x00\n        /* \"#utility.yul\":5570:5579   */\n      dup4\n        /* \"#utility.yul\":5566:5583   */\n      add\n        /* \"#utility.yul\":5557:5563   */\n      dup5\n        /* \"#utility.yul\":5513:5584   */\n      tag_299\n      jump\t// in\n    tag_430:\n        /* \"#utility.yul\":5369:5591   */\n      swap3\n      swap2\n      pop\n      pop\n      jump\t// out\n        /* \"#utility.yul\":5597:5715   */\n    tag_310:\n        /* \"#utility.yul\":5684:5708   */\n      tag_432\n        /* \"#utility.yul\":5702:5707   */\n      dup2\n        /* \"#utility.yul\":5684:5708   */\n      tag_305\n      jump\t// in\n    tag_432:\n        /* \"#utility.yul\":5679:5682   */\n      dup3\n        /* \"#utility.yul\":5672:5709   */\n      mstore\n        /* \"#utility.yul\":5597:5715   */\n      pop\n      pop\n      jump\t// out\n        /* \"#utility.yul\":5721:5943   */\n    tag_88:\n        /* \"#utility.yul\":5814:5818   */\n      0x00\n        /* \"#utility.yul\":5852:5854   */\n      0x20\n        /* \"#utility.yul\":5841:5850   */\n      dup3\n        /* \"#utility.yul\":5837:5855   */\n      add\n        /* \"#utility.yul\":5829:5855   */\n      swap1\n      pop\n        /* \"#utility.yul\":5865:5936   */\n      tag_434\n        /* \"#utility.yul\":5933:5934   */\n      0x00\n        /* \"#utility.yul\":5922:5931   */\n      dup4\n        /* \"#utility.yul\":5918:5935   */\n      add\n        /* \"#utility.yul\":5909:5915   */\n      dup5\n        /* \"#utility.yul\":5865:5936   */\n      tag_310\n      jump\t// in\n    tag_434:\n        /* \"#utility.yul\":5721:5943   */\n      swap3\n      swap2\n      pop\n      pop\n      jump\t// out\n        /* \"#utility.yul\":5949:6066   */\n    tag_311:\n        /* \"#utility.yul\":6058:6059   */\n      0x00\n        /* \"#utility.yul\":6055:6056   */\n      dup1\n        /* \"#utility.yul\":6048:6060   */\n      revert\n        /* \"#utility.yul\":6072:6189   */\n    tag_312:\n        /* \"#utility.yul\":6181:6182   */\n      0x00\n        /* \"#utility.yul\":6178:6179   */\n      dup1\n        /* \"#utility.yul\":6171:6183   */\n      revert\n        /* \"#utility.yul\":6195:6375   */\n    tag_313:\n        /* \"#utility.yul\":6243:6320   */\n      0x4e487b7100000000000000000000000000000000000000000000000000000000\n        /* \"#utility.yul\":6240:6241   */\n      0x00\n        /* \"#utility.yul\":6233:6321   */\n      mstore\n        /* \"#utility.yul\":6340:6344   */\n      0x41\n        /* \"#utility.yul\":6337:6338   */\n      0x04\n        /* \"#utility.yul\":6330:6345   */\n      mstore\n        /* \"#utility.yul\":6364:6368   */\n      0x24\n        /* \"#utility.yul\":6361:6362   */\n      0x00\n        /* \"#utility.yul\":6354:6369   */\n      revert\n        /* \"#utility.yul\":6381:6662   */\n    tag_314:\n        /* \"#utility.yul\":6464:6491   */\n      tag_439\n        /* \"#utility.yul\":6486:6490   */\n      dup3\n        /* \"#utility.yul\":6464:6491   */\n      tag_297\n      jump\t// in\n    tag_439:\n        /* \"#utility.yul\":6456:6462   */\n      dup2\n        /* \"#utility.yul\":6452:6492   */\n      add\n        /* \"#utility.yul\":6594:6600   */\n      dup2\n        /* \"#utility.yul\":6582:6592   */\n      dup2\n        /* \"#utility.yul\":6579:6601   */\n      lt\n        /* \"#utility.yul\":6558:6576   */\n      0xffffffffffffffff\n        /* \"#utility.yul\":6546:6556   */\n      dup3\n        /* \"#utility.yul\":6543:6577   */\n      gt\n        /* \"#utility.yul\":6540:6602   */\n      or\n        /* \"#utility.yul\":6537:6625   */\n      iszero\n      tag_440\n      jumpi\n        /* \"#utility.yul\":6605:6623   */\n      tag_441\n      tag_313\n      jump\t// in\n    tag_441:\n        /* \"#utility.yul\":6537:6625   */\n    tag_440:\n        /* \"#utility.yul\":6645:6655   */\n      dup1\n        /* \"#utility.yul\":6641:6643   */\n      0x40\n        /* \"#utility.yul\":6634:6656   */\n      mstore\n        /* \"#utility.yul\":6424:6662   */\n      pop\n        /* \"#utility.yul\":6381:6662   */\n      pop\n      pop\n      jump\t// out\n        /* \"#utility.yul\":6668:6797   */\n    tag_315:\n        /* \"#utility.yul\":6702:6708   */\n      0x00\n        /* \"#utility.yul\":6729:6749   */\n      tag_443\n      tag_288\n      jump\t// in\n    tag_443:\n        /* \"#utility.yul\":6719:6749   */\n      swap1\n      pop\n        /* \"#utility.yul\":6758:6791   */\n      tag_444\n        /* \"#utility.yul\":6786:6790   */\n      dup3\n        /* \"#utility.yul\":6778:6784   */\n      dup3\n        /* \"#utility.yul\":6758:6791   */\n      tag_314\n      jump\t// in\n    tag_444:\n        /* \"#utility.yul\":6668:6797   */\n      swap2\n      swap1\n      pop\n      jump\t// out\n        /* \"#utility.yul\":6803:7111   */\n    tag_316:\n        /* \"#utility.yul\":6865:6869   */\n      0x00\n        /* \"#utility.yul\":6955:6973   */\n      0xffffffffffffffff\n        /* \"#utility.yul\":6947:6953   */\n      dup3\n        /* \"#utility.yul\":6944:6974   */\n      gt\n        /* \"#utility.yul\":6941:6997   */\n      iszero\n      tag_446\n      jumpi\n        /* \"#utility.yul\":6977:6995   */\n      tag_447\n      tag_313\n      jump\t// in\n    tag_447:\n        /* \"#utility.yul\":6941:6997   */\n    tag_446:\n        /* \"#utility.yul\":7015:7044   */\n      tag_448\n        /* \"#utility.yul\":7037:7043   */\n      dup3\n        /* \"#utility.yul\":7015:7044   */\n      tag_297\n      jump\t// in\n    tag_448:\n        /* \"#utility.yul\":7007:7044   */\n      swap1\n      pop\n        /* \"#utility.yul\":7099:7103   */\n      0x20\n        /* \"#utility.yul\":7093:7097   */\n      dup2\n        /* \"#utility.yul\":7089:7104   */\n      add\n        /* \"#utility.yul\":7081:7104   */\n      swap1\n      pop\n        /* \"#utility.yul\":6803:7111   */\n      swap2\n      swap1\n      pop\n      jump\t// out\n        /* \"#utility.yul\":7117:7265   */\n    tag_317:\n        /* \"#utility.yul\":7215:7221   */\n      dup3\n        /* \"#utility.yul\":7210:7213   */\n      dup2\n        /* \"#utility.yul\":7205:7208   */\n      dup4\n        /* \"#utility.yul\":7192:7222   */\n      calldatacopy\n        /* \"#utility.yul\":7256:7257   */\n      0x00\n        /* \"#utility.yul\":7247:7253   */\n      dup4\n        /* \"#utility.yul\":7242:7245   */\n      dup4\n        /* \"#utility.yul\":7238:7254   */\n      add\n        /* \"#utility.yul\":7231:7258   */\n      mstore\n        /* \"#utility.yul\":7117:7265   */\n      pop\n      pop\n      pop\n      jump\t// out\n        /* \"#utility.yul\":7271:7696   */\n    tag_318:\n        /* \"#utility.yul\":7349:7354   */\n      0x00\n        /* \"#utility.yul\":7374:7440   */\n      tag_451\n        /* \"#utility.yul\":7390:7439   */\n      tag_452\n        /* \"#utility.yul\":7432:7438   */\n      dup5\n        /* \"#utility.yul\":7390:7439   */\n      tag_316\n      jump\t// in\n    tag_452:\n        /* \"#utility.yul\":7374:7440   */\n      tag_315\n      jump\t// in\n    tag_451:\n        /* \"#utility.yul\":7365:7440   */\n      swap1\n      pop\n        /* \"#utility.yul\":7463:7469   */\n      dup3\n        /* \"#utility.yul\":7456:7461   */\n      dup2\n        /* \"#utility.yul\":7449:7470   */\n      mstore\n        /* \"#utility.yul\":7501:7505   */\n      0x20\n        /* \"#utility.yul\":7494:7499   */\n      dup2\n        /* \"#utility.yul\":7490:7506   */\n      add\n        /* \"#utility.yul\":7539:7542   */\n      dup5\n        /* \"#utility.yul\":7530:7536   */\n      dup5\n        /* \"#utility.yul\":7525:7528   */\n      dup5\n        /* \"#utility.yul\":7521:7537   */\n      add\n        /* \"#utility.yul\":7518:7543   */\n      gt\n        /* \"#utility.yul\":7515:7627   */\n      iszero\n      tag_453\n      jumpi\n        /* \"#utility.yul\":7546:7625   */\n      tag_454\n      tag_312\n      jump\t// in\n    tag_454:\n        /* \"#utility.yul\":7515:7627   */\n    tag_453:\n        /* \"#utility.yul\":7636:7690   */\n      tag_455\n        /* \"#utility.yul\":7683:7689   */\n      dup5\n        /* \"#utility.yul\":7678:7681   */\n      dup3\n        /* \"#utility.yul\":7673:7676   */\n      dup6\n        /* \"#utility.yul\":7636:7690   */\n      tag_317\n      jump\t// in\n    tag_455:\n        /* \"#utility.yul\":7355:7696   */\n      pop\n        /* \"#utility.yul\":7271:7696   */\n      swap4\n      swap3\n      pop\n      pop\n      pop\n      jump\t// out\n        /* \"#utility.yul\":7716:8056   */\n    tag_319:\n        /* \"#utility.yul\":7772:7777   */\n      0x00\n        /* \"#utility.yul\":7821:7824   */\n      dup3\n        /* \"#utility.yul\":7814:7818   */\n      0x1f\n        /* \"#utility.yul\":7806:7812   */\n      dup4\n        /* \"#utility.yul\":7802:7819   */\n      add\n        /* \"#utility.yul\":7798:7825   */\n      slt\n        /* \"#utility.yul\":7788:7910   */\n      tag_457\n      jumpi\n        /* \"#utility.yul\":7829:7908   */\n      tag_458\n      tag_311\n      jump\t// in\n    tag_458:\n        /* \"#utility.yul\":7788:7910   */\n    tag_457:\n        /* \"#utility.yul\":7946:7952   */\n      dup2\n        /* \"#utility.yul\":7933:7953   */\n      calldataload\n        /* \"#utility.yul\":7971:8050   */\n      tag_459\n        /* \"#utility.yul\":8046:8049   */\n      dup5\n        /* \"#utility.yul\":8038:8044   */\n      dup3\n        /* \"#utility.yul\":8031:8035   */\n      0x20\n        /* \"#utility.yul\":8023:8029   */\n      dup7\n        /* \"#utility.yul\":8019:8036   */\n      add\n        /* \"#utility.yul\":7971:8050   */\n      tag_318\n      jump\t// in\n    tag_459:\n        /* \"#utility.yul\":7962:8050   */\n      swap2\n      pop\n        /* \"#utility.yul\":7778:8056   */\n      pop\n        /* \"#utility.yul\":7716:8056   */\n      swap3\n      swap2\n      pop\n      pop\n      jump\t// out\n        /* \"#utility.yul\":8062:8716   */\n    tag_92:\n        /* \"#utility.yul\":8140:8146   */\n      0x00\n        /* \"#utility.yul\":8148:8154   */\n      dup1\n        /* \"#utility.yul\":8197:8199   */\n      0x40\n        /* \"#utility.yul\":8185:8194   */\n      dup4\n        /* \"#utility.yul\":8176:8183   */\n      dup6\n        /* \"#utility.yul\":8172:8195   */\n      sub\n        /* \"#utility.yul\":8168:8200   */\n      slt\n        /* \"#utility.yul\":8165:8284   */\n      iszero\n      tag_461\n      jumpi\n        /* \"#utility.yul\":8203:8282   */\n      tag_462\n      tag_289\n      jump\t// in\n    tag_462:\n        /* \"#utility.yul\":8165:8284   */\n    tag_461:\n        /* \"#utility.yul\":8351:8352   */\n      0x00\n        /* \"#utility.yul\":8340:8349   */\n      dup4\n        /* \"#utility.yul\":8336:8353   */\n      add\n        /* \"#utility.yul\":8323:8354   */\n      calldataload\n        /* \"#utility.yul\":8381:8399   */\n      0xffffffffffffffff\n        /* \"#utility.yul\":8373:8379   */\n      dup2\n        /* \"#utility.yul\":8370:8400   */\n      gt\n        /* \"#utility.yul\":8367:8484   */\n      iszero\n      tag_463\n      jumpi\n        /* \"#utility.yul\":8403:8482   */\n      tag_464\n      tag_290\n      jump\t// in\n    tag_464:\n        /* \"#utility.yul\":8367:8484   */\n    tag_463:\n        /* \"#utility.yul\":8508:8571   */\n      tag_465\n        /* \"#utility.yul\":8563:8570   */\n      dup6\n        /* \"#utility.yul\":8554:8560   */\n      dup3\n        /* \"#utility.yul\":8543:8552   */\n      dup7\n        /* \"#utility.yul\":8539:8561   */\n      add\n        /* \"#utility.yul\":8508:8571   */\n      tag_319\n      jump\t// in\n    tag_465:\n        /* \"#utility.yul\":8498:8571   */\n      swap3\n      pop\n        /* \"#utility.yul\":8294:8581   */\n      pop\n        /* \"#utility.yul\":8620:8622   */\n      0x20\n        /* \"#utility.yul\":8646:8699   */\n      tag_466\n        /* \"#utility.yul\":8691:8698   */\n      dup6\n        /* \"#utility.yul\":8682:8688   */\n      dup3\n        /* \"#utility.yul\":8671:8680   */\n      dup7\n        /* \"#utility.yul\":8667:8689   */\n      add\n        /* \"#utility.yul\":8646:8699   */\n      tag_293\n      jump\t// in\n    tag_466:\n        /* \"#utility.yul\":8636:8699   */\n      swap2\n      pop\n        /* \"#utility.yul\":8591:8709   */\n      pop\n        /* \"#utility.yul\":8062:8716   */\n      swap3\n      pop\n      swap3\n      swap1\n      pop\n      jump\t// out\n        /* \"#utility.yul\":8722:9051   */\n    tag_97:\n        /* \"#utility.yul\":8781:8787   */\n      0x00\n        /* \"#utility.yul\":8830:8832   */\n      0x20\n        /* \"#utility.yul\":8818:8827   */\n      dup3\n        /* \"#utility.yul\":8809:8816   */\n      dup5\n        /* \"#utility.yul\":8805:8828   */\n      sub\n        /* \"#utility.yul\":8801:8833   */\n      slt\n        /* \"#utility.yul\":8798:8917   */\n      iszero\n      tag_468\n      jumpi\n        /* \"#utility.yul\":8836:8915   */\n      tag_469\n      tag_289\n      jump\t// in\n    tag_469:\n        /* \"#utility.yul\":8798:8917   */\n    tag_468:\n        /* \"#utility.yul\":8956:8957   */\n      0x00\n        /* \"#utility.yul\":8981:9034   */\n      tag_470\n        /* \"#utility.yul\":9026:9033   */\n      dup5\n        /* \"#utility.yul\":9017:9023   */\n      dup3\n        /* \"#utility.yul\":9006:9015   */\n      dup6\n        /* \"#utility.yul\":9002:9024   */\n      add\n        /* \"#utility.yul\":8981:9034   */\n      tag_307\n      jump\t// in\n    tag_470:\n        /* \"#utility.yul\":8971:9034   */\n      swap2\n      pop\n        /* \"#utility.yul\":8927:9044   */\n      pop\n        /* \"#utility.yul\":8722:9051   */\n      swap3\n      swap2\n      pop\n      pop\n      jump\t// out\n        /* \"#utility.yul\":9057:9191   */\n    tag_320:\n        /* \"#utility.yul\":9144:9150   */\n      0x00\n        /* \"#utility.yul\":9178:9183   */\n      dup2\n        /* \"#utility.yul\":9172:9184   */\n      mload\n        /* \"#utility.yul\":9162:9184   */\n      swap1\n      pop\n        /* \"#utility.yul\":9057:9191   */\n      swap2\n      swap1\n      pop\n      jump\t// out\n        /* \"#utility.yul\":9197:9401   */\n    tag_321:\n        /* \"#utility.yul\":9316:9327   */\n      0x00\n        /* \"#utility.yul\":9350:9356   */\n      dup3\n        /* \"#utility.yul\":9345:9348   */\n      dup3\n        /* \"#utility.yul\":9338:9357   */\n      mstore\n        /* \"#utility.yul\":9390:9394   */\n      0x20\n        /* \"#utility.yul\":9385:9388   */\n      dup3\n        /* \"#utility.yul\":9381:9395   */\n      add\n        /* \"#utility.yul\":9366:9395   */\n      swap1\n      pop\n        /* \"#utility.yul\":9197:9401   */\n      swap3\n      swap2\n      pop\n      pop\n      jump\t// out\n        /* \"#utility.yul\":9407:9559   */\n    tag_322:\n        /* \"#utility.yul\":9494:9498   */\n      0x00\n        /* \"#utility.yul\":9517:9520   */\n      dup2\n        /* \"#utility.yul\":9509:9520   */\n      swap1\n      pop\n        /* \"#utility.yul\":9547:9551   */\n      0x20\n        /* \"#utility.yul\":9542:9545   */\n      dup3\n        /* \"#utility.yul\":9538:9552   */\n      add\n        /* \"#utility.yul\":9530:9552   */\n      swap1\n      pop\n        /* \"#utility.yul\":9407:9559   */\n      swap2\n      swap1\n      pop\n      jump\t// out\n        /* \"#utility.yul\":9565:9724   */\n    tag_323:\n        /* \"#utility.yul\":9639:9650   */\n      0x00\n        /* \"#utility.yul\":9673:9679   */\n      dup3\n        /* \"#utility.yul\":9668:9671   */\n      dup3\n        /* \"#utility.yul\":9661:9680   */\n      mstore\n        /* \"#utility.yul\":9713:9717   */\n      0x20\n        /* \"#utility.yul\":9708:9711   */\n      dup3\n        /* \"#utility.yul\":9704:9718   */\n      add\n        /* \"#utility.yul\":9689:9718   */\n      swap1\n      pop\n        /* \"#utility.yul\":9565:9724   */\n      swap3\n      swap2\n      pop\n      pop\n      jump\t// out\n        /* \"#utility.yul\":9730:10087   */\n    tag_324:\n        /* \"#utility.yul\":9808:9811   */\n      0x00\n        /* \"#utility.yul\":9836:9875   */\n      tag_476\n        /* \"#utility.yul\":9869:9874   */\n      dup3\n        /* \"#utility.yul\":9836:9875   */\n      tag_294\n      jump\t// in\n    tag_476:\n        /* \"#utility.yul\":9891:9952   */\n      tag_477\n        /* \"#utility.yul\":9945:9951   */\n      dup2\n        /* \"#utility.yul\":9940:9943   */\n      dup6\n        /* \"#utility.yul\":9891:9952   */\n      tag_323\n      jump\t// in\n    tag_477:\n        /* \"#utility.yul\":9884:9952   */\n      swap4\n      pop\n        /* \"#utility.yul\":9961:10026   */\n      tag_478\n        /* \"#utility.yul\":10019:10025   */\n      dup2\n        /* \"#utility.yul\":10014:10017   */\n      dup6\n        /* \"#utility.yul\":10007:10011   */\n      0x20\n        /* \"#utility.yul\":10000:10005   */\n      dup7\n        /* \"#utility.yul\":9996:10012   */\n      add\n        /* \"#utility.yul\":9961:10026   */\n      tag_296\n      jump\t// in\n    tag_478:\n        /* \"#utility.yul\":10051:10080   */\n      tag_479\n        /* \"#utility.yul\":10073:10079   */\n      dup2\n        /* \"#utility.yul\":10051:10080   */\n      tag_297\n      jump\t// in\n    tag_479:\n        /* \"#utility.yul\":10046:10049   */\n      dup5\n        /* \"#utility.yul\":10042:10081   */\n      add\n        /* \"#utility.yul\":10035:10081   */\n      swap2\n      pop\n        /* \"#utility.yul\":9812:10087   */\n      pop\n        /* \"#utility.yul\":9730:10087   */\n      swap3\n      swap2\n      pop\n      pop\n      jump\t// out\n        /* \"#utility.yul\":10093:10201   */\n    tag_325:\n        /* \"#utility.yul\":10170:10194   */\n      tag_481\n        /* \"#utility.yul\":10188:10193   */\n      dup2\n        /* \"#utility.yul\":10170:10194   */\n      tag_291\n      jump\t// in\n    tag_481:\n        /* \"#utility.yul\":10165:10168   */\n      dup3\n        /* \"#utility.yul\":10158:10195   */\n      mstore\n        /* \"#utility.yul\":10093:10201   */\n      pop\n      pop\n      jump\t// out\n        /* \"#utility.yul\":10267:11032   */\n    tag_326:\n        /* \"#utility.yul\":10366:10369   */\n      0x00\n        /* \"#utility.yul\":10402:10406   */\n      0x60\n        /* \"#utility.yul\":10397:10400   */\n      dup4\n        /* \"#utility.yul\":10393:10407   */\n      add\n        /* \"#utility.yul\":10489:10493   */\n      0x00\n        /* \"#utility.yul\":10482:10487   */\n      dup4\n        /* \"#utility.yul\":10478:10494   */\n      add\n        /* \"#utility.yul\":10472:10495   */\n      mload\n        /* \"#utility.yul\":10542:10545   */\n      dup5\n        /* \"#utility.yul\":10536:10540   */\n      dup3\n        /* \"#utility.yul\":10532:10546   */\n      sub\n        /* \"#utility.yul\":10525:10529   */\n      0x00\n        /* \"#utility.yul\":10520:10523   */\n      dup7\n        /* \"#utility.yul\":10516:10530   */\n      add\n        /* \"#utility.yul\":10509:10547   */\n      mstore\n        /* \"#utility.yul\":10568:10641   */\n      tag_483\n        /* \"#utility.yul\":10636:10640   */\n      dup3\n        /* \"#utility.yul\":10622:10634   */\n      dup3\n        /* \"#utility.yul\":10568:10641   */\n      tag_324\n      jump\t// in\n    tag_483:\n        /* \"#utility.yul\":10560:10641   */\n      swap2\n      pop\n        /* \"#utility.yul\":10417:10652   */\n      pop\n        /* \"#utility.yul\":10736:10740   */\n      0x20\n        /* \"#utility.yul\":10729:10734   */\n      dup4\n        /* \"#utility.yul\":10725:10741   */\n      add\n        /* \"#utility.yul\":10719:10742   */\n      mload\n        /* \"#utility.yul\":10755:10818   */\n      tag_484\n        /* \"#utility.yul\":10812:10816   */\n      0x20\n        /* \"#utility.yul\":10807:10810   */\n      dup7\n        /* \"#utility.yul\":10803:10817   */\n      add\n        /* \"#utility.yul\":10789:10801   */\n      dup3\n        /* \"#utility.yul\":10755:10818   */\n      tag_325\n      jump\t// in\n    tag_484:\n        /* \"#utility.yul\":10662:10828   */\n      pop\n        /* \"#utility.yul\":10913:10917   */\n      0x40\n        /* \"#utility.yul\":10906:10911   */\n      dup4\n        /* \"#utility.yul\":10902:10918   */\n      add\n        /* \"#utility.yul\":10896:10919   */\n      mload\n        /* \"#utility.yul\":10932:10995   */\n      tag_485\n        /* \"#utility.yul\":10989:10993   */\n      0x40\n        /* \"#utility.yul\":10984:10987   */\n      dup7\n        /* \"#utility.yul\":10980:10994   */\n      add\n        /* \"#utility.yul\":10966:10978   */\n      dup3\n        /* \"#utility.yul\":10932:10995   */\n      tag_325\n      jump\t// in\n    tag_485:\n        /* \"#utility.yul\":10838:11005   */\n      pop\n        /* \"#utility.yul\":11022:11026   */\n      dup1\n        /* \"#utility.yul\":11015:11026   */\n      swap2\n      pop\n        /* \"#utility.yul\":10371:11032   */\n      pop\n        /* \"#utility.yul\":10267:11032   */\n      swap3\n      swap2\n      pop\n      pop\n      jump\t// out\n        /* \"#utility.yul\":11038:11274   */\n    tag_327:\n        /* \"#utility.yul\":11147:11157   */\n      0x00\n        /* \"#utility.yul\":11182:11268   */\n      tag_487\n        /* \"#utility.yul\":11264:11267   */\n      dup4\n        /* \"#utility.yul\":11256:11262   */\n      dup4\n        /* \"#utility.yul\":11182:11268   */\n      tag_326\n      jump\t// in\n    tag_487:\n        /* \"#utility.yul\":11168:11268   */\n      swap1\n      pop\n        /* \"#utility.yul\":11038:11274   */\n      swap3\n      swap2\n      pop\n      pop\n      jump\t// out\n        /* \"#utility.yul\":11280:11413   */\n    tag_328:\n        /* \"#utility.yul\":11370:11374   */\n      0x00\n        /* \"#utility.yul\":11402:11406   */\n      0x20\n        /* \"#utility.yul\":11397:11400   */\n      dup3\n        /* \"#utility.yul\":11393:11407   */\n      add\n        /* \"#utility.yul\":11385:11407   */\n      swap1\n      pop\n        /* \"#utility.yul\":11280:11413   */\n      swap2\n      swap1\n      pop\n      jump\t// out\n        /* \"#utility.yul\":11483:12554   */\n    tag_329:\n        /* \"#utility.yul\":11642:11645   */\n      0x00\n        /* \"#utility.yul\":11671:11745   */\n      tag_490\n        /* \"#utility.yul\":11739:11744   */\n      dup3\n        /* \"#utility.yul\":11671:11745   */\n      tag_320\n      jump\t// in\n    tag_490:\n        /* \"#utility.yul\":11761:11867   */\n      tag_491\n        /* \"#utility.yul\":11860:11866   */\n      dup2\n        /* \"#utility.yul\":11855:11858   */\n      dup6\n        /* \"#utility.yul\":11761:11867   */\n      tag_321\n      jump\t// in\n    tag_491:\n        /* \"#utility.yul\":11754:11867   */\n      swap4\n      pop\n        /* \"#utility.yul\":11893:11896   */\n      dup4\n        /* \"#utility.yul\":11938:11942   */\n      0x20\n        /* \"#utility.yul\":11930:11936   */\n      dup3\n        /* \"#utility.yul\":11926:11943   */\n      mul\n        /* \"#utility.yul\":11921:11924   */\n      dup6\n        /* \"#utility.yul\":11917:11944   */\n      add\n        /* \"#utility.yul\":11968:12044   */\n      tag_492\n        /* \"#utility.yul\":12038:12043   */\n      dup6\n        /* \"#utility.yul\":11968:12044   */\n      tag_322\n      jump\t// in\n    tag_492:\n        /* \"#utility.yul\":12067:12074   */\n      dup1\n        /* \"#utility.yul\":12098:12099   */\n      0x00\n        /* \"#utility.yul\":12083:12509   */\n    tag_493:\n        /* \"#utility.yul\":12108:12114   */\n      dup6\n        /* \"#utility.yul\":12105:12106   */\n      dup2\n        /* \"#utility.yul\":12102:12115   */\n      lt\n        /* \"#utility.yul\":12083:12509   */\n      iszero\n      tag_495\n      jumpi\n        /* \"#utility.yul\":12179:12188   */\n      dup5\n        /* \"#utility.yul\":12173:12177   */\n      dup5\n        /* \"#utility.yul\":12169:12189   */\n      sub\n        /* \"#utility.yul\":12164:12167   */\n      dup10\n        /* \"#utility.yul\":12157:12190   */\n      mstore\n        /* \"#utility.yul\":12230:12236   */\n      dup2\n        /* \"#utility.yul\":12224:12237   */\n      mload\n        /* \"#utility.yul\":12258:12362   */\n      tag_496\n        /* \"#utility.yul\":12357:12361   */\n      dup6\n        /* \"#utility.yul\":12342:12355   */\n      dup3\n        /* \"#utility.yul\":12258:12362   */\n      tag_327\n      jump\t// in\n    tag_496:\n        /* \"#utility.yul\":12250:12362   */\n      swap5\n      pop\n        /* \"#utility.yul\":12385:12465   */\n      tag_497\n        /* \"#utility.yul\":12458:12464   */\n      dup4\n        /* \"#utility.yul\":12385:12465   */\n      tag_328\n      jump\t// in\n    tag_497:\n        /* \"#utility.yul\":12375:12465   */\n      swap3\n      pop\n        /* \"#utility.yul\":12494:12498   */\n      0x20\n        /* \"#utility.yul\":12489:12492   */\n      dup11\n        /* \"#utility.yul\":12485:12499   */\n      add\n        /* \"#utility.yul\":12478:12499   */\n      swap10\n      pop\n        /* \"#utility.yul\":12143:12509   */\n      pop\n        /* \"#utility.yul\":12130:12131   */\n      0x01\n        /* \"#utility.yul\":12127:12128   */\n      dup2\n        /* \"#utility.yul\":12123:12132   */\n      add\n        /* \"#utility.yul\":12118:12132   */\n      swap1\n      pop\n        /* \"#utility.yul\":12083:12509   */\n      jump(tag_493)\n    tag_495:\n        /* \"#utility.yul\":12087:12101   */\n      pop\n        /* \"#utility.yul\":12525:12529   */\n      dup3\n        /* \"#utility.yul\":12518:12529   */\n      swap8\n      pop\n        /* \"#utility.yul\":12545:12548   */\n      dup8\n        /* \"#utility.yul\":12538:12548   */\n      swap6\n      pop\n        /* \"#utility.yul\":11647:12554   */\n      pop\n      pop\n      pop\n      pop\n      pop\n        /* \"#utility.yul\":11483:12554   */\n      swap3\n      swap2\n      pop\n      pop\n      jump\t// out\n        /* \"#utility.yul\":12560:13013   */\n    tag_114:\n        /* \"#utility.yul\":12743:12747   */\n      0x00\n        /* \"#utility.yul\":12781:12783   */\n      0x20\n        /* \"#utility.yul\":12770:12779   */\n      dup3\n        /* \"#utility.yul\":12766:12784   */\n      add\n        /* \"#utility.yul\":12758:12784   */\n      swap1\n      pop\n        /* \"#utility.yul\":12830:12839   */\n      dup2\n        /* \"#utility.yul\":12824:12828   */\n      dup2\n        /* \"#utility.yul\":12820:12840   */\n      sub\n        /* \"#utility.yul\":12816:12817   */\n      0x00\n        /* \"#utility.yul\":12805:12814   */\n      dup4\n        /* \"#utility.yul\":12801:12818   */\n      add\n        /* \"#utility.yul\":12794:12841   */\n      mstore\n        /* \"#utility.yul\":12858:13006   */\n      tag_499\n        /* \"#utility.yul\":13001:13005   */\n      dup2\n        /* \"#utility.yul\":12992:12998   */\n      dup5\n        /* \"#utility.yul\":12858:13006   */\n      tag_329\n      jump\t// in\n    tag_499:\n        /* \"#utility.yul\":12850:13006   */\n      swap1\n      pop\n        /* \"#utility.yul\":12560:13013   */\n      swap3\n      swap2\n      pop\n      pop\n      jump\t// out\n        /* \"#utility.yul\":13019:13199   */\n    tag_330:\n        /* \"#utility.yul\":13067:13144   */\n      0x4e487b7100000000000000000000000000000000000000000000000000000000\n        /* \"#utility.yul\":13064:13065   */\n      0x00\n        /* \"#utility.yul\":13057:13145   */\n      mstore\n        /* \"#utility.yul\":13164:13168   */\n      0x22\n        /* \"#utility.yul\":13161:13162   */\n      0x04\n        /* \"#utility.yul\":13154:13169   */\n      mstore\n        /* \"#utility.yul\":13188:13192   */\n      0x24\n        /* \"#utility.yul\":13185:13186   */\n      0x00\n        /* \"#utility.yul\":13178:13193   */\n      revert\n        /* \"#utility.yul\":13205:13525   */\n    tag_118:\n        /* \"#utility.yul\":13249:13255   */\n      0x00\n        /* \"#utility.yul\":13286:13287   */\n      0x02\n        /* \"#utility.yul\":13280:13284   */\n      dup3\n        /* \"#utility.yul\":13276:13288   */\n      div\n        /* \"#utility.yul\":13266:13288   */\n      swap1\n      pop\n        /* \"#utility.yul\":13333:13334   */\n      0x01\n        /* \"#utility.yul\":13327:13331   */\n      dup3\n        /* \"#utility.yul\":13323:13335   */\n      and\n        /* \"#utility.yul\":13354:13372   */\n      dup1\n        /* \"#utility.yul\":13344:13425   */\n      tag_502\n      jumpi\n        /* \"#utility.yul\":13410:13414   */\n      0x7f\n        /* \"#utility.yul\":13402:13408   */\n      dup3\n        /* \"#utility.yul\":13398:13415   */\n      and\n        /* \"#utility.yul\":13388:13415   */\n      swap2\n      pop\n        /* \"#utility.yul\":13344:13425   */\n    tag_502:\n        /* \"#utility.yul\":13472:13474   */\n      0x20\n        /* \"#utility.yul\":13464:13470   */\n      dup3\n        /* \"#utility.yul\":13461:13475   */\n      lt\n        /* \"#utility.yul\":13441:13459   */\n      dup2\n        /* \"#utility.yul\":13438:13476   */\n      sub\n        /* \"#utility.yul\":13435:13519   */\n      tag_503\n      jumpi\n        /* \"#utility.yul\":13491:13509   */\n      tag_504\n      tag_330\n      jump\t// in\n    tag_504:\n        /* \"#utility.yul\":13435:13519   */\n    tag_503:\n        /* \"#utility.yul\":13256:13525   */\n      pop\n        /* \"#utility.yul\":13205:13525   */\n      swap2\n      swap1\n      pop\n      jump\t// out\n        /* \"#utility.yul\":13531:13694   */\n    tag_331:\n        /* \"#utility.yul\":13671:13686   */\n      0x4e6f7420746865206f776e657200000000000000000000000000000000000000\n        /* \"#utility.yul\":13667:13668   */\n      0x00\n        /* \"#utility.yul\":13659:13665   */\n      dup3\n        /* \"#utility.yul\":13655:13669   */\n      add\n        /* \"#utility.yul\":13648:13687   */\n      mstore\n        /* \"#utility.yul\":13531:13694   */\n      pop\n      jump\t// out\n        /* \"#utility.yul\":13700:14066   */\n    tag_332:\n        /* \"#utility.yul\":13842:13845   */\n      0x00\n        /* \"#utility.yul\":13863:13930   */\n      tag_507\n        /* \"#utility.yul\":13927:13929   */\n      0x0d\n        /* \"#utility.yul\":13922:13925   */\n      dup4\n        /* \"#utility.yul\":13863:13930   */\n      tag_295\n      jump\t// in\n    tag_507:\n        /* \"#utility.yul\":13856:13930   */\n      swap2\n      pop\n        /* \"#utility.yul\":13939:14032   */\n      tag_508\n        /* \"#utility.yul\":14028:14031   */\n      dup3\n        /* \"#utility.yul\":13939:14032   */\n      tag_331\n      jump\t// in\n    tag_508:\n        /* \"#utility.yul\":14057:14059   */\n      0x20\n        /* \"#utility.yul\":14052:14055   */\n      dup3\n        /* \"#utility.yul\":14048:14060   */\n      add\n        /* \"#utility.yul\":14041:14060   */\n      swap1\n      pop\n        /* \"#utility.yul\":13700:14066   */\n      swap2\n      swap1\n      pop\n      jump\t// out\n        /* \"#utility.yul\":14072:14491   */\n    tag_142:\n        /* \"#utility.yul\":14238:14242   */\n      0x00\n        /* \"#utility.yul\":14276:14278   */\n      0x20\n        /* \"#utility.yul\":14265:14274   */\n      dup3\n        /* \"#utility.yul\":14261:14279   */\n      add\n        /* \"#utility.yul\":14253:14279   */\n      swap1\n      pop\n        /* \"#utility.yul\":14325:14334   */\n      dup2\n        /* \"#utility.yul\":14319:14323   */\n      dup2\n        /* \"#utility.yul\":14315:14335   */\n      sub\n        /* \"#utility.yul\":14311:14312   */\n      0x00\n        /* \"#utility.yul\":14300:14309   */\n      dup4\n        /* \"#utility.yul\":14296:14313   */\n      add\n        /* \"#utility.yul\":14289:14336   */\n      mstore\n        /* \"#utility.yul\":14353:14484   */\n      tag_510\n        /* \"#utility.yul\":14479:14483   */\n      dup2\n        /* \"#utility.yul\":14353:14484   */\n      tag_332\n      jump\t// in\n    tag_510:\n        /* \"#utility.yul\":14345:14484   */\n      swap1\n      pop\n        /* \"#utility.yul\":14072:14491   */\n      swap2\n      swap1\n      pop\n      jump\t// out\n        /* \"#utility.yul\":14497:14669   */\n    tag_333:\n        /* \"#utility.yul\":14637:14661   */\n      0x43616d706169676e206973206e6f742061637469766500000000000000000000\n        /* \"#utility.yul\":14633:14634   */\n      0x00\n        /* \"#utility.yul\":14625:14631   */\n      dup3\n        /* \"#utility.yul\":14621:14635   */\n      add\n        /* \"#utility.yul\":14614:14662   */\n      mstore\n        /* \"#utility.yul\":14497:14669   */\n      pop\n      jump\t// out\n        /* \"#utility.yul\":14675:15041   */\n    tag_334:\n        /* \"#utility.yul\":14817:14820   */\n      0x00\n        /* \"#utility.yul\":14838:14905   */\n      tag_513\n        /* \"#utility.yul\":14902:14904   */\n      0x16\n        /* \"#utility.yul\":14897:14900   */\n      dup4\n        /* \"#utility.yul\":14838:14905   */\n      tag_295\n      jump\t// in\n    tag_513:\n        /* \"#utility.yul\":14831:14905   */\n      swap2\n      pop\n        /* \"#utility.yul\":14914:15007   */\n      tag_514\n        /* \"#utility.yul\":15003:15006   */\n      dup3\n        /* \"#utility.yul\":14914:15007   */\n      tag_333\n      jump\t// in\n    tag_514:\n        /* \"#utility.yul\":15032:15034   */\n      0x20\n        /* \"#utility.yul\":15027:15030   */\n      dup3\n        /* \"#utility.yul\":15023:15035   */\n      add\n        /* \"#utility.yul\":15016:15035   */\n      swap1\n      pop\n        /* \"#utility.yul\":14675:15041   */\n      swap2\n      swap1\n      pop\n      jump\t// out\n        /* \"#utility.yul\":15047:15466   */\n    tag_150:\n        /* \"#utility.yul\":15213:15217   */\n      0x00\n        /* \"#utility.yul\":15251:15253   */\n      0x20\n        /* \"#utility.yul\":15240:15249   */\n      dup3\n        /* \"#utility.yul\":15236:15254   */\n      add\n        /* \"#utility.yul\":15228:15254   */\n      swap1\n      pop\n        /* \"#utility.yul\":15300:15309   */\n      dup2\n        /* \"#utility.yul\":15294:15298   */\n      dup2\n        /* \"#utility.yul\":15290:15310   */\n      sub\n        /* \"#utility.yul\":15286:15287   */\n      0x00\n        /* \"#utility.yul\":15275:15284   */\n      dup4\n        /* \"#utility.yul\":15271:15288   */\n      add\n        /* \"#utility.yul\":15264:15311   */\n      mstore\n        /* \"#utility.yul\":15328:15459   */\n      tag_516\n        /* \"#utility.yul\":15454:15458   */\n      dup2\n        /* \"#utility.yul\":15328:15459   */\n      tag_334\n      jump\t// in\n    tag_516:\n        /* \"#utility.yul\":15320:15459   */\n      swap1\n      pop\n        /* \"#utility.yul\":15047:15466   */\n      swap2\n      swap1\n      pop\n      jump\t// out\n        /* \"#utility.yul\":15472:15652   */\n    tag_335:\n        /* \"#utility.yul\":15520:15597   */\n      0x4e487b7100000000000000000000000000000000000000000000000000000000\n        /* \"#utility.yul\":15517:15518   */\n      0x00\n        /* \"#utility.yul\":15510:15598   */\n      mstore\n        /* \"#utility.yul\":15617:15621   */\n      0x11\n        /* \"#utility.yul\":15614:15615   */\n      0x04\n        /* \"#utility.yul\":15607:15622   */\n      mstore\n        /* \"#utility.yul\":15641:15645   */\n      0x24\n        /* \"#utility.yul\":15638:15639   */\n      0x00\n        /* \"#utility.yul\":15631:15646   */\n      revert\n        /* \"#utility.yul\":15658:16068   */\n    tag_153:\n        /* \"#utility.yul\":15698:15705   */\n      0x00\n        /* \"#utility.yul\":15721:15741   */\n      tag_519\n        /* \"#utility.yul\":15739:15740   */\n      dup3\n        /* \"#utility.yul\":15721:15741   */\n      tag_291\n      jump\t// in\n    tag_519:\n        /* \"#utility.yul\":15716:15741   */\n      swap2\n      pop\n        /* \"#utility.yul\":15755:15775   */\n      tag_520\n        /* \"#utility.yul\":15773:15774   */\n      dup4\n        /* \"#utility.yul\":15755:15775   */\n      tag_291\n      jump\t// in\n    tag_520:\n        /* \"#utility.yul\":15750:15775   */\n      swap3\n      pop\n        /* \"#utility.yul\":15810:15811   */\n      dup3\n        /* \"#utility.yul\":15807:15808   */\n      dup3\n        /* \"#utility.yul\":15803:15812   */\n      mul\n        /* \"#utility.yul\":15832:15862   */\n      tag_521\n        /* \"#utility.yul\":15850:15861   */\n      dup2\n        /* \"#utility.yul\":15832:15862   */\n      tag_291\n      jump\t// in\n    tag_521:\n        /* \"#utility.yul\":15821:15862   */\n      swap2\n      pop\n        /* \"#utility.yul\":16011:16012   */\n      dup3\n        /* \"#utility.yul\":16002:16009   */\n      dup3\n        /* \"#utility.yul\":15998:16013   */\n      div\n        /* \"#utility.yul\":15995:15996   */\n      dup5\n        /* \"#utility.yul\":15992:16014   */\n      eq\n        /* \"#utility.yul\":15972:15973   */\n      dup4\n        /* \"#utility.yul\":15965:15974   */\n      iszero\n        /* \"#utility.yul\":15945:16028   */\n      or\n        /* \"#utility.yul\":15922:16061   */\n      tag_522\n      jumpi\n        /* \"#utility.yul\":16041:16059   */\n      tag_523\n      tag_335\n      jump\t// in\n    tag_523:\n        /* \"#utility.yul\":15922:16061   */\n    tag_522:\n        /* \"#utility.yul\":15706:16068   */\n      pop\n        /* \"#utility.yul\":15658:16068   */\n      swap3\n      swap2\n      pop\n      pop\n      jump\t// out\n        /* \"#utility.yul\":16074:16265   */\n    tag_155:\n        /* \"#utility.yul\":16114:16117   */\n      0x00\n        /* \"#utility.yul\":16133:16153   */\n      tag_525\n        /* \"#utility.yul\":16151:16152   */\n      dup3\n        /* \"#utility.yul\":16133:16153   */\n      tag_291\n      jump\t// in\n    tag_525:\n        /* \"#utility.yul\":16128:16153   */\n      swap2\n      pop\n        /* \"#utility.yul\":16167:16187   */\n      tag_526\n        /* \"#utility.yul\":16185:16186   */\n      dup4\n        /* \"#utility.yul\":16167:16187   */\n      tag_291\n      jump\t// in\n    tag_526:\n        /* \"#utility.yul\":16162:16187   */\n      swap3\n      pop\n        /* \"#utility.yul\":16210:16211   */\n      dup3\n        /* \"#utility.yul\":16207:16208   */\n      dup3\n        /* \"#utility.yul\":16203:16212   */\n      add\n        /* \"#utility.yul\":16196:16212   */\n      swap1\n      pop\n        /* \"#utility.yul\":16231:16234   */\n      dup1\n        /* \"#utility.yul\":16228:16229   */\n      dup3\n        /* \"#utility.yul\":16225:16235   */\n      gt\n        /* \"#utility.yul\":16222:16258   */\n      iszero\n      tag_527\n      jumpi\n        /* \"#utility.yul\":16238:16256   */\n      tag_528\n      tag_335\n      jump\t// in\n    tag_528:\n        /* \"#utility.yul\":16222:16258   */\n    tag_527:\n        /* \"#utility.yul\":16074:16265   */\n      swap3\n      swap2\n      pop\n      pop\n      jump\t// out\n        /* \"#utility.yul\":16271:16444   */\n    tag_336:\n        /* \"#utility.yul\":16411:16436   */\n      0x43616d706169676e206e6f74207375636365737366756c000000000000000000\n        /* \"#utility.yul\":16407:16408   */\n      0x00\n        /* \"#utility.yul\":16399:16405   */\n      dup3\n        /* \"#utility.yul\":16395:16409   */\n      add\n        /* \"#utility.yul\":16388:16437   */\n      mstore\n        /* \"#utility.yul\":16271:16444   */\n      pop\n      jump\t// out\n        /* \"#utility.yul\":16450:16816   */\n    tag_337:\n        /* \"#utility.yul\":16592:16595   */\n      0x00\n        /* \"#utility.yul\":16613:16680   */\n      tag_531\n        /* \"#utility.yul\":16677:16679   */\n      0x17\n        /* \"#utility.yul\":16672:16675   */\n      dup4\n        /* \"#utility.yul\":16613:16680   */\n      tag_295\n      jump\t// in\n    tag_531:\n        /* \"#utility.yul\":16606:16680   */\n      swap2\n      pop\n        /* \"#utility.yul\":16689:16782   */\n      tag_532\n        /* \"#utility.yul\":16778:16781   */\n      dup3\n        /* \"#utility.yul\":16689:16782   */\n      tag_336\n      jump\t// in\n    tag_532:\n        /* \"#utility.yul\":16807:16809   */\n      0x20\n        /* \"#utility.yul\":16802:16805   */\n      dup3\n        /* \"#utility.yul\":16798:16810   */\n      add\n        /* \"#utility.yul\":16791:16810   */\n      swap1\n      pop\n        /* \"#utility.yul\":16450:16816   */\n      swap2\n      swap1\n      pop\n      jump\t// out\n        /* \"#utility.yul\":16822:17241   */\n    tag_168:\n        /* \"#utility.yul\":16988:16992   */\n      0x00\n        /* \"#utility.yul\":17026:17028   */\n      0x20\n        /* \"#utility.yul\":17015:17024   */\n      dup3\n        /* \"#utility.yul\":17011:17029   */\n      add\n        /* \"#utility.yul\":17003:17029   */\n      swap1\n      pop\n        /* \"#utility.yul\":17075:17084   */\n      dup2\n        /* \"#utility.yul\":17069:17073   */\n      dup2\n        /* \"#utility.yul\":17065:17085   */\n      sub\n        /* \"#utility.yul\":17061:17062   */\n      0x00\n        /* \"#utility.yul\":17050:17059   */\n      dup4\n        /* \"#utility.yul\":17046:17063   */\n      add\n        /* \"#utility.yul\":17039:17086   */\n      mstore\n        /* \"#utility.yul\":17103:17234   */\n      tag_534\n        /* \"#utility.yul\":17229:17233   */\n      dup2\n        /* \"#utility.yul\":17103:17234   */\n      tag_337\n      jump\t// in\n    tag_534:\n        /* \"#utility.yul\":17095:17234   */\n      swap1\n      pop\n        /* \"#utility.yul\":16822:17241   */\n      swap2\n      swap1\n      pop\n      jump\t// out\n        /* \"#utility.yul\":17247:17419   */\n    tag_338:\n        /* \"#utility.yul\":17387:17411   */\n      0x4e6f2062616c616e636520746f20776974686472617700000000000000000000\n        /* \"#utility.yul\":17383:17384   */\n      0x00\n        /* \"#utility.yul\":17375:17381   */\n      dup3\n        /* \"#utility.yul\":17371:17385   */\n      add\n        /* \"#utility.yul\":17364:17412   */\n      mstore\n        /* \"#utility.yul\":17247:17419   */\n      pop\n      jump\t// out\n        /* \"#utility.yul\":17425:17791   */\n    tag_339:\n        /* \"#utility.yul\":17567:17570   */\n      0x00\n        /* \"#utility.yul\":17588:17655   */\n      tag_537\n        /* \"#utility.yul\":17652:17654   */\n      0x16\n        /* \"#utility.yul\":17647:17650   */\n      dup4\n        /* \"#utility.yul\":17588:17655   */\n      tag_295\n      jump\t// in\n    tag_537:\n        /* \"#utility.yul\":17581:17655   */\n      swap2\n      pop\n        /* \"#utility.yul\":17664:17757   */\n      tag_538\n        /* \"#utility.yul\":17753:17756   */\n      dup3\n        /* \"#utility.yul\":17664:17757   */\n      tag_338\n      jump\t// in\n    tag_538:\n        /* \"#utility.yul\":17782:17784   */\n      0x20\n        /* \"#utility.yul\":17777:17780   */\n      dup3\n        /* \"#utility.yul\":17773:17785   */\n      add\n        /* \"#utility.yul\":17766:17785   */\n      swap1\n      pop\n        /* \"#utility.yul\":17425:17791   */\n      swap2\n      swap1\n      pop\n      jump\t// out\n        /* \"#utility.yul\":17797:18216   */\n    tag_171:\n        /* \"#utility.yul\":17963:17967   */\n      0x00\n        /* \"#utility.yul\":18001:18003   */\n      0x20\n        /* \"#utility.yul\":17990:17999   */\n      dup3\n        /* \"#utility.yul\":17986:18004   */\n      add\n        /* \"#utility.yul\":17978:18004   */\n      swap1\n      pop\n        /* \"#utility.yul\":18050:18059   */\n      dup2\n        /* \"#utility.yul\":18044:18048   */\n      dup2\n        /* \"#utility.yul\":18040:18060   */\n      sub\n        /* \"#utility.yul\":18036:18037   */\n      0x00\n        /* \"#utility.yul\":18025:18034   */\n      dup4\n        /* \"#utility.yul\":18021:18038   */\n      add\n        /* \"#utility.yul\":18014:18061   */\n      mstore\n        /* \"#utility.yul\":18078:18209   */\n      tag_540\n        /* \"#utility.yul\":18204:18208   */\n      dup2\n        /* \"#utility.yul\":18078:18209   */\n      tag_339\n      jump\t// in\n    tag_540:\n        /* \"#utility.yul\":18070:18209   */\n      swap1\n      pop\n        /* \"#utility.yul\":17797:18216   */\n      swap2\n      swap1\n      pop\n      jump\t// out\n        /* \"#utility.yul\":18222:18393   */\n    tag_340:\n        /* \"#utility.yul\":18362:18385   */\n      0x526566756e6473206e6f7420617661696c61626c650000000000000000000000\n        /* \"#utility.yul\":18358:18359   */\n      0x00\n        /* \"#utility.yul\":18350:18356   */\n      dup3\n        /* \"#utility.yul\":18346:18360   */\n      add\n        /* \"#utility.yul\":18339:18386   */\n      mstore\n        /* \"#utility.yul\":18222:18393   */\n      pop\n      jump\t// out\n        /* \"#utility.yul\":18399:18765   */\n    tag_341:\n        /* \"#utility.yul\":18541:18544   */\n      0x00\n        /* \"#utility.yul\":18562:18629   */\n      tag_543\n        /* \"#utility.yul\":18626:18628   */\n      0x15\n        /* \"#utility.yul\":18621:18624   */\n      dup4\n        /* \"#utility.yul\":18562:18629   */\n      tag_295\n      jump\t// in\n    tag_543:\n        /* \"#utility.yul\":18555:18629   */\n      swap2\n      pop\n        /* \"#utility.yul\":18638:18731   */\n      tag_544\n        /* \"#utility.yul\":18727:18730   */\n      dup3\n        /* \"#utility.yul\":18638:18731   */\n      tag_340\n      jump\t// in\n    tag_544:\n        /* \"#utility.yul\":18756:18758   */\n      0x20\n        /* \"#utility.yul\":18751:18754   */\n      dup3\n        /* \"#utility.yul\":18747:18759   */\n      add\n        /* \"#utility.yul\":18740:18759   */\n      swap1\n      pop\n        /* \"#utility.yul\":18399:18765   */\n      swap2\n      swap1\n      pop\n      jump\t// out\n        /* \"#utility.yul\":18771:19190   */\n    tag_182:\n        /* \"#utility.yul\":18937:18941   */\n      0x00\n        /* \"#utility.yul\":18975:18977   */\n      0x20\n        /* \"#utility.yul\":18964:18973   */\n      dup3\n        /* \"#utility.yul\":18960:18978   */\n      add\n        /* \"#utility.yul\":18952:18978   */\n      swap1\n      pop\n        /* \"#utility.yul\":19024:19033   */\n      dup2\n        /* \"#utility.yul\":19018:19022   */\n      dup2\n        /* \"#utility.yul\":19014:19034   */\n      sub\n        /* \"#utility.yul\":19010:19011   */\n      0x00\n        /* \"#utility.yul\":18999:19008   */\n      dup4\n        /* \"#utility.yul\":18995:19012   */\n      add\n        /* \"#utility.yul\":18988:19035   */\n      mstore\n        /* \"#utility.yul\":19052:19183   */\n      tag_546\n        /* \"#utility.yul\":19178:19182   */\n      dup2\n        /* \"#utility.yul\":19052:19183   */\n      tag_341\n      jump\t// in\n    tag_546:\n        /* \"#utility.yul\":19044:19183   */\n      swap1\n      pop\n        /* \"#utility.yul\":18771:19190   */\n      swap2\n      swap1\n      pop\n      jump\t// out\n        /* \"#utility.yul\":19196:19372   */\n    tag_342:\n        /* \"#utility.yul\":19336:19364   */\n      0x4e6f20636f6e747269627574696f6e7320746f20726566756e64000000000000\n        /* \"#utility.yul\":19332:19333   */\n      0x00\n        /* \"#utility.yul\":19324:19330   */\n      dup3\n        /* \"#utility.yul\":19320:19334   */\n      add\n        /* \"#utility.yul\":19313:19365   */\n      mstore\n        /* \"#utility.yul\":19196:19372   */\n      pop\n      jump\t// out\n        /* \"#utility.yul\":19378:19744   */\n    tag_343:\n        /* \"#utility.yul\":19520:19523   */\n      0x00\n        /* \"#utility.yul\":19541:19608   */\n      tag_549\n        /* \"#utility.yul\":19605:19607   */\n      0x1a\n        /* \"#utility.yul\":19600:19603   */\n      dup4\n        /* \"#utility.yul\":19541:19608   */\n      tag_295\n      jump\t// in\n    tag_549:\n        /* \"#utility.yul\":19534:19608   */\n      swap2\n      pop\n        /* \"#utility.yul\":19617:19710   */\n      tag_550\n        /* \"#utility.yul\":19706:19709   */\n      dup3\n        /* \"#utility.yul\":19617:19710   */\n      tag_342\n      jump\t// in\n    tag_550:\n        /* \"#utility.yul\":19735:19737   */\n      0x20\n        /* \"#utility.yul\":19730:19733   */\n      dup3\n        /* \"#utility.yul\":19726:19738   */\n      add\n        /* \"#utility.yul\":19719:19738   */\n      swap1\n      pop\n        /* \"#utility.yul\":19378:19744   */\n      swap2\n      swap1\n      pop\n      jump\t// out\n        /* \"#utility.yul\":19750:20169   */\n    tag_185:\n        /* \"#utility.yul\":19916:19920   */\n      0x00\n        /* \"#utility.yul\":19954:19956   */\n      0x20\n        /* \"#utility.yul\":19943:19952   */\n      dup3\n        /* \"#utility.yul\":19939:19957   */\n      add\n        /* \"#utility.yul\":19931:19957   */\n      swap1\n      pop\n        /* \"#utility.yul\":20003:20012   */\n      dup2\n        /* \"#utility.yul\":19997:20001   */\n      dup2\n        /* \"#utility.yul\":19993:20013   */\n      sub\n        /* \"#utility.yul\":19989:19990   */\n      0x00\n        /* \"#utility.yul\":19978:19987   */\n      dup4\n        /* \"#utility.yul\":19974:19991   */\n      add\n        /* \"#utility.yul\":19967:20014   */\n      mstore\n        /* \"#utility.yul\":20031:20162   */\n      tag_552\n        /* \"#utility.yul\":20157:20161   */\n      dup2\n        /* \"#utility.yul\":20031:20162   */\n      tag_343\n      jump\t// in\n    tag_552:\n        /* \"#utility.yul\":20023:20162   */\n      swap1\n      pop\n        /* \"#utility.yul\":19750:20169   */\n      swap2\n      swap1\n      pop\n      jump\t// out\n        /* \"#utility.yul\":20175:20344   */\n    tag_344:\n        /* \"#utility.yul\":20315:20336   */\n      0x5469657220646f6573206e6f7420657869737400000000000000000000000000\n        /* \"#utility.yul\":20311:20312   */\n      0x00\n        /* \"#utility.yul\":20303:20309   */\n      dup3\n        /* \"#utility.yul\":20299:20313   */\n      add\n        /* \"#utility.yul\":20292:20337   */\n      mstore\n        /* \"#utility.yul\":20175:20344   */\n      pop\n      jump\t// out\n        /* \"#utility.yul\":20350:20716   */\n    tag_345:\n        /* \"#utility.yul\":20492:20495   */\n      0x00\n        /* \"#utility.yul\":20513:20580   */\n      tag_555\n        /* \"#utility.yul\":20577:20579   */\n      0x13\n        /* \"#utility.yul\":20572:20575   */\n      dup4\n        /* \"#utility.yul\":20513:20580   */\n      tag_295\n      jump\t// in\n    tag_555:\n        /* \"#utility.yul\":20506:20580   */\n      swap2\n      pop\n        /* \"#utility.yul\":20589:20682   */\n      tag_556\n        /* \"#utility.yul\":20678:20681   */\n      dup3\n        /* \"#utility.yul\":20589:20682   */\n      tag_344\n      jump\t// in\n    tag_556:\n        /* \"#utility.yul\":20707:20709   */\n      0x20\n        /* \"#utility.yul\":20702:20705   */\n      dup3\n        /* \"#utility.yul\":20698:20710   */\n      add\n        /* \"#utility.yul\":20691:20710   */\n      swap1\n      pop\n        /* \"#utility.yul\":20350:20716   */\n      swap2\n      swap1\n      pop\n      jump\t// out\n        /* \"#utility.yul\":20722:21141   */\n    tag_200:\n        /* \"#utility.yul\":20888:20892   */\n      0x00\n        /* \"#utility.yul\":20926:20928   */\n      0x20\n        /* \"#utility.yul\":20915:20924   */\n      dup3\n        /* \"#utility.yul\":20911:20929   */\n      add\n        /* \"#utility.yul\":20903:20929   */\n      swap1\n      pop\n        /* \"#utility.yul\":20975:20984   */\n      dup2\n        /* \"#utility.yul\":20969:20973   */\n      dup2\n        /* \"#utility.yul\":20965:20985   */\n      sub\n        /* \"#utility.yul\":20961:20962   */\n      0x00\n        /* \"#utility.yul\":20950:20959   */\n      dup4\n        /* \"#utility.yul\":20946:20963   */\n      add\n        /* \"#utility.yul\":20939:20986   */\n      mstore\n        /* \"#utility.yul\":21003:21134   */\n      tag_558\n        /* \"#utility.yul\":21129:21133   */\n      dup2\n        /* \"#utility.yul\":21003:21134   */\n      tag_345\n      jump\t// in\n    tag_558:\n        /* \"#utility.yul\":20995:21134   */\n      swap1\n      pop\n        /* \"#utility.yul\":20722:21141   */\n      swap2\n      swap1\n      pop\n      jump\t// out\n        /* \"#utility.yul\":21147:21341   */\n    tag_202:\n        /* \"#utility.yul\":21187:21191   */\n      0x00\n        /* \"#utility.yul\":21207:21227   */\n      tag_560\n        /* \"#utility.yul\":21225:21226   */\n      dup3\n        /* \"#utility.yul\":21207:21227   */\n      tag_291\n      jump\t// in\n    tag_560:\n        /* \"#utility.yul\":21202:21227   */\n      swap2\n      pop\n        /* \"#utility.yul\":21241:21261   */\n      tag_561\n        /* \"#utility.yul\":21259:21260   */\n      dup4\n        /* \"#utility.yul\":21241:21261   */\n      tag_291\n      jump\t// in\n    tag_561:\n        /* \"#utility.yul\":21236:21261   */\n      swap3\n      pop\n        /* \"#utility.yul\":21285:21286   */\n      dup3\n        /* \"#utility.yul\":21282:21283   */\n      dup3\n        /* \"#utility.yul\":21278:21287   */\n      sub\n        /* \"#utility.yul\":21270:21287   */\n      swap1\n      pop\n        /* \"#utility.yul\":21309:21310   */\n      dup2\n        /* \"#utility.yul\":21303:21307   */\n      dup2\n        /* \"#utility.yul\":21300:21311   */\n      gt\n        /* \"#utility.yul\":21297:21334   */\n      iszero\n      tag_562\n      jumpi\n        /* \"#utility.yul\":21314:21332   */\n      tag_563\n      tag_335\n      jump\t// in\n    tag_563:\n        /* \"#utility.yul\":21297:21334   */\n    tag_562:\n        /* \"#utility.yul\":21147:21341   */\n      swap3\n      swap2\n      pop\n      pop\n      jump\t// out\n        /* \"#utility.yul\":21347:21527   */\n    tag_205:\n        /* \"#utility.yul\":21395:21472   */\n      0x4e487b7100000000000000000000000000000000000000000000000000000000\n        /* \"#utility.yul\":21392:21393   */\n      0x00\n        /* \"#utility.yul\":21385:21473   */\n      mstore\n        /* \"#utility.yul\":21492:21496   */\n      0x32\n        /* \"#utility.yul\":21489:21490   */\n      0x04\n        /* \"#utility.yul\":21482:21497   */\n      mstore\n        /* \"#utility.yul\":21516:21520   */\n      0x24\n        /* \"#utility.yul\":21513:21514   */\n      0x00\n        /* \"#utility.yul\":21506:21521   */\n      revert\n        /* \"#utility.yul\":21533:21682   */\n    tag_346:\n        /* \"#utility.yul\":21582:21588   */\n      0x00\n        /* \"#utility.yul\":21616:21621   */\n      dup2\n        /* \"#utility.yul\":21610:21622   */\n      sload\n        /* \"#utility.yul\":21600:21622   */\n      swap1\n      pop\n        /* \"#utility.yul\":21642:21675   */\n      tag_566\n        /* \"#utility.yul\":21668:21674   */\n      dup2\n        /* \"#utility.yul\":21642:21675   */\n      tag_118\n      jump\t// in\n    tag_566:\n        /* \"#utility.yul\":21632:21675   */\n      swap1\n      pop\n        /* \"#utility.yul\":21533:21682   */\n      swap2\n      swap1\n      pop\n      jump\t// out\n        /* \"#utility.yul\":21688:21829   */\n    tag_347:\n        /* \"#utility.yul\":21737:21741   */\n      0x00\n        /* \"#utility.yul\":21760:21763   */\n      dup2\n        /* \"#utility.yul\":21752:21763   */\n      swap1\n      pop\n        /* \"#utility.yul\":21783:21786   */\n      dup2\n        /* \"#utility.yul\":21780:21781   */\n      0x00\n        /* \"#utility.yul\":21773:21787   */\n      mstore\n        /* \"#utility.yul\":21817:21821   */\n      0x20\n        /* \"#utility.yul\":21814:21815   */\n      0x00\n        /* \"#utility.yul\":21804:21822   */\n      keccak256\n        /* \"#utility.yul\":21796:21822   */\n      swap1\n      pop\n        /* \"#utility.yul\":21688:21829   */\n      swap2\n      swap1\n      pop\n      jump\t// out\n        /* \"#utility.yul\":21835:21928   */\n    tag_348:\n        /* \"#utility.yul\":21872:21878   */\n      0x00\n        /* \"#utility.yul\":21919:21921   */\n      0x20\n        /* \"#utility.yul\":21914:21916   */\n      0x1f\n        /* \"#utility.yul\":21907:21912   */\n      dup4\n        /* \"#utility.yul\":21903:21917   */\n      add\n        /* \"#utility.yul\":21899:21922   */\n      div\n        /* \"#utility.yul\":21889:21922   */\n      swap1\n      pop\n        /* \"#utility.yul\":21835:21928   */\n      swap2\n      swap1\n      pop\n      jump\t// out\n        /* \"#utility.yul\":21934:22041   */\n    tag_349:\n        /* \"#utility.yul\":21978:21986   */\n      0x00\n        /* \"#utility.yul\":22028:22033   */\n      dup3\n        /* \"#utility.yul\":22022:22026   */\n      dup3\n        /* \"#utility.yul\":22018:22034   */\n      shl\n        /* \"#utility.yul\":21997:22034   */\n      swap1\n      pop\n        /* \"#utility.yul\":21934:22041   */\n      swap3\n      swap2\n      pop\n      pop\n      jump\t// out\n        /* \"#utility.yul\":22047:22440   */\n    tag_350:\n        /* \"#utility.yul\":22116:22122   */\n      0x00\n        /* \"#utility.yul\":22166:22167   */\n      0x08\n        /* \"#utility.yul\":22154:22164   */\n      dup4\n        /* \"#utility.yul\":22150:22168   */\n      mul\n        /* \"#utility.yul\":22189:22286   */\n      tag_571\n        /* \"#utility.yul\":22219:22285   */\n      0xffffffffffffffffffffffffffffffffffffffffffffffffffffffffffffffff\n        /* \"#utility.yul\":22208:22217   */\n      dup3\n        /* \"#utility.yul\":22189:22286   */\n      tag_349\n      jump\t// in\n    tag_571:\n        /* \"#utility.yul\":22307:22346   */\n      tag_572\n        /* \"#utility.yul\":22337:22345   */\n      dup7\n        /* \"#utility.yul\":22326:22335   */\n      dup4\n        /* \"#utility.yul\":22307:22346   */\n      tag_349\n      jump\t// in\n    tag_572:\n        /* \"#utility.yul\":22295:22346   */\n      swap6\n      pop\n        /* \"#utility.yul\":22379:22383   */\n      dup1\n        /* \"#utility.yul\":22375:22384   */\n      not\n        /* \"#utility.yul\":22368:22373   */\n      dup5\n        /* \"#utility.yul\":22364:22385   */\n      and\n        /* \"#utility.yul\":22355:22385   */\n      swap4\n      pop\n        /* \"#utility.yul\":22428:22432   */\n      dup1\n        /* \"#utility.yul\":22418:22426   */\n      dup7\n        /* \"#utility.yul\":22414:22433   */\n      and\n        /* \"#utility.yul\":22407:22412   */\n      dup5\n        /* \"#utility.yul\":22404:22434   */\n      or\n        /* \"#utility.yul\":22394:22434   */\n      swap3\n      pop\n        /* \"#utility.yul\":22123:22440   */\n      pop\n      pop\n        /* \"#utility.yul\":22047:22440   */\n      swap4\n      swap3\n      pop\n      pop\n      pop\n      jump\t// out\n        /* \"#utility.yul\":22446:22506   */\n    tag_351:\n        /* \"#utility.yul\":22474:22477   */\n      0x00\n        /* \"#utility.yul\":22495:22500   */\n      dup2\n        /* \"#utility.yul\":22488:22500   */\n      swap1\n      pop\n        /* \"#utility.yul\":22446:22506   */\n      swap2\n      swap1\n      pop\n      jump\t// out\n        /* \"#utility.yul\":22512:22654   */\n    tag_352:\n        /* \"#utility.yul\":22562:22571   */\n      0x00\n        /* \"#utility.yul\":22595:22648   */\n      tag_575\n        /* \"#utility.yul\":22613:22647   */\n      tag_576\n        /* \"#utility.yul\":22622:22646   */\n      tag_577\n        /* \"#utility.yul\":22640:22645   */\n      dup5\n        /* \"#utility.yul\":22622:22646   */\n      tag_291\n      jump\t// in\n    tag_577:\n        /* \"#utility.yul\":22613:22647   */\n      tag_351\n      jump\t// in\n    tag_576:\n        /* \"#utility.yul\":22595:22648   */\n      tag_291\n      jump\t// in\n    tag_575:\n        /* \"#utility.yul\":22582:22648   */\n      swap1\n      pop\n        /* \"#utility.yul\":22512:22654   */\n      swap2\n      swap1\n      pop\n      jump\t// out\n        /* \"#utility.yul\":22660:22735   */\n    tag_353:\n        /* \"#utility.yul\":22703:22706   */\n      0x00\n        /* \"#utility.yul\":22724:22729   */\n      dup2\n        /* \"#utility.yul\":22717:22729   */\n      swap1\n      pop\n        /* \"#utility.yul\":22660:22735   */\n      swap2\n      swap1\n      pop\n      jump\t// out\n        /* \"#utility.yul\":22741:23010   */\n    tag_354:\n        /* \"#utility.yul\":22851:22890   */\n      tag_580\n        /* \"#utility.yul\":22882:22889   */\n      dup4\n        /* \"#utility.yul\":22851:22890   */\n      tag_352\n      jump\t// in\n    tag_580:\n        /* \"#utility.yul\":22912:23003   */\n      tag_581\n        /* \"#utility.yul\":22961:23002   */\n      tag_582\n        /* \"#utility.yul\":22985:23001   */\n      dup3\n        /* \"#utility.yul\":22961:23002   */\n      tag_353\n      jump\t// in\n    tag_582:\n        /* \"#utility.yul\":22953:22959   */\n      dup5\n        /* \"#utility.yul\":22946:22950   */\n      dup5\n        /* \"#utility.yul\":22940:22951   */\n      sload\n        /* \"#utility.yul\":22912:23003   */\n      tag_350\n      jump\t// in\n    tag_581:\n        /* \"#utility.yul\":22906:22910   */\n      dup3\n        /* \"#utility.yul\":22899:23004   */\n      sstore\n        /* \"#utility.yul\":22817:23010   */\n      pop\n        /* \"#utility.yul\":22741:23010   */\n      pop\n      pop\n      pop\n      jump\t// out\n        /* \"#utility.yul\":23016:23089   */\n    tag_355:\n        /* \"#utility.yul\":23061:23064   */\n      0x00\n        /* \"#utility.yul\":23016:23089   */\n      swap1\n      jump\t// out\n        /* \"#utility.yul\":23095:23284   */\n    tag_356:\n        /* \"#utility.yul\":23172:23204   */\n      tag_585\n      tag_355\n      jump\t// in\n    tag_585:\n        /* \"#utility.yul\":23213:23278   */\n      tag_586\n        /* \"#utility.yul\":23271:23277   */\n      dup2\n        /* \"#utility.yul\":23263:23269   */\n      dup5\n        /* \"#utility.yul\":23257:23261   */\n      dup5\n        /* \"#utility.yul\":23213:23278   */\n      tag_354\n      jump\t// in\n    tag_586:\n        /* \"#utility.yul\":23148:23284   */\n      pop\n        /* \"#utility.yul\":23095:23284   */\n      pop\n      pop\n      jump\t// out\n        /* \"#utility.yul\":23290:23476   */\n    tag_357:\n        /* \"#utility.yul\":23350:23470   */\n    tag_588:\n        /* \"#utility.yul\":23367:23370   */\n      dup2\n        /* \"#utility.yul\":23360:23365   */\n      dup2\n        /* \"#utility.yul\":23357:23371   */\n      lt\n        /* \"#utility.yul\":23350:23470   */\n      iszero\n      tag_590\n      jumpi\n        /* \"#utility.yul\":23421:23460   */\n      tag_591\n        /* \"#utility.yul\":23458:23459   */\n      0x00\n        /* \"#utility.yul\":23451:23456   */\n      dup3\n        /* \"#utility.yul\":23421:23460   */\n      tag_356\n      jump\t// in\n    tag_591:\n        /* \"#utility.yul\":23394:23395   */\n      0x01\n        /* \"#utility.yul\":23387:23392   */\n      dup2\n        /* \"#utility.yul\":23383:23396   */\n      add\n        /* \"#utility.yul\":23374:23396   */\n      swap1\n      pop\n        /* \"#utility.yul\":23350:23470   */\n      jump(tag_588)\n    tag_590:\n        /* \"#utility.yul\":23290:23476   */\n      pop\n      pop\n      jump\t// out\n        /* \"#utility.yul\":23482:24025   */\n    tag_358:\n        /* \"#utility.yul\":23583:23585   */\n      0x1f\n        /* \"#utility.yul\":23578:23581   */\n      dup3\n        /* \"#utility.yul\":23575:23586   */\n      gt\n        /* \"#utility.yul\":23572:24018   */\n      iszero\n      tag_593\n      jumpi\n        /* \"#utility.yul\":23617:23655   */\n      tag_594\n        /* \"#utility.yul\":23649:23654   */\n      dup2\n        /* \"#utility.yul\":23617:23655   */\n      tag_347\n      jump\t// in\n    tag_594:\n        /* \"#utility.yul\":23701:23730   */\n      tag_595\n        /* \"#utility.yul\":23719:23729   */\n      dup5\n        /* \"#utility.yul\":23701:23730   */\n      tag_348\n      jump\t// in\n    tag_595:\n        /* \"#utility.yul\":23691:23699   */\n      dup2\n        /* \"#utility.yul\":23687:23731   */\n      add\n        /* \"#utility.yul\":23884:23886   */\n      0x20\n        /* \"#utility.yul\":23872:23882   */\n      dup6\n        /* \"#utility.yul\":23869:23887   */\n      lt\n        /* \"#utility.yul\":23866:23915   */\n      iszero\n      tag_596\n      jumpi\n        /* \"#utility.yul\":23905:23913   */\n      dup2\n        /* \"#utility.yul\":23890:23913   */\n      swap1\n      pop\n        /* \"#utility.yul\":23866:23915   */\n    tag_596:\n        /* \"#utility.yul\":23928:24008   */\n      tag_597\n        /* \"#utility.yul\":23984:24006   */\n      tag_598\n        /* \"#utility.yul\":24002:24005   */\n      dup6\n        /* \"#utility.yul\":23984:24006   */\n      tag_348\n      jump\t// in\n    tag_598:\n        /* \"#utility.yul\":23974:23982   */\n      dup4\n        /* \"#utility.yul\":23970:24007   */\n      add\n        /* \"#utility.yul\":23957:23968   */\n      dup3\n        /* \"#utility.yul\":23928:24008   */\n      tag_357\n      jump\t// in\n    tag_597:\n        /* \"#utility.yul\":23587:24018   */\n      pop\n      pop\n        /* \"#utility.yul\":23572:24018   */\n    tag_593:\n        /* \"#utility.yul\":23482:24025   */\n      pop\n      pop\n      pop\n      jump\t// out\n        /* \"#utility.yul\":24031:24148   */\n    tag_359:\n        /* \"#utility.yul\":24085:24093   */\n      0x00\n        /* \"#utility.yul\":24135:24140   */\n      dup3\n        /* \"#utility.yul\":24129:24133   */\n      dup3\n        /* \"#utility.yul\":24125:24141   */\n      shr\n        /* \"#utility.yul\":24104:24141   */\n      swap1\n      pop\n        /* \"#utility.yul\":24031:24148   */\n      swap3\n      swap2\n      pop\n      pop\n      jump\t// out\n        /* \"#utility.yul\":24154:24323   */\n    tag_360:\n        /* \"#utility.yul\":24198:24204   */\n      0x00\n        /* \"#utility.yul\":24231:24282   */\n      tag_601\n        /* \"#utility.yul\":24279:24280   */\n      0x00\n        /* \"#utility.yul\":24275:24281   */\n      not\n        /* \"#utility.yul\":24267:24272   */\n      dup5\n        /* \"#utility.yul\":24264:24265   */\n      0x08\n        /* \"#utility.yul\":24260:24273   */\n      mul\n        /* \"#utility.yul\":24231:24282   */\n      tag_359\n      jump\t// in\n    tag_601:\n        /* \"#utility.yul\":24227:24283   */\n      not\n        /* \"#utility.yul\":24312:24316   */\n      dup1\n        /* \"#utility.yul\":24306:24310   */\n      dup4\n        /* \"#utility.yul\":24302:24317   */\n      and\n        /* \"#utility.yul\":24292:24317   */\n      swap2\n      pop\n        /* \"#utility.yul\":24205:24323   */\n      pop\n        /* \"#utility.yul\":24154:24323   */\n      swap3\n      swap2\n      pop\n      pop\n      jump\t// out\n        /* \"#utility.yul\":24328:24623   */\n    tag_361:\n        /* \"#utility.yul\":24404:24408   */\n      0x00\n        /* \"#utility.yul\":24550:24579   */\n      tag_603\n        /* \"#utility.yul\":24575:24578   */\n      dup4\n        /* \"#utility.yul\":24569:24573   */\n      dup4\n        /* \"#utility.yul\":24550:24579   */\n      tag_360\n      jump\t// in\n    tag_603:\n        /* \"#utility.yul\":24542:24579   */\n      swap2\n      pop\n        /* \"#utility.yul\":24612:24615   */\n      dup3\n        /* \"#utility.yul\":24609:24610   */\n      0x02\n        /* \"#utility.yul\":24605:24616   */\n      mul\n        /* \"#utility.yul\":24599:24603   */\n      dup3\n        /* \"#utility.yul\":24596:24617   */\n      or\n        /* \"#utility.yul\":24588:24617   */\n      swap1\n      pop\n        /* \"#utility.yul\":24328:24623   */\n      swap3\n      swap2\n      pop\n      pop\n      jump\t// out\n        /* \"#utility.yul\":24628:26079   */\n    tag_211:\n        /* \"#utility.yul\":24739:24742   */\n      dup2\n        /* \"#utility.yul\":24733:24737   */\n      dup2\n        /* \"#utility.yul\":24730:24743   */\n      sub\n        /* \"#utility.yul\":24727:24753   */\n      tag_605\n      jumpi\n        /* \"#utility.yul\":24746:24751   */\n      pop\n      pop\n      jump(tag_604)\n        /* \"#utility.yul\":24727:24753   */\n    tag_605:\n        /* \"#utility.yul\":24777:24811   */\n      tag_606\n        /* \"#utility.yul\":24807:24810   */\n      dup3\n        /* \"#utility.yul\":24777:24811   */\n      tag_346\n      jump\t// in\n    tag_606:\n        /* \"#utility.yul\":24876:24894   */\n      0xffffffffffffffff\n        /* \"#utility.yul\":24868:24874   */\n      dup2\n        /* \"#utility.yul\":24865:24895   */\n      gt\n        /* \"#utility.yul\":24862:24918   */\n      iszero\n      tag_607\n      jumpi\n        /* \"#utility.yul\":24898:24916   */\n      tag_608\n      tag_313\n      jump\t// in\n    tag_608:\n        /* \"#utility.yul\":24862:24918   */\n    tag_607:\n        /* \"#utility.yul\":24942:24980   */\n      tag_609\n        /* \"#utility.yul\":24974:24978   */\n      dup3\n        /* \"#utility.yul\":24968:24979   */\n      sload\n        /* \"#utility.yul\":24942:24980   */\n      tag_118\n      jump\t// in\n    tag_609:\n        /* \"#utility.yul\":25027:25094   */\n      tag_610\n        /* \"#utility.yul\":25087:25093   */\n      dup3\n        /* \"#utility.yul\":25079:25085   */\n      dup3\n        /* \"#utility.yul\":25073:25077   */\n      dup6\n        /* \"#utility.yul\":25027:25094   */\n      tag_358\n      jump\t// in\n    tag_610:\n        /* \"#utility.yul\":25121:25122   */\n      0x00\n        /* \"#utility.yul\":25150:25152   */\n      0x1f\n        /* \"#utility.yul\":25142:25148   */\n      dup4\n        /* \"#utility.yul\":25139:25153   */\n      gt\n        /* \"#utility.yul\":25167:25168   */\n      0x01\n        /* \"#utility.yul\":25162:25834   */\n      dup2\n      eq\n      tag_612\n      jumpi\n        /* \"#utility.yul\":25878:25879   */\n      0x00\n        /* \"#utility.yul\":25895:25901   */\n      dup5\n        /* \"#utility.yul\":25892:25969   */\n      iszero\n      tag_613\n      jumpi\n        /* \"#utility.yul\":25944:25953   */\n      dup3\n        /* \"#utility.yul\":25939:25942   */\n      dup8\n        /* \"#utility.yul\":25935:25954   */\n      add\n        /* \"#utility.yul\":25929:25955   */\n      sload\n        /* \"#utility.yul\":25920:25955   */\n      swap1\n      pop\n        /* \"#utility.yul\":25892:25969   */\n    tag_613:\n        /* \"#utility.yul\":25995:26062   */\n      tag_614\n        /* \"#utility.yul\":26055:26061   */\n      dup6\n        /* \"#utility.yul\":26048:26053   */\n      dup3\n        /* \"#utility.yul\":25995:26062   */\n      tag_361\n      jump\t// in\n    tag_614:\n        /* \"#utility.yul\":25989:25993   */\n      dup7\n        /* \"#utility.yul\":25982:26063   */\n      sstore\n        /* \"#utility.yul\":25851:26073   */\n      pop\n        /* \"#utility.yul\":25132:26073   */\n      jump(tag_611)\n        /* \"#utility.yul\":25162:25834   */\n    tag_612:\n        /* \"#utility.yul\":25214:25218   */\n      0x1f\n        /* \"#utility.yul\":25210:25219   */\n      not\n        /* \"#utility.yul\":25202:25208   */\n      dup5\n        /* \"#utility.yul\":25198:25220   */\n      and\n        /* \"#utility.yul\":25240:25276   */\n      tag_615\n        /* \"#utility.yul\":25272:25275   */\n      dup8\n        /* \"#utility.yul\":25240:25276   */\n      tag_347\n      jump\t// in\n    tag_615:\n        /* \"#utility.yul\":25233:25276   */\n      swap7\n      pop\n        /* \"#utility.yul\":25303:25340   */\n      tag_616\n        /* \"#utility.yul\":25335:25339   */\n      dup7\n        /* \"#utility.yul\":25303:25340   */\n      tag_347\n      jump\t// in\n    tag_616:\n        /* \"#utility.yul\":25362:25363   */\n      0x00\n        /* \"#utility.yul\":25376:25583   */\n    tag_617:\n        /* \"#utility.yul\":25390:25397   */\n      dup3\n        /* \"#utility.yul\":25387:25388   */\n      dup2\n        /* \"#utility.yul\":25384:25398   */\n      lt\n        /* \"#utility.yul\":25376:25583   */\n      iszero\n      tag_619\n      jumpi\n        /* \"#utility.yul\":25469:25478   */\n      dup5\n        /* \"#utility.yul\":25464:25467   */\n      dup10\n        /* \"#utility.yul\":25460:25479   */\n      add\n        /* \"#utility.yul\":25454:25480   */\n      sload\n        /* \"#utility.yul\":25446:25452   */\n      dup3\n        /* \"#utility.yul\":25439:25481   */\n      sstore\n        /* \"#utility.yul\":25520:25521   */\n      0x01\n        /* \"#utility.yul\":25512:25518   */\n      dup3\n        /* \"#utility.yul\":25508:25522   */\n      add\n        /* \"#utility.yul\":25498:25522   */\n      swap2\n      pop\n        /* \"#utility.yul\":25567:25568   */\n      0x01\n        /* \"#utility.yul\":25556:25565   */\n      dup6\n        /* \"#utility.yul\":25552:25569   */\n      add\n        /* \"#utility.yul\":25539:25569   */\n      swap5\n      pop\n        /* \"#utility.yul\":25413:25417   */\n      0x20\n        /* \"#utility.yul\":25410:25411   */\n      dup2\n        /* \"#utility.yul\":25406:25418   */\n      add\n        /* \"#utility.yul\":25401:25418   */\n      swap1\n      pop\n        /* \"#utility.yul\":25376:25583   */\n      jump(tag_617)\n    tag_619:\n        /* \"#utility.yul\":25611:25617   */\n      dup7\n        /* \"#utility.yul\":25602:25609   */\n      dup4\n        /* \"#utility.yul\":25599:25618   */\n      lt\n        /* \"#utility.yul\":25596:25775   */\n      iszero\n      tag_620\n      jumpi\n        /* \"#utility.yul\":25669:25678   */\n      dup5\n        /* \"#utility.yul\":25664:25667   */\n      dup10\n        /* \"#utility.yul\":25660:25679   */\n      add\n        /* \"#utility.yul\":25654:25680   */\n      sload\n        /* \"#utility.yul\":25712:25760   */\n      tag_621\n        /* \"#utility.yul\":25754:25758   */\n      0x1f\n        /* \"#utility.yul\":25746:25752   */\n      dup10\n        /* \"#utility.yul\":25742:25759   */\n      and\n        /* \"#utility.yul\":25731:25740   */\n      dup3\n        /* \"#utility.yul\":25712:25760   */\n      tag_360\n      jump\t// in\n    tag_621:\n        /* \"#utility.yul\":25704:25710   */\n      dup4\n        /* \"#utility.yul\":25697:25761   */\n      sstore\n        /* \"#utility.yul\":25619:25775   */\n      pop\n        /* \"#utility.yul\":25596:25775   */\n    tag_620:\n        /* \"#utility.yul\":25821:25822   */\n      0x01\n        /* \"#utility.yul\":25817:25818   */\n      0x02\n        /* \"#utility.yul\":25809:25815   */\n      dup9\n        /* \"#utility.yul\":25805:25819   */\n      mul\n        /* \"#utility.yul\":25801:25823   */\n      add\n        /* \"#utility.yul\":25795:25799   */\n      dup9\n        /* \"#utility.yul\":25788:25824   */\n      sstore\n        /* \"#utility.yul\":25169:25834   */\n      pop\n      pop\n      pop\n        /* \"#utility.yul\":25132:26073   */\n    tag_611:\n      pop\n        /* \"#utility.yul\":24717:26079   */\n      pop\n      pop\n      pop\n        /* \"#utility.yul\":24628:26079   */\n      pop\n      pop\n    tag_604:\n      jump\t// out\n        /* \"#utility.yul\":26085:26265   */\n    tag_214:\n        /* \"#utility.yul\":26133:26210   */\n      0x4e487b7100000000000000000000000000000000000000000000000000000000\n        /* \"#utility.yul\":26130:26131   */\n      0x00\n        /* \"#utility.yul\":26123:26211   */\n      mstore\n        /* \"#utility.yul\":26230:26234   */\n      0x31\n        /* \"#utility.yul\":26227:26228   */\n      0x04\n        /* \"#utility.yul\":26220:26235   */\n      mstore\n        /* \"#utility.yul\":26254:26258   */\n      0x24\n        /* \"#utility.yul\":26251:26252   */\n      0x00\n        /* \"#utility.yul\":26244:26259   */\n      revert\n        /* \"#utility.yul\":26271:26450   */\n    tag_362:\n        /* \"#utility.yul\":26411:26442   */\n      0x416d6f756e74206d7573742062652067726561746572207468616e2030000000\n        /* \"#utility.yul\":26407:26408   */\n      0x00\n        /* \"#utility.yul\":26399:26405   */\n      dup3\n        /* \"#utility.yul\":26395:26409   */\n      add\n        /* \"#utility.yul\":26388:26443   */\n      mstore\n        /* \"#utility.yul\":26271:26450   */\n      pop\n      jump\t// out\n        /* \"#utility.yul\":26456:26822   */\n    tag_363:\n        /* \"#utility.yul\":26598:26601   */\n      0x00\n        /* \"#utility.yul\":26619:26686   */\n      tag_625\n        /* \"#utility.yul\":26683:26685   */\n      0x1d\n        /* \"#utility.yul\":26678:26681   */\n      dup4\n        /* \"#utility.yul\":26619:26686   */\n      tag_295\n      jump\t// in\n    tag_625:\n        /* \"#utility.yul\":26612:26686   */\n      swap2\n      pop\n        /* \"#utility.yul\":26695:26788   */\n      tag_626\n        /* \"#utility.yul\":26784:26787   */\n      dup3\n        /* \"#utility.yul\":26695:26788   */\n      tag_362\n      jump\t// in\n    tag_626:\n        /* \"#utility.yul\":26813:26815   */\n      0x20\n        /* \"#utility.yul\":26808:26811   */\n      dup3\n        /* \"#utility.yul\":26804:26816   */\n      add\n        /* \"#utility.yul\":26797:26816   */\n      swap1\n      pop\n        /* \"#utility.yul\":26456:26822   */\n      swap2\n      swap1\n      pop\n      jump\t// out\n        /* \"#utility.yul\":26828:27247   */\n    tag_224:\n        /* \"#utility.yul\":26994:26998   */\n      0x00\n        /* \"#utility.yul\":27032:27034   */\n      0x20\n        /* \"#utility.yul\":27021:27030   */\n      dup3\n        /* \"#utility.yul\":27017:27035   */\n      add\n        /* \"#utility.yul\":27009:27035   */\n      swap1\n      pop\n        /* \"#utility.yul\":27081:27090   */\n      dup2\n        /* \"#utility.yul\":27075:27079   */\n      dup2\n        /* \"#utility.yul\":27071:27091   */\n      sub\n        /* \"#utility.yul\":27067:27068   */\n      0x00\n        /* \"#utility.yul\":27056:27065   */\n      dup4\n        /* \"#utility.yul\":27052:27069   */\n      add\n        /* \"#utility.yul\":27045:27092   */\n      mstore\n        /* \"#utility.yul\":27109:27240   */\n      tag_628\n        /* \"#utility.yul\":27235:27239   */\n      dup2\n        /* \"#utility.yul\":27109:27240   */\n      tag_363\n      jump\t// in\n    tag_628:\n        /* \"#utility.yul\":27101:27240   */\n      swap1\n      pop\n        /* \"#utility.yul\":26828:27247   */\n      swap2\n      swap1\n      pop\n      jump\t// out\n        /* \"#utility.yul\":27253:28648   */\n    tag_227:\n        /* \"#utility.yul\":27370:27407   */\n      tag_630\n        /* \"#utility.yul\":27403:27406   */\n      dup3\n        /* \"#utility.yul\":27370:27407   */\n      tag_294\n      jump\t// in\n    tag_630:\n        /* \"#utility.yul\":27472:27490   */\n      0xffffffffffffffff\n        /* \"#utility.yul\":27464:27470   */\n      dup2\n        /* \"#utility.yul\":27461:27491   */\n      gt\n        /* \"#utility.yul\":27458:27514   */\n      iszero\n      tag_631\n      jumpi\n        /* \"#utility.yul\":27494:27512   */\n      tag_632\n      tag_313\n      jump\t// in\n    tag_632:\n        /* \"#utility.yul\":27458:27514   */\n    tag_631:\n        /* \"#utility.yul\":27538:27576   */\n      tag_633\n        /* \"#utility.yul\":27570:27574   */\n      dup3\n        /* \"#utility.yul\":27564:27575   */\n      sload\n        /* \"#utility.yul\":27538:27576   */\n      tag_118\n      jump\t// in\n    tag_633:\n        /* \"#utility.yul\":27623:27690   */\n      tag_634\n        /* \"#utility.yul\":27683:27689   */\n      dup3\n        /* \"#utility.yul\":27675:27681   */\n      dup3\n        /* \"#utility.yul\":27669:27673   */\n      dup6\n        /* \"#utility.yul\":27623:27690   */\n      tag_358\n      jump\t// in\n    tag_634:\n        /* \"#utility.yul\":27717:27718   */\n      0x00\n        /* \"#utility.yul\":27741:27745   */\n      0x20\n        /* \"#utility.yul\":27728:27745   */\n      swap1\n      pop\n        /* \"#utility.yul\":27773:27775   */\n      0x1f\n        /* \"#utility.yul\":27765:27771   */\n      dup4\n        /* \"#utility.yul\":27762:27776   */\n      gt\n        /* \"#utility.yul\":27790:27791   */\n      0x01\n        /* \"#utility.yul\":27785:28403   */\n      dup2\n      eq\n      tag_636\n      jumpi\n        /* \"#utility.yul\":28447:28448   */\n      0x00\n        /* \"#utility.yul\":28464:28470   */\n      dup5\n        /* \"#utility.yul\":28461:28538   */\n      iszero\n      tag_637\n      jumpi\n        /* \"#utility.yul\":28513:28522   */\n      dup3\n        /* \"#utility.yul\":28508:28511   */\n      dup8\n        /* \"#utility.yul\":28504:28523   */\n      add\n        /* \"#utility.yul\":28498:28524   */\n      mload\n        /* \"#utility.yul\":28489:28524   */\n      swap1\n      pop\n        /* \"#utility.yul\":28461:28538   */\n    tag_637:\n        /* \"#utility.yul\":28564:28631   */\n      tag_638\n        /* \"#utility.yul\":28624:28630   */\n      dup6\n        /* \"#utility.yul\":28617:28622   */\n      dup3\n        /* \"#utility.yul\":28564:28631   */\n      tag_361\n      jump\t// in\n    tag_638:\n        /* \"#utility.yul\":28558:28562   */\n      dup7\n        /* \"#utility.yul\":28551:28632   */\n      sstore\n        /* \"#utility.yul\":28420:28642   */\n      pop\n        /* \"#utility.yul\":27755:28642   */\n      jump(tag_635)\n        /* \"#utility.yul\":27785:28403   */\n    tag_636:\n        /* \"#utility.yul\":27837:27841   */\n      0x1f\n        /* \"#utility.yul\":27833:27842   */\n      not\n        /* \"#utility.yul\":27825:27831   */\n      dup5\n        /* \"#utility.yul\":27821:27843   */\n      and\n        /* \"#utility.yul\":27871:27908   */\n      tag_639\n        /* \"#utility.yul\":27903:27907   */\n      dup7\n        /* \"#utility.yul\":27871:27908   */\n      tag_347\n      jump\t// in\n    tag_639:\n        /* \"#utility.yul\":27930:27931   */\n      0x00\n        /* \"#utility.yul\":27944:28152   */\n    tag_640:\n        /* \"#utility.yul\":27958:27965   */\n      dup3\n        /* \"#utility.yul\":27955:27956   */\n      dup2\n        /* \"#utility.yul\":27952:27966   */\n      lt\n        /* \"#utility.yul\":27944:28152   */\n      iszero\n      tag_642\n      jumpi\n        /* \"#utility.yul\":28037:28046   */\n      dup5\n        /* \"#utility.yul\":28032:28035   */\n      dup10\n        /* \"#utility.yul\":28028:28047   */\n      add\n        /* \"#utility.yul\":28022:28048   */\n      mload\n        /* \"#utility.yul\":28014:28020   */\n      dup3\n        /* \"#utility.yul\":28007:28049   */\n      sstore\n        /* \"#utility.yul\":28088:28089   */\n      0x01\n        /* \"#utility.yul\":28080:28086   */\n      dup3\n        /* \"#utility.yul\":28076:28090   */\n      add\n        /* \"#utility.yul\":28066:28090   */\n      swap2\n      pop\n        /* \"#utility.yul\":28135:28137   */\n      0x20\n        /* \"#utility.yul\":28124:28133   */\n      dup6\n        /* \"#utility.yul\":28120:28138   */\n      add\n        /* \"#utility.yul\":28107:28138   */\n      swap5\n      pop\n        /* \"#utility.yul\":27981:27985   */\n      0x20\n        /* \"#utility.yul\":27978:27979   */\n      dup2\n        /* \"#utility.yul\":27974:27986   */\n      add\n        /* \"#utility.yul\":27969:27986   */\n      swap1\n      pop\n        /* \"#utility.yul\":27944:28152   */\n      jump(tag_640)\n    tag_642:\n        /* \"#utility.yul\":28180:28186   */\n      dup7\n        /* \"#utility.yul\":28171:28178   */\n      dup4\n        /* \"#utility.yul\":28168:28187   */\n      lt\n        /* \"#utility.yul\":28165:28344   */\n      iszero\n      tag_643\n      jumpi\n        /* \"#utility.yul\":28238:28247   */\n      dup5\n        /* \"#utility.yul\":28233:28236   */\n      dup10\n        /* \"#utility.yul\":28229:28248   */\n      add\n        /* \"#utility.yul\":28223:28249   */\n      mload\n        /* \"#utility.yul\":28281:28329   */\n      tag_644\n        /* \"#utility.yul\":28323:28327   */\n      0x1f\n        /* \"#utility.yul\":28315:28321   */\n      dup10\n        /* \"#utility.yul\":28311:28328   */\n      and\n        /* \"#utility.yul\":28300:28309   */\n      dup3\n        /* \"#utility.yul\":28281:28329   */\n      tag_360\n      jump\t// in\n    tag_644:\n        /* \"#utility.yul\":28273:28279   */\n      dup4\n        /* \"#utility.yul\":28266:28330   */\n      sstore\n        /* \"#utility.yul\":28188:28344   */\n      pop\n        /* \"#utility.yul\":28165:28344   */\n    tag_643:\n        /* \"#utility.yul\":28390:28391   */\n      0x01\n        /* \"#utility.yul\":28386:28387   */\n      0x02\n        /* \"#utility.yul\":28378:28384   */\n      dup9\n        /* \"#utility.yul\":28374:28388   */\n      mul\n        /* \"#utility.yul\":28370:28392   */\n      add\n        /* \"#utility.yul\":28364:28368   */\n      dup9\n        /* \"#utility.yul\":28357:28393   */\n      sstore\n        /* \"#utility.yul\":27792:28403   */\n      pop\n      pop\n      pop\n        /* \"#utility.yul\":27755:28642   */\n    tag_635:\n      pop\n        /* \"#utility.yul\":27345:28648   */\n      pop\n      pop\n      pop\n        /* \"#utility.yul\":27253:28648   */\n      pop\n      pop\n      jump\t// out\n        /* \"#utility.yul\":28654:28816   */\n    tag_364:\n        /* \"#utility.yul\":28794:28808   */\n      0x496e76616c696420746965720000000000000000000000000000000000000000\n        /* \"#utility.yul\":28790:28791   */\n      0x00\n        /* \"#utility.yul\":28782:28788   */\n      dup3\n        /* \"#utility.yul\":28778:28792   */\n      add\n        /* \"#utility.yul\":28771:28809   */\n      mstore\n        /* \"#utility.yul\":28654:28816   */\n      pop\n      jump\t// out\n        /* \"#utility.yul\":28822:29188   */\n    tag_365:\n        /* \"#utility.yul\":28964:28967   */\n      0x00\n        /* \"#utility.yul\":28985:29052   */\n      tag_647\n        /* \"#utility.yul\":29049:29051   */\n      0x0c\n        /* \"#utility.yul\":29044:29047   */\n      dup4\n        /* \"#utility.yul\":28985:29052   */\n      tag_295\n      jump\t// in\n    tag_647:\n        /* \"#utility.yul\":28978:29052   */\n      swap2\n      pop\n        /* \"#utility.yul\":29061:29154   */\n      tag_648\n        /* \"#utility.yul\":29150:29153   */\n      dup3\n        /* \"#utility.yul\":29061:29154   */\n      tag_364\n      jump\t// in\n    tag_648:\n        /* \"#utility.yul\":29179:29181   */\n      0x20\n        /* \"#utility.yul\":29174:29177   */\n      dup3\n        /* \"#utility.yul\":29170:29182   */\n      add\n        /* \"#utility.yul\":29163:29182   */\n      swap1\n      pop\n        /* \"#utility.yul\":28822:29188   */\n      swap2\n      swap1\n      pop\n      jump\t// out\n        /* \"#utility.yul\":29194:29613   */\n    tag_242:\n        /* \"#utility.yul\":29360:29364   */\n      0x00\n        /* \"#utility.yul\":29398:29400   */\n      0x20\n        /* \"#utility.yul\":29387:29396   */\n      dup3\n        /* \"#utility.yul\":29383:29401   */\n      add\n        /* \"#utility.yul\":29375:29401   */\n      swap1\n      pop\n        /* \"#utility.yul\":29447:29456   */\n      dup2\n        /* \"#utility.yul\":29441:29445   */\n      dup2\n        /* \"#utility.yul\":29437:29457   */\n      sub\n        /* \"#utility.yul\":29433:29434   */\n      0x00\n        /* \"#utility.yul\":29422:29431   */\n      dup4\n        /* \"#utility.yul\":29418:29435   */\n      add\n        /* \"#utility.yul\":29411:29458   */\n      mstore\n        /* \"#utility.yul\":29475:29606   */\n      tag_650\n        /* \"#utility.yul\":29601:29605   */\n      dup2\n        /* \"#utility.yul\":29475:29606   */\n      tag_365\n      jump\t// in\n    tag_650:\n        /* \"#utility.yul\":29467:29606   */\n      swap1\n      pop\n        /* \"#utility.yul\":29194:29613   */\n      swap2\n      swap1\n      pop\n      jump\t// out\n        /* \"#utility.yul\":29619:29785   */\n    tag_366:\n        /* \"#utility.yul\":29759:29777   */\n      0x496e636f727265637420616d6f756e7400000000000000000000000000000000\n        /* \"#utility.yul\":29755:29756   */\n      0x00\n        /* \"#utility.yul\":29747:29753   */\n      dup3\n        /* \"#utility.yul\":29743:29757   */\n      add\n        /* \"#utility.yul\":29736:29778   */\n      mstore\n        /* \"#utility.yul\":29619:29785   */\n      pop\n      jump\t// out\n        /* \"#utility.yul\":29791:30157   */\n    tag_367:\n        /* \"#utility.yul\":29933:29936   */\n      0x00\n        /* \"#utility.yul\":29954:30021   */\n      tag_653\n        /* \"#utility.yul\":30018:30020   */\n      0x10\n        /* \"#utility.yul\":30013:30016   */\n      dup4\n        /* \"#utility.yul\":29954:30021   */\n      tag_295\n      jump\t// in\n    tag_653:\n        /* \"#utility.yul\":29947:30021   */\n      swap2\n      pop\n        /* \"#utility.yul\":30030:30123   */\n      tag_654\n        /* \"#utility.yul\":30119:30122   */\n      dup3\n        /* \"#utility.yul\":30030:30123   */\n      tag_366\n      jump\t// in\n    tag_654:\n        /* \"#utility.yul\":30148:30150   */\n      0x20\n        /* \"#utility.yul\":30143:30146   */\n      dup3\n        /* \"#utility.yul\":30139:30151   */\n      add\n        /* \"#utility.yul\":30132:30151   */\n      swap1\n      pop\n        /* \"#utility.yul\":29791:30157   */\n      swap2\n      swap1\n      pop\n      jump\t// out\n        /* \"#utility.yul\":30163:30582   */\n    tag_248:\n        /* \"#utility.yul\":30329:30333   */\n      0x00\n        /* \"#utility.yul\":30367:30369   */\n      0x20\n        /* \"#utility.yul\":30356:30365   */\n      dup3\n        /* \"#utility.yul\":30352:30370   */\n      add\n        /* \"#utility.yul\":30344:30370   */\n      swap1\n      pop\n        /* \"#utility.yul\":30416:30425   */\n      dup2\n        /* \"#utility.yul\":30410:30414   */\n      dup2\n        /* \"#utility.yul\":30406:30426   */\n      sub\n        /* \"#utility.yul\":30402:30403   */\n      0x00\n        /* \"#utility.yul\":30391:30400   */\n      dup4\n        /* \"#utility.yul\":30387:30404   */\n      add\n        /* \"#utility.yul\":30380:30427   */\n      mstore\n        /* \"#utility.yul\":30444:30575   */\n      tag_656\n        /* \"#utility.yul\":30570:30574   */\n      dup2\n        /* \"#utility.yul\":30444:30575   */\n      tag_367\n      jump\t// in\n    tag_656:\n        /* \"#utility.yul\":30436:30575   */\n      swap1\n      pop\n        /* \"#utility.yul\":30163:30582   */\n      swap2\n      swap1\n      pop\n      jump\t// out\n        /* \"#utility.yul\":30588:30821   */\n    tag_253:\n        /* \"#utility.yul\":30627:30630   */\n      0x00\n        /* \"#utility.yul\":30650:30674   */\n      tag_658\n        /* \"#utility.yul\":30668:30673   */\n      dup3\n        /* \"#utility.yul\":30650:30674   */\n      tag_291\n      jump\t// in\n    tag_658:\n        /* \"#utility.yul\":30641:30674   */\n      swap2\n      pop\n        /* \"#utility.yul\":30696:30762   */\n      0xffffffffffffffffffffffffffffffffffffffffffffffffffffffffffffffff\n        /* \"#utility.yul\":30689:30694   */\n      dup3\n        /* \"#utility.yul\":30686:30763   */\n      sub\n        /* \"#utility.yul\":30683:30786   */\n      tag_659\n      jumpi\n        /* \"#utility.yul\":30766:30784   */\n      tag_660\n      tag_335\n      jump\t// in\n    tag_660:\n        /* \"#utility.yul\":30683:30786   */\n    tag_659:\n        /* \"#utility.yul\":30813:30814   */\n      0x01\n        /* \"#utility.yul\":30806:30811   */\n      dup3\n        /* \"#utility.yul\":30802:30815   */\n      add\n        /* \"#utility.yul\":30795:30815   */\n      swap1\n      pop\n        /* \"#utility.yul\":30588:30821   */\n      swap2\n      swap1\n      pop\n      jump\t// out\n\n    auxdata: 0xa26469706673582212202cdd429ff8f64810562de0cf168b9359b3c5371a2977a9ddaec0c66a6bd7990364736f6c634300081a0033\n}\n",
				"bytecode": {
					"linkReferences": {},
					"object": "608060405234801561000f575f80fd5b50604051612a6e380380612a6e833981810160405281019061003191906102c5565b835f908161003f9190610578565b50826001908161004f9190610578565b508160028190555062015180816100669190610674565b4261007191906106b5565b6003819055508460045f6101000a81548173ffffffffffffffffffffffffffffffffffffffff021916908373ffffffffffffffffffffffffffffffffffffffff1602179055505f600460156101000a81548160ff021916908360028111156100dc576100db6106e8565b5b02179055505050505050610715565b5f604051905090565b5f80fd5b5f80fd5b5f73ffffffffffffffffffffffffffffffffffffffff82169050919050565b5f610125826100fc565b9050919050565b6101358161011b565b811461013f575f80fd5b50565b5f815190506101508161012c565b92915050565b5f80fd5b5f80fd5b5f601f19601f8301169050919050565b7f4e487b71000000000000000000000000000000000000000000000000000000005f52604160045260245ffd5b6101a48261015e565b810181811067ffffffffffffffff821117156101c3576101c261016e565b5b80604052505050565b5f6101d56100eb565b90506101e1828261019b565b919050565b5f67ffffffffffffffff821115610200576101ff61016e565b5b6102098261015e565b9050602081019050919050565b8281835e5f83830152505050565b5f610236610231846101e6565b6101cc565b9050828152602081018484840111156102525761025161015a565b5b61025d848285610216565b509392505050565b5f82601f83011261027957610278610156565b5b8151610289848260208601610224565b91505092915050565b5f819050919050565b6102a481610292565b81146102ae575f80fd5b50565b5f815190506102bf8161029b565b92915050565b5f805f805f60a086880312156102de576102dd6100f4565b5b5f6102eb88828901610142565b955050602086015167ffffffffffffffff81111561030c5761030b6100f8565b5b61031888828901610265565b945050604086015167ffffffffffffffff811115610339576103386100f8565b5b61034588828901610265565b9350506060610356888289016102b1565b9250506080610367888289016102b1565b9150509295509295909350565b5f81519050919050565b7f4e487b71000000000000000000000000000000000000000000000000000000005f52602260045260245ffd5b5f60028204905060018216806103c257607f821691505b6020821081036103d5576103d461037e565b5b50919050565b5f819050815f5260205f209050919050565b5f6020601f8301049050919050565b5f82821b905092915050565b5f600883026104377fffffffffffffffffffffffffffffffffffffffffffffffffffffffffffffffff826103fc565b61044186836103fc565b95508019841693508086168417925050509392505050565b5f819050919050565b5f61047c61047761047284610292565b610459565b610292565b9050919050565b5f819050919050565b61049583610462565b6104a96104a182610483565b848454610408565b825550505050565b5f90565b6104bd6104b1565b6104c881848461048c565b505050565b5b818110156104eb576104e05f826104b5565b6001810190506104ce565b5050565b601f82111561053057610501816103db565b61050a846103ed565b81016020851015610519578190505b61052d610525856103ed565b8301826104cd565b50505b505050565b5f82821c905092915050565b5f6105505f1984600802610535565b1980831691505092915050565b5f6105688383610541565b9150826002028217905092915050565b61058182610374565b67ffffffffffffffff81111561059a5761059961016e565b5b6105a482546103ab565b6105af8282856104ef565b5f60209050601f8311600181146105e0575f84156105ce578287015190505b6105d8858261055d565b86555061063f565b601f1984166105ee866103db565b5f5b82811015610615578489015182556001820191506020850194506020810190506105f0565b86831015610632578489015161062e601f891682610541565b8355505b6001600288020188555050505b505050505050565b7f4e487b71000000000000000000000000000000000000000000000000000000005f52601160045260245ffd5b5f61067e82610292565b915061068983610292565b925082820261069781610292565b915082820484148315176106ae576106ad610647565b5b5092915050565b5f6106bf82610292565b91506106ca83610292565b92508282019050808211156106e2576106e1610647565b5b92915050565b7f4e487b71000000000000000000000000000000000000000000000000000000005f52602160045260245ffd5b61234c806107225f395ff3fe60806040526004361061011e575f3560e01c80636f9fb98a1161009f578063b85dfb8011610063578063b85dfb8014610390578063c19d93fb146103cc578063c4ae3168146103f6578063ca1d209d1461040c578063de170570146104285761011e565b80636f9fb98a146102c25780637284e416146102ec5780637497211b146103165780638da5cb5b1461033e5780638ece7b91146103685761011e565b8063389b7533116100e6578063389b75331461021a5780633ccfd60b146102425780634019388314610258578063590e1ae3146102825780635c975abb146102985761011e565b8063039af9eb1461012257806306fdde0314610160578063105505151461018a57806315922efb146101b457806329dcb0cf146101f0575b5f80fd5b34801561012d575f80fd5b5061014860048036038101906101439190611400565b610452565b604051610157939291906114aa565b60405180910390f35b34801561016b575f80fd5b5061017461050d565b60405161018191906114e6565b60405180910390f35b348015610195575f80fd5b5061019e610598565b6040516101ab9190611579565b60405180910390f35b3480156101bf575f80fd5b506101da60048036038101906101d591906115ec565b61060c565b6040516101e79190611644565b60405180910390f35b3480156101fb575f80fd5b50610204610671565b604051610211919061165d565b60405180910390f35b348015610225575f80fd5b50610240600480360381019061023b9190611400565b610677565b005b34801561024d575f80fd5b506102566107a4565b005b348015610263575f80fd5b5061026c61095f565b604051610279919061165d565b60405180910390f35b34801561028d575f80fd5b50610296610965565b005b3480156102a3575f80fd5b506102ac610af2565b6040516102b99190611644565b60405180910390f35b3480156102cd575f80fd5b506102d6610b05565b6040516102e3919061165d565b60405180910390f35b3480156102f7575f80fd5b50610300610b0c565b60405161030d91906114e6565b60405180910390f35b348015610321575f80fd5b5061033c60048036038101906103379190611400565b610b98565b005b348015610349575f80fd5b50610352610d31565b60405161035f9190611685565b60405180910390f35b348015610373575f80fd5b5061038e600480360381019061038991906117ca565b610d56565b005b34801561039b575f80fd5b506103b660048036038101906103b19190611824565b610e98565b6040516103c3919061165d565b60405180910390f35b3480156103d7575f80fd5b506103e0610eb2565b6040516103ed9190611579565b60405180910390f35b348015610401575f80fd5b5061040a610ec5565b005b61042660048036038101906104219190611400565b610f80565b005b348015610433575f80fd5b5061043c6111a0565b60405161044991906119ae565b60405180910390f35b60058181548110610461575f80fd5b905f5260205f2090600302015f91509050805f018054610480906119fb565b80601f01602080910402602001604051908101604052809291908181526020018280546104ac906119fb565b80156104f75780601f106104ce576101008083540402835291602001916104f7565b820191905f5260205f20905b8154815290600101906020018083116104da57829003601f168201915b5050505050908060010154908060020154905083565b5f8054610519906119fb565b80601f0160208091040260200160405190810160405280929190818152602001828054610545906119fb565b80156105905780601f1061056757610100808354040283529160200191610590565b820191905f5260205f20905b81548152906001019060200180831161057357829003601f168201915b505050505081565b5f8060028111156105ac576105ab611506565b5b600460159054906101000a900460ff1660028111156105ce576105cd611506565b5b1480156105dc575060035442115b156105f7576002544710156105f25760026105f5565b60015b505b600460159054906101000a900460ff16905090565b5f60065f8473ffffffffffffffffffffffffffffffffffffffff1673ffffffffffffffffffffffffffffffffffffffff1681526020019081526020015f206001015f8381526020019081526020015f205f9054906101000a900460ff16905092915050565b60035481565b60045f9054906101000a900473ffffffffffffffffffffffffffffffffffffffff1673ffffffffffffffffffffffffffffffffffffffff163373ffffffffffffffffffffffffffffffffffffffff1614610706576040517f08c379a00000000000000000000000000000000000000000000000000000000081526004016106fd90611a75565b60405180910390fd5b5f600281111561071957610718611506565b5b600460159054906101000a900460ff16600281111561073b5761073a611506565b5b1461077b576040517f08c379a000000000000000000000000000000000000000000000000000000000815260040161077290611add565b60405180910390fd5b620151808161078a9190611b28565b60035f82825461079a9190611b69565b9250508190555050565b60045f9054906101000a900473ffffffffffffffffffffffffffffffffffffffff1673ffffffffffffffffffffffffffffffffffffffff163373ffffffffffffffffffffffffffffffffffffffff1614610833576040517f08c379a000000000000000000000000000000000000000000000000000000000815260040161082a90611a75565b60405180910390fd5b61083b61129f565b6001600281111561084f5761084e611506565b5b600460159054906101000a900460ff16600281111561087157610870611506565b5b146108b1576040517f08c379a00000000000000000000000000000000000000000000000000000000081526004016108a890611be6565b60405180910390fd5b5f4790505f81116108f7576040517f08c379a00000000000000000000000000000000000000000000000000000000081526004016108ee90611c4e565b60405180910390fd5b60045f9054906101000a900473ffffffffffffffffffffffffffffffffffffffff1673ffffffffffffffffffffffffffffffffffffffff166108fc8290811502906040515f60405180830381858888f1935050505015801561095b573d5f803e3d5ffd5b5050565b60025481565b61096d61129f565b6002808111156109805761097f611506565b5b600460159054906101000a900460ff1660028111156109a2576109a1611506565b5b146109e2576040517f08c379a00000000000000000000000000000000000000000000000000000000081526004016109d990611cb6565b60405180910390fd5b5f60065f3373ffffffffffffffffffffffffffffffffffffffff1673ffffffffffffffffffffffffffffffffffffffff1681526020019081526020015f205f015490505f8111610a67576040517f08c379a0000000000000000000000000000000000000000000000000000000008152600401610a5e90611d1e565b60405180910390fd5b5f60065f3373ffffffffffffffffffffffffffffffffffffffff1673ffffffffffffffffffffffffffffffffffffffff1681526020019081526020015f205f01819055503373ffffffffffffffffffffffffffffffffffffffff166108fc8290811502906040515f60405180830381858888f19350505050158015610aee573d5f803e3d5ffd5b5050565b600460149054906101000a900460ff1681565b5f47905090565b60018054610b19906119fb565b80601f0160208091040260200160405190810160405280929190818152602001828054610b45906119fb565b8015610b905780601f10610b6757610100808354040283529160200191610b90565b820191905f5260205f20905b815481529060010190602001808311610b7357829003601f168201915b505050505081565b60045f9054906101000a900473ffffffffffffffffffffffffffffffffffffffff1673ffffffffffffffffffffffffffffffffffffffff163373ffffffffffffffffffffffffffffffffffffffff1614610c27576040517f08c379a0000000000000000000000000000000000000000000000000000000008152600401610c1e90611a75565b60405180910390fd5b6005805490508110610c6e576040517f08c379a0000000000000000000000000000000000000000000000000000000008152600401610c6590611d86565b60405180910390fd5b60056001600580549050610c829190611da4565b81548110610c9357610c92611dd7565b5b905f5260205f20906003020160058281548110610cb357610cb2611dd7565b5b905f5260205f2090600302015f8201815f019081610cd19190611fb6565b5060018201548160010155600282015481600201559050506005805480610cfb57610cfa61209b565b5b600190038181905f5260205f2090600302015f8082015f610d1c9190611364565b600182015f9055600282015f90555050905550565b60045f9054906101000a900473ffffffffffffffffffffffffffffffffffffffff1681565b60045f9054906101000a900473ffffffffffffffffffffffffffffffffffffffff1673ffffffffffffffffffffffffffffffffffffffff163373ffffffffffffffffffffffffffffffffffffffff1614610de5576040517f08c379a0000000000000000000000000000000000000000000000000000000008152600401610ddc90611a75565b60405180910390fd5b5f8111610e27576040517f08c379a0000000000000000000000000000000000000000000000000000000008152600401610e1e90612112565b60405180910390fd5b600560405180606001604052808481526020018381526020015f815250908060018154018082558091505060019003905f5260205f2090600302015f909190919091505f820151815f019081610e7d9190612130565b50602082015181600101556040820151816002015550505050565b6006602052805f5260405f205f91509050805f0154905081565b600460159054906101000a900460ff1681565b60045f9054906101000a900473ffffffffffffffffffffffffffffffffffffffff1673ffffffffffffffffffffffffffffffffffffffff163373ffffffffffffffffffffffffffffffffffffffff1614610f54576040517f08c379a0000000000000000000000000000000000000000000000000000000008152600401610f4b90611a75565b60405180910390fd5b600460149054906101000a900460ff1615600460146101000a81548160ff021916908315150217905550565b5f6002811115610f9357610f92611506565b5b600460159054906101000a900460ff166002811115610fb557610fb4611506565b5b14610ff5576040517f08c379a0000000000000000000000000000000000000000000000000000000008152600401610fec90611add565b60405180910390fd5b600580549050811061103c576040517f08c379a000000000000000000000000000000000000000000000000000000000815260040161103390612249565b60405180910390fd5b600581815481106110505761104f611dd7565b5b905f5260205f2090600302016001015434146110a1576040517f08c379a0000000000000000000000000000000000000000000000000000000008152600401611098906122b1565b60405180910390fd5b600581815481106110b5576110b4611dd7565b5b905f5260205f2090600302016002015f8154809291906110d4906122cf565b91905055503460065f3373ffffffffffffffffffffffffffffffffffffffff1673ffffffffffffffffffffffffffffffffffffffff1681526020019081526020015f205f015f8282546111279190611b69565b92505081905550600160065f3373ffffffffffffffffffffffffffffffffffffffff1673ffffffffffffffffffffffffffffffffffffffff1681526020019081526020015f206001015f8381526020019081526020015f205f6101000a81548160ff02191690831515021790555061119d61129f565b50565b60606005805480602002602001604051908101604052809291908181526020015f905b82821015611296578382905f5260205f2090600302016040518060600160405290815f820180546111f3906119fb565b80601f016020809104026020016040519081016040528092919081815260200182805461121f906119fb565b801561126a5780601f106112415761010080835404028352916020019161126a565b820191905f5260205f20905b81548152906001019060200180831161124d57829003601f168201915b5050505050815260200160018201548152602001600282015481525050815260200190600101906111c3565b50505050905090565b5f60028111156112b2576112b1611506565b5b600460159054906101000a900460ff1660028111156112d4576112d3611506565b5b03611362576003544210611324576002544710156112f35760026112f6565b60015b600460156101000a81548160ff0219169083600281111561131a57611319611506565b5b0217905550611361565b600254471015611334575f611337565b60015b600460156101000a81548160ff0219169083600281111561135b5761135a611506565b5b02179055505b5b565b508054611370906119fb565b5f825580601f10611381575061139e565b601f0160209004905f5260205f209081019061139d91906113a1565b5b50565b5b808211156113b8575f815f9055506001016113a2565b5090565b5f604051905090565b5f80fd5b5f80fd5b5f819050919050565b6113df816113cd565b81146113e9575f80fd5b50565b5f813590506113fa816113d6565b92915050565b5f60208284031215611415576114146113c5565b5b5f611422848285016113ec565b91505092915050565b5f81519050919050565b5f82825260208201905092915050565b8281835e5f83830152505050565b5f601f19601f8301169050919050565b5f61146d8261142b565b6114778185611435565b9350611487818560208601611445565b61149081611453565b840191505092915050565b6114a4816113cd565b82525050565b5f6060820190508181035f8301526114c28186611463565b90506114d1602083018561149b565b6114de604083018461149b565b949350505050565b5f6020820190508181035f8301526114fe8184611463565b905092915050565b7f4e487b71000000000000000000000000000000000000000000000000000000005f52602160045260245ffd5b6003811061154457611543611506565b5b50565b5f81905061155482611533565b919050565b5f61156382611547565b9050919050565b61157381611559565b82525050565b5f60208201905061158c5f83018461156a565b92915050565b5f73ffffffffffffffffffffffffffffffffffffffff82169050919050565b5f6115bb82611592565b9050919050565b6115cb816115b1565b81146115d5575f80fd5b50565b5f813590506115e6816115c2565b92915050565b5f8060408385031215611602576116016113c5565b5b5f61160f858286016115d8565b9250506020611620858286016113ec565b9150509250929050565b5f8115159050919050565b61163e8161162a565b82525050565b5f6020820190506116575f830184611635565b92915050565b5f6020820190506116705f83018461149b565b92915050565b61167f816115b1565b82525050565b5f6020820190506116985f830184611676565b92915050565b5f80fd5b5f80fd5b7f4e487b71000000000000000000000000000000000000000000000000000000005f52604160045260245ffd5b6116dc82611453565b810181811067ffffffffffffffff821117156116fb576116fa6116a6565b5b80604052505050565b5f61170d6113bc565b905061171982826116d3565b919050565b5f67ffffffffffffffff821115611738576117376116a6565b5b61174182611453565b9050602081019050919050565b828183375f83830152505050565b5f61176e6117698461171e565b611704565b90508281526020810184848401111561178a576117896116a2565b5b61179584828561174e565b509392505050565b5f82601f8301126117b1576117b061169e565b5b81356117c184826020860161175c565b91505092915050565b5f80604083850312156117e0576117df6113c5565b5b5f83013567ffffffffffffffff8111156117fd576117fc6113c9565b5b6118098582860161179d565b925050602061181a858286016113ec565b9150509250929050565b5f60208284031215611839576118386113c5565b5b5f611846848285016115d8565b91505092915050565b5f81519050919050565b5f82825260208201905092915050565b5f819050602082019050919050565b5f82825260208201905092915050565b5f6118928261142b565b61189c8185611878565b93506118ac818560208601611445565b6118b581611453565b840191505092915050565b6118c9816113cd565b82525050565b5f606083015f8301518482035f8601526118e98282611888565b91505060208301516118fe60208601826118c0565b50604083015161191160408601826118c0565b508091505092915050565b5f61192783836118cf565b905092915050565b5f602082019050919050565b5f6119458261184f565b61194f8185611859565b93508360208202850161196185611869565b805f5b8581101561199c578484038952815161197d858261191c565b94506119888361192f565b925060208a01995050600181019050611964565b50829750879550505050505092915050565b5f6020820190508181035f8301526119c6818461193b565b905092915050565b7f4e487b71000000000000000000000000000000000000000000000000000000005f52602260045260245ffd5b5f6002820490506001821680611a1257607f821691505b602082108103611a2557611a246119ce565b5b50919050565b7f4e6f7420746865206f776e6572000000000000000000000000000000000000005f82015250565b5f611a5f600d83611435565b9150611a6a82611a2b565b602082019050919050565b5f6020820190508181035f830152611a8c81611a53565b9050919050565b7f43616d706169676e206973206e6f7420616374697665000000000000000000005f82015250565b5f611ac7601683611435565b9150611ad282611a93565b602082019050919050565b5f6020820190508181035f830152611af481611abb565b9050919050565b7f4e487b71000000000000000000000000000000000000000000000000000000005f52601160045260245ffd5b5f611b32826113cd565b9150611b3d836113cd565b9250828202611b4b816113cd565b91508282048414831517611b6257611b61611afb565b5b5092915050565b5f611b73826113cd565b9150611b7e836113cd565b9250828201905080821115611b9657611b95611afb565b5b92915050565b7f43616d706169676e206e6f74207375636365737366756c0000000000000000005f82015250565b5f611bd0601783611435565b9150611bdb82611b9c565b602082019050919050565b5f6020820190508181035f830152611bfd81611bc4565b9050919050565b7f4e6f2062616c616e636520746f207769746864726177000000000000000000005f82015250565b5f611c38601683611435565b9150611c4382611c04565b602082019050919050565b5f6020820190508181035f830152611c6581611c2c565b9050919050565b7f526566756e6473206e6f7420617661696c61626c6500000000000000000000005f82015250565b5f611ca0601583611435565b9150611cab82611c6c565b602082019050919050565b5f6020820190508181035f830152611ccd81611c94565b9050919050565b7f4e6f20636f6e747269627574696f6e7320746f20726566756e640000000000005f82015250565b5f611d08601a83611435565b9150611d1382611cd4565b602082019050919050565b5f6020820190508181035f830152611d3581611cfc565b9050919050565b7f5469657220646f6573206e6f74206578697374000000000000000000000000005f82015250565b5f611d70601383611435565b9150611d7b82611d3c565b602082019050919050565b5f6020820190508181035f830152611d9d81611d64565b9050919050565b5f611dae826113cd565b9150611db9836113cd565b9250828203905081811115611dd157611dd0611afb565b5b92915050565b7f4e487b71000000000000000000000000000000000000000000000000000000005f52603260045260245ffd5b5f81549050611e12816119fb565b9050919050565b5f819050815f5260205f209050919050565b5f6020601f8301049050919050565b5f82821b905092915050565b5f60088302611e757fffffffffffffffffffffffffffffffffffffffffffffffffffffffffffffffff82611e3a565b611e7f8683611e3a565b95508019841693508086168417925050509392505050565b5f819050919050565b5f611eba611eb5611eb0846113cd565b611e97565b6113cd565b9050919050565b5f819050919050565b611ed383611ea0565b611ee7611edf82611ec1565b848454611e46565b825550505050565b5f90565b611efb611eef565b611f06818484611eca565b505050565b5b81811015611f2957611f1e5f82611ef3565b600181019050611f0c565b5050565b601f821115611f6e57611f3f81611e19565b611f4884611e2b565b81016020851015611f57578190505b611f6b611f6385611e2b565b830182611f0b565b50505b505050565b5f82821c905092915050565b5f611f8e5f1984600802611f73565b1980831691505092915050565b5f611fa68383611f7f565b9150826002028217905092915050565b818103611fc4575050612099565b611fcd82611e04565b67ffffffffffffffff811115611fe657611fe56116a6565b5b611ff082546119fb565b611ffb828285611f2d565b5f601f831160018114612028575f8415612016578287015490505b6120208582611f9b565b865550612092565b601f19841661203687611e19565b965061204186611e19565b5f5b8281101561206857848901548255600182019150600185019450602081019050612043565b868310156120855784890154612081601f891682611f7f565b8355505b6001600288020188555050505b5050505050505b565b7f4e487b71000000000000000000000000000000000000000000000000000000005f52603160045260245ffd5b7f416d6f756e74206d7573742062652067726561746572207468616e20300000005f82015250565b5f6120fc601d83611435565b9150612107826120c8565b602082019050919050565b5f6020820190508181035f830152612129816120f0565b9050919050565b6121398261142b565b67ffffffffffffffff811115612152576121516116a6565b5b61215c82546119fb565b612167828285611f2d565b5f60209050601f831160018114612198575f8415612186578287015190505b6121908582611f9b565b8655506121f7565b601f1984166121a686611e19565b5f5b828110156121cd578489015182556001820191506020850194506020810190506121a8565b868310156121ea57848901516121e6601f891682611f7f565b8355505b6001600288020188555050505b505050505050565b7f496e76616c6964207469657200000000000000000000000000000000000000005f82015250565b5f612233600c83611435565b915061223e826121ff565b602082019050919050565b5f6020820190508181035f83015261226081612227565b9050919050565b7f496e636f727265637420616d6f756e74000000000000000000000000000000005f82015250565b5f61229b601083611435565b91506122a682612267565b602082019050919050565b5f6020820190508181035f8301526122c88161228f565b9050919050565b5f6122d9826113cd565b91507fffffffffffffffffffffffffffffffffffffffffffffffffffffffffffffffff820361230b5761230a611afb565b5b60018201905091905056fea26469706673582212202cdd429ff8f64810562de0cf168b9359b3c5371a2977a9ddaec0c66a6bd7990364736f6c634300081a0033",
					"opcodes": "PUSH1 0x80 PUSH1 0x40 MSTORE CALLVALUE DUP1 ISZERO PUSH2 0xF JUMPI PUSH0 DUP1 REVERT JUMPDEST POP PUSH1 0x40 MLOAD PUSH2 0x2A6E CODESIZE SUB DUP1 PUSH2 0x2A6E DUP4 CODECOPY DUP2 DUP2 ADD PUSH1 0x40 MSTORE DUP2 ADD SWAP1 PUSH2 0x31 SWAP2 SWAP1 PUSH2 0x2C5 JUMP JUMPDEST DUP4 PUSH0 SWAP1 DUP2 PUSH2 0x3F SWAP2 SWAP1 PUSH2 0x578 JUMP JUMPDEST POP DUP3 PUSH1 0x1 SWAP1 DUP2 PUSH2 0x4F SWAP2 SWAP1 PUSH2 0x578 JUMP JUMPDEST POP DUP2 PUSH1 0x2 DUP2 SWAP1 SSTORE POP PUSH3 0x15180 DUP2 PUSH2 0x66 SWAP2 SWAP1 PUSH2 0x674 JUMP JUMPDEST TIMESTAMP PUSH2 0x71 SWAP2 SWAP1 PUSH2 0x6B5 JUMP JUMPDEST PUSH1 0x3 DUP2 SWAP1 SSTORE POP DUP5 PUSH1 0x4 PUSH0 PUSH2 0x100 EXP DUP2 SLOAD DUP2 PUSH20 0xFFFFFFFFFFFFFFFFFFFFFFFFFFFFFFFFFFFFFFFF MUL NOT AND SWAP1 DUP4 PUSH20 0xFFFFFFFFFFFFFFFFFFFFFFFFFFFFFFFFFFFFFFFF AND MUL OR SWAP1 SSTORE POP PUSH0 PUSH1 0x4 PUSH1 0x15 PUSH2 0x100 EXP DUP2 SLOAD DUP2 PUSH1 0xFF MUL NOT AND SWAP1 DUP4 PUSH1 0x2 DUP2 GT ISZERO PUSH2 0xDC JUMPI PUSH2 0xDB PUSH2 0x6E8 JUMP JUMPDEST JUMPDEST MUL OR SWAP1 SSTORE POP POP POP POP POP POP PUSH2 0x715 JUMP JUMPDEST PUSH0 PUSH1 0x40 MLOAD SWAP1 POP SWAP1 JUMP JUMPDEST PUSH0 DUP1 REVERT JUMPDEST PUSH0 DUP1 REVERT JUMPDEST PUSH0 PUSH20 0xFFFFFFFFFFFFFFFFFFFFFFFFFFFFFFFFFFFFFFFF DUP3 AND SWAP1 POP SWAP2 SWAP1 POP JUMP JUMPDEST PUSH0 PUSH2 0x125 DUP3 PUSH2 0xFC JUMP JUMPDEST SWAP1 POP SWAP2 SWAP1 POP JUMP JUMPDEST PUSH2 0x135 DUP2 PUSH2 0x11B JUMP JUMPDEST DUP2 EQ PUSH2 0x13F JUMPI PUSH0 DUP1 REVERT JUMPDEST POP JUMP JUMPDEST PUSH0 DUP2 MLOAD SWAP1 POP PUSH2 0x150 DUP2 PUSH2 0x12C JUMP JUMPDEST SWAP3 SWAP2 POP POP JUMP JUMPDEST PUSH0 DUP1 REVERT JUMPDEST PUSH0 DUP1 REVERT JUMPDEST PUSH0 PUSH1 0x1F NOT PUSH1 0x1F DUP4 ADD AND SWAP1 POP SWAP2 SWAP1 POP JUMP JUMPDEST PUSH32 0x4E487B7100000000000000000000000000000000000000000000000000000000 PUSH0 MSTORE PUSH1 0x41 PUSH1 0x4 MSTORE PUSH1 0x24 PUSH0 REVERT JUMPDEST PUSH2 0x1A4 DUP3 PUSH2 0x15E JUMP JUMPDEST DUP2 ADD DUP2 DUP2 LT PUSH8 0xFFFFFFFFFFFFFFFF DUP3 GT OR ISZERO PUSH2 0x1C3 JUMPI PUSH2 0x1C2 PUSH2 0x16E JUMP JUMPDEST JUMPDEST DUP1 PUSH1 0x40 MSTORE POP POP POP JUMP JUMPDEST PUSH0 PUSH2 0x1D5 PUSH2 0xEB JUMP JUMPDEST SWAP1 POP PUSH2 0x1E1 DUP3 DUP3 PUSH2 0x19B JUMP JUMPDEST SWAP2 SWAP1 POP JUMP JUMPDEST PUSH0 PUSH8 0xFFFFFFFFFFFFFFFF DUP3 GT ISZERO PUSH2 0x200 JUMPI PUSH2 0x1FF PUSH2 0x16E JUMP JUMPDEST JUMPDEST PUSH2 0x209 DUP3 PUSH2 0x15E JUMP JUMPDEST SWAP1 POP PUSH1 0x20 DUP2 ADD SWAP1 POP SWAP2 SWAP1 POP JUMP JUMPDEST DUP3 DUP2 DUP4 MCOPY PUSH0 DUP4 DUP4 ADD MSTORE POP POP POP JUMP JUMPDEST PUSH0 PUSH2 0x236 PUSH2 0x231 DUP5 PUSH2 0x1E6 JUMP JUMPDEST PUSH2 0x1CC JUMP JUMPDEST SWAP1 POP DUP3 DUP2 MSTORE PUSH1 0x20 DUP2 ADD DUP5 DUP5 DUP5 ADD GT ISZERO PUSH2 0x252 JUMPI PUSH2 0x251 PUSH2 0x15A JUMP JUMPDEST JUMPDEST PUSH2 0x25D DUP5 DUP3 DUP6 PUSH2 0x216 JUMP JUMPDEST POP SWAP4 SWAP3 POP POP POP JUMP JUMPDEST PUSH0 DUP3 PUSH1 0x1F DUP4 ADD SLT PUSH2 0x279 JUMPI PUSH2 0x278 PUSH2 0x156 JUMP JUMPDEST JUMPDEST DUP2 MLOAD PUSH2 0x289 DUP5 DUP3 PUSH1 0x20 DUP7 ADD PUSH2 0x224 JUMP JUMPDEST SWAP2 POP POP SWAP3 SWAP2 POP POP JUMP JUMPDEST PUSH0 DUP2 SWAP1 POP SWAP2 SWAP1 POP JUMP JUMPDEST PUSH2 0x2A4 DUP2 PUSH2 0x292 JUMP JUMPDEST DUP2 EQ PUSH2 0x2AE JUMPI PUSH0 DUP1 REVERT JUMPDEST POP JUMP JUMPDEST PUSH0 DUP2 MLOAD SWAP1 POP PUSH2 0x2BF DUP2 PUSH2 0x29B JUMP JUMPDEST SWAP3 SWAP2 POP POP JUMP JUMPDEST PUSH0 DUP1 PUSH0 DUP1 PUSH0 PUSH1 0xA0 DUP7 DUP9 SUB SLT ISZERO PUSH2 0x2DE JUMPI PUSH2 0x2DD PUSH2 0xF4 JUMP JUMPDEST JUMPDEST PUSH0 PUSH2 0x2EB DUP9 DUP3 DUP10 ADD PUSH2 0x142 JUMP JUMPDEST SWAP6 POP POP PUSH1 0x20 DUP7 ADD MLOAD PUSH8 0xFFFFFFFFFFFFFFFF DUP2 GT ISZERO PUSH2 0x30C JUMPI PUSH2 0x30B PUSH2 0xF8 JUMP JUMPDEST JUMPDEST PUSH2 0x318 DUP9 DUP3 DUP10 ADD PUSH2 0x265 JUMP JUMPDEST SWAP5 POP POP PUSH1 0x40 DUP7 ADD MLOAD PUSH8 0xFFFFFFFFFFFFFFFF DUP2 GT ISZERO PUSH2 0x339 JUMPI PUSH2 0x338 PUSH2 0xF8 JUMP JUMPDEST JUMPDEST PUSH2 0x345 DUP9 DUP3 DUP10 ADD PUSH2 0x265 JUMP JUMPDEST SWAP4 POP POP PUSH1 0x60 PUSH2 0x356 DUP9 DUP3 DUP10 ADD PUSH2 0x2B1 JUMP JUMPDEST SWAP3 POP POP PUSH1 0x80 PUSH2 0x367 DUP9 DUP3 DUP10 ADD PUSH2 0x2B1 JUMP JUMPDEST SWAP2 POP POP SWAP3 SWAP6 POP SWAP3 SWAP6 SWAP1 SWAP4 POP JUMP JUMPDEST PUSH0 DUP2 MLOAD SWAP1 POP SWAP2 SWAP1 POP JUMP JUMPDEST PUSH32 0x4E487B7100000000000000000000000000000000000000000000000000000000 PUSH0 MSTORE PUSH1 0x22 PUSH1 0x4 MSTORE PUSH1 0x24 PUSH0 REVERT JUMPDEST PUSH0 PUSH1 0x2 DUP3 DIV SWAP1 POP PUSH1 0x1 DUP3 AND DUP1 PUSH2 0x3C2 JUMPI PUSH1 0x7F DUP3 AND SWAP2 POP JUMPDEST PUSH1 0x20 DUP3 LT DUP2 SUB PUSH2 0x3D5 JUMPI PUSH2 0x3D4 PUSH2 0x37E JUMP JUMPDEST JUMPDEST POP SWAP2 SWAP1 POP JUMP JUMPDEST PUSH0 DUP2 SWAP1 POP DUP2 PUSH0 MSTORE PUSH1 0x20 PUSH0 KECCAK256 SWAP1 POP SWAP2 SWAP1 POP JUMP JUMPDEST PUSH0 PUSH1 0x20 PUSH1 0x1F DUP4 ADD DIV SWAP1 POP SWAP2 SWAP1 POP JUMP JUMPDEST PUSH0 DUP3 DUP3 SHL SWAP1 POP SWAP3 SWAP2 POP POP JUMP JUMPDEST PUSH0 PUSH1 0x8 DUP4 MUL PUSH2 0x437 PUSH32 0xFFFFFFFFFFFFFFFFFFFFFFFFFFFFFFFFFFFFFFFFFFFFFFFFFFFFFFFFFFFFFFFF DUP3 PUSH2 0x3FC JUMP JUMPDEST PUSH2 0x441 DUP7 DUP4 PUSH2 0x3FC JUMP JUMPDEST SWAP6 POP DUP1 NOT DUP5 AND SWAP4 POP DUP1 DUP7 AND DUP5 OR SWAP3 POP POP POP SWAP4 SWAP3 POP POP POP JUMP JUMPDEST PUSH0 DUP2 SWAP1 POP SWAP2 SWAP1 POP JUMP JUMPDEST PUSH0 PUSH2 0x47C PUSH2 0x477 PUSH2 0x472 DUP5 PUSH2 0x292 JUMP JUMPDEST PUSH2 0x459 JUMP JUMPDEST PUSH2 0x292 JUMP JUMPDEST SWAP1 POP SWAP2 SWAP1 POP JUMP JUMPDEST PUSH0 DUP2 SWAP1 POP SWAP2 SWAP1 POP JUMP JUMPDEST PUSH2 0x495 DUP4 PUSH2 0x462 JUMP JUMPDEST PUSH2 0x4A9 PUSH2 0x4A1 DUP3 PUSH2 0x483 JUMP JUMPDEST DUP5 DUP5 SLOAD PUSH2 0x408 JUMP JUMPDEST DUP3 SSTORE POP POP POP POP JUMP JUMPDEST PUSH0 SWAP1 JUMP JUMPDEST PUSH2 0x4BD PUSH2 0x4B1 JUMP JUMPDEST PUSH2 0x4C8 DUP2 DUP5 DUP5 PUSH2 0x48C JUMP JUMPDEST POP POP POP JUMP JUMPDEST JUMPDEST DUP2 DUP2 LT ISZERO PUSH2 0x4EB JUMPI PUSH2 0x4E0 PUSH0 DUP3 PUSH2 0x4B5 JUMP JUMPDEST PUSH1 0x1 DUP2 ADD SWAP1 POP PUSH2 0x4CE JUMP JUMPDEST POP POP JUMP JUMPDEST PUSH1 0x1F DUP3 GT ISZERO PUSH2 0x530 JUMPI PUSH2 0x501 DUP2 PUSH2 0x3DB JUMP JUMPDEST PUSH2 0x50A DUP5 PUSH2 0x3ED JUMP JUMPDEST DUP2 ADD PUSH1 0x20 DUP6 LT ISZERO PUSH2 0x519 JUMPI DUP2 SWAP1 POP JUMPDEST PUSH2 0x52D PUSH2 0x525 DUP6 PUSH2 0x3ED JUMP JUMPDEST DUP4 ADD DUP3 PUSH2 0x4CD JUMP JUMPDEST POP POP JUMPDEST POP POP POP JUMP JUMPDEST PUSH0 DUP3 DUP3 SHR SWAP1 POP SWAP3 SWAP2 POP POP JUMP JUMPDEST PUSH0 PUSH2 0x550 PUSH0 NOT DUP5 PUSH1 0x8 MUL PUSH2 0x535 JUMP JUMPDEST NOT DUP1 DUP4 AND SWAP2 POP POP SWAP3 SWAP2 POP POP JUMP JUMPDEST PUSH0 PUSH2 0x568 DUP4 DUP4 PUSH2 0x541 JUMP JUMPDEST SWAP2 POP DUP3 PUSH1 0x2 MUL DUP3 OR SWAP1 POP SWAP3 SWAP2 POP POP JUMP JUMPDEST PUSH2 0x581 DUP3 PUSH2 0x374 JUMP JUMPDEST PUSH8 0xFFFFFFFFFFFFFFFF DUP2 GT ISZERO PUSH2 0x59A JUMPI PUSH2 0x599 PUSH2 0x16E JUMP JUMPDEST JUMPDEST PUSH2 0x5A4 DUP3 SLOAD PUSH2 0x3AB JUMP JUMPDEST PUSH2 0x5AF DUP3 DUP3 DUP6 PUSH2 0x4EF JUMP JUMPDEST PUSH0 PUSH1 0x20 SWAP1 POP PUSH1 0x1F DUP4 GT PUSH1 0x1 DUP2 EQ PUSH2 0x5E0 JUMPI PUSH0 DUP5 ISZERO PUSH2 0x5CE JUMPI DUP3 DUP8 ADD MLOAD SWAP1 POP JUMPDEST PUSH2 0x5D8 DUP6 DUP3 PUSH2 0x55D JUMP JUMPDEST DUP7 SSTORE POP PUSH2 0x63F JUMP JUMPDEST PUSH1 0x1F NOT DUP5 AND PUSH2 0x5EE DUP7 PUSH2 0x3DB JUMP JUMPDEST PUSH0 JUMPDEST DUP3 DUP2 LT ISZERO PUSH2 0x615 JUMPI DUP5 DUP10 ADD MLOAD DUP3 SSTORE PUSH1 0x1 DUP3 ADD SWAP2 POP PUSH1 0x20 DUP6 ADD SWAP5 POP PUSH1 0x20 DUP2 ADD SWAP1 POP PUSH2 0x5F0 JUMP JUMPDEST DUP7 DUP4 LT ISZERO PUSH2 0x632 JUMPI DUP5 DUP10 ADD MLOAD PUSH2 0x62E PUSH1 0x1F DUP10 AND DUP3 PUSH2 0x541 JUMP JUMPDEST DUP4 SSTORE POP JUMPDEST PUSH1 0x1 PUSH1 0x2 DUP9 MUL ADD DUP9 SSTORE POP POP POP JUMPDEST POP POP POP POP POP POP JUMP JUMPDEST PUSH32 0x4E487B7100000000000000000000000000000000000000000000000000000000 PUSH0 MSTORE PUSH1 0x11 PUSH1 0x4 MSTORE PUSH1 0x24 PUSH0 REVERT JUMPDEST PUSH0 PUSH2 0x67E DUP3 PUSH2 0x292 JUMP JUMPDEST SWAP2 POP PUSH2 0x689 DUP4 PUSH2 0x292 JUMP JUMPDEST SWAP3 POP DUP3 DUP3 MUL PUSH2 0x697 DUP2 PUSH2 0x292 JUMP JUMPDEST SWAP2 POP DUP3 DUP3 DIV DUP5 EQ DUP4 ISZERO OR PUSH2 0x6AE JUMPI PUSH2 0x6AD PUSH2 0x647 JUMP JUMPDEST JUMPDEST POP SWAP3 SWAP2 POP POP JUMP JUMPDEST PUSH0 PUSH2 0x6BF DUP3 PUSH2 0x292 JUMP JUMPDEST SWAP2 POP PUSH2 0x6CA DUP4 PUSH2 0x292 JUMP JUMPDEST SWAP3 POP DUP3 DUP3 ADD SWAP1 POP DUP1 DUP3 GT ISZERO PUSH2 0x6E2 JUMPI PUSH2 0x6E1 PUSH2 0x647 JUMP JUMPDEST JUMPDEST SWAP3 SWAP2 POP POP JUMP JUMPDEST PUSH32 0x4E487B7100000000000000000000000000000000000000000000000000000000 PUSH0 MSTORE PUSH1 0x21 PUSH1 0x4 MSTORE PUSH1 0x24 PUSH0 REVERT JUMPDEST PUSH2 0x234C DUP1 PUSH2 0x722 PUSH0 CODECOPY PUSH0 RETURN INVALID PUSH1 0x80 PUSH1 0x40 MSTORE PUSH1 0x4 CALLDATASIZE LT PUSH2 0x11E JUMPI PUSH0 CALLDATALOAD PUSH1 0xE0 SHR DUP1 PUSH4 0x6F9FB98A GT PUSH2 0x9F JUMPI DUP1 PUSH4 0xB85DFB80 GT PUSH2 0x63 JUMPI DUP1 PUSH4 0xB85DFB80 EQ PUSH2 0x390 JUMPI DUP1 PUSH4 0xC19D93FB EQ PUSH2 0x3CC JUMPI DUP1 PUSH4 0xC4AE3168 EQ PUSH2 0x3F6 JUMPI DUP1 PUSH4 0xCA1D209D EQ PUSH2 0x40C JUMPI DUP1 PUSH4 0xDE170570 EQ PUSH2 0x428 JUMPI PUSH2 0x11E JUMP JUMPDEST DUP1 PUSH4 0x6F9FB98A EQ PUSH2 0x2C2 JUMPI DUP1 PUSH4 0x7284E416 EQ PUSH2 0x2EC JUMPI DUP1 PUSH4 0x7497211B EQ PUSH2 0x316 JUMPI DUP1 PUSH4 0x8DA5CB5B EQ PUSH2 0x33E JUMPI DUP1 PUSH4 0x8ECE7B91 EQ PUSH2 0x368 JUMPI PUSH2 0x11E JUMP JUMPDEST DUP1 PUSH4 0x389B7533 GT PUSH2 0xE6 JUMPI DUP1 PUSH4 0x389B7533 EQ PUSH2 0x21A JUMPI DUP1 PUSH4 0x3CCFD60B EQ PUSH2 0x242 JUMPI DUP1 PUSH4 0x40193883 EQ PUSH2 0x258 JUMPI DUP1 PUSH4 0x590E1AE3 EQ PUSH2 0x282 JUMPI DUP1 PUSH4 0x5C975ABB EQ PUSH2 0x298 JUMPI PUSH2 0x11E JUMP JUMPDEST DUP1 PUSH4 0x39AF9EB EQ PUSH2 0x122 JUMPI DUP1 PUSH4 0x6FDDE03 EQ PUSH2 0x160 JUMPI DUP1 PUSH4 0x10550515 EQ PUSH2 0x18A JUMPI DUP1 PUSH4 0x15922EFB EQ PUSH2 0x1B4 JUMPI DUP1 PUSH4 0x29DCB0CF EQ PUSH2 0x1F0 JUMPI JUMPDEST PUSH0 DUP1 REVERT JUMPDEST CALLVALUE DUP1 ISZERO PUSH2 0x12D JUMPI PUSH0 DUP1 REVERT JUMPDEST POP PUSH2 0x148 PUSH1 0x4 DUP1 CALLDATASIZE SUB DUP2 ADD SWAP1 PUSH2 0x143 SWAP2 SWAP1 PUSH2 0x1400 JUMP JUMPDEST PUSH2 0x452 JUMP JUMPDEST PUSH1 0x40 MLOAD PUSH2 0x157 SWAP4 SWAP3 SWAP2 SWAP1 PUSH2 0x14AA JUMP JUMPDEST PUSH1 0x40 MLOAD DUP1 SWAP2 SUB SWAP1 RETURN JUMPDEST CALLVALUE DUP1 ISZERO PUSH2 0x16B JUMPI PUSH0 DUP1 REVERT JUMPDEST POP PUSH2 0x174 PUSH2 0x50D JUMP JUMPDEST PUSH1 0x40 MLOAD PUSH2 0x181 SWAP2 SWAP1 PUSH2 0x14E6 JUMP JUMPDEST PUSH1 0x40 MLOAD DUP1 SWAP2 SUB SWAP1 RETURN JUMPDEST CALLVALUE DUP1 ISZERO PUSH2 0x195 JUMPI PUSH0 DUP1 REVERT JUMPDEST POP PUSH2 0x19E PUSH2 0x598 JUMP JUMPDEST PUSH1 0x40 MLOAD PUSH2 0x1AB SWAP2 SWAP1 PUSH2 0x1579 JUMP JUMPDEST PUSH1 0x40 MLOAD DUP1 SWAP2 SUB SWAP1 RETURN JUMPDEST CALLVALUE DUP1 ISZERO PUSH2 0x1BF JUMPI PUSH0 DUP1 REVERT JUMPDEST POP PUSH2 0x1DA PUSH1 0x4 DUP1 CALLDATASIZE SUB DUP2 ADD SWAP1 PUSH2 0x1D5 SWAP2 SWAP1 PUSH2 0x15EC JUMP JUMPDEST PUSH2 0x60C JUMP JUMPDEST PUSH1 0x40 MLOAD PUSH2 0x1E7 SWAP2 SWAP1 PUSH2 0x1644 JUMP JUMPDEST PUSH1 0x40 MLOAD DUP1 SWAP2 SUB SWAP1 RETURN JUMPDEST CALLVALUE DUP1 ISZERO PUSH2 0x1FB JUMPI PUSH0 DUP1 REVERT JUMPDEST POP PUSH2 0x204 PUSH2 0x671 JUMP JUMPDEST PUSH1 0x40 MLOAD PUSH2 0x211 SWAP2 SWAP1 PUSH2 0x165D JUMP JUMPDEST PUSH1 0x40 MLOAD DUP1 SWAP2 SUB SWAP1 RETURN JUMPDEST CALLVALUE DUP1 ISZERO PUSH2 0x225 JUMPI PUSH0 DUP1 REVERT JUMPDEST POP PUSH2 0x240 PUSH1 0x4 DUP1 CALLDATASIZE SUB DUP2 ADD SWAP1 PUSH2 0x23B SWAP2 SWAP1 PUSH2 0x1400 JUMP JUMPDEST PUSH2 0x677 JUMP JUMPDEST STOP JUMPDEST CALLVALUE DUP1 ISZERO PUSH2 0x24D JUMPI PUSH0 DUP1 REVERT JUMPDEST POP PUSH2 0x256 PUSH2 0x7A4 JUMP JUMPDEST STOP JUMPDEST CALLVALUE DUP1 ISZERO PUSH2 0x263 JUMPI PUSH0 DUP1 REVERT JUMPDEST POP PUSH2 0x26C PUSH2 0x95F JUMP JUMPDEST PUSH1 0x40 MLOAD PUSH2 0x279 SWAP2 SWAP1 PUSH2 0x165D JUMP JUMPDEST PUSH1 0x40 MLOAD DUP1 SWAP2 SUB SWAP1 RETURN JUMPDEST CALLVALUE DUP1 ISZERO PUSH2 0x28D JUMPI PUSH0 DUP1 REVERT JUMPDEST POP PUSH2 0x296 PUSH2 0x965 JUMP JUMPDEST STOP JUMPDEST CALLVALUE DUP1 ISZERO PUSH2 0x2A3 JUMPI PUSH0 DUP1 REVERT JUMPDEST POP PUSH2 0x2AC PUSH2 0xAF2 JUMP JUMPDEST PUSH1 0x40 MLOAD PUSH2 0x2B9 SWAP2 SWAP1 PUSH2 0x1644 JUMP JUMPDEST PUSH1 0x40 MLOAD DUP1 SWAP2 SUB SWAP1 RETURN JUMPDEST CALLVALUE DUP1 ISZERO PUSH2 0x2CD JUMPI PUSH0 DUP1 REVERT JUMPDEST POP PUSH2 0x2D6 PUSH2 0xB05 JUMP JUMPDEST PUSH1 0x40 MLOAD PUSH2 0x2E3 SWAP2 SWAP1 PUSH2 0x165D JUMP JUMPDEST PUSH1 0x40 MLOAD DUP1 SWAP2 SUB SWAP1 RETURN JUMPDEST CALLVALUE DUP1 ISZERO PUSH2 0x2F7 JUMPI PUSH0 DUP1 REVERT JUMPDEST POP PUSH2 0x300 PUSH2 0xB0C JUMP JUMPDEST PUSH1 0x40 MLOAD PUSH2 0x30D SWAP2 SWAP1 PUSH2 0x14E6 JUMP JUMPDEST PUSH1 0x40 MLOAD DUP1 SWAP2 SUB SWAP1 RETURN JUMPDEST CALLVALUE DUP1 ISZERO PUSH2 0x321 JUMPI PUSH0 DUP1 REVERT JUMPDEST POP PUSH2 0x33C PUSH1 0x4 DUP1 CALLDATASIZE SUB DUP2 ADD SWAP1 PUSH2 0x337 SWAP2 SWAP1 PUSH2 0x1400 JUMP JUMPDEST PUSH2 0xB98 JUMP JUMPDEST STOP JUMPDEST CALLVALUE DUP1 ISZERO PUSH2 0x349 JUMPI PUSH0 DUP1 REVERT JUMPDEST POP PUSH2 0x352 PUSH2 0xD31 JUMP JUMPDEST PUSH1 0x40 MLOAD PUSH2 0x35F SWAP2 SWAP1 PUSH2 0x1685 JUMP JUMPDEST PUSH1 0x40 MLOAD DUP1 SWAP2 SUB SWAP1 RETURN JUMPDEST CALLVALUE DUP1 ISZERO PUSH2 0x373 JUMPI PUSH0 DUP1 REVERT JUMPDEST POP PUSH2 0x38E PUSH1 0x4 DUP1 CALLDATASIZE SUB DUP2 ADD SWAP1 PUSH2 0x389 SWAP2 SWAP1 PUSH2 0x17CA JUMP JUMPDEST PUSH2 0xD56 JUMP JUMPDEST STOP JUMPDEST CALLVALUE DUP1 ISZERO PUSH2 0x39B JUMPI PUSH0 DUP1 REVERT JUMPDEST POP PUSH2 0x3B6 PUSH1 0x4 DUP1 CALLDATASIZE SUB DUP2 ADD SWAP1 PUSH2 0x3B1 SWAP2 SWAP1 PUSH2 0x1824 JUMP JUMPDEST PUSH2 0xE98 JUMP JUMPDEST PUSH1 0x40 MLOAD PUSH2 0x3C3 SWAP2 SWAP1 PUSH2 0x165D JUMP JUMPDEST PUSH1 0x40 MLOAD DUP1 SWAP2 SUB SWAP1 RETURN JUMPDEST CALLVALUE DUP1 ISZERO PUSH2 0x3D7 JUMPI PUSH0 DUP1 REVERT JUMPDEST POP PUSH2 0x3E0 PUSH2 0xEB2 JUMP JUMPDEST PUSH1 0x40 MLOAD PUSH2 0x3ED SWAP2 SWAP1 PUSH2 0x1579 JUMP JUMPDEST PUSH1 0x40 MLOAD DUP1 SWAP2 SUB SWAP1 RETURN JUMPDEST CALLVALUE DUP1 ISZERO PUSH2 0x401 JUMPI PUSH0 DUP1 REVERT JUMPDEST POP PUSH2 0x40A PUSH2 0xEC5 JUMP JUMPDEST STOP JUMPDEST PUSH2 0x426 PUSH1 0x4 DUP1 CALLDATASIZE SUB DUP2 ADD SWAP1 PUSH2 0x421 SWAP2 SWAP1 PUSH2 0x1400 JUMP JUMPDEST PUSH2 0xF80 JUMP JUMPDEST STOP JUMPDEST CALLVALUE DUP1 ISZERO PUSH2 0x433 JUMPI PUSH0 DUP1 REVERT JUMPDEST POP PUSH2 0x43C PUSH2 0x11A0 JUMP JUMPDEST PUSH1 0x40 MLOAD PUSH2 0x449 SWAP2 SWAP1 PUSH2 0x19AE JUMP JUMPDEST PUSH1 0x40 MLOAD DUP1 SWAP2 SUB SWAP1 RETURN JUMPDEST PUSH1 0x5 DUP2 DUP2 SLOAD DUP2 LT PUSH2 0x461 JUMPI PUSH0 DUP1 REVERT JUMPDEST SWAP1 PUSH0 MSTORE PUSH1 0x20 PUSH0 KECCAK256 SWAP1 PUSH1 0x3 MUL ADD PUSH0 SWAP2 POP SWAP1 POP DUP1 PUSH0 ADD DUP1 SLOAD PUSH2 0x480 SWAP1 PUSH2 0x19FB JUMP JUMPDEST DUP1 PUSH1 0x1F ADD PUSH1 0x20 DUP1 SWAP2 DIV MUL PUSH1 0x20 ADD PUSH1 0x40 MLOAD SWAP1 DUP2 ADD PUSH1 0x40 MSTORE DUP1 SWAP3 SWAP2 SWAP1 DUP2 DUP2 MSTORE PUSH1 0x20 ADD DUP3 DUP1 SLOAD PUSH2 0x4AC SWAP1 PUSH2 0x19FB JUMP JUMPDEST DUP1 ISZERO PUSH2 0x4F7 JUMPI DUP1 PUSH1 0x1F LT PUSH2 0x4CE JUMPI PUSH2 0x100 DUP1 DUP4 SLOAD DIV MUL DUP4 MSTORE SWAP2 PUSH1 0x20 ADD SWAP2 PUSH2 0x4F7 JUMP JUMPDEST DUP3 ADD SWAP2 SWAP1 PUSH0 MSTORE PUSH1 0x20 PUSH0 KECCAK256 SWAP1 JUMPDEST DUP2 SLOAD DUP2 MSTORE SWAP1 PUSH1 0x1 ADD SWAP1 PUSH1 0x20 ADD DUP1 DUP4 GT PUSH2 0x4DA JUMPI DUP3 SWAP1 SUB PUSH1 0x1F AND DUP3 ADD SWAP2 JUMPDEST POP POP POP POP POP SWAP1 DUP1 PUSH1 0x1 ADD SLOAD SWAP1 DUP1 PUSH1 0x2 ADD SLOAD SWAP1 POP DUP4 JUMP JUMPDEST PUSH0 DUP1 SLOAD PUSH2 0x519 SWAP1 PUSH2 0x19FB JUMP JUMPDEST DUP1 PUSH1 0x1F ADD PUSH1 0x20 DUP1 SWAP2 DIV MUL PUSH1 0x20 ADD PUSH1 0x40 MLOAD SWAP1 DUP2 ADD PUSH1 0x40 MSTORE DUP1 SWAP3 SWAP2 SWAP1 DUP2 DUP2 MSTORE PUSH1 0x20 ADD DUP3 DUP1 SLOAD PUSH2 0x545 SWAP1 PUSH2 0x19FB JUMP JUMPDEST DUP1 ISZERO PUSH2 0x590 JUMPI DUP1 PUSH1 0x1F LT PUSH2 0x567 JUMPI PUSH2 0x100 DUP1 DUP4 SLOAD DIV MUL DUP4 MSTORE SWAP2 PUSH1 0x20 ADD SWAP2 PUSH2 0x590 JUMP JUMPDEST DUP3 ADD SWAP2 SWAP1 PUSH0 MSTORE PUSH1 0x20 PUSH0 KECCAK256 SWAP1 JUMPDEST DUP2 SLOAD DUP2 MSTORE SWAP1 PUSH1 0x1 ADD SWAP1 PUSH1 0x20 ADD DUP1 DUP4 GT PUSH2 0x573 JUMPI DUP3 SWAP1 SUB PUSH1 0x1F AND DUP3 ADD SWAP2 JUMPDEST POP POP POP POP POP DUP2 JUMP JUMPDEST PUSH0 DUP1 PUSH1 0x2 DUP2 GT ISZERO PUSH2 0x5AC JUMPI PUSH2 0x5AB PUSH2 0x1506 JUMP JUMPDEST JUMPDEST PUSH1 0x4 PUSH1 0x15 SWAP1 SLOAD SWAP1 PUSH2 0x100 EXP SWAP1 DIV PUSH1 0xFF AND PUSH1 0x2 DUP2 GT ISZERO PUSH2 0x5CE JUMPI PUSH2 0x5CD PUSH2 0x1506 JUMP JUMPDEST JUMPDEST EQ DUP1 ISZERO PUSH2 0x5DC JUMPI POP PUSH1 0x3 SLOAD TIMESTAMP GT JUMPDEST ISZERO PUSH2 0x5F7 JUMPI PUSH1 0x2 SLOAD SELFBALANCE LT ISZERO PUSH2 0x5F2 JUMPI PUSH1 0x2 PUSH2 0x5F5 JUMP JUMPDEST PUSH1 0x1 JUMPDEST POP JUMPDEST PUSH1 0x4 PUSH1 0x15 SWAP1 SLOAD SWAP1 PUSH2 0x100 EXP SWAP1 DIV PUSH1 0xFF AND SWAP1 POP SWAP1 JUMP JUMPDEST PUSH0 PUSH1 0x6 PUSH0 DUP5 PUSH20 0xFFFFFFFFFFFFFFFFFFFFFFFFFFFFFFFFFFFFFFFF AND PUSH20 0xFFFFFFFFFFFFFFFFFFFFFFFFFFFFFFFFFFFFFFFF AND DUP2 MSTORE PUSH1 0x20 ADD SWAP1 DUP2 MSTORE PUSH1 0x20 ADD PUSH0 KECCAK256 PUSH1 0x1 ADD PUSH0 DUP4 DUP2 MSTORE PUSH1 0x20 ADD SWAP1 DUP2 MSTORE PUSH1 0x20 ADD PUSH0 KECCAK256 PUSH0 SWAP1 SLOAD SWAP1 PUSH2 0x100 EXP SWAP1 DIV PUSH1 0xFF AND SWAP1 POP SWAP3 SWAP2 POP POP JUMP JUMPDEST PUSH1 0x3 SLOAD DUP2 JUMP JUMPDEST PUSH1 0x4 PUSH0 SWAP1 SLOAD SWAP1 PUSH2 0x100 EXP SWAP1 DIV PUSH20 0xFFFFFFFFFFFFFFFFFFFFFFFFFFFFFFFFFFFFFFFF AND PUSH20 0xFFFFFFFFFFFFFFFFFFFFFFFFFFFFFFFFFFFFFFFF AND CALLER PUSH20 0xFFFFFFFFFFFFFFFFFFFFFFFFFFFFFFFFFFFFFFFF AND EQ PUSH2 0x706 JUMPI PUSH1 0x40 MLOAD PUSH32 0x8C379A000000000000000000000000000000000000000000000000000000000 DUP2 MSTORE PUSH1 0x4 ADD PUSH2 0x6FD SWAP1 PUSH2 0x1A75 JUMP JUMPDEST PUSH1 0x40 MLOAD DUP1 SWAP2 SUB SWAP1 REVERT JUMPDEST PUSH0 PUSH1 0x2 DUP2 GT ISZERO PUSH2 0x719 JUMPI PUSH2 0x718 PUSH2 0x1506 JUMP JUMPDEST JUMPDEST PUSH1 0x4 PUSH1 0x15 SWAP1 SLOAD SWAP1 PUSH2 0x100 EXP SWAP1 DIV PUSH1 0xFF AND PUSH1 0x2 DUP2 GT ISZERO PUSH2 0x73B JUMPI PUSH2 0x73A PUSH2 0x1506 JUMP JUMPDEST JUMPDEST EQ PUSH2 0x77B JUMPI PUSH1 0x40 MLOAD PUSH32 0x8C379A000000000000000000000000000000000000000000000000000000000 DUP2 MSTORE PUSH1 0x4 ADD PUSH2 0x772 SWAP1 PUSH2 0x1ADD JUMP JUMPDEST PUSH1 0x40 MLOAD DUP1 SWAP2 SUB SWAP1 REVERT JUMPDEST PUSH3 0x15180 DUP2 PUSH2 0x78A SWAP2 SWAP1 PUSH2 0x1B28 JUMP JUMPDEST PUSH1 0x3 PUSH0 DUP3 DUP3 SLOAD PUSH2 0x79A SWAP2 SWAP1 PUSH2 0x1B69 JUMP JUMPDEST SWAP3 POP POP DUP2 SWAP1 SSTORE POP POP JUMP JUMPDEST PUSH1 0x4 PUSH0 SWAP1 SLOAD SWAP1 PUSH2 0x100 EXP SWAP1 DIV PUSH20 0xFFFFFFFFFFFFFFFFFFFFFFFFFFFFFFFFFFFFFFFF AND PUSH20 0xFFFFFFFFFFFFFFFFFFFFFFFFFFFFFFFFFFFFFFFF AND CALLER PUSH20 0xFFFFFFFFFFFFFFFFFFFFFFFFFFFFFFFFFFFFFFFF AND EQ PUSH2 0x833 JUMPI PUSH1 0x40 MLOAD PUSH32 0x8C379A000000000000000000000000000000000000000000000000000000000 DUP2 MSTORE PUSH1 0x4 ADD PUSH2 0x82A SWAP1 PUSH2 0x1A75 JUMP JUMPDEST PUSH1 0x40 MLOAD DUP1 SWAP2 SUB SWAP1 REVERT JUMPDEST PUSH2 0x83B PUSH2 0x129F JUMP JUMPDEST PUSH1 0x1 PUSH1 0x2 DUP2 GT ISZERO PUSH2 0x84F JUMPI PUSH2 0x84E PUSH2 0x1506 JUMP JUMPDEST JUMPDEST PUSH1 0x4 PUSH1 0x15 SWAP1 SLOAD SWAP1 PUSH2 0x100 EXP SWAP1 DIV PUSH1 0xFF AND PUSH1 0x2 DUP2 GT ISZERO PUSH2 0x871 JUMPI PUSH2 0x870 PUSH2 0x1506 JUMP JUMPDEST JUMPDEST EQ PUSH2 0x8B1 JUMPI PUSH1 0x40 MLOAD PUSH32 0x8C379A000000000000000000000000000000000000000000000000000000000 DUP2 MSTORE PUSH1 0x4 ADD PUSH2 0x8A8 SWAP1 PUSH2 0x1BE6 JUMP JUMPDEST PUSH1 0x40 MLOAD DUP1 SWAP2 SUB SWAP1 REVERT JUMPDEST PUSH0 SELFBALANCE SWAP1 POP PUSH0 DUP2 GT PUSH2 0x8F7 JUMPI PUSH1 0x40 MLOAD PUSH32 0x8C379A000000000000000000000000000000000000000000000000000000000 DUP2 MSTORE PUSH1 0x4 ADD PUSH2 0x8EE SWAP1 PUSH2 0x1C4E JUMP JUMPDEST PUSH1 0x40 MLOAD DUP1 SWAP2 SUB SWAP1 REVERT JUMPDEST PUSH1 0x4 PUSH0 SWAP1 SLOAD SWAP1 PUSH2 0x100 EXP SWAP1 DIV PUSH20 0xFFFFFFFFFFFFFFFFFFFFFFFFFFFFFFFFFFFFFFFF AND PUSH20 0xFFFFFFFFFFFFFFFFFFFFFFFFFFFFFFFFFFFFFFFF AND PUSH2 0x8FC DUP3 SWAP1 DUP2 ISZERO MUL SWAP1 PUSH1 0x40 MLOAD PUSH0 PUSH1 0x40 MLOAD DUP1 DUP4 SUB DUP2 DUP6 DUP9 DUP9 CALL SWAP4 POP POP POP POP ISZERO DUP1 ISZERO PUSH2 0x95B JUMPI RETURNDATASIZE PUSH0 DUP1 RETURNDATACOPY RETURNDATASIZE PUSH0 REVERT JUMPDEST POP POP JUMP JUMPDEST PUSH1 0x2 SLOAD DUP2 JUMP JUMPDEST PUSH2 0x96D PUSH2 0x129F JUMP JUMPDEST PUSH1 0x2 DUP1 DUP2 GT ISZERO PUSH2 0x980 JUMPI PUSH2 0x97F PUSH2 0x1506 JUMP JUMPDEST JUMPDEST PUSH1 0x4 PUSH1 0x15 SWAP1 SLOAD SWAP1 PUSH2 0x100 EXP SWAP1 DIV PUSH1 0xFF AND PUSH1 0x2 DUP2 GT ISZERO PUSH2 0x9A2 JUMPI PUSH2 0x9A1 PUSH2 0x1506 JUMP JUMPDEST JUMPDEST EQ PUSH2 0x9E2 JUMPI PUSH1 0x40 MLOAD PUSH32 0x8C379A000000000000000000000000000000000000000000000000000000000 DUP2 MSTORE PUSH1 0x4 ADD PUSH2 0x9D9 SWAP1 PUSH2 0x1CB6 JUMP JUMPDEST PUSH1 0x40 MLOAD DUP1 SWAP2 SUB SWAP1 REVERT JUMPDEST PUSH0 PUSH1 0x6 PUSH0 CALLER PUSH20 0xFFFFFFFFFFFFFFFFFFFFFFFFFFFFFFFFFFFFFFFF AND PUSH20 0xFFFFFFFFFFFFFFFFFFFFFFFFFFFFFFFFFFFFFFFF AND DUP2 MSTORE PUSH1 0x20 ADD SWAP1 DUP2 MSTORE PUSH1 0x20 ADD PUSH0 KECCAK256 PUSH0 ADD SLOAD SWAP1 POP PUSH0 DUP2 GT PUSH2 0xA67 JUMPI PUSH1 0x40 MLOAD PUSH32 0x8C379A000000000000000000000000000000000000000000000000000000000 DUP2 MSTORE PUSH1 0x4 ADD PUSH2 0xA5E SWAP1 PUSH2 0x1D1E JUMP JUMPDEST PUSH1 0x40 MLOAD DUP1 SWAP2 SUB SWAP1 REVERT JUMPDEST PUSH0 PUSH1 0x6 PUSH0 CALLER PUSH20 0xFFFFFFFFFFFFFFFFFFFFFFFFFFFFFFFFFFFFFFFF AND PUSH20 0xFFFFFFFFFFFFFFFFFFFFFFFFFFFFFFFFFFFFFFFF AND DUP2 MSTORE PUSH1 0x20 ADD SWAP1 DUP2 MSTORE PUSH1 0x20 ADD PUSH0 KECCAK256 PUSH0 ADD DUP2 SWAP1 SSTORE POP CALLER PUSH20 0xFFFFFFFFFFFFFFFFFFFFFFFFFFFFFFFFFFFFFFFF AND PUSH2 0x8FC DUP3 SWAP1 DUP2 ISZERO MUL SWAP1 PUSH1 0x40 MLOAD PUSH0 PUSH1 0x40 MLOAD DUP1 DUP4 SUB DUP2 DUP6 DUP9 DUP9 CALL SWAP4 POP POP POP POP ISZERO DUP1 ISZERO PUSH2 0xAEE JUMPI RETURNDATASIZE PUSH0 DUP1 RETURNDATACOPY RETURNDATASIZE PUSH0 REVERT JUMPDEST POP POP JUMP JUMPDEST PUSH1 0x4 PUSH1 0x14 SWAP1 SLOAD SWAP1 PUSH2 0x100 EXP SWAP1 DIV PUSH1 0xFF AND DUP2 JUMP JUMPDEST PUSH0 SELFBALANCE SWAP1 POP SWAP1 JUMP JUMPDEST PUSH1 0x1 DUP1 SLOAD PUSH2 0xB19 SWAP1 PUSH2 0x19FB JUMP JUMPDEST DUP1 PUSH1 0x1F ADD PUSH1 0x20 DUP1 SWAP2 DIV MUL PUSH1 0x20 ADD PUSH1 0x40 MLOAD SWAP1 DUP2 ADD PUSH1 0x40 MSTORE DUP1 SWAP3 SWAP2 SWAP1 DUP2 DUP2 MSTORE PUSH1 0x20 ADD DUP3 DUP1 SLOAD PUSH2 0xB45 SWAP1 PUSH2 0x19FB JUMP JUMPDEST DUP1 ISZERO PUSH2 0xB90 JUMPI DUP1 PUSH1 0x1F LT PUSH2 0xB67 JUMPI PUSH2 0x100 DUP1 DUP4 SLOAD DIV MUL DUP4 MSTORE SWAP2 PUSH1 0x20 ADD SWAP2 PUSH2 0xB90 JUMP JUMPDEST DUP3 ADD SWAP2 SWAP1 PUSH0 MSTORE PUSH1 0x20 PUSH0 KECCAK256 SWAP1 JUMPDEST DUP2 SLOAD DUP2 MSTORE SWAP1 PUSH1 0x1 ADD SWAP1 PUSH1 0x20 ADD DUP1 DUP4 GT PUSH2 0xB73 JUMPI DUP3 SWAP1 SUB PUSH1 0x1F AND DUP3 ADD SWAP2 JUMPDEST POP POP POP POP POP DUP2 JUMP JUMPDEST PUSH1 0x4 PUSH0 SWAP1 SLOAD SWAP1 PUSH2 0x100 EXP SWAP1 DIV PUSH20 0xFFFFFFFFFFFFFFFFFFFFFFFFFFFFFFFFFFFFFFFF AND PUSH20 0xFFFFFFFFFFFFFFFFFFFFFFFFFFFFFFFFFFFFFFFF AND CALLER PUSH20 0xFFFFFFFFFFFFFFFFFFFFFFFFFFFFFFFFFFFFFFFF AND EQ PUSH2 0xC27 JUMPI PUSH1 0x40 MLOAD PUSH32 0x8C379A000000000000000000000000000000000000000000000000000000000 DUP2 MSTORE PUSH1 0x4 ADD PUSH2 0xC1E SWAP1 PUSH2 0x1A75 JUMP JUMPDEST PUSH1 0x40 MLOAD DUP1 SWAP2 SUB SWAP1 REVERT JUMPDEST PUSH1 0x5 DUP1 SLOAD SWAP1 POP DUP2 LT PUSH2 0xC6E JUMPI PUSH1 0x40 MLOAD PUSH32 0x8C379A000000000000000000000000000000000000000000000000000000000 DUP2 MSTORE PUSH1 0x4 ADD PUSH2 0xC65 SWAP1 PUSH2 0x1D86 JUMP JUMPDEST PUSH1 0x40 MLOAD DUP1 SWAP2 SUB SWAP1 REVERT JUMPDEST PUSH1 0x5 PUSH1 0x1 PUSH1 0x5 DUP1 SLOAD SWAP1 POP PUSH2 0xC82 SWAP2 SWAP1 PUSH2 0x1DA4 JUMP JUMPDEST DUP2 SLOAD DUP2 LT PUSH2 0xC93 JUMPI PUSH2 0xC92 PUSH2 0x1DD7 JUMP JUMPDEST JUMPDEST SWAP1 PUSH0 MSTORE PUSH1 0x20 PUSH0 KECCAK256 SWAP1 PUSH1 0x3 MUL ADD PUSH1 0x5 DUP3 DUP2 SLOAD DUP2 LT PUSH2 0xCB3 JUMPI PUSH2 0xCB2 PUSH2 0x1DD7 JUMP JUMPDEST JUMPDEST SWAP1 PUSH0 MSTORE PUSH1 0x20 PUSH0 KECCAK256 SWAP1 PUSH1 0x3 MUL ADD PUSH0 DUP3 ADD DUP2 PUSH0 ADD SWAP1 DUP2 PUSH2 0xCD1 SWAP2 SWAP1 PUSH2 0x1FB6 JUMP JUMPDEST POP PUSH1 0x1 DUP3 ADD SLOAD DUP2 PUSH1 0x1 ADD SSTORE PUSH1 0x2 DUP3 ADD SLOAD DUP2 PUSH1 0x2 ADD SSTORE SWAP1 POP POP PUSH1 0x5 DUP1 SLOAD DUP1 PUSH2 0xCFB JUMPI PUSH2 0xCFA PUSH2 0x209B JUMP JUMPDEST JUMPDEST PUSH1 0x1 SWAP1 SUB DUP2 DUP2 SWAP1 PUSH0 MSTORE PUSH1 0x20 PUSH0 KECCAK256 SWAP1 PUSH1 0x3 MUL ADD PUSH0 DUP1 DUP3 ADD PUSH0 PUSH2 0xD1C SWAP2 SWAP1 PUSH2 0x1364 JUMP JUMPDEST PUSH1 0x1 DUP3 ADD PUSH0 SWAP1 SSTORE PUSH1 0x2 DUP3 ADD PUSH0 SWAP1 SSTORE POP POP SWAP1 SSTORE POP JUMP JUMPDEST PUSH1 0x4 PUSH0 SWAP1 SLOAD SWAP1 PUSH2 0x100 EXP SWAP1 DIV PUSH20 0xFFFFFFFFFFFFFFFFFFFFFFFFFFFFFFFFFFFFFFFF AND DUP2 JUMP JUMPDEST PUSH1 0x4 PUSH0 SWAP1 SLOAD SWAP1 PUSH2 0x100 EXP SWAP1 DIV PUSH20 0xFFFFFFFFFFFFFFFFFFFFFFFFFFFFFFFFFFFFFFFF AND PUSH20 0xFFFFFFFFFFFFFFFFFFFFFFFFFFFFFFFFFFFFFFFF AND CALLER PUSH20 0xFFFFFFFFFFFFFFFFFFFFFFFFFFFFFFFFFFFFFFFF AND EQ PUSH2 0xDE5 JUMPI PUSH1 0x40 MLOAD PUSH32 0x8C379A000000000000000000000000000000000000000000000000000000000 DUP2 MSTORE PUSH1 0x4 ADD PUSH2 0xDDC SWAP1 PUSH2 0x1A75 JUMP JUMPDEST PUSH1 0x40 MLOAD DUP1 SWAP2 SUB SWAP1 REVERT JUMPDEST PUSH0 DUP2 GT PUSH2 0xE27 JUMPI PUSH1 0x40 MLOAD PUSH32 0x8C379A000000000000000000000000000000000000000000000000000000000 DUP2 MSTORE PUSH1 0x4 ADD PUSH2 0xE1E SWAP1 PUSH2 0x2112 JUMP JUMPDEST PUSH1 0x40 MLOAD DUP1 SWAP2 SUB SWAP1 REVERT JUMPDEST PUSH1 0x5 PUSH1 0x40 MLOAD DUP1 PUSH1 0x60 ADD PUSH1 0x40 MSTORE DUP1 DUP5 DUP2 MSTORE PUSH1 0x20 ADD DUP4 DUP2 MSTORE PUSH1 0x20 ADD PUSH0 DUP2 MSTORE POP SWAP1 DUP1 PUSH1 0x1 DUP2 SLOAD ADD DUP1 DUP3 SSTORE DUP1 SWAP2 POP POP PUSH1 0x1 SWAP1 SUB SWAP1 PUSH0 MSTORE PUSH1 0x20 PUSH0 KECCAK256 SWAP1 PUSH1 0x3 MUL ADD PUSH0 SWAP1 SWAP2 SWAP1 SWAP2 SWAP1 SWAP2 POP PUSH0 DUP3 ADD MLOAD DUP2 PUSH0 ADD SWAP1 DUP2 PUSH2 0xE7D SWAP2 SWAP1 PUSH2 0x2130 JUMP JUMPDEST POP PUSH1 0x20 DUP3 ADD MLOAD DUP2 PUSH1 0x1 ADD SSTORE PUSH1 0x40 DUP3 ADD MLOAD DUP2 PUSH1 0x2 ADD SSTORE POP POP POP POP JUMP JUMPDEST PUSH1 0x6 PUSH1 0x20 MSTORE DUP1 PUSH0 MSTORE PUSH1 0x40 PUSH0 KECCAK256 PUSH0 SWAP2 POP SWAP1 POP DUP1 PUSH0 ADD SLOAD SWAP1 POP DUP2 JUMP JUMPDEST PUSH1 0x4 PUSH1 0x15 SWAP1 SLOAD SWAP1 PUSH2 0x100 EXP SWAP1 DIV PUSH1 0xFF AND DUP2 JUMP JUMPDEST PUSH1 0x4 PUSH0 SWAP1 SLOAD SWAP1 PUSH2 0x100 EXP SWAP1 DIV PUSH20 0xFFFFFFFFFFFFFFFFFFFFFFFFFFFFFFFFFFFFFFFF AND PUSH20 0xFFFFFFFFFFFFFFFFFFFFFFFFFFFFFFFFFFFFFFFF AND CALLER PUSH20 0xFFFFFFFFFFFFFFFFFFFFFFFFFFFFFFFFFFFFFFFF AND EQ PUSH2 0xF54 JUMPI PUSH1 0x40 MLOAD PUSH32 0x8C379A000000000000000000000000000000000000000000000000000000000 DUP2 MSTORE PUSH1 0x4 ADD PUSH2 0xF4B SWAP1 PUSH2 0x1A75 JUMP JUMPDEST PUSH1 0x40 MLOAD DUP1 SWAP2 SUB SWAP1 REVERT JUMPDEST PUSH1 0x4 PUSH1 0x14 SWAP1 SLOAD SWAP1 PUSH2 0x100 EXP SWAP1 DIV PUSH1 0xFF AND ISZERO PUSH1 0x4 PUSH1 0x14 PUSH2 0x100 EXP DUP2 SLOAD DUP2 PUSH1 0xFF MUL NOT AND SWAP1 DUP4 ISZERO ISZERO MUL OR SWAP1 SSTORE POP JUMP JUMPDEST PUSH0 PUSH1 0x2 DUP2 GT ISZERO PUSH2 0xF93 JUMPI PUSH2 0xF92 PUSH2 0x1506 JUMP JUMPDEST JUMPDEST PUSH1 0x4 PUSH1 0x15 SWAP1 SLOAD SWAP1 PUSH2 0x100 EXP SWAP1 DIV PUSH1 0xFF AND PUSH1 0x2 DUP2 GT ISZERO PUSH2 0xFB5 JUMPI PUSH2 0xFB4 PUSH2 0x1506 JUMP JUMPDEST JUMPDEST EQ PUSH2 0xFF5 JUMPI PUSH1 0x40 MLOAD PUSH32 0x8C379A000000000000000000000000000000000000000000000000000000000 DUP2 MSTORE PUSH1 0x4 ADD PUSH2 0xFEC SWAP1 PUSH2 0x1ADD JUMP JUMPDEST PUSH1 0x40 MLOAD DUP1 SWAP2 SUB SWAP1 REVERT JUMPDEST PUSH1 0x5 DUP1 SLOAD SWAP1 POP DUP2 LT PUSH2 0x103C JUMPI PUSH1 0x40 MLOAD PUSH32 0x8C379A000000000000000000000000000000000000000000000000000000000 DUP2 MSTORE PUSH1 0x4 ADD PUSH2 0x1033 SWAP1 PUSH2 0x2249 JUMP JUMPDEST PUSH1 0x40 MLOAD DUP1 SWAP2 SUB SWAP1 REVERT JUMPDEST PUSH1 0x5 DUP2 DUP2 SLOAD DUP2 LT PUSH2 0x1050 JUMPI PUSH2 0x104F PUSH2 0x1DD7 JUMP JUMPDEST JUMPDEST SWAP1 PUSH0 MSTORE PUSH1 0x20 PUSH0 KECCAK256 SWAP1 PUSH1 0x3 MUL ADD PUSH1 0x1 ADD SLOAD CALLVALUE EQ PUSH2 0x10A1 JUMPI PUSH1 0x40 MLOAD PUSH32 0x8C379A000000000000000000000000000000000000000000000000000000000 DUP2 MSTORE PUSH1 0x4 ADD PUSH2 0x1098 SWAP1 PUSH2 0x22B1 JUMP JUMPDEST PUSH1 0x40 MLOAD DUP1 SWAP2 SUB SWAP1 REVERT JUMPDEST PUSH1 0x5 DUP2 DUP2 SLOAD DUP2 LT PUSH2 0x10B5 JUMPI PUSH2 0x10B4 PUSH2 0x1DD7 JUMP JUMPDEST JUMPDEST SWAP1 PUSH0 MSTORE PUSH1 0x20 PUSH0 KECCAK256 SWAP1 PUSH1 0x3 MUL ADD PUSH1 0x2 ADD PUSH0 DUP2 SLOAD DUP1 SWAP3 SWAP2 SWAP1 PUSH2 0x10D4 SWAP1 PUSH2 0x22CF JUMP JUMPDEST SWAP2 SWAP1 POP SSTORE POP CALLVALUE PUSH1 0x6 PUSH0 CALLER PUSH20 0xFFFFFFFFFFFFFFFFFFFFFFFFFFFFFFFFFFFFFFFF AND PUSH20 0xFFFFFFFFFFFFFFFFFFFFFFFFFFFFFFFFFFFFFFFF AND DUP2 MSTORE PUSH1 0x20 ADD SWAP1 DUP2 MSTORE PUSH1 0x20 ADD PUSH0 KECCAK256 PUSH0 ADD PUSH0 DUP3 DUP3 SLOAD PUSH2 0x1127 SWAP2 SWAP1 PUSH2 0x1B69 JUMP JUMPDEST SWAP3 POP POP DUP2 SWAP1 SSTORE POP PUSH1 0x1 PUSH1 0x6 PUSH0 CALLER PUSH20 0xFFFFFFFFFFFFFFFFFFFFFFFFFFFFFFFFFFFFFFFF AND PUSH20 0xFFFFFFFFFFFFFFFFFFFFFFFFFFFFFFFFFFFFFFFF AND DUP2 MSTORE PUSH1 0x20 ADD SWAP1 DUP2 MSTORE PUSH1 0x20 ADD PUSH0 KECCAK256 PUSH1 0x1 ADD PUSH0 DUP4 DUP2 MSTORE PUSH1 0x20 ADD SWAP1 DUP2 MSTORE PUSH1 0x20 ADD PUSH0 KECCAK256 PUSH0 PUSH2 0x100 EXP DUP2 SLOAD DUP2 PUSH1 0xFF MUL NOT AND SWAP1 DUP4 ISZERO ISZERO MUL OR SWAP1 SSTORE POP PUSH2 0x119D PUSH2 0x129F JUMP JUMPDEST POP JUMP JUMPDEST PUSH1 0x60 PUSH1 0x5 DUP1 SLOAD DUP1 PUSH1 0x20 MUL PUSH1 0x20 ADD PUSH1 0x40 MLOAD SWAP1 DUP2 ADD PUSH1 0x40 MSTORE DUP1 SWAP3 SWAP2 SWAP1 DUP2 DUP2 MSTORE PUSH1 0x20 ADD PUSH0 SWAP1 JUMPDEST DUP3 DUP3 LT ISZERO PUSH2 0x1296 JUMPI DUP4 DUP3 SWAP1 PUSH0 MSTORE PUSH1 0x20 PUSH0 KECCAK256 SWAP1 PUSH1 0x3 MUL ADD PUSH1 0x40 MLOAD DUP1 PUSH1 0x60 ADD PUSH1 0x40 MSTORE SWAP1 DUP2 PUSH0 DUP3 ADD DUP1 SLOAD PUSH2 0x11F3 SWAP1 PUSH2 0x19FB JUMP JUMPDEST DUP1 PUSH1 0x1F ADD PUSH1 0x20 DUP1 SWAP2 DIV MUL PUSH1 0x20 ADD PUSH1 0x40 MLOAD SWAP1 DUP2 ADD PUSH1 0x40 MSTORE DUP1 SWAP3 SWAP2 SWAP1 DUP2 DUP2 MSTORE PUSH1 0x20 ADD DUP3 DUP1 SLOAD PUSH2 0x121F SWAP1 PUSH2 0x19FB JUMP JUMPDEST DUP1 ISZERO PUSH2 0x126A JUMPI DUP1 PUSH1 0x1F LT PUSH2 0x1241 JUMPI PUSH2 0x100 DUP1 DUP4 SLOAD DIV MUL DUP4 MSTORE SWAP2 PUSH1 0x20 ADD SWAP2 PUSH2 0x126A JUMP JUMPDEST DUP3 ADD SWAP2 SWAP1 PUSH0 MSTORE PUSH1 0x20 PUSH0 KECCAK256 SWAP1 JUMPDEST DUP2 SLOAD DUP2 MSTORE SWAP1 PUSH1 0x1 ADD SWAP1 PUSH1 0x20 ADD DUP1 DUP4 GT PUSH2 0x124D JUMPI DUP3 SWAP1 SUB PUSH1 0x1F AND DUP3 ADD SWAP2 JUMPDEST POP POP POP POP POP DUP2 MSTORE PUSH1 0x20 ADD PUSH1 0x1 DUP3 ADD SLOAD DUP2 MSTORE PUSH1 0x20 ADD PUSH1 0x2 DUP3 ADD SLOAD DUP2 MSTORE POP POP DUP2 MSTORE PUSH1 0x20 ADD SWAP1 PUSH1 0x1 ADD SWAP1 PUSH2 0x11C3 JUMP JUMPDEST POP POP POP POP SWAP1 POP SWAP1 JUMP JUMPDEST PUSH0 PUSH1 0x2 DUP2 GT ISZERO PUSH2 0x12B2 JUMPI PUSH2 0x12B1 PUSH2 0x1506 JUMP JUMPDEST JUMPDEST PUSH1 0x4 PUSH1 0x15 SWAP1 SLOAD SWAP1 PUSH2 0x100 EXP SWAP1 DIV PUSH1 0xFF AND PUSH1 0x2 DUP2 GT ISZERO PUSH2 0x12D4 JUMPI PUSH2 0x12D3 PUSH2 0x1506 JUMP JUMPDEST JUMPDEST SUB PUSH2 0x1362 JUMPI PUSH1 0x3 SLOAD TIMESTAMP LT PUSH2 0x1324 JUMPI PUSH1 0x2 SLOAD SELFBALANCE LT ISZERO PUSH2 0x12F3 JUMPI PUSH1 0x2 PUSH2 0x12F6 JUMP JUMPDEST PUSH1 0x1 JUMPDEST PUSH1 0x4 PUSH1 0x15 PUSH2 0x100 EXP DUP2 SLOAD DUP2 PUSH1 0xFF MUL NOT AND SWAP1 DUP4 PUSH1 0x2 DUP2 GT ISZERO PUSH2 0x131A JUMPI PUSH2 0x1319 PUSH2 0x1506 JUMP JUMPDEST JUMPDEST MUL OR SWAP1 SSTORE POP PUSH2 0x1361 JUMP JUMPDEST PUSH1 0x2 SLOAD SELFBALANCE LT ISZERO PUSH2 0x1334 JUMPI PUSH0 PUSH2 0x1337 JUMP JUMPDEST PUSH1 0x1 JUMPDEST PUSH1 0x4 PUSH1 0x15 PUSH2 0x100 EXP DUP2 SLOAD DUP2 PUSH1 0xFF MUL NOT AND SWAP1 DUP4 PUSH1 0x2 DUP2 GT ISZERO PUSH2 0x135B JUMPI PUSH2 0x135A PUSH2 0x1506 JUMP JUMPDEST JUMPDEST MUL OR SWAP1 SSTORE POP JUMPDEST JUMPDEST JUMP JUMPDEST POP DUP1 SLOAD PUSH2 0x1370 SWAP1 PUSH2 0x19FB JUMP JUMPDEST PUSH0 DUP3 SSTORE DUP1 PUSH1 0x1F LT PUSH2 0x1381 JUMPI POP PUSH2 0x139E JUMP JUMPDEST PUSH1 0x1F ADD PUSH1 0x20 SWAP1 DIV SWAP1 PUSH0 MSTORE PUSH1 0x20 PUSH0 KECCAK256 SWAP1 DUP2 ADD SWAP1 PUSH2 0x139D SWAP2 SWAP1 PUSH2 0x13A1 JUMP JUMPDEST JUMPDEST POP JUMP JUMPDEST JUMPDEST DUP1 DUP3 GT ISZERO PUSH2 0x13B8 JUMPI PUSH0 DUP2 PUSH0 SWAP1 SSTORE POP PUSH1 0x1 ADD PUSH2 0x13A2 JUMP JUMPDEST POP SWAP1 JUMP JUMPDEST PUSH0 PUSH1 0x40 MLOAD SWAP1 POP SWAP1 JUMP JUMPDEST PUSH0 DUP1 REVERT JUMPDEST PUSH0 DUP1 REVERT JUMPDEST PUSH0 DUP2 SWAP1 POP SWAP2 SWAP1 POP JUMP JUMPDEST PUSH2 0x13DF DUP2 PUSH2 0x13CD JUMP JUMPDEST DUP2 EQ PUSH2 0x13E9 JUMPI PUSH0 DUP1 REVERT JUMPDEST POP JUMP JUMPDEST PUSH0 DUP2 CALLDATALOAD SWAP1 POP PUSH2 0x13FA DUP2 PUSH2 0x13D6 JUMP JUMPDEST SWAP3 SWAP2 POP POP JUMP JUMPDEST PUSH0 PUSH1 0x20 DUP3 DUP5 SUB SLT ISZERO PUSH2 0x1415 JUMPI PUSH2 0x1414 PUSH2 0x13C5 JUMP JUMPDEST JUMPDEST PUSH0 PUSH2 0x1422 DUP5 DUP3 DUP6 ADD PUSH2 0x13EC JUMP JUMPDEST SWAP2 POP POP SWAP3 SWAP2 POP POP JUMP JUMPDEST PUSH0 DUP2 MLOAD SWAP1 POP SWAP2 SWAP1 POP JUMP JUMPDEST PUSH0 DUP3 DUP3 MSTORE PUSH1 0x20 DUP3 ADD SWAP1 POP SWAP3 SWAP2 POP POP JUMP JUMPDEST DUP3 DUP2 DUP4 MCOPY PUSH0 DUP4 DUP4 ADD MSTORE POP POP POP JUMP JUMPDEST PUSH0 PUSH1 0x1F NOT PUSH1 0x1F DUP4 ADD AND SWAP1 POP SWAP2 SWAP1 POP JUMP JUMPDEST PUSH0 PUSH2 0x146D DUP3 PUSH2 0x142B JUMP JUMPDEST PUSH2 0x1477 DUP2 DUP6 PUSH2 0x1435 JUMP JUMPDEST SWAP4 POP PUSH2 0x1487 DUP2 DUP6 PUSH1 0x20 DUP7 ADD PUSH2 0x1445 JUMP JUMPDEST PUSH2 0x1490 DUP2 PUSH2 0x1453 JUMP JUMPDEST DUP5 ADD SWAP2 POP POP SWAP3 SWAP2 POP POP JUMP JUMPDEST PUSH2 0x14A4 DUP2 PUSH2 0x13CD JUMP JUMPDEST DUP3 MSTORE POP POP JUMP JUMPDEST PUSH0 PUSH1 0x60 DUP3 ADD SWAP1 POP DUP2 DUP2 SUB PUSH0 DUP4 ADD MSTORE PUSH2 0x14C2 DUP2 DUP7 PUSH2 0x1463 JUMP JUMPDEST SWAP1 POP PUSH2 0x14D1 PUSH1 0x20 DUP4 ADD DUP6 PUSH2 0x149B JUMP JUMPDEST PUSH2 0x14DE PUSH1 0x40 DUP4 ADD DUP5 PUSH2 0x149B JUMP JUMPDEST SWAP5 SWAP4 POP POP POP POP JUMP JUMPDEST PUSH0 PUSH1 0x20 DUP3 ADD SWAP1 POP DUP2 DUP2 SUB PUSH0 DUP4 ADD MSTORE PUSH2 0x14FE DUP2 DUP5 PUSH2 0x1463 JUMP JUMPDEST SWAP1 POP SWAP3 SWAP2 POP POP JUMP JUMPDEST PUSH32 0x4E487B7100000000000000000000000000000000000000000000000000000000 PUSH0 MSTORE PUSH1 0x21 PUSH1 0x4 MSTORE PUSH1 0x24 PUSH0 REVERT JUMPDEST PUSH1 0x3 DUP2 LT PUSH2 0x1544 JUMPI PUSH2 0x1543 PUSH2 0x1506 JUMP JUMPDEST JUMPDEST POP JUMP JUMPDEST PUSH0 DUP2 SWAP1 POP PUSH2 0x1554 DUP3 PUSH2 0x1533 JUMP JUMPDEST SWAP2 SWAP1 POP JUMP JUMPDEST PUSH0 PUSH2 0x1563 DUP3 PUSH2 0x1547 JUMP JUMPDEST SWAP1 POP SWAP2 SWAP1 POP JUMP JUMPDEST PUSH2 0x1573 DUP2 PUSH2 0x1559 JUMP JUMPDEST DUP3 MSTORE POP POP JUMP JUMPDEST PUSH0 PUSH1 0x20 DUP3 ADD SWAP1 POP PUSH2 0x158C PUSH0 DUP4 ADD DUP5 PUSH2 0x156A JUMP JUMPDEST SWAP3 SWAP2 POP POP JUMP JUMPDEST PUSH0 PUSH20 0xFFFFFFFFFFFFFFFFFFFFFFFFFFFFFFFFFFFFFFFF DUP3 AND SWAP1 POP SWAP2 SWAP1 POP JUMP JUMPDEST PUSH0 PUSH2 0x15BB DUP3 PUSH2 0x1592 JUMP JUMPDEST SWAP1 POP SWAP2 SWAP1 POP JUMP JUMPDEST PUSH2 0x15CB DUP2 PUSH2 0x15B1 JUMP JUMPDEST DUP2 EQ PUSH2 0x15D5 JUMPI PUSH0 DUP1 REVERT JUMPDEST POP JUMP JUMPDEST PUSH0 DUP2 CALLDATALOAD SWAP1 POP PUSH2 0x15E6 DUP2 PUSH2 0x15C2 JUMP JUMPDEST SWAP3 SWAP2 POP POP JUMP JUMPDEST PUSH0 DUP1 PUSH1 0x40 DUP4 DUP6 SUB SLT ISZERO PUSH2 0x1602 JUMPI PUSH2 0x1601 PUSH2 0x13C5 JUMP JUMPDEST JUMPDEST PUSH0 PUSH2 0x160F DUP6 DUP3 DUP7 ADD PUSH2 0x15D8 JUMP JUMPDEST SWAP3 POP POP PUSH1 0x20 PUSH2 0x1620 DUP6 DUP3 DUP7 ADD PUSH2 0x13EC JUMP JUMPDEST SWAP2 POP POP SWAP3 POP SWAP3 SWAP1 POP JUMP JUMPDEST PUSH0 DUP2 ISZERO ISZERO SWAP1 POP SWAP2 SWAP1 POP JUMP JUMPDEST PUSH2 0x163E DUP2 PUSH2 0x162A JUMP JUMPDEST DUP3 MSTORE POP POP JUMP JUMPDEST PUSH0 PUSH1 0x20 DUP3 ADD SWAP1 POP PUSH2 0x1657 PUSH0 DUP4 ADD DUP5 PUSH2 0x1635 JUMP JUMPDEST SWAP3 SWAP2 POP POP JUMP JUMPDEST PUSH0 PUSH1 0x20 DUP3 ADD SWAP1 POP PUSH2 0x1670 PUSH0 DUP4 ADD DUP5 PUSH2 0x149B JUMP JUMPDEST SWAP3 SWAP2 POP POP JUMP JUMPDEST PUSH2 0x167F DUP2 PUSH2 0x15B1 JUMP JUMPDEST DUP3 MSTORE POP POP JUMP JUMPDEST PUSH0 PUSH1 0x20 DUP3 ADD SWAP1 POP PUSH2 0x1698 PUSH0 DUP4 ADD DUP5 PUSH2 0x1676 JUMP JUMPDEST SWAP3 SWAP2 POP POP JUMP JUMPDEST PUSH0 DUP1 REVERT JUMPDEST PUSH0 DUP1 REVERT JUMPDEST PUSH32 0x4E487B7100000000000000000000000000000000000000000000000000000000 PUSH0 MSTORE PUSH1 0x41 PUSH1 0x4 MSTORE PUSH1 0x24 PUSH0 REVERT JUMPDEST PUSH2 0x16DC DUP3 PUSH2 0x1453 JUMP JUMPDEST DUP2 ADD DUP2 DUP2 LT PUSH8 0xFFFFFFFFFFFFFFFF DUP3 GT OR ISZERO PUSH2 0x16FB JUMPI PUSH2 0x16FA PUSH2 0x16A6 JUMP JUMPDEST JUMPDEST DUP1 PUSH1 0x40 MSTORE POP POP POP JUMP JUMPDEST PUSH0 PUSH2 0x170D PUSH2 0x13BC JUMP JUMPDEST SWAP1 POP PUSH2 0x1719 DUP3 DUP3 PUSH2 0x16D3 JUMP JUMPDEST SWAP2 SWAP1 POP JUMP JUMPDEST PUSH0 PUSH8 0xFFFFFFFFFFFFFFFF DUP3 GT ISZERO PUSH2 0x1738 JUMPI PUSH2 0x1737 PUSH2 0x16A6 JUMP JUMPDEST JUMPDEST PUSH2 0x1741 DUP3 PUSH2 0x1453 JUMP JUMPDEST SWAP1 POP PUSH1 0x20 DUP2 ADD SWAP1 POP SWAP2 SWAP1 POP JUMP JUMPDEST DUP3 DUP2 DUP4 CALLDATACOPY PUSH0 DUP4 DUP4 ADD MSTORE POP POP POP JUMP JUMPDEST PUSH0 PUSH2 0x176E PUSH2 0x1769 DUP5 PUSH2 0x171E JUMP JUMPDEST PUSH2 0x1704 JUMP JUMPDEST SWAP1 POP DUP3 DUP2 MSTORE PUSH1 0x20 DUP2 ADD DUP5 DUP5 DUP5 ADD GT ISZERO PUSH2 0x178A JUMPI PUSH2 0x1789 PUSH2 0x16A2 JUMP JUMPDEST JUMPDEST PUSH2 0x1795 DUP5 DUP3 DUP6 PUSH2 0x174E JUMP JUMPDEST POP SWAP4 SWAP3 POP POP POP JUMP JUMPDEST PUSH0 DUP3 PUSH1 0x1F DUP4 ADD SLT PUSH2 0x17B1 JUMPI PUSH2 0x17B0 PUSH2 0x169E JUMP JUMPDEST JUMPDEST DUP2 CALLDATALOAD PUSH2 0x17C1 DUP5 DUP3 PUSH1 0x20 DUP7 ADD PUSH2 0x175C JUMP JUMPDEST SWAP2 POP POP SWAP3 SWAP2 POP POP JUMP JUMPDEST PUSH0 DUP1 PUSH1 0x40 DUP4 DUP6 SUB SLT ISZERO PUSH2 0x17E0 JUMPI PUSH2 0x17DF PUSH2 0x13C5 JUMP JUMPDEST JUMPDEST PUSH0 DUP4 ADD CALLDATALOAD PUSH8 0xFFFFFFFFFFFFFFFF DUP2 GT ISZERO PUSH2 0x17FD JUMPI PUSH2 0x17FC PUSH2 0x13C9 JUMP JUMPDEST JUMPDEST PUSH2 0x1809 DUP6 DUP3 DUP7 ADD PUSH2 0x179D JUMP JUMPDEST SWAP3 POP POP PUSH1 0x20 PUSH2 0x181A DUP6 DUP3 DUP7 ADD PUSH2 0x13EC JUMP JUMPDEST SWAP2 POP POP SWAP3 POP SWAP3 SWAP1 POP JUMP JUMPDEST PUSH0 PUSH1 0x20 DUP3 DUP5 SUB SLT ISZERO PUSH2 0x1839 JUMPI PUSH2 0x1838 PUSH2 0x13C5 JUMP JUMPDEST JUMPDEST PUSH0 PUSH2 0x1846 DUP5 DUP3 DUP6 ADD PUSH2 0x15D8 JUMP JUMPDEST SWAP2 POP POP SWAP3 SWAP2 POP POP JUMP JUMPDEST PUSH0 DUP2 MLOAD SWAP1 POP SWAP2 SWAP1 POP JUMP JUMPDEST PUSH0 DUP3 DUP3 MSTORE PUSH1 0x20 DUP3 ADD SWAP1 POP SWAP3 SWAP2 POP POP JUMP JUMPDEST PUSH0 DUP2 SWAP1 POP PUSH1 0x20 DUP3 ADD SWAP1 POP SWAP2 SWAP1 POP JUMP JUMPDEST PUSH0 DUP3 DUP3 MSTORE PUSH1 0x20 DUP3 ADD SWAP1 POP SWAP3 SWAP2 POP POP JUMP JUMPDEST PUSH0 PUSH2 0x1892 DUP3 PUSH2 0x142B JUMP JUMPDEST PUSH2 0x189C DUP2 DUP6 PUSH2 0x1878 JUMP JUMPDEST SWAP4 POP PUSH2 0x18AC DUP2 DUP6 PUSH1 0x20 DUP7 ADD PUSH2 0x1445 JUMP JUMPDEST PUSH2 0x18B5 DUP2 PUSH2 0x1453 JUMP JUMPDEST DUP5 ADD SWAP2 POP POP SWAP3 SWAP2 POP POP JUMP JUMPDEST PUSH2 0x18C9 DUP2 PUSH2 0x13CD JUMP JUMPDEST DUP3 MSTORE POP POP JUMP JUMPDEST PUSH0 PUSH1 0x60 DUP4 ADD PUSH0 DUP4 ADD MLOAD DUP5 DUP3 SUB PUSH0 DUP7 ADD MSTORE PUSH2 0x18E9 DUP3 DUP3 PUSH2 0x1888 JUMP JUMPDEST SWAP2 POP POP PUSH1 0x20 DUP4 ADD MLOAD PUSH2 0x18FE PUSH1 0x20 DUP7 ADD DUP3 PUSH2 0x18C0 JUMP JUMPDEST POP PUSH1 0x40 DUP4 ADD MLOAD PUSH2 0x1911 PUSH1 0x40 DUP7 ADD DUP3 PUSH2 0x18C0 JUMP JUMPDEST POP DUP1 SWAP2 POP POP SWAP3 SWAP2 POP POP JUMP JUMPDEST PUSH0 PUSH2 0x1927 DUP4 DUP4 PUSH2 0x18CF JUMP JUMPDEST SWAP1 POP SWAP3 SWAP2 POP POP JUMP JUMPDEST PUSH0 PUSH1 0x20 DUP3 ADD SWAP1 POP SWAP2 SWAP1 POP JUMP JUMPDEST PUSH0 PUSH2 0x1945 DUP3 PUSH2 0x184F JUMP JUMPDEST PUSH2 0x194F DUP2 DUP6 PUSH2 0x1859 JUMP JUMPDEST SWAP4 POP DUP4 PUSH1 0x20 DUP3 MUL DUP6 ADD PUSH2 0x1961 DUP6 PUSH2 0x1869 JUMP JUMPDEST DUP1 PUSH0 JUMPDEST DUP6 DUP2 LT ISZERO PUSH2 0x199C JUMPI DUP5 DUP5 SUB DUP10 MSTORE DUP2 MLOAD PUSH2 0x197D DUP6 DUP3 PUSH2 0x191C JUMP JUMPDEST SWAP5 POP PUSH2 0x1988 DUP4 PUSH2 0x192F JUMP JUMPDEST SWAP3 POP PUSH1 0x20 DUP11 ADD SWAP10 POP POP PUSH1 0x1 DUP2 ADD SWAP1 POP PUSH2 0x1964 JUMP JUMPDEST POP DUP3 SWAP8 POP DUP8 SWAP6 POP POP POP POP POP POP SWAP3 SWAP2 POP POP JUMP JUMPDEST PUSH0 PUSH1 0x20 DUP3 ADD SWAP1 POP DUP2 DUP2 SUB PUSH0 DUP4 ADD MSTORE PUSH2 0x19C6 DUP2 DUP5 PUSH2 0x193B JUMP JUMPDEST SWAP1 POP SWAP3 SWAP2 POP POP JUMP JUMPDEST PUSH32 0x4E487B7100000000000000000000000000000000000000000000000000000000 PUSH0 MSTORE PUSH1 0x22 PUSH1 0x4 MSTORE PUSH1 0x24 PUSH0 REVERT JUMPDEST PUSH0 PUSH1 0x2 DUP3 DIV SWAP1 POP PUSH1 0x1 DUP3 AND DUP1 PUSH2 0x1A12 JUMPI PUSH1 0x7F DUP3 AND SWAP2 POP JUMPDEST PUSH1 0x20 DUP3 LT DUP2 SUB PUSH2 0x1A25 JUMPI PUSH2 0x1A24 PUSH2 0x19CE JUMP JUMPDEST JUMPDEST POP SWAP2 SWAP1 POP JUMP JUMPDEST PUSH32 0x4E6F7420746865206F776E657200000000000000000000000000000000000000 PUSH0 DUP3 ADD MSTORE POP JUMP JUMPDEST PUSH0 PUSH2 0x1A5F PUSH1 0xD DUP4 PUSH2 0x1435 JUMP JUMPDEST SWAP2 POP PUSH2 0x1A6A DUP3 PUSH2 0x1A2B JUMP JUMPDEST PUSH1 0x20 DUP3 ADD SWAP1 POP SWAP2 SWAP1 POP JUMP JUMPDEST PUSH0 PUSH1 0x20 DUP3 ADD SWAP1 POP DUP2 DUP2 SUB PUSH0 DUP4 ADD MSTORE PUSH2 0x1A8C DUP2 PUSH2 0x1A53 JUMP JUMPDEST SWAP1 POP SWAP2 SWAP1 POP JUMP JUMPDEST PUSH32 0x43616D706169676E206973206E6F742061637469766500000000000000000000 PUSH0 DUP3 ADD MSTORE POP JUMP JUMPDEST PUSH0 PUSH2 0x1AC7 PUSH1 0x16 DUP4 PUSH2 0x1435 JUMP JUMPDEST SWAP2 POP PUSH2 0x1AD2 DUP3 PUSH2 0x1A93 JUMP JUMPDEST PUSH1 0x20 DUP3 ADD SWAP1 POP SWAP2 SWAP1 POP JUMP JUMPDEST PUSH0 PUSH1 0x20 DUP3 ADD SWAP1 POP DUP2 DUP2 SUB PUSH0 DUP4 ADD MSTORE PUSH2 0x1AF4 DUP2 PUSH2 0x1ABB JUMP JUMPDEST SWAP1 POP SWAP2 SWAP1 POP JUMP JUMPDEST PUSH32 0x4E487B7100000000000000000000000000000000000000000000000000000000 PUSH0 MSTORE PUSH1 0x11 PUSH1 0x4 MSTORE PUSH1 0x24 PUSH0 REVERT JUMPDEST PUSH0 PUSH2 0x1B32 DUP3 PUSH2 0x13CD JUMP JUMPDEST SWAP2 POP PUSH2 0x1B3D DUP4 PUSH2 0x13CD JUMP JUMPDEST SWAP3 POP DUP3 DUP3 MUL PUSH2 0x1B4B DUP2 PUSH2 0x13CD JUMP JUMPDEST SWAP2 POP DUP3 DUP3 DIV DUP5 EQ DUP4 ISZERO OR PUSH2 0x1B62 JUMPI PUSH2 0x1B61 PUSH2 0x1AFB JUMP JUMPDEST JUMPDEST POP SWAP3 SWAP2 POP POP JUMP JUMPDEST PUSH0 PUSH2 0x1B73 DUP3 PUSH2 0x13CD JUMP JUMPDEST SWAP2 POP PUSH2 0x1B7E DUP4 PUSH2 0x13CD JUMP JUMPDEST SWAP3 POP DUP3 DUP3 ADD SWAP1 POP DUP1 DUP3 GT ISZERO PUSH2 0x1B96 JUMPI PUSH2 0x1B95 PUSH2 0x1AFB JUMP JUMPDEST JUMPDEST SWAP3 SWAP2 POP POP JUMP JUMPDEST PUSH32 0x43616D706169676E206E6F74207375636365737366756C000000000000000000 PUSH0 DUP3 ADD MSTORE POP JUMP JUMPDEST PUSH0 PUSH2 0x1BD0 PUSH1 0x17 DUP4 PUSH2 0x1435 JUMP JUMPDEST SWAP2 POP PUSH2 0x1BDB DUP3 PUSH2 0x1B9C JUMP JUMPDEST PUSH1 0x20 DUP3 ADD SWAP1 POP SWAP2 SWAP1 POP JUMP JUMPDEST PUSH0 PUSH1 0x20 DUP3 ADD SWAP1 POP DUP2 DUP2 SUB PUSH0 DUP4 ADD MSTORE PUSH2 0x1BFD DUP2 PUSH2 0x1BC4 JUMP JUMPDEST SWAP1 POP SWAP2 SWAP1 POP JUMP JUMPDEST PUSH32 0x4E6F2062616C616E636520746F20776974686472617700000000000000000000 PUSH0 DUP3 ADD MSTORE POP JUMP JUMPDEST PUSH0 PUSH2 0x1C38 PUSH1 0x16 DUP4 PUSH2 0x1435 JUMP JUMPDEST SWAP2 POP PUSH2 0x1C43 DUP3 PUSH2 0x1C04 JUMP JUMPDEST PUSH1 0x20 DUP3 ADD SWAP1 POP SWAP2 SWAP1 POP JUMP JUMPDEST PUSH0 PUSH1 0x20 DUP3 ADD SWAP1 POP DUP2 DUP2 SUB PUSH0 DUP4 ADD MSTORE PUSH2 0x1C65 DUP2 PUSH2 0x1C2C JUMP JUMPDEST SWAP1 POP SWAP2 SWAP1 POP JUMP JUMPDEST PUSH32 0x526566756E6473206E6F7420617661696C61626C650000000000000000000000 PUSH0 DUP3 ADD MSTORE POP JUMP JUMPDEST PUSH0 PUSH2 0x1CA0 PUSH1 0x15 DUP4 PUSH2 0x1435 JUMP JUMPDEST SWAP2 POP PUSH2 0x1CAB DUP3 PUSH2 0x1C6C JUMP JUMPDEST PUSH1 0x20 DUP3 ADD SWAP1 POP SWAP2 SWAP1 POP JUMP JUMPDEST PUSH0 PUSH1 0x20 DUP3 ADD SWAP1 POP DUP2 DUP2 SUB PUSH0 DUP4 ADD MSTORE PUSH2 0x1CCD DUP2 PUSH2 0x1C94 JUMP JUMPDEST SWAP1 POP SWAP2 SWAP1 POP JUMP JUMPDEST PUSH32 0x4E6F20636F6E747269627574696F6E7320746F20726566756E64000000000000 PUSH0 DUP3 ADD MSTORE POP JUMP JUMPDEST PUSH0 PUSH2 0x1D08 PUSH1 0x1A DUP4 PUSH2 0x1435 JUMP JUMPDEST SWAP2 POP PUSH2 0x1D13 DUP3 PUSH2 0x1CD4 JUMP JUMPDEST PUSH1 0x20 DUP3 ADD SWAP1 POP SWAP2 SWAP1 POP JUMP JUMPDEST PUSH0 PUSH1 0x20 DUP3 ADD SWAP1 POP DUP2 DUP2 SUB PUSH0 DUP4 ADD MSTORE PUSH2 0x1D35 DUP2 PUSH2 0x1CFC JUMP JUMPDEST SWAP1 POP SWAP2 SWAP1 POP JUMP JUMPDEST PUSH32 0x5469657220646F6573206E6F7420657869737400000000000000000000000000 PUSH0 DUP3 ADD MSTORE POP JUMP JUMPDEST PUSH0 PUSH2 0x1D70 PUSH1 0x13 DUP4 PUSH2 0x1435 JUMP JUMPDEST SWAP2 POP PUSH2 0x1D7B DUP3 PUSH2 0x1D3C JUMP JUMPDEST PUSH1 0x20 DUP3 ADD SWAP1 POP SWAP2 SWAP1 POP JUMP JUMPDEST PUSH0 PUSH1 0x20 DUP3 ADD SWAP1 POP DUP2 DUP2 SUB PUSH0 DUP4 ADD MSTORE PUSH2 0x1D9D DUP2 PUSH2 0x1D64 JUMP JUMPDEST SWAP1 POP SWAP2 SWAP1 POP JUMP JUMPDEST PUSH0 PUSH2 0x1DAE DUP3 PUSH2 0x13CD JUMP JUMPDEST SWAP2 POP PUSH2 0x1DB9 DUP4 PUSH2 0x13CD JUMP JUMPDEST SWAP3 POP DUP3 DUP3 SUB SWAP1 POP DUP2 DUP2 GT ISZERO PUSH2 0x1DD1 JUMPI PUSH2 0x1DD0 PUSH2 0x1AFB JUMP JUMPDEST JUMPDEST SWAP3 SWAP2 POP POP JUMP JUMPDEST PUSH32 0x4E487B7100000000000000000000000000000000000000000000000000000000 PUSH0 MSTORE PUSH1 0x32 PUSH1 0x4 MSTORE PUSH1 0x24 PUSH0 REVERT JUMPDEST PUSH0 DUP2 SLOAD SWAP1 POP PUSH2 0x1E12 DUP2 PUSH2 0x19FB JUMP JUMPDEST SWAP1 POP SWAP2 SWAP1 POP JUMP JUMPDEST PUSH0 DUP2 SWAP1 POP DUP2 PUSH0 MSTORE PUSH1 0x20 PUSH0 KECCAK256 SWAP1 POP SWAP2 SWAP1 POP JUMP JUMPDEST PUSH0 PUSH1 0x20 PUSH1 0x1F DUP4 ADD DIV SWAP1 POP SWAP2 SWAP1 POP JUMP JUMPDEST PUSH0 DUP3 DUP3 SHL SWAP1 POP SWAP3 SWAP2 POP POP JUMP JUMPDEST PUSH0 PUSH1 0x8 DUP4 MUL PUSH2 0x1E75 PUSH32 0xFFFFFFFFFFFFFFFFFFFFFFFFFFFFFFFFFFFFFFFFFFFFFFFFFFFFFFFFFFFFFFFF DUP3 PUSH2 0x1E3A JUMP JUMPDEST PUSH2 0x1E7F DUP7 DUP4 PUSH2 0x1E3A JUMP JUMPDEST SWAP6 POP DUP1 NOT DUP5 AND SWAP4 POP DUP1 DUP7 AND DUP5 OR SWAP3 POP POP POP SWAP4 SWAP3 POP POP POP JUMP JUMPDEST PUSH0 DUP2 SWAP1 POP SWAP2 SWAP1 POP JUMP JUMPDEST PUSH0 PUSH2 0x1EBA PUSH2 0x1EB5 PUSH2 0x1EB0 DUP5 PUSH2 0x13CD JUMP JUMPDEST PUSH2 0x1E97 JUMP JUMPDEST PUSH2 0x13CD JUMP JUMPDEST SWAP1 POP SWAP2 SWAP1 POP JUMP JUMPDEST PUSH0 DUP2 SWAP1 POP SWAP2 SWAP1 POP JUMP JUMPDEST PUSH2 0x1ED3 DUP4 PUSH2 0x1EA0 JUMP JUMPDEST PUSH2 0x1EE7 PUSH2 0x1EDF DUP3 PUSH2 0x1EC1 JUMP JUMPDEST DUP5 DUP5 SLOAD PUSH2 0x1E46 JUMP JUMPDEST DUP3 SSTORE POP POP POP POP JUMP JUMPDEST PUSH0 SWAP1 JUMP JUMPDEST PUSH2 0x1EFB PUSH2 0x1EEF JUMP JUMPDEST PUSH2 0x1F06 DUP2 DUP5 DUP5 PUSH2 0x1ECA JUMP JUMPDEST POP POP POP JUMP JUMPDEST JUMPDEST DUP2 DUP2 LT ISZERO PUSH2 0x1F29 JUMPI PUSH2 0x1F1E PUSH0 DUP3 PUSH2 0x1EF3 JUMP JUMPDEST PUSH1 0x1 DUP2 ADD SWAP1 POP PUSH2 0x1F0C JUMP JUMPDEST POP POP JUMP JUMPDEST PUSH1 0x1F DUP3 GT ISZERO PUSH2 0x1F6E JUMPI PUSH2 0x1F3F DUP2 PUSH2 0x1E19 JUMP JUMPDEST PUSH2 0x1F48 DUP5 PUSH2 0x1E2B JUMP JUMPDEST DUP2 ADD PUSH1 0x20 DUP6 LT ISZERO PUSH2 0x1F57 JUMPI DUP2 SWAP1 POP JUMPDEST PUSH2 0x1F6B PUSH2 0x1F63 DUP6 PUSH2 0x1E2B JUMP JUMPDEST DUP4 ADD DUP3 PUSH2 0x1F0B JUMP JUMPDEST POP POP JUMPDEST POP POP POP JUMP JUMPDEST PUSH0 DUP3 DUP3 SHR SWAP1 POP SWAP3 SWAP2 POP POP JUMP JUMPDEST PUSH0 PUSH2 0x1F8E PUSH0 NOT DUP5 PUSH1 0x8 MUL PUSH2 0x1F73 JUMP JUMPDEST NOT DUP1 DUP4 AND SWAP2 POP POP SWAP3 SWAP2 POP POP JUMP JUMPDEST PUSH0 PUSH2 0x1FA6 DUP4 DUP4 PUSH2 0x1F7F JUMP JUMPDEST SWAP2 POP DUP3 PUSH1 0x2 MUL DUP3 OR SWAP1 POP SWAP3 SWAP2 POP POP JUMP JUMPDEST DUP2 DUP2 SUB PUSH2 0x1FC4 JUMPI POP POP PUSH2 0x2099 JUMP JUMPDEST PUSH2 0x1FCD DUP3 PUSH2 0x1E04 JUMP JUMPDEST PUSH8 0xFFFFFFFFFFFFFFFF DUP2 GT ISZERO PUSH2 0x1FE6 JUMPI PUSH2 0x1FE5 PUSH2 0x16A6 JUMP JUMPDEST JUMPDEST PUSH2 0x1FF0 DUP3 SLOAD PUSH2 0x19FB JUMP JUMPDEST PUSH2 0x1FFB DUP3 DUP3 DUP6 PUSH2 0x1F2D JUMP JUMPDEST PUSH0 PUSH1 0x1F DUP4 GT PUSH1 0x1 DUP2 EQ PUSH2 0x2028 JUMPI PUSH0 DUP5 ISZERO PUSH2 0x2016 JUMPI DUP3 DUP8 ADD SLOAD SWAP1 POP JUMPDEST PUSH2 0x2020 DUP6 DUP3 PUSH2 0x1F9B JUMP JUMPDEST DUP7 SSTORE POP PUSH2 0x2092 JUMP JUMPDEST PUSH1 0x1F NOT DUP5 AND PUSH2 0x2036 DUP8 PUSH2 0x1E19 JUMP JUMPDEST SWAP7 POP PUSH2 0x2041 DUP7 PUSH2 0x1E19 JUMP JUMPDEST PUSH0 JUMPDEST DUP3 DUP2 LT ISZERO PUSH2 0x2068 JUMPI DUP5 DUP10 ADD SLOAD DUP3 SSTORE PUSH1 0x1 DUP3 ADD SWAP2 POP PUSH1 0x1 DUP6 ADD SWAP5 POP PUSH1 0x20 DUP2 ADD SWAP1 POP PUSH2 0x2043 JUMP JUMPDEST DUP7 DUP4 LT ISZERO PUSH2 0x2085 JUMPI DUP5 DUP10 ADD SLOAD PUSH2 0x2081 PUSH1 0x1F DUP10 AND DUP3 PUSH2 0x1F7F JUMP JUMPDEST DUP4 SSTORE POP JUMPDEST PUSH1 0x1 PUSH1 0x2 DUP9 MUL ADD DUP9 SSTORE POP POP POP JUMPDEST POP POP POP POP POP POP JUMPDEST JUMP JUMPDEST PUSH32 0x4E487B7100000000000000000000000000000000000000000000000000000000 PUSH0 MSTORE PUSH1 0x31 PUSH1 0x4 MSTORE PUSH1 0x24 PUSH0 REVERT JUMPDEST PUSH32 0x416D6F756E74206D7573742062652067726561746572207468616E2030000000 PUSH0 DUP3 ADD MSTORE POP JUMP JUMPDEST PUSH0 PUSH2 0x20FC PUSH1 0x1D DUP4 PUSH2 0x1435 JUMP JUMPDEST SWAP2 POP PUSH2 0x2107 DUP3 PUSH2 0x20C8 JUMP JUMPDEST PUSH1 0x20 DUP3 ADD SWAP1 POP SWAP2 SWAP1 POP JUMP JUMPDEST PUSH0 PUSH1 0x20 DUP3 ADD SWAP1 POP DUP2 DUP2 SUB PUSH0 DUP4 ADD MSTORE PUSH2 0x2129 DUP2 PUSH2 0x20F0 JUMP JUMPDEST SWAP1 POP SWAP2 SWAP1 POP JUMP JUMPDEST PUSH2 0x2139 DUP3 PUSH2 0x142B JUMP JUMPDEST PUSH8 0xFFFFFFFFFFFFFFFF DUP2 GT ISZERO PUSH2 0x2152 JUMPI PUSH2 0x2151 PUSH2 0x16A6 JUMP JUMPDEST JUMPDEST PUSH2 0x215C DUP3 SLOAD PUSH2 0x19FB JUMP JUMPDEST PUSH2 0x2167 DUP3 DUP3 DUP6 PUSH2 0x1F2D JUMP JUMPDEST PUSH0 PUSH1 0x20 SWAP1 POP PUSH1 0x1F DUP4 GT PUSH1 0x1 DUP2 EQ PUSH2 0x2198 JUMPI PUSH0 DUP5 ISZERO PUSH2 0x2186 JUMPI DUP3 DUP8 ADD MLOAD SWAP1 POP JUMPDEST PUSH2 0x2190 DUP6 DUP3 PUSH2 0x1F9B JUMP JUMPDEST DUP7 SSTORE POP PUSH2 0x21F7 JUMP JUMPDEST PUSH1 0x1F NOT DUP5 AND PUSH2 0x21A6 DUP7 PUSH2 0x1E19 JUMP JUMPDEST PUSH0 JUMPDEST DUP3 DUP2 LT ISZERO PUSH2 0x21CD JUMPI DUP5 DUP10 ADD MLOAD DUP3 SSTORE PUSH1 0x1 DUP3 ADD SWAP2 POP PUSH1 0x20 DUP6 ADD SWAP5 POP PUSH1 0x20 DUP2 ADD SWAP1 POP PUSH2 0x21A8 JUMP JUMPDEST DUP7 DUP4 LT ISZERO PUSH2 0x21EA JUMPI DUP5 DUP10 ADD MLOAD PUSH2 0x21E6 PUSH1 0x1F DUP10 AND DUP3 PUSH2 0x1F7F JUMP JUMPDEST DUP4 SSTORE POP JUMPDEST PUSH1 0x1 PUSH1 0x2 DUP9 MUL ADD DUP9 SSTORE POP POP POP JUMPDEST POP POP POP POP POP POP JUMP JUMPDEST PUSH32 0x496E76616C696420746965720000000000000000000000000000000000000000 PUSH0 DUP3 ADD MSTORE POP JUMP JUMPDEST PUSH0 PUSH2 0x2233 PUSH1 0xC DUP4 PUSH2 0x1435 JUMP JUMPDEST SWAP2 POP PUSH2 0x223E DUP3 PUSH2 0x21FF JUMP JUMPDEST PUSH1 0x20 DUP3 ADD SWAP1 POP SWAP2 SWAP1 POP JUMP JUMPDEST PUSH0 PUSH1 0x20 DUP3 ADD SWAP1 POP DUP2 DUP2 SUB PUSH0 DUP4 ADD MSTORE PUSH2 0x2260 DUP2 PUSH2 0x2227 JUMP JUMPDEST SWAP1 POP SWAP2 SWAP1 POP JUMP JUMPDEST PUSH32 0x496E636F727265637420616D6F756E7400000000000000000000000000000000 PUSH0 DUP3 ADD MSTORE POP JUMP JUMPDEST PUSH0 PUSH2 0x229B PUSH1 0x10 DUP4 PUSH2 0x1435 JUMP JUMPDEST SWAP2 POP PUSH2 0x22A6 DUP3 PUSH2 0x2267 JUMP JUMPDEST PUSH1 0x20 DUP3 ADD SWAP1 POP SWAP2 SWAP1 POP JUMP JUMPDEST PUSH0 PUSH1 0x20 DUP3 ADD SWAP1 POP DUP2 DUP2 SUB PUSH0 DUP4 ADD MSTORE PUSH2 0x22C8 DUP2 PUSH2 0x228F JUMP JUMPDEST SWAP1 POP SWAP2 SWAP1 POP JUMP JUMPDEST PUSH0 PUSH2 0x22D9 DUP3 PUSH2 0x13CD JUMP JUMPDEST SWAP2 POP PUSH32 0xFFFFFFFFFFFFFFFFFFFFFFFFFFFFFFFFFFFFFFFFFFFFFFFFFFFFFFFFFFFFFFFF DUP3 SUB PUSH2 0x230B JUMPI PUSH2 0x230A PUSH2 0x1AFB JUMP JUMPDEST JUMPDEST PUSH1 0x1 DUP3 ADD SWAP1 POP SWAP2 SWAP1 POP JUMP INVALID LOG2 PUSH5 0x6970667358 0x22 SLT KECCAK256 0x2C 0xDD TIMESTAMP SWAP16 0xF8 0xF6 BASEFEE LT JUMP 0x2D 0xE0 0xCF AND DUP12 SWAP4 MSIZE 0xB3 0xC5 CALLDATACOPY BYTE 0x29 PUSH24 0xA9DDAEC0C66A6BD7990364736F6C634300081A0033000000 "
				},
				"gasEstimates": {
					"creation": {
						"codeDepositCost": "1807200",
						"executionCost": "infinite",
						"totalCost": "infinite"
					},
					"external": {
						"addTier(string,uint256)": "infinite",
						"backers(address)": "2837",
						"deadline()": "2537",
						"description()": "infinite",
						"extendDeadline(uint256)": "infinite",
						"fund(uint256)": "infinite",
						"getCampaignStatus()": "9218",
						"getContractBalance()": "357",
						"getTiers()": "infinite",
						"goal()": "2492",
						"hasFundendTier(address,uint256)": "3213",
						"name()": "infinite",
						"owner()": "2597",
						"paused()": "2628",
						"refund()": "infinite",
						"removeTier(uint256)": "infinite",
						"state()": "2649",
						"tiers(uint256)": "infinite",
						"togglePause()": "28884",
						"withdraw()": "infinite"
					},
					"internal": {
						"checkAndUpdateCampaignState()": "30878"
					}
				},
				"methodIdentifiers": {
					"addTier(string,uint256)": "8ece7b91",
					"backers(address)": "b85dfb80",
					"deadline()": "29dcb0cf",
					"description()": "7284e416",
					"extendDeadline(uint256)": "389b7533",
					"fund(uint256)": "ca1d209d",
					"getCampaignStatus()": "10550515",
					"getContractBalance()": "6f9fb98a",
					"getTiers()": "de170570",
					"goal()": "40193883",
					"hasFundendTier(address,uint256)": "15922efb",
					"name()": "06fdde03",
					"owner()": "8da5cb5b",
					"paused()": "5c975abb",
					"refund()": "590e1ae3",
					"removeTier(uint256)": "7497211b",
					"state()": "c19d93fb",
					"tiers(uint256)": "039af9eb",
					"togglePause()": "c4ae3168",
					"withdraw()": "3ccfd60b"
				}
			},
			"storageLayout": {
				"storage": [
					{
						"astId": 3,
						"contract": "Crowdfunding/Crowdfunding.sol:Crowdfunding",
						"label": "name",
						"offset": 0,
						"slot": "0",
						"type": "t_string_storage"
					},
					{
						"astId": 5,
						"contract": "Crowdfunding/Crowdfunding.sol:Crowdfunding",
						"label": "description",
						"offset": 0,
						"slot": "1",
						"type": "t_string_storage"
					},
					{
						"astId": 7,
						"contract": "Crowdfunding/Crowdfunding.sol:Crowdfunding",
						"label": "goal",
						"offset": 0,
						"slot": "2",
						"type": "t_uint256"
					},
					{
						"astId": 9,
						"contract": "Crowdfunding/Crowdfunding.sol:Crowdfunding",
						"label": "deadline",
						"offset": 0,
						"slot": "3",
						"type": "t_uint256"
					},
					{
						"astId": 11,
						"contract": "Crowdfunding/Crowdfunding.sol:Crowdfunding",
						"label": "owner",
						"offset": 0,
						"slot": "4",
						"type": "t_address"
					},
					{
						"astId": 13,
						"contract": "Crowdfunding/Crowdfunding.sol:Crowdfunding",
						"label": "paused",
						"offset": 20,
						"slot": "4",
						"type": "t_bool"
					},
					{
						"astId": 20,
						"contract": "Crowdfunding/Crowdfunding.sol:Crowdfunding",
						"label": "state",
						"offset": 21,
						"slot": "4",
						"type": "t_enum(CampaignState)17"
					},
					{
						"astId": 38,
						"contract": "Crowdfunding/Crowdfunding.sol:Crowdfunding",
						"label": "tiers",
						"offset": 0,
						"slot": "5",
						"type": "t_array(t_struct(Tier)27_storage)dyn_storage"
					},
					{
						"astId": 43,
						"contract": "Crowdfunding/Crowdfunding.sol:Crowdfunding",
						"label": "backers",
						"offset": 0,
						"slot": "6",
						"type": "t_mapping(t_address,t_struct(Backer)34_storage)"
					}
				],
				"types": {
					"t_address": {
						"encoding": "inplace",
						"label": "address",
						"numberOfBytes": "20"
					},
					"t_array(t_struct(Tier)27_storage)dyn_storage": {
						"base": "t_struct(Tier)27_storage",
						"encoding": "dynamic_array",
						"label": "struct Crowdfunding.Tier[]",
						"numberOfBytes": "32"
					},
					"t_bool": {
						"encoding": "inplace",
						"label": "bool",
						"numberOfBytes": "1"
					},
					"t_enum(CampaignState)17": {
						"encoding": "inplace",
						"label": "enum Crowdfunding.CampaignState",
						"numberOfBytes": "1"
					},
					"t_mapping(t_address,t_struct(Backer)34_storage)": {
						"encoding": "mapping",
						"key": "t_address",
						"label": "mapping(address => struct Crowdfunding.Backer)",
						"numberOfBytes": "32",
						"value": "t_struct(Backer)34_storage"
					},
					"t_mapping(t_uint256,t_bool)": {
						"encoding": "mapping",
						"key": "t_uint256",
						"label": "mapping(uint256 => bool)",
						"numberOfBytes": "32",
						"value": "t_bool"
					},
					"t_string_storage": {
						"encoding": "bytes",
						"label": "string",
						"numberOfBytes": "32"
					},
					"t_struct(Backer)34_storage": {
						"encoding": "inplace",
						"label": "struct Crowdfunding.Backer",
						"members": [
							{
								"astId": 29,
								"contract": "Crowdfunding/Crowdfunding.sol:Crowdfunding",
								"label": "totalContribution",
								"offset": 0,
								"slot": "0",
								"type": "t_uint256"
							},
							{
								"astId": 33,
								"contract": "Crowdfunding/Crowdfunding.sol:Crowdfunding",
								"label": "fundedTiers",
								"offset": 0,
								"slot": "1",
								"type": "t_mapping(t_uint256,t_bool)"
							}
						],
						"numberOfBytes": "64"
					},
					"t_struct(Tier)27_storage": {
						"encoding": "inplace",
						"label": "struct Crowdfunding.Tier",
						"members": [
							{
								"astId": 22,
								"contract": "Crowdfunding/Crowdfunding.sol:Crowdfunding",
								"label": "name",
								"offset": 0,
								"slot": "0",
								"type": "t_string_storage"
							},
							{
								"astId": 24,
								"contract": "Crowdfunding/Crowdfunding.sol:Crowdfunding",
								"label": "amount",
								"offset": 0,
								"slot": "1",
								"type": "t_uint256"
							},
							{
								"astId": 26,
								"contract": "Crowdfunding/Crowdfunding.sol:Crowdfunding",
								"label": "backers",
								"offset": 0,
								"slot": "2",
								"type": "t_uint256"
							}
						],
						"numberOfBytes": "96"
					},
					"t_uint256": {
						"encoding": "inplace",
						"label": "uint256",
						"numberOfBytes": "32"
					}
				}
			},
			"userdoc": {
				"kind": "user",
				"methods": {},
				"version": 1
			}
		}
	}
}