{
	"Day-24/code1.sol": {
		"Escrow": {
			"abi": [
				{
					"inputs": [
						{
							"internalType": "address",
							"name": "_seller",
							"type": "address"
						},
						{
							"internalType": "address",
							"name": "_arbitrator",
							"type": "address"
						}
					],
					"stateMutability": "nonpayable",
					"type": "constructor"
				},
				{
					"anonymous": false,
					"inputs": [
						{
							"indexed": true,
							"internalType": "address",
							"name": "buyer",
							"type": "address"
						},
						{
							"indexed": false,
							"internalType": "uint256",
							"name": "amount",
							"type": "uint256"
						}
					],
					"name": "Deposited",
					"type": "event"
				},
				{
					"anonymous": false,
					"inputs": [
						{
							"indexed": true,
							"internalType": "address",
							"name": "by",
							"type": "address"
						}
					],
					"name": "DisputeRaised",
					"type": "event"
				},
				{
					"anonymous": false,
					"inputs": [
						{
							"indexed": true,
							"internalType": "address",
							"name": "arbitrator",
							"type": "address"
						},
						{
							"indexed": false,
							"internalType": "address",
							"name": "beneficiary",
							"type": "address"
						}
					],
					"name": "DisputeResolved",
					"type": "event"
				},
				{
					"anonymous": false,
					"inputs": [
						{
							"indexed": true,
							"internalType": "address",
							"name": "buyer",
							"type": "address"
						},
						{
							"indexed": false,
							"internalType": "uint256",
							"name": "amount",
							"type": "uint256"
						}
					],
					"name": "Refunded",
					"type": "event"
				},
				{
					"anonymous": false,
					"inputs": [
						{
							"indexed": true,
							"internalType": "address",
							"name": "seller",
							"type": "address"
						},
						{
							"indexed": false,
							"internalType": "uint256",
							"name": "amount",
							"type": "uint256"
						}
					],
					"name": "Released",
					"type": "event"
				},
				{
					"inputs": [],
					"name": "amount",
					"outputs": [
						{
							"internalType": "uint256",
							"name": "",
							"type": "uint256"
						}
					],
					"stateMutability": "view",
					"type": "function"
				},
				{
					"inputs": [],
					"name": "arbitrator",
					"outputs": [
						{
							"internalType": "address",
							"name": "",
							"type": "address"
						}
					],
					"stateMutability": "view",
					"type": "function"
				},
				{
					"inputs": [],
					"name": "buyer",
					"outputs": [
						{
							"internalType": "address",
							"name": "",
							"type": "address"
						}
					],
					"stateMutability": "view",
					"type": "function"
				},
				{
					"inputs": [],
					"name": "buyerConfirmed",
					"outputs": [
						{
							"internalType": "bool",
							"name": "",
							"type": "bool"
						}
					],
					"stateMutability": "view",
					"type": "function"
				},
				{
					"inputs": [],
					"name": "currentState",
					"outputs": [
						{
							"internalType": "enum Escrow.State",
							"name": "",
							"type": "uint8"
						}
					],
					"stateMutability": "view",
					"type": "function"
				},
				{
					"inputs": [],
					"name": "deposit",
					"outputs": [],
					"stateMutability": "payable",
					"type": "function"
				},
				{
					"inputs": [],
					"name": "raiseDispute",
					"outputs": [],
					"stateMutability": "nonpayable",
					"type": "function"
				},
				{
					"inputs": [],
					"name": "releaseToSeller",
					"outputs": [],
					"stateMutability": "nonpayable",
					"type": "function"
				},
				{
					"inputs": [],
					"name": "requestRefund",
					"outputs": [],
					"stateMutability": "nonpayable",
					"type": "function"
				},
				{
					"inputs": [
						{
							"internalType": "address",
							"name": "beneficiary",
							"type": "address"
						}
					],
					"name": "resolveDispute",
					"outputs": [],
					"stateMutability": "nonpayable",
					"type": "function"
				},
				{
					"inputs": [],
					"name": "seller",
					"outputs": [
						{
							"internalType": "address",
							"name": "",
							"type": "address"
						}
					],
					"stateMutability": "view",
					"type": "function"
				},
				{
					"inputs": [],
					"name": "sellerRefundRequested",
					"outputs": [
						{
							"internalType": "bool",
							"name": "",
							"type": "bool"
						}
					],
					"stateMutability": "view",
					"type": "function"
				}
			],
			"devdoc": {
				"kind": "dev",
				"methods": {},
				"version": 1
			},
			"evm": {
				"assembly": "    /* \"Day-24/code1.sol\":60:3417  contract Escrow {... */\n  mstore(0x40, 0xa0)\n    /* \"Day-24/code1.sol\":1263:1460  constructor(address _seller, address _arbitrator) {... */\n  callvalue\n  dup1\n  iszero\n  tag_1\n  jumpi\n  0x00\n  dup1\n  revert\ntag_1:\n  pop\n  mload(0x40)\n  sub(codesize, bytecodeSize)\n  dup1\n  bytecodeSize\n  dup4\n  codecopy\n  dup2\n  dup2\n  add\n  0x40\n  mstore\n  dup2\n  add\n  swap1\n  tag_2\n  swap2\n  swap1\n  tag_3\n  jump\t// in\ntag_2:\n    /* \"Day-24/code1.sol\":1332:1342  msg.sender */\n  caller\n    /* \"Day-24/code1.sol\":1324:1329  buyer */\n  0x00\n  dup1\n    /* \"Day-24/code1.sol\":1324:1342  buyer = msg.sender */\n  0x0100\n  exp\n  dup2\n  sload\n  dup2\n  0xffffffffffffffffffffffffffffffffffffffff\n  mul\n  not\n  and\n  swap1\n  dup4\n  0xffffffffffffffffffffffffffffffffffffffff\n  and\n  mul\n  or\n  swap1\n  sstore\n  pop\n    /* \"Day-24/code1.sol\":1362:1369  _seller */\n  dup2\n    /* \"Day-24/code1.sol\":1353:1359  seller */\n  0x01\n  0x00\n    /* \"Day-24/code1.sol\":1353:1369  seller = _seller */\n  0x0100\n  exp\n  dup2\n  sload\n  dup2\n  0xffffffffffffffffffffffffffffffffffffffff\n  mul\n  not\n  and\n  swap1\n  dup4\n  0xffffffffffffffffffffffffffffffffffffffff\n  and\n  mul\n  or\n  swap1\n  sstore\n  pop\n    /* \"Day-24/code1.sol\":1393:1404  _arbitrator */\n  dup1\n    /* \"Day-24/code1.sol\":1380:1404  arbitrator = _arbitrator */\n  0xffffffffffffffffffffffffffffffffffffffff\n  and\n  0x80\n  dup2\n  0xffffffffffffffffffffffffffffffffffffffff\n  and\n  dup2\n  mstore\n  pop\n  pop\n    /* \"Day-24/code1.sol\":1430:1452  State.AWAITING_PAYMENT */\n  0x00\n    /* \"Day-24/code1.sol\":1415:1427  currentState */\n  0x01\n  0x14\n    /* \"Day-24/code1.sol\":1415:1452  currentState = State.AWAITING_PAYMENT */\n  0x0100\n  exp\n  dup2\n  sload\n  dup2\n  0xff\n  mul\n  not\n  and\n  swap1\n  dup4\n  0x04\n  dup2\n  gt\n  iszero\n  tag_6\n  jumpi\n  tag_7\n  tag_8\n  jump\t// in\ntag_7:\ntag_6:\n  mul\n  or\n  swap1\n  sstore\n  pop\n    /* \"Day-24/code1.sol\":1263:1460  constructor(address _seller, address _arbitrator) {... */\n  pop\n  pop\n    /* \"Day-24/code1.sol\":60:3417  contract Escrow {... */\n  jump(tag_9)\n    /* \"#utility.yul\":88:205   */\ntag_11:\n    /* \"#utility.yul\":197:198   */\n  0x00\n    /* \"#utility.yul\":194:195   */\n  dup1\n    /* \"#utility.yul\":187:199   */\n  revert\n    /* \"#utility.yul\":334:460   */\ntag_13:\n    /* \"#utility.yul\":371:378   */\n  0x00\n    /* \"#utility.yul\":411:453   */\n  0xffffffffffffffffffffffffffffffffffffffff\n    /* \"#utility.yul\":404:409   */\n  dup3\n    /* \"#utility.yul\":400:454   */\n  and\n    /* \"#utility.yul\":389:454   */\n  swap1\n  pop\n    /* \"#utility.yul\":334:460   */\n  swap2\n  swap1\n  pop\n  jump\t// out\n    /* \"#utility.yul\":466:562   */\ntag_14:\n    /* \"#utility.yul\":503:510   */\n  0x00\n    /* \"#utility.yul\":532:556   */\n  tag_23\n    /* \"#utility.yul\":550:555   */\n  dup3\n    /* \"#utility.yul\":532:556   */\n  tag_13\n  jump\t// in\ntag_23:\n    /* \"#utility.yul\":521:556   */\n  swap1\n  pop\n    /* \"#utility.yul\":466:562   */\n  swap2\n  swap1\n  pop\n  jump\t// out\n    /* \"#utility.yul\":568:690   */\ntag_15:\n    /* \"#utility.yul\":641:665   */\n  tag_25\n    /* \"#utility.yul\":659:664   */\n  dup2\n    /* \"#utility.yul\":641:665   */\n  tag_14\n  jump\t// in\ntag_25:\n    /* \"#utility.yul\":634:639   */\n  dup2\n    /* \"#utility.yul\":631:666   */\n  eq\n    /* \"#utility.yul\":621:684   */\n  tag_26\n  jumpi\n    /* \"#utility.yul\":680:681   */\n  0x00\n    /* \"#utility.yul\":677:678   */\n  dup1\n    /* \"#utility.yul\":670:682   */\n  revert\n    /* \"#utility.yul\":621:684   */\ntag_26:\n    /* \"#utility.yul\":568:690   */\n  pop\n  jump\t// out\n    /* \"#utility.yul\":696:839   */\ntag_16:\n    /* \"#utility.yul\":753:758   */\n  0x00\n    /* \"#utility.yul\":784:790   */\n  dup2\n    /* \"#utility.yul\":778:791   */\n  mload\n    /* \"#utility.yul\":769:791   */\n  swap1\n  pop\n    /* \"#utility.yul\":800:833   */\n  tag_28\n    /* \"#utility.yul\":827:832   */\n  dup2\n    /* \"#utility.yul\":800:833   */\n  tag_15\n  jump\t// in\ntag_28:\n    /* \"#utility.yul\":696:839   */\n  swap3\n  swap2\n  pop\n  pop\n  jump\t// out\n    /* \"#utility.yul\":845:1352   */\ntag_3:\n    /* \"#utility.yul\":924:930   */\n  0x00\n    /* \"#utility.yul\":932:938   */\n  dup1\n    /* \"#utility.yul\":981:983   */\n  0x40\n    /* \"#utility.yul\":969:978   */\n  dup4\n    /* \"#utility.yul\":960:967   */\n  dup6\n    /* \"#utility.yul\":956:979   */\n  sub\n    /* \"#utility.yul\":952:984   */\n  slt\n    /* \"#utility.yul\":949:1068   */\n  iszero\n  tag_30\n  jumpi\n    /* \"#utility.yul\":987:1066   */\n  tag_31\n  tag_11\n  jump\t// in\ntag_31:\n    /* \"#utility.yul\":949:1068   */\ntag_30:\n    /* \"#utility.yul\":1107:1108   */\n  0x00\n    /* \"#utility.yul\":1132:1196   */\n  tag_32\n    /* \"#utility.yul\":1188:1195   */\n  dup6\n    /* \"#utility.yul\":1179:1185   */\n  dup3\n    /* \"#utility.yul\":1168:1177   */\n  dup7\n    /* \"#utility.yul\":1164:1186   */\n  add\n    /* \"#utility.yul\":1132:1196   */\n  tag_16\n  jump\t// in\ntag_32:\n    /* \"#utility.yul\":1122:1196   */\n  swap3\n  pop\n    /* \"#utility.yul\":1078:1206   */\n  pop\n    /* \"#utility.yul\":1245:1247   */\n  0x20\n    /* \"#utility.yul\":1271:1335   */\n  tag_33\n    /* \"#utility.yul\":1327:1334   */\n  dup6\n    /* \"#utility.yul\":1318:1324   */\n  dup3\n    /* \"#utility.yul\":1307:1316   */\n  dup7\n    /* \"#utility.yul\":1303:1325   */\n  add\n    /* \"#utility.yul\":1271:1335   */\n  tag_16\n  jump\t// in\ntag_33:\n    /* \"#utility.yul\":1261:1335   */\n  swap2\n  pop\n    /* \"#utility.yul\":1216:1345   */\n  pop\n    /* \"#utility.yul\":845:1352   */\n  swap3\n  pop\n  swap3\n  swap1\n  pop\n  jump\t// out\n    /* \"#utility.yul\":1358:1538   */\ntag_8:\n    /* \"#utility.yul\":1406:1483   */\n  0x4e487b7100000000000000000000000000000000000000000000000000000000\n    /* \"#utility.yul\":1403:1404   */\n  0x00\n    /* \"#utility.yul\":1396:1484   */\n  mstore\n    /* \"#utility.yul\":1503:1507   */\n  0x21\n    /* \"#utility.yul\":1500:1501   */\n  0x04\n    /* \"#utility.yul\":1493:1508   */\n  mstore\n    /* \"#utility.yul\":1527:1531   */\n  0x24\n    /* \"#utility.yul\":1524:1525   */\n  0x00\n    /* \"#utility.yul\":1517:1532   */\n  revert\n    /* \"Day-24/code1.sol\":60:3417  contract Escrow {... */\ntag_9:\n  mload(0x80)\n  codecopy(0x00, dataOffset(sub_0), dataSize(sub_0))\n  0x00\n  assignImmutable(\"0x52f1a9b320cab38e5da8a8f97989383aab0a49165fc91c737310e4f7e9821021\")\n  return(0x00, dataSize(sub_0))\nstop\n\nsub_0: assembly {\n        /* \"Day-24/code1.sol\":60:3417  contract Escrow {... */\n      mstore(0x40, 0x80)\n      jumpi(tag_1, lt(calldatasize, 0x04))\n      shr(0xe0, calldataload(0x00))\n      dup1\n      0x7150d8ae\n      gt\n      tag_14\n      jumpi\n      dup1\n      0x7150d8ae\n      eq\n      tag_8\n      jumpi\n      dup1\n      0x892a0e42\n      eq\n      tag_9\n      jumpi\n      dup1\n      0xaa8c217c\n      eq\n      tag_10\n      jumpi\n      dup1\n      0xd0e30db0\n      eq\n      tag_11\n      jumpi\n      dup1\n      0xd5cef133\n      eq\n      tag_12\n      jumpi\n      dup1\n      0xd8461182\n      eq\n      tag_13\n      jumpi\n      jump(tag_1)\n    tag_14:\n      dup1\n      0x08551a53\n      eq\n      tag_2\n      jumpi\n      dup1\n      0x09671514\n      eq\n      tag_3\n      jumpi\n      dup1\n      0x0c3f6acf\n      eq\n      tag_4\n      jumpi\n      dup1\n      0x48a1335a\n      eq\n      tag_5\n      jumpi\n      dup1\n      0x6cc6cde1\n      eq\n      tag_6\n      jumpi\n      dup1\n      0x6daa2d44\n      eq\n      tag_7\n      jumpi\n    tag_1:\n      0x00\n      dup1\n      revert\n        /* \"Day-24/code1.sol\":124:145  address public seller */\n    tag_2:\n      callvalue\n      dup1\n      iszero\n      tag_15\n      jumpi\n      0x00\n      dup1\n      revert\n    tag_15:\n      pop\n      tag_16\n      tag_17\n      jump\t// in\n    tag_16:\n      mload(0x40)\n      tag_18\n      swap2\n      swap1\n      tag_19\n      jump\t// in\n    tag_18:\n      mload(0x40)\n      dup1\n      swap2\n      sub\n      swap1\n      return\n        /* \"Day-24/code1.sol\":397:430  bool public sellerRefundRequested */\n    tag_3:\n      callvalue\n      dup1\n      iszero\n      tag_20\n      jumpi\n      0x00\n      dup1\n      revert\n    tag_20:\n      pop\n      tag_21\n      tag_22\n      jump\t// in\n    tag_21:\n      mload(0x40)\n      tag_23\n      swap2\n      swap1\n      tag_24\n      jump\t// in\n    tag_23:\n      mload(0x40)\n      dup1\n      swap2\n      sub\n      swap1\n      return\n        /* \"Day-24/code1.sol\":302:327  State public currentState */\n    tag_4:\n      callvalue\n      dup1\n      iszero\n      tag_25\n      jumpi\n      0x00\n      dup1\n      revert\n    tag_25:\n      pop\n      tag_26\n      tag_27\n      jump\t// in\n    tag_26:\n      mload(0x40)\n      tag_28\n      swap2\n      swap1\n      tag_29\n      jump\t// in\n    tag_28:\n      mload(0x40)\n      dup1\n      swap2\n      sub\n      swap1\n      return\n        /* \"Day-24/code1.sol\":364:390  bool public buyerConfirmed */\n    tag_5:\n      callvalue\n      dup1\n      iszero\n      tag_30\n      jumpi\n      0x00\n      dup1\n      revert\n    tag_30:\n      pop\n      tag_31\n      tag_32\n      jump\t// in\n    tag_31:\n      mload(0x40)\n      tag_33\n      swap2\n      swap1\n      tag_24\n      jump\t// in\n    tag_33:\n      mload(0x40)\n      dup1\n      swap2\n      sub\n      swap1\n      return\n        /* \"Day-24/code1.sol\":152:187  address public immutable arbitrator */\n    tag_6:\n      callvalue\n      dup1\n      iszero\n      tag_34\n      jumpi\n      0x00\n      dup1\n      revert\n    tag_34:\n      pop\n      tag_35\n      tag_36\n      jump\t// in\n    tag_35:\n      mload(0x40)\n      tag_37\n      swap2\n      swap1\n      tag_19\n      jump\t// in\n    tag_37:\n      mload(0x40)\n      dup1\n      swap2\n      sub\n      swap1\n      return\n        /* \"Day-24/code1.sol\":2280:2512  function raiseDispute() external inState(State.FUNDS_DEPOSITED) {... */\n    tag_7:\n      callvalue\n      dup1\n      iszero\n      tag_38\n      jumpi\n      0x00\n      dup1\n      revert\n    tag_38:\n      pop\n      tag_39\n      tag_40\n      jump\t// in\n    tag_39:\n      stop\n        /* \"Day-24/code1.sol\":97:117  address public buyer */\n    tag_8:\n      callvalue\n      dup1\n      iszero\n      tag_41\n      jumpi\n      0x00\n      dup1\n      revert\n    tag_41:\n      pop\n      tag_42\n      tag_43\n      jump\t// in\n    tag_42:\n      mload(0x40)\n      tag_44\n      swap2\n      swap1\n      tag_19\n      jump\t// in\n    tag_44:\n      mload(0x40)\n      dup1\n      swap2\n      sub\n      swap1\n      return\n        /* \"Day-24/code1.sol\":1856:2009  function releaseToSeller() external onlyBuyer inState(State.FUNDS_DEPOSITED) {... */\n    tag_9:\n      callvalue\n      dup1\n      iszero\n      tag_45\n      jumpi\n      0x00\n      dup1\n      revert\n    tag_45:\n      pop\n      tag_46\n      tag_47\n      jump\t// in\n    tag_46:\n      stop\n        /* \"Day-24/code1.sol\":336:357  uint256 public amount */\n    tag_10:\n      callvalue\n      dup1\n      iszero\n      tag_48\n      jumpi\n      0x00\n      dup1\n      revert\n    tag_48:\n      pop\n      tag_49\n      tag_50\n      jump\t// in\n    tag_49:\n      mload(0x40)\n      tag_51\n      swap2\n      swap1\n      tag_52\n      jump\t// in\n    tag_51:\n      mload(0x40)\n      dup1\n      swap2\n      sub\n      swap1\n      return\n        /* \"Day-24/code1.sol\":1509:1793  function deposit() external payable onlyBuyer inState(State.AWAITING_PAYMENT) {... */\n    tag_11:\n      tag_53\n      tag_54\n      jump\t// in\n    tag_53:\n      stop\n        /* \"Day-24/code1.sol\":2083:2231  function requestRefund() external onlySeller inState(State.FUNDS_DEPOSITED) {... */\n    tag_12:\n      callvalue\n      dup1\n      iszero\n      tag_55\n      jumpi\n      0x00\n      dup1\n      revert\n    tag_55:\n      pop\n      tag_56\n      tag_57\n      jump\t// in\n    tag_56:\n      stop\n        /* \"Day-24/code1.sol\":2556:2802  function resolveDispute(address beneficiary) external onlyArbitrator inState(State.DISPUTED) {... */\n    tag_13:\n      callvalue\n      dup1\n      iszero\n      tag_58\n      jumpi\n      0x00\n      dup1\n      revert\n    tag_58:\n      pop\n      tag_59\n      0x04\n      dup1\n      calldatasize\n      sub\n      dup2\n      add\n      swap1\n      tag_60\n      swap2\n      swap1\n      tag_61\n      jump\t// in\n    tag_60:\n      tag_62\n      jump\t// in\n    tag_59:\n      stop\n        /* \"Day-24/code1.sol\":124:145  address public seller */\n    tag_17:\n      0x01\n      0x00\n      swap1\n      sload\n      swap1\n      0x0100\n      exp\n      swap1\n      div\n      0xffffffffffffffffffffffffffffffffffffffff\n      and\n      dup2\n      jump\t// out\n        /* \"Day-24/code1.sol\":397:430  bool public sellerRefundRequested */\n    tag_22:\n      0x03\n      0x01\n      swap1\n      sload\n      swap1\n      0x0100\n      exp\n      swap1\n      div\n      0xff\n      and\n      dup2\n      jump\t// out\n        /* \"Day-24/code1.sol\":302:327  State public currentState */\n    tag_27:\n      0x01\n      0x14\n      swap1\n      sload\n      swap1\n      0x0100\n      exp\n      swap1\n      div\n      0xff\n      and\n      dup2\n      jump\t// out\n        /* \"Day-24/code1.sol\":364:390  bool public buyerConfirmed */\n    tag_32:\n      0x03\n      0x00\n      swap1\n      sload\n      swap1\n      0x0100\n      exp\n      swap1\n      div\n      0xff\n      and\n      dup2\n      jump\t// out\n        /* \"Day-24/code1.sol\":152:187  address public immutable arbitrator */\n    tag_36:\n      immutable(\"0x52f1a9b320cab38e5da8a8f97989383aab0a49165fc91c737310e4f7e9821021\")\n      dup2\n      jump\t// out\n        /* \"Day-24/code1.sol\":2280:2512  function raiseDispute() external inState(State.FUNDS_DEPOSITED) {... */\n    tag_40:\n        /* \"Day-24/code1.sol\":2321:2342  State.FUNDS_DEPOSITED */\n      0x01\n        /* \"Day-24/code1.sol\":1211:1217  _state */\n      dup1\n        /* \"Day-24/code1.sol\":1195:1217  currentState == _state */\n      0x04\n      dup2\n      gt\n      iszero\n      tag_64\n      jumpi\n      tag_65\n      tag_66\n      jump\t// in\n    tag_65:\n    tag_64:\n        /* \"Day-24/code1.sol\":1195:1207  currentState */\n      0x01\n      0x14\n      swap1\n      sload\n      swap1\n      0x0100\n      exp\n      swap1\n      div\n      0xff\n      and\n        /* \"Day-24/code1.sol\":1195:1217  currentState == _state */\n      0x04\n      dup2\n      gt\n      iszero\n      tag_67\n      jumpi\n      tag_68\n      tag_66\n      jump\t// in\n    tag_68:\n    tag_67:\n      eq\n        /* \"Day-24/code1.sol\":1187:1235  require(currentState == _state, \"Invalid state\") */\n      tag_69\n      jumpi\n      mload(0x40)\n      0x08c379a000000000000000000000000000000000000000000000000000000000\n      dup2\n      mstore\n      0x04\n      add\n      tag_70\n      swap1\n      tag_71\n      jump\t// in\n    tag_70:\n      mload(0x40)\n      dup1\n      swap2\n      sub\n      swap1\n      revert\n    tag_69:\n        /* \"Day-24/code1.sol\":2377:2382  buyer */\n      0x00\n      dup1\n      sload\n      swap1\n      0x0100\n      exp\n      swap1\n      div\n      0xffffffffffffffffffffffffffffffffffffffff\n      and\n        /* \"Day-24/code1.sol\":2363:2382  msg.sender == buyer */\n      0xffffffffffffffffffffffffffffffffffffffff\n      and\n        /* \"Day-24/code1.sol\":2363:2373  msg.sender */\n      caller\n        /* \"Day-24/code1.sol\":2363:2382  msg.sender == buyer */\n      0xffffffffffffffffffffffffffffffffffffffff\n      and\n      eq\n        /* \"Day-24/code1.sol\":2363:2406  msg.sender == buyer || msg.sender == seller */\n      dup1\n      tag_73\n      jumpi\n      pop\n        /* \"Day-24/code1.sol\":2400:2406  seller */\n      0x01\n      0x00\n      swap1\n      sload\n      swap1\n      0x0100\n      exp\n      swap1\n      div\n      0xffffffffffffffffffffffffffffffffffffffff\n      and\n        /* \"Day-24/code1.sol\":2386:2406  msg.sender == seller */\n      0xffffffffffffffffffffffffffffffffffffffff\n      and\n        /* \"Day-24/code1.sol\":2386:2396  msg.sender */\n      caller\n        /* \"Day-24/code1.sol\":2386:2406  msg.sender == seller */\n      0xffffffffffffffffffffffffffffffffffffffff\n      and\n      eq\n        /* \"Day-24/code1.sol\":2363:2406  msg.sender == buyer || msg.sender == seller */\n    tag_73:\n        /* \"Day-24/code1.sol\":2355:2423  require(msg.sender == buyer || msg.sender == seller, \"Unauthorized\") */\n      tag_74\n      jumpi\n      mload(0x40)\n      0x08c379a000000000000000000000000000000000000000000000000000000000\n      dup2\n      mstore\n      0x04\n      add\n      tag_75\n      swap1\n      tag_76\n      jump\t// in\n    tag_75:\n      mload(0x40)\n      dup1\n      swap2\n      sub\n      swap1\n      revert\n    tag_74:\n        /* \"Day-24/code1.sol\":2449:2463  State.DISPUTED */\n      0x02\n        /* \"Day-24/code1.sol\":2434:2446  currentState */\n      0x01\n      0x14\n        /* \"Day-24/code1.sol\":2434:2463  currentState = State.DISPUTED */\n      0x0100\n      exp\n      dup2\n      sload\n      dup2\n      0xff\n      mul\n      not\n      and\n      swap1\n      dup4\n      0x04\n      dup2\n      gt\n      iszero\n      tag_77\n      jumpi\n      tag_78\n      tag_66\n      jump\t// in\n    tag_78:\n    tag_77:\n      mul\n      or\n      swap1\n      sstore\n      pop\n        /* \"Day-24/code1.sol\":2493:2503  msg.sender */\n      caller\n        /* \"Day-24/code1.sol\":2479:2504  DisputeRaised(msg.sender) */\n      0xffffffffffffffffffffffffffffffffffffffff\n      and\n      0x0b3cd97b16a08a5c77357c276d248827ad32dfd56060f7c55d6255537ba3d962\n      mload(0x40)\n      mload(0x40)\n      dup1\n      swap2\n      sub\n      swap1\n      log2\n        /* \"Day-24/code1.sol\":2280:2512  function raiseDispute() external inState(State.FUNDS_DEPOSITED) {... */\n      pop\n      jump\t// out\n        /* \"Day-24/code1.sol\":97:117  address public buyer */\n    tag_43:\n      0x00\n      dup1\n      sload\n      swap1\n      0x0100\n      exp\n      swap1\n      div\n      0xffffffffffffffffffffffffffffffffffffffff\n      and\n      dup2\n      jump\t// out\n        /* \"Day-24/code1.sol\":1856:2009  function releaseToSeller() external onlyBuyer inState(State.FUNDS_DEPOSITED) {... */\n    tag_47:\n        /* \"Day-24/code1.sol\":833:838  buyer */\n      0x00\n      dup1\n      sload\n      swap1\n      0x0100\n      exp\n      swap1\n      div\n      0xffffffffffffffffffffffffffffffffffffffff\n      and\n        /* \"Day-24/code1.sol\":819:838  msg.sender == buyer */\n      0xffffffffffffffffffffffffffffffffffffffff\n      and\n        /* \"Day-24/code1.sol\":819:829  msg.sender */\n      caller\n        /* \"Day-24/code1.sol\":819:838  msg.sender == buyer */\n      0xffffffffffffffffffffffffffffffffffffffff\n      and\n      eq\n        /* \"Day-24/code1.sol\":811:867  require(msg.sender == buyer, \"Only buyer can call this\") */\n      tag_80\n      jumpi\n      mload(0x40)\n      0x08c379a000000000000000000000000000000000000000000000000000000000\n      dup2\n      mstore\n      0x04\n      add\n      tag_81\n      swap1\n      tag_82\n      jump\t// in\n    tag_81:\n      mload(0x40)\n      dup1\n      swap2\n      sub\n      swap1\n      revert\n    tag_80:\n        /* \"Day-24/code1.sol\":1910:1931  State.FUNDS_DEPOSITED */\n      0x01\n        /* \"Day-24/code1.sol\":1211:1217  _state */\n      dup1\n        /* \"Day-24/code1.sol\":1195:1217  currentState == _state */\n      0x04\n      dup2\n      gt\n      iszero\n      tag_84\n      jumpi\n      tag_85\n      tag_66\n      jump\t// in\n    tag_85:\n    tag_84:\n        /* \"Day-24/code1.sol\":1195:1207  currentState */\n      0x01\n      0x14\n      swap1\n      sload\n      swap1\n      0x0100\n      exp\n      swap1\n      div\n      0xff\n      and\n        /* \"Day-24/code1.sol\":1195:1217  currentState == _state */\n      0x04\n      dup2\n      gt\n      iszero\n      tag_86\n      jumpi\n      tag_87\n      tag_66\n      jump\t// in\n    tag_87:\n    tag_86:\n      eq\n        /* \"Day-24/code1.sol\":1187:1235  require(currentState == _state, \"Invalid state\") */\n      tag_88\n      jumpi\n      mload(0x40)\n      0x08c379a000000000000000000000000000000000000000000000000000000000\n      dup2\n      mstore\n      0x04\n      add\n      tag_89\n      swap1\n      tag_71\n      jump\t// in\n    tag_89:\n      mload(0x40)\n      dup1\n      swap2\n      sub\n      swap1\n      revert\n    tag_88:\n        /* \"Day-24/code1.sol\":1957:1961  true */\n      0x01\n        /* \"Day-24/code1.sol\":1940:1954  buyerConfirmed */\n      0x03\n      0x00\n        /* \"Day-24/code1.sol\":1940:1961  buyerConfirmed = true */\n      0x0100\n      exp\n      dup2\n      sload\n      dup2\n      0xff\n      mul\n      not\n      and\n      swap1\n      dup4\n      iszero\n      iszero\n      mul\n      or\n      swap1\n      sstore\n      pop\n        /* \"Day-24/code1.sol\":1968:2005  _completeTransaction(payable(seller)) */\n      tag_91\n        /* \"Day-24/code1.sol\":1997:2003  seller */\n      0x01\n      0x00\n      swap1\n      sload\n      swap1\n      0x0100\n      exp\n      swap1\n      div\n      0xffffffffffffffffffffffffffffffffffffffff\n      and\n        /* \"Day-24/code1.sol\":1968:1988  _completeTransaction */\n      tag_92\n        /* \"Day-24/code1.sol\":1968:2005  _completeTransaction(payable(seller)) */\n      jump\t// in\n    tag_91:\n        /* \"Day-24/code1.sol\":878:879  _ */\n      pop\n        /* \"Day-24/code1.sol\":1856:2009  function releaseToSeller() external onlyBuyer inState(State.FUNDS_DEPOSITED) {... */\n      jump\t// out\n        /* \"Day-24/code1.sol\":336:357  uint256 public amount */\n    tag_50:\n      sload(0x02)\n      dup2\n      jump\t// out\n        /* \"Day-24/code1.sol\":1509:1793  function deposit() external payable onlyBuyer inState(State.AWAITING_PAYMENT) {... */\n    tag_54:\n        /* \"Day-24/code1.sol\":833:838  buyer */\n      0x00\n      dup1\n      sload\n      swap1\n      0x0100\n      exp\n      swap1\n      div\n      0xffffffffffffffffffffffffffffffffffffffff\n      and\n        /* \"Day-24/code1.sol\":819:838  msg.sender == buyer */\n      0xffffffffffffffffffffffffffffffffffffffff\n      and\n        /* \"Day-24/code1.sol\":819:829  msg.sender */\n      caller\n        /* \"Day-24/code1.sol\":819:838  msg.sender == buyer */\n      0xffffffffffffffffffffffffffffffffffffffff\n      and\n      eq\n        /* \"Day-24/code1.sol\":811:867  require(msg.sender == buyer, \"Only buyer can call this\") */\n      tag_94\n      jumpi\n      mload(0x40)\n      0x08c379a000000000000000000000000000000000000000000000000000000000\n      dup2\n      mstore\n      0x04\n      add\n      tag_95\n      swap1\n      tag_82\n      jump\t// in\n    tag_95:\n      mload(0x40)\n      dup1\n      swap2\n      sub\n      swap1\n      revert\n    tag_94:\n        /* \"Day-24/code1.sol\":1563:1585  State.AWAITING_PAYMENT */\n      0x00\n        /* \"Day-24/code1.sol\":1211:1217  _state */\n      dup1\n        /* \"Day-24/code1.sol\":1195:1217  currentState == _state */\n      0x04\n      dup2\n      gt\n      iszero\n      tag_97\n      jumpi\n      tag_98\n      tag_66\n      jump\t// in\n    tag_98:\n    tag_97:\n        /* \"Day-24/code1.sol\":1195:1207  currentState */\n      0x01\n      0x14\n      swap1\n      sload\n      swap1\n      0x0100\n      exp\n      swap1\n      div\n      0xff\n      and\n        /* \"Day-24/code1.sol\":1195:1217  currentState == _state */\n      0x04\n      dup2\n      gt\n      iszero\n      tag_99\n      jumpi\n      tag_100\n      tag_66\n      jump\t// in\n    tag_100:\n    tag_99:\n      eq\n        /* \"Day-24/code1.sol\":1187:1235  require(currentState == _state, \"Invalid state\") */\n      tag_101\n      jumpi\n      mload(0x40)\n      0x08c379a000000000000000000000000000000000000000000000000000000000\n      dup2\n      mstore\n      0x04\n      add\n      tag_102\n      swap1\n      tag_71\n      jump\t// in\n    tag_102:\n      mload(0x40)\n      dup1\n      swap2\n      sub\n      swap1\n      revert\n    tag_101:\n        /* \"Day-24/code1.sol\":1618:1619  0 */\n      0x00\n        /* \"Day-24/code1.sol\":1606:1615  msg.value */\n      callvalue\n        /* \"Day-24/code1.sol\":1606:1619  msg.value > 0 */\n      gt\n        /* \"Day-24/code1.sol\":1598:1661  require(msg.value > 0, \"Deposit amount must be greater than 0\") */\n      tag_104\n      jumpi\n      mload(0x40)\n      0x08c379a000000000000000000000000000000000000000000000000000000000\n      dup2\n      mstore\n      0x04\n      add\n      tag_105\n      swap1\n      tag_106\n      jump\t// in\n    tag_105:\n      mload(0x40)\n      dup1\n      swap2\n      sub\n      swap1\n      revert\n    tag_104:\n        /* \"Day-24/code1.sol\":1681:1690  msg.value */\n      callvalue\n        /* \"Day-24/code1.sol\":1672:1678  amount */\n      0x02\n        /* \"Day-24/code1.sol\":1672:1690  amount = msg.value */\n      dup2\n      swap1\n      sstore\n      pop\n        /* \"Day-24/code1.sol\":1716:1737  State.FUNDS_DEPOSITED */\n      0x01\n        /* \"Day-24/code1.sol\":1701:1713  currentState */\n      dup1\n      0x14\n        /* \"Day-24/code1.sol\":1701:1737  currentState = State.FUNDS_DEPOSITED */\n      0x0100\n      exp\n      dup2\n      sload\n      dup2\n      0xff\n      mul\n      not\n      and\n      swap1\n      dup4\n      0x04\n      dup2\n      gt\n      iszero\n      tag_107\n      jumpi\n      tag_108\n      tag_66\n      jump\t// in\n    tag_108:\n    tag_107:\n      mul\n      or\n      swap1\n      sstore\n      pop\n        /* \"Day-24/code1.sol\":1763:1773  msg.sender */\n      caller\n        /* \"Day-24/code1.sol\":1753:1785  Deposited(msg.sender, msg.value) */\n      0xffffffffffffffffffffffffffffffffffffffff\n      and\n      0x2da466a7b24304f47e87fa2e1e5a81b9831ce54fec19055ce277ca2f39ba42c4\n        /* \"Day-24/code1.sol\":1775:1784  msg.value */\n      callvalue\n        /* \"Day-24/code1.sol\":1753:1785  Deposited(msg.sender, msg.value) */\n      mload(0x40)\n      tag_109\n      swap2\n      swap1\n      tag_52\n      jump\t// in\n    tag_109:\n      mload(0x40)\n      dup1\n      swap2\n      sub\n      swap1\n      log2\n        /* \"Day-24/code1.sol\":878:879  _ */\n      pop\n        /* \"Day-24/code1.sol\":1509:1793  function deposit() external payable onlyBuyer inState(State.AWAITING_PAYMENT) {... */\n      jump\t// out\n        /* \"Day-24/code1.sol\":2083:2231  function requestRefund() external onlySeller inState(State.FUNDS_DEPOSITED) {... */\n    tag_57:\n        /* \"Day-24/code1.sol\":950:956  seller */\n      0x01\n      0x00\n      swap1\n      sload\n      swap1\n      0x0100\n      exp\n      swap1\n      div\n      0xffffffffffffffffffffffffffffffffffffffff\n      and\n        /* \"Day-24/code1.sol\":936:956  msg.sender == seller */\n      0xffffffffffffffffffffffffffffffffffffffff\n      and\n        /* \"Day-24/code1.sol\":936:946  msg.sender */\n      caller\n        /* \"Day-24/code1.sol\":936:956  msg.sender == seller */\n      0xffffffffffffffffffffffffffffffffffffffff\n      and\n      eq\n        /* \"Day-24/code1.sol\":928:986  require(msg.sender == seller, \"Only seller can call this\") */\n      tag_111\n      jumpi\n      mload(0x40)\n      0x08c379a000000000000000000000000000000000000000000000000000000000\n      dup2\n      mstore\n      0x04\n      add\n      tag_112\n      swap1\n      tag_113\n      jump\t// in\n    tag_112:\n      mload(0x40)\n      dup1\n      swap2\n      sub\n      swap1\n      revert\n    tag_111:\n        /* \"Day-24/code1.sol\":2136:2157  State.FUNDS_DEPOSITED */\n      0x01\n        /* \"Day-24/code1.sol\":1211:1217  _state */\n      dup1\n        /* \"Day-24/code1.sol\":1195:1217  currentState == _state */\n      0x04\n      dup2\n      gt\n      iszero\n      tag_115\n      jumpi\n      tag_116\n      tag_66\n      jump\t// in\n    tag_116:\n    tag_115:\n        /* \"Day-24/code1.sol\":1195:1207  currentState */\n      0x01\n      0x14\n      swap1\n      sload\n      swap1\n      0x0100\n      exp\n      swap1\n      div\n      0xff\n      and\n        /* \"Day-24/code1.sol\":1195:1217  currentState == _state */\n      0x04\n      dup2\n      gt\n      iszero\n      tag_117\n      jumpi\n      tag_118\n      tag_66\n      jump\t// in\n    tag_118:\n    tag_117:\n      eq\n        /* \"Day-24/code1.sol\":1187:1235  require(currentState == _state, \"Invalid state\") */\n      tag_119\n      jumpi\n      mload(0x40)\n      0x08c379a000000000000000000000000000000000000000000000000000000000\n      dup2\n      mstore\n      0x04\n      add\n      tag_120\n      swap1\n      tag_71\n      jump\t// in\n    tag_120:\n      mload(0x40)\n      dup1\n      swap2\n      sub\n      swap1\n      revert\n    tag_119:\n        /* \"Day-24/code1.sol\":2194:2198  true */\n      0x01\n        /* \"Day-24/code1.sol\":2170:2191  sellerRefundRequested */\n      0x03\n      0x01\n        /* \"Day-24/code1.sol\":2170:2198  sellerRefundRequested = true */\n      0x0100\n      exp\n      dup2\n      sload\n      dup2\n      0xff\n      mul\n      not\n      and\n      swap1\n      dup4\n      iszero\n      iszero\n      mul\n      or\n      swap1\n      sstore\n      pop\n        /* \"Day-24/code1.sol\":2209:2223  _refundBuyer() */\n      tag_122\n        /* \"Day-24/code1.sol\":2209:2221  _refundBuyer */\n      tag_123\n        /* \"Day-24/code1.sol\":2209:2223  _refundBuyer() */\n      jump\t// in\n    tag_122:\n        /* \"Day-24/code1.sol\":997:998  _ */\n      pop\n        /* \"Day-24/code1.sol\":2083:2231  function requestRefund() external onlySeller inState(State.FUNDS_DEPOSITED) {... */\n      jump\t// out\n        /* \"Day-24/code1.sol\":2556:2802  function resolveDispute(address beneficiary) external onlyArbitrator inState(State.DISPUTED) {... */\n    tag_62:\n        /* \"Day-24/code1.sol\":1073:1083  arbitrator */\n      immutable(\"0x52f1a9b320cab38e5da8a8f97989383aab0a49165fc91c737310e4f7e9821021\")\n        /* \"Day-24/code1.sol\":1059:1083  msg.sender == arbitrator */\n      0xffffffffffffffffffffffffffffffffffffffff\n      and\n        /* \"Day-24/code1.sol\":1059:1069  msg.sender */\n      caller\n        /* \"Day-24/code1.sol\":1059:1083  msg.sender == arbitrator */\n      0xffffffffffffffffffffffffffffffffffffffff\n      and\n      eq\n        /* \"Day-24/code1.sol\":1051:1117  require(msg.sender == arbitrator, \"Only arbitrator can call this\") */\n      tag_125\n      jumpi\n      mload(0x40)\n      0x08c379a000000000000000000000000000000000000000000000000000000000\n      dup2\n      mstore\n      0x04\n      add\n      tag_126\n      swap1\n      tag_127\n      jump\t// in\n    tag_126:\n      mload(0x40)\n      dup1\n      swap2\n      sub\n      swap1\n      revert\n    tag_125:\n        /* \"Day-24/code1.sol\":2633:2647  State.DISPUTED */\n      0x02\n        /* \"Day-24/code1.sol\":1211:1217  _state */\n      dup1\n        /* \"Day-24/code1.sol\":1195:1217  currentState == _state */\n      0x04\n      dup2\n      gt\n      iszero\n      tag_129\n      jumpi\n      tag_130\n      tag_66\n      jump\t// in\n    tag_130:\n    tag_129:\n        /* \"Day-24/code1.sol\":1195:1207  currentState */\n      0x01\n      0x14\n      swap1\n      sload\n      swap1\n      0x0100\n      exp\n      swap1\n      div\n      0xff\n      and\n        /* \"Day-24/code1.sol\":1195:1217  currentState == _state */\n      0x04\n      dup2\n      gt\n      iszero\n      tag_131\n      jumpi\n      tag_132\n      tag_66\n      jump\t// in\n    tag_132:\n    tag_131:\n      eq\n        /* \"Day-24/code1.sol\":1187:1235  require(currentState == _state, \"Invalid state\") */\n      tag_133\n      jumpi\n      mload(0x40)\n      0x08c379a000000000000000000000000000000000000000000000000000000000\n      dup2\n      mstore\n      0x04\n      add\n      tag_134\n      swap1\n      tag_71\n      jump\t// in\n    tag_134:\n      mload(0x40)\n      dup1\n      swap2\n      sub\n      swap1\n      revert\n    tag_133:\n        /* \"Day-24/code1.sol\":2675:2690  State.COMPLETED */\n      0x03\n        /* \"Day-24/code1.sol\":2660:2672  currentState */\n      0x01\n      0x14\n        /* \"Day-24/code1.sol\":2660:2690  currentState = State.COMPLETED */\n      0x0100\n      exp\n      dup2\n      sload\n      dup2\n      0xff\n      mul\n      not\n      and\n      swap1\n      dup4\n      0x04\n      dup2\n      gt\n      iszero\n      tag_136\n      jumpi\n      tag_137\n      tag_66\n      jump\t// in\n    tag_137:\n    tag_136:\n      mul\n      or\n      swap1\n      sstore\n      pop\n        /* \"Day-24/code1.sol\":2709:2720  beneficiary */\n      dup2\n        /* \"Day-24/code1.sol\":2701:2730  payable(beneficiary).transfer */\n      0xffffffffffffffffffffffffffffffffffffffff\n      and\n        /* \"Day-24/code1.sol\":2701:2738  payable(beneficiary).transfer(amount) */\n      0x08fc\n        /* \"Day-24/code1.sol\":2731:2737  amount */\n      sload(0x02)\n        /* \"Day-24/code1.sol\":2701:2738  payable(beneficiary).transfer(amount) */\n      swap1\n      dup2\n      iszero\n      mul\n      swap1\n      mload(0x40)\n      0x00\n      mload(0x40)\n      dup1\n      dup4\n      sub\n      dup2\n      dup6\n      dup9\n      dup9\n      call\n      swap4\n      pop\n      pop\n      pop\n      pop\n      iszero\n      dup1\n      iszero\n      tag_139\n      jumpi\n      returndatasize\n      0x00\n      dup1\n      returndatacopy\n      revert(0x00, returndatasize)\n    tag_139:\n      pop\n        /* \"Day-24/code1.sol\":2770:2780  msg.sender */\n      caller\n        /* \"Day-24/code1.sol\":2754:2794  DisputeResolved(msg.sender, beneficiary) */\n      0xffffffffffffffffffffffffffffffffffffffff\n      and\n      0xd2dc052bee2b52c6f56a2b5bc488360183af7ee2f1b7e600a0e3c0e9337dd4e8\n        /* \"Day-24/code1.sol\":2782:2793  beneficiary */\n      dup4\n        /* \"Day-24/code1.sol\":2754:2794  DisputeResolved(msg.sender, beneficiary) */\n      mload(0x40)\n      tag_140\n      swap2\n      swap1\n      tag_19\n      jump\t// in\n    tag_140:\n      mload(0x40)\n      dup1\n      swap2\n      sub\n      swap1\n      log2\n        /* \"Day-24/code1.sol\":1128:1129  _ */\n      pop\n        /* \"Day-24/code1.sol\":2556:2802  function resolveDispute(address beneficiary) external onlyArbitrator inState(State.DISPUTED) {... */\n      pop\n      jump\t// out\n        /* \"Day-24/code1.sol\":2864:3124  function _completeTransaction(address payable _to) internal {... */\n    tag_92:\n        /* \"Day-24/code1.sol\":2959:2980  State.FUNDS_DEPOSITED */\n      0x01\n        /* \"Day-24/code1.sol\":2943:2980  currentState == State.FUNDS_DEPOSITED */\n      0x04\n      dup2\n      gt\n      iszero\n      tag_142\n      jumpi\n      tag_143\n      tag_66\n      jump\t// in\n    tag_143:\n    tag_142:\n        /* \"Day-24/code1.sol\":2943:2955  currentState */\n      0x01\n      0x14\n      swap1\n      sload\n      swap1\n      0x0100\n      exp\n      swap1\n      div\n      0xff\n      and\n        /* \"Day-24/code1.sol\":2943:2980  currentState == State.FUNDS_DEPOSITED */\n      0x04\n      dup2\n      gt\n      iszero\n      tag_144\n      jumpi\n      tag_145\n      tag_66\n      jump\t// in\n    tag_145:\n    tag_144:\n      eq\n        /* \"Day-24/code1.sol\":2935:2998  require(currentState == State.FUNDS_DEPOSITED, \"Invalid state\") */\n      tag_146\n      jumpi\n      mload(0x40)\n      0x08c379a000000000000000000000000000000000000000000000000000000000\n      dup2\n      mstore\n      0x04\n      add\n      tag_147\n      swap1\n      tag_71\n      jump\t// in\n    tag_147:\n      mload(0x40)\n      dup1\n      swap2\n      sub\n      swap1\n      revert\n    tag_146:\n        /* \"Day-24/code1.sol\":3024:3039  State.COMPLETED */\n      0x03\n        /* \"Day-24/code1.sol\":3009:3021  currentState */\n      0x01\n      0x14\n        /* \"Day-24/code1.sol\":3009:3039  currentState = State.COMPLETED */\n      0x0100\n      exp\n      dup2\n      sload\n      dup2\n      0xff\n      mul\n      not\n      and\n      swap1\n      dup4\n      0x04\n      dup2\n      gt\n      iszero\n      tag_148\n      jumpi\n      tag_149\n      tag_66\n      jump\t// in\n    tag_149:\n    tag_148:\n      mul\n      or\n      swap1\n      sstore\n      pop\n        /* \"Day-24/code1.sol\":3058:3061  _to */\n      dup1\n        /* \"Day-24/code1.sol\":3050:3071  payable(_to).transfer */\n      0xffffffffffffffffffffffffffffffffffffffff\n      and\n        /* \"Day-24/code1.sol\":3050:3079  payable(_to).transfer(amount) */\n      0x08fc\n        /* \"Day-24/code1.sol\":3072:3078  amount */\n      sload(0x02)\n        /* \"Day-24/code1.sol\":3050:3079  payable(_to).transfer(amount) */\n      swap1\n      dup2\n      iszero\n      mul\n      swap1\n      mload(0x40)\n      0x00\n      mload(0x40)\n      dup1\n      dup4\n      sub\n      dup2\n      dup6\n      dup9\n      dup9\n      call\n      swap4\n      pop\n      pop\n      pop\n      pop\n      iszero\n      dup1\n      iszero\n      tag_151\n      jumpi\n      returndatasize\n      0x00\n      dup1\n      returndatacopy\n      revert(0x00, returndatasize)\n    tag_151:\n      pop\n        /* \"Day-24/code1.sol\":3104:3107  _to */\n      dup1\n        /* \"Day-24/code1.sol\":3095:3116  Released(_to, amount) */\n      0xffffffffffffffffffffffffffffffffffffffff\n      and\n      0xb21fb52d5749b80f3182f8c6992236b5e5576681880914484d7f4c9b062e619e\n        /* \"Day-24/code1.sol\":3109:3115  amount */\n      sload(0x02)\n        /* \"Day-24/code1.sol\":3095:3116  Released(_to, amount) */\n      mload(0x40)\n      tag_152\n      swap2\n      swap1\n      tag_52\n      jump\t// in\n    tag_152:\n      mload(0x40)\n      dup1\n      swap2\n      sub\n      swap1\n      log2\n        /* \"Day-24/code1.sol\":2864:3124  function _completeTransaction(address payable _to) internal {... */\n      pop\n      jump\t// out\n        /* \"Day-24/code1.sol\":3178:3414  function _refundBuyer() internal {... */\n    tag_123:\n        /* \"Day-24/code1.sol\":3246:3267  State.FUNDS_DEPOSITED */\n      0x01\n        /* \"Day-24/code1.sol\":3230:3267  currentState == State.FUNDS_DEPOSITED */\n      0x04\n      dup2\n      gt\n      iszero\n      tag_154\n      jumpi\n      tag_155\n      tag_66\n      jump\t// in\n    tag_155:\n    tag_154:\n        /* \"Day-24/code1.sol\":3230:3242  currentState */\n      0x01\n      0x14\n      swap1\n      sload\n      swap1\n      0x0100\n      exp\n      swap1\n      div\n      0xff\n      and\n        /* \"Day-24/code1.sol\":3230:3267  currentState == State.FUNDS_DEPOSITED */\n      0x04\n      dup2\n      gt\n      iszero\n      tag_156\n      jumpi\n      tag_157\n      tag_66\n      jump\t// in\n    tag_157:\n    tag_156:\n      eq\n        /* \"Day-24/code1.sol\":3222:3285  require(currentState == State.FUNDS_DEPOSITED, \"Invalid state\") */\n      tag_158\n      jumpi\n      mload(0x40)\n      0x08c379a000000000000000000000000000000000000000000000000000000000\n      dup2\n      mstore\n      0x04\n      add\n      tag_159\n      swap1\n      tag_71\n      jump\t// in\n    tag_159:\n      mload(0x40)\n      dup1\n      swap2\n      sub\n      swap1\n      revert\n    tag_158:\n        /* \"Day-24/code1.sol\":3311:3325  State.REFUNDED */\n      0x04\n        /* \"Day-24/code1.sol\":3296:3308  currentState */\n      0x01\n      0x14\n        /* \"Day-24/code1.sol\":3296:3325  currentState = State.REFUNDED */\n      0x0100\n      exp\n      dup2\n      sload\n      dup2\n      0xff\n      mul\n      not\n      and\n      swap1\n      dup4\n      0x04\n      dup2\n      gt\n      iszero\n      tag_160\n      jumpi\n      tag_161\n      tag_66\n      jump\t// in\n    tag_161:\n    tag_160:\n      mul\n      or\n      swap1\n      sstore\n      pop\n        /* \"Day-24/code1.sol\":3344:3349  buyer */\n      0x00\n      dup1\n      sload\n      swap1\n      0x0100\n      exp\n      swap1\n      div\n      0xffffffffffffffffffffffffffffffffffffffff\n      and\n        /* \"Day-24/code1.sol\":3336:3359  payable(buyer).transfer */\n      0xffffffffffffffffffffffffffffffffffffffff\n      and\n        /* \"Day-24/code1.sol\":3336:3367  payable(buyer).transfer(amount) */\n      0x08fc\n        /* \"Day-24/code1.sol\":3360:3366  amount */\n      sload(0x02)\n        /* \"Day-24/code1.sol\":3336:3367  payable(buyer).transfer(amount) */\n      swap1\n      dup2\n      iszero\n      mul\n      swap1\n      mload(0x40)\n      0x00\n      mload(0x40)\n      dup1\n      dup4\n      sub\n      dup2\n      dup6\n      dup9\n      dup9\n      call\n      swap4\n      pop\n      pop\n      pop\n      pop\n      iszero\n      dup1\n      iszero\n      tag_163\n      jumpi\n      returndatasize\n      0x00\n      dup1\n      returndatacopy\n      revert(0x00, returndatasize)\n    tag_163:\n      pop\n        /* \"Day-24/code1.sol\":3392:3397  buyer */\n      0x00\n      dup1\n      sload\n      swap1\n      0x0100\n      exp\n      swap1\n      div\n      0xffffffffffffffffffffffffffffffffffffffff\n      and\n        /* \"Day-24/code1.sol\":3383:3406  Refunded(buyer, amount) */\n      0xffffffffffffffffffffffffffffffffffffffff\n      and\n      0xd7dee2702d63ad89917b6a4da9981c90c4d24f8c2bdfd64c604ecae57d8d0651\n        /* \"Day-24/code1.sol\":3399:3405  amount */\n      sload(0x02)\n        /* \"Day-24/code1.sol\":3383:3406  Refunded(buyer, amount) */\n      mload(0x40)\n      tag_164\n      swap2\n      swap1\n      tag_52\n      jump\t// in\n    tag_164:\n      mload(0x40)\n      dup1\n      swap2\n      sub\n      swap1\n      log2\n        /* \"Day-24/code1.sol\":3178:3414  function _refundBuyer() internal {... */\n      jump\t// out\n        /* \"#utility.yul\":7:133   */\n    tag_165:\n        /* \"#utility.yul\":44:51   */\n      0x00\n        /* \"#utility.yul\":84:126   */\n      0xffffffffffffffffffffffffffffffffffffffff\n        /* \"#utility.yul\":77:82   */\n      dup3\n        /* \"#utility.yul\":73:127   */\n      and\n        /* \"#utility.yul\":62:127   */\n      swap1\n      pop\n        /* \"#utility.yul\":7:133   */\n      swap2\n      swap1\n      pop\n      jump\t// out\n        /* \"#utility.yul\":139:235   */\n    tag_166:\n        /* \"#utility.yul\":176:183   */\n      0x00\n        /* \"#utility.yul\":205:229   */\n      tag_197\n        /* \"#utility.yul\":223:228   */\n      dup3\n        /* \"#utility.yul\":205:229   */\n      tag_165\n      jump\t// in\n    tag_197:\n        /* \"#utility.yul\":194:229   */\n      swap1\n      pop\n        /* \"#utility.yul\":139:235   */\n      swap2\n      swap1\n      pop\n      jump\t// out\n        /* \"#utility.yul\":241:359   */\n    tag_167:\n        /* \"#utility.yul\":328:352   */\n      tag_199\n        /* \"#utility.yul\":346:351   */\n      dup2\n        /* \"#utility.yul\":328:352   */\n      tag_166\n      jump\t// in\n    tag_199:\n        /* \"#utility.yul\":323:326   */\n      dup3\n        /* \"#utility.yul\":316:353   */\n      mstore\n        /* \"#utility.yul\":241:359   */\n      pop\n      pop\n      jump\t// out\n        /* \"#utility.yul\":365:587   */\n    tag_19:\n        /* \"#utility.yul\":458:462   */\n      0x00\n        /* \"#utility.yul\":496:498   */\n      0x20\n        /* \"#utility.yul\":485:494   */\n      dup3\n        /* \"#utility.yul\":481:499   */\n      add\n        /* \"#utility.yul\":473:499   */\n      swap1\n      pop\n        /* \"#utility.yul\":509:580   */\n      tag_201\n        /* \"#utility.yul\":577:578   */\n      0x00\n        /* \"#utility.yul\":566:575   */\n      dup4\n        /* \"#utility.yul\":562:579   */\n      add\n        /* \"#utility.yul\":553:559   */\n      dup5\n        /* \"#utility.yul\":509:580   */\n      tag_167\n      jump\t// in\n    tag_201:\n        /* \"#utility.yul\":365:587   */\n      swap3\n      swap2\n      pop\n      pop\n      jump\t// out\n        /* \"#utility.yul\":593:683   */\n    tag_168:\n        /* \"#utility.yul\":627:634   */\n      0x00\n        /* \"#utility.yul\":670:675   */\n      dup2\n        /* \"#utility.yul\":663:676   */\n      iszero\n        /* \"#utility.yul\":656:677   */\n      iszero\n        /* \"#utility.yul\":645:677   */\n      swap1\n      pop\n        /* \"#utility.yul\":593:683   */\n      swap2\n      swap1\n      pop\n      jump\t// out\n        /* \"#utility.yul\":689:798   */\n    tag_169:\n        /* \"#utility.yul\":770:791   */\n      tag_204\n        /* \"#utility.yul\":785:790   */\n      dup2\n        /* \"#utility.yul\":770:791   */\n      tag_168\n      jump\t// in\n    tag_204:\n        /* \"#utility.yul\":765:768   */\n      dup3\n        /* \"#utility.yul\":758:792   */\n      mstore\n        /* \"#utility.yul\":689:798   */\n      pop\n      pop\n      jump\t// out\n        /* \"#utility.yul\":804:1014   */\n    tag_24:\n        /* \"#utility.yul\":891:895   */\n      0x00\n        /* \"#utility.yul\":929:931   */\n      0x20\n        /* \"#utility.yul\":918:927   */\n      dup3\n        /* \"#utility.yul\":914:932   */\n      add\n        /* \"#utility.yul\":906:932   */\n      swap1\n      pop\n        /* \"#utility.yul\":942:1007   */\n      tag_206\n        /* \"#utility.yul\":1004:1005   */\n      0x00\n        /* \"#utility.yul\":993:1002   */\n      dup4\n        /* \"#utility.yul\":989:1006   */\n      add\n        /* \"#utility.yul\":980:986   */\n      dup5\n        /* \"#utility.yul\":942:1007   */\n      tag_169\n      jump\t// in\n    tag_206:\n        /* \"#utility.yul\":804:1014   */\n      swap3\n      swap2\n      pop\n      pop\n      jump\t// out\n        /* \"#utility.yul\":1020:1200   */\n    tag_66:\n        /* \"#utility.yul\":1068:1145   */\n      0x4e487b7100000000000000000000000000000000000000000000000000000000\n        /* \"#utility.yul\":1065:1066   */\n      0x00\n        /* \"#utility.yul\":1058:1146   */\n      mstore\n        /* \"#utility.yul\":1165:1169   */\n      0x21\n        /* \"#utility.yul\":1162:1163   */\n      0x04\n        /* \"#utility.yul\":1155:1170   */\n      mstore\n        /* \"#utility.yul\":1189:1193   */\n      0x24\n        /* \"#utility.yul\":1186:1187   */\n      0x00\n        /* \"#utility.yul\":1179:1194   */\n      revert\n        /* \"#utility.yul\":1206:1319   */\n    tag_170:\n        /* \"#utility.yul\":1287:1288   */\n      0x05\n        /* \"#utility.yul\":1280:1285   */\n      dup2\n        /* \"#utility.yul\":1277:1289   */\n      lt\n        /* \"#utility.yul\":1267:1313   */\n      tag_209\n      jumpi\n        /* \"#utility.yul\":1293:1311   */\n      tag_210\n      tag_66\n      jump\t// in\n    tag_210:\n        /* \"#utility.yul\":1267:1313   */\n    tag_209:\n        /* \"#utility.yul\":1206:1319   */\n      pop\n      jump\t// out\n        /* \"#utility.yul\":1325:1452   */\n    tag_171:\n        /* \"#utility.yul\":1370:1377   */\n      0x00\n        /* \"#utility.yul\":1399:1404   */\n      dup2\n        /* \"#utility.yul\":1388:1404   */\n      swap1\n      pop\n        /* \"#utility.yul\":1405:1446   */\n      tag_212\n        /* \"#utility.yul\":1440:1445   */\n      dup3\n        /* \"#utility.yul\":1405:1446   */\n      tag_170\n      jump\t// in\n    tag_212:\n        /* \"#utility.yul\":1325:1452   */\n      swap2\n      swap1\n      pop\n      jump\t// out\n        /* \"#utility.yul\":1458:1585   */\n    tag_172:\n        /* \"#utility.yul\":1514:1523   */\n      0x00\n        /* \"#utility.yul\":1547:1579   */\n      tag_214\n        /* \"#utility.yul\":1573:1578   */\n      dup3\n        /* \"#utility.yul\":1547:1579   */\n      tag_171\n      jump\t// in\n    tag_214:\n        /* \"#utility.yul\":1534:1579   */\n      swap1\n      pop\n        /* \"#utility.yul\":1458:1585   */\n      swap2\n      swap1\n      pop\n      jump\t// out\n        /* \"#utility.yul\":1591:1734   */\n    tag_173:\n        /* \"#utility.yul\":1684:1727   */\n      tag_216\n        /* \"#utility.yul\":1721:1726   */\n      dup2\n        /* \"#utility.yul\":1684:1727   */\n      tag_172\n      jump\t// in\n    tag_216:\n        /* \"#utility.yul\":1679:1682   */\n      dup3\n        /* \"#utility.yul\":1672:1728   */\n      mstore\n        /* \"#utility.yul\":1591:1734   */\n      pop\n      pop\n      jump\t// out\n        /* \"#utility.yul\":1740:1974   */\n    tag_29:\n        /* \"#utility.yul\":1839:1843   */\n      0x00\n        /* \"#utility.yul\":1877:1879   */\n      0x20\n        /* \"#utility.yul\":1866:1875   */\n      dup3\n        /* \"#utility.yul\":1862:1880   */\n      add\n        /* \"#utility.yul\":1854:1880   */\n      swap1\n      pop\n        /* \"#utility.yul\":1890:1967   */\n      tag_218\n        /* \"#utility.yul\":1964:1965   */\n      0x00\n        /* \"#utility.yul\":1953:1962   */\n      dup4\n        /* \"#utility.yul\":1949:1966   */\n      add\n        /* \"#utility.yul\":1940:1946   */\n      dup5\n        /* \"#utility.yul\":1890:1967   */\n      tag_173\n      jump\t// in\n    tag_218:\n        /* \"#utility.yul\":1740:1974   */\n      swap3\n      swap2\n      pop\n      pop\n      jump\t// out\n        /* \"#utility.yul\":1980:2057   */\n    tag_174:\n        /* \"#utility.yul\":2017:2024   */\n      0x00\n        /* \"#utility.yul\":2046:2051   */\n      dup2\n        /* \"#utility.yul\":2035:2051   */\n      swap1\n      pop\n        /* \"#utility.yul\":1980:2057   */\n      swap2\n      swap1\n      pop\n      jump\t// out\n        /* \"#utility.yul\":2063:2181   */\n    tag_175:\n        /* \"#utility.yul\":2150:2174   */\n      tag_221\n        /* \"#utility.yul\":2168:2173   */\n      dup2\n        /* \"#utility.yul\":2150:2174   */\n      tag_174\n      jump\t// in\n    tag_221:\n        /* \"#utility.yul\":2145:2148   */\n      dup3\n        /* \"#utility.yul\":2138:2175   */\n      mstore\n        /* \"#utility.yul\":2063:2181   */\n      pop\n      pop\n      jump\t// out\n        /* \"#utility.yul\":2187:2409   */\n    tag_52:\n        /* \"#utility.yul\":2280:2284   */\n      0x00\n        /* \"#utility.yul\":2318:2320   */\n      0x20\n        /* \"#utility.yul\":2307:2316   */\n      dup3\n        /* \"#utility.yul\":2303:2321   */\n      add\n        /* \"#utility.yul\":2295:2321   */\n      swap1\n      pop\n        /* \"#utility.yul\":2331:2402   */\n      tag_223\n        /* \"#utility.yul\":2399:2400   */\n      0x00\n        /* \"#utility.yul\":2388:2397   */\n      dup4\n        /* \"#utility.yul\":2384:2401   */\n      add\n        /* \"#utility.yul\":2375:2381   */\n      dup5\n        /* \"#utility.yul\":2331:2402   */\n      tag_175\n      jump\t// in\n    tag_223:\n        /* \"#utility.yul\":2187:2409   */\n      swap3\n      swap2\n      pop\n      pop\n      jump\t// out\n        /* \"#utility.yul\":2496:2613   */\n    tag_177:\n        /* \"#utility.yul\":2605:2606   */\n      0x00\n        /* \"#utility.yul\":2602:2603   */\n      dup1\n        /* \"#utility.yul\":2595:2607   */\n      revert\n        /* \"#utility.yul\":2742:2864   */\n    tag_179:\n        /* \"#utility.yul\":2815:2839   */\n      tag_228\n        /* \"#utility.yul\":2833:2838   */\n      dup2\n        /* \"#utility.yul\":2815:2839   */\n      tag_166\n      jump\t// in\n    tag_228:\n        /* \"#utility.yul\":2808:2813   */\n      dup2\n        /* \"#utility.yul\":2805:2840   */\n      eq\n        /* \"#utility.yul\":2795:2858   */\n      tag_229\n      jumpi\n        /* \"#utility.yul\":2854:2855   */\n      0x00\n        /* \"#utility.yul\":2851:2852   */\n      dup1\n        /* \"#utility.yul\":2844:2856   */\n      revert\n        /* \"#utility.yul\":2795:2858   */\n    tag_229:\n        /* \"#utility.yul\":2742:2864   */\n      pop\n      jump\t// out\n        /* \"#utility.yul\":2870:3009   */\n    tag_180:\n        /* \"#utility.yul\":2916:2921   */\n      0x00\n        /* \"#utility.yul\":2954:2960   */\n      dup2\n        /* \"#utility.yul\":2941:2961   */\n      calldataload\n        /* \"#utility.yul\":2932:2961   */\n      swap1\n      pop\n        /* \"#utility.yul\":2970:3003   */\n      tag_231\n        /* \"#utility.yul\":2997:3002   */\n      dup2\n        /* \"#utility.yul\":2970:3003   */\n      tag_179\n      jump\t// in\n    tag_231:\n        /* \"#utility.yul\":2870:3009   */\n      swap3\n      swap2\n      pop\n      pop\n      jump\t// out\n        /* \"#utility.yul\":3015:3344   */\n    tag_61:\n        /* \"#utility.yul\":3074:3080   */\n      0x00\n        /* \"#utility.yul\":3123:3125   */\n      0x20\n        /* \"#utility.yul\":3111:3120   */\n      dup3\n        /* \"#utility.yul\":3102:3109   */\n      dup5\n        /* \"#utility.yul\":3098:3121   */\n      sub\n        /* \"#utility.yul\":3094:3126   */\n      slt\n        /* \"#utility.yul\":3091:3210   */\n      iszero\n      tag_233\n      jumpi\n        /* \"#utility.yul\":3129:3208   */\n      tag_234\n      tag_177\n      jump\t// in\n    tag_234:\n        /* \"#utility.yul\":3091:3210   */\n    tag_233:\n        /* \"#utility.yul\":3249:3250   */\n      0x00\n        /* \"#utility.yul\":3274:3327   */\n      tag_235\n        /* \"#utility.yul\":3319:3326   */\n      dup5\n        /* \"#utility.yul\":3310:3316   */\n      dup3\n        /* \"#utility.yul\":3299:3308   */\n      dup6\n        /* \"#utility.yul\":3295:3317   */\n      add\n        /* \"#utility.yul\":3274:3327   */\n      tag_180\n      jump\t// in\n    tag_235:\n        /* \"#utility.yul\":3264:3327   */\n      swap2\n      pop\n        /* \"#utility.yul\":3220:3337   */\n      pop\n        /* \"#utility.yul\":3015:3344   */\n      swap3\n      swap2\n      pop\n      pop\n      jump\t// out\n        /* \"#utility.yul\":3350:3519   */\n    tag_181:\n        /* \"#utility.yul\":3434:3445   */\n      0x00\n        /* \"#utility.yul\":3468:3474   */\n      dup3\n        /* \"#utility.yul\":3463:3466   */\n      dup3\n        /* \"#utility.yul\":3456:3475   */\n      mstore\n        /* \"#utility.yul\":3508:3512   */\n      0x20\n        /* \"#utility.yul\":3503:3506   */\n      dup3\n        /* \"#utility.yul\":3499:3513   */\n      add\n        /* \"#utility.yul\":3484:3513   */\n      swap1\n      pop\n        /* \"#utility.yul\":3350:3519   */\n      swap3\n      swap2\n      pop\n      pop\n      jump\t// out\n        /* \"#utility.yul\":3525:3688   */\n    tag_182:\n        /* \"#utility.yul\":3665:3680   */\n      0x496e76616c696420737461746500000000000000000000000000000000000000\n        /* \"#utility.yul\":3661:3662   */\n      0x00\n        /* \"#utility.yul\":3653:3659   */\n      dup3\n        /* \"#utility.yul\":3649:3663   */\n      add\n        /* \"#utility.yul\":3642:3681   */\n      mstore\n        /* \"#utility.yul\":3525:3688   */\n      pop\n      jump\t// out\n        /* \"#utility.yul\":3694:4060   */\n    tag_183:\n        /* \"#utility.yul\":3836:3839   */\n      0x00\n        /* \"#utility.yul\":3857:3924   */\n      tag_239\n        /* \"#utility.yul\":3921:3923   */\n      0x0d\n        /* \"#utility.yul\":3916:3919   */\n      dup4\n        /* \"#utility.yul\":3857:3924   */\n      tag_181\n      jump\t// in\n    tag_239:\n        /* \"#utility.yul\":3850:3924   */\n      swap2\n      pop\n        /* \"#utility.yul\":3933:4026   */\n      tag_240\n        /* \"#utility.yul\":4022:4025   */\n      dup3\n        /* \"#utility.yul\":3933:4026   */\n      tag_182\n      jump\t// in\n    tag_240:\n        /* \"#utility.yul\":4051:4053   */\n      0x20\n        /* \"#utility.yul\":4046:4049   */\n      dup3\n        /* \"#utility.yul\":4042:4054   */\n      add\n        /* \"#utility.yul\":4035:4054   */\n      swap1\n      pop\n        /* \"#utility.yul\":3694:4060   */\n      swap2\n      swap1\n      pop\n      jump\t// out\n        /* \"#utility.yul\":4066:4485   */\n    tag_71:\n        /* \"#utility.yul\":4232:4236   */\n      0x00\n        /* \"#utility.yul\":4270:4272   */\n      0x20\n        /* \"#utility.yul\":4259:4268   */\n      dup3\n        /* \"#utility.yul\":4255:4273   */\n      add\n        /* \"#utility.yul\":4247:4273   */\n      swap1\n      pop\n        /* \"#utility.yul\":4319:4328   */\n      dup2\n        /* \"#utility.yul\":4313:4317   */\n      dup2\n        /* \"#utility.yul\":4309:4329   */\n      sub\n        /* \"#utility.yul\":4305:4306   */\n      0x00\n        /* \"#utility.yul\":4294:4303   */\n      dup4\n        /* \"#utility.yul\":4290:4307   */\n      add\n        /* \"#utility.yul\":4283:4330   */\n      mstore\n        /* \"#utility.yul\":4347:4478   */\n      tag_242\n        /* \"#utility.yul\":4473:4477   */\n      dup2\n        /* \"#utility.yul\":4347:4478   */\n      tag_183\n      jump\t// in\n    tag_242:\n        /* \"#utility.yul\":4339:4478   */\n      swap1\n      pop\n        /* \"#utility.yul\":4066:4485   */\n      swap2\n      swap1\n      pop\n      jump\t// out\n        /* \"#utility.yul\":4491:4653   */\n    tag_184:\n        /* \"#utility.yul\":4631:4645   */\n      0x556e617574686f72697a65640000000000000000000000000000000000000000\n        /* \"#utility.yul\":4627:4628   */\n      0x00\n        /* \"#utility.yul\":4619:4625   */\n      dup3\n        /* \"#utility.yul\":4615:4629   */\n      add\n        /* \"#utility.yul\":4608:4646   */\n      mstore\n        /* \"#utility.yul\":4491:4653   */\n      pop\n      jump\t// out\n        /* \"#utility.yul\":4659:5025   */\n    tag_185:\n        /* \"#utility.yul\":4801:4804   */\n      0x00\n        /* \"#utility.yul\":4822:4889   */\n      tag_245\n        /* \"#utility.yul\":4886:4888   */\n      0x0c\n        /* \"#utility.yul\":4881:4884   */\n      dup4\n        /* \"#utility.yul\":4822:4889   */\n      tag_181\n      jump\t// in\n    tag_245:\n        /* \"#utility.yul\":4815:4889   */\n      swap2\n      pop\n        /* \"#utility.yul\":4898:4991   */\n      tag_246\n        /* \"#utility.yul\":4987:4990   */\n      dup3\n        /* \"#utility.yul\":4898:4991   */\n      tag_184\n      jump\t// in\n    tag_246:\n        /* \"#utility.yul\":5016:5018   */\n      0x20\n        /* \"#utility.yul\":5011:5014   */\n      dup3\n        /* \"#utility.yul\":5007:5019   */\n      add\n        /* \"#utility.yul\":5000:5019   */\n      swap1\n      pop\n        /* \"#utility.yul\":4659:5025   */\n      swap2\n      swap1\n      pop\n      jump\t// out\n        /* \"#utility.yul\":5031:5450   */\n    tag_76:\n        /* \"#utility.yul\":5197:5201   */\n      0x00\n        /* \"#utility.yul\":5235:5237   */\n      0x20\n        /* \"#utility.yul\":5224:5233   */\n      dup3\n        /* \"#utility.yul\":5220:5238   */\n      add\n        /* \"#utility.yul\":5212:5238   */\n      swap1\n      pop\n        /* \"#utility.yul\":5284:5293   */\n      dup2\n        /* \"#utility.yul\":5278:5282   */\n      dup2\n        /* \"#utility.yul\":5274:5294   */\n      sub\n        /* \"#utility.yul\":5270:5271   */\n      0x00\n        /* \"#utility.yul\":5259:5268   */\n      dup4\n        /* \"#utility.yul\":5255:5272   */\n      add\n        /* \"#utility.yul\":5248:5295   */\n      mstore\n        /* \"#utility.yul\":5312:5443   */\n      tag_248\n        /* \"#utility.yul\":5438:5442   */\n      dup2\n        /* \"#utility.yul\":5312:5443   */\n      tag_185\n      jump\t// in\n    tag_248:\n        /* \"#utility.yul\":5304:5443   */\n      swap1\n      pop\n        /* \"#utility.yul\":5031:5450   */\n      swap2\n      swap1\n      pop\n      jump\t// out\n        /* \"#utility.yul\":5456:5630   */\n    tag_186:\n        /* \"#utility.yul\":5596:5622   */\n      0x4f6e6c792062757965722063616e2063616c6c20746869730000000000000000\n        /* \"#utility.yul\":5592:5593   */\n      0x00\n        /* \"#utility.yul\":5584:5590   */\n      dup3\n        /* \"#utility.yul\":5580:5594   */\n      add\n        /* \"#utility.yul\":5573:5623   */\n      mstore\n        /* \"#utility.yul\":5456:5630   */\n      pop\n      jump\t// out\n        /* \"#utility.yul\":5636:6002   */\n    tag_187:\n        /* \"#utility.yul\":5778:5781   */\n      0x00\n        /* \"#utility.yul\":5799:5866   */\n      tag_251\n        /* \"#utility.yul\":5863:5865   */\n      0x18\n        /* \"#utility.yul\":5858:5861   */\n      dup4\n        /* \"#utility.yul\":5799:5866   */\n      tag_181\n      jump\t// in\n    tag_251:\n        /* \"#utility.yul\":5792:5866   */\n      swap2\n      pop\n        /* \"#utility.yul\":5875:5968   */\n      tag_252\n        /* \"#utility.yul\":5964:5967   */\n      dup3\n        /* \"#utility.yul\":5875:5968   */\n      tag_186\n      jump\t// in\n    tag_252:\n        /* \"#utility.yul\":5993:5995   */\n      0x20\n        /* \"#utility.yul\":5988:5991   */\n      dup3\n        /* \"#utility.yul\":5984:5996   */\n      add\n        /* \"#utility.yul\":5977:5996   */\n      swap1\n      pop\n        /* \"#utility.yul\":5636:6002   */\n      swap2\n      swap1\n      pop\n      jump\t// out\n        /* \"#utility.yul\":6008:6427   */\n    tag_82:\n        /* \"#utility.yul\":6174:6178   */\n      0x00\n        /* \"#utility.yul\":6212:6214   */\n      0x20\n        /* \"#utility.yul\":6201:6210   */\n      dup3\n        /* \"#utility.yul\":6197:6215   */\n      add\n        /* \"#utility.yul\":6189:6215   */\n      swap1\n      pop\n        /* \"#utility.yul\":6261:6270   */\n      dup2\n        /* \"#utility.yul\":6255:6259   */\n      dup2\n        /* \"#utility.yul\":6251:6271   */\n      sub\n        /* \"#utility.yul\":6247:6248   */\n      0x00\n        /* \"#utility.yul\":6236:6245   */\n      dup4\n        /* \"#utility.yul\":6232:6249   */\n      add\n        /* \"#utility.yul\":6225:6272   */\n      mstore\n        /* \"#utility.yul\":6289:6420   */\n      tag_254\n        /* \"#utility.yul\":6415:6419   */\n      dup2\n        /* \"#utility.yul\":6289:6420   */\n      tag_187\n      jump\t// in\n    tag_254:\n        /* \"#utility.yul\":6281:6420   */\n      swap1\n      pop\n        /* \"#utility.yul\":6008:6427   */\n      swap2\n      swap1\n      pop\n      jump\t// out\n        /* \"#utility.yul\":6433:6657   */\n    tag_188:\n        /* \"#utility.yul\":6573:6607   */\n      0x4465706f73697420616d6f756e74206d75737420626520677265617465722074\n        /* \"#utility.yul\":6569:6570   */\n      0x00\n        /* \"#utility.yul\":6561:6567   */\n      dup3\n        /* \"#utility.yul\":6557:6571   */\n      add\n        /* \"#utility.yul\":6550:6608   */\n      mstore\n        /* \"#utility.yul\":6642:6649   */\n      0x68616e2030000000000000000000000000000000000000000000000000000000\n        /* \"#utility.yul\":6637:6639   */\n      0x20\n        /* \"#utility.yul\":6629:6635   */\n      dup3\n        /* \"#utility.yul\":6625:6640   */\n      add\n        /* \"#utility.yul\":6618:6650   */\n      mstore\n        /* \"#utility.yul\":6433:6657   */\n      pop\n      jump\t// out\n        /* \"#utility.yul\":6663:7029   */\n    tag_189:\n        /* \"#utility.yul\":6805:6808   */\n      0x00\n        /* \"#utility.yul\":6826:6893   */\n      tag_257\n        /* \"#utility.yul\":6890:6892   */\n      0x25\n        /* \"#utility.yul\":6885:6888   */\n      dup4\n        /* \"#utility.yul\":6826:6893   */\n      tag_181\n      jump\t// in\n    tag_257:\n        /* \"#utility.yul\":6819:6893   */\n      swap2\n      pop\n        /* \"#utility.yul\":6902:6995   */\n      tag_258\n        /* \"#utility.yul\":6991:6994   */\n      dup3\n        /* \"#utility.yul\":6902:6995   */\n      tag_188\n      jump\t// in\n    tag_258:\n        /* \"#utility.yul\":7020:7022   */\n      0x40\n        /* \"#utility.yul\":7015:7018   */\n      dup3\n        /* \"#utility.yul\":7011:7023   */\n      add\n        /* \"#utility.yul\":7004:7023   */\n      swap1\n      pop\n        /* \"#utility.yul\":6663:7029   */\n      swap2\n      swap1\n      pop\n      jump\t// out\n        /* \"#utility.yul\":7035:7454   */\n    tag_106:\n        /* \"#utility.yul\":7201:7205   */\n      0x00\n        /* \"#utility.yul\":7239:7241   */\n      0x20\n        /* \"#utility.yul\":7228:7237   */\n      dup3\n        /* \"#utility.yul\":7224:7242   */\n      add\n        /* \"#utility.yul\":7216:7242   */\n      swap1\n      pop\n        /* \"#utility.yul\":7288:7297   */\n      dup2\n        /* \"#utility.yul\":7282:7286   */\n      dup2\n        /* \"#utility.yul\":7278:7298   */\n      sub\n        /* \"#utility.yul\":7274:7275   */\n      0x00\n        /* \"#utility.yul\":7263:7272   */\n      dup4\n        /* \"#utility.yul\":7259:7276   */\n      add\n        /* \"#utility.yul\":7252:7299   */\n      mstore\n        /* \"#utility.yul\":7316:7447   */\n      tag_260\n        /* \"#utility.yul\":7442:7446   */\n      dup2\n        /* \"#utility.yul\":7316:7447   */\n      tag_189\n      jump\t// in\n    tag_260:\n        /* \"#utility.yul\":7308:7447   */\n      swap1\n      pop\n        /* \"#utility.yul\":7035:7454   */\n      swap2\n      swap1\n      pop\n      jump\t// out\n        /* \"#utility.yul\":7460:7635   */\n    tag_190:\n        /* \"#utility.yul\":7600:7627   */\n      0x4f6e6c792073656c6c65722063616e2063616c6c207468697300000000000000\n        /* \"#utility.yul\":7596:7597   */\n      0x00\n        /* \"#utility.yul\":7588:7594   */\n      dup3\n        /* \"#utility.yul\":7584:7598   */\n      add\n        /* \"#utility.yul\":7577:7628   */\n      mstore\n        /* \"#utility.yul\":7460:7635   */\n      pop\n      jump\t// out\n        /* \"#utility.yul\":7641:8007   */\n    tag_191:\n        /* \"#utility.yul\":7783:7786   */\n      0x00\n        /* \"#utility.yul\":7804:7871   */\n      tag_263\n        /* \"#utility.yul\":7868:7870   */\n      0x19\n        /* \"#utility.yul\":7863:7866   */\n      dup4\n        /* \"#utility.yul\":7804:7871   */\n      tag_181\n      jump\t// in\n    tag_263:\n        /* \"#utility.yul\":7797:7871   */\n      swap2\n      pop\n        /* \"#utility.yul\":7880:7973   */\n      tag_264\n        /* \"#utility.yul\":7969:7972   */\n      dup3\n        /* \"#utility.yul\":7880:7973   */\n      tag_190\n      jump\t// in\n    tag_264:\n        /* \"#utility.yul\":7998:8000   */\n      0x20\n        /* \"#utility.yul\":7993:7996   */\n      dup3\n        /* \"#utility.yul\":7989:8001   */\n      add\n        /* \"#utility.yul\":7982:8001   */\n      swap1\n      pop\n        /* \"#utility.yul\":7641:8007   */\n      swap2\n      swap1\n      pop\n      jump\t// out\n        /* \"#utility.yul\":8013:8432   */\n    tag_113:\n        /* \"#utility.yul\":8179:8183   */\n      0x00\n        /* \"#utility.yul\":8217:8219   */\n      0x20\n        /* \"#utility.yul\":8206:8215   */\n      dup3\n        /* \"#utility.yul\":8202:8220   */\n      add\n        /* \"#utility.yul\":8194:8220   */\n      swap1\n      pop\n        /* \"#utility.yul\":8266:8275   */\n      dup2\n        /* \"#utility.yul\":8260:8264   */\n      dup2\n        /* \"#utility.yul\":8256:8276   */\n      sub\n        /* \"#utility.yul\":8252:8253   */\n      0x00\n        /* \"#utility.yul\":8241:8250   */\n      dup4\n        /* \"#utility.yul\":8237:8254   */\n      add\n        /* \"#utility.yul\":8230:8277   */\n      mstore\n        /* \"#utility.yul\":8294:8425   */\n      tag_266\n        /* \"#utility.yul\":8420:8424   */\n      dup2\n        /* \"#utility.yul\":8294:8425   */\n      tag_191\n      jump\t// in\n    tag_266:\n        /* \"#utility.yul\":8286:8425   */\n      swap1\n      pop\n        /* \"#utility.yul\":8013:8432   */\n      swap2\n      swap1\n      pop\n      jump\t// out\n        /* \"#utility.yul\":8438:8617   */\n    tag_192:\n        /* \"#utility.yul\":8578:8609   */\n      0x4f6e6c792061726269747261746f722063616e2063616c6c2074686973000000\n        /* \"#utility.yul\":8574:8575   */\n      0x00\n        /* \"#utility.yul\":8566:8572   */\n      dup3\n        /* \"#utility.yul\":8562:8576   */\n      add\n        /* \"#utility.yul\":8555:8610   */\n      mstore\n        /* \"#utility.yul\":8438:8617   */\n      pop\n      jump\t// out\n        /* \"#utility.yul\":8623:8989   */\n    tag_193:\n        /* \"#utility.yul\":8765:8768   */\n      0x00\n        /* \"#utility.yul\":8786:8853   */\n      tag_269\n        /* \"#utility.yul\":8850:8852   */\n      0x1d\n        /* \"#utility.yul\":8845:8848   */\n      dup4\n        /* \"#utility.yul\":8786:8853   */\n      tag_181\n      jump\t// in\n    tag_269:\n        /* \"#utility.yul\":8779:8853   */\n      swap2\n      pop\n        /* \"#utility.yul\":8862:8955   */\n      tag_270\n        /* \"#utility.yul\":8951:8954   */\n      dup3\n        /* \"#utility.yul\":8862:8955   */\n      tag_192\n      jump\t// in\n    tag_270:\n        /* \"#utility.yul\":8980:8982   */\n      0x20\n        /* \"#utility.yul\":8975:8978   */\n      dup3\n        /* \"#utility.yul\":8971:8983   */\n      add\n        /* \"#utility.yul\":8964:8983   */\n      swap1\n      pop\n        /* \"#utility.yul\":8623:8989   */\n      swap2\n      swap1\n      pop\n      jump\t// out\n        /* \"#utility.yul\":8995:9414   */\n    tag_127:\n        /* \"#utility.yul\":9161:9165   */\n      0x00\n        /* \"#utility.yul\":9199:9201   */\n      0x20\n        /* \"#utility.yul\":9188:9197   */\n      dup3\n        /* \"#utility.yul\":9184:9202   */\n      add\n        /* \"#utility.yul\":9176:9202   */\n      swap1\n      pop\n        /* \"#utility.yul\":9248:9257   */\n      dup2\n        /* \"#utility.yul\":9242:9246   */\n      dup2\n        /* \"#utility.yul\":9238:9258   */\n      sub\n        /* \"#utility.yul\":9234:9235   */\n      0x00\n        /* \"#utility.yul\":9223:9232   */\n      dup4\n        /* \"#utility.yul\":9219:9236   */\n      add\n        /* \"#utility.yul\":9212:9259   */\n      mstore\n        /* \"#utility.yul\":9276:9407   */\n      tag_272\n        /* \"#utility.yul\":9402:9406   */\n      dup2\n        /* \"#utility.yul\":9276:9407   */\n      tag_193\n      jump\t// in\n    tag_272:\n        /* \"#utility.yul\":9268:9407   */\n      swap1\n      pop\n        /* \"#utility.yul\":8995:9414   */\n      swap2\n      swap1\n      pop\n      jump\t// out\n\n    auxdata: 0xa26469706673582212207ff536c82f04f6ac1cb65cda5c1ed5f7a09242d0b543452438340811e20a21ea64736f6c634300081a0033\n}\n",
				"bytecode": {
					"linkReferences": {},
					"object": "60a060405234801561000f575f80fd5b506040516113eb3803806113eb83398181016040528101906100319190610173565b335f806101000a81548173ffffffffffffffffffffffffffffffffffffffff021916908373ffffffffffffffffffffffffffffffffffffffff1602179055508160015f6101000a81548173ffffffffffffffffffffffffffffffffffffffff021916908373ffffffffffffffffffffffffffffffffffffffff1602179055508073ffffffffffffffffffffffffffffffffffffffff1660808173ffffffffffffffffffffffffffffffffffffffff16815250505f600160146101000a81548160ff02191690836004811115610109576101086101b1565b5b021790555050506101de565b5f80fd5b5f73ffffffffffffffffffffffffffffffffffffffff82169050919050565b5f61014282610119565b9050919050565b61015281610138565b811461015c575f80fd5b50565b5f8151905061016d81610149565b92915050565b5f806040838503121561018957610188610115565b5b5f6101968582860161015f565b92505060206101a78582860161015f565b9150509250929050565b7f4e487b71000000000000000000000000000000000000000000000000000000005f52602160045260245ffd5b6080516111ee6101fd5f395f81816102a301526108fa01526111ee5ff3fe6080604052600436106100a6575f3560e01c80637150d8ae116100635780637150d8ae14610192578063892a0e42146101bc578063aa8c217c146101d2578063d0e30db0146101fc578063d5cef13314610206578063d84611821461021c576100a6565b806308551a53146100aa57806309671514146100d45780630c3f6acf146100fe57806348a1335a146101285780636cc6cde1146101525780636daa2d441461017c575b5f80fd5b3480156100b5575f80fd5b506100be610244565b6040516100cb9190610db0565b60405180910390f35b3480156100df575f80fd5b506100e8610269565b6040516100f59190610de3565b60405180910390f35b348015610109575f80fd5b5061011261027c565b60405161011f9190610e6f565b60405180910390f35b348015610133575f80fd5b5061013c61028f565b6040516101499190610de3565b60405180910390f35b34801561015d575f80fd5b506101666102a1565b6040516101739190610db0565b60405180910390f35b348015610187575f80fd5b506101906102c5565b005b34801561019d575f80fd5b506101a6610491565b6040516101b39190610db0565b60405180910390f35b3480156101c7575f80fd5b506101d06104b4565b005b3480156101dd575f80fd5b506101e66105ff565b6040516101f39190610ea0565b60405180910390f35b610204610605565b005b348015610211575f80fd5b5061021a6107cc565b005b348015610227575f80fd5b50610242600480360381019061023d9190610ee7565b6108f8565b005b60015f9054906101000a900473ffffffffffffffffffffffffffffffffffffffff1681565b600360019054906101000a900460ff1681565b600160149054906101000a900460ff1681565b60035f9054906101000a900460ff1681565b7f000000000000000000000000000000000000000000000000000000000000000081565b60018060048111156102da576102d9610dfc565b5b600160149054906101000a900460ff1660048111156102fc576102fb610dfc565b5b1461033c576040517f08c379a000000000000000000000000000000000000000000000000000000000815260040161033390610f6c565b60405180910390fd5b5f8054906101000a900473ffffffffffffffffffffffffffffffffffffffff1673ffffffffffffffffffffffffffffffffffffffff163373ffffffffffffffffffffffffffffffffffffffff1614806103e1575060015f9054906101000a900473ffffffffffffffffffffffffffffffffffffffff1673ffffffffffffffffffffffffffffffffffffffff163373ffffffffffffffffffffffffffffffffffffffff16145b610420576040517f08c379a000000000000000000000000000000000000000000000000000000000815260040161041790610fd4565b60405180910390fd5b6002600160146101000a81548160ff0219169083600481111561044657610445610dfc565b5b02179055503373ffffffffffffffffffffffffffffffffffffffff167f0b3cd97b16a08a5c77357c276d248827ad32dfd56060f7c55d6255537ba3d96260405160405180910390a250565b5f8054906101000a900473ffffffffffffffffffffffffffffffffffffffff1681565b5f8054906101000a900473ffffffffffffffffffffffffffffffffffffffff1673ffffffffffffffffffffffffffffffffffffffff163373ffffffffffffffffffffffffffffffffffffffff1614610541576040517f08c379a00000000000000000000000000000000000000000000000000000000081526004016105389061103c565b60405180910390fd5b600180600481111561055657610555610dfc565b5b600160149054906101000a900460ff16600481111561057857610577610dfc565b5b146105b8576040517f08c379a00000000000000000000000000000000000000000000000000000000081526004016105af90610f6c565b60405180910390fd5b600160035f6101000a81548160ff0219169083151502179055506105fc60015f9054906101000a900473ffffffffffffffffffffffffffffffffffffffff16610ac0565b50565b60025481565b5f8054906101000a900473ffffffffffffffffffffffffffffffffffffffff1673ffffffffffffffffffffffffffffffffffffffff163373ffffffffffffffffffffffffffffffffffffffff1614610692576040517f08c379a00000000000000000000000000000000000000000000000000000000081526004016106899061103c565b60405180910390fd5b5f8060048111156106a6576106a5610dfc565b5b600160149054906101000a900460ff1660048111156106c8576106c7610dfc565b5b14610708576040517f08c379a00000000000000000000000000000000000000000000000000000000081526004016106ff90610f6c565b60405180910390fd5b5f341161074a576040517f08c379a0000000000000000000000000000000000000000000000000000000008152600401610741906110ca565b60405180910390fd5b3460028190555060018060146101000a81548160ff0219169083600481111561077657610775610dfc565b5b02179055503373ffffffffffffffffffffffffffffffffffffffff167f2da466a7b24304f47e87fa2e1e5a81b9831ce54fec19055ce277ca2f39ba42c4346040516107c19190610ea0565b60405180910390a250565b60015f9054906101000a900473ffffffffffffffffffffffffffffffffffffffff1673ffffffffffffffffffffffffffffffffffffffff163373ffffffffffffffffffffffffffffffffffffffff161461085b576040517f08c379a000000000000000000000000000000000000000000000000000000000815260040161085290611132565b60405180910390fd5b60018060048111156108705761086f610dfc565b5b600160149054906101000a900460ff16600481111561089257610891610dfc565b5b146108d2576040517f08c379a00000000000000000000000000000000000000000000000000000000081526004016108c990610f6c565b60405180910390fd5b6001600360016101000a81548160ff0219169083151502179055506108f5610bfa565b50565b7f000000000000000000000000000000000000000000000000000000000000000073ffffffffffffffffffffffffffffffffffffffff163373ffffffffffffffffffffffffffffffffffffffff1614610986576040517f08c379a000000000000000000000000000000000000000000000000000000000815260040161097d9061119a565b60405180910390fd5b600280600481111561099b5761099a610dfc565b5b600160149054906101000a900460ff1660048111156109bd576109bc610dfc565b5b146109fd576040517f08c379a00000000000000000000000000000000000000000000000000000000081526004016109f490610f6c565b60405180910390fd5b6003600160146101000a81548160ff02191690836004811115610a2357610a22610dfc565b5b02179055508173ffffffffffffffffffffffffffffffffffffffff166108fc60025490811502906040515f60405180830381858888f19350505050158015610a6d573d5f803e3d5ffd5b503373ffffffffffffffffffffffffffffffffffffffff167fd2dc052bee2b52c6f56a2b5bc488360183af7ee2f1b7e600a0e3c0e9337dd4e883604051610ab49190610db0565b60405180910390a25050565b60016004811115610ad457610ad3610dfc565b5b600160149054906101000a900460ff166004811115610af657610af5610dfc565b5b14610b36576040517f08c379a0000000000000000000000000000000000000000000000000000000008152600401610b2d90610f6c565b60405180910390fd5b6003600160146101000a81548160ff02191690836004811115610b5c57610b5b610dfc565b5b02179055508073ffffffffffffffffffffffffffffffffffffffff166108fc60025490811502906040515f60405180830381858888f19350505050158015610ba6573d5f803e3d5ffd5b508073ffffffffffffffffffffffffffffffffffffffff167fb21fb52d5749b80f3182f8c6992236b5e5576681880914484d7f4c9b062e619e600254604051610bef9190610ea0565b60405180910390a250565b60016004811115610c0e57610c0d610dfc565b5b600160149054906101000a900460ff166004811115610c3057610c2f610dfc565b5b14610c70576040517f08c379a0000000000000000000000000000000000000000000000000000000008152600401610c6790610f6c565b60405180910390fd5b6004600160146101000a81548160ff02191690836004811115610c9657610c95610dfc565b5b02179055505f8054906101000a900473ffffffffffffffffffffffffffffffffffffffff1673ffffffffffffffffffffffffffffffffffffffff166108fc60025490811502906040515f60405180830381858888f19350505050158015610cff573d5f803e3d5ffd5b505f8054906101000a900473ffffffffffffffffffffffffffffffffffffffff1673ffffffffffffffffffffffffffffffffffffffff167fd7dee2702d63ad89917b6a4da9981c90c4d24f8c2bdfd64c604ecae57d8d0651600254604051610d679190610ea0565b60405180910390a2565b5f73ffffffffffffffffffffffffffffffffffffffff82169050919050565b5f610d9a82610d71565b9050919050565b610daa81610d90565b82525050565b5f602082019050610dc35f830184610da1565b92915050565b5f8115159050919050565b610ddd81610dc9565b82525050565b5f602082019050610df65f830184610dd4565b92915050565b7f4e487b71000000000000000000000000000000000000000000000000000000005f52602160045260245ffd5b60058110610e3a57610e39610dfc565b5b50565b5f819050610e4a82610e29565b919050565b5f610e5982610e3d565b9050919050565b610e6981610e4f565b82525050565b5f602082019050610e825f830184610e60565b92915050565b5f819050919050565b610e9a81610e88565b82525050565b5f602082019050610eb35f830184610e91565b92915050565b5f80fd5b610ec681610d90565b8114610ed0575f80fd5b50565b5f81359050610ee181610ebd565b92915050565b5f60208284031215610efc57610efb610eb9565b5b5f610f0984828501610ed3565b91505092915050565b5f82825260208201905092915050565b7f496e76616c6964207374617465000000000000000000000000000000000000005f82015250565b5f610f56600d83610f12565b9150610f6182610f22565b602082019050919050565b5f6020820190508181035f830152610f8381610f4a565b9050919050565b7f556e617574686f72697a656400000000000000000000000000000000000000005f82015250565b5f610fbe600c83610f12565b9150610fc982610f8a565b602082019050919050565b5f6020820190508181035f830152610feb81610fb2565b9050919050565b7f4f6e6c792062757965722063616e2063616c6c207468697300000000000000005f82015250565b5f611026601883610f12565b915061103182610ff2565b602082019050919050565b5f6020820190508181035f8301526110538161101a565b9050919050565b7f4465706f73697420616d6f756e74206d757374206265206772656174657220745f8201527f68616e2030000000000000000000000000000000000000000000000000000000602082015250565b5f6110b4602583610f12565b91506110bf8261105a565b604082019050919050565b5f6020820190508181035f8301526110e1816110a8565b9050919050565b7f4f6e6c792073656c6c65722063616e2063616c6c2074686973000000000000005f82015250565b5f61111c601983610f12565b9150611127826110e8565b602082019050919050565b5f6020820190508181035f83015261114981611110565b9050919050565b7f4f6e6c792061726269747261746f722063616e2063616c6c20746869730000005f82015250565b5f611184601d83610f12565b915061118f82611150565b602082019050919050565b5f6020820190508181035f8301526111b181611178565b905091905056fea26469706673582212207ff536c82f04f6ac1cb65cda5c1ed5f7a09242d0b543452438340811e20a21ea64736f6c634300081a0033",
					"opcodes": "PUSH1 0xA0 PUSH1 0x40 MSTORE CALLVALUE DUP1 ISZERO PUSH2 0xF JUMPI PUSH0 DUP1 REVERT JUMPDEST POP PUSH1 0x40 MLOAD PUSH2 0x13EB CODESIZE SUB DUP1 PUSH2 0x13EB DUP4 CODECOPY DUP2 DUP2 ADD PUSH1 0x40 MSTORE DUP2 ADD SWAP1 PUSH2 0x31 SWAP2 SWAP1 PUSH2 0x173 JUMP JUMPDEST CALLER PUSH0 DUP1 PUSH2 0x100 EXP DUP2 SLOAD DUP2 PUSH20 0xFFFFFFFFFFFFFFFFFFFFFFFFFFFFFFFFFFFFFFFF MUL NOT AND SWAP1 DUP4 PUSH20 0xFFFFFFFFFFFFFFFFFFFFFFFFFFFFFFFFFFFFFFFF AND MUL OR SWAP1 SSTORE POP DUP2 PUSH1 0x1 PUSH0 PUSH2 0x100 EXP DUP2 SLOAD DUP2 PUSH20 0xFFFFFFFFFFFFFFFFFFFFFFFFFFFFFFFFFFFFFFFF MUL NOT AND SWAP1 DUP4 PUSH20 0xFFFFFFFFFFFFFFFFFFFFFFFFFFFFFFFFFFFFFFFF AND MUL OR SWAP1 SSTORE POP DUP1 PUSH20 0xFFFFFFFFFFFFFFFFFFFFFFFFFFFFFFFFFFFFFFFF AND PUSH1 0x80 DUP2 PUSH20 0xFFFFFFFFFFFFFFFFFFFFFFFFFFFFFFFFFFFFFFFF AND DUP2 MSTORE POP POP PUSH0 PUSH1 0x1 PUSH1 0x14 PUSH2 0x100 EXP DUP2 SLOAD DUP2 PUSH1 0xFF MUL NOT AND SWAP1 DUP4 PUSH1 0x4 DUP2 GT ISZERO PUSH2 0x109 JUMPI PUSH2 0x108 PUSH2 0x1B1 JUMP JUMPDEST JUMPDEST MUL OR SWAP1 SSTORE POP POP POP PUSH2 0x1DE JUMP JUMPDEST PUSH0 DUP1 REVERT JUMPDEST PUSH0 PUSH20 0xFFFFFFFFFFFFFFFFFFFFFFFFFFFFFFFFFFFFFFFF DUP3 AND SWAP1 POP SWAP2 SWAP1 POP JUMP JUMPDEST PUSH0 PUSH2 0x142 DUP3 PUSH2 0x119 JUMP JUMPDEST SWAP1 POP SWAP2 SWAP1 POP JUMP JUMPDEST PUSH2 0x152 DUP2 PUSH2 0x138 JUMP JUMPDEST DUP2 EQ PUSH2 0x15C JUMPI PUSH0 DUP1 REVERT JUMPDEST POP JUMP JUMPDEST PUSH0 DUP2 MLOAD SWAP1 POP PUSH2 0x16D DUP2 PUSH2 0x149 JUMP JUMPDEST SWAP3 SWAP2 POP POP JUMP JUMPDEST PUSH0 DUP1 PUSH1 0x40 DUP4 DUP6 SUB SLT ISZERO PUSH2 0x189 JUMPI PUSH2 0x188 PUSH2 0x115 JUMP JUMPDEST JUMPDEST PUSH0 PUSH2 0x196 DUP6 DUP3 DUP7 ADD PUSH2 0x15F JUMP JUMPDEST SWAP3 POP POP PUSH1 0x20 PUSH2 0x1A7 DUP6 DUP3 DUP7 ADD PUSH2 0x15F JUMP JUMPDEST SWAP2 POP POP SWAP3 POP SWAP3 SWAP1 POP JUMP JUMPDEST PUSH32 0x4E487B7100000000000000000000000000000000000000000000000000000000 PUSH0 MSTORE PUSH1 0x21 PUSH1 0x4 MSTORE PUSH1 0x24 PUSH0 REVERT JUMPDEST PUSH1 0x80 MLOAD PUSH2 0x11EE PUSH2 0x1FD PUSH0 CODECOPY PUSH0 DUP2 DUP2 PUSH2 0x2A3 ADD MSTORE PUSH2 0x8FA ADD MSTORE PUSH2 0x11EE PUSH0 RETURN INVALID PUSH1 0x80 PUSH1 0x40 MSTORE PUSH1 0x4 CALLDATASIZE LT PUSH2 0xA6 JUMPI PUSH0 CALLDATALOAD PUSH1 0xE0 SHR DUP1 PUSH4 0x7150D8AE GT PUSH2 0x63 JUMPI DUP1 PUSH4 0x7150D8AE EQ PUSH2 0x192 JUMPI DUP1 PUSH4 0x892A0E42 EQ PUSH2 0x1BC JUMPI DUP1 PUSH4 0xAA8C217C EQ PUSH2 0x1D2 JUMPI DUP1 PUSH4 0xD0E30DB0 EQ PUSH2 0x1FC JUMPI DUP1 PUSH4 0xD5CEF133 EQ PUSH2 0x206 JUMPI DUP1 PUSH4 0xD8461182 EQ PUSH2 0x21C JUMPI PUSH2 0xA6 JUMP JUMPDEST DUP1 PUSH4 0x8551A53 EQ PUSH2 0xAA JUMPI DUP1 PUSH4 0x9671514 EQ PUSH2 0xD4 JUMPI DUP1 PUSH4 0xC3F6ACF EQ PUSH2 0xFE JUMPI DUP1 PUSH4 0x48A1335A EQ PUSH2 0x128 JUMPI DUP1 PUSH4 0x6CC6CDE1 EQ PUSH2 0x152 JUMPI DUP1 PUSH4 0x6DAA2D44 EQ PUSH2 0x17C JUMPI JUMPDEST PUSH0 DUP1 REVERT JUMPDEST CALLVALUE DUP1 ISZERO PUSH2 0xB5 JUMPI PUSH0 DUP1 REVERT JUMPDEST POP PUSH2 0xBE PUSH2 0x244 JUMP JUMPDEST PUSH1 0x40 MLOAD PUSH2 0xCB SWAP2 SWAP1 PUSH2 0xDB0 JUMP JUMPDEST PUSH1 0x40 MLOAD DUP1 SWAP2 SUB SWAP1 RETURN JUMPDEST CALLVALUE DUP1 ISZERO PUSH2 0xDF JUMPI PUSH0 DUP1 REVERT JUMPDEST POP PUSH2 0xE8 PUSH2 0x269 JUMP JUMPDEST PUSH1 0x40 MLOAD PUSH2 0xF5 SWAP2 SWAP1 PUSH2 0xDE3 JUMP JUMPDEST PUSH1 0x40 MLOAD DUP1 SWAP2 SUB SWAP1 RETURN JUMPDEST CALLVALUE DUP1 ISZERO PUSH2 0x109 JUMPI PUSH0 DUP1 REVERT JUMPDEST POP PUSH2 0x112 PUSH2 0x27C JUMP JUMPDEST PUSH1 0x40 MLOAD PUSH2 0x11F SWAP2 SWAP1 PUSH2 0xE6F JUMP JUMPDEST PUSH1 0x40 MLOAD DUP1 SWAP2 SUB SWAP1 RETURN JUMPDEST CALLVALUE DUP1 ISZERO PUSH2 0x133 JUMPI PUSH0 DUP1 REVERT JUMPDEST POP PUSH2 0x13C PUSH2 0x28F JUMP JUMPDEST PUSH1 0x40 MLOAD PUSH2 0x149 SWAP2 SWAP1 PUSH2 0xDE3 JUMP JUMPDEST PUSH1 0x40 MLOAD DUP1 SWAP2 SUB SWAP1 RETURN JUMPDEST CALLVALUE DUP1 ISZERO PUSH2 0x15D JUMPI PUSH0 DUP1 REVERT JUMPDEST POP PUSH2 0x166 PUSH2 0x2A1 JUMP JUMPDEST PUSH1 0x40 MLOAD PUSH2 0x173 SWAP2 SWAP1 PUSH2 0xDB0 JUMP JUMPDEST PUSH1 0x40 MLOAD DUP1 SWAP2 SUB SWAP1 RETURN JUMPDEST CALLVALUE DUP1 ISZERO PUSH2 0x187 JUMPI PUSH0 DUP1 REVERT JUMPDEST POP PUSH2 0x190 PUSH2 0x2C5 JUMP JUMPDEST STOP JUMPDEST CALLVALUE DUP1 ISZERO PUSH2 0x19D JUMPI PUSH0 DUP1 REVERT JUMPDEST POP PUSH2 0x1A6 PUSH2 0x491 JUMP JUMPDEST PUSH1 0x40 MLOAD PUSH2 0x1B3 SWAP2 SWAP1 PUSH2 0xDB0 JUMP JUMPDEST PUSH1 0x40 MLOAD DUP1 SWAP2 SUB SWAP1 RETURN JUMPDEST CALLVALUE DUP1 ISZERO PUSH2 0x1C7 JUMPI PUSH0 DUP1 REVERT JUMPDEST POP PUSH2 0x1D0 PUSH2 0x4B4 JUMP JUMPDEST STOP JUMPDEST CALLVALUE DUP1 ISZERO PUSH2 0x1DD JUMPI PUSH0 DUP1 REVERT JUMPDEST POP PUSH2 0x1E6 PUSH2 0x5FF JUMP JUMPDEST PUSH1 0x40 MLOAD PUSH2 0x1F3 SWAP2 SWAP1 PUSH2 0xEA0 JUMP JUMPDEST PUSH1 0x40 MLOAD DUP1 SWAP2 SUB SWAP1 RETURN JUMPDEST PUSH2 0x204 PUSH2 0x605 JUMP JUMPDEST STOP JUMPDEST CALLVALUE DUP1 ISZERO PUSH2 0x211 JUMPI PUSH0 DUP1 REVERT JUMPDEST POP PUSH2 0x21A PUSH2 0x7CC JUMP JUMPDEST STOP JUMPDEST CALLVALUE DUP1 ISZERO PUSH2 0x227 JUMPI PUSH0 DUP1 REVERT JUMPDEST POP PUSH2 0x242 PUSH1 0x4 DUP1 CALLDATASIZE SUB DUP2 ADD SWAP1 PUSH2 0x23D SWAP2 SWAP1 PUSH2 0xEE7 JUMP JUMPDEST PUSH2 0x8F8 JUMP JUMPDEST STOP JUMPDEST PUSH1 0x1 PUSH0 SWAP1 SLOAD SWAP1 PUSH2 0x100 EXP SWAP1 DIV PUSH20 0xFFFFFFFFFFFFFFFFFFFFFFFFFFFFFFFFFFFFFFFF AND DUP2 JUMP JUMPDEST PUSH1 0x3 PUSH1 0x1 SWAP1 SLOAD SWAP1 PUSH2 0x100 EXP SWAP1 DIV PUSH1 0xFF AND DUP2 JUMP JUMPDEST PUSH1 0x1 PUSH1 0x14 SWAP1 SLOAD SWAP1 PUSH2 0x100 EXP SWAP1 DIV PUSH1 0xFF AND DUP2 JUMP JUMPDEST PUSH1 0x3 PUSH0 SWAP1 SLOAD SWAP1 PUSH2 0x100 EXP SWAP1 DIV PUSH1 0xFF AND DUP2 JUMP JUMPDEST PUSH32 0x0 DUP2 JUMP JUMPDEST PUSH1 0x1 DUP1 PUSH1 0x4 DUP2 GT ISZERO PUSH2 0x2DA JUMPI PUSH2 0x2D9 PUSH2 0xDFC JUMP JUMPDEST JUMPDEST PUSH1 0x1 PUSH1 0x14 SWAP1 SLOAD SWAP1 PUSH2 0x100 EXP SWAP1 DIV PUSH1 0xFF AND PUSH1 0x4 DUP2 GT ISZERO PUSH2 0x2FC JUMPI PUSH2 0x2FB PUSH2 0xDFC JUMP JUMPDEST JUMPDEST EQ PUSH2 0x33C JUMPI PUSH1 0x40 MLOAD PUSH32 0x8C379A000000000000000000000000000000000000000000000000000000000 DUP2 MSTORE PUSH1 0x4 ADD PUSH2 0x333 SWAP1 PUSH2 0xF6C JUMP JUMPDEST PUSH1 0x40 MLOAD DUP1 SWAP2 SUB SWAP1 REVERT JUMPDEST PUSH0 DUP1 SLOAD SWAP1 PUSH2 0x100 EXP SWAP1 DIV PUSH20 0xFFFFFFFFFFFFFFFFFFFFFFFFFFFFFFFFFFFFFFFF AND PUSH20 0xFFFFFFFFFFFFFFFFFFFFFFFFFFFFFFFFFFFFFFFF AND CALLER PUSH20 0xFFFFFFFFFFFFFFFFFFFFFFFFFFFFFFFFFFFFFFFF AND EQ DUP1 PUSH2 0x3E1 JUMPI POP PUSH1 0x1 PUSH0 SWAP1 SLOAD SWAP1 PUSH2 0x100 EXP SWAP1 DIV PUSH20 0xFFFFFFFFFFFFFFFFFFFFFFFFFFFFFFFFFFFFFFFF AND PUSH20 0xFFFFFFFFFFFFFFFFFFFFFFFFFFFFFFFFFFFFFFFF AND CALLER PUSH20 0xFFFFFFFFFFFFFFFFFFFFFFFFFFFFFFFFFFFFFFFF AND EQ JUMPDEST PUSH2 0x420 JUMPI PUSH1 0x40 MLOAD PUSH32 0x8C379A000000000000000000000000000000000000000000000000000000000 DUP2 MSTORE PUSH1 0x4 ADD PUSH2 0x417 SWAP1 PUSH2 0xFD4 JUMP JUMPDEST PUSH1 0x40 MLOAD DUP1 SWAP2 SUB SWAP1 REVERT JUMPDEST PUSH1 0x2 PUSH1 0x1 PUSH1 0x14 PUSH2 0x100 EXP DUP2 SLOAD DUP2 PUSH1 0xFF MUL NOT AND SWAP1 DUP4 PUSH1 0x4 DUP2 GT ISZERO PUSH2 0x446 JUMPI PUSH2 0x445 PUSH2 0xDFC JUMP JUMPDEST JUMPDEST MUL OR SWAP1 SSTORE POP CALLER PUSH20 0xFFFFFFFFFFFFFFFFFFFFFFFFFFFFFFFFFFFFFFFF AND PUSH32 0xB3CD97B16A08A5C77357C276D248827AD32DFD56060F7C55D6255537BA3D962 PUSH1 0x40 MLOAD PUSH1 0x40 MLOAD DUP1 SWAP2 SUB SWAP1 LOG2 POP JUMP JUMPDEST PUSH0 DUP1 SLOAD SWAP1 PUSH2 0x100 EXP SWAP1 DIV PUSH20 0xFFFFFFFFFFFFFFFFFFFFFFFFFFFFFFFFFFFFFFFF AND DUP2 JUMP JUMPDEST PUSH0 DUP1 SLOAD SWAP1 PUSH2 0x100 EXP SWAP1 DIV PUSH20 0xFFFFFFFFFFFFFFFFFFFFFFFFFFFFFFFFFFFFFFFF AND PUSH20 0xFFFFFFFFFFFFFFFFFFFFFFFFFFFFFFFFFFFFFFFF AND CALLER PUSH20 0xFFFFFFFFFFFFFFFFFFFFFFFFFFFFFFFFFFFFFFFF AND EQ PUSH2 0x541 JUMPI PUSH1 0x40 MLOAD PUSH32 0x8C379A000000000000000000000000000000000000000000000000000000000 DUP2 MSTORE PUSH1 0x4 ADD PUSH2 0x538 SWAP1 PUSH2 0x103C JUMP JUMPDEST PUSH1 0x40 MLOAD DUP1 SWAP2 SUB SWAP1 REVERT JUMPDEST PUSH1 0x1 DUP1 PUSH1 0x4 DUP2 GT ISZERO PUSH2 0x556 JUMPI PUSH2 0x555 PUSH2 0xDFC JUMP JUMPDEST JUMPDEST PUSH1 0x1 PUSH1 0x14 SWAP1 SLOAD SWAP1 PUSH2 0x100 EXP SWAP1 DIV PUSH1 0xFF AND PUSH1 0x4 DUP2 GT ISZERO PUSH2 0x578 JUMPI PUSH2 0x577 PUSH2 0xDFC JUMP JUMPDEST JUMPDEST EQ PUSH2 0x5B8 JUMPI PUSH1 0x40 MLOAD PUSH32 0x8C379A000000000000000000000000000000000000000000000000000000000 DUP2 MSTORE PUSH1 0x4 ADD PUSH2 0x5AF SWAP1 PUSH2 0xF6C JUMP JUMPDEST PUSH1 0x40 MLOAD DUP1 SWAP2 SUB SWAP1 REVERT JUMPDEST PUSH1 0x1 PUSH1 0x3 PUSH0 PUSH2 0x100 EXP DUP2 SLOAD DUP2 PUSH1 0xFF MUL NOT AND SWAP1 DUP4 ISZERO ISZERO MUL OR SWAP1 SSTORE POP PUSH2 0x5FC PUSH1 0x1 PUSH0 SWAP1 SLOAD SWAP1 PUSH2 0x100 EXP SWAP1 DIV PUSH20 0xFFFFFFFFFFFFFFFFFFFFFFFFFFFFFFFFFFFFFFFF AND PUSH2 0xAC0 JUMP JUMPDEST POP JUMP JUMPDEST PUSH1 0x2 SLOAD DUP2 JUMP JUMPDEST PUSH0 DUP1 SLOAD SWAP1 PUSH2 0x100 EXP SWAP1 DIV PUSH20 0xFFFFFFFFFFFFFFFFFFFFFFFFFFFFFFFFFFFFFFFF AND PUSH20 0xFFFFFFFFFFFFFFFFFFFFFFFFFFFFFFFFFFFFFFFF AND CALLER PUSH20 0xFFFFFFFFFFFFFFFFFFFFFFFFFFFFFFFFFFFFFFFF AND EQ PUSH2 0x692 JUMPI PUSH1 0x40 MLOAD PUSH32 0x8C379A000000000000000000000000000000000000000000000000000000000 DUP2 MSTORE PUSH1 0x4 ADD PUSH2 0x689 SWAP1 PUSH2 0x103C JUMP JUMPDEST PUSH1 0x40 MLOAD DUP1 SWAP2 SUB SWAP1 REVERT JUMPDEST PUSH0 DUP1 PUSH1 0x4 DUP2 GT ISZERO PUSH2 0x6A6 JUMPI PUSH2 0x6A5 PUSH2 0xDFC JUMP JUMPDEST JUMPDEST PUSH1 0x1 PUSH1 0x14 SWAP1 SLOAD SWAP1 PUSH2 0x100 EXP SWAP1 DIV PUSH1 0xFF AND PUSH1 0x4 DUP2 GT ISZERO PUSH2 0x6C8 JUMPI PUSH2 0x6C7 PUSH2 0xDFC JUMP JUMPDEST JUMPDEST EQ PUSH2 0x708 JUMPI PUSH1 0x40 MLOAD PUSH32 0x8C379A000000000000000000000000000000000000000000000000000000000 DUP2 MSTORE PUSH1 0x4 ADD PUSH2 0x6FF SWAP1 PUSH2 0xF6C JUMP JUMPDEST PUSH1 0x40 MLOAD DUP1 SWAP2 SUB SWAP1 REVERT JUMPDEST PUSH0 CALLVALUE GT PUSH2 0x74A JUMPI PUSH1 0x40 MLOAD PUSH32 0x8C379A000000000000000000000000000000000000000000000000000000000 DUP2 MSTORE PUSH1 0x4 ADD PUSH2 0x741 SWAP1 PUSH2 0x10CA JUMP JUMPDEST PUSH1 0x40 MLOAD DUP1 SWAP2 SUB SWAP1 REVERT JUMPDEST CALLVALUE PUSH1 0x2 DUP2 SWAP1 SSTORE POP PUSH1 0x1 DUP1 PUSH1 0x14 PUSH2 0x100 EXP DUP2 SLOAD DUP2 PUSH1 0xFF MUL NOT AND SWAP1 DUP4 PUSH1 0x4 DUP2 GT ISZERO PUSH2 0x776 JUMPI PUSH2 0x775 PUSH2 0xDFC JUMP JUMPDEST JUMPDEST MUL OR SWAP1 SSTORE POP CALLER PUSH20 0xFFFFFFFFFFFFFFFFFFFFFFFFFFFFFFFFFFFFFFFF AND PUSH32 0x2DA466A7B24304F47E87FA2E1E5A81B9831CE54FEC19055CE277CA2F39BA42C4 CALLVALUE PUSH1 0x40 MLOAD PUSH2 0x7C1 SWAP2 SWAP1 PUSH2 0xEA0 JUMP JUMPDEST PUSH1 0x40 MLOAD DUP1 SWAP2 SUB SWAP1 LOG2 POP JUMP JUMPDEST PUSH1 0x1 PUSH0 SWAP1 SLOAD SWAP1 PUSH2 0x100 EXP SWAP1 DIV PUSH20 0xFFFFFFFFFFFFFFFFFFFFFFFFFFFFFFFFFFFFFFFF AND PUSH20 0xFFFFFFFFFFFFFFFFFFFFFFFFFFFFFFFFFFFFFFFF AND CALLER PUSH20 0xFFFFFFFFFFFFFFFFFFFFFFFFFFFFFFFFFFFFFFFF AND EQ PUSH2 0x85B JUMPI PUSH1 0x40 MLOAD PUSH32 0x8C379A000000000000000000000000000000000000000000000000000000000 DUP2 MSTORE PUSH1 0x4 ADD PUSH2 0x852 SWAP1 PUSH2 0x1132 JUMP JUMPDEST PUSH1 0x40 MLOAD DUP1 SWAP2 SUB SWAP1 REVERT JUMPDEST PUSH1 0x1 DUP1 PUSH1 0x4 DUP2 GT ISZERO PUSH2 0x870 JUMPI PUSH2 0x86F PUSH2 0xDFC JUMP JUMPDEST JUMPDEST PUSH1 0x1 PUSH1 0x14 SWAP1 SLOAD SWAP1 PUSH2 0x100 EXP SWAP1 DIV PUSH1 0xFF AND PUSH1 0x4 DUP2 GT ISZERO PUSH2 0x892 JUMPI PUSH2 0x891 PUSH2 0xDFC JUMP JUMPDEST JUMPDEST EQ PUSH2 0x8D2 JUMPI PUSH1 0x40 MLOAD PUSH32 0x8C379A000000000000000000000000000000000000000000000000000000000 DUP2 MSTORE PUSH1 0x4 ADD PUSH2 0x8C9 SWAP1 PUSH2 0xF6C JUMP JUMPDEST PUSH1 0x40 MLOAD DUP1 SWAP2 SUB SWAP1 REVERT JUMPDEST PUSH1 0x1 PUSH1 0x3 PUSH1 0x1 PUSH2 0x100 EXP DUP2 SLOAD DUP2 PUSH1 0xFF MUL NOT AND SWAP1 DUP4 ISZERO ISZERO MUL OR SWAP1 SSTORE POP PUSH2 0x8F5 PUSH2 0xBFA JUMP JUMPDEST POP JUMP JUMPDEST PUSH32 0x0 PUSH20 0xFFFFFFFFFFFFFFFFFFFFFFFFFFFFFFFFFFFFFFFF AND CALLER PUSH20 0xFFFFFFFFFFFFFFFFFFFFFFFFFFFFFFFFFFFFFFFF AND EQ PUSH2 0x986 JUMPI PUSH1 0x40 MLOAD PUSH32 0x8C379A000000000000000000000000000000000000000000000000000000000 DUP2 MSTORE PUSH1 0x4 ADD PUSH2 0x97D SWAP1 PUSH2 0x119A JUMP JUMPDEST PUSH1 0x40 MLOAD DUP1 SWAP2 SUB SWAP1 REVERT JUMPDEST PUSH1 0x2 DUP1 PUSH1 0x4 DUP2 GT ISZERO PUSH2 0x99B JUMPI PUSH2 0x99A PUSH2 0xDFC JUMP JUMPDEST JUMPDEST PUSH1 0x1 PUSH1 0x14 SWAP1 SLOAD SWAP1 PUSH2 0x100 EXP SWAP1 DIV PUSH1 0xFF AND PUSH1 0x4 DUP2 GT ISZERO PUSH2 0x9BD JUMPI PUSH2 0x9BC PUSH2 0xDFC JUMP JUMPDEST JUMPDEST EQ PUSH2 0x9FD JUMPI PUSH1 0x40 MLOAD PUSH32 0x8C379A000000000000000000000000000000000000000000000000000000000 DUP2 MSTORE PUSH1 0x4 ADD PUSH2 0x9F4 SWAP1 PUSH2 0xF6C JUMP JUMPDEST PUSH1 0x40 MLOAD DUP1 SWAP2 SUB SWAP1 REVERT JUMPDEST PUSH1 0x3 PUSH1 0x1 PUSH1 0x14 PUSH2 0x100 EXP DUP2 SLOAD DUP2 PUSH1 0xFF MUL NOT AND SWAP1 DUP4 PUSH1 0x4 DUP2 GT ISZERO PUSH2 0xA23 JUMPI PUSH2 0xA22 PUSH2 0xDFC JUMP JUMPDEST JUMPDEST MUL OR SWAP1 SSTORE POP DUP2 PUSH20 0xFFFFFFFFFFFFFFFFFFFFFFFFFFFFFFFFFFFFFFFF AND PUSH2 0x8FC PUSH1 0x2 SLOAD SWAP1 DUP2 ISZERO MUL SWAP1 PUSH1 0x40 MLOAD PUSH0 PUSH1 0x40 MLOAD DUP1 DUP4 SUB DUP2 DUP6 DUP9 DUP9 CALL SWAP4 POP POP POP POP ISZERO DUP1 ISZERO PUSH2 0xA6D JUMPI RETURNDATASIZE PUSH0 DUP1 RETURNDATACOPY RETURNDATASIZE PUSH0 REVERT JUMPDEST POP CALLER PUSH20 0xFFFFFFFFFFFFFFFFFFFFFFFFFFFFFFFFFFFFFFFF AND PUSH32 0xD2DC052BEE2B52C6F56A2B5BC488360183AF7EE2F1B7E600A0E3C0E9337DD4E8 DUP4 PUSH1 0x40 MLOAD PUSH2 0xAB4 SWAP2 SWAP1 PUSH2 0xDB0 JUMP JUMPDEST PUSH1 0x40 MLOAD DUP1 SWAP2 SUB SWAP1 LOG2 POP POP JUMP JUMPDEST PUSH1 0x1 PUSH1 0x4 DUP2 GT ISZERO PUSH2 0xAD4 JUMPI PUSH2 0xAD3 PUSH2 0xDFC JUMP JUMPDEST JUMPDEST PUSH1 0x1 PUSH1 0x14 SWAP1 SLOAD SWAP1 PUSH2 0x100 EXP SWAP1 DIV PUSH1 0xFF AND PUSH1 0x4 DUP2 GT ISZERO PUSH2 0xAF6 JUMPI PUSH2 0xAF5 PUSH2 0xDFC JUMP JUMPDEST JUMPDEST EQ PUSH2 0xB36 JUMPI PUSH1 0x40 MLOAD PUSH32 0x8C379A000000000000000000000000000000000000000000000000000000000 DUP2 MSTORE PUSH1 0x4 ADD PUSH2 0xB2D SWAP1 PUSH2 0xF6C JUMP JUMPDEST PUSH1 0x40 MLOAD DUP1 SWAP2 SUB SWAP1 REVERT JUMPDEST PUSH1 0x3 PUSH1 0x1 PUSH1 0x14 PUSH2 0x100 EXP DUP2 SLOAD DUP2 PUSH1 0xFF MUL NOT AND SWAP1 DUP4 PUSH1 0x4 DUP2 GT ISZERO PUSH2 0xB5C JUMPI PUSH2 0xB5B PUSH2 0xDFC JUMP JUMPDEST JUMPDEST MUL OR SWAP1 SSTORE POP DUP1 PUSH20 0xFFFFFFFFFFFFFFFFFFFFFFFFFFFFFFFFFFFFFFFF AND PUSH2 0x8FC PUSH1 0x2 SLOAD SWAP1 DUP2 ISZERO MUL SWAP1 PUSH1 0x40 MLOAD PUSH0 PUSH1 0x40 MLOAD DUP1 DUP4 SUB DUP2 DUP6 DUP9 DUP9 CALL SWAP4 POP POP POP POP ISZERO DUP1 ISZERO PUSH2 0xBA6 JUMPI RETURNDATASIZE PUSH0 DUP1 RETURNDATACOPY RETURNDATASIZE PUSH0 REVERT JUMPDEST POP DUP1 PUSH20 0xFFFFFFFFFFFFFFFFFFFFFFFFFFFFFFFFFFFFFFFF AND PUSH32 0xB21FB52D5749B80F3182F8C6992236B5E5576681880914484D7F4C9B062E619E PUSH1 0x2 SLOAD PUSH1 0x40 MLOAD PUSH2 0xBEF SWAP2 SWAP1 PUSH2 0xEA0 JUMP JUMPDEST PUSH1 0x40 MLOAD DUP1 SWAP2 SUB SWAP1 LOG2 POP JUMP JUMPDEST PUSH1 0x1 PUSH1 0x4 DUP2 GT ISZERO PUSH2 0xC0E JUMPI PUSH2 0xC0D PUSH2 0xDFC JUMP JUMPDEST JUMPDEST PUSH1 0x1 PUSH1 0x14 SWAP1 SLOAD SWAP1 PUSH2 0x100 EXP SWAP1 DIV PUSH1 0xFF AND PUSH1 0x4 DUP2 GT ISZERO PUSH2 0xC30 JUMPI PUSH2 0xC2F PUSH2 0xDFC JUMP JUMPDEST JUMPDEST EQ PUSH2 0xC70 JUMPI PUSH1 0x40 MLOAD PUSH32 0x8C379A000000000000000000000000000000000000000000000000000000000 DUP2 MSTORE PUSH1 0x4 ADD PUSH2 0xC67 SWAP1 PUSH2 0xF6C JUMP JUMPDEST PUSH1 0x40 MLOAD DUP1 SWAP2 SUB SWAP1 REVERT JUMPDEST PUSH1 0x4 PUSH1 0x1 PUSH1 0x14 PUSH2 0x100 EXP DUP2 SLOAD DUP2 PUSH1 0xFF MUL NOT AND SWAP1 DUP4 PUSH1 0x4 DUP2 GT ISZERO PUSH2 0xC96 JUMPI PUSH2 0xC95 PUSH2 0xDFC JUMP JUMPDEST JUMPDEST MUL OR SWAP1 SSTORE POP PUSH0 DUP1 SLOAD SWAP1 PUSH2 0x100 EXP SWAP1 DIV PUSH20 0xFFFFFFFFFFFFFFFFFFFFFFFFFFFFFFFFFFFFFFFF AND PUSH20 0xFFFFFFFFFFFFFFFFFFFFFFFFFFFFFFFFFFFFFFFF AND PUSH2 0x8FC PUSH1 0x2 SLOAD SWAP1 DUP2 ISZERO MUL SWAP1 PUSH1 0x40 MLOAD PUSH0 PUSH1 0x40 MLOAD DUP1 DUP4 SUB DUP2 DUP6 DUP9 DUP9 CALL SWAP4 POP POP POP POP ISZERO DUP1 ISZERO PUSH2 0xCFF JUMPI RETURNDATASIZE PUSH0 DUP1 RETURNDATACOPY RETURNDATASIZE PUSH0 REVERT JUMPDEST POP PUSH0 DUP1 SLOAD SWAP1 PUSH2 0x100 EXP SWAP1 DIV PUSH20 0xFFFFFFFFFFFFFFFFFFFFFFFFFFFFFFFFFFFFFFFF AND PUSH20 0xFFFFFFFFFFFFFFFFFFFFFFFFFFFFFFFFFFFFFFFF AND PUSH32 0xD7DEE2702D63AD89917B6A4DA9981C90C4D24F8C2BDFD64C604ECAE57D8D0651 PUSH1 0x2 SLOAD PUSH1 0x40 MLOAD PUSH2 0xD67 SWAP2 SWAP1 PUSH2 0xEA0 JUMP JUMPDEST PUSH1 0x40 MLOAD DUP1 SWAP2 SUB SWAP1 LOG2 JUMP JUMPDEST PUSH0 PUSH20 0xFFFFFFFFFFFFFFFFFFFFFFFFFFFFFFFFFFFFFFFF DUP3 AND SWAP1 POP SWAP2 SWAP1 POP JUMP JUMPDEST PUSH0 PUSH2 0xD9A DUP3 PUSH2 0xD71 JUMP JUMPDEST SWAP1 POP SWAP2 SWAP1 POP JUMP JUMPDEST PUSH2 0xDAA DUP2 PUSH2 0xD90 JUMP JUMPDEST DUP3 MSTORE POP POP JUMP JUMPDEST PUSH0 PUSH1 0x20 DUP3 ADD SWAP1 POP PUSH2 0xDC3 PUSH0 DUP4 ADD DUP5 PUSH2 0xDA1 JUMP JUMPDEST SWAP3 SWAP2 POP POP JUMP JUMPDEST PUSH0 DUP2 ISZERO ISZERO SWAP1 POP SWAP2 SWAP1 POP JUMP JUMPDEST PUSH2 0xDDD DUP2 PUSH2 0xDC9 JUMP JUMPDEST DUP3 MSTORE POP POP JUMP JUMPDEST PUSH0 PUSH1 0x20 DUP3 ADD SWAP1 POP PUSH2 0xDF6 PUSH0 DUP4 ADD DUP5 PUSH2 0xDD4 JUMP JUMPDEST SWAP3 SWAP2 POP POP JUMP JUMPDEST PUSH32 0x4E487B7100000000000000000000000000000000000000000000000000000000 PUSH0 MSTORE PUSH1 0x21 PUSH1 0x4 MSTORE PUSH1 0x24 PUSH0 REVERT JUMPDEST PUSH1 0x5 DUP2 LT PUSH2 0xE3A JUMPI PUSH2 0xE39 PUSH2 0xDFC JUMP JUMPDEST JUMPDEST POP JUMP JUMPDEST PUSH0 DUP2 SWAP1 POP PUSH2 0xE4A DUP3 PUSH2 0xE29 JUMP JUMPDEST SWAP2 SWAP1 POP JUMP JUMPDEST PUSH0 PUSH2 0xE59 DUP3 PUSH2 0xE3D JUMP JUMPDEST SWAP1 POP SWAP2 SWAP1 POP JUMP JUMPDEST PUSH2 0xE69 DUP2 PUSH2 0xE4F JUMP JUMPDEST DUP3 MSTORE POP POP JUMP JUMPDEST PUSH0 PUSH1 0x20 DUP3 ADD SWAP1 POP PUSH2 0xE82 PUSH0 DUP4 ADD DUP5 PUSH2 0xE60 JUMP JUMPDEST SWAP3 SWAP2 POP POP JUMP JUMPDEST PUSH0 DUP2 SWAP1 POP SWAP2 SWAP1 POP JUMP JUMPDEST PUSH2 0xE9A DUP2 PUSH2 0xE88 JUMP JUMPDEST DUP3 MSTORE POP POP JUMP JUMPDEST PUSH0 PUSH1 0x20 DUP3 ADD SWAP1 POP PUSH2 0xEB3 PUSH0 DUP4 ADD DUP5 PUSH2 0xE91 JUMP JUMPDEST SWAP3 SWAP2 POP POP JUMP JUMPDEST PUSH0 DUP1 REVERT JUMPDEST PUSH2 0xEC6 DUP2 PUSH2 0xD90 JUMP JUMPDEST DUP2 EQ PUSH2 0xED0 JUMPI PUSH0 DUP1 REVERT JUMPDEST POP JUMP JUMPDEST PUSH0 DUP2 CALLDATALOAD SWAP1 POP PUSH2 0xEE1 DUP2 PUSH2 0xEBD JUMP JUMPDEST SWAP3 SWAP2 POP POP JUMP JUMPDEST PUSH0 PUSH1 0x20 DUP3 DUP5 SUB SLT ISZERO PUSH2 0xEFC JUMPI PUSH2 0xEFB PUSH2 0xEB9 JUMP JUMPDEST JUMPDEST PUSH0 PUSH2 0xF09 DUP5 DUP3 DUP6 ADD PUSH2 0xED3 JUMP JUMPDEST SWAP2 POP POP SWAP3 SWAP2 POP POP JUMP JUMPDEST PUSH0 DUP3 DUP3 MSTORE PUSH1 0x20 DUP3 ADD SWAP1 POP SWAP3 SWAP2 POP POP JUMP JUMPDEST PUSH32 0x496E76616C696420737461746500000000000000000000000000000000000000 PUSH0 DUP3 ADD MSTORE POP JUMP JUMPDEST PUSH0 PUSH2 0xF56 PUSH1 0xD DUP4 PUSH2 0xF12 JUMP JUMPDEST SWAP2 POP PUSH2 0xF61 DUP3 PUSH2 0xF22 JUMP JUMPDEST PUSH1 0x20 DUP3 ADD SWAP1 POP SWAP2 SWAP1 POP JUMP JUMPDEST PUSH0 PUSH1 0x20 DUP3 ADD SWAP1 POP DUP2 DUP2 SUB PUSH0 DUP4 ADD MSTORE PUSH2 0xF83 DUP2 PUSH2 0xF4A JUMP JUMPDEST SWAP1 POP SWAP2 SWAP1 POP JUMP JUMPDEST PUSH32 0x556E617574686F72697A65640000000000000000000000000000000000000000 PUSH0 DUP3 ADD MSTORE POP JUMP JUMPDEST PUSH0 PUSH2 0xFBE PUSH1 0xC DUP4 PUSH2 0xF12 JUMP JUMPDEST SWAP2 POP PUSH2 0xFC9 DUP3 PUSH2 0xF8A JUMP JUMPDEST PUSH1 0x20 DUP3 ADD SWAP1 POP SWAP2 SWAP1 POP JUMP JUMPDEST PUSH0 PUSH1 0x20 DUP3 ADD SWAP1 POP DUP2 DUP2 SUB PUSH0 DUP4 ADD MSTORE PUSH2 0xFEB DUP2 PUSH2 0xFB2 JUMP JUMPDEST SWAP1 POP SWAP2 SWAP1 POP JUMP JUMPDEST PUSH32 0x4F6E6C792062757965722063616E2063616C6C20746869730000000000000000 PUSH0 DUP3 ADD MSTORE POP JUMP JUMPDEST PUSH0 PUSH2 0x1026 PUSH1 0x18 DUP4 PUSH2 0xF12 JUMP JUMPDEST SWAP2 POP PUSH2 0x1031 DUP3 PUSH2 0xFF2 JUMP JUMPDEST PUSH1 0x20 DUP3 ADD SWAP1 POP SWAP2 SWAP1 POP JUMP JUMPDEST PUSH0 PUSH1 0x20 DUP3 ADD SWAP1 POP DUP2 DUP2 SUB PUSH0 DUP4 ADD MSTORE PUSH2 0x1053 DUP2 PUSH2 0x101A JUMP JUMPDEST SWAP1 POP SWAP2 SWAP1 POP JUMP JUMPDEST PUSH32 0x4465706F73697420616D6F756E74206D75737420626520677265617465722074 PUSH0 DUP3 ADD MSTORE PUSH32 0x68616E2030000000000000000000000000000000000000000000000000000000 PUSH1 0x20 DUP3 ADD MSTORE POP JUMP JUMPDEST PUSH0 PUSH2 0x10B4 PUSH1 0x25 DUP4 PUSH2 0xF12 JUMP JUMPDEST SWAP2 POP PUSH2 0x10BF DUP3 PUSH2 0x105A JUMP JUMPDEST PUSH1 0x40 DUP3 ADD SWAP1 POP SWAP2 SWAP1 POP JUMP JUMPDEST PUSH0 PUSH1 0x20 DUP3 ADD SWAP1 POP DUP2 DUP2 SUB PUSH0 DUP4 ADD MSTORE PUSH2 0x10E1 DUP2 PUSH2 0x10A8 JUMP JUMPDEST SWAP1 POP SWAP2 SWAP1 POP JUMP JUMPDEST PUSH32 0x4F6E6C792073656C6C65722063616E2063616C6C207468697300000000000000 PUSH0 DUP3 ADD MSTORE POP JUMP JUMPDEST PUSH0 PUSH2 0x111C PUSH1 0x19 DUP4 PUSH2 0xF12 JUMP JUMPDEST SWAP2 POP PUSH2 0x1127 DUP3 PUSH2 0x10E8 JUMP JUMPDEST PUSH1 0x20 DUP3 ADD SWAP1 POP SWAP2 SWAP1 POP JUMP JUMPDEST PUSH0 PUSH1 0x20 DUP3 ADD SWAP1 POP DUP2 DUP2 SUB PUSH0 DUP4 ADD MSTORE PUSH2 0x1149 DUP2 PUSH2 0x1110 JUMP JUMPDEST SWAP1 POP SWAP2 SWAP1 POP JUMP JUMPDEST PUSH32 0x4F6E6C792061726269747261746F722063616E2063616C6C2074686973000000 PUSH0 DUP3 ADD MSTORE POP JUMP JUMPDEST PUSH0 PUSH2 0x1184 PUSH1 0x1D DUP4 PUSH2 0xF12 JUMP JUMPDEST SWAP2 POP PUSH2 0x118F DUP3 PUSH2 0x1150 JUMP JUMPDEST PUSH1 0x20 DUP3 ADD SWAP1 POP SWAP2 SWAP1 POP JUMP JUMPDEST PUSH0 PUSH1 0x20 DUP3 ADD SWAP1 POP DUP2 DUP2 SUB PUSH0 DUP4 ADD MSTORE PUSH2 0x11B1 DUP2 PUSH2 0x1178 JUMP JUMPDEST SWAP1 POP SWAP2 SWAP1 POP JUMP INVALID LOG2 PUSH5 0x6970667358 0x22 SLT KECCAK256 PUSH32 0xF536C82F04F6AC1CB65CDA5C1ED5F7A09242D0B543452438340811E20A21EA64 PUSH20 0x6F6C634300081A00330000000000000000000000 "
				},
				"gasEstimates": {
					"creation": {
						"codeDepositCost": "918000",
						"executionCost": "infinite",
						"totalCost": "infinite"
					},
					"external": {
						"amount()": "2469",
						"arbitrator()": "infinite",
						"buyer()": "2505",
						"buyerConfirmed()": "2533",
						"currentState()": "2650",
						"deposit()": "52657",
						"raiseDispute()": "32357",
						"releaseToSeller()": "infinite",
						"requestRefund()": "infinite",
						"resolveDispute(address)": "infinite",
						"seller()": "2509",
						"sellerRefundRequested()": "2540"
					},
					"internal": {
						"_completeTransaction(address payable)": "infinite",
						"_refundBuyer()": "infinite"
					}
				},
				"methodIdentifiers": {
					"amount()": "aa8c217c",
					"arbitrator()": "6cc6cde1",
					"buyer()": "7150d8ae",
					"buyerConfirmed()": "48a1335a",
					"currentState()": "0c3f6acf",
					"deposit()": "d0e30db0",
					"raiseDispute()": "6daa2d44",
					"releaseToSeller()": "892a0e42",
					"requestRefund()": "d5cef133",
					"resolveDispute(address)": "d8461182",
					"seller()": "08551a53",
					"sellerRefundRequested()": "09671514"
				}
			},
			"storageLayout": {
				"storage": [
					{
						"astId": 3,
						"contract": "Day-24/code1.sol:Escrow",
						"label": "buyer",
						"offset": 0,
						"slot": "0",
						"type": "t_address"
					},
					{
						"astId": 5,
						"contract": "Day-24/code1.sol:Escrow",
						"label": "seller",
						"offset": 0,
						"slot": "1",
						"type": "t_address"
					},
					{
						"astId": 16,
						"contract": "Day-24/code1.sol:Escrow",
						"label": "currentState",
						"offset": 20,
						"slot": "1",
						"type": "t_enum(State)13"
					},
					{
						"astId": 18,
						"contract": "Day-24/code1.sol:Escrow",
						"label": "amount",
						"offset": 0,
						"slot": "2",
						"type": "t_uint256"
					},
					{
						"astId": 20,
						"contract": "Day-24/code1.sol:Escrow",
						"label": "buyerConfirmed",
						"offset": 0,
						"slot": "3",
						"type": "t_bool"
					},
					{
						"astId": 22,
						"contract": "Day-24/code1.sol:Escrow",
						"label": "sellerRefundRequested",
						"offset": 1,
						"slot": "3",
						"type": "t_bool"
					}
				],
				"types": {
					"t_address": {
						"encoding": "inplace",
						"label": "address",
						"numberOfBytes": "20"
					},
					"t_bool": {
						"encoding": "inplace",
						"label": "bool",
						"numberOfBytes": "1"
					},
					"t_enum(State)13": {
						"encoding": "inplace",
						"label": "enum Escrow.State",
						"numberOfBytes": "1"
					},
					"t_uint256": {
						"encoding": "inplace",
						"label": "uint256",
						"numberOfBytes": "32"
					}
				}
			},
			"userdoc": {
				"kind": "user",
				"methods": {},
				"version": 1
			}
		}
	}
}