{
	"latency.sol": {
		"BlockLatencyReason": {
			"abi": [
				{
					"inputs": [],
					"stateMutability": "nonpayable",
					"type": "constructor"
				},
				{
					"inputs": [
						{
							"internalType": "uint256",
							"name": "",
							"type": "uint256"
						}
					],
					"name": "blockReasons",
					"outputs": [
						{
							"internalType": "string",
							"name": "reason",
							"type": "string"
						}
					],
					"stateMutability": "view",
					"type": "function"
				},
				{
					"inputs": [
						{
							"internalType": "uint256",
							"name": "blockNumber",
							"type": "uint256"
						}
					],
					"name": "getLatency",
					"outputs": [
						{
							"internalType": "string",
							"name": "reason",
							"type": "string"
						},
						{
							"internalType": "uint256",
							"name": "latency",
							"type": "uint256"
						}
					],
					"stateMutability": "view",
					"type": "function"
				}
			],
			"devdoc": {
				"kind": "dev",
				"methods": {},
				"version": 1
			},
			"evm": {
				"assembly": "    /* \"latency.sol\":61:2184  contract BlockLatencyReason {... */\n  mstore(0x40, 0x80)\n    /* \"latency.sol\":215:1700  constructor() {... */\n  callvalue\n  dup1\n  iszero\n  tag_1\n  jumpi\n  0x00\n  dup1\n  revert\ntag_1:\n  pop\n    /* \"latency.sol\":268:329  BlockInfo(\"Farmer KYC submission  Initial transaction setup\") */\n  mload(0x40)\n  dup1\n  0x20\n  add\n  0x40\n  mstore\n  dup1\n  mload(0x40)\n  dup1\n  0x60\n  add\n  0x40\n  mstore\n  dup1\n  0x30\n  dup2\n  mstore\n  0x20\n  add\n  data_3ea29e39784d2e124555bcc2750afdb1be4f3eed87560e89e0167384d2b5076d\n  0x30\n  swap2\n  codecopy\n  dup2\n  mstore\n  pop\n    /* \"latency.sol\":250:262  blockReasons */\n  0x00\n    /* \"latency.sol\":250:265  blockReasons[1] */\n  dup1\n    /* \"latency.sol\":263:264  1 */\n  0x01\n    /* \"latency.sol\":250:265  blockReasons[1] */\n  dup2\n  mstore\n  0x20\n  add\n  swap1\n  dup2\n  mstore\n  0x20\n  add\n  0x00\n  keccak256\n    /* \"latency.sol\":250:329  blockReasons[1] = BlockInfo(\"Farmer KYC submission  Initial transaction setup\") */\n  0x00\n  dup3\n  add\n  mload\n  dup2\n  0x00\n  add\n  swap1\n  dup2\n  tag_4\n  swap2\n  swap1\n  tag_5\n  jump\t// in\ntag_4:\n  pop\n  swap1\n  pop\n  pop\n    /* \"latency.sol\":358:430  BlockInfo(\"Govt. Fund Allocation  Subsidy approval and fund allocation\") */\n  mload(0x40)\n  dup1\n  0x20\n  add\n  0x40\n  mstore\n  dup1\n  mload(0x40)\n  dup1\n  0x60\n  add\n  0x40\n  mstore\n  dup1\n  0x3b\n  dup2\n  mstore\n  0x20\n  add\n  data_b98b5915c3554cfa753a494987091005f75c40d8b52eb926cf238b2529019805\n  0x3b\n  swap2\n  codecopy\n  dup2\n  mstore\n  pop\n    /* \"latency.sol\":340:352  blockReasons */\n  0x00\n    /* \"latency.sol\":340:355  blockReasons[2] */\n  dup1\n    /* \"latency.sol\":353:354  2 */\n  0x02\n    /* \"latency.sol\":340:355  blockReasons[2] */\n  dup2\n  mstore\n  0x20\n  add\n  swap1\n  dup2\n  mstore\n  0x20\n  add\n  0x00\n  keccak256\n    /* \"latency.sol\":340:430  blockReasons[2] = BlockInfo(\"Govt. Fund Allocation  Subsidy approval and fund allocation\") */\n  0x00\n  dup3\n  add\n  mload\n  dup2\n  0x00\n  add\n  swap1\n  dup2\n  tag_6\n  swap2\n  swap1\n  tag_5\n  jump\t// in\ntag_6:\n  pop\n  swap1\n  pop\n  pop\n    /* \"latency.sol\":459:523  BlockInfo(\"Seed wholesaler order Seed supply request confirmed\") */\n  mload(0x40)\n  dup1\n  0x20\n  add\n  0x40\n  mstore\n  dup1\n  mload(0x40)\n  dup1\n  0x60\n  add\n  0x40\n  mstore\n  dup1\n  0x33\n  dup2\n  mstore\n  0x20\n  add\n  data_d4f6638fea6164c12ac44e7ab19ae26b89a4a7d2da79d200acdf85eee10de2f7\n  0x33\n  swap2\n  codecopy\n  dup2\n  mstore\n  pop\n    /* \"latency.sol\":441:453  blockReasons */\n  0x00\n    /* \"latency.sol\":441:456  blockReasons[3] */\n  dup1\n    /* \"latency.sol\":454:455  3 */\n  0x03\n    /* \"latency.sol\":441:456  blockReasons[3] */\n  dup2\n  mstore\n  0x20\n  add\n  swap1\n  dup2\n  mstore\n  0x20\n  add\n  0x00\n  keccak256\n    /* \"latency.sol\":441:523  blockReasons[3] = BlockInfo(\"Seed wholesaler order Seed supply request confirmed\") */\n  0x00\n  dup3\n  add\n  mload\n  dup2\n  0x00\n  add\n  swap1\n  dup2\n  tag_7\n  swap2\n  swap1\n  tag_5\n  jump\t// in\ntag_7:\n  pop\n  swap1\n  pop\n  pop\n    /* \"latency.sol\":552:615  BlockInfo(\"Seed delivery to farmer Digital order confirmation\") */\n  mload(0x40)\n  dup1\n  0x20\n  add\n  0x40\n  mstore\n  dup1\n  mload(0x40)\n  dup1\n  0x60\n  add\n  0x40\n  mstore\n  dup1\n  0x32\n  dup2\n  mstore\n  0x20\n  add\n  data_162d696d8ff892c164983f209506a8a287a8d09639b4c9afbc8b1977d27bbe9e\n  0x32\n  swap2\n  codecopy\n  dup2\n  mstore\n  pop\n    /* \"latency.sol\":534:546  blockReasons */\n  0x00\n    /* \"latency.sol\":534:549  blockReasons[4] */\n  dup1\n    /* \"latency.sol\":547:548  4 */\n  0x04\n    /* \"latency.sol\":534:549  blockReasons[4] */\n  dup2\n  mstore\n  0x20\n  add\n  swap1\n  dup2\n  mstore\n  0x20\n  add\n  0x00\n  keccak256\n    /* \"latency.sol\":534:615  blockReasons[4] = BlockInfo(\"Seed delivery to farmer Digital order confirmation\") */\n  0x00\n  dup3\n  add\n  mload\n  dup2\n  0x00\n  add\n  swap1\n  dup2\n  tag_8\n  swap2\n  swap1\n  tag_5\n  jump\t// in\ntag_8:\n  pop\n  swap1\n  pop\n  pop\n    /* \"latency.sol\":644:715  BlockInfo(\"Payment release to wholesaler Delivery tracking validation\") */\n  mload(0x40)\n  dup1\n  0x20\n  add\n  0x40\n  mstore\n  dup1\n  mload(0x40)\n  dup1\n  0x60\n  add\n  0x40\n  mstore\n  dup1\n  0x3a\n  dup2\n  mstore\n  0x20\n  add\n  data_410bae402133d3b078e0be1f129fd19fc0ddf1aae4814b89c9c98b864cd66691\n  0x3a\n  swap2\n  codecopy\n  dup2\n  mstore\n  pop\n    /* \"latency.sol\":626:638  blockReasons */\n  0x00\n    /* \"latency.sol\":626:641  blockReasons[5] */\n  dup1\n    /* \"latency.sol\":639:640  5 */\n  0x05\n    /* \"latency.sol\":626:641  blockReasons[5] */\n  dup2\n  mstore\n  0x20\n  add\n  swap1\n  dup2\n  mstore\n  0x20\n  add\n  0x00\n  keccak256\n    /* \"latency.sol\":626:715  blockReasons[5] = BlockInfo(\"Payment release to wholesaler Delivery tracking validation\") */\n  0x00\n  dup3\n  add\n  mload\n  dup2\n  0x00\n  add\n  swap1\n  dup2\n  tag_9\n  swap2\n  swap1\n  tag_5\n  jump\t// in\ntag_9:\n  pop\n  swap1\n  pop\n  pop\n    /* \"latency.sol\":744:801  BlockInfo(\"Crop Growth and harvest Crop sowing recorded\") */\n  mload(0x40)\n  dup1\n  0x20\n  add\n  0x40\n  mstore\n  dup1\n  mload(0x40)\n  dup1\n  0x60\n  add\n  0x40\n  mstore\n  dup1\n  0x2c\n  dup2\n  mstore\n  0x20\n  add\n  data_0f2daabdf8921d011df90a77c048c01ed5ab23b9a480fa394a644166a948b175\n  0x2c\n  swap2\n  codecopy\n  dup2\n  mstore\n  pop\n    /* \"latency.sol\":726:738  blockReasons */\n  0x00\n    /* \"latency.sol\":726:741  blockReasons[6] */\n  dup1\n    /* \"latency.sol\":739:740  6 */\n  0x06\n    /* \"latency.sol\":726:741  blockReasons[6] */\n  dup2\n  mstore\n  0x20\n  add\n  swap1\n  dup2\n  mstore\n  0x20\n  add\n  0x00\n  keccak256\n    /* \"latency.sol\":726:801  blockReasons[6] = BlockInfo(\"Crop Growth and harvest Crop sowing recorded\") */\n  0x00\n  dup3\n  add\n  mload\n  dup2\n  0x00\n  add\n  swap1\n  dup2\n  tag_10\n  swap2\n  swap1\n  tag_5\n  jump\t// in\ntag_10:\n  pop\n  swap1\n  pop\n  pop\n    /* \"latency.sol\":830:899  BlockInfo(\"Received harvest crop from farmer Field monitoring entry\") */\n  mload(0x40)\n  dup1\n  0x20\n  add\n  0x40\n  mstore\n  dup1\n  mload(0x40)\n  dup1\n  0x60\n  add\n  0x40\n  mstore\n  dup1\n  0x38\n  dup2\n  mstore\n  0x20\n  add\n  data_aef2d42ea2e2580b45bfcbfc260ab2da8bdd90ccf802df695be1f6e10dc9c805\n  0x38\n  swap2\n  codecopy\n  dup2\n  mstore\n  pop\n    /* \"latency.sol\":812:824  blockReasons */\n  0x00\n    /* \"latency.sol\":812:827  blockReasons[7] */\n  dup1\n    /* \"latency.sol\":825:826  7 */\n  0x07\n    /* \"latency.sol\":812:827  blockReasons[7] */\n  dup2\n  mstore\n  0x20\n  add\n  swap1\n  dup2\n  mstore\n  0x20\n  add\n  0x00\n  keccak256\n    /* \"latency.sol\":812:899  blockReasons[7] = BlockInfo(\"Received harvest crop from farmer Field monitoring entry\") */\n  0x00\n  dup3\n  add\n  mload\n  dup2\n  0x00\n  add\n  swap1\n  dup2\n  tag_11\n  swap2\n  swap1\n  tag_5\n  jump\t// in\ntag_11:\n  pop\n  swap1\n  pop\n  pop\n    /* \"latency.sol\":928:989  BlockInfo(\"Send corn to processing unit IoT data monitoring\") */\n  mload(0x40)\n  dup1\n  0x20\n  add\n  0x40\n  mstore\n  dup1\n  mload(0x40)\n  dup1\n  0x60\n  add\n  0x40\n  mstore\n  dup1\n  0x30\n  dup2\n  mstore\n  0x20\n  add\n  data_717430a2b948e8e28ae9d875d280589974a36d963cedec1491790d3264817634\n  0x30\n  swap2\n  codecopy\n  dup2\n  mstore\n  pop\n    /* \"latency.sol\":910:922  blockReasons */\n  0x00\n    /* \"latency.sol\":910:925  blockReasons[8] */\n  dup1\n    /* \"latency.sol\":923:924  8 */\n  0x08\n    /* \"latency.sol\":910:925  blockReasons[8] */\n  dup2\n  mstore\n  0x20\n  add\n  swap1\n  dup2\n  mstore\n  0x20\n  add\n  0x00\n  keccak256\n    /* \"latency.sol\":910:989  blockReasons[8] = BlockInfo(\"Send corn to processing unit IoT data monitoring\") */\n  0x00\n  dup3\n  add\n  mload\n  dup2\n  0x00\n  add\n  swap1\n  dup2\n  tag_12\n  swap2\n  swap1\n  tag_5\n  jump\t// in\ntag_12:\n  pop\n  swap1\n  pop\n  pop\n    /* \"latency.sol\":1018:1073  BlockInfo(\"Retail distribution Transport & validation\") */\n  mload(0x40)\n  dup1\n  0x20\n  add\n  0x40\n  mstore\n  dup1\n  mload(0x40)\n  dup1\n  0x60\n  add\n  0x40\n  mstore\n  dup1\n  0x2a\n  dup2\n  mstore\n  0x20\n  add\n  data_65512260639b4fcb1f618888a9f0547c7e9ba38bcaf78b579131a661a4859f1c\n  0x2a\n  swap2\n  codecopy\n  dup2\n  mstore\n  pop\n    /* \"latency.sol\":1000:1012  blockReasons */\n  0x00\n    /* \"latency.sol\":1000:1015  blockReasons[9] */\n  dup1\n    /* \"latency.sol\":1013:1014  9 */\n  0x09\n    /* \"latency.sol\":1000:1015  blockReasons[9] */\n  dup2\n  mstore\n  0x20\n  add\n  swap1\n  dup2\n  mstore\n  0x20\n  add\n  0x00\n  keccak256\n    /* \"latency.sol\":1000:1073  blockReasons[9] = BlockInfo(\"Retail distribution Transport & validation\") */\n  0x00\n  dup3\n  add\n  mload\n  dup2\n  0x00\n  add\n  swap1\n  dup2\n  tag_13\n  swap2\n  swap1\n  tag_5\n  jump\t// in\ntag_13:\n  pop\n  swap1\n  pop\n  pop\n    /* \"latency.sol\":1103:1163  BlockInfo(\"Consumer Purchase Computation and quality check\") */\n  mload(0x40)\n  dup1\n  0x20\n  add\n  0x40\n  mstore\n  dup1\n  mload(0x40)\n  dup1\n  0x60\n  add\n  0x40\n  mstore\n  dup1\n  0x2f\n  dup2\n  mstore\n  0x20\n  add\n  data_3e689171a078c81a3bd46540e70e5609178852e98fcb585e70e70fa870699908\n  0x2f\n  swap2\n  codecopy\n  dup2\n  mstore\n  pop\n    /* \"latency.sol\":1084:1096  blockReasons */\n  0x00\n    /* \"latency.sol\":1084:1100  blockReasons[10] */\n  dup1\n    /* \"latency.sol\":1097:1099  10 */\n  0x0a\n    /* \"latency.sol\":1084:1100  blockReasons[10] */\n  dup2\n  mstore\n  0x20\n  add\n  swap1\n  dup2\n  mstore\n  0x20\n  add\n  0x00\n  keccak256\n    /* \"latency.sol\":1084:1163  blockReasons[10] = BlockInfo(\"Consumer Purchase Computation and quality check\") */\n  0x00\n  dup3\n  add\n  mload\n  dup2\n  0x00\n  add\n  swap1\n  dup2\n  tag_14\n  swap2\n  swap1\n  tag_5\n  jump\t// in\ntag_14:\n  pop\n  swap1\n  pop\n  pop\n    /* \"latency.sol\":1193:1251  BlockInfo(\"Retail distribution Consumer level checkpoint\") */\n  mload(0x40)\n  dup1\n  0x20\n  add\n  0x40\n  mstore\n  dup1\n  mload(0x40)\n  dup1\n  0x60\n  add\n  0x40\n  mstore\n  dup1\n  0x2d\n  dup2\n  mstore\n  0x20\n  add\n  data_5479c83749de5abc256166b3ca8be557d20d27fe626ee4eed4b9f92cc544aefe\n  0x2d\n  swap2\n  codecopy\n  dup2\n  mstore\n  pop\n    /* \"latency.sol\":1174:1186  blockReasons */\n  0x00\n    /* \"latency.sol\":1174:1190  blockReasons[11] */\n  dup1\n    /* \"latency.sol\":1187:1189  11 */\n  0x0b\n    /* \"latency.sol\":1174:1190  blockReasons[11] */\n  dup2\n  mstore\n  0x20\n  add\n  swap1\n  dup2\n  mstore\n  0x20\n  add\n  0x00\n  keccak256\n    /* \"latency.sol\":1174:1251  blockReasons[11] = BlockInfo(\"Retail distribution Consumer level checkpoint\") */\n  0x00\n  dup3\n  add\n  mload\n  dup2\n  0x00\n  add\n  swap1\n  dup2\n  tag_15\n  swap2\n  swap1\n  tag_5\n  jump\t// in\ntag_15:\n  pop\n  swap1\n  pop\n  pop\n    /* \"latency.sol\":1281:1335  BlockInfo(\"Wholesaler to consumer Demand aggregation\") */\n  mload(0x40)\n  dup1\n  0x20\n  add\n  0x40\n  mstore\n  dup1\n  mload(0x40)\n  dup1\n  0x60\n  add\n  0x40\n  mstore\n  dup1\n  0x29\n  dup2\n  mstore\n  0x20\n  add\n  data_4d21a24d4c4b7da178fcef76e46bfc3812b02d19179a7541d04696034f47d2c0\n  0x29\n  swap2\n  codecopy\n  dup2\n  mstore\n  pop\n    /* \"latency.sol\":1262:1274  blockReasons */\n  0x00\n    /* \"latency.sol\":1262:1278  blockReasons[12] */\n  dup1\n    /* \"latency.sol\":1275:1277  12 */\n  0x0c\n    /* \"latency.sol\":1262:1278  blockReasons[12] */\n  dup2\n  mstore\n  0x20\n  add\n  swap1\n  dup2\n  mstore\n  0x20\n  add\n  0x00\n  keccak256\n    /* \"latency.sol\":1262:1335  blockReasons[12] = BlockInfo(\"Wholesaler to consumer Demand aggregation\") */\n  0x00\n  dup3\n  add\n  mload\n  dup2\n  0x00\n  add\n  swap1\n  dup2\n  tag_16\n  swap2\n  swap1\n  tag_5\n  jump\t// in\ntag_16:\n  pop\n  swap1\n  pop\n  pop\n    /* \"latency.sol\":1365:1424  BlockInfo(\"Consumer purchase Multiple buyers transactions\") */\n  mload(0x40)\n  dup1\n  0x20\n  add\n  0x40\n  mstore\n  dup1\n  mload(0x40)\n  dup1\n  0x60\n  add\n  0x40\n  mstore\n  dup1\n  0x2e\n  dup2\n  mstore\n  0x20\n  add\n  data_85a3539d7f8a59bc86fe5b9616747b08a8c592ae61598e3b6356312b6b973de9\n  0x2e\n  swap2\n  codecopy\n  dup2\n  mstore\n  pop\n    /* \"latency.sol\":1346:1358  blockReasons */\n  0x00\n    /* \"latency.sol\":1346:1362  blockReasons[13] */\n  dup1\n    /* \"latency.sol\":1359:1361  13 */\n  0x0d\n    /* \"latency.sol\":1346:1362  blockReasons[13] */\n  dup2\n  mstore\n  0x20\n  add\n  swap1\n  dup2\n  mstore\n  0x20\n  add\n  0x00\n  keccak256\n    /* \"latency.sol\":1346:1424  blockReasons[13] = BlockInfo(\"Consumer purchase Multiple buyers transactions\") */\n  0x00\n  dup3\n  add\n  mload\n  dup2\n  0x00\n  add\n  swap1\n  dup2\n  tag_17\n  swap2\n  swap1\n  tag_5\n  jump\t// in\ntag_17:\n  pop\n  swap1\n  pop\n  pop\n    /* \"latency.sol\":1454:1516  BlockInfo(\"Payment settlement Simple settlement confirmation\") */\n  mload(0x40)\n  dup1\n  0x20\n  add\n  0x40\n  mstore\n  dup1\n  mload(0x40)\n  dup1\n  0x60\n  add\n  0x40\n  mstore\n  dup1\n  0x31\n  dup2\n  mstore\n  0x20\n  add\n  data_b3a3fc01435de4c0caeac50dc263cfb5c3fae97a2e5726374a32ff48302fc000\n  0x31\n  swap2\n  codecopy\n  dup2\n  mstore\n  pop\n    /* \"latency.sol\":1435:1447  blockReasons */\n  0x00\n    /* \"latency.sol\":1435:1451  blockReasons[14] */\n  dup1\n    /* \"latency.sol\":1448:1450  14 */\n  0x0e\n    /* \"latency.sol\":1435:1451  blockReasons[14] */\n  dup2\n  mstore\n  0x20\n  add\n  swap1\n  dup2\n  mstore\n  0x20\n  add\n  0x00\n  keccak256\n    /* \"latency.sol\":1435:1516  blockReasons[14] = BlockInfo(\"Payment settlement Simple settlement confirmation\") */\n  0x00\n  dup3\n  add\n  mload\n  dup2\n  0x00\n  add\n  swap1\n  dup2\n  tag_18\n  swap2\n  swap1\n  tag_5\n  jump\t// in\ntag_18:\n  pop\n  swap1\n  pop\n  pop\n    /* \"latency.sol\":1546:1602  BlockInfo(\"Repeat transaction Optimized repeat pattern\") */\n  mload(0x40)\n  dup1\n  0x20\n  add\n  0x40\n  mstore\n  dup1\n  mload(0x40)\n  dup1\n  0x60\n  add\n  0x40\n  mstore\n  dup1\n  0x2b\n  dup2\n  mstore\n  0x20\n  add\n  data_aa41a8fc5618b06660047ef6ab8d5a863481f6d9b8e1b0a12036519db532fa37\n  0x2b\n  swap2\n  codecopy\n  dup2\n  mstore\n  pop\n    /* \"latency.sol\":1527:1539  blockReasons */\n  0x00\n    /* \"latency.sol\":1527:1543  blockReasons[15] */\n  dup1\n    /* \"latency.sol\":1540:1542  15 */\n  0x0f\n    /* \"latency.sol\":1527:1543  blockReasons[15] */\n  dup2\n  mstore\n  0x20\n  add\n  swap1\n  dup2\n  mstore\n  0x20\n  add\n  0x00\n  keccak256\n    /* \"latency.sol\":1527:1602  blockReasons[15] = BlockInfo(\"Repeat transaction Optimized repeat pattern\") */\n  0x00\n  dup3\n  add\n  mload\n  dup2\n  0x00\n  add\n  swap1\n  dup2\n  tag_19\n  swap2\n  swap1\n  tag_5\n  jump\t// in\ntag_19:\n  pop\n  swap1\n  pop\n  pop\n    /* \"latency.sol\":1632:1692  BlockInfo(\"Confirmation Final consumer confirmation record\") */\n  mload(0x40)\n  dup1\n  0x20\n  add\n  0x40\n  mstore\n  dup1\n  mload(0x40)\n  dup1\n  0x60\n  add\n  0x40\n  mstore\n  dup1\n  0x2f\n  dup2\n  mstore\n  0x20\n  add\n  data_7071501aa97dcc9f5c28627ca521caf021618615f470826ce2ec47633b02eadf\n  0x2f\n  swap2\n  codecopy\n  dup2\n  mstore\n  pop\n    /* \"latency.sol\":1613:1625  blockReasons */\n  0x00\n    /* \"latency.sol\":1613:1629  blockReasons[16] */\n  dup1\n    /* \"latency.sol\":1626:1628  16 */\n  0x10\n    /* \"latency.sol\":1613:1629  blockReasons[16] */\n  dup2\n  mstore\n  0x20\n  add\n  swap1\n  dup2\n  mstore\n  0x20\n  add\n  0x00\n  keccak256\n    /* \"latency.sol\":1613:1692  blockReasons[16] = BlockInfo(\"Confirmation Final consumer confirmation record\") */\n  0x00\n  dup3\n  add\n  mload\n  dup2\n  0x00\n  add\n  swap1\n  dup2\n  tag_20\n  swap2\n  swap1\n  tag_5\n  jump\t// in\ntag_20:\n  pop\n  swap1\n  pop\n  pop\n    /* \"latency.sol\":61:2184  contract BlockLatencyReason {... */\n  jump(tag_21)\n    /* \"#utility.yul\":7:106   */\ntag_22:\n    /* \"#utility.yul\":59:65   */\n  0x00\n    /* \"#utility.yul\":93:98   */\n  dup2\n    /* \"#utility.yul\":87:99   */\n  mload\n    /* \"#utility.yul\":77:99   */\n  swap1\n  pop\n    /* \"#utility.yul\":7:106   */\n  swap2\n  swap1\n  pop\n  jump\t// out\n    /* \"#utility.yul\":112:292   */\ntag_23:\n    /* \"#utility.yul\":160:237   */\n  0x4e487b7100000000000000000000000000000000000000000000000000000000\n    /* \"#utility.yul\":157:158   */\n  0x00\n    /* \"#utility.yul\":150:238   */\n  mstore\n    /* \"#utility.yul\":257:261   */\n  0x41\n    /* \"#utility.yul\":254:255   */\n  0x04\n    /* \"#utility.yul\":247:262   */\n  mstore\n    /* \"#utility.yul\":281:285   */\n  0x24\n    /* \"#utility.yul\":278:279   */\n  0x00\n    /* \"#utility.yul\":271:286   */\n  revert\n    /* \"#utility.yul\":298:478   */\ntag_24:\n    /* \"#utility.yul\":346:423   */\n  0x4e487b7100000000000000000000000000000000000000000000000000000000\n    /* \"#utility.yul\":343:344   */\n  0x00\n    /* \"#utility.yul\":336:424   */\n  mstore\n    /* \"#utility.yul\":443:447   */\n  0x22\n    /* \"#utility.yul\":440:441   */\n  0x04\n    /* \"#utility.yul\":433:448   */\n  mstore\n    /* \"#utility.yul\":467:471   */\n  0x24\n    /* \"#utility.yul\":464:465   */\n  0x00\n    /* \"#utility.yul\":457:472   */\n  revert\n    /* \"#utility.yul\":484:804   */\ntag_25:\n    /* \"#utility.yul\":528:534   */\n  0x00\n    /* \"#utility.yul\":565:566   */\n  0x02\n    /* \"#utility.yul\":559:563   */\n  dup3\n    /* \"#utility.yul\":555:567   */\n  div\n    /* \"#utility.yul\":545:567   */\n  swap1\n  pop\n    /* \"#utility.yul\":612:613   */\n  0x01\n    /* \"#utility.yul\":606:610   */\n  dup3\n    /* \"#utility.yul\":602:614   */\n  and\n    /* \"#utility.yul\":633:651   */\n  dup1\n    /* \"#utility.yul\":623:704   */\n  tag_47\n  jumpi\n    /* \"#utility.yul\":689:693   */\n  0x7f\n    /* \"#utility.yul\":681:687   */\n  dup3\n    /* \"#utility.yul\":677:694   */\n  and\n    /* \"#utility.yul\":667:694   */\n  swap2\n  pop\n    /* \"#utility.yul\":623:704   */\ntag_47:\n    /* \"#utility.yul\":751:753   */\n  0x20\n    /* \"#utility.yul\":743:749   */\n  dup3\n    /* \"#utility.yul\":740:754   */\n  lt\n    /* \"#utility.yul\":720:738   */\n  dup2\n    /* \"#utility.yul\":717:755   */\n  sub\n    /* \"#utility.yul\":714:798   */\n  tag_48\n  jumpi\n    /* \"#utility.yul\":770:788   */\n  tag_49\n  tag_24\n  jump\t// in\ntag_49:\n    /* \"#utility.yul\":714:798   */\ntag_48:\n    /* \"#utility.yul\":535:804   */\n  pop\n    /* \"#utility.yul\":484:804   */\n  swap2\n  swap1\n  pop\n  jump\t// out\n    /* \"#utility.yul\":810:951   */\ntag_26:\n    /* \"#utility.yul\":859:863   */\n  0x00\n    /* \"#utility.yul\":882:885   */\n  dup2\n    /* \"#utility.yul\":874:885   */\n  swap1\n  pop\n    /* \"#utility.yul\":905:908   */\n  dup2\n    /* \"#utility.yul\":902:903   */\n  0x00\n    /* \"#utility.yul\":895:909   */\n  mstore\n    /* \"#utility.yul\":939:943   */\n  0x20\n    /* \"#utility.yul\":936:937   */\n  0x00\n    /* \"#utility.yul\":926:944   */\n  keccak256\n    /* \"#utility.yul\":918:944   */\n  swap1\n  pop\n    /* \"#utility.yul\":810:951   */\n  swap2\n  swap1\n  pop\n  jump\t// out\n    /* \"#utility.yul\":957:1050   */\ntag_27:\n    /* \"#utility.yul\":994:1000   */\n  0x00\n    /* \"#utility.yul\":1041:1043   */\n  0x20\n    /* \"#utility.yul\":1036:1038   */\n  0x1f\n    /* \"#utility.yul\":1029:1034   */\n  dup4\n    /* \"#utility.yul\":1025:1039   */\n  add\n    /* \"#utility.yul\":1021:1044   */\n  div\n    /* \"#utility.yul\":1011:1044   */\n  swap1\n  pop\n    /* \"#utility.yul\":957:1050   */\n  swap2\n  swap1\n  pop\n  jump\t// out\n    /* \"#utility.yul\":1056:1163   */\ntag_28:\n    /* \"#utility.yul\":1100:1108   */\n  0x00\n    /* \"#utility.yul\":1150:1155   */\n  dup3\n    /* \"#utility.yul\":1144:1148   */\n  dup3\n    /* \"#utility.yul\":1140:1156   */\n  shl\n    /* \"#utility.yul\":1119:1156   */\n  swap1\n  pop\n    /* \"#utility.yul\":1056:1163   */\n  swap3\n  swap2\n  pop\n  pop\n  jump\t// out\n    /* \"#utility.yul\":1169:1562   */\ntag_29:\n    /* \"#utility.yul\":1238:1244   */\n  0x00\n    /* \"#utility.yul\":1288:1289   */\n  0x08\n    /* \"#utility.yul\":1276:1286   */\n  dup4\n    /* \"#utility.yul\":1272:1290   */\n  mul\n    /* \"#utility.yul\":1311:1408   */\n  tag_54\n    /* \"#utility.yul\":1341:1407   */\n  0xffffffffffffffffffffffffffffffffffffffffffffffffffffffffffffffff\n    /* \"#utility.yul\":1330:1339   */\n  dup3\n    /* \"#utility.yul\":1311:1408   */\n  tag_28\n  jump\t// in\ntag_54:\n    /* \"#utility.yul\":1429:1468   */\n  tag_55\n    /* \"#utility.yul\":1459:1467   */\n  dup7\n    /* \"#utility.yul\":1448:1457   */\n  dup4\n    /* \"#utility.yul\":1429:1468   */\n  tag_28\n  jump\t// in\ntag_55:\n    /* \"#utility.yul\":1417:1468   */\n  swap6\n  pop\n    /* \"#utility.yul\":1501:1505   */\n  dup1\n    /* \"#utility.yul\":1497:1506   */\n  not\n    /* \"#utility.yul\":1490:1495   */\n  dup5\n    /* \"#utility.yul\":1486:1507   */\n  and\n    /* \"#utility.yul\":1477:1507   */\n  swap4\n  pop\n    /* \"#utility.yul\":1550:1554   */\n  dup1\n    /* \"#utility.yul\":1540:1548   */\n  dup7\n    /* \"#utility.yul\":1536:1555   */\n  and\n    /* \"#utility.yul\":1529:1534   */\n  dup5\n    /* \"#utility.yul\":1526:1556   */\n  or\n    /* \"#utility.yul\":1516:1556   */\n  swap3\n  pop\n    /* \"#utility.yul\":1245:1562   */\n  pop\n  pop\n    /* \"#utility.yul\":1169:1562   */\n  swap4\n  swap3\n  pop\n  pop\n  pop\n  jump\t// out\n    /* \"#utility.yul\":1568:1645   */\ntag_30:\n    /* \"#utility.yul\":1605:1612   */\n  0x00\n    /* \"#utility.yul\":1634:1639   */\n  dup2\n    /* \"#utility.yul\":1623:1639   */\n  swap1\n  pop\n    /* \"#utility.yul\":1568:1645   */\n  swap2\n  swap1\n  pop\n  jump\t// out\n    /* \"#utility.yul\":1651:1711   */\ntag_31:\n    /* \"#utility.yul\":1679:1682   */\n  0x00\n    /* \"#utility.yul\":1700:1705   */\n  dup2\n    /* \"#utility.yul\":1693:1705   */\n  swap1\n  pop\n    /* \"#utility.yul\":1651:1711   */\n  swap2\n  swap1\n  pop\n  jump\t// out\n    /* \"#utility.yul\":1717:1859   */\ntag_32:\n    /* \"#utility.yul\":1767:1776   */\n  0x00\n    /* \"#utility.yul\":1800:1853   */\n  tag_59\n    /* \"#utility.yul\":1818:1852   */\n  tag_60\n    /* \"#utility.yul\":1827:1851   */\n  tag_61\n    /* \"#utility.yul\":1845:1850   */\n  dup5\n    /* \"#utility.yul\":1827:1851   */\n  tag_30\n  jump\t// in\ntag_61:\n    /* \"#utility.yul\":1818:1852   */\n  tag_31\n  jump\t// in\ntag_60:\n    /* \"#utility.yul\":1800:1853   */\n  tag_30\n  jump\t// in\ntag_59:\n    /* \"#utility.yul\":1787:1853   */\n  swap1\n  pop\n    /* \"#utility.yul\":1717:1859   */\n  swap2\n  swap1\n  pop\n  jump\t// out\n    /* \"#utility.yul\":1865:1940   */\ntag_33:\n    /* \"#utility.yul\":1908:1911   */\n  0x00\n    /* \"#utility.yul\":1929:1934   */\n  dup2\n    /* \"#utility.yul\":1922:1934   */\n  swap1\n  pop\n    /* \"#utility.yul\":1865:1940   */\n  swap2\n  swap1\n  pop\n  jump\t// out\n    /* \"#utility.yul\":1946:2215   */\ntag_34:\n    /* \"#utility.yul\":2056:2095   */\n  tag_64\n    /* \"#utility.yul\":2087:2094   */\n  dup4\n    /* \"#utility.yul\":2056:2095   */\n  tag_32\n  jump\t// in\ntag_64:\n    /* \"#utility.yul\":2117:2208   */\n  tag_65\n    /* \"#utility.yul\":2166:2207   */\n  tag_66\n    /* \"#utility.yul\":2190:2206   */\n  dup3\n    /* \"#utility.yul\":2166:2207   */\n  tag_33\n  jump\t// in\ntag_66:\n    /* \"#utility.yul\":2158:2164   */\n  dup5\n    /* \"#utility.yul\":2151:2155   */\n  dup5\n    /* \"#utility.yul\":2145:2156   */\n  sload\n    /* \"#utility.yul\":2117:2208   */\n  tag_29\n  jump\t// in\ntag_65:\n    /* \"#utility.yul\":2111:2115   */\n  dup3\n    /* \"#utility.yul\":2104:2209   */\n  sstore\n    /* \"#utility.yul\":2022:2215   */\n  pop\n    /* \"#utility.yul\":1946:2215   */\n  pop\n  pop\n  pop\n  jump\t// out\n    /* \"#utility.yul\":2221:2294   */\ntag_35:\n    /* \"#utility.yul\":2266:2269   */\n  0x00\n    /* \"#utility.yul\":2221:2294   */\n  swap1\n  jump\t// out\n    /* \"#utility.yul\":2300:2489   */\ntag_36:\n    /* \"#utility.yul\":2377:2409   */\n  tag_69\n  tag_35\n  jump\t// in\ntag_69:\n    /* \"#utility.yul\":2418:2483   */\n  tag_70\n    /* \"#utility.yul\":2476:2482   */\n  dup2\n    /* \"#utility.yul\":2468:2474   */\n  dup5\n    /* \"#utility.yul\":2462:2466   */\n  dup5\n    /* \"#utility.yul\":2418:2483   */\n  tag_34\n  jump\t// in\ntag_70:\n    /* \"#utility.yul\":2353:2489   */\n  pop\n    /* \"#utility.yul\":2300:2489   */\n  pop\n  pop\n  jump\t// out\n    /* \"#utility.yul\":2495:2681   */\ntag_37:\n    /* \"#utility.yul\":2555:2675   */\ntag_72:\n    /* \"#utility.yul\":2572:2575   */\n  dup2\n    /* \"#utility.yul\":2565:2570   */\n  dup2\n    /* \"#utility.yul\":2562:2576   */\n  lt\n    /* \"#utility.yul\":2555:2675   */\n  iszero\n  tag_74\n  jumpi\n    /* \"#utility.yul\":2626:2665   */\n  tag_75\n    /* \"#utility.yul\":2663:2664   */\n  0x00\n    /* \"#utility.yul\":2656:2661   */\n  dup3\n    /* \"#utility.yul\":2626:2665   */\n  tag_36\n  jump\t// in\ntag_75:\n    /* \"#utility.yul\":2599:2600   */\n  0x01\n    /* \"#utility.yul\":2592:2597   */\n  dup2\n    /* \"#utility.yul\":2588:2601   */\n  add\n    /* \"#utility.yul\":2579:2601   */\n  swap1\n  pop\n    /* \"#utility.yul\":2555:2675   */\n  jump(tag_72)\ntag_74:\n    /* \"#utility.yul\":2495:2681   */\n  pop\n  pop\n  jump\t// out\n    /* \"#utility.yul\":2687:3230   */\ntag_38:\n    /* \"#utility.yul\":2788:2790   */\n  0x1f\n    /* \"#utility.yul\":2783:2786   */\n  dup3\n    /* \"#utility.yul\":2780:2791   */\n  gt\n    /* \"#utility.yul\":2777:3223   */\n  iszero\n  tag_77\n  jumpi\n    /* \"#utility.yul\":2822:2860   */\n  tag_78\n    /* \"#utility.yul\":2854:2859   */\n  dup2\n    /* \"#utility.yul\":2822:2860   */\n  tag_26\n  jump\t// in\ntag_78:\n    /* \"#utility.yul\":2906:2935   */\n  tag_79\n    /* \"#utility.yul\":2924:2934   */\n  dup5\n    /* \"#utility.yul\":2906:2935   */\n  tag_27\n  jump\t// in\ntag_79:\n    /* \"#utility.yul\":2896:2904   */\n  dup2\n    /* \"#utility.yul\":2892:2936   */\n  add\n    /* \"#utility.yul\":3089:3091   */\n  0x20\n    /* \"#utility.yul\":3077:3087   */\n  dup6\n    /* \"#utility.yul\":3074:3092   */\n  lt\n    /* \"#utility.yul\":3071:3120   */\n  iszero\n  tag_80\n  jumpi\n    /* \"#utility.yul\":3110:3118   */\n  dup2\n    /* \"#utility.yul\":3095:3118   */\n  swap1\n  pop\n    /* \"#utility.yul\":3071:3120   */\ntag_80:\n    /* \"#utility.yul\":3133:3213   */\n  tag_81\n    /* \"#utility.yul\":3189:3211   */\n  tag_82\n    /* \"#utility.yul\":3207:3210   */\n  dup6\n    /* \"#utility.yul\":3189:3211   */\n  tag_27\n  jump\t// in\ntag_82:\n    /* \"#utility.yul\":3179:3187   */\n  dup4\n    /* \"#utility.yul\":3175:3212   */\n  add\n    /* \"#utility.yul\":3162:3173   */\n  dup3\n    /* \"#utility.yul\":3133:3213   */\n  tag_37\n  jump\t// in\ntag_81:\n    /* \"#utility.yul\":2792:3223   */\n  pop\n  pop\n    /* \"#utility.yul\":2777:3223   */\ntag_77:\n    /* \"#utility.yul\":2687:3230   */\n  pop\n  pop\n  pop\n  jump\t// out\n    /* \"#utility.yul\":3236:3353   */\ntag_39:\n    /* \"#utility.yul\":3290:3298   */\n  0x00\n    /* \"#utility.yul\":3340:3345   */\n  dup3\n    /* \"#utility.yul\":3334:3338   */\n  dup3\n    /* \"#utility.yul\":3330:3346   */\n  shr\n    /* \"#utility.yul\":3309:3346   */\n  swap1\n  pop\n    /* \"#utility.yul\":3236:3353   */\n  swap3\n  swap2\n  pop\n  pop\n  jump\t// out\n    /* \"#utility.yul\":3359:3528   */\ntag_40:\n    /* \"#utility.yul\":3403:3409   */\n  0x00\n    /* \"#utility.yul\":3436:3487   */\n  tag_85\n    /* \"#utility.yul\":3484:3485   */\n  0x00\n    /* \"#utility.yul\":3480:3486   */\n  not\n    /* \"#utility.yul\":3472:3477   */\n  dup5\n    /* \"#utility.yul\":3469:3470   */\n  0x08\n    /* \"#utility.yul\":3465:3478   */\n  mul\n    /* \"#utility.yul\":3436:3487   */\n  tag_39\n  jump\t// in\ntag_85:\n    /* \"#utility.yul\":3432:3488   */\n  not\n    /* \"#utility.yul\":3517:3521   */\n  dup1\n    /* \"#utility.yul\":3511:3515   */\n  dup4\n    /* \"#utility.yul\":3507:3522   */\n  and\n    /* \"#utility.yul\":3497:3522   */\n  swap2\n  pop\n    /* \"#utility.yul\":3410:3528   */\n  pop\n    /* \"#utility.yul\":3359:3528   */\n  swap3\n  swap2\n  pop\n  pop\n  jump\t// out\n    /* \"#utility.yul\":3533:3828   */\ntag_41:\n    /* \"#utility.yul\":3609:3613   */\n  0x00\n    /* \"#utility.yul\":3755:3784   */\n  tag_87\n    /* \"#utility.yul\":3780:3783   */\n  dup4\n    /* \"#utility.yul\":3774:3778   */\n  dup4\n    /* \"#utility.yul\":3755:3784   */\n  tag_40\n  jump\t// in\ntag_87:\n    /* \"#utility.yul\":3747:3784   */\n  swap2\n  pop\n    /* \"#utility.yul\":3817:3820   */\n  dup3\n    /* \"#utility.yul\":3814:3815   */\n  0x02\n    /* \"#utility.yul\":3810:3821   */\n  mul\n    /* \"#utility.yul\":3804:3808   */\n  dup3\n    /* \"#utility.yul\":3801:3822   */\n  or\n    /* \"#utility.yul\":3793:3822   */\n  swap1\n  pop\n    /* \"#utility.yul\":3533:3828   */\n  swap3\n  swap2\n  pop\n  pop\n  jump\t// out\n    /* \"#utility.yul\":3833:5228   */\ntag_5:\n    /* \"#utility.yul\":3950:3987   */\n  tag_89\n    /* \"#utility.yul\":3983:3986   */\n  dup3\n    /* \"#utility.yul\":3950:3987   */\n  tag_22\n  jump\t// in\ntag_89:\n    /* \"#utility.yul\":4052:4070   */\n  0xffffffffffffffff\n    /* \"#utility.yul\":4044:4050   */\n  dup2\n    /* \"#utility.yul\":4041:4071   */\n  gt\n    /* \"#utility.yul\":4038:4094   */\n  iszero\n  tag_90\n  jumpi\n    /* \"#utility.yul\":4074:4092   */\n  tag_91\n  tag_23\n  jump\t// in\ntag_91:\n    /* \"#utility.yul\":4038:4094   */\ntag_90:\n    /* \"#utility.yul\":4118:4156   */\n  tag_92\n    /* \"#utility.yul\":4150:4154   */\n  dup3\n    /* \"#utility.yul\":4144:4155   */\n  sload\n    /* \"#utility.yul\":4118:4156   */\n  tag_25\n  jump\t// in\ntag_92:\n    /* \"#utility.yul\":4203:4270   */\n  tag_93\n    /* \"#utility.yul\":4263:4269   */\n  dup3\n    /* \"#utility.yul\":4255:4261   */\n  dup3\n    /* \"#utility.yul\":4249:4253   */\n  dup6\n    /* \"#utility.yul\":4203:4270   */\n  tag_38\n  jump\t// in\ntag_93:\n    /* \"#utility.yul\":4297:4298   */\n  0x00\n    /* \"#utility.yul\":4321:4325   */\n  0x20\n    /* \"#utility.yul\":4308:4325   */\n  swap1\n  pop\n    /* \"#utility.yul\":4353:4355   */\n  0x1f\n    /* \"#utility.yul\":4345:4351   */\n  dup4\n    /* \"#utility.yul\":4342:4356   */\n  gt\n    /* \"#utility.yul\":4370:4371   */\n  0x01\n    /* \"#utility.yul\":4365:4983   */\n  dup2\n  eq\n  tag_95\n  jumpi\n    /* \"#utility.yul\":5027:5028   */\n  0x00\n    /* \"#utility.yul\":5044:5050   */\n  dup5\n    /* \"#utility.yul\":5041:5118   */\n  iszero\n  tag_96\n  jumpi\n    /* \"#utility.yul\":5093:5102   */\n  dup3\n    /* \"#utility.yul\":5088:5091   */\n  dup8\n    /* \"#utility.yul\":5084:5103   */\n  add\n    /* \"#utility.yul\":5078:5104   */\n  mload\n    /* \"#utility.yul\":5069:5104   */\n  swap1\n  pop\n    /* \"#utility.yul\":5041:5118   */\ntag_96:\n    /* \"#utility.yul\":5144:5211   */\n  tag_97\n    /* \"#utility.yul\":5204:5210   */\n  dup6\n    /* \"#utility.yul\":5197:5202   */\n  dup3\n    /* \"#utility.yul\":5144:5211   */\n  tag_41\n  jump\t// in\ntag_97:\n    /* \"#utility.yul\":5138:5142   */\n  dup7\n    /* \"#utility.yul\":5131:5212   */\n  sstore\n    /* \"#utility.yul\":5000:5222   */\n  pop\n    /* \"#utility.yul\":4335:5222   */\n  jump(tag_94)\n    /* \"#utility.yul\":4365:4983   */\ntag_95:\n    /* \"#utility.yul\":4417:4421   */\n  0x1f\n    /* \"#utility.yul\":4413:4422   */\n  not\n    /* \"#utility.yul\":4405:4411   */\n  dup5\n    /* \"#utility.yul\":4401:4423   */\n  and\n    /* \"#utility.yul\":4451:4488   */\n  tag_98\n    /* \"#utility.yul\":4483:4487   */\n  dup7\n    /* \"#utility.yul\":4451:4488   */\n  tag_26\n  jump\t// in\ntag_98:\n    /* \"#utility.yul\":4510:4511   */\n  0x00\n    /* \"#utility.yul\":4524:4732   */\ntag_99:\n    /* \"#utility.yul\":4538:4545   */\n  dup3\n    /* \"#utility.yul\":4535:4536   */\n  dup2\n    /* \"#utility.yul\":4532:4546   */\n  lt\n    /* \"#utility.yul\":4524:4732   */\n  iszero\n  tag_101\n  jumpi\n    /* \"#utility.yul\":4617:4626   */\n  dup5\n    /* \"#utility.yul\":4612:4615   */\n  dup10\n    /* \"#utility.yul\":4608:4627   */\n  add\n    /* \"#utility.yul\":4602:4628   */\n  mload\n    /* \"#utility.yul\":4594:4600   */\n  dup3\n    /* \"#utility.yul\":4587:4629   */\n  sstore\n    /* \"#utility.yul\":4668:4669   */\n  0x01\n    /* \"#utility.yul\":4660:4666   */\n  dup3\n    /* \"#utility.yul\":4656:4670   */\n  add\n    /* \"#utility.yul\":4646:4670   */\n  swap2\n  pop\n    /* \"#utility.yul\":4715:4717   */\n  0x20\n    /* \"#utility.yul\":4704:4713   */\n  dup6\n    /* \"#utility.yul\":4700:4718   */\n  add\n    /* \"#utility.yul\":4687:4718   */\n  swap5\n  pop\n    /* \"#utility.yul\":4561:4565   */\n  0x20\n    /* \"#utility.yul\":4558:4559   */\n  dup2\n    /* \"#utility.yul\":4554:4566   */\n  add\n    /* \"#utility.yul\":4549:4566   */\n  swap1\n  pop\n    /* \"#utility.yul\":4524:4732   */\n  jump(tag_99)\ntag_101:\n    /* \"#utility.yul\":4760:4766   */\n  dup7\n    /* \"#utility.yul\":4751:4758   */\n  dup4\n    /* \"#utility.yul\":4748:4767   */\n  lt\n    /* \"#utility.yul\":4745:4924   */\n  iszero\n  tag_102\n  jumpi\n    /* \"#utility.yul\":4818:4827   */\n  dup5\n    /* \"#utility.yul\":4813:4816   */\n  dup10\n    /* \"#utility.yul\":4809:4828   */\n  add\n    /* \"#utility.yul\":4803:4829   */\n  mload\n    /* \"#utility.yul\":4861:4909   */\n  tag_103\n    /* \"#utility.yul\":4903:4907   */\n  0x1f\n    /* \"#utility.yul\":4895:4901   */\n  dup10\n    /* \"#utility.yul\":4891:4908   */\n  and\n    /* \"#utility.yul\":4880:4889   */\n  dup3\n    /* \"#utility.yul\":4861:4909   */\n  tag_40\n  jump\t// in\ntag_103:\n    /* \"#utility.yul\":4853:4859   */\n  dup4\n    /* \"#utility.yul\":4846:4910   */\n  sstore\n    /* \"#utility.yul\":4768:4924   */\n  pop\n    /* \"#utility.yul\":4745:4924   */\ntag_102:\n    /* \"#utility.yul\":4970:4971   */\n  0x01\n    /* \"#utility.yul\":4966:4967   */\n  0x02\n    /* \"#utility.yul\":4958:4964   */\n  dup9\n    /* \"#utility.yul\":4954:4968   */\n  mul\n    /* \"#utility.yul\":4950:4972   */\n  add\n    /* \"#utility.yul\":4944:4948   */\n  dup9\n    /* \"#utility.yul\":4937:4973   */\n  sstore\n    /* \"#utility.yul\":4372:4983   */\n  pop\n  pop\n  pop\n    /* \"#utility.yul\":4335:5222   */\ntag_94:\n  pop\n    /* \"#utility.yul\":3925:5228   */\n  pop\n  pop\n  pop\n    /* \"#utility.yul\":3833:5228   */\n  pop\n  pop\n  jump\t// out\n    /* \"latency.sol\":61:2184  contract BlockLatencyReason {... */\ntag_21:\n  dataSize(sub_0)\n  dup1\n  dataOffset(sub_0)\n  0x00\n  codecopy\n  0x00\n  return\nstop\ndata_0f2daabdf8921d011df90a77c048c01ed5ab23b9a480fa394a644166a948b175 43726f702047726f77746820616e6420686172766573742043726f7020736f77696e67207265636f72646564\ndata_162d696d8ff892c164983f209506a8a287a8d09639b4c9afbc8b1977d27bbe9e 536565642064656c697665727920746f206661726d6572204469676974616c206f7264657220636f6e6669726d6174696f6e\ndata_3e689171a078c81a3bd46540e70e5609178852e98fcb585e70e70fa870699908 436f6e73756d657220507572636861736520436f6d7075746174696f6e20616e64207175616c69747920636865636b\ndata_3ea29e39784d2e124555bcc2750afdb1be4f3eed87560e89e0167384d2b5076d 4661726d6572204b5943207375626d697373696f6e2020496e697469616c207472616e73616374696f6e207365747570\ndata_410bae402133d3b078e0be1f129fd19fc0ddf1aae4814b89c9c98b864cd66691 5061796d656e742072656c6561736520746f2077686f6c6573616c65722044656c697665727920747261636b696e672076616c69646174696f6e\ndata_4d21a24d4c4b7da178fcef76e46bfc3812b02d19179a7541d04696034f47d2c0 57686f6c6573616c657220746f20636f6e73756d65722044656d616e64206167677265676174696f6e\ndata_5479c83749de5abc256166b3ca8be557d20d27fe626ee4eed4b9f92cc544aefe 52657461696c20646973747269627574696f6e20436f6e73756d6572206c6576656c20636865636b706f696e74\ndata_65512260639b4fcb1f618888a9f0547c7e9ba38bcaf78b579131a661a4859f1c 52657461696c20646973747269627574696f6e205472616e73706f727420262076616c69646174696f6e\ndata_7071501aa97dcc9f5c28627ca521caf021618615f470826ce2ec47633b02eadf 436f6e6669726d6174696f6e2046696e616c20636f6e73756d657220636f6e6669726d6174696f6e207265636f7264\ndata_717430a2b948e8e28ae9d875d280589974a36d963cedec1491790d3264817634 53656e6420636f726e20746f2070726f63657373696e6720756e697420496f542064617461206d6f6e69746f72696e67\ndata_85a3539d7f8a59bc86fe5b9616747b08a8c592ae61598e3b6356312b6b973de9 436f6e73756d6572207075726368617365204d756c7469706c6520627579657273207472616e73616374696f6e73\ndata_aa41a8fc5618b06660047ef6ab8d5a863481f6d9b8e1b0a12036519db532fa37 526570656174207472616e73616374696f6e204f7074696d697a656420726570656174207061747465726e\ndata_aef2d42ea2e2580b45bfcbfc260ab2da8bdd90ccf802df695be1f6e10dc9c805 526563656976656420686172766573742063726f702066726f6d206661726d6572204669656c64206d6f6e69746f72696e6720656e747279\ndata_b3a3fc01435de4c0caeac50dc263cfb5c3fae97a2e5726374a32ff48302fc000 5061796d656e7420736574746c656d656e742053696d706c6520736574746c656d656e7420636f6e6669726d6174696f6e\ndata_b98b5915c3554cfa753a494987091005f75c40d8b52eb926cf238b2529019805 476f76742e2046756e6420416c6c6f636174696f6e20205375627369647920617070726f76616c20616e642066756e6420616c6c6f636174696f6e\ndata_d4f6638fea6164c12ac44e7ab19ae26b89a4a7d2da79d200acdf85eee10de2f7 536565642077686f6c6573616c6572206f72646572205365656420737570706c79207265717565737420636f6e6669726d6564\n\nsub_0: assembly {\n        /* \"latency.sol\":61:2184  contract BlockLatencyReason {... */\n      mstore(0x40, 0x80)\n      callvalue\n      dup1\n      iszero\n      tag_1\n      jumpi\n      0x00\n      dup1\n      revert\n    tag_1:\n      pop\n      jumpi(tag_2, lt(calldatasize, 0x04))\n      shr(0xe0, calldataload(0x00))\n      dup1\n      0x0bc69182\n      eq\n      tag_3\n      jumpi\n      dup1\n      0x2cfdbf71\n      eq\n      tag_4\n      jumpi\n    tag_2:\n      0x00\n      dup1\n      revert\n        /* \"latency.sol\":1713:2181  function getLatency(uint256 blockNumber) public view returns (string memory reason, uint256 latency) {... */\n    tag_3:\n      tag_5\n      0x04\n      dup1\n      calldatasize\n      sub\n      dup2\n      add\n      swap1\n      tag_6\n      swap2\n      swap1\n      tag_7\n      jump\t// in\n    tag_6:\n      tag_8\n      jump\t// in\n    tag_5:\n      mload(0x40)\n      tag_9\n      swap3\n      swap2\n      swap1\n      tag_10\n      jump\t// in\n    tag_9:\n      mload(0x40)\n      dup1\n      swap2\n      sub\n      swap1\n      return\n        /* \"latency.sol\":157:206  mapping(uint256 => BlockInfo) public blockReasons */\n    tag_4:\n      tag_11\n      0x04\n      dup1\n      calldatasize\n      sub\n      dup2\n      add\n      swap1\n      tag_12\n      swap2\n      swap1\n      tag_7\n      jump\t// in\n    tag_12:\n      tag_13\n      jump\t// in\n    tag_11:\n      mload(0x40)\n      tag_14\n      swap2\n      swap1\n      tag_15\n      jump\t// in\n    tag_14:\n      mload(0x40)\n      dup1\n      swap2\n      sub\n      swap1\n      return\n        /* \"latency.sol\":1713:2181  function getLatency(uint256 blockNumber) public view returns (string memory reason, uint256 latency) {... */\n    tag_8:\n        /* \"latency.sol\":1775:1795  string memory reason */\n      0x60\n        /* \"latency.sol\":1797:1812  uint256 latency */\n      0x00\n        /* \"latency.sol\":1882:1883  0 */\n      dup1\n        /* \"latency.sol\":1839:1851  blockReasons */\n      0x00\n        /* \"latency.sol\":1839:1864  blockReasons[blockNumber] */\n      dup1\n        /* \"latency.sol\":1852:1863  blockNumber */\n      dup6\n        /* \"latency.sol\":1839:1864  blockReasons[blockNumber] */\n      dup2\n      mstore\n      0x20\n      add\n      swap1\n      dup2\n      mstore\n      0x20\n      add\n      0x00\n      keccak256\n        /* \"latency.sol\":1839:1871  blockReasons[blockNumber].reason */\n      0x00\n      add\n        /* \"latency.sol\":1833:1879  bytes(blockReasons[blockNumber].reason).length */\n      dup1\n      sload\n      tag_17\n      swap1\n      tag_18\n      jump\t// in\n    tag_17:\n      swap1\n      pop\n        /* \"latency.sol\":1833:1883  bytes(blockReasons[blockNumber].reason).length > 0 */\n      gt\n        /* \"latency.sol\":1825:1903  require(bytes(blockReasons[blockNumber].reason).length > 0, \"Block not found\") */\n      tag_19\n      jumpi\n      mload(0x40)\n      0x08c379a000000000000000000000000000000000000000000000000000000000\n      dup2\n      mstore\n      0x04\n      add\n      tag_20\n      swap1\n      tag_21\n      jump\t// in\n    tag_20:\n      mload(0x40)\n      dup1\n      swap2\n      sub\n      swap1\n      revert\n    tag_19:\n        /* \"latency.sol\":1926:1940  uint256 random */\n      0x00\n        /* \"latency.sol\":1978:1993  block.timestamp */\n      timestamp\n        /* \"latency.sol\":1995:2011  block.prevrandao */\n      prevrandao\n        /* \"latency.sol\":2013:2023  msg.sender */\n      caller\n        /* \"latency.sol\":2025:2036  blockNumber */\n      dup7\n        /* \"latency.sol\":1961:2037  abi.encodePacked(block.timestamp, block.prevrandao, msg.sender, blockNumber) */\n      add(0x20, mload(0x40))\n      tag_22\n      swap5\n      swap4\n      swap3\n      swap2\n      swap1\n      tag_23\n      jump\t// in\n    tag_22:\n      mload(0x40)\n      0x20\n      dup2\n      dup4\n      sub\n      sub\n      dup2\n      mstore\n      swap1\n      0x40\n      mstore\n        /* \"latency.sol\":1951:2038  keccak256(abi.encodePacked(block.timestamp, block.prevrandao, msg.sender, blockNumber)) */\n      dup1\n      mload\n      swap1\n      0x20\n      add\n      keccak256\n        /* \"latency.sol\":1943:2039  uint256(keccak256(abi.encodePacked(block.timestamp, block.prevrandao, msg.sender, blockNumber))) */\n      0x00\n      shr\n        /* \"latency.sol\":1926:2039  uint256 random = uint256(keccak256(abi.encodePacked(block.timestamp, block.prevrandao, msg.sender, blockNumber))) */\n      swap1\n      pop\n        /* \"latency.sol\":2062:2082  uint256 latencyValue */\n      0x00\n        /* \"latency.sol\":2102:2105  250 */\n      0xfa\n        /* \"latency.sol\":2095:2098  551 */\n      0x0227\n        /* \"latency.sol\":2086:2092  random */\n      dup4\n        /* \"latency.sol\":2086:2098  random % 551 */\n      tag_24\n      swap2\n      swap1\n      tag_25\n      jump\t// in\n    tag_24:\n        /* \"latency.sol\":2085:2105  (random % 551) + 250 */\n      tag_26\n      swap2\n      swap1\n      tag_27\n      jump\t// in\n    tag_26:\n        /* \"latency.sol\":2062:2105  uint256 latencyValue = (random % 551) + 250 */\n      swap1\n      pop\n        /* \"latency.sol\":2126:2138  blockReasons */\n      0x00\n        /* \"latency.sol\":2126:2151  blockReasons[blockNumber] */\n      dup1\n        /* \"latency.sol\":2139:2150  blockNumber */\n      dup7\n        /* \"latency.sol\":2126:2151  blockReasons[blockNumber] */\n      dup2\n      mstore\n      0x20\n      add\n      swap1\n      dup2\n      mstore\n      0x20\n      add\n      0x00\n      keccak256\n        /* \"latency.sol\":2126:2158  blockReasons[blockNumber].reason */\n      0x00\n      add\n        /* \"latency.sol\":2160:2172  latencyValue */\n      dup2\n        /* \"latency.sol\":2118:2173  return (blockReasons[blockNumber].reason, latencyValue) */\n      dup2\n      dup1\n      sload\n      tag_28\n      swap1\n      tag_18\n      jump\t// in\n    tag_28:\n      dup1\n      0x1f\n      add\n      0x20\n      dup1\n      swap2\n      div\n      mul\n      0x20\n      add\n      mload(0x40)\n      swap1\n      dup2\n      add\n      0x40\n      mstore\n      dup1\n      swap3\n      swap2\n      swap1\n      dup2\n      dup2\n      mstore\n      0x20\n      add\n      dup3\n      dup1\n      sload\n      tag_29\n      swap1\n      tag_18\n      jump\t// in\n    tag_29:\n      dup1\n      iszero\n      tag_30\n      jumpi\n      dup1\n      0x1f\n      lt\n      tag_31\n      jumpi\n      0x0100\n      dup1\n      dup4\n      sload\n      div\n      mul\n      dup4\n      mstore\n      swap2\n      0x20\n      add\n      swap2\n      jump(tag_30)\n    tag_31:\n      dup3\n      add\n      swap2\n      swap1\n      0x00\n      mstore\n      keccak256(0x00, 0x20)\n      swap1\n    tag_32:\n      dup2\n      sload\n      dup2\n      mstore\n      swap1\n      0x01\n      add\n      swap1\n      0x20\n      add\n      dup1\n      dup4\n      gt\n      tag_32\n      jumpi\n      dup3\n      swap1\n      sub\n      0x1f\n      and\n      dup3\n      add\n      swap2\n    tag_30:\n      pop\n      pop\n      pop\n      pop\n      pop\n      swap2\n      pop\n      swap4\n      pop\n      swap4\n      pop\n      pop\n      pop\n        /* \"latency.sol\":1713:2181  function getLatency(uint256 blockNumber) public view returns (string memory reason, uint256 latency) {... */\n      swap2\n      pop\n      swap2\n      jump\t// out\n        /* \"latency.sol\":157:206  mapping(uint256 => BlockInfo) public blockReasons */\n    tag_13:\n      mstore(0x20, 0x00)\n      dup1\n      0x00\n      mstore\n      keccak256(0x00, 0x40)\n      0x00\n      swap2\n      pop\n      swap1\n      pop\n      dup1\n      0x00\n      add\n      dup1\n      sload\n      tag_33\n      swap1\n      tag_18\n      jump\t// in\n    tag_33:\n      dup1\n      0x1f\n      add\n      0x20\n      dup1\n      swap2\n      div\n      mul\n      0x20\n      add\n      mload(0x40)\n      swap1\n      dup2\n      add\n      0x40\n      mstore\n      dup1\n      swap3\n      swap2\n      swap1\n      dup2\n      dup2\n      mstore\n      0x20\n      add\n      dup3\n      dup1\n      sload\n      tag_34\n      swap1\n      tag_18\n      jump\t// in\n    tag_34:\n      dup1\n      iszero\n      tag_35\n      jumpi\n      dup1\n      0x1f\n      lt\n      tag_36\n      jumpi\n      0x0100\n      dup1\n      dup4\n      sload\n      div\n      mul\n      dup4\n      mstore\n      swap2\n      0x20\n      add\n      swap2\n      jump(tag_35)\n    tag_36:\n      dup3\n      add\n      swap2\n      swap1\n      0x00\n      mstore\n      keccak256(0x00, 0x20)\n      swap1\n    tag_37:\n      dup2\n      sload\n      dup2\n      mstore\n      swap1\n      0x01\n      add\n      swap1\n      0x20\n      add\n      dup1\n      dup4\n      gt\n      tag_37\n      jumpi\n      dup3\n      swap1\n      sub\n      0x1f\n      and\n      dup3\n      add\n      swap2\n    tag_35:\n      pop\n      pop\n      pop\n      pop\n      pop\n      swap1\n      pop\n      dup2\n      jump\t// out\n        /* \"#utility.yul\":88:205   */\n    tag_39:\n        /* \"#utility.yul\":197:198   */\n      0x00\n        /* \"#utility.yul\":194:195   */\n      dup1\n        /* \"#utility.yul\":187:199   */\n      revert\n        /* \"#utility.yul\":334:411   */\n    tag_41:\n        /* \"#utility.yul\":371:378   */\n      0x00\n        /* \"#utility.yul\":400:405   */\n      dup2\n        /* \"#utility.yul\":389:405   */\n      swap1\n      pop\n        /* \"#utility.yul\":334:411   */\n      swap2\n      swap1\n      pop\n      jump\t// out\n        /* \"#utility.yul\":417:539   */\n    tag_42:\n        /* \"#utility.yul\":490:514   */\n      tag_69\n        /* \"#utility.yul\":508:513   */\n      dup2\n        /* \"#utility.yul\":490:514   */\n      tag_41\n      jump\t// in\n    tag_69:\n        /* \"#utility.yul\":483:488   */\n      dup2\n        /* \"#utility.yul\":480:515   */\n      eq\n        /* \"#utility.yul\":470:533   */\n      tag_70\n      jumpi\n        /* \"#utility.yul\":529:530   */\n      0x00\n        /* \"#utility.yul\":526:527   */\n      dup1\n        /* \"#utility.yul\":519:531   */\n      revert\n        /* \"#utility.yul\":470:533   */\n    tag_70:\n        /* \"#utility.yul\":417:539   */\n      pop\n      jump\t// out\n        /* \"#utility.yul\":545:684   */\n    tag_43:\n        /* \"#utility.yul\":591:596   */\n      0x00\n        /* \"#utility.yul\":629:635   */\n      dup2\n        /* \"#utility.yul\":616:636   */\n      calldataload\n        /* \"#utility.yul\":607:636   */\n      swap1\n      pop\n        /* \"#utility.yul\":645:678   */\n      tag_72\n        /* \"#utility.yul\":672:677   */\n      dup2\n        /* \"#utility.yul\":645:678   */\n      tag_42\n      jump\t// in\n    tag_72:\n        /* \"#utility.yul\":545:684   */\n      swap3\n      swap2\n      pop\n      pop\n      jump\t// out\n        /* \"#utility.yul\":690:1019   */\n    tag_7:\n        /* \"#utility.yul\":749:755   */\n      0x00\n        /* \"#utility.yul\":798:800   */\n      0x20\n        /* \"#utility.yul\":786:795   */\n      dup3\n        /* \"#utility.yul\":777:784   */\n      dup5\n        /* \"#utility.yul\":773:796   */\n      sub\n        /* \"#utility.yul\":769:801   */\n      slt\n        /* \"#utility.yul\":766:885   */\n      iszero\n      tag_74\n      jumpi\n        /* \"#utility.yul\":804:883   */\n      tag_75\n      tag_39\n      jump\t// in\n    tag_75:\n        /* \"#utility.yul\":766:885   */\n    tag_74:\n        /* \"#utility.yul\":924:925   */\n      0x00\n        /* \"#utility.yul\":949:1002   */\n      tag_76\n        /* \"#utility.yul\":994:1001   */\n      dup5\n        /* \"#utility.yul\":985:991   */\n      dup3\n        /* \"#utility.yul\":974:983   */\n      dup6\n        /* \"#utility.yul\":970:992   */\n      add\n        /* \"#utility.yul\":949:1002   */\n      tag_43\n      jump\t// in\n    tag_76:\n        /* \"#utility.yul\":939:1002   */\n      swap2\n      pop\n        /* \"#utility.yul\":895:1012   */\n      pop\n        /* \"#utility.yul\":690:1019   */\n      swap3\n      swap2\n      pop\n      pop\n      jump\t// out\n        /* \"#utility.yul\":1025:1124   */\n    tag_44:\n        /* \"#utility.yul\":1077:1083   */\n      0x00\n        /* \"#utility.yul\":1111:1116   */\n      dup2\n        /* \"#utility.yul\":1105:1117   */\n      mload\n        /* \"#utility.yul\":1095:1117   */\n      swap1\n      pop\n        /* \"#utility.yul\":1025:1124   */\n      swap2\n      swap1\n      pop\n      jump\t// out\n        /* \"#utility.yul\":1130:1299   */\n    tag_45:\n        /* \"#utility.yul\":1214:1225   */\n      0x00\n        /* \"#utility.yul\":1248:1254   */\n      dup3\n        /* \"#utility.yul\":1243:1246   */\n      dup3\n        /* \"#utility.yul\":1236:1255   */\n      mstore\n        /* \"#utility.yul\":1288:1292   */\n      0x20\n        /* \"#utility.yul\":1283:1286   */\n      dup3\n        /* \"#utility.yul\":1279:1293   */\n      add\n        /* \"#utility.yul\":1264:1293   */\n      swap1\n      pop\n        /* \"#utility.yul\":1130:1299   */\n      swap3\n      swap2\n      pop\n      pop\n      jump\t// out\n        /* \"#utility.yul\":1305:1444   */\n    tag_46:\n        /* \"#utility.yul\":1394:1400   */\n      dup3\n        /* \"#utility.yul\":1389:1392   */\n      dup2\n        /* \"#utility.yul\":1384:1387   */\n      dup4\n        /* \"#utility.yul\":1378:1401   */\n      mcopy\n        /* \"#utility.yul\":1435:1436   */\n      0x00\n        /* \"#utility.yul\":1426:1432   */\n      dup4\n        /* \"#utility.yul\":1421:1424   */\n      dup4\n        /* \"#utility.yul\":1417:1433   */\n      add\n        /* \"#utility.yul\":1410:1437   */\n      mstore\n        /* \"#utility.yul\":1305:1444   */\n      pop\n      pop\n      pop\n      jump\t// out\n        /* \"#utility.yul\":1450:1552   */\n    tag_47:\n        /* \"#utility.yul\":1491:1497   */\n      0x00\n        /* \"#utility.yul\":1542:1544   */\n      0x1f\n        /* \"#utility.yul\":1538:1545   */\n      not\n        /* \"#utility.yul\":1533:1535   */\n      0x1f\n        /* \"#utility.yul\":1526:1531   */\n      dup4\n        /* \"#utility.yul\":1522:1536   */\n      add\n        /* \"#utility.yul\":1518:1546   */\n      and\n        /* \"#utility.yul\":1508:1546   */\n      swap1\n      pop\n        /* \"#utility.yul\":1450:1552   */\n      swap2\n      swap1\n      pop\n      jump\t// out\n        /* \"#utility.yul\":1558:1935   */\n    tag_48:\n        /* \"#utility.yul\":1646:1649   */\n      0x00\n        /* \"#utility.yul\":1674:1713   */\n      tag_82\n        /* \"#utility.yul\":1707:1712   */\n      dup3\n        /* \"#utility.yul\":1674:1713   */\n      tag_44\n      jump\t// in\n    tag_82:\n        /* \"#utility.yul\":1729:1800   */\n      tag_83\n        /* \"#utility.yul\":1793:1799   */\n      dup2\n        /* \"#utility.yul\":1788:1791   */\n      dup6\n        /* \"#utility.yul\":1729:1800   */\n      tag_45\n      jump\t// in\n    tag_83:\n        /* \"#utility.yul\":1722:1800   */\n      swap4\n      pop\n        /* \"#utility.yul\":1809:1874   */\n      tag_84\n        /* \"#utility.yul\":1867:1873   */\n      dup2\n        /* \"#utility.yul\":1862:1865   */\n      dup6\n        /* \"#utility.yul\":1855:1859   */\n      0x20\n        /* \"#utility.yul\":1848:1853   */\n      dup7\n        /* \"#utility.yul\":1844:1860   */\n      add\n        /* \"#utility.yul\":1809:1874   */\n      tag_46\n      jump\t// in\n    tag_84:\n        /* \"#utility.yul\":1899:1928   */\n      tag_85\n        /* \"#utility.yul\":1921:1927   */\n      dup2\n        /* \"#utility.yul\":1899:1928   */\n      tag_47\n      jump\t// in\n    tag_85:\n        /* \"#utility.yul\":1894:1897   */\n      dup5\n        /* \"#utility.yul\":1890:1929   */\n      add\n        /* \"#utility.yul\":1883:1929   */\n      swap2\n      pop\n        /* \"#utility.yul\":1650:1935   */\n      pop\n        /* \"#utility.yul\":1558:1935   */\n      swap3\n      swap2\n      pop\n      pop\n      jump\t// out\n        /* \"#utility.yul\":1941:2059   */\n    tag_49:\n        /* \"#utility.yul\":2028:2052   */\n      tag_87\n        /* \"#utility.yul\":2046:2051   */\n      dup2\n        /* \"#utility.yul\":2028:2052   */\n      tag_41\n      jump\t// in\n    tag_87:\n        /* \"#utility.yul\":2023:2026   */\n      dup3\n        /* \"#utility.yul\":2016:2053   */\n      mstore\n        /* \"#utility.yul\":1941:2059   */\n      pop\n      pop\n      jump\t// out\n        /* \"#utility.yul\":2065:2488   */\n    tag_10:\n        /* \"#utility.yul\":2206:2210   */\n      0x00\n        /* \"#utility.yul\":2244:2246   */\n      0x40\n        /* \"#utility.yul\":2233:2242   */\n      dup3\n        /* \"#utility.yul\":2229:2247   */\n      add\n        /* \"#utility.yul\":2221:2247   */\n      swap1\n      pop\n        /* \"#utility.yul\":2293:2302   */\n      dup2\n        /* \"#utility.yul\":2287:2291   */\n      dup2\n        /* \"#utility.yul\":2283:2303   */\n      sub\n        /* \"#utility.yul\":2279:2280   */\n      0x00\n        /* \"#utility.yul\":2268:2277   */\n      dup4\n        /* \"#utility.yul\":2264:2281   */\n      add\n        /* \"#utility.yul\":2257:2304   */\n      mstore\n        /* \"#utility.yul\":2321:2399   */\n      tag_89\n        /* \"#utility.yul\":2394:2398   */\n      dup2\n        /* \"#utility.yul\":2385:2391   */\n      dup6\n        /* \"#utility.yul\":2321:2399   */\n      tag_48\n      jump\t// in\n    tag_89:\n        /* \"#utility.yul\":2313:2399   */\n      swap1\n      pop\n        /* \"#utility.yul\":2409:2481   */\n      tag_90\n        /* \"#utility.yul\":2477:2479   */\n      0x20\n        /* \"#utility.yul\":2466:2475   */\n      dup4\n        /* \"#utility.yul\":2462:2480   */\n      add\n        /* \"#utility.yul\":2453:2459   */\n      dup5\n        /* \"#utility.yul\":2409:2481   */\n      tag_49\n      jump\t// in\n    tag_90:\n        /* \"#utility.yul\":2065:2488   */\n      swap4\n      swap3\n      pop\n      pop\n      pop\n      jump\t// out\n        /* \"#utility.yul\":2494:2807   */\n    tag_15:\n        /* \"#utility.yul\":2607:2611   */\n      0x00\n        /* \"#utility.yul\":2645:2647   */\n      0x20\n        /* \"#utility.yul\":2634:2643   */\n      dup3\n        /* \"#utility.yul\":2630:2648   */\n      add\n        /* \"#utility.yul\":2622:2648   */\n      swap1\n      pop\n        /* \"#utility.yul\":2694:2703   */\n      dup2\n        /* \"#utility.yul\":2688:2692   */\n      dup2\n        /* \"#utility.yul\":2684:2704   */\n      sub\n        /* \"#utility.yul\":2680:2681   */\n      0x00\n        /* \"#utility.yul\":2669:2678   */\n      dup4\n        /* \"#utility.yul\":2665:2682   */\n      add\n        /* \"#utility.yul\":2658:2705   */\n      mstore\n        /* \"#utility.yul\":2722:2800   */\n      tag_92\n        /* \"#utility.yul\":2795:2799   */\n      dup2\n        /* \"#utility.yul\":2786:2792   */\n      dup5\n        /* \"#utility.yul\":2722:2800   */\n      tag_48\n      jump\t// in\n    tag_92:\n        /* \"#utility.yul\":2714:2800   */\n      swap1\n      pop\n        /* \"#utility.yul\":2494:2807   */\n      swap3\n      swap2\n      pop\n      pop\n      jump\t// out\n        /* \"#utility.yul\":2813:2993   */\n    tag_50:\n        /* \"#utility.yul\":2861:2938   */\n      0x4e487b7100000000000000000000000000000000000000000000000000000000\n        /* \"#utility.yul\":2858:2859   */\n      0x00\n        /* \"#utility.yul\":2851:2939   */\n      mstore\n        /* \"#utility.yul\":2958:2962   */\n      0x22\n        /* \"#utility.yul\":2955:2956   */\n      0x04\n        /* \"#utility.yul\":2948:2963   */\n      mstore\n        /* \"#utility.yul\":2982:2986   */\n      0x24\n        /* \"#utility.yul\":2979:2980   */\n      0x00\n        /* \"#utility.yul\":2972:2987   */\n      revert\n        /* \"#utility.yul\":2999:3319   */\n    tag_18:\n        /* \"#utility.yul\":3043:3049   */\n      0x00\n        /* \"#utility.yul\":3080:3081   */\n      0x02\n        /* \"#utility.yul\":3074:3078   */\n      dup3\n        /* \"#utility.yul\":3070:3082   */\n      div\n        /* \"#utility.yul\":3060:3082   */\n      swap1\n      pop\n        /* \"#utility.yul\":3127:3128   */\n      0x01\n        /* \"#utility.yul\":3121:3125   */\n      dup3\n        /* \"#utility.yul\":3117:3129   */\n      and\n        /* \"#utility.yul\":3148:3166   */\n      dup1\n        /* \"#utility.yul\":3138:3219   */\n      tag_95\n      jumpi\n        /* \"#utility.yul\":3204:3208   */\n      0x7f\n        /* \"#utility.yul\":3196:3202   */\n      dup3\n        /* \"#utility.yul\":3192:3209   */\n      and\n        /* \"#utility.yul\":3182:3209   */\n      swap2\n      pop\n        /* \"#utility.yul\":3138:3219   */\n    tag_95:\n        /* \"#utility.yul\":3266:3268   */\n      0x20\n        /* \"#utility.yul\":3258:3264   */\n      dup3\n        /* \"#utility.yul\":3255:3269   */\n      lt\n        /* \"#utility.yul\":3235:3253   */\n      dup2\n        /* \"#utility.yul\":3232:3270   */\n      sub\n        /* \"#utility.yul\":3229:3313   */\n      tag_96\n      jumpi\n        /* \"#utility.yul\":3285:3303   */\n      tag_97\n      tag_50\n      jump\t// in\n    tag_97:\n        /* \"#utility.yul\":3229:3313   */\n    tag_96:\n        /* \"#utility.yul\":3050:3319   */\n      pop\n        /* \"#utility.yul\":2999:3319   */\n      swap2\n      swap1\n      pop\n      jump\t// out\n        /* \"#utility.yul\":3325:3490   */\n    tag_51:\n        /* \"#utility.yul\":3465:3482   */\n      0x426c6f636b206e6f7420666f756e640000000000000000000000000000000000\n        /* \"#utility.yul\":3461:3462   */\n      0x00\n        /* \"#utility.yul\":3453:3459   */\n      dup3\n        /* \"#utility.yul\":3449:3463   */\n      add\n        /* \"#utility.yul\":3442:3483   */\n      mstore\n        /* \"#utility.yul\":3325:3490   */\n      pop\n      jump\t// out\n        /* \"#utility.yul\":3496:3862   */\n    tag_52:\n        /* \"#utility.yul\":3638:3641   */\n      0x00\n        /* \"#utility.yul\":3659:3726   */\n      tag_100\n        /* \"#utility.yul\":3723:3725   */\n      0x0f\n        /* \"#utility.yul\":3718:3721   */\n      dup4\n        /* \"#utility.yul\":3659:3726   */\n      tag_45\n      jump\t// in\n    tag_100:\n        /* \"#utility.yul\":3652:3726   */\n      swap2\n      pop\n        /* \"#utility.yul\":3735:3828   */\n      tag_101\n        /* \"#utility.yul\":3824:3827   */\n      dup3\n        /* \"#utility.yul\":3735:3828   */\n      tag_51\n      jump\t// in\n    tag_101:\n        /* \"#utility.yul\":3853:3855   */\n      0x20\n        /* \"#utility.yul\":3848:3851   */\n      dup3\n        /* \"#utility.yul\":3844:3856   */\n      add\n        /* \"#utility.yul\":3837:3856   */\n      swap1\n      pop\n        /* \"#utility.yul\":3496:3862   */\n      swap2\n      swap1\n      pop\n      jump\t// out\n        /* \"#utility.yul\":3868:4287   */\n    tag_21:\n        /* \"#utility.yul\":4034:4038   */\n      0x00\n        /* \"#utility.yul\":4072:4074   */\n      0x20\n        /* \"#utility.yul\":4061:4070   */\n      dup3\n        /* \"#utility.yul\":4057:4075   */\n      add\n        /* \"#utility.yul\":4049:4075   */\n      swap1\n      pop\n        /* \"#utility.yul\":4121:4130   */\n      dup2\n        /* \"#utility.yul\":4115:4119   */\n      dup2\n        /* \"#utility.yul\":4111:4131   */\n      sub\n        /* \"#utility.yul\":4107:4108   */\n      0x00\n        /* \"#utility.yul\":4096:4105   */\n      dup4\n        /* \"#utility.yul\":4092:4109   */\n      add\n        /* \"#utility.yul\":4085:4132   */\n      mstore\n        /* \"#utility.yul\":4149:4280   */\n      tag_103\n        /* \"#utility.yul\":4275:4279   */\n      dup2\n        /* \"#utility.yul\":4149:4280   */\n      tag_52\n      jump\t// in\n    tag_103:\n        /* \"#utility.yul\":4141:4280   */\n      swap1\n      pop\n        /* \"#utility.yul\":3868:4287   */\n      swap2\n      swap1\n      pop\n      jump\t// out\n        /* \"#utility.yul\":4293:4372   */\n    tag_53:\n        /* \"#utility.yul\":4332:4339   */\n      0x00\n        /* \"#utility.yul\":4361:4366   */\n      dup2\n        /* \"#utility.yul\":4350:4366   */\n      swap1\n      pop\n        /* \"#utility.yul\":4293:4372   */\n      swap2\n      swap1\n      pop\n      jump\t// out\n        /* \"#utility.yul\":4378:4535   */\n    tag_54:\n        /* \"#utility.yul\":4483:4528   */\n      tag_106\n        /* \"#utility.yul\":4503:4527   */\n      tag_107\n        /* \"#utility.yul\":4521:4526   */\n      dup3\n        /* \"#utility.yul\":4503:4527   */\n      tag_41\n      jump\t// in\n    tag_107:\n        /* \"#utility.yul\":4483:4528   */\n      tag_53\n      jump\t// in\n    tag_106:\n        /* \"#utility.yul\":4478:4481   */\n      dup3\n        /* \"#utility.yul\":4471:4529   */\n      mstore\n        /* \"#utility.yul\":4378:4535   */\n      pop\n      pop\n      jump\t// out\n        /* \"#utility.yul\":4541:4667   */\n    tag_55:\n        /* \"#utility.yul\":4578:4585   */\n      0x00\n        /* \"#utility.yul\":4618:4660   */\n      0xffffffffffffffffffffffffffffffffffffffff\n        /* \"#utility.yul\":4611:4616   */\n      dup3\n        /* \"#utility.yul\":4607:4661   */\n      and\n        /* \"#utility.yul\":4596:4661   */\n      swap1\n      pop\n        /* \"#utility.yul\":4541:4667   */\n      swap2\n      swap1\n      pop\n      jump\t// out\n        /* \"#utility.yul\":4673:4769   */\n    tag_56:\n        /* \"#utility.yul\":4710:4717   */\n      0x00\n        /* \"#utility.yul\":4739:4763   */\n      tag_110\n        /* \"#utility.yul\":4757:4762   */\n      dup3\n        /* \"#utility.yul\":4739:4763   */\n      tag_55\n      jump\t// in\n    tag_110:\n        /* \"#utility.yul\":4728:4763   */\n      swap1\n      pop\n        /* \"#utility.yul\":4673:4769   */\n      swap2\n      swap1\n      pop\n      jump\t// out\n        /* \"#utility.yul\":4775:4869   */\n    tag_57:\n        /* \"#utility.yul\":4808:4816   */\n      0x00\n        /* \"#utility.yul\":4856:4861   */\n      dup2\n        /* \"#utility.yul\":4852:4854   */\n      0x60\n        /* \"#utility.yul\":4848:4862   */\n      shl\n        /* \"#utility.yul\":4827:4862   */\n      swap1\n      pop\n        /* \"#utility.yul\":4775:4869   */\n      swap2\n      swap1\n      pop\n      jump\t// out\n        /* \"#utility.yul\":4875:4969   */\n    tag_58:\n        /* \"#utility.yul\":4914:4921   */\n      0x00\n        /* \"#utility.yul\":4943:4963   */\n      tag_113\n        /* \"#utility.yul\":4957:4962   */\n      dup3\n        /* \"#utility.yul\":4943:4963   */\n      tag_57\n      jump\t// in\n    tag_113:\n        /* \"#utility.yul\":4932:4963   */\n      swap1\n      pop\n        /* \"#utility.yul\":4875:4969   */\n      swap2\n      swap1\n      pop\n      jump\t// out\n        /* \"#utility.yul\":4975:5075   */\n    tag_59:\n        /* \"#utility.yul\":5014:5021   */\n      0x00\n        /* \"#utility.yul\":5043:5069   */\n      tag_115\n        /* \"#utility.yul\":5063:5068   */\n      dup3\n        /* \"#utility.yul\":5043:5069   */\n      tag_58\n      jump\t// in\n    tag_115:\n        /* \"#utility.yul\":5032:5069   */\n      swap1\n      pop\n        /* \"#utility.yul\":4975:5075   */\n      swap2\n      swap1\n      pop\n      jump\t// out\n        /* \"#utility.yul\":5081:5238   */\n    tag_60:\n        /* \"#utility.yul\":5186:5231   */\n      tag_117\n        /* \"#utility.yul\":5206:5230   */\n      tag_118\n        /* \"#utility.yul\":5224:5229   */\n      dup3\n        /* \"#utility.yul\":5206:5230   */\n      tag_56\n      jump\t// in\n    tag_118:\n        /* \"#utility.yul\":5186:5231   */\n      tag_59\n      jump\t// in\n    tag_117:\n        /* \"#utility.yul\":5181:5184   */\n      dup3\n        /* \"#utility.yul\":5174:5232   */\n      mstore\n        /* \"#utility.yul\":5081:5238   */\n      pop\n      pop\n      jump\t// out\n        /* \"#utility.yul\":5244:5923   */\n    tag_23:\n        /* \"#utility.yul\":5440:5443   */\n      0x00\n        /* \"#utility.yul\":5455:5530   */\n      tag_120\n        /* \"#utility.yul\":5526:5529   */\n      dup3\n        /* \"#utility.yul\":5517:5523   */\n      dup8\n        /* \"#utility.yul\":5455:5530   */\n      tag_54\n      jump\t// in\n    tag_120:\n        /* \"#utility.yul\":5555:5557   */\n      0x20\n        /* \"#utility.yul\":5550:5553   */\n      dup3\n        /* \"#utility.yul\":5546:5558   */\n      add\n        /* \"#utility.yul\":5539:5558   */\n      swap2\n      pop\n        /* \"#utility.yul\":5568:5643   */\n      tag_121\n        /* \"#utility.yul\":5639:5642   */\n      dup3\n        /* \"#utility.yul\":5630:5636   */\n      dup7\n        /* \"#utility.yul\":5568:5643   */\n      tag_54\n      jump\t// in\n    tag_121:\n        /* \"#utility.yul\":5668:5670   */\n      0x20\n        /* \"#utility.yul\":5663:5666   */\n      dup3\n        /* \"#utility.yul\":5659:5671   */\n      add\n        /* \"#utility.yul\":5652:5671   */\n      swap2\n      pop\n        /* \"#utility.yul\":5681:5756   */\n      tag_122\n        /* \"#utility.yul\":5752:5755   */\n      dup3\n        /* \"#utility.yul\":5743:5749   */\n      dup6\n        /* \"#utility.yul\":5681:5756   */\n      tag_60\n      jump\t// in\n    tag_122:\n        /* \"#utility.yul\":5781:5783   */\n      0x14\n        /* \"#utility.yul\":5776:5779   */\n      dup3\n        /* \"#utility.yul\":5772:5784   */\n      add\n        /* \"#utility.yul\":5765:5784   */\n      swap2\n      pop\n        /* \"#utility.yul\":5794:5869   */\n      tag_123\n        /* \"#utility.yul\":5865:5868   */\n      dup3\n        /* \"#utility.yul\":5856:5862   */\n      dup5\n        /* \"#utility.yul\":5794:5869   */\n      tag_54\n      jump\t// in\n    tag_123:\n        /* \"#utility.yul\":5894:5896   */\n      0x20\n        /* \"#utility.yul\":5889:5892   */\n      dup3\n        /* \"#utility.yul\":5885:5897   */\n      add\n        /* \"#utility.yul\":5878:5897   */\n      swap2\n      pop\n        /* \"#utility.yul\":5914:5917   */\n      dup2\n        /* \"#utility.yul\":5907:5917   */\n      swap1\n      pop\n        /* \"#utility.yul\":5244:5923   */\n      swap6\n      swap5\n      pop\n      pop\n      pop\n      pop\n      pop\n      jump\t// out\n        /* \"#utility.yul\":5929:6109   */\n    tag_61:\n        /* \"#utility.yul\":5977:6054   */\n      0x4e487b7100000000000000000000000000000000000000000000000000000000\n        /* \"#utility.yul\":5974:5975   */\n      0x00\n        /* \"#utility.yul\":5967:6055   */\n      mstore\n        /* \"#utility.yul\":6074:6078   */\n      0x12\n        /* \"#utility.yul\":6071:6072   */\n      0x04\n        /* \"#utility.yul\":6064:6079   */\n      mstore\n        /* \"#utility.yul\":6098:6102   */\n      0x24\n        /* \"#utility.yul\":6095:6096   */\n      0x00\n        /* \"#utility.yul\":6088:6103   */\n      revert\n        /* \"#utility.yul\":6115:6291   */\n    tag_25:\n        /* \"#utility.yul\":6147:6148   */\n      0x00\n        /* \"#utility.yul\":6164:6184   */\n      tag_126\n        /* \"#utility.yul\":6182:6183   */\n      dup3\n        /* \"#utility.yul\":6164:6184   */\n      tag_41\n      jump\t// in\n    tag_126:\n        /* \"#utility.yul\":6159:6184   */\n      swap2\n      pop\n        /* \"#utility.yul\":6198:6218   */\n      tag_127\n        /* \"#utility.yul\":6216:6217   */\n      dup4\n        /* \"#utility.yul\":6198:6218   */\n      tag_41\n      jump\t// in\n    tag_127:\n        /* \"#utility.yul\":6193:6218   */\n      swap3\n      pop\n        /* \"#utility.yul\":6237:6238   */\n      dup3\n        /* \"#utility.yul\":6227:6262   */\n      tag_128\n      jumpi\n        /* \"#utility.yul\":6242:6260   */\n      tag_129\n      tag_61\n      jump\t// in\n    tag_129:\n        /* \"#utility.yul\":6227:6262   */\n    tag_128:\n        /* \"#utility.yul\":6283:6284   */\n      dup3\n        /* \"#utility.yul\":6280:6281   */\n      dup3\n        /* \"#utility.yul\":6276:6285   */\n      mod\n        /* \"#utility.yul\":6271:6285   */\n      swap1\n      pop\n        /* \"#utility.yul\":6115:6291   */\n      swap3\n      swap2\n      pop\n      pop\n      jump\t// out\n        /* \"#utility.yul\":6297:6477   */\n    tag_62:\n        /* \"#utility.yul\":6345:6422   */\n      0x4e487b7100000000000000000000000000000000000000000000000000000000\n        /* \"#utility.yul\":6342:6343   */\n      0x00\n        /* \"#utility.yul\":6335:6423   */\n      mstore\n        /* \"#utility.yul\":6442:6446   */\n      0x11\n        /* \"#utility.yul\":6439:6440   */\n      0x04\n        /* \"#utility.yul\":6432:6447   */\n      mstore\n        /* \"#utility.yul\":6466:6470   */\n      0x24\n        /* \"#utility.yul\":6463:6464   */\n      0x00\n        /* \"#utility.yul\":6456:6471   */\n      revert\n        /* \"#utility.yul\":6483:6674   */\n    tag_27:\n        /* \"#utility.yul\":6523:6526   */\n      0x00\n        /* \"#utility.yul\":6542:6562   */\n      tag_132\n        /* \"#utility.yul\":6560:6561   */\n      dup3\n        /* \"#utility.yul\":6542:6562   */\n      tag_41\n      jump\t// in\n    tag_132:\n        /* \"#utility.yul\":6537:6562   */\n      swap2\n      pop\n        /* \"#utility.yul\":6576:6596   */\n      tag_133\n        /* \"#utility.yul\":6594:6595   */\n      dup4\n        /* \"#utility.yul\":6576:6596   */\n      tag_41\n      jump\t// in\n    tag_133:\n        /* \"#utility.yul\":6571:6596   */\n      swap3\n      pop\n        /* \"#utility.yul\":6619:6620   */\n      dup3\n        /* \"#utility.yul\":6616:6617   */\n      dup3\n        /* \"#utility.yul\":6612:6621   */\n      add\n        /* \"#utility.yul\":6605:6621   */\n      swap1\n      pop\n        /* \"#utility.yul\":6640:6643   */\n      dup1\n        /* \"#utility.yul\":6637:6638   */\n      dup3\n        /* \"#utility.yul\":6634:6644   */\n      gt\n        /* \"#utility.yul\":6631:6667   */\n      iszero\n      tag_134\n      jumpi\n        /* \"#utility.yul\":6647:6665   */\n      tag_135\n      tag_62\n      jump\t// in\n    tag_135:\n        /* \"#utility.yul\":6631:6667   */\n    tag_134:\n        /* \"#utility.yul\":6483:6674   */\n      swap3\n      swap2\n      pop\n      pop\n      jump\t// out\n\n    auxdata: 0xa264697066735822122036f91491d6f62682199c1b6bf491f081d91d42f6942fb92635a7773d28fd54b264736f6c634300081a0033\n}\n",
				"bytecode": {
					"linkReferences": {},
					"object": "608060405234801561000f575f80fd5b506040518060200160405280604051806060016040528060308152602001610f03603091398152505f80600181526020019081526020015f205f820151815f01908161005b919061073f565b5090505060405180602001604052806040518060600160405280603b815260200161110e603b91398152505f80600281526020019081526020015f205f820151815f0190816100aa919061073f565b509050506040518060200160405280604051806060016040528060338152602001611149603391398152505f80600381526020019081526020015f205f820151815f0190816100f9919061073f565b509050506040518060200160405280604051806060016040528060328152602001610ea2603291398152505f80600481526020019081526020015f205f820151815f019081610148919061073f565b5090505060405180602001604052806040518060600160405280603a8152602001610f33603a91398152505f80600581526020019081526020015f205f820151815f019081610197919061073f565b5090505060405180602001604052806040518060600160405280602c8152602001610e76602c91398152505f80600681526020019081526020015f205f820151815f0190816101e6919061073f565b5090505060405180602001604052806040518060600160405280603881526020016110a5603891398152505f80600781526020019081526020015f205f820151815f019081610235919061073f565b50905050604051806020016040528060405180606001604052806030815260200161101c603091398152505f80600881526020019081526020015f205f820151815f019081610284919061073f565b5090505060405180602001604052806040518060600160405280602a8152602001610fc3602a91398152505f80600981526020019081526020015f205f820151815f0190816102d3919061073f565b5090505060405180602001604052806040518060600160405280602f8152602001610ed4602f91398152505f80600a81526020019081526020015f205f820151815f019081610322919061073f565b5090505060405180602001604052806040518060600160405280602d8152602001610f96602d91398152505f80600b81526020019081526020015f205f820151815f019081610371919061073f565b509050506040518060200160405280604051806060016040528060298152602001610f6d602991398152505f80600c81526020019081526020015f205f820151815f0190816103c0919061073f565b5090505060405180602001604052806040518060600160405280602e815260200161104c602e91398152505f80600d81526020019081526020015f205f820151815f01908161040f919061073f565b5090505060405180602001604052806040518060600160405280603181526020016110dd603191398152505f80600e81526020019081526020015f205f820151815f01908161045e919061073f565b5090505060405180602001604052806040518060600160405280602b815260200161107a602b91398152505f80600f81526020019081526020015f205f820151815f0190816104ad919061073f565b5090505060405180602001604052806040518060600160405280602f8152602001610fed602f91398152505f80601081526020019081526020015f205f820151815f0190816104fc919061073f565b5090505061080e565b5f81519050919050565b7f4e487b71000000000000000000000000000000000000000000000000000000005f52604160045260245ffd5b7f4e487b71000000000000000000000000000000000000000000000000000000005f52602260045260245ffd5b5f600282049050600182168061058057607f821691505b6020821081036105935761059261053c565b5b50919050565b5f819050815f5260205f209050919050565b5f6020601f8301049050919050565b5f82821b905092915050565b5f600883026105f57fffffffffffffffffffffffffffffffffffffffffffffffffffffffffffffffff826105ba565b6105ff86836105ba565b95508019841693508086168417925050509392505050565b5f819050919050565b5f819050919050565b5f61064361063e61063984610617565b610620565b610617565b9050919050565b5f819050919050565b61065c83610629565b6106706106688261064a565b8484546105c6565b825550505050565b5f90565b610684610678565b61068f818484610653565b505050565b5b818110156106b2576106a75f8261067c565b600181019050610695565b5050565b601f8211156106f7576106c881610599565b6106d1846105ab565b810160208510156106e0578190505b6106f46106ec856105ab565b830182610694565b50505b505050565b5f82821c905092915050565b5f6107175f19846008026106fc565b1980831691505092915050565b5f61072f8383610708565b9150826002028217905092915050565b61074882610505565b67ffffffffffffffff8111156107615761076061050f565b5b61076b8254610569565b6107768282856106b6565b5f60209050601f8311600181146107a7575f8415610795578287015190505b61079f8582610724565b865550610806565b601f1984166107b586610599565b5f5b828110156107dc578489015182556001820191506020850194506020810190506107b7565b868310156107f957848901516107f5601f891682610708565b8355505b6001600288020188555050505b505050505050565b61065b8061081b5f395ff3fe608060405234801561000f575f80fd5b5060043610610034575f3560e01c80630bc69182146100385780632cfdbf7114610069575b5f80fd5b610052600480360381019061004d91906102c9565b610099565b604051610060929190610373565b60405180910390f35b610083600480360381019061007e91906102c9565b6101f3565b60405161009091906103a1565b60405180910390f35b60605f805f808581526020019081526020015f205f0180546100ba906103ee565b9050116100fc576040517f08c379a00000000000000000000000000000000000000000000000000000000081526004016100f390610468565b60405180910390fd5b5f42443386604051602001610114949392919061051b565b604051602081830303815290604052805190602001205f1c90505f60fa6102278361013f9190610595565b61014991906105f2565b90505f808681526020019081526020015f205f018181805461016a906103ee565b80601f0160208091040260200160405190810160405280929190818152602001828054610196906103ee565b80156101e15780601f106101b8576101008083540402835291602001916101e1565b820191905f5260205f20905b8154815290600101906020018083116101c457829003601f168201915b50505050509150935093505050915091565b5f602052805f5260405f205f91509050805f018054610211906103ee565b80601f016020809104026020016040519081016040528092919081815260200182805461023d906103ee565b80156102885780601f1061025f57610100808354040283529160200191610288565b820191905f5260205f20905b81548152906001019060200180831161026b57829003601f168201915b5050505050905081565b5f80fd5b5f819050919050565b6102a881610296565b81146102b2575f80fd5b50565b5f813590506102c38161029f565b92915050565b5f602082840312156102de576102dd610292565b5b5f6102eb848285016102b5565b91505092915050565b5f81519050919050565b5f82825260208201905092915050565b8281835e5f83830152505050565b5f601f19601f8301169050919050565b5f610336826102f4565b61034081856102fe565b935061035081856020860161030e565b6103598161031c565b840191505092915050565b61036d81610296565b82525050565b5f6040820190508181035f83015261038b818561032c565b905061039a6020830184610364565b9392505050565b5f6020820190508181035f8301526103b9818461032c565b905092915050565b7f4e487b71000000000000000000000000000000000000000000000000000000005f52602260045260245ffd5b5f600282049050600182168061040557607f821691505b602082108103610418576104176103c1565b5b50919050565b7f426c6f636b206e6f7420666f756e6400000000000000000000000000000000005f82015250565b5f610452600f836102fe565b915061045d8261041e565b602082019050919050565b5f6020820190508181035f83015261047f81610446565b9050919050565b5f819050919050565b6104a061049b82610296565b610486565b82525050565b5f73ffffffffffffffffffffffffffffffffffffffff82169050919050565b5f6104cf826104a6565b9050919050565b5f8160601b9050919050565b5f6104ec826104d6565b9050919050565b5f6104fd826104e2565b9050919050565b610515610510826104c5565b6104f3565b82525050565b5f610526828761048f565b602082019150610536828661048f565b6020820191506105468285610504565b601482019150610556828461048f565b60208201915081905095945050505050565b7f4e487b71000000000000000000000000000000000000000000000000000000005f52601260045260245ffd5b5f61059f82610296565b91506105aa83610296565b9250826105ba576105b9610568565b5b828206905092915050565b7f4e487b71000000000000000000000000000000000000000000000000000000005f52601160045260245ffd5b5f6105fc82610296565b915061060783610296565b925082820190508082111561061f5761061e6105c5565b5b9291505056fea264697066735822122036f91491d6f62682199c1b6bf491f081d91d42f6942fb92635a7773d28fd54b264736f6c634300081a003343726f702047726f77746820616e6420686172766573742043726f7020736f77696e67207265636f72646564536565642064656c697665727920746f206661726d6572204469676974616c206f7264657220636f6e6669726d6174696f6e436f6e73756d657220507572636861736520436f6d7075746174696f6e20616e64207175616c69747920636865636b4661726d6572204b5943207375626d697373696f6e2020496e697469616c207472616e73616374696f6e2073657475705061796d656e742072656c6561736520746f2077686f6c6573616c65722044656c697665727920747261636b696e672076616c69646174696f6e57686f6c6573616c657220746f20636f6e73756d65722044656d616e64206167677265676174696f6e52657461696c20646973747269627574696f6e20436f6e73756d6572206c6576656c20636865636b706f696e7452657461696c20646973747269627574696f6e205472616e73706f727420262076616c69646174696f6e436f6e6669726d6174696f6e2046696e616c20636f6e73756d657220636f6e6669726d6174696f6e207265636f726453656e6420636f726e20746f2070726f63657373696e6720756e697420496f542064617461206d6f6e69746f72696e67436f6e73756d6572207075726368617365204d756c7469706c6520627579657273207472616e73616374696f6e73526570656174207472616e73616374696f6e204f7074696d697a656420726570656174207061747465726e526563656976656420686172766573742063726f702066726f6d206661726d6572204669656c64206d6f6e69746f72696e6720656e7472795061796d656e7420736574746c656d656e742053696d706c6520736574746c656d656e7420636f6e6669726d6174696f6e476f76742e2046756e6420416c6c6f636174696f6e20205375627369647920617070726f76616c20616e642066756e6420616c6c6f636174696f6e536565642077686f6c6573616c6572206f72646572205365656420737570706c79207265717565737420636f6e6669726d6564",
					"opcodes": "PUSH1 0x80 PUSH1 0x40 MSTORE CALLVALUE DUP1 ISZERO PUSH2 0xF JUMPI PUSH0 DUP1 REVERT JUMPDEST POP PUSH1 0x40 MLOAD DUP1 PUSH1 0x20 ADD PUSH1 0x40 MSTORE DUP1 PUSH1 0x40 MLOAD DUP1 PUSH1 0x60 ADD PUSH1 0x40 MSTORE DUP1 PUSH1 0x30 DUP2 MSTORE PUSH1 0x20 ADD PUSH2 0xF03 PUSH1 0x30 SWAP2 CODECOPY DUP2 MSTORE POP PUSH0 DUP1 PUSH1 0x1 DUP2 MSTORE PUSH1 0x20 ADD SWAP1 DUP2 MSTORE PUSH1 0x20 ADD PUSH0 KECCAK256 PUSH0 DUP3 ADD MLOAD DUP2 PUSH0 ADD SWAP1 DUP2 PUSH2 0x5B SWAP2 SWAP1 PUSH2 0x73F JUMP JUMPDEST POP SWAP1 POP POP PUSH1 0x40 MLOAD DUP1 PUSH1 0x20 ADD PUSH1 0x40 MSTORE DUP1 PUSH1 0x40 MLOAD DUP1 PUSH1 0x60 ADD PUSH1 0x40 MSTORE DUP1 PUSH1 0x3B DUP2 MSTORE PUSH1 0x20 ADD PUSH2 0x110E PUSH1 0x3B SWAP2 CODECOPY DUP2 MSTORE POP PUSH0 DUP1 PUSH1 0x2 DUP2 MSTORE PUSH1 0x20 ADD SWAP1 DUP2 MSTORE PUSH1 0x20 ADD PUSH0 KECCAK256 PUSH0 DUP3 ADD MLOAD DUP2 PUSH0 ADD SWAP1 DUP2 PUSH2 0xAA SWAP2 SWAP1 PUSH2 0x73F JUMP JUMPDEST POP SWAP1 POP POP PUSH1 0x40 MLOAD DUP1 PUSH1 0x20 ADD PUSH1 0x40 MSTORE DUP1 PUSH1 0x40 MLOAD DUP1 PUSH1 0x60 ADD PUSH1 0x40 MSTORE DUP1 PUSH1 0x33 DUP2 MSTORE PUSH1 0x20 ADD PUSH2 0x1149 PUSH1 0x33 SWAP2 CODECOPY DUP2 MSTORE POP PUSH0 DUP1 PUSH1 0x3 DUP2 MSTORE PUSH1 0x20 ADD SWAP1 DUP2 MSTORE PUSH1 0x20 ADD PUSH0 KECCAK256 PUSH0 DUP3 ADD MLOAD DUP2 PUSH0 ADD SWAP1 DUP2 PUSH2 0xF9 SWAP2 SWAP1 PUSH2 0x73F JUMP JUMPDEST POP SWAP1 POP POP PUSH1 0x40 MLOAD DUP1 PUSH1 0x20 ADD PUSH1 0x40 MSTORE DUP1 PUSH1 0x40 MLOAD DUP1 PUSH1 0x60 ADD PUSH1 0x40 MSTORE DUP1 PUSH1 0x32 DUP2 MSTORE PUSH1 0x20 ADD PUSH2 0xEA2 PUSH1 0x32 SWAP2 CODECOPY DUP2 MSTORE POP PUSH0 DUP1 PUSH1 0x4 DUP2 MSTORE PUSH1 0x20 ADD SWAP1 DUP2 MSTORE PUSH1 0x20 ADD PUSH0 KECCAK256 PUSH0 DUP3 ADD MLOAD DUP2 PUSH0 ADD SWAP1 DUP2 PUSH2 0x148 SWAP2 SWAP1 PUSH2 0x73F JUMP JUMPDEST POP SWAP1 POP POP PUSH1 0x40 MLOAD DUP1 PUSH1 0x20 ADD PUSH1 0x40 MSTORE DUP1 PUSH1 0x40 MLOAD DUP1 PUSH1 0x60 ADD PUSH1 0x40 MSTORE DUP1 PUSH1 0x3A DUP2 MSTORE PUSH1 0x20 ADD PUSH2 0xF33 PUSH1 0x3A SWAP2 CODECOPY DUP2 MSTORE POP PUSH0 DUP1 PUSH1 0x5 DUP2 MSTORE PUSH1 0x20 ADD SWAP1 DUP2 MSTORE PUSH1 0x20 ADD PUSH0 KECCAK256 PUSH0 DUP3 ADD MLOAD DUP2 PUSH0 ADD SWAP1 DUP2 PUSH2 0x197 SWAP2 SWAP1 PUSH2 0x73F JUMP JUMPDEST POP SWAP1 POP POP PUSH1 0x40 MLOAD DUP1 PUSH1 0x20 ADD PUSH1 0x40 MSTORE DUP1 PUSH1 0x40 MLOAD DUP1 PUSH1 0x60 ADD PUSH1 0x40 MSTORE DUP1 PUSH1 0x2C DUP2 MSTORE PUSH1 0x20 ADD PUSH2 0xE76 PUSH1 0x2C SWAP2 CODECOPY DUP2 MSTORE POP PUSH0 DUP1 PUSH1 0x6 DUP2 MSTORE PUSH1 0x20 ADD SWAP1 DUP2 MSTORE PUSH1 0x20 ADD PUSH0 KECCAK256 PUSH0 DUP3 ADD MLOAD DUP2 PUSH0 ADD SWAP1 DUP2 PUSH2 0x1E6 SWAP2 SWAP1 PUSH2 0x73F JUMP JUMPDEST POP SWAP1 POP POP PUSH1 0x40 MLOAD DUP1 PUSH1 0x20 ADD PUSH1 0x40 MSTORE DUP1 PUSH1 0x40 MLOAD DUP1 PUSH1 0x60 ADD PUSH1 0x40 MSTORE DUP1 PUSH1 0x38 DUP2 MSTORE PUSH1 0x20 ADD PUSH2 0x10A5 PUSH1 0x38 SWAP2 CODECOPY DUP2 MSTORE POP PUSH0 DUP1 PUSH1 0x7 DUP2 MSTORE PUSH1 0x20 ADD SWAP1 DUP2 MSTORE PUSH1 0x20 ADD PUSH0 KECCAK256 PUSH0 DUP3 ADD MLOAD DUP2 PUSH0 ADD SWAP1 DUP2 PUSH2 0x235 SWAP2 SWAP1 PUSH2 0x73F JUMP JUMPDEST POP SWAP1 POP POP PUSH1 0x40 MLOAD DUP1 PUSH1 0x20 ADD PUSH1 0x40 MSTORE DUP1 PUSH1 0x40 MLOAD DUP1 PUSH1 0x60 ADD PUSH1 0x40 MSTORE DUP1 PUSH1 0x30 DUP2 MSTORE PUSH1 0x20 ADD PUSH2 0x101C PUSH1 0x30 SWAP2 CODECOPY DUP2 MSTORE POP PUSH0 DUP1 PUSH1 0x8 DUP2 MSTORE PUSH1 0x20 ADD SWAP1 DUP2 MSTORE PUSH1 0x20 ADD PUSH0 KECCAK256 PUSH0 DUP3 ADD MLOAD DUP2 PUSH0 ADD SWAP1 DUP2 PUSH2 0x284 SWAP2 SWAP1 PUSH2 0x73F JUMP JUMPDEST POP SWAP1 POP POP PUSH1 0x40 MLOAD DUP1 PUSH1 0x20 ADD PUSH1 0x40 MSTORE DUP1 PUSH1 0x40 MLOAD DUP1 PUSH1 0x60 ADD PUSH1 0x40 MSTORE DUP1 PUSH1 0x2A DUP2 MSTORE PUSH1 0x20 ADD PUSH2 0xFC3 PUSH1 0x2A SWAP2 CODECOPY DUP2 MSTORE POP PUSH0 DUP1 PUSH1 0x9 DUP2 MSTORE PUSH1 0x20 ADD SWAP1 DUP2 MSTORE PUSH1 0x20 ADD PUSH0 KECCAK256 PUSH0 DUP3 ADD MLOAD DUP2 PUSH0 ADD SWAP1 DUP2 PUSH2 0x2D3 SWAP2 SWAP1 PUSH2 0x73F JUMP JUMPDEST POP SWAP1 POP POP PUSH1 0x40 MLOAD DUP1 PUSH1 0x20 ADD PUSH1 0x40 MSTORE DUP1 PUSH1 0x40 MLOAD DUP1 PUSH1 0x60 ADD PUSH1 0x40 MSTORE DUP1 PUSH1 0x2F DUP2 MSTORE PUSH1 0x20 ADD PUSH2 0xED4 PUSH1 0x2F SWAP2 CODECOPY DUP2 MSTORE POP PUSH0 DUP1 PUSH1 0xA DUP2 MSTORE PUSH1 0x20 ADD SWAP1 DUP2 MSTORE PUSH1 0x20 ADD PUSH0 KECCAK256 PUSH0 DUP3 ADD MLOAD DUP2 PUSH0 ADD SWAP1 DUP2 PUSH2 0x322 SWAP2 SWAP1 PUSH2 0x73F JUMP JUMPDEST POP SWAP1 POP POP PUSH1 0x40 MLOAD DUP1 PUSH1 0x20 ADD PUSH1 0x40 MSTORE DUP1 PUSH1 0x40 MLOAD DUP1 PUSH1 0x60 ADD PUSH1 0x40 MSTORE DUP1 PUSH1 0x2D DUP2 MSTORE PUSH1 0x20 ADD PUSH2 0xF96 PUSH1 0x2D SWAP2 CODECOPY DUP2 MSTORE POP PUSH0 DUP1 PUSH1 0xB DUP2 MSTORE PUSH1 0x20 ADD SWAP1 DUP2 MSTORE PUSH1 0x20 ADD PUSH0 KECCAK256 PUSH0 DUP3 ADD MLOAD DUP2 PUSH0 ADD SWAP1 DUP2 PUSH2 0x371 SWAP2 SWAP1 PUSH2 0x73F JUMP JUMPDEST POP SWAP1 POP POP PUSH1 0x40 MLOAD DUP1 PUSH1 0x20 ADD PUSH1 0x40 MSTORE DUP1 PUSH1 0x40 MLOAD DUP1 PUSH1 0x60 ADD PUSH1 0x40 MSTORE DUP1 PUSH1 0x29 DUP2 MSTORE PUSH1 0x20 ADD PUSH2 0xF6D PUSH1 0x29 SWAP2 CODECOPY DUP2 MSTORE POP PUSH0 DUP1 PUSH1 0xC DUP2 MSTORE PUSH1 0x20 ADD SWAP1 DUP2 MSTORE PUSH1 0x20 ADD PUSH0 KECCAK256 PUSH0 DUP3 ADD MLOAD DUP2 PUSH0 ADD SWAP1 DUP2 PUSH2 0x3C0 SWAP2 SWAP1 PUSH2 0x73F JUMP JUMPDEST POP SWAP1 POP POP PUSH1 0x40 MLOAD DUP1 PUSH1 0x20 ADD PUSH1 0x40 MSTORE DUP1 PUSH1 0x40 MLOAD DUP1 PUSH1 0x60 ADD PUSH1 0x40 MSTORE DUP1 PUSH1 0x2E DUP2 MSTORE PUSH1 0x20 ADD PUSH2 0x104C PUSH1 0x2E SWAP2 CODECOPY DUP2 MSTORE POP PUSH0 DUP1 PUSH1 0xD DUP2 MSTORE PUSH1 0x20 ADD SWAP1 DUP2 MSTORE PUSH1 0x20 ADD PUSH0 KECCAK256 PUSH0 DUP3 ADD MLOAD DUP2 PUSH0 ADD SWAP1 DUP2 PUSH2 0x40F SWAP2 SWAP1 PUSH2 0x73F JUMP JUMPDEST POP SWAP1 POP POP PUSH1 0x40 MLOAD DUP1 PUSH1 0x20 ADD PUSH1 0x40 MSTORE DUP1 PUSH1 0x40 MLOAD DUP1 PUSH1 0x60 ADD PUSH1 0x40 MSTORE DUP1 PUSH1 0x31 DUP2 MSTORE PUSH1 0x20 ADD PUSH2 0x10DD PUSH1 0x31 SWAP2 CODECOPY DUP2 MSTORE POP PUSH0 DUP1 PUSH1 0xE DUP2 MSTORE PUSH1 0x20 ADD SWAP1 DUP2 MSTORE PUSH1 0x20 ADD PUSH0 KECCAK256 PUSH0 DUP3 ADD MLOAD DUP2 PUSH0 ADD SWAP1 DUP2 PUSH2 0x45E SWAP2 SWAP1 PUSH2 0x73F JUMP JUMPDEST POP SWAP1 POP POP PUSH1 0x40 MLOAD DUP1 PUSH1 0x20 ADD PUSH1 0x40 MSTORE DUP1 PUSH1 0x40 MLOAD DUP1 PUSH1 0x60 ADD PUSH1 0x40 MSTORE DUP1 PUSH1 0x2B DUP2 MSTORE PUSH1 0x20 ADD PUSH2 0x107A PUSH1 0x2B SWAP2 CODECOPY DUP2 MSTORE POP PUSH0 DUP1 PUSH1 0xF DUP2 MSTORE PUSH1 0x20 ADD SWAP1 DUP2 MSTORE PUSH1 0x20 ADD PUSH0 KECCAK256 PUSH0 DUP3 ADD MLOAD DUP2 PUSH0 ADD SWAP1 DUP2 PUSH2 0x4AD SWAP2 SWAP1 PUSH2 0x73F JUMP JUMPDEST POP SWAP1 POP POP PUSH1 0x40 MLOAD DUP1 PUSH1 0x20 ADD PUSH1 0x40 MSTORE DUP1 PUSH1 0x40 MLOAD DUP1 PUSH1 0x60 ADD PUSH1 0x40 MSTORE DUP1 PUSH1 0x2F DUP2 MSTORE PUSH1 0x20 ADD PUSH2 0xFED PUSH1 0x2F SWAP2 CODECOPY DUP2 MSTORE POP PUSH0 DUP1 PUSH1 0x10 DUP2 MSTORE PUSH1 0x20 ADD SWAP1 DUP2 MSTORE PUSH1 0x20 ADD PUSH0 KECCAK256 PUSH0 DUP3 ADD MLOAD DUP2 PUSH0 ADD SWAP1 DUP2 PUSH2 0x4FC SWAP2 SWAP1 PUSH2 0x73F JUMP JUMPDEST POP SWAP1 POP POP PUSH2 0x80E JUMP JUMPDEST PUSH0 DUP2 MLOAD SWAP1 POP SWAP2 SWAP1 POP JUMP JUMPDEST PUSH32 0x4E487B7100000000000000000000000000000000000000000000000000000000 PUSH0 MSTORE PUSH1 0x41 PUSH1 0x4 MSTORE PUSH1 0x24 PUSH0 REVERT JUMPDEST PUSH32 0x4E487B7100000000000000000000000000000000000000000000000000000000 PUSH0 MSTORE PUSH1 0x22 PUSH1 0x4 MSTORE PUSH1 0x24 PUSH0 REVERT JUMPDEST PUSH0 PUSH1 0x2 DUP3 DIV SWAP1 POP PUSH1 0x1 DUP3 AND DUP1 PUSH2 0x580 JUMPI PUSH1 0x7F DUP3 AND SWAP2 POP JUMPDEST PUSH1 0x20 DUP3 LT DUP2 SUB PUSH2 0x593 JUMPI PUSH2 0x592 PUSH2 0x53C JUMP JUMPDEST JUMPDEST POP SWAP2 SWAP1 POP JUMP JUMPDEST PUSH0 DUP2 SWAP1 POP DUP2 PUSH0 MSTORE PUSH1 0x20 PUSH0 KECCAK256 SWAP1 POP SWAP2 SWAP1 POP JUMP JUMPDEST PUSH0 PUSH1 0x20 PUSH1 0x1F DUP4 ADD DIV SWAP1 POP SWAP2 SWAP1 POP JUMP JUMPDEST PUSH0 DUP3 DUP3 SHL SWAP1 POP SWAP3 SWAP2 POP POP JUMP JUMPDEST PUSH0 PUSH1 0x8 DUP4 MUL PUSH2 0x5F5 PUSH32 0xFFFFFFFFFFFFFFFFFFFFFFFFFFFFFFFFFFFFFFFFFFFFFFFFFFFFFFFFFFFFFFFF DUP3 PUSH2 0x5BA JUMP JUMPDEST PUSH2 0x5FF DUP7 DUP4 PUSH2 0x5BA JUMP JUMPDEST SWAP6 POP DUP1 NOT DUP5 AND SWAP4 POP DUP1 DUP7 AND DUP5 OR SWAP3 POP POP POP SWAP4 SWAP3 POP POP POP JUMP JUMPDEST PUSH0 DUP2 SWAP1 POP SWAP2 SWAP1 POP JUMP JUMPDEST PUSH0 DUP2 SWAP1 POP SWAP2 SWAP1 POP JUMP JUMPDEST PUSH0 PUSH2 0x643 PUSH2 0x63E PUSH2 0x639 DUP5 PUSH2 0x617 JUMP JUMPDEST PUSH2 0x620 JUMP JUMPDEST PUSH2 0x617 JUMP JUMPDEST SWAP1 POP SWAP2 SWAP1 POP JUMP JUMPDEST PUSH0 DUP2 SWAP1 POP SWAP2 SWAP1 POP JUMP JUMPDEST PUSH2 0x65C DUP4 PUSH2 0x629 JUMP JUMPDEST PUSH2 0x670 PUSH2 0x668 DUP3 PUSH2 0x64A JUMP JUMPDEST DUP5 DUP5 SLOAD PUSH2 0x5C6 JUMP JUMPDEST DUP3 SSTORE POP POP POP POP JUMP JUMPDEST PUSH0 SWAP1 JUMP JUMPDEST PUSH2 0x684 PUSH2 0x678 JUMP JUMPDEST PUSH2 0x68F DUP2 DUP5 DUP5 PUSH2 0x653 JUMP JUMPDEST POP POP POP JUMP JUMPDEST JUMPDEST DUP2 DUP2 LT ISZERO PUSH2 0x6B2 JUMPI PUSH2 0x6A7 PUSH0 DUP3 PUSH2 0x67C JUMP JUMPDEST PUSH1 0x1 DUP2 ADD SWAP1 POP PUSH2 0x695 JUMP JUMPDEST POP POP JUMP JUMPDEST PUSH1 0x1F DUP3 GT ISZERO PUSH2 0x6F7 JUMPI PUSH2 0x6C8 DUP2 PUSH2 0x599 JUMP JUMPDEST PUSH2 0x6D1 DUP5 PUSH2 0x5AB JUMP JUMPDEST DUP2 ADD PUSH1 0x20 DUP6 LT ISZERO PUSH2 0x6E0 JUMPI DUP2 SWAP1 POP JUMPDEST PUSH2 0x6F4 PUSH2 0x6EC DUP6 PUSH2 0x5AB JUMP JUMPDEST DUP4 ADD DUP3 PUSH2 0x694 JUMP JUMPDEST POP POP JUMPDEST POP POP POP JUMP JUMPDEST PUSH0 DUP3 DUP3 SHR SWAP1 POP SWAP3 SWAP2 POP POP JUMP JUMPDEST PUSH0 PUSH2 0x717 PUSH0 NOT DUP5 PUSH1 0x8 MUL PUSH2 0x6FC JUMP JUMPDEST NOT DUP1 DUP4 AND SWAP2 POP POP SWAP3 SWAP2 POP POP JUMP JUMPDEST PUSH0 PUSH2 0x72F DUP4 DUP4 PUSH2 0x708 JUMP JUMPDEST SWAP2 POP DUP3 PUSH1 0x2 MUL DUP3 OR SWAP1 POP SWAP3 SWAP2 POP POP JUMP JUMPDEST PUSH2 0x748 DUP3 PUSH2 0x505 JUMP JUMPDEST PUSH8 0xFFFFFFFFFFFFFFFF DUP2 GT ISZERO PUSH2 0x761 JUMPI PUSH2 0x760 PUSH2 0x50F JUMP JUMPDEST JUMPDEST PUSH2 0x76B DUP3 SLOAD PUSH2 0x569 JUMP JUMPDEST PUSH2 0x776 DUP3 DUP3 DUP6 PUSH2 0x6B6 JUMP JUMPDEST PUSH0 PUSH1 0x20 SWAP1 POP PUSH1 0x1F DUP4 GT PUSH1 0x1 DUP2 EQ PUSH2 0x7A7 JUMPI PUSH0 DUP5 ISZERO PUSH2 0x795 JUMPI DUP3 DUP8 ADD MLOAD SWAP1 POP JUMPDEST PUSH2 0x79F DUP6 DUP3 PUSH2 0x724 JUMP JUMPDEST DUP7 SSTORE POP PUSH2 0x806 JUMP JUMPDEST PUSH1 0x1F NOT DUP5 AND PUSH2 0x7B5 DUP7 PUSH2 0x599 JUMP JUMPDEST PUSH0 JUMPDEST DUP3 DUP2 LT ISZERO PUSH2 0x7DC JUMPI DUP5 DUP10 ADD MLOAD DUP3 SSTORE PUSH1 0x1 DUP3 ADD SWAP2 POP PUSH1 0x20 DUP6 ADD SWAP5 POP PUSH1 0x20 DUP2 ADD SWAP1 POP PUSH2 0x7B7 JUMP JUMPDEST DUP7 DUP4 LT ISZERO PUSH2 0x7F9 JUMPI DUP5 DUP10 ADD MLOAD PUSH2 0x7F5 PUSH1 0x1F DUP10 AND DUP3 PUSH2 0x708 JUMP JUMPDEST DUP4 SSTORE POP JUMPDEST PUSH1 0x1 PUSH1 0x2 DUP9 MUL ADD DUP9 SSTORE POP POP POP JUMPDEST POP POP POP POP POP POP JUMP JUMPDEST PUSH2 0x65B DUP1 PUSH2 0x81B PUSH0 CODECOPY PUSH0 RETURN INVALID PUSH1 0x80 PUSH1 0x40 MSTORE CALLVALUE DUP1 ISZERO PUSH2 0xF JUMPI PUSH0 DUP1 REVERT JUMPDEST POP PUSH1 0x4 CALLDATASIZE LT PUSH2 0x34 JUMPI PUSH0 CALLDATALOAD PUSH1 0xE0 SHR DUP1 PUSH4 0xBC69182 EQ PUSH2 0x38 JUMPI DUP1 PUSH4 0x2CFDBF71 EQ PUSH2 0x69 JUMPI JUMPDEST PUSH0 DUP1 REVERT JUMPDEST PUSH2 0x52 PUSH1 0x4 DUP1 CALLDATASIZE SUB DUP2 ADD SWAP1 PUSH2 0x4D SWAP2 SWAP1 PUSH2 0x2C9 JUMP JUMPDEST PUSH2 0x99 JUMP JUMPDEST PUSH1 0x40 MLOAD PUSH2 0x60 SWAP3 SWAP2 SWAP1 PUSH2 0x373 JUMP JUMPDEST PUSH1 0x40 MLOAD DUP1 SWAP2 SUB SWAP1 RETURN JUMPDEST PUSH2 0x83 PUSH1 0x4 DUP1 CALLDATASIZE SUB DUP2 ADD SWAP1 PUSH2 0x7E SWAP2 SWAP1 PUSH2 0x2C9 JUMP JUMPDEST PUSH2 0x1F3 JUMP JUMPDEST PUSH1 0x40 MLOAD PUSH2 0x90 SWAP2 SWAP1 PUSH2 0x3A1 JUMP JUMPDEST PUSH1 0x40 MLOAD DUP1 SWAP2 SUB SWAP1 RETURN JUMPDEST PUSH1 0x60 PUSH0 DUP1 PUSH0 DUP1 DUP6 DUP2 MSTORE PUSH1 0x20 ADD SWAP1 DUP2 MSTORE PUSH1 0x20 ADD PUSH0 KECCAK256 PUSH0 ADD DUP1 SLOAD PUSH2 0xBA SWAP1 PUSH2 0x3EE JUMP JUMPDEST SWAP1 POP GT PUSH2 0xFC JUMPI PUSH1 0x40 MLOAD PUSH32 0x8C379A000000000000000000000000000000000000000000000000000000000 DUP2 MSTORE PUSH1 0x4 ADD PUSH2 0xF3 SWAP1 PUSH2 0x468 JUMP JUMPDEST PUSH1 0x40 MLOAD DUP1 SWAP2 SUB SWAP1 REVERT JUMPDEST PUSH0 TIMESTAMP PREVRANDAO CALLER DUP7 PUSH1 0x40 MLOAD PUSH1 0x20 ADD PUSH2 0x114 SWAP5 SWAP4 SWAP3 SWAP2 SWAP1 PUSH2 0x51B JUMP JUMPDEST PUSH1 0x40 MLOAD PUSH1 0x20 DUP2 DUP4 SUB SUB DUP2 MSTORE SWAP1 PUSH1 0x40 MSTORE DUP1 MLOAD SWAP1 PUSH1 0x20 ADD KECCAK256 PUSH0 SHR SWAP1 POP PUSH0 PUSH1 0xFA PUSH2 0x227 DUP4 PUSH2 0x13F SWAP2 SWAP1 PUSH2 0x595 JUMP JUMPDEST PUSH2 0x149 SWAP2 SWAP1 PUSH2 0x5F2 JUMP JUMPDEST SWAP1 POP PUSH0 DUP1 DUP7 DUP2 MSTORE PUSH1 0x20 ADD SWAP1 DUP2 MSTORE PUSH1 0x20 ADD PUSH0 KECCAK256 PUSH0 ADD DUP2 DUP2 DUP1 SLOAD PUSH2 0x16A SWAP1 PUSH2 0x3EE JUMP JUMPDEST DUP1 PUSH1 0x1F ADD PUSH1 0x20 DUP1 SWAP2 DIV MUL PUSH1 0x20 ADD PUSH1 0x40 MLOAD SWAP1 DUP2 ADD PUSH1 0x40 MSTORE DUP1 SWAP3 SWAP2 SWAP1 DUP2 DUP2 MSTORE PUSH1 0x20 ADD DUP3 DUP1 SLOAD PUSH2 0x196 SWAP1 PUSH2 0x3EE JUMP JUMPDEST DUP1 ISZERO PUSH2 0x1E1 JUMPI DUP1 PUSH1 0x1F LT PUSH2 0x1B8 JUMPI PUSH2 0x100 DUP1 DUP4 SLOAD DIV MUL DUP4 MSTORE SWAP2 PUSH1 0x20 ADD SWAP2 PUSH2 0x1E1 JUMP JUMPDEST DUP3 ADD SWAP2 SWAP1 PUSH0 MSTORE PUSH1 0x20 PUSH0 KECCAK256 SWAP1 JUMPDEST DUP2 SLOAD DUP2 MSTORE SWAP1 PUSH1 0x1 ADD SWAP1 PUSH1 0x20 ADD DUP1 DUP4 GT PUSH2 0x1C4 JUMPI DUP3 SWAP1 SUB PUSH1 0x1F AND DUP3 ADD SWAP2 JUMPDEST POP POP POP POP POP SWAP2 POP SWAP4 POP SWAP4 POP POP POP SWAP2 POP SWAP2 JUMP JUMPDEST PUSH0 PUSH1 0x20 MSTORE DUP1 PUSH0 MSTORE PUSH1 0x40 PUSH0 KECCAK256 PUSH0 SWAP2 POP SWAP1 POP DUP1 PUSH0 ADD DUP1 SLOAD PUSH2 0x211 SWAP1 PUSH2 0x3EE JUMP JUMPDEST DUP1 PUSH1 0x1F ADD PUSH1 0x20 DUP1 SWAP2 DIV MUL PUSH1 0x20 ADD PUSH1 0x40 MLOAD SWAP1 DUP2 ADD PUSH1 0x40 MSTORE DUP1 SWAP3 SWAP2 SWAP1 DUP2 DUP2 MSTORE PUSH1 0x20 ADD DUP3 DUP1 SLOAD PUSH2 0x23D SWAP1 PUSH2 0x3EE JUMP JUMPDEST DUP1 ISZERO PUSH2 0x288 JUMPI DUP1 PUSH1 0x1F LT PUSH2 0x25F JUMPI PUSH2 0x100 DUP1 DUP4 SLOAD DIV MUL DUP4 MSTORE SWAP2 PUSH1 0x20 ADD SWAP2 PUSH2 0x288 JUMP JUMPDEST DUP3 ADD SWAP2 SWAP1 PUSH0 MSTORE PUSH1 0x20 PUSH0 KECCAK256 SWAP1 JUMPDEST DUP2 SLOAD DUP2 MSTORE SWAP1 PUSH1 0x1 ADD SWAP1 PUSH1 0x20 ADD DUP1 DUP4 GT PUSH2 0x26B JUMPI DUP3 SWAP1 SUB PUSH1 0x1F AND DUP3 ADD SWAP2 JUMPDEST POP POP POP POP POP SWAP1 POP DUP2 JUMP JUMPDEST PUSH0 DUP1 REVERT JUMPDEST PUSH0 DUP2 SWAP1 POP SWAP2 SWAP1 POP JUMP JUMPDEST PUSH2 0x2A8 DUP2 PUSH2 0x296 JUMP JUMPDEST DUP2 EQ PUSH2 0x2B2 JUMPI PUSH0 DUP1 REVERT JUMPDEST POP JUMP JUMPDEST PUSH0 DUP2 CALLDATALOAD SWAP1 POP PUSH2 0x2C3 DUP2 PUSH2 0x29F JUMP JUMPDEST SWAP3 SWAP2 POP POP JUMP JUMPDEST PUSH0 PUSH1 0x20 DUP3 DUP5 SUB SLT ISZERO PUSH2 0x2DE JUMPI PUSH2 0x2DD PUSH2 0x292 JUMP JUMPDEST JUMPDEST PUSH0 PUSH2 0x2EB DUP5 DUP3 DUP6 ADD PUSH2 0x2B5 JUMP JUMPDEST SWAP2 POP POP SWAP3 SWAP2 POP POP JUMP JUMPDEST PUSH0 DUP2 MLOAD SWAP1 POP SWAP2 SWAP1 POP JUMP JUMPDEST PUSH0 DUP3 DUP3 MSTORE PUSH1 0x20 DUP3 ADD SWAP1 POP SWAP3 SWAP2 POP POP JUMP JUMPDEST DUP3 DUP2 DUP4 MCOPY PUSH0 DUP4 DUP4 ADD MSTORE POP POP POP JUMP JUMPDEST PUSH0 PUSH1 0x1F NOT PUSH1 0x1F DUP4 ADD AND SWAP1 POP SWAP2 SWAP1 POP JUMP JUMPDEST PUSH0 PUSH2 0x336 DUP3 PUSH2 0x2F4 JUMP JUMPDEST PUSH2 0x340 DUP2 DUP6 PUSH2 0x2FE JUMP JUMPDEST SWAP4 POP PUSH2 0x350 DUP2 DUP6 PUSH1 0x20 DUP7 ADD PUSH2 0x30E JUMP JUMPDEST PUSH2 0x359 DUP2 PUSH2 0x31C JUMP JUMPDEST DUP5 ADD SWAP2 POP POP SWAP3 SWAP2 POP POP JUMP JUMPDEST PUSH2 0x36D DUP2 PUSH2 0x296 JUMP JUMPDEST DUP3 MSTORE POP POP JUMP JUMPDEST PUSH0 PUSH1 0x40 DUP3 ADD SWAP1 POP DUP2 DUP2 SUB PUSH0 DUP4 ADD MSTORE PUSH2 0x38B DUP2 DUP6 PUSH2 0x32C JUMP JUMPDEST SWAP1 POP PUSH2 0x39A PUSH1 0x20 DUP4 ADD DUP5 PUSH2 0x364 JUMP JUMPDEST SWAP4 SWAP3 POP POP POP JUMP JUMPDEST PUSH0 PUSH1 0x20 DUP3 ADD SWAP1 POP DUP2 DUP2 SUB PUSH0 DUP4 ADD MSTORE PUSH2 0x3B9 DUP2 DUP5 PUSH2 0x32C JUMP JUMPDEST SWAP1 POP SWAP3 SWAP2 POP POP JUMP JUMPDEST PUSH32 0x4E487B7100000000000000000000000000000000000000000000000000000000 PUSH0 MSTORE PUSH1 0x22 PUSH1 0x4 MSTORE PUSH1 0x24 PUSH0 REVERT JUMPDEST PUSH0 PUSH1 0x2 DUP3 DIV SWAP1 POP PUSH1 0x1 DUP3 AND DUP1 PUSH2 0x405 JUMPI PUSH1 0x7F DUP3 AND SWAP2 POP JUMPDEST PUSH1 0x20 DUP3 LT DUP2 SUB PUSH2 0x418 JUMPI PUSH2 0x417 PUSH2 0x3C1 JUMP JUMPDEST JUMPDEST POP SWAP2 SWAP1 POP JUMP JUMPDEST PUSH32 0x426C6F636B206E6F7420666F756E640000000000000000000000000000000000 PUSH0 DUP3 ADD MSTORE POP JUMP JUMPDEST PUSH0 PUSH2 0x452 PUSH1 0xF DUP4 PUSH2 0x2FE JUMP JUMPDEST SWAP2 POP PUSH2 0x45D DUP3 PUSH2 0x41E JUMP JUMPDEST PUSH1 0x20 DUP3 ADD SWAP1 POP SWAP2 SWAP1 POP JUMP JUMPDEST PUSH0 PUSH1 0x20 DUP3 ADD SWAP1 POP DUP2 DUP2 SUB PUSH0 DUP4 ADD MSTORE PUSH2 0x47F DUP2 PUSH2 0x446 JUMP JUMPDEST SWAP1 POP SWAP2 SWAP1 POP JUMP JUMPDEST PUSH0 DUP2 SWAP1 POP SWAP2 SWAP1 POP JUMP JUMPDEST PUSH2 0x4A0 PUSH2 0x49B DUP3 PUSH2 0x296 JUMP JUMPDEST PUSH2 0x486 JUMP JUMPDEST DUP3 MSTORE POP POP JUMP JUMPDEST PUSH0 PUSH20 0xFFFFFFFFFFFFFFFFFFFFFFFFFFFFFFFFFFFFFFFF DUP3 AND SWAP1 POP SWAP2 SWAP1 POP JUMP JUMPDEST PUSH0 PUSH2 0x4CF DUP3 PUSH2 0x4A6 JUMP JUMPDEST SWAP1 POP SWAP2 SWAP1 POP JUMP JUMPDEST PUSH0 DUP2 PUSH1 0x60 SHL SWAP1 POP SWAP2 SWAP1 POP JUMP JUMPDEST PUSH0 PUSH2 0x4EC DUP3 PUSH2 0x4D6 JUMP JUMPDEST SWAP1 POP SWAP2 SWAP1 POP JUMP JUMPDEST PUSH0 PUSH2 0x4FD DUP3 PUSH2 0x4E2 JUMP JUMPDEST SWAP1 POP SWAP2 SWAP1 POP JUMP JUMPDEST PUSH2 0x515 PUSH2 0x510 DUP3 PUSH2 0x4C5 JUMP JUMPDEST PUSH2 0x4F3 JUMP JUMPDEST DUP3 MSTORE POP POP JUMP JUMPDEST PUSH0 PUSH2 0x526 DUP3 DUP8 PUSH2 0x48F JUMP JUMPDEST PUSH1 0x20 DUP3 ADD SWAP2 POP PUSH2 0x536 DUP3 DUP7 PUSH2 0x48F JUMP JUMPDEST PUSH1 0x20 DUP3 ADD SWAP2 POP PUSH2 0x546 DUP3 DUP6 PUSH2 0x504 JUMP JUMPDEST PUSH1 0x14 DUP3 ADD SWAP2 POP PUSH2 0x556 DUP3 DUP5 PUSH2 0x48F JUMP JUMPDEST PUSH1 0x20 DUP3 ADD SWAP2 POP DUP2 SWAP1 POP SWAP6 SWAP5 POP POP POP POP POP JUMP JUMPDEST PUSH32 0x4E487B7100000000000000000000000000000000000000000000000000000000 PUSH0 MSTORE PUSH1 0x12 PUSH1 0x4 MSTORE PUSH1 0x24 PUSH0 REVERT JUMPDEST PUSH0 PUSH2 0x59F DUP3 PUSH2 0x296 JUMP JUMPDEST SWAP2 POP PUSH2 0x5AA DUP4 PUSH2 0x296 JUMP JUMPDEST SWAP3 POP DUP3 PUSH2 0x5BA JUMPI PUSH2 0x5B9 PUSH2 0x568 JUMP JUMPDEST JUMPDEST DUP3 DUP3 MOD SWAP1 POP SWAP3 SWAP2 POP POP JUMP JUMPDEST PUSH32 0x4E487B7100000000000000000000000000000000000000000000000000000000 PUSH0 MSTORE PUSH1 0x11 PUSH1 0x4 MSTORE PUSH1 0x24 PUSH0 REVERT JUMPDEST PUSH0 PUSH2 0x5FC DUP3 PUSH2 0x296 JUMP JUMPDEST SWAP2 POP PUSH2 0x607 DUP4 PUSH2 0x296 JUMP JUMPDEST SWAP3 POP DUP3 DUP3 ADD SWAP1 POP DUP1 DUP3 GT ISZERO PUSH2 0x61F JUMPI PUSH2 0x61E PUSH2 0x5C5 JUMP JUMPDEST JUMPDEST SWAP3 SWAP2 POP POP JUMP INVALID LOG2 PUSH5 0x6970667358 0x22 SLT KECCAK256 CALLDATASIZE 0xF9 EQ SWAP2 0xD6 0xF6 0x26 DUP3 NOT SWAP13 SHL PUSH12 0xF491F081D91D42F6942FB926 CALLDATALOAD 0xA7 PUSH24 0x3D28FD54B264736F6C634300081A003343726F702047726F PUSH24 0x746820616E6420686172766573742043726F7020736F7769 PUSH15 0x67207265636F726465645365656420 PUSH5 0x656C697665 PUSH19 0x7920746F206661726D6572204469676974616C KECCAK256 PUSH16 0x7264657220636F6E6669726D6174696F PUSH15 0x436F6E73756D657220507572636861 PUSH20 0x6520436F6D7075746174696F6E20616E64207175 PUSH2 0x6C69 PUSH21 0x7920636865636B4661726D6572204B594320737562 PUSH14 0x697373696F6E2020496E69746961 PUSH13 0x207472616E73616374696F6E20 PUSH20 0x657475705061796D656E742072656C6561736520 PUSH21 0x6F2077686F6C6573616C65722044656C6976657279 KECCAK256 PUSH21 0x7261636B696E672076616C69646174696F6E57686F PUSH13 0x6573616C657220746F20636F6E PUSH20 0x756D65722044656D616E64206167677265676174 PUSH10 0x6F6E52657461696C2064 PUSH10 0x73747269627574696F6E KECCAK256 NUMBER PUSH16 0x6E73756D6572206C6576656C20636865 PUSH4 0x6B706F69 PUSH15 0x7452657461696C2064697374726962 PUSH22 0x74696F6E205472616E73706F727420262076616C6964 PUSH2 0x7469 PUSH16 0x6E436F6E6669726D6174696F6E204669 PUSH15 0x616C20636F6E73756D657220636F6E PUSH7 0x69726D6174696F PUSH15 0x207265636F726453656E6420636F72 PUSH15 0x20746F2070726F63657373696E6720 PUSH22 0x6E697420496F542064617461206D6F6E69746F72696E PUSH8 0x436F6E73756D6572 KECCAK256 PUSH17 0x75726368617365204D756C7469706C6520 PUSH3 0x757965 PUSH19 0x73207472616E73616374696F6E735265706561 PUSH21 0x207472616E73616374696F6E204F7074696D697A65 PUSH5 0x2072657065 PUSH2 0x7420 PUSH17 0x61747465726E5265636569766564206861 PUSH19 0x766573742063726F702066726F6D206661726D PUSH6 0x72204669656C PUSH5 0x206D6F6E69 PUSH21 0x6F72696E6720656E7472795061796D656E74207365 PUSH21 0x746C656D656E742053696D706C6520736574746C65 PUSH14 0x656E7420636F6E6669726D617469 PUSH16 0x6E476F76742E2046756E6420416C6C6F PUSH4 0x6174696F PUSH15 0x20205375627369647920617070726F PUSH23 0x616C20616E642066756E6420616C6C6F636174696F6E53 PUSH6 0x65642077686F PUSH13 0x6573616C6572206F7264657220 MSTORE8 PUSH6 0x656420737570 PUSH17 0x6C79207265717565737420636F6E666972 PUSH14 0x6564000000000000000000000000 "
				},
				"gasEstimates": {
					"creation": {
						"codeDepositCost": "325400",
						"executionCost": "infinite",
						"totalCost": "infinite"
					},
					"external": {
						"blockReasons(uint256)": "infinite",
						"getLatency(uint256)": "infinite"
					}
				},
				"methodIdentifiers": {
					"blockReasons(uint256)": "2cfdbf71",
					"getLatency(uint256)": "0bc69182"
				}
			},
			"storageLayout": {
				"storage": [
					{
						"astId": 9,
						"contract": "latency.sol:BlockLatencyReason",
						"label": "blockReasons",
						"offset": 0,
						"slot": "0",
						"type": "t_mapping(t_uint256,t_struct(BlockInfo)4_storage)"
					}
				],
				"types": {
					"t_mapping(t_uint256,t_struct(BlockInfo)4_storage)": {
						"encoding": "mapping",
						"key": "t_uint256",
						"label": "mapping(uint256 => struct BlockLatencyReason.BlockInfo)",
						"numberOfBytes": "32",
						"value": "t_struct(BlockInfo)4_storage"
					},
					"t_string_storage": {
						"encoding": "bytes",
						"label": "string",
						"numberOfBytes": "32"
					},
					"t_struct(BlockInfo)4_storage": {
						"encoding": "inplace",
						"label": "struct BlockLatencyReason.BlockInfo",
						"members": [
							{
								"astId": 3,
								"contract": "latency.sol:BlockLatencyReason",
								"label": "reason",
								"offset": 0,
								"slot": "0",
								"type": "t_string_storage"
							}
						],
						"numberOfBytes": "32"
					},
					"t_uint256": {
						"encoding": "inplace",
						"label": "uint256",
						"numberOfBytes": "32"
					}
				}
			},
			"userdoc": {
				"kind": "user",
				"methods": {},
				"version": 1
			}
		}
	}
}