{
	"Day-07/Lottery.sol": {
		"Lottery": {
			"abi": [
				{
					"inputs": [],
					"stateMutability": "nonpayable",
					"type": "constructor"
				},
				{
					"inputs": [],
					"name": "joinLottery",
					"outputs": [],
					"stateMutability": "payable",
					"type": "function"
				},
				{
					"inputs": [],
					"name": "lotteryPot",
					"outputs": [
						{
							"internalType": "uint256",
							"name": "",
							"type": "uint256"
						}
					],
					"stateMutability": "view",
					"type": "function"
				},
				{
					"inputs": [],
					"name": "owner",
					"outputs": [
						{
							"internalType": "address",
							"name": "",
							"type": "address"
						}
					],
					"stateMutability": "view",
					"type": "function"
				},
				{
					"inputs": [],
					"name": "selectWinner",
					"outputs": [],
					"stateMutability": "nonpayable",
					"type": "function"
				}
			],
			"devdoc": {
				"kind": "dev",
				"methods": {},
				"version": 1
			},
			"evm": {
				"assembly": "    /* \"Day-07/Lottery.sol\":60:1240  contract Lottery {... */\n  mstore(0x40, 0x80)\n    /* \"Day-07/Lottery.sol\":182:233  constructor() {... */\n  callvalue\n  dup1\n  iszero\n  tag_1\n  jumpi\n  0x00\n  dup1\n  revert\ntag_1:\n  pop\n    /* \"Day-07/Lottery.sol\":215:225  msg.sender */\n  caller\n    /* \"Day-07/Lottery.sol\":207:212  owner */\n  0x00\n  dup1\n    /* \"Day-07/Lottery.sol\":207:225  owner = msg.sender */\n  0x0100\n  exp\n  dup2\n  sload\n  dup2\n  0xffffffffffffffffffffffffffffffffffffffff\n  mul\n  not\n  and\n  swap1\n  dup4\n  0xffffffffffffffffffffffffffffffffffffffff\n  and\n  mul\n  or\n  swap1\n  sstore\n  pop\n    /* \"Day-07/Lottery.sol\":60:1240  contract Lottery {... */\n  dataSize(sub_0)\n  dup1\n  dataOffset(sub_0)\n  0x00\n  codecopy\n  0x00\n  return\nstop\n\nsub_0: assembly {\n        /* \"Day-07/Lottery.sol\":60:1240  contract Lottery {... */\n      mstore(0x40, 0x80)\n      jumpi(tag_1, lt(calldatasize, 0x04))\n      shr(0xe0, calldataload(0x00))\n      dup1\n      0x33a99e04\n      eq\n      tag_2\n      jumpi\n      dup1\n      0x630a46c3\n      eq\n      tag_3\n      jumpi\n      dup1\n      0x6c77f989\n      eq\n      tag_4\n      jumpi\n      dup1\n      0x8da5cb5b\n      eq\n      tag_5\n      jumpi\n    tag_1:\n      0x00\n      dup1\n      revert\n        /* \"Day-07/Lottery.sol\":683:1122  function selectWinner() public onlyOwner {... */\n    tag_2:\n      callvalue\n      dup1\n      iszero\n      tag_6\n      jumpi\n      0x00\n      dup1\n      revert\n    tag_6:\n      pop\n      tag_7\n      tag_8\n      jump\t// in\n    tag_7:\n      stop\n        /* \"Day-07/Lottery.sol\":148:173  uint256 public lotteryPot */\n    tag_3:\n      callvalue\n      dup1\n      iszero\n      tag_9\n      jumpi\n      0x00\n      dup1\n      revert\n    tag_9:\n      pop\n      tag_10\n      tag_11\n      jump\t// in\n    tag_10:\n      mload(0x40)\n      tag_12\n      swap2\n      swap1\n      tag_13\n      jump\t// in\n    tag_12:\n      mload(0x40)\n      dup1\n      swap2\n      sub\n      swap1\n      return\n        /* \"Day-07/Lottery.sol\":241:435  function joinLottery() public payable {... */\n    tag_4:\n      tag_14\n      tag_15\n      jump\t// in\n    tag_14:\n      stop\n        /* \"Day-07/Lottery.sol\":84:104  address public owner */\n    tag_5:\n      callvalue\n      dup1\n      iszero\n      tag_16\n      jumpi\n      0x00\n      dup1\n      revert\n    tag_16:\n      pop\n      tag_17\n      tag_18\n      jump\t// in\n    tag_17:\n      mload(0x40)\n      tag_19\n      swap2\n      swap1\n      tag_20\n      jump\t// in\n    tag_19:\n      mload(0x40)\n      dup1\n      swap2\n      sub\n      swap1\n      return\n        /* \"Day-07/Lottery.sol\":683:1122  function selectWinner() public onlyOwner {... */\n    tag_8:\n        /* \"Day-07/Lottery.sol\":1184:1189  owner */\n      0x00\n      dup1\n      sload\n      swap1\n      0x0100\n      exp\n      swap1\n      div\n      0xffffffffffffffffffffffffffffffffffffffff\n      and\n        /* \"Day-07/Lottery.sol\":1170:1189  msg.sender == owner */\n      0xffffffffffffffffffffffffffffffffffffffff\n      and\n        /* \"Day-07/Lottery.sol\":1170:1180  msg.sender */\n      caller\n        /* \"Day-07/Lottery.sol\":1170:1189  msg.sender == owner */\n      0xffffffffffffffffffffffffffffffffffffffff\n      and\n      eq\n        /* \"Day-07/Lottery.sol\":1162:1217  require(msg.sender == owner, \"Caller is not the owner\") */\n      tag_22\n      jumpi\n      mload(0x40)\n      0x08c379a000000000000000000000000000000000000000000000000000000000\n      dup2\n      mstore\n      0x04\n      add\n      tag_23\n      swap1\n      tag_24\n      jump\t// in\n    tag_23:\n      mload(0x40)\n      dup1\n      swap2\n      sub\n      swap1\n      revert\n    tag_22:\n        /* \"Day-07/Lottery.sol\":765:766  0 */\n      0x00\n        /* \"Day-07/Lottery.sol\":743:755  participants */\n      0x01\n        /* \"Day-07/Lottery.sol\":743:762  participants.length */\n      dup1\n      sload\n      swap1\n      pop\n        /* \"Day-07/Lottery.sol\":743:766  participants.length > 0 */\n      gt\n        /* \"Day-07/Lottery.sol\":735:786  require(participants.length > 0, \"No participants\") */\n      tag_26\n      jumpi\n      mload(0x40)\n      0x08c379a000000000000000000000000000000000000000000000000000000000\n      dup2\n      mstore\n      0x04\n      add\n      tag_27\n      swap1\n      tag_28\n      jump\t// in\n    tag_27:\n      mload(0x40)\n      dup1\n      swap2\n      sub\n      swap1\n      revert\n    tag_26:\n        /* \"Day-07/Lottery.sol\":799:818  uint256 randomIndex */\n      0x00\n        /* \"Day-07/Lottery.sol\":841:853  participants */\n      0x01\n        /* \"Day-07/Lottery.sol\":841:860  participants.length */\n      dup1\n      sload\n      swap1\n      pop\n        /* \"Day-07/Lottery.sol\":821:838  getRandomNumber() */\n      tag_29\n        /* \"Day-07/Lottery.sol\":821:836  getRandomNumber */\n      tag_30\n        /* \"Day-07/Lottery.sol\":821:838  getRandomNumber() */\n      jump\t// in\n    tag_29:\n        /* \"Day-07/Lottery.sol\":821:860  getRandomNumber() % participants.length */\n      tag_31\n      swap2\n      swap1\n      tag_32\n      jump\t// in\n    tag_31:\n        /* \"Day-07/Lottery.sol\":799:860  uint256 randomIndex = getRandomNumber() % participants.length */\n      swap1\n      pop\n        /* \"Day-07/Lottery.sol\":871:885  address winner */\n      0x00\n        /* \"Day-07/Lottery.sol\":888:900  participants */\n      0x01\n        /* \"Day-07/Lottery.sol\":901:912  randomIndex */\n      dup3\n        /* \"Day-07/Lottery.sol\":888:913  participants[randomIndex] */\n      dup2\n      sload\n      dup2\n      lt\n      tag_33\n      jumpi\n      tag_34\n      tag_35\n      jump\t// in\n    tag_34:\n    tag_33:\n      swap1\n      0x00\n      mstore\n      keccak256(0x00, 0x20)\n      add\n      0x00\n      swap1\n      sload\n      swap1\n      0x0100\n      exp\n      swap1\n      div\n      0xffffffffffffffffffffffffffffffffffffffff\n      and\n        /* \"Day-07/Lottery.sol\":871:913  address winner = participants[randomIndex] */\n      swap1\n      pop\n        /* \"Day-07/Lottery.sol\":926:939  uint256 prize */\n      0x00\n        /* \"Day-07/Lottery.sol\":942:952  lotteryPot */\n      sload(0x02)\n        /* \"Day-07/Lottery.sol\":926:952  uint256 prize = lotteryPot */\n      swap1\n      pop\n        /* \"Day-07/Lottery.sol\":976:977  0 */\n      0x00\n        /* \"Day-07/Lottery.sol\":963:973  lotteryPot */\n      0x02\n        /* \"Day-07/Lottery.sol\":963:977  lotteryPot = 0 */\n      dup2\n      swap1\n      sstore\n      pop\n        /* \"Day-07/Lottery.sol\":995:1007  participants */\n      0x01\n      0x00\n        /* \"Day-07/Lottery.sol\":988:1007  delete participants */\n      tag_37\n      swap2\n      swap1\n      tag_38\n      jump\t// in\n    tag_37:\n        /* \"Day-07/Lottery.sol\":1021:1033  bool success */\n      0x00\n        /* \"Day-07/Lottery.sol\":1039:1045  winner */\n      dup3\n        /* \"Day-07/Lottery.sol\":1039:1050  winner.call */\n      0xffffffffffffffffffffffffffffffffffffffff\n      and\n        /* \"Day-07/Lottery.sol\":1058:1063  prize */\n      dup3\n        /* \"Day-07/Lottery.sol\":1039:1068  winner.call{value: prize}(\"\") */\n      mload(0x40)\n      tag_39\n      swap1\n      tag_40\n      jump\t// in\n    tag_39:\n      0x00\n      mload(0x40)\n      dup1\n      dup4\n      sub\n      dup2\n      dup6\n      dup8\n      gas\n      call\n      swap3\n      pop\n      pop\n      pop\n      returndatasize\n      dup1\n      0x00\n      dup2\n      eq\n      tag_43\n      jumpi\n      mload(0x40)\n      swap2\n      pop\n      and(add(returndatasize, 0x3f), not(0x1f))\n      dup3\n      add\n      0x40\n      mstore\n      returndatasize\n      dup3\n      mstore\n      returndatasize\n      0x00\n      0x20\n      dup5\n      add\n      returndatacopy\n      jump(tag_42)\n    tag_43:\n      0x60\n      swap2\n      pop\n    tag_42:\n      pop\n        /* \"Day-07/Lottery.sol\":1020:1068  (bool success, ) = winner.call{value: prize}(\"\") */\n      pop\n      swap1\n      pop\n        /* \"Day-07/Lottery.sol\":1087:1094  success */\n      dup1\n        /* \"Day-07/Lottery.sol\":1079:1114  require(success, \"Transfer failed\") */\n      tag_44\n      jumpi\n      mload(0x40)\n      0x08c379a000000000000000000000000000000000000000000000000000000000\n      dup2\n      mstore\n      0x04\n      add\n      tag_45\n      swap1\n      tag_46\n      jump\t// in\n    tag_45:\n      mload(0x40)\n      dup1\n      swap2\n      sub\n      swap1\n      revert\n    tag_44:\n        /* \"Day-07/Lottery.sol\":724:1122  {... */\n      pop\n      pop\n      pop\n      pop\n        /* \"Day-07/Lottery.sol\":683:1122  function selectWinner() public onlyOwner {... */\n      jump\t// out\n        /* \"Day-07/Lottery.sol\":148:173  uint256 public lotteryPot */\n    tag_11:\n      sload(0x02)\n      dup2\n      jump\t// out\n        /* \"Day-07/Lottery.sol\":241:435  function joinLottery() public payable {... */\n    tag_15:\n        /* \"Day-07/Lottery.sol\":310:320  0.01 ether */\n      0x2386f26fc10000\n        /* \"Day-07/Lottery.sol\":298:307  msg.value */\n      callvalue\n        /* \"Day-07/Lottery.sol\":298:320  msg.value > 0.01 ether */\n      gt\n        /* \"Day-07/Lottery.sol\":290:351  require(msg.value > 0.01 ether, \"Minimum 0.01 Ether to join\") */\n      tag_48\n      jumpi\n      mload(0x40)\n      0x08c379a000000000000000000000000000000000000000000000000000000000\n      dup2\n      mstore\n      0x04\n      add\n      tag_49\n      swap1\n      tag_50\n      jump\t// in\n    tag_49:\n      mload(0x40)\n      dup1\n      swap2\n      sub\n      swap1\n      revert\n    tag_48:\n        /* \"Day-07/Lottery.sol\":364:376  participants */\n      0x01\n        /* \"Day-07/Lottery.sol\":382:392  msg.sender */\n      caller\n        /* \"Day-07/Lottery.sol\":364:393  participants.push(msg.sender) */\n      swap1\n      dup1\n      0x01\n      dup2\n      sload\n      add\n      dup1\n      dup3\n      sstore\n      dup1\n      swap2\n      pop\n      pop\n      0x01\n      swap1\n      sub\n      swap1\n      0x00\n      mstore\n      keccak256(0x00, 0x20)\n      add\n      0x00\n      swap1\n      swap2\n      swap1\n      swap2\n      swap1\n      swap2\n      0x0100\n      exp\n      dup2\n      sload\n      dup2\n      0xffffffffffffffffffffffffffffffffffffffff\n      mul\n      not\n      and\n      swap1\n      dup4\n      0xffffffffffffffffffffffffffffffffffffffff\n      and\n      mul\n      or\n      swap1\n      sstore\n      pop\n        /* \"Day-07/Lottery.sol\":418:427  msg.value */\n      callvalue\n        /* \"Day-07/Lottery.sol\":404:414  lotteryPot */\n      0x02\n      0x00\n        /* \"Day-07/Lottery.sol\":404:427  lotteryPot += msg.value */\n      dup3\n      dup3\n      sload\n      tag_52\n      swap2\n      swap1\n      tag_53\n      jump\t// in\n    tag_52:\n      swap3\n      pop\n      pop\n      dup2\n      swap1\n      sstore\n      pop\n        /* \"Day-07/Lottery.sol\":241:435  function joinLottery() public payable {... */\n      jump\t// out\n        /* \"Day-07/Lottery.sol\":84:104  address public owner */\n    tag_18:\n      0x00\n      dup1\n      sload\n      swap1\n      0x0100\n      exp\n      swap1\n      div\n      0xffffffffffffffffffffffffffffffffffffffff\n      and\n      dup2\n      jump\t// out\n        /* \"Day-07/Lottery.sol\":443:675  function getRandomNumber() private view returns (uint256) {... */\n    tag_30:\n        /* \"Day-07/Lottery.sol\":492:499  uint256 */\n      0x00\n        /* \"Day-07/Lottery.sol\":586:601  block.timestamp */\n      timestamp\n        /* \"Day-07/Lottery.sol\":603:619  block.difficulty */\n      prevrandao\n        /* \"Day-07/Lottery.sol\":621:633  participants */\n      0x01\n        /* \"Day-07/Lottery.sol\":621:640  participants.length */\n      dup1\n      sload\n      swap1\n      pop\n        /* \"Day-07/Lottery.sol\":569:641  abi.encodePacked(block.timestamp, block.difficulty, participants.length) */\n      add(0x20, mload(0x40))\n      tag_55\n      swap4\n      swap3\n      swap2\n      swap1\n      tag_56\n      jump\t// in\n    tag_55:\n      mload(0x40)\n      0x20\n      dup2\n      dup4\n      sub\n      sub\n      dup2\n      mstore\n      swap1\n      0x40\n      mstore\n        /* \"Day-07/Lottery.sol\":541:656  keccak256(... */\n      dup1\n      mload\n      swap1\n      0x20\n      add\n      keccak256\n        /* \"Day-07/Lottery.sol\":519:667  uint256(... */\n      0x00\n      shr\n        /* \"Day-07/Lottery.sol\":512:667  return uint256(... */\n      swap1\n      pop\n        /* \"Day-07/Lottery.sol\":443:675  function getRandomNumber() private view returns (uint256) {... */\n      swap1\n      jump\t// out\n    tag_38:\n      pop\n      dup1\n      sload\n      0x00\n      dup3\n      sstore\n      swap1\n      0x00\n      mstore\n      keccak256(0x00, 0x20)\n      swap1\n      dup2\n      add\n      swap1\n      tag_58\n      swap2\n      swap1\n      tag_59\n      jump\t// in\n    tag_58:\n      pop\n      jump\t// out\n    tag_59:\n    tag_60:\n      dup1\n      dup3\n      gt\n      iszero\n      tag_61\n      jumpi\n      0x00\n      dup2\n      0x00\n      swap1\n      sstore\n      pop\n      0x01\n      add\n      jump(tag_60)\n    tag_61:\n      pop\n      swap1\n      jump\t// out\n        /* \"#utility.yul\":7:84   */\n    tag_62:\n        /* \"#utility.yul\":44:51   */\n      0x00\n        /* \"#utility.yul\":73:78   */\n      dup2\n        /* \"#utility.yul\":62:78   */\n      swap1\n      pop\n        /* \"#utility.yul\":7:84   */\n      swap2\n      swap1\n      pop\n      jump\t// out\n        /* \"#utility.yul\":90:208   */\n    tag_63:\n        /* \"#utility.yul\":177:201   */\n      tag_86\n        /* \"#utility.yul\":195:200   */\n      dup2\n        /* \"#utility.yul\":177:201   */\n      tag_62\n      jump\t// in\n    tag_86:\n        /* \"#utility.yul\":172:175   */\n      dup3\n        /* \"#utility.yul\":165:202   */\n      mstore\n        /* \"#utility.yul\":90:208   */\n      pop\n      pop\n      jump\t// out\n        /* \"#utility.yul\":214:436   */\n    tag_13:\n        /* \"#utility.yul\":307:311   */\n      0x00\n        /* \"#utility.yul\":345:347   */\n      0x20\n        /* \"#utility.yul\":334:343   */\n      dup3\n        /* \"#utility.yul\":330:348   */\n      add\n        /* \"#utility.yul\":322:348   */\n      swap1\n      pop\n        /* \"#utility.yul\":358:429   */\n      tag_88\n        /* \"#utility.yul\":426:427   */\n      0x00\n        /* \"#utility.yul\":415:424   */\n      dup4\n        /* \"#utility.yul\":411:428   */\n      add\n        /* \"#utility.yul\":402:408   */\n      dup5\n        /* \"#utility.yul\":358:429   */\n      tag_63\n      jump\t// in\n    tag_88:\n        /* \"#utility.yul\":214:436   */\n      swap3\n      swap2\n      pop\n      pop\n      jump\t// out\n        /* \"#utility.yul\":442:568   */\n    tag_64:\n        /* \"#utility.yul\":479:486   */\n      0x00\n        /* \"#utility.yul\":519:561   */\n      0xffffffffffffffffffffffffffffffffffffffff\n        /* \"#utility.yul\":512:517   */\n      dup3\n        /* \"#utility.yul\":508:562   */\n      and\n        /* \"#utility.yul\":497:562   */\n      swap1\n      pop\n        /* \"#utility.yul\":442:568   */\n      swap2\n      swap1\n      pop\n      jump\t// out\n        /* \"#utility.yul\":574:670   */\n    tag_65:\n        /* \"#utility.yul\":611:618   */\n      0x00\n        /* \"#utility.yul\":640:664   */\n      tag_91\n        /* \"#utility.yul\":658:663   */\n      dup3\n        /* \"#utility.yul\":640:664   */\n      tag_64\n      jump\t// in\n    tag_91:\n        /* \"#utility.yul\":629:664   */\n      swap1\n      pop\n        /* \"#utility.yul\":574:670   */\n      swap2\n      swap1\n      pop\n      jump\t// out\n        /* \"#utility.yul\":676:794   */\n    tag_66:\n        /* \"#utility.yul\":763:787   */\n      tag_93\n        /* \"#utility.yul\":781:786   */\n      dup2\n        /* \"#utility.yul\":763:787   */\n      tag_65\n      jump\t// in\n    tag_93:\n        /* \"#utility.yul\":758:761   */\n      dup3\n        /* \"#utility.yul\":751:788   */\n      mstore\n        /* \"#utility.yul\":676:794   */\n      pop\n      pop\n      jump\t// out\n        /* \"#utility.yul\":800:1022   */\n    tag_20:\n        /* \"#utility.yul\":893:897   */\n      0x00\n        /* \"#utility.yul\":931:933   */\n      0x20\n        /* \"#utility.yul\":920:929   */\n      dup3\n        /* \"#utility.yul\":916:934   */\n      add\n        /* \"#utility.yul\":908:934   */\n      swap1\n      pop\n        /* \"#utility.yul\":944:1015   */\n      tag_95\n        /* \"#utility.yul\":1012:1013   */\n      0x00\n        /* \"#utility.yul\":1001:1010   */\n      dup4\n        /* \"#utility.yul\":997:1014   */\n      add\n        /* \"#utility.yul\":988:994   */\n      dup5\n        /* \"#utility.yul\":944:1015   */\n      tag_66\n      jump\t// in\n    tag_95:\n        /* \"#utility.yul\":800:1022   */\n      swap3\n      swap2\n      pop\n      pop\n      jump\t// out\n        /* \"#utility.yul\":1028:1197   */\n    tag_67:\n        /* \"#utility.yul\":1112:1123   */\n      0x00\n        /* \"#utility.yul\":1146:1152   */\n      dup3\n        /* \"#utility.yul\":1141:1144   */\n      dup3\n        /* \"#utility.yul\":1134:1153   */\n      mstore\n        /* \"#utility.yul\":1186:1190   */\n      0x20\n        /* \"#utility.yul\":1181:1184   */\n      dup3\n        /* \"#utility.yul\":1177:1191   */\n      add\n        /* \"#utility.yul\":1162:1191   */\n      swap1\n      pop\n        /* \"#utility.yul\":1028:1197   */\n      swap3\n      swap2\n      pop\n      pop\n      jump\t// out\n        /* \"#utility.yul\":1203:1376   */\n    tag_68:\n        /* \"#utility.yul\":1343:1368   */\n      0x43616c6c6572206973206e6f7420746865206f776e6572000000000000000000\n        /* \"#utility.yul\":1339:1340   */\n      0x00\n        /* \"#utility.yul\":1331:1337   */\n      dup3\n        /* \"#utility.yul\":1327:1341   */\n      add\n        /* \"#utility.yul\":1320:1369   */\n      mstore\n        /* \"#utility.yul\":1203:1376   */\n      pop\n      jump\t// out\n        /* \"#utility.yul\":1382:1748   */\n    tag_69:\n        /* \"#utility.yul\":1524:1527   */\n      0x00\n        /* \"#utility.yul\":1545:1612   */\n      tag_99\n        /* \"#utility.yul\":1609:1611   */\n      0x17\n        /* \"#utility.yul\":1604:1607   */\n      dup4\n        /* \"#utility.yul\":1545:1612   */\n      tag_67\n      jump\t// in\n    tag_99:\n        /* \"#utility.yul\":1538:1612   */\n      swap2\n      pop\n        /* \"#utility.yul\":1621:1714   */\n      tag_100\n        /* \"#utility.yul\":1710:1713   */\n      dup3\n        /* \"#utility.yul\":1621:1714   */\n      tag_68\n      jump\t// in\n    tag_100:\n        /* \"#utility.yul\":1739:1741   */\n      0x20\n        /* \"#utility.yul\":1734:1737   */\n      dup3\n        /* \"#utility.yul\":1730:1742   */\n      add\n        /* \"#utility.yul\":1723:1742   */\n      swap1\n      pop\n        /* \"#utility.yul\":1382:1748   */\n      swap2\n      swap1\n      pop\n      jump\t// out\n        /* \"#utility.yul\":1754:2173   */\n    tag_24:\n        /* \"#utility.yul\":1920:1924   */\n      0x00\n        /* \"#utility.yul\":1958:1960   */\n      0x20\n        /* \"#utility.yul\":1947:1956   */\n      dup3\n        /* \"#utility.yul\":1943:1961   */\n      add\n        /* \"#utility.yul\":1935:1961   */\n      swap1\n      pop\n        /* \"#utility.yul\":2007:2016   */\n      dup2\n        /* \"#utility.yul\":2001:2005   */\n      dup2\n        /* \"#utility.yul\":1997:2017   */\n      sub\n        /* \"#utility.yul\":1993:1994   */\n      0x00\n        /* \"#utility.yul\":1982:1991   */\n      dup4\n        /* \"#utility.yul\":1978:1995   */\n      add\n        /* \"#utility.yul\":1971:2018   */\n      mstore\n        /* \"#utility.yul\":2035:2166   */\n      tag_102\n        /* \"#utility.yul\":2161:2165   */\n      dup2\n        /* \"#utility.yul\":2035:2166   */\n      tag_69\n      jump\t// in\n    tag_102:\n        /* \"#utility.yul\":2027:2166   */\n      swap1\n      pop\n        /* \"#utility.yul\":1754:2173   */\n      swap2\n      swap1\n      pop\n      jump\t// out\n        /* \"#utility.yul\":2179:2344   */\n    tag_70:\n        /* \"#utility.yul\":2319:2336   */\n      0x4e6f207061727469636970616e74730000000000000000000000000000000000\n        /* \"#utility.yul\":2315:2316   */\n      0x00\n        /* \"#utility.yul\":2307:2313   */\n      dup3\n        /* \"#utility.yul\":2303:2317   */\n      add\n        /* \"#utility.yul\":2296:2337   */\n      mstore\n        /* \"#utility.yul\":2179:2344   */\n      pop\n      jump\t// out\n        /* \"#utility.yul\":2350:2716   */\n    tag_71:\n        /* \"#utility.yul\":2492:2495   */\n      0x00\n        /* \"#utility.yul\":2513:2580   */\n      tag_105\n        /* \"#utility.yul\":2577:2579   */\n      0x0f\n        /* \"#utility.yul\":2572:2575   */\n      dup4\n        /* \"#utility.yul\":2513:2580   */\n      tag_67\n      jump\t// in\n    tag_105:\n        /* \"#utility.yul\":2506:2580   */\n      swap2\n      pop\n        /* \"#utility.yul\":2589:2682   */\n      tag_106\n        /* \"#utility.yul\":2678:2681   */\n      dup3\n        /* \"#utility.yul\":2589:2682   */\n      tag_70\n      jump\t// in\n    tag_106:\n        /* \"#utility.yul\":2707:2709   */\n      0x20\n        /* \"#utility.yul\":2702:2705   */\n      dup3\n        /* \"#utility.yul\":2698:2710   */\n      add\n        /* \"#utility.yul\":2691:2710   */\n      swap1\n      pop\n        /* \"#utility.yul\":2350:2716   */\n      swap2\n      swap1\n      pop\n      jump\t// out\n        /* \"#utility.yul\":2722:3141   */\n    tag_28:\n        /* \"#utility.yul\":2888:2892   */\n      0x00\n        /* \"#utility.yul\":2926:2928   */\n      0x20\n        /* \"#utility.yul\":2915:2924   */\n      dup3\n        /* \"#utility.yul\":2911:2929   */\n      add\n        /* \"#utility.yul\":2903:2929   */\n      swap1\n      pop\n        /* \"#utility.yul\":2975:2984   */\n      dup2\n        /* \"#utility.yul\":2969:2973   */\n      dup2\n        /* \"#utility.yul\":2965:2985   */\n      sub\n        /* \"#utility.yul\":2961:2962   */\n      0x00\n        /* \"#utility.yul\":2950:2959   */\n      dup4\n        /* \"#utility.yul\":2946:2963   */\n      add\n        /* \"#utility.yul\":2939:2986   */\n      mstore\n        /* \"#utility.yul\":3003:3134   */\n      tag_108\n        /* \"#utility.yul\":3129:3133   */\n      dup2\n        /* \"#utility.yul\":3003:3134   */\n      tag_71\n      jump\t// in\n    tag_108:\n        /* \"#utility.yul\":2995:3134   */\n      swap1\n      pop\n        /* \"#utility.yul\":2722:3141   */\n      swap2\n      swap1\n      pop\n      jump\t// out\n        /* \"#utility.yul\":3147:3327   */\n    tag_72:\n        /* \"#utility.yul\":3195:3272   */\n      0x4e487b7100000000000000000000000000000000000000000000000000000000\n        /* \"#utility.yul\":3192:3193   */\n      0x00\n        /* \"#utility.yul\":3185:3273   */\n      mstore\n        /* \"#utility.yul\":3292:3296   */\n      0x12\n        /* \"#utility.yul\":3289:3290   */\n      0x04\n        /* \"#utility.yul\":3282:3297   */\n      mstore\n        /* \"#utility.yul\":3316:3320   */\n      0x24\n        /* \"#utility.yul\":3313:3314   */\n      0x00\n        /* \"#utility.yul\":3306:3321   */\n      revert\n        /* \"#utility.yul\":3333:3509   */\n    tag_32:\n        /* \"#utility.yul\":3365:3366   */\n      0x00\n        /* \"#utility.yul\":3382:3402   */\n      tag_111\n        /* \"#utility.yul\":3400:3401   */\n      dup3\n        /* \"#utility.yul\":3382:3402   */\n      tag_62\n      jump\t// in\n    tag_111:\n        /* \"#utility.yul\":3377:3402   */\n      swap2\n      pop\n        /* \"#utility.yul\":3416:3436   */\n      tag_112\n        /* \"#utility.yul\":3434:3435   */\n      dup4\n        /* \"#utility.yul\":3416:3436   */\n      tag_62\n      jump\t// in\n    tag_112:\n        /* \"#utility.yul\":3411:3436   */\n      swap3\n      pop\n        /* \"#utility.yul\":3455:3456   */\n      dup3\n        /* \"#utility.yul\":3445:3480   */\n      tag_113\n      jumpi\n        /* \"#utility.yul\":3460:3478   */\n      tag_114\n      tag_72\n      jump\t// in\n    tag_114:\n        /* \"#utility.yul\":3445:3480   */\n    tag_113:\n        /* \"#utility.yul\":3501:3502   */\n      dup3\n        /* \"#utility.yul\":3498:3499   */\n      dup3\n        /* \"#utility.yul\":3494:3503   */\n      mod\n        /* \"#utility.yul\":3489:3503   */\n      swap1\n      pop\n        /* \"#utility.yul\":3333:3509   */\n      swap3\n      swap2\n      pop\n      pop\n      jump\t// out\n        /* \"#utility.yul\":3515:3695   */\n    tag_35:\n        /* \"#utility.yul\":3563:3640   */\n      0x4e487b7100000000000000000000000000000000000000000000000000000000\n        /* \"#utility.yul\":3560:3561   */\n      0x00\n        /* \"#utility.yul\":3553:3641   */\n      mstore\n        /* \"#utility.yul\":3660:3664   */\n      0x32\n        /* \"#utility.yul\":3657:3658   */\n      0x04\n        /* \"#utility.yul\":3650:3665   */\n      mstore\n        /* \"#utility.yul\":3684:3688   */\n      0x24\n        /* \"#utility.yul\":3681:3682   */\n      0x00\n        /* \"#utility.yul\":3674:3689   */\n      revert\n        /* \"#utility.yul\":3701:3848   */\n    tag_73:\n        /* \"#utility.yul\":3802:3813   */\n      0x00\n        /* \"#utility.yul\":3839:3842   */\n      dup2\n        /* \"#utility.yul\":3824:3842   */\n      swap1\n      pop\n        /* \"#utility.yul\":3701:3848   */\n      swap3\n      swap2\n      pop\n      pop\n      jump\t// out\n        /* \"#utility.yul\":3854:3968   */\n    tag_74:\n      pop\n      jump\t// out\n        /* \"#utility.yul\":3974:4372   */\n    tag_75:\n        /* \"#utility.yul\":4133:4136   */\n      0x00\n        /* \"#utility.yul\":4154:4237   */\n      tag_119\n        /* \"#utility.yul\":4235:4236   */\n      0x00\n        /* \"#utility.yul\":4230:4233   */\n      dup4\n        /* \"#utility.yul\":4154:4237   */\n      tag_73\n      jump\t// in\n    tag_119:\n        /* \"#utility.yul\":4147:4237   */\n      swap2\n      pop\n        /* \"#utility.yul\":4246:4339   */\n      tag_120\n        /* \"#utility.yul\":4335:4338   */\n      dup3\n        /* \"#utility.yul\":4246:4339   */\n      tag_74\n      jump\t// in\n    tag_120:\n        /* \"#utility.yul\":4364:4365   */\n      0x00\n        /* \"#utility.yul\":4359:4362   */\n      dup3\n        /* \"#utility.yul\":4355:4366   */\n      add\n        /* \"#utility.yul\":4348:4366   */\n      swap1\n      pop\n        /* \"#utility.yul\":3974:4372   */\n      swap2\n      swap1\n      pop\n      jump\t// out\n        /* \"#utility.yul\":4378:4757   */\n    tag_40:\n        /* \"#utility.yul\":4562:4565   */\n      0x00\n        /* \"#utility.yul\":4584:4731   */\n      tag_122\n        /* \"#utility.yul\":4727:4730   */\n      dup3\n        /* \"#utility.yul\":4584:4731   */\n      tag_75\n      jump\t// in\n    tag_122:\n        /* \"#utility.yul\":4577:4731   */\n      swap2\n      pop\n        /* \"#utility.yul\":4748:4751   */\n      dup2\n        /* \"#utility.yul\":4741:4751   */\n      swap1\n      pop\n        /* \"#utility.yul\":4378:4757   */\n      swap2\n      swap1\n      pop\n      jump\t// out\n        /* \"#utility.yul\":4763:4928   */\n    tag_76:\n        /* \"#utility.yul\":4903:4920   */\n      0x5472616e73666572206661696c65640000000000000000000000000000000000\n        /* \"#utility.yul\":4899:4900   */\n      0x00\n        /* \"#utility.yul\":4891:4897   */\n      dup3\n        /* \"#utility.yul\":4887:4901   */\n      add\n        /* \"#utility.yul\":4880:4921   */\n      mstore\n        /* \"#utility.yul\":4763:4928   */\n      pop\n      jump\t// out\n        /* \"#utility.yul\":4934:5300   */\n    tag_77:\n        /* \"#utility.yul\":5076:5079   */\n      0x00\n        /* \"#utility.yul\":5097:5164   */\n      tag_125\n        /* \"#utility.yul\":5161:5163   */\n      0x0f\n        /* \"#utility.yul\":5156:5159   */\n      dup4\n        /* \"#utility.yul\":5097:5164   */\n      tag_67\n      jump\t// in\n    tag_125:\n        /* \"#utility.yul\":5090:5164   */\n      swap2\n      pop\n        /* \"#utility.yul\":5173:5266   */\n      tag_126\n        /* \"#utility.yul\":5262:5265   */\n      dup3\n        /* \"#utility.yul\":5173:5266   */\n      tag_76\n      jump\t// in\n    tag_126:\n        /* \"#utility.yul\":5291:5293   */\n      0x20\n        /* \"#utility.yul\":5286:5289   */\n      dup3\n        /* \"#utility.yul\":5282:5294   */\n      add\n        /* \"#utility.yul\":5275:5294   */\n      swap1\n      pop\n        /* \"#utility.yul\":4934:5300   */\n      swap2\n      swap1\n      pop\n      jump\t// out\n        /* \"#utility.yul\":5306:5725   */\n    tag_46:\n        /* \"#utility.yul\":5472:5476   */\n      0x00\n        /* \"#utility.yul\":5510:5512   */\n      0x20\n        /* \"#utility.yul\":5499:5508   */\n      dup3\n        /* \"#utility.yul\":5495:5513   */\n      add\n        /* \"#utility.yul\":5487:5513   */\n      swap1\n      pop\n        /* \"#utility.yul\":5559:5568   */\n      dup2\n        /* \"#utility.yul\":5553:5557   */\n      dup2\n        /* \"#utility.yul\":5549:5569   */\n      sub\n        /* \"#utility.yul\":5545:5546   */\n      0x00\n        /* \"#utility.yul\":5534:5543   */\n      dup4\n        /* \"#utility.yul\":5530:5547   */\n      add\n        /* \"#utility.yul\":5523:5570   */\n      mstore\n        /* \"#utility.yul\":5587:5718   */\n      tag_128\n        /* \"#utility.yul\":5713:5717   */\n      dup2\n        /* \"#utility.yul\":5587:5718   */\n      tag_77\n      jump\t// in\n    tag_128:\n        /* \"#utility.yul\":5579:5718   */\n      swap1\n      pop\n        /* \"#utility.yul\":5306:5725   */\n      swap2\n      swap1\n      pop\n      jump\t// out\n        /* \"#utility.yul\":5731:5907   */\n    tag_78:\n        /* \"#utility.yul\":5871:5899   */\n      0x4d696e696d756d20302e303120457468657220746f206a6f696e000000000000\n        /* \"#utility.yul\":5867:5868   */\n      0x00\n        /* \"#utility.yul\":5859:5865   */\n      dup3\n        /* \"#utility.yul\":5855:5869   */\n      add\n        /* \"#utility.yul\":5848:5900   */\n      mstore\n        /* \"#utility.yul\":5731:5907   */\n      pop\n      jump\t// out\n        /* \"#utility.yul\":5913:6279   */\n    tag_79:\n        /* \"#utility.yul\":6055:6058   */\n      0x00\n        /* \"#utility.yul\":6076:6143   */\n      tag_131\n        /* \"#utility.yul\":6140:6142   */\n      0x1a\n        /* \"#utility.yul\":6135:6138   */\n      dup4\n        /* \"#utility.yul\":6076:6143   */\n      tag_67\n      jump\t// in\n    tag_131:\n        /* \"#utility.yul\":6069:6143   */\n      swap2\n      pop\n        /* \"#utility.yul\":6152:6245   */\n      tag_132\n        /* \"#utility.yul\":6241:6244   */\n      dup3\n        /* \"#utility.yul\":6152:6245   */\n      tag_78\n      jump\t// in\n    tag_132:\n        /* \"#utility.yul\":6270:6272   */\n      0x20\n        /* \"#utility.yul\":6265:6268   */\n      dup3\n        /* \"#utility.yul\":6261:6273   */\n      add\n        /* \"#utility.yul\":6254:6273   */\n      swap1\n      pop\n        /* \"#utility.yul\":5913:6279   */\n      swap2\n      swap1\n      pop\n      jump\t// out\n        /* \"#utility.yul\":6285:6704   */\n    tag_50:\n        /* \"#utility.yul\":6451:6455   */\n      0x00\n        /* \"#utility.yul\":6489:6491   */\n      0x20\n        /* \"#utility.yul\":6478:6487   */\n      dup3\n        /* \"#utility.yul\":6474:6492   */\n      add\n        /* \"#utility.yul\":6466:6492   */\n      swap1\n      pop\n        /* \"#utility.yul\":6538:6547   */\n      dup2\n        /* \"#utility.yul\":6532:6536   */\n      dup2\n        /* \"#utility.yul\":6528:6548   */\n      sub\n        /* \"#utility.yul\":6524:6525   */\n      0x00\n        /* \"#utility.yul\":6513:6522   */\n      dup4\n        /* \"#utility.yul\":6509:6526   */\n      add\n        /* \"#utility.yul\":6502:6549   */\n      mstore\n        /* \"#utility.yul\":6566:6697   */\n      tag_134\n        /* \"#utility.yul\":6692:6696   */\n      dup2\n        /* \"#utility.yul\":6566:6697   */\n      tag_79\n      jump\t// in\n    tag_134:\n        /* \"#utility.yul\":6558:6697   */\n      swap1\n      pop\n        /* \"#utility.yul\":6285:6704   */\n      swap2\n      swap1\n      pop\n      jump\t// out\n        /* \"#utility.yul\":6710:6890   */\n    tag_80:\n        /* \"#utility.yul\":6758:6835   */\n      0x4e487b7100000000000000000000000000000000000000000000000000000000\n        /* \"#utility.yul\":6755:6756   */\n      0x00\n        /* \"#utility.yul\":6748:6836   */\n      mstore\n        /* \"#utility.yul\":6855:6859   */\n      0x11\n        /* \"#utility.yul\":6852:6853   */\n      0x04\n        /* \"#utility.yul\":6845:6860   */\n      mstore\n        /* \"#utility.yul\":6879:6883   */\n      0x24\n        /* \"#utility.yul\":6876:6877   */\n      0x00\n        /* \"#utility.yul\":6869:6884   */\n      revert\n        /* \"#utility.yul\":6896:7087   */\n    tag_53:\n        /* \"#utility.yul\":6936:6939   */\n      0x00\n        /* \"#utility.yul\":6955:6975   */\n      tag_137\n        /* \"#utility.yul\":6973:6974   */\n      dup3\n        /* \"#utility.yul\":6955:6975   */\n      tag_62\n      jump\t// in\n    tag_137:\n        /* \"#utility.yul\":6950:6975   */\n      swap2\n      pop\n        /* \"#utility.yul\":6989:7009   */\n      tag_138\n        /* \"#utility.yul\":7007:7008   */\n      dup4\n        /* \"#utility.yul\":6989:7009   */\n      tag_62\n      jump\t// in\n    tag_138:\n        /* \"#utility.yul\":6984:7009   */\n      swap3\n      pop\n        /* \"#utility.yul\":7032:7033   */\n      dup3\n        /* \"#utility.yul\":7029:7030   */\n      dup3\n        /* \"#utility.yul\":7025:7034   */\n      add\n        /* \"#utility.yul\":7018:7034   */\n      swap1\n      pop\n        /* \"#utility.yul\":7053:7056   */\n      dup1\n        /* \"#utility.yul\":7050:7051   */\n      dup3\n        /* \"#utility.yul\":7047:7057   */\n      gt\n        /* \"#utility.yul\":7044:7080   */\n      iszero\n      tag_139\n      jumpi\n        /* \"#utility.yul\":7060:7078   */\n      tag_140\n      tag_80\n      jump\t// in\n    tag_140:\n        /* \"#utility.yul\":7044:7080   */\n    tag_139:\n        /* \"#utility.yul\":6896:7087   */\n      swap3\n      swap2\n      pop\n      pop\n      jump\t// out\n        /* \"#utility.yul\":7093:7172   */\n    tag_81:\n        /* \"#utility.yul\":7132:7139   */\n      0x00\n        /* \"#utility.yul\":7161:7166   */\n      dup2\n        /* \"#utility.yul\":7150:7166   */\n      swap1\n      pop\n        /* \"#utility.yul\":7093:7172   */\n      swap2\n      swap1\n      pop\n      jump\t// out\n        /* \"#utility.yul\":7178:7335   */\n    tag_82:\n        /* \"#utility.yul\":7283:7328   */\n      tag_143\n        /* \"#utility.yul\":7303:7327   */\n      tag_144\n        /* \"#utility.yul\":7321:7326   */\n      dup3\n        /* \"#utility.yul\":7303:7327   */\n      tag_62\n      jump\t// in\n    tag_144:\n        /* \"#utility.yul\":7283:7328   */\n      tag_81\n      jump\t// in\n    tag_143:\n        /* \"#utility.yul\":7278:7281   */\n      dup3\n        /* \"#utility.yul\":7271:7329   */\n      mstore\n        /* \"#utility.yul\":7178:7335   */\n      pop\n      pop\n      jump\t// out\n        /* \"#utility.yul\":7341:7879   */\n    tag_56:\n        /* \"#utility.yul\":7509:7512   */\n      0x00\n        /* \"#utility.yul\":7524:7599   */\n      tag_146\n        /* \"#utility.yul\":7595:7598   */\n      dup3\n        /* \"#utility.yul\":7586:7592   */\n      dup7\n        /* \"#utility.yul\":7524:7599   */\n      tag_82\n      jump\t// in\n    tag_146:\n        /* \"#utility.yul\":7624:7626   */\n      0x20\n        /* \"#utility.yul\":7619:7622   */\n      dup3\n        /* \"#utility.yul\":7615:7627   */\n      add\n        /* \"#utility.yul\":7608:7627   */\n      swap2\n      pop\n        /* \"#utility.yul\":7637:7712   */\n      tag_147\n        /* \"#utility.yul\":7708:7711   */\n      dup3\n        /* \"#utility.yul\":7699:7705   */\n      dup6\n        /* \"#utility.yul\":7637:7712   */\n      tag_82\n      jump\t// in\n    tag_147:\n        /* \"#utility.yul\":7737:7739   */\n      0x20\n        /* \"#utility.yul\":7732:7735   */\n      dup3\n        /* \"#utility.yul\":7728:7740   */\n      add\n        /* \"#utility.yul\":7721:7740   */\n      swap2\n      pop\n        /* \"#utility.yul\":7750:7825   */\n      tag_148\n        /* \"#utility.yul\":7821:7824   */\n      dup3\n        /* \"#utility.yul\":7812:7818   */\n      dup5\n        /* \"#utility.yul\":7750:7825   */\n      tag_82\n      jump\t// in\n    tag_148:\n        /* \"#utility.yul\":7850:7852   */\n      0x20\n        /* \"#utility.yul\":7845:7848   */\n      dup3\n        /* \"#utility.yul\":7841:7853   */\n      add\n        /* \"#utility.yul\":7834:7853   */\n      swap2\n      pop\n        /* \"#utility.yul\":7870:7873   */\n      dup2\n        /* \"#utility.yul\":7863:7873   */\n      swap1\n      pop\n        /* \"#utility.yul\":7341:7879   */\n      swap5\n      swap4\n      pop\n      pop\n      pop\n      pop\n      jump\t// out\n\n    auxdata: 0xa26469706673582212209c9f6aa4cd873d06f6964dd5ce472d0de35f162106ef9d2a8e71718ffcdaabca64736f6c634300081a0033\n}\n",
				"bytecode": {
					"linkReferences": {},
					"object": "6080604052348015600e575f80fd5b50335f806101000a81548173ffffffffffffffffffffffffffffffffffffffff021916908373ffffffffffffffffffffffffffffffffffffffff1602179055506107ff8061005b5f395ff3fe60806040526004361061003e575f3560e01c806333a99e0414610042578063630a46c3146100585780636c77f989146100825780638da5cb5b1461008c575b5f80fd5b34801561004d575f80fd5b506100566100b6565b005b348015610063575f80fd5b5061006c6102ac565b6040516100799190610421565b60405180910390f35b61008a6102b2565b005b348015610097575f80fd5b506100a0610375565b6040516100ad9190610479565b60405180910390f35b5f8054906101000a900473ffffffffffffffffffffffffffffffffffffffff1673ffffffffffffffffffffffffffffffffffffffff163373ffffffffffffffffffffffffffffffffffffffff1614610143576040517f08c379a000000000000000000000000000000000000000000000000000000000815260040161013a906104ec565b60405180910390fd5b5f6001805490501161018a576040517f08c379a000000000000000000000000000000000000000000000000000000000815260040161018190610554565b60405180910390fd5b5f600180549050610199610398565b6101a3919061059f565b90505f600182815481106101ba576101b96105cf565b5b905f5260205f20015f9054906101000a900473ffffffffffffffffffffffffffffffffffffffff1690505f60025490505f60028190555060015f6101fe91906103d0565b5f8273ffffffffffffffffffffffffffffffffffffffff168260405161022390610629565b5f6040518083038185875af1925050503d805f811461025d576040519150601f19603f3d011682016040523d82523d5f602084013e610262565b606091505b50509050806102a6576040517f08c379a000000000000000000000000000000000000000000000000000000000815260040161029d90610687565b60405180910390fd5b50505050565b60025481565b662386f26fc1000034116102fb576040517f08c379a00000000000000000000000000000000000000000000000000000000081526004016102f2906106ef565b60405180910390fd5b600133908060018154018082558091505060019003905f5260205f20015f9091909190916101000a81548173ffffffffffffffffffffffffffffffffffffffff021916908373ffffffffffffffffffffffffffffffffffffffff1602179055503460025f82825461036c919061073a565b92505081905550565b5f8054906101000a900473ffffffffffffffffffffffffffffffffffffffff1681565b5f42446001805490506040516020016103b39392919061078d565b604051602081830303815290604052805190602001205f1c905090565b5080545f8255905f5260205f20908101906103eb91906103ee565b50565b5b80821115610405575f815f9055506001016103ef565b5090565b5f819050919050565b61041b81610409565b82525050565b5f6020820190506104345f830184610412565b92915050565b5f73ffffffffffffffffffffffffffffffffffffffff82169050919050565b5f6104638261043a565b9050919050565b61047381610459565b82525050565b5f60208201905061048c5f83018461046a565b92915050565b5f82825260208201905092915050565b7f43616c6c6572206973206e6f7420746865206f776e65720000000000000000005f82015250565b5f6104d6601783610492565b91506104e1826104a2565b602082019050919050565b5f6020820190508181035f830152610503816104ca565b9050919050565b7f4e6f207061727469636970616e747300000000000000000000000000000000005f82015250565b5f61053e600f83610492565b91506105498261050a565b602082019050919050565b5f6020820190508181035f83015261056b81610532565b9050919050565b7f4e487b71000000000000000000000000000000000000000000000000000000005f52601260045260245ffd5b5f6105a982610409565b91506105b483610409565b9250826105c4576105c3610572565b5b828206905092915050565b7f4e487b71000000000000000000000000000000000000000000000000000000005f52603260045260245ffd5b5f81905092915050565b50565b5f6106145f836105fc565b915061061f82610606565b5f82019050919050565b5f61063382610609565b9150819050919050565b7f5472616e73666572206661696c656400000000000000000000000000000000005f82015250565b5f610671600f83610492565b915061067c8261063d565b602082019050919050565b5f6020820190508181035f83015261069e81610665565b9050919050565b7f4d696e696d756d20302e303120457468657220746f206a6f696e0000000000005f82015250565b5f6106d9601a83610492565b91506106e4826106a5565b602082019050919050565b5f6020820190508181035f830152610706816106cd565b9050919050565b7f4e487b71000000000000000000000000000000000000000000000000000000005f52601160045260245ffd5b5f61074482610409565b915061074f83610409565b92508282019050808211156107675761076661070d565b5b92915050565b5f819050919050565b61078761078282610409565b61076d565b82525050565b5f6107988286610776565b6020820191506107a88285610776565b6020820191506107b88284610776565b60208201915081905094935050505056fea26469706673582212209c9f6aa4cd873d06f6964dd5ce472d0de35f162106ef9d2a8e71718ffcdaabca64736f6c634300081a0033",
					"opcodes": "PUSH1 0x80 PUSH1 0x40 MSTORE CALLVALUE DUP1 ISZERO PUSH1 0xE JUMPI PUSH0 DUP1 REVERT JUMPDEST POP CALLER PUSH0 DUP1 PUSH2 0x100 EXP DUP2 SLOAD DUP2 PUSH20 0xFFFFFFFFFFFFFFFFFFFFFFFFFFFFFFFFFFFFFFFF MUL NOT AND SWAP1 DUP4 PUSH20 0xFFFFFFFFFFFFFFFFFFFFFFFFFFFFFFFFFFFFFFFF AND MUL OR SWAP1 SSTORE POP PUSH2 0x7FF DUP1 PUSH2 0x5B PUSH0 CODECOPY PUSH0 RETURN INVALID PUSH1 0x80 PUSH1 0x40 MSTORE PUSH1 0x4 CALLDATASIZE LT PUSH2 0x3E JUMPI PUSH0 CALLDATALOAD PUSH1 0xE0 SHR DUP1 PUSH4 0x33A99E04 EQ PUSH2 0x42 JUMPI DUP1 PUSH4 0x630A46C3 EQ PUSH2 0x58 JUMPI DUP1 PUSH4 0x6C77F989 EQ PUSH2 0x82 JUMPI DUP1 PUSH4 0x8DA5CB5B EQ PUSH2 0x8C JUMPI JUMPDEST PUSH0 DUP1 REVERT JUMPDEST CALLVALUE DUP1 ISZERO PUSH2 0x4D JUMPI PUSH0 DUP1 REVERT JUMPDEST POP PUSH2 0x56 PUSH2 0xB6 JUMP JUMPDEST STOP JUMPDEST CALLVALUE DUP1 ISZERO PUSH2 0x63 JUMPI PUSH0 DUP1 REVERT JUMPDEST POP PUSH2 0x6C PUSH2 0x2AC JUMP JUMPDEST PUSH1 0x40 MLOAD PUSH2 0x79 SWAP2 SWAP1 PUSH2 0x421 JUMP JUMPDEST PUSH1 0x40 MLOAD DUP1 SWAP2 SUB SWAP1 RETURN JUMPDEST PUSH2 0x8A PUSH2 0x2B2 JUMP JUMPDEST STOP JUMPDEST CALLVALUE DUP1 ISZERO PUSH2 0x97 JUMPI PUSH0 DUP1 REVERT JUMPDEST POP PUSH2 0xA0 PUSH2 0x375 JUMP JUMPDEST PUSH1 0x40 MLOAD PUSH2 0xAD SWAP2 SWAP1 PUSH2 0x479 JUMP JUMPDEST PUSH1 0x40 MLOAD DUP1 SWAP2 SUB SWAP1 RETURN JUMPDEST PUSH0 DUP1 SLOAD SWAP1 PUSH2 0x100 EXP SWAP1 DIV PUSH20 0xFFFFFFFFFFFFFFFFFFFFFFFFFFFFFFFFFFFFFFFF AND PUSH20 0xFFFFFFFFFFFFFFFFFFFFFFFFFFFFFFFFFFFFFFFF AND CALLER PUSH20 0xFFFFFFFFFFFFFFFFFFFFFFFFFFFFFFFFFFFFFFFF AND EQ PUSH2 0x143 JUMPI PUSH1 0x40 MLOAD PUSH32 0x8C379A000000000000000000000000000000000000000000000000000000000 DUP2 MSTORE PUSH1 0x4 ADD PUSH2 0x13A SWAP1 PUSH2 0x4EC JUMP JUMPDEST PUSH1 0x40 MLOAD DUP1 SWAP2 SUB SWAP1 REVERT JUMPDEST PUSH0 PUSH1 0x1 DUP1 SLOAD SWAP1 POP GT PUSH2 0x18A JUMPI PUSH1 0x40 MLOAD PUSH32 0x8C379A000000000000000000000000000000000000000000000000000000000 DUP2 MSTORE PUSH1 0x4 ADD PUSH2 0x181 SWAP1 PUSH2 0x554 JUMP JUMPDEST PUSH1 0x40 MLOAD DUP1 SWAP2 SUB SWAP1 REVERT JUMPDEST PUSH0 PUSH1 0x1 DUP1 SLOAD SWAP1 POP PUSH2 0x199 PUSH2 0x398 JUMP JUMPDEST PUSH2 0x1A3 SWAP2 SWAP1 PUSH2 0x59F JUMP JUMPDEST SWAP1 POP PUSH0 PUSH1 0x1 DUP3 DUP2 SLOAD DUP2 LT PUSH2 0x1BA JUMPI PUSH2 0x1B9 PUSH2 0x5CF JUMP JUMPDEST JUMPDEST SWAP1 PUSH0 MSTORE PUSH1 0x20 PUSH0 KECCAK256 ADD PUSH0 SWAP1 SLOAD SWAP1 PUSH2 0x100 EXP SWAP1 DIV PUSH20 0xFFFFFFFFFFFFFFFFFFFFFFFFFFFFFFFFFFFFFFFF AND SWAP1 POP PUSH0 PUSH1 0x2 SLOAD SWAP1 POP PUSH0 PUSH1 0x2 DUP2 SWAP1 SSTORE POP PUSH1 0x1 PUSH0 PUSH2 0x1FE SWAP2 SWAP1 PUSH2 0x3D0 JUMP JUMPDEST PUSH0 DUP3 PUSH20 0xFFFFFFFFFFFFFFFFFFFFFFFFFFFFFFFFFFFFFFFF AND DUP3 PUSH1 0x40 MLOAD PUSH2 0x223 SWAP1 PUSH2 0x629 JUMP JUMPDEST PUSH0 PUSH1 0x40 MLOAD DUP1 DUP4 SUB DUP2 DUP6 DUP8 GAS CALL SWAP3 POP POP POP RETURNDATASIZE DUP1 PUSH0 DUP2 EQ PUSH2 0x25D JUMPI PUSH1 0x40 MLOAD SWAP2 POP PUSH1 0x1F NOT PUSH1 0x3F RETURNDATASIZE ADD AND DUP3 ADD PUSH1 0x40 MSTORE RETURNDATASIZE DUP3 MSTORE RETURNDATASIZE PUSH0 PUSH1 0x20 DUP5 ADD RETURNDATACOPY PUSH2 0x262 JUMP JUMPDEST PUSH1 0x60 SWAP2 POP JUMPDEST POP POP SWAP1 POP DUP1 PUSH2 0x2A6 JUMPI PUSH1 0x40 MLOAD PUSH32 0x8C379A000000000000000000000000000000000000000000000000000000000 DUP2 MSTORE PUSH1 0x4 ADD PUSH2 0x29D SWAP1 PUSH2 0x687 JUMP JUMPDEST PUSH1 0x40 MLOAD DUP1 SWAP2 SUB SWAP1 REVERT JUMPDEST POP POP POP POP JUMP JUMPDEST PUSH1 0x2 SLOAD DUP2 JUMP JUMPDEST PUSH7 0x2386F26FC10000 CALLVALUE GT PUSH2 0x2FB JUMPI PUSH1 0x40 MLOAD PUSH32 0x8C379A000000000000000000000000000000000000000000000000000000000 DUP2 MSTORE PUSH1 0x4 ADD PUSH2 0x2F2 SWAP1 PUSH2 0x6EF JUMP JUMPDEST PUSH1 0x40 MLOAD DUP1 SWAP2 SUB SWAP1 REVERT JUMPDEST PUSH1 0x1 CALLER SWAP1 DUP1 PUSH1 0x1 DUP2 SLOAD ADD DUP1 DUP3 SSTORE DUP1 SWAP2 POP POP PUSH1 0x1 SWAP1 SUB SWAP1 PUSH0 MSTORE PUSH1 0x20 PUSH0 KECCAK256 ADD PUSH0 SWAP1 SWAP2 SWAP1 SWAP2 SWAP1 SWAP2 PUSH2 0x100 EXP DUP2 SLOAD DUP2 PUSH20 0xFFFFFFFFFFFFFFFFFFFFFFFFFFFFFFFFFFFFFFFF MUL NOT AND SWAP1 DUP4 PUSH20 0xFFFFFFFFFFFFFFFFFFFFFFFFFFFFFFFFFFFFFFFF AND MUL OR SWAP1 SSTORE POP CALLVALUE PUSH1 0x2 PUSH0 DUP3 DUP3 SLOAD PUSH2 0x36C SWAP2 SWAP1 PUSH2 0x73A JUMP JUMPDEST SWAP3 POP POP DUP2 SWAP1 SSTORE POP JUMP JUMPDEST PUSH0 DUP1 SLOAD SWAP1 PUSH2 0x100 EXP SWAP1 DIV PUSH20 0xFFFFFFFFFFFFFFFFFFFFFFFFFFFFFFFFFFFFFFFF AND DUP2 JUMP JUMPDEST PUSH0 TIMESTAMP PREVRANDAO PUSH1 0x1 DUP1 SLOAD SWAP1 POP PUSH1 0x40 MLOAD PUSH1 0x20 ADD PUSH2 0x3B3 SWAP4 SWAP3 SWAP2 SWAP1 PUSH2 0x78D JUMP JUMPDEST PUSH1 0x40 MLOAD PUSH1 0x20 DUP2 DUP4 SUB SUB DUP2 MSTORE SWAP1 PUSH1 0x40 MSTORE DUP1 MLOAD SWAP1 PUSH1 0x20 ADD KECCAK256 PUSH0 SHR SWAP1 POP SWAP1 JUMP JUMPDEST POP DUP1 SLOAD PUSH0 DUP3 SSTORE SWAP1 PUSH0 MSTORE PUSH1 0x20 PUSH0 KECCAK256 SWAP1 DUP2 ADD SWAP1 PUSH2 0x3EB SWAP2 SWAP1 PUSH2 0x3EE JUMP JUMPDEST POP JUMP JUMPDEST JUMPDEST DUP1 DUP3 GT ISZERO PUSH2 0x405 JUMPI PUSH0 DUP2 PUSH0 SWAP1 SSTORE POP PUSH1 0x1 ADD PUSH2 0x3EF JUMP JUMPDEST POP SWAP1 JUMP JUMPDEST PUSH0 DUP2 SWAP1 POP SWAP2 SWAP1 POP JUMP JUMPDEST PUSH2 0x41B DUP2 PUSH2 0x409 JUMP JUMPDEST DUP3 MSTORE POP POP JUMP JUMPDEST PUSH0 PUSH1 0x20 DUP3 ADD SWAP1 POP PUSH2 0x434 PUSH0 DUP4 ADD DUP5 PUSH2 0x412 JUMP JUMPDEST SWAP3 SWAP2 POP POP JUMP JUMPDEST PUSH0 PUSH20 0xFFFFFFFFFFFFFFFFFFFFFFFFFFFFFFFFFFFFFFFF DUP3 AND SWAP1 POP SWAP2 SWAP1 POP JUMP JUMPDEST PUSH0 PUSH2 0x463 DUP3 PUSH2 0x43A JUMP JUMPDEST SWAP1 POP SWAP2 SWAP1 POP JUMP JUMPDEST PUSH2 0x473 DUP2 PUSH2 0x459 JUMP JUMPDEST DUP3 MSTORE POP POP JUMP JUMPDEST PUSH0 PUSH1 0x20 DUP3 ADD SWAP1 POP PUSH2 0x48C PUSH0 DUP4 ADD DUP5 PUSH2 0x46A JUMP JUMPDEST SWAP3 SWAP2 POP POP JUMP JUMPDEST PUSH0 DUP3 DUP3 MSTORE PUSH1 0x20 DUP3 ADD SWAP1 POP SWAP3 SWAP2 POP POP JUMP JUMPDEST PUSH32 0x43616C6C6572206973206E6F7420746865206F776E6572000000000000000000 PUSH0 DUP3 ADD MSTORE POP JUMP JUMPDEST PUSH0 PUSH2 0x4D6 PUSH1 0x17 DUP4 PUSH2 0x492 JUMP JUMPDEST SWAP2 POP PUSH2 0x4E1 DUP3 PUSH2 0x4A2 JUMP JUMPDEST PUSH1 0x20 DUP3 ADD SWAP1 POP SWAP2 SWAP1 POP JUMP JUMPDEST PUSH0 PUSH1 0x20 DUP3 ADD SWAP1 POP DUP2 DUP2 SUB PUSH0 DUP4 ADD MSTORE PUSH2 0x503 DUP2 PUSH2 0x4CA JUMP JUMPDEST SWAP1 POP SWAP2 SWAP1 POP JUMP JUMPDEST PUSH32 0x4E6F207061727469636970616E74730000000000000000000000000000000000 PUSH0 DUP3 ADD MSTORE POP JUMP JUMPDEST PUSH0 PUSH2 0x53E PUSH1 0xF DUP4 PUSH2 0x492 JUMP JUMPDEST SWAP2 POP PUSH2 0x549 DUP3 PUSH2 0x50A JUMP JUMPDEST PUSH1 0x20 DUP3 ADD SWAP1 POP SWAP2 SWAP1 POP JUMP JUMPDEST PUSH0 PUSH1 0x20 DUP3 ADD SWAP1 POP DUP2 DUP2 SUB PUSH0 DUP4 ADD MSTORE PUSH2 0x56B DUP2 PUSH2 0x532 JUMP JUMPDEST SWAP1 POP SWAP2 SWAP1 POP JUMP JUMPDEST PUSH32 0x4E487B7100000000000000000000000000000000000000000000000000000000 PUSH0 MSTORE PUSH1 0x12 PUSH1 0x4 MSTORE PUSH1 0x24 PUSH0 REVERT JUMPDEST PUSH0 PUSH2 0x5A9 DUP3 PUSH2 0x409 JUMP JUMPDEST SWAP2 POP PUSH2 0x5B4 DUP4 PUSH2 0x409 JUMP JUMPDEST SWAP3 POP DUP3 PUSH2 0x5C4 JUMPI PUSH2 0x5C3 PUSH2 0x572 JUMP JUMPDEST JUMPDEST DUP3 DUP3 MOD SWAP1 POP SWAP3 SWAP2 POP POP JUMP JUMPDEST PUSH32 0x4E487B7100000000000000000000000000000000000000000000000000000000 PUSH0 MSTORE PUSH1 0x32 PUSH1 0x4 MSTORE PUSH1 0x24 PUSH0 REVERT JUMPDEST PUSH0 DUP2 SWAP1 POP SWAP3 SWAP2 POP POP JUMP JUMPDEST POP JUMP JUMPDEST PUSH0 PUSH2 0x614 PUSH0 DUP4 PUSH2 0x5FC JUMP JUMPDEST SWAP2 POP PUSH2 0x61F DUP3 PUSH2 0x606 JUMP JUMPDEST PUSH0 DUP3 ADD SWAP1 POP SWAP2 SWAP1 POP JUMP JUMPDEST PUSH0 PUSH2 0x633 DUP3 PUSH2 0x609 JUMP JUMPDEST SWAP2 POP DUP2 SWAP1 POP SWAP2 SWAP1 POP JUMP JUMPDEST PUSH32 0x5472616E73666572206661696C65640000000000000000000000000000000000 PUSH0 DUP3 ADD MSTORE POP JUMP JUMPDEST PUSH0 PUSH2 0x671 PUSH1 0xF DUP4 PUSH2 0x492 JUMP JUMPDEST SWAP2 POP PUSH2 0x67C DUP3 PUSH2 0x63D JUMP JUMPDEST PUSH1 0x20 DUP3 ADD SWAP1 POP SWAP2 SWAP1 POP JUMP JUMPDEST PUSH0 PUSH1 0x20 DUP3 ADD SWAP1 POP DUP2 DUP2 SUB PUSH0 DUP4 ADD MSTORE PUSH2 0x69E DUP2 PUSH2 0x665 JUMP JUMPDEST SWAP1 POP SWAP2 SWAP1 POP JUMP JUMPDEST PUSH32 0x4D696E696D756D20302E303120457468657220746F206A6F696E000000000000 PUSH0 DUP3 ADD MSTORE POP JUMP JUMPDEST PUSH0 PUSH2 0x6D9 PUSH1 0x1A DUP4 PUSH2 0x492 JUMP JUMPDEST SWAP2 POP PUSH2 0x6E4 DUP3 PUSH2 0x6A5 JUMP JUMPDEST PUSH1 0x20 DUP3 ADD SWAP1 POP SWAP2 SWAP1 POP JUMP JUMPDEST PUSH0 PUSH1 0x20 DUP3 ADD SWAP1 POP DUP2 DUP2 SUB PUSH0 DUP4 ADD MSTORE PUSH2 0x706 DUP2 PUSH2 0x6CD JUMP JUMPDEST SWAP1 POP SWAP2 SWAP1 POP JUMP JUMPDEST PUSH32 0x4E487B7100000000000000000000000000000000000000000000000000000000 PUSH0 MSTORE PUSH1 0x11 PUSH1 0x4 MSTORE PUSH1 0x24 PUSH0 REVERT JUMPDEST PUSH0 PUSH2 0x744 DUP3 PUSH2 0x409 JUMP JUMPDEST SWAP2 POP PUSH2 0x74F DUP4 PUSH2 0x409 JUMP JUMPDEST SWAP3 POP DUP3 DUP3 ADD SWAP1 POP DUP1 DUP3 GT ISZERO PUSH2 0x767 JUMPI PUSH2 0x766 PUSH2 0x70D JUMP JUMPDEST JUMPDEST SWAP3 SWAP2 POP POP JUMP JUMPDEST PUSH0 DUP2 SWAP1 POP SWAP2 SWAP1 POP JUMP JUMPDEST PUSH2 0x787 PUSH2 0x782 DUP3 PUSH2 0x409 JUMP JUMPDEST PUSH2 0x76D JUMP JUMPDEST DUP3 MSTORE POP POP JUMP JUMPDEST PUSH0 PUSH2 0x798 DUP3 DUP7 PUSH2 0x776 JUMP JUMPDEST PUSH1 0x20 DUP3 ADD SWAP2 POP PUSH2 0x7A8 DUP3 DUP6 PUSH2 0x776 JUMP JUMPDEST PUSH1 0x20 DUP3 ADD SWAP2 POP PUSH2 0x7B8 DUP3 DUP5 PUSH2 0x776 JUMP JUMPDEST PUSH1 0x20 DUP3 ADD SWAP2 POP DUP2 SWAP1 POP SWAP5 SWAP4 POP POP POP POP JUMP INVALID LOG2 PUSH5 0x6970667358 0x22 SLT KECCAK256 SWAP13 SWAP16 PUSH11 0xA4CD873D06F6964DD5CE47 0x2D 0xD 0xE3 PUSH0 AND 0x21 MOD 0xEF SWAP14 0x2A DUP15 PUSH18 0x718FFCDAABCA64736F6C634300081A003300 "
				},
				"gasEstimates": {
					"creation": {
						"codeDepositCost": "409400",
						"executionCost": "24706",
						"totalCost": "434106"
					},
					"external": {
						"joinLottery()": "infinite",
						"lotteryPot()": "2425",
						"owner()": "2549",
						"selectWinner()": "infinite"
					},
					"internal": {
						"getRandomNumber()": "infinite"
					}
				},
				"methodIdentifiers": {
					"joinLottery()": "6c77f989",
					"lotteryPot()": "630a46c3",
					"owner()": "8da5cb5b",
					"selectWinner()": "33a99e04"
				}
			},
			"storageLayout": {
				"storage": [
					{
						"astId": 3,
						"contract": "Day-07/Lottery.sol:Lottery",
						"label": "owner",
						"offset": 0,
						"slot": "0",
						"type": "t_address"
					},
					{
						"astId": 6,
						"contract": "Day-07/Lottery.sol:Lottery",
						"label": "participants",
						"offset": 0,
						"slot": "1",
						"type": "t_array(t_address)dyn_storage"
					},
					{
						"astId": 8,
						"contract": "Day-07/Lottery.sol:Lottery",
						"label": "lotteryPot",
						"offset": 0,
						"slot": "2",
						"type": "t_uint256"
					}
				],
				"types": {
					"t_address": {
						"encoding": "inplace",
						"label": "address",
						"numberOfBytes": "20"
					},
					"t_array(t_address)dyn_storage": {
						"base": "t_address",
						"encoding": "dynamic_array",
						"label": "address[]",
						"numberOfBytes": "32"
					},
					"t_uint256": {
						"encoding": "inplace",
						"label": "uint256",
						"numberOfBytes": "32"
					}
				}
			},
			"userdoc": {
				"kind": "user",
				"methods": {},
				"version": 1
			}
		}
	}
}