{
	"data": {
		"bytecode": {
			"linkReferences": {},
			"object": "608060405234801561001057600080fd5b5060be8061001f6000396000f3fe608060405260043610603f576000357c0100000000000000000000000000000000000000000000000000000000900463ffffffff16806395c3f246146044575b600080fd5b348015604f57600080fd5b5060566073565b604051808381526020018281526020019250505060405180910390f35b6000806000600a9050600060059050808202935080820192505050909156fea165627a7a72305820181e7c93d0da3856a024a74ed6fd0e92b85fe686bd16ed5b49bb563cce75417d0029",
			"opcodes": "PUSH1 0x80 PUSH1 0x40 MSTORE CALLVALUE DUP1 ISZERO PUSH2 0x10 JUMPI PUSH1 0x0 DUP1 REVERT JUMPDEST POP PUSH1 0xBE DUP1 PUSH2 0x1F PUSH1 0x0 CODECOPY PUSH1 0x0 RETURN INVALID PUSH1 0x80 PUSH1 0x40 MSTORE PUSH1 0x4 CALLDATASIZE LT PUSH1 0x3F JUMPI PUSH1 0x0 CALLDATALOAD PUSH29 0x100000000000000000000000000000000000000000000000000000000 SWAP1 DIV PUSH4 0xFFFFFFFF AND DUP1 PUSH4 0x95C3F246 EQ PUSH1 0x44 JUMPI JUMPDEST PUSH1 0x0 DUP1 REVERT JUMPDEST CALLVALUE DUP1 ISZERO PUSH1 0x4F JUMPI PUSH1 0x0 DUP1 REVERT JUMPDEST POP PUSH1 0x56 PUSH1 0x73 JUMP JUMPDEST PUSH1 0x40 MLOAD DUP1 DUP4 DUP2 MSTORE PUSH1 0x20 ADD DUP3 DUP2 MSTORE PUSH1 0x20 ADD SWAP3 POP POP POP PUSH1 0x40 MLOAD DUP1 SWAP2 SUB SWAP1 RETURN JUMPDEST PUSH1 0x0 DUP1 PUSH1 0x0 PUSH1 0xA SWAP1 POP PUSH1 0x0 PUSH1 0x5 SWAP1 POP DUP1 DUP3 MUL SWAP4 POP DUP1 DUP3 ADD SWAP3 POP POP POP SWAP1 SWAP2 JUMP INVALID LOG1 PUSH6 0x627A7A723058 KECCAK256 XOR 0x1e PUSH29 0x93D0DA3856A024A74ED6FD0E92B85FE686BD16ED5B49BB563CCE75417D STOP 0x29 "
		},
		"gasEstimates": {
			"creation": {
				"codeDepositCost": "38000",
				"executionCost": "87",
				"totalCost": "38087"
			},
			"external": {
				"Calculate()": "276"
			}
		},
		"methodIdentifiers": {
			"Calculate()": "95c3f246"
		}
	},
	"abi": [
		{
			"constant": true,
			"inputs": [],
			"name": "Calculate",
			"outputs": [
				{
					"name": "product",
					"type": "uint256"
				},
				{
					"name": "sum",
					"type": "uint256"
				}
			],
			"payable": false,
			"stateMutability": "view",
			"type": "function"
		}
	]
}