{
	"TaskManagement/TaskManager.sol": {
		"TaskManager": {
			"abi": [
				{
					"anonymous": false,
					"inputs": [
						{
							"indexed": true,
							"internalType": "uint256",
							"name": "taskId",
							"type": "uint256"
						},
						{
							"indexed": false,
							"internalType": "string",
							"name": "title",
							"type": "string"
						},
						{
							"indexed": false,
							"internalType": "address",
							"name": "owner",
							"type": "address"
						}
					],
					"name": "TaskCreated",
					"type": "event"
				},
				{
					"anonymous": false,
					"inputs": [
						{
							"indexed": true,
							"internalType": "uint256",
							"name": "taskId",
							"type": "uint256"
						}
					],
					"name": "TaskDeleted",
					"type": "event"
				},
				{
					"anonymous": false,
					"inputs": [
						{
							"indexed": true,
							"internalType": "uint256",
							"name": "taskId",
							"type": "uint256"
						},
						{
							"indexed": false,
							"internalType": "string",
							"name": "title",
							"type": "string"
						},
						{
							"indexed": false,
							"internalType": "bool",
							"name": "completed",
							"type": "bool"
						}
					],
					"name": "TaskUpdated",
					"type": "event"
				},
				{
					"inputs": [
						{
							"internalType": "string",
							"name": "_title",
							"type": "string"
						},
						{
							"internalType": "string",
							"name": "_description",
							"type": "string"
						}
					],
					"name": "addTask",
					"outputs": [],
					"stateMutability": "nonpayable",
					"type": "function"
				},
				{
					"inputs": [
						{
							"internalType": "uint256",
							"name": "_taskId",
							"type": "uint256"
						}
					],
					"name": "deleteTask",
					"outputs": [],
					"stateMutability": "nonpayable",
					"type": "function"
				},
				{
					"inputs": [
						{
							"internalType": "uint256",
							"name": "_taskId",
							"type": "uint256"
						},
						{
							"internalType": "string",
							"name": "_newTitle",
							"type": "string"
						},
						{
							"internalType": "string",
							"name": "_newDescription",
							"type": "string"
						}
					],
					"name": "editTask",
					"outputs": [],
					"stateMutability": "nonpayable",
					"type": "function"
				},
				{
					"inputs": [
						{
							"internalType": "uint256",
							"name": "_taskId",
							"type": "uint256"
						}
					],
					"name": "getTask",
					"outputs": [
						{
							"components": [
								{
									"internalType": "uint256",
									"name": "id",
									"type": "uint256"
								},
								{
									"internalType": "string",
									"name": "title",
									"type": "string"
								},
								{
									"internalType": "string",
									"name": "description",
									"type": "string"
								},
								{
									"internalType": "bool",
									"name": "completed",
									"type": "bool"
								},
								{
									"internalType": "address",
									"name": "owner",
									"type": "address"
								}
							],
							"internalType": "struct TaskManager.Task",
							"name": "",
							"type": "tuple"
						}
					],
					"stateMutability": "view",
					"type": "function"
				},
				{
					"inputs": [
						{
							"internalType": "uint256",
							"name": "_taskId",
							"type": "uint256"
						}
					],
					"name": "markTaskCompleted",
					"outputs": [],
					"stateMutability": "nonpayable",
					"type": "function"
				},
				{
					"inputs": [],
					"name": "nextTaskId",
					"outputs": [
						{
							"internalType": "uint256",
							"name": "",
							"type": "uint256"
						}
					],
					"stateMutability": "view",
					"type": "function"
				},
				{
					"inputs": [
						{
							"internalType": "uint256",
							"name": "",
							"type": "uint256"
						}
					],
					"name": "tasks",
					"outputs": [
						{
							"internalType": "uint256",
							"name": "id",
							"type": "uint256"
						},
						{
							"internalType": "string",
							"name": "title",
							"type": "string"
						},
						{
							"internalType": "string",
							"name": "description",
							"type": "string"
						},
						{
							"internalType": "bool",
							"name": "completed",
							"type": "bool"
						},
						{
							"internalType": "address",
							"name": "owner",
							"type": "address"
						}
					],
					"stateMutability": "view",
					"type": "function"
				}
			],
			"devdoc": {
				"kind": "dev",
				"methods": {},
				"version": 1
			},
			"evm": {
				"assembly": "    /* \"TaskManagement/TaskManager.sol\":61:1727  contract TaskManager{... */\n  mstore(0x40, 0x80)\n  callvalue\n  dup1\n  iszero\n  tag_1\n  jumpi\n  0x00\n  dup1\n  revert\ntag_1:\n  pop\n  dataSize(sub_0)\n  dup1\n  dataOffset(sub_0)\n  0x00\n  codecopy\n  0x00\n  return\nstop\n\nsub_0: assembly {\n        /* \"TaskManagement/TaskManager.sol\":61:1727  contract TaskManager{... */\n      mstore(0x40, 0x80)\n      callvalue\n      dup1\n      iszero\n      tag_1\n      jumpi\n      0x00\n      dup1\n      revert\n    tag_1:\n      pop\n      jumpi(tag_2, lt(calldatasize, 0x04))\n      shr(0xe0, calldataload(0x00))\n      dup1\n      0x560f3192\n      gt\n      tag_10\n      jumpi\n      dup1\n      0x560f3192\n      eq\n      tag_6\n      jumpi\n      dup1\n      0x8d977672\n      eq\n      tag_7\n      jumpi\n      dup1\n      0xb37b1000\n      eq\n      tag_8\n      jumpi\n      dup1\n      0xfdc3d8d7\n      eq\n      tag_9\n      jumpi\n      jump(tag_2)\n    tag_10:\n      dup1\n      0x0b2bda\n      eq\n      tag_3\n      jumpi\n      dup1\n      0x1d65e77e\n      eq\n      tag_4\n      jumpi\n      dup1\n      0x4103c62e\n      eq\n      tag_5\n      jumpi\n    tag_2:\n      0x00\n      dup1\n      revert\n        /* \"TaskManagement/TaskManager.sol\":1244:1457  function markTaskCompleted(uint256 _taskId) public onlyTaskOwner(_taskId) {... */\n    tag_3:\n      tag_11\n      0x04\n      dup1\n      calldatasize\n      sub\n      dup2\n      add\n      swap1\n      tag_12\n      swap2\n      swap1\n      tag_13\n      jump\t// in\n    tag_12:\n      tag_14\n      jump\t// in\n    tag_11:\n      stop\n        /* \"TaskManagement/TaskManager.sol\":1616:1724  function getTask(uint256 _taskId) public view returns (Task memory) {... */\n    tag_4:\n      tag_15\n      0x04\n      dup1\n      calldatasize\n      sub\n      dup2\n      add\n      swap1\n      tag_16\n      swap2\n      swap1\n      tag_13\n      jump\t// in\n    tag_16:\n      tag_17\n      jump\t// in\n    tag_15:\n      mload(0x40)\n      tag_18\n      swap2\n      swap1\n      tag_19\n      jump\t// in\n    tag_18:\n      mload(0x40)\n      dup1\n      swap2\n      sub\n      swap1\n      return\n        /* \"TaskManagement/TaskManager.sol\":921:1236  function editTask(uint256 _taskId, string memory _newTitle, string memory _newDescription) public onlyTaskOwner(_taskId) {... */\n    tag_5:\n      tag_20\n      0x04\n      dup1\n      calldatasize\n      sub\n      dup2\n      add\n      swap1\n      tag_21\n      swap2\n      swap1\n      tag_22\n      jump\t// in\n    tag_21:\n      tag_23\n      jump\t// in\n    tag_20:\n      stop\n        /* \"TaskManagement/TaskManager.sol\":1465:1608  function deleteTask(uint256 _taskId) public onlyTaskOwner(_taskId) {... */\n    tag_6:\n      tag_24\n      0x04\n      dup1\n      calldatasize\n      sub\n      dup2\n      add\n      swap1\n      tag_25\n      swap2\n      swap1\n      tag_13\n      jump\t// in\n    tag_25:\n      tag_26\n      jump\t// in\n    tag_24:\n      stop\n        /* \"TaskManagement/TaskManager.sol\":238:275  mapping(uint256 => Task) public tasks */\n    tag_7:\n      tag_27\n      0x04\n      dup1\n      calldatasize\n      sub\n      dup2\n      add\n      swap1\n      tag_28\n      swap2\n      swap1\n      tag_13\n      jump\t// in\n    tag_28:\n      tag_29\n      jump\t// in\n    tag_27:\n      mload(0x40)\n      tag_30\n      swap6\n      swap5\n      swap4\n      swap3\n      swap2\n      swap1\n      tag_31\n      jump\t// in\n    tag_30:\n      mload(0x40)\n      dup1\n      swap2\n      sub\n      swap1\n      return\n        /* \"TaskManagement/TaskManager.sol\":661:913  function addTask(string memory _title, string memory _description) public {... */\n    tag_8:\n      tag_32\n      0x04\n      dup1\n      calldatasize\n      sub\n      dup2\n      add\n      swap1\n      tag_33\n      swap2\n      swap1\n      tag_34\n      jump\t// in\n    tag_33:\n      tag_35\n      jump\t// in\n    tag_32:\n      stop\n        /* \"TaskManagement/TaskManager.sol\":282:307  uint256 public nextTaskId */\n    tag_9:\n      tag_36\n      tag_37\n      jump\t// in\n    tag_36:\n      mload(0x40)\n      tag_38\n      swap2\n      swap1\n      tag_39\n      jump\t// in\n    tag_38:\n      mload(0x40)\n      dup1\n      swap2\n      sub\n      swap1\n      return\n        /* \"TaskManagement/TaskManager.sol\":1244:1457  function markTaskCompleted(uint256 _taskId) public onlyTaskOwner(_taskId) {... */\n    tag_14:\n        /* \"TaskManagement/TaskManager.sol\":1309:1316  _taskId */\n      dup1\n        /* \"TaskManagement/TaskManager.sol\":604:614  msg.sender */\n      caller\n        /* \"TaskManagement/TaskManager.sol\":580:614  tasks[_taskId].owner == msg.sender */\n      0xffffffffffffffffffffffffffffffffffffffff\n      and\n        /* \"TaskManagement/TaskManager.sol\":580:585  tasks */\n      0x00\n        /* \"TaskManagement/TaskManager.sol\":580:594  tasks[_taskId] */\n      dup1\n        /* \"TaskManagement/TaskManager.sol\":586:593  _taskId */\n      dup4\n        /* \"TaskManagement/TaskManager.sol\":580:594  tasks[_taskId] */\n      dup2\n      mstore\n      0x20\n      add\n      swap1\n      dup2\n      mstore\n      0x20\n      add\n      0x00\n      keccak256\n        /* \"TaskManagement/TaskManager.sol\":580:600  tasks[_taskId].owner */\n      0x03\n      add\n      0x01\n      swap1\n      sload\n      swap1\n      0x0100\n      exp\n      swap1\n      div\n      0xffffffffffffffffffffffffffffffffffffffff\n      and\n        /* \"TaskManagement/TaskManager.sol\":580:614  tasks[_taskId].owner == msg.sender */\n      0xffffffffffffffffffffffffffffffffffffffff\n      and\n      eq\n        /* \"TaskManagement/TaskManager.sol\":572:633  require(tasks[_taskId].owner == msg.sender, \"Not task owner\") */\n      tag_41\n      jumpi\n      mload(0x40)\n      0x08c379a000000000000000000000000000000000000000000000000000000000\n      dup2\n      mstore\n      0x04\n      add\n      tag_42\n      swap1\n      tag_43\n      jump\t// in\n    tag_42:\n      mload(0x40)\n      dup1\n      swap2\n      sub\n      swap1\n      revert\n    tag_41:\n        /* \"TaskManagement/TaskManager.sol\":1329:1346  Task storage task */\n      0x00\n        /* \"TaskManagement/TaskManager.sol\":1349:1354  tasks */\n      dup1\n        /* \"TaskManagement/TaskManager.sol\":1349:1363  tasks[_taskId] */\n      0x00\n        /* \"TaskManagement/TaskManager.sol\":1355:1362  _taskId */\n      dup5\n        /* \"TaskManagement/TaskManager.sol\":1349:1363  tasks[_taskId] */\n      dup2\n      mstore\n      0x20\n      add\n      swap1\n      dup2\n      mstore\n      0x20\n      add\n      0x00\n      keccak256\n        /* \"TaskManagement/TaskManager.sol\":1329:1363  Task storage task = tasks[_taskId] */\n      swap1\n      pop\n        /* \"TaskManagement/TaskManager.sol\":1391:1395  true */\n      0x01\n        /* \"TaskManagement/TaskManager.sol\":1374:1378  task */\n      dup2\n        /* \"TaskManagement/TaskManager.sol\":1374:1388  task.completed */\n      0x03\n      add\n      0x00\n        /* \"TaskManagement/TaskManager.sol\":1374:1395  task.completed = true */\n      0x0100\n      exp\n      dup2\n      sload\n      dup2\n      0xff\n      mul\n      not\n      and\n      swap1\n      dup4\n      iszero\n      iszero\n      mul\n      or\n      swap1\n      sstore\n      pop\n        /* \"TaskManagement/TaskManager.sol\":1423:1430  _taskId */\n      dup3\n        /* \"TaskManagement/TaskManager.sol\":1411:1449  TaskUpdated(_taskId, task.title, true) */\n      0x731243b94fd6f4071f6ac97a26cb4cff681428631c877c64cdea5371290b01c1\n        /* \"TaskManagement/TaskManager.sol\":1432:1436  task */\n      dup3\n        /* \"TaskManagement/TaskManager.sol\":1432:1442  task.title */\n      0x01\n      add\n        /* \"TaskManagement/TaskManager.sol\":1444:1448  true */\n      0x01\n        /* \"TaskManagement/TaskManager.sol\":1411:1449  TaskUpdated(_taskId, task.title, true) */\n      mload(0x40)\n      tag_45\n      swap3\n      swap2\n      swap1\n      tag_46\n      jump\t// in\n    tag_45:\n      mload(0x40)\n      dup1\n      swap2\n      sub\n      swap1\n      log2\n        /* \"TaskManagement/TaskManager.sol\":1318:1457  {... */\n      pop\n        /* \"TaskManagement/TaskManager.sol\":1244:1457  function markTaskCompleted(uint256 _taskId) public onlyTaskOwner(_taskId) {... */\n      pop\n      pop\n      jump\t// out\n        /* \"TaskManagement/TaskManager.sol\":1616:1724  function getTask(uint256 _taskId) public view returns (Task memory) {... */\n    tag_17:\n        /* \"TaskManagement/TaskManager.sol\":1671:1682  Task memory */\n      tag_47\n      tag_48\n      jump\t// in\n    tag_47:\n        /* \"TaskManagement/TaskManager.sol\":1702:1707  tasks */\n      0x00\n        /* \"TaskManagement/TaskManager.sol\":1702:1716  tasks[_taskId] */\n      dup1\n        /* \"TaskManagement/TaskManager.sol\":1708:1715  _taskId */\n      dup4\n        /* \"TaskManagement/TaskManager.sol\":1702:1716  tasks[_taskId] */\n      dup2\n      mstore\n      0x20\n      add\n      swap1\n      dup2\n      mstore\n      0x20\n      add\n      0x00\n      keccak256\n        /* \"TaskManagement/TaskManager.sol\":1695:1716  return tasks[_taskId] */\n      mload(0x40)\n      dup1\n      0xa0\n      add\n      0x40\n      mstore\n      swap1\n      dup2\n      0x00\n      dup3\n      add\n      sload\n      dup2\n      mstore\n      0x20\n      add\n      0x01\n      dup3\n      add\n      dup1\n      sload\n      tag_50\n      swap1\n      tag_51\n      jump\t// in\n    tag_50:\n      dup1\n      0x1f\n      add\n      0x20\n      dup1\n      swap2\n      div\n      mul\n      0x20\n      add\n      mload(0x40)\n      swap1\n      dup2\n      add\n      0x40\n      mstore\n      dup1\n      swap3\n      swap2\n      swap1\n      dup2\n      dup2\n      mstore\n      0x20\n      add\n      dup3\n      dup1\n      sload\n      tag_52\n      swap1\n      tag_51\n      jump\t// in\n    tag_52:\n      dup1\n      iszero\n      tag_53\n      jumpi\n      dup1\n      0x1f\n      lt\n      tag_54\n      jumpi\n      0x0100\n      dup1\n      dup4\n      sload\n      div\n      mul\n      dup4\n      mstore\n      swap2\n      0x20\n      add\n      swap2\n      jump(tag_53)\n    tag_54:\n      dup3\n      add\n      swap2\n      swap1\n      0x00\n      mstore\n      keccak256(0x00, 0x20)\n      swap1\n    tag_55:\n      dup2\n      sload\n      dup2\n      mstore\n      swap1\n      0x01\n      add\n      swap1\n      0x20\n      add\n      dup1\n      dup4\n      gt\n      tag_55\n      jumpi\n      dup3\n      swap1\n      sub\n      0x1f\n      and\n      dup3\n      add\n      swap2\n    tag_53:\n      pop\n      pop\n      pop\n      pop\n      pop\n      dup2\n      mstore\n      0x20\n      add\n      0x02\n      dup3\n      add\n      dup1\n      sload\n      tag_56\n      swap1\n      tag_51\n      jump\t// in\n    tag_56:\n      dup1\n      0x1f\n      add\n      0x20\n      dup1\n      swap2\n      div\n      mul\n      0x20\n      add\n      mload(0x40)\n      swap1\n      dup2\n      add\n      0x40\n      mstore\n      dup1\n      swap3\n      swap2\n      swap1\n      dup2\n      dup2\n      mstore\n      0x20\n      add\n      dup3\n      dup1\n      sload\n      tag_57\n      swap1\n      tag_51\n      jump\t// in\n    tag_57:\n      dup1\n      iszero\n      tag_58\n      jumpi\n      dup1\n      0x1f\n      lt\n      tag_59\n      jumpi\n      0x0100\n      dup1\n      dup4\n      sload\n      div\n      mul\n      dup4\n      mstore\n      swap2\n      0x20\n      add\n      swap2\n      jump(tag_58)\n    tag_59:\n      dup3\n      add\n      swap2\n      swap1\n      0x00\n      mstore\n      keccak256(0x00, 0x20)\n      swap1\n    tag_60:\n      dup2\n      sload\n      dup2\n      mstore\n      swap1\n      0x01\n      add\n      swap1\n      0x20\n      add\n      dup1\n      dup4\n      gt\n      tag_60\n      jumpi\n      dup3\n      swap1\n      sub\n      0x1f\n      and\n      dup3\n      add\n      swap2\n    tag_58:\n      pop\n      pop\n      pop\n      pop\n      pop\n      dup2\n      mstore\n      0x20\n      add\n      0x03\n      dup3\n      add\n      0x00\n      swap1\n      sload\n      swap1\n      0x0100\n      exp\n      swap1\n      div\n      0xff\n      and\n      iszero\n      iszero\n      iszero\n      iszero\n      dup2\n      mstore\n      0x20\n      add\n      0x03\n      dup3\n      add\n      0x01\n      swap1\n      sload\n      swap1\n      0x0100\n      exp\n      swap1\n      div\n      0xffffffffffffffffffffffffffffffffffffffff\n      and\n      0xffffffffffffffffffffffffffffffffffffffff\n      and\n      0xffffffffffffffffffffffffffffffffffffffff\n      and\n      dup2\n      mstore\n      pop\n      pop\n      swap1\n      pop\n        /* \"TaskManagement/TaskManager.sol\":1616:1724  function getTask(uint256 _taskId) public view returns (Task memory) {... */\n      swap2\n      swap1\n      pop\n      jump\t// out\n        /* \"TaskManagement/TaskManager.sol\":921:1236  function editTask(uint256 _taskId, string memory _newTitle, string memory _newDescription) public onlyTaskOwner(_taskId) {... */\n    tag_23:\n        /* \"TaskManagement/TaskManager.sol\":1033:1040  _taskId */\n      dup3\n        /* \"TaskManagement/TaskManager.sol\":604:614  msg.sender */\n      caller\n        /* \"TaskManagement/TaskManager.sol\":580:614  tasks[_taskId].owner == msg.sender */\n      0xffffffffffffffffffffffffffffffffffffffff\n      and\n        /* \"TaskManagement/TaskManager.sol\":580:585  tasks */\n      0x00\n        /* \"TaskManagement/TaskManager.sol\":580:594  tasks[_taskId] */\n      dup1\n        /* \"TaskManagement/TaskManager.sol\":586:593  _taskId */\n      dup4\n        /* \"TaskManagement/TaskManager.sol\":580:594  tasks[_taskId] */\n      dup2\n      mstore\n      0x20\n      add\n      swap1\n      dup2\n      mstore\n      0x20\n      add\n      0x00\n      keccak256\n        /* \"TaskManagement/TaskManager.sol\":580:600  tasks[_taskId].owner */\n      0x03\n      add\n      0x01\n      swap1\n      sload\n      swap1\n      0x0100\n      exp\n      swap1\n      div\n      0xffffffffffffffffffffffffffffffffffffffff\n      and\n        /* \"TaskManagement/TaskManager.sol\":580:614  tasks[_taskId].owner == msg.sender */\n      0xffffffffffffffffffffffffffffffffffffffff\n      and\n      eq\n        /* \"TaskManagement/TaskManager.sol\":572:633  require(tasks[_taskId].owner == msg.sender, \"Not task owner\") */\n      tag_62\n      jumpi\n      mload(0x40)\n      0x08c379a000000000000000000000000000000000000000000000000000000000\n      dup2\n      mstore\n      0x04\n      add\n      tag_63\n      swap1\n      tag_43\n      jump\t// in\n    tag_63:\n      mload(0x40)\n      dup1\n      swap2\n      sub\n      swap1\n      revert\n    tag_62:\n        /* \"TaskManagement/TaskManager.sol\":1053:1070  Task storage task */\n      0x00\n        /* \"TaskManagement/TaskManager.sol\":1073:1078  tasks */\n      dup1\n        /* \"TaskManagement/TaskManager.sol\":1073:1087  tasks[_taskId] */\n      0x00\n        /* \"TaskManagement/TaskManager.sol\":1079:1086  _taskId */\n      dup7\n        /* \"TaskManagement/TaskManager.sol\":1073:1087  tasks[_taskId] */\n      dup2\n      mstore\n      0x20\n      add\n      swap1\n      dup2\n      mstore\n      0x20\n      add\n      0x00\n      keccak256\n        /* \"TaskManagement/TaskManager.sol\":1053:1087  Task storage task = tasks[_taskId] */\n      swap1\n      pop\n        /* \"TaskManagement/TaskManager.sol\":1111:1120  _newTitle */\n      dup4\n        /* \"TaskManagement/TaskManager.sol\":1098:1102  task */\n      dup2\n        /* \"TaskManagement/TaskManager.sol\":1098:1108  task.title */\n      0x01\n      add\n        /* \"TaskManagement/TaskManager.sol\":1098:1120  task.title = _newTitle */\n      swap1\n      dup2\n      tag_65\n      swap2\n      swap1\n      tag_66\n      jump\t// in\n    tag_65:\n      pop\n        /* \"TaskManagement/TaskManager.sol\":1150:1165  _newDescription */\n      dup3\n        /* \"TaskManagement/TaskManager.sol\":1131:1135  task */\n      dup2\n        /* \"TaskManagement/TaskManager.sol\":1131:1147  task.description */\n      0x02\n      add\n        /* \"TaskManagement/TaskManager.sol\":1131:1165  task.description = _newDescription */\n      swap1\n      dup2\n      tag_67\n      swap2\n      swap1\n      tag_66\n      jump\t// in\n    tag_67:\n      pop\n        /* \"TaskManagement/TaskManager.sol\":1193:1200  _taskId */\n      dup5\n        /* \"TaskManagement/TaskManager.sol\":1181:1228  TaskUpdated(_taskId, _newTitle, task.completed) */\n      0x731243b94fd6f4071f6ac97a26cb4cff681428631c877c64cdea5371290b01c1\n        /* \"TaskManagement/TaskManager.sol\":1202:1211  _newTitle */\n      dup6\n        /* \"TaskManagement/TaskManager.sol\":1213:1217  task */\n      dup4\n        /* \"TaskManagement/TaskManager.sol\":1213:1227  task.completed */\n      0x03\n      add\n      0x00\n      swap1\n      sload\n      swap1\n      0x0100\n      exp\n      swap1\n      div\n      0xff\n      and\n        /* \"TaskManagement/TaskManager.sol\":1181:1228  TaskUpdated(_taskId, _newTitle, task.completed) */\n      mload(0x40)\n      tag_68\n      swap3\n      swap2\n      swap1\n      tag_69\n      jump\t// in\n    tag_68:\n      mload(0x40)\n      dup1\n      swap2\n      sub\n      swap1\n      log2\n        /* \"TaskManagement/TaskManager.sol\":1042:1236  {... */\n      pop\n        /* \"TaskManagement/TaskManager.sol\":921:1236  function editTask(uint256 _taskId, string memory _newTitle, string memory _newDescription) public onlyTaskOwner(_taskId) {... */\n      pop\n      pop\n      pop\n      pop\n      jump\t// out\n        /* \"TaskManagement/TaskManager.sol\":1465:1608  function deleteTask(uint256 _taskId) public onlyTaskOwner(_taskId) {... */\n    tag_26:\n        /* \"TaskManagement/TaskManager.sol\":1523:1530  _taskId */\n      dup1\n        /* \"TaskManagement/TaskManager.sol\":604:614  msg.sender */\n      caller\n        /* \"TaskManagement/TaskManager.sol\":580:614  tasks[_taskId].owner == msg.sender */\n      0xffffffffffffffffffffffffffffffffffffffff\n      and\n        /* \"TaskManagement/TaskManager.sol\":580:585  tasks */\n      0x00\n        /* \"TaskManagement/TaskManager.sol\":580:594  tasks[_taskId] */\n      dup1\n        /* \"TaskManagement/TaskManager.sol\":586:593  _taskId */\n      dup4\n        /* \"TaskManagement/TaskManager.sol\":580:594  tasks[_taskId] */\n      dup2\n      mstore\n      0x20\n      add\n      swap1\n      dup2\n      mstore\n      0x20\n      add\n      0x00\n      keccak256\n        /* \"TaskManagement/TaskManager.sol\":580:600  tasks[_taskId].owner */\n      0x03\n      add\n      0x01\n      swap1\n      sload\n      swap1\n      0x0100\n      exp\n      swap1\n      div\n      0xffffffffffffffffffffffffffffffffffffffff\n      and\n        /* \"TaskManagement/TaskManager.sol\":580:614  tasks[_taskId].owner == msg.sender */\n      0xffffffffffffffffffffffffffffffffffffffff\n      and\n      eq\n        /* \"TaskManagement/TaskManager.sol\":572:633  require(tasks[_taskId].owner == msg.sender, \"Not task owner\") */\n      tag_71\n      jumpi\n      mload(0x40)\n      0x08c379a000000000000000000000000000000000000000000000000000000000\n      dup2\n      mstore\n      0x04\n      add\n      tag_72\n      swap1\n      tag_43\n      jump\t// in\n    tag_72:\n      mload(0x40)\n      dup1\n      swap2\n      sub\n      swap1\n      revert\n    tag_71:\n        /* \"TaskManagement/TaskManager.sol\":1550:1555  tasks */\n      0x00\n        /* \"TaskManagement/TaskManager.sol\":1550:1564  tasks[_taskId] */\n      dup1\n        /* \"TaskManagement/TaskManager.sol\":1556:1563  _taskId */\n      dup4\n        /* \"TaskManagement/TaskManager.sol\":1550:1564  tasks[_taskId] */\n      dup2\n      mstore\n      0x20\n      add\n      swap1\n      dup2\n      mstore\n      0x20\n      add\n      0x00\n      keccak256\n      0x00\n        /* \"TaskManagement/TaskManager.sol\":1543:1564  delete tasks[_taskId] */\n      dup1\n      dup3\n      add\n      0x00\n      swap1\n      sstore\n      0x01\n      dup3\n      add\n      0x00\n      tag_74\n      swap2\n      swap1\n      tag_75\n      jump\t// in\n    tag_74:\n      0x02\n      dup3\n      add\n      0x00\n      tag_76\n      swap2\n      swap1\n      tag_75\n      jump\t// in\n    tag_76:\n      0x03\n      dup3\n      add\n      exp(0x0100, 0x00)\n      dup2\n      sload\n      swap1\n      0xff\n      mul\n      not\n      and\n      swap1\n      sstore\n      0x03\n      dup3\n      add\n      exp(0x0100, 0x01)\n      dup2\n      sload\n      swap1\n      0xffffffffffffffffffffffffffffffffffffffff\n      mul\n      not\n      and\n      swap1\n      sstore\n      pop\n      pop\n        /* \"TaskManagement/TaskManager.sol\":1592:1599  _taskId */\n      dup2\n        /* \"TaskManagement/TaskManager.sol\":1580:1600  TaskDeleted(_taskId) */\n      0xd078b251d950cc55c44340be1db732337ef4939a76e1367ee271ad2cb19c46af\n      mload(0x40)\n      mload(0x40)\n      dup1\n      swap2\n      sub\n      swap1\n      log2\n        /* \"TaskManagement/TaskManager.sol\":1465:1608  function deleteTask(uint256 _taskId) public onlyTaskOwner(_taskId) {... */\n      pop\n      pop\n      jump\t// out\n        /* \"TaskManagement/TaskManager.sol\":238:275  mapping(uint256 => Task) public tasks */\n    tag_29:\n      mstore(0x20, 0x00)\n      dup1\n      0x00\n      mstore\n      keccak256(0x00, 0x40)\n      0x00\n      swap2\n      pop\n      swap1\n      pop\n      dup1\n      0x00\n      add\n      sload\n      swap1\n      dup1\n      0x01\n      add\n      dup1\n      sload\n      tag_77\n      swap1\n      tag_51\n      jump\t// in\n    tag_77:\n      dup1\n      0x1f\n      add\n      0x20\n      dup1\n      swap2\n      div\n      mul\n      0x20\n      add\n      mload(0x40)\n      swap1\n      dup2\n      add\n      0x40\n      mstore\n      dup1\n      swap3\n      swap2\n      swap1\n      dup2\n      dup2\n      mstore\n      0x20\n      add\n      dup3\n      dup1\n      sload\n      tag_78\n      swap1\n      tag_51\n      jump\t// in\n    tag_78:\n      dup1\n      iszero\n      tag_79\n      jumpi\n      dup1\n      0x1f\n      lt\n      tag_80\n      jumpi\n      0x0100\n      dup1\n      dup4\n      sload\n      div\n      mul\n      dup4\n      mstore\n      swap2\n      0x20\n      add\n      swap2\n      jump(tag_79)\n    tag_80:\n      dup3\n      add\n      swap2\n      swap1\n      0x00\n      mstore\n      keccak256(0x00, 0x20)\n      swap1\n    tag_81:\n      dup2\n      sload\n      dup2\n      mstore\n      swap1\n      0x01\n      add\n      swap1\n      0x20\n      add\n      dup1\n      dup4\n      gt\n      tag_81\n      jumpi\n      dup3\n      swap1\n      sub\n      0x1f\n      and\n      dup3\n      add\n      swap2\n    tag_79:\n      pop\n      pop\n      pop\n      pop\n      pop\n      swap1\n      dup1\n      0x02\n      add\n      dup1\n      sload\n      tag_82\n      swap1\n      tag_51\n      jump\t// in\n    tag_82:\n      dup1\n      0x1f\n      add\n      0x20\n      dup1\n      swap2\n      div\n      mul\n      0x20\n      add\n      mload(0x40)\n      swap1\n      dup2\n      add\n      0x40\n      mstore\n      dup1\n      swap3\n      swap2\n      swap1\n      dup2\n      dup2\n      mstore\n      0x20\n      add\n      dup3\n      dup1\n      sload\n      tag_83\n      swap1\n      tag_51\n      jump\t// in\n    tag_83:\n      dup1\n      iszero\n      tag_84\n      jumpi\n      dup1\n      0x1f\n      lt\n      tag_85\n      jumpi\n      0x0100\n      dup1\n      dup4\n      sload\n      div\n      mul\n      dup4\n      mstore\n      swap2\n      0x20\n      add\n      swap2\n      jump(tag_84)\n    tag_85:\n      dup3\n      add\n      swap2\n      swap1\n      0x00\n      mstore\n      keccak256(0x00, 0x20)\n      swap1\n    tag_86:\n      dup2\n      sload\n      dup2\n      mstore\n      swap1\n      0x01\n      add\n      swap1\n      0x20\n      add\n      dup1\n      dup4\n      gt\n      tag_86\n      jumpi\n      dup3\n      swap1\n      sub\n      0x1f\n      and\n      dup3\n      add\n      swap2\n    tag_84:\n      pop\n      pop\n      pop\n      pop\n      pop\n      swap1\n      dup1\n      0x03\n      add\n      0x00\n      swap1\n      sload\n      swap1\n      0x0100\n      exp\n      swap1\n      div\n      0xff\n      and\n      swap1\n      dup1\n      0x03\n      add\n      0x01\n      swap1\n      sload\n      swap1\n      0x0100\n      exp\n      swap1\n      div\n      0xffffffffffffffffffffffffffffffffffffffff\n      and\n      swap1\n      pop\n      dup6\n      jump\t// out\n        /* \"TaskManagement/TaskManager.sol\":661:913  function addTask(string memory _title, string memory _description) public {... */\n    tag_35:\n        /* \"TaskManagement/TaskManager.sol\":766:823  Task(nextTaskId, _title, _description, false, msg.sender) */\n      mload(0x40)\n      dup1\n      0xa0\n      add\n      0x40\n      mstore\n      dup1\n        /* \"TaskManagement/TaskManager.sol\":771:781  nextTaskId */\n      sload(0x01)\n        /* \"TaskManagement/TaskManager.sol\":766:823  Task(nextTaskId, _title, _description, false, msg.sender) */\n      dup2\n      mstore\n      0x20\n      add\n        /* \"TaskManagement/TaskManager.sol\":783:789  _title */\n      dup4\n        /* \"TaskManagement/TaskManager.sol\":766:823  Task(nextTaskId, _title, _description, false, msg.sender) */\n      dup2\n      mstore\n      0x20\n      add\n        /* \"TaskManagement/TaskManager.sol\":791:803  _description */\n      dup3\n        /* \"TaskManagement/TaskManager.sol\":766:823  Task(nextTaskId, _title, _description, false, msg.sender) */\n      dup2\n      mstore\n      0x20\n      add\n        /* \"TaskManagement/TaskManager.sol\":805:810  false */\n      0x00\n        /* \"TaskManagement/TaskManager.sol\":766:823  Task(nextTaskId, _title, _description, false, msg.sender) */\n      iszero\n      iszero\n      dup2\n      mstore\n      0x20\n      add\n        /* \"TaskManagement/TaskManager.sol\":812:822  msg.sender */\n      caller\n        /* \"TaskManagement/TaskManager.sol\":766:823  Task(nextTaskId, _title, _description, false, msg.sender) */\n      0xffffffffffffffffffffffffffffffffffffffff\n      and\n      dup2\n      mstore\n      pop\n        /* \"TaskManagement/TaskManager.sol\":746:751  tasks */\n      0x00\n        /* \"TaskManagement/TaskManager.sol\":746:763  tasks[nextTaskId] */\n      dup1\n        /* \"TaskManagement/TaskManager.sol\":752:762  nextTaskId */\n      sload(0x01)\n        /* \"TaskManagement/TaskManager.sol\":746:763  tasks[nextTaskId] */\n      dup2\n      mstore\n      0x20\n      add\n      swap1\n      dup2\n      mstore\n      0x20\n      add\n      0x00\n      keccak256\n        /* \"TaskManagement/TaskManager.sol\":746:823  tasks[nextTaskId] = Task(nextTaskId, _title, _description, false, msg.sender) */\n      0x00\n      dup3\n      add\n      mload\n      dup2\n      0x00\n      add\n      sstore\n      0x20\n      dup3\n      add\n      mload\n      dup2\n      0x01\n      add\n      swap1\n      dup2\n      tag_88\n      swap2\n      swap1\n      tag_66\n      jump\t// in\n    tag_88:\n      pop\n      0x40\n      dup3\n      add\n      mload\n      dup2\n      0x02\n      add\n      swap1\n      dup2\n      tag_89\n      swap2\n      swap1\n      tag_66\n      jump\t// in\n    tag_89:\n      pop\n      0x60\n      dup3\n      add\n      mload\n      dup2\n      0x03\n      add\n      exp(0x0100, 0x00)\n      dup2\n      sload\n      dup2\n      0xff\n      mul\n      not\n      and\n      swap1\n      dup4\n      iszero\n      iszero\n      mul\n      or\n      swap1\n      sstore\n      pop\n      0x80\n      dup3\n      add\n      mload\n      dup2\n      0x03\n      add\n      exp(0x0100, 0x01)\n      dup2\n      sload\n      dup2\n      0xffffffffffffffffffffffffffffffffffffffff\n      mul\n      not\n      and\n      swap1\n      dup4\n      0xffffffffffffffffffffffffffffffffffffffff\n      and\n      mul\n      or\n      swap1\n      sstore\n      pop\n      swap1\n      pop\n      pop\n        /* \"TaskManagement/TaskManager.sol\":851:861  nextTaskId */\n      sload(0x01)\n        /* \"TaskManagement/TaskManager.sol\":839:882  TaskCreated(nextTaskId, _title, msg.sender) */\n      0xdc691e972cb25fd6e968744b5a6416d42a052ac1305e3b7ed6777b621304b7f2\n        /* \"TaskManagement/TaskManager.sol\":863:869  _title */\n      dup4\n        /* \"TaskManagement/TaskManager.sol\":871:881  msg.sender */\n      caller\n        /* \"TaskManagement/TaskManager.sol\":839:882  TaskCreated(nextTaskId, _title, msg.sender) */\n      mload(0x40)\n      tag_90\n      swap3\n      swap2\n      swap1\n      tag_91\n      jump\t// in\n    tag_90:\n      mload(0x40)\n      dup1\n      swap2\n      sub\n      swap1\n      log2\n        /* \"TaskManagement/TaskManager.sol\":893:903  nextTaskId */\n      0x01\n      0x00\n        /* \"TaskManagement/TaskManager.sol\":893:905  nextTaskId++ */\n      dup2\n      sload\n      dup1\n      swap3\n      swap2\n      swap1\n      tag_92\n      swap1\n      tag_93\n      jump\t// in\n    tag_92:\n      swap2\n      swap1\n      pop\n      sstore\n      pop\n        /* \"TaskManagement/TaskManager.sol\":661:913  function addTask(string memory _title, string memory _description) public {... */\n      pop\n      pop\n      jump\t// out\n        /* \"TaskManagement/TaskManager.sol\":282:307  uint256 public nextTaskId */\n    tag_37:\n      sload(0x01)\n      dup2\n      jump\t// out\n    tag_48:\n      mload(0x40)\n      dup1\n      0xa0\n      add\n      0x40\n      mstore\n      dup1\n      0x00\n      dup2\n      mstore\n      0x20\n      add\n      0x60\n      dup2\n      mstore\n      0x20\n      add\n      0x60\n      dup2\n      mstore\n      0x20\n      add\n      iszero(iszero(0x00))\n      dup2\n      mstore\n      0x20\n      add\n      and(0xffffffffffffffffffffffffffffffffffffffff, 0x00)\n      dup2\n      mstore\n      pop\n      swap1\n      jump\t// out\n    tag_75:\n      pop\n      dup1\n      sload\n      tag_94\n      swap1\n      tag_51\n      jump\t// in\n    tag_94:\n      0x00\n      dup3\n      sstore\n      dup1\n      0x1f\n      lt\n      tag_96\n      jumpi\n      pop\n      jump(tag_95)\n    tag_96:\n      0x1f\n      add\n      0x20\n      swap1\n      div\n      swap1\n      0x00\n      mstore\n      keccak256(0x00, 0x20)\n      swap1\n      dup2\n      add\n      swap1\n      tag_97\n      swap2\n      swap1\n      tag_98\n      jump\t// in\n    tag_97:\n    tag_95:\n      pop\n      jump\t// out\n    tag_98:\n    tag_99:\n      dup1\n      dup3\n      gt\n      iszero\n      tag_100\n      jumpi\n      0x00\n      dup2\n      0x00\n      swap1\n      sstore\n      pop\n      0x01\n      add\n      jump(tag_99)\n    tag_100:\n      pop\n      swap1\n      jump\t// out\n        /* \"#utility.yul\":7:82   */\n    tag_101:\n        /* \"#utility.yul\":40:46   */\n      0x00\n        /* \"#utility.yul\":73:75   */\n      0x40\n        /* \"#utility.yul\":67:76   */\n      mload\n        /* \"#utility.yul\":57:76   */\n      swap1\n      pop\n        /* \"#utility.yul\":7:82   */\n      swap1\n      jump\t// out\n        /* \"#utility.yul\":88:205   */\n    tag_102:\n        /* \"#utility.yul\":197:198   */\n      0x00\n        /* \"#utility.yul\":194:195   */\n      dup1\n        /* \"#utility.yul\":187:199   */\n      revert\n        /* \"#utility.yul\":211:328   */\n    tag_103:\n        /* \"#utility.yul\":320:321   */\n      0x00\n        /* \"#utility.yul\":317:318   */\n      dup1\n        /* \"#utility.yul\":310:322   */\n      revert\n        /* \"#utility.yul\":334:411   */\n    tag_104:\n        /* \"#utility.yul\":371:378   */\n      0x00\n        /* \"#utility.yul\":400:405   */\n      dup2\n        /* \"#utility.yul\":389:405   */\n      swap1\n      pop\n        /* \"#utility.yul\":334:411   */\n      swap2\n      swap1\n      pop\n      jump\t// out\n        /* \"#utility.yul\":417:539   */\n    tag_105:\n        /* \"#utility.yul\":490:514   */\n      tag_159\n        /* \"#utility.yul\":508:513   */\n      dup2\n        /* \"#utility.yul\":490:514   */\n      tag_104\n      jump\t// in\n    tag_159:\n        /* \"#utility.yul\":483:488   */\n      dup2\n        /* \"#utility.yul\":480:515   */\n      eq\n        /* \"#utility.yul\":470:533   */\n      tag_160\n      jumpi\n        /* \"#utility.yul\":529:530   */\n      0x00\n        /* \"#utility.yul\":526:527   */\n      dup1\n        /* \"#utility.yul\":519:531   */\n      revert\n        /* \"#utility.yul\":470:533   */\n    tag_160:\n        /* \"#utility.yul\":417:539   */\n      pop\n      jump\t// out\n        /* \"#utility.yul\":545:684   */\n    tag_106:\n        /* \"#utility.yul\":591:596   */\n      0x00\n        /* \"#utility.yul\":629:635   */\n      dup2\n        /* \"#utility.yul\":616:636   */\n      calldataload\n        /* \"#utility.yul\":607:636   */\n      swap1\n      pop\n        /* \"#utility.yul\":645:678   */\n      tag_162\n        /* \"#utility.yul\":672:677   */\n      dup2\n        /* \"#utility.yul\":645:678   */\n      tag_105\n      jump\t// in\n    tag_162:\n        /* \"#utility.yul\":545:684   */\n      swap3\n      swap2\n      pop\n      pop\n      jump\t// out\n        /* \"#utility.yul\":690:1019   */\n    tag_13:\n        /* \"#utility.yul\":749:755   */\n      0x00\n        /* \"#utility.yul\":798:800   */\n      0x20\n        /* \"#utility.yul\":786:795   */\n      dup3\n        /* \"#utility.yul\":777:784   */\n      dup5\n        /* \"#utility.yul\":773:796   */\n      sub\n        /* \"#utility.yul\":769:801   */\n      slt\n        /* \"#utility.yul\":766:885   */\n      iszero\n      tag_164\n      jumpi\n        /* \"#utility.yul\":804:883   */\n      tag_165\n      tag_102\n      jump\t// in\n    tag_165:\n        /* \"#utility.yul\":766:885   */\n    tag_164:\n        /* \"#utility.yul\":924:925   */\n      0x00\n        /* \"#utility.yul\":949:1002   */\n      tag_166\n        /* \"#utility.yul\":994:1001   */\n      dup5\n        /* \"#utility.yul\":985:991   */\n      dup3\n        /* \"#utility.yul\":974:983   */\n      dup6\n        /* \"#utility.yul\":970:992   */\n      add\n        /* \"#utility.yul\":949:1002   */\n      tag_106\n      jump\t// in\n    tag_166:\n        /* \"#utility.yul\":939:1002   */\n      swap2\n      pop\n        /* \"#utility.yul\":895:1012   */\n      pop\n        /* \"#utility.yul\":690:1019   */\n      swap3\n      swap2\n      pop\n      pop\n      jump\t// out\n        /* \"#utility.yul\":1025:1133   */\n    tag_107:\n        /* \"#utility.yul\":1102:1126   */\n      tag_168\n        /* \"#utility.yul\":1120:1125   */\n      dup2\n        /* \"#utility.yul\":1102:1126   */\n      tag_104\n      jump\t// in\n    tag_168:\n        /* \"#utility.yul\":1097:1100   */\n      dup3\n        /* \"#utility.yul\":1090:1127   */\n      mstore\n        /* \"#utility.yul\":1025:1133   */\n      pop\n      pop\n      jump\t// out\n        /* \"#utility.yul\":1139:1238   */\n    tag_108:\n        /* \"#utility.yul\":1191:1197   */\n      0x00\n        /* \"#utility.yul\":1225:1230   */\n      dup2\n        /* \"#utility.yul\":1219:1231   */\n      mload\n        /* \"#utility.yul\":1209:1231   */\n      swap1\n      pop\n        /* \"#utility.yul\":1139:1238   */\n      swap2\n      swap1\n      pop\n      jump\t// out\n        /* \"#utility.yul\":1244:1403   */\n    tag_109:\n        /* \"#utility.yul\":1318:1329   */\n      0x00\n        /* \"#utility.yul\":1352:1358   */\n      dup3\n        /* \"#utility.yul\":1347:1350   */\n      dup3\n        /* \"#utility.yul\":1340:1359   */\n      mstore\n        /* \"#utility.yul\":1392:1396   */\n      0x20\n        /* \"#utility.yul\":1387:1390   */\n      dup3\n        /* \"#utility.yul\":1383:1397   */\n      add\n        /* \"#utility.yul\":1368:1397   */\n      swap1\n      pop\n        /* \"#utility.yul\":1244:1403   */\n      swap3\n      swap2\n      pop\n      pop\n      jump\t// out\n        /* \"#utility.yul\":1409:1548   */\n    tag_110:\n        /* \"#utility.yul\":1498:1504   */\n      dup3\n        /* \"#utility.yul\":1493:1496   */\n      dup2\n        /* \"#utility.yul\":1488:1491   */\n      dup4\n        /* \"#utility.yul\":1482:1505   */\n      mcopy\n        /* \"#utility.yul\":1539:1540   */\n      0x00\n        /* \"#utility.yul\":1530:1536   */\n      dup4\n        /* \"#utility.yul\":1525:1528   */\n      dup4\n        /* \"#utility.yul\":1521:1537   */\n      add\n        /* \"#utility.yul\":1514:1541   */\n      mstore\n        /* \"#utility.yul\":1409:1548   */\n      pop\n      pop\n      pop\n      jump\t// out\n        /* \"#utility.yul\":1554:1656   */\n    tag_111:\n        /* \"#utility.yul\":1595:1601   */\n      0x00\n        /* \"#utility.yul\":1646:1648   */\n      0x1f\n        /* \"#utility.yul\":1642:1649   */\n      not\n        /* \"#utility.yul\":1637:1639   */\n      0x1f\n        /* \"#utility.yul\":1630:1635   */\n      dup4\n        /* \"#utility.yul\":1626:1640   */\n      add\n        /* \"#utility.yul\":1622:1650   */\n      and\n        /* \"#utility.yul\":1612:1650   */\n      swap1\n      pop\n        /* \"#utility.yul\":1554:1656   */\n      swap2\n      swap1\n      pop\n      jump\t// out\n        /* \"#utility.yul\":1662:2019   */\n    tag_112:\n        /* \"#utility.yul\":1740:1743   */\n      0x00\n        /* \"#utility.yul\":1768:1807   */\n      tag_174\n        /* \"#utility.yul\":1801:1806   */\n      dup3\n        /* \"#utility.yul\":1768:1807   */\n      tag_108\n      jump\t// in\n    tag_174:\n        /* \"#utility.yul\":1823:1884   */\n      tag_175\n        /* \"#utility.yul\":1877:1883   */\n      dup2\n        /* \"#utility.yul\":1872:1875   */\n      dup6\n        /* \"#utility.yul\":1823:1884   */\n      tag_109\n      jump\t// in\n    tag_175:\n        /* \"#utility.yul\":1816:1884   */\n      swap4\n      pop\n        /* \"#utility.yul\":1893:1958   */\n      tag_176\n        /* \"#utility.yul\":1951:1957   */\n      dup2\n        /* \"#utility.yul\":1946:1949   */\n      dup6\n        /* \"#utility.yul\":1939:1943   */\n      0x20\n        /* \"#utility.yul\":1932:1937   */\n      dup7\n        /* \"#utility.yul\":1928:1944   */\n      add\n        /* \"#utility.yul\":1893:1958   */\n      tag_110\n      jump\t// in\n    tag_176:\n        /* \"#utility.yul\":1983:2012   */\n      tag_177\n        /* \"#utility.yul\":2005:2011   */\n      dup2\n        /* \"#utility.yul\":1983:2012   */\n      tag_111\n      jump\t// in\n    tag_177:\n        /* \"#utility.yul\":1978:1981   */\n      dup5\n        /* \"#utility.yul\":1974:2013   */\n      add\n        /* \"#utility.yul\":1967:2013   */\n      swap2\n      pop\n        /* \"#utility.yul\":1744:2019   */\n      pop\n        /* \"#utility.yul\":1662:2019   */\n      swap3\n      swap2\n      pop\n      pop\n      jump\t// out\n        /* \"#utility.yul\":2025:2115   */\n    tag_113:\n        /* \"#utility.yul\":2059:2066   */\n      0x00\n        /* \"#utility.yul\":2102:2107   */\n      dup2\n        /* \"#utility.yul\":2095:2108   */\n      iszero\n        /* \"#utility.yul\":2088:2109   */\n      iszero\n        /* \"#utility.yul\":2077:2109   */\n      swap1\n      pop\n        /* \"#utility.yul\":2025:2115   */\n      swap2\n      swap1\n      pop\n      jump\t// out\n        /* \"#utility.yul\":2121:2220   */\n    tag_114:\n        /* \"#utility.yul\":2192:2213   */\n      tag_180\n        /* \"#utility.yul\":2207:2212   */\n      dup2\n        /* \"#utility.yul\":2192:2213   */\n      tag_113\n      jump\t// in\n    tag_180:\n        /* \"#utility.yul\":2187:2190   */\n      dup3\n        /* \"#utility.yul\":2180:2214   */\n      mstore\n        /* \"#utility.yul\":2121:2220   */\n      pop\n      pop\n      jump\t// out\n        /* \"#utility.yul\":2226:2352   */\n    tag_115:\n        /* \"#utility.yul\":2263:2270   */\n      0x00\n        /* \"#utility.yul\":2303:2345   */\n      0xffffffffffffffffffffffffffffffffffffffff\n        /* \"#utility.yul\":2296:2301   */\n      dup3\n        /* \"#utility.yul\":2292:2346   */\n      and\n        /* \"#utility.yul\":2281:2346   */\n      swap1\n      pop\n        /* \"#utility.yul\":2226:2352   */\n      swap2\n      swap1\n      pop\n      jump\t// out\n        /* \"#utility.yul\":2358:2454   */\n    tag_116:\n        /* \"#utility.yul\":2395:2402   */\n      0x00\n        /* \"#utility.yul\":2424:2448   */\n      tag_183\n        /* \"#utility.yul\":2442:2447   */\n      dup3\n        /* \"#utility.yul\":2424:2448   */\n      tag_115\n      jump\t// in\n    tag_183:\n        /* \"#utility.yul\":2413:2448   */\n      swap1\n      pop\n        /* \"#utility.yul\":2358:2454   */\n      swap2\n      swap1\n      pop\n      jump\t// out\n        /* \"#utility.yul\":2460:2568   */\n    tag_117:\n        /* \"#utility.yul\":2537:2561   */\n      tag_185\n        /* \"#utility.yul\":2555:2560   */\n      dup2\n        /* \"#utility.yul\":2537:2561   */\n      tag_116\n      jump\t// in\n    tag_185:\n        /* \"#utility.yul\":2532:2535   */\n      dup3\n        /* \"#utility.yul\":2525:2562   */\n      mstore\n        /* \"#utility.yul\":2460:2568   */\n      pop\n      pop\n      jump\t// out\n        /* \"#utility.yul\":2632:3827   */\n    tag_118:\n        /* \"#utility.yul\":2741:2744   */\n      0x00\n        /* \"#utility.yul\":2777:2781   */\n      0xa0\n        /* \"#utility.yul\":2772:2775   */\n      dup4\n        /* \"#utility.yul\":2768:2782   */\n      add\n        /* \"#utility.yul\":2862:2866   */\n      0x00\n        /* \"#utility.yul\":2855:2860   */\n      dup4\n        /* \"#utility.yul\":2851:2867   */\n      add\n        /* \"#utility.yul\":2845:2868   */\n      mload\n        /* \"#utility.yul\":2881:2944   */\n      tag_187\n        /* \"#utility.yul\":2938:2942   */\n      0x00\n        /* \"#utility.yul\":2933:2936   */\n      dup7\n        /* \"#utility.yul\":2929:2943   */\n      add\n        /* \"#utility.yul\":2915:2927   */\n      dup3\n        /* \"#utility.yul\":2881:2944   */\n      tag_107\n      jump\t// in\n    tag_187:\n        /* \"#utility.yul\":2792:2954   */\n      pop\n        /* \"#utility.yul\":3037:3041   */\n      0x20\n        /* \"#utility.yul\":3030:3035   */\n      dup4\n        /* \"#utility.yul\":3026:3042   */\n      add\n        /* \"#utility.yul\":3020:3043   */\n      mload\n        /* \"#utility.yul\":3090:3093   */\n      dup5\n        /* \"#utility.yul\":3084:3088   */\n      dup3\n        /* \"#utility.yul\":3080:3094   */\n      sub\n        /* \"#utility.yul\":3073:3077   */\n      0x20\n        /* \"#utility.yul\":3068:3071   */\n      dup7\n        /* \"#utility.yul\":3064:3078   */\n      add\n        /* \"#utility.yul\":3057:3095   */\n      mstore\n        /* \"#utility.yul\":3116:3189   */\n      tag_188\n        /* \"#utility.yul\":3184:3188   */\n      dup3\n        /* \"#utility.yul\":3170:3182   */\n      dup3\n        /* \"#utility.yul\":3116:3189   */\n      tag_112\n      jump\t// in\n    tag_188:\n        /* \"#utility.yul\":3108:3189   */\n      swap2\n      pop\n        /* \"#utility.yul\":2964:3200   */\n      pop\n        /* \"#utility.yul\":3289:3293   */\n      0x40\n        /* \"#utility.yul\":3282:3287   */\n      dup4\n        /* \"#utility.yul\":3278:3294   */\n      add\n        /* \"#utility.yul\":3272:3295   */\n      mload\n        /* \"#utility.yul\":3342:3345   */\n      dup5\n        /* \"#utility.yul\":3336:3340   */\n      dup3\n        /* \"#utility.yul\":3332:3346   */\n      sub\n        /* \"#utility.yul\":3325:3329   */\n      0x40\n        /* \"#utility.yul\":3320:3323   */\n      dup7\n        /* \"#utility.yul\":3316:3330   */\n      add\n        /* \"#utility.yul\":3309:3347   */\n      mstore\n        /* \"#utility.yul\":3368:3441   */\n      tag_189\n        /* \"#utility.yul\":3436:3440   */\n      dup3\n        /* \"#utility.yul\":3422:3434   */\n      dup3\n        /* \"#utility.yul\":3368:3441   */\n      tag_112\n      jump\t// in\n    tag_189:\n        /* \"#utility.yul\":3360:3441   */\n      swap2\n      pop\n        /* \"#utility.yul\":3210:3452   */\n      pop\n        /* \"#utility.yul\":3539:3543   */\n      0x60\n        /* \"#utility.yul\":3532:3537   */\n      dup4\n        /* \"#utility.yul\":3528:3544   */\n      add\n        /* \"#utility.yul\":3522:3545   */\n      mload\n        /* \"#utility.yul\":3558:3615   */\n      tag_190\n        /* \"#utility.yul\":3609:3613   */\n      0x60\n        /* \"#utility.yul\":3604:3607   */\n      dup7\n        /* \"#utility.yul\":3600:3614   */\n      add\n        /* \"#utility.yul\":3586:3598   */\n      dup3\n        /* \"#utility.yul\":3558:3615   */\n      tag_114\n      jump\t// in\n    tag_190:\n        /* \"#utility.yul\":3462:3625   */\n      pop\n        /* \"#utility.yul\":3708:3712   */\n      0x80\n        /* \"#utility.yul\":3701:3706   */\n      dup4\n        /* \"#utility.yul\":3697:3713   */\n      add\n        /* \"#utility.yul\":3691:3714   */\n      mload\n        /* \"#utility.yul\":3727:3790   */\n      tag_191\n        /* \"#utility.yul\":3784:3788   */\n      0x80\n        /* \"#utility.yul\":3779:3782   */\n      dup7\n        /* \"#utility.yul\":3775:3789   */\n      add\n        /* \"#utility.yul\":3761:3773   */\n      dup3\n        /* \"#utility.yul\":3727:3790   */\n      tag_117\n      jump\t// in\n    tag_191:\n        /* \"#utility.yul\":3635:3800   */\n      pop\n        /* \"#utility.yul\":3817:3821   */\n      dup1\n        /* \"#utility.yul\":3810:3821   */\n      swap2\n      pop\n        /* \"#utility.yul\":2746:3827   */\n      pop\n        /* \"#utility.yul\":2632:3827   */\n      swap3\n      swap2\n      pop\n      pop\n      jump\t// out\n        /* \"#utility.yul\":3833:4186   */\n    tag_19:\n        /* \"#utility.yul\":3966:3970   */\n      0x00\n        /* \"#utility.yul\":4004:4006   */\n      0x20\n        /* \"#utility.yul\":3993:4002   */\n      dup3\n        /* \"#utility.yul\":3989:4007   */\n      add\n        /* \"#utility.yul\":3981:4007   */\n      swap1\n      pop\n        /* \"#utility.yul\":4053:4062   */\n      dup2\n        /* \"#utility.yul\":4047:4051   */\n      dup2\n        /* \"#utility.yul\":4043:4063   */\n      sub\n        /* \"#utility.yul\":4039:4040   */\n      0x00\n        /* \"#utility.yul\":4028:4037   */\n      dup4\n        /* \"#utility.yul\":4024:4041   */\n      add\n        /* \"#utility.yul\":4017:4064   */\n      mstore\n        /* \"#utility.yul\":4081:4179   */\n      tag_193\n        /* \"#utility.yul\":4174:4178   */\n      dup2\n        /* \"#utility.yul\":4165:4171   */\n      dup5\n        /* \"#utility.yul\":4081:4179   */\n      tag_118\n      jump\t// in\n    tag_193:\n        /* \"#utility.yul\":4073:4179   */\n      swap1\n      pop\n        /* \"#utility.yul\":3833:4186   */\n      swap3\n      swap2\n      pop\n      pop\n      jump\t// out\n        /* \"#utility.yul\":4192:4309   */\n    tag_119:\n        /* \"#utility.yul\":4301:4302   */\n      0x00\n        /* \"#utility.yul\":4298:4299   */\n      dup1\n        /* \"#utility.yul\":4291:4303   */\n      revert\n        /* \"#utility.yul\":4315:4432   */\n    tag_120:\n        /* \"#utility.yul\":4424:4425   */\n      0x00\n        /* \"#utility.yul\":4421:4422   */\n      dup1\n        /* \"#utility.yul\":4414:4426   */\n      revert\n        /* \"#utility.yul\":4438:4618   */\n    tag_121:\n        /* \"#utility.yul\":4486:4563   */\n      0x4e487b7100000000000000000000000000000000000000000000000000000000\n        /* \"#utility.yul\":4483:4484   */\n      0x00\n        /* \"#utility.yul\":4476:4564   */\n      mstore\n        /* \"#utility.yul\":4583:4587   */\n      0x41\n        /* \"#utility.yul\":4580:4581   */\n      0x04\n        /* \"#utility.yul\":4573:4588   */\n      mstore\n        /* \"#utility.yul\":4607:4611   */\n      0x24\n        /* \"#utility.yul\":4604:4605   */\n      0x00\n        /* \"#utility.yul\":4597:4612   */\n      revert\n        /* \"#utility.yul\":4624:4905   */\n    tag_122:\n        /* \"#utility.yul\":4707:4734   */\n      tag_198\n        /* \"#utility.yul\":4729:4733   */\n      dup3\n        /* \"#utility.yul\":4707:4734   */\n      tag_111\n      jump\t// in\n    tag_198:\n        /* \"#utility.yul\":4699:4705   */\n      dup2\n        /* \"#utility.yul\":4695:4735   */\n      add\n        /* \"#utility.yul\":4837:4843   */\n      dup2\n        /* \"#utility.yul\":4825:4835   */\n      dup2\n        /* \"#utility.yul\":4822:4844   */\n      lt\n        /* \"#utility.yul\":4801:4819   */\n      0xffffffffffffffff\n        /* \"#utility.yul\":4789:4799   */\n      dup3\n        /* \"#utility.yul\":4786:4820   */\n      gt\n        /* \"#utility.yul\":4783:4845   */\n      or\n        /* \"#utility.yul\":4780:4868   */\n      iszero\n      tag_199\n      jumpi\n        /* \"#utility.yul\":4848:4866   */\n      tag_200\n      tag_121\n      jump\t// in\n    tag_200:\n        /* \"#utility.yul\":4780:4868   */\n    tag_199:\n        /* \"#utility.yul\":4888:4898   */\n      dup1\n        /* \"#utility.yul\":4884:4886   */\n      0x40\n        /* \"#utility.yul\":4877:4899   */\n      mstore\n        /* \"#utility.yul\":4667:4905   */\n      pop\n        /* \"#utility.yul\":4624:4905   */\n      pop\n      pop\n      jump\t// out\n        /* \"#utility.yul\":4911:5040   */\n    tag_123:\n        /* \"#utility.yul\":4945:4951   */\n      0x00\n        /* \"#utility.yul\":4972:4992   */\n      tag_202\n      tag_101\n      jump\t// in\n    tag_202:\n        /* \"#utility.yul\":4962:4992   */\n      swap1\n      pop\n        /* \"#utility.yul\":5001:5034   */\n      tag_203\n        /* \"#utility.yul\":5029:5033   */\n      dup3\n        /* \"#utility.yul\":5021:5027   */\n      dup3\n        /* \"#utility.yul\":5001:5034   */\n      tag_122\n      jump\t// in\n    tag_203:\n        /* \"#utility.yul\":4911:5040   */\n      swap2\n      swap1\n      pop\n      jump\t// out\n        /* \"#utility.yul\":5046:5354   */\n    tag_124:\n        /* \"#utility.yul\":5108:5112   */\n      0x00\n        /* \"#utility.yul\":5198:5216   */\n      0xffffffffffffffff\n        /* \"#utility.yul\":5190:5196   */\n      dup3\n        /* \"#utility.yul\":5187:5217   */\n      gt\n        /* \"#utility.yul\":5184:5240   */\n      iszero\n      tag_205\n      jumpi\n        /* \"#utility.yul\":5220:5238   */\n      tag_206\n      tag_121\n      jump\t// in\n    tag_206:\n        /* \"#utility.yul\":5184:5240   */\n    tag_205:\n        /* \"#utility.yul\":5258:5287   */\n      tag_207\n        /* \"#utility.yul\":5280:5286   */\n      dup3\n        /* \"#utility.yul\":5258:5287   */\n      tag_111\n      jump\t// in\n    tag_207:\n        /* \"#utility.yul\":5250:5287   */\n      swap1\n      pop\n        /* \"#utility.yul\":5342:5346   */\n      0x20\n        /* \"#utility.yul\":5336:5340   */\n      dup2\n        /* \"#utility.yul\":5332:5347   */\n      add\n        /* \"#utility.yul\":5324:5347   */\n      swap1\n      pop\n        /* \"#utility.yul\":5046:5354   */\n      swap2\n      swap1\n      pop\n      jump\t// out\n        /* \"#utility.yul\":5360:5508   */\n    tag_125:\n        /* \"#utility.yul\":5458:5464   */\n      dup3\n        /* \"#utility.yul\":5453:5456   */\n      dup2\n        /* \"#utility.yul\":5448:5451   */\n      dup4\n        /* \"#utility.yul\":5435:5465   */\n      calldatacopy\n        /* \"#utility.yul\":5499:5500   */\n      0x00\n        /* \"#utility.yul\":5490:5496   */\n      dup4\n        /* \"#utility.yul\":5485:5488   */\n      dup4\n        /* \"#utility.yul\":5481:5497   */\n      add\n        /* \"#utility.yul\":5474:5501   */\n      mstore\n        /* \"#utility.yul\":5360:5508   */\n      pop\n      pop\n      pop\n      jump\t// out\n        /* \"#utility.yul\":5514:5939   */\n    tag_126:\n        /* \"#utility.yul\":5592:5597   */\n      0x00\n        /* \"#utility.yul\":5617:5683   */\n      tag_210\n        /* \"#utility.yul\":5633:5682   */\n      tag_211\n        /* \"#utility.yul\":5675:5681   */\n      dup5\n        /* \"#utility.yul\":5633:5682   */\n      tag_124\n      jump\t// in\n    tag_211:\n        /* \"#utility.yul\":5617:5683   */\n      tag_123\n      jump\t// in\n    tag_210:\n        /* \"#utility.yul\":5608:5683   */\n      swap1\n      pop\n        /* \"#utility.yul\":5706:5712   */\n      dup3\n        /* \"#utility.yul\":5699:5704   */\n      dup2\n        /* \"#utility.yul\":5692:5713   */\n      mstore\n        /* \"#utility.yul\":5744:5748   */\n      0x20\n        /* \"#utility.yul\":5737:5742   */\n      dup2\n        /* \"#utility.yul\":5733:5749   */\n      add\n        /* \"#utility.yul\":5782:5785   */\n      dup5\n        /* \"#utility.yul\":5773:5779   */\n      dup5\n        /* \"#utility.yul\":5768:5771   */\n      dup5\n        /* \"#utility.yul\":5764:5780   */\n      add\n        /* \"#utility.yul\":5761:5786   */\n      gt\n        /* \"#utility.yul\":5758:5870   */\n      iszero\n      tag_212\n      jumpi\n        /* \"#utility.yul\":5789:5868   */\n      tag_213\n      tag_120\n      jump\t// in\n    tag_213:\n        /* \"#utility.yul\":5758:5870   */\n    tag_212:\n        /* \"#utility.yul\":5879:5933   */\n      tag_214\n        /* \"#utility.yul\":5926:5932   */\n      dup5\n        /* \"#utility.yul\":5921:5924   */\n      dup3\n        /* \"#utility.yul\":5916:5919   */\n      dup6\n        /* \"#utility.yul\":5879:5933   */\n      tag_125\n      jump\t// in\n    tag_214:\n        /* \"#utility.yul\":5598:5939   */\n      pop\n        /* \"#utility.yul\":5514:5939   */\n      swap4\n      swap3\n      pop\n      pop\n      pop\n      jump\t// out\n        /* \"#utility.yul\":5959:6299   */\n    tag_127:\n        /* \"#utility.yul\":6015:6020   */\n      0x00\n        /* \"#utility.yul\":6064:6067   */\n      dup3\n        /* \"#utility.yul\":6057:6061   */\n      0x1f\n        /* \"#utility.yul\":6049:6055   */\n      dup4\n        /* \"#utility.yul\":6045:6062   */\n      add\n        /* \"#utility.yul\":6041:6068   */\n      slt\n        /* \"#utility.yul\":6031:6153   */\n      tag_216\n      jumpi\n        /* \"#utility.yul\":6072:6151   */\n      tag_217\n      tag_119\n      jump\t// in\n    tag_217:\n        /* \"#utility.yul\":6031:6153   */\n    tag_216:\n        /* \"#utility.yul\":6189:6195   */\n      dup2\n        /* \"#utility.yul\":6176:6196   */\n      calldataload\n        /* \"#utility.yul\":6214:6293   */\n      tag_218\n        /* \"#utility.yul\":6289:6292   */\n      dup5\n        /* \"#utility.yul\":6281:6287   */\n      dup3\n        /* \"#utility.yul\":6274:6278   */\n      0x20\n        /* \"#utility.yul\":6266:6272   */\n      dup7\n        /* \"#utility.yul\":6262:6279   */\n      add\n        /* \"#utility.yul\":6214:6293   */\n      tag_126\n      jump\t// in\n    tag_218:\n        /* \"#utility.yul\":6205:6293   */\n      swap2\n      pop\n        /* \"#utility.yul\":6021:6299   */\n      pop\n        /* \"#utility.yul\":5959:6299   */\n      swap3\n      swap2\n      pop\n      pop\n      jump\t// out\n        /* \"#utility.yul\":6305:7284   */\n    tag_22:\n        /* \"#utility.yul\":6402:6408   */\n      0x00\n        /* \"#utility.yul\":6410:6416   */\n      dup1\n        /* \"#utility.yul\":6418:6424   */\n      0x00\n        /* \"#utility.yul\":6467:6469   */\n      0x60\n        /* \"#utility.yul\":6455:6464   */\n      dup5\n        /* \"#utility.yul\":6446:6453   */\n      dup7\n        /* \"#utility.yul\":6442:6465   */\n      sub\n        /* \"#utility.yul\":6438:6470   */\n      slt\n        /* \"#utility.yul\":6435:6554   */\n      iszero\n      tag_220\n      jumpi\n        /* \"#utility.yul\":6473:6552   */\n      tag_221\n      tag_102\n      jump\t// in\n    tag_221:\n        /* \"#utility.yul\":6435:6554   */\n    tag_220:\n        /* \"#utility.yul\":6593:6594   */\n      0x00\n        /* \"#utility.yul\":6618:6671   */\n      tag_222\n        /* \"#utility.yul\":6663:6670   */\n      dup7\n        /* \"#utility.yul\":6654:6660   */\n      dup3\n        /* \"#utility.yul\":6643:6652   */\n      dup8\n        /* \"#utility.yul\":6639:6661   */\n      add\n        /* \"#utility.yul\":6618:6671   */\n      tag_106\n      jump\t// in\n    tag_222:\n        /* \"#utility.yul\":6608:6671   */\n      swap4\n      pop\n        /* \"#utility.yul\":6564:6681   */\n      pop\n        /* \"#utility.yul\":6748:6750   */\n      0x20\n        /* \"#utility.yul\":6737:6746   */\n      dup5\n        /* \"#utility.yul\":6733:6751   */\n      add\n        /* \"#utility.yul\":6720:6752   */\n      calldataload\n        /* \"#utility.yul\":6779:6797   */\n      0xffffffffffffffff\n        /* \"#utility.yul\":6771:6777   */\n      dup2\n        /* \"#utility.yul\":6768:6798   */\n      gt\n        /* \"#utility.yul\":6765:6882   */\n      iszero\n      tag_223\n      jumpi\n        /* \"#utility.yul\":6801:6880   */\n      tag_224\n      tag_103\n      jump\t// in\n    tag_224:\n        /* \"#utility.yul\":6765:6882   */\n    tag_223:\n        /* \"#utility.yul\":6906:6969   */\n      tag_225\n        /* \"#utility.yul\":6961:6968   */\n      dup7\n        /* \"#utility.yul\":6952:6958   */\n      dup3\n        /* \"#utility.yul\":6941:6950   */\n      dup8\n        /* \"#utility.yul\":6937:6959   */\n      add\n        /* \"#utility.yul\":6906:6969   */\n      tag_127\n      jump\t// in\n    tag_225:\n        /* \"#utility.yul\":6896:6969   */\n      swap3\n      pop\n        /* \"#utility.yul\":6691:6979   */\n      pop\n        /* \"#utility.yul\":7046:7048   */\n      0x40\n        /* \"#utility.yul\":7035:7044   */\n      dup5\n        /* \"#utility.yul\":7031:7049   */\n      add\n        /* \"#utility.yul\":7018:7050   */\n      calldataload\n        /* \"#utility.yul\":7077:7095   */\n      0xffffffffffffffff\n        /* \"#utility.yul\":7069:7075   */\n      dup2\n        /* \"#utility.yul\":7066:7096   */\n      gt\n        /* \"#utility.yul\":7063:7180   */\n      iszero\n      tag_226\n      jumpi\n        /* \"#utility.yul\":7099:7178   */\n      tag_227\n      tag_103\n      jump\t// in\n    tag_227:\n        /* \"#utility.yul\":7063:7180   */\n    tag_226:\n        /* \"#utility.yul\":7204:7267   */\n      tag_228\n        /* \"#utility.yul\":7259:7266   */\n      dup7\n        /* \"#utility.yul\":7250:7256   */\n      dup3\n        /* \"#utility.yul\":7239:7248   */\n      dup8\n        /* \"#utility.yul\":7235:7257   */\n      add\n        /* \"#utility.yul\":7204:7267   */\n      tag_127\n      jump\t// in\n    tag_228:\n        /* \"#utility.yul\":7194:7267   */\n      swap2\n      pop\n        /* \"#utility.yul\":6989:7277   */\n      pop\n        /* \"#utility.yul\":6305:7284   */\n      swap3\n      pop\n      swap3\n      pop\n      swap3\n      jump\t// out\n        /* \"#utility.yul\":7290:7408   */\n    tag_128:\n        /* \"#utility.yul\":7377:7401   */\n      tag_230\n        /* \"#utility.yul\":7395:7400   */\n      dup2\n        /* \"#utility.yul\":7377:7401   */\n      tag_104\n      jump\t// in\n    tag_230:\n        /* \"#utility.yul\":7372:7375   */\n      dup3\n        /* \"#utility.yul\":7365:7402   */\n      mstore\n        /* \"#utility.yul\":7290:7408   */\n      pop\n      pop\n      jump\t// out\n        /* \"#utility.yul\":7414:7583   */\n    tag_129:\n        /* \"#utility.yul\":7498:7509   */\n      0x00\n        /* \"#utility.yul\":7532:7538   */\n      dup3\n        /* \"#utility.yul\":7527:7530   */\n      dup3\n        /* \"#utility.yul\":7520:7539   */\n      mstore\n        /* \"#utility.yul\":7572:7576   */\n      0x20\n        /* \"#utility.yul\":7567:7570   */\n      dup3\n        /* \"#utility.yul\":7563:7577   */\n      add\n        /* \"#utility.yul\":7548:7577   */\n      swap1\n      pop\n        /* \"#utility.yul\":7414:7583   */\n      swap3\n      swap2\n      pop\n      pop\n      jump\t// out\n        /* \"#utility.yul\":7589:7966   */\n    tag_130:\n        /* \"#utility.yul\":7677:7680   */\n      0x00\n        /* \"#utility.yul\":7705:7744   */\n      tag_233\n        /* \"#utility.yul\":7738:7743   */\n      dup3\n        /* \"#utility.yul\":7705:7744   */\n      tag_108\n      jump\t// in\n    tag_233:\n        /* \"#utility.yul\":7760:7831   */\n      tag_234\n        /* \"#utility.yul\":7824:7830   */\n      dup2\n        /* \"#utility.yul\":7819:7822   */\n      dup6\n        /* \"#utility.yul\":7760:7831   */\n      tag_129\n      jump\t// in\n    tag_234:\n        /* \"#utility.yul\":7753:7831   */\n      swap4\n      pop\n        /* \"#utility.yul\":7840:7905   */\n      tag_235\n        /* \"#utility.yul\":7898:7904   */\n      dup2\n        /* \"#utility.yul\":7893:7896   */\n      dup6\n        /* \"#utility.yul\":7886:7890   */\n      0x20\n        /* \"#utility.yul\":7879:7884   */\n      dup7\n        /* \"#utility.yul\":7875:7891   */\n      add\n        /* \"#utility.yul\":7840:7905   */\n      tag_110\n      jump\t// in\n    tag_235:\n        /* \"#utility.yul\":7930:7959   */\n      tag_236\n        /* \"#utility.yul\":7952:7958   */\n      dup2\n        /* \"#utility.yul\":7930:7959   */\n      tag_111\n      jump\t// in\n    tag_236:\n        /* \"#utility.yul\":7925:7928   */\n      dup5\n        /* \"#utility.yul\":7921:7960   */\n      add\n        /* \"#utility.yul\":7914:7960   */\n      swap2\n      pop\n        /* \"#utility.yul\":7681:7966   */\n      pop\n        /* \"#utility.yul\":7589:7966   */\n      swap3\n      swap2\n      pop\n      pop\n      jump\t// out\n        /* \"#utility.yul\":7972:8081   */\n    tag_131:\n        /* \"#utility.yul\":8053:8074   */\n      tag_238\n        /* \"#utility.yul\":8068:8073   */\n      dup2\n        /* \"#utility.yul\":8053:8074   */\n      tag_113\n      jump\t// in\n    tag_238:\n        /* \"#utility.yul\":8048:8051   */\n      dup3\n        /* \"#utility.yul\":8041:8075   */\n      mstore\n        /* \"#utility.yul\":7972:8081   */\n      pop\n      pop\n      jump\t// out\n        /* \"#utility.yul\":8087:8205   */\n    tag_132:\n        /* \"#utility.yul\":8174:8198   */\n      tag_240\n        /* \"#utility.yul\":8192:8197   */\n      dup2\n        /* \"#utility.yul\":8174:8198   */\n      tag_116\n      jump\t// in\n    tag_240:\n        /* \"#utility.yul\":8169:8172   */\n      dup3\n        /* \"#utility.yul\":8162:8199   */\n      mstore\n        /* \"#utility.yul\":8087:8205   */\n      pop\n      pop\n      jump\t// out\n        /* \"#utility.yul\":8211:9045   */\n    tag_31:\n        /* \"#utility.yul\":8450:8454   */\n      0x00\n        /* \"#utility.yul\":8488:8491   */\n      0xa0\n        /* \"#utility.yul\":8477:8486   */\n      dup3\n        /* \"#utility.yul\":8473:8492   */\n      add\n        /* \"#utility.yul\":8465:8492   */\n      swap1\n      pop\n        /* \"#utility.yul\":8502:8573   */\n      tag_242\n        /* \"#utility.yul\":8570:8571   */\n      0x00\n        /* \"#utility.yul\":8559:8568   */\n      dup4\n        /* \"#utility.yul\":8555:8572   */\n      add\n        /* \"#utility.yul\":8546:8552   */\n      dup9\n        /* \"#utility.yul\":8502:8573   */\n      tag_128\n      jump\t// in\n    tag_242:\n        /* \"#utility.yul\":8620:8629   */\n      dup2\n        /* \"#utility.yul\":8614:8618   */\n      dup2\n        /* \"#utility.yul\":8610:8630   */\n      sub\n        /* \"#utility.yul\":8605:8607   */\n      0x20\n        /* \"#utility.yul\":8594:8603   */\n      dup4\n        /* \"#utility.yul\":8590:8608   */\n      add\n        /* \"#utility.yul\":8583:8631   */\n      mstore\n        /* \"#utility.yul\":8648:8726   */\n      tag_243\n        /* \"#utility.yul\":8721:8725   */\n      dup2\n        /* \"#utility.yul\":8712:8718   */\n      dup8\n        /* \"#utility.yul\":8648:8726   */\n      tag_130\n      jump\t// in\n    tag_243:\n        /* \"#utility.yul\":8640:8726   */\n      swap1\n      pop\n        /* \"#utility.yul\":8773:8782   */\n      dup2\n        /* \"#utility.yul\":8767:8771   */\n      dup2\n        /* \"#utility.yul\":8763:8783   */\n      sub\n        /* \"#utility.yul\":8758:8760   */\n      0x40\n        /* \"#utility.yul\":8747:8756   */\n      dup4\n        /* \"#utility.yul\":8743:8761   */\n      add\n        /* \"#utility.yul\":8736:8784   */\n      mstore\n        /* \"#utility.yul\":8801:8879   */\n      tag_244\n        /* \"#utility.yul\":8874:8878   */\n      dup2\n        /* \"#utility.yul\":8865:8871   */\n      dup7\n        /* \"#utility.yul\":8801:8879   */\n      tag_130\n      jump\t// in\n    tag_244:\n        /* \"#utility.yul\":8793:8879   */\n      swap1\n      pop\n        /* \"#utility.yul\":8889:8955   */\n      tag_245\n        /* \"#utility.yul\":8951:8953   */\n      0x60\n        /* \"#utility.yul\":8940:8949   */\n      dup4\n        /* \"#utility.yul\":8936:8954   */\n      add\n        /* \"#utility.yul\":8927:8933   */\n      dup6\n        /* \"#utility.yul\":8889:8955   */\n      tag_131\n      jump\t// in\n    tag_245:\n        /* \"#utility.yul\":8965:9038   */\n      tag_246\n        /* \"#utility.yul\":9033:9036   */\n      0x80\n        /* \"#utility.yul\":9022:9031   */\n      dup4\n        /* \"#utility.yul\":9018:9037   */\n      add\n        /* \"#utility.yul\":9009:9015   */\n      dup5\n        /* \"#utility.yul\":8965:9038   */\n      tag_132\n      jump\t// in\n    tag_246:\n        /* \"#utility.yul\":8211:9045   */\n      swap7\n      swap6\n      pop\n      pop\n      pop\n      pop\n      pop\n      pop\n      jump\t// out\n        /* \"#utility.yul\":9051:9885   */\n    tag_34:\n        /* \"#utility.yul\":9139:9145   */\n      0x00\n        /* \"#utility.yul\":9147:9153   */\n      dup1\n        /* \"#utility.yul\":9196:9198   */\n      0x40\n        /* \"#utility.yul\":9184:9193   */\n      dup4\n        /* \"#utility.yul\":9175:9182   */\n      dup6\n        /* \"#utility.yul\":9171:9194   */\n      sub\n        /* \"#utility.yul\":9167:9199   */\n      slt\n        /* \"#utility.yul\":9164:9283   */\n      iszero\n      tag_248\n      jumpi\n        /* \"#utility.yul\":9202:9281   */\n      tag_249\n      tag_102\n      jump\t// in\n    tag_249:\n        /* \"#utility.yul\":9164:9283   */\n    tag_248:\n        /* \"#utility.yul\":9350:9351   */\n      0x00\n        /* \"#utility.yul\":9339:9348   */\n      dup4\n        /* \"#utility.yul\":9335:9352   */\n      add\n        /* \"#utility.yul\":9322:9353   */\n      calldataload\n        /* \"#utility.yul\":9380:9398   */\n      0xffffffffffffffff\n        /* \"#utility.yul\":9372:9378   */\n      dup2\n        /* \"#utility.yul\":9369:9399   */\n      gt\n        /* \"#utility.yul\":9366:9483   */\n      iszero\n      tag_250\n      jumpi\n        /* \"#utility.yul\":9402:9481   */\n      tag_251\n      tag_103\n      jump\t// in\n    tag_251:\n        /* \"#utility.yul\":9366:9483   */\n    tag_250:\n        /* \"#utility.yul\":9507:9570   */\n      tag_252\n        /* \"#utility.yul\":9562:9569   */\n      dup6\n        /* \"#utility.yul\":9553:9559   */\n      dup3\n        /* \"#utility.yul\":9542:9551   */\n      dup7\n        /* \"#utility.yul\":9538:9560   */\n      add\n        /* \"#utility.yul\":9507:9570   */\n      tag_127\n      jump\t// in\n    tag_252:\n        /* \"#utility.yul\":9497:9570   */\n      swap3\n      pop\n        /* \"#utility.yul\":9293:9580   */\n      pop\n        /* \"#utility.yul\":9647:9649   */\n      0x20\n        /* \"#utility.yul\":9636:9645   */\n      dup4\n        /* \"#utility.yul\":9632:9650   */\n      add\n        /* \"#utility.yul\":9619:9651   */\n      calldataload\n        /* \"#utility.yul\":9678:9696   */\n      0xffffffffffffffff\n        /* \"#utility.yul\":9670:9676   */\n      dup2\n        /* \"#utility.yul\":9667:9697   */\n      gt\n        /* \"#utility.yul\":9664:9781   */\n      iszero\n      tag_253\n      jumpi\n        /* \"#utility.yul\":9700:9779   */\n      tag_254\n      tag_103\n      jump\t// in\n    tag_254:\n        /* \"#utility.yul\":9664:9781   */\n    tag_253:\n        /* \"#utility.yul\":9805:9868   */\n      tag_255\n        /* \"#utility.yul\":9860:9867   */\n      dup6\n        /* \"#utility.yul\":9851:9857   */\n      dup3\n        /* \"#utility.yul\":9840:9849   */\n      dup7\n        /* \"#utility.yul\":9836:9858   */\n      add\n        /* \"#utility.yul\":9805:9868   */\n      tag_127\n      jump\t// in\n    tag_255:\n        /* \"#utility.yul\":9795:9868   */\n      swap2\n      pop\n        /* \"#utility.yul\":9590:9878   */\n      pop\n        /* \"#utility.yul\":9051:9885   */\n      swap3\n      pop\n      swap3\n      swap1\n      pop\n      jump\t// out\n        /* \"#utility.yul\":9891:10113   */\n    tag_39:\n        /* \"#utility.yul\":9984:9988   */\n      0x00\n        /* \"#utility.yul\":10022:10024   */\n      0x20\n        /* \"#utility.yul\":10011:10020   */\n      dup3\n        /* \"#utility.yul\":10007:10025   */\n      add\n        /* \"#utility.yul\":9999:10025   */\n      swap1\n      pop\n        /* \"#utility.yul\":10035:10106   */\n      tag_257\n        /* \"#utility.yul\":10103:10104   */\n      0x00\n        /* \"#utility.yul\":10092:10101   */\n      dup4\n        /* \"#utility.yul\":10088:10105   */\n      add\n        /* \"#utility.yul\":10079:10085   */\n      dup5\n        /* \"#utility.yul\":10035:10106   */\n      tag_128\n      jump\t// in\n    tag_257:\n        /* \"#utility.yul\":9891:10113   */\n      swap3\n      swap2\n      pop\n      pop\n      jump\t// out\n        /* \"#utility.yul\":10119:10283   */\n    tag_133:\n        /* \"#utility.yul\":10259:10275   */\n      0x4e6f74207461736b206f776e6572000000000000000000000000000000000000\n        /* \"#utility.yul\":10255:10256   */\n      0x00\n        /* \"#utility.yul\":10247:10253   */\n      dup3\n        /* \"#utility.yul\":10243:10257   */\n      add\n        /* \"#utility.yul\":10236:10276   */\n      mstore\n        /* \"#utility.yul\":10119:10283   */\n      pop\n      jump\t// out\n        /* \"#utility.yul\":10289:10655   */\n    tag_134:\n        /* \"#utility.yul\":10431:10434   */\n      0x00\n        /* \"#utility.yul\":10452:10519   */\n      tag_260\n        /* \"#utility.yul\":10516:10518   */\n      0x0e\n        /* \"#utility.yul\":10511:10514   */\n      dup4\n        /* \"#utility.yul\":10452:10519   */\n      tag_129\n      jump\t// in\n    tag_260:\n        /* \"#utility.yul\":10445:10519   */\n      swap2\n      pop\n        /* \"#utility.yul\":10528:10621   */\n      tag_261\n        /* \"#utility.yul\":10617:10620   */\n      dup3\n        /* \"#utility.yul\":10528:10621   */\n      tag_133\n      jump\t// in\n    tag_261:\n        /* \"#utility.yul\":10646:10648   */\n      0x20\n        /* \"#utility.yul\":10641:10644   */\n      dup3\n        /* \"#utility.yul\":10637:10649   */\n      add\n        /* \"#utility.yul\":10630:10649   */\n      swap1\n      pop\n        /* \"#utility.yul\":10289:10655   */\n      swap2\n      swap1\n      pop\n      jump\t// out\n        /* \"#utility.yul\":10661:11080   */\n    tag_43:\n        /* \"#utility.yul\":10827:10831   */\n      0x00\n        /* \"#utility.yul\":10865:10867   */\n      0x20\n        /* \"#utility.yul\":10854:10863   */\n      dup3\n        /* \"#utility.yul\":10850:10868   */\n      add\n        /* \"#utility.yul\":10842:10868   */\n      swap1\n      pop\n        /* \"#utility.yul\":10914:10923   */\n      dup2\n        /* \"#utility.yul\":10908:10912   */\n      dup2\n        /* \"#utility.yul\":10904:10924   */\n      sub\n        /* \"#utility.yul\":10900:10901   */\n      0x00\n        /* \"#utility.yul\":10889:10898   */\n      dup4\n        /* \"#utility.yul\":10885:10902   */\n      add\n        /* \"#utility.yul\":10878:10925   */\n      mstore\n        /* \"#utility.yul\":10942:11073   */\n      tag_263\n        /* \"#utility.yul\":11068:11072   */\n      dup2\n        /* \"#utility.yul\":10942:11073   */\n      tag_134\n      jump\t// in\n    tag_263:\n        /* \"#utility.yul\":10934:11073   */\n      swap1\n      pop\n        /* \"#utility.yul\":10661:11080   */\n      swap2\n      swap1\n      pop\n      jump\t// out\n        /* \"#utility.yul\":11086:11266   */\n    tag_135:\n        /* \"#utility.yul\":11134:11211   */\n      0x4e487b7100000000000000000000000000000000000000000000000000000000\n        /* \"#utility.yul\":11131:11132   */\n      0x00\n        /* \"#utility.yul\":11124:11212   */\n      mstore\n        /* \"#utility.yul\":11231:11235   */\n      0x22\n        /* \"#utility.yul\":11228:11229   */\n      0x04\n        /* \"#utility.yul\":11221:11236   */\n      mstore\n        /* \"#utility.yul\":11255:11259   */\n      0x24\n        /* \"#utility.yul\":11252:11253   */\n      0x00\n        /* \"#utility.yul\":11245:11260   */\n      revert\n        /* \"#utility.yul\":11272:11592   */\n    tag_51:\n        /* \"#utility.yul\":11316:11322   */\n      0x00\n        /* \"#utility.yul\":11353:11354   */\n      0x02\n        /* \"#utility.yul\":11347:11351   */\n      dup3\n        /* \"#utility.yul\":11343:11355   */\n      div\n        /* \"#utility.yul\":11333:11355   */\n      swap1\n      pop\n        /* \"#utility.yul\":11400:11401   */\n      0x01\n        /* \"#utility.yul\":11394:11398   */\n      dup3\n        /* \"#utility.yul\":11390:11402   */\n      and\n        /* \"#utility.yul\":11421:11439   */\n      dup1\n        /* \"#utility.yul\":11411:11492   */\n      tag_266\n      jumpi\n        /* \"#utility.yul\":11477:11481   */\n      0x7f\n        /* \"#utility.yul\":11469:11475   */\n      dup3\n        /* \"#utility.yul\":11465:11482   */\n      and\n        /* \"#utility.yul\":11455:11482   */\n      swap2\n      pop\n        /* \"#utility.yul\":11411:11492   */\n    tag_266:\n        /* \"#utility.yul\":11539:11541   */\n      0x20\n        /* \"#utility.yul\":11531:11537   */\n      dup3\n        /* \"#utility.yul\":11528:11542   */\n      lt\n        /* \"#utility.yul\":11508:11526   */\n      dup2\n        /* \"#utility.yul\":11505:11543   */\n      sub\n        /* \"#utility.yul\":11502:11586   */\n      tag_267\n      jumpi\n        /* \"#utility.yul\":11558:11576   */\n      tag_268\n      tag_135\n      jump\t// in\n    tag_268:\n        /* \"#utility.yul\":11502:11586   */\n    tag_267:\n        /* \"#utility.yul\":11323:11592   */\n      pop\n        /* \"#utility.yul\":11272:11592   */\n      swap2\n      swap1\n      pop\n      jump\t// out\n        /* \"#utility.yul\":11598:11739   */\n    tag_136:\n        /* \"#utility.yul\":11647:11651   */\n      0x00\n        /* \"#utility.yul\":11670:11673   */\n      dup2\n        /* \"#utility.yul\":11662:11673   */\n      swap1\n      pop\n        /* \"#utility.yul\":11693:11696   */\n      dup2\n        /* \"#utility.yul\":11690:11691   */\n      0x00\n        /* \"#utility.yul\":11683:11697   */\n      mstore\n        /* \"#utility.yul\":11727:11731   */\n      0x20\n        /* \"#utility.yul\":11724:11725   */\n      0x00\n        /* \"#utility.yul\":11714:11732   */\n      keccak256\n        /* \"#utility.yul\":11706:11732   */\n      swap1\n      pop\n        /* \"#utility.yul\":11598:11739   */\n      swap2\n      swap1\n      pop\n      jump\t// out\n        /* \"#utility.yul\":11769:12600   */\n    tag_137:\n        /* \"#utility.yul\":11854:11857   */\n      0x00\n        /* \"#utility.yul\":11891:11896   */\n      dup2\n        /* \"#utility.yul\":11885:11897   */\n      sload\n        /* \"#utility.yul\":11920:11956   */\n      tag_271\n        /* \"#utility.yul\":11946:11955   */\n      dup2\n        /* \"#utility.yul\":11920:11956   */\n      tag_51\n      jump\t// in\n    tag_271:\n        /* \"#utility.yul\":11972:12043   */\n      tag_272\n        /* \"#utility.yul\":12036:12042   */\n      dup2\n        /* \"#utility.yul\":12031:12034   */\n      dup7\n        /* \"#utility.yul\":11972:12043   */\n      tag_129\n      jump\t// in\n    tag_272:\n        /* \"#utility.yul\":11965:12043   */\n      swap5\n      pop\n        /* \"#utility.yul\":12074:12075   */\n      0x01\n        /* \"#utility.yul\":12063:12072   */\n      dup3\n        /* \"#utility.yul\":12059:12076   */\n      and\n        /* \"#utility.yul\":12090:12091   */\n      0x00\n        /* \"#utility.yul\":12085:12249   */\n      dup2\n      eq\n      tag_274\n      jumpi\n        /* \"#utility.yul\":12263:12264   */\n      0x01\n        /* \"#utility.yul\":12258:12594   */\n      dup2\n      eq\n      tag_275\n      jumpi\n        /* \"#utility.yul\":12052:12594   */\n      jump(tag_273)\n        /* \"#utility.yul\":12085:12249   */\n    tag_274:\n        /* \"#utility.yul\":12169:12173   */\n      0xff\n        /* \"#utility.yul\":12165:12174   */\n      not\n        /* \"#utility.yul\":12154:12163   */\n      dup4\n        /* \"#utility.yul\":12150:12175   */\n      and\n        /* \"#utility.yul\":12145:12148   */\n      dup7\n        /* \"#utility.yul\":12138:12176   */\n      mstore\n        /* \"#utility.yul\":12229:12235   */\n      dup2\n        /* \"#utility.yul\":12222:12236   */\n      iszero\n        /* \"#utility.yul\":12215:12237   */\n      iszero\n        /* \"#utility.yul\":12209:12213   */\n      0x20\n        /* \"#utility.yul\":12205:12238   */\n      mul\n        /* \"#utility.yul\":12200:12203   */\n      dup7\n        /* \"#utility.yul\":12196:12239   */\n      add\n        /* \"#utility.yul\":12189:12239   */\n      swap4\n      pop\n        /* \"#utility.yul\":12085:12249   */\n      jump(tag_273)\n        /* \"#utility.yul\":12258:12594   */\n    tag_275:\n        /* \"#utility.yul\":12325:12363   */\n      tag_276\n        /* \"#utility.yul\":12357:12362   */\n      dup6\n        /* \"#utility.yul\":12325:12363   */\n      tag_136\n      jump\t// in\n    tag_276:\n        /* \"#utility.yul\":12385:12386   */\n      0x00\n        /* \"#utility.yul\":12399:12553   */\n    tag_277:\n        /* \"#utility.yul\":12413:12419   */\n      dup4\n        /* \"#utility.yul\":12410:12411   */\n      dup2\n        /* \"#utility.yul\":12407:12420   */\n      lt\n        /* \"#utility.yul\":12399:12553   */\n      iszero\n      tag_279\n      jumpi\n        /* \"#utility.yul\":12487:12494   */\n      dup2\n        /* \"#utility.yul\":12481:12495   */\n      sload\n        /* \"#utility.yul\":12477:12478   */\n      dup2\n        /* \"#utility.yul\":12472:12475   */\n      dup10\n        /* \"#utility.yul\":12468:12479   */\n      add\n        /* \"#utility.yul\":12461:12496   */\n      mstore\n        /* \"#utility.yul\":12537:12538   */\n      0x01\n        /* \"#utility.yul\":12528:12535   */\n      dup3\n        /* \"#utility.yul\":12524:12539   */\n      add\n        /* \"#utility.yul\":12513:12539   */\n      swap2\n      pop\n        /* \"#utility.yul\":12435:12439   */\n      0x20\n        /* \"#utility.yul\":12432:12433   */\n      dup2\n        /* \"#utility.yul\":12428:12440   */\n      add\n        /* \"#utility.yul\":12423:12440   */\n      swap1\n      pop\n        /* \"#utility.yul\":12399:12553   */\n      jump(tag_277)\n    tag_279:\n        /* \"#utility.yul\":12582:12583   */\n      dup1\n        /* \"#utility.yul\":12577:12580   */\n      dup9\n        /* \"#utility.yul\":12573:12584   */\n      add\n        /* \"#utility.yul\":12566:12584   */\n      swap6\n      pop\n        /* \"#utility.yul\":12265:12594   */\n      pop\n      pop\n        /* \"#utility.yul\":12052:12594   */\n    tag_273:\n      pop\n        /* \"#utility.yul\":11858:12600   */\n      pop\n      pop\n        /* \"#utility.yul\":11769:12600   */\n      swap3\n      swap2\n      pop\n      pop\n      jump\t// out\n        /* \"#utility.yul\":12606:13011   */\n    tag_46:\n        /* \"#utility.yul\":12738:12742   */\n      0x00\n        /* \"#utility.yul\":12776:12778   */\n      0x40\n        /* \"#utility.yul\":12765:12774   */\n      dup3\n        /* \"#utility.yul\":12761:12779   */\n      add\n        /* \"#utility.yul\":12753:12779   */\n      swap1\n      pop\n        /* \"#utility.yul\":12825:12834   */\n      dup2\n        /* \"#utility.yul\":12819:12823   */\n      dup2\n        /* \"#utility.yul\":12815:12835   */\n      sub\n        /* \"#utility.yul\":12811:12812   */\n      0x00\n        /* \"#utility.yul\":12800:12809   */\n      dup4\n        /* \"#utility.yul\":12796:12813   */\n      add\n        /* \"#utility.yul\":12789:12836   */\n      mstore\n        /* \"#utility.yul\":12853:12928   */\n      tag_281\n        /* \"#utility.yul\":12923:12927   */\n      dup2\n        /* \"#utility.yul\":12914:12920   */\n      dup6\n        /* \"#utility.yul\":12853:12928   */\n      tag_137\n      jump\t// in\n    tag_281:\n        /* \"#utility.yul\":12845:12928   */\n      swap1\n      pop\n        /* \"#utility.yul\":12938:13004   */\n      tag_282\n        /* \"#utility.yul\":13000:13002   */\n      0x20\n        /* \"#utility.yul\":12989:12998   */\n      dup4\n        /* \"#utility.yul\":12985:13003   */\n      add\n        /* \"#utility.yul\":12976:12982   */\n      dup5\n        /* \"#utility.yul\":12938:13004   */\n      tag_131\n      jump\t// in\n    tag_282:\n        /* \"#utility.yul\":12606:13011   */\n      swap4\n      swap3\n      pop\n      pop\n      pop\n      jump\t// out\n        /* \"#utility.yul\":13017:13110   */\n    tag_138:\n        /* \"#utility.yul\":13054:13060   */\n      0x00\n        /* \"#utility.yul\":13101:13103   */\n      0x20\n        /* \"#utility.yul\":13096:13098   */\n      0x1f\n        /* \"#utility.yul\":13089:13094   */\n      dup4\n        /* \"#utility.yul\":13085:13099   */\n      add\n        /* \"#utility.yul\":13081:13104   */\n      div\n        /* \"#utility.yul\":13071:13104   */\n      swap1\n      pop\n        /* \"#utility.yul\":13017:13110   */\n      swap2\n      swap1\n      pop\n      jump\t// out\n        /* \"#utility.yul\":13116:13223   */\n    tag_139:\n        /* \"#utility.yul\":13160:13168   */\n      0x00\n        /* \"#utility.yul\":13210:13215   */\n      dup3\n        /* \"#utility.yul\":13204:13208   */\n      dup3\n        /* \"#utility.yul\":13200:13216   */\n      shl\n        /* \"#utility.yul\":13179:13216   */\n      swap1\n      pop\n        /* \"#utility.yul\":13116:13223   */\n      swap3\n      swap2\n      pop\n      pop\n      jump\t// out\n        /* \"#utility.yul\":13229:13622   */\n    tag_140:\n        /* \"#utility.yul\":13298:13304   */\n      0x00\n        /* \"#utility.yul\":13348:13349   */\n      0x08\n        /* \"#utility.yul\":13336:13346   */\n      dup4\n        /* \"#utility.yul\":13332:13350   */\n      mul\n        /* \"#utility.yul\":13371:13468   */\n      tag_286\n        /* \"#utility.yul\":13401:13467   */\n      0xffffffffffffffffffffffffffffffffffffffffffffffffffffffffffffffff\n        /* \"#utility.yul\":13390:13399   */\n      dup3\n        /* \"#utility.yul\":13371:13468   */\n      tag_139\n      jump\t// in\n    tag_286:\n        /* \"#utility.yul\":13489:13528   */\n      tag_287\n        /* \"#utility.yul\":13519:13527   */\n      dup7\n        /* \"#utility.yul\":13508:13517   */\n      dup4\n        /* \"#utility.yul\":13489:13528   */\n      tag_139\n      jump\t// in\n    tag_287:\n        /* \"#utility.yul\":13477:13528   */\n      swap6\n      pop\n        /* \"#utility.yul\":13561:13565   */\n      dup1\n        /* \"#utility.yul\":13557:13566   */\n      not\n        /* \"#utility.yul\":13550:13555   */\n      dup5\n        /* \"#utility.yul\":13546:13567   */\n      and\n        /* \"#utility.yul\":13537:13567   */\n      swap4\n      pop\n        /* \"#utility.yul\":13610:13614   */\n      dup1\n        /* \"#utility.yul\":13600:13608   */\n      dup7\n        /* \"#utility.yul\":13596:13615   */\n      and\n        /* \"#utility.yul\":13589:13594   */\n      dup5\n        /* \"#utility.yul\":13586:13616   */\n      or\n        /* \"#utility.yul\":13576:13616   */\n      swap3\n      pop\n        /* \"#utility.yul\":13305:13622   */\n      pop\n      pop\n        /* \"#utility.yul\":13229:13622   */\n      swap4\n      swap3\n      pop\n      pop\n      pop\n      jump\t// out\n        /* \"#utility.yul\":13628:13688   */\n    tag_141:\n        /* \"#utility.yul\":13656:13659   */\n      0x00\n        /* \"#utility.yul\":13677:13682   */\n      dup2\n        /* \"#utility.yul\":13670:13682   */\n      swap1\n      pop\n        /* \"#utility.yul\":13628:13688   */\n      swap2\n      swap1\n      pop\n      jump\t// out\n        /* \"#utility.yul\":13694:13836   */\n    tag_142:\n        /* \"#utility.yul\":13744:13753   */\n      0x00\n        /* \"#utility.yul\":13777:13830   */\n      tag_290\n        /* \"#utility.yul\":13795:13829   */\n      tag_291\n        /* \"#utility.yul\":13804:13828   */\n      tag_292\n        /* \"#utility.yul\":13822:13827   */\n      dup5\n        /* \"#utility.yul\":13804:13828   */\n      tag_104\n      jump\t// in\n    tag_292:\n        /* \"#utility.yul\":13795:13829   */\n      tag_141\n      jump\t// in\n    tag_291:\n        /* \"#utility.yul\":13777:13830   */\n      tag_104\n      jump\t// in\n    tag_290:\n        /* \"#utility.yul\":13764:13830   */\n      swap1\n      pop\n        /* \"#utility.yul\":13694:13836   */\n      swap2\n      swap1\n      pop\n      jump\t// out\n        /* \"#utility.yul\":13842:13917   */\n    tag_143:\n        /* \"#utility.yul\":13885:13888   */\n      0x00\n        /* \"#utility.yul\":13906:13911   */\n      dup2\n        /* \"#utility.yul\":13899:13911   */\n      swap1\n      pop\n        /* \"#utility.yul\":13842:13917   */\n      swap2\n      swap1\n      pop\n      jump\t// out\n        /* \"#utility.yul\":13923:14192   */\n    tag_144:\n        /* \"#utility.yul\":14033:14072   */\n      tag_295\n        /* \"#utility.yul\":14064:14071   */\n      dup4\n        /* \"#utility.yul\":14033:14072   */\n      tag_142\n      jump\t// in\n    tag_295:\n        /* \"#utility.yul\":14094:14185   */\n      tag_296\n        /* \"#utility.yul\":14143:14184   */\n      tag_297\n        /* \"#utility.yul\":14167:14183   */\n      dup3\n        /* \"#utility.yul\":14143:14184   */\n      tag_143\n      jump\t// in\n    tag_297:\n        /* \"#utility.yul\":14135:14141   */\n      dup5\n        /* \"#utility.yul\":14128:14132   */\n      dup5\n        /* \"#utility.yul\":14122:14133   */\n      sload\n        /* \"#utility.yul\":14094:14185   */\n      tag_140\n      jump\t// in\n    tag_296:\n        /* \"#utility.yul\":14088:14092   */\n      dup3\n        /* \"#utility.yul\":14081:14186   */\n      sstore\n        /* \"#utility.yul\":13999:14192   */\n      pop\n        /* \"#utility.yul\":13923:14192   */\n      pop\n      pop\n      pop\n      jump\t// out\n        /* \"#utility.yul\":14198:14271   */\n    tag_145:\n        /* \"#utility.yul\":14243:14246   */\n      0x00\n        /* \"#utility.yul\":14198:14271   */\n      swap1\n      jump\t// out\n        /* \"#utility.yul\":14277:14466   */\n    tag_146:\n        /* \"#utility.yul\":14354:14386   */\n      tag_300\n      tag_145\n      jump\t// in\n    tag_300:\n        /* \"#utility.yul\":14395:14460   */\n      tag_301\n        /* \"#utility.yul\":14453:14459   */\n      dup2\n        /* \"#utility.yul\":14445:14451   */\n      dup5\n        /* \"#utility.yul\":14439:14443   */\n      dup5\n        /* \"#utility.yul\":14395:14460   */\n      tag_144\n      jump\t// in\n    tag_301:\n        /* \"#utility.yul\":14330:14466   */\n      pop\n        /* \"#utility.yul\":14277:14466   */\n      pop\n      pop\n      jump\t// out\n        /* \"#utility.yul\":14472:14658   */\n    tag_147:\n        /* \"#utility.yul\":14532:14652   */\n    tag_303:\n        /* \"#utility.yul\":14549:14552   */\n      dup2\n        /* \"#utility.yul\":14542:14547   */\n      dup2\n        /* \"#utility.yul\":14539:14553   */\n      lt\n        /* \"#utility.yul\":14532:14652   */\n      iszero\n      tag_305\n      jumpi\n        /* \"#utility.yul\":14603:14642   */\n      tag_306\n        /* \"#utility.yul\":14640:14641   */\n      0x00\n        /* \"#utility.yul\":14633:14638   */\n      dup3\n        /* \"#utility.yul\":14603:14642   */\n      tag_146\n      jump\t// in\n    tag_306:\n        /* \"#utility.yul\":14576:14577   */\n      0x01\n        /* \"#utility.yul\":14569:14574   */\n      dup2\n        /* \"#utility.yul\":14565:14578   */\n      add\n        /* \"#utility.yul\":14556:14578   */\n      swap1\n      pop\n        /* \"#utility.yul\":14532:14652   */\n      jump(tag_303)\n    tag_305:\n        /* \"#utility.yul\":14472:14658   */\n      pop\n      pop\n      jump\t// out\n        /* \"#utility.yul\":14664:15207   */\n    tag_148:\n        /* \"#utility.yul\":14765:14767   */\n      0x1f\n        /* \"#utility.yul\":14760:14763   */\n      dup3\n        /* \"#utility.yul\":14757:14768   */\n      gt\n        /* \"#utility.yul\":14754:15200   */\n      iszero\n      tag_308\n      jumpi\n        /* \"#utility.yul\":14799:14837   */\n      tag_309\n        /* \"#utility.yul\":14831:14836   */\n      dup2\n        /* \"#utility.yul\":14799:14837   */\n      tag_136\n      jump\t// in\n    tag_309:\n        /* \"#utility.yul\":14883:14912   */\n      tag_310\n        /* \"#utility.yul\":14901:14911   */\n      dup5\n        /* \"#utility.yul\":14883:14912   */\n      tag_138\n      jump\t// in\n    tag_310:\n        /* \"#utility.yul\":14873:14881   */\n      dup2\n        /* \"#utility.yul\":14869:14913   */\n      add\n        /* \"#utility.yul\":15066:15068   */\n      0x20\n        /* \"#utility.yul\":15054:15064   */\n      dup6\n        /* \"#utility.yul\":15051:15069   */\n      lt\n        /* \"#utility.yul\":15048:15097   */\n      iszero\n      tag_311\n      jumpi\n        /* \"#utility.yul\":15087:15095   */\n      dup2\n        /* \"#utility.yul\":15072:15095   */\n      swap1\n      pop\n        /* \"#utility.yul\":15048:15097   */\n    tag_311:\n        /* \"#utility.yul\":15110:15190   */\n      tag_312\n        /* \"#utility.yul\":15166:15188   */\n      tag_313\n        /* \"#utility.yul\":15184:15187   */\n      dup6\n        /* \"#utility.yul\":15166:15188   */\n      tag_138\n      jump\t// in\n    tag_313:\n        /* \"#utility.yul\":15156:15164   */\n      dup4\n        /* \"#utility.yul\":15152:15189   */\n      add\n        /* \"#utility.yul\":15139:15150   */\n      dup3\n        /* \"#utility.yul\":15110:15190   */\n      tag_147\n      jump\t// in\n    tag_312:\n        /* \"#utility.yul\":14769:15200   */\n      pop\n      pop\n        /* \"#utility.yul\":14754:15200   */\n    tag_308:\n        /* \"#utility.yul\":14664:15207   */\n      pop\n      pop\n      pop\n      jump\t// out\n        /* \"#utility.yul\":15213:15330   */\n    tag_149:\n        /* \"#utility.yul\":15267:15275   */\n      0x00\n        /* \"#utility.yul\":15317:15322   */\n      dup3\n        /* \"#utility.yul\":15311:15315   */\n      dup3\n        /* \"#utility.yul\":15307:15323   */\n      shr\n        /* \"#utility.yul\":15286:15323   */\n      swap1\n      pop\n        /* \"#utility.yul\":15213:15330   */\n      swap3\n      swap2\n      pop\n      pop\n      jump\t// out\n        /* \"#utility.yul\":15336:15505   */\n    tag_150:\n        /* \"#utility.yul\":15380:15386   */\n      0x00\n        /* \"#utility.yul\":15413:15464   */\n      tag_316\n        /* \"#utility.yul\":15461:15462   */\n      0x00\n        /* \"#utility.yul\":15457:15463   */\n      not\n        /* \"#utility.yul\":15449:15454   */\n      dup5\n        /* \"#utility.yul\":15446:15447   */\n      0x08\n        /* \"#utility.yul\":15442:15455   */\n      mul\n        /* \"#utility.yul\":15413:15464   */\n      tag_149\n      jump\t// in\n    tag_316:\n        /* \"#utility.yul\":15409:15465   */\n      not\n        /* \"#utility.yul\":15494:15498   */\n      dup1\n        /* \"#utility.yul\":15488:15492   */\n      dup4\n        /* \"#utility.yul\":15484:15499   */\n      and\n        /* \"#utility.yul\":15474:15499   */\n      swap2\n      pop\n        /* \"#utility.yul\":15387:15505   */\n      pop\n        /* \"#utility.yul\":15336:15505   */\n      swap3\n      swap2\n      pop\n      pop\n      jump\t// out\n        /* \"#utility.yul\":15510:15805   */\n    tag_151:\n        /* \"#utility.yul\":15586:15590   */\n      0x00\n        /* \"#utility.yul\":15732:15761   */\n      tag_318\n        /* \"#utility.yul\":15757:15760   */\n      dup4\n        /* \"#utility.yul\":15751:15755   */\n      dup4\n        /* \"#utility.yul\":15732:15761   */\n      tag_150\n      jump\t// in\n    tag_318:\n        /* \"#utility.yul\":15724:15761   */\n      swap2\n      pop\n        /* \"#utility.yul\":15794:15797   */\n      dup3\n        /* \"#utility.yul\":15791:15792   */\n      0x02\n        /* \"#utility.yul\":15787:15798   */\n      mul\n        /* \"#utility.yul\":15781:15785   */\n      dup3\n        /* \"#utility.yul\":15778:15799   */\n      or\n        /* \"#utility.yul\":15770:15799   */\n      swap1\n      pop\n        /* \"#utility.yul\":15510:15805   */\n      swap3\n      swap2\n      pop\n      pop\n      jump\t// out\n        /* \"#utility.yul\":15810:17205   */\n    tag_66:\n        /* \"#utility.yul\":15927:15964   */\n      tag_320\n        /* \"#utility.yul\":15960:15963   */\n      dup3\n        /* \"#utility.yul\":15927:15964   */\n      tag_108\n      jump\t// in\n    tag_320:\n        /* \"#utility.yul\":16029:16047   */\n      0xffffffffffffffff\n        /* \"#utility.yul\":16021:16027   */\n      dup2\n        /* \"#utility.yul\":16018:16048   */\n      gt\n        /* \"#utility.yul\":16015:16071   */\n      iszero\n      tag_321\n      jumpi\n        /* \"#utility.yul\":16051:16069   */\n      tag_322\n      tag_121\n      jump\t// in\n    tag_322:\n        /* \"#utility.yul\":16015:16071   */\n    tag_321:\n        /* \"#utility.yul\":16095:16133   */\n      tag_323\n        /* \"#utility.yul\":16127:16131   */\n      dup3\n        /* \"#utility.yul\":16121:16132   */\n      sload\n        /* \"#utility.yul\":16095:16133   */\n      tag_51\n      jump\t// in\n    tag_323:\n        /* \"#utility.yul\":16180:16247   */\n      tag_324\n        /* \"#utility.yul\":16240:16246   */\n      dup3\n        /* \"#utility.yul\":16232:16238   */\n      dup3\n        /* \"#utility.yul\":16226:16230   */\n      dup6\n        /* \"#utility.yul\":16180:16247   */\n      tag_148\n      jump\t// in\n    tag_324:\n        /* \"#utility.yul\":16274:16275   */\n      0x00\n        /* \"#utility.yul\":16298:16302   */\n      0x20\n        /* \"#utility.yul\":16285:16302   */\n      swap1\n      pop\n        /* \"#utility.yul\":16330:16332   */\n      0x1f\n        /* \"#utility.yul\":16322:16328   */\n      dup4\n        /* \"#utility.yul\":16319:16333   */\n      gt\n        /* \"#utility.yul\":16347:16348   */\n      0x01\n        /* \"#utility.yul\":16342:16960   */\n      dup2\n      eq\n      tag_326\n      jumpi\n        /* \"#utility.yul\":17004:17005   */\n      0x00\n        /* \"#utility.yul\":17021:17027   */\n      dup5\n        /* \"#utility.yul\":17018:17095   */\n      iszero\n      tag_327\n      jumpi\n        /* \"#utility.yul\":17070:17079   */\n      dup3\n        /* \"#utility.yul\":17065:17068   */\n      dup8\n        /* \"#utility.yul\":17061:17080   */\n      add\n        /* \"#utility.yul\":17055:17081   */\n      mload\n        /* \"#utility.yul\":17046:17081   */\n      swap1\n      pop\n        /* \"#utility.yul\":17018:17095   */\n    tag_327:\n        /* \"#utility.yul\":17121:17188   */\n      tag_328\n        /* \"#utility.yul\":17181:17187   */\n      dup6\n        /* \"#utility.yul\":17174:17179   */\n      dup3\n        /* \"#utility.yul\":17121:17188   */\n      tag_151\n      jump\t// in\n    tag_328:\n        /* \"#utility.yul\":17115:17119   */\n      dup7\n        /* \"#utility.yul\":17108:17189   */\n      sstore\n        /* \"#utility.yul\":16977:17199   */\n      pop\n        /* \"#utility.yul\":16312:17199   */\n      jump(tag_325)\n        /* \"#utility.yul\":16342:16960   */\n    tag_326:\n        /* \"#utility.yul\":16394:16398   */\n      0x1f\n        /* \"#utility.yul\":16390:16399   */\n      not\n        /* \"#utility.yul\":16382:16388   */\n      dup5\n        /* \"#utility.yul\":16378:16400   */\n      and\n        /* \"#utility.yul\":16428:16465   */\n      tag_329\n        /* \"#utility.yul\":16460:16464   */\n      dup7\n        /* \"#utility.yul\":16428:16465   */\n      tag_136\n      jump\t// in\n    tag_329:\n        /* \"#utility.yul\":16487:16488   */\n      0x00\n        /* \"#utility.yul\":16501:16709   */\n    tag_330:\n        /* \"#utility.yul\":16515:16522   */\n      dup3\n        /* \"#utility.yul\":16512:16513   */\n      dup2\n        /* \"#utility.yul\":16509:16523   */\n      lt\n        /* \"#utility.yul\":16501:16709   */\n      iszero\n      tag_332\n      jumpi\n        /* \"#utility.yul\":16594:16603   */\n      dup5\n        /* \"#utility.yul\":16589:16592   */\n      dup10\n        /* \"#utility.yul\":16585:16604   */\n      add\n        /* \"#utility.yul\":16579:16605   */\n      mload\n        /* \"#utility.yul\":16571:16577   */\n      dup3\n        /* \"#utility.yul\":16564:16606   */\n      sstore\n        /* \"#utility.yul\":16645:16646   */\n      0x01\n        /* \"#utility.yul\":16637:16643   */\n      dup3\n        /* \"#utility.yul\":16633:16647   */\n      add\n        /* \"#utility.yul\":16623:16647   */\n      swap2\n      pop\n        /* \"#utility.yul\":16692:16694   */\n      0x20\n        /* \"#utility.yul\":16681:16690   */\n      dup6\n        /* \"#utility.yul\":16677:16695   */\n      add\n        /* \"#utility.yul\":16664:16695   */\n      swap5\n      pop\n        /* \"#utility.yul\":16538:16542   */\n      0x20\n        /* \"#utility.yul\":16535:16536   */\n      dup2\n        /* \"#utility.yul\":16531:16543   */\n      add\n        /* \"#utility.yul\":16526:16543   */\n      swap1\n      pop\n        /* \"#utility.yul\":16501:16709   */\n      jump(tag_330)\n    tag_332:\n        /* \"#utility.yul\":16737:16743   */\n      dup7\n        /* \"#utility.yul\":16728:16735   */\n      dup4\n        /* \"#utility.yul\":16725:16744   */\n      lt\n        /* \"#utility.yul\":16722:16901   */\n      iszero\n      tag_333\n      jumpi\n        /* \"#utility.yul\":16795:16804   */\n      dup5\n        /* \"#utility.yul\":16790:16793   */\n      dup10\n        /* \"#utility.yul\":16786:16805   */\n      add\n        /* \"#utility.yul\":16780:16806   */\n      mload\n        /* \"#utility.yul\":16838:16886   */\n      tag_334\n        /* \"#utility.yul\":16880:16884   */\n      0x1f\n        /* \"#utility.yul\":16872:16878   */\n      dup10\n        /* \"#utility.yul\":16868:16885   */\n      and\n        /* \"#utility.yul\":16857:16866   */\n      dup3\n        /* \"#utility.yul\":16838:16886   */\n      tag_150\n      jump\t// in\n    tag_334:\n        /* \"#utility.yul\":16830:16836   */\n      dup4\n        /* \"#utility.yul\":16823:16887   */\n      sstore\n        /* \"#utility.yul\":16745:16901   */\n      pop\n        /* \"#utility.yul\":16722:16901   */\n    tag_333:\n        /* \"#utility.yul\":16947:16948   */\n      0x01\n        /* \"#utility.yul\":16943:16944   */\n      0x02\n        /* \"#utility.yul\":16935:16941   */\n      dup9\n        /* \"#utility.yul\":16931:16945   */\n      mul\n        /* \"#utility.yul\":16927:16949   */\n      add\n        /* \"#utility.yul\":16921:16925   */\n      dup9\n        /* \"#utility.yul\":16914:16950   */\n      sstore\n        /* \"#utility.yul\":16349:16960   */\n      pop\n      pop\n      pop\n        /* \"#utility.yul\":16312:17199   */\n    tag_325:\n      pop\n        /* \"#utility.yul\":15902:17205   */\n      pop\n      pop\n      pop\n        /* \"#utility.yul\":15810:17205   */\n      pop\n      pop\n      jump\t// out\n        /* \"#utility.yul\":17211:17622   */\n    tag_69:\n        /* \"#utility.yul\":17346:17350   */\n      0x00\n        /* \"#utility.yul\":17384:17386   */\n      0x40\n        /* \"#utility.yul\":17373:17382   */\n      dup3\n        /* \"#utility.yul\":17369:17387   */\n      add\n        /* \"#utility.yul\":17361:17387   */\n      swap1\n      pop\n        /* \"#utility.yul\":17433:17442   */\n      dup2\n        /* \"#utility.yul\":17427:17431   */\n      dup2\n        /* \"#utility.yul\":17423:17443   */\n      sub\n        /* \"#utility.yul\":17419:17420   */\n      0x00\n        /* \"#utility.yul\":17408:17417   */\n      dup4\n        /* \"#utility.yul\":17404:17421   */\n      add\n        /* \"#utility.yul\":17397:17444   */\n      mstore\n        /* \"#utility.yul\":17461:17539   */\n      tag_336\n        /* \"#utility.yul\":17534:17538   */\n      dup2\n        /* \"#utility.yul\":17525:17531   */\n      dup6\n        /* \"#utility.yul\":17461:17539   */\n      tag_130\n      jump\t// in\n    tag_336:\n        /* \"#utility.yul\":17453:17539   */\n      swap1\n      pop\n        /* \"#utility.yul\":17549:17615   */\n      tag_337\n        /* \"#utility.yul\":17611:17613   */\n      0x20\n        /* \"#utility.yul\":17600:17609   */\n      dup4\n        /* \"#utility.yul\":17596:17614   */\n      add\n        /* \"#utility.yul\":17587:17593   */\n      dup5\n        /* \"#utility.yul\":17549:17615   */\n      tag_131\n      jump\t// in\n    tag_337:\n        /* \"#utility.yul\":17211:17622   */\n      swap4\n      swap3\n      pop\n      pop\n      pop\n      jump\t// out\n        /* \"#utility.yul\":17628:18051   */\n    tag_91:\n        /* \"#utility.yul\":17769:17773   */\n      0x00\n        /* \"#utility.yul\":17807:17809   */\n      0x40\n        /* \"#utility.yul\":17796:17805   */\n      dup3\n        /* \"#utility.yul\":17792:17810   */\n      add\n        /* \"#utility.yul\":17784:17810   */\n      swap1\n      pop\n        /* \"#utility.yul\":17856:17865   */\n      dup2\n        /* \"#utility.yul\":17850:17854   */\n      dup2\n        /* \"#utility.yul\":17846:17866   */\n      sub\n        /* \"#utility.yul\":17842:17843   */\n      0x00\n        /* \"#utility.yul\":17831:17840   */\n      dup4\n        /* \"#utility.yul\":17827:17844   */\n      add\n        /* \"#utility.yul\":17820:17867   */\n      mstore\n        /* \"#utility.yul\":17884:17962   */\n      tag_339\n        /* \"#utility.yul\":17957:17961   */\n      dup2\n        /* \"#utility.yul\":17948:17954   */\n      dup6\n        /* \"#utility.yul\":17884:17962   */\n      tag_130\n      jump\t// in\n    tag_339:\n        /* \"#utility.yul\":17876:17962   */\n      swap1\n      pop\n        /* \"#utility.yul\":17972:18044   */\n      tag_340\n        /* \"#utility.yul\":18040:18042   */\n      0x20\n        /* \"#utility.yul\":18029:18038   */\n      dup4\n        /* \"#utility.yul\":18025:18043   */\n      add\n        /* \"#utility.yul\":18016:18022   */\n      dup5\n        /* \"#utility.yul\":17972:18044   */\n      tag_132\n      jump\t// in\n    tag_340:\n        /* \"#utility.yul\":17628:18051   */\n      swap4\n      swap3\n      pop\n      pop\n      pop\n      jump\t// out\n        /* \"#utility.yul\":18057:18237   */\n    tag_152:\n        /* \"#utility.yul\":18105:18182   */\n      0x4e487b7100000000000000000000000000000000000000000000000000000000\n        /* \"#utility.yul\":18102:18103   */\n      0x00\n        /* \"#utility.yul\":18095:18183   */\n      mstore\n        /* \"#utility.yul\":18202:18206   */\n      0x11\n        /* \"#utility.yul\":18199:18200   */\n      0x04\n        /* \"#utility.yul\":18192:18207   */\n      mstore\n        /* \"#utility.yul\":18226:18230   */\n      0x24\n        /* \"#utility.yul\":18223:18224   */\n      0x00\n        /* \"#utility.yul\":18216:18231   */\n      revert\n        /* \"#utility.yul\":18243:18476   */\n    tag_93:\n        /* \"#utility.yul\":18282:18285   */\n      0x00\n        /* \"#utility.yul\":18305:18329   */\n      tag_343\n        /* \"#utility.yul\":18323:18328   */\n      dup3\n        /* \"#utility.yul\":18305:18329   */\n      tag_104\n      jump\t// in\n    tag_343:\n        /* \"#utility.yul\":18296:18329   */\n      swap2\n      pop\n        /* \"#utility.yul\":18351:18417   */\n      0xffffffffffffffffffffffffffffffffffffffffffffffffffffffffffffffff\n        /* \"#utility.yul\":18344:18349   */\n      dup3\n        /* \"#utility.yul\":18341:18418   */\n      sub\n        /* \"#utility.yul\":18338:18441   */\n      tag_344\n      jumpi\n        /* \"#utility.yul\":18421:18439   */\n      tag_345\n      tag_152\n      jump\t// in\n    tag_345:\n        /* \"#utility.yul\":18338:18441   */\n    tag_344:\n        /* \"#utility.yul\":18468:18469   */\n      0x01\n        /* \"#utility.yul\":18461:18466   */\n      dup3\n        /* \"#utility.yul\":18457:18470   */\n      add\n        /* \"#utility.yul\":18450:18470   */\n      swap1\n      pop\n        /* \"#utility.yul\":18243:18476   */\n      swap2\n      swap1\n      pop\n      jump\t// out\n\n    auxdata: 0xa26469706673582212206190bf6e4fcf3791927d461306542d81f2083176c81693b5e3a628104a3e14b864736f6c634300081a0033\n}\n",
				"bytecode": {
					"linkReferences": {},
					"object": "6080604052348015600e575f80fd5b506113e58061001c5f395ff3fe608060405234801561000f575f80fd5b506004361061007a575f3560e01c8063560f319211610059578063560f3192146100e65780638d97767214610102578063b37b100014610136578063fdc3d8d7146101525761007a565b80620b2bda1461007e5780631d65e77e1461009a5780634103c62e146100ca575b5f80fd5b61009860048036038101906100939190610a4b565b610170565b005b6100b460048036038101906100af9190610a4b565b610284565b6040516100c19190610bc8565b60405180910390f35b6100e460048036038101906100df9190610d14565b610447565b005b61010060048036038101906100fb9190610a4b565b610571565b005b61011c60048036038101906101179190610a4b565b6106b5565b60405161012d959493929190610e11565b60405180910390f35b610150600480360381019061014b9190610e70565b61081e565b005b61015a610965565b6040516101679190610ee6565b60405180910390f35b803373ffffffffffffffffffffffffffffffffffffffff165f808381526020019081526020015f2060030160019054906101000a900473ffffffffffffffffffffffffffffffffffffffff1673ffffffffffffffffffffffffffffffffffffffff1614610212576040517f08c379a000000000000000000000000000000000000000000000000000000000815260040161020990610f49565b60405180910390fd5b5f805f8481526020019081526020015f2090506001816003015f6101000a81548160ff021916908315150217905550827f731243b94fd6f4071f6ac97a26cb4cff681428631c877c64cdea5371290b01c1826001016001604051610277929190611057565b60405180910390a2505050565b61028c61096b565b5f808381526020019081526020015f206040518060a00160405290815f82015481526020016001820180546102c090610f94565b80601f01602080910402602001604051908101604052809291908181526020018280546102ec90610f94565b80156103375780601f1061030e57610100808354040283529160200191610337565b820191905f5260205f20905b81548152906001019060200180831161031a57829003601f168201915b5050505050815260200160028201805461035090610f94565b80601f016020809104026020016040519081016040528092919081815260200182805461037c90610f94565b80156103c75780601f1061039e576101008083540402835291602001916103c7565b820191905f5260205f20905b8154815290600101906020018083116103aa57829003601f168201915b50505050508152602001600382015f9054906101000a900460ff161515151581526020016003820160019054906101000a900473ffffffffffffffffffffffffffffffffffffffff1673ffffffffffffffffffffffffffffffffffffffff1673ffffffffffffffffffffffffffffffffffffffff16815250509050919050565b823373ffffffffffffffffffffffffffffffffffffffff165f808381526020019081526020015f2060030160019054906101000a900473ffffffffffffffffffffffffffffffffffffffff1673ffffffffffffffffffffffffffffffffffffffff16146104e9576040517f08c379a00000000000000000000000000000000000000000000000000000000081526004016104e090610f49565b60405180910390fd5b5f805f8681526020019081526020015f2090508381600101908161050d9190611210565b508281600201908161051f9190611210565b50847f731243b94fd6f4071f6ac97a26cb4cff681428631c877c64cdea5371290b01c185836003015f9054906101000a900460ff166040516105629291906112df565b60405180910390a25050505050565b803373ffffffffffffffffffffffffffffffffffffffff165f808381526020019081526020015f2060030160019054906101000a900473ffffffffffffffffffffffffffffffffffffffff1673ffffffffffffffffffffffffffffffffffffffff1614610613576040517f08c379a000000000000000000000000000000000000000000000000000000000815260040161060a90610f49565b60405180910390fd5b5f808381526020019081526020015f205f8082015f9055600182015f61063991906109af565b600282015f61064891906109af565b600382015f6101000a81549060ff02191690556003820160016101000a81549073ffffffffffffffffffffffffffffffffffffffff02191690555050817fd078b251d950cc55c44340be1db732337ef4939a76e1367ee271ad2cb19c46af60405160405180910390a25050565b5f602052805f5260405f205f91509050805f0154908060010180546106d990610f94565b80601f016020809104026020016040519081016040528092919081815260200182805461070590610f94565b80156107505780601f1061072757610100808354040283529160200191610750565b820191905f5260205f20905b81548152906001019060200180831161073357829003601f168201915b50505050509080600201805461076590610f94565b80601f016020809104026020016040519081016040528092919081815260200182805461079190610f94565b80156107dc5780601f106107b3576101008083540402835291602001916107dc565b820191905f5260205f20905b8154815290600101906020018083116107bf57829003601f168201915b505050505090806003015f9054906101000a900460ff16908060030160019054906101000a900473ffffffffffffffffffffffffffffffffffffffff16905085565b6040518060a0016040528060015481526020018381526020018281526020015f151581526020013373ffffffffffffffffffffffffffffffffffffffff168152505f8060015481526020019081526020015f205f820151815f0155602082015181600101908161088e9190611210565b5060408201518160020190816108a49190611210565b506060820151816003015f6101000a81548160ff02191690831515021790555060808201518160030160016101000a81548173ffffffffffffffffffffffffffffffffffffffff021916908373ffffffffffffffffffffffffffffffffffffffff1602179055509050506001547fdc691e972cb25fd6e968744b5a6416d42a052ac1305e3b7ed6777b621304b7f2833360405161094292919061130d565b60405180910390a260015f81548092919061095c90611368565b91905055505050565b60015481565b6040518060a001604052805f815260200160608152602001606081526020015f151581526020015f73ffffffffffffffffffffffffffffffffffffffff1681525090565b5080546109bb90610f94565b5f825580601f106109cc57506109e9565b601f0160209004905f5260205f20908101906109e891906109ec565b5b50565b5b80821115610a03575f815f9055506001016109ed565b5090565b5f604051905090565b5f80fd5b5f80fd5b5f819050919050565b610a2a81610a18565b8114610a34575f80fd5b50565b5f81359050610a4581610a21565b92915050565b5f60208284031215610a6057610a5f610a10565b5b5f610a6d84828501610a37565b91505092915050565b610a7f81610a18565b82525050565b5f81519050919050565b5f82825260208201905092915050565b8281835e5f83830152505050565b5f601f19601f8301169050919050565b5f610ac782610a85565b610ad18185610a8f565b9350610ae1818560208601610a9f565b610aea81610aad565b840191505092915050565b5f8115159050919050565b610b0981610af5565b82525050565b5f73ffffffffffffffffffffffffffffffffffffffff82169050919050565b5f610b3882610b0f565b9050919050565b610b4881610b2e565b82525050565b5f60a083015f830151610b635f860182610a76565b5060208301518482036020860152610b7b8282610abd565b91505060408301518482036040860152610b958282610abd565b9150506060830151610baa6060860182610b00565b506080830151610bbd6080860182610b3f565b508091505092915050565b5f6020820190508181035f830152610be08184610b4e565b905092915050565b5f80fd5b5f80fd5b7f4e487b71000000000000000000000000000000000000000000000000000000005f52604160045260245ffd5b610c2682610aad565b810181811067ffffffffffffffff82111715610c4557610c44610bf0565b5b80604052505050565b5f610c57610a07565b9050610c638282610c1d565b919050565b5f67ffffffffffffffff821115610c8257610c81610bf0565b5b610c8b82610aad565b9050602081019050919050565b828183375f83830152505050565b5f610cb8610cb384610c68565b610c4e565b905082815260208101848484011115610cd457610cd3610bec565b5b610cdf848285610c98565b509392505050565b5f82601f830112610cfb57610cfa610be8565b5b8135610d0b848260208601610ca6565b91505092915050565b5f805f60608486031215610d2b57610d2a610a10565b5b5f610d3886828701610a37565b935050602084013567ffffffffffffffff811115610d5957610d58610a14565b5b610d6586828701610ce7565b925050604084013567ffffffffffffffff811115610d8657610d85610a14565b5b610d9286828701610ce7565b9150509250925092565b610da581610a18565b82525050565b5f82825260208201905092915050565b5f610dc582610a85565b610dcf8185610dab565b9350610ddf818560208601610a9f565b610de881610aad565b840191505092915050565b610dfc81610af5565b82525050565b610e0b81610b2e565b82525050565b5f60a082019050610e245f830188610d9c565b8181036020830152610e368187610dbb565b90508181036040830152610e4a8186610dbb565b9050610e596060830185610df3565b610e666080830184610e02565b9695505050505050565b5f8060408385031215610e8657610e85610a10565b5b5f83013567ffffffffffffffff811115610ea357610ea2610a14565b5b610eaf85828601610ce7565b925050602083013567ffffffffffffffff811115610ed057610ecf610a14565b5b610edc85828601610ce7565b9150509250929050565b5f602082019050610ef95f830184610d9c565b92915050565b7f4e6f74207461736b206f776e65720000000000000000000000000000000000005f82015250565b5f610f33600e83610dab565b9150610f3e82610eff565b602082019050919050565b5f6020820190508181035f830152610f6081610f27565b9050919050565b7f4e487b71000000000000000000000000000000000000000000000000000000005f52602260045260245ffd5b5f6002820490506001821680610fab57607f821691505b602082108103610fbe57610fbd610f67565b5b50919050565b5f819050815f5260205f209050919050565b5f8154610fe281610f94565b610fec8186610dab565b9450600182165f8114611006576001811461101c5761104e565b60ff19831686528115156020028601935061104e565b61102585610fc4565b5f5b8381101561104657815481890152600182019150602081019050611027565b808801955050505b50505092915050565b5f6040820190508181035f83015261106f8185610fd6565b905061107e6020830184610df3565b9392505050565b5f6020601f8301049050919050565b5f82821b905092915050565b5f600883026110cf7fffffffffffffffffffffffffffffffffffffffffffffffffffffffffffffffff82611094565b6110d98683611094565b95508019841693508086168417925050509392505050565b5f819050919050565b5f61111461110f61110a84610a18565b6110f1565b610a18565b9050919050565b5f819050919050565b61112d836110fa565b6111416111398261111b565b8484546110a0565b825550505050565b5f90565b611155611149565b611160818484611124565b505050565b5b81811015611183576111785f8261114d565b600181019050611166565b5050565b601f8211156111c85761119981610fc4565b6111a284611085565b810160208510156111b1578190505b6111c56111bd85611085565b830182611165565b50505b505050565b5f82821c905092915050565b5f6111e85f19846008026111cd565b1980831691505092915050565b5f61120083836111d9565b9150826002028217905092915050565b61121982610a85565b67ffffffffffffffff81111561123257611231610bf0565b5b61123c8254610f94565b611247828285611187565b5f60209050601f831160018114611278575f8415611266578287015190505b61127085826111f5565b8655506112d7565b601f19841661128686610fc4565b5f5b828110156112ad57848901518255600182019150602085019450602081019050611288565b868310156112ca57848901516112c6601f8916826111d9565b8355505b6001600288020188555050505b505050505050565b5f6040820190508181035f8301526112f78185610dbb565b90506113066020830184610df3565b9392505050565b5f6040820190508181035f8301526113258185610dbb565b90506113346020830184610e02565b9392505050565b7f4e487b71000000000000000000000000000000000000000000000000000000005f52601160045260245ffd5b5f61137282610a18565b91507fffffffffffffffffffffffffffffffffffffffffffffffffffffffffffffffff82036113a4576113a361133b565b5b60018201905091905056fea26469706673582212206190bf6e4fcf3791927d461306542d81f2083176c81693b5e3a628104a3e14b864736f6c634300081a0033",
					"opcodes": "PUSH1 0x80 PUSH1 0x40 MSTORE CALLVALUE DUP1 ISZERO PUSH1 0xE JUMPI PUSH0 DUP1 REVERT JUMPDEST POP PUSH2 0x13E5 DUP1 PUSH2 0x1C PUSH0 CODECOPY PUSH0 RETURN INVALID PUSH1 0x80 PUSH1 0x40 MSTORE CALLVALUE DUP1 ISZERO PUSH2 0xF JUMPI PUSH0 DUP1 REVERT JUMPDEST POP PUSH1 0x4 CALLDATASIZE LT PUSH2 0x7A JUMPI PUSH0 CALLDATALOAD PUSH1 0xE0 SHR DUP1 PUSH4 0x560F3192 GT PUSH2 0x59 JUMPI DUP1 PUSH4 0x560F3192 EQ PUSH2 0xE6 JUMPI DUP1 PUSH4 0x8D977672 EQ PUSH2 0x102 JUMPI DUP1 PUSH4 0xB37B1000 EQ PUSH2 0x136 JUMPI DUP1 PUSH4 0xFDC3D8D7 EQ PUSH2 0x152 JUMPI PUSH2 0x7A JUMP JUMPDEST DUP1 PUSH3 0xB2BDA EQ PUSH2 0x7E JUMPI DUP1 PUSH4 0x1D65E77E EQ PUSH2 0x9A JUMPI DUP1 PUSH4 0x4103C62E EQ PUSH2 0xCA JUMPI JUMPDEST PUSH0 DUP1 REVERT JUMPDEST PUSH2 0x98 PUSH1 0x4 DUP1 CALLDATASIZE SUB DUP2 ADD SWAP1 PUSH2 0x93 SWAP2 SWAP1 PUSH2 0xA4B JUMP JUMPDEST PUSH2 0x170 JUMP JUMPDEST STOP JUMPDEST PUSH2 0xB4 PUSH1 0x4 DUP1 CALLDATASIZE SUB DUP2 ADD SWAP1 PUSH2 0xAF SWAP2 SWAP1 PUSH2 0xA4B JUMP JUMPDEST PUSH2 0x284 JUMP JUMPDEST PUSH1 0x40 MLOAD PUSH2 0xC1 SWAP2 SWAP1 PUSH2 0xBC8 JUMP JUMPDEST PUSH1 0x40 MLOAD DUP1 SWAP2 SUB SWAP1 RETURN JUMPDEST PUSH2 0xE4 PUSH1 0x4 DUP1 CALLDATASIZE SUB DUP2 ADD SWAP1 PUSH2 0xDF SWAP2 SWAP1 PUSH2 0xD14 JUMP JUMPDEST PUSH2 0x447 JUMP JUMPDEST STOP JUMPDEST PUSH2 0x100 PUSH1 0x4 DUP1 CALLDATASIZE SUB DUP2 ADD SWAP1 PUSH2 0xFB SWAP2 SWAP1 PUSH2 0xA4B JUMP JUMPDEST PUSH2 0x571 JUMP JUMPDEST STOP JUMPDEST PUSH2 0x11C PUSH1 0x4 DUP1 CALLDATASIZE SUB DUP2 ADD SWAP1 PUSH2 0x117 SWAP2 SWAP1 PUSH2 0xA4B JUMP JUMPDEST PUSH2 0x6B5 JUMP JUMPDEST PUSH1 0x40 MLOAD PUSH2 0x12D SWAP6 SWAP5 SWAP4 SWAP3 SWAP2 SWAP1 PUSH2 0xE11 JUMP JUMPDEST PUSH1 0x40 MLOAD DUP1 SWAP2 SUB SWAP1 RETURN JUMPDEST PUSH2 0x150 PUSH1 0x4 DUP1 CALLDATASIZE SUB DUP2 ADD SWAP1 PUSH2 0x14B SWAP2 SWAP1 PUSH2 0xE70 JUMP JUMPDEST PUSH2 0x81E JUMP JUMPDEST STOP JUMPDEST PUSH2 0x15A PUSH2 0x965 JUMP JUMPDEST PUSH1 0x40 MLOAD PUSH2 0x167 SWAP2 SWAP1 PUSH2 0xEE6 JUMP JUMPDEST PUSH1 0x40 MLOAD DUP1 SWAP2 SUB SWAP1 RETURN JUMPDEST DUP1 CALLER PUSH20 0xFFFFFFFFFFFFFFFFFFFFFFFFFFFFFFFFFFFFFFFF AND PUSH0 DUP1 DUP4 DUP2 MSTORE PUSH1 0x20 ADD SWAP1 DUP2 MSTORE PUSH1 0x20 ADD PUSH0 KECCAK256 PUSH1 0x3 ADD PUSH1 0x1 SWAP1 SLOAD SWAP1 PUSH2 0x100 EXP SWAP1 DIV PUSH20 0xFFFFFFFFFFFFFFFFFFFFFFFFFFFFFFFFFFFFFFFF AND PUSH20 0xFFFFFFFFFFFFFFFFFFFFFFFFFFFFFFFFFFFFFFFF AND EQ PUSH2 0x212 JUMPI PUSH1 0x40 MLOAD PUSH32 0x8C379A000000000000000000000000000000000000000000000000000000000 DUP2 MSTORE PUSH1 0x4 ADD PUSH2 0x209 SWAP1 PUSH2 0xF49 JUMP JUMPDEST PUSH1 0x40 MLOAD DUP1 SWAP2 SUB SWAP1 REVERT JUMPDEST PUSH0 DUP1 PUSH0 DUP5 DUP2 MSTORE PUSH1 0x20 ADD SWAP1 DUP2 MSTORE PUSH1 0x20 ADD PUSH0 KECCAK256 SWAP1 POP PUSH1 0x1 DUP2 PUSH1 0x3 ADD PUSH0 PUSH2 0x100 EXP DUP2 SLOAD DUP2 PUSH1 0xFF MUL NOT AND SWAP1 DUP4 ISZERO ISZERO MUL OR SWAP1 SSTORE POP DUP3 PUSH32 0x731243B94FD6F4071F6AC97A26CB4CFF681428631C877C64CDEA5371290B01C1 DUP3 PUSH1 0x1 ADD PUSH1 0x1 PUSH1 0x40 MLOAD PUSH2 0x277 SWAP3 SWAP2 SWAP1 PUSH2 0x1057 JUMP JUMPDEST PUSH1 0x40 MLOAD DUP1 SWAP2 SUB SWAP1 LOG2 POP POP POP JUMP JUMPDEST PUSH2 0x28C PUSH2 0x96B JUMP JUMPDEST PUSH0 DUP1 DUP4 DUP2 MSTORE PUSH1 0x20 ADD SWAP1 DUP2 MSTORE PUSH1 0x20 ADD PUSH0 KECCAK256 PUSH1 0x40 MLOAD DUP1 PUSH1 0xA0 ADD PUSH1 0x40 MSTORE SWAP1 DUP2 PUSH0 DUP3 ADD SLOAD DUP2 MSTORE PUSH1 0x20 ADD PUSH1 0x1 DUP3 ADD DUP1 SLOAD PUSH2 0x2C0 SWAP1 PUSH2 0xF94 JUMP JUMPDEST DUP1 PUSH1 0x1F ADD PUSH1 0x20 DUP1 SWAP2 DIV MUL PUSH1 0x20 ADD PUSH1 0x40 MLOAD SWAP1 DUP2 ADD PUSH1 0x40 MSTORE DUP1 SWAP3 SWAP2 SWAP1 DUP2 DUP2 MSTORE PUSH1 0x20 ADD DUP3 DUP1 SLOAD PUSH2 0x2EC SWAP1 PUSH2 0xF94 JUMP JUMPDEST DUP1 ISZERO PUSH2 0x337 JUMPI DUP1 PUSH1 0x1F LT PUSH2 0x30E JUMPI PUSH2 0x100 DUP1 DUP4 SLOAD DIV MUL DUP4 MSTORE SWAP2 PUSH1 0x20 ADD SWAP2 PUSH2 0x337 JUMP JUMPDEST DUP3 ADD SWAP2 SWAP1 PUSH0 MSTORE PUSH1 0x20 PUSH0 KECCAK256 SWAP1 JUMPDEST DUP2 SLOAD DUP2 MSTORE SWAP1 PUSH1 0x1 ADD SWAP1 PUSH1 0x20 ADD DUP1 DUP4 GT PUSH2 0x31A JUMPI DUP3 SWAP1 SUB PUSH1 0x1F AND DUP3 ADD SWAP2 JUMPDEST POP POP POP POP POP DUP2 MSTORE PUSH1 0x20 ADD PUSH1 0x2 DUP3 ADD DUP1 SLOAD PUSH2 0x350 SWAP1 PUSH2 0xF94 JUMP JUMPDEST DUP1 PUSH1 0x1F ADD PUSH1 0x20 DUP1 SWAP2 DIV MUL PUSH1 0x20 ADD PUSH1 0x40 MLOAD SWAP1 DUP2 ADD PUSH1 0x40 MSTORE DUP1 SWAP3 SWAP2 SWAP1 DUP2 DUP2 MSTORE PUSH1 0x20 ADD DUP3 DUP1 SLOAD PUSH2 0x37C SWAP1 PUSH2 0xF94 JUMP JUMPDEST DUP1 ISZERO PUSH2 0x3C7 JUMPI DUP1 PUSH1 0x1F LT PUSH2 0x39E JUMPI PUSH2 0x100 DUP1 DUP4 SLOAD DIV MUL DUP4 MSTORE SWAP2 PUSH1 0x20 ADD SWAP2 PUSH2 0x3C7 JUMP JUMPDEST DUP3 ADD SWAP2 SWAP1 PUSH0 MSTORE PUSH1 0x20 PUSH0 KECCAK256 SWAP1 JUMPDEST DUP2 SLOAD DUP2 MSTORE SWAP1 PUSH1 0x1 ADD SWAP1 PUSH1 0x20 ADD DUP1 DUP4 GT PUSH2 0x3AA JUMPI DUP3 SWAP1 SUB PUSH1 0x1F AND DUP3 ADD SWAP2 JUMPDEST POP POP POP POP POP DUP2 MSTORE PUSH1 0x20 ADD PUSH1 0x3 DUP3 ADD PUSH0 SWAP1 SLOAD SWAP1 PUSH2 0x100 EXP SWAP1 DIV PUSH1 0xFF AND ISZERO ISZERO ISZERO ISZERO DUP2 MSTORE PUSH1 0x20 ADD PUSH1 0x3 DUP3 ADD PUSH1 0x1 SWAP1 SLOAD SWAP1 PUSH2 0x100 EXP SWAP1 DIV PUSH20 0xFFFFFFFFFFFFFFFFFFFFFFFFFFFFFFFFFFFFFFFF AND PUSH20 0xFFFFFFFFFFFFFFFFFFFFFFFFFFFFFFFFFFFFFFFF AND PUSH20 0xFFFFFFFFFFFFFFFFFFFFFFFFFFFFFFFFFFFFFFFF AND DUP2 MSTORE POP POP SWAP1 POP SWAP2 SWAP1 POP JUMP JUMPDEST DUP3 CALLER PUSH20 0xFFFFFFFFFFFFFFFFFFFFFFFFFFFFFFFFFFFFFFFF AND PUSH0 DUP1 DUP4 DUP2 MSTORE PUSH1 0x20 ADD SWAP1 DUP2 MSTORE PUSH1 0x20 ADD PUSH0 KECCAK256 PUSH1 0x3 ADD PUSH1 0x1 SWAP1 SLOAD SWAP1 PUSH2 0x100 EXP SWAP1 DIV PUSH20 0xFFFFFFFFFFFFFFFFFFFFFFFFFFFFFFFFFFFFFFFF AND PUSH20 0xFFFFFFFFFFFFFFFFFFFFFFFFFFFFFFFFFFFFFFFF AND EQ PUSH2 0x4E9 JUMPI PUSH1 0x40 MLOAD PUSH32 0x8C379A000000000000000000000000000000000000000000000000000000000 DUP2 MSTORE PUSH1 0x4 ADD PUSH2 0x4E0 SWAP1 PUSH2 0xF49 JUMP JUMPDEST PUSH1 0x40 MLOAD DUP1 SWAP2 SUB SWAP1 REVERT JUMPDEST PUSH0 DUP1 PUSH0 DUP7 DUP2 MSTORE PUSH1 0x20 ADD SWAP1 DUP2 MSTORE PUSH1 0x20 ADD PUSH0 KECCAK256 SWAP1 POP DUP4 DUP2 PUSH1 0x1 ADD SWAP1 DUP2 PUSH2 0x50D SWAP2 SWAP1 PUSH2 0x1210 JUMP JUMPDEST POP DUP3 DUP2 PUSH1 0x2 ADD SWAP1 DUP2 PUSH2 0x51F SWAP2 SWAP1 PUSH2 0x1210 JUMP JUMPDEST POP DUP5 PUSH32 0x731243B94FD6F4071F6AC97A26CB4CFF681428631C877C64CDEA5371290B01C1 DUP6 DUP4 PUSH1 0x3 ADD PUSH0 SWAP1 SLOAD SWAP1 PUSH2 0x100 EXP SWAP1 DIV PUSH1 0xFF AND PUSH1 0x40 MLOAD PUSH2 0x562 SWAP3 SWAP2 SWAP1 PUSH2 0x12DF JUMP JUMPDEST PUSH1 0x40 MLOAD DUP1 SWAP2 SUB SWAP1 LOG2 POP POP POP POP POP JUMP JUMPDEST DUP1 CALLER PUSH20 0xFFFFFFFFFFFFFFFFFFFFFFFFFFFFFFFFFFFFFFFF AND PUSH0 DUP1 DUP4 DUP2 MSTORE PUSH1 0x20 ADD SWAP1 DUP2 MSTORE PUSH1 0x20 ADD PUSH0 KECCAK256 PUSH1 0x3 ADD PUSH1 0x1 SWAP1 SLOAD SWAP1 PUSH2 0x100 EXP SWAP1 DIV PUSH20 0xFFFFFFFFFFFFFFFFFFFFFFFFFFFFFFFFFFFFFFFF AND PUSH20 0xFFFFFFFFFFFFFFFFFFFFFFFFFFFFFFFFFFFFFFFF AND EQ PUSH2 0x613 JUMPI PUSH1 0x40 MLOAD PUSH32 0x8C379A000000000000000000000000000000000000000000000000000000000 DUP2 MSTORE PUSH1 0x4 ADD PUSH2 0x60A SWAP1 PUSH2 0xF49 JUMP JUMPDEST PUSH1 0x40 MLOAD DUP1 SWAP2 SUB SWAP1 REVERT JUMPDEST PUSH0 DUP1 DUP4 DUP2 MSTORE PUSH1 0x20 ADD SWAP1 DUP2 MSTORE PUSH1 0x20 ADD PUSH0 KECCAK256 PUSH0 DUP1 DUP3 ADD PUSH0 SWAP1 SSTORE PUSH1 0x1 DUP3 ADD PUSH0 PUSH2 0x639 SWAP2 SWAP1 PUSH2 0x9AF JUMP JUMPDEST PUSH1 0x2 DUP3 ADD PUSH0 PUSH2 0x648 SWAP2 SWAP1 PUSH2 0x9AF JUMP JUMPDEST PUSH1 0x3 DUP3 ADD PUSH0 PUSH2 0x100 EXP DUP2 SLOAD SWAP1 PUSH1 0xFF MUL NOT AND SWAP1 SSTORE PUSH1 0x3 DUP3 ADD PUSH1 0x1 PUSH2 0x100 EXP DUP2 SLOAD SWAP1 PUSH20 0xFFFFFFFFFFFFFFFFFFFFFFFFFFFFFFFFFFFFFFFF MUL NOT AND SWAP1 SSTORE POP POP DUP2 PUSH32 0xD078B251D950CC55C44340BE1DB732337EF4939A76E1367EE271AD2CB19C46AF PUSH1 0x40 MLOAD PUSH1 0x40 MLOAD DUP1 SWAP2 SUB SWAP1 LOG2 POP POP JUMP JUMPDEST PUSH0 PUSH1 0x20 MSTORE DUP1 PUSH0 MSTORE PUSH1 0x40 PUSH0 KECCAK256 PUSH0 SWAP2 POP SWAP1 POP DUP1 PUSH0 ADD SLOAD SWAP1 DUP1 PUSH1 0x1 ADD DUP1 SLOAD PUSH2 0x6D9 SWAP1 PUSH2 0xF94 JUMP JUMPDEST DUP1 PUSH1 0x1F ADD PUSH1 0x20 DUP1 SWAP2 DIV MUL PUSH1 0x20 ADD PUSH1 0x40 MLOAD SWAP1 DUP2 ADD PUSH1 0x40 MSTORE DUP1 SWAP3 SWAP2 SWAP1 DUP2 DUP2 MSTORE PUSH1 0x20 ADD DUP3 DUP1 SLOAD PUSH2 0x705 SWAP1 PUSH2 0xF94 JUMP JUMPDEST DUP1 ISZERO PUSH2 0x750 JUMPI DUP1 PUSH1 0x1F LT PUSH2 0x727 JUMPI PUSH2 0x100 DUP1 DUP4 SLOAD DIV MUL DUP4 MSTORE SWAP2 PUSH1 0x20 ADD SWAP2 PUSH2 0x750 JUMP JUMPDEST DUP3 ADD SWAP2 SWAP1 PUSH0 MSTORE PUSH1 0x20 PUSH0 KECCAK256 SWAP1 JUMPDEST DUP2 SLOAD DUP2 MSTORE SWAP1 PUSH1 0x1 ADD SWAP1 PUSH1 0x20 ADD DUP1 DUP4 GT PUSH2 0x733 JUMPI DUP3 SWAP1 SUB PUSH1 0x1F AND DUP3 ADD SWAP2 JUMPDEST POP POP POP POP POP SWAP1 DUP1 PUSH1 0x2 ADD DUP1 SLOAD PUSH2 0x765 SWAP1 PUSH2 0xF94 JUMP JUMPDEST DUP1 PUSH1 0x1F ADD PUSH1 0x20 DUP1 SWAP2 DIV MUL PUSH1 0x20 ADD PUSH1 0x40 MLOAD SWAP1 DUP2 ADD PUSH1 0x40 MSTORE DUP1 SWAP3 SWAP2 SWAP1 DUP2 DUP2 MSTORE PUSH1 0x20 ADD DUP3 DUP1 SLOAD PUSH2 0x791 SWAP1 PUSH2 0xF94 JUMP JUMPDEST DUP1 ISZERO PUSH2 0x7DC JUMPI DUP1 PUSH1 0x1F LT PUSH2 0x7B3 JUMPI PUSH2 0x100 DUP1 DUP4 SLOAD DIV MUL DUP4 MSTORE SWAP2 PUSH1 0x20 ADD SWAP2 PUSH2 0x7DC JUMP JUMPDEST DUP3 ADD SWAP2 SWAP1 PUSH0 MSTORE PUSH1 0x20 PUSH0 KECCAK256 SWAP1 JUMPDEST DUP2 SLOAD DUP2 MSTORE SWAP1 PUSH1 0x1 ADD SWAP1 PUSH1 0x20 ADD DUP1 DUP4 GT PUSH2 0x7BF JUMPI DUP3 SWAP1 SUB PUSH1 0x1F AND DUP3 ADD SWAP2 JUMPDEST POP POP POP POP POP SWAP1 DUP1 PUSH1 0x3 ADD PUSH0 SWAP1 SLOAD SWAP1 PUSH2 0x100 EXP SWAP1 DIV PUSH1 0xFF AND SWAP1 DUP1 PUSH1 0x3 ADD PUSH1 0x1 SWAP1 SLOAD SWAP1 PUSH2 0x100 EXP SWAP1 DIV PUSH20 0xFFFFFFFFFFFFFFFFFFFFFFFFFFFFFFFFFFFFFFFF AND SWAP1 POP DUP6 JUMP JUMPDEST PUSH1 0x40 MLOAD DUP1 PUSH1 0xA0 ADD PUSH1 0x40 MSTORE DUP1 PUSH1 0x1 SLOAD DUP2 MSTORE PUSH1 0x20 ADD DUP4 DUP2 MSTORE PUSH1 0x20 ADD DUP3 DUP2 MSTORE PUSH1 0x20 ADD PUSH0 ISZERO ISZERO DUP2 MSTORE PUSH1 0x20 ADD CALLER PUSH20 0xFFFFFFFFFFFFFFFFFFFFFFFFFFFFFFFFFFFFFFFF AND DUP2 MSTORE POP PUSH0 DUP1 PUSH1 0x1 SLOAD DUP2 MSTORE PUSH1 0x20 ADD SWAP1 DUP2 MSTORE PUSH1 0x20 ADD PUSH0 KECCAK256 PUSH0 DUP3 ADD MLOAD DUP2 PUSH0 ADD SSTORE PUSH1 0x20 DUP3 ADD MLOAD DUP2 PUSH1 0x1 ADD SWAP1 DUP2 PUSH2 0x88E SWAP2 SWAP1 PUSH2 0x1210 JUMP JUMPDEST POP PUSH1 0x40 DUP3 ADD MLOAD DUP2 PUSH1 0x2 ADD SWAP1 DUP2 PUSH2 0x8A4 SWAP2 SWAP1 PUSH2 0x1210 JUMP JUMPDEST POP PUSH1 0x60 DUP3 ADD MLOAD DUP2 PUSH1 0x3 ADD PUSH0 PUSH2 0x100 EXP DUP2 SLOAD DUP2 PUSH1 0xFF MUL NOT AND SWAP1 DUP4 ISZERO ISZERO MUL OR SWAP1 SSTORE POP PUSH1 0x80 DUP3 ADD MLOAD DUP2 PUSH1 0x3 ADD PUSH1 0x1 PUSH2 0x100 EXP DUP2 SLOAD DUP2 PUSH20 0xFFFFFFFFFFFFFFFFFFFFFFFFFFFFFFFFFFFFFFFF MUL NOT AND SWAP1 DUP4 PUSH20 0xFFFFFFFFFFFFFFFFFFFFFFFFFFFFFFFFFFFFFFFF AND MUL OR SWAP1 SSTORE POP SWAP1 POP POP PUSH1 0x1 SLOAD PUSH32 0xDC691E972CB25FD6E968744B5A6416D42A052AC1305E3B7ED6777B621304B7F2 DUP4 CALLER PUSH1 0x40 MLOAD PUSH2 0x942 SWAP3 SWAP2 SWAP1 PUSH2 0x130D JUMP JUMPDEST PUSH1 0x40 MLOAD DUP1 SWAP2 SUB SWAP1 LOG2 PUSH1 0x1 PUSH0 DUP2 SLOAD DUP1 SWAP3 SWAP2 SWAP1 PUSH2 0x95C SWAP1 PUSH2 0x1368 JUMP JUMPDEST SWAP2 SWAP1 POP SSTORE POP POP POP JUMP JUMPDEST PUSH1 0x1 SLOAD DUP2 JUMP JUMPDEST PUSH1 0x40 MLOAD DUP1 PUSH1 0xA0 ADD PUSH1 0x40 MSTORE DUP1 PUSH0 DUP2 MSTORE PUSH1 0x20 ADD PUSH1 0x60 DUP2 MSTORE PUSH1 0x20 ADD PUSH1 0x60 DUP2 MSTORE PUSH1 0x20 ADD PUSH0 ISZERO ISZERO DUP2 MSTORE PUSH1 0x20 ADD PUSH0 PUSH20 0xFFFFFFFFFFFFFFFFFFFFFFFFFFFFFFFFFFFFFFFF AND DUP2 MSTORE POP SWAP1 JUMP JUMPDEST POP DUP1 SLOAD PUSH2 0x9BB SWAP1 PUSH2 0xF94 JUMP JUMPDEST PUSH0 DUP3 SSTORE DUP1 PUSH1 0x1F LT PUSH2 0x9CC JUMPI POP PUSH2 0x9E9 JUMP JUMPDEST PUSH1 0x1F ADD PUSH1 0x20 SWAP1 DIV SWAP1 PUSH0 MSTORE PUSH1 0x20 PUSH0 KECCAK256 SWAP1 DUP2 ADD SWAP1 PUSH2 0x9E8 SWAP2 SWAP1 PUSH2 0x9EC JUMP JUMPDEST JUMPDEST POP JUMP JUMPDEST JUMPDEST DUP1 DUP3 GT ISZERO PUSH2 0xA03 JUMPI PUSH0 DUP2 PUSH0 SWAP1 SSTORE POP PUSH1 0x1 ADD PUSH2 0x9ED JUMP JUMPDEST POP SWAP1 JUMP JUMPDEST PUSH0 PUSH1 0x40 MLOAD SWAP1 POP SWAP1 JUMP JUMPDEST PUSH0 DUP1 REVERT JUMPDEST PUSH0 DUP1 REVERT JUMPDEST PUSH0 DUP2 SWAP1 POP SWAP2 SWAP1 POP JUMP JUMPDEST PUSH2 0xA2A DUP2 PUSH2 0xA18 JUMP JUMPDEST DUP2 EQ PUSH2 0xA34 JUMPI PUSH0 DUP1 REVERT JUMPDEST POP JUMP JUMPDEST PUSH0 DUP2 CALLDATALOAD SWAP1 POP PUSH2 0xA45 DUP2 PUSH2 0xA21 JUMP JUMPDEST SWAP3 SWAP2 POP POP JUMP JUMPDEST PUSH0 PUSH1 0x20 DUP3 DUP5 SUB SLT ISZERO PUSH2 0xA60 JUMPI PUSH2 0xA5F PUSH2 0xA10 JUMP JUMPDEST JUMPDEST PUSH0 PUSH2 0xA6D DUP5 DUP3 DUP6 ADD PUSH2 0xA37 JUMP JUMPDEST SWAP2 POP POP SWAP3 SWAP2 POP POP JUMP JUMPDEST PUSH2 0xA7F DUP2 PUSH2 0xA18 JUMP JUMPDEST DUP3 MSTORE POP POP JUMP JUMPDEST PUSH0 DUP2 MLOAD SWAP1 POP SWAP2 SWAP1 POP JUMP JUMPDEST PUSH0 DUP3 DUP3 MSTORE PUSH1 0x20 DUP3 ADD SWAP1 POP SWAP3 SWAP2 POP POP JUMP JUMPDEST DUP3 DUP2 DUP4 MCOPY PUSH0 DUP4 DUP4 ADD MSTORE POP POP POP JUMP JUMPDEST PUSH0 PUSH1 0x1F NOT PUSH1 0x1F DUP4 ADD AND SWAP1 POP SWAP2 SWAP1 POP JUMP JUMPDEST PUSH0 PUSH2 0xAC7 DUP3 PUSH2 0xA85 JUMP JUMPDEST PUSH2 0xAD1 DUP2 DUP6 PUSH2 0xA8F JUMP JUMPDEST SWAP4 POP PUSH2 0xAE1 DUP2 DUP6 PUSH1 0x20 DUP7 ADD PUSH2 0xA9F JUMP JUMPDEST PUSH2 0xAEA DUP2 PUSH2 0xAAD JUMP JUMPDEST DUP5 ADD SWAP2 POP POP SWAP3 SWAP2 POP POP JUMP JUMPDEST PUSH0 DUP2 ISZERO ISZERO SWAP1 POP SWAP2 SWAP1 POP JUMP JUMPDEST PUSH2 0xB09 DUP2 PUSH2 0xAF5 JUMP JUMPDEST DUP3 MSTORE POP POP JUMP JUMPDEST PUSH0 PUSH20 0xFFFFFFFFFFFFFFFFFFFFFFFFFFFFFFFFFFFFFFFF DUP3 AND SWAP1 POP SWAP2 SWAP1 POP JUMP JUMPDEST PUSH0 PUSH2 0xB38 DUP3 PUSH2 0xB0F JUMP JUMPDEST SWAP1 POP SWAP2 SWAP1 POP JUMP JUMPDEST PUSH2 0xB48 DUP2 PUSH2 0xB2E JUMP JUMPDEST DUP3 MSTORE POP POP JUMP JUMPDEST PUSH0 PUSH1 0xA0 DUP4 ADD PUSH0 DUP4 ADD MLOAD PUSH2 0xB63 PUSH0 DUP7 ADD DUP3 PUSH2 0xA76 JUMP JUMPDEST POP PUSH1 0x20 DUP4 ADD MLOAD DUP5 DUP3 SUB PUSH1 0x20 DUP7 ADD MSTORE PUSH2 0xB7B DUP3 DUP3 PUSH2 0xABD JUMP JUMPDEST SWAP2 POP POP PUSH1 0x40 DUP4 ADD MLOAD DUP5 DUP3 SUB PUSH1 0x40 DUP7 ADD MSTORE PUSH2 0xB95 DUP3 DUP3 PUSH2 0xABD JUMP JUMPDEST SWAP2 POP POP PUSH1 0x60 DUP4 ADD MLOAD PUSH2 0xBAA PUSH1 0x60 DUP7 ADD DUP3 PUSH2 0xB00 JUMP JUMPDEST POP PUSH1 0x80 DUP4 ADD MLOAD PUSH2 0xBBD PUSH1 0x80 DUP7 ADD DUP3 PUSH2 0xB3F JUMP JUMPDEST POP DUP1 SWAP2 POP POP SWAP3 SWAP2 POP POP JUMP JUMPDEST PUSH0 PUSH1 0x20 DUP3 ADD SWAP1 POP DUP2 DUP2 SUB PUSH0 DUP4 ADD MSTORE PUSH2 0xBE0 DUP2 DUP5 PUSH2 0xB4E JUMP JUMPDEST SWAP1 POP SWAP3 SWAP2 POP POP JUMP JUMPDEST PUSH0 DUP1 REVERT JUMPDEST PUSH0 DUP1 REVERT JUMPDEST PUSH32 0x4E487B7100000000000000000000000000000000000000000000000000000000 PUSH0 MSTORE PUSH1 0x41 PUSH1 0x4 MSTORE PUSH1 0x24 PUSH0 REVERT JUMPDEST PUSH2 0xC26 DUP3 PUSH2 0xAAD JUMP JUMPDEST DUP2 ADD DUP2 DUP2 LT PUSH8 0xFFFFFFFFFFFFFFFF DUP3 GT OR ISZERO PUSH2 0xC45 JUMPI PUSH2 0xC44 PUSH2 0xBF0 JUMP JUMPDEST JUMPDEST DUP1 PUSH1 0x40 MSTORE POP POP POP JUMP JUMPDEST PUSH0 PUSH2 0xC57 PUSH2 0xA07 JUMP JUMPDEST SWAP1 POP PUSH2 0xC63 DUP3 DUP3 PUSH2 0xC1D JUMP JUMPDEST SWAP2 SWAP1 POP JUMP JUMPDEST PUSH0 PUSH8 0xFFFFFFFFFFFFFFFF DUP3 GT ISZERO PUSH2 0xC82 JUMPI PUSH2 0xC81 PUSH2 0xBF0 JUMP JUMPDEST JUMPDEST PUSH2 0xC8B DUP3 PUSH2 0xAAD JUMP JUMPDEST SWAP1 POP PUSH1 0x20 DUP2 ADD SWAP1 POP SWAP2 SWAP1 POP JUMP JUMPDEST DUP3 DUP2 DUP4 CALLDATACOPY PUSH0 DUP4 DUP4 ADD MSTORE POP POP POP JUMP JUMPDEST PUSH0 PUSH2 0xCB8 PUSH2 0xCB3 DUP5 PUSH2 0xC68 JUMP JUMPDEST PUSH2 0xC4E JUMP JUMPDEST SWAP1 POP DUP3 DUP2 MSTORE PUSH1 0x20 DUP2 ADD DUP5 DUP5 DUP5 ADD GT ISZERO PUSH2 0xCD4 JUMPI PUSH2 0xCD3 PUSH2 0xBEC JUMP JUMPDEST JUMPDEST PUSH2 0xCDF DUP5 DUP3 DUP6 PUSH2 0xC98 JUMP JUMPDEST POP SWAP4 SWAP3 POP POP POP JUMP JUMPDEST PUSH0 DUP3 PUSH1 0x1F DUP4 ADD SLT PUSH2 0xCFB JUMPI PUSH2 0xCFA PUSH2 0xBE8 JUMP JUMPDEST JUMPDEST DUP2 CALLDATALOAD PUSH2 0xD0B DUP5 DUP3 PUSH1 0x20 DUP7 ADD PUSH2 0xCA6 JUMP JUMPDEST SWAP2 POP POP SWAP3 SWAP2 POP POP JUMP JUMPDEST PUSH0 DUP1 PUSH0 PUSH1 0x60 DUP5 DUP7 SUB SLT ISZERO PUSH2 0xD2B JUMPI PUSH2 0xD2A PUSH2 0xA10 JUMP JUMPDEST JUMPDEST PUSH0 PUSH2 0xD38 DUP7 DUP3 DUP8 ADD PUSH2 0xA37 JUMP JUMPDEST SWAP4 POP POP PUSH1 0x20 DUP5 ADD CALLDATALOAD PUSH8 0xFFFFFFFFFFFFFFFF DUP2 GT ISZERO PUSH2 0xD59 JUMPI PUSH2 0xD58 PUSH2 0xA14 JUMP JUMPDEST JUMPDEST PUSH2 0xD65 DUP7 DUP3 DUP8 ADD PUSH2 0xCE7 JUMP JUMPDEST SWAP3 POP POP PUSH1 0x40 DUP5 ADD CALLDATALOAD PUSH8 0xFFFFFFFFFFFFFFFF DUP2 GT ISZERO PUSH2 0xD86 JUMPI PUSH2 0xD85 PUSH2 0xA14 JUMP JUMPDEST JUMPDEST PUSH2 0xD92 DUP7 DUP3 DUP8 ADD PUSH2 0xCE7 JUMP JUMPDEST SWAP2 POP POP SWAP3 POP SWAP3 POP SWAP3 JUMP JUMPDEST PUSH2 0xDA5 DUP2 PUSH2 0xA18 JUMP JUMPDEST DUP3 MSTORE POP POP JUMP JUMPDEST PUSH0 DUP3 DUP3 MSTORE PUSH1 0x20 DUP3 ADD SWAP1 POP SWAP3 SWAP2 POP POP JUMP JUMPDEST PUSH0 PUSH2 0xDC5 DUP3 PUSH2 0xA85 JUMP JUMPDEST PUSH2 0xDCF DUP2 DUP6 PUSH2 0xDAB JUMP JUMPDEST SWAP4 POP PUSH2 0xDDF DUP2 DUP6 PUSH1 0x20 DUP7 ADD PUSH2 0xA9F JUMP JUMPDEST PUSH2 0xDE8 DUP2 PUSH2 0xAAD JUMP JUMPDEST DUP5 ADD SWAP2 POP POP SWAP3 SWAP2 POP POP JUMP JUMPDEST PUSH2 0xDFC DUP2 PUSH2 0xAF5 JUMP JUMPDEST DUP3 MSTORE POP POP JUMP JUMPDEST PUSH2 0xE0B DUP2 PUSH2 0xB2E JUMP JUMPDEST DUP3 MSTORE POP POP JUMP JUMPDEST PUSH0 PUSH1 0xA0 DUP3 ADD SWAP1 POP PUSH2 0xE24 PUSH0 DUP4 ADD DUP9 PUSH2 0xD9C JUMP JUMPDEST DUP2 DUP2 SUB PUSH1 0x20 DUP4 ADD MSTORE PUSH2 0xE36 DUP2 DUP8 PUSH2 0xDBB JUMP JUMPDEST SWAP1 POP DUP2 DUP2 SUB PUSH1 0x40 DUP4 ADD MSTORE PUSH2 0xE4A DUP2 DUP7 PUSH2 0xDBB JUMP JUMPDEST SWAP1 POP PUSH2 0xE59 PUSH1 0x60 DUP4 ADD DUP6 PUSH2 0xDF3 JUMP JUMPDEST PUSH2 0xE66 PUSH1 0x80 DUP4 ADD DUP5 PUSH2 0xE02 JUMP JUMPDEST SWAP7 SWAP6 POP POP POP POP POP POP JUMP JUMPDEST PUSH0 DUP1 PUSH1 0x40 DUP4 DUP6 SUB SLT ISZERO PUSH2 0xE86 JUMPI PUSH2 0xE85 PUSH2 0xA10 JUMP JUMPDEST JUMPDEST PUSH0 DUP4 ADD CALLDATALOAD PUSH8 0xFFFFFFFFFFFFFFFF DUP2 GT ISZERO PUSH2 0xEA3 JUMPI PUSH2 0xEA2 PUSH2 0xA14 JUMP JUMPDEST JUMPDEST PUSH2 0xEAF DUP6 DUP3 DUP7 ADD PUSH2 0xCE7 JUMP JUMPDEST SWAP3 POP POP PUSH1 0x20 DUP4 ADD CALLDATALOAD PUSH8 0xFFFFFFFFFFFFFFFF DUP2 GT ISZERO PUSH2 0xED0 JUMPI PUSH2 0xECF PUSH2 0xA14 JUMP JUMPDEST JUMPDEST PUSH2 0xEDC DUP6 DUP3 DUP7 ADD PUSH2 0xCE7 JUMP JUMPDEST SWAP2 POP POP SWAP3 POP SWAP3 SWAP1 POP JUMP JUMPDEST PUSH0 PUSH1 0x20 DUP3 ADD SWAP1 POP PUSH2 0xEF9 PUSH0 DUP4 ADD DUP5 PUSH2 0xD9C JUMP JUMPDEST SWAP3 SWAP2 POP POP JUMP JUMPDEST PUSH32 0x4E6F74207461736B206F776E6572000000000000000000000000000000000000 PUSH0 DUP3 ADD MSTORE POP JUMP JUMPDEST PUSH0 PUSH2 0xF33 PUSH1 0xE DUP4 PUSH2 0xDAB JUMP JUMPDEST SWAP2 POP PUSH2 0xF3E DUP3 PUSH2 0xEFF JUMP JUMPDEST PUSH1 0x20 DUP3 ADD SWAP1 POP SWAP2 SWAP1 POP JUMP JUMPDEST PUSH0 PUSH1 0x20 DUP3 ADD SWAP1 POP DUP2 DUP2 SUB PUSH0 DUP4 ADD MSTORE PUSH2 0xF60 DUP2 PUSH2 0xF27 JUMP JUMPDEST SWAP1 POP SWAP2 SWAP1 POP JUMP JUMPDEST PUSH32 0x4E487B7100000000000000000000000000000000000000000000000000000000 PUSH0 MSTORE PUSH1 0x22 PUSH1 0x4 MSTORE PUSH1 0x24 PUSH0 REVERT JUMPDEST PUSH0 PUSH1 0x2 DUP3 DIV SWAP1 POP PUSH1 0x1 DUP3 AND DUP1 PUSH2 0xFAB JUMPI PUSH1 0x7F DUP3 AND SWAP2 POP JUMPDEST PUSH1 0x20 DUP3 LT DUP2 SUB PUSH2 0xFBE JUMPI PUSH2 0xFBD PUSH2 0xF67 JUMP JUMPDEST JUMPDEST POP SWAP2 SWAP1 POP JUMP JUMPDEST PUSH0 DUP2 SWAP1 POP DUP2 PUSH0 MSTORE PUSH1 0x20 PUSH0 KECCAK256 SWAP1 POP SWAP2 SWAP1 POP JUMP JUMPDEST PUSH0 DUP2 SLOAD PUSH2 0xFE2 DUP2 PUSH2 0xF94 JUMP JUMPDEST PUSH2 0xFEC DUP2 DUP7 PUSH2 0xDAB JUMP JUMPDEST SWAP5 POP PUSH1 0x1 DUP3 AND PUSH0 DUP2 EQ PUSH2 0x1006 JUMPI PUSH1 0x1 DUP2 EQ PUSH2 0x101C JUMPI PUSH2 0x104E JUMP JUMPDEST PUSH1 0xFF NOT DUP4 AND DUP7 MSTORE DUP2 ISZERO ISZERO PUSH1 0x20 MUL DUP7 ADD SWAP4 POP PUSH2 0x104E JUMP JUMPDEST PUSH2 0x1025 DUP6 PUSH2 0xFC4 JUMP JUMPDEST PUSH0 JUMPDEST DUP4 DUP2 LT ISZERO PUSH2 0x1046 JUMPI DUP2 SLOAD DUP2 DUP10 ADD MSTORE PUSH1 0x1 DUP3 ADD SWAP2 POP PUSH1 0x20 DUP2 ADD SWAP1 POP PUSH2 0x1027 JUMP JUMPDEST DUP1 DUP9 ADD SWAP6 POP POP POP JUMPDEST POP POP POP SWAP3 SWAP2 POP POP JUMP JUMPDEST PUSH0 PUSH1 0x40 DUP3 ADD SWAP1 POP DUP2 DUP2 SUB PUSH0 DUP4 ADD MSTORE PUSH2 0x106F DUP2 DUP6 PUSH2 0xFD6 JUMP JUMPDEST SWAP1 POP PUSH2 0x107E PUSH1 0x20 DUP4 ADD DUP5 PUSH2 0xDF3 JUMP JUMPDEST SWAP4 SWAP3 POP POP POP JUMP JUMPDEST PUSH0 PUSH1 0x20 PUSH1 0x1F DUP4 ADD DIV SWAP1 POP SWAP2 SWAP1 POP JUMP JUMPDEST PUSH0 DUP3 DUP3 SHL SWAP1 POP SWAP3 SWAP2 POP POP JUMP JUMPDEST PUSH0 PUSH1 0x8 DUP4 MUL PUSH2 0x10CF PUSH32 0xFFFFFFFFFFFFFFFFFFFFFFFFFFFFFFFFFFFFFFFFFFFFFFFFFFFFFFFFFFFFFFFF DUP3 PUSH2 0x1094 JUMP JUMPDEST PUSH2 0x10D9 DUP7 DUP4 PUSH2 0x1094 JUMP JUMPDEST SWAP6 POP DUP1 NOT DUP5 AND SWAP4 POP DUP1 DUP7 AND DUP5 OR SWAP3 POP POP POP SWAP4 SWAP3 POP POP POP JUMP JUMPDEST PUSH0 DUP2 SWAP1 POP SWAP2 SWAP1 POP JUMP JUMPDEST PUSH0 PUSH2 0x1114 PUSH2 0x110F PUSH2 0x110A DUP5 PUSH2 0xA18 JUMP JUMPDEST PUSH2 0x10F1 JUMP JUMPDEST PUSH2 0xA18 JUMP JUMPDEST SWAP1 POP SWAP2 SWAP1 POP JUMP JUMPDEST PUSH0 DUP2 SWAP1 POP SWAP2 SWAP1 POP JUMP JUMPDEST PUSH2 0x112D DUP4 PUSH2 0x10FA JUMP JUMPDEST PUSH2 0x1141 PUSH2 0x1139 DUP3 PUSH2 0x111B JUMP JUMPDEST DUP5 DUP5 SLOAD PUSH2 0x10A0 JUMP JUMPDEST DUP3 SSTORE POP POP POP POP JUMP JUMPDEST PUSH0 SWAP1 JUMP JUMPDEST PUSH2 0x1155 PUSH2 0x1149 JUMP JUMPDEST PUSH2 0x1160 DUP2 DUP5 DUP5 PUSH2 0x1124 JUMP JUMPDEST POP POP POP JUMP JUMPDEST JUMPDEST DUP2 DUP2 LT ISZERO PUSH2 0x1183 JUMPI PUSH2 0x1178 PUSH0 DUP3 PUSH2 0x114D JUMP JUMPDEST PUSH1 0x1 DUP2 ADD SWAP1 POP PUSH2 0x1166 JUMP JUMPDEST POP POP JUMP JUMPDEST PUSH1 0x1F DUP3 GT ISZERO PUSH2 0x11C8 JUMPI PUSH2 0x1199 DUP2 PUSH2 0xFC4 JUMP JUMPDEST PUSH2 0x11A2 DUP5 PUSH2 0x1085 JUMP JUMPDEST DUP2 ADD PUSH1 0x20 DUP6 LT ISZERO PUSH2 0x11B1 JUMPI DUP2 SWAP1 POP JUMPDEST PUSH2 0x11C5 PUSH2 0x11BD DUP6 PUSH2 0x1085 JUMP JUMPDEST DUP4 ADD DUP3 PUSH2 0x1165 JUMP JUMPDEST POP POP JUMPDEST POP POP POP JUMP JUMPDEST PUSH0 DUP3 DUP3 SHR SWAP1 POP SWAP3 SWAP2 POP POP JUMP JUMPDEST PUSH0 PUSH2 0x11E8 PUSH0 NOT DUP5 PUSH1 0x8 MUL PUSH2 0x11CD JUMP JUMPDEST NOT DUP1 DUP4 AND SWAP2 POP POP SWAP3 SWAP2 POP POP JUMP JUMPDEST PUSH0 PUSH2 0x1200 DUP4 DUP4 PUSH2 0x11D9 JUMP JUMPDEST SWAP2 POP DUP3 PUSH1 0x2 MUL DUP3 OR SWAP1 POP SWAP3 SWAP2 POP POP JUMP JUMPDEST PUSH2 0x1219 DUP3 PUSH2 0xA85 JUMP JUMPDEST PUSH8 0xFFFFFFFFFFFFFFFF DUP2 GT ISZERO PUSH2 0x1232 JUMPI PUSH2 0x1231 PUSH2 0xBF0 JUMP JUMPDEST JUMPDEST PUSH2 0x123C DUP3 SLOAD PUSH2 0xF94 JUMP JUMPDEST PUSH2 0x1247 DUP3 DUP3 DUP6 PUSH2 0x1187 JUMP JUMPDEST PUSH0 PUSH1 0x20 SWAP1 POP PUSH1 0x1F DUP4 GT PUSH1 0x1 DUP2 EQ PUSH2 0x1278 JUMPI PUSH0 DUP5 ISZERO PUSH2 0x1266 JUMPI DUP3 DUP8 ADD MLOAD SWAP1 POP JUMPDEST PUSH2 0x1270 DUP6 DUP3 PUSH2 0x11F5 JUMP JUMPDEST DUP7 SSTORE POP PUSH2 0x12D7 JUMP JUMPDEST PUSH1 0x1F NOT DUP5 AND PUSH2 0x1286 DUP7 PUSH2 0xFC4 JUMP JUMPDEST PUSH0 JUMPDEST DUP3 DUP2 LT ISZERO PUSH2 0x12AD JUMPI DUP5 DUP10 ADD MLOAD DUP3 SSTORE PUSH1 0x1 DUP3 ADD SWAP2 POP PUSH1 0x20 DUP6 ADD SWAP5 POP PUSH1 0x20 DUP2 ADD SWAP1 POP PUSH2 0x1288 JUMP JUMPDEST DUP7 DUP4 LT ISZERO PUSH2 0x12CA JUMPI DUP5 DUP10 ADD MLOAD PUSH2 0x12C6 PUSH1 0x1F DUP10 AND DUP3 PUSH2 0x11D9 JUMP JUMPDEST DUP4 SSTORE POP JUMPDEST PUSH1 0x1 PUSH1 0x2 DUP9 MUL ADD DUP9 SSTORE POP POP POP JUMPDEST POP POP POP POP POP POP JUMP JUMPDEST PUSH0 PUSH1 0x40 DUP3 ADD SWAP1 POP DUP2 DUP2 SUB PUSH0 DUP4 ADD MSTORE PUSH2 0x12F7 DUP2 DUP6 PUSH2 0xDBB JUMP JUMPDEST SWAP1 POP PUSH2 0x1306 PUSH1 0x20 DUP4 ADD DUP5 PUSH2 0xDF3 JUMP JUMPDEST SWAP4 SWAP3 POP POP POP JUMP JUMPDEST PUSH0 PUSH1 0x40 DUP3 ADD SWAP1 POP DUP2 DUP2 SUB PUSH0 DUP4 ADD MSTORE PUSH2 0x1325 DUP2 DUP6 PUSH2 0xDBB JUMP JUMPDEST SWAP1 POP PUSH2 0x1334 PUSH1 0x20 DUP4 ADD DUP5 PUSH2 0xE02 JUMP JUMPDEST SWAP4 SWAP3 POP POP POP JUMP JUMPDEST PUSH32 0x4E487B7100000000000000000000000000000000000000000000000000000000 PUSH0 MSTORE PUSH1 0x11 PUSH1 0x4 MSTORE PUSH1 0x24 PUSH0 REVERT JUMPDEST PUSH0 PUSH2 0x1372 DUP3 PUSH2 0xA18 JUMP JUMPDEST SWAP2 POP PUSH32 0xFFFFFFFFFFFFFFFFFFFFFFFFFFFFFFFFFFFFFFFFFFFFFFFFFFFFFFFFFFFFFFFF DUP3 SUB PUSH2 0x13A4 JUMPI PUSH2 0x13A3 PUSH2 0x133B JUMP JUMPDEST JUMPDEST PUSH1 0x1 DUP3 ADD SWAP1 POP SWAP2 SWAP1 POP JUMP INVALID LOG2 PUSH5 0x6970667358 0x22 SLT KECCAK256 PUSH2 0x90BF PUSH15 0x4FCF3791927D461306542D81F20831 PUSH23 0xC81693B5E3A628104A3E14B864736F6C634300081A0033 "
				},
				"gasEstimates": {
					"creation": {
						"codeDepositCost": "1018600",
						"executionCost": "1059",
						"totalCost": "1019659"
					},
					"external": {
						"addTask(string,string)": "infinite",
						"deleteTask(uint256)": "infinite",
						"editTask(uint256,string,string)": "infinite",
						"getTask(uint256)": "infinite",
						"markTaskCompleted(uint256)": "infinite",
						"nextTaskId()": "2491",
						"tasks(uint256)": "infinite"
					}
				},
				"methodIdentifiers": {
					"addTask(string,string)": "b37b1000",
					"deleteTask(uint256)": "560f3192",
					"editTask(uint256,string,string)": "4103c62e",
					"getTask(uint256)": "1d65e77e",
					"markTaskCompleted(uint256)": "000b2bda",
					"nextTaskId()": "fdc3d8d7",
					"tasks(uint256)": "8d977672"
				}
			},
			"storageLayout": {
				"storage": [
					{
						"astId": 17,
						"contract": "TaskManagement/TaskManager.sol:TaskManager",
						"label": "tasks",
						"offset": 0,
						"slot": "0",
						"type": "t_mapping(t_uint256,t_struct(Task)12_storage)"
					},
					{
						"astId": 19,
						"contract": "TaskManagement/TaskManager.sol:TaskManager",
						"label": "nextTaskId",
						"offset": 0,
						"slot": "1",
						"type": "t_uint256"
					}
				],
				"types": {
					"t_address": {
						"encoding": "inplace",
						"label": "address",
						"numberOfBytes": "20"
					},
					"t_bool": {
						"encoding": "inplace",
						"label": "bool",
						"numberOfBytes": "1"
					},
					"t_mapping(t_uint256,t_struct(Task)12_storage)": {
						"encoding": "mapping",
						"key": "t_uint256",
						"label": "mapping(uint256 => struct TaskManager.Task)",
						"numberOfBytes": "32",
						"value": "t_struct(Task)12_storage"
					},
					"t_string_storage": {
						"encoding": "bytes",
						"label": "string",
						"numberOfBytes": "32"
					},
					"t_struct(Task)12_storage": {
						"encoding": "inplace",
						"label": "struct TaskManager.Task",
						"members": [
							{
								"astId": 3,
								"contract": "TaskManagement/TaskManager.sol:TaskManager",
								"label": "id",
								"offset": 0,
								"slot": "0",
								"type": "t_uint256"
							},
							{
								"astId": 5,
								"contract": "TaskManagement/TaskManager.sol:TaskManager",
								"label": "title",
								"offset": 0,
								"slot": "1",
								"type": "t_string_storage"
							},
							{
								"astId": 7,
								"contract": "TaskManagement/TaskManager.sol:TaskManager",
								"label": "description",
								"offset": 0,
								"slot": "2",
								"type": "t_string_storage"
							},
							{
								"astId": 9,
								"contract": "TaskManagement/TaskManager.sol:TaskManager",
								"label": "completed",
								"offset": 0,
								"slot": "3",
								"type": "t_bool"
							},
							{
								"astId": 11,
								"contract": "TaskManagement/TaskManager.sol:TaskManager",
								"label": "owner",
								"offset": 1,
								"slot": "3",
								"type": "t_address"
							}
						],
						"numberOfBytes": "128"
					},
					"t_uint256": {
						"encoding": "inplace",
						"label": "uint256",
						"numberOfBytes": "32"
					}
				}
			},
			"userdoc": {
				"kind": "user",
				"methods": {},
				"version": 1
			}
		}
	}
}