{
	"Day-03/code1.sol": {
		"Type": {
			"abi": [
				{
					"inputs": [],
					"name": "get_Choice",
					"outputs": [
						{
							"internalType": "enum Type.week_days",
							"name": "",
							"type": "uint8"
						}
					],
					"stateMutability": "view",
					"type": "function"
				},
				{
					"inputs": [],
					"name": "getdefaultvalue",
					"outputs": [
						{
							"internalType": "enum Type.week_days",
							"name": "",
							"type": "uint8"
						}
					],
					"stateMutability": "pure",
					"type": "function"
				},
				{
					"inputs": [],
					"name": "set_Value",
					"outputs": [],
					"stateMutability": "nonpayable",
					"type": "function"
				}
			],
			"devdoc": {
				"kind": "dev",
				"methods": {},
				"version": 1
			},
			"evm": {
				"assembly": "    /* \"Day-03/code1.sol\":68:626  contract Type{... */\n  mstore(0x40, 0x80)\n  callvalue\n  dup1\n  iszero\n  tag_1\n  jumpi\n  0x00\n  dup1\n  revert\ntag_1:\n  pop\n  dataSize(sub_0)\n  dup1\n  dataOffset(sub_0)\n  0x00\n  codecopy\n  0x00\n  return\nstop\n\nsub_0: assembly {\n        /* \"Day-03/code1.sol\":68:626  contract Type{... */\n      mstore(0x40, 0x80)\n      callvalue\n      dup1\n      iszero\n      tag_1\n      jumpi\n      0x00\n      dup1\n      revert\n    tag_1:\n      pop\n      jumpi(tag_2, lt(calldatasize, 0x04))\n      shr(0xe0, calldataload(0x00))\n      dup1\n      0xbd72e4fc\n      eq\n      tag_3\n      jumpi\n      dup1\n      0xc79e65b6\n      eq\n      tag_4\n      jumpi\n      dup1\n      0xeef25f51\n      eq\n      tag_5\n      jumpi\n    tag_2:\n      0x00\n      dup1\n      revert\n        /* \"Day-03/code1.sol\":527:623  function getdefaultvalue() public pure returns(week_days){... */\n    tag_3:\n      tag_6\n      tag_7\n      jump\t// in\n    tag_6:\n      mload(0x40)\n      tag_8\n      swap2\n      swap1\n      tag_9\n      jump\t// in\n    tag_8:\n      mload(0x40)\n      dup1\n      swap2\n      sub\n      swap1\n      return\n        /* \"Day-03/code1.sol\":353:427  function set_Value() public {... */\n    tag_4:\n      tag_10\n      tag_11\n      jump\t// in\n    tag_10:\n      stop\n        /* \"Day-03/code1.sol\":435:519  function get_Choice() public view returns(week_days){... */\n    tag_5:\n      tag_12\n      tag_13\n      jump\t// in\n    tag_12:\n      mload(0x40)\n      tag_14\n      swap2\n      swap1\n      tag_9\n      jump\t// in\n    tag_14:\n      mload(0x40)\n      dup1\n      swap2\n      sub\n      swap1\n      return\n        /* \"Day-03/code1.sol\":527:623  function getdefaultvalue() public pure returns(week_days){... */\n    tag_7:\n        /* \"Day-03/code1.sol\":574:583  week_days */\n      0x00\n        /* \"Day-03/code1.sol\":328:344  week_days.Sunday */\n      0x06\n        /* \"Day-03/code1.sol\":595:615  return default_value */\n      swap1\n      pop\n        /* \"Day-03/code1.sol\":527:623  function getdefaultvalue() public pure returns(week_days){... */\n      swap1\n      jump\t// out\n        /* \"Day-03/code1.sol\":353:427  function set_Value() public {... */\n    tag_11:\n        /* \"Day-03/code1.sol\":401:419  week_days.Thursday */\n      0x03\n        /* \"Day-03/code1.sol\":392:398  choice */\n      0x00\n      0x01\n        /* \"Day-03/code1.sol\":392:419  choice = week_days.Thursday */\n      0x0100\n      exp\n      dup2\n      sload\n      dup2\n      0xff\n      mul\n      not\n      and\n      swap1\n      dup4\n      0x06\n      dup2\n      gt\n      iszero\n      tag_17\n      jumpi\n      tag_18\n      tag_19\n      jump\t// in\n    tag_18:\n    tag_17:\n      mul\n      or\n      swap1\n      sstore\n      pop\n        /* \"Day-03/code1.sol\":353:427  function set_Value() public {... */\n      jump\t// out\n        /* \"Day-03/code1.sol\":435:519  function get_Choice() public view returns(week_days){... */\n    tag_13:\n        /* \"Day-03/code1.sol\":477:486  week_days */\n      0x00\n        /* \"Day-03/code1.sol\":505:511  choice */\n      dup1\n      0x01\n      swap1\n      sload\n      swap1\n      0x0100\n      exp\n      swap1\n      div\n      0xff\n      and\n        /* \"Day-03/code1.sol\":498:511  return choice */\n      swap1\n      pop\n        /* \"Day-03/code1.sol\":435:519  function get_Choice() public view returns(week_days){... */\n      swap1\n      jump\t// out\n        /* \"#utility.yul\":7:187   */\n    tag_19:\n        /* \"#utility.yul\":55:132   */\n      0x4e487b7100000000000000000000000000000000000000000000000000000000\n        /* \"#utility.yul\":52:53   */\n      0x00\n        /* \"#utility.yul\":45:133   */\n      mstore\n        /* \"#utility.yul\":152:156   */\n      0x21\n        /* \"#utility.yul\":149:150   */\n      0x04\n        /* \"#utility.yul\":142:157   */\n      mstore\n        /* \"#utility.yul\":176:180   */\n      0x24\n        /* \"#utility.yul\":173:174   */\n      0x00\n        /* \"#utility.yul\":166:181   */\n      revert\n        /* \"#utility.yul\":193:309   */\n    tag_21:\n        /* \"#utility.yul\":277:278   */\n      0x07\n        /* \"#utility.yul\":270:275   */\n      dup2\n        /* \"#utility.yul\":267:279   */\n      lt\n        /* \"#utility.yul\":257:303   */\n      tag_28\n      jumpi\n        /* \"#utility.yul\":283:301   */\n      tag_29\n      tag_19\n      jump\t// in\n    tag_29:\n        /* \"#utility.yul\":257:303   */\n    tag_28:\n        /* \"#utility.yul\":193:309   */\n      pop\n      jump\t// out\n        /* \"#utility.yul\":315:448   */\n    tag_22:\n        /* \"#utility.yul\":363:370   */\n      0x00\n        /* \"#utility.yul\":392:397   */\n      dup2\n        /* \"#utility.yul\":381:397   */\n      swap1\n      pop\n        /* \"#utility.yul\":398:442   */\n      tag_31\n        /* \"#utility.yul\":436:441   */\n      dup3\n        /* \"#utility.yul\":398:442   */\n      tag_21\n      jump\t// in\n    tag_31:\n        /* \"#utility.yul\":315:448   */\n      swap2\n      swap1\n      pop\n      jump\t// out\n        /* \"#utility.yul\":454:587   */\n    tag_23:\n        /* \"#utility.yul\":513:522   */\n      0x00\n        /* \"#utility.yul\":546:581   */\n      tag_33\n        /* \"#utility.yul\":575:580   */\n      dup3\n        /* \"#utility.yul\":546:581   */\n      tag_22\n      jump\t// in\n    tag_33:\n        /* \"#utility.yul\":533:581   */\n      swap1\n      pop\n        /* \"#utility.yul\":454:587   */\n      swap2\n      swap1\n      pop\n      jump\t// out\n        /* \"#utility.yul\":593:742   */\n    tag_24:\n        /* \"#utility.yul\":689:735   */\n      tag_35\n        /* \"#utility.yul\":729:734   */\n      dup2\n        /* \"#utility.yul\":689:735   */\n      tag_23\n      jump\t// in\n    tag_35:\n        /* \"#utility.yul\":684:687   */\n      dup3\n        /* \"#utility.yul\":677:736   */\n      mstore\n        /* \"#utility.yul\":593:742   */\n      pop\n      pop\n      jump\t// out\n        /* \"#utility.yul\":748:988   */\n    tag_9:\n        /* \"#utility.yul\":850:854   */\n      0x00\n        /* \"#utility.yul\":888:890   */\n      0x20\n        /* \"#utility.yul\":877:886   */\n      dup3\n        /* \"#utility.yul\":873:891   */\n      add\n        /* \"#utility.yul\":865:891   */\n      swap1\n      pop\n        /* \"#utility.yul\":901:981   */\n      tag_37\n        /* \"#utility.yul\":978:979   */\n      0x00\n        /* \"#utility.yul\":967:976   */\n      dup4\n        /* \"#utility.yul\":963:980   */\n      add\n        /* \"#utility.yul\":954:960   */\n      dup5\n        /* \"#utility.yul\":901:981   */\n      tag_24\n      jump\t// in\n    tag_37:\n        /* \"#utility.yul\":748:988   */\n      swap3\n      swap2\n      pop\n      pop\n      jump\t// out\n\n    auxdata: 0xa2646970667358221220962e05f7d63c74f979a2a183109d2684d7afde7bb6ce8dc7fe54049e8bb6e47964736f6c634300081a0033\n}\n",
				"bytecode": {
					"linkReferences": {},
					"object": "6080604052348015600e575f80fd5b506101948061001c5f395ff3fe608060405234801561000f575f80fd5b506004361061003f575f3560e01c8063bd72e4fc14610043578063c79e65b614610061578063eef25f511461006b575b5f80fd5b61004b610089565b6040516100589190610145565b60405180910390f35b610069610091565b005b6100736100bd565b6040516100809190610145565b60405180910390f35b5f6006905090565b60035f60016101000a81548160ff021916908360068111156100b6576100b56100d2565b5b0217905550565b5f8060019054906101000a900460ff16905090565b7f4e487b71000000000000000000000000000000000000000000000000000000005f52602160045260245ffd5b600781106101105761010f6100d2565b5b50565b5f819050610120826100ff565b919050565b5f61012f82610113565b9050919050565b61013f81610125565b82525050565b5f6020820190506101585f830184610136565b9291505056fea2646970667358221220962e05f7d63c74f979a2a183109d2684d7afde7bb6ce8dc7fe54049e8bb6e47964736f6c634300081a0033",
					"opcodes": "PUSH1 0x80 PUSH1 0x40 MSTORE CALLVALUE DUP1 ISZERO PUSH1 0xE JUMPI PUSH0 DUP1 REVERT JUMPDEST POP PUSH2 0x194 DUP1 PUSH2 0x1C PUSH0 CODECOPY PUSH0 RETURN INVALID PUSH1 0x80 PUSH1 0x40 MSTORE CALLVALUE DUP1 ISZERO PUSH2 0xF JUMPI PUSH0 DUP1 REVERT JUMPDEST POP PUSH1 0x4 CALLDATASIZE LT PUSH2 0x3F JUMPI PUSH0 CALLDATALOAD PUSH1 0xE0 SHR DUP1 PUSH4 0xBD72E4FC EQ PUSH2 0x43 JUMPI DUP1 PUSH4 0xC79E65B6 EQ PUSH2 0x61 JUMPI DUP1 PUSH4 0xEEF25F51 EQ PUSH2 0x6B JUMPI JUMPDEST PUSH0 DUP1 REVERT JUMPDEST PUSH2 0x4B PUSH2 0x89 JUMP JUMPDEST PUSH1 0x40 MLOAD PUSH2 0x58 SWAP2 SWAP1 PUSH2 0x145 JUMP JUMPDEST PUSH1 0x40 MLOAD DUP1 SWAP2 SUB SWAP1 RETURN JUMPDEST PUSH2 0x69 PUSH2 0x91 JUMP JUMPDEST STOP JUMPDEST PUSH2 0x73 PUSH2 0xBD JUMP JUMPDEST PUSH1 0x40 MLOAD PUSH2 0x80 SWAP2 SWAP1 PUSH2 0x145 JUMP JUMPDEST PUSH1 0x40 MLOAD DUP1 SWAP2 SUB SWAP1 RETURN JUMPDEST PUSH0 PUSH1 0x6 SWAP1 POP SWAP1 JUMP JUMPDEST PUSH1 0x3 PUSH0 PUSH1 0x1 PUSH2 0x100 EXP DUP2 SLOAD DUP2 PUSH1 0xFF MUL NOT AND SWAP1 DUP4 PUSH1 0x6 DUP2 GT ISZERO PUSH2 0xB6 JUMPI PUSH2 0xB5 PUSH2 0xD2 JUMP JUMPDEST JUMPDEST MUL OR SWAP1 SSTORE POP JUMP JUMPDEST PUSH0 DUP1 PUSH1 0x1 SWAP1 SLOAD SWAP1 PUSH2 0x100 EXP SWAP1 DIV PUSH1 0xFF AND SWAP1 POP SWAP1 JUMP JUMPDEST PUSH32 0x4E487B7100000000000000000000000000000000000000000000000000000000 PUSH0 MSTORE PUSH1 0x21 PUSH1 0x4 MSTORE PUSH1 0x24 PUSH0 REVERT JUMPDEST PUSH1 0x7 DUP2 LT PUSH2 0x110 JUMPI PUSH2 0x10F PUSH2 0xD2 JUMP JUMPDEST JUMPDEST POP JUMP JUMPDEST PUSH0 DUP2 SWAP1 POP PUSH2 0x120 DUP3 PUSH2 0xFF JUMP JUMPDEST SWAP2 SWAP1 POP JUMP JUMPDEST PUSH0 PUSH2 0x12F DUP3 PUSH2 0x113 JUMP JUMPDEST SWAP1 POP SWAP2 SWAP1 POP JUMP JUMPDEST PUSH2 0x13F DUP2 PUSH2 0x125 JUMP JUMPDEST DUP3 MSTORE POP POP JUMP JUMPDEST PUSH0 PUSH1 0x20 DUP3 ADD SWAP1 POP PUSH2 0x158 PUSH0 DUP4 ADD DUP5 PUSH2 0x136 JUMP JUMPDEST SWAP3 SWAP2 POP POP JUMP INVALID LOG2 PUSH5 0x6970667358 0x22 SLT KECCAK256 SWAP7 0x2E SDIV 0xF7 0xD6 EXTCODECOPY PUSH21 0xF979A2A183109D2684D7AFDE7BB6CE8DC7FE54049E DUP12 0xB6 0xE4 PUSH26 0x64736F6C634300081A0033000000000000000000000000000000 "
				},
				"gasEstimates": {
					"creation": {
						"codeDepositCost": "80800",
						"executionCost": "127",
						"totalCost": "80927"
					},
					"external": {
						"get_Choice()": "2634",
						"getdefaultvalue()": "404",
						"set_Value()": "24479"
					}
				},
				"methodIdentifiers": {
					"get_Choice()": "eef25f51",
					"getdefaultvalue()": "bd72e4fc",
					"set_Value()": "c79e65b6"
				}
			},
			"storageLayout": {
				"storage": [
					{
						"astId": 12,
						"contract": "Day-03/code1.sol:Type",
						"label": "week",
						"offset": 0,
						"slot": "0",
						"type": "t_enum(week_days)9"
					},
					{
						"astId": 15,
						"contract": "Day-03/code1.sol:Type",
						"label": "choice",
						"offset": 1,
						"slot": "0",
						"type": "t_enum(week_days)9"
					}
				],
				"types": {
					"t_enum(week_days)9": {
						"encoding": "inplace",
						"label": "enum Type.week_days",
						"numberOfBytes": "1"
					}
				}
			},
			"userdoc": {
				"kind": "user",
				"methods": {},
				"version": 1
			}
		}
	}
}