{
	"Crypto_Selling_dApps/TheBlockchainCoders.sol": {
		"TheBlockchainCoders": {
			"abi": [
				{
					"inputs": [
						{
							"internalType": "uint256",
							"name": "_initialSupply",
							"type": "uint256"
						}
					],
					"stateMutability": "nonpayable",
					"type": "constructor"
				},
				{
					"anonymous": false,
					"inputs": [
						{
							"indexed": true,
							"internalType": "address",
							"name": "_owner",
							"type": "address"
						},
						{
							"indexed": true,
							"internalType": "address",
							"name": "_spender",
							"type": "address"
						},
						{
							"indexed": false,
							"internalType": "uint256",
							"name": "_value",
							"type": "uint256"
						}
					],
					"name": "Approval",
					"type": "event"
				},
				{
					"anonymous": false,
					"inputs": [
						{
							"indexed": true,
							"internalType": "address",
							"name": "_from",
							"type": "address"
						},
						{
							"indexed": true,
							"internalType": "address",
							"name": "_to",
							"type": "address"
						},
						{
							"indexed": false,
							"internalType": "uint256",
							"name": "_value",
							"type": "uint256"
						}
					],
					"name": "Transfer",
					"type": "event"
				},
				{
					"inputs": [
						{
							"internalType": "address",
							"name": "",
							"type": "address"
						}
					],
					"name": "_tokenHolderInfos",
					"outputs": [
						{
							"internalType": "uint256",
							"name": "_tokenId",
							"type": "uint256"
						},
						{
							"internalType": "address",
							"name": "_from",
							"type": "address"
						},
						{
							"internalType": "address",
							"name": "_to",
							"type": "address"
						},
						{
							"internalType": "uint256",
							"name": "_totalToken",
							"type": "uint256"
						},
						{
							"internalType": "bool",
							"name": "_tokenHolder",
							"type": "bool"
						}
					],
					"stateMutability": "view",
					"type": "function"
				},
				{
					"inputs": [],
					"name": "_userId",
					"outputs": [
						{
							"internalType": "uint256",
							"name": "",
							"type": "uint256"
						}
					],
					"stateMutability": "view",
					"type": "function"
				},
				{
					"inputs": [
						{
							"internalType": "address",
							"name": "",
							"type": "address"
						},
						{
							"internalType": "address",
							"name": "",
							"type": "address"
						}
					],
					"name": "allowance",
					"outputs": [
						{
							"internalType": "uint256",
							"name": "",
							"type": "uint256"
						}
					],
					"stateMutability": "view",
					"type": "function"
				},
				{
					"inputs": [
						{
							"internalType": "address",
							"name": "",
							"type": "address"
						}
					],
					"name": "balanceOf",
					"outputs": [
						{
							"internalType": "uint256",
							"name": "",
							"type": "uint256"
						}
					],
					"stateMutability": "view",
					"type": "function"
				},
				{
					"inputs": [],
					"name": "getTokenHolder",
					"outputs": [
						{
							"internalType": "address[]",
							"name": "",
							"type": "address[]"
						}
					],
					"stateMutability": "view",
					"type": "function"
				},
				{
					"inputs": [
						{
							"internalType": "address",
							"name": "_address",
							"type": "address"
						}
					],
					"name": "getTokenHolderData",
					"outputs": [
						{
							"internalType": "uint256",
							"name": "",
							"type": "uint256"
						},
						{
							"internalType": "address",
							"name": "",
							"type": "address"
						},
						{
							"internalType": "address",
							"name": "",
							"type": "address"
						},
						{
							"internalType": "uint256",
							"name": "",
							"type": "uint256"
						},
						{
							"internalType": "bool",
							"name": "",
							"type": "bool"
						}
					],
					"stateMutability": "view",
					"type": "function"
				},
				{
					"inputs": [
						{
							"internalType": "uint256",
							"name": "",
							"type": "uint256"
						}
					],
					"name": "holderToken",
					"outputs": [
						{
							"internalType": "address",
							"name": "",
							"type": "address"
						}
					],
					"stateMutability": "view",
					"type": "function"
				},
				{
					"inputs": [],
					"name": "name",
					"outputs": [
						{
							"internalType": "string",
							"name": "",
							"type": "string"
						}
					],
					"stateMutability": "view",
					"type": "function"
				},
				{
					"inputs": [],
					"name": "ownerOfContract",
					"outputs": [
						{
							"internalType": "address",
							"name": "",
							"type": "address"
						}
					],
					"stateMutability": "view",
					"type": "function"
				},
				{
					"inputs": [],
					"name": "standard",
					"outputs": [
						{
							"internalType": "string",
							"name": "",
							"type": "string"
						}
					],
					"stateMutability": "view",
					"type": "function"
				},
				{
					"inputs": [],
					"name": "symbol",
					"outputs": [
						{
							"internalType": "string",
							"name": "",
							"type": "string"
						}
					],
					"stateMutability": "view",
					"type": "function"
				},
				{
					"inputs": [],
					"name": "totalSupply",
					"outputs": [
						{
							"internalType": "uint256",
							"name": "",
							"type": "uint256"
						}
					],
					"stateMutability": "view",
					"type": "function"
				},
				{
					"inputs": [
						{
							"internalType": "address",
							"name": "_to",
							"type": "address"
						},
						{
							"internalType": "uint256",
							"name": "_value",
							"type": "uint256"
						}
					],
					"name": "transfer",
					"outputs": [
						{
							"internalType": "bool",
							"name": "success",
							"type": "bool"
						}
					],
					"stateMutability": "nonpayable",
					"type": "function"
				},
				{
					"inputs": [
						{
							"internalType": "address",
							"name": "_from",
							"type": "address"
						},
						{
							"internalType": "address",
							"name": "_to",
							"type": "address"
						},
						{
							"internalType": "uint256",
							"name": "_value",
							"type": "uint256"
						}
					],
					"name": "transferFrom",
					"outputs": [
						{
							"internalType": "bool",
							"name": "success",
							"type": "bool"
						}
					],
					"stateMutability": "nonpayable",
					"type": "function"
				}
			],
			"devdoc": {
				"kind": "dev",
				"methods": {},
				"version": 1
			},
			"evm": {
				"assembly": "    /* \"Crypto_Selling_dApps/TheBlockchainCoders.sol\":60:2853  contract TheBlockchainCoders{... */\n  mstore(0x40, 0x80)\n    /* \"Crypto_Selling_dApps/TheBlockchainCoders.sol\":95:139  string public name = \"The Blockchain Coders\" */\n  mload(0x40)\n  dup1\n  0x40\n  add\n  0x40\n  mstore\n  dup1\n  0x15\n  dup2\n  mstore\n  0x20\n  add\n  0x54686520426c6f636b636861696e20436f646572730000000000000000000000\n  dup2\n  mstore\n  pop\n  0x00\n  swap1\n  dup2\n  tag_1\n  swap2\n  swap1\n  tag_2\n  jump\t// in\ntag_1:\n  pop\n    /* \"Crypto_Selling_dApps/TheBlockchainCoders.sol\":146:174  string public symbol = \"TBC\" */\n  mload(0x40)\n  dup1\n  0x40\n  add\n  0x40\n  mstore\n  dup1\n  0x03\n  dup2\n  mstore\n  0x20\n  add\n  0x5442430000000000000000000000000000000000000000000000000000000000\n  dup2\n  mstore\n  pop\n  0x01\n  swap1\n  dup2\n  tag_3\n  swap2\n  swap1\n  tag_2\n  jump\t// in\ntag_3:\n  pop\n    /* \"Crypto_Selling_dApps/TheBlockchainCoders.sol\":181:234  string public standard = \"@theblockchaincoders v.0.1\" */\n  mload(0x40)\n  dup1\n  0x40\n  add\n  0x40\n  mstore\n  dup1\n  0x1a\n  dup2\n  mstore\n  0x20\n  add\n  0x40746865626c6f636b636861696e636f6465727320762e302e31000000000000\n  dup2\n  mstore\n  pop\n  0x02\n  swap1\n  dup2\n  tag_4\n  swap2\n  swap1\n  tag_2\n  jump\t// in\ntag_4:\n  pop\n    /* \"Crypto_Selling_dApps/TheBlockchainCoders.sol\":948:1079  constructor(uint256 _initialSupply){... */\n  callvalue\n  dup1\n  iszero\n  tag_5\n  jumpi\n  0x00\n  dup1\n  revert\ntag_5:\n  pop\n  mload(0x40)\n  sub(codesize, bytecodeSize)\n  dup1\n  bytecodeSize\n  dup4\n  codecopy\n  dup2\n  dup2\n  add\n  0x40\n  mstore\n  dup2\n  add\n  swap1\n  tag_6\n  swap2\n  swap1\n  tag_7\n  jump\t// in\ntag_6:\n    /* \"Crypto_Selling_dApps/TheBlockchainCoders.sol\":1012:1022  msg.sender */\n  caller\n    /* \"Crypto_Selling_dApps/TheBlockchainCoders.sol\":994:1009  ownerOfContract */\n  0x04\n  0x00\n    /* \"Crypto_Selling_dApps/TheBlockchainCoders.sol\":994:1022  ownerOfContract = msg.sender */\n  0x0100\n  exp\n  dup2\n  sload\n  dup2\n  0xffffffffffffffffffffffffffffffffffffffff\n  mul\n  not\n  and\n  swap1\n  dup4\n  0xffffffffffffffffffffffffffffffffffffffff\n  and\n  mul\n  or\n  swap1\n  sstore\n  pop\n    /* \"Crypto_Selling_dApps/TheBlockchainCoders.sol\":1057:1071  _initialSupply */\n  dup1\n    /* \"Crypto_Selling_dApps/TheBlockchainCoders.sol\":1033:1042  balanceOf */\n  0x08\n    /* \"Crypto_Selling_dApps/TheBlockchainCoders.sol\":1033:1054  balanceOf[msg.sender] */\n  0x00\n    /* \"Crypto_Selling_dApps/TheBlockchainCoders.sol\":1043:1053  msg.sender */\n  caller\n    /* \"Crypto_Selling_dApps/TheBlockchainCoders.sol\":1033:1054  balanceOf[msg.sender] */\n  0xffffffffffffffffffffffffffffffffffffffff\n  and\n  0xffffffffffffffffffffffffffffffffffffffff\n  and\n  dup2\n  mstore\n  0x20\n  add\n  swap1\n  dup2\n  mstore\n  0x20\n  add\n  0x00\n  keccak256\n    /* \"Crypto_Selling_dApps/TheBlockchainCoders.sol\":1033:1071  balanceOf[msg.sender] = _initialSupply */\n  dup2\n  swap1\n  sstore\n  pop\n    /* \"Crypto_Selling_dApps/TheBlockchainCoders.sol\":948:1079  constructor(uint256 _initialSupply){... */\n  pop\n    /* \"Crypto_Selling_dApps/TheBlockchainCoders.sol\":60:2853  contract TheBlockchainCoders{... */\n  jump(tag_10)\n    /* \"#utility.yul\":7:106   */\ntag_11:\n    /* \"#utility.yul\":59:65   */\n  0x00\n    /* \"#utility.yul\":93:98   */\n  dup2\n    /* \"#utility.yul\":87:99   */\n  mload\n    /* \"#utility.yul\":77:99   */\n  swap1\n  pop\n    /* \"#utility.yul\":7:106   */\n  swap2\n  swap1\n  pop\n  jump\t// out\n    /* \"#utility.yul\":112:292   */\ntag_12:\n    /* \"#utility.yul\":160:237   */\n  0x4e487b7100000000000000000000000000000000000000000000000000000000\n    /* \"#utility.yul\":157:158   */\n  0x00\n    /* \"#utility.yul\":150:238   */\n  mstore\n    /* \"#utility.yul\":257:261   */\n  0x41\n    /* \"#utility.yul\":254:255   */\n  0x04\n    /* \"#utility.yul\":247:262   */\n  mstore\n    /* \"#utility.yul\":281:285   */\n  0x24\n    /* \"#utility.yul\":278:279   */\n  0x00\n    /* \"#utility.yul\":271:286   */\n  revert\n    /* \"#utility.yul\":298:478   */\ntag_13:\n    /* \"#utility.yul\":346:423   */\n  0x4e487b7100000000000000000000000000000000000000000000000000000000\n    /* \"#utility.yul\":343:344   */\n  0x00\n    /* \"#utility.yul\":336:424   */\n  mstore\n    /* \"#utility.yul\":443:447   */\n  0x22\n    /* \"#utility.yul\":440:441   */\n  0x04\n    /* \"#utility.yul\":433:448   */\n  mstore\n    /* \"#utility.yul\":467:471   */\n  0x24\n    /* \"#utility.yul\":464:465   */\n  0x00\n    /* \"#utility.yul\":457:472   */\n  revert\n    /* \"#utility.yul\":484:804   */\ntag_14:\n    /* \"#utility.yul\":528:534   */\n  0x00\n    /* \"#utility.yul\":565:566   */\n  0x02\n    /* \"#utility.yul\":559:563   */\n  dup3\n    /* \"#utility.yul\":555:567   */\n  div\n    /* \"#utility.yul\":545:567   */\n  swap1\n  pop\n    /* \"#utility.yul\":612:613   */\n  0x01\n    /* \"#utility.yul\":606:610   */\n  dup3\n    /* \"#utility.yul\":602:614   */\n  and\n    /* \"#utility.yul\":633:651   */\n  dup1\n    /* \"#utility.yul\":623:704   */\n  tag_41\n  jumpi\n    /* \"#utility.yul\":689:693   */\n  0x7f\n    /* \"#utility.yul\":681:687   */\n  dup3\n    /* \"#utility.yul\":677:694   */\n  and\n    /* \"#utility.yul\":667:694   */\n  swap2\n  pop\n    /* \"#utility.yul\":623:704   */\ntag_41:\n    /* \"#utility.yul\":751:753   */\n  0x20\n    /* \"#utility.yul\":743:749   */\n  dup3\n    /* \"#utility.yul\":740:754   */\n  lt\n    /* \"#utility.yul\":720:738   */\n  dup2\n    /* \"#utility.yul\":717:755   */\n  sub\n    /* \"#utility.yul\":714:798   */\n  tag_42\n  jumpi\n    /* \"#utility.yul\":770:788   */\n  tag_43\n  tag_13\n  jump\t// in\ntag_43:\n    /* \"#utility.yul\":714:798   */\ntag_42:\n    /* \"#utility.yul\":535:804   */\n  pop\n    /* \"#utility.yul\":484:804   */\n  swap2\n  swap1\n  pop\n  jump\t// out\n    /* \"#utility.yul\":810:951   */\ntag_15:\n    /* \"#utility.yul\":859:863   */\n  0x00\n    /* \"#utility.yul\":882:885   */\n  dup2\n    /* \"#utility.yul\":874:885   */\n  swap1\n  pop\n    /* \"#utility.yul\":905:908   */\n  dup2\n    /* \"#utility.yul\":902:903   */\n  0x00\n    /* \"#utility.yul\":895:909   */\n  mstore\n    /* \"#utility.yul\":939:943   */\n  0x20\n    /* \"#utility.yul\":936:937   */\n  0x00\n    /* \"#utility.yul\":926:944   */\n  keccak256\n    /* \"#utility.yul\":918:944   */\n  swap1\n  pop\n    /* \"#utility.yul\":810:951   */\n  swap2\n  swap1\n  pop\n  jump\t// out\n    /* \"#utility.yul\":957:1050   */\ntag_16:\n    /* \"#utility.yul\":994:1000   */\n  0x00\n    /* \"#utility.yul\":1041:1043   */\n  0x20\n    /* \"#utility.yul\":1036:1038   */\n  0x1f\n    /* \"#utility.yul\":1029:1034   */\n  dup4\n    /* \"#utility.yul\":1025:1039   */\n  add\n    /* \"#utility.yul\":1021:1044   */\n  div\n    /* \"#utility.yul\":1011:1044   */\n  swap1\n  pop\n    /* \"#utility.yul\":957:1050   */\n  swap2\n  swap1\n  pop\n  jump\t// out\n    /* \"#utility.yul\":1056:1163   */\ntag_17:\n    /* \"#utility.yul\":1100:1108   */\n  0x00\n    /* \"#utility.yul\":1150:1155   */\n  dup3\n    /* \"#utility.yul\":1144:1148   */\n  dup3\n    /* \"#utility.yul\":1140:1156   */\n  shl\n    /* \"#utility.yul\":1119:1156   */\n  swap1\n  pop\n    /* \"#utility.yul\":1056:1163   */\n  swap3\n  swap2\n  pop\n  pop\n  jump\t// out\n    /* \"#utility.yul\":1169:1562   */\ntag_18:\n    /* \"#utility.yul\":1238:1244   */\n  0x00\n    /* \"#utility.yul\":1288:1289   */\n  0x08\n    /* \"#utility.yul\":1276:1286   */\n  dup4\n    /* \"#utility.yul\":1272:1290   */\n  mul\n    /* \"#utility.yul\":1311:1408   */\n  tag_48\n    /* \"#utility.yul\":1341:1407   */\n  0xffffffffffffffffffffffffffffffffffffffffffffffffffffffffffffffff\n    /* \"#utility.yul\":1330:1339   */\n  dup3\n    /* \"#utility.yul\":1311:1408   */\n  tag_17\n  jump\t// in\ntag_48:\n    /* \"#utility.yul\":1429:1468   */\n  tag_49\n    /* \"#utility.yul\":1459:1467   */\n  dup7\n    /* \"#utility.yul\":1448:1457   */\n  dup4\n    /* \"#utility.yul\":1429:1468   */\n  tag_17\n  jump\t// in\ntag_49:\n    /* \"#utility.yul\":1417:1468   */\n  swap6\n  pop\n    /* \"#utility.yul\":1501:1505   */\n  dup1\n    /* \"#utility.yul\":1497:1506   */\n  not\n    /* \"#utility.yul\":1490:1495   */\n  dup5\n    /* \"#utility.yul\":1486:1507   */\n  and\n    /* \"#utility.yul\":1477:1507   */\n  swap4\n  pop\n    /* \"#utility.yul\":1550:1554   */\n  dup1\n    /* \"#utility.yul\":1540:1548   */\n  dup7\n    /* \"#utility.yul\":1536:1555   */\n  and\n    /* \"#utility.yul\":1529:1534   */\n  dup5\n    /* \"#utility.yul\":1526:1556   */\n  or\n    /* \"#utility.yul\":1516:1556   */\n  swap3\n  pop\n    /* \"#utility.yul\":1245:1562   */\n  pop\n  pop\n    /* \"#utility.yul\":1169:1562   */\n  swap4\n  swap3\n  pop\n  pop\n  pop\n  jump\t// out\n    /* \"#utility.yul\":1568:1645   */\ntag_19:\n    /* \"#utility.yul\":1605:1612   */\n  0x00\n    /* \"#utility.yul\":1634:1639   */\n  dup2\n    /* \"#utility.yul\":1623:1639   */\n  swap1\n  pop\n    /* \"#utility.yul\":1568:1645   */\n  swap2\n  swap1\n  pop\n  jump\t// out\n    /* \"#utility.yul\":1651:1711   */\ntag_20:\n    /* \"#utility.yul\":1679:1682   */\n  0x00\n    /* \"#utility.yul\":1700:1705   */\n  dup2\n    /* \"#utility.yul\":1693:1705   */\n  swap1\n  pop\n    /* \"#utility.yul\":1651:1711   */\n  swap2\n  swap1\n  pop\n  jump\t// out\n    /* \"#utility.yul\":1717:1859   */\ntag_21:\n    /* \"#utility.yul\":1767:1776   */\n  0x00\n    /* \"#utility.yul\":1800:1853   */\n  tag_53\n    /* \"#utility.yul\":1818:1852   */\n  tag_54\n    /* \"#utility.yul\":1827:1851   */\n  tag_55\n    /* \"#utility.yul\":1845:1850   */\n  dup5\n    /* \"#utility.yul\":1827:1851   */\n  tag_19\n  jump\t// in\ntag_55:\n    /* \"#utility.yul\":1818:1852   */\n  tag_20\n  jump\t// in\ntag_54:\n    /* \"#utility.yul\":1800:1853   */\n  tag_19\n  jump\t// in\ntag_53:\n    /* \"#utility.yul\":1787:1853   */\n  swap1\n  pop\n    /* \"#utility.yul\":1717:1859   */\n  swap2\n  swap1\n  pop\n  jump\t// out\n    /* \"#utility.yul\":1865:1940   */\ntag_22:\n    /* \"#utility.yul\":1908:1911   */\n  0x00\n    /* \"#utility.yul\":1929:1934   */\n  dup2\n    /* \"#utility.yul\":1922:1934   */\n  swap1\n  pop\n    /* \"#utility.yul\":1865:1940   */\n  swap2\n  swap1\n  pop\n  jump\t// out\n    /* \"#utility.yul\":1946:2215   */\ntag_23:\n    /* \"#utility.yul\":2056:2095   */\n  tag_58\n    /* \"#utility.yul\":2087:2094   */\n  dup4\n    /* \"#utility.yul\":2056:2095   */\n  tag_21\n  jump\t// in\ntag_58:\n    /* \"#utility.yul\":2117:2208   */\n  tag_59\n    /* \"#utility.yul\":2166:2207   */\n  tag_60\n    /* \"#utility.yul\":2190:2206   */\n  dup3\n    /* \"#utility.yul\":2166:2207   */\n  tag_22\n  jump\t// in\ntag_60:\n    /* \"#utility.yul\":2158:2164   */\n  dup5\n    /* \"#utility.yul\":2151:2155   */\n  dup5\n    /* \"#utility.yul\":2145:2156   */\n  sload\n    /* \"#utility.yul\":2117:2208   */\n  tag_18\n  jump\t// in\ntag_59:\n    /* \"#utility.yul\":2111:2115   */\n  dup3\n    /* \"#utility.yul\":2104:2209   */\n  sstore\n    /* \"#utility.yul\":2022:2215   */\n  pop\n    /* \"#utility.yul\":1946:2215   */\n  pop\n  pop\n  pop\n  jump\t// out\n    /* \"#utility.yul\":2221:2294   */\ntag_24:\n    /* \"#utility.yul\":2266:2269   */\n  0x00\n    /* \"#utility.yul\":2221:2294   */\n  swap1\n  jump\t// out\n    /* \"#utility.yul\":2300:2489   */\ntag_25:\n    /* \"#utility.yul\":2377:2409   */\n  tag_63\n  tag_24\n  jump\t// in\ntag_63:\n    /* \"#utility.yul\":2418:2483   */\n  tag_64\n    /* \"#utility.yul\":2476:2482   */\n  dup2\n    /* \"#utility.yul\":2468:2474   */\n  dup5\n    /* \"#utility.yul\":2462:2466   */\n  dup5\n    /* \"#utility.yul\":2418:2483   */\n  tag_23\n  jump\t// in\ntag_64:\n    /* \"#utility.yul\":2353:2489   */\n  pop\n    /* \"#utility.yul\":2300:2489   */\n  pop\n  pop\n  jump\t// out\n    /* \"#utility.yul\":2495:2681   */\ntag_26:\n    /* \"#utility.yul\":2555:2675   */\ntag_66:\n    /* \"#utility.yul\":2572:2575   */\n  dup2\n    /* \"#utility.yul\":2565:2570   */\n  dup2\n    /* \"#utility.yul\":2562:2576   */\n  lt\n    /* \"#utility.yul\":2555:2675   */\n  iszero\n  tag_68\n  jumpi\n    /* \"#utility.yul\":2626:2665   */\n  tag_69\n    /* \"#utility.yul\":2663:2664   */\n  0x00\n    /* \"#utility.yul\":2656:2661   */\n  dup3\n    /* \"#utility.yul\":2626:2665   */\n  tag_25\n  jump\t// in\ntag_69:\n    /* \"#utility.yul\":2599:2600   */\n  0x01\n    /* \"#utility.yul\":2592:2597   */\n  dup2\n    /* \"#utility.yul\":2588:2601   */\n  add\n    /* \"#utility.yul\":2579:2601   */\n  swap1\n  pop\n    /* \"#utility.yul\":2555:2675   */\n  jump(tag_66)\ntag_68:\n    /* \"#utility.yul\":2495:2681   */\n  pop\n  pop\n  jump\t// out\n    /* \"#utility.yul\":2687:3230   */\ntag_27:\n    /* \"#utility.yul\":2788:2790   */\n  0x1f\n    /* \"#utility.yul\":2783:2786   */\n  dup3\n    /* \"#utility.yul\":2780:2791   */\n  gt\n    /* \"#utility.yul\":2777:3223   */\n  iszero\n  tag_71\n  jumpi\n    /* \"#utility.yul\":2822:2860   */\n  tag_72\n    /* \"#utility.yul\":2854:2859   */\n  dup2\n    /* \"#utility.yul\":2822:2860   */\n  tag_15\n  jump\t// in\ntag_72:\n    /* \"#utility.yul\":2906:2935   */\n  tag_73\n    /* \"#utility.yul\":2924:2934   */\n  dup5\n    /* \"#utility.yul\":2906:2935   */\n  tag_16\n  jump\t// in\ntag_73:\n    /* \"#utility.yul\":2896:2904   */\n  dup2\n    /* \"#utility.yul\":2892:2936   */\n  add\n    /* \"#utility.yul\":3089:3091   */\n  0x20\n    /* \"#utility.yul\":3077:3087   */\n  dup6\n    /* \"#utility.yul\":3074:3092   */\n  lt\n    /* \"#utility.yul\":3071:3120   */\n  iszero\n  tag_74\n  jumpi\n    /* \"#utility.yul\":3110:3118   */\n  dup2\n    /* \"#utility.yul\":3095:3118   */\n  swap1\n  pop\n    /* \"#utility.yul\":3071:3120   */\ntag_74:\n    /* \"#utility.yul\":3133:3213   */\n  tag_75\n    /* \"#utility.yul\":3189:3211   */\n  tag_76\n    /* \"#utility.yul\":3207:3210   */\n  dup6\n    /* \"#utility.yul\":3189:3211   */\n  tag_16\n  jump\t// in\ntag_76:\n    /* \"#utility.yul\":3179:3187   */\n  dup4\n    /* \"#utility.yul\":3175:3212   */\n  add\n    /* \"#utility.yul\":3162:3173   */\n  dup3\n    /* \"#utility.yul\":3133:3213   */\n  tag_26\n  jump\t// in\ntag_75:\n    /* \"#utility.yul\":2792:3223   */\n  pop\n  pop\n    /* \"#utility.yul\":2777:3223   */\ntag_71:\n    /* \"#utility.yul\":2687:3230   */\n  pop\n  pop\n  pop\n  jump\t// out\n    /* \"#utility.yul\":3236:3353   */\ntag_28:\n    /* \"#utility.yul\":3290:3298   */\n  0x00\n    /* \"#utility.yul\":3340:3345   */\n  dup3\n    /* \"#utility.yul\":3334:3338   */\n  dup3\n    /* \"#utility.yul\":3330:3346   */\n  shr\n    /* \"#utility.yul\":3309:3346   */\n  swap1\n  pop\n    /* \"#utility.yul\":3236:3353   */\n  swap3\n  swap2\n  pop\n  pop\n  jump\t// out\n    /* \"#utility.yul\":3359:3528   */\ntag_29:\n    /* \"#utility.yul\":3403:3409   */\n  0x00\n    /* \"#utility.yul\":3436:3487   */\n  tag_79\n    /* \"#utility.yul\":3484:3485   */\n  0x00\n    /* \"#utility.yul\":3480:3486   */\n  not\n    /* \"#utility.yul\":3472:3477   */\n  dup5\n    /* \"#utility.yul\":3469:3470   */\n  0x08\n    /* \"#utility.yul\":3465:3478   */\n  mul\n    /* \"#utility.yul\":3436:3487   */\n  tag_28\n  jump\t// in\ntag_79:\n    /* \"#utility.yul\":3432:3488   */\n  not\n    /* \"#utility.yul\":3517:3521   */\n  dup1\n    /* \"#utility.yul\":3511:3515   */\n  dup4\n    /* \"#utility.yul\":3507:3522   */\n  and\n    /* \"#utility.yul\":3497:3522   */\n  swap2\n  pop\n    /* \"#utility.yul\":3410:3528   */\n  pop\n    /* \"#utility.yul\":3359:3528   */\n  swap3\n  swap2\n  pop\n  pop\n  jump\t// out\n    /* \"#utility.yul\":3533:3828   */\ntag_30:\n    /* \"#utility.yul\":3609:3613   */\n  0x00\n    /* \"#utility.yul\":3755:3784   */\n  tag_81\n    /* \"#utility.yul\":3780:3783   */\n  dup4\n    /* \"#utility.yul\":3774:3778   */\n  dup4\n    /* \"#utility.yul\":3755:3784   */\n  tag_29\n  jump\t// in\ntag_81:\n    /* \"#utility.yul\":3747:3784   */\n  swap2\n  pop\n    /* \"#utility.yul\":3817:3820   */\n  dup3\n    /* \"#utility.yul\":3814:3815   */\n  0x02\n    /* \"#utility.yul\":3810:3821   */\n  mul\n    /* \"#utility.yul\":3804:3808   */\n  dup3\n    /* \"#utility.yul\":3801:3822   */\n  or\n    /* \"#utility.yul\":3793:3822   */\n  swap1\n  pop\n    /* \"#utility.yul\":3533:3828   */\n  swap3\n  swap2\n  pop\n  pop\n  jump\t// out\n    /* \"#utility.yul\":3833:5228   */\ntag_2:\n    /* \"#utility.yul\":3950:3987   */\n  tag_83\n    /* \"#utility.yul\":3983:3986   */\n  dup3\n    /* \"#utility.yul\":3950:3987   */\n  tag_11\n  jump\t// in\ntag_83:\n    /* \"#utility.yul\":4052:4070   */\n  0xffffffffffffffff\n    /* \"#utility.yul\":4044:4050   */\n  dup2\n    /* \"#utility.yul\":4041:4071   */\n  gt\n    /* \"#utility.yul\":4038:4094   */\n  iszero\n  tag_84\n  jumpi\n    /* \"#utility.yul\":4074:4092   */\n  tag_85\n  tag_12\n  jump\t// in\ntag_85:\n    /* \"#utility.yul\":4038:4094   */\ntag_84:\n    /* \"#utility.yul\":4118:4156   */\n  tag_86\n    /* \"#utility.yul\":4150:4154   */\n  dup3\n    /* \"#utility.yul\":4144:4155   */\n  sload\n    /* \"#utility.yul\":4118:4156   */\n  tag_14\n  jump\t// in\ntag_86:\n    /* \"#utility.yul\":4203:4270   */\n  tag_87\n    /* \"#utility.yul\":4263:4269   */\n  dup3\n    /* \"#utility.yul\":4255:4261   */\n  dup3\n    /* \"#utility.yul\":4249:4253   */\n  dup6\n    /* \"#utility.yul\":4203:4270   */\n  tag_27\n  jump\t// in\ntag_87:\n    /* \"#utility.yul\":4297:4298   */\n  0x00\n    /* \"#utility.yul\":4321:4325   */\n  0x20\n    /* \"#utility.yul\":4308:4325   */\n  swap1\n  pop\n    /* \"#utility.yul\":4353:4355   */\n  0x1f\n    /* \"#utility.yul\":4345:4351   */\n  dup4\n    /* \"#utility.yul\":4342:4356   */\n  gt\n    /* \"#utility.yul\":4370:4371   */\n  0x01\n    /* \"#utility.yul\":4365:4983   */\n  dup2\n  eq\n  tag_89\n  jumpi\n    /* \"#utility.yul\":5027:5028   */\n  0x00\n    /* \"#utility.yul\":5044:5050   */\n  dup5\n    /* \"#utility.yul\":5041:5118   */\n  iszero\n  tag_90\n  jumpi\n    /* \"#utility.yul\":5093:5102   */\n  dup3\n    /* \"#utility.yul\":5088:5091   */\n  dup8\n    /* \"#utility.yul\":5084:5103   */\n  add\n    /* \"#utility.yul\":5078:5104   */\n  mload\n    /* \"#utility.yul\":5069:5104   */\n  swap1\n  pop\n    /* \"#utility.yul\":5041:5118   */\ntag_90:\n    /* \"#utility.yul\":5144:5211   */\n  tag_91\n    /* \"#utility.yul\":5204:5210   */\n  dup6\n    /* \"#utility.yul\":5197:5202   */\n  dup3\n    /* \"#utility.yul\":5144:5211   */\n  tag_30\n  jump\t// in\ntag_91:\n    /* \"#utility.yul\":5138:5142   */\n  dup7\n    /* \"#utility.yul\":5131:5212   */\n  sstore\n    /* \"#utility.yul\":5000:5222   */\n  pop\n    /* \"#utility.yul\":4335:5222   */\n  jump(tag_88)\n    /* \"#utility.yul\":4365:4983   */\ntag_89:\n    /* \"#utility.yul\":4417:4421   */\n  0x1f\n    /* \"#utility.yul\":4413:4422   */\n  not\n    /* \"#utility.yul\":4405:4411   */\n  dup5\n    /* \"#utility.yul\":4401:4423   */\n  and\n    /* \"#utility.yul\":4451:4488   */\n  tag_92\n    /* \"#utility.yul\":4483:4487   */\n  dup7\n    /* \"#utility.yul\":4451:4488   */\n  tag_15\n  jump\t// in\ntag_92:\n    /* \"#utility.yul\":4510:4511   */\n  0x00\n    /* \"#utility.yul\":4524:4732   */\ntag_93:\n    /* \"#utility.yul\":4538:4545   */\n  dup3\n    /* \"#utility.yul\":4535:4536   */\n  dup2\n    /* \"#utility.yul\":4532:4546   */\n  lt\n    /* \"#utility.yul\":4524:4732   */\n  iszero\n  tag_95\n  jumpi\n    /* \"#utility.yul\":4617:4626   */\n  dup5\n    /* \"#utility.yul\":4612:4615   */\n  dup10\n    /* \"#utility.yul\":4608:4627   */\n  add\n    /* \"#utility.yul\":4602:4628   */\n  mload\n    /* \"#utility.yul\":4594:4600   */\n  dup3\n    /* \"#utility.yul\":4587:4629   */\n  sstore\n    /* \"#utility.yul\":4668:4669   */\n  0x01\n    /* \"#utility.yul\":4660:4666   */\n  dup3\n    /* \"#utility.yul\":4656:4670   */\n  add\n    /* \"#utility.yul\":4646:4670   */\n  swap2\n  pop\n    /* \"#utility.yul\":4715:4717   */\n  0x20\n    /* \"#utility.yul\":4704:4713   */\n  dup6\n    /* \"#utility.yul\":4700:4718   */\n  add\n    /* \"#utility.yul\":4687:4718   */\n  swap5\n  pop\n    /* \"#utility.yul\":4561:4565   */\n  0x20\n    /* \"#utility.yul\":4558:4559   */\n  dup2\n    /* \"#utility.yul\":4554:4566   */\n  add\n    /* \"#utility.yul\":4549:4566   */\n  swap1\n  pop\n    /* \"#utility.yul\":4524:4732   */\n  jump(tag_93)\ntag_95:\n    /* \"#utility.yul\":4760:4766   */\n  dup7\n    /* \"#utility.yul\":4751:4758   */\n  dup4\n    /* \"#utility.yul\":4748:4767   */\n  lt\n    /* \"#utility.yul\":4745:4924   */\n  iszero\n  tag_96\n  jumpi\n    /* \"#utility.yul\":4818:4827   */\n  dup5\n    /* \"#utility.yul\":4813:4816   */\n  dup10\n    /* \"#utility.yul\":4809:4828   */\n  add\n    /* \"#utility.yul\":4803:4829   */\n  mload\n    /* \"#utility.yul\":4861:4909   */\n  tag_97\n    /* \"#utility.yul\":4903:4907   */\n  0x1f\n    /* \"#utility.yul\":4895:4901   */\n  dup10\n    /* \"#utility.yul\":4891:4908   */\n  and\n    /* \"#utility.yul\":4880:4889   */\n  dup3\n    /* \"#utility.yul\":4861:4909   */\n  tag_29\n  jump\t// in\ntag_97:\n    /* \"#utility.yul\":4853:4859   */\n  dup4\n    /* \"#utility.yul\":4846:4910   */\n  sstore\n    /* \"#utility.yul\":4768:4924   */\n  pop\n    /* \"#utility.yul\":4745:4924   */\ntag_96:\n    /* \"#utility.yul\":4970:4971   */\n  0x01\n    /* \"#utility.yul\":4966:4967   */\n  0x02\n    /* \"#utility.yul\":4958:4964   */\n  dup9\n    /* \"#utility.yul\":4954:4968   */\n  mul\n    /* \"#utility.yul\":4950:4972   */\n  add\n    /* \"#utility.yul\":4944:4948   */\n  dup9\n    /* \"#utility.yul\":4937:4973   */\n  sstore\n    /* \"#utility.yul\":4372:4983   */\n  pop\n  pop\n  pop\n    /* \"#utility.yul\":4335:5222   */\ntag_88:\n  pop\n    /* \"#utility.yul\":3925:5228   */\n  pop\n  pop\n  pop\n    /* \"#utility.yul\":3833:5228   */\n  pop\n  pop\n  jump\t// out\n    /* \"#utility.yul\":5315:5432   */\ntag_32:\n    /* \"#utility.yul\":5424:5425   */\n  0x00\n    /* \"#utility.yul\":5421:5422   */\n  dup1\n    /* \"#utility.yul\":5414:5426   */\n  revert\n    /* \"#utility.yul\":5561:5683   */\ntag_34:\n    /* \"#utility.yul\":5634:5658   */\n  tag_102\n    /* \"#utility.yul\":5652:5657   */\n  dup2\n    /* \"#utility.yul\":5634:5658   */\n  tag_19\n  jump\t// in\ntag_102:\n    /* \"#utility.yul\":5627:5632   */\n  dup2\n    /* \"#utility.yul\":5624:5659   */\n  eq\n    /* \"#utility.yul\":5614:5677   */\n  tag_103\n  jumpi\n    /* \"#utility.yul\":5673:5674   */\n  0x00\n    /* \"#utility.yul\":5670:5671   */\n  dup1\n    /* \"#utility.yul\":5663:5675   */\n  revert\n    /* \"#utility.yul\":5614:5677   */\ntag_103:\n    /* \"#utility.yul\":5561:5683   */\n  pop\n  jump\t// out\n    /* \"#utility.yul\":5689:5832   */\ntag_35:\n    /* \"#utility.yul\":5746:5751   */\n  0x00\n    /* \"#utility.yul\":5777:5783   */\n  dup2\n    /* \"#utility.yul\":5771:5784   */\n  mload\n    /* \"#utility.yul\":5762:5784   */\n  swap1\n  pop\n    /* \"#utility.yul\":5793:5826   */\n  tag_105\n    /* \"#utility.yul\":5820:5825   */\n  dup2\n    /* \"#utility.yul\":5793:5826   */\n  tag_34\n  jump\t// in\ntag_105:\n    /* \"#utility.yul\":5689:5832   */\n  swap3\n  swap2\n  pop\n  pop\n  jump\t// out\n    /* \"#utility.yul\":5838:6189   */\ntag_7:\n    /* \"#utility.yul\":5908:5914   */\n  0x00\n    /* \"#utility.yul\":5957:5959   */\n  0x20\n    /* \"#utility.yul\":5945:5954   */\n  dup3\n    /* \"#utility.yul\":5936:5943   */\n  dup5\n    /* \"#utility.yul\":5932:5955   */\n  sub\n    /* \"#utility.yul\":5928:5960   */\n  slt\n    /* \"#utility.yul\":5925:6044   */\n  iszero\n  tag_107\n  jumpi\n    /* \"#utility.yul\":5963:6042   */\n  tag_108\n  tag_32\n  jump\t// in\ntag_108:\n    /* \"#utility.yul\":5925:6044   */\ntag_107:\n    /* \"#utility.yul\":6083:6084   */\n  0x00\n    /* \"#utility.yul\":6108:6172   */\n  tag_109\n    /* \"#utility.yul\":6164:6171   */\n  dup5\n    /* \"#utility.yul\":6155:6161   */\n  dup3\n    /* \"#utility.yul\":6144:6153   */\n  dup6\n    /* \"#utility.yul\":6140:6162   */\n  add\n    /* \"#utility.yul\":6108:6172   */\n  tag_35\n  jump\t// in\ntag_109:\n    /* \"#utility.yul\":6098:6172   */\n  swap2\n  pop\n    /* \"#utility.yul\":6054:6182   */\n  pop\n    /* \"#utility.yul\":5838:6189   */\n  swap3\n  swap2\n  pop\n  pop\n  jump\t// out\n    /* \"Crypto_Selling_dApps/TheBlockchainCoders.sol\":60:2853  contract TheBlockchainCoders{... */\ntag_10:\n  dataSize(sub_0)\n  dup1\n  dataOffset(sub_0)\n  0x00\n  codecopy\n  0x00\n  return\nstop\n\nsub_0: assembly {\n        /* \"Crypto_Selling_dApps/TheBlockchainCoders.sol\":60:2853  contract TheBlockchainCoders{... */\n      mstore(0x40, 0x80)\n      callvalue\n      dup1\n      iszero\n      tag_1\n      jumpi\n      0x00\n      dup1\n      revert\n    tag_1:\n      pop\n      jumpi(tag_2, lt(calldatasize, 0x04))\n      shr(0xe0, calldataload(0x00))\n      dup1\n      0x79a5bd95\n      gt\n      tag_17\n      jumpi\n      dup1\n      0xa9059cbb\n      gt\n      tag_18\n      jumpi\n      dup1\n      0xa9059cbb\n      eq\n      tag_13\n      jumpi\n      dup1\n      0xba8e3557\n      eq\n      tag_14\n      jumpi\n      dup1\n      0xbc4530e7\n      eq\n      tag_15\n      jumpi\n      dup1\n      0xdd62ed3e\n      eq\n      tag_16\n      jumpi\n      jump(tag_2)\n    tag_18:\n      dup1\n      0x79a5bd95\n      eq\n      tag_10\n      jumpi\n      dup1\n      0x82b68263\n      eq\n      tag_11\n      jumpi\n      dup1\n      0x95d89b41\n      eq\n      tag_12\n      jumpi\n      jump(tag_2)\n    tag_17:\n      dup1\n      0x468229ae\n      gt\n      tag_19\n      jumpi\n      dup1\n      0x468229ae\n      eq\n      tag_6\n      jumpi\n      dup1\n      0x5a3b7e42\n      eq\n      tag_7\n      jumpi\n      dup1\n      0x70a08231\n      eq\n      tag_8\n      jumpi\n      dup1\n      0x760b06c5\n      eq\n      tag_9\n      jumpi\n      jump(tag_2)\n    tag_19:\n      dup1\n      0x06fdde03\n      eq\n      tag_3\n      jumpi\n      dup1\n      0x18160ddd\n      eq\n      tag_4\n      jumpi\n      dup1\n      0x23b872dd\n      eq\n      tag_5\n      jumpi\n    tag_2:\n      0x00\n      dup1\n      revert\n        /* \"Crypto_Selling_dApps/TheBlockchainCoders.sol\":95:139  string public name = \"The Blockchain Coders\" */\n    tag_3:\n      tag_20\n      tag_21\n      jump\t// in\n    tag_20:\n      mload(0x40)\n      tag_22\n      swap2\n      swap1\n      tag_23\n      jump\t// in\n    tag_22:\n      mload(0x40)\n      dup1\n      swap2\n      sub\n      swap1\n      return\n        /* \"Crypto_Selling_dApps/TheBlockchainCoders.sol\":241:267  uint256 public totalSupply */\n    tag_4:\n      tag_24\n      tag_25\n      jump\t// in\n    tag_24:\n      mload(0x40)\n      tag_26\n      swap2\n      swap1\n      tag_27\n      jump\t// in\n    tag_26:\n      mload(0x40)\n      dup1\n      swap2\n      sub\n      swap1\n      return\n        /* \"Crypto_Selling_dApps/TheBlockchainCoders.sol\":1906:2308  function transferFrom(address _from, address _to, uint256 _value) public returns(bool success){... */\n    tag_5:\n      tag_28\n      0x04\n      dup1\n      calldatasize\n      sub\n      dup2\n      add\n      swap1\n      tag_29\n      swap2\n      swap1\n      tag_30\n      jump\t// in\n    tag_29:\n      tag_31\n      jump\t// in\n    tag_28:\n      mload(0x40)\n      tag_32\n      swap2\n      swap1\n      tag_33\n      jump\t// in\n    tag_32:\n      mload(0x40)\n      dup1\n      swap2\n      sub\n      swap1\n      return\n        /* \"Crypto_Selling_dApps/TheBlockchainCoders.sol\":274:304  address public ownerOfContract */\n    tag_6:\n      tag_34\n      tag_35\n      jump\t// in\n    tag_34:\n      mload(0x40)\n      tag_36\n      swap2\n      swap1\n      tag_37\n      jump\t// in\n    tag_36:\n      mload(0x40)\n      dup1\n      swap2\n      sub\n      swap1\n      return\n        /* \"Crypto_Selling_dApps/TheBlockchainCoders.sol\":181:234  string public standard = \"@theblockchaincoders v.0.1\" */\n    tag_7:\n      tag_38\n      tag_39\n      jump\t// in\n    tag_38:\n      mload(0x40)\n      tag_40\n      swap2\n      swap1\n      tag_23\n      jump\t// in\n    tag_40:\n      mload(0x40)\n      dup1\n      swap2\n      sub\n      swap1\n      return\n        /* \"Crypto_Selling_dApps/TheBlockchainCoders.sol\":823:867  mapping(address => uint256) public balanceOf */\n    tag_8:\n      tag_41\n      0x04\n      dup1\n      calldatasize\n      sub\n      dup2\n      add\n      swap1\n      tag_42\n      swap2\n      swap1\n      tag_43\n      jump\t// in\n    tag_42:\n      tag_44\n      jump\t// in\n    tag_41:\n      mload(0x40)\n      tag_45\n      swap2\n      swap1\n      tag_27\n      jump\t// in\n    tag_45:\n      mload(0x40)\n      dup1\n      swap2\n      sub\n      swap1\n      return\n        /* \"Crypto_Selling_dApps/TheBlockchainCoders.sol\":342:370  address[] public holderToken */\n    tag_9:\n      tag_46\n      0x04\n      dup1\n      calldatasize\n      sub\n      dup2\n      add\n      swap1\n      tag_47\n      swap2\n      swap1\n      tag_48\n      jump\t// in\n    tag_47:\n      tag_49\n      jump\t// in\n    tag_46:\n      mload(0x40)\n      tag_50\n      swap2\n      swap1\n      tag_37\n      jump\t// in\n    tag_50:\n      mload(0x40)\n      dup1\n      swap2\n      sub\n      swap1\n      return\n        /* \"Crypto_Selling_dApps/TheBlockchainCoders.sol\":585:645  mapping(address => TokenHolderInfo) public _tokenHolderInfos */\n    tag_10:\n      tag_51\n      0x04\n      dup1\n      calldatasize\n      sub\n      dup2\n      add\n      swap1\n      tag_52\n      swap2\n      swap1\n      tag_43\n      jump\t// in\n    tag_52:\n      tag_53\n      jump\t// in\n    tag_51:\n      mload(0x40)\n      tag_54\n      swap6\n      swap5\n      swap4\n      swap3\n      swap2\n      swap1\n      tag_55\n      jump\t// in\n    tag_54:\n      mload(0x40)\n      dup1\n      swap2\n      sub\n      swap1\n      return\n        /* \"Crypto_Selling_dApps/TheBlockchainCoders.sol\":2345:2742  function getTokenHolderData(address _address) public view returns(uint256, address, address, uint256, bool){... */\n    tag_11:\n      tag_56\n      0x04\n      dup1\n      calldatasize\n      sub\n      dup2\n      add\n      swap1\n      tag_57\n      swap2\n      swap1\n      tag_43\n      jump\t// in\n    tag_57:\n      tag_58\n      jump\t// in\n    tag_56:\n      mload(0x40)\n      tag_59\n      swap6\n      swap5\n      swap4\n      swap3\n      swap2\n      swap1\n      tag_55\n      jump\t// in\n    tag_59:\n      mload(0x40)\n      dup1\n      swap2\n      sub\n      swap1\n      return\n        /* \"Crypto_Selling_dApps/TheBlockchainCoders.sol\":146:174  string public symbol = \"TBC\" */\n    tag_12:\n      tag_60\n      tag_61\n      jump\t// in\n    tag_60:\n      mload(0x40)\n      tag_62\n      swap2\n      swap1\n      tag_23\n      jump\t// in\n    tag_62:\n      mload(0x40)\n      dup1\n      swap2\n      sub\n      swap1\n      return\n        /* \"Crypto_Selling_dApps/TheBlockchainCoders.sol\":1192:1877  function transfer(address _to, uint256 _value) public returns(bool success){... */\n    tag_13:\n      tag_63\n      0x04\n      dup1\n      calldatasize\n      sub\n      dup2\n      add\n      swap1\n      tag_64\n      swap2\n      swap1\n      tag_65\n      jump\t// in\n    tag_64:\n      tag_66\n      jump\t// in\n    tag_63:\n      mload(0x40)\n      tag_67\n      swap2\n      swap1\n      tag_33\n      jump\t// in\n    tag_67:\n      mload(0x40)\n      dup1\n      swap2\n      sub\n      swap1\n      return\n        /* \"Crypto_Selling_dApps/TheBlockchainCoders.sol\":2750:2850  function getTokenHolder() public view returns(address[] memory){... */\n    tag_14:\n      tag_68\n      tag_69\n      jump\t// in\n    tag_68:\n      mload(0x40)\n      tag_70\n      swap2\n      swap1\n      tag_71\n      jump\t// in\n    tag_70:\n      mload(0x40)\n      dup1\n      swap2\n      sub\n      swap1\n      return\n        /* \"Crypto_Selling_dApps/TheBlockchainCoders.sol\":311:333  uint256 public _userId */\n    tag_15:\n      tag_72\n      tag_73\n      jump\t// in\n    tag_72:\n      mload(0x40)\n      tag_74\n      swap2\n      swap1\n      tag_27\n      jump\t// in\n    tag_74:\n      mload(0x40)\n      dup1\n      swap2\n      sub\n      swap1\n      return\n        /* \"Crypto_Selling_dApps/TheBlockchainCoders.sol\":874:939  mapping (address=> mapping (address => uint256)) public allowance */\n    tag_16:\n      tag_75\n      0x04\n      dup1\n      calldatasize\n      sub\n      dup2\n      add\n      swap1\n      tag_76\n      swap2\n      swap1\n      tag_77\n      jump\t// in\n    tag_76:\n      tag_78\n      jump\t// in\n    tag_75:\n      mload(0x40)\n      tag_79\n      swap2\n      swap1\n      tag_27\n      jump\t// in\n    tag_79:\n      mload(0x40)\n      dup1\n      swap2\n      sub\n      swap1\n      return\n        /* \"Crypto_Selling_dApps/TheBlockchainCoders.sol\":95:139  string public name = \"The Blockchain Coders\" */\n    tag_21:\n      0x00\n      dup1\n      sload\n      tag_80\n      swap1\n      tag_81\n      jump\t// in\n    tag_80:\n      dup1\n      0x1f\n      add\n      0x20\n      dup1\n      swap2\n      div\n      mul\n      0x20\n      add\n      mload(0x40)\n      swap1\n      dup2\n      add\n      0x40\n      mstore\n      dup1\n      swap3\n      swap2\n      swap1\n      dup2\n      dup2\n      mstore\n      0x20\n      add\n      dup3\n      dup1\n      sload\n      tag_82\n      swap1\n      tag_81\n      jump\t// in\n    tag_82:\n      dup1\n      iszero\n      tag_83\n      jumpi\n      dup1\n      0x1f\n      lt\n      tag_84\n      jumpi\n      0x0100\n      dup1\n      dup4\n      sload\n      div\n      mul\n      dup4\n      mstore\n      swap2\n      0x20\n      add\n      swap2\n      jump(tag_83)\n    tag_84:\n      dup3\n      add\n      swap2\n      swap1\n      0x00\n      mstore\n      keccak256(0x00, 0x20)\n      swap1\n    tag_85:\n      dup2\n      sload\n      dup2\n      mstore\n      swap1\n      0x01\n      add\n      swap1\n      0x20\n      add\n      dup1\n      dup4\n      gt\n      tag_85\n      jumpi\n      dup3\n      swap1\n      sub\n      0x1f\n      and\n      dup3\n      add\n      swap2\n    tag_83:\n      pop\n      pop\n      pop\n      pop\n      pop\n      dup2\n      jump\t// out\n        /* \"Crypto_Selling_dApps/TheBlockchainCoders.sol\":241:267  uint256 public totalSupply */\n    tag_25:\n      sload(0x03)\n      dup2\n      jump\t// out\n        /* \"Crypto_Selling_dApps/TheBlockchainCoders.sol\":1906:2308  function transferFrom(address _from, address _to, uint256 _value) public returns(bool success){... */\n    tag_31:\n        /* \"Crypto_Selling_dApps/TheBlockchainCoders.sol\":1987:1999  bool success */\n      0x00\n        /* \"Crypto_Selling_dApps/TheBlockchainCoders.sol\":2029:2038  balanceOf */\n      0x08\n        /* \"Crypto_Selling_dApps/TheBlockchainCoders.sol\":2029:2045  balanceOf[_from] */\n      0x00\n        /* \"Crypto_Selling_dApps/TheBlockchainCoders.sol\":2039:2044  _from */\n      dup6\n        /* \"Crypto_Selling_dApps/TheBlockchainCoders.sol\":2029:2045  balanceOf[_from] */\n      0xffffffffffffffffffffffffffffffffffffffff\n      and\n      0xffffffffffffffffffffffffffffffffffffffff\n      and\n      dup2\n      mstore\n      0x20\n      add\n      swap1\n      dup2\n      mstore\n      0x20\n      add\n      0x00\n      keccak256\n      sload\n        /* \"Crypto_Selling_dApps/TheBlockchainCoders.sol\":2019:2025  _value */\n      dup3\n        /* \"Crypto_Selling_dApps/TheBlockchainCoders.sol\":2019:2045  _value <= balanceOf[_from] */\n      gt\n      iszero\n        /* \"Crypto_Selling_dApps/TheBlockchainCoders.sol\":2011:2046  require(_value <= balanceOf[_from]) */\n      tag_87\n      jumpi\n      0x00\n      dup1\n      revert\n    tag_87:\n        /* \"Crypto_Selling_dApps/TheBlockchainCoders.sol\":2075:2084  allowance */\n      0x09\n        /* \"Crypto_Selling_dApps/TheBlockchainCoders.sol\":2075:2091  allowance[_from] */\n      0x00\n        /* \"Crypto_Selling_dApps/TheBlockchainCoders.sol\":2085:2090  _from */\n      dup6\n        /* \"Crypto_Selling_dApps/TheBlockchainCoders.sol\":2075:2091  allowance[_from] */\n      0xffffffffffffffffffffffffffffffffffffffff\n      and\n      0xffffffffffffffffffffffffffffffffffffffff\n      and\n      dup2\n      mstore\n      0x20\n      add\n      swap1\n      dup2\n      mstore\n      0x20\n      add\n      0x00\n      keccak256\n        /* \"Crypto_Selling_dApps/TheBlockchainCoders.sol\":2075:2103  allowance[_from][msg.sender] */\n      0x00\n        /* \"Crypto_Selling_dApps/TheBlockchainCoders.sol\":2092:2102  msg.sender */\n      caller\n        /* \"Crypto_Selling_dApps/TheBlockchainCoders.sol\":2075:2103  allowance[_from][msg.sender] */\n      0xffffffffffffffffffffffffffffffffffffffff\n      and\n      0xffffffffffffffffffffffffffffffffffffffff\n      and\n      dup2\n      mstore\n      0x20\n      add\n      swap1\n      dup2\n      mstore\n      0x20\n      add\n      0x00\n      keccak256\n      sload\n        /* \"Crypto_Selling_dApps/TheBlockchainCoders.sol\":2065:2071  _value */\n      dup3\n        /* \"Crypto_Selling_dApps/TheBlockchainCoders.sol\":2065:2103  _value <= allowance[_from][msg.sender] */\n      gt\n      iszero\n        /* \"Crypto_Selling_dApps/TheBlockchainCoders.sol\":2057:2104  require(_value <= allowance[_from][msg.sender]) */\n      tag_88\n      jumpi\n      0x00\n      dup1\n      revert\n    tag_88:\n        /* \"Crypto_Selling_dApps/TheBlockchainCoders.sol\":2137:2143  _value */\n      dup2\n        /* \"Crypto_Selling_dApps/TheBlockchainCoders.sol\":2117:2126  balanceOf */\n      0x08\n        /* \"Crypto_Selling_dApps/TheBlockchainCoders.sol\":2117:2133  balanceOf[_from] */\n      0x00\n        /* \"Crypto_Selling_dApps/TheBlockchainCoders.sol\":2127:2132  _from */\n      dup7\n        /* \"Crypto_Selling_dApps/TheBlockchainCoders.sol\":2117:2133  balanceOf[_from] */\n      0xffffffffffffffffffffffffffffffffffffffff\n      and\n      0xffffffffffffffffffffffffffffffffffffffff\n      and\n      dup2\n      mstore\n      0x20\n      add\n      swap1\n      dup2\n      mstore\n      0x20\n      add\n      0x00\n      keccak256\n      0x00\n        /* \"Crypto_Selling_dApps/TheBlockchainCoders.sol\":2117:2143  balanceOf[_from] -= _value */\n      dup3\n      dup3\n      sload\n      tag_89\n      swap2\n      swap1\n      tag_90\n      jump\t// in\n    tag_89:\n      swap3\n      pop\n      pop\n      dup2\n      swap1\n      sstore\n      pop\n        /* \"Crypto_Selling_dApps/TheBlockchainCoders.sol\":2172:2178  _value */\n      dup2\n        /* \"Crypto_Selling_dApps/TheBlockchainCoders.sol\":2154:2163  balanceOf */\n      0x08\n        /* \"Crypto_Selling_dApps/TheBlockchainCoders.sol\":2154:2168  balanceOf[_to] */\n      0x00\n        /* \"Crypto_Selling_dApps/TheBlockchainCoders.sol\":2164:2167  _to */\n      dup6\n        /* \"Crypto_Selling_dApps/TheBlockchainCoders.sol\":2154:2168  balanceOf[_to] */\n      0xffffffffffffffffffffffffffffffffffffffff\n      and\n      0xffffffffffffffffffffffffffffffffffffffff\n      and\n      dup2\n      mstore\n      0x20\n      add\n      swap1\n      dup2\n      mstore\n      0x20\n      add\n      0x00\n      keccak256\n      0x00\n        /* \"Crypto_Selling_dApps/TheBlockchainCoders.sol\":2154:2178  balanceOf[_to] += _value */\n      dup3\n      dup3\n      sload\n      tag_91\n      swap2\n      swap1\n      tag_92\n      jump\t// in\n    tag_91:\n      swap3\n      pop\n      pop\n      dup2\n      swap1\n      sstore\n      pop\n        /* \"Crypto_Selling_dApps/TheBlockchainCoders.sol\":2224:2230  _value */\n      dup2\n        /* \"Crypto_Selling_dApps/TheBlockchainCoders.sol\":2191:2200  allowance */\n      0x09\n        /* \"Crypto_Selling_dApps/TheBlockchainCoders.sol\":2191:2207  allowance[_from] */\n      0x00\n        /* \"Crypto_Selling_dApps/TheBlockchainCoders.sol\":2201:2206  _from */\n      dup7\n        /* \"Crypto_Selling_dApps/TheBlockchainCoders.sol\":2191:2207  allowance[_from] */\n      0xffffffffffffffffffffffffffffffffffffffff\n      and\n      0xffffffffffffffffffffffffffffffffffffffff\n      and\n      dup2\n      mstore\n      0x20\n      add\n      swap1\n      dup2\n      mstore\n      0x20\n      add\n      0x00\n      keccak256\n        /* \"Crypto_Selling_dApps/TheBlockchainCoders.sol\":2191:2220  allowance[_from] [msg.sender] */\n      0x00\n        /* \"Crypto_Selling_dApps/TheBlockchainCoders.sol\":2209:2219  msg.sender */\n      caller\n        /* \"Crypto_Selling_dApps/TheBlockchainCoders.sol\":2191:2220  allowance[_from] [msg.sender] */\n      0xffffffffffffffffffffffffffffffffffffffff\n      and\n      0xffffffffffffffffffffffffffffffffffffffff\n      and\n      dup2\n      mstore\n      0x20\n      add\n      swap1\n      dup2\n      mstore\n      0x20\n      add\n      0x00\n      keccak256\n      0x00\n        /* \"Crypto_Selling_dApps/TheBlockchainCoders.sol\":2191:2230  allowance[_from] [msg.sender] -= _value */\n      dup3\n      dup3\n      sload\n      tag_93\n      swap2\n      swap1\n      tag_90\n      jump\t// in\n    tag_93:\n      swap3\n      pop\n      pop\n      dup2\n      swap1\n      sstore\n      pop\n        /* \"Crypto_Selling_dApps/TheBlockchainCoders.sol\":2264:2267  _to */\n      dup3\n        /* \"Crypto_Selling_dApps/TheBlockchainCoders.sol\":2248:2276  Transfer(_from, _to, _value) */\n      0xffffffffffffffffffffffffffffffffffffffff\n      and\n        /* \"Crypto_Selling_dApps/TheBlockchainCoders.sol\":2257:2262  _from */\n      dup5\n        /* \"Crypto_Selling_dApps/TheBlockchainCoders.sol\":2248:2276  Transfer(_from, _to, _value) */\n      0xffffffffffffffffffffffffffffffffffffffff\n      and\n      0xddf252ad1be2c89b69c2b068fc378daa952ba7f163c4a11628f55a4df523b3ef\n        /* \"Crypto_Selling_dApps/TheBlockchainCoders.sol\":2269:2275  _value */\n      dup5\n        /* \"Crypto_Selling_dApps/TheBlockchainCoders.sol\":2248:2276  Transfer(_from, _to, _value) */\n      mload(0x40)\n      tag_94\n      swap2\n      swap1\n      tag_27\n      jump\t// in\n    tag_94:\n      mload(0x40)\n      dup1\n      swap2\n      sub\n      swap1\n      log3\n        /* \"Crypto_Selling_dApps/TheBlockchainCoders.sol\":2296:2300  true */\n      0x01\n        /* \"Crypto_Selling_dApps/TheBlockchainCoders.sol\":2289:2300  return true */\n      swap1\n      pop\n        /* \"Crypto_Selling_dApps/TheBlockchainCoders.sol\":1906:2308  function transferFrom(address _from, address _to, uint256 _value) public returns(bool success){... */\n      swap4\n      swap3\n      pop\n      pop\n      pop\n      jump\t// out\n        /* \"Crypto_Selling_dApps/TheBlockchainCoders.sol\":274:304  address public ownerOfContract */\n    tag_35:\n      0x04\n      0x00\n      swap1\n      sload\n      swap1\n      0x0100\n      exp\n      swap1\n      div\n      0xffffffffffffffffffffffffffffffffffffffff\n      and\n      dup2\n      jump\t// out\n        /* \"Crypto_Selling_dApps/TheBlockchainCoders.sol\":181:234  string public standard = \"@theblockchaincoders v.0.1\" */\n    tag_39:\n      0x02\n      dup1\n      sload\n      tag_95\n      swap1\n      tag_81\n      jump\t// in\n    tag_95:\n      dup1\n      0x1f\n      add\n      0x20\n      dup1\n      swap2\n      div\n      mul\n      0x20\n      add\n      mload(0x40)\n      swap1\n      dup2\n      add\n      0x40\n      mstore\n      dup1\n      swap3\n      swap2\n      swap1\n      dup2\n      dup2\n      mstore\n      0x20\n      add\n      dup3\n      dup1\n      sload\n      tag_96\n      swap1\n      tag_81\n      jump\t// in\n    tag_96:\n      dup1\n      iszero\n      tag_97\n      jumpi\n      dup1\n      0x1f\n      lt\n      tag_98\n      jumpi\n      0x0100\n      dup1\n      dup4\n      sload\n      div\n      mul\n      dup4\n      mstore\n      swap2\n      0x20\n      add\n      swap2\n      jump(tag_97)\n    tag_98:\n      dup3\n      add\n      swap2\n      swap1\n      0x00\n      mstore\n      keccak256(0x00, 0x20)\n      swap1\n    tag_99:\n      dup2\n      sload\n      dup2\n      mstore\n      swap1\n      0x01\n      add\n      swap1\n      0x20\n      add\n      dup1\n      dup4\n      gt\n      tag_99\n      jumpi\n      dup3\n      swap1\n      sub\n      0x1f\n      and\n      dup3\n      add\n      swap2\n    tag_97:\n      pop\n      pop\n      pop\n      pop\n      pop\n      dup2\n      jump\t// out\n        /* \"Crypto_Selling_dApps/TheBlockchainCoders.sol\":823:867  mapping(address => uint256) public balanceOf */\n    tag_44:\n      mstore(0x20, 0x08)\n      dup1\n      0x00\n      mstore\n      keccak256(0x00, 0x40)\n      0x00\n      swap2\n      pop\n      swap1\n      pop\n      sload\n      dup2\n      jump\t// out\n        /* \"Crypto_Selling_dApps/TheBlockchainCoders.sol\":342:370  address[] public holderToken */\n    tag_49:\n      0x06\n      dup2\n      dup2\n      sload\n      dup2\n      lt\n      tag_100\n      jumpi\n      0x00\n      dup1\n      revert\n    tag_100:\n      swap1\n      0x00\n      mstore\n      keccak256(0x00, 0x20)\n      add\n      0x00\n      swap2\n      pop\n      sload\n      swap1\n      0x0100\n      exp\n      swap1\n      div\n      0xffffffffffffffffffffffffffffffffffffffff\n      and\n      dup2\n      jump\t// out\n        /* \"Crypto_Selling_dApps/TheBlockchainCoders.sol\":585:645  mapping(address => TokenHolderInfo) public _tokenHolderInfos */\n    tag_53:\n      mstore(0x20, 0x07)\n      dup1\n      0x00\n      mstore\n      keccak256(0x00, 0x40)\n      0x00\n      swap2\n      pop\n      swap1\n      pop\n      dup1\n      0x00\n      add\n      sload\n      swap1\n      dup1\n      0x01\n      add\n      0x00\n      swap1\n      sload\n      swap1\n      0x0100\n      exp\n      swap1\n      div\n      0xffffffffffffffffffffffffffffffffffffffff\n      and\n      swap1\n      dup1\n      0x02\n      add\n      0x00\n      swap1\n      sload\n      swap1\n      0x0100\n      exp\n      swap1\n      div\n      0xffffffffffffffffffffffffffffffffffffffff\n      and\n      swap1\n      dup1\n      0x03\n      add\n      sload\n      swap1\n      dup1\n      0x04\n      add\n      0x00\n      swap1\n      sload\n      swap1\n      0x0100\n      exp\n      swap1\n      div\n      0xff\n      and\n      swap1\n      pop\n      dup6\n      jump\t// out\n        /* \"Crypto_Selling_dApps/TheBlockchainCoders.sol\":2345:2742  function getTokenHolderData(address _address) public view returns(uint256, address, address, uint256, bool){... */\n    tag_58:\n        /* \"Crypto_Selling_dApps/TheBlockchainCoders.sol\":2411:2418  uint256 */\n      0x00\n        /* \"Crypto_Selling_dApps/TheBlockchainCoders.sol\":2420:2427  address */\n      dup1\n        /* \"Crypto_Selling_dApps/TheBlockchainCoders.sol\":2429:2436  address */\n      0x00\n        /* \"Crypto_Selling_dApps/TheBlockchainCoders.sol\":2438:2445  uint256 */\n      dup1\n        /* \"Crypto_Selling_dApps/TheBlockchainCoders.sol\":2447:2451  bool */\n      0x00\n        /* \"Crypto_Selling_dApps/TheBlockchainCoders.sol\":2484:2501  _tokenHolderInfos */\n      0x07\n        /* \"Crypto_Selling_dApps/TheBlockchainCoders.sol\":2484:2511  _tokenHolderInfos[_address] */\n      0x00\n        /* \"Crypto_Selling_dApps/TheBlockchainCoders.sol\":2502:2510  _address */\n      dup8\n        /* \"Crypto_Selling_dApps/TheBlockchainCoders.sol\":2484:2511  _tokenHolderInfos[_address] */\n      0xffffffffffffffffffffffffffffffffffffffff\n      and\n      0xffffffffffffffffffffffffffffffffffffffff\n      and\n      dup2\n      mstore\n      0x20\n      add\n      swap1\n      dup2\n      mstore\n      0x20\n      add\n      0x00\n      keccak256\n        /* \"Crypto_Selling_dApps/TheBlockchainCoders.sol\":2484:2520  _tokenHolderInfos[_address]._tokenId */\n      0x00\n      add\n      sload\n        /* \"Crypto_Selling_dApps/TheBlockchainCoders.sol\":2535:2552  _tokenHolderInfos */\n      0x07\n        /* \"Crypto_Selling_dApps/TheBlockchainCoders.sol\":2535:2562  _tokenHolderInfos[_address] */\n      0x00\n        /* \"Crypto_Selling_dApps/TheBlockchainCoders.sol\":2553:2561  _address */\n      dup9\n        /* \"Crypto_Selling_dApps/TheBlockchainCoders.sol\":2535:2562  _tokenHolderInfos[_address] */\n      0xffffffffffffffffffffffffffffffffffffffff\n      and\n      0xffffffffffffffffffffffffffffffffffffffff\n      and\n      dup2\n      mstore\n      0x20\n      add\n      swap1\n      dup2\n      mstore\n      0x20\n      add\n      0x00\n      keccak256\n        /* \"Crypto_Selling_dApps/TheBlockchainCoders.sol\":2535:2566  _tokenHolderInfos[_address]._to */\n      0x02\n      add\n      0x00\n      swap1\n      sload\n      swap1\n      0x0100\n      exp\n      swap1\n      div\n      0xffffffffffffffffffffffffffffffffffffffff\n      and\n        /* \"Crypto_Selling_dApps/TheBlockchainCoders.sol\":2581:2598  _tokenHolderInfos */\n      0x07\n        /* \"Crypto_Selling_dApps/TheBlockchainCoders.sol\":2581:2608  _tokenHolderInfos[_address] */\n      0x00\n        /* \"Crypto_Selling_dApps/TheBlockchainCoders.sol\":2599:2607  _address */\n      dup10\n        /* \"Crypto_Selling_dApps/TheBlockchainCoders.sol\":2581:2608  _tokenHolderInfos[_address] */\n      0xffffffffffffffffffffffffffffffffffffffff\n      and\n      0xffffffffffffffffffffffffffffffffffffffff\n      and\n      dup2\n      mstore\n      0x20\n      add\n      swap1\n      dup2\n      mstore\n      0x20\n      add\n      0x00\n      keccak256\n        /* \"Crypto_Selling_dApps/TheBlockchainCoders.sol\":2581:2614  _tokenHolderInfos[_address]._from */\n      0x01\n      add\n      0x00\n      swap1\n      sload\n      swap1\n      0x0100\n      exp\n      swap1\n      div\n      0xffffffffffffffffffffffffffffffffffffffff\n      and\n        /* \"Crypto_Selling_dApps/TheBlockchainCoders.sol\":2629:2646  _tokenHolderInfos */\n      0x07\n        /* \"Crypto_Selling_dApps/TheBlockchainCoders.sol\":2629:2656  _tokenHolderInfos[_address] */\n      0x00\n        /* \"Crypto_Selling_dApps/TheBlockchainCoders.sol\":2647:2655  _address */\n      dup11\n        /* \"Crypto_Selling_dApps/TheBlockchainCoders.sol\":2629:2656  _tokenHolderInfos[_address] */\n      0xffffffffffffffffffffffffffffffffffffffff\n      and\n      0xffffffffffffffffffffffffffffffffffffffff\n      and\n      dup2\n      mstore\n      0x20\n      add\n      swap1\n      dup2\n      mstore\n      0x20\n      add\n      0x00\n      keccak256\n        /* \"Crypto_Selling_dApps/TheBlockchainCoders.sol\":2629:2668  _tokenHolderInfos[_address]._totalToken */\n      0x03\n      add\n      sload\n        /* \"Crypto_Selling_dApps/TheBlockchainCoders.sol\":2683:2700  _tokenHolderInfos */\n      0x07\n        /* \"Crypto_Selling_dApps/TheBlockchainCoders.sol\":2683:2710  _tokenHolderInfos[_address] */\n      0x00\n        /* \"Crypto_Selling_dApps/TheBlockchainCoders.sol\":2701:2709  _address */\n      dup12\n        /* \"Crypto_Selling_dApps/TheBlockchainCoders.sol\":2683:2710  _tokenHolderInfos[_address] */\n      0xffffffffffffffffffffffffffffffffffffffff\n      and\n      0xffffffffffffffffffffffffffffffffffffffff\n      and\n      dup2\n      mstore\n      0x20\n      add\n      swap1\n      dup2\n      mstore\n      0x20\n      add\n      0x00\n      keccak256\n        /* \"Crypto_Selling_dApps/TheBlockchainCoders.sol\":2683:2723  _tokenHolderInfos[_address]._tokenHolder */\n      0x04\n      add\n      0x00\n      swap1\n      sload\n      swap1\n      0x0100\n      exp\n      swap1\n      div\n      0xff\n      and\n        /* \"Crypto_Selling_dApps/TheBlockchainCoders.sol\":2463:2734  return(... */\n      swap5\n      pop\n      swap5\n      pop\n      swap5\n      pop\n      swap5\n      pop\n      swap5\n      pop\n        /* \"Crypto_Selling_dApps/TheBlockchainCoders.sol\":2345:2742  function getTokenHolderData(address _address) public view returns(uint256, address, address, uint256, bool){... */\n      swap2\n      swap4\n      swap6\n      swap1\n      swap3\n      swap5\n      pop\n      jump\t// out\n        /* \"Crypto_Selling_dApps/TheBlockchainCoders.sol\":146:174  string public symbol = \"TBC\" */\n    tag_61:\n      0x01\n      dup1\n      sload\n      tag_103\n      swap1\n      tag_81\n      jump\t// in\n    tag_103:\n      dup1\n      0x1f\n      add\n      0x20\n      dup1\n      swap2\n      div\n      mul\n      0x20\n      add\n      mload(0x40)\n      swap1\n      dup2\n      add\n      0x40\n      mstore\n      dup1\n      swap3\n      swap2\n      swap1\n      dup2\n      dup2\n      mstore\n      0x20\n      add\n      dup3\n      dup1\n      sload\n      tag_104\n      swap1\n      tag_81\n      jump\t// in\n    tag_104:\n      dup1\n      iszero\n      tag_105\n      jumpi\n      dup1\n      0x1f\n      lt\n      tag_106\n      jumpi\n      0x0100\n      dup1\n      dup4\n      sload\n      div\n      mul\n      dup4\n      mstore\n      swap2\n      0x20\n      add\n      swap2\n      jump(tag_105)\n    tag_106:\n      dup3\n      add\n      swap2\n      swap1\n      0x00\n      mstore\n      keccak256(0x00, 0x20)\n      swap1\n    tag_107:\n      dup2\n      sload\n      dup2\n      mstore\n      swap1\n      0x01\n      add\n      swap1\n      0x20\n      add\n      dup1\n      dup4\n      gt\n      tag_107\n      jumpi\n      dup3\n      swap1\n      sub\n      0x1f\n      and\n      dup3\n      add\n      swap2\n    tag_105:\n      pop\n      pop\n      pop\n      pop\n      pop\n      dup2\n      jump\t// out\n        /* \"Crypto_Selling_dApps/TheBlockchainCoders.sol\":1192:1877  function transfer(address _to, uint256 _value) public returns(bool success){... */\n    tag_66:\n        /* \"Crypto_Selling_dApps/TheBlockchainCoders.sol\":1254:1266  bool success */\n      0x00\n        /* \"Crypto_Selling_dApps/TheBlockchainCoders.sol\":1311:1317  _value */\n      dup2\n        /* \"Crypto_Selling_dApps/TheBlockchainCoders.sol\":1286:1295  balanceOf */\n      0x08\n        /* \"Crypto_Selling_dApps/TheBlockchainCoders.sol\":1286:1307  balanceOf[msg.sender] */\n      0x00\n        /* \"Crypto_Selling_dApps/TheBlockchainCoders.sol\":1296:1306  msg.sender */\n      caller\n        /* \"Crypto_Selling_dApps/TheBlockchainCoders.sol\":1286:1307  balanceOf[msg.sender] */\n      0xffffffffffffffffffffffffffffffffffffffff\n      and\n      0xffffffffffffffffffffffffffffffffffffffff\n      and\n      dup2\n      mstore\n      0x20\n      add\n      swap1\n      dup2\n      mstore\n      0x20\n      add\n      0x00\n      keccak256\n      sload\n        /* \"Crypto_Selling_dApps/TheBlockchainCoders.sol\":1286:1317  balanceOf[msg.sender] >= _value */\n      lt\n      iszero\n        /* \"Crypto_Selling_dApps/TheBlockchainCoders.sol\":1278:1318  require(balanceOf[msg.sender] >= _value) */\n      tag_109\n      jumpi\n      0x00\n      dup1\n      revert\n    tag_109:\n        /* \"Crypto_Selling_dApps/TheBlockchainCoders.sol\":1329:1334  inc() */\n      tag_110\n        /* \"Crypto_Selling_dApps/TheBlockchainCoders.sol\":1329:1332  inc */\n      tag_111\n        /* \"Crypto_Selling_dApps/TheBlockchainCoders.sol\":1329:1334  inc() */\n      jump\t// in\n    tag_110:\n        /* \"Crypto_Selling_dApps/TheBlockchainCoders.sol\":1374:1380  _value */\n      dup2\n        /* \"Crypto_Selling_dApps/TheBlockchainCoders.sol\":1349:1358  balanceOf */\n      0x08\n        /* \"Crypto_Selling_dApps/TheBlockchainCoders.sol\":1349:1370  balanceOf[msg.sender] */\n      0x00\n        /* \"Crypto_Selling_dApps/TheBlockchainCoders.sol\":1359:1369  msg.sender */\n      caller\n        /* \"Crypto_Selling_dApps/TheBlockchainCoders.sol\":1349:1370  balanceOf[msg.sender] */\n      0xffffffffffffffffffffffffffffffffffffffff\n      and\n      0xffffffffffffffffffffffffffffffffffffffff\n      and\n      dup2\n      mstore\n      0x20\n      add\n      swap1\n      dup2\n      mstore\n      0x20\n      add\n      0x00\n      keccak256\n      0x00\n        /* \"Crypto_Selling_dApps/TheBlockchainCoders.sol\":1349:1380  balanceOf[msg.sender] -= _value */\n      dup3\n      dup3\n      sload\n      tag_112\n      swap2\n      swap1\n      tag_90\n      jump\t// in\n    tag_112:\n      swap3\n      pop\n      pop\n      dup2\n      swap1\n      sstore\n      pop\n        /* \"Crypto_Selling_dApps/TheBlockchainCoders.sol\":1409:1415  _value */\n      dup2\n        /* \"Crypto_Selling_dApps/TheBlockchainCoders.sol\":1391:1400  balanceOf */\n      0x08\n        /* \"Crypto_Selling_dApps/TheBlockchainCoders.sol\":1391:1405  balanceOf[_to] */\n      0x00\n        /* \"Crypto_Selling_dApps/TheBlockchainCoders.sol\":1401:1404  _to */\n      dup6\n        /* \"Crypto_Selling_dApps/TheBlockchainCoders.sol\":1391:1405  balanceOf[_to] */\n      0xffffffffffffffffffffffffffffffffffffffff\n      and\n      0xffffffffffffffffffffffffffffffffffffffff\n      and\n      dup2\n      mstore\n      0x20\n      add\n      swap1\n      dup2\n      mstore\n      0x20\n      add\n      0x00\n      keccak256\n      0x00\n        /* \"Crypto_Selling_dApps/TheBlockchainCoders.sol\":1391:1415  balanceOf[_to] += _value */\n      dup3\n      dup3\n      sload\n      tag_113\n      swap2\n      swap1\n      tag_92\n      jump\t// in\n    tag_113:\n      swap3\n      pop\n      pop\n      dup2\n      swap1\n      sstore\n      pop\n        /* \"Crypto_Selling_dApps/TheBlockchainCoders.sol\":1428:1467  TokenHolderInfo storage tokenHolderInfo */\n      0x00\n        /* \"Crypto_Selling_dApps/TheBlockchainCoders.sol\":1470:1487  _tokenHolderInfos */\n      0x07\n        /* \"Crypto_Selling_dApps/TheBlockchainCoders.sol\":1470:1492  _tokenHolderInfos[_to] */\n      0x00\n        /* \"Crypto_Selling_dApps/TheBlockchainCoders.sol\":1488:1491  _to */\n      dup6\n        /* \"Crypto_Selling_dApps/TheBlockchainCoders.sol\":1470:1492  _tokenHolderInfos[_to] */\n      0xffffffffffffffffffffffffffffffffffffffff\n      and\n      0xffffffffffffffffffffffffffffffffffffffff\n      and\n      dup2\n      mstore\n      0x20\n      add\n      swap1\n      dup2\n      mstore\n      0x20\n      add\n      0x00\n      keccak256\n        /* \"Crypto_Selling_dApps/TheBlockchainCoders.sol\":1428:1492  TokenHolderInfo storage tokenHolderInfo = _tokenHolderInfos[_to] */\n      swap1\n      pop\n        /* \"Crypto_Selling_dApps/TheBlockchainCoders.sol\":1527:1530  _to */\n      dup4\n        /* \"Crypto_Selling_dApps/TheBlockchainCoders.sol\":1505:1520  tokenHolderInfo */\n      dup2\n        /* \"Crypto_Selling_dApps/TheBlockchainCoders.sol\":1505:1524  tokenHolderInfo._to */\n      0x02\n      add\n      0x00\n        /* \"Crypto_Selling_dApps/TheBlockchainCoders.sol\":1505:1530  tokenHolderInfo._to = _to */\n      0x0100\n      exp\n      dup2\n      sload\n      dup2\n      0xffffffffffffffffffffffffffffffffffffffff\n      mul\n      not\n      and\n      swap1\n      dup4\n      0xffffffffffffffffffffffffffffffffffffffff\n      and\n      mul\n      or\n      swap1\n      sstore\n      pop\n        /* \"Crypto_Selling_dApps/TheBlockchainCoders.sol\":1565:1575  msg.sender */\n      caller\n        /* \"Crypto_Selling_dApps/TheBlockchainCoders.sol\":1541:1556  tokenHolderInfo */\n      dup2\n        /* \"Crypto_Selling_dApps/TheBlockchainCoders.sol\":1541:1562  tokenHolderInfo._from */\n      0x01\n      add\n      0x00\n        /* \"Crypto_Selling_dApps/TheBlockchainCoders.sol\":1541:1575  tokenHolderInfo._from = msg.sender */\n      0x0100\n      exp\n      dup2\n      sload\n      dup2\n      0xffffffffffffffffffffffffffffffffffffffff\n      mul\n      not\n      and\n      swap1\n      dup4\n      0xffffffffffffffffffffffffffffffffffffffff\n      and\n      mul\n      or\n      swap1\n      sstore\n      pop\n        /* \"Crypto_Selling_dApps/TheBlockchainCoders.sol\":1617:1621  true */\n      0x01\n        /* \"Crypto_Selling_dApps/TheBlockchainCoders.sol\":1586:1601  tokenHolderInfo */\n      dup2\n        /* \"Crypto_Selling_dApps/TheBlockchainCoders.sol\":1586:1614  tokenHolderInfo._tokenHolder */\n      0x04\n      add\n      0x00\n        /* \"Crypto_Selling_dApps/TheBlockchainCoders.sol\":1586:1621  tokenHolderInfo._tokenHolder = true */\n      0x0100\n      exp\n      dup2\n      sload\n      dup2\n      0xff\n      mul\n      not\n      and\n      swap1\n      dup4\n      iszero\n      iszero\n      mul\n      or\n      swap1\n      sstore\n      pop\n        /* \"Crypto_Selling_dApps/TheBlockchainCoders.sol\":1662:1668  _value */\n      dup3\n        /* \"Crypto_Selling_dApps/TheBlockchainCoders.sol\":1632:1647  tokenHolderInfo */\n      dup2\n        /* \"Crypto_Selling_dApps/TheBlockchainCoders.sol\":1632:1659  tokenHolderInfo._totalToken */\n      0x03\n      add\n        /* \"Crypto_Selling_dApps/TheBlockchainCoders.sol\":1632:1668  tokenHolderInfo._totalToken = _value */\n      dup2\n      swap1\n      sstore\n      pop\n        /* \"Crypto_Selling_dApps/TheBlockchainCoders.sol\":1709:1715  _value */\n      dup3\n        /* \"Crypto_Selling_dApps/TheBlockchainCoders.sol\":1679:1694  tokenHolderInfo */\n      dup2\n        /* \"Crypto_Selling_dApps/TheBlockchainCoders.sol\":1679:1706  tokenHolderInfo._totalToken */\n      0x03\n      add\n        /* \"Crypto_Selling_dApps/TheBlockchainCoders.sol\":1679:1715  tokenHolderInfo._totalToken = _value */\n      dup2\n      swap1\n      sstore\n      pop\n        /* \"Crypto_Selling_dApps/TheBlockchainCoders.sol\":1753:1760  _userId */\n      sload(0x05)\n        /* \"Crypto_Selling_dApps/TheBlockchainCoders.sol\":1726:1741  tokenHolderInfo */\n      dup2\n        /* \"Crypto_Selling_dApps/TheBlockchainCoders.sol\":1726:1750  tokenHolderInfo._tokenId */\n      0x00\n      add\n        /* \"Crypto_Selling_dApps/TheBlockchainCoders.sol\":1726:1760  tokenHolderInfo._tokenId = _userId */\n      dup2\n      swap1\n      sstore\n      pop\n        /* \"Crypto_Selling_dApps/TheBlockchainCoders.sol\":1773:1784  holderToken */\n      0x06\n        /* \"Crypto_Selling_dApps/TheBlockchainCoders.sol\":1790:1793  _to */\n      dup5\n        /* \"Crypto_Selling_dApps/TheBlockchainCoders.sol\":1773:1794  holderToken.push(_to) */\n      swap1\n      dup1\n      0x01\n      dup2\n      sload\n      add\n      dup1\n      dup3\n      sstore\n      dup1\n      swap2\n      pop\n      pop\n      0x01\n      swap1\n      sub\n      swap1\n      0x00\n      mstore\n      keccak256(0x00, 0x20)\n      add\n      0x00\n      swap1\n      swap2\n      swap1\n      swap2\n      swap1\n      swap2\n      0x0100\n      exp\n      dup2\n      sload\n      dup2\n      0xffffffffffffffffffffffffffffffffffffffff\n      mul\n      not\n      and\n      swap1\n      dup4\n      0xffffffffffffffffffffffffffffffffffffffff\n      and\n      mul\n      or\n      swap1\n      sstore\n      pop\n        /* \"Crypto_Selling_dApps/TheBlockchainCoders.sol\":1833:1836  _to */\n      dup4\n        /* \"Crypto_Selling_dApps/TheBlockchainCoders.sol\":1812:1845  Transfer(msg.sender, _to, _value) */\n      0xffffffffffffffffffffffffffffffffffffffff\n      and\n        /* \"Crypto_Selling_dApps/TheBlockchainCoders.sol\":1821:1831  msg.sender */\n      caller\n        /* \"Crypto_Selling_dApps/TheBlockchainCoders.sol\":1812:1845  Transfer(msg.sender, _to, _value) */\n      0xffffffffffffffffffffffffffffffffffffffff\n      and\n      0xddf252ad1be2c89b69c2b068fc378daa952ba7f163c4a11628f55a4df523b3ef\n        /* \"Crypto_Selling_dApps/TheBlockchainCoders.sol\":1838:1844  _value */\n      dup6\n        /* \"Crypto_Selling_dApps/TheBlockchainCoders.sol\":1812:1845  Transfer(msg.sender, _to, _value) */\n      mload(0x40)\n      tag_115\n      swap2\n      swap1\n      tag_27\n      jump\t// in\n    tag_115:\n      mload(0x40)\n      dup1\n      swap2\n      sub\n      swap1\n      log3\n        /* \"Crypto_Selling_dApps/TheBlockchainCoders.sol\":1865:1869  true */\n      0x01\n        /* \"Crypto_Selling_dApps/TheBlockchainCoders.sol\":1858:1869  return true */\n      swap2\n      pop\n      pop\n        /* \"Crypto_Selling_dApps/TheBlockchainCoders.sol\":1192:1877  function transfer(address _to, uint256 _value) public returns(bool success){... */\n      swap3\n      swap2\n      pop\n      pop\n      jump\t// out\n        /* \"Crypto_Selling_dApps/TheBlockchainCoders.sol\":2750:2850  function getTokenHolder() public view returns(address[] memory){... */\n    tag_69:\n        /* \"Crypto_Selling_dApps/TheBlockchainCoders.sol\":2796:2812  address[] memory */\n      0x60\n        /* \"Crypto_Selling_dApps/TheBlockchainCoders.sol\":2831:2842  holderToken */\n      0x06\n        /* \"Crypto_Selling_dApps/TheBlockchainCoders.sol\":2824:2842  return holderToken */\n      dup1\n      sload\n      dup1\n      0x20\n      mul\n      0x20\n      add\n      mload(0x40)\n      swap1\n      dup2\n      add\n      0x40\n      mstore\n      dup1\n      swap3\n      swap2\n      swap1\n      dup2\n      dup2\n      mstore\n      0x20\n      add\n      dup3\n      dup1\n      sload\n      dup1\n      iszero\n      tag_117\n      jumpi\n      0x20\n      mul\n      dup3\n      add\n      swap2\n      swap1\n      0x00\n      mstore\n      keccak256(0x00, 0x20)\n      swap1\n    tag_118:\n      dup2\n      0x00\n      swap1\n      sload\n      swap1\n      0x0100\n      exp\n      swap1\n      div\n      0xffffffffffffffffffffffffffffffffffffffff\n      and\n      0xffffffffffffffffffffffffffffffffffffffff\n      and\n      dup2\n      mstore\n      0x20\n      add\n      swap1\n      0x01\n      add\n      swap1\n      dup1\n      dup4\n      gt\n      tag_118\n      jumpi\n    tag_117:\n      pop\n      pop\n      pop\n      pop\n      pop\n      swap1\n      pop\n        /* \"Crypto_Selling_dApps/TheBlockchainCoders.sol\":2750:2850  function getTokenHolder() public view returns(address[] memory){... */\n      swap1\n      jump\t// out\n        /* \"Crypto_Selling_dApps/TheBlockchainCoders.sol\":311:333  uint256 public _userId */\n    tag_73:\n      sload(0x05)\n      dup2\n      jump\t// out\n        /* \"Crypto_Selling_dApps/TheBlockchainCoders.sol\":874:939  mapping (address=> mapping (address => uint256)) public allowance */\n    tag_78:\n      mstore(0x20, 0x09)\n      dup2\n      0x00\n      mstore\n      mstore(0x20, keccak256(0x00, 0x40))\n      dup1\n      0x00\n      mstore\n      keccak256(0x00, 0x40)\n      0x00\n      swap2\n      pop\n      swap2\n      pop\n      pop\n      sload\n      dup2\n      jump\t// out\n        /* \"Crypto_Selling_dApps/TheBlockchainCoders.sol\":1110:1160  function inc()internal{... */\n    tag_111:\n        /* \"Crypto_Selling_dApps/TheBlockchainCoders.sol\":1143:1150  _userId */\n      0x05\n      0x00\n        /* \"Crypto_Selling_dApps/TheBlockchainCoders.sol\":1143:1152  _userId++ */\n      dup2\n      sload\n      dup1\n      swap3\n      swap2\n      swap1\n      tag_120\n      swap1\n      tag_121\n      jump\t// in\n    tag_120:\n      swap2\n      swap1\n      pop\n      sstore\n      pop\n        /* \"Crypto_Selling_dApps/TheBlockchainCoders.sol\":1110:1160  function inc()internal{... */\n      jump\t// out\n        /* \"#utility.yul\":7:106   */\n    tag_122:\n        /* \"#utility.yul\":59:65   */\n      0x00\n        /* \"#utility.yul\":93:98   */\n      dup2\n        /* \"#utility.yul\":87:99   */\n      mload\n        /* \"#utility.yul\":77:99   */\n      swap1\n      pop\n        /* \"#utility.yul\":7:106   */\n      swap2\n      swap1\n      pop\n      jump\t// out\n        /* \"#utility.yul\":112:281   */\n    tag_123:\n        /* \"#utility.yul\":196:207   */\n      0x00\n        /* \"#utility.yul\":230:236   */\n      dup3\n        /* \"#utility.yul\":225:228   */\n      dup3\n        /* \"#utility.yul\":218:237   */\n      mstore\n        /* \"#utility.yul\":270:274   */\n      0x20\n        /* \"#utility.yul\":265:268   */\n      dup3\n        /* \"#utility.yul\":261:275   */\n      add\n        /* \"#utility.yul\":246:275   */\n      swap1\n      pop\n        /* \"#utility.yul\":112:281   */\n      swap3\n      swap2\n      pop\n      pop\n      jump\t// out\n        /* \"#utility.yul\":287:426   */\n    tag_124:\n        /* \"#utility.yul\":376:382   */\n      dup3\n        /* \"#utility.yul\":371:374   */\n      dup2\n        /* \"#utility.yul\":366:369   */\n      dup4\n        /* \"#utility.yul\":360:383   */\n      mcopy\n        /* \"#utility.yul\":417:418   */\n      0x00\n        /* \"#utility.yul\":408:414   */\n      dup4\n        /* \"#utility.yul\":403:406   */\n      dup4\n        /* \"#utility.yul\":399:415   */\n      add\n        /* \"#utility.yul\":392:419   */\n      mstore\n        /* \"#utility.yul\":287:426   */\n      pop\n      pop\n      pop\n      jump\t// out\n        /* \"#utility.yul\":432:534   */\n    tag_125:\n        /* \"#utility.yul\":473:479   */\n      0x00\n        /* \"#utility.yul\":524:526   */\n      0x1f\n        /* \"#utility.yul\":520:527   */\n      not\n        /* \"#utility.yul\":515:517   */\n      0x1f\n        /* \"#utility.yul\":508:513   */\n      dup4\n        /* \"#utility.yul\":504:518   */\n      add\n        /* \"#utility.yul\":500:528   */\n      and\n        /* \"#utility.yul\":490:528   */\n      swap1\n      pop\n        /* \"#utility.yul\":432:534   */\n      swap2\n      swap1\n      pop\n      jump\t// out\n        /* \"#utility.yul\":540:917   */\n    tag_126:\n        /* \"#utility.yul\":628:631   */\n      0x00\n        /* \"#utility.yul\":656:695   */\n      tag_156\n        /* \"#utility.yul\":689:694   */\n      dup3\n        /* \"#utility.yul\":656:695   */\n      tag_122\n      jump\t// in\n    tag_156:\n        /* \"#utility.yul\":711:782   */\n      tag_157\n        /* \"#utility.yul\":775:781   */\n      dup2\n        /* \"#utility.yul\":770:773   */\n      dup6\n        /* \"#utility.yul\":711:782   */\n      tag_123\n      jump\t// in\n    tag_157:\n        /* \"#utility.yul\":704:782   */\n      swap4\n      pop\n        /* \"#utility.yul\":791:856   */\n      tag_158\n        /* \"#utility.yul\":849:855   */\n      dup2\n        /* \"#utility.yul\":844:847   */\n      dup6\n        /* \"#utility.yul\":837:841   */\n      0x20\n        /* \"#utility.yul\":830:835   */\n      dup7\n        /* \"#utility.yul\":826:842   */\n      add\n        /* \"#utility.yul\":791:856   */\n      tag_124\n      jump\t// in\n    tag_158:\n        /* \"#utility.yul\":881:910   */\n      tag_159\n        /* \"#utility.yul\":903:909   */\n      dup2\n        /* \"#utility.yul\":881:910   */\n      tag_125\n      jump\t// in\n    tag_159:\n        /* \"#utility.yul\":876:879   */\n      dup5\n        /* \"#utility.yul\":872:911   */\n      add\n        /* \"#utility.yul\":865:911   */\n      swap2\n      pop\n        /* \"#utility.yul\":632:917   */\n      pop\n        /* \"#utility.yul\":540:917   */\n      swap3\n      swap2\n      pop\n      pop\n      jump\t// out\n        /* \"#utility.yul\":923:1236   */\n    tag_23:\n        /* \"#utility.yul\":1036:1040   */\n      0x00\n        /* \"#utility.yul\":1074:1076   */\n      0x20\n        /* \"#utility.yul\":1063:1072   */\n      dup3\n        /* \"#utility.yul\":1059:1077   */\n      add\n        /* \"#utility.yul\":1051:1077   */\n      swap1\n      pop\n        /* \"#utility.yul\":1123:1132   */\n      dup2\n        /* \"#utility.yul\":1117:1121   */\n      dup2\n        /* \"#utility.yul\":1113:1133   */\n      sub\n        /* \"#utility.yul\":1109:1110   */\n      0x00\n        /* \"#utility.yul\":1098:1107   */\n      dup4\n        /* \"#utility.yul\":1094:1111   */\n      add\n        /* \"#utility.yul\":1087:1134   */\n      mstore\n        /* \"#utility.yul\":1151:1229   */\n      tag_161\n        /* \"#utility.yul\":1224:1228   */\n      dup2\n        /* \"#utility.yul\":1215:1221   */\n      dup5\n        /* \"#utility.yul\":1151:1229   */\n      tag_126\n      jump\t// in\n    tag_161:\n        /* \"#utility.yul\":1143:1229   */\n      swap1\n      pop\n        /* \"#utility.yul\":923:1236   */\n      swap3\n      swap2\n      pop\n      pop\n      jump\t// out\n        /* \"#utility.yul\":1242:1319   */\n    tag_127:\n        /* \"#utility.yul\":1279:1286   */\n      0x00\n        /* \"#utility.yul\":1308:1313   */\n      dup2\n        /* \"#utility.yul\":1297:1313   */\n      swap1\n      pop\n        /* \"#utility.yul\":1242:1319   */\n      swap2\n      swap1\n      pop\n      jump\t// out\n        /* \"#utility.yul\":1325:1443   */\n    tag_128:\n        /* \"#utility.yul\":1412:1436   */\n      tag_164\n        /* \"#utility.yul\":1430:1435   */\n      dup2\n        /* \"#utility.yul\":1412:1436   */\n      tag_127\n      jump\t// in\n    tag_164:\n        /* \"#utility.yul\":1407:1410   */\n      dup3\n        /* \"#utility.yul\":1400:1437   */\n      mstore\n        /* \"#utility.yul\":1325:1443   */\n      pop\n      pop\n      jump\t// out\n        /* \"#utility.yul\":1449:1671   */\n    tag_27:\n        /* \"#utility.yul\":1542:1546   */\n      0x00\n        /* \"#utility.yul\":1580:1582   */\n      0x20\n        /* \"#utility.yul\":1569:1578   */\n      dup3\n        /* \"#utility.yul\":1565:1583   */\n      add\n        /* \"#utility.yul\":1557:1583   */\n      swap1\n      pop\n        /* \"#utility.yul\":1593:1664   */\n      tag_166\n        /* \"#utility.yul\":1661:1662   */\n      0x00\n        /* \"#utility.yul\":1650:1659   */\n      dup4\n        /* \"#utility.yul\":1646:1663   */\n      add\n        /* \"#utility.yul\":1637:1643   */\n      dup5\n        /* \"#utility.yul\":1593:1664   */\n      tag_128\n      jump\t// in\n    tag_166:\n        /* \"#utility.yul\":1449:1671   */\n      swap3\n      swap2\n      pop\n      pop\n      jump\t// out\n        /* \"#utility.yul\":1758:1875   */\n    tag_130:\n        /* \"#utility.yul\":1867:1868   */\n      0x00\n        /* \"#utility.yul\":1864:1865   */\n      dup1\n        /* \"#utility.yul\":1857:1869   */\n      revert\n        /* \"#utility.yul\":2004:2130   */\n    tag_132:\n        /* \"#utility.yul\":2041:2048   */\n      0x00\n        /* \"#utility.yul\":2081:2123   */\n      0xffffffffffffffffffffffffffffffffffffffff\n        /* \"#utility.yul\":2074:2079   */\n      dup3\n        /* \"#utility.yul\":2070:2124   */\n      and\n        /* \"#utility.yul\":2059:2124   */\n      swap1\n      pop\n        /* \"#utility.yul\":2004:2130   */\n      swap2\n      swap1\n      pop\n      jump\t// out\n        /* \"#utility.yul\":2136:2232   */\n    tag_133:\n        /* \"#utility.yul\":2173:2180   */\n      0x00\n        /* \"#utility.yul\":2202:2226   */\n      tag_172\n        /* \"#utility.yul\":2220:2225   */\n      dup3\n        /* \"#utility.yul\":2202:2226   */\n      tag_132\n      jump\t// in\n    tag_172:\n        /* \"#utility.yul\":2191:2226   */\n      swap1\n      pop\n        /* \"#utility.yul\":2136:2232   */\n      swap2\n      swap1\n      pop\n      jump\t// out\n        /* \"#utility.yul\":2238:2360   */\n    tag_134:\n        /* \"#utility.yul\":2311:2335   */\n      tag_174\n        /* \"#utility.yul\":2329:2334   */\n      dup2\n        /* \"#utility.yul\":2311:2335   */\n      tag_133\n      jump\t// in\n    tag_174:\n        /* \"#utility.yul\":2304:2309   */\n      dup2\n        /* \"#utility.yul\":2301:2336   */\n      eq\n        /* \"#utility.yul\":2291:2354   */\n      tag_175\n      jumpi\n        /* \"#utility.yul\":2350:2351   */\n      0x00\n        /* \"#utility.yul\":2347:2348   */\n      dup1\n        /* \"#utility.yul\":2340:2352   */\n      revert\n        /* \"#utility.yul\":2291:2354   */\n    tag_175:\n        /* \"#utility.yul\":2238:2360   */\n      pop\n      jump\t// out\n        /* \"#utility.yul\":2366:2505   */\n    tag_135:\n        /* \"#utility.yul\":2412:2417   */\n      0x00\n        /* \"#utility.yul\":2450:2456   */\n      dup2\n        /* \"#utility.yul\":2437:2457   */\n      calldataload\n        /* \"#utility.yul\":2428:2457   */\n      swap1\n      pop\n        /* \"#utility.yul\":2466:2499   */\n      tag_177\n        /* \"#utility.yul\":2493:2498   */\n      dup2\n        /* \"#utility.yul\":2466:2499   */\n      tag_134\n      jump\t// in\n    tag_177:\n        /* \"#utility.yul\":2366:2505   */\n      swap3\n      swap2\n      pop\n      pop\n      jump\t// out\n        /* \"#utility.yul\":2511:2633   */\n    tag_136:\n        /* \"#utility.yul\":2584:2608   */\n      tag_179\n        /* \"#utility.yul\":2602:2607   */\n      dup2\n        /* \"#utility.yul\":2584:2608   */\n      tag_127\n      jump\t// in\n    tag_179:\n        /* \"#utility.yul\":2577:2582   */\n      dup2\n        /* \"#utility.yul\":2574:2609   */\n      eq\n        /* \"#utility.yul\":2564:2627   */\n      tag_180\n      jumpi\n        /* \"#utility.yul\":2623:2624   */\n      0x00\n        /* \"#utility.yul\":2620:2621   */\n      dup1\n        /* \"#utility.yul\":2613:2625   */\n      revert\n        /* \"#utility.yul\":2564:2627   */\n    tag_180:\n        /* \"#utility.yul\":2511:2633   */\n      pop\n      jump\t// out\n        /* \"#utility.yul\":2639:2778   */\n    tag_137:\n        /* \"#utility.yul\":2685:2690   */\n      0x00\n        /* \"#utility.yul\":2723:2729   */\n      dup2\n        /* \"#utility.yul\":2710:2730   */\n      calldataload\n        /* \"#utility.yul\":2701:2730   */\n      swap1\n      pop\n        /* \"#utility.yul\":2739:2772   */\n      tag_182\n        /* \"#utility.yul\":2766:2771   */\n      dup2\n        /* \"#utility.yul\":2739:2772   */\n      tag_136\n      jump\t// in\n    tag_182:\n        /* \"#utility.yul\":2639:2778   */\n      swap3\n      swap2\n      pop\n      pop\n      jump\t// out\n        /* \"#utility.yul\":2784:3403   */\n    tag_30:\n        /* \"#utility.yul\":2861:2867   */\n      0x00\n        /* \"#utility.yul\":2869:2875   */\n      dup1\n        /* \"#utility.yul\":2877:2883   */\n      0x00\n        /* \"#utility.yul\":2926:2928   */\n      0x60\n        /* \"#utility.yul\":2914:2923   */\n      dup5\n        /* \"#utility.yul\":2905:2912   */\n      dup7\n        /* \"#utility.yul\":2901:2924   */\n      sub\n        /* \"#utility.yul\":2897:2929   */\n      slt\n        /* \"#utility.yul\":2894:3013   */\n      iszero\n      tag_184\n      jumpi\n        /* \"#utility.yul\":2932:3011   */\n      tag_185\n      tag_130\n      jump\t// in\n    tag_185:\n        /* \"#utility.yul\":2894:3013   */\n    tag_184:\n        /* \"#utility.yul\":3052:3053   */\n      0x00\n        /* \"#utility.yul\":3077:3130   */\n      tag_186\n        /* \"#utility.yul\":3122:3129   */\n      dup7\n        /* \"#utility.yul\":3113:3119   */\n      dup3\n        /* \"#utility.yul\":3102:3111   */\n      dup8\n        /* \"#utility.yul\":3098:3120   */\n      add\n        /* \"#utility.yul\":3077:3130   */\n      tag_135\n      jump\t// in\n    tag_186:\n        /* \"#utility.yul\":3067:3130   */\n      swap4\n      pop\n        /* \"#utility.yul\":3023:3140   */\n      pop\n        /* \"#utility.yul\":3179:3181   */\n      0x20\n        /* \"#utility.yul\":3205:3258   */\n      tag_187\n        /* \"#utility.yul\":3250:3257   */\n      dup7\n        /* \"#utility.yul\":3241:3247   */\n      dup3\n        /* \"#utility.yul\":3230:3239   */\n      dup8\n        /* \"#utility.yul\":3226:3248   */\n      add\n        /* \"#utility.yul\":3205:3258   */\n      tag_135\n      jump\t// in\n    tag_187:\n        /* \"#utility.yul\":3195:3258   */\n      swap3\n      pop\n        /* \"#utility.yul\":3150:3268   */\n      pop\n        /* \"#utility.yul\":3307:3309   */\n      0x40\n        /* \"#utility.yul\":3333:3386   */\n      tag_188\n        /* \"#utility.yul\":3378:3385   */\n      dup7\n        /* \"#utility.yul\":3369:3375   */\n      dup3\n        /* \"#utility.yul\":3358:3367   */\n      dup8\n        /* \"#utility.yul\":3354:3376   */\n      add\n        /* \"#utility.yul\":3333:3386   */\n      tag_137\n      jump\t// in\n    tag_188:\n        /* \"#utility.yul\":3323:3386   */\n      swap2\n      pop\n        /* \"#utility.yul\":3278:3396   */\n      pop\n        /* \"#utility.yul\":2784:3403   */\n      swap3\n      pop\n      swap3\n      pop\n      swap3\n      jump\t// out\n        /* \"#utility.yul\":3409:3499   */\n    tag_138:\n        /* \"#utility.yul\":3443:3450   */\n      0x00\n        /* \"#utility.yul\":3486:3491   */\n      dup2\n        /* \"#utility.yul\":3479:3492   */\n      iszero\n        /* \"#utility.yul\":3472:3493   */\n      iszero\n        /* \"#utility.yul\":3461:3493   */\n      swap1\n      pop\n        /* \"#utility.yul\":3409:3499   */\n      swap2\n      swap1\n      pop\n      jump\t// out\n        /* \"#utility.yul\":3505:3614   */\n    tag_139:\n        /* \"#utility.yul\":3586:3607   */\n      tag_191\n        /* \"#utility.yul\":3601:3606   */\n      dup2\n        /* \"#utility.yul\":3586:3607   */\n      tag_138\n      jump\t// in\n    tag_191:\n        /* \"#utility.yul\":3581:3584   */\n      dup3\n        /* \"#utility.yul\":3574:3608   */\n      mstore\n        /* \"#utility.yul\":3505:3614   */\n      pop\n      pop\n      jump\t// out\n        /* \"#utility.yul\":3620:3830   */\n    tag_33:\n        /* \"#utility.yul\":3707:3711   */\n      0x00\n        /* \"#utility.yul\":3745:3747   */\n      0x20\n        /* \"#utility.yul\":3734:3743   */\n      dup3\n        /* \"#utility.yul\":3730:3748   */\n      add\n        /* \"#utility.yul\":3722:3748   */\n      swap1\n      pop\n        /* \"#utility.yul\":3758:3823   */\n      tag_193\n        /* \"#utility.yul\":3820:3821   */\n      0x00\n        /* \"#utility.yul\":3809:3818   */\n      dup4\n        /* \"#utility.yul\":3805:3822   */\n      add\n        /* \"#utility.yul\":3796:3802   */\n      dup5\n        /* \"#utility.yul\":3758:3823   */\n      tag_139\n      jump\t// in\n    tag_193:\n        /* \"#utility.yul\":3620:3830   */\n      swap3\n      swap2\n      pop\n      pop\n      jump\t// out\n        /* \"#utility.yul\":3836:3954   */\n    tag_140:\n        /* \"#utility.yul\":3923:3947   */\n      tag_195\n        /* \"#utility.yul\":3941:3946   */\n      dup2\n        /* \"#utility.yul\":3923:3947   */\n      tag_133\n      jump\t// in\n    tag_195:\n        /* \"#utility.yul\":3918:3921   */\n      dup3\n        /* \"#utility.yul\":3911:3948   */\n      mstore\n        /* \"#utility.yul\":3836:3954   */\n      pop\n      pop\n      jump\t// out\n        /* \"#utility.yul\":3960:4182   */\n    tag_37:\n        /* \"#utility.yul\":4053:4057   */\n      0x00\n        /* \"#utility.yul\":4091:4093   */\n      0x20\n        /* \"#utility.yul\":4080:4089   */\n      dup3\n        /* \"#utility.yul\":4076:4094   */\n      add\n        /* \"#utility.yul\":4068:4094   */\n      swap1\n      pop\n        /* \"#utility.yul\":4104:4175   */\n      tag_197\n        /* \"#utility.yul\":4172:4173   */\n      0x00\n        /* \"#utility.yul\":4161:4170   */\n      dup4\n        /* \"#utility.yul\":4157:4174   */\n      add\n        /* \"#utility.yul\":4148:4154   */\n      dup5\n        /* \"#utility.yul\":4104:4175   */\n      tag_140\n      jump\t// in\n    tag_197:\n        /* \"#utility.yul\":3960:4182   */\n      swap3\n      swap2\n      pop\n      pop\n      jump\t// out\n        /* \"#utility.yul\":4188:4517   */\n    tag_43:\n        /* \"#utility.yul\":4247:4253   */\n      0x00\n        /* \"#utility.yul\":4296:4298   */\n      0x20\n        /* \"#utility.yul\":4284:4293   */\n      dup3\n        /* \"#utility.yul\":4275:4282   */\n      dup5\n        /* \"#utility.yul\":4271:4294   */\n      sub\n        /* \"#utility.yul\":4267:4299   */\n      slt\n        /* \"#utility.yul\":4264:4383   */\n      iszero\n      tag_199\n      jumpi\n        /* \"#utility.yul\":4302:4381   */\n      tag_200\n      tag_130\n      jump\t// in\n    tag_200:\n        /* \"#utility.yul\":4264:4383   */\n    tag_199:\n        /* \"#utility.yul\":4422:4423   */\n      0x00\n        /* \"#utility.yul\":4447:4500   */\n      tag_201\n        /* \"#utility.yul\":4492:4499   */\n      dup5\n        /* \"#utility.yul\":4483:4489   */\n      dup3\n        /* \"#utility.yul\":4472:4481   */\n      dup6\n        /* \"#utility.yul\":4468:4490   */\n      add\n        /* \"#utility.yul\":4447:4500   */\n      tag_135\n      jump\t// in\n    tag_201:\n        /* \"#utility.yul\":4437:4500   */\n      swap2\n      pop\n        /* \"#utility.yul\":4393:4510   */\n      pop\n        /* \"#utility.yul\":4188:4517   */\n      swap3\n      swap2\n      pop\n      pop\n      jump\t// out\n        /* \"#utility.yul\":4523:4852   */\n    tag_48:\n        /* \"#utility.yul\":4582:4588   */\n      0x00\n        /* \"#utility.yul\":4631:4633   */\n      0x20\n        /* \"#utility.yul\":4619:4628   */\n      dup3\n        /* \"#utility.yul\":4610:4617   */\n      dup5\n        /* \"#utility.yul\":4606:4629   */\n      sub\n        /* \"#utility.yul\":4602:4634   */\n      slt\n        /* \"#utility.yul\":4599:4718   */\n      iszero\n      tag_203\n      jumpi\n        /* \"#utility.yul\":4637:4716   */\n      tag_204\n      tag_130\n      jump\t// in\n    tag_204:\n        /* \"#utility.yul\":4599:4718   */\n    tag_203:\n        /* \"#utility.yul\":4757:4758   */\n      0x00\n        /* \"#utility.yul\":4782:4835   */\n      tag_205\n        /* \"#utility.yul\":4827:4834   */\n      dup5\n        /* \"#utility.yul\":4818:4824   */\n      dup3\n        /* \"#utility.yul\":4807:4816   */\n      dup6\n        /* \"#utility.yul\":4803:4825   */\n      add\n        /* \"#utility.yul\":4782:4835   */\n      tag_137\n      jump\t// in\n    tag_205:\n        /* \"#utility.yul\":4772:4835   */\n      swap2\n      pop\n        /* \"#utility.yul\":4728:4845   */\n      pop\n        /* \"#utility.yul\":4523:4852   */\n      swap3\n      swap2\n      pop\n      pop\n      jump\t// out\n        /* \"#utility.yul\":4858:5510   */\n    tag_55:\n        /* \"#utility.yul\":5057:5061   */\n      0x00\n        /* \"#utility.yul\":5095:5098   */\n      0xa0\n        /* \"#utility.yul\":5084:5093   */\n      dup3\n        /* \"#utility.yul\":5080:5099   */\n      add\n        /* \"#utility.yul\":5072:5099   */\n      swap1\n      pop\n        /* \"#utility.yul\":5109:5180   */\n      tag_207\n        /* \"#utility.yul\":5177:5178   */\n      0x00\n        /* \"#utility.yul\":5166:5175   */\n      dup4\n        /* \"#utility.yul\":5162:5179   */\n      add\n        /* \"#utility.yul\":5153:5159   */\n      dup9\n        /* \"#utility.yul\":5109:5180   */\n      tag_128\n      jump\t// in\n    tag_207:\n        /* \"#utility.yul\":5190:5262   */\n      tag_208\n        /* \"#utility.yul\":5258:5260   */\n      0x20\n        /* \"#utility.yul\":5247:5256   */\n      dup4\n        /* \"#utility.yul\":5243:5261   */\n      add\n        /* \"#utility.yul\":5234:5240   */\n      dup8\n        /* \"#utility.yul\":5190:5262   */\n      tag_140\n      jump\t// in\n    tag_208:\n        /* \"#utility.yul\":5272:5344   */\n      tag_209\n        /* \"#utility.yul\":5340:5342   */\n      0x40\n        /* \"#utility.yul\":5329:5338   */\n      dup4\n        /* \"#utility.yul\":5325:5343   */\n      add\n        /* \"#utility.yul\":5316:5322   */\n      dup7\n        /* \"#utility.yul\":5272:5344   */\n      tag_140\n      jump\t// in\n    tag_209:\n        /* \"#utility.yul\":5354:5426   */\n      tag_210\n        /* \"#utility.yul\":5422:5424   */\n      0x60\n        /* \"#utility.yul\":5411:5420   */\n      dup4\n        /* \"#utility.yul\":5407:5425   */\n      add\n        /* \"#utility.yul\":5398:5404   */\n      dup6\n        /* \"#utility.yul\":5354:5426   */\n      tag_128\n      jump\t// in\n    tag_210:\n        /* \"#utility.yul\":5436:5503   */\n      tag_211\n        /* \"#utility.yul\":5498:5501   */\n      0x80\n        /* \"#utility.yul\":5487:5496   */\n      dup4\n        /* \"#utility.yul\":5483:5502   */\n      add\n        /* \"#utility.yul\":5474:5480   */\n      dup5\n        /* \"#utility.yul\":5436:5503   */\n      tag_139\n      jump\t// in\n    tag_211:\n        /* \"#utility.yul\":4858:5510   */\n      swap7\n      swap6\n      pop\n      pop\n      pop\n      pop\n      pop\n      pop\n      jump\t// out\n        /* \"#utility.yul\":5516:5990   */\n    tag_65:\n        /* \"#utility.yul\":5584:5590   */\n      0x00\n        /* \"#utility.yul\":5592:5598   */\n      dup1\n        /* \"#utility.yul\":5641:5643   */\n      0x40\n        /* \"#utility.yul\":5629:5638   */\n      dup4\n        /* \"#utility.yul\":5620:5627   */\n      dup6\n        /* \"#utility.yul\":5616:5639   */\n      sub\n        /* \"#utility.yul\":5612:5644   */\n      slt\n        /* \"#utility.yul\":5609:5728   */\n      iszero\n      tag_213\n      jumpi\n        /* \"#utility.yul\":5647:5726   */\n      tag_214\n      tag_130\n      jump\t// in\n    tag_214:\n        /* \"#utility.yul\":5609:5728   */\n    tag_213:\n        /* \"#utility.yul\":5767:5768   */\n      0x00\n        /* \"#utility.yul\":5792:5845   */\n      tag_215\n        /* \"#utility.yul\":5837:5844   */\n      dup6\n        /* \"#utility.yul\":5828:5834   */\n      dup3\n        /* \"#utility.yul\":5817:5826   */\n      dup7\n        /* \"#utility.yul\":5813:5835   */\n      add\n        /* \"#utility.yul\":5792:5845   */\n      tag_135\n      jump\t// in\n    tag_215:\n        /* \"#utility.yul\":5782:5845   */\n      swap3\n      pop\n        /* \"#utility.yul\":5738:5855   */\n      pop\n        /* \"#utility.yul\":5894:5896   */\n      0x20\n        /* \"#utility.yul\":5920:5973   */\n      tag_216\n        /* \"#utility.yul\":5965:5972   */\n      dup6\n        /* \"#utility.yul\":5956:5962   */\n      dup3\n        /* \"#utility.yul\":5945:5954   */\n      dup7\n        /* \"#utility.yul\":5941:5963   */\n      add\n        /* \"#utility.yul\":5920:5973   */\n      tag_137\n      jump\t// in\n    tag_216:\n        /* \"#utility.yul\":5910:5973   */\n      swap2\n      pop\n        /* \"#utility.yul\":5865:5983   */\n      pop\n        /* \"#utility.yul\":5516:5990   */\n      swap3\n      pop\n      swap3\n      swap1\n      pop\n      jump\t// out\n        /* \"#utility.yul\":5996:6110   */\n    tag_141:\n        /* \"#utility.yul\":6063:6069   */\n      0x00\n        /* \"#utility.yul\":6097:6102   */\n      dup2\n        /* \"#utility.yul\":6091:6103   */\n      mload\n        /* \"#utility.yul\":6081:6103   */\n      swap1\n      pop\n        /* \"#utility.yul\":5996:6110   */\n      swap2\n      swap1\n      pop\n      jump\t// out\n        /* \"#utility.yul\":6116:6300   */\n    tag_142:\n        /* \"#utility.yul\":6215:6226   */\n      0x00\n        /* \"#utility.yul\":6249:6255   */\n      dup3\n        /* \"#utility.yul\":6244:6247   */\n      dup3\n        /* \"#utility.yul\":6237:6256   */\n      mstore\n        /* \"#utility.yul\":6289:6293   */\n      0x20\n        /* \"#utility.yul\":6284:6287   */\n      dup3\n        /* \"#utility.yul\":6280:6294   */\n      add\n        /* \"#utility.yul\":6265:6294   */\n      swap1\n      pop\n        /* \"#utility.yul\":6116:6300   */\n      swap3\n      swap2\n      pop\n      pop\n      jump\t// out\n        /* \"#utility.yul\":6306:6438   */\n    tag_143:\n        /* \"#utility.yul\":6373:6377   */\n      0x00\n        /* \"#utility.yul\":6396:6399   */\n      dup2\n        /* \"#utility.yul\":6388:6399   */\n      swap1\n      pop\n        /* \"#utility.yul\":6426:6430   */\n      0x20\n        /* \"#utility.yul\":6421:6424   */\n      dup3\n        /* \"#utility.yul\":6417:6431   */\n      add\n        /* \"#utility.yul\":6409:6431   */\n      swap1\n      pop\n        /* \"#utility.yul\":6306:6438   */\n      swap2\n      swap1\n      pop\n      jump\t// out\n        /* \"#utility.yul\":6444:6552   */\n    tag_144:\n        /* \"#utility.yul\":6521:6545   */\n      tag_221\n        /* \"#utility.yul\":6539:6544   */\n      dup2\n        /* \"#utility.yul\":6521:6545   */\n      tag_133\n      jump\t// in\n    tag_221:\n        /* \"#utility.yul\":6516:6519   */\n      dup3\n        /* \"#utility.yul\":6509:6546   */\n      mstore\n        /* \"#utility.yul\":6444:6552   */\n      pop\n      pop\n      jump\t// out\n        /* \"#utility.yul\":6558:6737   */\n    tag_145:\n        /* \"#utility.yul\":6627:6637   */\n      0x00\n        /* \"#utility.yul\":6648:6694   */\n      tag_223\n        /* \"#utility.yul\":6690:6693   */\n      dup4\n        /* \"#utility.yul\":6682:6688   */\n      dup4\n        /* \"#utility.yul\":6648:6694   */\n      tag_144\n      jump\t// in\n    tag_223:\n        /* \"#utility.yul\":6726:6730   */\n      0x20\n        /* \"#utility.yul\":6721:6724   */\n      dup4\n        /* \"#utility.yul\":6717:6731   */\n      add\n        /* \"#utility.yul\":6703:6731   */\n      swap1\n      pop\n        /* \"#utility.yul\":6558:6737   */\n      swap3\n      swap2\n      pop\n      pop\n      jump\t// out\n        /* \"#utility.yul\":6743:6856   */\n    tag_146:\n        /* \"#utility.yul\":6813:6817   */\n      0x00\n        /* \"#utility.yul\":6845:6849   */\n      0x20\n        /* \"#utility.yul\":6840:6843   */\n      dup3\n        /* \"#utility.yul\":6836:6850   */\n      add\n        /* \"#utility.yul\":6828:6850   */\n      swap1\n      pop\n        /* \"#utility.yul\":6743:6856   */\n      swap2\n      swap1\n      pop\n      jump\t// out\n        /* \"#utility.yul\":6892:7624   */\n    tag_147:\n        /* \"#utility.yul\":7011:7014   */\n      0x00\n        /* \"#utility.yul\":7040:7094   */\n      tag_226\n        /* \"#utility.yul\":7088:7093   */\n      dup3\n        /* \"#utility.yul\":7040:7094   */\n      tag_141\n      jump\t// in\n    tag_226:\n        /* \"#utility.yul\":7110:7196   */\n      tag_227\n        /* \"#utility.yul\":7189:7195   */\n      dup2\n        /* \"#utility.yul\":7184:7187   */\n      dup6\n        /* \"#utility.yul\":7110:7196   */\n      tag_142\n      jump\t// in\n    tag_227:\n        /* \"#utility.yul\":7103:7196   */\n      swap4\n      pop\n        /* \"#utility.yul\":7220:7276   */\n      tag_228\n        /* \"#utility.yul\":7270:7275   */\n      dup4\n        /* \"#utility.yul\":7220:7276   */\n      tag_143\n      jump\t// in\n    tag_228:\n        /* \"#utility.yul\":7299:7306   */\n      dup1\n        /* \"#utility.yul\":7330:7331   */\n      0x00\n        /* \"#utility.yul\":7315:7599   */\n    tag_229:\n        /* \"#utility.yul\":7340:7346   */\n      dup4\n        /* \"#utility.yul\":7337:7338   */\n      dup2\n        /* \"#utility.yul\":7334:7347   */\n      lt\n        /* \"#utility.yul\":7315:7599   */\n      iszero\n      tag_231\n      jumpi\n        /* \"#utility.yul\":7416:7422   */\n      dup2\n        /* \"#utility.yul\":7410:7423   */\n      mload\n        /* \"#utility.yul\":7443:7506   */\n      tag_232\n        /* \"#utility.yul\":7502:7505   */\n      dup9\n        /* \"#utility.yul\":7487:7500   */\n      dup3\n        /* \"#utility.yul\":7443:7506   */\n      tag_145\n      jump\t// in\n    tag_232:\n        /* \"#utility.yul\":7436:7506   */\n      swap8\n      pop\n        /* \"#utility.yul\":7529:7589   */\n      tag_233\n        /* \"#utility.yul\":7582:7588   */\n      dup4\n        /* \"#utility.yul\":7529:7589   */\n      tag_146\n      jump\t// in\n    tag_233:\n        /* \"#utility.yul\":7519:7589   */\n      swap3\n      pop\n        /* \"#utility.yul\":7375:7599   */\n      pop\n        /* \"#utility.yul\":7362:7363   */\n      0x01\n        /* \"#utility.yul\":7359:7360   */\n      dup2\n        /* \"#utility.yul\":7355:7364   */\n      add\n        /* \"#utility.yul\":7350:7364   */\n      swap1\n      pop\n        /* \"#utility.yul\":7315:7599   */\n      jump(tag_229)\n    tag_231:\n        /* \"#utility.yul\":7319:7333   */\n      pop\n        /* \"#utility.yul\":7615:7618   */\n      dup6\n        /* \"#utility.yul\":7608:7618   */\n      swap4\n      pop\n        /* \"#utility.yul\":7016:7624   */\n      pop\n      pop\n      pop\n        /* \"#utility.yul\":6892:7624   */\n      swap3\n      swap2\n      pop\n      pop\n      jump\t// out\n        /* \"#utility.yul\":7630:8003   */\n    tag_71:\n        /* \"#utility.yul\":7773:7777   */\n      0x00\n        /* \"#utility.yul\":7811:7813   */\n      0x20\n        /* \"#utility.yul\":7800:7809   */\n      dup3\n        /* \"#utility.yul\":7796:7814   */\n      add\n        /* \"#utility.yul\":7788:7814   */\n      swap1\n      pop\n        /* \"#utility.yul\":7860:7869   */\n      dup2\n        /* \"#utility.yul\":7854:7858   */\n      dup2\n        /* \"#utility.yul\":7850:7870   */\n      sub\n        /* \"#utility.yul\":7846:7847   */\n      0x00\n        /* \"#utility.yul\":7835:7844   */\n      dup4\n        /* \"#utility.yul\":7831:7848   */\n      add\n        /* \"#utility.yul\":7824:7871   */\n      mstore\n        /* \"#utility.yul\":7888:7996   */\n      tag_235\n        /* \"#utility.yul\":7991:7995   */\n      dup2\n        /* \"#utility.yul\":7982:7988   */\n      dup5\n        /* \"#utility.yul\":7888:7996   */\n      tag_147\n      jump\t// in\n    tag_235:\n        /* \"#utility.yul\":7880:7996   */\n      swap1\n      pop\n        /* \"#utility.yul\":7630:8003   */\n      swap3\n      swap2\n      pop\n      pop\n      jump\t// out\n        /* \"#utility.yul\":8009:8483   */\n    tag_77:\n        /* \"#utility.yul\":8077:8083   */\n      0x00\n        /* \"#utility.yul\":8085:8091   */\n      dup1\n        /* \"#utility.yul\":8134:8136   */\n      0x40\n        /* \"#utility.yul\":8122:8131   */\n      dup4\n        /* \"#utility.yul\":8113:8120   */\n      dup6\n        /* \"#utility.yul\":8109:8132   */\n      sub\n        /* \"#utility.yul\":8105:8137   */\n      slt\n        /* \"#utility.yul\":8102:8221   */\n      iszero\n      tag_237\n      jumpi\n        /* \"#utility.yul\":8140:8219   */\n      tag_238\n      tag_130\n      jump\t// in\n    tag_238:\n        /* \"#utility.yul\":8102:8221   */\n    tag_237:\n        /* \"#utility.yul\":8260:8261   */\n      0x00\n        /* \"#utility.yul\":8285:8338   */\n      tag_239\n        /* \"#utility.yul\":8330:8337   */\n      dup6\n        /* \"#utility.yul\":8321:8327   */\n      dup3\n        /* \"#utility.yul\":8310:8319   */\n      dup7\n        /* \"#utility.yul\":8306:8328   */\n      add\n        /* \"#utility.yul\":8285:8338   */\n      tag_135\n      jump\t// in\n    tag_239:\n        /* \"#utility.yul\":8275:8338   */\n      swap3\n      pop\n        /* \"#utility.yul\":8231:8348   */\n      pop\n        /* \"#utility.yul\":8387:8389   */\n      0x20\n        /* \"#utility.yul\":8413:8466   */\n      tag_240\n        /* \"#utility.yul\":8458:8465   */\n      dup6\n        /* \"#utility.yul\":8449:8455   */\n      dup3\n        /* \"#utility.yul\":8438:8447   */\n      dup7\n        /* \"#utility.yul\":8434:8456   */\n      add\n        /* \"#utility.yul\":8413:8466   */\n      tag_135\n      jump\t// in\n    tag_240:\n        /* \"#utility.yul\":8403:8466   */\n      swap2\n      pop\n        /* \"#utility.yul\":8358:8476   */\n      pop\n        /* \"#utility.yul\":8009:8483   */\n      swap3\n      pop\n      swap3\n      swap1\n      pop\n      jump\t// out\n        /* \"#utility.yul\":8489:8669   */\n    tag_148:\n        /* \"#utility.yul\":8537:8614   */\n      0x4e487b7100000000000000000000000000000000000000000000000000000000\n        /* \"#utility.yul\":8534:8535   */\n      0x00\n        /* \"#utility.yul\":8527:8615   */\n      mstore\n        /* \"#utility.yul\":8634:8638   */\n      0x22\n        /* \"#utility.yul\":8631:8632   */\n      0x04\n        /* \"#utility.yul\":8624:8639   */\n      mstore\n        /* \"#utility.yul\":8658:8662   */\n      0x24\n        /* \"#utility.yul\":8655:8656   */\n      0x00\n        /* \"#utility.yul\":8648:8663   */\n      revert\n        /* \"#utility.yul\":8675:8995   */\n    tag_81:\n        /* \"#utility.yul\":8719:8725   */\n      0x00\n        /* \"#utility.yul\":8756:8757   */\n      0x02\n        /* \"#utility.yul\":8750:8754   */\n      dup3\n        /* \"#utility.yul\":8746:8758   */\n      div\n        /* \"#utility.yul\":8736:8758   */\n      swap1\n      pop\n        /* \"#utility.yul\":8803:8804   */\n      0x01\n        /* \"#utility.yul\":8797:8801   */\n      dup3\n        /* \"#utility.yul\":8793:8805   */\n      and\n        /* \"#utility.yul\":8824:8842   */\n      dup1\n        /* \"#utility.yul\":8814:8895   */\n      tag_243\n      jumpi\n        /* \"#utility.yul\":8880:8884   */\n      0x7f\n        /* \"#utility.yul\":8872:8878   */\n      dup3\n        /* \"#utility.yul\":8868:8885   */\n      and\n        /* \"#utility.yul\":8858:8885   */\n      swap2\n      pop\n        /* \"#utility.yul\":8814:8895   */\n    tag_243:\n        /* \"#utility.yul\":8942:8944   */\n      0x20\n        /* \"#utility.yul\":8934:8940   */\n      dup3\n        /* \"#utility.yul\":8931:8945   */\n      lt\n        /* \"#utility.yul\":8911:8929   */\n      dup2\n        /* \"#utility.yul\":8908:8946   */\n      sub\n        /* \"#utility.yul\":8905:8989   */\n      tag_244\n      jumpi\n        /* \"#utility.yul\":8961:8979   */\n      tag_245\n      tag_148\n      jump\t// in\n    tag_245:\n        /* \"#utility.yul\":8905:8989   */\n    tag_244:\n        /* \"#utility.yul\":8726:8995   */\n      pop\n        /* \"#utility.yul\":8675:8995   */\n      swap2\n      swap1\n      pop\n      jump\t// out\n        /* \"#utility.yul\":9001:9181   */\n    tag_149:\n        /* \"#utility.yul\":9049:9126   */\n      0x4e487b7100000000000000000000000000000000000000000000000000000000\n        /* \"#utility.yul\":9046:9047   */\n      0x00\n        /* \"#utility.yul\":9039:9127   */\n      mstore\n        /* \"#utility.yul\":9146:9150   */\n      0x11\n        /* \"#utility.yul\":9143:9144   */\n      0x04\n        /* \"#utility.yul\":9136:9151   */\n      mstore\n        /* \"#utility.yul\":9170:9174   */\n      0x24\n        /* \"#utility.yul\":9167:9168   */\n      0x00\n        /* \"#utility.yul\":9160:9175   */\n      revert\n        /* \"#utility.yul\":9187:9381   */\n    tag_90:\n        /* \"#utility.yul\":9227:9231   */\n      0x00\n        /* \"#utility.yul\":9247:9267   */\n      tag_248\n        /* \"#utility.yul\":9265:9266   */\n      dup3\n        /* \"#utility.yul\":9247:9267   */\n      tag_127\n      jump\t// in\n    tag_248:\n        /* \"#utility.yul\":9242:9267   */\n      swap2\n      pop\n        /* \"#utility.yul\":9281:9301   */\n      tag_249\n        /* \"#utility.yul\":9299:9300   */\n      dup4\n        /* \"#utility.yul\":9281:9301   */\n      tag_127\n      jump\t// in\n    tag_249:\n        /* \"#utility.yul\":9276:9301   */\n      swap3\n      pop\n        /* \"#utility.yul\":9325:9326   */\n      dup3\n        /* \"#utility.yul\":9322:9323   */\n      dup3\n        /* \"#utility.yul\":9318:9327   */\n      sub\n        /* \"#utility.yul\":9310:9327   */\n      swap1\n      pop\n        /* \"#utility.yul\":9349:9350   */\n      dup2\n        /* \"#utility.yul\":9343:9347   */\n      dup2\n        /* \"#utility.yul\":9340:9351   */\n      gt\n        /* \"#utility.yul\":9337:9374   */\n      iszero\n      tag_250\n      jumpi\n        /* \"#utility.yul\":9354:9372   */\n      tag_251\n      tag_149\n      jump\t// in\n    tag_251:\n        /* \"#utility.yul\":9337:9374   */\n    tag_250:\n        /* \"#utility.yul\":9187:9381   */\n      swap3\n      swap2\n      pop\n      pop\n      jump\t// out\n        /* \"#utility.yul\":9387:9578   */\n    tag_92:\n        /* \"#utility.yul\":9427:9430   */\n      0x00\n        /* \"#utility.yul\":9446:9466   */\n      tag_253\n        /* \"#utility.yul\":9464:9465   */\n      dup3\n        /* \"#utility.yul\":9446:9466   */\n      tag_127\n      jump\t// in\n    tag_253:\n        /* \"#utility.yul\":9441:9466   */\n      swap2\n      pop\n        /* \"#utility.yul\":9480:9500   */\n      tag_254\n        /* \"#utility.yul\":9498:9499   */\n      dup4\n        /* \"#utility.yul\":9480:9500   */\n      tag_127\n      jump\t// in\n    tag_254:\n        /* \"#utility.yul\":9475:9500   */\n      swap3\n      pop\n        /* \"#utility.yul\":9523:9524   */\n      dup3\n        /* \"#utility.yul\":9520:9521   */\n      dup3\n        /* \"#utility.yul\":9516:9525   */\n      add\n        /* \"#utility.yul\":9509:9525   */\n      swap1\n      pop\n        /* \"#utility.yul\":9544:9547   */\n      dup1\n        /* \"#utility.yul\":9541:9542   */\n      dup3\n        /* \"#utility.yul\":9538:9548   */\n      gt\n        /* \"#utility.yul\":9535:9571   */\n      iszero\n      tag_255\n      jumpi\n        /* \"#utility.yul\":9551:9569   */\n      tag_256\n      tag_149\n      jump\t// in\n    tag_256:\n        /* \"#utility.yul\":9535:9571   */\n    tag_255:\n        /* \"#utility.yul\":9387:9578   */\n      swap3\n      swap2\n      pop\n      pop\n      jump\t// out\n        /* \"#utility.yul\":9584:9817   */\n    tag_121:\n        /* \"#utility.yul\":9623:9626   */\n      0x00\n        /* \"#utility.yul\":9646:9670   */\n      tag_258\n        /* \"#utility.yul\":9664:9669   */\n      dup3\n        /* \"#utility.yul\":9646:9670   */\n      tag_127\n      jump\t// in\n    tag_258:\n        /* \"#utility.yul\":9637:9670   */\n      swap2\n      pop\n        /* \"#utility.yul\":9692:9758   */\n      0xffffffffffffffffffffffffffffffffffffffffffffffffffffffffffffffff\n        /* \"#utility.yul\":9685:9690   */\n      dup3\n        /* \"#utility.yul\":9682:9759   */\n      sub\n        /* \"#utility.yul\":9679:9782   */\n      tag_259\n      jumpi\n        /* \"#utility.yul\":9762:9780   */\n      tag_260\n      tag_149\n      jump\t// in\n    tag_260:\n        /* \"#utility.yul\":9679:9782   */\n    tag_259:\n        /* \"#utility.yul\":9809:9810   */\n      0x01\n        /* \"#utility.yul\":9802:9807   */\n      dup3\n        /* \"#utility.yul\":9798:9811   */\n      add\n        /* \"#utility.yul\":9791:9811   */\n      swap1\n      pop\n        /* \"#utility.yul\":9584:9817   */\n      swap2\n      swap1\n      pop\n      jump\t// out\n\n    auxdata: 0xa2646970667358221220a5f23bb7c13a3b81b3cd30b606ffa6ee1e5bf502bc3d01f3d7d842ab7b2cbd0664736f6c634300081a0033\n}\n",
				"bytecode": {
					"linkReferences": {},
					"object": "60806040526040518060400160405280601581526020017f54686520426c6f636b636861696e20436f6465727300000000000000000000008152505f908161004791906103c1565b506040518060400160405280600381526020017f54424300000000000000000000000000000000000000000000000000000000008152506001908161008c91906103c1565b506040518060400160405280601a81526020017f40746865626c6f636b636861696e636f6465727320762e302e31000000000000815250600290816100d191906103c1565b503480156100dd575f80fd5b506040516117a73803806117a783398181016040528101906100ff91906104be565b3360045f6101000a81548173ffffffffffffffffffffffffffffffffffffffff021916908373ffffffffffffffffffffffffffffffffffffffff1602179055508060085f3373ffffffffffffffffffffffffffffffffffffffff1673ffffffffffffffffffffffffffffffffffffffff1681526020019081526020015f2081905550506104e9565b5f81519050919050565b7f4e487b71000000000000000000000000000000000000000000000000000000005f52604160045260245ffd5b7f4e487b71000000000000000000000000000000000000000000000000000000005f52602260045260245ffd5b5f600282049050600182168061020257607f821691505b602082108103610215576102146101be565b5b50919050565b5f819050815f5260205f209050919050565b5f6020601f8301049050919050565b5f82821b905092915050565b5f600883026102777fffffffffffffffffffffffffffffffffffffffffffffffffffffffffffffffff8261023c565b610281868361023c565b95508019841693508086168417925050509392505050565b5f819050919050565b5f819050919050565b5f6102c56102c06102bb84610299565b6102a2565b610299565b9050919050565b5f819050919050565b6102de836102ab565b6102f26102ea826102cc565b848454610248565b825550505050565b5f90565b6103066102fa565b6103118184846102d5565b505050565b5b81811015610334576103295f826102fe565b600181019050610317565b5050565b601f8211156103795761034a8161021b565b6103538461022d565b81016020851015610362578190505b61037661036e8561022d565b830182610316565b50505b505050565b5f82821c905092915050565b5f6103995f198460080261037e565b1980831691505092915050565b5f6103b1838361038a565b9150826002028217905092915050565b6103ca82610187565b67ffffffffffffffff8111156103e3576103e2610191565b5b6103ed82546101eb565b6103f8828285610338565b5f60209050601f831160018114610429575f8415610417578287015190505b61042185826103a6565b865550610488565b601f1984166104378661021b565b5f5b8281101561045e57848901518255600182019150602085019450602081019050610439565b8683101561047b5784890151610477601f89168261038a565b8355505b6001600288020188555050505b505050505050565b5f80fd5b61049d81610299565b81146104a7575f80fd5b50565b5f815190506104b881610494565b92915050565b5f602082840312156104d3576104d2610490565b5b5f6104e0848285016104aa565b91505092915050565b6112b1806104f65f395ff3fe608060405234801561000f575f80fd5b50600436106100e8575f3560e01c806379a5bd951161008a578063a9059cbb11610064578063a9059cbb1461027a578063ba8e3557146102aa578063bc4530e7146102c8578063dd62ed3e146102e6576100e8565b806379a5bd95146101f457806382b682631461022857806395d89b411461025c576100e8565b8063468229ae116100c6578063468229ae146101585780635a3b7e421461017657806370a0823114610194578063760b06c5146101c4576100e8565b806306fdde03146100ec57806318160ddd1461010a57806323b872dd14610128575b5f80fd5b6100f4610316565b6040516101019190610dc6565b60405180910390f35b6101126103a1565b60405161011f9190610dfe565b60405180910390f35b610142600480360381019061013d9190610e9f565b6103a7565b60405161014f9190610f09565b60405180910390f35b610160610619565b60405161016d9190610f31565b60405180910390f35b61017e61063e565b60405161018b9190610dc6565b60405180910390f35b6101ae60048036038101906101a99190610f4a565b6106ca565b6040516101bb9190610dfe565b60405180910390f35b6101de60048036038101906101d99190610f75565b6106df565b6040516101eb9190610f31565b60405180910390f35b61020e60048036038101906102099190610f4a565b61071a565b60405161021f959493929190610fa0565b60405180910390f35b610242600480360381019061023d9190610f4a565b610796565b604051610253959493929190610fa0565b60405180910390f35b61026461093c565b6040516102719190610dc6565b60405180910390f35b610294600480360381019061028f9190610ff1565b6109c8565b6040516102a19190610f09565b60405180910390f35b6102b2610c8c565b6040516102bf91906110e6565b60405180910390f35b6102d0610d17565b6040516102dd9190610dfe565b60405180910390f35b61030060048036038101906102fb9190611106565b610d1d565b60405161030d9190610dfe565b60405180910390f35b5f805461032290611171565b80601f016020809104026020016040519081016040528092919081815260200182805461034e90611171565b80156103995780601f1061037057610100808354040283529160200191610399565b820191905f5260205f20905b81548152906001019060200180831161037c57829003601f168201915b505050505081565b60035481565b5f60085f8573ffffffffffffffffffffffffffffffffffffffff1673ffffffffffffffffffffffffffffffffffffffff1681526020019081526020015f20548211156103f1575f80fd5b60095f8573ffffffffffffffffffffffffffffffffffffffff1673ffffffffffffffffffffffffffffffffffffffff1681526020019081526020015f205f3373ffffffffffffffffffffffffffffffffffffffff1673ffffffffffffffffffffffffffffffffffffffff1681526020019081526020015f2054821115610475575f80fd5b8160085f8673ffffffffffffffffffffffffffffffffffffffff1673ffffffffffffffffffffffffffffffffffffffff1681526020019081526020015f205f8282546104c191906111ce565b925050819055508160085f8573ffffffffffffffffffffffffffffffffffffffff1673ffffffffffffffffffffffffffffffffffffffff1681526020019081526020015f205f8282546105149190611201565b925050819055508160095f8673ffffffffffffffffffffffffffffffffffffffff1673ffffffffffffffffffffffffffffffffffffffff1681526020019081526020015f205f3373ffffffffffffffffffffffffffffffffffffffff1673ffffffffffffffffffffffffffffffffffffffff1681526020019081526020015f205f8282546105a291906111ce565b925050819055508273ffffffffffffffffffffffffffffffffffffffff168473ffffffffffffffffffffffffffffffffffffffff167fddf252ad1be2c89b69c2b068fc378daa952ba7f163c4a11628f55a4df523b3ef846040516106069190610dfe565b60405180910390a3600190509392505050565b60045f9054906101000a900473ffffffffffffffffffffffffffffffffffffffff1681565b6002805461064b90611171565b80601f016020809104026020016040519081016040528092919081815260200182805461067790611171565b80156106c25780601f10610699576101008083540402835291602001916106c2565b820191905f5260205f20905b8154815290600101906020018083116106a557829003601f168201915b505050505081565b6008602052805f5260405f205f915090505481565b600681815481106106ee575f80fd5b905f5260205f20015f915054906101000a900473ffffffffffffffffffffffffffffffffffffffff1681565b6007602052805f5260405f205f91509050805f015490806001015f9054906101000a900473ffffffffffffffffffffffffffffffffffffffff1690806002015f9054906101000a900473ffffffffffffffffffffffffffffffffffffffff1690806003015490806004015f9054906101000a900460ff16905085565b5f805f805f60075f8773ffffffffffffffffffffffffffffffffffffffff1673ffffffffffffffffffffffffffffffffffffffff1681526020019081526020015f205f015460075f8873ffffffffffffffffffffffffffffffffffffffff1673ffffffffffffffffffffffffffffffffffffffff1681526020019081526020015f206002015f9054906101000a900473ffffffffffffffffffffffffffffffffffffffff1660075f8973ffffffffffffffffffffffffffffffffffffffff1673ffffffffffffffffffffffffffffffffffffffff1681526020019081526020015f206001015f9054906101000a900473ffffffffffffffffffffffffffffffffffffffff1660075f8a73ffffffffffffffffffffffffffffffffffffffff1673ffffffffffffffffffffffffffffffffffffffff1681526020019081526020015f206003015460075f8b73ffffffffffffffffffffffffffffffffffffffff1673ffffffffffffffffffffffffffffffffffffffff1681526020019081526020015f206004015f9054906101000a900460ff169450945094509450945091939590929450565b6001805461094990611171565b80601f016020809104026020016040519081016040528092919081815260200182805461097590611171565b80156109c05780601f10610997576101008083540402835291602001916109c0565b820191905f5260205f20905b8154815290600101906020018083116109a357829003601f168201915b505050505081565b5f8160085f3373ffffffffffffffffffffffffffffffffffffffff1673ffffffffffffffffffffffffffffffffffffffff1681526020019081526020015f20541015610a12575f80fd5b610a1a610d3d565b8160085f3373ffffffffffffffffffffffffffffffffffffffff1673ffffffffffffffffffffffffffffffffffffffff1681526020019081526020015f205f828254610a6691906111ce565b925050819055508160085f8573ffffffffffffffffffffffffffffffffffffffff1673ffffffffffffffffffffffffffffffffffffffff1681526020019081526020015f205f828254610ab99190611201565b925050819055505f60075f8573ffffffffffffffffffffffffffffffffffffffff1673ffffffffffffffffffffffffffffffffffffffff1681526020019081526020015f20905083816002015f6101000a81548173ffffffffffffffffffffffffffffffffffffffff021916908373ffffffffffffffffffffffffffffffffffffffff16021790555033816001015f6101000a81548173ffffffffffffffffffffffffffffffffffffffff021916908373ffffffffffffffffffffffffffffffffffffffff1602179055506001816004015f6101000a81548160ff021916908315150217905550828160030181905550828160030181905550600554815f0181905550600684908060018154018082558091505060019003905f5260205f20015f9091909190916101000a81548173ffffffffffffffffffffffffffffffffffffffff021916908373ffffffffffffffffffffffffffffffffffffffff1602179055508373ffffffffffffffffffffffffffffffffffffffff163373ffffffffffffffffffffffffffffffffffffffff167fddf252ad1be2c89b69c2b068fc378daa952ba7f163c4a11628f55a4df523b3ef85604051610c799190610dfe565b60405180910390a3600191505092915050565b60606006805480602002602001604051908101604052809291908181526020018280548015610d0d57602002820191905f5260205f20905b815f9054906101000a900473ffffffffffffffffffffffffffffffffffffffff1673ffffffffffffffffffffffffffffffffffffffff1681526020019060010190808311610cc4575b5050505050905090565b60055481565b6009602052815f5260405f20602052805f5260405f205f91509150505481565b60055f815480929190610d4f90611234565b9190505550565b5f81519050919050565b5f82825260208201905092915050565b8281835e5f83830152505050565b5f601f19601f8301169050919050565b5f610d9882610d56565b610da28185610d60565b9350610db2818560208601610d70565b610dbb81610d7e565b840191505092915050565b5f6020820190508181035f830152610dde8184610d8e565b905092915050565b5f819050919050565b610df881610de6565b82525050565b5f602082019050610e115f830184610def565b92915050565b5f80fd5b5f73ffffffffffffffffffffffffffffffffffffffff82169050919050565b5f610e4482610e1b565b9050919050565b610e5481610e3a565b8114610e5e575f80fd5b50565b5f81359050610e6f81610e4b565b92915050565b610e7e81610de6565b8114610e88575f80fd5b50565b5f81359050610e9981610e75565b92915050565b5f805f60608486031215610eb657610eb5610e17565b5b5f610ec386828701610e61565b9350506020610ed486828701610e61565b9250506040610ee586828701610e8b565b9150509250925092565b5f8115159050919050565b610f0381610eef565b82525050565b5f602082019050610f1c5f830184610efa565b92915050565b610f2b81610e3a565b82525050565b5f602082019050610f445f830184610f22565b92915050565b5f60208284031215610f5f57610f5e610e17565b5b5f610f6c84828501610e61565b91505092915050565b5f60208284031215610f8a57610f89610e17565b5b5f610f9784828501610e8b565b91505092915050565b5f60a082019050610fb35f830188610def565b610fc06020830187610f22565b610fcd6040830186610f22565b610fda6060830185610def565b610fe76080830184610efa565b9695505050505050565b5f806040838503121561100757611006610e17565b5b5f61101485828601610e61565b925050602061102585828601610e8b565b9150509250929050565b5f81519050919050565b5f82825260208201905092915050565b5f819050602082019050919050565b61106181610e3a565b82525050565b5f6110728383611058565b60208301905092915050565b5f602082019050919050565b5f6110948261102f565b61109e8185611039565b93506110a983611049565b805f5b838110156110d95781516110c08882611067565b97506110cb8361107e565b9250506001810190506110ac565b5085935050505092915050565b5f6020820190508181035f8301526110fe818461108a565b905092915050565b5f806040838503121561111c5761111b610e17565b5b5f61112985828601610e61565b925050602061113a85828601610e61565b9150509250929050565b7f4e487b71000000000000000000000000000000000000000000000000000000005f52602260045260245ffd5b5f600282049050600182168061118857607f821691505b60208210810361119b5761119a611144565b5b50919050565b7f4e487b71000000000000000000000000000000000000000000000000000000005f52601160045260245ffd5b5f6111d882610de6565b91506111e383610de6565b92508282039050818111156111fb576111fa6111a1565b5b92915050565b5f61120b82610de6565b915061121683610de6565b925082820190508082111561122e5761122d6111a1565b5b92915050565b5f61123e82610de6565b91507fffffffffffffffffffffffffffffffffffffffffffffffffffffffffffffffff82036112705761126f6111a1565b5b60018201905091905056fea2646970667358221220a5f23bb7c13a3b81b3cd30b606ffa6ee1e5bf502bc3d01f3d7d842ab7b2cbd0664736f6c634300081a0033",
					"opcodes": "PUSH1 0x80 PUSH1 0x40 MSTORE PUSH1 0x40 MLOAD DUP1 PUSH1 0x40 ADD PUSH1 0x40 MSTORE DUP1 PUSH1 0x15 DUP2 MSTORE PUSH1 0x20 ADD PUSH32 0x54686520426C6F636B636861696E20436F646572730000000000000000000000 DUP2 MSTORE POP PUSH0 SWAP1 DUP2 PUSH2 0x47 SWAP2 SWAP1 PUSH2 0x3C1 JUMP JUMPDEST POP PUSH1 0x40 MLOAD DUP1 PUSH1 0x40 ADD PUSH1 0x40 MSTORE DUP1 PUSH1 0x3 DUP2 MSTORE PUSH1 0x20 ADD PUSH32 0x5442430000000000000000000000000000000000000000000000000000000000 DUP2 MSTORE POP PUSH1 0x1 SWAP1 DUP2 PUSH2 0x8C SWAP2 SWAP1 PUSH2 0x3C1 JUMP JUMPDEST POP PUSH1 0x40 MLOAD DUP1 PUSH1 0x40 ADD PUSH1 0x40 MSTORE DUP1 PUSH1 0x1A DUP2 MSTORE PUSH1 0x20 ADD PUSH32 0x40746865626C6F636B636861696E636F6465727320762E302E31000000000000 DUP2 MSTORE POP PUSH1 0x2 SWAP1 DUP2 PUSH2 0xD1 SWAP2 SWAP1 PUSH2 0x3C1 JUMP JUMPDEST POP CALLVALUE DUP1 ISZERO PUSH2 0xDD JUMPI PUSH0 DUP1 REVERT JUMPDEST POP PUSH1 0x40 MLOAD PUSH2 0x17A7 CODESIZE SUB DUP1 PUSH2 0x17A7 DUP4 CODECOPY DUP2 DUP2 ADD PUSH1 0x40 MSTORE DUP2 ADD SWAP1 PUSH2 0xFF SWAP2 SWAP1 PUSH2 0x4BE JUMP JUMPDEST CALLER PUSH1 0x4 PUSH0 PUSH2 0x100 EXP DUP2 SLOAD DUP2 PUSH20 0xFFFFFFFFFFFFFFFFFFFFFFFFFFFFFFFFFFFFFFFF MUL NOT AND SWAP1 DUP4 PUSH20 0xFFFFFFFFFFFFFFFFFFFFFFFFFFFFFFFFFFFFFFFF AND MUL OR SWAP1 SSTORE POP DUP1 PUSH1 0x8 PUSH0 CALLER PUSH20 0xFFFFFFFFFFFFFFFFFFFFFFFFFFFFFFFFFFFFFFFF AND PUSH20 0xFFFFFFFFFFFFFFFFFFFFFFFFFFFFFFFFFFFFFFFF AND DUP2 MSTORE PUSH1 0x20 ADD SWAP1 DUP2 MSTORE PUSH1 0x20 ADD PUSH0 KECCAK256 DUP2 SWAP1 SSTORE POP POP PUSH2 0x4E9 JUMP JUMPDEST PUSH0 DUP2 MLOAD SWAP1 POP SWAP2 SWAP1 POP JUMP JUMPDEST PUSH32 0x4E487B7100000000000000000000000000000000000000000000000000000000 PUSH0 MSTORE PUSH1 0x41 PUSH1 0x4 MSTORE PUSH1 0x24 PUSH0 REVERT JUMPDEST PUSH32 0x4E487B7100000000000000000000000000000000000000000000000000000000 PUSH0 MSTORE PUSH1 0x22 PUSH1 0x4 MSTORE PUSH1 0x24 PUSH0 REVERT JUMPDEST PUSH0 PUSH1 0x2 DUP3 DIV SWAP1 POP PUSH1 0x1 DUP3 AND DUP1 PUSH2 0x202 JUMPI PUSH1 0x7F DUP3 AND SWAP2 POP JUMPDEST PUSH1 0x20 DUP3 LT DUP2 SUB PUSH2 0x215 JUMPI PUSH2 0x214 PUSH2 0x1BE JUMP JUMPDEST JUMPDEST POP SWAP2 SWAP1 POP JUMP JUMPDEST PUSH0 DUP2 SWAP1 POP DUP2 PUSH0 MSTORE PUSH1 0x20 PUSH0 KECCAK256 SWAP1 POP SWAP2 SWAP1 POP JUMP JUMPDEST PUSH0 PUSH1 0x20 PUSH1 0x1F DUP4 ADD DIV SWAP1 POP SWAP2 SWAP1 POP JUMP JUMPDEST PUSH0 DUP3 DUP3 SHL SWAP1 POP SWAP3 SWAP2 POP POP JUMP JUMPDEST PUSH0 PUSH1 0x8 DUP4 MUL PUSH2 0x277 PUSH32 0xFFFFFFFFFFFFFFFFFFFFFFFFFFFFFFFFFFFFFFFFFFFFFFFFFFFFFFFFFFFFFFFF DUP3 PUSH2 0x23C JUMP JUMPDEST PUSH2 0x281 DUP7 DUP4 PUSH2 0x23C JUMP JUMPDEST SWAP6 POP DUP1 NOT DUP5 AND SWAP4 POP DUP1 DUP7 AND DUP5 OR SWAP3 POP POP POP SWAP4 SWAP3 POP POP POP JUMP JUMPDEST PUSH0 DUP2 SWAP1 POP SWAP2 SWAP1 POP JUMP JUMPDEST PUSH0 DUP2 SWAP1 POP SWAP2 SWAP1 POP JUMP JUMPDEST PUSH0 PUSH2 0x2C5 PUSH2 0x2C0 PUSH2 0x2BB DUP5 PUSH2 0x299 JUMP JUMPDEST PUSH2 0x2A2 JUMP JUMPDEST PUSH2 0x299 JUMP JUMPDEST SWAP1 POP SWAP2 SWAP1 POP JUMP JUMPDEST PUSH0 DUP2 SWAP1 POP SWAP2 SWAP1 POP JUMP JUMPDEST PUSH2 0x2DE DUP4 PUSH2 0x2AB JUMP JUMPDEST PUSH2 0x2F2 PUSH2 0x2EA DUP3 PUSH2 0x2CC JUMP JUMPDEST DUP5 DUP5 SLOAD PUSH2 0x248 JUMP JUMPDEST DUP3 SSTORE POP POP POP POP JUMP JUMPDEST PUSH0 SWAP1 JUMP JUMPDEST PUSH2 0x306 PUSH2 0x2FA JUMP JUMPDEST PUSH2 0x311 DUP2 DUP5 DUP5 PUSH2 0x2D5 JUMP JUMPDEST POP POP POP JUMP JUMPDEST JUMPDEST DUP2 DUP2 LT ISZERO PUSH2 0x334 JUMPI PUSH2 0x329 PUSH0 DUP3 PUSH2 0x2FE JUMP JUMPDEST PUSH1 0x1 DUP2 ADD SWAP1 POP PUSH2 0x317 JUMP JUMPDEST POP POP JUMP JUMPDEST PUSH1 0x1F DUP3 GT ISZERO PUSH2 0x379 JUMPI PUSH2 0x34A DUP2 PUSH2 0x21B JUMP JUMPDEST PUSH2 0x353 DUP5 PUSH2 0x22D JUMP JUMPDEST DUP2 ADD PUSH1 0x20 DUP6 LT ISZERO PUSH2 0x362 JUMPI DUP2 SWAP1 POP JUMPDEST PUSH2 0x376 PUSH2 0x36E DUP6 PUSH2 0x22D JUMP JUMPDEST DUP4 ADD DUP3 PUSH2 0x316 JUMP JUMPDEST POP POP JUMPDEST POP POP POP JUMP JUMPDEST PUSH0 DUP3 DUP3 SHR SWAP1 POP SWAP3 SWAP2 POP POP JUMP JUMPDEST PUSH0 PUSH2 0x399 PUSH0 NOT DUP5 PUSH1 0x8 MUL PUSH2 0x37E JUMP JUMPDEST NOT DUP1 DUP4 AND SWAP2 POP POP SWAP3 SWAP2 POP POP JUMP JUMPDEST PUSH0 PUSH2 0x3B1 DUP4 DUP4 PUSH2 0x38A JUMP JUMPDEST SWAP2 POP DUP3 PUSH1 0x2 MUL DUP3 OR SWAP1 POP SWAP3 SWAP2 POP POP JUMP JUMPDEST PUSH2 0x3CA DUP3 PUSH2 0x187 JUMP JUMPDEST PUSH8 0xFFFFFFFFFFFFFFFF DUP2 GT ISZERO PUSH2 0x3E3 JUMPI PUSH2 0x3E2 PUSH2 0x191 JUMP JUMPDEST JUMPDEST PUSH2 0x3ED DUP3 SLOAD PUSH2 0x1EB JUMP JUMPDEST PUSH2 0x3F8 DUP3 DUP3 DUP6 PUSH2 0x338 JUMP JUMPDEST PUSH0 PUSH1 0x20 SWAP1 POP PUSH1 0x1F DUP4 GT PUSH1 0x1 DUP2 EQ PUSH2 0x429 JUMPI PUSH0 DUP5 ISZERO PUSH2 0x417 JUMPI DUP3 DUP8 ADD MLOAD SWAP1 POP JUMPDEST PUSH2 0x421 DUP6 DUP3 PUSH2 0x3A6 JUMP JUMPDEST DUP7 SSTORE POP PUSH2 0x488 JUMP JUMPDEST PUSH1 0x1F NOT DUP5 AND PUSH2 0x437 DUP7 PUSH2 0x21B JUMP JUMPDEST PUSH0 JUMPDEST DUP3 DUP2 LT ISZERO PUSH2 0x45E JUMPI DUP5 DUP10 ADD MLOAD DUP3 SSTORE PUSH1 0x1 DUP3 ADD SWAP2 POP PUSH1 0x20 DUP6 ADD SWAP5 POP PUSH1 0x20 DUP2 ADD SWAP1 POP PUSH2 0x439 JUMP JUMPDEST DUP7 DUP4 LT ISZERO PUSH2 0x47B JUMPI DUP5 DUP10 ADD MLOAD PUSH2 0x477 PUSH1 0x1F DUP10 AND DUP3 PUSH2 0x38A JUMP JUMPDEST DUP4 SSTORE POP JUMPDEST PUSH1 0x1 PUSH1 0x2 DUP9 MUL ADD DUP9 SSTORE POP POP POP JUMPDEST POP POP POP POP POP POP JUMP JUMPDEST PUSH0 DUP1 REVERT JUMPDEST PUSH2 0x49D DUP2 PUSH2 0x299 JUMP JUMPDEST DUP2 EQ PUSH2 0x4A7 JUMPI PUSH0 DUP1 REVERT JUMPDEST POP JUMP JUMPDEST PUSH0 DUP2 MLOAD SWAP1 POP PUSH2 0x4B8 DUP2 PUSH2 0x494 JUMP JUMPDEST SWAP3 SWAP2 POP POP JUMP JUMPDEST PUSH0 PUSH1 0x20 DUP3 DUP5 SUB SLT ISZERO PUSH2 0x4D3 JUMPI PUSH2 0x4D2 PUSH2 0x490 JUMP JUMPDEST JUMPDEST PUSH0 PUSH2 0x4E0 DUP5 DUP3 DUP6 ADD PUSH2 0x4AA JUMP JUMPDEST SWAP2 POP POP SWAP3 SWAP2 POP POP JUMP JUMPDEST PUSH2 0x12B1 DUP1 PUSH2 0x4F6 PUSH0 CODECOPY PUSH0 RETURN INVALID PUSH1 0x80 PUSH1 0x40 MSTORE CALLVALUE DUP1 ISZERO PUSH2 0xF JUMPI PUSH0 DUP1 REVERT JUMPDEST POP PUSH1 0x4 CALLDATASIZE LT PUSH2 0xE8 JUMPI PUSH0 CALLDATALOAD PUSH1 0xE0 SHR DUP1 PUSH4 0x79A5BD95 GT PUSH2 0x8A JUMPI DUP1 PUSH4 0xA9059CBB GT PUSH2 0x64 JUMPI DUP1 PUSH4 0xA9059CBB EQ PUSH2 0x27A JUMPI DUP1 PUSH4 0xBA8E3557 EQ PUSH2 0x2AA JUMPI DUP1 PUSH4 0xBC4530E7 EQ PUSH2 0x2C8 JUMPI DUP1 PUSH4 0xDD62ED3E EQ PUSH2 0x2E6 JUMPI PUSH2 0xE8 JUMP JUMPDEST DUP1 PUSH4 0x79A5BD95 EQ PUSH2 0x1F4 JUMPI DUP1 PUSH4 0x82B68263 EQ PUSH2 0x228 JUMPI DUP1 PUSH4 0x95D89B41 EQ PUSH2 0x25C JUMPI PUSH2 0xE8 JUMP JUMPDEST DUP1 PUSH4 0x468229AE GT PUSH2 0xC6 JUMPI DUP1 PUSH4 0x468229AE EQ PUSH2 0x158 JUMPI DUP1 PUSH4 0x5A3B7E42 EQ PUSH2 0x176 JUMPI DUP1 PUSH4 0x70A08231 EQ PUSH2 0x194 JUMPI DUP1 PUSH4 0x760B06C5 EQ PUSH2 0x1C4 JUMPI PUSH2 0xE8 JUMP JUMPDEST DUP1 PUSH4 0x6FDDE03 EQ PUSH2 0xEC JUMPI DUP1 PUSH4 0x18160DDD EQ PUSH2 0x10A JUMPI DUP1 PUSH4 0x23B872DD EQ PUSH2 0x128 JUMPI JUMPDEST PUSH0 DUP1 REVERT JUMPDEST PUSH2 0xF4 PUSH2 0x316 JUMP JUMPDEST PUSH1 0x40 MLOAD PUSH2 0x101 SWAP2 SWAP1 PUSH2 0xDC6 JUMP JUMPDEST PUSH1 0x40 MLOAD DUP1 SWAP2 SUB SWAP1 RETURN JUMPDEST PUSH2 0x112 PUSH2 0x3A1 JUMP JUMPDEST PUSH1 0x40 MLOAD PUSH2 0x11F SWAP2 SWAP1 PUSH2 0xDFE JUMP JUMPDEST PUSH1 0x40 MLOAD DUP1 SWAP2 SUB SWAP1 RETURN JUMPDEST PUSH2 0x142 PUSH1 0x4 DUP1 CALLDATASIZE SUB DUP2 ADD SWAP1 PUSH2 0x13D SWAP2 SWAP1 PUSH2 0xE9F JUMP JUMPDEST PUSH2 0x3A7 JUMP JUMPDEST PUSH1 0x40 MLOAD PUSH2 0x14F SWAP2 SWAP1 PUSH2 0xF09 JUMP JUMPDEST PUSH1 0x40 MLOAD DUP1 SWAP2 SUB SWAP1 RETURN JUMPDEST PUSH2 0x160 PUSH2 0x619 JUMP JUMPDEST PUSH1 0x40 MLOAD PUSH2 0x16D SWAP2 SWAP1 PUSH2 0xF31 JUMP JUMPDEST PUSH1 0x40 MLOAD DUP1 SWAP2 SUB SWAP1 RETURN JUMPDEST PUSH2 0x17E PUSH2 0x63E JUMP JUMPDEST PUSH1 0x40 MLOAD PUSH2 0x18B SWAP2 SWAP1 PUSH2 0xDC6 JUMP JUMPDEST PUSH1 0x40 MLOAD DUP1 SWAP2 SUB SWAP1 RETURN JUMPDEST PUSH2 0x1AE PUSH1 0x4 DUP1 CALLDATASIZE SUB DUP2 ADD SWAP1 PUSH2 0x1A9 SWAP2 SWAP1 PUSH2 0xF4A JUMP JUMPDEST PUSH2 0x6CA JUMP JUMPDEST PUSH1 0x40 MLOAD PUSH2 0x1BB SWAP2 SWAP1 PUSH2 0xDFE JUMP JUMPDEST PUSH1 0x40 MLOAD DUP1 SWAP2 SUB SWAP1 RETURN JUMPDEST PUSH2 0x1DE PUSH1 0x4 DUP1 CALLDATASIZE SUB DUP2 ADD SWAP1 PUSH2 0x1D9 SWAP2 SWAP1 PUSH2 0xF75 JUMP JUMPDEST PUSH2 0x6DF JUMP JUMPDEST PUSH1 0x40 MLOAD PUSH2 0x1EB SWAP2 SWAP1 PUSH2 0xF31 JUMP JUMPDEST PUSH1 0x40 MLOAD DUP1 SWAP2 SUB SWAP1 RETURN JUMPDEST PUSH2 0x20E PUSH1 0x4 DUP1 CALLDATASIZE SUB DUP2 ADD SWAP1 PUSH2 0x209 SWAP2 SWAP1 PUSH2 0xF4A JUMP JUMPDEST PUSH2 0x71A JUMP JUMPDEST PUSH1 0x40 MLOAD PUSH2 0x21F SWAP6 SWAP5 SWAP4 SWAP3 SWAP2 SWAP1 PUSH2 0xFA0 JUMP JUMPDEST PUSH1 0x40 MLOAD DUP1 SWAP2 SUB SWAP1 RETURN JUMPDEST PUSH2 0x242 PUSH1 0x4 DUP1 CALLDATASIZE SUB DUP2 ADD SWAP1 PUSH2 0x23D SWAP2 SWAP1 PUSH2 0xF4A JUMP JUMPDEST PUSH2 0x796 JUMP JUMPDEST PUSH1 0x40 MLOAD PUSH2 0x253 SWAP6 SWAP5 SWAP4 SWAP3 SWAP2 SWAP1 PUSH2 0xFA0 JUMP JUMPDEST PUSH1 0x40 MLOAD DUP1 SWAP2 SUB SWAP1 RETURN JUMPDEST PUSH2 0x264 PUSH2 0x93C JUMP JUMPDEST PUSH1 0x40 MLOAD PUSH2 0x271 SWAP2 SWAP1 PUSH2 0xDC6 JUMP JUMPDEST PUSH1 0x40 MLOAD DUP1 SWAP2 SUB SWAP1 RETURN JUMPDEST PUSH2 0x294 PUSH1 0x4 DUP1 CALLDATASIZE SUB DUP2 ADD SWAP1 PUSH2 0x28F SWAP2 SWAP1 PUSH2 0xFF1 JUMP JUMPDEST PUSH2 0x9C8 JUMP JUMPDEST PUSH1 0x40 MLOAD PUSH2 0x2A1 SWAP2 SWAP1 PUSH2 0xF09 JUMP JUMPDEST PUSH1 0x40 MLOAD DUP1 SWAP2 SUB SWAP1 RETURN JUMPDEST PUSH2 0x2B2 PUSH2 0xC8C JUMP JUMPDEST PUSH1 0x40 MLOAD PUSH2 0x2BF SWAP2 SWAP1 PUSH2 0x10E6 JUMP JUMPDEST PUSH1 0x40 MLOAD DUP1 SWAP2 SUB SWAP1 RETURN JUMPDEST PUSH2 0x2D0 PUSH2 0xD17 JUMP JUMPDEST PUSH1 0x40 MLOAD PUSH2 0x2DD SWAP2 SWAP1 PUSH2 0xDFE JUMP JUMPDEST PUSH1 0x40 MLOAD DUP1 SWAP2 SUB SWAP1 RETURN JUMPDEST PUSH2 0x300 PUSH1 0x4 DUP1 CALLDATASIZE SUB DUP2 ADD SWAP1 PUSH2 0x2FB SWAP2 SWAP1 PUSH2 0x1106 JUMP JUMPDEST PUSH2 0xD1D JUMP JUMPDEST PUSH1 0x40 MLOAD PUSH2 0x30D SWAP2 SWAP1 PUSH2 0xDFE JUMP JUMPDEST PUSH1 0x40 MLOAD DUP1 SWAP2 SUB SWAP1 RETURN JUMPDEST PUSH0 DUP1 SLOAD PUSH2 0x322 SWAP1 PUSH2 0x1171 JUMP JUMPDEST DUP1 PUSH1 0x1F ADD PUSH1 0x20 DUP1 SWAP2 DIV MUL PUSH1 0x20 ADD PUSH1 0x40 MLOAD SWAP1 DUP2 ADD PUSH1 0x40 MSTORE DUP1 SWAP3 SWAP2 SWAP1 DUP2 DUP2 MSTORE PUSH1 0x20 ADD DUP3 DUP1 SLOAD PUSH2 0x34E SWAP1 PUSH2 0x1171 JUMP JUMPDEST DUP1 ISZERO PUSH2 0x399 JUMPI DUP1 PUSH1 0x1F LT PUSH2 0x370 JUMPI PUSH2 0x100 DUP1 DUP4 SLOAD DIV MUL DUP4 MSTORE SWAP2 PUSH1 0x20 ADD SWAP2 PUSH2 0x399 JUMP JUMPDEST DUP3 ADD SWAP2 SWAP1 PUSH0 MSTORE PUSH1 0x20 PUSH0 KECCAK256 SWAP1 JUMPDEST DUP2 SLOAD DUP2 MSTORE SWAP1 PUSH1 0x1 ADD SWAP1 PUSH1 0x20 ADD DUP1 DUP4 GT PUSH2 0x37C JUMPI DUP3 SWAP1 SUB PUSH1 0x1F AND DUP3 ADD SWAP2 JUMPDEST POP POP POP POP POP DUP2 JUMP JUMPDEST PUSH1 0x3 SLOAD DUP2 JUMP JUMPDEST PUSH0 PUSH1 0x8 PUSH0 DUP6 PUSH20 0xFFFFFFFFFFFFFFFFFFFFFFFFFFFFFFFFFFFFFFFF AND PUSH20 0xFFFFFFFFFFFFFFFFFFFFFFFFFFFFFFFFFFFFFFFF AND DUP2 MSTORE PUSH1 0x20 ADD SWAP1 DUP2 MSTORE PUSH1 0x20 ADD PUSH0 KECCAK256 SLOAD DUP3 GT ISZERO PUSH2 0x3F1 JUMPI PUSH0 DUP1 REVERT JUMPDEST PUSH1 0x9 PUSH0 DUP6 PUSH20 0xFFFFFFFFFFFFFFFFFFFFFFFFFFFFFFFFFFFFFFFF AND PUSH20 0xFFFFFFFFFFFFFFFFFFFFFFFFFFFFFFFFFFFFFFFF AND DUP2 MSTORE PUSH1 0x20 ADD SWAP1 DUP2 MSTORE PUSH1 0x20 ADD PUSH0 KECCAK256 PUSH0 CALLER PUSH20 0xFFFFFFFFFFFFFFFFFFFFFFFFFFFFFFFFFFFFFFFF AND PUSH20 0xFFFFFFFFFFFFFFFFFFFFFFFFFFFFFFFFFFFFFFFF AND DUP2 MSTORE PUSH1 0x20 ADD SWAP1 DUP2 MSTORE PUSH1 0x20 ADD PUSH0 KECCAK256 SLOAD DUP3 GT ISZERO PUSH2 0x475 JUMPI PUSH0 DUP1 REVERT JUMPDEST DUP2 PUSH1 0x8 PUSH0 DUP7 PUSH20 0xFFFFFFFFFFFFFFFFFFFFFFFFFFFFFFFFFFFFFFFF AND PUSH20 0xFFFFFFFFFFFFFFFFFFFFFFFFFFFFFFFFFFFFFFFF AND DUP2 MSTORE PUSH1 0x20 ADD SWAP1 DUP2 MSTORE PUSH1 0x20 ADD PUSH0 KECCAK256 PUSH0 DUP3 DUP3 SLOAD PUSH2 0x4C1 SWAP2 SWAP1 PUSH2 0x11CE JUMP JUMPDEST SWAP3 POP POP DUP2 SWAP1 SSTORE POP DUP2 PUSH1 0x8 PUSH0 DUP6 PUSH20 0xFFFFFFFFFFFFFFFFFFFFFFFFFFFFFFFFFFFFFFFF AND PUSH20 0xFFFFFFFFFFFFFFFFFFFFFFFFFFFFFFFFFFFFFFFF AND DUP2 MSTORE PUSH1 0x20 ADD SWAP1 DUP2 MSTORE PUSH1 0x20 ADD PUSH0 KECCAK256 PUSH0 DUP3 DUP3 SLOAD PUSH2 0x514 SWAP2 SWAP1 PUSH2 0x1201 JUMP JUMPDEST SWAP3 POP POP DUP2 SWAP1 SSTORE POP DUP2 PUSH1 0x9 PUSH0 DUP7 PUSH20 0xFFFFFFFFFFFFFFFFFFFFFFFFFFFFFFFFFFFFFFFF AND PUSH20 0xFFFFFFFFFFFFFFFFFFFFFFFFFFFFFFFFFFFFFFFF AND DUP2 MSTORE PUSH1 0x20 ADD SWAP1 DUP2 MSTORE PUSH1 0x20 ADD PUSH0 KECCAK256 PUSH0 CALLER PUSH20 0xFFFFFFFFFFFFFFFFFFFFFFFFFFFFFFFFFFFFFFFF AND PUSH20 0xFFFFFFFFFFFFFFFFFFFFFFFFFFFFFFFFFFFFFFFF AND DUP2 MSTORE PUSH1 0x20 ADD SWAP1 DUP2 MSTORE PUSH1 0x20 ADD PUSH0 KECCAK256 PUSH0 DUP3 DUP3 SLOAD PUSH2 0x5A2 SWAP2 SWAP1 PUSH2 0x11CE JUMP JUMPDEST SWAP3 POP POP DUP2 SWAP1 SSTORE POP DUP3 PUSH20 0xFFFFFFFFFFFFFFFFFFFFFFFFFFFFFFFFFFFFFFFF AND DUP5 PUSH20 0xFFFFFFFFFFFFFFFFFFFFFFFFFFFFFFFFFFFFFFFF AND PUSH32 0xDDF252AD1BE2C89B69C2B068FC378DAA952BA7F163C4A11628F55A4DF523B3EF DUP5 PUSH1 0x40 MLOAD PUSH2 0x606 SWAP2 SWAP1 PUSH2 0xDFE JUMP JUMPDEST PUSH1 0x40 MLOAD DUP1 SWAP2 SUB SWAP1 LOG3 PUSH1 0x1 SWAP1 POP SWAP4 SWAP3 POP POP POP JUMP JUMPDEST PUSH1 0x4 PUSH0 SWAP1 SLOAD SWAP1 PUSH2 0x100 EXP SWAP1 DIV PUSH20 0xFFFFFFFFFFFFFFFFFFFFFFFFFFFFFFFFFFFFFFFF AND DUP2 JUMP JUMPDEST PUSH1 0x2 DUP1 SLOAD PUSH2 0x64B SWAP1 PUSH2 0x1171 JUMP JUMPDEST DUP1 PUSH1 0x1F ADD PUSH1 0x20 DUP1 SWAP2 DIV MUL PUSH1 0x20 ADD PUSH1 0x40 MLOAD SWAP1 DUP2 ADD PUSH1 0x40 MSTORE DUP1 SWAP3 SWAP2 SWAP1 DUP2 DUP2 MSTORE PUSH1 0x20 ADD DUP3 DUP1 SLOAD PUSH2 0x677 SWAP1 PUSH2 0x1171 JUMP JUMPDEST DUP1 ISZERO PUSH2 0x6C2 JUMPI DUP1 PUSH1 0x1F LT PUSH2 0x699 JUMPI PUSH2 0x100 DUP1 DUP4 SLOAD DIV MUL DUP4 MSTORE SWAP2 PUSH1 0x20 ADD SWAP2 PUSH2 0x6C2 JUMP JUMPDEST DUP3 ADD SWAP2 SWAP1 PUSH0 MSTORE PUSH1 0x20 PUSH0 KECCAK256 SWAP1 JUMPDEST DUP2 SLOAD DUP2 MSTORE SWAP1 PUSH1 0x1 ADD SWAP1 PUSH1 0x20 ADD DUP1 DUP4 GT PUSH2 0x6A5 JUMPI DUP3 SWAP1 SUB PUSH1 0x1F AND DUP3 ADD SWAP2 JUMPDEST POP POP POP POP POP DUP2 JUMP JUMPDEST PUSH1 0x8 PUSH1 0x20 MSTORE DUP1 PUSH0 MSTORE PUSH1 0x40 PUSH0 KECCAK256 PUSH0 SWAP2 POP SWAP1 POP SLOAD DUP2 JUMP JUMPDEST PUSH1 0x6 DUP2 DUP2 SLOAD DUP2 LT PUSH2 0x6EE JUMPI PUSH0 DUP1 REVERT JUMPDEST SWAP1 PUSH0 MSTORE PUSH1 0x20 PUSH0 KECCAK256 ADD PUSH0 SWAP2 POP SLOAD SWAP1 PUSH2 0x100 EXP SWAP1 DIV PUSH20 0xFFFFFFFFFFFFFFFFFFFFFFFFFFFFFFFFFFFFFFFF AND DUP2 JUMP JUMPDEST PUSH1 0x7 PUSH1 0x20 MSTORE DUP1 PUSH0 MSTORE PUSH1 0x40 PUSH0 KECCAK256 PUSH0 SWAP2 POP SWAP1 POP DUP1 PUSH0 ADD SLOAD SWAP1 DUP1 PUSH1 0x1 ADD PUSH0 SWAP1 SLOAD SWAP1 PUSH2 0x100 EXP SWAP1 DIV PUSH20 0xFFFFFFFFFFFFFFFFFFFFFFFFFFFFFFFFFFFFFFFF AND SWAP1 DUP1 PUSH1 0x2 ADD PUSH0 SWAP1 SLOAD SWAP1 PUSH2 0x100 EXP SWAP1 DIV PUSH20 0xFFFFFFFFFFFFFFFFFFFFFFFFFFFFFFFFFFFFFFFF AND SWAP1 DUP1 PUSH1 0x3 ADD SLOAD SWAP1 DUP1 PUSH1 0x4 ADD PUSH0 SWAP1 SLOAD SWAP1 PUSH2 0x100 EXP SWAP1 DIV PUSH1 0xFF AND SWAP1 POP DUP6 JUMP JUMPDEST PUSH0 DUP1 PUSH0 DUP1 PUSH0 PUSH1 0x7 PUSH0 DUP8 PUSH20 0xFFFFFFFFFFFFFFFFFFFFFFFFFFFFFFFFFFFFFFFF AND PUSH20 0xFFFFFFFFFFFFFFFFFFFFFFFFFFFFFFFFFFFFFFFF AND DUP2 MSTORE PUSH1 0x20 ADD SWAP1 DUP2 MSTORE PUSH1 0x20 ADD PUSH0 KECCAK256 PUSH0 ADD SLOAD PUSH1 0x7 PUSH0 DUP9 PUSH20 0xFFFFFFFFFFFFFFFFFFFFFFFFFFFFFFFFFFFFFFFF AND PUSH20 0xFFFFFFFFFFFFFFFFFFFFFFFFFFFFFFFFFFFFFFFF AND DUP2 MSTORE PUSH1 0x20 ADD SWAP1 DUP2 MSTORE PUSH1 0x20 ADD PUSH0 KECCAK256 PUSH1 0x2 ADD PUSH0 SWAP1 SLOAD SWAP1 PUSH2 0x100 EXP SWAP1 DIV PUSH20 0xFFFFFFFFFFFFFFFFFFFFFFFFFFFFFFFFFFFFFFFF AND PUSH1 0x7 PUSH0 DUP10 PUSH20 0xFFFFFFFFFFFFFFFFFFFFFFFFFFFFFFFFFFFFFFFF AND PUSH20 0xFFFFFFFFFFFFFFFFFFFFFFFFFFFFFFFFFFFFFFFF AND DUP2 MSTORE PUSH1 0x20 ADD SWAP1 DUP2 MSTORE PUSH1 0x20 ADD PUSH0 KECCAK256 PUSH1 0x1 ADD PUSH0 SWAP1 SLOAD SWAP1 PUSH2 0x100 EXP SWAP1 DIV PUSH20 0xFFFFFFFFFFFFFFFFFFFFFFFFFFFFFFFFFFFFFFFF AND PUSH1 0x7 PUSH0 DUP11 PUSH20 0xFFFFFFFFFFFFFFFFFFFFFFFFFFFFFFFFFFFFFFFF AND PUSH20 0xFFFFFFFFFFFFFFFFFFFFFFFFFFFFFFFFFFFFFFFF AND DUP2 MSTORE PUSH1 0x20 ADD SWAP1 DUP2 MSTORE PUSH1 0x20 ADD PUSH0 KECCAK256 PUSH1 0x3 ADD SLOAD PUSH1 0x7 PUSH0 DUP12 PUSH20 0xFFFFFFFFFFFFFFFFFFFFFFFFFFFFFFFFFFFFFFFF AND PUSH20 0xFFFFFFFFFFFFFFFFFFFFFFFFFFFFFFFFFFFFFFFF AND DUP2 MSTORE PUSH1 0x20 ADD SWAP1 DUP2 MSTORE PUSH1 0x20 ADD PUSH0 KECCAK256 PUSH1 0x4 ADD PUSH0 SWAP1 SLOAD SWAP1 PUSH2 0x100 EXP SWAP1 DIV PUSH1 0xFF AND SWAP5 POP SWAP5 POP SWAP5 POP SWAP5 POP SWAP5 POP SWAP2 SWAP4 SWAP6 SWAP1 SWAP3 SWAP5 POP JUMP JUMPDEST PUSH1 0x1 DUP1 SLOAD PUSH2 0x949 SWAP1 PUSH2 0x1171 JUMP JUMPDEST DUP1 PUSH1 0x1F ADD PUSH1 0x20 DUP1 SWAP2 DIV MUL PUSH1 0x20 ADD PUSH1 0x40 MLOAD SWAP1 DUP2 ADD PUSH1 0x40 MSTORE DUP1 SWAP3 SWAP2 SWAP1 DUP2 DUP2 MSTORE PUSH1 0x20 ADD DUP3 DUP1 SLOAD PUSH2 0x975 SWAP1 PUSH2 0x1171 JUMP JUMPDEST DUP1 ISZERO PUSH2 0x9C0 JUMPI DUP1 PUSH1 0x1F LT PUSH2 0x997 JUMPI PUSH2 0x100 DUP1 DUP4 SLOAD DIV MUL DUP4 MSTORE SWAP2 PUSH1 0x20 ADD SWAP2 PUSH2 0x9C0 JUMP JUMPDEST DUP3 ADD SWAP2 SWAP1 PUSH0 MSTORE PUSH1 0x20 PUSH0 KECCAK256 SWAP1 JUMPDEST DUP2 SLOAD DUP2 MSTORE SWAP1 PUSH1 0x1 ADD SWAP1 PUSH1 0x20 ADD DUP1 DUP4 GT PUSH2 0x9A3 JUMPI DUP3 SWAP1 SUB PUSH1 0x1F AND DUP3 ADD SWAP2 JUMPDEST POP POP POP POP POP DUP2 JUMP JUMPDEST PUSH0 DUP2 PUSH1 0x8 PUSH0 CALLER PUSH20 0xFFFFFFFFFFFFFFFFFFFFFFFFFFFFFFFFFFFFFFFF AND PUSH20 0xFFFFFFFFFFFFFFFFFFFFFFFFFFFFFFFFFFFFFFFF AND DUP2 MSTORE PUSH1 0x20 ADD SWAP1 DUP2 MSTORE PUSH1 0x20 ADD PUSH0 KECCAK256 SLOAD LT ISZERO PUSH2 0xA12 JUMPI PUSH0 DUP1 REVERT JUMPDEST PUSH2 0xA1A PUSH2 0xD3D JUMP JUMPDEST DUP2 PUSH1 0x8 PUSH0 CALLER PUSH20 0xFFFFFFFFFFFFFFFFFFFFFFFFFFFFFFFFFFFFFFFF AND PUSH20 0xFFFFFFFFFFFFFFFFFFFFFFFFFFFFFFFFFFFFFFFF AND DUP2 MSTORE PUSH1 0x20 ADD SWAP1 DUP2 MSTORE PUSH1 0x20 ADD PUSH0 KECCAK256 PUSH0 DUP3 DUP3 SLOAD PUSH2 0xA66 SWAP2 SWAP1 PUSH2 0x11CE JUMP JUMPDEST SWAP3 POP POP DUP2 SWAP1 SSTORE POP DUP2 PUSH1 0x8 PUSH0 DUP6 PUSH20 0xFFFFFFFFFFFFFFFFFFFFFFFFFFFFFFFFFFFFFFFF AND PUSH20 0xFFFFFFFFFFFFFFFFFFFFFFFFFFFFFFFFFFFFFFFF AND DUP2 MSTORE PUSH1 0x20 ADD SWAP1 DUP2 MSTORE PUSH1 0x20 ADD PUSH0 KECCAK256 PUSH0 DUP3 DUP3 SLOAD PUSH2 0xAB9 SWAP2 SWAP1 PUSH2 0x1201 JUMP JUMPDEST SWAP3 POP POP DUP2 SWAP1 SSTORE POP PUSH0 PUSH1 0x7 PUSH0 DUP6 PUSH20 0xFFFFFFFFFFFFFFFFFFFFFFFFFFFFFFFFFFFFFFFF AND PUSH20 0xFFFFFFFFFFFFFFFFFFFFFFFFFFFFFFFFFFFFFFFF AND DUP2 MSTORE PUSH1 0x20 ADD SWAP1 DUP2 MSTORE PUSH1 0x20 ADD PUSH0 KECCAK256 SWAP1 POP DUP4 DUP2 PUSH1 0x2 ADD PUSH0 PUSH2 0x100 EXP DUP2 SLOAD DUP2 PUSH20 0xFFFFFFFFFFFFFFFFFFFFFFFFFFFFFFFFFFFFFFFF MUL NOT AND SWAP1 DUP4 PUSH20 0xFFFFFFFFFFFFFFFFFFFFFFFFFFFFFFFFFFFFFFFF AND MUL OR SWAP1 SSTORE POP CALLER DUP2 PUSH1 0x1 ADD PUSH0 PUSH2 0x100 EXP DUP2 SLOAD DUP2 PUSH20 0xFFFFFFFFFFFFFFFFFFFFFFFFFFFFFFFFFFFFFFFF MUL NOT AND SWAP1 DUP4 PUSH20 0xFFFFFFFFFFFFFFFFFFFFFFFFFFFFFFFFFFFFFFFF AND MUL OR SWAP1 SSTORE POP PUSH1 0x1 DUP2 PUSH1 0x4 ADD PUSH0 PUSH2 0x100 EXP DUP2 SLOAD DUP2 PUSH1 0xFF MUL NOT AND SWAP1 DUP4 ISZERO ISZERO MUL OR SWAP1 SSTORE POP DUP3 DUP2 PUSH1 0x3 ADD DUP2 SWAP1 SSTORE POP DUP3 DUP2 PUSH1 0x3 ADD DUP2 SWAP1 SSTORE POP PUSH1 0x5 SLOAD DUP2 PUSH0 ADD DUP2 SWAP1 SSTORE POP PUSH1 0x6 DUP5 SWAP1 DUP1 PUSH1 0x1 DUP2 SLOAD ADD DUP1 DUP3 SSTORE DUP1 SWAP2 POP POP PUSH1 0x1 SWAP1 SUB SWAP1 PUSH0 MSTORE PUSH1 0x20 PUSH0 KECCAK256 ADD PUSH0 SWAP1 SWAP2 SWAP1 SWAP2 SWAP1 SWAP2 PUSH2 0x100 EXP DUP2 SLOAD DUP2 PUSH20 0xFFFFFFFFFFFFFFFFFFFFFFFFFFFFFFFFFFFFFFFF MUL NOT AND SWAP1 DUP4 PUSH20 0xFFFFFFFFFFFFFFFFFFFFFFFFFFFFFFFFFFFFFFFF AND MUL OR SWAP1 SSTORE POP DUP4 PUSH20 0xFFFFFFFFFFFFFFFFFFFFFFFFFFFFFFFFFFFFFFFF AND CALLER PUSH20 0xFFFFFFFFFFFFFFFFFFFFFFFFFFFFFFFFFFFFFFFF AND PUSH32 0xDDF252AD1BE2C89B69C2B068FC378DAA952BA7F163C4A11628F55A4DF523B3EF DUP6 PUSH1 0x40 MLOAD PUSH2 0xC79 SWAP2 SWAP1 PUSH2 0xDFE JUMP JUMPDEST PUSH1 0x40 MLOAD DUP1 SWAP2 SUB SWAP1 LOG3 PUSH1 0x1 SWAP2 POP POP SWAP3 SWAP2 POP POP JUMP JUMPDEST PUSH1 0x60 PUSH1 0x6 DUP1 SLOAD DUP1 PUSH1 0x20 MUL PUSH1 0x20 ADD PUSH1 0x40 MLOAD SWAP1 DUP2 ADD PUSH1 0x40 MSTORE DUP1 SWAP3 SWAP2 SWAP1 DUP2 DUP2 MSTORE PUSH1 0x20 ADD DUP3 DUP1 SLOAD DUP1 ISZERO PUSH2 0xD0D JUMPI PUSH1 0x20 MUL DUP3 ADD SWAP2 SWAP1 PUSH0 MSTORE PUSH1 0x20 PUSH0 KECCAK256 SWAP1 JUMPDEST DUP2 PUSH0 SWAP1 SLOAD SWAP1 PUSH2 0x100 EXP SWAP1 DIV PUSH20 0xFFFFFFFFFFFFFFFFFFFFFFFFFFFFFFFFFFFFFFFF AND PUSH20 0xFFFFFFFFFFFFFFFFFFFFFFFFFFFFFFFFFFFFFFFF AND DUP2 MSTORE PUSH1 0x20 ADD SWAP1 PUSH1 0x1 ADD SWAP1 DUP1 DUP4 GT PUSH2 0xCC4 JUMPI JUMPDEST POP POP POP POP POP SWAP1 POP SWAP1 JUMP JUMPDEST PUSH1 0x5 SLOAD DUP2 JUMP JUMPDEST PUSH1 0x9 PUSH1 0x20 MSTORE DUP2 PUSH0 MSTORE PUSH1 0x40 PUSH0 KECCAK256 PUSH1 0x20 MSTORE DUP1 PUSH0 MSTORE PUSH1 0x40 PUSH0 KECCAK256 PUSH0 SWAP2 POP SWAP2 POP POP SLOAD DUP2 JUMP JUMPDEST PUSH1 0x5 PUSH0 DUP2 SLOAD DUP1 SWAP3 SWAP2 SWAP1 PUSH2 0xD4F SWAP1 PUSH2 0x1234 JUMP JUMPDEST SWAP2 SWAP1 POP SSTORE POP JUMP JUMPDEST PUSH0 DUP2 MLOAD SWAP1 POP SWAP2 SWAP1 POP JUMP JUMPDEST PUSH0 DUP3 DUP3 MSTORE PUSH1 0x20 DUP3 ADD SWAP1 POP SWAP3 SWAP2 POP POP JUMP JUMPDEST DUP3 DUP2 DUP4 MCOPY PUSH0 DUP4 DUP4 ADD MSTORE POP POP POP JUMP JUMPDEST PUSH0 PUSH1 0x1F NOT PUSH1 0x1F DUP4 ADD AND SWAP1 POP SWAP2 SWAP1 POP JUMP JUMPDEST PUSH0 PUSH2 0xD98 DUP3 PUSH2 0xD56 JUMP JUMPDEST PUSH2 0xDA2 DUP2 DUP6 PUSH2 0xD60 JUMP JUMPDEST SWAP4 POP PUSH2 0xDB2 DUP2 DUP6 PUSH1 0x20 DUP7 ADD PUSH2 0xD70 JUMP JUMPDEST PUSH2 0xDBB DUP2 PUSH2 0xD7E JUMP JUMPDEST DUP5 ADD SWAP2 POP POP SWAP3 SWAP2 POP POP JUMP JUMPDEST PUSH0 PUSH1 0x20 DUP3 ADD SWAP1 POP DUP2 DUP2 SUB PUSH0 DUP4 ADD MSTORE PUSH2 0xDDE DUP2 DUP5 PUSH2 0xD8E JUMP JUMPDEST SWAP1 POP SWAP3 SWAP2 POP POP JUMP JUMPDEST PUSH0 DUP2 SWAP1 POP SWAP2 SWAP1 POP JUMP JUMPDEST PUSH2 0xDF8 DUP2 PUSH2 0xDE6 JUMP JUMPDEST DUP3 MSTORE POP POP JUMP JUMPDEST PUSH0 PUSH1 0x20 DUP3 ADD SWAP1 POP PUSH2 0xE11 PUSH0 DUP4 ADD DUP5 PUSH2 0xDEF JUMP JUMPDEST SWAP3 SWAP2 POP POP JUMP JUMPDEST PUSH0 DUP1 REVERT JUMPDEST PUSH0 PUSH20 0xFFFFFFFFFFFFFFFFFFFFFFFFFFFFFFFFFFFFFFFF DUP3 AND SWAP1 POP SWAP2 SWAP1 POP JUMP JUMPDEST PUSH0 PUSH2 0xE44 DUP3 PUSH2 0xE1B JUMP JUMPDEST SWAP1 POP SWAP2 SWAP1 POP JUMP JUMPDEST PUSH2 0xE54 DUP2 PUSH2 0xE3A JUMP JUMPDEST DUP2 EQ PUSH2 0xE5E JUMPI PUSH0 DUP1 REVERT JUMPDEST POP JUMP JUMPDEST PUSH0 DUP2 CALLDATALOAD SWAP1 POP PUSH2 0xE6F DUP2 PUSH2 0xE4B JUMP JUMPDEST SWAP3 SWAP2 POP POP JUMP JUMPDEST PUSH2 0xE7E DUP2 PUSH2 0xDE6 JUMP JUMPDEST DUP2 EQ PUSH2 0xE88 JUMPI PUSH0 DUP1 REVERT JUMPDEST POP JUMP JUMPDEST PUSH0 DUP2 CALLDATALOAD SWAP1 POP PUSH2 0xE99 DUP2 PUSH2 0xE75 JUMP JUMPDEST SWAP3 SWAP2 POP POP JUMP JUMPDEST PUSH0 DUP1 PUSH0 PUSH1 0x60 DUP5 DUP7 SUB SLT ISZERO PUSH2 0xEB6 JUMPI PUSH2 0xEB5 PUSH2 0xE17 JUMP JUMPDEST JUMPDEST PUSH0 PUSH2 0xEC3 DUP7 DUP3 DUP8 ADD PUSH2 0xE61 JUMP JUMPDEST SWAP4 POP POP PUSH1 0x20 PUSH2 0xED4 DUP7 DUP3 DUP8 ADD PUSH2 0xE61 JUMP JUMPDEST SWAP3 POP POP PUSH1 0x40 PUSH2 0xEE5 DUP7 DUP3 DUP8 ADD PUSH2 0xE8B JUMP JUMPDEST SWAP2 POP POP SWAP3 POP SWAP3 POP SWAP3 JUMP JUMPDEST PUSH0 DUP2 ISZERO ISZERO SWAP1 POP SWAP2 SWAP1 POP JUMP JUMPDEST PUSH2 0xF03 DUP2 PUSH2 0xEEF JUMP JUMPDEST DUP3 MSTORE POP POP JUMP JUMPDEST PUSH0 PUSH1 0x20 DUP3 ADD SWAP1 POP PUSH2 0xF1C PUSH0 DUP4 ADD DUP5 PUSH2 0xEFA JUMP JUMPDEST SWAP3 SWAP2 POP POP JUMP JUMPDEST PUSH2 0xF2B DUP2 PUSH2 0xE3A JUMP JUMPDEST DUP3 MSTORE POP POP JUMP JUMPDEST PUSH0 PUSH1 0x20 DUP3 ADD SWAP1 POP PUSH2 0xF44 PUSH0 DUP4 ADD DUP5 PUSH2 0xF22 JUMP JUMPDEST SWAP3 SWAP2 POP POP JUMP JUMPDEST PUSH0 PUSH1 0x20 DUP3 DUP5 SUB SLT ISZERO PUSH2 0xF5F JUMPI PUSH2 0xF5E PUSH2 0xE17 JUMP JUMPDEST JUMPDEST PUSH0 PUSH2 0xF6C DUP5 DUP3 DUP6 ADD PUSH2 0xE61 JUMP JUMPDEST SWAP2 POP POP SWAP3 SWAP2 POP POP JUMP JUMPDEST PUSH0 PUSH1 0x20 DUP3 DUP5 SUB SLT ISZERO PUSH2 0xF8A JUMPI PUSH2 0xF89 PUSH2 0xE17 JUMP JUMPDEST JUMPDEST PUSH0 PUSH2 0xF97 DUP5 DUP3 DUP6 ADD PUSH2 0xE8B JUMP JUMPDEST SWAP2 POP POP SWAP3 SWAP2 POP POP JUMP JUMPDEST PUSH0 PUSH1 0xA0 DUP3 ADD SWAP1 POP PUSH2 0xFB3 PUSH0 DUP4 ADD DUP9 PUSH2 0xDEF JUMP JUMPDEST PUSH2 0xFC0 PUSH1 0x20 DUP4 ADD DUP8 PUSH2 0xF22 JUMP JUMPDEST PUSH2 0xFCD PUSH1 0x40 DUP4 ADD DUP7 PUSH2 0xF22 JUMP JUMPDEST PUSH2 0xFDA PUSH1 0x60 DUP4 ADD DUP6 PUSH2 0xDEF JUMP JUMPDEST PUSH2 0xFE7 PUSH1 0x80 DUP4 ADD DUP5 PUSH2 0xEFA JUMP JUMPDEST SWAP7 SWAP6 POP POP POP POP POP POP JUMP JUMPDEST PUSH0 DUP1 PUSH1 0x40 DUP4 DUP6 SUB SLT ISZERO PUSH2 0x1007 JUMPI PUSH2 0x1006 PUSH2 0xE17 JUMP JUMPDEST JUMPDEST PUSH0 PUSH2 0x1014 DUP6 DUP3 DUP7 ADD PUSH2 0xE61 JUMP JUMPDEST SWAP3 POP POP PUSH1 0x20 PUSH2 0x1025 DUP6 DUP3 DUP7 ADD PUSH2 0xE8B JUMP JUMPDEST SWAP2 POP POP SWAP3 POP SWAP3 SWAP1 POP JUMP JUMPDEST PUSH0 DUP2 MLOAD SWAP1 POP SWAP2 SWAP1 POP JUMP JUMPDEST PUSH0 DUP3 DUP3 MSTORE PUSH1 0x20 DUP3 ADD SWAP1 POP SWAP3 SWAP2 POP POP JUMP JUMPDEST PUSH0 DUP2 SWAP1 POP PUSH1 0x20 DUP3 ADD SWAP1 POP SWAP2 SWAP1 POP JUMP JUMPDEST PUSH2 0x1061 DUP2 PUSH2 0xE3A JUMP JUMPDEST DUP3 MSTORE POP POP JUMP JUMPDEST PUSH0 PUSH2 0x1072 DUP4 DUP4 PUSH2 0x1058 JUMP JUMPDEST PUSH1 0x20 DUP4 ADD SWAP1 POP SWAP3 SWAP2 POP POP JUMP JUMPDEST PUSH0 PUSH1 0x20 DUP3 ADD SWAP1 POP SWAP2 SWAP1 POP JUMP JUMPDEST PUSH0 PUSH2 0x1094 DUP3 PUSH2 0x102F JUMP JUMPDEST PUSH2 0x109E DUP2 DUP6 PUSH2 0x1039 JUMP JUMPDEST SWAP4 POP PUSH2 0x10A9 DUP4 PUSH2 0x1049 JUMP JUMPDEST DUP1 PUSH0 JUMPDEST DUP4 DUP2 LT ISZERO PUSH2 0x10D9 JUMPI DUP2 MLOAD PUSH2 0x10C0 DUP9 DUP3 PUSH2 0x1067 JUMP JUMPDEST SWAP8 POP PUSH2 0x10CB DUP4 PUSH2 0x107E JUMP JUMPDEST SWAP3 POP POP PUSH1 0x1 DUP2 ADD SWAP1 POP PUSH2 0x10AC JUMP JUMPDEST POP DUP6 SWAP4 POP POP POP POP SWAP3 SWAP2 POP POP JUMP JUMPDEST PUSH0 PUSH1 0x20 DUP3 ADD SWAP1 POP DUP2 DUP2 SUB PUSH0 DUP4 ADD MSTORE PUSH2 0x10FE DUP2 DUP5 PUSH2 0x108A JUMP JUMPDEST SWAP1 POP SWAP3 SWAP2 POP POP JUMP JUMPDEST PUSH0 DUP1 PUSH1 0x40 DUP4 DUP6 SUB SLT ISZERO PUSH2 0x111C JUMPI PUSH2 0x111B PUSH2 0xE17 JUMP JUMPDEST JUMPDEST PUSH0 PUSH2 0x1129 DUP6 DUP3 DUP7 ADD PUSH2 0xE61 JUMP JUMPDEST SWAP3 POP POP PUSH1 0x20 PUSH2 0x113A DUP6 DUP3 DUP7 ADD PUSH2 0xE61 JUMP JUMPDEST SWAP2 POP POP SWAP3 POP SWAP3 SWAP1 POP JUMP JUMPDEST PUSH32 0x4E487B7100000000000000000000000000000000000000000000000000000000 PUSH0 MSTORE PUSH1 0x22 PUSH1 0x4 MSTORE PUSH1 0x24 PUSH0 REVERT JUMPDEST PUSH0 PUSH1 0x2 DUP3 DIV SWAP1 POP PUSH1 0x1 DUP3 AND DUP1 PUSH2 0x1188 JUMPI PUSH1 0x7F DUP3 AND SWAP2 POP JUMPDEST PUSH1 0x20 DUP3 LT DUP2 SUB PUSH2 0x119B JUMPI PUSH2 0x119A PUSH2 0x1144 JUMP JUMPDEST JUMPDEST POP SWAP2 SWAP1 POP JUMP JUMPDEST PUSH32 0x4E487B7100000000000000000000000000000000000000000000000000000000 PUSH0 MSTORE PUSH1 0x11 PUSH1 0x4 MSTORE PUSH1 0x24 PUSH0 REVERT JUMPDEST PUSH0 PUSH2 0x11D8 DUP3 PUSH2 0xDE6 JUMP JUMPDEST SWAP2 POP PUSH2 0x11E3 DUP4 PUSH2 0xDE6 JUMP JUMPDEST SWAP3 POP DUP3 DUP3 SUB SWAP1 POP DUP2 DUP2 GT ISZERO PUSH2 0x11FB JUMPI PUSH2 0x11FA PUSH2 0x11A1 JUMP JUMPDEST JUMPDEST SWAP3 SWAP2 POP POP JUMP JUMPDEST PUSH0 PUSH2 0x120B DUP3 PUSH2 0xDE6 JUMP JUMPDEST SWAP2 POP PUSH2 0x1216 DUP4 PUSH2 0xDE6 JUMP JUMPDEST SWAP3 POP DUP3 DUP3 ADD SWAP1 POP DUP1 DUP3 GT ISZERO PUSH2 0x122E JUMPI PUSH2 0x122D PUSH2 0x11A1 JUMP JUMPDEST JUMPDEST SWAP3 SWAP2 POP POP JUMP JUMPDEST PUSH0 PUSH2 0x123E DUP3 PUSH2 0xDE6 JUMP JUMPDEST SWAP2 POP PUSH32 0xFFFFFFFFFFFFFFFFFFFFFFFFFFFFFFFFFFFFFFFFFFFFFFFFFFFFFFFFFFFFFFFF DUP3 SUB PUSH2 0x1270 JUMPI PUSH2 0x126F PUSH2 0x11A1 JUMP JUMPDEST JUMPDEST PUSH1 0x1 DUP3 ADD SWAP1 POP SWAP2 SWAP1 POP JUMP INVALID LOG2 PUSH5 0x6970667358 0x22 SLT KECCAK256 0xA5 CALLCODE EXTCODESIZE 0xB7 0xC1 GASPRICE EXTCODESIZE DUP2 0xB3 0xCD ADDRESS 0xB6 MOD SELFDESTRUCT 0xA6 0xEE 0x1E JUMPDEST CREATE2 MUL 0xBC RETURNDATASIZE ADD RETURN 0xD7 0xD8 TIMESTAMP 0xAB PUSH28 0x2CBD0664736F6C634300081A00330000000000000000000000000000 "
				},
				"gasEstimates": {
					"creation": {
						"codeDepositCost": "957000",
						"executionCost": "infinite",
						"totalCost": "infinite"
					},
					"external": {
						"_tokenHolderInfos(address)": "infinite",
						"_userId()": "2491",
						"allowance(address,address)": "infinite",
						"balanceOf(address)": "2869",
						"getTokenHolder()": "infinite",
						"getTokenHolderData(address)": "infinite",
						"holderToken(uint256)": "5033",
						"name()": "infinite",
						"ownerOfContract()": "2531",
						"standard()": "infinite",
						"symbol()": "infinite",
						"totalSupply()": "2471",
						"transfer(address,uint256)": "infinite",
						"transferFrom(address,address,uint256)": "infinite"
					},
					"internal": {
						"inc()": "24363"
					}
				},
				"methodIdentifiers": {
					"_tokenHolderInfos(address)": "79a5bd95",
					"_userId()": "bc4530e7",
					"allowance(address,address)": "dd62ed3e",
					"balanceOf(address)": "70a08231",
					"getTokenHolder()": "ba8e3557",
					"getTokenHolderData(address)": "82b68263",
					"holderToken(uint256)": "760b06c5",
					"name()": "06fdde03",
					"ownerOfContract()": "468229ae",
					"standard()": "5a3b7e42",
					"symbol()": "95d89b41",
					"totalSupply()": "18160ddd",
					"transfer(address,uint256)": "a9059cbb",
					"transferFrom(address,address,uint256)": "23b872dd"
				}
			},
			"storageLayout": {
				"storage": [
					{
						"astId": 4,
						"contract": "Crypto_Selling_dApps/TheBlockchainCoders.sol:TheBlockchainCoders",
						"label": "name",
						"offset": 0,
						"slot": "0",
						"type": "t_string_storage"
					},
					{
						"astId": 7,
						"contract": "Crypto_Selling_dApps/TheBlockchainCoders.sol:TheBlockchainCoders",
						"label": "symbol",
						"offset": 0,
						"slot": "1",
						"type": "t_string_storage"
					},
					{
						"astId": 10,
						"contract": "Crypto_Selling_dApps/TheBlockchainCoders.sol:TheBlockchainCoders",
						"label": "standard",
						"offset": 0,
						"slot": "2",
						"type": "t_string_storage"
					},
					{
						"astId": 12,
						"contract": "Crypto_Selling_dApps/TheBlockchainCoders.sol:TheBlockchainCoders",
						"label": "totalSupply",
						"offset": 0,
						"slot": "3",
						"type": "t_uint256"
					},
					{
						"astId": 14,
						"contract": "Crypto_Selling_dApps/TheBlockchainCoders.sol:TheBlockchainCoders",
						"label": "ownerOfContract",
						"offset": 0,
						"slot": "4",
						"type": "t_address"
					},
					{
						"astId": 16,
						"contract": "Crypto_Selling_dApps/TheBlockchainCoders.sol:TheBlockchainCoders",
						"label": "_userId",
						"offset": 0,
						"slot": "5",
						"type": "t_uint256"
					},
					{
						"astId": 19,
						"contract": "Crypto_Selling_dApps/TheBlockchainCoders.sol:TheBlockchainCoders",
						"label": "holderToken",
						"offset": 0,
						"slot": "6",
						"type": "t_array(t_address)dyn_storage"
					},
					{
						"astId": 40,
						"contract": "Crypto_Selling_dApps/TheBlockchainCoders.sol:TheBlockchainCoders",
						"label": "_tokenHolderInfos",
						"offset": 0,
						"slot": "7",
						"type": "t_mapping(t_address,t_struct(TokenHolderInfo)51_storage)"
					},
					{
						"astId": 55,
						"contract": "Crypto_Selling_dApps/TheBlockchainCoders.sol:TheBlockchainCoders",
						"label": "balanceOf",
						"offset": 0,
						"slot": "8",
						"type": "t_mapping(t_address,t_uint256)"
					},
					{
						"astId": 61,
						"contract": "Crypto_Selling_dApps/TheBlockchainCoders.sol:TheBlockchainCoders",
						"label": "allowance",
						"offset": 0,
						"slot": "9",
						"type": "t_mapping(t_address,t_mapping(t_address,t_uint256))"
					}
				],
				"types": {
					"t_address": {
						"encoding": "inplace",
						"label": "address",
						"numberOfBytes": "20"
					},
					"t_array(t_address)dyn_storage": {
						"base": "t_address",
						"encoding": "dynamic_array",
						"label": "address[]",
						"numberOfBytes": "32"
					},
					"t_bool": {
						"encoding": "inplace",
						"label": "bool",
						"numberOfBytes": "1"
					},
					"t_mapping(t_address,t_mapping(t_address,t_uint256))": {
						"encoding": "mapping",
						"key": "t_address",
						"label": "mapping(address => mapping(address => uint256))",
						"numberOfBytes": "32",
						"value": "t_mapping(t_address,t_uint256)"
					},
					"t_mapping(t_address,t_struct(TokenHolderInfo)51_storage)": {
						"encoding": "mapping",
						"key": "t_address",
						"label": "mapping(address => struct TheBlockchainCoders.TokenHolderInfo)",
						"numberOfBytes": "32",
						"value": "t_struct(TokenHolderInfo)51_storage"
					},
					"t_mapping(t_address,t_uint256)": {
						"encoding": "mapping",
						"key": "t_address",
						"label": "mapping(address => uint256)",
						"numberOfBytes": "32",
						"value": "t_uint256"
					},
					"t_string_storage": {
						"encoding": "bytes",
						"label": "string",
						"numberOfBytes": "32"
					},
					"t_struct(TokenHolderInfo)51_storage": {
						"encoding": "inplace",
						"label": "struct TheBlockchainCoders.TokenHolderInfo",
						"members": [
							{
								"astId": 42,
								"contract": "Crypto_Selling_dApps/TheBlockchainCoders.sol:TheBlockchainCoders",
								"label": "_tokenId",
								"offset": 0,
								"slot": "0",
								"type": "t_uint256"
							},
							{
								"astId": 44,
								"contract": "Crypto_Selling_dApps/TheBlockchainCoders.sol:TheBlockchainCoders",
								"label": "_from",
								"offset": 0,
								"slot": "1",
								"type": "t_address"
							},
							{
								"astId": 46,
								"contract": "Crypto_Selling_dApps/TheBlockchainCoders.sol:TheBlockchainCoders",
								"label": "_to",
								"offset": 0,
								"slot": "2",
								"type": "t_address"
							},
							{
								"astId": 48,
								"contract": "Crypto_Selling_dApps/TheBlockchainCoders.sol:TheBlockchainCoders",
								"label": "_totalToken",
								"offset": 0,
								"slot": "3",
								"type": "t_uint256"
							},
							{
								"astId": 50,
								"contract": "Crypto_Selling_dApps/TheBlockchainCoders.sol:TheBlockchainCoders",
								"label": "_tokenHolder",
								"offset": 0,
								"slot": "4",
								"type": "t_bool"
							}
						],
						"numberOfBytes": "160"
					},
					"t_uint256": {
						"encoding": "inplace",
						"label": "uint256",
						"numberOfBytes": "32"
					}
				}
			},
			"userdoc": {
				"kind": "user",
				"methods": {},
				"version": 1
			}
		}
	}
}