{
	"Crypto_Selling_dApps/TokenSaleContract.sol": {
		"TokenSale": {
			"abi": [
				{
					"inputs": [
						{
							"internalType": "contract TheBlockchainCoders",
							"name": "_tokenContract",
							"type": "address"
						},
						{
							"internalType": "uint256",
							"name": "_tokenPrice",
							"type": "uint256"
						}
					],
					"stateMutability": "nonpayable",
					"type": "constructor"
				},
				{
					"anonymous": false,
					"inputs": [
						{
							"indexed": false,
							"internalType": "address",
							"name": "_buyer",
							"type": "address"
						},
						{
							"indexed": false,
							"internalType": "uint256",
							"name": "_amount",
							"type": "uint256"
						}
					],
					"name": "Sell",
					"type": "event"
				},
				{
					"inputs": [
						{
							"internalType": "uint256",
							"name": "_numberOfTokens",
							"type": "uint256"
						}
					],
					"name": "buyToken",
					"outputs": [],
					"stateMutability": "payable",
					"type": "function"
				},
				{
					"inputs": [],
					"name": "endSale",
					"outputs": [],
					"stateMutability": "nonpayable",
					"type": "function"
				},
				{
					"inputs": [],
					"name": "tokenContract",
					"outputs": [
						{
							"internalType": "contract TheBlockchainCoders",
							"name": "",
							"type": "address"
						}
					],
					"stateMutability": "view",
					"type": "function"
				},
				{
					"inputs": [],
					"name": "tokenPrice",
					"outputs": [
						{
							"internalType": "uint256",
							"name": "",
							"type": "uint256"
						}
					],
					"stateMutability": "view",
					"type": "function"
				},
				{
					"inputs": [],
					"name": "tokenSold",
					"outputs": [
						{
							"internalType": "uint256",
							"name": "",
							"type": "uint256"
						}
					],
					"stateMutability": "view",
					"type": "function"
				}
			],
			"devdoc": {
				"kind": "dev",
				"methods": {},
				"version": 1
			},
			"evm": {
				"assembly": "    /* \"Crypto_Selling_dApps/TokenSaleContract.sol\":99:1191  contract TokenSale{... */\n  mstore(0x40, 0x80)\n    /* \"Crypto_Selling_dApps/TokenSaleContract.sol\":308:489  constructor(TheBlockchainCoders _tokenContract, uint256 _tokenPrice){... */\n  callvalue\n  dup1\n  iszero\n  tag_1\n  jumpi\n  0x00\n  dup1\n  revert\ntag_1:\n  pop\n  mload(0x40)\n  sub(codesize, bytecodeSize)\n  dup1\n  bytecodeSize\n  dup4\n  codecopy\n  dup2\n  dup2\n  add\n  0x40\n  mstore\n  dup2\n  add\n  swap1\n  tag_2\n  swap2\n  swap1\n  tag_3\n  jump\t// in\ntag_2:\n    /* \"Crypto_Selling_dApps/TokenSaleContract.sol\":395:405  msg.sender */\n  caller\n    /* \"Crypto_Selling_dApps/TokenSaleContract.sol\":387:392  admin */\n  0x00\n  dup1\n    /* \"Crypto_Selling_dApps/TokenSaleContract.sol\":387:405  admin = msg.sender */\n  0x0100\n  exp\n  dup2\n  sload\n  dup2\n  0xffffffffffffffffffffffffffffffffffffffff\n  mul\n  not\n  and\n  swap1\n  dup4\n  0xffffffffffffffffffffffffffffffffffffffff\n  and\n  mul\n  or\n  swap1\n  sstore\n  pop\n    /* \"Crypto_Selling_dApps/TokenSaleContract.sol\":432:446  _tokenContract */\n  dup2\n    /* \"Crypto_Selling_dApps/TokenSaleContract.sol\":416:429  tokenContract */\n  0x01\n  0x00\n    /* \"Crypto_Selling_dApps/TokenSaleContract.sol\":416:446  tokenContract = _tokenContract */\n  0x0100\n  exp\n  dup2\n  sload\n  dup2\n  0xffffffffffffffffffffffffffffffffffffffff\n  mul\n  not\n  and\n  swap1\n  dup4\n  0xffffffffffffffffffffffffffffffffffffffff\n  and\n  mul\n  or\n  swap1\n  sstore\n  pop\n    /* \"Crypto_Selling_dApps/TokenSaleContract.sol\":470:481  _tokenPrice */\n  dup1\n    /* \"Crypto_Selling_dApps/TokenSaleContract.sol\":457:467  tokenPrice */\n  0x02\n    /* \"Crypto_Selling_dApps/TokenSaleContract.sol\":457:481  tokenPrice = _tokenPrice */\n  dup2\n  swap1\n  sstore\n  pop\n    /* \"Crypto_Selling_dApps/TokenSaleContract.sol\":308:489  constructor(TheBlockchainCoders _tokenContract, uint256 _tokenPrice){... */\n  pop\n  pop\n    /* \"Crypto_Selling_dApps/TokenSaleContract.sol\":99:1191  contract TokenSale{... */\n  jump(tag_6)\n    /* \"#utility.yul\":88:205   */\ntag_8:\n    /* \"#utility.yul\":197:198   */\n  0x00\n    /* \"#utility.yul\":194:195   */\n  dup1\n    /* \"#utility.yul\":187:199   */\n  revert\n    /* \"#utility.yul\":334:460   */\ntag_10:\n    /* \"#utility.yul\":371:378   */\n  0x00\n    /* \"#utility.yul\":411:453   */\n  0xffffffffffffffffffffffffffffffffffffffff\n    /* \"#utility.yul\":404:409   */\n  dup3\n    /* \"#utility.yul\":400:454   */\n  and\n    /* \"#utility.yul\":389:454   */\n  swap1\n  pop\n    /* \"#utility.yul\":334:460   */\n  swap2\n  swap1\n  pop\n  jump\t// out\n    /* \"#utility.yul\":466:562   */\ntag_11:\n    /* \"#utility.yul\":503:510   */\n  0x00\n    /* \"#utility.yul\":532:556   */\n  tag_24\n    /* \"#utility.yul\":550:555   */\n  dup3\n    /* \"#utility.yul\":532:556   */\n  tag_10\n  jump\t// in\ntag_24:\n    /* \"#utility.yul\":521:556   */\n  swap1\n  pop\n    /* \"#utility.yul\":466:562   */\n  swap2\n  swap1\n  pop\n  jump\t// out\n    /* \"#utility.yul\":568:691   */\ntag_12:\n    /* \"#utility.yul\":632:639   */\n  0x00\n    /* \"#utility.yul\":661:685   */\n  tag_26\n    /* \"#utility.yul\":679:684   */\n  dup3\n    /* \"#utility.yul\":661:685   */\n  tag_11\n  jump\t// in\ntag_26:\n    /* \"#utility.yul\":650:685   */\n  swap1\n  pop\n    /* \"#utility.yul\":568:691   */\n  swap2\n  swap1\n  pop\n  jump\t// out\n    /* \"#utility.yul\":697:873   */\ntag_13:\n    /* \"#utility.yul\":797:848   */\n  tag_28\n    /* \"#utility.yul\":842:847   */\n  dup2\n    /* \"#utility.yul\":797:848   */\n  tag_12\n  jump\t// in\ntag_28:\n    /* \"#utility.yul\":790:795   */\n  dup2\n    /* \"#utility.yul\":787:849   */\n  eq\n    /* \"#utility.yul\":777:867   */\n  tag_29\n  jumpi\n    /* \"#utility.yul\":863:864   */\n  0x00\n    /* \"#utility.yul\":860:861   */\n  dup1\n    /* \"#utility.yul\":853:865   */\n  revert\n    /* \"#utility.yul\":777:867   */\ntag_29:\n    /* \"#utility.yul\":697:873   */\n  pop\n  jump\t// out\n    /* \"#utility.yul\":879:1076   */\ntag_14:\n    /* \"#utility.yul\":963:968   */\n  0x00\n    /* \"#utility.yul\":994:1000   */\n  dup2\n    /* \"#utility.yul\":988:1001   */\n  mload\n    /* \"#utility.yul\":979:1001   */\n  swap1\n  pop\n    /* \"#utility.yul\":1010:1070   */\n  tag_31\n    /* \"#utility.yul\":1064:1069   */\n  dup2\n    /* \"#utility.yul\":1010:1070   */\n  tag_13\n  jump\t// in\ntag_31:\n    /* \"#utility.yul\":879:1076   */\n  swap3\n  swap2\n  pop\n  pop\n  jump\t// out\n    /* \"#utility.yul\":1082:1159   */\ntag_15:\n    /* \"#utility.yul\":1119:1126   */\n  0x00\n    /* \"#utility.yul\":1148:1153   */\n  dup2\n    /* \"#utility.yul\":1137:1153   */\n  swap1\n  pop\n    /* \"#utility.yul\":1082:1159   */\n  swap2\n  swap1\n  pop\n  jump\t// out\n    /* \"#utility.yul\":1165:1287   */\ntag_16:\n    /* \"#utility.yul\":1238:1262   */\n  tag_34\n    /* \"#utility.yul\":1256:1261   */\n  dup2\n    /* \"#utility.yul\":1238:1262   */\n  tag_15\n  jump\t// in\ntag_34:\n    /* \"#utility.yul\":1231:1236   */\n  dup2\n    /* \"#utility.yul\":1228:1263   */\n  eq\n    /* \"#utility.yul\":1218:1281   */\n  tag_35\n  jumpi\n    /* \"#utility.yul\":1277:1278   */\n  0x00\n    /* \"#utility.yul\":1274:1275   */\n  dup1\n    /* \"#utility.yul\":1267:1279   */\n  revert\n    /* \"#utility.yul\":1218:1281   */\ntag_35:\n    /* \"#utility.yul\":1165:1287   */\n  pop\n  jump\t// out\n    /* \"#utility.yul\":1293:1436   */\ntag_17:\n    /* \"#utility.yul\":1350:1355   */\n  0x00\n    /* \"#utility.yul\":1381:1387   */\n  dup2\n    /* \"#utility.yul\":1375:1388   */\n  mload\n    /* \"#utility.yul\":1366:1388   */\n  swap1\n  pop\n    /* \"#utility.yul\":1397:1430   */\n  tag_37\n    /* \"#utility.yul\":1424:1429   */\n  dup2\n    /* \"#utility.yul\":1397:1430   */\n  tag_16\n  jump\t// in\ntag_37:\n    /* \"#utility.yul\":1293:1436   */\n  swap3\n  swap2\n  pop\n  pop\n  jump\t// out\n    /* \"#utility.yul\":1442:2003   */\ntag_3:\n    /* \"#utility.yul\":1548:1554   */\n  0x00\n    /* \"#utility.yul\":1556:1562   */\n  dup1\n    /* \"#utility.yul\":1605:1607   */\n  0x40\n    /* \"#utility.yul\":1593:1602   */\n  dup4\n    /* \"#utility.yul\":1584:1591   */\n  dup6\n    /* \"#utility.yul\":1580:1603   */\n  sub\n    /* \"#utility.yul\":1576:1608   */\n  slt\n    /* \"#utility.yul\":1573:1692   */\n  iszero\n  tag_39\n  jumpi\n    /* \"#utility.yul\":1611:1690   */\n  tag_40\n  tag_8\n  jump\t// in\ntag_40:\n    /* \"#utility.yul\":1573:1692   */\ntag_39:\n    /* \"#utility.yul\":1731:1732   */\n  0x00\n    /* \"#utility.yul\":1756:1847   */\n  tag_41\n    /* \"#utility.yul\":1839:1846   */\n  dup6\n    /* \"#utility.yul\":1830:1836   */\n  dup3\n    /* \"#utility.yul\":1819:1828   */\n  dup7\n    /* \"#utility.yul\":1815:1837   */\n  add\n    /* \"#utility.yul\":1756:1847   */\n  tag_14\n  jump\t// in\ntag_41:\n    /* \"#utility.yul\":1746:1847   */\n  swap3\n  pop\n    /* \"#utility.yul\":1702:1857   */\n  pop\n    /* \"#utility.yul\":1896:1898   */\n  0x20\n    /* \"#utility.yul\":1922:1986   */\n  tag_42\n    /* \"#utility.yul\":1978:1985   */\n  dup6\n    /* \"#utility.yul\":1969:1975   */\n  dup3\n    /* \"#utility.yul\":1958:1967   */\n  dup7\n    /* \"#utility.yul\":1954:1976   */\n  add\n    /* \"#utility.yul\":1922:1986   */\n  tag_17\n  jump\t// in\ntag_42:\n    /* \"#utility.yul\":1912:1986   */\n  swap2\n  pop\n    /* \"#utility.yul\":1867:1996   */\n  pop\n    /* \"#utility.yul\":1442:2003   */\n  swap3\n  pop\n  swap3\n  swap1\n  pop\n  jump\t// out\n    /* \"Crypto_Selling_dApps/TokenSaleContract.sol\":99:1191  contract TokenSale{... */\ntag_6:\n  dataSize(sub_0)\n  dup1\n  dataOffset(sub_0)\n  0x00\n  codecopy\n  0x00\n  return\nstop\n\nsub_0: assembly {\n        /* \"Crypto_Selling_dApps/TokenSaleContract.sol\":99:1191  contract TokenSale{... */\n      mstore(0x40, 0x80)\n      jumpi(tag_1, lt(calldatasize, 0x04))\n      shr(0xe0, calldataload(0x00))\n      dup1\n      0x2d296bf1\n      eq\n      tag_2\n      jumpi\n      dup1\n      0x380d831b\n      eq\n      tag_3\n      jumpi\n      dup1\n      0x519ee19e\n      eq\n      tag_4\n      jumpi\n      dup1\n      0x55a373d6\n      eq\n      tag_5\n      jumpi\n      dup1\n      0x7ff9b596\n      eq\n      tag_6\n      jumpi\n    tag_1:\n      0x00\n      dup1\n      revert\n        /* \"Crypto_Selling_dApps/TokenSaleContract.sol\":635:960  function buyToken(uint256 _numberOfTokens) public payable{... */\n    tag_2:\n      tag_7\n      0x04\n      dup1\n      calldatasize\n      sub\n      dup2\n      add\n      swap1\n      tag_8\n      swap2\n      swap1\n      tag_9\n      jump\t// in\n    tag_8:\n      tag_10\n      jump\t// in\n    tag_7:\n      stop\n        /* \"Crypto_Selling_dApps/TokenSaleContract.sol\":968:1188  function endSale() public {... */\n    tag_3:\n      callvalue\n      dup1\n      iszero\n      tag_11\n      jumpi\n      0x00\n      dup1\n      revert\n    tag_11:\n      pop\n      tag_12\n      tag_13\n      jump\t// in\n    tag_12:\n      stop\n        /* \"Crypto_Selling_dApps/TokenSaleContract.sol\":223:247  uint256 public tokenSold */\n    tag_4:\n      callvalue\n      dup1\n      iszero\n      tag_14\n      jumpi\n      0x00\n      dup1\n      revert\n    tag_14:\n      pop\n      tag_15\n      tag_16\n      jump\t// in\n    tag_15:\n      mload(0x40)\n      tag_17\n      swap2\n      swap1\n      tag_18\n      jump\t// in\n    tag_17:\n      mload(0x40)\n      dup1\n      swap2\n      sub\n      swap1\n      return\n        /* \"Crypto_Selling_dApps/TokenSaleContract.sol\":144:184  TheBlockchainCoders public tokenContract */\n    tag_5:\n      callvalue\n      dup1\n      iszero\n      tag_19\n      jumpi\n      0x00\n      dup1\n      revert\n    tag_19:\n      pop\n      tag_20\n      tag_21\n      jump\t// in\n    tag_20:\n      mload(0x40)\n      tag_22\n      swap2\n      swap1\n      tag_23\n      jump\t// in\n    tag_22:\n      mload(0x40)\n      dup1\n      swap2\n      sub\n      swap1\n      return\n        /* \"Crypto_Selling_dApps/TokenSaleContract.sol\":191:216  uint256 public tokenPrice */\n    tag_6:\n      callvalue\n      dup1\n      iszero\n      tag_24\n      jumpi\n      0x00\n      dup1\n      revert\n    tag_24:\n      pop\n      tag_25\n      tag_26\n      jump\t// in\n    tag_25:\n      mload(0x40)\n      tag_27\n      swap2\n      swap1\n      tag_18\n      jump\t// in\n    tag_27:\n      mload(0x40)\n      dup1\n      swap2\n      sub\n      swap1\n      return\n        /* \"Crypto_Selling_dApps/TokenSaleContract.sol\":635:960  function buyToken(uint256 _numberOfTokens) public payable{... */\n    tag_10:\n        /* \"Crypto_Selling_dApps/TokenSaleContract.sol\":764:779  _numberOfTokens */\n      dup1\n        /* \"Crypto_Selling_dApps/TokenSaleContract.sol\":752:761  msg.value */\n      callvalue\n        /* \"Crypto_Selling_dApps/TokenSaleContract.sol\":752:779  msg.value / _numberOfTokens */\n      tag_29\n      swap2\n      swap1\n      tag_30\n      jump\t// in\n    tag_29:\n        /* \"Crypto_Selling_dApps/TokenSaleContract.sol\":711:748  multiply(_numberOfTokens, tokenPrice) */\n      tag_31\n        /* \"Crypto_Selling_dApps/TokenSaleContract.sol\":720:735  _numberOfTokens */\n      dup3\n        /* \"Crypto_Selling_dApps/TokenSaleContract.sol\":737:747  tokenPrice */\n      sload(0x02)\n        /* \"Crypto_Selling_dApps/TokenSaleContract.sol\":711:719  multiply */\n      tag_32\n        /* \"Crypto_Selling_dApps/TokenSaleContract.sol\":711:748  multiply(_numberOfTokens, tokenPrice) */\n      jump\t// in\n    tag_31:\n        /* \"Crypto_Selling_dApps/TokenSaleContract.sol\":711:779  multiply(_numberOfTokens, tokenPrice) <= msg.value / _numberOfTokens */\n      gt\n      iszero\n        /* \"Crypto_Selling_dApps/TokenSaleContract.sol\":703:780  require(multiply(_numberOfTokens, tokenPrice) <= msg.value / _numberOfTokens) */\n      tag_33\n      jumpi\n      0x00\n      dup1\n      revert\n    tag_33:\n        /* \"Crypto_Selling_dApps/TokenSaleContract.sol\":841:856  _numberOfTokens */\n      dup1\n        /* \"Crypto_Selling_dApps/TokenSaleContract.sol\":799:812  tokenContract */\n      0x01\n      0x00\n      swap1\n      sload\n      swap1\n      0x0100\n      exp\n      swap1\n      div\n      0xffffffffffffffffffffffffffffffffffffffff\n      and\n        /* \"Crypto_Selling_dApps/TokenSaleContract.sol\":799:822  tokenContract.balanceOf */\n      0xffffffffffffffffffffffffffffffffffffffff\n      and\n      0x70a08231\n        /* \"Crypto_Selling_dApps/TokenSaleContract.sol\":831:835  this */\n      address\n        /* \"Crypto_Selling_dApps/TokenSaleContract.sol\":799:837  tokenContract.balanceOf(address(this)) */\n      mload(0x40)\n      dup3\n      0xffffffff\n      and\n      0xe0\n      shl\n      dup2\n      mstore\n      0x04\n      add\n      tag_34\n      swap2\n      swap1\n      tag_35\n      jump\t// in\n    tag_34:\n      0x20\n      mload(0x40)\n      dup1\n      dup4\n      sub\n      dup2\n      dup7\n      gas\n      staticcall\n      iszero\n      dup1\n      iszero\n      tag_37\n      jumpi\n      returndatasize\n      0x00\n      dup1\n      returndatacopy\n      revert(0x00, returndatasize)\n    tag_37:\n      pop\n      pop\n      pop\n      pop\n      mload(0x40)\n      returndatasize\n      not(0x1f)\n      0x1f\n      dup3\n      add\n      and\n      dup3\n      add\n      dup1\n      0x40\n      mstore\n      pop\n      dup2\n      add\n      swap1\n      tag_38\n      swap2\n      swap1\n      tag_39\n      jump\t// in\n    tag_38:\n        /* \"Crypto_Selling_dApps/TokenSaleContract.sol\":799:856  tokenContract.balanceOf(address(this)) >= _numberOfTokens */\n      lt\n      iszero\n        /* \"Crypto_Selling_dApps/TokenSaleContract.sol\":791:857  require(tokenContract.balanceOf(address(this)) >= _numberOfTokens) */\n      tag_40\n      jumpi\n      0x00\n      dup1\n      revert\n    tag_40:\n        /* \"Crypto_Selling_dApps/TokenSaleContract.sol\":876:889  tokenContract */\n      0x01\n      0x00\n      swap1\n      sload\n      swap1\n      0x0100\n      exp\n      swap1\n      div\n      0xffffffffffffffffffffffffffffffffffffffff\n      and\n        /* \"Crypto_Selling_dApps/TokenSaleContract.sol\":876:898  tokenContract.transfer */\n      0xffffffffffffffffffffffffffffffffffffffff\n      and\n      0xa9059cbb\n        /* \"Crypto_Selling_dApps/TokenSaleContract.sol\":899:909  msg.sender */\n      caller\n        /* \"Crypto_Selling_dApps/TokenSaleContract.sol\":929:948  1000000000000000000 */\n      0x0de0b6b3a7640000\n        /* \"Crypto_Selling_dApps/TokenSaleContract.sol\":911:926  _numberOfTokens */\n      dup5\n        /* \"Crypto_Selling_dApps/TokenSaleContract.sol\":911:948  _numberOfTokens * 1000000000000000000 */\n      tag_41\n      swap2\n      swap1\n      tag_42\n      jump\t// in\n    tag_41:\n        /* \"Crypto_Selling_dApps/TokenSaleContract.sol\":876:949  tokenContract.transfer(msg.sender, _numberOfTokens * 1000000000000000000) */\n      mload(0x40)\n      dup4\n      0xffffffff\n      and\n      0xe0\n      shl\n      dup2\n      mstore\n      0x04\n      add\n      tag_43\n      swap3\n      swap2\n      swap1\n      tag_44\n      jump\t// in\n    tag_43:\n      0x20\n      mload(0x40)\n      dup1\n      dup4\n      sub\n      dup2\n      0x00\n      dup8\n      gas\n      call\n      iszero\n      dup1\n      iszero\n      tag_46\n      jumpi\n      returndatasize\n      0x00\n      dup1\n      returndatacopy\n      revert(0x00, returndatasize)\n    tag_46:\n      pop\n      pop\n      pop\n      pop\n      mload(0x40)\n      returndatasize\n      not(0x1f)\n      0x1f\n      dup3\n      add\n      and\n      dup3\n      add\n      dup1\n      0x40\n      mstore\n      pop\n      dup2\n      add\n      swap1\n      tag_47\n      swap2\n      swap1\n      tag_48\n      jump\t// in\n    tag_47:\n        /* \"Crypto_Selling_dApps/TokenSaleContract.sol\":868:950  require(tokenContract.transfer(msg.sender, _numberOfTokens * 1000000000000000000)) */\n      tag_49\n      jumpi\n      0x00\n      dup1\n      revert\n    tag_49:\n        /* \"Crypto_Selling_dApps/TokenSaleContract.sol\":635:960  function buyToken(uint256 _numberOfTokens) public payable{... */\n      pop\n      jump\t// out\n        /* \"Crypto_Selling_dApps/TokenSaleContract.sol\":968:1188  function endSale() public {... */\n    tag_13:\n        /* \"Crypto_Selling_dApps/TokenSaleContract.sol\":1027:1032  admin */\n      0x00\n      dup1\n      sload\n      swap1\n      0x0100\n      exp\n      swap1\n      div\n      0xffffffffffffffffffffffffffffffffffffffff\n      and\n        /* \"Crypto_Selling_dApps/TokenSaleContract.sol\":1013:1032  msg.sender == admin */\n      0xffffffffffffffffffffffffffffffffffffffff\n      and\n        /* \"Crypto_Selling_dApps/TokenSaleContract.sol\":1013:1023  msg.sender */\n      caller\n        /* \"Crypto_Selling_dApps/TokenSaleContract.sol\":1013:1032  msg.sender == admin */\n      0xffffffffffffffffffffffffffffffffffffffff\n      and\n      eq\n        /* \"Crypto_Selling_dApps/TokenSaleContract.sol\":1005:1033  require(msg.sender == admin) */\n      tag_51\n      jumpi\n      0x00\n      dup1\n      revert\n    tag_51:\n        /* \"Crypto_Selling_dApps/TokenSaleContract.sol\":1052:1065  tokenContract */\n      0x01\n      0x00\n      swap1\n      sload\n      swap1\n      0x0100\n      exp\n      swap1\n      div\n      0xffffffffffffffffffffffffffffffffffffffff\n      and\n        /* \"Crypto_Selling_dApps/TokenSaleContract.sol\":1052:1074  tokenContract.transfer */\n      0xffffffffffffffffffffffffffffffffffffffff\n      and\n      0xa9059cbb\n        /* \"Crypto_Selling_dApps/TokenSaleContract.sol\":1075:1080  admin */\n      0x00\n      dup1\n      sload\n      swap1\n      0x0100\n      exp\n      swap1\n      div\n      0xffffffffffffffffffffffffffffffffffffffff\n      and\n        /* \"Crypto_Selling_dApps/TokenSaleContract.sol\":1082:1095  tokenContract */\n      0x01\n      0x00\n      swap1\n      sload\n      swap1\n      0x0100\n      exp\n      swap1\n      div\n      0xffffffffffffffffffffffffffffffffffffffff\n      and\n        /* \"Crypto_Selling_dApps/TokenSaleContract.sol\":1082:1105  tokenContract.balanceOf */\n      0xffffffffffffffffffffffffffffffffffffffff\n      and\n      0x70a08231\n        /* \"Crypto_Selling_dApps/TokenSaleContract.sol\":1114:1118  this */\n      address\n        /* \"Crypto_Selling_dApps/TokenSaleContract.sol\":1082:1120  tokenContract.balanceOf(address(this)) */\n      mload(0x40)\n      dup3\n      0xffffffff\n      and\n      0xe0\n      shl\n      dup2\n      mstore\n      0x04\n      add\n      tag_52\n      swap2\n      swap1\n      tag_35\n      jump\t// in\n    tag_52:\n      0x20\n      mload(0x40)\n      dup1\n      dup4\n      sub\n      dup2\n      dup7\n      gas\n      staticcall\n      iszero\n      dup1\n      iszero\n      tag_54\n      jumpi\n      returndatasize\n      0x00\n      dup1\n      returndatacopy\n      revert(0x00, returndatasize)\n    tag_54:\n      pop\n      pop\n      pop\n      pop\n      mload(0x40)\n      returndatasize\n      not(0x1f)\n      0x1f\n      dup3\n      add\n      and\n      dup3\n      add\n      dup1\n      0x40\n      mstore\n      pop\n      dup2\n      add\n      swap1\n      tag_55\n      swap2\n      swap1\n      tag_39\n      jump\t// in\n    tag_55:\n        /* \"Crypto_Selling_dApps/TokenSaleContract.sol\":1052:1121  tokenContract.transfer(admin, tokenContract.balanceOf(address(this))) */\n      mload(0x40)\n      dup4\n      0xffffffff\n      and\n      0xe0\n      shl\n      dup2\n      mstore\n      0x04\n      add\n      tag_56\n      swap3\n      swap2\n      swap1\n      tag_44\n      jump\t// in\n    tag_56:\n      0x20\n      mload(0x40)\n      dup1\n      dup4\n      sub\n      dup2\n      0x00\n      dup8\n      gas\n      call\n      iszero\n      dup1\n      iszero\n      tag_58\n      jumpi\n      returndatasize\n      0x00\n      dup1\n      returndatacopy\n      revert(0x00, returndatasize)\n    tag_58:\n      pop\n      pop\n      pop\n      pop\n      mload(0x40)\n      returndatasize\n      not(0x1f)\n      0x1f\n      dup3\n      add\n      and\n      dup3\n      add\n      dup1\n      0x40\n      mstore\n      pop\n      dup2\n      add\n      swap1\n      tag_59\n      swap2\n      swap1\n      tag_48\n      jump\t// in\n    tag_59:\n        /* \"Crypto_Selling_dApps/TokenSaleContract.sol\":1044:1122  require(tokenContract.transfer(admin, tokenContract.balanceOf(address(this)))) */\n      tag_60\n      jumpi\n      0x00\n      dup1\n      revert\n    tag_60:\n        /* \"Crypto_Selling_dApps/TokenSaleContract.sol\":1142:1147  admin */\n      0x00\n      dup1\n      sload\n      swap1\n      0x0100\n      exp\n      swap1\n      div\n      0xffffffffffffffffffffffffffffffffffffffff\n      and\n        /* \"Crypto_Selling_dApps/TokenSaleContract.sol\":1133:1157  payable (admin).transfer */\n      0xffffffffffffffffffffffffffffffffffffffff\n      and\n        /* \"Crypto_Selling_dApps/TokenSaleContract.sol\":1133:1180  payable (admin).transfer(address(this).balance) */\n      0x08fc\n        /* \"Crypto_Selling_dApps/TokenSaleContract.sol\":1158:1179  address(this).balance */\n      selfbalance\n        /* \"Crypto_Selling_dApps/TokenSaleContract.sol\":1133:1180  payable (admin).transfer(address(this).balance) */\n      swap1\n      dup2\n      iszero\n      mul\n      swap1\n      mload(0x40)\n      0x00\n      mload(0x40)\n      dup1\n      dup4\n      sub\n      dup2\n      dup6\n      dup9\n      dup9\n      call\n      swap4\n      pop\n      pop\n      pop\n      pop\n      iszero\n      dup1\n      iszero\n      tag_62\n      jumpi\n      returndatasize\n      0x00\n      dup1\n      returndatacopy\n      revert(0x00, returndatasize)\n    tag_62:\n      pop\n        /* \"Crypto_Selling_dApps/TokenSaleContract.sol\":968:1188  function endSale() public {... */\n      jump\t// out\n        /* \"Crypto_Selling_dApps/TokenSaleContract.sol\":223:247  uint256 public tokenSold */\n    tag_16:\n      sload(0x03)\n      dup2\n      jump\t// out\n        /* \"Crypto_Selling_dApps/TokenSaleContract.sol\":144:184  TheBlockchainCoders public tokenContract */\n    tag_21:\n      0x01\n      0x00\n      swap1\n      sload\n      swap1\n      0x0100\n      exp\n      swap1\n      div\n      0xffffffffffffffffffffffffffffffffffffffff\n      and\n      dup2\n      jump\t// out\n        /* \"Crypto_Selling_dApps/TokenSaleContract.sol\":191:216  uint256 public tokenPrice */\n    tag_26:\n      sload(0x02)\n      dup2\n      jump\t// out\n        /* \"Crypto_Selling_dApps/TokenSaleContract.sol\":497:627  function multiply(uint256 x, uint256 y) internal pure returns(uint256 z){... */\n    tag_32:\n        /* \"Crypto_Selling_dApps/TokenSaleContract.sol\":559:568  uint256 z */\n      0x00\n        /* \"Crypto_Selling_dApps/TokenSaleContract.sol\":593:594  0 */\n      dup1\n        /* \"Crypto_Selling_dApps/TokenSaleContract.sol\":588:589  y */\n      dup3\n        /* \"Crypto_Selling_dApps/TokenSaleContract.sol\":588:594  y == 0 */\n      eq\n        /* \"Crypto_Selling_dApps/TokenSaleContract.sol\":588:618  y == 0 || (z = x * y) / y == x */\n      dup1\n      tag_64\n      jumpi\n      pop\n        /* \"Crypto_Selling_dApps/TokenSaleContract.sol\":617:618  x */\n      dup3\n        /* \"Crypto_Selling_dApps/TokenSaleContract.sol\":612:613  y */\n      dup3\n        /* \"Crypto_Selling_dApps/TokenSaleContract.sol\":607:608  y */\n      dup4\n        /* \"Crypto_Selling_dApps/TokenSaleContract.sol\":603:604  x */\n      dup6\n        /* \"Crypto_Selling_dApps/TokenSaleContract.sol\":603:608  x * y */\n      tag_65\n      swap2\n      swap1\n      tag_42\n      jump\t// in\n    tag_65:\n        /* \"Crypto_Selling_dApps/TokenSaleContract.sol\":599:608  z = x * y */\n      swap3\n      pop\n      dup3\n        /* \"Crypto_Selling_dApps/TokenSaleContract.sol\":598:613  (z = x * y) / y */\n      tag_66\n      swap2\n      swap1\n      tag_30\n      jump\t// in\n    tag_66:\n        /* \"Crypto_Selling_dApps/TokenSaleContract.sol\":598:618  (z = x * y) / y == x */\n      eq\n        /* \"Crypto_Selling_dApps/TokenSaleContract.sol\":588:618  y == 0 || (z = x * y) / y == x */\n    tag_64:\n        /* \"Crypto_Selling_dApps/TokenSaleContract.sol\":580:619  require(y == 0 || (z = x * y) / y == x) */\n      tag_67\n      jumpi\n      0x00\n      dup1\n      revert\n    tag_67:\n        /* \"Crypto_Selling_dApps/TokenSaleContract.sol\":497:627  function multiply(uint256 x, uint256 y) internal pure returns(uint256 z){... */\n      swap3\n      swap2\n      pop\n      pop\n      jump\t// out\n        /* \"#utility.yul\":88:205   */\n    tag_69:\n        /* \"#utility.yul\":197:198   */\n      0x00\n        /* \"#utility.yul\":194:195   */\n      dup1\n        /* \"#utility.yul\":187:199   */\n      revert\n        /* \"#utility.yul\":334:411   */\n    tag_71:\n        /* \"#utility.yul\":371:378   */\n      0x00\n        /* \"#utility.yul\":400:405   */\n      dup2\n        /* \"#utility.yul\":389:405   */\n      swap1\n      pop\n        /* \"#utility.yul\":334:411   */\n      swap2\n      swap1\n      pop\n      jump\t// out\n        /* \"#utility.yul\":417:539   */\n    tag_72:\n        /* \"#utility.yul\":490:514   */\n      tag_95\n        /* \"#utility.yul\":508:513   */\n      dup2\n        /* \"#utility.yul\":490:514   */\n      tag_71\n      jump\t// in\n    tag_95:\n        /* \"#utility.yul\":483:488   */\n      dup2\n        /* \"#utility.yul\":480:515   */\n      eq\n        /* \"#utility.yul\":470:533   */\n      tag_96\n      jumpi\n        /* \"#utility.yul\":529:530   */\n      0x00\n        /* \"#utility.yul\":526:527   */\n      dup1\n        /* \"#utility.yul\":519:531   */\n      revert\n        /* \"#utility.yul\":470:533   */\n    tag_96:\n        /* \"#utility.yul\":417:539   */\n      pop\n      jump\t// out\n        /* \"#utility.yul\":545:684   */\n    tag_73:\n        /* \"#utility.yul\":591:596   */\n      0x00\n        /* \"#utility.yul\":629:635   */\n      dup2\n        /* \"#utility.yul\":616:636   */\n      calldataload\n        /* \"#utility.yul\":607:636   */\n      swap1\n      pop\n        /* \"#utility.yul\":645:678   */\n      tag_98\n        /* \"#utility.yul\":672:677   */\n      dup2\n        /* \"#utility.yul\":645:678   */\n      tag_72\n      jump\t// in\n    tag_98:\n        /* \"#utility.yul\":545:684   */\n      swap3\n      swap2\n      pop\n      pop\n      jump\t// out\n        /* \"#utility.yul\":690:1019   */\n    tag_9:\n        /* \"#utility.yul\":749:755   */\n      0x00\n        /* \"#utility.yul\":798:800   */\n      0x20\n        /* \"#utility.yul\":786:795   */\n      dup3\n        /* \"#utility.yul\":777:784   */\n      dup5\n        /* \"#utility.yul\":773:796   */\n      sub\n        /* \"#utility.yul\":769:801   */\n      slt\n        /* \"#utility.yul\":766:885   */\n      iszero\n      tag_100\n      jumpi\n        /* \"#utility.yul\":804:883   */\n      tag_101\n      tag_69\n      jump\t// in\n    tag_101:\n        /* \"#utility.yul\":766:885   */\n    tag_100:\n        /* \"#utility.yul\":924:925   */\n      0x00\n        /* \"#utility.yul\":949:1002   */\n      tag_102\n        /* \"#utility.yul\":994:1001   */\n      dup5\n        /* \"#utility.yul\":985:991   */\n      dup3\n        /* \"#utility.yul\":974:983   */\n      dup6\n        /* \"#utility.yul\":970:992   */\n      add\n        /* \"#utility.yul\":949:1002   */\n      tag_73\n      jump\t// in\n    tag_102:\n        /* \"#utility.yul\":939:1002   */\n      swap2\n      pop\n        /* \"#utility.yul\":895:1012   */\n      pop\n        /* \"#utility.yul\":690:1019   */\n      swap3\n      swap2\n      pop\n      pop\n      jump\t// out\n        /* \"#utility.yul\":1025:1143   */\n    tag_74:\n        /* \"#utility.yul\":1112:1136   */\n      tag_104\n        /* \"#utility.yul\":1130:1135   */\n      dup2\n        /* \"#utility.yul\":1112:1136   */\n      tag_71\n      jump\t// in\n    tag_104:\n        /* \"#utility.yul\":1107:1110   */\n      dup3\n        /* \"#utility.yul\":1100:1137   */\n      mstore\n        /* \"#utility.yul\":1025:1143   */\n      pop\n      pop\n      jump\t// out\n        /* \"#utility.yul\":1149:1371   */\n    tag_18:\n        /* \"#utility.yul\":1242:1246   */\n      0x00\n        /* \"#utility.yul\":1280:1282   */\n      0x20\n        /* \"#utility.yul\":1269:1278   */\n      dup3\n        /* \"#utility.yul\":1265:1283   */\n      add\n        /* \"#utility.yul\":1257:1283   */\n      swap1\n      pop\n        /* \"#utility.yul\":1293:1364   */\n      tag_106\n        /* \"#utility.yul\":1361:1362   */\n      0x00\n        /* \"#utility.yul\":1350:1359   */\n      dup4\n        /* \"#utility.yul\":1346:1363   */\n      add\n        /* \"#utility.yul\":1337:1343   */\n      dup5\n        /* \"#utility.yul\":1293:1364   */\n      tag_74\n      jump\t// in\n    tag_106:\n        /* \"#utility.yul\":1149:1371   */\n      swap3\n      swap2\n      pop\n      pop\n      jump\t// out\n        /* \"#utility.yul\":1377:1503   */\n    tag_75:\n        /* \"#utility.yul\":1414:1421   */\n      0x00\n        /* \"#utility.yul\":1454:1496   */\n      0xffffffffffffffffffffffffffffffffffffffff\n        /* \"#utility.yul\":1447:1452   */\n      dup3\n        /* \"#utility.yul\":1443:1497   */\n      and\n        /* \"#utility.yul\":1432:1497   */\n      swap1\n      pop\n        /* \"#utility.yul\":1377:1503   */\n      swap2\n      swap1\n      pop\n      jump\t// out\n        /* \"#utility.yul\":1509:1569   */\n    tag_76:\n        /* \"#utility.yul\":1537:1540   */\n      0x00\n        /* \"#utility.yul\":1558:1563   */\n      dup2\n        /* \"#utility.yul\":1551:1563   */\n      swap1\n      pop\n        /* \"#utility.yul\":1509:1569   */\n      swap2\n      swap1\n      pop\n      jump\t// out\n        /* \"#utility.yul\":1575:1717   */\n    tag_77:\n        /* \"#utility.yul\":1625:1634   */\n      0x00\n        /* \"#utility.yul\":1658:1711   */\n      tag_110\n        /* \"#utility.yul\":1676:1710   */\n      tag_111\n        /* \"#utility.yul\":1685:1709   */\n      tag_112\n        /* \"#utility.yul\":1703:1708   */\n      dup5\n        /* \"#utility.yul\":1685:1709   */\n      tag_75\n      jump\t// in\n    tag_112:\n        /* \"#utility.yul\":1676:1710   */\n      tag_76\n      jump\t// in\n    tag_111:\n        /* \"#utility.yul\":1658:1711   */\n      tag_75\n      jump\t// in\n    tag_110:\n        /* \"#utility.yul\":1645:1711   */\n      swap1\n      pop\n        /* \"#utility.yul\":1575:1717   */\n      swap2\n      swap1\n      pop\n      jump\t// out\n        /* \"#utility.yul\":1723:1849   */\n    tag_78:\n        /* \"#utility.yul\":1773:1782   */\n      0x00\n        /* \"#utility.yul\":1806:1843   */\n      tag_114\n        /* \"#utility.yul\":1837:1842   */\n      dup3\n        /* \"#utility.yul\":1806:1843   */\n      tag_77\n      jump\t// in\n    tag_114:\n        /* \"#utility.yul\":1793:1843   */\n      swap1\n      pop\n        /* \"#utility.yul\":1723:1849   */\n      swap2\n      swap1\n      pop\n      jump\t// out\n        /* \"#utility.yul\":1855:2008   */\n    tag_79:\n        /* \"#utility.yul\":1932:1941   */\n      0x00\n        /* \"#utility.yul\":1965:2002   */\n      tag_116\n        /* \"#utility.yul\":1996:2001   */\n      dup3\n        /* \"#utility.yul\":1965:2002   */\n      tag_78\n      jump\t// in\n    tag_116:\n        /* \"#utility.yul\":1952:2002   */\n      swap1\n      pop\n        /* \"#utility.yul\":1855:2008   */\n      swap2\n      swap1\n      pop\n      jump\t// out\n        /* \"#utility.yul\":2014:2199   */\n    tag_80:\n        /* \"#utility.yul\":2128:2192   */\n      tag_118\n        /* \"#utility.yul\":2186:2191   */\n      dup2\n        /* \"#utility.yul\":2128:2192   */\n      tag_79\n      jump\t// in\n    tag_118:\n        /* \"#utility.yul\":2123:2126   */\n      dup3\n        /* \"#utility.yul\":2116:2193   */\n      mstore\n        /* \"#utility.yul\":2014:2199   */\n      pop\n      pop\n      jump\t// out\n        /* \"#utility.yul\":2205:2481   */\n    tag_23:\n        /* \"#utility.yul\":2325:2329   */\n      0x00\n        /* \"#utility.yul\":2363:2365   */\n      0x20\n        /* \"#utility.yul\":2352:2361   */\n      dup3\n        /* \"#utility.yul\":2348:2366   */\n      add\n        /* \"#utility.yul\":2340:2366   */\n      swap1\n      pop\n        /* \"#utility.yul\":2376:2474   */\n      tag_120\n        /* \"#utility.yul\":2471:2472   */\n      0x00\n        /* \"#utility.yul\":2460:2469   */\n      dup4\n        /* \"#utility.yul\":2456:2473   */\n      add\n        /* \"#utility.yul\":2447:2453   */\n      dup5\n        /* \"#utility.yul\":2376:2474   */\n      tag_80\n      jump\t// in\n    tag_120:\n        /* \"#utility.yul\":2205:2481   */\n      swap3\n      swap2\n      pop\n      pop\n      jump\t// out\n        /* \"#utility.yul\":2487:2667   */\n    tag_81:\n        /* \"#utility.yul\":2535:2612   */\n      0x4e487b7100000000000000000000000000000000000000000000000000000000\n        /* \"#utility.yul\":2532:2533   */\n      0x00\n        /* \"#utility.yul\":2525:2613   */\n      mstore\n        /* \"#utility.yul\":2632:2636   */\n      0x12\n        /* \"#utility.yul\":2629:2630   */\n      0x04\n        /* \"#utility.yul\":2622:2637   */\n      mstore\n        /* \"#utility.yul\":2656:2660   */\n      0x24\n        /* \"#utility.yul\":2653:2654   */\n      0x00\n        /* \"#utility.yul\":2646:2661   */\n      revert\n        /* \"#utility.yul\":2673:2853   */\n    tag_82:\n        /* \"#utility.yul\":2721:2798   */\n      0x4e487b7100000000000000000000000000000000000000000000000000000000\n        /* \"#utility.yul\":2718:2719   */\n      0x00\n        /* \"#utility.yul\":2711:2799   */\n      mstore\n        /* \"#utility.yul\":2818:2822   */\n      0x11\n        /* \"#utility.yul\":2815:2816   */\n      0x04\n        /* \"#utility.yul\":2808:2823   */\n      mstore\n        /* \"#utility.yul\":2842:2846   */\n      0x24\n        /* \"#utility.yul\":2839:2840   */\n      0x00\n        /* \"#utility.yul\":2832:2847   */\n      revert\n        /* \"#utility.yul\":2859:3044   */\n    tag_30:\n        /* \"#utility.yul\":2899:2900   */\n      0x00\n        /* \"#utility.yul\":2916:2936   */\n      tag_124\n        /* \"#utility.yul\":2934:2935   */\n      dup3\n        /* \"#utility.yul\":2916:2936   */\n      tag_71\n      jump\t// in\n    tag_124:\n        /* \"#utility.yul\":2911:2936   */\n      swap2\n      pop\n        /* \"#utility.yul\":2950:2970   */\n      tag_125\n        /* \"#utility.yul\":2968:2969   */\n      dup4\n        /* \"#utility.yul\":2950:2970   */\n      tag_71\n      jump\t// in\n    tag_125:\n        /* \"#utility.yul\":2945:2970   */\n      swap3\n      pop\n        /* \"#utility.yul\":2989:2990   */\n      dup3\n        /* \"#utility.yul\":2979:3014   */\n      tag_126\n      jumpi\n        /* \"#utility.yul\":2994:3012   */\n      tag_127\n      tag_81\n      jump\t// in\n    tag_127:\n        /* \"#utility.yul\":2979:3014   */\n    tag_126:\n        /* \"#utility.yul\":3036:3037   */\n      dup3\n        /* \"#utility.yul\":3033:3034   */\n      dup3\n        /* \"#utility.yul\":3029:3038   */\n      div\n        /* \"#utility.yul\":3024:3038   */\n      swap1\n      pop\n        /* \"#utility.yul\":2859:3044   */\n      swap3\n      swap2\n      pop\n      pop\n      jump\t// out\n        /* \"#utility.yul\":3050:3146   */\n    tag_83:\n        /* \"#utility.yul\":3087:3094   */\n      0x00\n        /* \"#utility.yul\":3116:3140   */\n      tag_129\n        /* \"#utility.yul\":3134:3139   */\n      dup3\n        /* \"#utility.yul\":3116:3140   */\n      tag_75\n      jump\t// in\n    tag_129:\n        /* \"#utility.yul\":3105:3140   */\n      swap1\n      pop\n        /* \"#utility.yul\":3050:3146   */\n      swap2\n      swap1\n      pop\n      jump\t// out\n        /* \"#utility.yul\":3152:3270   */\n    tag_84:\n        /* \"#utility.yul\":3239:3263   */\n      tag_131\n        /* \"#utility.yul\":3257:3262   */\n      dup2\n        /* \"#utility.yul\":3239:3263   */\n      tag_83\n      jump\t// in\n    tag_131:\n        /* \"#utility.yul\":3234:3237   */\n      dup3\n        /* \"#utility.yul\":3227:3264   */\n      mstore\n        /* \"#utility.yul\":3152:3270   */\n      pop\n      pop\n      jump\t// out\n        /* \"#utility.yul\":3276:3498   */\n    tag_35:\n        /* \"#utility.yul\":3369:3373   */\n      0x00\n        /* \"#utility.yul\":3407:3409   */\n      0x20\n        /* \"#utility.yul\":3396:3405   */\n      dup3\n        /* \"#utility.yul\":3392:3410   */\n      add\n        /* \"#utility.yul\":3384:3410   */\n      swap1\n      pop\n        /* \"#utility.yul\":3420:3491   */\n      tag_133\n        /* \"#utility.yul\":3488:3489   */\n      0x00\n        /* \"#utility.yul\":3477:3486   */\n      dup4\n        /* \"#utility.yul\":3473:3490   */\n      add\n        /* \"#utility.yul\":3464:3470   */\n      dup5\n        /* \"#utility.yul\":3420:3491   */\n      tag_84\n      jump\t// in\n    tag_133:\n        /* \"#utility.yul\":3276:3498   */\n      swap3\n      swap2\n      pop\n      pop\n      jump\t// out\n        /* \"#utility.yul\":3504:3647   */\n    tag_85:\n        /* \"#utility.yul\":3561:3566   */\n      0x00\n        /* \"#utility.yul\":3592:3598   */\n      dup2\n        /* \"#utility.yul\":3586:3599   */\n      mload\n        /* \"#utility.yul\":3577:3599   */\n      swap1\n      pop\n        /* \"#utility.yul\":3608:3641   */\n      tag_135\n        /* \"#utility.yul\":3635:3640   */\n      dup2\n        /* \"#utility.yul\":3608:3641   */\n      tag_72\n      jump\t// in\n    tag_135:\n        /* \"#utility.yul\":3504:3647   */\n      swap3\n      swap2\n      pop\n      pop\n      jump\t// out\n        /* \"#utility.yul\":3653:4004   */\n    tag_39:\n        /* \"#utility.yul\":3723:3729   */\n      0x00\n        /* \"#utility.yul\":3772:3774   */\n      0x20\n        /* \"#utility.yul\":3760:3769   */\n      dup3\n        /* \"#utility.yul\":3751:3758   */\n      dup5\n        /* \"#utility.yul\":3747:3770   */\n      sub\n        /* \"#utility.yul\":3743:3775   */\n      slt\n        /* \"#utility.yul\":3740:3859   */\n      iszero\n      tag_137\n      jumpi\n        /* \"#utility.yul\":3778:3857   */\n      tag_138\n      tag_69\n      jump\t// in\n    tag_138:\n        /* \"#utility.yul\":3740:3859   */\n    tag_137:\n        /* \"#utility.yul\":3898:3899   */\n      0x00\n        /* \"#utility.yul\":3923:3987   */\n      tag_139\n        /* \"#utility.yul\":3979:3986   */\n      dup5\n        /* \"#utility.yul\":3970:3976   */\n      dup3\n        /* \"#utility.yul\":3959:3968   */\n      dup6\n        /* \"#utility.yul\":3955:3977   */\n      add\n        /* \"#utility.yul\":3923:3987   */\n      tag_85\n      jump\t// in\n    tag_139:\n        /* \"#utility.yul\":3913:3987   */\n      swap2\n      pop\n        /* \"#utility.yul\":3869:3997   */\n      pop\n        /* \"#utility.yul\":3653:4004   */\n      swap3\n      swap2\n      pop\n      pop\n      jump\t// out\n        /* \"#utility.yul\":4010:4420   */\n    tag_42:\n        /* \"#utility.yul\":4050:4057   */\n      0x00\n        /* \"#utility.yul\":4073:4093   */\n      tag_141\n        /* \"#utility.yul\":4091:4092   */\n      dup3\n        /* \"#utility.yul\":4073:4093   */\n      tag_71\n      jump\t// in\n    tag_141:\n        /* \"#utility.yul\":4068:4093   */\n      swap2\n      pop\n        /* \"#utility.yul\":4107:4127   */\n      tag_142\n        /* \"#utility.yul\":4125:4126   */\n      dup4\n        /* \"#utility.yul\":4107:4127   */\n      tag_71\n      jump\t// in\n    tag_142:\n        /* \"#utility.yul\":4102:4127   */\n      swap3\n      pop\n        /* \"#utility.yul\":4162:4163   */\n      dup3\n        /* \"#utility.yul\":4159:4160   */\n      dup3\n        /* \"#utility.yul\":4155:4164   */\n      mul\n        /* \"#utility.yul\":4184:4214   */\n      tag_143\n        /* \"#utility.yul\":4202:4213   */\n      dup2\n        /* \"#utility.yul\":4184:4214   */\n      tag_71\n      jump\t// in\n    tag_143:\n        /* \"#utility.yul\":4173:4214   */\n      swap2\n      pop\n        /* \"#utility.yul\":4363:4364   */\n      dup3\n        /* \"#utility.yul\":4354:4361   */\n      dup3\n        /* \"#utility.yul\":4350:4365   */\n      div\n        /* \"#utility.yul\":4347:4348   */\n      dup5\n        /* \"#utility.yul\":4344:4366   */\n      eq\n        /* \"#utility.yul\":4324:4325   */\n      dup4\n        /* \"#utility.yul\":4317:4326   */\n      iszero\n        /* \"#utility.yul\":4297:4380   */\n      or\n        /* \"#utility.yul\":4274:4413   */\n      tag_144\n      jumpi\n        /* \"#utility.yul\":4393:4411   */\n      tag_145\n      tag_82\n      jump\t// in\n    tag_145:\n        /* \"#utility.yul\":4274:4413   */\n    tag_144:\n        /* \"#utility.yul\":4058:4420   */\n      pop\n        /* \"#utility.yul\":4010:4420   */\n      swap3\n      swap2\n      pop\n      pop\n      jump\t// out\n        /* \"#utility.yul\":4426:4758   */\n    tag_44:\n        /* \"#utility.yul\":4547:4551   */\n      0x00\n        /* \"#utility.yul\":4585:4587   */\n      0x40\n        /* \"#utility.yul\":4574:4583   */\n      dup3\n        /* \"#utility.yul\":4570:4588   */\n      add\n        /* \"#utility.yul\":4562:4588   */\n      swap1\n      pop\n        /* \"#utility.yul\":4598:4669   */\n      tag_147\n        /* \"#utility.yul\":4666:4667   */\n      0x00\n        /* \"#utility.yul\":4655:4664   */\n      dup4\n        /* \"#utility.yul\":4651:4668   */\n      add\n        /* \"#utility.yul\":4642:4648   */\n      dup6\n        /* \"#utility.yul\":4598:4669   */\n      tag_84\n      jump\t// in\n    tag_147:\n        /* \"#utility.yul\":4679:4751   */\n      tag_148\n        /* \"#utility.yul\":4747:4749   */\n      0x20\n        /* \"#utility.yul\":4736:4745   */\n      dup4\n        /* \"#utility.yul\":4732:4750   */\n      add\n        /* \"#utility.yul\":4723:4729   */\n      dup5\n        /* \"#utility.yul\":4679:4751   */\n      tag_74\n      jump\t// in\n    tag_148:\n        /* \"#utility.yul\":4426:4758   */\n      swap4\n      swap3\n      pop\n      pop\n      pop\n      jump\t// out\n        /* \"#utility.yul\":4764:4854   */\n    tag_86:\n        /* \"#utility.yul\":4798:4805   */\n      0x00\n        /* \"#utility.yul\":4841:4846   */\n      dup2\n        /* \"#utility.yul\":4834:4847   */\n      iszero\n        /* \"#utility.yul\":4827:4848   */\n      iszero\n        /* \"#utility.yul\":4816:4848   */\n      swap1\n      pop\n        /* \"#utility.yul\":4764:4854   */\n      swap2\n      swap1\n      pop\n      jump\t// out\n        /* \"#utility.yul\":4860:4976   */\n    tag_87:\n        /* \"#utility.yul\":4930:4951   */\n      tag_151\n        /* \"#utility.yul\":4945:4950   */\n      dup2\n        /* \"#utility.yul\":4930:4951   */\n      tag_86\n      jump\t// in\n    tag_151:\n        /* \"#utility.yul\":4923:4928   */\n      dup2\n        /* \"#utility.yul\":4920:4952   */\n      eq\n        /* \"#utility.yul\":4910:4970   */\n      tag_152\n      jumpi\n        /* \"#utility.yul\":4966:4967   */\n      0x00\n        /* \"#utility.yul\":4963:4964   */\n      dup1\n        /* \"#utility.yul\":4956:4968   */\n      revert\n        /* \"#utility.yul\":4910:4970   */\n    tag_152:\n        /* \"#utility.yul\":4860:4976   */\n      pop\n      jump\t// out\n        /* \"#utility.yul\":4982:5119   */\n    tag_88:\n        /* \"#utility.yul\":5036:5041   */\n      0x00\n        /* \"#utility.yul\":5067:5073   */\n      dup2\n        /* \"#utility.yul\":5061:5074   */\n      mload\n        /* \"#utility.yul\":5052:5074   */\n      swap1\n      pop\n        /* \"#utility.yul\":5083:5113   */\n      tag_154\n        /* \"#utility.yul\":5107:5112   */\n      dup2\n        /* \"#utility.yul\":5083:5113   */\n      tag_87\n      jump\t// in\n    tag_154:\n        /* \"#utility.yul\":4982:5119   */\n      swap3\n      swap2\n      pop\n      pop\n      jump\t// out\n        /* \"#utility.yul\":5125:5470   */\n    tag_48:\n        /* \"#utility.yul\":5192:5198   */\n      0x00\n        /* \"#utility.yul\":5241:5243   */\n      0x20\n        /* \"#utility.yul\":5229:5238   */\n      dup3\n        /* \"#utility.yul\":5220:5227   */\n      dup5\n        /* \"#utility.yul\":5216:5239   */\n      sub\n        /* \"#utility.yul\":5212:5244   */\n      slt\n        /* \"#utility.yul\":5209:5328   */\n      iszero\n      tag_156\n      jumpi\n        /* \"#utility.yul\":5247:5326   */\n      tag_157\n      tag_69\n      jump\t// in\n    tag_157:\n        /* \"#utility.yul\":5209:5328   */\n    tag_156:\n        /* \"#utility.yul\":5367:5368   */\n      0x00\n        /* \"#utility.yul\":5392:5453   */\n      tag_158\n        /* \"#utility.yul\":5445:5452   */\n      dup5\n        /* \"#utility.yul\":5436:5442   */\n      dup3\n        /* \"#utility.yul\":5425:5434   */\n      dup6\n        /* \"#utility.yul\":5421:5443   */\n      add\n        /* \"#utility.yul\":5392:5453   */\n      tag_88\n      jump\t// in\n    tag_158:\n        /* \"#utility.yul\":5382:5453   */\n      swap2\n      pop\n        /* \"#utility.yul\":5338:5463   */\n      pop\n        /* \"#utility.yul\":5125:5470   */\n      swap3\n      swap2\n      pop\n      pop\n      jump\t// out\n\n    auxdata: 0xa2646970667358221220e67e1daa6fa44468be642c7d240d3ff99e8b8151cea82df347b220f1014bed5c64736f6c634300081a0033\n}\n",
				"bytecode": {
					"linkReferences": {},
					"object": "608060405234801561000f575f80fd5b506040516109c13803806109c183398181016040528101906100319190610160565b335f806101000a81548173ffffffffffffffffffffffffffffffffffffffff021916908373ffffffffffffffffffffffffffffffffffffffff1602179055508160015f6101000a81548173ffffffffffffffffffffffffffffffffffffffff021916908373ffffffffffffffffffffffffffffffffffffffff16021790555080600281905550505061019e565b5f80fd5b5f73ffffffffffffffffffffffffffffffffffffffff82169050919050565b5f6100eb826100c2565b9050919050565b5f6100fc826100e1565b9050919050565b61010c816100f2565b8114610116575f80fd5b50565b5f8151905061012781610103565b92915050565b5f819050919050565b61013f8161012d565b8114610149575f80fd5b50565b5f8151905061015a81610136565b92915050565b5f8060408385031215610176576101756100be565b5b5f61018385828601610119565b92505060206101948582860161014c565b9150509250929050565b610816806101ab5f395ff3fe608060405260043610610049575f3560e01c80632d296bf11461004d578063380d831b14610069578063519ee19e1461007f57806355a373d6146100a95780637ff9b596146100d3575b5f80fd5b61006760048036038101906100629190610530565b6100fd565b005b348015610074575f80fd5b5061007d61027d565b005b34801561008a575f80fd5b50610093610493565b6040516100a0919061056a565b60405180910390f35b3480156100b4575f80fd5b506100bd610499565b6040516100ca91906105fd565b60405180910390f35b3480156100de575f80fd5b506100e76104be565b6040516100f4919061056a565b60405180910390f35b80346101099190610670565b610115826002546104c4565b111561011f575f80fd5b8060015f9054906101000a900473ffffffffffffffffffffffffffffffffffffffff1673ffffffffffffffffffffffffffffffffffffffff166370a08231306040518263ffffffff1660e01b815260040161017a91906106c0565b602060405180830381865afa158015610195573d5f803e3d5ffd5b505050506040513d601f19601f820116820180604052508101906101b991906106ed565b10156101c3575f80fd5b60015f9054906101000a900473ffffffffffffffffffffffffffffffffffffffff1673ffffffffffffffffffffffffffffffffffffffff1663a9059cbb33670de0b6b3a7640000846102159190610718565b6040518363ffffffff1660e01b8152600401610232929190610759565b6020604051808303815f875af115801561024e573d5f803e3d5ffd5b505050506040513d601f19601f8201168201806040525081019061027291906107b5565b61027a575f80fd5b50565b5f8054906101000a900473ffffffffffffffffffffffffffffffffffffffff1673ffffffffffffffffffffffffffffffffffffffff163373ffffffffffffffffffffffffffffffffffffffff16146102d3575f80fd5b60015f9054906101000a900473ffffffffffffffffffffffffffffffffffffffff1673ffffffffffffffffffffffffffffffffffffffff1663a9059cbb5f8054906101000a900473ffffffffffffffffffffffffffffffffffffffff1660015f9054906101000a900473ffffffffffffffffffffffffffffffffffffffff1673ffffffffffffffffffffffffffffffffffffffff166370a08231306040518263ffffffff1660e01b815260040161038a91906106c0565b602060405180830381865afa1580156103a5573d5f803e3d5ffd5b505050506040513d601f19601f820116820180604052508101906103c991906106ed565b6040518363ffffffff1660e01b81526004016103e6929190610759565b6020604051808303815f875af1158015610402573d5f803e3d5ffd5b505050506040513d601f19601f8201168201806040525081019061042691906107b5565b61042e575f80fd5b5f8054906101000a900473ffffffffffffffffffffffffffffffffffffffff1673ffffffffffffffffffffffffffffffffffffffff166108fc4790811502906040515f60405180830381858888f19350505050158015610490573d5f803e3d5ffd5b50565b60035481565b60015f9054906101000a900473ffffffffffffffffffffffffffffffffffffffff1681565b60025481565b5f808214806104eb5750828283856104dc9190610718565b9250826104e99190610670565b145b6104f3575f80fd5b92915050565b5f80fd5b5f819050919050565b61050f816104fd565b8114610519575f80fd5b50565b5f8135905061052a81610506565b92915050565b5f60208284031215610545576105446104f9565b5b5f6105528482850161051c565b91505092915050565b610564816104fd565b82525050565b5f60208201905061057d5f83018461055b565b92915050565b5f73ffffffffffffffffffffffffffffffffffffffff82169050919050565b5f819050919050565b5f6105c56105c06105bb84610583565b6105a2565b610583565b9050919050565b5f6105d6826105ab565b9050919050565b5f6105e7826105cc565b9050919050565b6105f7816105dd565b82525050565b5f6020820190506106105f8301846105ee565b92915050565b7f4e487b71000000000000000000000000000000000000000000000000000000005f52601260045260245ffd5b7f4e487b71000000000000000000000000000000000000000000000000000000005f52601160045260245ffd5b5f61067a826104fd565b9150610685836104fd565b92508261069557610694610616565b5b828204905092915050565b5f6106aa82610583565b9050919050565b6106ba816106a0565b82525050565b5f6020820190506106d35f8301846106b1565b92915050565b5f815190506106e781610506565b92915050565b5f60208284031215610702576107016104f9565b5b5f61070f848285016106d9565b91505092915050565b5f610722826104fd565b915061072d836104fd565b925082820261073b816104fd565b9150828204841483151761075257610751610643565b5b5092915050565b5f60408201905061076c5f8301856106b1565b610779602083018461055b565b9392505050565b5f8115159050919050565b61079481610780565b811461079e575f80fd5b50565b5f815190506107af8161078b565b92915050565b5f602082840312156107ca576107c96104f9565b5b5f6107d7848285016107a1565b9150509291505056fea2646970667358221220e67e1daa6fa44468be642c7d240d3ff99e8b8151cea82df347b220f1014bed5c64736f6c634300081a0033",
					"opcodes": "PUSH1 0x80 PUSH1 0x40 MSTORE CALLVALUE DUP1 ISZERO PUSH2 0xF JUMPI PUSH0 DUP1 REVERT JUMPDEST POP PUSH1 0x40 MLOAD PUSH2 0x9C1 CODESIZE SUB DUP1 PUSH2 0x9C1 DUP4 CODECOPY DUP2 DUP2 ADD PUSH1 0x40 MSTORE DUP2 ADD SWAP1 PUSH2 0x31 SWAP2 SWAP1 PUSH2 0x160 JUMP JUMPDEST CALLER PUSH0 DUP1 PUSH2 0x100 EXP DUP2 SLOAD DUP2 PUSH20 0xFFFFFFFFFFFFFFFFFFFFFFFFFFFFFFFFFFFFFFFF MUL NOT AND SWAP1 DUP4 PUSH20 0xFFFFFFFFFFFFFFFFFFFFFFFFFFFFFFFFFFFFFFFF AND MUL OR SWAP1 SSTORE POP DUP2 PUSH1 0x1 PUSH0 PUSH2 0x100 EXP DUP2 SLOAD DUP2 PUSH20 0xFFFFFFFFFFFFFFFFFFFFFFFFFFFFFFFFFFFFFFFF MUL NOT AND SWAP1 DUP4 PUSH20 0xFFFFFFFFFFFFFFFFFFFFFFFFFFFFFFFFFFFFFFFF AND MUL OR SWAP1 SSTORE POP DUP1 PUSH1 0x2 DUP2 SWAP1 SSTORE POP POP POP PUSH2 0x19E JUMP JUMPDEST PUSH0 DUP1 REVERT JUMPDEST PUSH0 PUSH20 0xFFFFFFFFFFFFFFFFFFFFFFFFFFFFFFFFFFFFFFFF DUP3 AND SWAP1 POP SWAP2 SWAP1 POP JUMP JUMPDEST PUSH0 PUSH2 0xEB DUP3 PUSH2 0xC2 JUMP JUMPDEST SWAP1 POP SWAP2 SWAP1 POP JUMP JUMPDEST PUSH0 PUSH2 0xFC DUP3 PUSH2 0xE1 JUMP JUMPDEST SWAP1 POP SWAP2 SWAP1 POP JUMP JUMPDEST PUSH2 0x10C DUP2 PUSH2 0xF2 JUMP JUMPDEST DUP2 EQ PUSH2 0x116 JUMPI PUSH0 DUP1 REVERT JUMPDEST POP JUMP JUMPDEST PUSH0 DUP2 MLOAD SWAP1 POP PUSH2 0x127 DUP2 PUSH2 0x103 JUMP JUMPDEST SWAP3 SWAP2 POP POP JUMP JUMPDEST PUSH0 DUP2 SWAP1 POP SWAP2 SWAP1 POP JUMP JUMPDEST PUSH2 0x13F DUP2 PUSH2 0x12D JUMP JUMPDEST DUP2 EQ PUSH2 0x149 JUMPI PUSH0 DUP1 REVERT JUMPDEST POP JUMP JUMPDEST PUSH0 DUP2 MLOAD SWAP1 POP PUSH2 0x15A DUP2 PUSH2 0x136 JUMP JUMPDEST SWAP3 SWAP2 POP POP JUMP JUMPDEST PUSH0 DUP1 PUSH1 0x40 DUP4 DUP6 SUB SLT ISZERO PUSH2 0x176 JUMPI PUSH2 0x175 PUSH2 0xBE JUMP JUMPDEST JUMPDEST PUSH0 PUSH2 0x183 DUP6 DUP3 DUP7 ADD PUSH2 0x119 JUMP JUMPDEST SWAP3 POP POP PUSH1 0x20 PUSH2 0x194 DUP6 DUP3 DUP7 ADD PUSH2 0x14C JUMP JUMPDEST SWAP2 POP POP SWAP3 POP SWAP3 SWAP1 POP JUMP JUMPDEST PUSH2 0x816 DUP1 PUSH2 0x1AB PUSH0 CODECOPY PUSH0 RETURN INVALID PUSH1 0x80 PUSH1 0x40 MSTORE PUSH1 0x4 CALLDATASIZE LT PUSH2 0x49 JUMPI PUSH0 CALLDATALOAD PUSH1 0xE0 SHR DUP1 PUSH4 0x2D296BF1 EQ PUSH2 0x4D JUMPI DUP1 PUSH4 0x380D831B EQ PUSH2 0x69 JUMPI DUP1 PUSH4 0x519EE19E EQ PUSH2 0x7F JUMPI DUP1 PUSH4 0x55A373D6 EQ PUSH2 0xA9 JUMPI DUP1 PUSH4 0x7FF9B596 EQ PUSH2 0xD3 JUMPI JUMPDEST PUSH0 DUP1 REVERT JUMPDEST PUSH2 0x67 PUSH1 0x4 DUP1 CALLDATASIZE SUB DUP2 ADD SWAP1 PUSH2 0x62 SWAP2 SWAP1 PUSH2 0x530 JUMP JUMPDEST PUSH2 0xFD JUMP JUMPDEST STOP JUMPDEST CALLVALUE DUP1 ISZERO PUSH2 0x74 JUMPI PUSH0 DUP1 REVERT JUMPDEST POP PUSH2 0x7D PUSH2 0x27D JUMP JUMPDEST STOP JUMPDEST CALLVALUE DUP1 ISZERO PUSH2 0x8A JUMPI PUSH0 DUP1 REVERT JUMPDEST POP PUSH2 0x93 PUSH2 0x493 JUMP JUMPDEST PUSH1 0x40 MLOAD PUSH2 0xA0 SWAP2 SWAP1 PUSH2 0x56A JUMP JUMPDEST PUSH1 0x40 MLOAD DUP1 SWAP2 SUB SWAP1 RETURN JUMPDEST CALLVALUE DUP1 ISZERO PUSH2 0xB4 JUMPI PUSH0 DUP1 REVERT JUMPDEST POP PUSH2 0xBD PUSH2 0x499 JUMP JUMPDEST PUSH1 0x40 MLOAD PUSH2 0xCA SWAP2 SWAP1 PUSH2 0x5FD JUMP JUMPDEST PUSH1 0x40 MLOAD DUP1 SWAP2 SUB SWAP1 RETURN JUMPDEST CALLVALUE DUP1 ISZERO PUSH2 0xDE JUMPI PUSH0 DUP1 REVERT JUMPDEST POP PUSH2 0xE7 PUSH2 0x4BE JUMP JUMPDEST PUSH1 0x40 MLOAD PUSH2 0xF4 SWAP2 SWAP1 PUSH2 0x56A JUMP JUMPDEST PUSH1 0x40 MLOAD DUP1 SWAP2 SUB SWAP1 RETURN JUMPDEST DUP1 CALLVALUE PUSH2 0x109 SWAP2 SWAP1 PUSH2 0x670 JUMP JUMPDEST PUSH2 0x115 DUP3 PUSH1 0x2 SLOAD PUSH2 0x4C4 JUMP JUMPDEST GT ISZERO PUSH2 0x11F JUMPI PUSH0 DUP1 REVERT JUMPDEST DUP1 PUSH1 0x1 PUSH0 SWAP1 SLOAD SWAP1 PUSH2 0x100 EXP SWAP1 DIV PUSH20 0xFFFFFFFFFFFFFFFFFFFFFFFFFFFFFFFFFFFFFFFF AND PUSH20 0xFFFFFFFFFFFFFFFFFFFFFFFFFFFFFFFFFFFFFFFF AND PUSH4 0x70A08231 ADDRESS PUSH1 0x40 MLOAD DUP3 PUSH4 0xFFFFFFFF AND PUSH1 0xE0 SHL DUP2 MSTORE PUSH1 0x4 ADD PUSH2 0x17A SWAP2 SWAP1 PUSH2 0x6C0 JUMP JUMPDEST PUSH1 0x20 PUSH1 0x40 MLOAD DUP1 DUP4 SUB DUP2 DUP7 GAS STATICCALL ISZERO DUP1 ISZERO PUSH2 0x195 JUMPI RETURNDATASIZE PUSH0 DUP1 RETURNDATACOPY RETURNDATASIZE PUSH0 REVERT JUMPDEST POP POP POP POP PUSH1 0x40 MLOAD RETURNDATASIZE PUSH1 0x1F NOT PUSH1 0x1F DUP3 ADD AND DUP3 ADD DUP1 PUSH1 0x40 MSTORE POP DUP2 ADD SWAP1 PUSH2 0x1B9 SWAP2 SWAP1 PUSH2 0x6ED JUMP JUMPDEST LT ISZERO PUSH2 0x1C3 JUMPI PUSH0 DUP1 REVERT JUMPDEST PUSH1 0x1 PUSH0 SWAP1 SLOAD SWAP1 PUSH2 0x100 EXP SWAP1 DIV PUSH20 0xFFFFFFFFFFFFFFFFFFFFFFFFFFFFFFFFFFFFFFFF AND PUSH20 0xFFFFFFFFFFFFFFFFFFFFFFFFFFFFFFFFFFFFFFFF AND PUSH4 0xA9059CBB CALLER PUSH8 0xDE0B6B3A7640000 DUP5 PUSH2 0x215 SWAP2 SWAP1 PUSH2 0x718 JUMP JUMPDEST PUSH1 0x40 MLOAD DUP4 PUSH4 0xFFFFFFFF AND PUSH1 0xE0 SHL DUP2 MSTORE PUSH1 0x4 ADD PUSH2 0x232 SWAP3 SWAP2 SWAP1 PUSH2 0x759 JUMP JUMPDEST PUSH1 0x20 PUSH1 0x40 MLOAD DUP1 DUP4 SUB DUP2 PUSH0 DUP8 GAS CALL ISZERO DUP1 ISZERO PUSH2 0x24E JUMPI RETURNDATASIZE PUSH0 DUP1 RETURNDATACOPY RETURNDATASIZE PUSH0 REVERT JUMPDEST POP POP POP POP PUSH1 0x40 MLOAD RETURNDATASIZE PUSH1 0x1F NOT PUSH1 0x1F DUP3 ADD AND DUP3 ADD DUP1 PUSH1 0x40 MSTORE POP DUP2 ADD SWAP1 PUSH2 0x272 SWAP2 SWAP1 PUSH2 0x7B5 JUMP JUMPDEST PUSH2 0x27A JUMPI PUSH0 DUP1 REVERT JUMPDEST POP JUMP JUMPDEST PUSH0 DUP1 SLOAD SWAP1 PUSH2 0x100 EXP SWAP1 DIV PUSH20 0xFFFFFFFFFFFFFFFFFFFFFFFFFFFFFFFFFFFFFFFF AND PUSH20 0xFFFFFFFFFFFFFFFFFFFFFFFFFFFFFFFFFFFFFFFF AND CALLER PUSH20 0xFFFFFFFFFFFFFFFFFFFFFFFFFFFFFFFFFFFFFFFF AND EQ PUSH2 0x2D3 JUMPI PUSH0 DUP1 REVERT JUMPDEST PUSH1 0x1 PUSH0 SWAP1 SLOAD SWAP1 PUSH2 0x100 EXP SWAP1 DIV PUSH20 0xFFFFFFFFFFFFFFFFFFFFFFFFFFFFFFFFFFFFFFFF AND PUSH20 0xFFFFFFFFFFFFFFFFFFFFFFFFFFFFFFFFFFFFFFFF AND PUSH4 0xA9059CBB PUSH0 DUP1 SLOAD SWAP1 PUSH2 0x100 EXP SWAP1 DIV PUSH20 0xFFFFFFFFFFFFFFFFFFFFFFFFFFFFFFFFFFFFFFFF AND PUSH1 0x1 PUSH0 SWAP1 SLOAD SWAP1 PUSH2 0x100 EXP SWAP1 DIV PUSH20 0xFFFFFFFFFFFFFFFFFFFFFFFFFFFFFFFFFFFFFFFF AND PUSH20 0xFFFFFFFFFFFFFFFFFFFFFFFFFFFFFFFFFFFFFFFF AND PUSH4 0x70A08231 ADDRESS PUSH1 0x40 MLOAD DUP3 PUSH4 0xFFFFFFFF AND PUSH1 0xE0 SHL DUP2 MSTORE PUSH1 0x4 ADD PUSH2 0x38A SWAP2 SWAP1 PUSH2 0x6C0 JUMP JUMPDEST PUSH1 0x20 PUSH1 0x40 MLOAD DUP1 DUP4 SUB DUP2 DUP7 GAS STATICCALL ISZERO DUP1 ISZERO PUSH2 0x3A5 JUMPI RETURNDATASIZE PUSH0 DUP1 RETURNDATACOPY RETURNDATASIZE PUSH0 REVERT JUMPDEST POP POP POP POP PUSH1 0x40 MLOAD RETURNDATASIZE PUSH1 0x1F NOT PUSH1 0x1F DUP3 ADD AND DUP3 ADD DUP1 PUSH1 0x40 MSTORE POP DUP2 ADD SWAP1 PUSH2 0x3C9 SWAP2 SWAP1 PUSH2 0x6ED JUMP JUMPDEST PUSH1 0x40 MLOAD DUP4 PUSH4 0xFFFFFFFF AND PUSH1 0xE0 SHL DUP2 MSTORE PUSH1 0x4 ADD PUSH2 0x3E6 SWAP3 SWAP2 SWAP1 PUSH2 0x759 JUMP JUMPDEST PUSH1 0x20 PUSH1 0x40 MLOAD DUP1 DUP4 SUB DUP2 PUSH0 DUP8 GAS CALL ISZERO DUP1 ISZERO PUSH2 0x402 JUMPI RETURNDATASIZE PUSH0 DUP1 RETURNDATACOPY RETURNDATASIZE PUSH0 REVERT JUMPDEST POP POP POP POP PUSH1 0x40 MLOAD RETURNDATASIZE PUSH1 0x1F NOT PUSH1 0x1F DUP3 ADD AND DUP3 ADD DUP1 PUSH1 0x40 MSTORE POP DUP2 ADD SWAP1 PUSH2 0x426 SWAP2 SWAP1 PUSH2 0x7B5 JUMP JUMPDEST PUSH2 0x42E JUMPI PUSH0 DUP1 REVERT JUMPDEST PUSH0 DUP1 SLOAD SWAP1 PUSH2 0x100 EXP SWAP1 DIV PUSH20 0xFFFFFFFFFFFFFFFFFFFFFFFFFFFFFFFFFFFFFFFF AND PUSH20 0xFFFFFFFFFFFFFFFFFFFFFFFFFFFFFFFFFFFFFFFF AND PUSH2 0x8FC SELFBALANCE SWAP1 DUP2 ISZERO MUL SWAP1 PUSH1 0x40 MLOAD PUSH0 PUSH1 0x40 MLOAD DUP1 DUP4 SUB DUP2 DUP6 DUP9 DUP9 CALL SWAP4 POP POP POP POP ISZERO DUP1 ISZERO PUSH2 0x490 JUMPI RETURNDATASIZE PUSH0 DUP1 RETURNDATACOPY RETURNDATASIZE PUSH0 REVERT JUMPDEST POP JUMP JUMPDEST PUSH1 0x3 SLOAD DUP2 JUMP JUMPDEST PUSH1 0x1 PUSH0 SWAP1 SLOAD SWAP1 PUSH2 0x100 EXP SWAP1 DIV PUSH20 0xFFFFFFFFFFFFFFFFFFFFFFFFFFFFFFFFFFFFFFFF AND DUP2 JUMP JUMPDEST PUSH1 0x2 SLOAD DUP2 JUMP JUMPDEST PUSH0 DUP1 DUP3 EQ DUP1 PUSH2 0x4EB JUMPI POP DUP3 DUP3 DUP4 DUP6 PUSH2 0x4DC SWAP2 SWAP1 PUSH2 0x718 JUMP JUMPDEST SWAP3 POP DUP3 PUSH2 0x4E9 SWAP2 SWAP1 PUSH2 0x670 JUMP JUMPDEST EQ JUMPDEST PUSH2 0x4F3 JUMPI PUSH0 DUP1 REVERT JUMPDEST SWAP3 SWAP2 POP POP JUMP JUMPDEST PUSH0 DUP1 REVERT JUMPDEST PUSH0 DUP2 SWAP1 POP SWAP2 SWAP1 POP JUMP JUMPDEST PUSH2 0x50F DUP2 PUSH2 0x4FD JUMP JUMPDEST DUP2 EQ PUSH2 0x519 JUMPI PUSH0 DUP1 REVERT JUMPDEST POP JUMP JUMPDEST PUSH0 DUP2 CALLDATALOAD SWAP1 POP PUSH2 0x52A DUP2 PUSH2 0x506 JUMP JUMPDEST SWAP3 SWAP2 POP POP JUMP JUMPDEST PUSH0 PUSH1 0x20 DUP3 DUP5 SUB SLT ISZERO PUSH2 0x545 JUMPI PUSH2 0x544 PUSH2 0x4F9 JUMP JUMPDEST JUMPDEST PUSH0 PUSH2 0x552 DUP5 DUP3 DUP6 ADD PUSH2 0x51C JUMP JUMPDEST SWAP2 POP POP SWAP3 SWAP2 POP POP JUMP JUMPDEST PUSH2 0x564 DUP2 PUSH2 0x4FD JUMP JUMPDEST DUP3 MSTORE POP POP JUMP JUMPDEST PUSH0 PUSH1 0x20 DUP3 ADD SWAP1 POP PUSH2 0x57D PUSH0 DUP4 ADD DUP5 PUSH2 0x55B JUMP JUMPDEST SWAP3 SWAP2 POP POP JUMP JUMPDEST PUSH0 PUSH20 0xFFFFFFFFFFFFFFFFFFFFFFFFFFFFFFFFFFFFFFFF DUP3 AND SWAP1 POP SWAP2 SWAP1 POP JUMP JUMPDEST PUSH0 DUP2 SWAP1 POP SWAP2 SWAP1 POP JUMP JUMPDEST PUSH0 PUSH2 0x5C5 PUSH2 0x5C0 PUSH2 0x5BB DUP5 PUSH2 0x583 JUMP JUMPDEST PUSH2 0x5A2 JUMP JUMPDEST PUSH2 0x583 JUMP JUMPDEST SWAP1 POP SWAP2 SWAP1 POP JUMP JUMPDEST PUSH0 PUSH2 0x5D6 DUP3 PUSH2 0x5AB JUMP JUMPDEST SWAP1 POP SWAP2 SWAP1 POP JUMP JUMPDEST PUSH0 PUSH2 0x5E7 DUP3 PUSH2 0x5CC JUMP JUMPDEST SWAP1 POP SWAP2 SWAP1 POP JUMP JUMPDEST PUSH2 0x5F7 DUP2 PUSH2 0x5DD JUMP JUMPDEST DUP3 MSTORE POP POP JUMP JUMPDEST PUSH0 PUSH1 0x20 DUP3 ADD SWAP1 POP PUSH2 0x610 PUSH0 DUP4 ADD DUP5 PUSH2 0x5EE JUMP JUMPDEST SWAP3 SWAP2 POP POP JUMP JUMPDEST PUSH32 0x4E487B7100000000000000000000000000000000000000000000000000000000 PUSH0 MSTORE PUSH1 0x12 PUSH1 0x4 MSTORE PUSH1 0x24 PUSH0 REVERT JUMPDEST PUSH32 0x4E487B7100000000000000000000000000000000000000000000000000000000 PUSH0 MSTORE PUSH1 0x11 PUSH1 0x4 MSTORE PUSH1 0x24 PUSH0 REVERT JUMPDEST PUSH0 PUSH2 0x67A DUP3 PUSH2 0x4FD JUMP JUMPDEST SWAP2 POP PUSH2 0x685 DUP4 PUSH2 0x4FD JUMP JUMPDEST SWAP3 POP DUP3 PUSH2 0x695 JUMPI PUSH2 0x694 PUSH2 0x616 JUMP JUMPDEST JUMPDEST DUP3 DUP3 DIV SWAP1 POP SWAP3 SWAP2 POP POP JUMP JUMPDEST PUSH0 PUSH2 0x6AA DUP3 PUSH2 0x583 JUMP JUMPDEST SWAP1 POP SWAP2 SWAP1 POP JUMP JUMPDEST PUSH2 0x6BA DUP2 PUSH2 0x6A0 JUMP JUMPDEST DUP3 MSTORE POP POP JUMP JUMPDEST PUSH0 PUSH1 0x20 DUP3 ADD SWAP1 POP PUSH2 0x6D3 PUSH0 DUP4 ADD DUP5 PUSH2 0x6B1 JUMP JUMPDEST SWAP3 SWAP2 POP POP JUMP JUMPDEST PUSH0 DUP2 MLOAD SWAP1 POP PUSH2 0x6E7 DUP2 PUSH2 0x506 JUMP JUMPDEST SWAP3 SWAP2 POP POP JUMP JUMPDEST PUSH0 PUSH1 0x20 DUP3 DUP5 SUB SLT ISZERO PUSH2 0x702 JUMPI PUSH2 0x701 PUSH2 0x4F9 JUMP JUMPDEST JUMPDEST PUSH0 PUSH2 0x70F DUP5 DUP3 DUP6 ADD PUSH2 0x6D9 JUMP JUMPDEST SWAP2 POP POP SWAP3 SWAP2 POP POP JUMP JUMPDEST PUSH0 PUSH2 0x722 DUP3 PUSH2 0x4FD JUMP JUMPDEST SWAP2 POP PUSH2 0x72D DUP4 PUSH2 0x4FD JUMP JUMPDEST SWAP3 POP DUP3 DUP3 MUL PUSH2 0x73B DUP2 PUSH2 0x4FD JUMP JUMPDEST SWAP2 POP DUP3 DUP3 DIV DUP5 EQ DUP4 ISZERO OR PUSH2 0x752 JUMPI PUSH2 0x751 PUSH2 0x643 JUMP JUMPDEST JUMPDEST POP SWAP3 SWAP2 POP POP JUMP JUMPDEST PUSH0 PUSH1 0x40 DUP3 ADD SWAP1 POP PUSH2 0x76C PUSH0 DUP4 ADD DUP6 PUSH2 0x6B1 JUMP JUMPDEST PUSH2 0x779 PUSH1 0x20 DUP4 ADD DUP5 PUSH2 0x55B JUMP JUMPDEST SWAP4 SWAP3 POP POP POP JUMP JUMPDEST PUSH0 DUP2 ISZERO ISZERO SWAP1 POP SWAP2 SWAP1 POP JUMP JUMPDEST PUSH2 0x794 DUP2 PUSH2 0x780 JUMP JUMPDEST DUP2 EQ PUSH2 0x79E JUMPI PUSH0 DUP1 REVERT JUMPDEST POP JUMP JUMPDEST PUSH0 DUP2 MLOAD SWAP1 POP PUSH2 0x7AF DUP2 PUSH2 0x78B JUMP JUMPDEST SWAP3 SWAP2 POP POP JUMP JUMPDEST PUSH0 PUSH1 0x20 DUP3 DUP5 SUB SLT ISZERO PUSH2 0x7CA JUMPI PUSH2 0x7C9 PUSH2 0x4F9 JUMP JUMPDEST JUMPDEST PUSH0 PUSH2 0x7D7 DUP5 DUP3 DUP6 ADD PUSH2 0x7A1 JUMP JUMPDEST SWAP2 POP POP SWAP3 SWAP2 POP POP JUMP INVALID LOG2 PUSH5 0x6970667358 0x22 SLT KECCAK256 0xE6 PUSH31 0x1DAA6FA44468BE642C7D240D3FF99E8B8151CEA82DF347B220F1014BED5C64 PUSH20 0x6F6C634300081A00330000000000000000000000 "
				},
				"gasEstimates": {
					"creation": {
						"codeDepositCost": "414000",
						"executionCost": "infinite",
						"totalCost": "infinite"
					},
					"external": {
						"buyToken(uint256)": "infinite",
						"endSale()": "infinite",
						"tokenContract()": "infinite",
						"tokenPrice()": "2491",
						"tokenSold()": "2447"
					},
					"internal": {
						"multiply(uint256,uint256)": "infinite"
					}
				},
				"methodIdentifiers": {
					"buyToken(uint256)": "2d296bf1",
					"endSale()": "380d831b",
					"tokenContract()": "55a373d6",
					"tokenPrice()": "7ff9b596",
					"tokenSold()": "519ee19e"
				}
			},
			"storageLayout": {
				"storage": [
					{
						"astId": 293,
						"contract": "Crypto_Selling_dApps/TokenSaleContract.sol:TokenSale",
						"label": "admin",
						"offset": 0,
						"slot": "0",
						"type": "t_address"
					},
					{
						"astId": 296,
						"contract": "Crypto_Selling_dApps/TokenSaleContract.sol:TokenSale",
						"label": "tokenContract",
						"offset": 0,
						"slot": "1",
						"type": "t_contract(TheBlockchainCoders)288"
					},
					{
						"astId": 298,
						"contract": "Crypto_Selling_dApps/TokenSaleContract.sol:TokenSale",
						"label": "tokenPrice",
						"offset": 0,
						"slot": "2",
						"type": "t_uint256"
					},
					{
						"astId": 300,
						"contract": "Crypto_Selling_dApps/TokenSaleContract.sol:TokenSale",
						"label": "tokenSold",
						"offset": 0,
						"slot": "3",
						"type": "t_uint256"
					}
				],
				"types": {
					"t_address": {
						"encoding": "inplace",
						"label": "address",
						"numberOfBytes": "20"
					},
					"t_contract(TheBlockchainCoders)288": {
						"encoding": "inplace",
						"label": "contract TheBlockchainCoders",
						"numberOfBytes": "20"
					},
					"t_uint256": {
						"encoding": "inplace",
						"label": "uint256",
						"numberOfBytes": "32"
					}
				}
			},
			"userdoc": {
				"kind": "user",
				"methods": {},
				"version": 1
			}
		}
	}
}